{
  "_format": "hh-sol-artifact-1",
  "contractName": "FishingSpot",
  "sourceName": "contracts/FishingSpot.sol",
  "abi": [
    {
      "inputs": [],
      "stateMutability": "nonpayable",
      "type": "constructor"
    },
    {
      "anonymous": false,
      "inputs": [
        {
          "indexed": true,
          "internalType": "uint256",
          "name": "spotId",
          "type": "uint256"
        },
        {
          "indexed": false,
          "internalType": "string",
          "name": "fishFramName",
          "type": "string"
        },
        {
          "indexed": false,
          "internalType": "uint8",
          "name": "entryLevel",
          "type": "uint8"
        }
      ],
      "name": "FishingSpotAdded",
      "type": "event"
    },
    {
      "anonymous": false,
      "inputs": [
        {
          "indexed": true,
          "internalType": "uint256",
          "name": "spotId",
          "type": "uint256"
        },
        {
          "indexed": false,
          "internalType": "string",
          "name": "fishFramName",
          "type": "string"
        },
        {
          "indexed": false,
          "internalType": "uint8",
          "name": "entryLevel",
          "type": "uint8"
        }
      ],
      "name": "FishingSpotUpdated",
      "type": "event"
    },
    {
      "anonymous": false,
      "inputs": [
        {
          "indexed": true,
          "internalType": "address",
          "name": "previousOwner",
          "type": "address"
        },
        {
          "indexed": true,
          "internalType": "address",
          "name": "newOwner",
          "type": "address"
        }
      ],
      "name": "OwnershipTransferred",
      "type": "event"
    },
    {
      "anonymous": false,
      "inputs": [
        {
          "indexed": true,
          "internalType": "bytes32",
          "name": "role",
          "type": "bytes32"
        },
        {
          "indexed": true,
          "internalType": "bytes32",
          "name": "previousAdminRole",
          "type": "bytes32"
        },
        {
          "indexed": true,
          "internalType": "bytes32",
          "name": "newAdminRole",
          "type": "bytes32"
        }
      ],
      "name": "RoleAdminChanged",
      "type": "event"
    },
    {
      "anonymous": false,
      "inputs": [
        {
          "indexed": true,
          "internalType": "bytes32",
          "name": "role",
          "type": "bytes32"
        },
        {
          "indexed": true,
          "internalType": "address",
          "name": "account",
          "type": "address"
        },
        {
          "indexed": true,
          "internalType": "address",
          "name": "sender",
          "type": "address"
        }
      ],
      "name": "RoleGranted",
      "type": "event"
    },
    {
      "anonymous": false,
      "inputs": [
        {
          "indexed": true,
          "internalType": "bytes32",
          "name": "role",
          "type": "bytes32"
        },
        {
          "indexed": true,
          "internalType": "address",
          "name": "account",
          "type": "address"
        },
        {
          "indexed": true,
          "internalType": "address",
          "name": "sender",
          "type": "address"
        }
      ],
      "name": "RoleRevoked",
      "type": "event"
    },
    {
      "inputs": [],
      "name": "ADMIN_ROLE",
      "outputs": [
        {
          "internalType": "bytes32",
          "name": "",
          "type": "bytes32"
        }
      ],
      "stateMutability": "view",
      "type": "function"
    },
    {
      "inputs": [],
      "name": "DEFAULT_ADMIN_ROLE",
      "outputs": [
        {
          "internalType": "bytes32",
          "name": "",
          "type": "bytes32"
        }
      ],
      "stateMutability": "view",
      "type": "function"
    },
    {
      "inputs": [
        {
          "internalType": "address",
          "name": "newAdmin",
          "type": "address"
        }
      ],
      "name": "addAdmin",
      "outputs": [],
      "stateMutability": "nonpayable",
      "type": "function"
    },
    {
      "inputs": [
        {
          "internalType": "uint256",
          "name": "spotId",
          "type": "uint256"
        },
        {
          "internalType": "string",
          "name": "fishFramName",
          "type": "string"
        },
        {
          "components": [
            {
              "internalType": "uint256",
              "name": "id",
              "type": "uint256"
            },
            {
              "internalType": "string",
              "name": "fishName",
              "type": "string"
            },
            {
              "internalType": "string",
              "name": "res",
              "type": "string"
            },
            {
              "internalType": "uint256",
              "name": "rarityID",
              "type": "uint256"
            },
            {
              "internalType": "uint256",
              "name": "rarityNum",
              "type": "uint256"
            },
            {
              "internalType": "uint256",
              "name": "fishFarm",
              "type": "uint256"
            },
            {
              "internalType": "string",
              "name": "fishFramName",
              "type": "string"
            },
            {
              "internalType": "uint256",
              "name": "price",
              "type": "uint256"
            },
            {
              "internalType": "uint256",
              "name": "output",
              "type": "uint256"
            },
            {
              "internalType": "string",
              "name": "rarity",
              "type": "string"
            }
          ],
          "internalType": "struct FishingSpot.Fish[]",
          "name": "fishList",
          "type": "tuple[]"
        },
        {
          "internalType": "uint8",
          "name": "entryLevel",
          "type": "uint8"
        }
      ],
      "name": "addFishingSpot",
      "outputs": [
        {
          "internalType": "bool",
          "name": "",
          "type": "bool"
        }
      ],
      "stateMutability": "nonpayable",
      "type": "function"
    },
    {
      "inputs": [],
      "name": "getAllFishingSpotIds",
      "outputs": [
        {
          "internalType": "uint256[]",
          "name": "",
          "type": "uint256[]"
        }
      ],
      "stateMutability": "view",
      "type": "function"
    },
    {
      "inputs": [
        {
          "internalType": "uint256",
          "name": "spotId",
          "type": "uint256"
        }
      ],
      "name": "getFishingSpotConfig",
      "outputs": [
        {
          "components": [
            {
              "internalType": "string",
              "name": "fishFramName",
              "type": "string"
            },
            {
              "components": [
                {
                  "internalType": "uint256",
                  "name": "id",
                  "type": "uint256"
                },
                {
                  "internalType": "string",
                  "name": "fishName",
                  "type": "string"
                },
                {
                  "internalType": "string",
                  "name": "res",
                  "type": "string"
                },
                {
                  "internalType": "uint256",
                  "name": "rarityID",
                  "type": "uint256"
                },
                {
                  "internalType": "uint256",
                  "name": "rarityNum",
                  "type": "uint256"
                },
                {
                  "internalType": "uint256",
                  "name": "fishFarm",
                  "type": "uint256"
                },
                {
                  "internalType": "string",
                  "name": "fishFramName",
                  "type": "string"
                },
                {
                  "internalType": "uint256",
                  "name": "price",
                  "type": "uint256"
                },
                {
                  "internalType": "uint256",
                  "name": "output",
                  "type": "uint256"
                },
                {
                  "internalType": "string",
                  "name": "rarity",
                  "type": "string"
                }
              ],
              "internalType": "struct FishingSpot.Fish[]",
              "name": "fishList",
              "type": "tuple[]"
            },
            {
              "internalType": "uint8",
              "name": "entryLevel",
              "type": "uint8"
            }
          ],
          "internalType": "struct FishingSpot.SpotConfig",
          "name": "",
          "type": "tuple"
        }
      ],
      "stateMutability": "view",
      "type": "function"
    },
    {
      "inputs": [
        {
          "internalType": "bytes32",
          "name": "role",
          "type": "bytes32"
        }
      ],
      "name": "getRoleAdmin",
      "outputs": [
        {
          "internalType": "bytes32",
          "name": "",
          "type": "bytes32"
        }
      ],
      "stateMutability": "view",
      "type": "function"
    },
    {
      "inputs": [
        {
          "internalType": "bytes32",
          "name": "role",
          "type": "bytes32"
        },
        {
          "internalType": "address",
          "name": "account",
          "type": "address"
        }
      ],
      "name": "grantRole",
      "outputs": [],
      "stateMutability": "nonpayable",
      "type": "function"
    },
    {
      "inputs": [
        {
          "internalType": "bytes32",
          "name": "role",
          "type": "bytes32"
        },
        {
          "internalType": "address",
          "name": "account",
          "type": "address"
        }
      ],
      "name": "hasRole",
      "outputs": [
        {
          "internalType": "bool",
          "name": "",
          "type": "bool"
        }
      ],
      "stateMutability": "view",
      "type": "function"
    },
    {
      "inputs": [],
      "name": "owner",
      "outputs": [
        {
          "internalType": "address",
          "name": "",
          "type": "address"
        }
      ],
      "stateMutability": "view",
      "type": "function"
    },
    {
      "inputs": [
        {
          "internalType": "address",
          "name": "admin",
          "type": "address"
        }
      ],
      "name": "removeAdmin",
      "outputs": [],
      "stateMutability": "nonpayable",
      "type": "function"
    },
    {
      "inputs": [],
      "name": "renounceAdmin",
      "outputs": [],
      "stateMutability": "nonpayable",
      "type": "function"
    },
    {
      "inputs": [],
      "name": "renounceOwnership",
      "outputs": [],
      "stateMutability": "nonpayable",
      "type": "function"
    },
    {
      "inputs": [
        {
          "internalType": "bytes32",
          "name": "role",
          "type": "bytes32"
        },
        {
          "internalType": "address",
          "name": "account",
          "type": "address"
        }
      ],
      "name": "renounceRole",
      "outputs": [],
      "stateMutability": "nonpayable",
      "type": "function"
    },
    {
      "inputs": [
        {
          "internalType": "bytes32",
          "name": "role",
          "type": "bytes32"
        },
        {
          "internalType": "address",
          "name": "account",
          "type": "address"
        }
      ],
      "name": "revokeRole",
      "outputs": [],
      "stateMutability": "nonpayable",
      "type": "function"
    },
    {
      "inputs": [
        {
          "internalType": "bytes4",
          "name": "interfaceId",
          "type": "bytes4"
        }
      ],
      "name": "supportsInterface",
      "outputs": [
        {
          "internalType": "bool",
          "name": "",
          "type": "bool"
        }
      ],
      "stateMutability": "view",
      "type": "function"
    },
    {
      "inputs": [
        {
          "internalType": "address",
          "name": "newOwner",
          "type": "address"
        }
      ],
      "name": "transferOwnership",
      "outputs": [],
      "stateMutability": "nonpayable",
      "type": "function"
    },
    {
      "inputs": [
        {
          "internalType": "uint256",
          "name": "spotId",
          "type": "uint256"
        },
        {
          "internalType": "string",
          "name": "fishFramName",
          "type": "string"
        },
        {
          "components": [
            {
              "internalType": "uint256",
              "name": "id",
              "type": "uint256"
            },
            {
              "internalType": "string",
              "name": "fishName",
              "type": "string"
            },
            {
              "internalType": "string",
              "name": "res",
              "type": "string"
            },
            {
              "internalType": "uint256",
              "name": "rarityID",
              "type": "uint256"
            },
            {
              "internalType": "uint256",
              "name": "rarityNum",
              "type": "uint256"
            },
            {
              "internalType": "uint256",
              "name": "fishFarm",
              "type": "uint256"
            },
            {
              "internalType": "string",
              "name": "fishFramName",
              "type": "string"
            },
            {
              "internalType": "uint256",
              "name": "price",
              "type": "uint256"
            },
            {
              "internalType": "uint256",
              "name": "output",
              "type": "uint256"
            },
            {
              "internalType": "string",
              "name": "rarity",
              "type": "string"
            }
          ],
          "internalType": "struct FishingSpot.Fish[]",
          "name": "fishList",
          "type": "tuple[]"
        },
        {
          "internalType": "uint8",
          "name": "entryLevel",
          "type": "uint8"
        }
      ],
      "name": "updateFishingSpot",
      "outputs": [
        {
          "internalType": "bool",
          "name": "",
          "type": "bool"
        }
      ],
      "stateMutability": "nonpayable",
      "type": "function"
    }
  ],
  "bytecode": "0x60806040523480156200001157600080fd5b5062000032620000266200007f60201b60201c565b6200008760201b60201c565b620000476000801b336200014b60201b60201c565b620000797fa49807205ce4d355092ef5a8a18f56e8913cf4a201fbe287825b095693c21775336200014b60201b60201c565b620002bd565b600033905090565b60008060009054906101000a900473ffffffffffffffffffffffffffffffffffffffff169050816000806101000a81548173ffffffffffffffffffffffffffffffffffffffff021916908373ffffffffffffffffffffffffffffffffffffffff1602179055508173ffffffffffffffffffffffffffffffffffffffff168173ffffffffffffffffffffffffffffffffffffffff167f8be0079c531659141344cd1fd0a4f28419497f9722a3daafe3b4186f6b6457e060405160405180910390a35050565b6200015d82826200016160201b60201c565b5050565b6200017382826200025260201b60201c565b6200024e57600180600084815260200190815260200160002060000160008373ffffffffffffffffffffffffffffffffffffffff1673ffffffffffffffffffffffffffffffffffffffff16815260200190815260200160002060006101000a81548160ff021916908315150217905550620001f36200007f60201b60201c565b73ffffffffffffffffffffffffffffffffffffffff168173ffffffffffffffffffffffffffffffffffffffff16837f2f8788117e7eff1d82e926ec794901d17c78024a50270940304540a733656f0d60405160405180910390a45b5050565b60006001600084815260200190815260200160002060000160008373ffffffffffffffffffffffffffffffffffffffff1673ffffffffffffffffffffffffffffffffffffffff16815260200190815260200160002060009054906101000a900460ff16905092915050565b61297180620002cd6000396000f3fe608060405234801561001057600080fd5b50600436106101165760003560e01c806375b238fc116100a257806391d148541161007157806391d14854146102b9578063a217fddf146102e9578063d547741f14610307578063df72ee7014610323578063f2fde38b1461035357610116565b806375b238fc146102435780637a28f857146102615780638bad0c0a146102915780638da5cb5b1461029b57610116565b80632f2ff15d116100e95780632f2ff15d146101b557806336568abe146101d15780634501fb0e146101ed578063704802751461021d578063715018a61461023957610116565b806301ffc9a71461011b5780630e2d1d651461014b5780631785f53c14610169578063248a9ca314610185575b600080fd5b610135600480360381019061013091906116eb565b61036f565b6040516101429190611733565b60405180910390f35b6101536103e9565b6040516101609190611816565b60405180910390f35b610183600480360381019061017e9190611896565b610441565b005b61019f600480360381019061019a91906118f9565b610476565b6040516101ac9190611935565b60405180910390f35b6101cf60048036038101906101ca9190611950565b610496565b005b6101eb60048036038101906101e69190611950565b6104b7565b005b610207600480360381019061020291906119bc565b61053a565b6040516102149190611c9d565b60405180910390f35b61023760048036038101906102329190611896565b6108fa565b005b61024161092f565b005b61024b610943565b6040516102589190611935565b60405180910390f35b61027b60048036038101906102769190612076565b610967565b6040516102889190611733565b60405180910390f35b610299610b57565b005b6102a3610b83565b6040516102b09190612124565b60405180910390f35b6102d360048036038101906102ce9190611950565b610bac565b6040516102e09190611733565b60405180910390f35b6102f1610c17565b6040516102fe9190611935565b60405180910390f35b610321600480360381019061031c9190611950565b610c1e565b005b61033d60048036038101906103389190612076565b610c3f565b60405161034a9190611733565b60405180910390f35b61036d60048036038101906103689190611896565b610e58565b005b60007f7965db0b000000000000000000000000000000000000000000000000000000007bffffffffffffffffffffffffffffffffffffffffffffffffffffffff1916827bffffffffffffffffffffffffffffffffffffffffffffffffffffffff191614806103e257506103e182610edb565b5b9050919050565b6060600380548060200260200160405190810160405280929190818152602001828054801561043757602002820191906000526020600020905b815481526020019060010190808311610423575b5050505050905090565b610449610f45565b6104737fa49807205ce4d355092ef5a8a18f56e8913cf4a201fbe287825b095693c2177582610c1e565b50565b600060016000838152602001908152602001600020600101549050919050565b61049f82610476565b6104a881610fc3565b6104b28383610fd7565b505050565b6104bf6110b7565b73ffffffffffffffffffffffffffffffffffffffff168173ffffffffffffffffffffffffffffffffffffffff161461052c576040517f08c379a0000000000000000000000000000000000000000000000000000000008152600401610523906121c2565b60405180910390fd5b61053682826110bf565b5050565b610542611553565b6002600083815260200190815260200160002060405180606001604052908160008201805461057090612211565b80601f016020809104026020016040519081016040528092919081815260200182805461059c90612211565b80156105e95780601f106105be576101008083540402835291602001916105e9565b820191906000526020600020905b8154815290600101906020018083116105cc57829003601f168201915b5050505050815260200160018201805480602002602001604051908101604052809291908181526020016000905b828210156108ce57838290600052602060002090600a0201604051806101400160405290816000820154815260200160018201805461065590612211565b80601f016020809104026020016040519081016040528092919081815260200182805461068190612211565b80156106ce5780601f106106a3576101008083540402835291602001916106ce565b820191906000526020600020905b8154815290600101906020018083116106b157829003601f168201915b505050505081526020016002820180546106e790612211565b80601f016020809104026020016040519081016040528092919081815260200182805461071390612211565b80156107605780601f1061073557610100808354040283529160200191610760565b820191906000526020600020905b81548152906001019060200180831161074357829003601f168201915b5050505050815260200160038201548152602001600482015481526020016005820154815260200160068201805461079790612211565b80601f01602080910402602001604051908101604052809291908181526020018280546107c390612211565b80156108105780601f106107e557610100808354040283529160200191610810565b820191906000526020600020905b8154815290600101906020018083116107f357829003601f168201915b50505050508152602001600782015481526020016008820154815260200160098201805461083d90612211565b80601f016020809104026020016040519081016040528092919081815260200182805461086990612211565b80156108b65780601f1061088b576101008083540402835291602001916108b6565b820191906000526020600020905b81548152906001019060200180831161089957829003601f168201915b50505050508152505081526020019060010190610617565b5050505081526020016002820160009054906101000a900460ff1660ff1660ff16815250509050919050565b610902610f45565b61092c7fa49807205ce4d355092ef5a8a18f56e8913cf4a201fbe287825b095693c2177582610496565b50565b610937610f45565b61094160006111a1565b565b7fa49807205ce4d355092ef5a8a18f56e8913cf4a201fbe287825b095693c2177581565b60006109937fa49807205ce4d355092ef5a8a18f56e8913cf4a201fbe287825b095693c2177533610bac565b6109d2576040517f08c379a00000000000000000000000000000000000000000000000000000000081526004016109c99061228e565b60405180910390fd5b60006002600087815260200190815260200160002090508060010160006109f99190611577565b828160020160006101000a81548160ff021916908360ff16021790555060005b8451811015610b0f5781600101858281518110610a3957610a386122ae565b5b602002602001015190806001815401808255809150506001900390600052602060002090600a0201600090919091909150600082015181600001556020820151816001019081610a899190612489565b506040820151816002019081610a9f9190612489565b50606082015181600301556080820151816004015560a0820151816005015560c0820151816006019081610ad39190612489565b5060e082015181600701556101008201518160080155610120820151816009019081610aff9190612489565b5050508080600101915050610a19565b50857ff3e1653efda232671973193ae2140c9daee1bedcabafad83509077aff52630668685604051610b429291906125a3565b60405180910390a26001915050949350505050565b610b817fa49807205ce4d355092ef5a8a18f56e8913cf4a201fbe287825b095693c21775336104b7565b565b60008060009054906101000a900473ffffffffffffffffffffffffffffffffffffffff16905090565b60006001600084815260200190815260200160002060000160008373ffffffffffffffffffffffffffffffffffffffff1673ffffffffffffffffffffffffffffffffffffffff16815260200190815260200160002060009054906101000a900460ff16905092915050565b6000801b81565b610c2782610476565b610c3081610fc3565b610c3a83836110bf565b505050565b6000610c6b7fa49807205ce4d355092ef5a8a18f56e8913cf4a201fbe287825b095693c2177533610bac565b610caa576040517f08c379a0000000000000000000000000000000000000000000000000000000008152600401610ca19061228e565b60405180910390fd5b6000600260008781526020019081526020016000209050828160020160006101000a81548160ff021916908360ff160217905550806001016000610cee9190611577565b60005b8451811015610de75781600101858281518110610d1157610d106122ae565b5b602002602001015190806001815401808255809150506001900390600052602060002090600a0201600090919091909150600082015181600001556020820151816001019081610d619190612489565b506040820151816002019081610d779190612489565b50606082015181600301556080820151816004015560a0820151816005015560c0820151816006019081610dab9190612489565b5060e082015181600701556101008201518160080155610120820151816009019081610dd79190612489565b5050508080600101915050610cf1565b506003869080600181540180825580915050600190039060005260206000200160009091909190915055857fea7e2ee496b4c50e76307bcfe861f3355301b8536ca70f78faaa448d32d619538685604051610e439291906125a3565b60405180910390a26001915050949350505050565b610e60610f45565b600073ffffffffffffffffffffffffffffffffffffffff168173ffffffffffffffffffffffffffffffffffffffff1603610ecf576040517f08c379a0000000000000000000000000000000000000000000000000000000008152600401610ec690612645565b60405180910390fd5b610ed8816111a1565b50565b60007f01ffc9a7000000000000000000000000000000000000000000000000000000007bffffffffffffffffffffffffffffffffffffffffffffffffffffffff1916827bffffffffffffffffffffffffffffffffffffffffffffffffffffffff1916149050919050565b610f4d6110b7565b73ffffffffffffffffffffffffffffffffffffffff16610f6b610b83565b73ffffffffffffffffffffffffffffffffffffffff1614610fc1576040517f08c379a0000000000000000000000000000000000000000000000000000000008152600401610fb8906126b1565b60405180910390fd5b565b610fd481610fcf6110b7565b611265565b50565b610fe18282610bac565b6110b357600180600084815260200190815260200160002060000160008373ffffffffffffffffffffffffffffffffffffffff1673ffffffffffffffffffffffffffffffffffffffff16815260200190815260200160002060006101000a81548160ff0219169083151502179055506110586110b7565b73ffffffffffffffffffffffffffffffffffffffff168173ffffffffffffffffffffffffffffffffffffffff16837f2f8788117e7eff1d82e926ec794901d17c78024a50270940304540a733656f0d60405160405180910390a45b5050565b600033905090565b6110c98282610bac565b1561119d5760006001600084815260200190815260200160002060000160008373ffffffffffffffffffffffffffffffffffffffff1673ffffffffffffffffffffffffffffffffffffffff16815260200190815260200160002060006101000a81548160ff0219169083151502179055506111426110b7565b73ffffffffffffffffffffffffffffffffffffffff168173ffffffffffffffffffffffffffffffffffffffff16837ff6391f5c32d9c69d2a47ea670b442974b53935d1edc7fd64eb21e047a839171b60405160405180910390a45b5050565b60008060009054906101000a900473ffffffffffffffffffffffffffffffffffffffff169050816000806101000a81548173ffffffffffffffffffffffffffffffffffffffff021916908373ffffffffffffffffffffffffffffffffffffffff1602179055508173ffffffffffffffffffffffffffffffffffffffff168173ffffffffffffffffffffffffffffffffffffffff167f8be0079c531659141344cd1fd0a4f28419497f9722a3daafe3b4186f6b6457e060405160405180910390a35050565b61126f8282610bac565b6112e65761127c816112ea565b61128a8360001c6020611317565b60405160200161129b9291906127a5565b6040516020818303038152906040526040517f08c379a00000000000000000000000000000000000000000000000000000000081526004016112dd91906127df565b60405180910390fd5b5050565b60606113108273ffffffffffffffffffffffffffffffffffffffff16601460ff16611317565b9050919050565b60606000600283600261132a9190612830565b6113349190612872565b67ffffffffffffffff81111561134d5761134c611cc9565b5b6040519080825280601f01601f19166020018201604052801561137f5781602001600182028036833780820191505090505b5090507f3000000000000000000000000000000000000000000000000000000000000000816000815181106113b7576113b66122ae565b5b60200101907effffffffffffffffffffffffffffffffffffffffffffffffffffffffffffff1916908160001a9053507f78000000000000000000000000000000000000000000000000000000000000008160018151811061141b5761141a6122ae565b5b60200101907effffffffffffffffffffffffffffffffffffffffffffffffffffffffffffff1916908160001a9053506000600184600261145b9190612830565b6114659190612872565b90505b6001811115611505577f3031323334353637383961626364656600000000000000000000000000000000600f8616601081106114a7576114a66122ae565b5b1a60f81b8282815181106114be576114bd6122ae565b5b60200101907effffffffffffffffffffffffffffffffffffffffffffffffffffffffffffff1916908160001a905350600485901c9450806114fe906128a6565b9050611468565b5060008414611549576040517f08c379a00000000000000000000000000000000000000000000000000000000081526004016115409061291b565b60405180910390fd5b8091505092915050565b60405180606001604052806060815260200160608152602001600060ff1681525090565b50805460008255600a0290600052602060002090810190611598919061159b565b50565b5b8082111561161e576000808201600090556001820160006115bd9190611622565b6002820160006115cd9190611622565b6003820160009055600482016000905560058201600090556006820160006115f59190611622565b600782016000905560088201600090556009820160006116159190611622565b50600a0161159c565b5090565b50805461162e90612211565b6000825580601f10611640575061165f565b601f01602090049060005260206000209081019061165e9190611662565b5b50565b5b8082111561167b576000816000905550600101611663565b5090565b6000604051905090565b600080fd5b600080fd5b60007fffffffff0000000000000000000000000000000000000000000000000000000082169050919050565b6116c881611693565b81146116d357600080fd5b50565b6000813590506116e5816116bf565b92915050565b60006020828403121561170157611700611689565b5b600061170f848285016116d6565b91505092915050565b60008115159050919050565b61172d81611718565b82525050565b60006020820190506117486000830184611724565b92915050565b600081519050919050565b600082825260208201905092915050565b6000819050602082019050919050565b6000819050919050565b61178d8161177a565b82525050565b600061179f8383611784565b60208301905092915050565b6000602082019050919050565b60006117c38261174e565b6117cd8185611759565b93506117d88361176a565b8060005b838110156118095781516117f08882611793565b97506117fb836117ab565b9250506001810190506117dc565b5085935050505092915050565b6000602082019050818103600083015261183081846117b8565b905092915050565b600073ffffffffffffffffffffffffffffffffffffffff82169050919050565b600061186382611838565b9050919050565b61187381611858565b811461187e57600080fd5b50565b6000813590506118908161186a565b92915050565b6000602082840312156118ac576118ab611689565b5b60006118ba84828501611881565b91505092915050565b6000819050919050565b6118d6816118c3565b81146118e157600080fd5b50565b6000813590506118f3816118cd565b92915050565b60006020828403121561190f5761190e611689565b5b600061191d848285016118e4565b91505092915050565b61192f816118c3565b82525050565b600060208201905061194a6000830184611926565b92915050565b6000806040838503121561196757611966611689565b5b6000611975858286016118e4565b925050602061198685828601611881565b9150509250929050565b6119998161177a565b81146119a457600080fd5b50565b6000813590506119b681611990565b92915050565b6000602082840312156119d2576119d1611689565b5b60006119e0848285016119a7565b91505092915050565b600081519050919050565b600082825260208201905092915050565b60005b83811015611a23578082015181840152602081019050611a08565b60008484015250505050565b6000601f19601f8301169050919050565b6000611a4b826119e9565b611a5581856119f4565b9350611a65818560208601611a05565b611a6e81611a2f565b840191505092915050565b600081519050919050565b600082825260208201905092915050565b6000819050602082019050919050565b600061014083016000830151611abe6000860182611784565b5060208301518482036020860152611ad68282611a40565b91505060408301518482036040860152611af08282611a40565b9150506060830151611b056060860182611784565b506080830151611b186080860182611784565b5060a0830151611b2b60a0860182611784565b5060c083015184820360c0860152611b438282611a40565b91505060e0830151611b5860e0860182611784565b50610100830151611b6d610100860182611784565b50610120830151848203610120860152611b878282611a40565b9150508091505092915050565b6000611ba08383611aa5565b905092915050565b6000602082019050919050565b6000611bc082611a79565b611bca8185611a84565b935083602082028501611bdc85611a95565b8060005b85811015611c185784840389528151611bf98582611b94565b9450611c0483611ba8565b925060208a01995050600181019050611be0565b50829750879550505050505092915050565b600060ff82169050919050565b611c4081611c2a565b82525050565b60006060830160008301518482036000860152611c638282611a40565b91505060208301518482036020860152611c7d8282611bb5565b9150506040830151611c926040860182611c37565b508091505092915050565b60006020820190508181036000830152611cb78184611c46565b905092915050565b600080fd5b600080fd5b7f4e487b7100000000000000000000000000000000000000000000000000000000600052604160045260246000fd5b611d0182611a2f565b810181811067ffffffffffffffff82111715611d2057611d1f611cc9565b5b80604052505050565b6000611d3361167f565b9050611d3f8282611cf8565b919050565b600067ffffffffffffffff821115611d5f57611d5e611cc9565b5b611d6882611a2f565b9050602081019050919050565b82818337600083830152505050565b6000611d97611d9284611d44565b611d29565b905082815260208101848484011115611db357611db2611cc4565b5b611dbe848285611d75565b509392505050565b600082601f830112611ddb57611dda611cbf565b5b8135611deb848260208601611d84565b91505092915050565b600067ffffffffffffffff821115611e0f57611e0e611cc9565b5b602082029050602081019050919050565b600080fd5b600080fd5b600080fd5b60006101408284031215611e4657611e45611e25565b5b611e51610140611d29565b90506000611e61848285016119a7565b600083015250602082013567ffffffffffffffff811115611e8557611e84611e2a565b5b611e9184828501611dc6565b602083015250604082013567ffffffffffffffff811115611eb557611eb4611e2a565b5b611ec184828501611dc6565b6040830152506060611ed5848285016119a7565b6060830152506080611ee9848285016119a7565b60808301525060a0611efd848285016119a7565b60a08301525060c082013567ffffffffffffffff811115611f2157611f20611e2a565b5b611f2d84828501611dc6565b60c08301525060e0611f41848285016119a7565b60e083015250610100611f56848285016119a7565b6101008301525061012082013567ffffffffffffffff811115611f7c57611f7b611e2a565b5b611f8884828501611dc6565b6101208301525092915050565b6000611fa8611fa384611df4565b611d29565b90508083825260208201905060208402830185811115611fcb57611fca611e20565b5b835b8181101561201257803567ffffffffffffffff811115611ff057611fef611cbf565b5b808601611ffd8982611e2f565b85526020850194505050602081019050611fcd565b5050509392505050565b600082601f83011261203157612030611cbf565b5b8135612041848260208601611f95565b91505092915050565b61205381611c2a565b811461205e57600080fd5b50565b6000813590506120708161204a565b92915050565b600080600080608085870312156120905761208f611689565b5b600061209e878288016119a7565b945050602085013567ffffffffffffffff8111156120bf576120be61168e565b5b6120cb87828801611dc6565b935050604085013567ffffffffffffffff8111156120ec576120eb61168e565b5b6120f88782880161201c565b925050606061210987828801612061565b91505092959194509250565b61211e81611858565b82525050565b60006020820190506121396000830184612115565b92915050565b600082825260208201905092915050565b7f416363657373436f6e74726f6c3a2063616e206f6e6c792072656e6f756e636560008201527f20726f6c657320666f722073656c660000000000000000000000000000000000602082015250565b60006121ac602f8361213f565b91506121b782612150565b604082019050919050565b600060208201905081810360008301526121db8161219f565b9050919050565b7f4e487b7100000000000000000000000000000000000000000000000000000000600052602260045260246000fd5b6000600282049050600182168061222957607f821691505b60208210810361223c5761223b6121e2565b5b50919050565b7f43616c6c6572206973206e6f7420616e2061646d696e00000000000000000000600082015250565b600061227860168361213f565b915061228382612242565b602082019050919050565b600060208201905081810360008301526122a78161226b565b9050919050565b7f4e487b7100000000000000000000000000000000000000000000000000000000600052603260045260246000fd5b60008190508160005260206000209050919050565b60006020601f8301049050919050565b600082821b905092915050565b60006008830261233f7fffffffffffffffffffffffffffffffffffffffffffffffffffffffffffffffff82612302565b6123498683612302565b95508019841693508086168417925050509392505050565b6000819050919050565b600061238661238161237c8461177a565b612361565b61177a565b9050919050565b6000819050919050565b6123a08361236b565b6123b46123ac8261238d565b84845461230f565b825550505050565b600090565b6123c96123bc565b6123d4818484612397565b505050565b5b818110156123f8576123ed6000826123c1565b6001810190506123da565b5050565b601f82111561243d5761240e816122dd565b612417846122f2565b81016020851015612426578190505b61243a612432856122f2565b8301826123d9565b50505b505050565b600082821c905092915050565b600061246060001984600802612442565b1980831691505092915050565b6000612479838361244f565b9150826002028217905092915050565b612492826119e9565b67ffffffffffffffff8111156124ab576124aa611cc9565b5b6124b58254612211565b6124c08282856123fc565b600060209050601f8311600181146124f357600084156124e1578287015190505b6124eb858261246d565b865550612553565b601f198416612501866122dd565b60005b8281101561252957848901518255600182019150602085019450602081019050612504565b868310156125465784890151612542601f89168261244f565b8355505b6001600288020188555050505b505050505050565b6000612566826119e9565b612570818561213f565b9350612580818560208601611a05565b61258981611a2f565b840191505092915050565b61259d81611c2a565b82525050565b600060408201905081810360008301526125bd818561255b565b90506125cc6020830184612594565b9392505050565b7f4f776e61626c653a206e6577206f776e657220697320746865207a65726f206160008201527f6464726573730000000000000000000000000000000000000000000000000000602082015250565b600061262f60268361213f565b915061263a826125d3565b604082019050919050565b6000602082019050818103600083015261265e81612622565b9050919050565b7f4f776e61626c653a2063616c6c6572206973206e6f7420746865206f776e6572600082015250565b600061269b60208361213f565b91506126a682612665565b602082019050919050565b600060208201905081810360008301526126ca8161268e565b9050919050565b600081905092915050565b7f416363657373436f6e74726f6c3a206163636f756e7420000000000000000000600082015250565b60006127126017836126d1565b915061271d826126dc565b601782019050919050565b6000612733826119e9565b61273d81856126d1565b935061274d818560208601611a05565b80840191505092915050565b7f206973206d697373696e6720726f6c6520000000000000000000000000000000600082015250565b600061278f6011836126d1565b915061279a82612759565b601182019050919050565b60006127b082612705565b91506127bc8285612728565b91506127c782612782565b91506127d38284612728565b91508190509392505050565b600060208201905081810360008301526127f9818461255b565b905092915050565b7f4e487b7100000000000000000000000000000000000000000000000000000000600052601160045260246000fd5b600061283b8261177a565b91506128468361177a565b92508282026128548161177a565b9150828204841483151761286b5761286a612801565b5b5092915050565b600061287d8261177a565b91506128888361177a565b92508282019050808211156128a05761289f612801565b5b92915050565b60006128b18261177a565b9150600082036128c4576128c3612801565b5b600182039050919050565b7f537472696e67733a20686578206c656e67746820696e73756666696369656e74600082015250565b600061290560208361213f565b9150612910826128cf565b602082019050919050565b60006020820190508181036000830152612934816128f8565b905091905056fea2646970667358221220357f70d852dd96de72e201a8470339d1986521a261963c8723fd354d244ddd1064736f6c63430008180033",
  "linkReferences": {},
  "deployedLinkReferences": {}
}