{"contracts/FishermanNFT.sol":{"FishermanNFT":{"abi":[{"inputs":[{"internalType":"uint256","name":"_mintPrice","type":"uint256"}],"stateMutability":"nonpayable","type":"constructor"},{"anonymous":false,"inputs":[{"indexed":true,"internalType":"address","name":"newAdmin","type":"address"}],"name":"AdminAdded","type":"event"},{"anonymous":false,"inputs":[{"indexed":true,"internalType":"address","name":"removedAdmin","type":"address"}],"name":"AdminRemoved","type":"event"},{"anonymous":false,"inputs":[{"indexed":true,"internalType":"address","name":"to","type":"address"},{"indexed":true,"internalType":"uint256","name":"tokenId","type":"uint256"},{"indexed":false,"internalType":"string","name":"fishermanType","type":"string"}],"name":"FishermanMinted","type":"event"},{"anonymous":false,"inputs":[{"indexed":true,"internalType":"uint256","name":"tokenId","type":"uint256"},{"indexed":true,"internalType":"address","name":"seller","type":"address"},{"indexed":false,"internalType":"uint256","name":"price","type":"uint256"}],"name":"ItemListed","type":"event"},{"anonymous":false,"inputs":[{"indexed":true,"internalType":"uint256","name":"tokenId","type":"uint256"},{"indexed":true,"internalType":"address","name":"buyer","type":"address"},{"indexed":false,"internalType":"uint256","name":"price","type":"uint256"}],"name":"ItemSold","type":"event"},{"anonymous":false,"inputs":[{"indexed":false,"internalType":"uint256","name":"_tokenId","type":"uint256"}],"name":"MetadataUpdate","type":"event"},{"anonymous":false,"inputs":[{"indexed":true,"internalType":"address","name":"previousOwner","type":"address"},{"indexed":true,"internalType":"address","name":"newOwner","type":"address"}],"name":"OwnershipTransferred","type":"event"},{"anonymous":false,"inputs":[{"indexed":true,"internalType":"bytes32","name":"role","type":"bytes32"},{"indexed":true,"internalType":"bytes32","name":"previousAdminRole","type":"bytes32"},{"indexed":true,"internalType":"bytes32","name":"newAdminRole","type":"bytes32"}],"name":"RoleAdminChanged","type":"event"},{"anonymous":false,"inputs":[{"indexed":true,"internalType":"bytes32","name":"role","type":"bytes32"},{"indexed":true,"internalType":"address","name":"account","type":"address"},{"indexed":true,"internalType":"address","name":"sender","type":"address"}],"name":"RoleGranted","type":"event"},{"anonymous":false,"inputs":[{"indexed":true,"internalType":"bytes32","name":"role","type":"bytes32"},{"indexed":true,"internalType":"address","name":"account","type":"address"},{"indexed":true,"internalType":"address","name":"sender","type":"address"}],"name":"RoleRevoked","type":"event"},{"anonymous":false,"inputs":[{"indexed":true,"internalType":"address","name":"from","type":"address"},{"indexed":true,"internalType":"address","name":"to","type":"address"},{"indexed":true,"internalType":"uint256","name":"tokenId","type":"uint256"}],"name":"Transfer","type":"event"},{"inputs":[],"name":"ADMIN_ROLE","outputs":[{"internalType":"bytes32","name":"","type":"bytes32"}],"stateMutability":"view","type":"function"},{"inputs":[],"name":"DEFAULT_ADMIN_ROLE","outputs":[{"internalType":"bytes32","name":"","type":"bytes32"}],"stateMutability":"view","type":"function"},{"inputs":[{"internalType":"address","name":"owner","type":"address"}],"name":"balanceOf","outputs":[{"internalType":"uint256","name":"","type":"uint256"}],"stateMutability":"view","type":"function"},{"inputs":[{"internalType":"uint256","name":"tokenId","type":"uint256"}],"name":"buyItem","outputs":[],"stateMutability":"payable","type":"function"},{"inputs":[{"internalType":"uint256","name":"tokenId","type":"uint256"}],"name":"cancelListing","outputs":[],"stateMutability":"nonpayable","type":"function"},{"inputs":[{"internalType":"uint256","name":"tokenId","type":"uint256"}],"name":"getFishermanTypeByTokenId","outputs":[{"internalType":"string","name":"","type":"string"}],"stateMutability":"view","type":"function"},{"inputs":[{"internalType":"address","name":"owner","type":"address"}],"name":"getOwnedNFTs","outputs":[{"components":[{"internalType":"uint256","name":"tokenId","type":"uint256"},{"internalType":"string","name":"fishermanType","type":"string"}],"internalType":"struct FishermanNFT.FishermanNft[]","name":"","type":"tuple[]"}],"stateMutability":"view","type":"function"},{"inputs":[{"internalType":"bytes32","name":"role","type":"bytes32"}],"name":"getRoleAdmin","outputs":[{"internalType":"bytes32","name":"","type":"bytes32"}],"stateMutability":"view","type":"function"},{"inputs":[{"internalType":"bytes32","name":"role","type":"bytes32"},{"internalType":"address","name":"account","type":"address"}],"name":"grantRole","outputs":[],"stateMutability":"nonpayable","type":"function"},{"inputs":[{"internalType":"bytes32","name":"role","type":"bytes32"},{"internalType":"address","name":"account","type":"address"}],"name":"hasRole","outputs":[{"internalType":"bool","name":"","type":"bool"}],"stateMutability":"view","type":"function"},{"inputs":[{"internalType":"uint256","name":"tokenId","type":"uint256"},{"internalType":"uint256","name":"price","type":"uint256"}],"name":"listItem","outputs":[],"stateMutability":"nonpayable","type":"function"},{"inputs":[{"internalType":"uint256","name":"","type":"uint256"}],"name":"listings","outputs":[{"internalType":"address","name":"seller","type":"address"},{"internalType":"uint256","name":"price","type":"uint256"}],"stateMutability":"view","type":"function"},{"inputs":[{"internalType":"uint256","name":"","type":"uint256"}],"name":"maxSupplies","outputs":[{"internalType":"uint256","name":"","type":"uint256"}],"stateMutability":"view","type":"function"},{"inputs":[],"name":"mintFisherman","outputs":[{"internalType":"uint256","name":"","type":"uint256"}],"stateMutability":"payable","type":"function"},{"inputs":[],"name":"mintPrice","outputs":[{"internalType":"uint256","name":"","type":"uint256"}],"stateMutability":"view","type":"function"},{"inputs":[{"internalType":"uint256","name":"","type":"uint256"}],"name":"mintedSupplies","outputs":[{"internalType":"uint256","name":"","type":"uint256"}],"stateMutability":"view","type":"function"},{"inputs":[],"name":"name","outputs":[{"internalType":"string","name":"","type":"string"}],"stateMutability":"view","type":"function"},{"inputs":[{"internalType":"address","name":"","type":"address"},{"internalType":"address","name":"","type":"address"},{"internalType":"uint256","name":"","type":"uint256"},{"internalType":"bytes","name":"","type":"bytes"}],"name":"onERC721Received","outputs":[{"internalType":"bytes4","name":"","type":"bytes4"}],"stateMutability":"nonpayable","type":"function"},{"inputs":[],"name":"owner","outputs":[{"internalType":"address","name":"","type":"address"}],"stateMutability":"view","type":"function"},{"inputs":[{"internalType":"uint256","name":"tokenId","type":"uint256"}],"name":"ownerOf","outputs":[{"internalType":"address","name":"","type":"address"}],"stateMutability":"view","type":"function"},{"inputs":[{"internalType":"uint256","name":"","type":"uint256"}],"name":"partOptions0","outputs":[{"internalType":"uint8","name":"","type":"uint8"}],"stateMutability":"view","type":"function"},{"inputs":[{"internalType":"uint256","name":"","type":"uint256"}],"name":"partOptions1","outputs":[{"internalType":"uint8","name":"","type":"uint8"}],"stateMutability":"view","type":"function"},{"inputs":[{"internalType":"uint256","name":"","type":"uint256"}],"name":"partOptions2","outputs":[{"internalType":"uint8","name":"","type":"uint8"}],"stateMutability":"view","type":"function"},{"inputs":[],"name":"renounceOwnership","outputs":[],"stateMutability":"nonpayable","type":"function"},{"inputs":[{"internalType":"bytes32","name":"role","type":"bytes32"},{"internalType":"address","name":"account","type":"address"}],"name":"renounceRole","outputs":[],"stateMutability":"nonpayable","type":"function"},{"inputs":[{"internalType":"bytes32","name":"role","type":"bytes32"},{"internalType":"address","name":"account","type":"address"}],"name":"revokeRole","outputs":[],"stateMutability":"nonpayable","type":"function"},{"inputs":[{"internalType":"string","name":"newBaseTokenURI","type":"string"}],"name":"setBaseTokenURI","outputs":[],"stateMutability":"nonpayable","type":"function"},{"inputs":[{"internalType":"uint256[]","name":"newMaxSupplies","type":"uint256[]"}],"name":"setMaxSupplies","outputs":[],"stateMutability":"nonpayable","type":"function"},{"inputs":[{"internalType":"uint256","name":"newMintPrice","type":"uint256"}],"name":"setMintPrice","outputs":[],"stateMutability":"nonpayable","type":"function"},{"inputs":[{"internalType":"uint256","name":"typeIndex","type":"uint256"},{"internalType":"uint8[9]","name":"newOptions","type":"uint8[9]"}],"name":"setPartOptions","outputs":[],"stateMutability":"nonpayable","type":"function"},{"inputs":[{"internalType":"bytes4","name":"interfaceId","type":"bytes4"}],"name":"supportsInterface","outputs":[{"internalType":"bool","name":"","type":"bool"}],"stateMutability":"view","type":"function"},{"inputs":[],"name":"symbol","outputs":[{"internalType":"string","name":"","type":"string"}],"stateMutability":"view","type":"function"},{"inputs":[{"internalType":"uint256","name":"index","type":"uint256"}],"name":"tokenByIndex","outputs":[{"internalType":"uint256","name":"","type":"uint256"}],"stateMutability":"view","type":"function"},{"inputs":[{"internalType":"address","name":"owner","type":"address"},{"internalType":"uint256","name":"index","type":"uint256"}],"name":"tokenOfOwnerByIndex","outputs":[{"internalType":"uint256","name":"","type":"uint256"}],"stateMutability":"view","type":"function"},{"inputs":[{"internalType":"uint256","name":"tokenId","type":"uint256"}],"name":"tokenURI","outputs":[{"internalType":"string","name":"","type":"string"}],"stateMutability":"view","type":"function"},{"inputs":[],"name":"totalSupply","outputs":[{"internalType":"uint256","name":"","type":"uint256"}],"stateMutability":"view","type":"function"},{"inputs":[{"internalType":"address","name":"from","type":"address"},{"internalType":"address","name":"to","type":"address"},{"internalType":"uint256","name":"tokenId","type":"uint256"}],"name":"transferFrom","outputs":[],"stateMutability":"nonpayable","type":"function"},{"inputs":[{"internalType":"address","name":"newOwner","type":"address"}],"name":"transferOwnership","outputs":[],"stateMutability":"nonpayable","type":"function"},{"inputs":[{"internalType":"uint256","name":"index","type":"uint256"},{"internalType":"uint256","name":"newMaxSupply","type":"uint256"}],"name":"updateMaxSupplyAt","outputs":[],"stateMutability":"nonpayable","type":"function"},{"inputs":[],"name":"withdraw","outputs":[],"stateMutability":"nonpayable","type":"function"}],"evm":{"bytecode":{"linkReferences":{},"object":"6080604052604051806080016040528060438152602001620065e160439139601190816200002e91906200099b565b50604051806101200160405280600160ff168152602001600160ff168152602001600460ff168152602001600460ff168152602001600460ff168152602001600460ff168152602001600460ff168152602001600460ff168152602001600460ff168152506016906009620000a5929190620005b7565b50604051806101200160405280600160ff168152602001600160ff168152602001600460ff168152602001600460ff168152602001600460ff168152602001600460ff168152602001600460ff168152602001600460ff168152602001600460ff1681525060179060096200011c929190620005b7565b50604051806101200160405280600160ff168152602001600160ff168152602001600360ff168152602001600360ff168152602001600360ff168152602001600360ff168152602001600360ff168152602001600360ff168152602001600360ff16815250601890600962000193929190620005b7565b50348015620001a157600080fd5b5060405162006624380380620066248339818101604052810190620001c7919062000ab8565b6040518060400160405280600c81526020017f4669736865726d616e4e465400000000000000000000000000000000000000008152506040518060400160405280600381526020017f464d4e000000000000000000000000000000000000000000000000000000000081525062000253620002476200037860201b60201c565b6200038060201b60201c565b81600190816200026491906200099b565b5080600290816200027691906200099b565b50505080601281905550620002956000801b336200044460201b60201c565b620002c77fa49807205ce4d355092ef5a8a18f56e8913cf4a201fbe287825b095693c21775336200044460201b60201c565b604051806060016040528061400061ffff16815260200161400061ffff16815260200161088b61ffff1681525060149060036200030692919062000658565b5060148054905067ffffffffffffffff8111156200032957620003286200072c565b5b604051908082528060200260200182016040528015620003585781602001602082028036833780820191505090505b506015908051906020019062000370929190620006b0565b505062000aea565b600033905090565b60008060009054906101000a900473ffffffffffffffffffffffffffffffffffffffff169050816000806101000a81548173ffffffffffffffffffffffffffffffffffffffff021916908373ffffffffffffffffffffffffffffffffffffffff1602179055508173ffffffffffffffffffffffffffffffffffffffff168173ffffffffffffffffffffffffffffffffffffffff167f8be0079c531659141344cd1fd0a4f28419497f9722a3daafe3b4186f6b6457e060405160405180910390a35050565b6200045682826200045a60201b60201c565b5050565b6200046c82826200054c60201b60201c565b620005485760016006600084815260200190815260200160002060000160008373ffffffffffffffffffffffffffffffffffffffff1673ffffffffffffffffffffffffffffffffffffffff16815260200190815260200160002060006101000a81548160ff021916908315150217905550620004ed6200037860201b60201c565b73ffffffffffffffffffffffffffffffffffffffff168173ffffffffffffffffffffffffffffffffffffffff16837f2f8788117e7eff1d82e926ec794901d17c78024a50270940304540a733656f0d60405160405180910390a45b5050565b60006006600084815260200190815260200160002060000160008373ffffffffffffffffffffffffffffffffffffffff1673ffffffffffffffffffffffffffffffffffffffff16815260200190815260200160002060009054906101000a900460ff16905092915050565b826009601f01602090048101928215620006455791602002820160005b838211156200061457835183826101000a81548160ff021916908360ff1602179055509260200192600101602081600001049283019260010302620005d4565b8015620006435782816101000a81549060ff021916905560010160208160000104928301926001030262000614565b505b50905062000654919062000702565b5090565b8280548282559060005260206000209081019282156200069d579160200282015b828111156200069c578251829061ffff1690559160200191906001019062000679565b5b509050620006ac919062000702565b5090565b828054828255906000526020600020908101928215620006ef579160200282015b82811115620006ee578251825591602001919060010190620006d1565b5b509050620006fe919062000702565b5090565b5b808211156200071d57600081600090555060010162000703565b5090565b600081519050919050565b7f4e487b7100000000000000000000000000000000000000000000000000000000600052604160045260246000fd5b7f4e487b7100000000000000000000000000000000000000000000000000000000600052602260045260246000fd5b60006002820490506001821680620007a357607f821691505b602082108103620007b957620007b86200075b565b5b50919050565b60008190508160005260206000209050919050565b60006020601f8301049050919050565b600082821b905092915050565b600060088302620008237fffffffffffffffffffffffffffffffffffffffffffffffffffffffffffffffff82620007e4565b6200082f8683620007e4565b95508019841693508086168417925050509392505050565b6000819050919050565b6000819050919050565b60006200087c62000876620008708462000847565b62000851565b62000847565b9050919050565b6000819050919050565b62000898836200085b565b620008b0620008a78262000883565b848454620007f1565b825550505050565b600090565b620008c7620008b8565b620008d48184846200088d565b505050565b5b81811015620008fc57620008f0600082620008bd565b600181019050620008da565b5050565b601f8211156200094b576200091581620007bf565b6200092084620007d4565b8101602085101562000930578190505b620009486200093f85620007d4565b830182620008d9565b50505b505050565b600082821c905092915050565b6000620009706000198460080262000950565b1980831691505092915050565b60006200098b83836200095d565b9150826002028217905092915050565b620009a68262000721565b67ffffffffffffffff811115620009c257620009c16200072c565b5b620009ce82546200078a565b620009db82828562000900565b600060209050601f83116001811462000a135760008415620009fe578287015190505b62000a0a85826200097d565b86555062000a7a565b601f19841662000a2386620007bf565b60005b8281101562000a4d5784890151825560018201915060208501945060208101905062000a26565b8683101562000a6d578489015162000a69601f8916826200095d565b8355505b6001600288020188555050505b505050505050565b600080fd5b62000a928162000847565b811462000a9e57600080fd5b50565b60008151905062000ab28162000a87565b92915050565b60006020828403121562000ad15762000ad062000a82565b5b600062000ae18482850162000aa1565b91505092915050565b615ae78062000afa6000396000f3fe60806040526004361061023b5760003560e01c806375b238fc1161012e578063be6f0ef1116100ab578063e7fb74c71161006f578063e7fb74c7146108fb578063f2fde38b14610917578063f42a7b7014610940578063f4a0a5281461097d578063fc0b5b1d146109a65761023b565b8063be6f0ef1146107dd578063c87b56dd1461081a578063d547741f14610857578063d70e761b14610880578063de74e57b146108bd5761023b565b806391d14854116100f257806391d148541461070357806395d89b411461074057806395e662871461076b578063a212a5cc14610794578063a217fddf146107b25761023b565b806375b238fc1461061e57806387962dcc14610649578063883efa67146106865780638ac103f7146106af5780638da5cb5b146106d85761023b565b806330176e13116101bc578063606733ed11610180578063606733ed146105255780636352211e146105625780636817c76c1461059f57806370a08231146105ca578063715018a6146106075761023b565b806330176e1314610456578063305a67a81461047f57806336568abe146104a85780633ccfd60b146104d15780634f6ccce7146104e85761023b565b806323b872dd1161020357806323b872dd1461034d5780632489fd5e14610376578063248a9ca3146103b35780632f2ff15d146103f05780632f745c59146104195761023b565b806301ffc9a71461024057806306fdde031461027d578063150b7a02146102a857806318148f1b146102e557806318160ddd14610322575b600080fd5b34801561024c57600080fd5b5061026760048036038101906102629190613e1f565b6109cf565b6040516102749190613e67565b60405180910390f35b34801561028957600080fd5b50610292610ab1565b60405161029f9190613f12565b60405180910390f35b3480156102b457600080fd5b506102cf60048036038101906102ca91906140fd565b610b43565b6040516102dc919061418f565b60405180910390f35b3480156102f157600080fd5b5061030c600480360381019061030791906141aa565b610b57565b604051610319919061432f565b60405180910390f35b34801561032e57600080fd5b50610337610d8c565b6040516103449190614360565b60405180910390f35b34801561035957600080fd5b50610374600480360381019061036f919061437b565b610d99565b005b34801561038257600080fd5b5061039d600480360381019061039891906143ce565b610e12565b6040516103aa9190614360565b60405180910390f35b3480156103bf57600080fd5b506103da60048036038101906103d59190614431565b610e36565b6040516103e7919061446d565b60405180910390f35b3480156103fc57600080fd5b5061041760048036038101906104129190614488565b610e56565b005b34801561042557600080fd5b50610440600480360381019061043b91906144c8565b610e77565b60405161044d9190614360565b60405180910390f35b34801561046257600080fd5b5061047d600480360381019061047891906145a9565b610f1c565b005b34801561048b57600080fd5b506104a660048036038101906104a191906143ce565b610f98565b005b3480156104b457600080fd5b506104cf60048036038101906104ca9190614488565b6110e0565b005b3480156104dd57600080fd5b506104e6611163565b005b3480156104f457600080fd5b5061050f600480360381019061050a91906143ce565b6111c1565b60405161051c9190614360565b60405180910390f35b34801561053157600080fd5b5061054c600480360381019061054791906143ce565b6111fc565b604051610559919061460e565b60405180910390f35b34801561056e57600080fd5b50610589600480360381019061058491906143ce565b611226565b6040516105969190614638565b60405180910390f35b3480156105ab57600080fd5b506105b46112ac565b6040516105c19190614360565b60405180910390f35b3480156105d657600080fd5b506105f160048036038101906105ec91906141aa565b6112b2565b6040516105fe9190614360565b60405180910390f35b34801561061357600080fd5b5061061c611369565b005b34801561062a57600080fd5b5061063361137d565b604051610640919061446d565b60405180910390f35b34801561065557600080fd5b50610670600480360381019061066b91906143ce565b6113a1565b60405161067d9190614360565b60405180910390f35b34801561069257600080fd5b506106ad60048036038101906106a89190614653565b6113c5565b005b3480156106bb57600080fd5b506106d660048036038101906106d19190614775565b611502565b005b3480156106e457600080fd5b506106ed6115ce565b6040516106fa9190614638565b60405180910390f35b34801561070f57600080fd5b5061072a60048036038101906107259190614488565b6115f7565b6040516107379190613e67565b60405180910390f35b34801561074c57600080fd5b50610755611662565b6040516107629190613f12565b60405180910390f35b34801561077757600080fd5b50610792600480360381019061078d9190614879565b6116f4565b005b61079c611852565b6040516107a99190614360565b60405180910390f35b3480156107be57600080fd5b506107c7611e88565b6040516107d4919061446d565b60405180910390f35b3480156107e957600080fd5b5061080460048036038101906107ff91906143ce565b611e8f565b604051610811919061460e565b60405180910390f35b34801561082657600080fd5b50610841600480360381019061083c91906143ce565b611eb9565b60405161084e9190613f12565b60405180910390f35b34801561086357600080fd5b5061087e60048036038101906108799190614488565b611fb3565b005b34801561088c57600080fd5b506108a760048036038101906108a291906143ce565b611fd4565b6040516108b4919061460e565b60405180910390f35b3480156108c957600080fd5b506108e460048036038101906108df91906143ce565b611ffe565b6040516108f29291906148c2565b60405180910390f35b610915600480360381019061091091906143ce565b612042565b005b34801561092357600080fd5b5061093e600480360381019061093991906141aa565b612243565b005b34801561094c57600080fd5b50610967600480360381019061096291906143ce565b612290565b6040516109749190613f12565b60405180910390f35b34801561098957600080fd5b506109a4600480360381019061099f91906143ce565b612335565b005b3480156109b257600080fd5b506109cd60048036038101906109c89190614653565b6123a8565b005b60007f304ad1f2000000000000000000000000000000000000000000000000000000007bffffffffffffffffffffffffffffffffffffffffffffffffffffffff1916827bffffffffffffffffffffffffffffffffffffffffffffffffffffffff19161480610a9a57507f5b5e139f000000000000000000000000000000000000000000000000000000007bffffffffffffffffffffffffffffffffffffffffffffffffffffffff1916827bffffffffffffffffffffffffffffffffffffffffffffffffffffffff1916145b80610aaa5750610aa982612474565b5b9050919050565b606060078054610ac09061491a565b80601f0160208091040260200160405190810160405280929190818152602001828054610aec9061491a565b8015610b395780601f10610b0e57610100808354040283529160200191610b39565b820191906000526020600020905b815481529060010190602001808311610b1c57829003601f168201915b5050505050905090565b600063150b7a0260e01b9050949350505050565b60606000610b64836112b2565b905060008167ffffffffffffffff811115610b8257610b81613fd2565b5b604051908082528060200260200182016040528015610bb05781602001602082028036833780820191505090505b50905060008267ffffffffffffffff811115610bcf57610bce613fd2565b5b604051908082528060200260200182016040528015610c0257816020015b6060815260200190600190039081610bed5790505b50905060005b83811015610c4657610c1a8682610e77565b838281518110610c2d57610c2c61494b565b5b6020026020010181815250508080600101915050610c08565b5060005b8251811015610ca157610c76838281518110610c6957610c6861494b565b5b6020026020010151612290565b828281518110610c8957610c8861494b565b5b60200260200101819052508080600101915050610c4a565b5060008367ffffffffffffffff811115610cbe57610cbd613fd2565b5b604051908082528060200260200182016040528015610cf757816020015b610ce4613c72565b815260200190600190039081610cdc5790505b50905060005b84811015610d7f5760006040518060400160405280868481518110610d2557610d2461494b565b5b60200260200101518152602001858481518110610d4557610d4461494b565b5b6020026020010151815250905080838381518110610d6657610d6561494b565b5b6020026020010181905250508080600101915050610cfd565b5080945050505050919050565b6000600e80549050905090565b610dc37fa49807205ce4d355092ef5a8a18f56e8913cf4a201fbe287825b095693c21775336115f7565b610e02576040517f08c379a0000000000000000000000000000000000000000000000000000000008152600401610df9906149c6565b60405180910390fd5b610e0d8383836124ee565b505050565b60158181548110610e2257600080fd5b906000526020600020016000915090505481565b600060066000838152602001908152602001600020600101549050919050565b610e5f82610e36565b610e68816127e7565b610e7283836127fb565b505050565b6000610e82836112b2565b8210610ec3576040517f08c379a0000000000000000000000000000000000000000000000000000000008152600401610eba90614a32565b60405180910390fd5b600b60008473ffffffffffffffffffffffffffffffffffffffff1673ffffffffffffffffffffffffffffffffffffffff168152602001908152602001600020600083815260200190815260200160002054905092915050565b610f467fa49807205ce4d355092ef5a8a18f56e8913cf4a201fbe287825b095693c21775336115f7565b610f85576040517f08c379a0000000000000000000000000000000000000000000000000000000008152600401610f7c906149c6565b60405180910390fd5b8060119081610f949190614bfe565b5050565b6000601360008381526020019081526020016000206040518060400160405290816000820160009054906101000a900473ffffffffffffffffffffffffffffffffffffffff1673ffffffffffffffffffffffffffffffffffffffff1673ffffffffffffffffffffffffffffffffffffffff16815260200160018201548152505090503373ffffffffffffffffffffffffffffffffffffffff16816000015173ffffffffffffffffffffffffffffffffffffffff161461108c576040517f08c379a000000000000000000000000000000000000000000000000000000000815260040161108390614d1c565b60405180910390fd5b60136000838152602001908152602001600020600080820160006101000a81549073ffffffffffffffffffffffffffffffffffffffff0219169055600182016000905550506110dc3033846128dc565b5050565b6110e86128ec565b73ffffffffffffffffffffffffffffffffffffffff168173ffffffffffffffffffffffffffffffffffffffff1614611155576040517f08c379a000000000000000000000000000000000000000000000000000000000815260040161114c90614dae565b60405180910390fd5b61115f82826128f4565b5050565b61116b6129d6565b60004790506111786115ce565b73ffffffffffffffffffffffffffffffffffffffff166108fc829081150290604051600060405180830381858888f193505050501580156111bd573d6000803e3d6000fd5b5050565b60006111cb610d8c565b82106111d657600080fd5b600e82815481106111ea576111e961494b565b5b90600052602060002001549050919050565b6017816009811061120c57600080fd5b60209182820401919006915054906101000a900460ff1681565b60008061123283612a54565b9050600073ffffffffffffffffffffffffffffffffffffffff168173ffffffffffffffffffffffffffffffffffffffff16036112a3576040517f08c379a000000000000000000000000000000000000000000000000000000000815260040161129a90614e1a565b60405180910390fd5b80915050919050565b60125481565b60008073ffffffffffffffffffffffffffffffffffffffff168273ffffffffffffffffffffffffffffffffffffffff1603611322576040517f08c379a000000000000000000000000000000000000000000000000000000000815260040161131990614eac565b60405180910390fd5b600460008373ffffffffffffffffffffffffffffffffffffffff1673ffffffffffffffffffffffffffffffffffffffff168152602001908152602001600020549050919050565b6113716129d6565b61137b6000612a91565b565b7fa49807205ce4d355092ef5a8a18f56e8913cf4a201fbe287825b095693c2177581565b601481815481106113b157600080fd5b906000526020600020016000915090505481565b600081116113d257600080fd5b3373ffffffffffffffffffffffffffffffffffffffff166113f283611226565b73ffffffffffffffffffffffffffffffffffffffff161461141257600080fd5b61141d3330846128dc565b60405180604001604052803373ffffffffffffffffffffffffffffffffffffffff168152602001828152506013600084815260200190815260200160002060008201518160000160006101000a81548173ffffffffffffffffffffffffffffffffffffffff021916908373ffffffffffffffffffffffffffffffffffffffff160217905550602082015181600101559050503373ffffffffffffffffffffffffffffffffffffffff16827fc93edc6ee14cd6c0c2842099adfa8953b237dbdad304ba28e96dce8a7f2a828c836040516114f69190614360565b60405180910390a35050565b61152c7fa49807205ce4d355092ef5a8a18f56e8913cf4a201fbe287825b095693c21775336115f7565b61156b576040517f08c379a0000000000000000000000000000000000000000000000000000000008152600401611562906149c6565b60405180910390fd5b6003821061157857600080fd5b6000820361159757806016906009611591929190613c8c565b506115ca565b600182036115b6578060179060096115b0929190613c8c565b506115c9565b8060189060096115c7929190613c8c565b505b5b5050565b60008060009054906101000a900473ffffffffffffffffffffffffffffffffffffffff16905090565b60006006600084815260200190815260200160002060000160008373ffffffffffffffffffffffffffffffffffffffff1673ffffffffffffffffffffffffffffffffffffffff16815260200190815260200160002060009054906101000a900460ff16905092915050565b6060600880546116719061491a565b80601f016020809104026020016040519081016040528092919081815260200182805461169d9061491a565b80156116ea5780601f106116bf576101008083540402835291602001916116ea565b820191906000526020600020905b8154815290600101906020018083116116cd57829003601f168201915b5050505050905090565b61171e7fa49807205ce4d355092ef5a8a18f56e8913cf4a201fbe287825b095693c21775336115f7565b61175d576040517f08c379a0000000000000000000000000000000000000000000000000000000008152600401611754906149c6565b60405180910390fd5b6015805490508151101561177057600080fd5b60005b81518110156117dc576015805490508110156117cf576015818154811061179d5761179c61494b565b5b90600052602060002001548282815181106117bb576117ba61494b565b5b602002602001015110156117ce57600080fd5b5b8080600101915050611773565b5080601490805190602001906117f3929190613d26565b506015805490508151111561184f57600060158054905090505b815181101561184d57601560009080600181540180825580915050600190039060005260206000200160009091909190915055808060010191505061180d565b505b50565b6000601254341015611899576040517f08c379a000000000000000000000000000000000000000000000000000000000815260040161189090614f18565b60405180910390fd5b6000600160646118a7612b55565b6118b19190614f67565b6118bb9190614fc7565b90506000604782116118d057600090506118e7565b606382116118e157600190506118e6565b600290505b5b601481815481106118fb576118fa61494b565b5b90600052602060002001546015828154811061191a5761191961494b565b5b906000526020600020015410611965576040517f08c379a000000000000000000000000000000000000000000000000000000000815260040161195c90615047565b60405180910390fd5b60006119716009612b90565b905061197d6009612b9e565b611985613d73565b600083036119f85760166009806020026040519081016040528092919082600980156119ec576020028201916000905b82829054906101000a900460ff1660ff16815260200190600101906020826000010492830192600103820291508084116119b55790505b50505050509050611ad3565b60018303611a6b576017600980602002604051908101604052809291908260098015611a5f576020028201916000905b82829054906101000a900460ff1660ff1681526020019060010190602082600001049283019260010382029150808411611a285790505b50505050509050611ad2565b6018600980602002604051908101604052809291908260098015611aca576020028201916000905b82829054906101000a900460ff1660ff1681526020019060010190602082600001049283019260010382029150808411611a935790505b505050505090505b5b606060005b80611d2e57611ae5613d73565b600186611af29190614fc7565b81600060098110611b0657611b0561494b565b5b602002019060ff16908160ff16815250506000600190505b60098160ff161015611ba0576001858260ff1660098110611b4257611b4161494b565b5b602002015160ff16611b52612b55565b611b5c9190614f67565b611b669190614fc7565b828260ff1660098110611b7c57611b7b61494b565b5b602002019060ff16908160ff16815250508080611b9890615067565b915050611b1e565b50611bc281600060098110611bb857611bb761494b565b5b6020020151612bb4565b611be382600160098110611bd957611bd861494b565b5b6020020151612bb4565b611c0483600260098110611bfa57611bf961494b565b5b6020020151612bb4565b611c2584600360098110611c1b57611c1a61494b565b5b6020020151612bb4565b611c4685600460098110611c3c57611c3b61494b565b5b6020020151612bb4565b611c6786600560098110611c5d57611c5c61494b565b5b6020020151612bb4565b611c8887600660098110611c7e57611c7d61494b565b5b6020020151612bb4565b611ca988600760098110611c9f57611c9e61494b565b5b6020020151612bb4565b611cca89600860098110611cc057611cbf61494b565b5b6020020151612bb4565b604051602001611ce2999897969594939291906150cc565b6040516020818303038152906040529250601083604051611d03919061514b565b908152602001604051809103902060009054906101000a900460ff16611d2857600191505b50611ad8565b60158581548110611d4257611d4161494b565b5b906000526020600020016000815480929190611d5d90615162565b9190505550611d6c3385612c02565b611d768483612e1f565b81600d60008681526020019081526020016000209081611d969190614bfe565b506001601083604051611da9919061514b565b908152602001604051809103902060006101000a81548160ff021916908315150217905550833373ffffffffffffffffffffffffffffffffffffffff167f8ee4b9f15ee011f61a4a6c5a5e7aec5d3ce89e5190a2b7d3609d6f2a5b492f6884604051611e159190613f12565b60405180910390a3601254341115611e7c573373ffffffffffffffffffffffffffffffffffffffff166108fc60125434611e4f91906151aa565b9081150290604051600060405180830381858888f19350505050158015611e7a573d6000803e3d6000fd5b505b83965050505050505090565b6000801b81565b60168160098110611e9f57600080fd5b60209182820401919006915054906101000a900460ff1681565b6060611ec482612eaf565b611ecd57600080fd5b6000600a60008481526020019081526020016000208054611eed9061491a565b80601f0160208091040260200160405190810160405280929190818152602001828054611f199061491a565b8015611f665780601f10611f3b57610100808354040283529160200191611f66565b820191906000526020600020905b815481529060010190602001808311611f4957829003601f168201915b505050505090506000611f77612ef0565b90506000815103611f8c578192505050611fae565b600082511115611fa0578192505050611fae565b611fa984612f82565b925050505b919050565b611fbc82610e36565b611fc5816127e7565b611fcf83836128f4565b505050565b60188160098110611fe457600080fd5b60209182820401919006915054906101000a900460ff1681565b60136020528060005260406000206000915090508060000160009054906101000a900473ffffffffffffffffffffffffffffffffffffffff16908060010154905082565b6000601360008381526020019081526020016000206040518060400160405290816000820160009054906101000a900473ffffffffffffffffffffffffffffffffffffffff1673ffffffffffffffffffffffffffffffffffffffff1673ffffffffffffffffffffffffffffffffffffffff1681526020016001820154815250509050600081602001511161210b576040517f08c379a00000000000000000000000000000000000000000000000000000000081526004016121029061522a565b60405180910390fd5b80602001513414612151576040517f08c379a000000000000000000000000000000000000000000000000000000000815260040161214890615296565b60405180910390fd5b60136000838152602001908152602001600020600080820160006101000a81549073ffffffffffffffffffffffffffffffffffffffff0219169055600182016000905550506121a13033846128dc565b806000015173ffffffffffffffffffffffffffffffffffffffff166108fc349081150290604051600060405180830381858888f193505050501580156121eb573d6000803e3d6000fd5b503373ffffffffffffffffffffffffffffffffffffffff16827fa574c741071bb18f51fa88c17aeefec514bebf670ca22a3736fba6504ecbb76383602001516040516122379190614360565b60405180910390a35050565b61224b6129d6565b600073ffffffffffffffffffffffffffffffffffffffff168173ffffffffffffffffffffffffffffffffffffffff160361228457600080fd5b61228d81612a91565b50565b6060600d600083815260200190815260200160002080546122b09061491a565b80601f01602080910402602001604051908101604052809291908181526020018280546122dc9061491a565b80156123295780601f106122fe57610100808354040283529160200191612329565b820191906000526020600020905b81548152906001019060200180831161230c57829003601f168201915b50505050509050919050565b61235f7fa49807205ce4d355092ef5a8a18f56e8913cf4a201fbe287825b095693c21775336115f7565b61239e576040517f08c379a0000000000000000000000000000000000000000000000000000000008152600401612395906149c6565b60405180910390fd5b8060128190555050565b6123d27fa49807205ce4d355092ef5a8a18f56e8913cf4a201fbe287825b095693c21775336115f7565b612411576040517f08c379a0000000000000000000000000000000000000000000000000000000008152600401612408906149c6565b60405180910390fd5b601480549050821061242257600080fd5b601582815481106124365761243561494b565b5b906000526020600020015481101561244d57600080fd5b80601483815481106124625761246161494b565b5b90600052602060002001819055505050565b60007f7965db0b000000000000000000000000000000000000000000000000000000007bffffffffffffffffffffffffffffffffffffffffffffffffffffffff1916827bffffffffffffffffffffffffffffffffffffffffffffffffffffffff191614806124e757506124e682612fea565b5b9050919050565b8273ffffffffffffffffffffffffffffffffffffffff1661250e82611226565b73ffffffffffffffffffffffffffffffffffffffff1614612564576040517f08c379a000000000000000000000000000000000000000000000000000000000815260040161255b90615328565b60405180910390fd5b600073ffffffffffffffffffffffffffffffffffffffff168273ffffffffffffffffffffffffffffffffffffffff16036125d3576040517f08c379a00000000000000000000000000000000000000000000000000000000081526004016125ca906153ba565b60405180910390fd5b6125e083838360016130cc565b8273ffffffffffffffffffffffffffffffffffffffff1661260082611226565b73ffffffffffffffffffffffffffffffffffffffff1614612656576040517f08c379a000000000000000000000000000000000000000000000000000000000815260040161264d90615328565b60405180910390fd5b6005600082815260200190815260200160002060006101000a81549073ffffffffffffffffffffffffffffffffffffffff02191690556001600460008573ffffffffffffffffffffffffffffffffffffffff1673ffffffffffffffffffffffffffffffffffffffff168152602001908152602001600020600082825403925050819055506001600460008473ffffffffffffffffffffffffffffffffffffffff1673ffffffffffffffffffffffffffffffffffffffff16815260200190815260200160002060008282540192505081905550816003600083815260200190815260200160002060006101000a81548173ffffffffffffffffffffffffffffffffffffffff021916908373ffffffffffffffffffffffffffffffffffffffff160217905550808273ffffffffffffffffffffffffffffffffffffffff168473ffffffffffffffffffffffffffffffffffffffff167fddf252ad1be2c89b69c2b068fc378daa952ba7f163c4a11628f55a4df523b3ef60405160405180910390a46127e2838383600161322a565b505050565b6127f8816127f36128ec565b613230565b50565b61280582826115f7565b6128d85760016006600084815260200190815260200160002060000160008373ffffffffffffffffffffffffffffffffffffffff1673ffffffffffffffffffffffffffffffffffffffff16815260200190815260200160002060006101000a81548160ff02191690831515021790555061287d6128ec565b73ffffffffffffffffffffffffffffffffffffffff168173ffffffffffffffffffffffffffffffffffffffff16837f2f8788117e7eff1d82e926ec794901d17c78024a50270940304540a733656f0d60405160405180910390a45b5050565b6128e78383836124ee565b505050565b600033905090565b6128fe82826115f7565b156129d25760006006600084815260200190815260200160002060000160008373ffffffffffffffffffffffffffffffffffffffff1673ffffffffffffffffffffffffffffffffffffffff16815260200190815260200160002060006101000a81548160ff0219169083151502179055506129776128ec565b73ffffffffffffffffffffffffffffffffffffffff168173ffffffffffffffffffffffffffffffffffffffff16837ff6391f5c32d9c69d2a47ea670b442974b53935d1edc7fd64eb21e047a839171b60405160405180910390a45b5050565b6129de6128ec565b73ffffffffffffffffffffffffffffffffffffffff166129fc6115ce565b73ffffffffffffffffffffffffffffffffffffffff1614612a52576040517f08c379a0000000000000000000000000000000000000000000000000000000008152600401612a4990615426565b60405180910390fd5b565b60006003600083815260200190815260200160002060009054906101000a900473ffffffffffffffffffffffffffffffffffffffff169050919050565b60008060009054906101000a900473ffffffffffffffffffffffffffffffffffffffff169050816000806101000a81548173ffffffffffffffffffffffffffffffffffffffff021916908373ffffffffffffffffffffffffffffffffffffffff1602179055508173ffffffffffffffffffffffffffffffffffffffff168173ffffffffffffffffffffffffffffffffffffffff167f8be0079c531659141344cd1fd0a4f28419497f9722a3daafe3b4186f6b6457e060405160405180910390a35050565b6000424443335a47604051602001612b72969594939291906154af565b6040516020818303038152906040528051906020012060001c905090565b600081600001549050919050565b6001816000016000828254019250508190555050565b6060600a8260ff161015612bf157612bcb826132b5565b604051602001612bdb919061556b565b6040516020818303038152906040529050612bfd565b612bfa826132b5565b90505b919050565b600073ffffffffffffffffffffffffffffffffffffffff168273ffffffffffffffffffffffffffffffffffffffff1603612c71576040517f08c379a0000000000000000000000000000000000000000000000000000000008152600401612c68906155d9565b60405180910390fd5b612c7a81612eaf565b15612cba576040517f08c379a0000000000000000000000000000000000000000000000000000000008152600401612cb190615645565b60405180910390fd5b612cc86000838360016130cc565b612cd181612eaf565b15612d11576040517f08c379a0000000000000000000000000000000000000000000000000000000008152600401612d0890615645565b60405180910390fd5b6001600460008473ffffffffffffffffffffffffffffffffffffffff1673ffffffffffffffffffffffffffffffffffffffff16815260200190815260200160002060008282540192505081905550816003600083815260200190815260200160002060006101000a81548173ffffffffffffffffffffffffffffffffffffffff021916908373ffffffffffffffffffffffffffffffffffffffff160217905550808273ffffffffffffffffffffffffffffffffffffffff16600073ffffffffffffffffffffffffffffffffffffffff167fddf252ad1be2c89b69c2b068fc378daa952ba7f163c4a11628f55a4df523b3ef60405160405180910390a4612e1b60008383600161322a565b5050565b612e2882612eaf565b612e3157600080fd5b601181604051602001612e45929190615734565b604051602081830303815290604052600a60008481526020019081526020016000209081612e739190614bfe565b507ff8e1a15aba9398e019f0b49df1a4fde98ee17ae345cb5f6b5e2c27f5033e8ce782604051612ea39190614360565b60405180910390a15050565b60008073ffffffffffffffffffffffffffffffffffffffff16612ed183612a54565b73ffffffffffffffffffffffffffffffffffffffff1614159050919050565b606060118054612eff9061491a565b80601f0160208091040260200160405190810160405280929190818152602001828054612f2b9061491a565b8015612f785780601f10612f4d57610100808354040283529160200191612f78565b820191906000526020600020905b815481529060010190602001808311612f5b57829003601f168201915b5050505050905090565b6060612f8d82613427565b6000612f97612ef0565b90506000815111612fb75760405180602001604052806000815250612fe2565b80612fc184613472565b604051602001612fd2929190615763565b6040516020818303038152906040525b915050919050565b60007f304ad1f2000000000000000000000000000000000000000000000000000000007bffffffffffffffffffffffffffffffffffffffffffffffffffffffff1916827bffffffffffffffffffffffffffffffffffffffffffffffffffffffff191614806130b557507f5b5e139f000000000000000000000000000000000000000000000000000000007bffffffffffffffffffffffffffffffffffffffffffffffffffffffff1916827bffffffffffffffffffffffffffffffffffffffffffffffffffffffff1916145b806130c557506130c482613540565b5b9050919050565b6130d8848484846135aa565b600181111561311c576040517f08c379a0000000000000000000000000000000000000000000000000000000008152600401613113906157f9565b60405180910390fd5b6000829050600073ffffffffffffffffffffffffffffffffffffffff168573ffffffffffffffffffffffffffffffffffffffff16036131635761315e816135b0565b6131a2565b8373ffffffffffffffffffffffffffffffffffffffff168573ffffffffffffffffffffffffffffffffffffffff16146131a1576131a085826135f9565b5b5b600073ffffffffffffffffffffffffffffffffffffffff168473ffffffffffffffffffffffffffffffffffffffff16036131e4576131df81613766565b613223565b8473ffffffffffffffffffffffffffffffffffffffff168473ffffffffffffffffffffffffffffffffffffffff1614613222576132218482613837565b5b5b5050505050565b50505050565b61323a82826115f7565b6132b157613247816138b6565b6132558360001c60206138e3565b6040516020016132669291906158b1565b6040516020818303038152906040526040517f08c379a00000000000000000000000000000000000000000000000000000000081526004016132a89190613f12565b60405180910390fd5b5050565b606060008260ff16036132ff576040518060400160405280600181526020017f30000000000000000000000000000000000000000000000000000000000000008152509050613422565b600082905060005b60008260ff161461333457808061331d90615067565b915050600a8261332d91906158eb565b9150613307565b60008160ff1667ffffffffffffffff81111561335357613352613fd2565b5b6040519080825280601f01601f1916602001820160405280156133855781602001600182028036833780820191505090505b50905060008290505b60008660ff161461341a57600a866133a6919061591c565b60306133b2919061594d565b60f81b82826133c090615982565b92508260ff16815181106133d7576133d661494b565b5b60200101907effffffffffffffffffffffffffffffffffffffffffffffffffffffffffffff1916908160001a905350600a8661341391906158eb565b955061338e565b819450505050505b919050565b61343081612eaf565b61346f576040517f08c379a000000000000000000000000000000000000000000000000000000000815260040161346690614e1a565b60405180910390fd5b50565b60606000600161348184613b1f565b01905060008167ffffffffffffffff8111156134a05761349f613fd2565b5b6040519080825280601f01601f1916602001820160405280156134d25781602001600182028036833780820191505090505b509050600082602001820190505b600115613535578080600190039150507f3031323334353637383961626364656600000000000000000000000000000000600a86061a8153600a858161352957613528614f38565b5b049450600085036134e0575b819350505050919050565b60007f01ffc9a7000000000000000000000000000000000000000000000000000000007bffffffffffffffffffffffffffffffffffffffffffffffffffffffff1916827bffffffffffffffffffffffffffffffffffffffffffffffffffffffff1916149050919050565b50505050565b600e80549050600f600083815260200190815260200160002081905550600e81908060018154018082558091505060019003906000526020600020016000909190919091505550565b60006001613606846112b2565b61361091906151aa565b90506000600c60008481526020019081526020016000205490508181146136f5576000600b60008673ffffffffffffffffffffffffffffffffffffffff1673ffffffffffffffffffffffffffffffffffffffff168152602001908152602001600020600084815260200190815260200160002054905080600b60008773ffffffffffffffffffffffffffffffffffffffff1673ffffffffffffffffffffffffffffffffffffffff16815260200190815260200160002060008481526020019081526020016000208190555081600c600083815260200190815260200160002081905550505b600c600084815260200190815260200160002060009055600b60008573ffffffffffffffffffffffffffffffffffffffff1673ffffffffffffffffffffffffffffffffffffffff16815260200190815260200160002060008381526020019081526020016000206000905550505050565b60006001600e8054905061377a91906151aa565b90506000600f60008481526020019081526020016000205490506000600e83815481106137aa576137a961494b565b5b9060005260206000200154905080600e83815481106137cc576137cb61494b565b5b906000526020600020018190555081600f600083815260200190815260200160002081905550600f600085815260200190815260200160002060009055600e80548061381b5761381a6159ab565b5b6001900381819060005260206000200160009055905550505050565b6000613842836112b2565b905081600b60008573ffffffffffffffffffffffffffffffffffffffff1673ffffffffffffffffffffffffffffffffffffffff16815260200190815260200160002060008381526020019081526020016000208190555080600c600084815260200190815260200160002081905550505050565b60606138dc8273ffffffffffffffffffffffffffffffffffffffff16601460ff166138e3565b9050919050565b6060600060028360026138f691906159da565b6139009190614fc7565b67ffffffffffffffff81111561391957613918613fd2565b5b6040519080825280601f01601f19166020018201604052801561394b5781602001600182028036833780820191505090505b5090507f3000000000000000000000000000000000000000000000000000000000000000816000815181106139835761398261494b565b5b60200101907effffffffffffffffffffffffffffffffffffffffffffffffffffffffffffff1916908160001a9053507f7800000000000000000000000000000000000000000000000000000000000000816001815181106139e7576139e661494b565b5b60200101907effffffffffffffffffffffffffffffffffffffffffffffffffffffffffffff1916908160001a90535060006001846002613a2791906159da565b613a319190614fc7565b90505b6001811115613ad1577f3031323334353637383961626364656600000000000000000000000000000000600f861660108110613a7357613a7261494b565b5b1a60f81b828281518110613a8a57613a8961494b565b5b60200101907effffffffffffffffffffffffffffffffffffffffffffffffffffffffffffff1916908160001a905350600485901c945080613aca90615a1c565b9050613a34565b5060008414613b15576040517f08c379a0000000000000000000000000000000000000000000000000000000008152600401613b0c90615a91565b60405180910390fd5b8091505092915050565b600080600090507a184f03e93ff9f4daa797ed6e38ed64bf6a1f0100000000000000008310613b7d577a184f03e93ff9f4daa797ed6e38ed64bf6a1f0100000000000000008381613b7357613b72614f38565b5b0492506040810190505b6d04ee2d6d415b85acef81000000008310613bba576d04ee2d6d415b85acef81000000008381613bb057613baf614f38565b5b0492506020810190505b662386f26fc100008310613be957662386f26fc100008381613bdf57613bde614f38565b5b0492506010810190505b6305f5e1008310613c12576305f5e1008381613c0857613c07614f38565b5b0492506008810190505b6127108310613c37576127108381613c2d57613c2c614f38565b5b0492506004810190505b60648310613c5a5760648381613c5057613c4f614f38565b5b0492506002810190505b600a8310613c69576001810190505b80915050919050565b604051806040016040528060008152602001606081525090565b826009601f01602090048101928215613d155791602002820160005b83821115613ce657835183826101000a81548160ff021916908360ff1602179055509260200192600101602081600001049283019260010302613ca8565b8015613d135782816101000a81549060ff0219169055600101602081600001049283019260010302613ce6565b505b509050613d229190613d96565b5090565b828054828255906000526020600020908101928215613d62579160200282015b82811115613d61578251825591602001919060010190613d46565b5b509050613d6f9190613d96565b5090565b604051806101200160405280600990602082028036833780820191505090505090565b5b80821115613daf576000816000905550600101613d97565b5090565b6000604051905090565b600080fd5b600080fd5b60007fffffffff0000000000000000000000000000000000000000000000000000000082169050919050565b613dfc81613dc7565b8114613e0757600080fd5b50565b600081359050613e1981613df3565b92915050565b600060208284031215613e3557613e34613dbd565b5b6000613e4384828501613e0a565b91505092915050565b60008115159050919050565b613e6181613e4c565b82525050565b6000602082019050613e7c6000830184613e58565b92915050565b600081519050919050565b600082825260208201905092915050565b60005b83811015613ebc578082015181840152602081019050613ea1565b60008484015250505050565b6000601f19601f8301169050919050565b6000613ee482613e82565b613eee8185613e8d565b9350613efe818560208601613e9e565b613f0781613ec8565b840191505092915050565b60006020820190508181036000830152613f2c8184613ed9565b905092915050565b600073ffffffffffffffffffffffffffffffffffffffff82169050919050565b6000613f5f82613f34565b9050919050565b613f6f81613f54565b8114613f7a57600080fd5b50565b600081359050613f8c81613f66565b92915050565b6000819050919050565b613fa581613f92565b8114613fb057600080fd5b50565b600081359050613fc281613f9c565b92915050565b600080fd5b600080fd5b7f4e487b7100000000000000000000000000000000000000000000000000000000600052604160045260246000fd5b61400a82613ec8565b810181811067ffffffffffffffff8211171561402957614028613fd2565b5b80604052505050565b600061403c613db3565b90506140488282614001565b919050565b600067ffffffffffffffff82111561406857614067613fd2565b5b61407182613ec8565b9050602081019050919050565b82818337600083830152505050565b60006140a061409b8461404d565b614032565b9050828152602081018484840111156140bc576140bb613fcd565b5b6140c784828561407e565b509392505050565b600082601f8301126140e4576140e3613fc8565b5b81356140f484826020860161408d565b91505092915050565b6000806000806080858703121561411757614116613dbd565b5b600061412587828801613f7d565b945050602061413687828801613f7d565b935050604061414787828801613fb3565b925050606085013567ffffffffffffffff81111561416857614167613dc2565b5b614174878288016140cf565b91505092959194509250565b61418981613dc7565b82525050565b60006020820190506141a46000830184614180565b92915050565b6000602082840312156141c0576141bf613dbd565b5b60006141ce84828501613f7d565b91505092915050565b600081519050919050565b600082825260208201905092915050565b6000819050602082019050919050565b61420c81613f92565b82525050565b600082825260208201905092915050565b600061422e82613e82565b6142388185614212565b9350614248818560208601613e9e565b61425181613ec8565b840191505092915050565b60006040830160008301516142746000860182614203565b506020830151848203602086015261428c8282614223565b9150508091505092915050565b60006142a5838361425c565b905092915050565b6000602082019050919050565b60006142c5826141d7565b6142cf81856141e2565b9350836020820285016142e1856141f3565b8060005b8581101561431d57848403895281516142fe8582614299565b9450614309836142ad565b925060208a019950506001810190506142e5565b50829750879550505050505092915050565b6000602082019050818103600083015261434981846142ba565b905092915050565b61435a81613f92565b82525050565b60006020820190506143756000830184614351565b92915050565b60008060006060848603121561439457614393613dbd565b5b60006143a286828701613f7d565b93505060206143b386828701613f7d565b92505060406143c486828701613fb3565b9150509250925092565b6000602082840312156143e4576143e3613dbd565b5b60006143f284828501613fb3565b91505092915050565b6000819050919050565b61440e816143fb565b811461441957600080fd5b50565b60008135905061442b81614405565b92915050565b60006020828403121561444757614446613dbd565b5b60006144558482850161441c565b91505092915050565b614467816143fb565b82525050565b6000602082019050614482600083018461445e565b92915050565b6000806040838503121561449f5761449e613dbd565b5b60006144ad8582860161441c565b92505060206144be85828601613f7d565b9150509250929050565b600080604083850312156144df576144de613dbd565b5b60006144ed85828601613f7d565b92505060206144fe85828601613fb3565b9150509250929050565b600067ffffffffffffffff82111561452357614522613fd2565b5b61452c82613ec8565b9050602081019050919050565b600061454c61454784614508565b614032565b90508281526020810184848401111561456857614567613fcd565b5b61457384828561407e565b509392505050565b600082601f8301126145905761458f613fc8565b5b81356145a0848260208601614539565b91505092915050565b6000602082840312156145bf576145be613dbd565b5b600082013567ffffffffffffffff8111156145dd576145dc613dc2565b5b6145e98482850161457b565b91505092915050565b600060ff82169050919050565b614608816145f2565b82525050565b600060208201905061462360008301846145ff565b92915050565b61463281613f54565b82525050565b600060208201905061464d6000830184614629565b92915050565b6000806040838503121561466a57614669613dbd565b5b600061467885828601613fb3565b925050602061468985828601613fb3565b9150509250929050565b600067ffffffffffffffff8211156146ae576146ad613fd2565b5b602082029050919050565b600080fd5b6146c7816145f2565b81146146d257600080fd5b50565b6000813590506146e4816146be565b92915050565b60006146fd6146f884614693565b614032565b90508060208402830185811115614717576147166146b9565b5b835b81811015614740578061472c88826146d5565b845260208401935050602081019050614719565b5050509392505050565b600082601f83011261475f5761475e613fc8565b5b600961476c8482856146ea565b91505092915050565b600080610140838503121561478d5761478c613dbd565b5b600061479b85828601613fb3565b92505060206147ac8582860161474a565b9150509250929050565b600067ffffffffffffffff8211156147d1576147d0613fd2565b5b602082029050602081019050919050565b60006147f56147f0846147b6565b614032565b90508083825260208201905060208402830185811115614818576148176146b9565b5b835b81811015614841578061482d8882613fb3565b84526020840193505060208101905061481a565b5050509392505050565b600082601f8301126148605761485f613fc8565b5b81356148708482602086016147e2565b91505092915050565b60006020828403121561488f5761488e613dbd565b5b600082013567ffffffffffffffff8111156148ad576148ac613dc2565b5b6148b98482850161484b565b91505092915050565b60006040820190506148d76000830185614629565b6148e46020830184614351565b9392505050565b7f4e487b7100000000000000000000000000000000000000000000000000000000600052602260045260246000fd5b6000600282049050600182168061493257607f821691505b602082108103614945576149446148eb565b5b50919050565b7f4e487b7100000000000000000000000000000000000000000000000000000000600052603260045260246000fd5b7f3330310000000000000000000000000000000000000000000000000000000000600082015250565b60006149b0600383613e8d565b91506149bb8261497a565b602082019050919050565b600060208201905081810360008301526149df816149a3565b9050919050565b7f3100000000000000000000000000000000000000000000000000000000000000600082015250565b6000614a1c600183613e8d565b9150614a27826149e6565b602082019050919050565b60006020820190508181036000830152614a4b81614a0f565b9050919050565b60008190508160005260206000209050919050565b60006020601f8301049050919050565b600082821b905092915050565b600060088302614ab47fffffffffffffffffffffffffffffffffffffffffffffffffffffffffffffffff82614a77565b614abe8683614a77565b95508019841693508086168417925050509392505050565b6000819050919050565b6000614afb614af6614af184613f92565b614ad6565b613f92565b9050919050565b6000819050919050565b614b1583614ae0565b614b29614b2182614b02565b848454614a84565b825550505050565b600090565b614b3e614b31565b614b49818484614b0c565b505050565b5b81811015614b6d57614b62600082614b36565b600181019050614b4f565b5050565b601f821115614bb257614b8381614a52565b614b8c84614a67565b81016020851015614b9b578190505b614baf614ba785614a67565b830182614b4e565b50505b505050565b600082821c905092915050565b6000614bd560001984600802614bb7565b1980831691505092915050565b6000614bee8383614bc4565b9150826002028217905092915050565b614c0782613e82565b67ffffffffffffffff811115614c2057614c1f613fd2565b5b614c2a825461491a565b614c35828285614b71565b600060209050601f831160018114614c685760008415614c56578287015190505b614c608582614be2565b865550614cc8565b601f198416614c7686614a52565b60005b82811015614c9e57848901518255600182019150602085019450602081019050614c79565b86831015614cbb5784890151614cb7601f891682614bc4565b8355505b6001600288020188555050505b505050505050565b7f3130350000000000000000000000000000000000000000000000000000000000600082015250565b6000614d06600383613e8d565b9150614d1182614cd0565b602082019050919050565b60006020820190508181036000830152614d3581614cf9565b9050919050565b7f416363657373436f6e74726f6c3a2063616e206f6e6c792072656e6f756e636560008201527f20726f6c657320666f722073656c660000000000000000000000000000000000602082015250565b6000614d98602f83613e8d565b9150614da382614d3c565b604082019050919050565b60006020820190508181036000830152614dc781614d8b565b9050919050565b7f4552433732313a20696e76616c696420746f6b656e2049440000000000000000600082015250565b6000614e04601883613e8d565b9150614e0f82614dce565b602082019050919050565b60006020820190508181036000830152614e3381614df7565b9050919050565b7f4552433732313a2061646472657373207a65726f206973206e6f74206120766160008201527f6c6964206f776e65720000000000000000000000000000000000000000000000602082015250565b6000614e96602983613e8d565b9150614ea182614e3a565b604082019050919050565b60006020820190508181036000830152614ec581614e89565b9050919050565b7f496e73756666696369656e74207061796d656e74000000000000000000000000600082015250565b6000614f02601483613e8d565b9150614f0d82614ecc565b602082019050919050565b60006020820190508181036000830152614f3181614ef5565b9050919050565b7f4e487b7100000000000000000000000000000000000000000000000000000000600052601260045260246000fd5b6000614f7282613f92565b9150614f7d83613f92565b925082614f8d57614f8c614f38565b5b828206905092915050565b7f4e487b7100000000000000000000000000000000000000000000000000000000600052601160045260246000fd5b6000614fd282613f92565b9150614fdd83613f92565b9250828201905080821115614ff557614ff4614f98565b5b92915050565b7f3130360000000000000000000000000000000000000000000000000000000000600082015250565b6000615031600383613e8d565b915061503c82614ffb565b602082019050919050565b6000602082019050818103600083015261506081615024565b9050919050565b6000615072826145f2565b915060ff820361508557615084614f98565b5b600182019050919050565b600081905092915050565b60006150a682613e82565b6150b08185615090565b93506150c0818560208601613e9e565b80840191505092915050565b60006150d8828c61509b565b91506150e4828b61509b565b91506150f0828a61509b565b91506150fc828961509b565b9150615108828861509b565b9150615114828761509b565b9150615120828661509b565b915061512c828561509b565b9150615138828461509b565b91508190509a9950505050505050505050565b6000615157828461509b565b915081905092915050565b600061516d82613f92565b91507fffffffffffffffffffffffffffffffffffffffffffffffffffffffffffffffff820361519f5761519e614f98565b5b600182019050919050565b60006151b582613f92565b91506151c083613f92565b92508282039050818111156151d8576151d7614f98565b5b92915050565b7f3130370000000000000000000000000000000000000000000000000000000000600082015250565b6000615214600383613e8d565b915061521f826151de565b602082019050919050565b6000602082019050818103600083015261524381615207565b9050919050565b7f3130380000000000000000000000000000000000000000000000000000000000600082015250565b6000615280600383613e8d565b915061528b8261524a565b602082019050919050565b600060208201905081810360008301526152af81615273565b9050919050565b7f4552433732313a207472616e736665722066726f6d20696e636f72726563742060008201527f6f776e6572000000000000000000000000000000000000000000000000000000602082015250565b6000615312602583613e8d565b915061531d826152b6565b604082019050919050565b6000602082019050818103600083015261534181615305565b9050919050565b7f4552433732313a207472616e7366657220746f20746865207a65726f2061646460008201527f7265737300000000000000000000000000000000000000000000000000000000602082015250565b60006153a4602483613e8d565b91506153af82615348565b604082019050919050565b600060208201905081810360008301526153d381615397565b9050919050565b7f4f776e61626c653a2063616c6c6572206973206e6f7420746865206f776e6572600082015250565b6000615410602083613e8d565b915061541b826153da565b602082019050919050565b6000602082019050818103600083015261543f81615403565b9050919050565b6000819050919050565b61546161545c82613f92565b615446565b82525050565b60008160601b9050919050565b600061547f82615467565b9050919050565b600061549182615474565b9050919050565b6154a96154a482613f54565b615486565b82525050565b60006154bb8289615450565b6020820191506154cb8288615450565b6020820191506154db8287615450565b6020820191506154eb8286615498565b6014820191506154fb8285615450565b60208201915061550b8284615450565b602082019150819050979650505050505050565b7f3000000000000000000000000000000000000000000000000000000000000000600082015250565b6000615555600183615090565b91506155608261551f565b600182019050919050565b600061557682615548565b9150615582828461509b565b915081905092915050565b7f4552433732313a206d696e7420746f20746865207a65726f2061646472657373600082015250565b60006155c3602083613e8d565b91506155ce8261558d565b602082019050919050565b600060208201905081810360008301526155f2816155b6565b9050919050565b7f4552433732313a20746f6b656e20616c7265616479206d696e74656400000000600082015250565b600061562f601c83613e8d565b915061563a826155f9565b602082019050919050565b6000602082019050818103600083015261565e81615622565b9050919050565b600081546156728161491a565b61567c8186615090565b9450600182166000811461569757600181146156ac576156df565b60ff19831686528115158202860193506156df565b6156b585614a52565b60005b838110156156d7578154818901526001820191506020810190506156b8565b838801955050505b50505092915050565b7f2e6a736f6e000000000000000000000000000000000000000000000000000000600082015250565b600061571e600583615090565b9150615729826156e8565b600582019050919050565b60006157408285615665565b915061574c828461509b565b915061575782615711565b91508190509392505050565b600061576f828561509b565b915061577b828461509b565b91508190509392505050565b7f455243373231456e756d657261626c653a20636f6e736563757469766520747260008201527f616e7366657273206e6f7420737570706f727465640000000000000000000000602082015250565b60006157e3603583613e8d565b91506157ee82615787565b604082019050919050565b60006020820190508181036000830152615812816157d6565b9050919050565b7f416363657373436f6e74726f6c3a206163636f756e7420000000000000000000600082015250565b600061584f601783615090565b915061585a82615819565b601782019050919050565b7f206973206d697373696e6720726f6c6520000000000000000000000000000000600082015250565b600061589b601183615090565b91506158a682615865565b601182019050919050565b60006158bc82615842565b91506158c8828561509b565b91506158d38261588e565b91506158df828461509b565b91508190509392505050565b60006158f6826145f2565b9150615901836145f2565b92508261591157615910614f38565b5b828204905092915050565b6000615927826145f2565b9150615932836145f2565b92508261594257615941614f38565b5b828206905092915050565b6000615958826145f2565b9150615963836145f2565b9250828201905060ff81111561597c5761597b614f98565b5b92915050565b600061598d826145f2565b9150600082036159a05761599f614f98565b5b600182039050919050565b7f4e487b7100000000000000000000000000000000000000000000000000000000600052603160045260246000fd5b60006159e582613f92565b91506159f083613f92565b92508282026159fe81613f92565b91508282048414831517615a1557615a14614f98565b5b5092915050565b6000615a2782613f92565b915060008203615a3a57615a39614f98565b5b600182039050919050565b7f537472696e67733a20686578206c656e67746820696e73756666696369656e74600082015250565b6000615a7b602083613e8d565b9150615a8682615a45565b602082019050919050565b60006020820190508181036000830152615aaa81615a6e565b905091905056fea264697066735822122043153719c3d3ec69b17efabfb7ec41f5974d63ccf2be172a5337e07fdaf8fbbb64736f6c63430008180033697066733a2f2f62616679626569646836756b3762323567786c62357264377673656c653374763634777832706572336c6a707876626374736e34646933786672692f","opcodes":"PUSH1 0x80 PUSH1 0x40 MSTORE PUSH1 0x40 MLOAD DUP1 PUSH1 0x80 ADD PUSH1 0x40 MSTORE DUP1 PUSH1 0x43 DUP2 MSTORE PUSH1 0x20 ADD PUSH3 0x65E1 PUSH1 0x43 SWAP2 CODECOPY PUSH1 0x11 SWAP1 DUP2 PUSH3 0x2E SWAP2 SWAP1 PUSH3 0x99B JUMP JUMPDEST POP PUSH1 0x40 MLOAD DUP1 PUSH2 0x120 ADD PUSH1 0x40 MSTORE DUP1 PUSH1 0x1 PUSH1 0xFF AND DUP2 MSTORE PUSH1 0x20 ADD PUSH1 0x1 PUSH1 0xFF AND DUP2 MSTORE PUSH1 0x20 ADD PUSH1 0x4 PUSH1 0xFF AND DUP2 MSTORE PUSH1 0x20 ADD PUSH1 0x4 PUSH1 0xFF AND DUP2 MSTORE PUSH1 0x20 ADD PUSH1 0x4 PUSH1 0xFF AND DUP2 MSTORE PUSH1 0x20 ADD PUSH1 0x4 PUSH1 0xFF AND DUP2 MSTORE PUSH1 0x20 ADD PUSH1 0x4 PUSH1 0xFF AND DUP2 MSTORE PUSH1 0x20 ADD PUSH1 0x4 PUSH1 0xFF AND DUP2 MSTORE PUSH1 0x20 ADD PUSH1 0x4 PUSH1 0xFF AND DUP2 MSTORE POP PUSH1 0x16 SWAP1 PUSH1 0x9 PUSH3 0xA5 SWAP3 SWAP2 SWAP1 PUSH3 0x5B7 JUMP JUMPDEST POP PUSH1 0x40 MLOAD DUP1 PUSH2 0x120 ADD PUSH1 0x40 MSTORE DUP1 PUSH1 0x1 PUSH1 0xFF AND DUP2 MSTORE PUSH1 0x20 ADD PUSH1 0x1 PUSH1 0xFF AND DUP2 MSTORE PUSH1 0x20 ADD PUSH1 0x4 PUSH1 0xFF AND DUP2 MSTORE PUSH1 0x20 ADD PUSH1 0x4 PUSH1 0xFF AND DUP2 MSTORE PUSH1 0x20 ADD PUSH1 0x4 PUSH1 0xFF AND DUP2 MSTORE PUSH1 0x20 ADD PUSH1 0x4 PUSH1 0xFF AND DUP2 MSTORE PUSH1 0x20 ADD PUSH1 0x4 PUSH1 0xFF AND DUP2 MSTORE PUSH1 0x20 ADD PUSH1 0x4 PUSH1 0xFF AND DUP2 MSTORE PUSH1 0x20 ADD PUSH1 0x4 PUSH1 0xFF AND DUP2 MSTORE POP PUSH1 0x17 SWAP1 PUSH1 0x9 PUSH3 0x11C SWAP3 SWAP2 SWAP1 PUSH3 0x5B7 JUMP JUMPDEST POP PUSH1 0x40 MLOAD DUP1 PUSH2 0x120 ADD PUSH1 0x40 MSTORE DUP1 PUSH1 0x1 PUSH1 0xFF AND DUP2 MSTORE PUSH1 0x20 ADD PUSH1 0x1 PUSH1 0xFF AND DUP2 MSTORE PUSH1 0x20 ADD PUSH1 0x3 PUSH1 0xFF AND DUP2 MSTORE PUSH1 0x20 ADD PUSH1 0x3 PUSH1 0xFF AND DUP2 MSTORE PUSH1 0x20 ADD PUSH1 0x3 PUSH1 0xFF AND DUP2 MSTORE PUSH1 0x20 ADD PUSH1 0x3 PUSH1 0xFF AND DUP2 MSTORE PUSH1 0x20 ADD PUSH1 0x3 PUSH1 0xFF AND DUP2 MSTORE PUSH1 0x20 ADD PUSH1 0x3 PUSH1 0xFF AND DUP2 MSTORE PUSH1 0x20 ADD PUSH1 0x3 PUSH1 0xFF AND DUP2 MSTORE POP PUSH1 0x18 SWAP1 PUSH1 0x9 PUSH3 0x193 SWAP3 SWAP2 SWAP1 PUSH3 0x5B7 JUMP JUMPDEST POP CALLVALUE DUP1 ISZERO PUSH3 0x1A1 JUMPI PUSH1 0x0 DUP1 REVERT JUMPDEST POP PUSH1 0x40 MLOAD PUSH3 0x6624 CODESIZE SUB DUP1 PUSH3 0x6624 DUP4 CODECOPY DUP2 DUP2 ADD PUSH1 0x40 MSTORE DUP2 ADD SWAP1 PUSH3 0x1C7 SWAP2 SWAP1 PUSH3 0xAB8 JUMP JUMPDEST PUSH1 0x40 MLOAD DUP1 PUSH1 0x40 ADD PUSH1 0x40 MSTORE DUP1 PUSH1 0xC DUP2 MSTORE PUSH1 0x20 ADD PUSH32 0x4669736865726D616E4E46540000000000000000000000000000000000000000 DUP2 MSTORE POP PUSH1 0x40 MLOAD DUP1 PUSH1 0x40 ADD PUSH1 0x40 MSTORE DUP1 PUSH1 0x3 DUP2 MSTORE PUSH1 0x20 ADD PUSH32 0x464D4E0000000000000000000000000000000000000000000000000000000000 DUP2 MSTORE POP PUSH3 0x253 PUSH3 0x247 PUSH3 0x378 PUSH1 0x20 SHL PUSH1 0x20 SHR JUMP JUMPDEST PUSH3 0x380 PUSH1 0x20 SHL PUSH1 0x20 SHR JUMP JUMPDEST DUP2 PUSH1 0x1 SWAP1 DUP2 PUSH3 0x264 SWAP2 SWAP1 PUSH3 0x99B JUMP JUMPDEST POP DUP1 PUSH1 0x2 SWAP1 DUP2 PUSH3 0x276 SWAP2 SWAP1 PUSH3 0x99B JUMP JUMPDEST POP POP POP DUP1 PUSH1 0x12 DUP2 SWAP1 SSTORE POP PUSH3 0x295 PUSH1 0x0 DUP1 SHL CALLER PUSH3 0x444 PUSH1 0x20 SHL PUSH1 0x20 SHR JUMP JUMPDEST PUSH3 0x2C7 PUSH32 0xA49807205CE4D355092EF5A8A18F56E8913CF4A201FBE287825B095693C21775 CALLER PUSH3 0x444 PUSH1 0x20 SHL PUSH1 0x20 SHR JUMP JUMPDEST PUSH1 0x40 MLOAD DUP1 PUSH1 0x60 ADD PUSH1 0x40 MSTORE DUP1 PUSH2 0x4000 PUSH2 0xFFFF AND DUP2 MSTORE PUSH1 0x20 ADD PUSH2 0x4000 PUSH2 0xFFFF AND DUP2 MSTORE PUSH1 0x20 ADD PUSH2 0x88B PUSH2 0xFFFF AND DUP2 MSTORE POP PUSH1 0x14 SWAP1 PUSH1 0x3 PUSH3 0x306 SWAP3 SWAP2 SWAP1 PUSH3 0x658 JUMP JUMPDEST POP PUSH1 0x14 DUP1 SLOAD SWAP1 POP PUSH8 0xFFFFFFFFFFFFFFFF DUP2 GT ISZERO PUSH3 0x329 JUMPI PUSH3 0x328 PUSH3 0x72C JUMP JUMPDEST JUMPDEST PUSH1 0x40 MLOAD SWAP1 DUP1 DUP3 MSTORE DUP1 PUSH1 0x20 MUL PUSH1 0x20 ADD DUP3 ADD PUSH1 0x40 MSTORE DUP1 ISZERO PUSH3 0x358 JUMPI DUP2 PUSH1 0x20 ADD PUSH1 0x20 DUP3 MUL DUP1 CALLDATASIZE DUP4 CALLDATACOPY DUP1 DUP3 ADD SWAP2 POP POP SWAP1 POP JUMPDEST POP PUSH1 0x15 SWAP1 DUP1 MLOAD SWAP1 PUSH1 0x20 ADD SWAP1 PUSH3 0x370 SWAP3 SWAP2 SWAP1 PUSH3 0x6B0 JUMP JUMPDEST POP POP PUSH3 0xAEA JUMP JUMPDEST PUSH1 0x0 CALLER SWAP1 POP SWAP1 JUMP JUMPDEST PUSH1 0x0 DUP1 PUSH1 0x0 SWAP1 SLOAD SWAP1 PUSH2 0x100 EXP SWAP1 DIV PUSH20 0xFFFFFFFFFFFFFFFFFFFFFFFFFFFFFFFFFFFFFFFF AND SWAP1 POP DUP2 PUSH1 0x0 DUP1 PUSH2 0x100 EXP DUP2 SLOAD DUP2 PUSH20 0xFFFFFFFFFFFFFFFFFFFFFFFFFFFFFFFFFFFFFFFF MUL NOT AND SWAP1 DUP4 PUSH20 0xFFFFFFFFFFFFFFFFFFFFFFFFFFFFFFFFFFFFFFFF AND MUL OR SWAP1 SSTORE POP DUP2 PUSH20 0xFFFFFFFFFFFFFFFFFFFFFFFFFFFFFFFFFFFFFFFF AND DUP2 PUSH20 0xFFFFFFFFFFFFFFFFFFFFFFFFFFFFFFFFFFFFFFFF AND PUSH32 0x8BE0079C531659141344CD1FD0A4F28419497F9722A3DAAFE3B4186F6B6457E0 PUSH1 0x40 MLOAD PUSH1 0x40 MLOAD DUP1 SWAP2 SUB SWAP1 LOG3 POP POP JUMP JUMPDEST PUSH3 0x456 DUP3 DUP3 PUSH3 0x45A PUSH1 0x20 SHL PUSH1 0x20 SHR JUMP JUMPDEST POP POP JUMP JUMPDEST PUSH3 0x46C DUP3 DUP3 PUSH3 0x54C PUSH1 0x20 SHL PUSH1 0x20 SHR JUMP JUMPDEST PUSH3 0x548 JUMPI PUSH1 0x1 PUSH1 0x6 PUSH1 0x0 DUP5 DUP2 MSTORE PUSH1 0x20 ADD SWAP1 DUP2 MSTORE PUSH1 0x20 ADD PUSH1 0x0 KECCAK256 PUSH1 0x0 ADD PUSH1 0x0 DUP4 PUSH20 0xFFFFFFFFFFFFFFFFFFFFFFFFFFFFFFFFFFFFFFFF AND PUSH20 0xFFFFFFFFFFFFFFFFFFFFFFFFFFFFFFFFFFFFFFFF AND DUP2 MSTORE PUSH1 0x20 ADD SWAP1 DUP2 MSTORE PUSH1 0x20 ADD PUSH1 0x0 KECCAK256 PUSH1 0x0 PUSH2 0x100 EXP DUP2 SLOAD DUP2 PUSH1 0xFF MUL NOT AND SWAP1 DUP4 ISZERO ISZERO MUL OR SWAP1 SSTORE POP PUSH3 0x4ED PUSH3 0x378 PUSH1 0x20 SHL PUSH1 0x20 SHR JUMP JUMPDEST PUSH20 0xFFFFFFFFFFFFFFFFFFFFFFFFFFFFFFFFFFFFFFFF AND DUP2 PUSH20 0xFFFFFFFFFFFFFFFFFFFFFFFFFFFFFFFFFFFFFFFF AND DUP4 PUSH32 0x2F8788117E7EFF1D82E926EC794901D17C78024A50270940304540A733656F0D PUSH1 0x40 MLOAD PUSH1 0x40 MLOAD DUP1 SWAP2 SUB SWAP1 LOG4 JUMPDEST POP POP JUMP JUMPDEST PUSH1 0x0 PUSH1 0x6 PUSH1 0x0 DUP5 DUP2 MSTORE PUSH1 0x20 ADD SWAP1 DUP2 MSTORE PUSH1 0x20 ADD PUSH1 0x0 KECCAK256 PUSH1 0x0 ADD PUSH1 0x0 DUP4 PUSH20 0xFFFFFFFFFFFFFFFFFFFFFFFFFFFFFFFFFFFFFFFF AND PUSH20 0xFFFFFFFFFFFFFFFFFFFFFFFFFFFFFFFFFFFFFFFF AND DUP2 MSTORE PUSH1 0x20 ADD SWAP1 DUP2 MSTORE PUSH1 0x20 ADD PUSH1 0x0 KECCAK256 PUSH1 0x0 SWAP1 SLOAD SWAP1 PUSH2 0x100 EXP SWAP1 DIV PUSH1 0xFF AND SWAP1 POP SWAP3 SWAP2 POP POP JUMP JUMPDEST DUP3 PUSH1 0x9 PUSH1 0x1F ADD PUSH1 0x20 SWAP1 DIV DUP2 ADD SWAP3 DUP3 ISZERO PUSH3 0x645 JUMPI SWAP2 PUSH1 0x20 MUL DUP3 ADD PUSH1 0x0 JUMPDEST DUP4 DUP3 GT ISZERO PUSH3 0x614 JUMPI DUP4 MLOAD DUP4 DUP3 PUSH2 0x100 EXP DUP2 SLOAD DUP2 PUSH1 0xFF MUL NOT AND SWAP1 DUP4 PUSH1 0xFF AND MUL OR SWAP1 SSTORE POP SWAP3 PUSH1 0x20 ADD SWAP3 PUSH1 0x1 ADD PUSH1 0x20 DUP2 PUSH1 0x0 ADD DIV SWAP3 DUP4 ADD SWAP3 PUSH1 0x1 SUB MUL PUSH3 0x5D4 JUMP JUMPDEST DUP1 ISZERO PUSH3 0x643 JUMPI DUP3 DUP2 PUSH2 0x100 EXP DUP2 SLOAD SWAP1 PUSH1 0xFF MUL NOT AND SWAP1 SSTORE PUSH1 0x1 ADD PUSH1 0x20 DUP2 PUSH1 0x0 ADD DIV SWAP3 DUP4 ADD SWAP3 PUSH1 0x1 SUB MUL PUSH3 0x614 JUMP JUMPDEST POP JUMPDEST POP SWAP1 POP PUSH3 0x654 SWAP2 SWAP1 PUSH3 0x702 JUMP JUMPDEST POP SWAP1 JUMP JUMPDEST DUP3 DUP1 SLOAD DUP3 DUP3 SSTORE SWAP1 PUSH1 0x0 MSTORE PUSH1 0x20 PUSH1 0x0 KECCAK256 SWAP1 DUP2 ADD SWAP3 DUP3 ISZERO PUSH3 0x69D JUMPI SWAP2 PUSH1 0x20 MUL DUP3 ADD JUMPDEST DUP3 DUP2 GT ISZERO PUSH3 0x69C JUMPI DUP3 MLOAD DUP3 SWAP1 PUSH2 0xFFFF AND SWAP1 SSTORE SWAP2 PUSH1 0x20 ADD SWAP2 SWAP1 PUSH1 0x1 ADD SWAP1 PUSH3 0x679 JUMP JUMPDEST JUMPDEST POP SWAP1 POP PUSH3 0x6AC SWAP2 SWAP1 PUSH3 0x702 JUMP JUMPDEST POP SWAP1 JUMP JUMPDEST DUP3 DUP1 SLOAD DUP3 DUP3 SSTORE SWAP1 PUSH1 0x0 MSTORE PUSH1 0x20 PUSH1 0x0 KECCAK256 SWAP1 DUP2 ADD SWAP3 DUP3 ISZERO PUSH3 0x6EF JUMPI SWAP2 PUSH1 0x20 MUL DUP3 ADD JUMPDEST DUP3 DUP2 GT ISZERO PUSH3 0x6EE JUMPI DUP3 MLOAD DUP3 SSTORE SWAP2 PUSH1 0x20 ADD SWAP2 SWAP1 PUSH1 0x1 ADD SWAP1 PUSH3 0x6D1 JUMP JUMPDEST JUMPDEST POP SWAP1 POP PUSH3 0x6FE SWAP2 SWAP1 PUSH3 0x702 JUMP JUMPDEST POP SWAP1 JUMP JUMPDEST JUMPDEST DUP1 DUP3 GT ISZERO PUSH3 0x71D JUMPI PUSH1 0x0 DUP2 PUSH1 0x0 SWAP1 SSTORE POP PUSH1 0x1 ADD PUSH3 0x703 JUMP JUMPDEST POP SWAP1 JUMP JUMPDEST PUSH1 0x0 DUP2 MLOAD SWAP1 POP SWAP2 SWAP1 POP JUMP JUMPDEST PUSH32 0x4E487B7100000000000000000000000000000000000000000000000000000000 PUSH1 0x0 MSTORE PUSH1 0x41 PUSH1 0x4 MSTORE PUSH1 0x24 PUSH1 0x0 REVERT JUMPDEST PUSH32 0x4E487B7100000000000000000000000000000000000000000000000000000000 PUSH1 0x0 MSTORE PUSH1 0x22 PUSH1 0x4 MSTORE PUSH1 0x24 PUSH1 0x0 REVERT JUMPDEST PUSH1 0x0 PUSH1 0x2 DUP3 DIV SWAP1 POP PUSH1 0x1 DUP3 AND DUP1 PUSH3 0x7A3 JUMPI PUSH1 0x7F DUP3 AND SWAP2 POP JUMPDEST PUSH1 0x20 DUP3 LT DUP2 SUB PUSH3 0x7B9 JUMPI PUSH3 0x7B8 PUSH3 0x75B JUMP JUMPDEST JUMPDEST POP SWAP2 SWAP1 POP JUMP JUMPDEST PUSH1 0x0 DUP2 SWAP1 POP DUP2 PUSH1 0x0 MSTORE PUSH1 0x20 PUSH1 0x0 KECCAK256 SWAP1 POP SWAP2 SWAP1 POP JUMP JUMPDEST PUSH1 0x0 PUSH1 0x20 PUSH1 0x1F DUP4 ADD DIV SWAP1 POP SWAP2 SWAP1 POP JUMP JUMPDEST PUSH1 0x0 DUP3 DUP3 SHL SWAP1 POP SWAP3 SWAP2 POP POP JUMP JUMPDEST PUSH1 0x0 PUSH1 0x8 DUP4 MUL PUSH3 0x823 PUSH32 0xFFFFFFFFFFFFFFFFFFFFFFFFFFFFFFFFFFFFFFFFFFFFFFFFFFFFFFFFFFFFFFFF DUP3 PUSH3 0x7E4 JUMP JUMPDEST PUSH3 0x82F DUP7 DUP4 PUSH3 0x7E4 JUMP JUMPDEST SWAP6 POP DUP1 NOT DUP5 AND SWAP4 POP DUP1 DUP7 AND DUP5 OR SWAP3 POP POP POP SWAP4 SWAP3 POP POP POP JUMP JUMPDEST PUSH1 0x0 DUP2 SWAP1 POP SWAP2 SWAP1 POP JUMP JUMPDEST PUSH1 0x0 DUP2 SWAP1 POP SWAP2 SWAP1 POP JUMP JUMPDEST PUSH1 0x0 PUSH3 0x87C PUSH3 0x876 PUSH3 0x870 DUP5 PUSH3 0x847 JUMP JUMPDEST PUSH3 0x851 JUMP JUMPDEST PUSH3 0x847 JUMP JUMPDEST SWAP1 POP SWAP2 SWAP1 POP JUMP JUMPDEST PUSH1 0x0 DUP2 SWAP1 POP SWAP2 SWAP1 POP JUMP JUMPDEST PUSH3 0x898 DUP4 PUSH3 0x85B JUMP JUMPDEST PUSH3 0x8B0 PUSH3 0x8A7 DUP3 PUSH3 0x883 JUMP JUMPDEST DUP5 DUP5 SLOAD PUSH3 0x7F1 JUMP JUMPDEST DUP3 SSTORE POP POP POP POP JUMP JUMPDEST PUSH1 0x0 SWAP1 JUMP JUMPDEST PUSH3 0x8C7 PUSH3 0x8B8 JUMP JUMPDEST PUSH3 0x8D4 DUP2 DUP5 DUP5 PUSH3 0x88D JUMP JUMPDEST POP POP POP JUMP JUMPDEST JUMPDEST DUP2 DUP2 LT ISZERO PUSH3 0x8FC JUMPI PUSH3 0x8F0 PUSH1 0x0 DUP3 PUSH3 0x8BD JUMP JUMPDEST PUSH1 0x1 DUP2 ADD SWAP1 POP PUSH3 0x8DA JUMP JUMPDEST POP POP JUMP JUMPDEST PUSH1 0x1F DUP3 GT ISZERO PUSH3 0x94B JUMPI PUSH3 0x915 DUP2 PUSH3 0x7BF JUMP JUMPDEST PUSH3 0x920 DUP5 PUSH3 0x7D4 JUMP JUMPDEST DUP2 ADD PUSH1 0x20 DUP6 LT ISZERO PUSH3 0x930 JUMPI DUP2 SWAP1 POP JUMPDEST PUSH3 0x948 PUSH3 0x93F DUP6 PUSH3 0x7D4 JUMP JUMPDEST DUP4 ADD DUP3 PUSH3 0x8D9 JUMP JUMPDEST POP POP JUMPDEST POP POP POP JUMP JUMPDEST PUSH1 0x0 DUP3 DUP3 SHR SWAP1 POP SWAP3 SWAP2 POP POP JUMP JUMPDEST PUSH1 0x0 PUSH3 0x970 PUSH1 0x0 NOT DUP5 PUSH1 0x8 MUL PUSH3 0x950 JUMP JUMPDEST NOT DUP1 DUP4 AND SWAP2 POP POP SWAP3 SWAP2 POP POP JUMP JUMPDEST PUSH1 0x0 PUSH3 0x98B DUP4 DUP4 PUSH3 0x95D JUMP JUMPDEST SWAP2 POP DUP3 PUSH1 0x2 MUL DUP3 OR SWAP1 POP SWAP3 SWAP2 POP POP JUMP JUMPDEST PUSH3 0x9A6 DUP3 PUSH3 0x721 JUMP JUMPDEST PUSH8 0xFFFFFFFFFFFFFFFF DUP2 GT ISZERO PUSH3 0x9C2 JUMPI PUSH3 0x9C1 PUSH3 0x72C JUMP JUMPDEST JUMPDEST PUSH3 0x9CE DUP3 SLOAD PUSH3 0x78A JUMP JUMPDEST PUSH3 0x9DB DUP3 DUP3 DUP6 PUSH3 0x900 JUMP JUMPDEST PUSH1 0x0 PUSH1 0x20 SWAP1 POP PUSH1 0x1F DUP4 GT PUSH1 0x1 DUP2 EQ PUSH3 0xA13 JUMPI PUSH1 0x0 DUP5 ISZERO PUSH3 0x9FE JUMPI DUP3 DUP8 ADD MLOAD SWAP1 POP JUMPDEST PUSH3 0xA0A DUP6 DUP3 PUSH3 0x97D JUMP JUMPDEST DUP7 SSTORE POP PUSH3 0xA7A JUMP JUMPDEST PUSH1 0x1F NOT DUP5 AND PUSH3 0xA23 DUP7 PUSH3 0x7BF JUMP JUMPDEST PUSH1 0x0 JUMPDEST DUP3 DUP2 LT ISZERO PUSH3 0xA4D JUMPI DUP5 DUP10 ADD MLOAD DUP3 SSTORE PUSH1 0x1 DUP3 ADD SWAP2 POP PUSH1 0x20 DUP6 ADD SWAP5 POP PUSH1 0x20 DUP2 ADD SWAP1 POP PUSH3 0xA26 JUMP JUMPDEST DUP7 DUP4 LT ISZERO PUSH3 0xA6D JUMPI DUP5 DUP10 ADD MLOAD PUSH3 0xA69 PUSH1 0x1F DUP10 AND DUP3 PUSH3 0x95D JUMP JUMPDEST DUP4 SSTORE POP JUMPDEST PUSH1 0x1 PUSH1 0x2 DUP9 MUL ADD DUP9 SSTORE POP POP POP JUMPDEST POP POP POP POP POP POP JUMP JUMPDEST PUSH1 0x0 DUP1 REVERT JUMPDEST PUSH3 0xA92 DUP2 PUSH3 0x847 JUMP JUMPDEST DUP2 EQ PUSH3 0xA9E JUMPI PUSH1 0x0 DUP1 REVERT JUMPDEST POP JUMP JUMPDEST PUSH1 0x0 DUP2 MLOAD SWAP1 POP PUSH3 0xAB2 DUP2 PUSH3 0xA87 JUMP JUMPDEST SWAP3 SWAP2 POP POP JUMP JUMPDEST PUSH1 0x0 PUSH1 0x20 DUP3 DUP5 SUB SLT ISZERO PUSH3 0xAD1 JUMPI PUSH3 0xAD0 PUSH3 0xA82 JUMP JUMPDEST JUMPDEST PUSH1 0x0 PUSH3 0xAE1 DUP5 DUP3 DUP6 ADD PUSH3 0xAA1 JUMP JUMPDEST SWAP2 POP POP SWAP3 SWAP2 POP POP JUMP JUMPDEST PUSH2 0x5AE7 DUP1 PUSH3 0xAFA PUSH1 0x0 CODECOPY PUSH1 0x0 RETURN INVALID PUSH1 0x80 PUSH1 0x40 MSTORE PUSH1 0x4 CALLDATASIZE LT PUSH2 0x23B JUMPI PUSH1 0x0 CALLDATALOAD PUSH1 0xE0 SHR DUP1 PUSH4 0x75B238FC GT PUSH2 0x12E JUMPI DUP1 PUSH4 0xBE6F0EF1 GT PUSH2 0xAB JUMPI DUP1 PUSH4 0xE7FB74C7 GT PUSH2 0x6F JUMPI DUP1 PUSH4 0xE7FB74C7 EQ PUSH2 0x8FB JUMPI DUP1 PUSH4 0xF2FDE38B EQ PUSH2 0x917 JUMPI DUP1 PUSH4 0xF42A7B70 EQ PUSH2 0x940 JUMPI DUP1 PUSH4 0xF4A0A528 EQ PUSH2 0x97D JUMPI DUP1 PUSH4 0xFC0B5B1D EQ PUSH2 0x9A6 JUMPI PUSH2 0x23B JUMP JUMPDEST DUP1 PUSH4 0xBE6F0EF1 EQ PUSH2 0x7DD JUMPI DUP1 PUSH4 0xC87B56DD EQ PUSH2 0x81A JUMPI DUP1 PUSH4 0xD547741F EQ PUSH2 0x857 JUMPI DUP1 PUSH4 0xD70E761B EQ PUSH2 0x880 JUMPI DUP1 PUSH4 0xDE74E57B EQ PUSH2 0x8BD JUMPI PUSH2 0x23B JUMP JUMPDEST DUP1 PUSH4 0x91D14854 GT PUSH2 0xF2 JUMPI DUP1 PUSH4 0x91D14854 EQ PUSH2 0x703 JUMPI DUP1 PUSH4 0x95D89B41 EQ PUSH2 0x740 JUMPI DUP1 PUSH4 0x95E66287 EQ PUSH2 0x76B JUMPI DUP1 PUSH4 0xA212A5CC EQ PUSH2 0x794 JUMPI DUP1 PUSH4 0xA217FDDF EQ PUSH2 0x7B2 JUMPI PUSH2 0x23B JUMP JUMPDEST DUP1 PUSH4 0x75B238FC EQ PUSH2 0x61E JUMPI DUP1 PUSH4 0x87962DCC EQ PUSH2 0x649 JUMPI DUP1 PUSH4 0x883EFA67 EQ PUSH2 0x686 JUMPI DUP1 PUSH4 0x8AC103F7 EQ PUSH2 0x6AF JUMPI DUP1 PUSH4 0x8DA5CB5B EQ PUSH2 0x6D8 JUMPI PUSH2 0x23B JUMP JUMPDEST DUP1 PUSH4 0x30176E13 GT PUSH2 0x1BC JUMPI DUP1 PUSH4 0x606733ED GT PUSH2 0x180 JUMPI DUP1 PUSH4 0x606733ED EQ PUSH2 0x525 JUMPI DUP1 PUSH4 0x6352211E EQ PUSH2 0x562 JUMPI DUP1 PUSH4 0x6817C76C EQ PUSH2 0x59F JUMPI DUP1 PUSH4 0x70A08231 EQ PUSH2 0x5CA JUMPI DUP1 PUSH4 0x715018A6 EQ PUSH2 0x607 JUMPI PUSH2 0x23B JUMP JUMPDEST DUP1 PUSH4 0x30176E13 EQ PUSH2 0x456 JUMPI DUP1 PUSH4 0x305A67A8 EQ PUSH2 0x47F JUMPI DUP1 PUSH4 0x36568ABE EQ PUSH2 0x4A8 JUMPI DUP1 PUSH4 0x3CCFD60B EQ PUSH2 0x4D1 JUMPI DUP1 PUSH4 0x4F6CCCE7 EQ PUSH2 0x4E8 JUMPI PUSH2 0x23B JUMP JUMPDEST DUP1 PUSH4 0x23B872DD GT PUSH2 0x203 JUMPI DUP1 PUSH4 0x23B872DD EQ PUSH2 0x34D JUMPI DUP1 PUSH4 0x2489FD5E EQ PUSH2 0x376 JUMPI DUP1 PUSH4 0x248A9CA3 EQ PUSH2 0x3B3 JUMPI DUP1 PUSH4 0x2F2FF15D EQ PUSH2 0x3F0 JUMPI DUP1 PUSH4 0x2F745C59 EQ PUSH2 0x419 JUMPI PUSH2 0x23B JUMP JUMPDEST DUP1 PUSH4 0x1FFC9A7 EQ PUSH2 0x240 JUMPI DUP1 PUSH4 0x6FDDE03 EQ PUSH2 0x27D JUMPI DUP1 PUSH4 0x150B7A02 EQ PUSH2 0x2A8 JUMPI DUP1 PUSH4 0x18148F1B EQ PUSH2 0x2E5 JUMPI DUP1 PUSH4 0x18160DDD EQ PUSH2 0x322 JUMPI JUMPDEST PUSH1 0x0 DUP1 REVERT JUMPDEST CALLVALUE DUP1 ISZERO PUSH2 0x24C JUMPI PUSH1 0x0 DUP1 REVERT JUMPDEST POP PUSH2 0x267 PUSH1 0x4 DUP1 CALLDATASIZE SUB DUP2 ADD SWAP1 PUSH2 0x262 SWAP2 SWAP1 PUSH2 0x3E1F JUMP JUMPDEST PUSH2 0x9CF JUMP JUMPDEST PUSH1 0x40 MLOAD PUSH2 0x274 SWAP2 SWAP1 PUSH2 0x3E67 JUMP JUMPDEST PUSH1 0x40 MLOAD DUP1 SWAP2 SUB SWAP1 RETURN JUMPDEST CALLVALUE DUP1 ISZERO PUSH2 0x289 JUMPI PUSH1 0x0 DUP1 REVERT JUMPDEST POP PUSH2 0x292 PUSH2 0xAB1 JUMP JUMPDEST PUSH1 0x40 MLOAD PUSH2 0x29F SWAP2 SWAP1 PUSH2 0x3F12 JUMP JUMPDEST PUSH1 0x40 MLOAD DUP1 SWAP2 SUB SWAP1 RETURN JUMPDEST CALLVALUE DUP1 ISZERO PUSH2 0x2B4 JUMPI PUSH1 0x0 DUP1 REVERT JUMPDEST POP PUSH2 0x2CF PUSH1 0x4 DUP1 CALLDATASIZE SUB DUP2 ADD SWAP1 PUSH2 0x2CA SWAP2 SWAP1 PUSH2 0x40FD JUMP JUMPDEST PUSH2 0xB43 JUMP JUMPDEST PUSH1 0x40 MLOAD PUSH2 0x2DC SWAP2 SWAP1 PUSH2 0x418F JUMP JUMPDEST PUSH1 0x40 MLOAD DUP1 SWAP2 SUB SWAP1 RETURN JUMPDEST CALLVALUE DUP1 ISZERO PUSH2 0x2F1 JUMPI PUSH1 0x0 DUP1 REVERT JUMPDEST POP PUSH2 0x30C PUSH1 0x4 DUP1 CALLDATASIZE SUB DUP2 ADD SWAP1 PUSH2 0x307 SWAP2 SWAP1 PUSH2 0x41AA JUMP JUMPDEST PUSH2 0xB57 JUMP JUMPDEST PUSH1 0x40 MLOAD PUSH2 0x319 SWAP2 SWAP1 PUSH2 0x432F JUMP JUMPDEST PUSH1 0x40 MLOAD DUP1 SWAP2 SUB SWAP1 RETURN JUMPDEST CALLVALUE DUP1 ISZERO PUSH2 0x32E JUMPI PUSH1 0x0 DUP1 REVERT JUMPDEST POP PUSH2 0x337 PUSH2 0xD8C JUMP JUMPDEST PUSH1 0x40 MLOAD PUSH2 0x344 SWAP2 SWAP1 PUSH2 0x4360 JUMP JUMPDEST PUSH1 0x40 MLOAD DUP1 SWAP2 SUB SWAP1 RETURN JUMPDEST CALLVALUE DUP1 ISZERO PUSH2 0x359 JUMPI PUSH1 0x0 DUP1 REVERT JUMPDEST POP PUSH2 0x374 PUSH1 0x4 DUP1 CALLDATASIZE SUB DUP2 ADD SWAP1 PUSH2 0x36F SWAP2 SWAP1 PUSH2 0x437B JUMP JUMPDEST PUSH2 0xD99 JUMP JUMPDEST STOP JUMPDEST CALLVALUE DUP1 ISZERO PUSH2 0x382 JUMPI PUSH1 0x0 DUP1 REVERT JUMPDEST POP PUSH2 0x39D PUSH1 0x4 DUP1 CALLDATASIZE SUB DUP2 ADD SWAP1 PUSH2 0x398 SWAP2 SWAP1 PUSH2 0x43CE JUMP JUMPDEST PUSH2 0xE12 JUMP JUMPDEST PUSH1 0x40 MLOAD PUSH2 0x3AA SWAP2 SWAP1 PUSH2 0x4360 JUMP JUMPDEST PUSH1 0x40 MLOAD DUP1 SWAP2 SUB SWAP1 RETURN JUMPDEST CALLVALUE DUP1 ISZERO PUSH2 0x3BF JUMPI PUSH1 0x0 DUP1 REVERT JUMPDEST POP PUSH2 0x3DA PUSH1 0x4 DUP1 CALLDATASIZE SUB DUP2 ADD SWAP1 PUSH2 0x3D5 SWAP2 SWAP1 PUSH2 0x4431 JUMP JUMPDEST PUSH2 0xE36 JUMP JUMPDEST PUSH1 0x40 MLOAD PUSH2 0x3E7 SWAP2 SWAP1 PUSH2 0x446D JUMP JUMPDEST PUSH1 0x40 MLOAD DUP1 SWAP2 SUB SWAP1 RETURN JUMPDEST CALLVALUE DUP1 ISZERO PUSH2 0x3FC JUMPI PUSH1 0x0 DUP1 REVERT JUMPDEST POP PUSH2 0x417 PUSH1 0x4 DUP1 CALLDATASIZE SUB DUP2 ADD SWAP1 PUSH2 0x412 SWAP2 SWAP1 PUSH2 0x4488 JUMP JUMPDEST PUSH2 0xE56 JUMP JUMPDEST STOP JUMPDEST CALLVALUE DUP1 ISZERO PUSH2 0x425 JUMPI PUSH1 0x0 DUP1 REVERT JUMPDEST POP PUSH2 0x440 PUSH1 0x4 DUP1 CALLDATASIZE SUB DUP2 ADD SWAP1 PUSH2 0x43B SWAP2 SWAP1 PUSH2 0x44C8 JUMP JUMPDEST PUSH2 0xE77 JUMP JUMPDEST PUSH1 0x40 MLOAD PUSH2 0x44D SWAP2 SWAP1 PUSH2 0x4360 JUMP JUMPDEST PUSH1 0x40 MLOAD DUP1 SWAP2 SUB SWAP1 RETURN JUMPDEST CALLVALUE DUP1 ISZERO PUSH2 0x462 JUMPI PUSH1 0x0 DUP1 REVERT JUMPDEST POP PUSH2 0x47D PUSH1 0x4 DUP1 CALLDATASIZE SUB DUP2 ADD SWAP1 PUSH2 0x478 SWAP2 SWAP1 PUSH2 0x45A9 JUMP JUMPDEST PUSH2 0xF1C JUMP JUMPDEST STOP JUMPDEST CALLVALUE DUP1 ISZERO PUSH2 0x48B JUMPI PUSH1 0x0 DUP1 REVERT JUMPDEST POP PUSH2 0x4A6 PUSH1 0x4 DUP1 CALLDATASIZE SUB DUP2 ADD SWAP1 PUSH2 0x4A1 SWAP2 SWAP1 PUSH2 0x43CE JUMP JUMPDEST PUSH2 0xF98 JUMP JUMPDEST STOP JUMPDEST CALLVALUE DUP1 ISZERO PUSH2 0x4B4 JUMPI PUSH1 0x0 DUP1 REVERT JUMPDEST POP PUSH2 0x4CF PUSH1 0x4 DUP1 CALLDATASIZE SUB DUP2 ADD SWAP1 PUSH2 0x4CA SWAP2 SWAP1 PUSH2 0x4488 JUMP JUMPDEST PUSH2 0x10E0 JUMP JUMPDEST STOP JUMPDEST CALLVALUE DUP1 ISZERO PUSH2 0x4DD JUMPI PUSH1 0x0 DUP1 REVERT JUMPDEST POP PUSH2 0x4E6 PUSH2 0x1163 JUMP JUMPDEST STOP JUMPDEST CALLVALUE DUP1 ISZERO PUSH2 0x4F4 JUMPI PUSH1 0x0 DUP1 REVERT JUMPDEST POP PUSH2 0x50F PUSH1 0x4 DUP1 CALLDATASIZE SUB DUP2 ADD SWAP1 PUSH2 0x50A SWAP2 SWAP1 PUSH2 0x43CE JUMP JUMPDEST PUSH2 0x11C1 JUMP JUMPDEST PUSH1 0x40 MLOAD PUSH2 0x51C SWAP2 SWAP1 PUSH2 0x4360 JUMP JUMPDEST PUSH1 0x40 MLOAD DUP1 SWAP2 SUB SWAP1 RETURN JUMPDEST CALLVALUE DUP1 ISZERO PUSH2 0x531 JUMPI PUSH1 0x0 DUP1 REVERT JUMPDEST POP PUSH2 0x54C PUSH1 0x4 DUP1 CALLDATASIZE SUB DUP2 ADD SWAP1 PUSH2 0x547 SWAP2 SWAP1 PUSH2 0x43CE JUMP JUMPDEST PUSH2 0x11FC JUMP JUMPDEST PUSH1 0x40 MLOAD PUSH2 0x559 SWAP2 SWAP1 PUSH2 0x460E JUMP JUMPDEST PUSH1 0x40 MLOAD DUP1 SWAP2 SUB SWAP1 RETURN JUMPDEST CALLVALUE DUP1 ISZERO PUSH2 0x56E JUMPI PUSH1 0x0 DUP1 REVERT JUMPDEST POP PUSH2 0x589 PUSH1 0x4 DUP1 CALLDATASIZE SUB DUP2 ADD SWAP1 PUSH2 0x584 SWAP2 SWAP1 PUSH2 0x43CE JUMP JUMPDEST PUSH2 0x1226 JUMP JUMPDEST PUSH1 0x40 MLOAD PUSH2 0x596 SWAP2 SWAP1 PUSH2 0x4638 JUMP JUMPDEST PUSH1 0x40 MLOAD DUP1 SWAP2 SUB SWAP1 RETURN JUMPDEST CALLVALUE DUP1 ISZERO PUSH2 0x5AB JUMPI PUSH1 0x0 DUP1 REVERT JUMPDEST POP PUSH2 0x5B4 PUSH2 0x12AC JUMP JUMPDEST PUSH1 0x40 MLOAD PUSH2 0x5C1 SWAP2 SWAP1 PUSH2 0x4360 JUMP JUMPDEST PUSH1 0x40 MLOAD DUP1 SWAP2 SUB SWAP1 RETURN JUMPDEST CALLVALUE DUP1 ISZERO PUSH2 0x5D6 JUMPI PUSH1 0x0 DUP1 REVERT JUMPDEST POP PUSH2 0x5F1 PUSH1 0x4 DUP1 CALLDATASIZE SUB DUP2 ADD SWAP1 PUSH2 0x5EC SWAP2 SWAP1 PUSH2 0x41AA JUMP JUMPDEST PUSH2 0x12B2 JUMP JUMPDEST PUSH1 0x40 MLOAD PUSH2 0x5FE SWAP2 SWAP1 PUSH2 0x4360 JUMP JUMPDEST PUSH1 0x40 MLOAD DUP1 SWAP2 SUB SWAP1 RETURN JUMPDEST CALLVALUE DUP1 ISZERO PUSH2 0x613 JUMPI PUSH1 0x0 DUP1 REVERT JUMPDEST POP PUSH2 0x61C PUSH2 0x1369 JUMP JUMPDEST STOP JUMPDEST CALLVALUE DUP1 ISZERO PUSH2 0x62A JUMPI PUSH1 0x0 DUP1 REVERT JUMPDEST POP PUSH2 0x633 PUSH2 0x137D JUMP JUMPDEST PUSH1 0x40 MLOAD PUSH2 0x640 SWAP2 SWAP1 PUSH2 0x446D JUMP JUMPDEST PUSH1 0x40 MLOAD DUP1 SWAP2 SUB SWAP1 RETURN JUMPDEST CALLVALUE DUP1 ISZERO PUSH2 0x655 JUMPI PUSH1 0x0 DUP1 REVERT JUMPDEST POP PUSH2 0x670 PUSH1 0x4 DUP1 CALLDATASIZE SUB DUP2 ADD SWAP1 PUSH2 0x66B SWAP2 SWAP1 PUSH2 0x43CE JUMP JUMPDEST PUSH2 0x13A1 JUMP JUMPDEST PUSH1 0x40 MLOAD PUSH2 0x67D SWAP2 SWAP1 PUSH2 0x4360 JUMP JUMPDEST PUSH1 0x40 MLOAD DUP1 SWAP2 SUB SWAP1 RETURN JUMPDEST CALLVALUE DUP1 ISZERO PUSH2 0x692 JUMPI PUSH1 0x0 DUP1 REVERT JUMPDEST POP PUSH2 0x6AD PUSH1 0x4 DUP1 CALLDATASIZE SUB DUP2 ADD SWAP1 PUSH2 0x6A8 SWAP2 SWAP1 PUSH2 0x4653 JUMP JUMPDEST PUSH2 0x13C5 JUMP JUMPDEST STOP JUMPDEST CALLVALUE DUP1 ISZERO PUSH2 0x6BB JUMPI PUSH1 0x0 DUP1 REVERT JUMPDEST POP PUSH2 0x6D6 PUSH1 0x4 DUP1 CALLDATASIZE SUB DUP2 ADD SWAP1 PUSH2 0x6D1 SWAP2 SWAP1 PUSH2 0x4775 JUMP JUMPDEST PUSH2 0x1502 JUMP JUMPDEST STOP JUMPDEST CALLVALUE DUP1 ISZERO PUSH2 0x6E4 JUMPI PUSH1 0x0 DUP1 REVERT JUMPDEST POP PUSH2 0x6ED PUSH2 0x15CE JUMP JUMPDEST PUSH1 0x40 MLOAD PUSH2 0x6FA SWAP2 SWAP1 PUSH2 0x4638 JUMP JUMPDEST PUSH1 0x40 MLOAD DUP1 SWAP2 SUB SWAP1 RETURN JUMPDEST CALLVALUE DUP1 ISZERO PUSH2 0x70F JUMPI PUSH1 0x0 DUP1 REVERT JUMPDEST POP PUSH2 0x72A PUSH1 0x4 DUP1 CALLDATASIZE SUB DUP2 ADD SWAP1 PUSH2 0x725 SWAP2 SWAP1 PUSH2 0x4488 JUMP JUMPDEST PUSH2 0x15F7 JUMP JUMPDEST PUSH1 0x40 MLOAD PUSH2 0x737 SWAP2 SWAP1 PUSH2 0x3E67 JUMP JUMPDEST PUSH1 0x40 MLOAD DUP1 SWAP2 SUB SWAP1 RETURN JUMPDEST CALLVALUE DUP1 ISZERO PUSH2 0x74C JUMPI PUSH1 0x0 DUP1 REVERT JUMPDEST POP PUSH2 0x755 PUSH2 0x1662 JUMP JUMPDEST PUSH1 0x40 MLOAD PUSH2 0x762 SWAP2 SWAP1 PUSH2 0x3F12 JUMP JUMPDEST PUSH1 0x40 MLOAD DUP1 SWAP2 SUB SWAP1 RETURN JUMPDEST CALLVALUE DUP1 ISZERO PUSH2 0x777 JUMPI PUSH1 0x0 DUP1 REVERT JUMPDEST POP PUSH2 0x792 PUSH1 0x4 DUP1 CALLDATASIZE SUB DUP2 ADD SWAP1 PUSH2 0x78D SWAP2 SWAP1 PUSH2 0x4879 JUMP JUMPDEST PUSH2 0x16F4 JUMP JUMPDEST STOP JUMPDEST PUSH2 0x79C PUSH2 0x1852 JUMP JUMPDEST PUSH1 0x40 MLOAD PUSH2 0x7A9 SWAP2 SWAP1 PUSH2 0x4360 JUMP JUMPDEST PUSH1 0x40 MLOAD DUP1 SWAP2 SUB SWAP1 RETURN JUMPDEST CALLVALUE DUP1 ISZERO PUSH2 0x7BE JUMPI PUSH1 0x0 DUP1 REVERT JUMPDEST POP PUSH2 0x7C7 PUSH2 0x1E88 JUMP JUMPDEST PUSH1 0x40 MLOAD PUSH2 0x7D4 SWAP2 SWAP1 PUSH2 0x446D JUMP JUMPDEST PUSH1 0x40 MLOAD DUP1 SWAP2 SUB SWAP1 RETURN JUMPDEST CALLVALUE DUP1 ISZERO PUSH2 0x7E9 JUMPI PUSH1 0x0 DUP1 REVERT JUMPDEST POP PUSH2 0x804 PUSH1 0x4 DUP1 CALLDATASIZE SUB DUP2 ADD SWAP1 PUSH2 0x7FF SWAP2 SWAP1 PUSH2 0x43CE JUMP JUMPDEST PUSH2 0x1E8F JUMP JUMPDEST PUSH1 0x40 MLOAD PUSH2 0x811 SWAP2 SWAP1 PUSH2 0x460E JUMP JUMPDEST PUSH1 0x40 MLOAD DUP1 SWAP2 SUB SWAP1 RETURN JUMPDEST CALLVALUE DUP1 ISZERO PUSH2 0x826 JUMPI PUSH1 0x0 DUP1 REVERT JUMPDEST POP PUSH2 0x841 PUSH1 0x4 DUP1 CALLDATASIZE SUB DUP2 ADD SWAP1 PUSH2 0x83C SWAP2 SWAP1 PUSH2 0x43CE JUMP JUMPDEST PUSH2 0x1EB9 JUMP JUMPDEST PUSH1 0x40 MLOAD PUSH2 0x84E SWAP2 SWAP1 PUSH2 0x3F12 JUMP JUMPDEST PUSH1 0x40 MLOAD DUP1 SWAP2 SUB SWAP1 RETURN JUMPDEST CALLVALUE DUP1 ISZERO PUSH2 0x863 JUMPI PUSH1 0x0 DUP1 REVERT JUMPDEST POP PUSH2 0x87E PUSH1 0x4 DUP1 CALLDATASIZE SUB DUP2 ADD SWAP1 PUSH2 0x879 SWAP2 SWAP1 PUSH2 0x4488 JUMP JUMPDEST PUSH2 0x1FB3 JUMP JUMPDEST STOP JUMPDEST CALLVALUE DUP1 ISZERO PUSH2 0x88C JUMPI PUSH1 0x0 DUP1 REVERT JUMPDEST POP PUSH2 0x8A7 PUSH1 0x4 DUP1 CALLDATASIZE SUB DUP2 ADD SWAP1 PUSH2 0x8A2 SWAP2 SWAP1 PUSH2 0x43CE JUMP JUMPDEST PUSH2 0x1FD4 JUMP JUMPDEST PUSH1 0x40 MLOAD PUSH2 0x8B4 SWAP2 SWAP1 PUSH2 0x460E JUMP JUMPDEST PUSH1 0x40 MLOAD DUP1 SWAP2 SUB SWAP1 RETURN JUMPDEST CALLVALUE DUP1 ISZERO PUSH2 0x8C9 JUMPI PUSH1 0x0 DUP1 REVERT JUMPDEST POP PUSH2 0x8E4 PUSH1 0x4 DUP1 CALLDATASIZE SUB DUP2 ADD SWAP1 PUSH2 0x8DF SWAP2 SWAP1 PUSH2 0x43CE JUMP JUMPDEST PUSH2 0x1FFE JUMP JUMPDEST PUSH1 0x40 MLOAD PUSH2 0x8F2 SWAP3 SWAP2 SWAP1 PUSH2 0x48C2 JUMP JUMPDEST PUSH1 0x40 MLOAD DUP1 SWAP2 SUB SWAP1 RETURN JUMPDEST PUSH2 0x915 PUSH1 0x4 DUP1 CALLDATASIZE SUB DUP2 ADD SWAP1 PUSH2 0x910 SWAP2 SWAP1 PUSH2 0x43CE JUMP JUMPDEST PUSH2 0x2042 JUMP JUMPDEST STOP JUMPDEST CALLVALUE DUP1 ISZERO PUSH2 0x923 JUMPI PUSH1 0x0 DUP1 REVERT JUMPDEST POP PUSH2 0x93E PUSH1 0x4 DUP1 CALLDATASIZE SUB DUP2 ADD SWAP1 PUSH2 0x939 SWAP2 SWAP1 PUSH2 0x41AA JUMP JUMPDEST PUSH2 0x2243 JUMP JUMPDEST STOP JUMPDEST CALLVALUE DUP1 ISZERO PUSH2 0x94C JUMPI PUSH1 0x0 DUP1 REVERT JUMPDEST POP PUSH2 0x967 PUSH1 0x4 DUP1 CALLDATASIZE SUB DUP2 ADD SWAP1 PUSH2 0x962 SWAP2 SWAP1 PUSH2 0x43CE JUMP JUMPDEST PUSH2 0x2290 JUMP JUMPDEST PUSH1 0x40 MLOAD PUSH2 0x974 SWAP2 SWAP1 PUSH2 0x3F12 JUMP JUMPDEST PUSH1 0x40 MLOAD DUP1 SWAP2 SUB SWAP1 RETURN JUMPDEST CALLVALUE DUP1 ISZERO PUSH2 0x989 JUMPI PUSH1 0x0 DUP1 REVERT JUMPDEST POP PUSH2 0x9A4 PUSH1 0x4 DUP1 CALLDATASIZE SUB DUP2 ADD SWAP1 PUSH2 0x99F SWAP2 SWAP1 PUSH2 0x43CE JUMP JUMPDEST PUSH2 0x2335 JUMP JUMPDEST STOP JUMPDEST CALLVALUE DUP1 ISZERO PUSH2 0x9B2 JUMPI PUSH1 0x0 DUP1 REVERT JUMPDEST POP PUSH2 0x9CD PUSH1 0x4 DUP1 CALLDATASIZE SUB DUP2 ADD SWAP1 PUSH2 0x9C8 SWAP2 SWAP1 PUSH2 0x4653 JUMP JUMPDEST PUSH2 0x23A8 JUMP JUMPDEST STOP JUMPDEST PUSH1 0x0 PUSH32 0x304AD1F200000000000000000000000000000000000000000000000000000000 PUSH28 0xFFFFFFFFFFFFFFFFFFFFFFFFFFFFFFFFFFFFFFFFFFFFFFFFFFFFFFFF NOT AND DUP3 PUSH28 0xFFFFFFFFFFFFFFFFFFFFFFFFFFFFFFFFFFFFFFFFFFFFFFFFFFFFFFFF NOT AND EQ DUP1 PUSH2 0xA9A JUMPI POP PUSH32 0x5B5E139F00000000000000000000000000000000000000000000000000000000 PUSH28 0xFFFFFFFFFFFFFFFFFFFFFFFFFFFFFFFFFFFFFFFFFFFFFFFFFFFFFFFF NOT AND DUP3 PUSH28 0xFFFFFFFFFFFFFFFFFFFFFFFFFFFFFFFFFFFFFFFFFFFFFFFFFFFFFFFF NOT AND EQ JUMPDEST DUP1 PUSH2 0xAAA JUMPI POP PUSH2 0xAA9 DUP3 PUSH2 0x2474 JUMP JUMPDEST JUMPDEST SWAP1 POP SWAP2 SWAP1 POP JUMP JUMPDEST PUSH1 0x60 PUSH1 0x7 DUP1 SLOAD PUSH2 0xAC0 SWAP1 PUSH2 0x491A JUMP JUMPDEST DUP1 PUSH1 0x1F ADD PUSH1 0x20 DUP1 SWAP2 DIV MUL PUSH1 0x20 ADD PUSH1 0x40 MLOAD SWAP1 DUP2 ADD PUSH1 0x40 MSTORE DUP1 SWAP3 SWAP2 SWAP1 DUP2 DUP2 MSTORE PUSH1 0x20 ADD DUP3 DUP1 SLOAD PUSH2 0xAEC SWAP1 PUSH2 0x491A JUMP JUMPDEST DUP1 ISZERO PUSH2 0xB39 JUMPI DUP1 PUSH1 0x1F LT PUSH2 0xB0E JUMPI PUSH2 0x100 DUP1 DUP4 SLOAD DIV MUL DUP4 MSTORE SWAP2 PUSH1 0x20 ADD SWAP2 PUSH2 0xB39 JUMP JUMPDEST DUP3 ADD SWAP2 SWAP1 PUSH1 0x0 MSTORE PUSH1 0x20 PUSH1 0x0 KECCAK256 SWAP1 JUMPDEST DUP2 SLOAD DUP2 MSTORE SWAP1 PUSH1 0x1 ADD SWAP1 PUSH1 0x20 ADD DUP1 DUP4 GT PUSH2 0xB1C JUMPI DUP3 SWAP1 SUB PUSH1 0x1F AND DUP3 ADD SWAP2 JUMPDEST POP POP POP POP POP SWAP1 POP SWAP1 JUMP JUMPDEST PUSH1 0x0 PUSH4 0x150B7A02 PUSH1 0xE0 SHL SWAP1 POP SWAP5 SWAP4 POP POP POP POP JUMP JUMPDEST PUSH1 0x60 PUSH1 0x0 PUSH2 0xB64 DUP4 PUSH2 0x12B2 JUMP JUMPDEST SWAP1 POP PUSH1 0x0 DUP2 PUSH8 0xFFFFFFFFFFFFFFFF DUP2 GT ISZERO PUSH2 0xB82 JUMPI PUSH2 0xB81 PUSH2 0x3FD2 JUMP JUMPDEST JUMPDEST PUSH1 0x40 MLOAD SWAP1 DUP1 DUP3 MSTORE DUP1 PUSH1 0x20 MUL PUSH1 0x20 ADD DUP3 ADD PUSH1 0x40 MSTORE DUP1 ISZERO PUSH2 0xBB0 JUMPI DUP2 PUSH1 0x20 ADD PUSH1 0x20 DUP3 MUL DUP1 CALLDATASIZE DUP4 CALLDATACOPY DUP1 DUP3 ADD SWAP2 POP POP SWAP1 POP JUMPDEST POP SWAP1 POP PUSH1 0x0 DUP3 PUSH8 0xFFFFFFFFFFFFFFFF DUP2 GT ISZERO PUSH2 0xBCF JUMPI PUSH2 0xBCE PUSH2 0x3FD2 JUMP JUMPDEST JUMPDEST PUSH1 0x40 MLOAD SWAP1 DUP1 DUP3 MSTORE DUP1 PUSH1 0x20 MUL PUSH1 0x20 ADD DUP3 ADD PUSH1 0x40 MSTORE DUP1 ISZERO PUSH2 0xC02 JUMPI DUP2 PUSH1 0x20 ADD JUMPDEST PUSH1 0x60 DUP2 MSTORE PUSH1 0x20 ADD SWAP1 PUSH1 0x1 SWAP1 SUB SWAP1 DUP2 PUSH2 0xBED JUMPI SWAP1 POP JUMPDEST POP SWAP1 POP PUSH1 0x0 JUMPDEST DUP4 DUP2 LT ISZERO PUSH2 0xC46 JUMPI PUSH2 0xC1A DUP7 DUP3 PUSH2 0xE77 JUMP JUMPDEST DUP4 DUP3 DUP2 MLOAD DUP2 LT PUSH2 0xC2D JUMPI PUSH2 0xC2C PUSH2 0x494B JUMP JUMPDEST JUMPDEST PUSH1 0x20 MUL PUSH1 0x20 ADD ADD DUP2 DUP2 MSTORE POP POP DUP1 DUP1 PUSH1 0x1 ADD SWAP2 POP POP PUSH2 0xC08 JUMP JUMPDEST POP PUSH1 0x0 JUMPDEST DUP3 MLOAD DUP2 LT ISZERO PUSH2 0xCA1 JUMPI PUSH2 0xC76 DUP4 DUP3 DUP2 MLOAD DUP2 LT PUSH2 0xC69 JUMPI PUSH2 0xC68 PUSH2 0x494B JUMP JUMPDEST JUMPDEST PUSH1 0x20 MUL PUSH1 0x20 ADD ADD MLOAD PUSH2 0x2290 JUMP JUMPDEST DUP3 DUP3 DUP2 MLOAD DUP2 LT PUSH2 0xC89 JUMPI PUSH2 0xC88 PUSH2 0x494B JUMP JUMPDEST JUMPDEST PUSH1 0x20 MUL PUSH1 0x20 ADD ADD DUP2 SWAP1 MSTORE POP DUP1 DUP1 PUSH1 0x1 ADD SWAP2 POP POP PUSH2 0xC4A JUMP JUMPDEST POP PUSH1 0x0 DUP4 PUSH8 0xFFFFFFFFFFFFFFFF DUP2 GT ISZERO PUSH2 0xCBE JUMPI PUSH2 0xCBD PUSH2 0x3FD2 JUMP JUMPDEST JUMPDEST PUSH1 0x40 MLOAD SWAP1 DUP1 DUP3 MSTORE DUP1 PUSH1 0x20 MUL PUSH1 0x20 ADD DUP3 ADD PUSH1 0x40 MSTORE DUP1 ISZERO PUSH2 0xCF7 JUMPI DUP2 PUSH1 0x20 ADD JUMPDEST PUSH2 0xCE4 PUSH2 0x3C72 JUMP JUMPDEST DUP2 MSTORE PUSH1 0x20 ADD SWAP1 PUSH1 0x1 SWAP1 SUB SWAP1 DUP2 PUSH2 0xCDC JUMPI SWAP1 POP JUMPDEST POP SWAP1 POP PUSH1 0x0 JUMPDEST DUP5 DUP2 LT ISZERO PUSH2 0xD7F JUMPI PUSH1 0x0 PUSH1 0x40 MLOAD DUP1 PUSH1 0x40 ADD PUSH1 0x40 MSTORE DUP1 DUP7 DUP5 DUP2 MLOAD DUP2 LT PUSH2 0xD25 JUMPI PUSH2 0xD24 PUSH2 0x494B JUMP JUMPDEST JUMPDEST PUSH1 0x20 MUL PUSH1 0x20 ADD ADD MLOAD DUP2 MSTORE PUSH1 0x20 ADD DUP6 DUP5 DUP2 MLOAD DUP2 LT PUSH2 0xD45 JUMPI PUSH2 0xD44 PUSH2 0x494B JUMP JUMPDEST JUMPDEST PUSH1 0x20 MUL PUSH1 0x20 ADD ADD MLOAD DUP2 MSTORE POP SWAP1 POP DUP1 DUP4 DUP4 DUP2 MLOAD DUP2 LT PUSH2 0xD66 JUMPI PUSH2 0xD65 PUSH2 0x494B JUMP JUMPDEST JUMPDEST PUSH1 0x20 MUL PUSH1 0x20 ADD ADD DUP2 SWAP1 MSTORE POP POP DUP1 DUP1 PUSH1 0x1 ADD SWAP2 POP POP PUSH2 0xCFD JUMP JUMPDEST POP DUP1 SWAP5 POP POP POP POP POP SWAP2 SWAP1 POP JUMP JUMPDEST PUSH1 0x0 PUSH1 0xE DUP1 SLOAD SWAP1 POP SWAP1 POP SWAP1 JUMP JUMPDEST PUSH2 0xDC3 PUSH32 0xA49807205CE4D355092EF5A8A18F56E8913CF4A201FBE287825B095693C21775 CALLER PUSH2 0x15F7 JUMP JUMPDEST PUSH2 0xE02 JUMPI PUSH1 0x40 MLOAD PUSH32 0x8C379A000000000000000000000000000000000000000000000000000000000 DUP2 MSTORE PUSH1 0x4 ADD PUSH2 0xDF9 SWAP1 PUSH2 0x49C6 JUMP JUMPDEST PUSH1 0x40 MLOAD DUP1 SWAP2 SUB SWAP1 REVERT JUMPDEST PUSH2 0xE0D DUP4 DUP4 DUP4 PUSH2 0x24EE JUMP JUMPDEST POP POP POP JUMP JUMPDEST PUSH1 0x15 DUP2 DUP2 SLOAD DUP2 LT PUSH2 0xE22 JUMPI PUSH1 0x0 DUP1 REVERT JUMPDEST SWAP1 PUSH1 0x0 MSTORE PUSH1 0x20 PUSH1 0x0 KECCAK256 ADD PUSH1 0x0 SWAP2 POP SWAP1 POP SLOAD DUP2 JUMP JUMPDEST PUSH1 0x0 PUSH1 0x6 PUSH1 0x0 DUP4 DUP2 MSTORE PUSH1 0x20 ADD SWAP1 DUP2 MSTORE PUSH1 0x20 ADD PUSH1 0x0 KECCAK256 PUSH1 0x1 ADD SLOAD SWAP1 POP SWAP2 SWAP1 POP JUMP JUMPDEST PUSH2 0xE5F DUP3 PUSH2 0xE36 JUMP JUMPDEST PUSH2 0xE68 DUP2 PUSH2 0x27E7 JUMP JUMPDEST PUSH2 0xE72 DUP4 DUP4 PUSH2 0x27FB JUMP JUMPDEST POP POP POP JUMP JUMPDEST PUSH1 0x0 PUSH2 0xE82 DUP4 PUSH2 0x12B2 JUMP JUMPDEST DUP3 LT PUSH2 0xEC3 JUMPI PUSH1 0x40 MLOAD PUSH32 0x8C379A000000000000000000000000000000000000000000000000000000000 DUP2 MSTORE PUSH1 0x4 ADD PUSH2 0xEBA SWAP1 PUSH2 0x4A32 JUMP JUMPDEST PUSH1 0x40 MLOAD DUP1 SWAP2 SUB SWAP1 REVERT JUMPDEST PUSH1 0xB PUSH1 0x0 DUP5 PUSH20 0xFFFFFFFFFFFFFFFFFFFFFFFFFFFFFFFFFFFFFFFF AND PUSH20 0xFFFFFFFFFFFFFFFFFFFFFFFFFFFFFFFFFFFFFFFF AND DUP2 MSTORE PUSH1 0x20 ADD SWAP1 DUP2 MSTORE PUSH1 0x20 ADD PUSH1 0x0 KECCAK256 PUSH1 0x0 DUP4 DUP2 MSTORE PUSH1 0x20 ADD SWAP1 DUP2 MSTORE PUSH1 0x20 ADD PUSH1 0x0 KECCAK256 SLOAD SWAP1 POP SWAP3 SWAP2 POP POP JUMP JUMPDEST PUSH2 0xF46 PUSH32 0xA49807205CE4D355092EF5A8A18F56E8913CF4A201FBE287825B095693C21775 CALLER PUSH2 0x15F7 JUMP JUMPDEST PUSH2 0xF85 JUMPI PUSH1 0x40 MLOAD PUSH32 0x8C379A000000000000000000000000000000000000000000000000000000000 DUP2 MSTORE PUSH1 0x4 ADD PUSH2 0xF7C SWAP1 PUSH2 0x49C6 JUMP JUMPDEST PUSH1 0x40 MLOAD DUP1 SWAP2 SUB SWAP1 REVERT JUMPDEST DUP1 PUSH1 0x11 SWAP1 DUP2 PUSH2 0xF94 SWAP2 SWAP1 PUSH2 0x4BFE JUMP JUMPDEST POP POP JUMP JUMPDEST PUSH1 0x0 PUSH1 0x13 PUSH1 0x0 DUP4 DUP2 MSTORE PUSH1 0x20 ADD SWAP1 DUP2 MSTORE PUSH1 0x20 ADD PUSH1 0x0 KECCAK256 PUSH1 0x40 MLOAD DUP1 PUSH1 0x40 ADD PUSH1 0x40 MSTORE SWAP1 DUP2 PUSH1 0x0 DUP3 ADD PUSH1 0x0 SWAP1 SLOAD SWAP1 PUSH2 0x100 EXP SWAP1 DIV PUSH20 0xFFFFFFFFFFFFFFFFFFFFFFFFFFFFFFFFFFFFFFFF AND PUSH20 0xFFFFFFFFFFFFFFFFFFFFFFFFFFFFFFFFFFFFFFFF AND PUSH20 0xFFFFFFFFFFFFFFFFFFFFFFFFFFFFFFFFFFFFFFFF AND DUP2 MSTORE PUSH1 0x20 ADD PUSH1 0x1 DUP3 ADD SLOAD DUP2 MSTORE POP POP SWAP1 POP CALLER PUSH20 0xFFFFFFFFFFFFFFFFFFFFFFFFFFFFFFFFFFFFFFFF AND DUP2 PUSH1 0x0 ADD MLOAD PUSH20 0xFFFFFFFFFFFFFFFFFFFFFFFFFFFFFFFFFFFFFFFF AND EQ PUSH2 0x108C JUMPI PUSH1 0x40 MLOAD PUSH32 0x8C379A000000000000000000000000000000000000000000000000000000000 DUP2 MSTORE PUSH1 0x4 ADD PUSH2 0x1083 SWAP1 PUSH2 0x4D1C JUMP JUMPDEST PUSH1 0x40 MLOAD DUP1 SWAP2 SUB SWAP1 REVERT JUMPDEST PUSH1 0x13 PUSH1 0x0 DUP4 DUP2 MSTORE PUSH1 0x20 ADD SWAP1 DUP2 MSTORE PUSH1 0x20 ADD PUSH1 0x0 KECCAK256 PUSH1 0x0 DUP1 DUP3 ADD PUSH1 0x0 PUSH2 0x100 EXP DUP2 SLOAD SWAP1 PUSH20 0xFFFFFFFFFFFFFFFFFFFFFFFFFFFFFFFFFFFFFFFF MUL NOT AND SWAP1 SSTORE PUSH1 0x1 DUP3 ADD PUSH1 0x0 SWAP1 SSTORE POP POP PUSH2 0x10DC ADDRESS CALLER DUP5 PUSH2 0x28DC JUMP JUMPDEST POP POP JUMP JUMPDEST PUSH2 0x10E8 PUSH2 0x28EC JUMP JUMPDEST PUSH20 0xFFFFFFFFFFFFFFFFFFFFFFFFFFFFFFFFFFFFFFFF AND DUP2 PUSH20 0xFFFFFFFFFFFFFFFFFFFFFFFFFFFFFFFFFFFFFFFF AND EQ PUSH2 0x1155 JUMPI PUSH1 0x40 MLOAD PUSH32 0x8C379A000000000000000000000000000000000000000000000000000000000 DUP2 MSTORE PUSH1 0x4 ADD PUSH2 0x114C SWAP1 PUSH2 0x4DAE JUMP JUMPDEST PUSH1 0x40 MLOAD DUP1 SWAP2 SUB SWAP1 REVERT JUMPDEST PUSH2 0x115F DUP3 DUP3 PUSH2 0x28F4 JUMP JUMPDEST POP POP JUMP JUMPDEST PUSH2 0x116B PUSH2 0x29D6 JUMP JUMPDEST PUSH1 0x0 SELFBALANCE SWAP1 POP PUSH2 0x1178 PUSH2 0x15CE JUMP JUMPDEST PUSH20 0xFFFFFFFFFFFFFFFFFFFFFFFFFFFFFFFFFFFFFFFF AND PUSH2 0x8FC DUP3 SWAP1 DUP2 ISZERO MUL SWAP1 PUSH1 0x40 MLOAD PUSH1 0x0 PUSH1 0x40 MLOAD DUP1 DUP4 SUB DUP2 DUP6 DUP9 DUP9 CALL SWAP4 POP POP POP POP ISZERO DUP1 ISZERO PUSH2 0x11BD JUMPI RETURNDATASIZE PUSH1 0x0 DUP1 RETURNDATACOPY RETURNDATASIZE PUSH1 0x0 REVERT JUMPDEST POP POP JUMP JUMPDEST PUSH1 0x0 PUSH2 0x11CB PUSH2 0xD8C JUMP JUMPDEST DUP3 LT PUSH2 0x11D6 JUMPI PUSH1 0x0 DUP1 REVERT JUMPDEST PUSH1 0xE DUP3 DUP2 SLOAD DUP2 LT PUSH2 0x11EA JUMPI PUSH2 0x11E9 PUSH2 0x494B JUMP JUMPDEST JUMPDEST SWAP1 PUSH1 0x0 MSTORE PUSH1 0x20 PUSH1 0x0 KECCAK256 ADD SLOAD SWAP1 POP SWAP2 SWAP1 POP JUMP JUMPDEST PUSH1 0x17 DUP2 PUSH1 0x9 DUP2 LT PUSH2 0x120C JUMPI PUSH1 0x0 DUP1 REVERT JUMPDEST PUSH1 0x20 SWAP2 DUP3 DUP3 DIV ADD SWAP2 SWAP1 MOD SWAP2 POP SLOAD SWAP1 PUSH2 0x100 EXP SWAP1 DIV PUSH1 0xFF AND DUP2 JUMP JUMPDEST PUSH1 0x0 DUP1 PUSH2 0x1232 DUP4 PUSH2 0x2A54 JUMP JUMPDEST SWAP1 POP PUSH1 0x0 PUSH20 0xFFFFFFFFFFFFFFFFFFFFFFFFFFFFFFFFFFFFFFFF AND DUP2 PUSH20 0xFFFFFFFFFFFFFFFFFFFFFFFFFFFFFFFFFFFFFFFF AND SUB PUSH2 0x12A3 JUMPI PUSH1 0x40 MLOAD PUSH32 0x8C379A000000000000000000000000000000000000000000000000000000000 DUP2 MSTORE PUSH1 0x4 ADD PUSH2 0x129A SWAP1 PUSH2 0x4E1A JUMP JUMPDEST PUSH1 0x40 MLOAD DUP1 SWAP2 SUB SWAP1 REVERT JUMPDEST DUP1 SWAP2 POP POP SWAP2 SWAP1 POP JUMP JUMPDEST PUSH1 0x12 SLOAD DUP2 JUMP JUMPDEST PUSH1 0x0 DUP1 PUSH20 0xFFFFFFFFFFFFFFFFFFFFFFFFFFFFFFFFFFFFFFFF AND DUP3 PUSH20 0xFFFFFFFFFFFFFFFFFFFFFFFFFFFFFFFFFFFFFFFF AND SUB PUSH2 0x1322 JUMPI PUSH1 0x40 MLOAD PUSH32 0x8C379A000000000000000000000000000000000000000000000000000000000 DUP2 MSTORE PUSH1 0x4 ADD PUSH2 0x1319 SWAP1 PUSH2 0x4EAC JUMP JUMPDEST PUSH1 0x40 MLOAD DUP1 SWAP2 SUB SWAP1 REVERT JUMPDEST PUSH1 0x4 PUSH1 0x0 DUP4 PUSH20 0xFFFFFFFFFFFFFFFFFFFFFFFFFFFFFFFFFFFFFFFF AND PUSH20 0xFFFFFFFFFFFFFFFFFFFFFFFFFFFFFFFFFFFFFFFF AND DUP2 MSTORE PUSH1 0x20 ADD SWAP1 DUP2 MSTORE PUSH1 0x20 ADD PUSH1 0x0 KECCAK256 SLOAD SWAP1 POP SWAP2 SWAP1 POP JUMP JUMPDEST PUSH2 0x1371 PUSH2 0x29D6 JUMP JUMPDEST PUSH2 0x137B PUSH1 0x0 PUSH2 0x2A91 JUMP JUMPDEST JUMP JUMPDEST PUSH32 0xA49807205CE4D355092EF5A8A18F56E8913CF4A201FBE287825B095693C21775 DUP2 JUMP JUMPDEST PUSH1 0x14 DUP2 DUP2 SLOAD DUP2 LT PUSH2 0x13B1 JUMPI PUSH1 0x0 DUP1 REVERT JUMPDEST SWAP1 PUSH1 0x0 MSTORE PUSH1 0x20 PUSH1 0x0 KECCAK256 ADD PUSH1 0x0 SWAP2 POP SWAP1 POP SLOAD DUP2 JUMP JUMPDEST PUSH1 0x0 DUP2 GT PUSH2 0x13D2 JUMPI PUSH1 0x0 DUP1 REVERT JUMPDEST CALLER PUSH20 0xFFFFFFFFFFFFFFFFFFFFFFFFFFFFFFFFFFFFFFFF AND PUSH2 0x13F2 DUP4 PUSH2 0x1226 JUMP JUMPDEST PUSH20 0xFFFFFFFFFFFFFFFFFFFFFFFFFFFFFFFFFFFFFFFF AND EQ PUSH2 0x1412 JUMPI PUSH1 0x0 DUP1 REVERT JUMPDEST PUSH2 0x141D CALLER ADDRESS DUP5 PUSH2 0x28DC JUMP JUMPDEST PUSH1 0x40 MLOAD DUP1 PUSH1 0x40 ADD PUSH1 0x40 MSTORE DUP1 CALLER PUSH20 0xFFFFFFFFFFFFFFFFFFFFFFFFFFFFFFFFFFFFFFFF AND DUP2 MSTORE PUSH1 0x20 ADD DUP3 DUP2 MSTORE POP PUSH1 0x13 PUSH1 0x0 DUP5 DUP2 MSTORE PUSH1 0x20 ADD SWAP1 DUP2 MSTORE PUSH1 0x20 ADD PUSH1 0x0 KECCAK256 PUSH1 0x0 DUP3 ADD MLOAD DUP2 PUSH1 0x0 ADD PUSH1 0x0 PUSH2 0x100 EXP DUP2 SLOAD DUP2 PUSH20 0xFFFFFFFFFFFFFFFFFFFFFFFFFFFFFFFFFFFFFFFF MUL NOT AND SWAP1 DUP4 PUSH20 0xFFFFFFFFFFFFFFFFFFFFFFFFFFFFFFFFFFFFFFFF AND MUL OR SWAP1 SSTORE POP PUSH1 0x20 DUP3 ADD MLOAD DUP2 PUSH1 0x1 ADD SSTORE SWAP1 POP POP CALLER PUSH20 0xFFFFFFFFFFFFFFFFFFFFFFFFFFFFFFFFFFFFFFFF AND DUP3 PUSH32 0xC93EDC6EE14CD6C0C2842099ADFA8953B237DBDAD304BA28E96DCE8A7F2A828C DUP4 PUSH1 0x40 MLOAD PUSH2 0x14F6 SWAP2 SWAP1 PUSH2 0x4360 JUMP JUMPDEST PUSH1 0x40 MLOAD DUP1 SWAP2 SUB SWAP1 LOG3 POP POP JUMP JUMPDEST PUSH2 0x152C PUSH32 0xA49807205CE4D355092EF5A8A18F56E8913CF4A201FBE287825B095693C21775 CALLER PUSH2 0x15F7 JUMP JUMPDEST PUSH2 0x156B JUMPI PUSH1 0x40 MLOAD PUSH32 0x8C379A000000000000000000000000000000000000000000000000000000000 DUP2 MSTORE PUSH1 0x4 ADD PUSH2 0x1562 SWAP1 PUSH2 0x49C6 JUMP JUMPDEST PUSH1 0x40 MLOAD DUP1 SWAP2 SUB SWAP1 REVERT JUMPDEST PUSH1 0x3 DUP3 LT PUSH2 0x1578 JUMPI PUSH1 0x0 DUP1 REVERT JUMPDEST PUSH1 0x0 DUP3 SUB PUSH2 0x1597 JUMPI DUP1 PUSH1 0x16 SWAP1 PUSH1 0x9 PUSH2 0x1591 SWAP3 SWAP2 SWAP1 PUSH2 0x3C8C JUMP JUMPDEST POP PUSH2 0x15CA JUMP JUMPDEST PUSH1 0x1 DUP3 SUB PUSH2 0x15B6 JUMPI DUP1 PUSH1 0x17 SWAP1 PUSH1 0x9 PUSH2 0x15B0 SWAP3 SWAP2 SWAP1 PUSH2 0x3C8C JUMP JUMPDEST POP PUSH2 0x15C9 JUMP JUMPDEST DUP1 PUSH1 0x18 SWAP1 PUSH1 0x9 PUSH2 0x15C7 SWAP3 SWAP2 SWAP1 PUSH2 0x3C8C JUMP JUMPDEST POP JUMPDEST JUMPDEST POP POP JUMP JUMPDEST PUSH1 0x0 DUP1 PUSH1 0x0 SWAP1 SLOAD SWAP1 PUSH2 0x100 EXP SWAP1 DIV PUSH20 0xFFFFFFFFFFFFFFFFFFFFFFFFFFFFFFFFFFFFFFFF AND SWAP1 POP SWAP1 JUMP JUMPDEST PUSH1 0x0 PUSH1 0x6 PUSH1 0x0 DUP5 DUP2 MSTORE PUSH1 0x20 ADD SWAP1 DUP2 MSTORE PUSH1 0x20 ADD PUSH1 0x0 KECCAK256 PUSH1 0x0 ADD PUSH1 0x0 DUP4 PUSH20 0xFFFFFFFFFFFFFFFFFFFFFFFFFFFFFFFFFFFFFFFF AND PUSH20 0xFFFFFFFFFFFFFFFFFFFFFFFFFFFFFFFFFFFFFFFF AND DUP2 MSTORE PUSH1 0x20 ADD SWAP1 DUP2 MSTORE PUSH1 0x20 ADD PUSH1 0x0 KECCAK256 PUSH1 0x0 SWAP1 SLOAD SWAP1 PUSH2 0x100 EXP SWAP1 DIV PUSH1 0xFF AND SWAP1 POP SWAP3 SWAP2 POP POP JUMP JUMPDEST PUSH1 0x60 PUSH1 0x8 DUP1 SLOAD PUSH2 0x1671 SWAP1 PUSH2 0x491A JUMP JUMPDEST DUP1 PUSH1 0x1F ADD PUSH1 0x20 DUP1 SWAP2 DIV MUL PUSH1 0x20 ADD PUSH1 0x40 MLOAD SWAP1 DUP2 ADD PUSH1 0x40 MSTORE DUP1 SWAP3 SWAP2 SWAP1 DUP2 DUP2 MSTORE PUSH1 0x20 ADD DUP3 DUP1 SLOAD PUSH2 0x169D SWAP1 PUSH2 0x491A JUMP JUMPDEST DUP1 ISZERO PUSH2 0x16EA JUMPI DUP1 PUSH1 0x1F LT PUSH2 0x16BF JUMPI PUSH2 0x100 DUP1 DUP4 SLOAD DIV MUL DUP4 MSTORE SWAP2 PUSH1 0x20 ADD SWAP2 PUSH2 0x16EA JUMP JUMPDEST DUP3 ADD SWAP2 SWAP1 PUSH1 0x0 MSTORE PUSH1 0x20 PUSH1 0x0 KECCAK256 SWAP1 JUMPDEST DUP2 SLOAD DUP2 MSTORE SWAP1 PUSH1 0x1 ADD SWAP1 PUSH1 0x20 ADD DUP1 DUP4 GT PUSH2 0x16CD JUMPI DUP3 SWAP1 SUB PUSH1 0x1F AND DUP3 ADD SWAP2 JUMPDEST POP POP POP POP POP SWAP1 POP SWAP1 JUMP JUMPDEST PUSH2 0x171E PUSH32 0xA49807205CE4D355092EF5A8A18F56E8913CF4A201FBE287825B095693C21775 CALLER PUSH2 0x15F7 JUMP JUMPDEST PUSH2 0x175D JUMPI PUSH1 0x40 MLOAD PUSH32 0x8C379A000000000000000000000000000000000000000000000000000000000 DUP2 MSTORE PUSH1 0x4 ADD PUSH2 0x1754 SWAP1 PUSH2 0x49C6 JUMP JUMPDEST PUSH1 0x40 MLOAD DUP1 SWAP2 SUB SWAP1 REVERT JUMPDEST PUSH1 0x15 DUP1 SLOAD SWAP1 POP DUP2 MLOAD LT ISZERO PUSH2 0x1770 JUMPI PUSH1 0x0 DUP1 REVERT JUMPDEST PUSH1 0x0 JUMPDEST DUP2 MLOAD DUP2 LT ISZERO PUSH2 0x17DC JUMPI PUSH1 0x15 DUP1 SLOAD SWAP1 POP DUP2 LT ISZERO PUSH2 0x17CF JUMPI PUSH1 0x15 DUP2 DUP2 SLOAD DUP2 LT PUSH2 0x179D JUMPI PUSH2 0x179C PUSH2 0x494B JUMP JUMPDEST JUMPDEST SWAP1 PUSH1 0x0 MSTORE PUSH1 0x20 PUSH1 0x0 KECCAK256 ADD SLOAD DUP3 DUP3 DUP2 MLOAD DUP2 LT PUSH2 0x17BB JUMPI PUSH2 0x17BA PUSH2 0x494B JUMP JUMPDEST JUMPDEST PUSH1 0x20 MUL PUSH1 0x20 ADD ADD MLOAD LT ISZERO PUSH2 0x17CE JUMPI PUSH1 0x0 DUP1 REVERT JUMPDEST JUMPDEST DUP1 DUP1 PUSH1 0x1 ADD SWAP2 POP POP PUSH2 0x1773 JUMP JUMPDEST POP DUP1 PUSH1 0x14 SWAP1 DUP1 MLOAD SWAP1 PUSH1 0x20 ADD SWAP1 PUSH2 0x17F3 SWAP3 SWAP2 SWAP1 PUSH2 0x3D26 JUMP JUMPDEST POP PUSH1 0x15 DUP1 SLOAD SWAP1 POP DUP2 MLOAD GT ISZERO PUSH2 0x184F JUMPI PUSH1 0x0 PUSH1 0x15 DUP1 SLOAD SWAP1 POP SWAP1 POP JUMPDEST DUP2 MLOAD DUP2 LT ISZERO PUSH2 0x184D JUMPI PUSH1 0x15 PUSH1 0x0 SWAP1 DUP1 PUSH1 0x1 DUP2 SLOAD ADD DUP1 DUP3 SSTORE DUP1 SWAP2 POP POP PUSH1 0x1 SWAP1 SUB SWAP1 PUSH1 0x0 MSTORE PUSH1 0x20 PUSH1 0x0 KECCAK256 ADD PUSH1 0x0 SWAP1 SWAP2 SWAP1 SWAP2 SWAP1 SWAP2 POP SSTORE DUP1 DUP1 PUSH1 0x1 ADD SWAP2 POP POP PUSH2 0x180D JUMP JUMPDEST POP JUMPDEST POP JUMP JUMPDEST PUSH1 0x0 PUSH1 0x12 SLOAD CALLVALUE LT ISZERO PUSH2 0x1899 JUMPI PUSH1 0x40 MLOAD PUSH32 0x8C379A000000000000000000000000000000000000000000000000000000000 DUP2 MSTORE PUSH1 0x4 ADD PUSH2 0x1890 SWAP1 PUSH2 0x4F18 JUMP JUMPDEST PUSH1 0x40 MLOAD DUP1 SWAP2 SUB SWAP1 REVERT JUMPDEST PUSH1 0x0 PUSH1 0x1 PUSH1 0x64 PUSH2 0x18A7 PUSH2 0x2B55 JUMP JUMPDEST PUSH2 0x18B1 SWAP2 SWAP1 PUSH2 0x4F67 JUMP JUMPDEST PUSH2 0x18BB SWAP2 SWAP1 PUSH2 0x4FC7 JUMP JUMPDEST SWAP1 POP PUSH1 0x0 PUSH1 0x47 DUP3 GT PUSH2 0x18D0 JUMPI PUSH1 0x0 SWAP1 POP PUSH2 0x18E7 JUMP JUMPDEST PUSH1 0x63 DUP3 GT PUSH2 0x18E1 JUMPI PUSH1 0x1 SWAP1 POP PUSH2 0x18E6 JUMP JUMPDEST PUSH1 0x2 SWAP1 POP JUMPDEST JUMPDEST PUSH1 0x14 DUP2 DUP2 SLOAD DUP2 LT PUSH2 0x18FB JUMPI PUSH2 0x18FA PUSH2 0x494B JUMP JUMPDEST JUMPDEST SWAP1 PUSH1 0x0 MSTORE PUSH1 0x20 PUSH1 0x0 KECCAK256 ADD SLOAD PUSH1 0x15 DUP3 DUP2 SLOAD DUP2 LT PUSH2 0x191A JUMPI PUSH2 0x1919 PUSH2 0x494B JUMP JUMPDEST JUMPDEST SWAP1 PUSH1 0x0 MSTORE PUSH1 0x20 PUSH1 0x0 KECCAK256 ADD SLOAD LT PUSH2 0x1965 JUMPI PUSH1 0x40 MLOAD PUSH32 0x8C379A000000000000000000000000000000000000000000000000000000000 DUP2 MSTORE PUSH1 0x4 ADD PUSH2 0x195C SWAP1 PUSH2 0x5047 JUMP JUMPDEST PUSH1 0x40 MLOAD DUP1 SWAP2 SUB SWAP1 REVERT JUMPDEST PUSH1 0x0 PUSH2 0x1971 PUSH1 0x9 PUSH2 0x2B90 JUMP JUMPDEST SWAP1 POP PUSH2 0x197D PUSH1 0x9 PUSH2 0x2B9E JUMP JUMPDEST PUSH2 0x1985 PUSH2 0x3D73 JUMP JUMPDEST PUSH1 0x0 DUP4 SUB PUSH2 0x19F8 JUMPI PUSH1 0x16 PUSH1 0x9 DUP1 PUSH1 0x20 MUL PUSH1 0x40 MLOAD SWAP1 DUP2 ADD PUSH1 0x40 MSTORE DUP1 SWAP3 SWAP2 SWAP1 DUP3 PUSH1 0x9 DUP1 ISZERO PUSH2 0x19EC JUMPI PUSH1 0x20 MUL DUP3 ADD SWAP2 PUSH1 0x0 SWAP1 JUMPDEST DUP3 DUP3 SWAP1 SLOAD SWAP1 PUSH2 0x100 EXP SWAP1 DIV PUSH1 0xFF AND PUSH1 0xFF AND DUP2 MSTORE PUSH1 0x20 ADD SWAP1 PUSH1 0x1 ADD SWAP1 PUSH1 0x20 DUP3 PUSH1 0x0 ADD DIV SWAP3 DUP4 ADD SWAP3 PUSH1 0x1 SUB DUP3 MUL SWAP2 POP DUP1 DUP5 GT PUSH2 0x19B5 JUMPI SWAP1 POP JUMPDEST POP POP POP POP POP SWAP1 POP PUSH2 0x1AD3 JUMP JUMPDEST PUSH1 0x1 DUP4 SUB PUSH2 0x1A6B JUMPI PUSH1 0x17 PUSH1 0x9 DUP1 PUSH1 0x20 MUL PUSH1 0x40 MLOAD SWAP1 DUP2 ADD PUSH1 0x40 MSTORE DUP1 SWAP3 SWAP2 SWAP1 DUP3 PUSH1 0x9 DUP1 ISZERO PUSH2 0x1A5F JUMPI PUSH1 0x20 MUL DUP3 ADD SWAP2 PUSH1 0x0 SWAP1 JUMPDEST DUP3 DUP3 SWAP1 SLOAD SWAP1 PUSH2 0x100 EXP SWAP1 DIV PUSH1 0xFF AND PUSH1 0xFF AND DUP2 MSTORE PUSH1 0x20 ADD SWAP1 PUSH1 0x1 ADD SWAP1 PUSH1 0x20 DUP3 PUSH1 0x0 ADD DIV SWAP3 DUP4 ADD SWAP3 PUSH1 0x1 SUB DUP3 MUL SWAP2 POP DUP1 DUP5 GT PUSH2 0x1A28 JUMPI SWAP1 POP JUMPDEST POP POP POP POP POP SWAP1 POP PUSH2 0x1AD2 JUMP JUMPDEST PUSH1 0x18 PUSH1 0x9 DUP1 PUSH1 0x20 MUL PUSH1 0x40 MLOAD SWAP1 DUP2 ADD PUSH1 0x40 MSTORE DUP1 SWAP3 SWAP2 SWAP1 DUP3 PUSH1 0x9 DUP1 ISZERO PUSH2 0x1ACA JUMPI PUSH1 0x20 MUL DUP3 ADD SWAP2 PUSH1 0x0 SWAP1 JUMPDEST DUP3 DUP3 SWAP1 SLOAD SWAP1 PUSH2 0x100 EXP SWAP1 DIV PUSH1 0xFF AND PUSH1 0xFF AND DUP2 MSTORE PUSH1 0x20 ADD SWAP1 PUSH1 0x1 ADD SWAP1 PUSH1 0x20 DUP3 PUSH1 0x0 ADD DIV SWAP3 DUP4 ADD SWAP3 PUSH1 0x1 SUB DUP3 MUL SWAP2 POP DUP1 DUP5 GT PUSH2 0x1A93 JUMPI SWAP1 POP JUMPDEST POP POP POP POP POP SWAP1 POP JUMPDEST JUMPDEST PUSH1 0x60 PUSH1 0x0 JUMPDEST DUP1 PUSH2 0x1D2E JUMPI PUSH2 0x1AE5 PUSH2 0x3D73 JUMP JUMPDEST PUSH1 0x1 DUP7 PUSH2 0x1AF2 SWAP2 SWAP1 PUSH2 0x4FC7 JUMP JUMPDEST DUP2 PUSH1 0x0 PUSH1 0x9 DUP2 LT PUSH2 0x1B06 JUMPI PUSH2 0x1B05 PUSH2 0x494B JUMP JUMPDEST JUMPDEST PUSH1 0x20 MUL ADD SWAP1 PUSH1 0xFF AND SWAP1 DUP2 PUSH1 0xFF AND DUP2 MSTORE POP POP PUSH1 0x0 PUSH1 0x1 SWAP1 POP JUMPDEST PUSH1 0x9 DUP2 PUSH1 0xFF AND LT ISZERO PUSH2 0x1BA0 JUMPI PUSH1 0x1 DUP6 DUP3 PUSH1 0xFF AND PUSH1 0x9 DUP2 LT PUSH2 0x1B42 JUMPI PUSH2 0x1B41 PUSH2 0x494B JUMP JUMPDEST JUMPDEST PUSH1 0x20 MUL ADD MLOAD PUSH1 0xFF AND PUSH2 0x1B52 PUSH2 0x2B55 JUMP JUMPDEST PUSH2 0x1B5C SWAP2 SWAP1 PUSH2 0x4F67 JUMP JUMPDEST PUSH2 0x1B66 SWAP2 SWAP1 PUSH2 0x4FC7 JUMP JUMPDEST DUP3 DUP3 PUSH1 0xFF AND PUSH1 0x9 DUP2 LT PUSH2 0x1B7C JUMPI PUSH2 0x1B7B PUSH2 0x494B JUMP JUMPDEST JUMPDEST PUSH1 0x20 MUL ADD SWAP1 PUSH1 0xFF AND SWAP1 DUP2 PUSH1 0xFF AND DUP2 MSTORE POP POP DUP1 DUP1 PUSH2 0x1B98 SWAP1 PUSH2 0x5067 JUMP JUMPDEST SWAP2 POP POP PUSH2 0x1B1E JUMP JUMPDEST POP PUSH2 0x1BC2 DUP2 PUSH1 0x0 PUSH1 0x9 DUP2 LT PUSH2 0x1BB8 JUMPI PUSH2 0x1BB7 PUSH2 0x494B JUMP JUMPDEST JUMPDEST PUSH1 0x20 MUL ADD MLOAD PUSH2 0x2BB4 JUMP JUMPDEST PUSH2 0x1BE3 DUP3 PUSH1 0x1 PUSH1 0x9 DUP2 LT PUSH2 0x1BD9 JUMPI PUSH2 0x1BD8 PUSH2 0x494B JUMP JUMPDEST JUMPDEST PUSH1 0x20 MUL ADD MLOAD PUSH2 0x2BB4 JUMP JUMPDEST PUSH2 0x1C04 DUP4 PUSH1 0x2 PUSH1 0x9 DUP2 LT PUSH2 0x1BFA JUMPI PUSH2 0x1BF9 PUSH2 0x494B JUMP JUMPDEST JUMPDEST PUSH1 0x20 MUL ADD MLOAD PUSH2 0x2BB4 JUMP JUMPDEST PUSH2 0x1C25 DUP5 PUSH1 0x3 PUSH1 0x9 DUP2 LT PUSH2 0x1C1B JUMPI PUSH2 0x1C1A PUSH2 0x494B JUMP JUMPDEST JUMPDEST PUSH1 0x20 MUL ADD MLOAD PUSH2 0x2BB4 JUMP JUMPDEST PUSH2 0x1C46 DUP6 PUSH1 0x4 PUSH1 0x9 DUP2 LT PUSH2 0x1C3C JUMPI PUSH2 0x1C3B PUSH2 0x494B JUMP JUMPDEST JUMPDEST PUSH1 0x20 MUL ADD MLOAD PUSH2 0x2BB4 JUMP JUMPDEST PUSH2 0x1C67 DUP7 PUSH1 0x5 PUSH1 0x9 DUP2 LT PUSH2 0x1C5D JUMPI PUSH2 0x1C5C PUSH2 0x494B JUMP JUMPDEST JUMPDEST PUSH1 0x20 MUL ADD MLOAD PUSH2 0x2BB4 JUMP JUMPDEST PUSH2 0x1C88 DUP8 PUSH1 0x6 PUSH1 0x9 DUP2 LT PUSH2 0x1C7E JUMPI PUSH2 0x1C7D PUSH2 0x494B JUMP JUMPDEST JUMPDEST PUSH1 0x20 MUL ADD MLOAD PUSH2 0x2BB4 JUMP JUMPDEST PUSH2 0x1CA9 DUP9 PUSH1 0x7 PUSH1 0x9 DUP2 LT PUSH2 0x1C9F JUMPI PUSH2 0x1C9E PUSH2 0x494B JUMP JUMPDEST JUMPDEST PUSH1 0x20 MUL ADD MLOAD PUSH2 0x2BB4 JUMP JUMPDEST PUSH2 0x1CCA DUP10 PUSH1 0x8 PUSH1 0x9 DUP2 LT PUSH2 0x1CC0 JUMPI PUSH2 0x1CBF PUSH2 0x494B JUMP JUMPDEST JUMPDEST PUSH1 0x20 MUL ADD MLOAD PUSH2 0x2BB4 JUMP JUMPDEST PUSH1 0x40 MLOAD PUSH1 0x20 ADD PUSH2 0x1CE2 SWAP10 SWAP9 SWAP8 SWAP7 SWAP6 SWAP5 SWAP4 SWAP3 SWAP2 SWAP1 PUSH2 0x50CC JUMP JUMPDEST PUSH1 0x40 MLOAD PUSH1 0x20 DUP2 DUP4 SUB SUB DUP2 MSTORE SWAP1 PUSH1 0x40 MSTORE SWAP3 POP PUSH1 0x10 DUP4 PUSH1 0x40 MLOAD PUSH2 0x1D03 SWAP2 SWAP1 PUSH2 0x514B JUMP JUMPDEST SWAP1 DUP2 MSTORE PUSH1 0x20 ADD PUSH1 0x40 MLOAD DUP1 SWAP2 SUB SWAP1 KECCAK256 PUSH1 0x0 SWAP1 SLOAD SWAP1 PUSH2 0x100 EXP SWAP1 DIV PUSH1 0xFF AND PUSH2 0x1D28 JUMPI PUSH1 0x1 SWAP2 POP JUMPDEST POP PUSH2 0x1AD8 JUMP JUMPDEST PUSH1 0x15 DUP6 DUP2 SLOAD DUP2 LT PUSH2 0x1D42 JUMPI PUSH2 0x1D41 PUSH2 0x494B JUMP JUMPDEST JUMPDEST SWAP1 PUSH1 0x0 MSTORE PUSH1 0x20 PUSH1 0x0 KECCAK256 ADD PUSH1 0x0 DUP2 SLOAD DUP1 SWAP3 SWAP2 SWAP1 PUSH2 0x1D5D SWAP1 PUSH2 0x5162 JUMP JUMPDEST SWAP2 SWAP1 POP SSTORE POP PUSH2 0x1D6C CALLER DUP6 PUSH2 0x2C02 JUMP JUMPDEST PUSH2 0x1D76 DUP5 DUP4 PUSH2 0x2E1F JUMP JUMPDEST DUP2 PUSH1 0xD PUSH1 0x0 DUP7 DUP2 MSTORE PUSH1 0x20 ADD SWAP1 DUP2 MSTORE PUSH1 0x20 ADD PUSH1 0x0 KECCAK256 SWAP1 DUP2 PUSH2 0x1D96 SWAP2 SWAP1 PUSH2 0x4BFE JUMP JUMPDEST POP PUSH1 0x1 PUSH1 0x10 DUP4 PUSH1 0x40 MLOAD PUSH2 0x1DA9 SWAP2 SWAP1 PUSH2 0x514B JUMP JUMPDEST SWAP1 DUP2 MSTORE PUSH1 0x20 ADD PUSH1 0x40 MLOAD DUP1 SWAP2 SUB SWAP1 KECCAK256 PUSH1 0x0 PUSH2 0x100 EXP DUP2 SLOAD DUP2 PUSH1 0xFF MUL NOT AND SWAP1 DUP4 ISZERO ISZERO MUL OR SWAP1 SSTORE POP DUP4 CALLER PUSH20 0xFFFFFFFFFFFFFFFFFFFFFFFFFFFFFFFFFFFFFFFF AND PUSH32 0x8EE4B9F15EE011F61A4A6C5A5E7AEC5D3CE89E5190A2B7D3609D6F2A5B492F68 DUP5 PUSH1 0x40 MLOAD PUSH2 0x1E15 SWAP2 SWAP1 PUSH2 0x3F12 JUMP JUMPDEST PUSH1 0x40 MLOAD DUP1 SWAP2 SUB SWAP1 LOG3 PUSH1 0x12 SLOAD CALLVALUE GT ISZERO PUSH2 0x1E7C JUMPI CALLER PUSH20 0xFFFFFFFFFFFFFFFFFFFFFFFFFFFFFFFFFFFFFFFF AND PUSH2 0x8FC PUSH1 0x12 SLOAD CALLVALUE PUSH2 0x1E4F SWAP2 SWAP1 PUSH2 0x51AA JUMP JUMPDEST SWAP1 DUP2 ISZERO MUL SWAP1 PUSH1 0x40 MLOAD PUSH1 0x0 PUSH1 0x40 MLOAD DUP1 DUP4 SUB DUP2 DUP6 DUP9 DUP9 CALL SWAP4 POP POP POP POP ISZERO DUP1 ISZERO PUSH2 0x1E7A JUMPI RETURNDATASIZE PUSH1 0x0 DUP1 RETURNDATACOPY RETURNDATASIZE PUSH1 0x0 REVERT JUMPDEST POP JUMPDEST DUP4 SWAP7 POP POP POP POP POP POP POP SWAP1 JUMP JUMPDEST PUSH1 0x0 DUP1 SHL DUP2 JUMP JUMPDEST PUSH1 0x16 DUP2 PUSH1 0x9 DUP2 LT PUSH2 0x1E9F JUMPI PUSH1 0x0 DUP1 REVERT JUMPDEST PUSH1 0x20 SWAP2 DUP3 DUP3 DIV ADD SWAP2 SWAP1 MOD SWAP2 POP SLOAD SWAP1 PUSH2 0x100 EXP SWAP1 DIV PUSH1 0xFF AND DUP2 JUMP JUMPDEST PUSH1 0x60 PUSH2 0x1EC4 DUP3 PUSH2 0x2EAF JUMP JUMPDEST PUSH2 0x1ECD JUMPI PUSH1 0x0 DUP1 REVERT JUMPDEST PUSH1 0x0 PUSH1 0xA PUSH1 0x0 DUP5 DUP2 MSTORE PUSH1 0x20 ADD SWAP1 DUP2 MSTORE PUSH1 0x20 ADD PUSH1 0x0 KECCAK256 DUP1 SLOAD PUSH2 0x1EED SWAP1 PUSH2 0x491A JUMP JUMPDEST DUP1 PUSH1 0x1F ADD PUSH1 0x20 DUP1 SWAP2 DIV MUL PUSH1 0x20 ADD PUSH1 0x40 MLOAD SWAP1 DUP2 ADD PUSH1 0x40 MSTORE DUP1 SWAP3 SWAP2 SWAP1 DUP2 DUP2 MSTORE PUSH1 0x20 ADD DUP3 DUP1 SLOAD PUSH2 0x1F19 SWAP1 PUSH2 0x491A JUMP JUMPDEST DUP1 ISZERO PUSH2 0x1F66 JUMPI DUP1 PUSH1 0x1F LT PUSH2 0x1F3B JUMPI PUSH2 0x100 DUP1 DUP4 SLOAD DIV MUL DUP4 MSTORE SWAP2 PUSH1 0x20 ADD SWAP2 PUSH2 0x1F66 JUMP JUMPDEST DUP3 ADD SWAP2 SWAP1 PUSH1 0x0 MSTORE PUSH1 0x20 PUSH1 0x0 KECCAK256 SWAP1 JUMPDEST DUP2 SLOAD DUP2 MSTORE SWAP1 PUSH1 0x1 ADD SWAP1 PUSH1 0x20 ADD DUP1 DUP4 GT PUSH2 0x1F49 JUMPI DUP3 SWAP1 SUB PUSH1 0x1F AND DUP3 ADD SWAP2 JUMPDEST POP POP POP POP POP SWAP1 POP PUSH1 0x0 PUSH2 0x1F77 PUSH2 0x2EF0 JUMP JUMPDEST SWAP1 POP PUSH1 0x0 DUP2 MLOAD SUB PUSH2 0x1F8C JUMPI DUP2 SWAP3 POP POP POP PUSH2 0x1FAE JUMP JUMPDEST PUSH1 0x0 DUP3 MLOAD GT ISZERO PUSH2 0x1FA0 JUMPI DUP2 SWAP3 POP POP POP PUSH2 0x1FAE JUMP JUMPDEST PUSH2 0x1FA9 DUP5 PUSH2 0x2F82 JUMP JUMPDEST SWAP3 POP POP POP JUMPDEST SWAP2 SWAP1 POP JUMP JUMPDEST PUSH2 0x1FBC DUP3 PUSH2 0xE36 JUMP JUMPDEST PUSH2 0x1FC5 DUP2 PUSH2 0x27E7 JUMP JUMPDEST PUSH2 0x1FCF DUP4 DUP4 PUSH2 0x28F4 JUMP JUMPDEST POP POP POP JUMP JUMPDEST PUSH1 0x18 DUP2 PUSH1 0x9 DUP2 LT PUSH2 0x1FE4 JUMPI PUSH1 0x0 DUP1 REVERT JUMPDEST PUSH1 0x20 SWAP2 DUP3 DUP3 DIV ADD SWAP2 SWAP1 MOD SWAP2 POP SLOAD SWAP1 PUSH2 0x100 EXP SWAP1 DIV PUSH1 0xFF AND DUP2 JUMP JUMPDEST PUSH1 0x13 PUSH1 0x20 MSTORE DUP1 PUSH1 0x0 MSTORE PUSH1 0x40 PUSH1 0x0 KECCAK256 PUSH1 0x0 SWAP2 POP SWAP1 POP DUP1 PUSH1 0x0 ADD PUSH1 0x0 SWAP1 SLOAD SWAP1 PUSH2 0x100 EXP SWAP1 DIV PUSH20 0xFFFFFFFFFFFFFFFFFFFFFFFFFFFFFFFFFFFFFFFF AND SWAP1 DUP1 PUSH1 0x1 ADD SLOAD SWAP1 POP DUP3 JUMP JUMPDEST PUSH1 0x0 PUSH1 0x13 PUSH1 0x0 DUP4 DUP2 MSTORE PUSH1 0x20 ADD SWAP1 DUP2 MSTORE PUSH1 0x20 ADD PUSH1 0x0 KECCAK256 PUSH1 0x40 MLOAD DUP1 PUSH1 0x40 ADD PUSH1 0x40 MSTORE SWAP1 DUP2 PUSH1 0x0 DUP3 ADD PUSH1 0x0 SWAP1 SLOAD SWAP1 PUSH2 0x100 EXP SWAP1 DIV PUSH20 0xFFFFFFFFFFFFFFFFFFFFFFFFFFFFFFFFFFFFFFFF AND PUSH20 0xFFFFFFFFFFFFFFFFFFFFFFFFFFFFFFFFFFFFFFFF AND PUSH20 0xFFFFFFFFFFFFFFFFFFFFFFFFFFFFFFFFFFFFFFFF AND DUP2 MSTORE PUSH1 0x20 ADD PUSH1 0x1 DUP3 ADD SLOAD DUP2 MSTORE POP POP SWAP1 POP PUSH1 0x0 DUP2 PUSH1 0x20 ADD MLOAD GT PUSH2 0x210B JUMPI PUSH1 0x40 MLOAD PUSH32 0x8C379A000000000000000000000000000000000000000000000000000000000 DUP2 MSTORE PUSH1 0x4 ADD PUSH2 0x2102 SWAP1 PUSH2 0x522A JUMP JUMPDEST PUSH1 0x40 MLOAD DUP1 SWAP2 SUB SWAP1 REVERT JUMPDEST DUP1 PUSH1 0x20 ADD MLOAD CALLVALUE EQ PUSH2 0x2151 JUMPI PUSH1 0x40 MLOAD PUSH32 0x8C379A000000000000000000000000000000000000000000000000000000000 DUP2 MSTORE PUSH1 0x4 ADD PUSH2 0x2148 SWAP1 PUSH2 0x5296 JUMP JUMPDEST PUSH1 0x40 MLOAD DUP1 SWAP2 SUB SWAP1 REVERT JUMPDEST PUSH1 0x13 PUSH1 0x0 DUP4 DUP2 MSTORE PUSH1 0x20 ADD SWAP1 DUP2 MSTORE PUSH1 0x20 ADD PUSH1 0x0 KECCAK256 PUSH1 0x0 DUP1 DUP3 ADD PUSH1 0x0 PUSH2 0x100 EXP DUP2 SLOAD SWAP1 PUSH20 0xFFFFFFFFFFFFFFFFFFFFFFFFFFFFFFFFFFFFFFFF MUL NOT AND SWAP1 SSTORE PUSH1 0x1 DUP3 ADD PUSH1 0x0 SWAP1 SSTORE POP POP PUSH2 0x21A1 ADDRESS CALLER DUP5 PUSH2 0x28DC JUMP JUMPDEST DUP1 PUSH1 0x0 ADD MLOAD PUSH20 0xFFFFFFFFFFFFFFFFFFFFFFFFFFFFFFFFFFFFFFFF AND PUSH2 0x8FC CALLVALUE SWAP1 DUP2 ISZERO MUL SWAP1 PUSH1 0x40 MLOAD PUSH1 0x0 PUSH1 0x40 MLOAD DUP1 DUP4 SUB DUP2 DUP6 DUP9 DUP9 CALL SWAP4 POP POP POP POP ISZERO DUP1 ISZERO PUSH2 0x21EB JUMPI RETURNDATASIZE PUSH1 0x0 DUP1 RETURNDATACOPY RETURNDATASIZE PUSH1 0x0 REVERT JUMPDEST POP CALLER PUSH20 0xFFFFFFFFFFFFFFFFFFFFFFFFFFFFFFFFFFFFFFFF AND DUP3 PUSH32 0xA574C741071BB18F51FA88C17AEEFEC514BEBF670CA22A3736FBA6504ECBB763 DUP4 PUSH1 0x20 ADD MLOAD PUSH1 0x40 MLOAD PUSH2 0x2237 SWAP2 SWAP1 PUSH2 0x4360 JUMP JUMPDEST PUSH1 0x40 MLOAD DUP1 SWAP2 SUB SWAP1 LOG3 POP POP JUMP JUMPDEST PUSH2 0x224B PUSH2 0x29D6 JUMP JUMPDEST PUSH1 0x0 PUSH20 0xFFFFFFFFFFFFFFFFFFFFFFFFFFFFFFFFFFFFFFFF AND DUP2 PUSH20 0xFFFFFFFFFFFFFFFFFFFFFFFFFFFFFFFFFFFFFFFF AND SUB PUSH2 0x2284 JUMPI PUSH1 0x0 DUP1 REVERT JUMPDEST PUSH2 0x228D DUP2 PUSH2 0x2A91 JUMP JUMPDEST POP JUMP JUMPDEST PUSH1 0x60 PUSH1 0xD PUSH1 0x0 DUP4 DUP2 MSTORE PUSH1 0x20 ADD SWAP1 DUP2 MSTORE PUSH1 0x20 ADD PUSH1 0x0 KECCAK256 DUP1 SLOAD PUSH2 0x22B0 SWAP1 PUSH2 0x491A JUMP JUMPDEST DUP1 PUSH1 0x1F ADD PUSH1 0x20 DUP1 SWAP2 DIV MUL PUSH1 0x20 ADD PUSH1 0x40 MLOAD SWAP1 DUP2 ADD PUSH1 0x40 MSTORE DUP1 SWAP3 SWAP2 SWAP1 DUP2 DUP2 MSTORE PUSH1 0x20 ADD DUP3 DUP1 SLOAD PUSH2 0x22DC SWAP1 PUSH2 0x491A JUMP JUMPDEST DUP1 ISZERO PUSH2 0x2329 JUMPI DUP1 PUSH1 0x1F LT PUSH2 0x22FE JUMPI PUSH2 0x100 DUP1 DUP4 SLOAD DIV MUL DUP4 MSTORE SWAP2 PUSH1 0x20 ADD SWAP2 PUSH2 0x2329 JUMP JUMPDEST DUP3 ADD SWAP2 SWAP1 PUSH1 0x0 MSTORE PUSH1 0x20 PUSH1 0x0 KECCAK256 SWAP1 JUMPDEST DUP2 SLOAD DUP2 MSTORE SWAP1 PUSH1 0x1 ADD SWAP1 PUSH1 0x20 ADD DUP1 DUP4 GT PUSH2 0x230C JUMPI DUP3 SWAP1 SUB PUSH1 0x1F AND DUP3 ADD SWAP2 JUMPDEST POP POP POP POP POP SWAP1 POP SWAP2 SWAP1 POP JUMP JUMPDEST PUSH2 0x235F PUSH32 0xA49807205CE4D355092EF5A8A18F56E8913CF4A201FBE287825B095693C21775 CALLER PUSH2 0x15F7 JUMP JUMPDEST PUSH2 0x239E JUMPI PUSH1 0x40 MLOAD PUSH32 0x8C379A000000000000000000000000000000000000000000000000000000000 DUP2 MSTORE PUSH1 0x4 ADD PUSH2 0x2395 SWAP1 PUSH2 0x49C6 JUMP JUMPDEST PUSH1 0x40 MLOAD DUP1 SWAP2 SUB SWAP1 REVERT JUMPDEST DUP1 PUSH1 0x12 DUP2 SWAP1 SSTORE POP POP JUMP JUMPDEST PUSH2 0x23D2 PUSH32 0xA49807205CE4D355092EF5A8A18F56E8913CF4A201FBE287825B095693C21775 CALLER PUSH2 0x15F7 JUMP JUMPDEST PUSH2 0x2411 JUMPI PUSH1 0x40 MLOAD PUSH32 0x8C379A000000000000000000000000000000000000000000000000000000000 DUP2 MSTORE PUSH1 0x4 ADD PUSH2 0x2408 SWAP1 PUSH2 0x49C6 JUMP JUMPDEST PUSH1 0x40 MLOAD DUP1 SWAP2 SUB SWAP1 REVERT JUMPDEST PUSH1 0x14 DUP1 SLOAD SWAP1 POP DUP3 LT PUSH2 0x2422 JUMPI PUSH1 0x0 DUP1 REVERT JUMPDEST PUSH1 0x15 DUP3 DUP2 SLOAD DUP2 LT PUSH2 0x2436 JUMPI PUSH2 0x2435 PUSH2 0x494B JUMP JUMPDEST JUMPDEST SWAP1 PUSH1 0x0 MSTORE PUSH1 0x20 PUSH1 0x0 KECCAK256 ADD SLOAD DUP2 LT ISZERO PUSH2 0x244D JUMPI PUSH1 0x0 DUP1 REVERT JUMPDEST DUP1 PUSH1 0x14 DUP4 DUP2 SLOAD DUP2 LT PUSH2 0x2462 JUMPI PUSH2 0x2461 PUSH2 0x494B JUMP JUMPDEST JUMPDEST SWAP1 PUSH1 0x0 MSTORE PUSH1 0x20 PUSH1 0x0 KECCAK256 ADD DUP2 SWAP1 SSTORE POP POP POP JUMP JUMPDEST PUSH1 0x0 PUSH32 0x7965DB0B00000000000000000000000000000000000000000000000000000000 PUSH28 0xFFFFFFFFFFFFFFFFFFFFFFFFFFFFFFFFFFFFFFFFFFFFFFFFFFFFFFFF NOT AND DUP3 PUSH28 0xFFFFFFFFFFFFFFFFFFFFFFFFFFFFFFFFFFFFFFFFFFFFFFFFFFFFFFFF NOT AND EQ DUP1 PUSH2 0x24E7 JUMPI POP PUSH2 0x24E6 DUP3 PUSH2 0x2FEA JUMP JUMPDEST JUMPDEST SWAP1 POP SWAP2 SWAP1 POP JUMP JUMPDEST DUP3 PUSH20 0xFFFFFFFFFFFFFFFFFFFFFFFFFFFFFFFFFFFFFFFF AND PUSH2 0x250E DUP3 PUSH2 0x1226 JUMP JUMPDEST PUSH20 0xFFFFFFFFFFFFFFFFFFFFFFFFFFFFFFFFFFFFFFFF AND EQ PUSH2 0x2564 JUMPI PUSH1 0x40 MLOAD PUSH32 0x8C379A000000000000000000000000000000000000000000000000000000000 DUP2 MSTORE PUSH1 0x4 ADD PUSH2 0x255B SWAP1 PUSH2 0x5328 JUMP JUMPDEST PUSH1 0x40 MLOAD DUP1 SWAP2 SUB SWAP1 REVERT JUMPDEST PUSH1 0x0 PUSH20 0xFFFFFFFFFFFFFFFFFFFFFFFFFFFFFFFFFFFFFFFF AND DUP3 PUSH20 0xFFFFFFFFFFFFFFFFFFFFFFFFFFFFFFFFFFFFFFFF AND SUB PUSH2 0x25D3 JUMPI PUSH1 0x40 MLOAD PUSH32 0x8C379A000000000000000000000000000000000000000000000000000000000 DUP2 MSTORE PUSH1 0x4 ADD PUSH2 0x25CA SWAP1 PUSH2 0x53BA JUMP JUMPDEST PUSH1 0x40 MLOAD DUP1 SWAP2 SUB SWAP1 REVERT JUMPDEST PUSH2 0x25E0 DUP4 DUP4 DUP4 PUSH1 0x1 PUSH2 0x30CC JUMP JUMPDEST DUP3 PUSH20 0xFFFFFFFFFFFFFFFFFFFFFFFFFFFFFFFFFFFFFFFF AND PUSH2 0x2600 DUP3 PUSH2 0x1226 JUMP JUMPDEST PUSH20 0xFFFFFFFFFFFFFFFFFFFFFFFFFFFFFFFFFFFFFFFF AND EQ PUSH2 0x2656 JUMPI PUSH1 0x40 MLOAD PUSH32 0x8C379A000000000000000000000000000000000000000000000000000000000 DUP2 MSTORE PUSH1 0x4 ADD PUSH2 0x264D SWAP1 PUSH2 0x5328 JUMP JUMPDEST PUSH1 0x40 MLOAD DUP1 SWAP2 SUB SWAP1 REVERT JUMPDEST PUSH1 0x5 PUSH1 0x0 DUP3 DUP2 MSTORE PUSH1 0x20 ADD SWAP1 DUP2 MSTORE PUSH1 0x20 ADD PUSH1 0x0 KECCAK256 PUSH1 0x0 PUSH2 0x100 EXP DUP2 SLOAD SWAP1 PUSH20 0xFFFFFFFFFFFFFFFFFFFFFFFFFFFFFFFFFFFFFFFF MUL NOT AND SWAP1 SSTORE PUSH1 0x1 PUSH1 0x4 PUSH1 0x0 DUP6 PUSH20 0xFFFFFFFFFFFFFFFFFFFFFFFFFFFFFFFFFFFFFFFF AND PUSH20 0xFFFFFFFFFFFFFFFFFFFFFFFFFFFFFFFFFFFFFFFF AND DUP2 MSTORE PUSH1 0x20 ADD SWAP1 DUP2 MSTORE PUSH1 0x20 ADD PUSH1 0x0 KECCAK256 PUSH1 0x0 DUP3 DUP3 SLOAD SUB SWAP3 POP POP DUP2 SWAP1 SSTORE POP PUSH1 0x1 PUSH1 0x4 PUSH1 0x0 DUP5 PUSH20 0xFFFFFFFFFFFFFFFFFFFFFFFFFFFFFFFFFFFFFFFF AND PUSH20 0xFFFFFFFFFFFFFFFFFFFFFFFFFFFFFFFFFFFFFFFF AND DUP2 MSTORE PUSH1 0x20 ADD SWAP1 DUP2 MSTORE PUSH1 0x20 ADD PUSH1 0x0 KECCAK256 PUSH1 0x0 DUP3 DUP3 SLOAD ADD SWAP3 POP POP DUP2 SWAP1 SSTORE POP DUP2 PUSH1 0x3 PUSH1 0x0 DUP4 DUP2 MSTORE PUSH1 0x20 ADD SWAP1 DUP2 MSTORE PUSH1 0x20 ADD PUSH1 0x0 KECCAK256 PUSH1 0x0 PUSH2 0x100 EXP DUP2 SLOAD DUP2 PUSH20 0xFFFFFFFFFFFFFFFFFFFFFFFFFFFFFFFFFFFFFFFF MUL NOT AND SWAP1 DUP4 PUSH20 0xFFFFFFFFFFFFFFFFFFFFFFFFFFFFFFFFFFFFFFFF AND MUL OR SWAP1 SSTORE POP DUP1 DUP3 PUSH20 0xFFFFFFFFFFFFFFFFFFFFFFFFFFFFFFFFFFFFFFFF AND DUP5 PUSH20 0xFFFFFFFFFFFFFFFFFFFFFFFFFFFFFFFFFFFFFFFF AND PUSH32 0xDDF252AD1BE2C89B69C2B068FC378DAA952BA7F163C4A11628F55A4DF523B3EF PUSH1 0x40 MLOAD PUSH1 0x40 MLOAD DUP1 SWAP2 SUB SWAP1 LOG4 PUSH2 0x27E2 DUP4 DUP4 DUP4 PUSH1 0x1 PUSH2 0x322A JUMP JUMPDEST POP POP POP JUMP JUMPDEST PUSH2 0x27F8 DUP2 PUSH2 0x27F3 PUSH2 0x28EC JUMP JUMPDEST PUSH2 0x3230 JUMP JUMPDEST POP JUMP JUMPDEST PUSH2 0x2805 DUP3 DUP3 PUSH2 0x15F7 JUMP JUMPDEST PUSH2 0x28D8 JUMPI PUSH1 0x1 PUSH1 0x6 PUSH1 0x0 DUP5 DUP2 MSTORE PUSH1 0x20 ADD SWAP1 DUP2 MSTORE PUSH1 0x20 ADD PUSH1 0x0 KECCAK256 PUSH1 0x0 ADD PUSH1 0x0 DUP4 PUSH20 0xFFFFFFFFFFFFFFFFFFFFFFFFFFFFFFFFFFFFFFFF AND PUSH20 0xFFFFFFFFFFFFFFFFFFFFFFFFFFFFFFFFFFFFFFFF AND DUP2 MSTORE PUSH1 0x20 ADD SWAP1 DUP2 MSTORE PUSH1 0x20 ADD PUSH1 0x0 KECCAK256 PUSH1 0x0 PUSH2 0x100 EXP DUP2 SLOAD DUP2 PUSH1 0xFF MUL NOT AND SWAP1 DUP4 ISZERO ISZERO MUL OR SWAP1 SSTORE POP PUSH2 0x287D PUSH2 0x28EC JUMP JUMPDEST PUSH20 0xFFFFFFFFFFFFFFFFFFFFFFFFFFFFFFFFFFFFFFFF AND DUP2 PUSH20 0xFFFFFFFFFFFFFFFFFFFFFFFFFFFFFFFFFFFFFFFF AND DUP4 PUSH32 0x2F8788117E7EFF1D82E926EC794901D17C78024A50270940304540A733656F0D PUSH1 0x40 MLOAD PUSH1 0x40 MLOAD DUP1 SWAP2 SUB SWAP1 LOG4 JUMPDEST POP POP JUMP JUMPDEST PUSH2 0x28E7 DUP4 DUP4 DUP4 PUSH2 0x24EE JUMP JUMPDEST POP POP POP JUMP JUMPDEST PUSH1 0x0 CALLER SWAP1 POP SWAP1 JUMP JUMPDEST PUSH2 0x28FE DUP3 DUP3 PUSH2 0x15F7 JUMP JUMPDEST ISZERO PUSH2 0x29D2 JUMPI PUSH1 0x0 PUSH1 0x6 PUSH1 0x0 DUP5 DUP2 MSTORE PUSH1 0x20 ADD SWAP1 DUP2 MSTORE PUSH1 0x20 ADD PUSH1 0x0 KECCAK256 PUSH1 0x0 ADD PUSH1 0x0 DUP4 PUSH20 0xFFFFFFFFFFFFFFFFFFFFFFFFFFFFFFFFFFFFFFFF AND PUSH20 0xFFFFFFFFFFFFFFFFFFFFFFFFFFFFFFFFFFFFFFFF AND DUP2 MSTORE PUSH1 0x20 ADD SWAP1 DUP2 MSTORE PUSH1 0x20 ADD PUSH1 0x0 KECCAK256 PUSH1 0x0 PUSH2 0x100 EXP DUP2 SLOAD DUP2 PUSH1 0xFF MUL NOT AND SWAP1 DUP4 ISZERO ISZERO MUL OR SWAP1 SSTORE POP PUSH2 0x2977 PUSH2 0x28EC JUMP JUMPDEST PUSH20 0xFFFFFFFFFFFFFFFFFFFFFFFFFFFFFFFFFFFFFFFF AND DUP2 PUSH20 0xFFFFFFFFFFFFFFFFFFFFFFFFFFFFFFFFFFFFFFFF AND DUP4 PUSH32 0xF6391F5C32D9C69D2A47EA670B442974B53935D1EDC7FD64EB21E047A839171B PUSH1 0x40 MLOAD PUSH1 0x40 MLOAD DUP1 SWAP2 SUB SWAP1 LOG4 JUMPDEST POP POP JUMP JUMPDEST PUSH2 0x29DE PUSH2 0x28EC JUMP JUMPDEST PUSH20 0xFFFFFFFFFFFFFFFFFFFFFFFFFFFFFFFFFFFFFFFF AND PUSH2 0x29FC PUSH2 0x15CE JUMP JUMPDEST PUSH20 0xFFFFFFFFFFFFFFFFFFFFFFFFFFFFFFFFFFFFFFFF AND EQ PUSH2 0x2A52 JUMPI PUSH1 0x40 MLOAD PUSH32 0x8C379A000000000000000000000000000000000000000000000000000000000 DUP2 MSTORE PUSH1 0x4 ADD PUSH2 0x2A49 SWAP1 PUSH2 0x5426 JUMP JUMPDEST PUSH1 0x40 MLOAD DUP1 SWAP2 SUB SWAP1 REVERT JUMPDEST JUMP JUMPDEST PUSH1 0x0 PUSH1 0x3 PUSH1 0x0 DUP4 DUP2 MSTORE PUSH1 0x20 ADD SWAP1 DUP2 MSTORE PUSH1 0x20 ADD PUSH1 0x0 KECCAK256 PUSH1 0x0 SWAP1 SLOAD SWAP1 PUSH2 0x100 EXP SWAP1 DIV PUSH20 0xFFFFFFFFFFFFFFFFFFFFFFFFFFFFFFFFFFFFFFFF AND SWAP1 POP SWAP2 SWAP1 POP JUMP JUMPDEST PUSH1 0x0 DUP1 PUSH1 0x0 SWAP1 SLOAD SWAP1 PUSH2 0x100 EXP SWAP1 DIV PUSH20 0xFFFFFFFFFFFFFFFFFFFFFFFFFFFFFFFFFFFFFFFF AND SWAP1 POP DUP2 PUSH1 0x0 DUP1 PUSH2 0x100 EXP DUP2 SLOAD DUP2 PUSH20 0xFFFFFFFFFFFFFFFFFFFFFFFFFFFFFFFFFFFFFFFF MUL NOT AND SWAP1 DUP4 PUSH20 0xFFFFFFFFFFFFFFFFFFFFFFFFFFFFFFFFFFFFFFFF AND MUL OR SWAP1 SSTORE POP DUP2 PUSH20 0xFFFFFFFFFFFFFFFFFFFFFFFFFFFFFFFFFFFFFFFF AND DUP2 PUSH20 0xFFFFFFFFFFFFFFFFFFFFFFFFFFFFFFFFFFFFFFFF AND PUSH32 0x8BE0079C531659141344CD1FD0A4F28419497F9722A3DAAFE3B4186F6B6457E0 PUSH1 0x40 MLOAD PUSH1 0x40 MLOAD DUP1 SWAP2 SUB SWAP1 LOG3 POP POP JUMP JUMPDEST PUSH1 0x0 TIMESTAMP PREVRANDAO NUMBER CALLER GAS SELFBALANCE PUSH1 0x40 MLOAD PUSH1 0x20 ADD PUSH2 0x2B72 SWAP7 SWAP6 SWAP5 SWAP4 SWAP3 SWAP2 SWAP1 PUSH2 0x54AF JUMP JUMPDEST PUSH1 0x40 MLOAD PUSH1 0x20 DUP2 DUP4 SUB SUB DUP2 MSTORE SWAP1 PUSH1 0x40 MSTORE DUP1 MLOAD SWAP1 PUSH1 0x20 ADD KECCAK256 PUSH1 0x0 SHR SWAP1 POP SWAP1 JUMP JUMPDEST PUSH1 0x0 DUP2 PUSH1 0x0 ADD SLOAD SWAP1 POP SWAP2 SWAP1 POP JUMP JUMPDEST PUSH1 0x1 DUP2 PUSH1 0x0 ADD PUSH1 0x0 DUP3 DUP3 SLOAD ADD SWAP3 POP POP DUP2 SWAP1 SSTORE POP POP JUMP JUMPDEST PUSH1 0x60 PUSH1 0xA DUP3 PUSH1 0xFF AND LT ISZERO PUSH2 0x2BF1 JUMPI PUSH2 0x2BCB DUP3 PUSH2 0x32B5 JUMP JUMPDEST PUSH1 0x40 MLOAD PUSH1 0x20 ADD PUSH2 0x2BDB SWAP2 SWAP1 PUSH2 0x556B JUMP JUMPDEST PUSH1 0x40 MLOAD PUSH1 0x20 DUP2 DUP4 SUB SUB DUP2 MSTORE SWAP1 PUSH1 0x40 MSTORE SWAP1 POP PUSH2 0x2BFD JUMP JUMPDEST PUSH2 0x2BFA DUP3 PUSH2 0x32B5 JUMP JUMPDEST SWAP1 POP JUMPDEST SWAP2 SWAP1 POP JUMP JUMPDEST PUSH1 0x0 PUSH20 0xFFFFFFFFFFFFFFFFFFFFFFFFFFFFFFFFFFFFFFFF AND DUP3 PUSH20 0xFFFFFFFFFFFFFFFFFFFFFFFFFFFFFFFFFFFFFFFF AND SUB PUSH2 0x2C71 JUMPI PUSH1 0x40 MLOAD PUSH32 0x8C379A000000000000000000000000000000000000000000000000000000000 DUP2 MSTORE PUSH1 0x4 ADD PUSH2 0x2C68 SWAP1 PUSH2 0x55D9 JUMP JUMPDEST PUSH1 0x40 MLOAD DUP1 SWAP2 SUB SWAP1 REVERT JUMPDEST PUSH2 0x2C7A DUP2 PUSH2 0x2EAF JUMP JUMPDEST ISZERO PUSH2 0x2CBA JUMPI PUSH1 0x40 MLOAD PUSH32 0x8C379A000000000000000000000000000000000000000000000000000000000 DUP2 MSTORE PUSH1 0x4 ADD PUSH2 0x2CB1 SWAP1 PUSH2 0x5645 JUMP JUMPDEST PUSH1 0x40 MLOAD DUP1 SWAP2 SUB SWAP1 REVERT JUMPDEST PUSH2 0x2CC8 PUSH1 0x0 DUP4 DUP4 PUSH1 0x1 PUSH2 0x30CC JUMP JUMPDEST PUSH2 0x2CD1 DUP2 PUSH2 0x2EAF JUMP JUMPDEST ISZERO PUSH2 0x2D11 JUMPI PUSH1 0x40 MLOAD PUSH32 0x8C379A000000000000000000000000000000000000000000000000000000000 DUP2 MSTORE PUSH1 0x4 ADD PUSH2 0x2D08 SWAP1 PUSH2 0x5645 JUMP JUMPDEST PUSH1 0x40 MLOAD DUP1 SWAP2 SUB SWAP1 REVERT JUMPDEST PUSH1 0x1 PUSH1 0x4 PUSH1 0x0 DUP5 PUSH20 0xFFFFFFFFFFFFFFFFFFFFFFFFFFFFFFFFFFFFFFFF AND PUSH20 0xFFFFFFFFFFFFFFFFFFFFFFFFFFFFFFFFFFFFFFFF AND DUP2 MSTORE PUSH1 0x20 ADD SWAP1 DUP2 MSTORE PUSH1 0x20 ADD PUSH1 0x0 KECCAK256 PUSH1 0x0 DUP3 DUP3 SLOAD ADD SWAP3 POP POP DUP2 SWAP1 SSTORE POP DUP2 PUSH1 0x3 PUSH1 0x0 DUP4 DUP2 MSTORE PUSH1 0x20 ADD SWAP1 DUP2 MSTORE PUSH1 0x20 ADD PUSH1 0x0 KECCAK256 PUSH1 0x0 PUSH2 0x100 EXP DUP2 SLOAD DUP2 PUSH20 0xFFFFFFFFFFFFFFFFFFFFFFFFFFFFFFFFFFFFFFFF MUL NOT AND SWAP1 DUP4 PUSH20 0xFFFFFFFFFFFFFFFFFFFFFFFFFFFFFFFFFFFFFFFF AND MUL OR SWAP1 SSTORE POP DUP1 DUP3 PUSH20 0xFFFFFFFFFFFFFFFFFFFFFFFFFFFFFFFFFFFFFFFF AND PUSH1 0x0 PUSH20 0xFFFFFFFFFFFFFFFFFFFFFFFFFFFFFFFFFFFFFFFF AND PUSH32 0xDDF252AD1BE2C89B69C2B068FC378DAA952BA7F163C4A11628F55A4DF523B3EF PUSH1 0x40 MLOAD PUSH1 0x40 MLOAD DUP1 SWAP2 SUB SWAP1 LOG4 PUSH2 0x2E1B PUSH1 0x0 DUP4 DUP4 PUSH1 0x1 PUSH2 0x322A JUMP JUMPDEST POP POP JUMP JUMPDEST PUSH2 0x2E28 DUP3 PUSH2 0x2EAF JUMP JUMPDEST PUSH2 0x2E31 JUMPI PUSH1 0x0 DUP1 REVERT JUMPDEST PUSH1 0x11 DUP2 PUSH1 0x40 MLOAD PUSH1 0x20 ADD PUSH2 0x2E45 SWAP3 SWAP2 SWAP1 PUSH2 0x5734 JUMP JUMPDEST PUSH1 0x40 MLOAD PUSH1 0x20 DUP2 DUP4 SUB SUB DUP2 MSTORE SWAP1 PUSH1 0x40 MSTORE PUSH1 0xA PUSH1 0x0 DUP5 DUP2 MSTORE PUSH1 0x20 ADD SWAP1 DUP2 MSTORE PUSH1 0x20 ADD PUSH1 0x0 KECCAK256 SWAP1 DUP2 PUSH2 0x2E73 SWAP2 SWAP1 PUSH2 0x4BFE JUMP JUMPDEST POP PUSH32 0xF8E1A15ABA9398E019F0B49DF1A4FDE98EE17AE345CB5F6B5E2C27F5033E8CE7 DUP3 PUSH1 0x40 MLOAD PUSH2 0x2EA3 SWAP2 SWAP1 PUSH2 0x4360 JUMP JUMPDEST PUSH1 0x40 MLOAD DUP1 SWAP2 SUB SWAP1 LOG1 POP POP JUMP JUMPDEST PUSH1 0x0 DUP1 PUSH20 0xFFFFFFFFFFFFFFFFFFFFFFFFFFFFFFFFFFFFFFFF AND PUSH2 0x2ED1 DUP4 PUSH2 0x2A54 JUMP JUMPDEST PUSH20 0xFFFFFFFFFFFFFFFFFFFFFFFFFFFFFFFFFFFFFFFF AND EQ ISZERO SWAP1 POP SWAP2 SWAP1 POP JUMP JUMPDEST PUSH1 0x60 PUSH1 0x11 DUP1 SLOAD PUSH2 0x2EFF SWAP1 PUSH2 0x491A JUMP JUMPDEST DUP1 PUSH1 0x1F ADD PUSH1 0x20 DUP1 SWAP2 DIV MUL PUSH1 0x20 ADD PUSH1 0x40 MLOAD SWAP1 DUP2 ADD PUSH1 0x40 MSTORE DUP1 SWAP3 SWAP2 SWAP1 DUP2 DUP2 MSTORE PUSH1 0x20 ADD DUP3 DUP1 SLOAD PUSH2 0x2F2B SWAP1 PUSH2 0x491A JUMP JUMPDEST DUP1 ISZERO PUSH2 0x2F78 JUMPI DUP1 PUSH1 0x1F LT PUSH2 0x2F4D JUMPI PUSH2 0x100 DUP1 DUP4 SLOAD DIV MUL DUP4 MSTORE SWAP2 PUSH1 0x20 ADD SWAP2 PUSH2 0x2F78 JUMP JUMPDEST DUP3 ADD SWAP2 SWAP1 PUSH1 0x0 MSTORE PUSH1 0x20 PUSH1 0x0 KECCAK256 SWAP1 JUMPDEST DUP2 SLOAD DUP2 MSTORE SWAP1 PUSH1 0x1 ADD SWAP1 PUSH1 0x20 ADD DUP1 DUP4 GT PUSH2 0x2F5B JUMPI DUP3 SWAP1 SUB PUSH1 0x1F AND DUP3 ADD SWAP2 JUMPDEST POP POP POP POP POP SWAP1 POP SWAP1 JUMP JUMPDEST PUSH1 0x60 PUSH2 0x2F8D DUP3 PUSH2 0x3427 JUMP JUMPDEST PUSH1 0x0 PUSH2 0x2F97 PUSH2 0x2EF0 JUMP JUMPDEST SWAP1 POP PUSH1 0x0 DUP2 MLOAD GT PUSH2 0x2FB7 JUMPI PUSH1 0x40 MLOAD DUP1 PUSH1 0x20 ADD PUSH1 0x40 MSTORE DUP1 PUSH1 0x0 DUP2 MSTORE POP PUSH2 0x2FE2 JUMP JUMPDEST DUP1 PUSH2 0x2FC1 DUP5 PUSH2 0x3472 JUMP JUMPDEST PUSH1 0x40 MLOAD PUSH1 0x20 ADD PUSH2 0x2FD2 SWAP3 SWAP2 SWAP1 PUSH2 0x5763 JUMP JUMPDEST PUSH1 0x40 MLOAD PUSH1 0x20 DUP2 DUP4 SUB SUB DUP2 MSTORE SWAP1 PUSH1 0x40 MSTORE JUMPDEST SWAP2 POP POP SWAP2 SWAP1 POP JUMP JUMPDEST PUSH1 0x0 PUSH32 0x304AD1F200000000000000000000000000000000000000000000000000000000 PUSH28 0xFFFFFFFFFFFFFFFFFFFFFFFFFFFFFFFFFFFFFFFFFFFFFFFFFFFFFFFF NOT AND DUP3 PUSH28 0xFFFFFFFFFFFFFFFFFFFFFFFFFFFFFFFFFFFFFFFFFFFFFFFFFFFFFFFF NOT AND EQ DUP1 PUSH2 0x30B5 JUMPI POP PUSH32 0x5B5E139F00000000000000000000000000000000000000000000000000000000 PUSH28 0xFFFFFFFFFFFFFFFFFFFFFFFFFFFFFFFFFFFFFFFFFFFFFFFFFFFFFFFF NOT AND DUP3 PUSH28 0xFFFFFFFFFFFFFFFFFFFFFFFFFFFFFFFFFFFFFFFFFFFFFFFFFFFFFFFF NOT AND EQ JUMPDEST DUP1 PUSH2 0x30C5 JUMPI POP PUSH2 0x30C4 DUP3 PUSH2 0x3540 JUMP JUMPDEST JUMPDEST SWAP1 POP SWAP2 SWAP1 POP JUMP JUMPDEST PUSH2 0x30D8 DUP5 DUP5 DUP5 DUP5 PUSH2 0x35AA JUMP JUMPDEST PUSH1 0x1 DUP2 GT ISZERO PUSH2 0x311C JUMPI PUSH1 0x40 MLOAD PUSH32 0x8C379A000000000000000000000000000000000000000000000000000000000 DUP2 MSTORE PUSH1 0x4 ADD PUSH2 0x3113 SWAP1 PUSH2 0x57F9 JUMP JUMPDEST PUSH1 0x40 MLOAD DUP1 SWAP2 SUB SWAP1 REVERT JUMPDEST PUSH1 0x0 DUP3 SWAP1 POP PUSH1 0x0 PUSH20 0xFFFFFFFFFFFFFFFFFFFFFFFFFFFFFFFFFFFFFFFF AND DUP6 PUSH20 0xFFFFFFFFFFFFFFFFFFFFFFFFFFFFFFFFFFFFFFFF AND SUB PUSH2 0x3163 JUMPI PUSH2 0x315E DUP2 PUSH2 0x35B0 JUMP JUMPDEST PUSH2 0x31A2 JUMP JUMPDEST DUP4 PUSH20 0xFFFFFFFFFFFFFFFFFFFFFFFFFFFFFFFFFFFFFFFF AND DUP6 PUSH20 0xFFFFFFFFFFFFFFFFFFFFFFFFFFFFFFFFFFFFFFFF AND EQ PUSH2 0x31A1 JUMPI PUSH2 0x31A0 DUP6 DUP3 PUSH2 0x35F9 JUMP JUMPDEST JUMPDEST JUMPDEST PUSH1 0x0 PUSH20 0xFFFFFFFFFFFFFFFFFFFFFFFFFFFFFFFFFFFFFFFF AND DUP5 PUSH20 0xFFFFFFFFFFFFFFFFFFFFFFFFFFFFFFFFFFFFFFFF AND SUB PUSH2 0x31E4 JUMPI PUSH2 0x31DF DUP2 PUSH2 0x3766 JUMP JUMPDEST PUSH2 0x3223 JUMP JUMPDEST DUP5 PUSH20 0xFFFFFFFFFFFFFFFFFFFFFFFFFFFFFFFFFFFFFFFF AND DUP5 PUSH20 0xFFFFFFFFFFFFFFFFFFFFFFFFFFFFFFFFFFFFFFFF AND EQ PUSH2 0x3222 JUMPI PUSH2 0x3221 DUP5 DUP3 PUSH2 0x3837 JUMP JUMPDEST JUMPDEST JUMPDEST POP POP POP POP POP JUMP JUMPDEST POP POP POP POP JUMP JUMPDEST PUSH2 0x323A DUP3 DUP3 PUSH2 0x15F7 JUMP JUMPDEST PUSH2 0x32B1 JUMPI PUSH2 0x3247 DUP2 PUSH2 0x38B6 JUMP JUMPDEST PUSH2 0x3255 DUP4 PUSH1 0x0 SHR PUSH1 0x20 PUSH2 0x38E3 JUMP JUMPDEST PUSH1 0x40 MLOAD PUSH1 0x20 ADD PUSH2 0x3266 SWAP3 SWAP2 SWAP1 PUSH2 0x58B1 JUMP JUMPDEST PUSH1 0x40 MLOAD PUSH1 0x20 DUP2 DUP4 SUB SUB DUP2 MSTORE SWAP1 PUSH1 0x40 MSTORE PUSH1 0x40 MLOAD PUSH32 0x8C379A000000000000000000000000000000000000000000000000000000000 DUP2 MSTORE PUSH1 0x4 ADD PUSH2 0x32A8 SWAP2 SWAP1 PUSH2 0x3F12 JUMP JUMPDEST PUSH1 0x40 MLOAD DUP1 SWAP2 SUB SWAP1 REVERT JUMPDEST POP POP JUMP JUMPDEST PUSH1 0x60 PUSH1 0x0 DUP3 PUSH1 0xFF AND SUB PUSH2 0x32FF JUMPI PUSH1 0x40 MLOAD DUP1 PUSH1 0x40 ADD PUSH1 0x40 MSTORE DUP1 PUSH1 0x1 DUP2 MSTORE PUSH1 0x20 ADD PUSH32 0x3000000000000000000000000000000000000000000000000000000000000000 DUP2 MSTORE POP SWAP1 POP PUSH2 0x3422 JUMP JUMPDEST PUSH1 0x0 DUP3 SWAP1 POP PUSH1 0x0 JUMPDEST PUSH1 0x0 DUP3 PUSH1 0xFF AND EQ PUSH2 0x3334 JUMPI DUP1 DUP1 PUSH2 0x331D SWAP1 PUSH2 0x5067 JUMP JUMPDEST SWAP2 POP POP PUSH1 0xA DUP3 PUSH2 0x332D SWAP2 SWAP1 PUSH2 0x58EB JUMP JUMPDEST SWAP2 POP PUSH2 0x3307 JUMP JUMPDEST PUSH1 0x0 DUP2 PUSH1 0xFF AND PUSH8 0xFFFFFFFFFFFFFFFF DUP2 GT ISZERO PUSH2 0x3353 JUMPI PUSH2 0x3352 PUSH2 0x3FD2 JUMP JUMPDEST JUMPDEST PUSH1 0x40 MLOAD SWAP1 DUP1 DUP3 MSTORE DUP1 PUSH1 0x1F ADD PUSH1 0x1F NOT AND PUSH1 0x20 ADD DUP3 ADD PUSH1 0x40 MSTORE DUP1 ISZERO PUSH2 0x3385 JUMPI DUP2 PUSH1 0x20 ADD PUSH1 0x1 DUP3 MUL DUP1 CALLDATASIZE DUP4 CALLDATACOPY DUP1 DUP3 ADD SWAP2 POP POP SWAP1 POP JUMPDEST POP SWAP1 POP PUSH1 0x0 DUP3 SWAP1 POP JUMPDEST PUSH1 0x0 DUP7 PUSH1 0xFF AND EQ PUSH2 0x341A JUMPI PUSH1 0xA DUP7 PUSH2 0x33A6 SWAP2 SWAP1 PUSH2 0x591C JUMP JUMPDEST PUSH1 0x30 PUSH2 0x33B2 SWAP2 SWAP1 PUSH2 0x594D JUMP JUMPDEST PUSH1 0xF8 SHL DUP3 DUP3 PUSH2 0x33C0 SWAP1 PUSH2 0x5982 JUMP JUMPDEST SWAP3 POP DUP3 PUSH1 0xFF AND DUP2 MLOAD DUP2 LT PUSH2 0x33D7 JUMPI PUSH2 0x33D6 PUSH2 0x494B JUMP JUMPDEST JUMPDEST PUSH1 0x20 ADD ADD SWAP1 PUSH31 0xFFFFFFFFFFFFFFFFFFFFFFFFFFFFFFFFFFFFFFFFFFFFFFFFFFFFFFFFFFFFFF NOT AND SWAP1 DUP2 PUSH1 0x0 BYTE SWAP1 MSTORE8 POP PUSH1 0xA DUP7 PUSH2 0x3413 SWAP2 SWAP1 PUSH2 0x58EB JUMP JUMPDEST SWAP6 POP PUSH2 0x338E JUMP JUMPDEST DUP2 SWAP5 POP POP POP POP POP JUMPDEST SWAP2 SWAP1 POP JUMP JUMPDEST PUSH2 0x3430 DUP2 PUSH2 0x2EAF JUMP JUMPDEST PUSH2 0x346F JUMPI PUSH1 0x40 MLOAD PUSH32 0x8C379A000000000000000000000000000000000000000000000000000000000 DUP2 MSTORE PUSH1 0x4 ADD PUSH2 0x3466 SWAP1 PUSH2 0x4E1A JUMP JUMPDEST PUSH1 0x40 MLOAD DUP1 SWAP2 SUB SWAP1 REVERT JUMPDEST POP JUMP JUMPDEST PUSH1 0x60 PUSH1 0x0 PUSH1 0x1 PUSH2 0x3481 DUP5 PUSH2 0x3B1F JUMP JUMPDEST ADD SWAP1 POP PUSH1 0x0 DUP2 PUSH8 0xFFFFFFFFFFFFFFFF DUP2 GT ISZERO PUSH2 0x34A0 JUMPI PUSH2 0x349F PUSH2 0x3FD2 JUMP JUMPDEST JUMPDEST PUSH1 0x40 MLOAD SWAP1 DUP1 DUP3 MSTORE DUP1 PUSH1 0x1F ADD PUSH1 0x1F NOT AND PUSH1 0x20 ADD DUP3 ADD PUSH1 0x40 MSTORE DUP1 ISZERO PUSH2 0x34D2 JUMPI DUP2 PUSH1 0x20 ADD PUSH1 0x1 DUP3 MUL DUP1 CALLDATASIZE DUP4 CALLDATACOPY DUP1 DUP3 ADD SWAP2 POP POP SWAP1 POP JUMPDEST POP SWAP1 POP PUSH1 0x0 DUP3 PUSH1 0x20 ADD DUP3 ADD SWAP1 POP JUMPDEST PUSH1 0x1 ISZERO PUSH2 0x3535 JUMPI DUP1 DUP1 PUSH1 0x1 SWAP1 SUB SWAP2 POP POP PUSH32 0x3031323334353637383961626364656600000000000000000000000000000000 PUSH1 0xA DUP7 MOD BYTE DUP2 MSTORE8 PUSH1 0xA DUP6 DUP2 PUSH2 0x3529 JUMPI PUSH2 0x3528 PUSH2 0x4F38 JUMP JUMPDEST JUMPDEST DIV SWAP5 POP PUSH1 0x0 DUP6 SUB PUSH2 0x34E0 JUMPI JUMPDEST DUP2 SWAP4 POP POP POP POP SWAP2 SWAP1 POP JUMP JUMPDEST PUSH1 0x0 PUSH32 0x1FFC9A700000000000000000000000000000000000000000000000000000000 PUSH28 0xFFFFFFFFFFFFFFFFFFFFFFFFFFFFFFFFFFFFFFFFFFFFFFFFFFFFFFFF NOT AND DUP3 PUSH28 0xFFFFFFFFFFFFFFFFFFFFFFFFFFFFFFFFFFFFFFFFFFFFFFFFFFFFFFFF NOT AND EQ SWAP1 POP SWAP2 SWAP1 POP JUMP JUMPDEST POP POP POP POP JUMP JUMPDEST PUSH1 0xE DUP1 SLOAD SWAP1 POP PUSH1 0xF PUSH1 0x0 DUP4 DUP2 MSTORE PUSH1 0x20 ADD SWAP1 DUP2 MSTORE PUSH1 0x20 ADD PUSH1 0x0 KECCAK256 DUP2 SWAP1 SSTORE POP PUSH1 0xE DUP2 SWAP1 DUP1 PUSH1 0x1 DUP2 SLOAD ADD DUP1 DUP3 SSTORE DUP1 SWAP2 POP POP PUSH1 0x1 SWAP1 SUB SWAP1 PUSH1 0x0 MSTORE PUSH1 0x20 PUSH1 0x0 KECCAK256 ADD PUSH1 0x0 SWAP1 SWAP2 SWAP1 SWAP2 SWAP1 SWAP2 POP SSTORE POP JUMP JUMPDEST PUSH1 0x0 PUSH1 0x1 PUSH2 0x3606 DUP5 PUSH2 0x12B2 JUMP JUMPDEST PUSH2 0x3610 SWAP2 SWAP1 PUSH2 0x51AA JUMP JUMPDEST SWAP1 POP PUSH1 0x0 PUSH1 0xC PUSH1 0x0 DUP5 DUP2 MSTORE PUSH1 0x20 ADD SWAP1 DUP2 MSTORE PUSH1 0x20 ADD PUSH1 0x0 KECCAK256 SLOAD SWAP1 POP DUP2 DUP2 EQ PUSH2 0x36F5 JUMPI PUSH1 0x0 PUSH1 0xB PUSH1 0x0 DUP7 PUSH20 0xFFFFFFFFFFFFFFFFFFFFFFFFFFFFFFFFFFFFFFFF AND PUSH20 0xFFFFFFFFFFFFFFFFFFFFFFFFFFFFFFFFFFFFFFFF AND DUP2 MSTORE PUSH1 0x20 ADD SWAP1 DUP2 MSTORE PUSH1 0x20 ADD PUSH1 0x0 KECCAK256 PUSH1 0x0 DUP5 DUP2 MSTORE PUSH1 0x20 ADD SWAP1 DUP2 MSTORE PUSH1 0x20 ADD PUSH1 0x0 KECCAK256 SLOAD SWAP1 POP DUP1 PUSH1 0xB PUSH1 0x0 DUP8 PUSH20 0xFFFFFFFFFFFFFFFFFFFFFFFFFFFFFFFFFFFFFFFF AND PUSH20 0xFFFFFFFFFFFFFFFFFFFFFFFFFFFFFFFFFFFFFFFF AND DUP2 MSTORE PUSH1 0x20 ADD SWAP1 DUP2 MSTORE PUSH1 0x20 ADD PUSH1 0x0 KECCAK256 PUSH1 0x0 DUP5 DUP2 MSTORE PUSH1 0x20 ADD SWAP1 DUP2 MSTORE PUSH1 0x20 ADD PUSH1 0x0 KECCAK256 DUP2 SWAP1 SSTORE POP DUP2 PUSH1 0xC PUSH1 0x0 DUP4 DUP2 MSTORE PUSH1 0x20 ADD SWAP1 DUP2 MSTORE PUSH1 0x20 ADD PUSH1 0x0 KECCAK256 DUP2 SWAP1 SSTORE POP POP JUMPDEST PUSH1 0xC PUSH1 0x0 DUP5 DUP2 MSTORE PUSH1 0x20 ADD SWAP1 DUP2 MSTORE PUSH1 0x20 ADD PUSH1 0x0 KECCAK256 PUSH1 0x0 SWAP1 SSTORE PUSH1 0xB PUSH1 0x0 DUP6 PUSH20 0xFFFFFFFFFFFFFFFFFFFFFFFFFFFFFFFFFFFFFFFF AND PUSH20 0xFFFFFFFFFFFFFFFFFFFFFFFFFFFFFFFFFFFFFFFF AND DUP2 MSTORE PUSH1 0x20 ADD SWAP1 DUP2 MSTORE PUSH1 0x20 ADD PUSH1 0x0 KECCAK256 PUSH1 0x0 DUP4 DUP2 MSTORE PUSH1 0x20 ADD SWAP1 DUP2 MSTORE PUSH1 0x20 ADD PUSH1 0x0 KECCAK256 PUSH1 0x0 SWAP1 SSTORE POP POP POP POP JUMP JUMPDEST PUSH1 0x0 PUSH1 0x1 PUSH1 0xE DUP1 SLOAD SWAP1 POP PUSH2 0x377A SWAP2 SWAP1 PUSH2 0x51AA JUMP JUMPDEST SWAP1 POP PUSH1 0x0 PUSH1 0xF PUSH1 0x0 DUP5 DUP2 MSTORE PUSH1 0x20 ADD SWAP1 DUP2 MSTORE PUSH1 0x20 ADD PUSH1 0x0 KECCAK256 SLOAD SWAP1 POP PUSH1 0x0 PUSH1 0xE DUP4 DUP2 SLOAD DUP2 LT PUSH2 0x37AA JUMPI PUSH2 0x37A9 PUSH2 0x494B JUMP JUMPDEST JUMPDEST SWAP1 PUSH1 0x0 MSTORE PUSH1 0x20 PUSH1 0x0 KECCAK256 ADD SLOAD SWAP1 POP DUP1 PUSH1 0xE DUP4 DUP2 SLOAD DUP2 LT PUSH2 0x37CC JUMPI PUSH2 0x37CB PUSH2 0x494B JUMP JUMPDEST JUMPDEST SWAP1 PUSH1 0x0 MSTORE PUSH1 0x20 PUSH1 0x0 KECCAK256 ADD DUP2 SWAP1 SSTORE POP DUP2 PUSH1 0xF PUSH1 0x0 DUP4 DUP2 MSTORE PUSH1 0x20 ADD SWAP1 DUP2 MSTORE PUSH1 0x20 ADD PUSH1 0x0 KECCAK256 DUP2 SWAP1 SSTORE POP PUSH1 0xF PUSH1 0x0 DUP6 DUP2 MSTORE PUSH1 0x20 ADD SWAP1 DUP2 MSTORE PUSH1 0x20 ADD PUSH1 0x0 KECCAK256 PUSH1 0x0 SWAP1 SSTORE PUSH1 0xE DUP1 SLOAD DUP1 PUSH2 0x381B JUMPI PUSH2 0x381A PUSH2 0x59AB JUMP JUMPDEST JUMPDEST PUSH1 0x1 SWAP1 SUB DUP2 DUP2 SWAP1 PUSH1 0x0 MSTORE PUSH1 0x20 PUSH1 0x0 KECCAK256 ADD PUSH1 0x0 SWAP1 SSTORE SWAP1 SSTORE POP POP POP POP JUMP JUMPDEST PUSH1 0x0 PUSH2 0x3842 DUP4 PUSH2 0x12B2 JUMP JUMPDEST SWAP1 POP DUP2 PUSH1 0xB PUSH1 0x0 DUP6 PUSH20 0xFFFFFFFFFFFFFFFFFFFFFFFFFFFFFFFFFFFFFFFF AND PUSH20 0xFFFFFFFFFFFFFFFFFFFFFFFFFFFFFFFFFFFFFFFF AND DUP2 MSTORE PUSH1 0x20 ADD SWAP1 DUP2 MSTORE PUSH1 0x20 ADD PUSH1 0x0 KECCAK256 PUSH1 0x0 DUP4 DUP2 MSTORE PUSH1 0x20 ADD SWAP1 DUP2 MSTORE PUSH1 0x20 ADD PUSH1 0x0 KECCAK256 DUP2 SWAP1 SSTORE POP DUP1 PUSH1 0xC PUSH1 0x0 DUP5 DUP2 MSTORE PUSH1 0x20 ADD SWAP1 DUP2 MSTORE PUSH1 0x20 ADD PUSH1 0x0 KECCAK256 DUP2 SWAP1 SSTORE POP POP POP POP JUMP JUMPDEST PUSH1 0x60 PUSH2 0x38DC DUP3 PUSH20 0xFFFFFFFFFFFFFFFFFFFFFFFFFFFFFFFFFFFFFFFF AND PUSH1 0x14 PUSH1 0xFF AND PUSH2 0x38E3 JUMP JUMPDEST SWAP1 POP SWAP2 SWAP1 POP JUMP JUMPDEST PUSH1 0x60 PUSH1 0x0 PUSH1 0x2 DUP4 PUSH1 0x2 PUSH2 0x38F6 SWAP2 SWAP1 PUSH2 0x59DA JUMP JUMPDEST PUSH2 0x3900 SWAP2 SWAP1 PUSH2 0x4FC7 JUMP JUMPDEST PUSH8 0xFFFFFFFFFFFFFFFF DUP2 GT ISZERO PUSH2 0x3919 JUMPI PUSH2 0x3918 PUSH2 0x3FD2 JUMP JUMPDEST JUMPDEST PUSH1 0x40 MLOAD SWAP1 DUP1 DUP3 MSTORE DUP1 PUSH1 0x1F ADD PUSH1 0x1F NOT AND PUSH1 0x20 ADD DUP3 ADD PUSH1 0x40 MSTORE DUP1 ISZERO PUSH2 0x394B JUMPI DUP2 PUSH1 0x20 ADD PUSH1 0x1 DUP3 MUL DUP1 CALLDATASIZE DUP4 CALLDATACOPY DUP1 DUP3 ADD SWAP2 POP POP SWAP1 POP JUMPDEST POP SWAP1 POP PUSH32 0x3000000000000000000000000000000000000000000000000000000000000000 DUP2 PUSH1 0x0 DUP2 MLOAD DUP2 LT PUSH2 0x3983 JUMPI PUSH2 0x3982 PUSH2 0x494B JUMP JUMPDEST JUMPDEST PUSH1 0x20 ADD ADD SWAP1 PUSH31 0xFFFFFFFFFFFFFFFFFFFFFFFFFFFFFFFFFFFFFFFFFFFFFFFFFFFFFFFFFFFFFF NOT AND SWAP1 DUP2 PUSH1 0x0 BYTE SWAP1 MSTORE8 POP PUSH32 0x7800000000000000000000000000000000000000000000000000000000000000 DUP2 PUSH1 0x1 DUP2 MLOAD DUP2 LT PUSH2 0x39E7 JUMPI PUSH2 0x39E6 PUSH2 0x494B JUMP JUMPDEST JUMPDEST PUSH1 0x20 ADD ADD SWAP1 PUSH31 0xFFFFFFFFFFFFFFFFFFFFFFFFFFFFFFFFFFFFFFFFFFFFFFFFFFFFFFFFFFFFFF NOT AND SWAP1 DUP2 PUSH1 0x0 BYTE SWAP1 MSTORE8 POP PUSH1 0x0 PUSH1 0x1 DUP5 PUSH1 0x2 PUSH2 0x3A27 SWAP2 SWAP1 PUSH2 0x59DA JUMP JUMPDEST PUSH2 0x3A31 SWAP2 SWAP1 PUSH2 0x4FC7 JUMP JUMPDEST SWAP1 POP JUMPDEST PUSH1 0x1 DUP2 GT ISZERO PUSH2 0x3AD1 JUMPI PUSH32 0x3031323334353637383961626364656600000000000000000000000000000000 PUSH1 0xF DUP7 AND PUSH1 0x10 DUP2 LT PUSH2 0x3A73 JUMPI PUSH2 0x3A72 PUSH2 0x494B JUMP JUMPDEST JUMPDEST BYTE PUSH1 0xF8 SHL DUP3 DUP3 DUP2 MLOAD DUP2 LT PUSH2 0x3A8A JUMPI PUSH2 0x3A89 PUSH2 0x494B JUMP JUMPDEST JUMPDEST PUSH1 0x20 ADD ADD SWAP1 PUSH31 0xFFFFFFFFFFFFFFFFFFFFFFFFFFFFFFFFFFFFFFFFFFFFFFFFFFFFFFFFFFFFFF NOT AND SWAP1 DUP2 PUSH1 0x0 BYTE SWAP1 MSTORE8 POP PUSH1 0x4 DUP6 SWAP1 SHR SWAP5 POP DUP1 PUSH2 0x3ACA SWAP1 PUSH2 0x5A1C JUMP JUMPDEST SWAP1 POP PUSH2 0x3A34 JUMP JUMPDEST POP PUSH1 0x0 DUP5 EQ PUSH2 0x3B15 JUMPI PUSH1 0x40 MLOAD PUSH32 0x8C379A000000000000000000000000000000000000000000000000000000000 DUP2 MSTORE PUSH1 0x4 ADD PUSH2 0x3B0C SWAP1 PUSH2 0x5A91 JUMP JUMPDEST PUSH1 0x40 MLOAD DUP1 SWAP2 SUB SWAP1 REVERT JUMPDEST DUP1 SWAP2 POP POP SWAP3 SWAP2 POP POP JUMP JUMPDEST PUSH1 0x0 DUP1 PUSH1 0x0 SWAP1 POP PUSH27 0x184F03E93FF9F4DAA797ED6E38ED64BF6A1F010000000000000000 DUP4 LT PUSH2 0x3B7D JUMPI PUSH27 0x184F03E93FF9F4DAA797ED6E38ED64BF6A1F010000000000000000 DUP4 DUP2 PUSH2 0x3B73 JUMPI PUSH2 0x3B72 PUSH2 0x4F38 JUMP JUMPDEST JUMPDEST DIV SWAP3 POP PUSH1 0x40 DUP2 ADD SWAP1 POP JUMPDEST PUSH14 0x4EE2D6D415B85ACEF8100000000 DUP4 LT PUSH2 0x3BBA JUMPI PUSH14 0x4EE2D6D415B85ACEF8100000000 DUP4 DUP2 PUSH2 0x3BB0 JUMPI PUSH2 0x3BAF PUSH2 0x4F38 JUMP JUMPDEST JUMPDEST DIV SWAP3 POP PUSH1 0x20 DUP2 ADD SWAP1 POP JUMPDEST PUSH7 0x2386F26FC10000 DUP4 LT PUSH2 0x3BE9 JUMPI PUSH7 0x2386F26FC10000 DUP4 DUP2 PUSH2 0x3BDF JUMPI PUSH2 0x3BDE PUSH2 0x4F38 JUMP JUMPDEST JUMPDEST DIV SWAP3 POP PUSH1 0x10 DUP2 ADD SWAP1 POP JUMPDEST PUSH4 0x5F5E100 DUP4 LT PUSH2 0x3C12 JUMPI PUSH4 0x5F5E100 DUP4 DUP2 PUSH2 0x3C08 JUMPI PUSH2 0x3C07 PUSH2 0x4F38 JUMP JUMPDEST JUMPDEST DIV SWAP3 POP PUSH1 0x8 DUP2 ADD SWAP1 POP JUMPDEST PUSH2 0x2710 DUP4 LT PUSH2 0x3C37 JUMPI PUSH2 0x2710 DUP4 DUP2 PUSH2 0x3C2D JUMPI PUSH2 0x3C2C PUSH2 0x4F38 JUMP JUMPDEST JUMPDEST DIV SWAP3 POP PUSH1 0x4 DUP2 ADD SWAP1 POP JUMPDEST PUSH1 0x64 DUP4 LT PUSH2 0x3C5A JUMPI PUSH1 0x64 DUP4 DUP2 PUSH2 0x3C50 JUMPI PUSH2 0x3C4F PUSH2 0x4F38 JUMP JUMPDEST JUMPDEST DIV SWAP3 POP PUSH1 0x2 DUP2 ADD SWAP1 POP JUMPDEST PUSH1 0xA DUP4 LT PUSH2 0x3C69 JUMPI PUSH1 0x1 DUP2 ADD SWAP1 POP JUMPDEST DUP1 SWAP2 POP POP SWAP2 SWAP1 POP JUMP JUMPDEST PUSH1 0x40 MLOAD DUP1 PUSH1 0x40 ADD PUSH1 0x40 MSTORE DUP1 PUSH1 0x0 DUP2 MSTORE PUSH1 0x20 ADD PUSH1 0x60 DUP2 MSTORE POP SWAP1 JUMP JUMPDEST DUP3 PUSH1 0x9 PUSH1 0x1F ADD PUSH1 0x20 SWAP1 DIV DUP2 ADD SWAP3 DUP3 ISZERO PUSH2 0x3D15 JUMPI SWAP2 PUSH1 0x20 MUL DUP3 ADD PUSH1 0x0 JUMPDEST DUP4 DUP3 GT ISZERO PUSH2 0x3CE6 JUMPI DUP4 MLOAD DUP4 DUP3 PUSH2 0x100 EXP DUP2 SLOAD DUP2 PUSH1 0xFF MUL NOT AND SWAP1 DUP4 PUSH1 0xFF AND MUL OR SWAP1 SSTORE POP SWAP3 PUSH1 0x20 ADD SWAP3 PUSH1 0x1 ADD PUSH1 0x20 DUP2 PUSH1 0x0 ADD DIV SWAP3 DUP4 ADD SWAP3 PUSH1 0x1 SUB MUL PUSH2 0x3CA8 JUMP JUMPDEST DUP1 ISZERO PUSH2 0x3D13 JUMPI DUP3 DUP2 PUSH2 0x100 EXP DUP2 SLOAD SWAP1 PUSH1 0xFF MUL NOT AND SWAP1 SSTORE PUSH1 0x1 ADD PUSH1 0x20 DUP2 PUSH1 0x0 ADD DIV SWAP3 DUP4 ADD SWAP3 PUSH1 0x1 SUB MUL PUSH2 0x3CE6 JUMP JUMPDEST POP JUMPDEST POP SWAP1 POP PUSH2 0x3D22 SWAP2 SWAP1 PUSH2 0x3D96 JUMP JUMPDEST POP SWAP1 JUMP JUMPDEST DUP3 DUP1 SLOAD DUP3 DUP3 SSTORE SWAP1 PUSH1 0x0 MSTORE PUSH1 0x20 PUSH1 0x0 KECCAK256 SWAP1 DUP2 ADD SWAP3 DUP3 ISZERO PUSH2 0x3D62 JUMPI SWAP2 PUSH1 0x20 MUL DUP3 ADD JUMPDEST DUP3 DUP2 GT ISZERO PUSH2 0x3D61 JUMPI DUP3 MLOAD DUP3 SSTORE SWAP2 PUSH1 0x20 ADD SWAP2 SWAP1 PUSH1 0x1 ADD SWAP1 PUSH2 0x3D46 JUMP JUMPDEST JUMPDEST POP SWAP1 POP PUSH2 0x3D6F SWAP2 SWAP1 PUSH2 0x3D96 JUMP JUMPDEST POP SWAP1 JUMP JUMPDEST PUSH1 0x40 MLOAD DUP1 PUSH2 0x120 ADD PUSH1 0x40 MSTORE DUP1 PUSH1 0x9 SWAP1 PUSH1 0x20 DUP3 MUL DUP1 CALLDATASIZE DUP4 CALLDATACOPY DUP1 DUP3 ADD SWAP2 POP POP SWAP1 POP POP SWAP1 JUMP JUMPDEST JUMPDEST DUP1 DUP3 GT ISZERO PUSH2 0x3DAF JUMPI PUSH1 0x0 DUP2 PUSH1 0x0 SWAP1 SSTORE POP PUSH1 0x1 ADD PUSH2 0x3D97 JUMP JUMPDEST POP SWAP1 JUMP JUMPDEST PUSH1 0x0 PUSH1 0x40 MLOAD SWAP1 POP SWAP1 JUMP JUMPDEST PUSH1 0x0 DUP1 REVERT JUMPDEST PUSH1 0x0 DUP1 REVERT JUMPDEST PUSH1 0x0 PUSH32 0xFFFFFFFF00000000000000000000000000000000000000000000000000000000 DUP3 AND SWAP1 POP SWAP2 SWAP1 POP JUMP JUMPDEST PUSH2 0x3DFC DUP2 PUSH2 0x3DC7 JUMP JUMPDEST DUP2 EQ PUSH2 0x3E07 JUMPI PUSH1 0x0 DUP1 REVERT JUMPDEST POP JUMP JUMPDEST PUSH1 0x0 DUP2 CALLDATALOAD SWAP1 POP PUSH2 0x3E19 DUP2 PUSH2 0x3DF3 JUMP JUMPDEST SWAP3 SWAP2 POP POP JUMP JUMPDEST PUSH1 0x0 PUSH1 0x20 DUP3 DUP5 SUB SLT ISZERO PUSH2 0x3E35 JUMPI PUSH2 0x3E34 PUSH2 0x3DBD JUMP JUMPDEST JUMPDEST PUSH1 0x0 PUSH2 0x3E43 DUP5 DUP3 DUP6 ADD PUSH2 0x3E0A JUMP JUMPDEST SWAP2 POP POP SWAP3 SWAP2 POP POP JUMP JUMPDEST PUSH1 0x0 DUP2 ISZERO ISZERO SWAP1 POP SWAP2 SWAP1 POP JUMP JUMPDEST PUSH2 0x3E61 DUP2 PUSH2 0x3E4C JUMP JUMPDEST DUP3 MSTORE POP POP JUMP JUMPDEST PUSH1 0x0 PUSH1 0x20 DUP3 ADD SWAP1 POP PUSH2 0x3E7C PUSH1 0x0 DUP4 ADD DUP5 PUSH2 0x3E58 JUMP JUMPDEST SWAP3 SWAP2 POP POP JUMP JUMPDEST PUSH1 0x0 DUP2 MLOAD SWAP1 POP SWAP2 SWAP1 POP JUMP JUMPDEST PUSH1 0x0 DUP3 DUP3 MSTORE PUSH1 0x20 DUP3 ADD SWAP1 POP SWAP3 SWAP2 POP POP JUMP JUMPDEST PUSH1 0x0 JUMPDEST DUP4 DUP2 LT ISZERO PUSH2 0x3EBC JUMPI DUP1 DUP3 ADD MLOAD DUP2 DUP5 ADD MSTORE PUSH1 0x20 DUP2 ADD SWAP1 POP PUSH2 0x3EA1 JUMP JUMPDEST PUSH1 0x0 DUP5 DUP5 ADD MSTORE POP POP POP POP JUMP JUMPDEST PUSH1 0x0 PUSH1 0x1F NOT PUSH1 0x1F DUP4 ADD AND SWAP1 POP SWAP2 SWAP1 POP JUMP JUMPDEST PUSH1 0x0 PUSH2 0x3EE4 DUP3 PUSH2 0x3E82 JUMP JUMPDEST PUSH2 0x3EEE DUP2 DUP6 PUSH2 0x3E8D JUMP JUMPDEST SWAP4 POP PUSH2 0x3EFE DUP2 DUP6 PUSH1 0x20 DUP7 ADD PUSH2 0x3E9E JUMP JUMPDEST PUSH2 0x3F07 DUP2 PUSH2 0x3EC8 JUMP JUMPDEST DUP5 ADD SWAP2 POP POP SWAP3 SWAP2 POP POP JUMP JUMPDEST PUSH1 0x0 PUSH1 0x20 DUP3 ADD SWAP1 POP DUP2 DUP2 SUB PUSH1 0x0 DUP4 ADD MSTORE PUSH2 0x3F2C DUP2 DUP5 PUSH2 0x3ED9 JUMP JUMPDEST SWAP1 POP SWAP3 SWAP2 POP POP JUMP JUMPDEST PUSH1 0x0 PUSH20 0xFFFFFFFFFFFFFFFFFFFFFFFFFFFFFFFFFFFFFFFF DUP3 AND SWAP1 POP SWAP2 SWAP1 POP JUMP JUMPDEST PUSH1 0x0 PUSH2 0x3F5F DUP3 PUSH2 0x3F34 JUMP JUMPDEST SWAP1 POP SWAP2 SWAP1 POP JUMP JUMPDEST PUSH2 0x3F6F DUP2 PUSH2 0x3F54 JUMP JUMPDEST DUP2 EQ PUSH2 0x3F7A JUMPI PUSH1 0x0 DUP1 REVERT JUMPDEST POP JUMP JUMPDEST PUSH1 0x0 DUP2 CALLDATALOAD SWAP1 POP PUSH2 0x3F8C DUP2 PUSH2 0x3F66 JUMP JUMPDEST SWAP3 SWAP2 POP POP JUMP JUMPDEST PUSH1 0x0 DUP2 SWAP1 POP SWAP2 SWAP1 POP JUMP JUMPDEST PUSH2 0x3FA5 DUP2 PUSH2 0x3F92 JUMP JUMPDEST DUP2 EQ PUSH2 0x3FB0 JUMPI PUSH1 0x0 DUP1 REVERT JUMPDEST POP JUMP JUMPDEST PUSH1 0x0 DUP2 CALLDATALOAD SWAP1 POP PUSH2 0x3FC2 DUP2 PUSH2 0x3F9C JUMP JUMPDEST SWAP3 SWAP2 POP POP JUMP JUMPDEST PUSH1 0x0 DUP1 REVERT JUMPDEST PUSH1 0x0 DUP1 REVERT JUMPDEST PUSH32 0x4E487B7100000000000000000000000000000000000000000000000000000000 PUSH1 0x0 MSTORE PUSH1 0x41 PUSH1 0x4 MSTORE PUSH1 0x24 PUSH1 0x0 REVERT JUMPDEST PUSH2 0x400A DUP3 PUSH2 0x3EC8 JUMP JUMPDEST DUP2 ADD DUP2 DUP2 LT PUSH8 0xFFFFFFFFFFFFFFFF DUP3 GT OR ISZERO PUSH2 0x4029 JUMPI PUSH2 0x4028 PUSH2 0x3FD2 JUMP JUMPDEST JUMPDEST DUP1 PUSH1 0x40 MSTORE POP POP POP JUMP JUMPDEST PUSH1 0x0 PUSH2 0x403C PUSH2 0x3DB3 JUMP JUMPDEST SWAP1 POP PUSH2 0x4048 DUP3 DUP3 PUSH2 0x4001 JUMP JUMPDEST SWAP2 SWAP1 POP JUMP JUMPDEST PUSH1 0x0 PUSH8 0xFFFFFFFFFFFFFFFF DUP3 GT ISZERO PUSH2 0x4068 JUMPI PUSH2 0x4067 PUSH2 0x3FD2 JUMP JUMPDEST JUMPDEST PUSH2 0x4071 DUP3 PUSH2 0x3EC8 JUMP JUMPDEST SWAP1 POP PUSH1 0x20 DUP2 ADD SWAP1 POP SWAP2 SWAP1 POP JUMP JUMPDEST DUP3 DUP2 DUP4 CALLDATACOPY PUSH1 0x0 DUP4 DUP4 ADD MSTORE POP POP POP JUMP JUMPDEST PUSH1 0x0 PUSH2 0x40A0 PUSH2 0x409B DUP5 PUSH2 0x404D JUMP JUMPDEST PUSH2 0x4032 JUMP JUMPDEST SWAP1 POP DUP3 DUP2 MSTORE PUSH1 0x20 DUP2 ADD DUP5 DUP5 DUP5 ADD GT ISZERO PUSH2 0x40BC JUMPI PUSH2 0x40BB PUSH2 0x3FCD JUMP JUMPDEST JUMPDEST PUSH2 0x40C7 DUP5 DUP3 DUP6 PUSH2 0x407E JUMP JUMPDEST POP SWAP4 SWAP3 POP POP POP JUMP JUMPDEST PUSH1 0x0 DUP3 PUSH1 0x1F DUP4 ADD SLT PUSH2 0x40E4 JUMPI PUSH2 0x40E3 PUSH2 0x3FC8 JUMP JUMPDEST JUMPDEST DUP2 CALLDATALOAD PUSH2 0x40F4 DUP5 DUP3 PUSH1 0x20 DUP7 ADD PUSH2 0x408D JUMP JUMPDEST SWAP2 POP POP SWAP3 SWAP2 POP POP JUMP JUMPDEST PUSH1 0x0 DUP1 PUSH1 0x0 DUP1 PUSH1 0x80 DUP6 DUP8 SUB SLT ISZERO PUSH2 0x4117 JUMPI PUSH2 0x4116 PUSH2 0x3DBD JUMP JUMPDEST JUMPDEST PUSH1 0x0 PUSH2 0x4125 DUP8 DUP3 DUP9 ADD PUSH2 0x3F7D JUMP JUMPDEST SWAP5 POP POP PUSH1 0x20 PUSH2 0x4136 DUP8 DUP3 DUP9 ADD PUSH2 0x3F7D JUMP JUMPDEST SWAP4 POP POP PUSH1 0x40 PUSH2 0x4147 DUP8 DUP3 DUP9 ADD PUSH2 0x3FB3 JUMP JUMPDEST SWAP3 POP POP PUSH1 0x60 DUP6 ADD CALLDATALOAD PUSH8 0xFFFFFFFFFFFFFFFF DUP2 GT ISZERO PUSH2 0x4168 JUMPI PUSH2 0x4167 PUSH2 0x3DC2 JUMP JUMPDEST JUMPDEST PUSH2 0x4174 DUP8 DUP3 DUP9 ADD PUSH2 0x40CF JUMP JUMPDEST SWAP2 POP POP SWAP3 SWAP6 SWAP2 SWAP5 POP SWAP3 POP JUMP JUMPDEST PUSH2 0x4189 DUP2 PUSH2 0x3DC7 JUMP JUMPDEST DUP3 MSTORE POP POP JUMP JUMPDEST PUSH1 0x0 PUSH1 0x20 DUP3 ADD SWAP1 POP PUSH2 0x41A4 PUSH1 0x0 DUP4 ADD DUP5 PUSH2 0x4180 JUMP JUMPDEST SWAP3 SWAP2 POP POP JUMP JUMPDEST PUSH1 0x0 PUSH1 0x20 DUP3 DUP5 SUB SLT ISZERO PUSH2 0x41C0 JUMPI PUSH2 0x41BF PUSH2 0x3DBD JUMP JUMPDEST JUMPDEST PUSH1 0x0 PUSH2 0x41CE DUP5 DUP3 DUP6 ADD PUSH2 0x3F7D JUMP JUMPDEST SWAP2 POP POP SWAP3 SWAP2 POP POP JUMP JUMPDEST PUSH1 0x0 DUP2 MLOAD SWAP1 POP SWAP2 SWAP1 POP JUMP JUMPDEST PUSH1 0x0 DUP3 DUP3 MSTORE PUSH1 0x20 DUP3 ADD SWAP1 POP SWAP3 SWAP2 POP POP JUMP JUMPDEST PUSH1 0x0 DUP2 SWAP1 POP PUSH1 0x20 DUP3 ADD SWAP1 POP SWAP2 SWAP1 POP JUMP JUMPDEST PUSH2 0x420C DUP2 PUSH2 0x3F92 JUMP JUMPDEST DUP3 MSTORE POP POP JUMP JUMPDEST PUSH1 0x0 DUP3 DUP3 MSTORE PUSH1 0x20 DUP3 ADD SWAP1 POP SWAP3 SWAP2 POP POP JUMP JUMPDEST PUSH1 0x0 PUSH2 0x422E DUP3 PUSH2 0x3E82 JUMP JUMPDEST PUSH2 0x4238 DUP2 DUP6 PUSH2 0x4212 JUMP JUMPDEST SWAP4 POP PUSH2 0x4248 DUP2 DUP6 PUSH1 0x20 DUP7 ADD PUSH2 0x3E9E JUMP JUMPDEST PUSH2 0x4251 DUP2 PUSH2 0x3EC8 JUMP JUMPDEST DUP5 ADD SWAP2 POP POP SWAP3 SWAP2 POP POP JUMP JUMPDEST PUSH1 0x0 PUSH1 0x40 DUP4 ADD PUSH1 0x0 DUP4 ADD MLOAD PUSH2 0x4274 PUSH1 0x0 DUP7 ADD DUP3 PUSH2 0x4203 JUMP JUMPDEST POP PUSH1 0x20 DUP4 ADD MLOAD DUP5 DUP3 SUB PUSH1 0x20 DUP7 ADD MSTORE PUSH2 0x428C DUP3 DUP3 PUSH2 0x4223 JUMP JUMPDEST SWAP2 POP POP DUP1 SWAP2 POP POP SWAP3 SWAP2 POP POP JUMP JUMPDEST PUSH1 0x0 PUSH2 0x42A5 DUP4 DUP4 PUSH2 0x425C JUMP JUMPDEST SWAP1 POP SWAP3 SWAP2 POP POP JUMP JUMPDEST PUSH1 0x0 PUSH1 0x20 DUP3 ADD SWAP1 POP SWAP2 SWAP1 POP JUMP JUMPDEST PUSH1 0x0 PUSH2 0x42C5 DUP3 PUSH2 0x41D7 JUMP JUMPDEST PUSH2 0x42CF DUP2 DUP6 PUSH2 0x41E2 JUMP JUMPDEST SWAP4 POP DUP4 PUSH1 0x20 DUP3 MUL DUP6 ADD PUSH2 0x42E1 DUP6 PUSH2 0x41F3 JUMP JUMPDEST DUP1 PUSH1 0x0 JUMPDEST DUP6 DUP2 LT ISZERO PUSH2 0x431D JUMPI DUP5 DUP5 SUB DUP10 MSTORE DUP2 MLOAD PUSH2 0x42FE DUP6 DUP3 PUSH2 0x4299 JUMP JUMPDEST SWAP5 POP PUSH2 0x4309 DUP4 PUSH2 0x42AD JUMP JUMPDEST SWAP3 POP PUSH1 0x20 DUP11 ADD SWAP10 POP POP PUSH1 0x1 DUP2 ADD SWAP1 POP PUSH2 0x42E5 JUMP JUMPDEST POP DUP3 SWAP8 POP DUP8 SWAP6 POP POP POP POP POP POP SWAP3 SWAP2 POP POP JUMP JUMPDEST PUSH1 0x0 PUSH1 0x20 DUP3 ADD SWAP1 POP DUP2 DUP2 SUB PUSH1 0x0 DUP4 ADD MSTORE PUSH2 0x4349 DUP2 DUP5 PUSH2 0x42BA JUMP JUMPDEST SWAP1 POP SWAP3 SWAP2 POP POP JUMP JUMPDEST PUSH2 0x435A DUP2 PUSH2 0x3F92 JUMP JUMPDEST DUP3 MSTORE POP POP JUMP JUMPDEST PUSH1 0x0 PUSH1 0x20 DUP3 ADD SWAP1 POP PUSH2 0x4375 PUSH1 0x0 DUP4 ADD DUP5 PUSH2 0x4351 JUMP JUMPDEST SWAP3 SWAP2 POP POP JUMP JUMPDEST PUSH1 0x0 DUP1 PUSH1 0x0 PUSH1 0x60 DUP5 DUP7 SUB SLT ISZERO PUSH2 0x4394 JUMPI PUSH2 0x4393 PUSH2 0x3DBD JUMP JUMPDEST JUMPDEST PUSH1 0x0 PUSH2 0x43A2 DUP7 DUP3 DUP8 ADD PUSH2 0x3F7D JUMP JUMPDEST SWAP4 POP POP PUSH1 0x20 PUSH2 0x43B3 DUP7 DUP3 DUP8 ADD PUSH2 0x3F7D JUMP JUMPDEST SWAP3 POP POP PUSH1 0x40 PUSH2 0x43C4 DUP7 DUP3 DUP8 ADD PUSH2 0x3FB3 JUMP JUMPDEST SWAP2 POP POP SWAP3 POP SWAP3 POP SWAP3 JUMP JUMPDEST PUSH1 0x0 PUSH1 0x20 DUP3 DUP5 SUB SLT ISZERO PUSH2 0x43E4 JUMPI PUSH2 0x43E3 PUSH2 0x3DBD JUMP JUMPDEST JUMPDEST PUSH1 0x0 PUSH2 0x43F2 DUP5 DUP3 DUP6 ADD PUSH2 0x3FB3 JUMP JUMPDEST SWAP2 POP POP SWAP3 SWAP2 POP POP JUMP JUMPDEST PUSH1 0x0 DUP2 SWAP1 POP SWAP2 SWAP1 POP JUMP JUMPDEST PUSH2 0x440E DUP2 PUSH2 0x43FB JUMP JUMPDEST DUP2 EQ PUSH2 0x4419 JUMPI PUSH1 0x0 DUP1 REVERT JUMPDEST POP JUMP JUMPDEST PUSH1 0x0 DUP2 CALLDATALOAD SWAP1 POP PUSH2 0x442B DUP2 PUSH2 0x4405 JUMP JUMPDEST SWAP3 SWAP2 POP POP JUMP JUMPDEST PUSH1 0x0 PUSH1 0x20 DUP3 DUP5 SUB SLT ISZERO PUSH2 0x4447 JUMPI PUSH2 0x4446 PUSH2 0x3DBD JUMP JUMPDEST JUMPDEST PUSH1 0x0 PUSH2 0x4455 DUP5 DUP3 DUP6 ADD PUSH2 0x441C JUMP JUMPDEST SWAP2 POP POP SWAP3 SWAP2 POP POP JUMP JUMPDEST PUSH2 0x4467 DUP2 PUSH2 0x43FB JUMP JUMPDEST DUP3 MSTORE POP POP JUMP JUMPDEST PUSH1 0x0 PUSH1 0x20 DUP3 ADD SWAP1 POP PUSH2 0x4482 PUSH1 0x0 DUP4 ADD DUP5 PUSH2 0x445E JUMP JUMPDEST SWAP3 SWAP2 POP POP JUMP JUMPDEST PUSH1 0x0 DUP1 PUSH1 0x40 DUP4 DUP6 SUB SLT ISZERO PUSH2 0x449F JUMPI PUSH2 0x449E PUSH2 0x3DBD JUMP JUMPDEST JUMPDEST PUSH1 0x0 PUSH2 0x44AD DUP6 DUP3 DUP7 ADD PUSH2 0x441C JUMP JUMPDEST SWAP3 POP POP PUSH1 0x20 PUSH2 0x44BE DUP6 DUP3 DUP7 ADD PUSH2 0x3F7D JUMP JUMPDEST SWAP2 POP POP SWAP3 POP SWAP3 SWAP1 POP JUMP JUMPDEST PUSH1 0x0 DUP1 PUSH1 0x40 DUP4 DUP6 SUB SLT ISZERO PUSH2 0x44DF JUMPI PUSH2 0x44DE PUSH2 0x3DBD JUMP JUMPDEST JUMPDEST PUSH1 0x0 PUSH2 0x44ED DUP6 DUP3 DUP7 ADD PUSH2 0x3F7D JUMP JUMPDEST SWAP3 POP POP PUSH1 0x20 PUSH2 0x44FE DUP6 DUP3 DUP7 ADD PUSH2 0x3FB3 JUMP JUMPDEST SWAP2 POP POP SWAP3 POP SWAP3 SWAP1 POP JUMP JUMPDEST PUSH1 0x0 PUSH8 0xFFFFFFFFFFFFFFFF DUP3 GT ISZERO PUSH2 0x4523 JUMPI PUSH2 0x4522 PUSH2 0x3FD2 JUMP JUMPDEST JUMPDEST PUSH2 0x452C DUP3 PUSH2 0x3EC8 JUMP JUMPDEST SWAP1 POP PUSH1 0x20 DUP2 ADD SWAP1 POP SWAP2 SWAP1 POP JUMP JUMPDEST PUSH1 0x0 PUSH2 0x454C PUSH2 0x4547 DUP5 PUSH2 0x4508 JUMP JUMPDEST PUSH2 0x4032 JUMP JUMPDEST SWAP1 POP DUP3 DUP2 MSTORE PUSH1 0x20 DUP2 ADD DUP5 DUP5 DUP5 ADD GT ISZERO PUSH2 0x4568 JUMPI PUSH2 0x4567 PUSH2 0x3FCD JUMP JUMPDEST JUMPDEST PUSH2 0x4573 DUP5 DUP3 DUP6 PUSH2 0x407E JUMP JUMPDEST POP SWAP4 SWAP3 POP POP POP JUMP JUMPDEST PUSH1 0x0 DUP3 PUSH1 0x1F DUP4 ADD SLT PUSH2 0x4590 JUMPI PUSH2 0x458F PUSH2 0x3FC8 JUMP JUMPDEST JUMPDEST DUP2 CALLDATALOAD PUSH2 0x45A0 DUP5 DUP3 PUSH1 0x20 DUP7 ADD PUSH2 0x4539 JUMP JUMPDEST SWAP2 POP POP SWAP3 SWAP2 POP POP JUMP JUMPDEST PUSH1 0x0 PUSH1 0x20 DUP3 DUP5 SUB SLT ISZERO PUSH2 0x45BF JUMPI PUSH2 0x45BE PUSH2 0x3DBD JUMP JUMPDEST JUMPDEST PUSH1 0x0 DUP3 ADD CALLDATALOAD PUSH8 0xFFFFFFFFFFFFFFFF DUP2 GT ISZERO PUSH2 0x45DD JUMPI PUSH2 0x45DC PUSH2 0x3DC2 JUMP JUMPDEST JUMPDEST PUSH2 0x45E9 DUP5 DUP3 DUP6 ADD PUSH2 0x457B JUMP JUMPDEST SWAP2 POP POP SWAP3 SWAP2 POP POP JUMP JUMPDEST PUSH1 0x0 PUSH1 0xFF DUP3 AND SWAP1 POP SWAP2 SWAP1 POP JUMP JUMPDEST PUSH2 0x4608 DUP2 PUSH2 0x45F2 JUMP JUMPDEST DUP3 MSTORE POP POP JUMP JUMPDEST PUSH1 0x0 PUSH1 0x20 DUP3 ADD SWAP1 POP PUSH2 0x4623 PUSH1 0x0 DUP4 ADD DUP5 PUSH2 0x45FF JUMP JUMPDEST SWAP3 SWAP2 POP POP JUMP JUMPDEST PUSH2 0x4632 DUP2 PUSH2 0x3F54 JUMP JUMPDEST DUP3 MSTORE POP POP JUMP JUMPDEST PUSH1 0x0 PUSH1 0x20 DUP3 ADD SWAP1 POP PUSH2 0x464D PUSH1 0x0 DUP4 ADD DUP5 PUSH2 0x4629 JUMP JUMPDEST SWAP3 SWAP2 POP POP JUMP JUMPDEST PUSH1 0x0 DUP1 PUSH1 0x40 DUP4 DUP6 SUB SLT ISZERO PUSH2 0x466A JUMPI PUSH2 0x4669 PUSH2 0x3DBD JUMP JUMPDEST JUMPDEST PUSH1 0x0 PUSH2 0x4678 DUP6 DUP3 DUP7 ADD PUSH2 0x3FB3 JUMP JUMPDEST SWAP3 POP POP PUSH1 0x20 PUSH2 0x4689 DUP6 DUP3 DUP7 ADD PUSH2 0x3FB3 JUMP JUMPDEST SWAP2 POP POP SWAP3 POP SWAP3 SWAP1 POP JUMP JUMPDEST PUSH1 0x0 PUSH8 0xFFFFFFFFFFFFFFFF DUP3 GT ISZERO PUSH2 0x46AE JUMPI PUSH2 0x46AD PUSH2 0x3FD2 JUMP JUMPDEST JUMPDEST PUSH1 0x20 DUP3 MUL SWAP1 POP SWAP2 SWAP1 POP JUMP JUMPDEST PUSH1 0x0 DUP1 REVERT JUMPDEST PUSH2 0x46C7 DUP2 PUSH2 0x45F2 JUMP JUMPDEST DUP2 EQ PUSH2 0x46D2 JUMPI PUSH1 0x0 DUP1 REVERT JUMPDEST POP JUMP JUMPDEST PUSH1 0x0 DUP2 CALLDATALOAD SWAP1 POP PUSH2 0x46E4 DUP2 PUSH2 0x46BE JUMP JUMPDEST SWAP3 SWAP2 POP POP JUMP JUMPDEST PUSH1 0x0 PUSH2 0x46FD PUSH2 0x46F8 DUP5 PUSH2 0x4693 JUMP JUMPDEST PUSH2 0x4032 JUMP JUMPDEST SWAP1 POP DUP1 PUSH1 0x20 DUP5 MUL DUP4 ADD DUP6 DUP2 GT ISZERO PUSH2 0x4717 JUMPI PUSH2 0x4716 PUSH2 0x46B9 JUMP JUMPDEST JUMPDEST DUP4 JUMPDEST DUP2 DUP2 LT ISZERO PUSH2 0x4740 JUMPI DUP1 PUSH2 0x472C DUP9 DUP3 PUSH2 0x46D5 JUMP JUMPDEST DUP5 MSTORE PUSH1 0x20 DUP5 ADD SWAP4 POP POP PUSH1 0x20 DUP2 ADD SWAP1 POP PUSH2 0x4719 JUMP JUMPDEST POP POP POP SWAP4 SWAP3 POP POP POP JUMP JUMPDEST PUSH1 0x0 DUP3 PUSH1 0x1F DUP4 ADD SLT PUSH2 0x475F JUMPI PUSH2 0x475E PUSH2 0x3FC8 JUMP JUMPDEST JUMPDEST PUSH1 0x9 PUSH2 0x476C DUP5 DUP3 DUP6 PUSH2 0x46EA JUMP JUMPDEST SWAP2 POP POP SWAP3 SWAP2 POP POP JUMP JUMPDEST PUSH1 0x0 DUP1 PUSH2 0x140 DUP4 DUP6 SUB SLT ISZERO PUSH2 0x478D JUMPI PUSH2 0x478C PUSH2 0x3DBD JUMP JUMPDEST JUMPDEST PUSH1 0x0 PUSH2 0x479B DUP6 DUP3 DUP7 ADD PUSH2 0x3FB3 JUMP JUMPDEST SWAP3 POP POP PUSH1 0x20 PUSH2 0x47AC DUP6 DUP3 DUP7 ADD PUSH2 0x474A JUMP JUMPDEST SWAP2 POP POP SWAP3 POP SWAP3 SWAP1 POP JUMP JUMPDEST PUSH1 0x0 PUSH8 0xFFFFFFFFFFFFFFFF DUP3 GT ISZERO PUSH2 0x47D1 JUMPI PUSH2 0x47D0 PUSH2 0x3FD2 JUMP JUMPDEST JUMPDEST PUSH1 0x20 DUP3 MUL SWAP1 POP PUSH1 0x20 DUP2 ADD SWAP1 POP SWAP2 SWAP1 POP JUMP JUMPDEST PUSH1 0x0 PUSH2 0x47F5 PUSH2 0x47F0 DUP5 PUSH2 0x47B6 JUMP JUMPDEST PUSH2 0x4032 JUMP JUMPDEST SWAP1 POP DUP1 DUP4 DUP3 MSTORE PUSH1 0x20 DUP3 ADD SWAP1 POP PUSH1 0x20 DUP5 MUL DUP4 ADD DUP6 DUP2 GT ISZERO PUSH2 0x4818 JUMPI PUSH2 0x4817 PUSH2 0x46B9 JUMP JUMPDEST JUMPDEST DUP4 JUMPDEST DUP2 DUP2 LT ISZERO PUSH2 0x4841 JUMPI DUP1 PUSH2 0x482D DUP9 DUP3 PUSH2 0x3FB3 JUMP JUMPDEST DUP5 MSTORE PUSH1 0x20 DUP5 ADD SWAP4 POP POP PUSH1 0x20 DUP2 ADD SWAP1 POP PUSH2 0x481A JUMP JUMPDEST POP POP POP SWAP4 SWAP3 POP POP POP JUMP JUMPDEST PUSH1 0x0 DUP3 PUSH1 0x1F DUP4 ADD SLT PUSH2 0x4860 JUMPI PUSH2 0x485F PUSH2 0x3FC8 JUMP JUMPDEST JUMPDEST DUP2 CALLDATALOAD PUSH2 0x4870 DUP5 DUP3 PUSH1 0x20 DUP7 ADD PUSH2 0x47E2 JUMP JUMPDEST SWAP2 POP POP SWAP3 SWAP2 POP POP JUMP JUMPDEST PUSH1 0x0 PUSH1 0x20 DUP3 DUP5 SUB SLT ISZERO PUSH2 0x488F JUMPI PUSH2 0x488E PUSH2 0x3DBD JUMP JUMPDEST JUMPDEST PUSH1 0x0 DUP3 ADD CALLDATALOAD PUSH8 0xFFFFFFFFFFFFFFFF DUP2 GT ISZERO PUSH2 0x48AD JUMPI PUSH2 0x48AC PUSH2 0x3DC2 JUMP JUMPDEST JUMPDEST PUSH2 0x48B9 DUP5 DUP3 DUP6 ADD PUSH2 0x484B JUMP JUMPDEST SWAP2 POP POP SWAP3 SWAP2 POP POP JUMP JUMPDEST PUSH1 0x0 PUSH1 0x40 DUP3 ADD SWAP1 POP PUSH2 0x48D7 PUSH1 0x0 DUP4 ADD DUP6 PUSH2 0x4629 JUMP JUMPDEST PUSH2 0x48E4 PUSH1 0x20 DUP4 ADD DUP5 PUSH2 0x4351 JUMP JUMPDEST SWAP4 SWAP3 POP POP POP JUMP JUMPDEST PUSH32 0x4E487B7100000000000000000000000000000000000000000000000000000000 PUSH1 0x0 MSTORE PUSH1 0x22 PUSH1 0x4 MSTORE PUSH1 0x24 PUSH1 0x0 REVERT JUMPDEST PUSH1 0x0 PUSH1 0x2 DUP3 DIV SWAP1 POP PUSH1 0x1 DUP3 AND DUP1 PUSH2 0x4932 JUMPI PUSH1 0x7F DUP3 AND SWAP2 POP JUMPDEST PUSH1 0x20 DUP3 LT DUP2 SUB PUSH2 0x4945 JUMPI PUSH2 0x4944 PUSH2 0x48EB JUMP JUMPDEST JUMPDEST POP SWAP2 SWAP1 POP JUMP JUMPDEST PUSH32 0x4E487B7100000000000000000000000000000000000000000000000000000000 PUSH1 0x0 MSTORE PUSH1 0x32 PUSH1 0x4 MSTORE PUSH1 0x24 PUSH1 0x0 REVERT JUMPDEST PUSH32 0x3330310000000000000000000000000000000000000000000000000000000000 PUSH1 0x0 DUP3 ADD MSTORE POP JUMP JUMPDEST PUSH1 0x0 PUSH2 0x49B0 PUSH1 0x3 DUP4 PUSH2 0x3E8D JUMP JUMPDEST SWAP2 POP PUSH2 0x49BB DUP3 PUSH2 0x497A JUMP JUMPDEST PUSH1 0x20 DUP3 ADD SWAP1 POP SWAP2 SWAP1 POP JUMP JUMPDEST PUSH1 0x0 PUSH1 0x20 DUP3 ADD SWAP1 POP DUP2 DUP2 SUB PUSH1 0x0 DUP4 ADD MSTORE PUSH2 0x49DF DUP2 PUSH2 0x49A3 JUMP JUMPDEST SWAP1 POP SWAP2 SWAP1 POP JUMP JUMPDEST PUSH32 0x3100000000000000000000000000000000000000000000000000000000000000 PUSH1 0x0 DUP3 ADD MSTORE POP JUMP JUMPDEST PUSH1 0x0 PUSH2 0x4A1C PUSH1 0x1 DUP4 PUSH2 0x3E8D JUMP JUMPDEST SWAP2 POP PUSH2 0x4A27 DUP3 PUSH2 0x49E6 JUMP JUMPDEST PUSH1 0x20 DUP3 ADD SWAP1 POP SWAP2 SWAP1 POP JUMP JUMPDEST PUSH1 0x0 PUSH1 0x20 DUP3 ADD SWAP1 POP DUP2 DUP2 SUB PUSH1 0x0 DUP4 ADD MSTORE PUSH2 0x4A4B DUP2 PUSH2 0x4A0F JUMP JUMPDEST SWAP1 POP SWAP2 SWAP1 POP JUMP JUMPDEST PUSH1 0x0 DUP2 SWAP1 POP DUP2 PUSH1 0x0 MSTORE PUSH1 0x20 PUSH1 0x0 KECCAK256 SWAP1 POP SWAP2 SWAP1 POP JUMP JUMPDEST PUSH1 0x0 PUSH1 0x20 PUSH1 0x1F DUP4 ADD DIV SWAP1 POP SWAP2 SWAP1 POP JUMP JUMPDEST PUSH1 0x0 DUP3 DUP3 SHL SWAP1 POP SWAP3 SWAP2 POP POP JUMP JUMPDEST PUSH1 0x0 PUSH1 0x8 DUP4 MUL PUSH2 0x4AB4 PUSH32 0xFFFFFFFFFFFFFFFFFFFFFFFFFFFFFFFFFFFFFFFFFFFFFFFFFFFFFFFFFFFFFFFF DUP3 PUSH2 0x4A77 JUMP JUMPDEST PUSH2 0x4ABE DUP7 DUP4 PUSH2 0x4A77 JUMP JUMPDEST SWAP6 POP DUP1 NOT DUP5 AND SWAP4 POP DUP1 DUP7 AND DUP5 OR SWAP3 POP POP POP SWAP4 SWAP3 POP POP POP JUMP JUMPDEST PUSH1 0x0 DUP2 SWAP1 POP SWAP2 SWAP1 POP JUMP JUMPDEST PUSH1 0x0 PUSH2 0x4AFB PUSH2 0x4AF6 PUSH2 0x4AF1 DUP5 PUSH2 0x3F92 JUMP JUMPDEST PUSH2 0x4AD6 JUMP JUMPDEST PUSH2 0x3F92 JUMP JUMPDEST SWAP1 POP SWAP2 SWAP1 POP JUMP JUMPDEST PUSH1 0x0 DUP2 SWAP1 POP SWAP2 SWAP1 POP JUMP JUMPDEST PUSH2 0x4B15 DUP4 PUSH2 0x4AE0 JUMP JUMPDEST PUSH2 0x4B29 PUSH2 0x4B21 DUP3 PUSH2 0x4B02 JUMP JUMPDEST DUP5 DUP5 SLOAD PUSH2 0x4A84 JUMP JUMPDEST DUP3 SSTORE POP POP POP POP JUMP JUMPDEST PUSH1 0x0 SWAP1 JUMP JUMPDEST PUSH2 0x4B3E PUSH2 0x4B31 JUMP JUMPDEST PUSH2 0x4B49 DUP2 DUP5 DUP5 PUSH2 0x4B0C JUMP JUMPDEST POP POP POP JUMP JUMPDEST JUMPDEST DUP2 DUP2 LT ISZERO PUSH2 0x4B6D JUMPI PUSH2 0x4B62 PUSH1 0x0 DUP3 PUSH2 0x4B36 JUMP JUMPDEST PUSH1 0x1 DUP2 ADD SWAP1 POP PUSH2 0x4B4F JUMP JUMPDEST POP POP JUMP JUMPDEST PUSH1 0x1F DUP3 GT ISZERO PUSH2 0x4BB2 JUMPI PUSH2 0x4B83 DUP2 PUSH2 0x4A52 JUMP JUMPDEST PUSH2 0x4B8C DUP5 PUSH2 0x4A67 JUMP JUMPDEST DUP2 ADD PUSH1 0x20 DUP6 LT ISZERO PUSH2 0x4B9B JUMPI DUP2 SWAP1 POP JUMPDEST PUSH2 0x4BAF PUSH2 0x4BA7 DUP6 PUSH2 0x4A67 JUMP JUMPDEST DUP4 ADD DUP3 PUSH2 0x4B4E JUMP JUMPDEST POP POP JUMPDEST POP POP POP JUMP JUMPDEST PUSH1 0x0 DUP3 DUP3 SHR SWAP1 POP SWAP3 SWAP2 POP POP JUMP JUMPDEST PUSH1 0x0 PUSH2 0x4BD5 PUSH1 0x0 NOT DUP5 PUSH1 0x8 MUL PUSH2 0x4BB7 JUMP JUMPDEST NOT DUP1 DUP4 AND SWAP2 POP POP SWAP3 SWAP2 POP POP JUMP JUMPDEST PUSH1 0x0 PUSH2 0x4BEE DUP4 DUP4 PUSH2 0x4BC4 JUMP JUMPDEST SWAP2 POP DUP3 PUSH1 0x2 MUL DUP3 OR SWAP1 POP SWAP3 SWAP2 POP POP JUMP JUMPDEST PUSH2 0x4C07 DUP3 PUSH2 0x3E82 JUMP JUMPDEST PUSH8 0xFFFFFFFFFFFFFFFF DUP2 GT ISZERO PUSH2 0x4C20 JUMPI PUSH2 0x4C1F PUSH2 0x3FD2 JUMP JUMPDEST JUMPDEST PUSH2 0x4C2A DUP3 SLOAD PUSH2 0x491A JUMP JUMPDEST PUSH2 0x4C35 DUP3 DUP3 DUP6 PUSH2 0x4B71 JUMP JUMPDEST PUSH1 0x0 PUSH1 0x20 SWAP1 POP PUSH1 0x1F DUP4 GT PUSH1 0x1 DUP2 EQ PUSH2 0x4C68 JUMPI PUSH1 0x0 DUP5 ISZERO PUSH2 0x4C56 JUMPI DUP3 DUP8 ADD MLOAD SWAP1 POP JUMPDEST PUSH2 0x4C60 DUP6 DUP3 PUSH2 0x4BE2 JUMP JUMPDEST DUP7 SSTORE POP PUSH2 0x4CC8 JUMP JUMPDEST PUSH1 0x1F NOT DUP5 AND PUSH2 0x4C76 DUP7 PUSH2 0x4A52 JUMP JUMPDEST PUSH1 0x0 JUMPDEST DUP3 DUP2 LT ISZERO PUSH2 0x4C9E JUMPI DUP5 DUP10 ADD MLOAD DUP3 SSTORE PUSH1 0x1 DUP3 ADD SWAP2 POP PUSH1 0x20 DUP6 ADD SWAP5 POP PUSH1 0x20 DUP2 ADD SWAP1 POP PUSH2 0x4C79 JUMP JUMPDEST DUP7 DUP4 LT ISZERO PUSH2 0x4CBB JUMPI DUP5 DUP10 ADD MLOAD PUSH2 0x4CB7 PUSH1 0x1F DUP10 AND DUP3 PUSH2 0x4BC4 JUMP JUMPDEST DUP4 SSTORE POP JUMPDEST PUSH1 0x1 PUSH1 0x2 DUP9 MUL ADD DUP9 SSTORE POP POP POP JUMPDEST POP POP POP POP POP POP JUMP JUMPDEST PUSH32 0x3130350000000000000000000000000000000000000000000000000000000000 PUSH1 0x0 DUP3 ADD MSTORE POP JUMP JUMPDEST PUSH1 0x0 PUSH2 0x4D06 PUSH1 0x3 DUP4 PUSH2 0x3E8D JUMP JUMPDEST SWAP2 POP PUSH2 0x4D11 DUP3 PUSH2 0x4CD0 JUMP JUMPDEST PUSH1 0x20 DUP3 ADD SWAP1 POP SWAP2 SWAP1 POP JUMP JUMPDEST PUSH1 0x0 PUSH1 0x20 DUP3 ADD SWAP1 POP DUP2 DUP2 SUB PUSH1 0x0 DUP4 ADD MSTORE PUSH2 0x4D35 DUP2 PUSH2 0x4CF9 JUMP JUMPDEST SWAP1 POP SWAP2 SWAP1 POP JUMP JUMPDEST PUSH32 0x416363657373436F6E74726F6C3A2063616E206F6E6C792072656E6F756E6365 PUSH1 0x0 DUP3 ADD MSTORE PUSH32 0x20726F6C657320666F722073656C660000000000000000000000000000000000 PUSH1 0x20 DUP3 ADD MSTORE POP JUMP JUMPDEST PUSH1 0x0 PUSH2 0x4D98 PUSH1 0x2F DUP4 PUSH2 0x3E8D JUMP JUMPDEST SWAP2 POP PUSH2 0x4DA3 DUP3 PUSH2 0x4D3C JUMP JUMPDEST PUSH1 0x40 DUP3 ADD SWAP1 POP SWAP2 SWAP1 POP JUMP JUMPDEST PUSH1 0x0 PUSH1 0x20 DUP3 ADD SWAP1 POP DUP2 DUP2 SUB PUSH1 0x0 DUP4 ADD MSTORE PUSH2 0x4DC7 DUP2 PUSH2 0x4D8B JUMP JUMPDEST SWAP1 POP SWAP2 SWAP1 POP JUMP JUMPDEST PUSH32 0x4552433732313A20696E76616C696420746F6B656E2049440000000000000000 PUSH1 0x0 DUP3 ADD MSTORE POP JUMP JUMPDEST PUSH1 0x0 PUSH2 0x4E04 PUSH1 0x18 DUP4 PUSH2 0x3E8D JUMP JUMPDEST SWAP2 POP PUSH2 0x4E0F DUP3 PUSH2 0x4DCE JUMP JUMPDEST PUSH1 0x20 DUP3 ADD SWAP1 POP SWAP2 SWAP1 POP JUMP JUMPDEST PUSH1 0x0 PUSH1 0x20 DUP3 ADD SWAP1 POP DUP2 DUP2 SUB PUSH1 0x0 DUP4 ADD MSTORE PUSH2 0x4E33 DUP2 PUSH2 0x4DF7 JUMP JUMPDEST SWAP1 POP SWAP2 SWAP1 POP JUMP JUMPDEST PUSH32 0x4552433732313A2061646472657373207A65726F206973206E6F742061207661 PUSH1 0x0 DUP3 ADD MSTORE PUSH32 0x6C6964206F776E65720000000000000000000000000000000000000000000000 PUSH1 0x20 DUP3 ADD MSTORE POP JUMP JUMPDEST PUSH1 0x0 PUSH2 0x4E96 PUSH1 0x29 DUP4 PUSH2 0x3E8D JUMP JUMPDEST SWAP2 POP PUSH2 0x4EA1 DUP3 PUSH2 0x4E3A JUMP JUMPDEST PUSH1 0x40 DUP3 ADD SWAP1 POP SWAP2 SWAP1 POP JUMP JUMPDEST PUSH1 0x0 PUSH1 0x20 DUP3 ADD SWAP1 POP DUP2 DUP2 SUB PUSH1 0x0 DUP4 ADD MSTORE PUSH2 0x4EC5 DUP2 PUSH2 0x4E89 JUMP JUMPDEST SWAP1 POP SWAP2 SWAP1 POP JUMP JUMPDEST PUSH32 0x496E73756666696369656E74207061796D656E74000000000000000000000000 PUSH1 0x0 DUP3 ADD MSTORE POP JUMP JUMPDEST PUSH1 0x0 PUSH2 0x4F02 PUSH1 0x14 DUP4 PUSH2 0x3E8D JUMP JUMPDEST SWAP2 POP PUSH2 0x4F0D DUP3 PUSH2 0x4ECC JUMP JUMPDEST PUSH1 0x20 DUP3 ADD SWAP1 POP SWAP2 SWAP1 POP JUMP JUMPDEST PUSH1 0x0 PUSH1 0x20 DUP3 ADD SWAP1 POP DUP2 DUP2 SUB PUSH1 0x0 DUP4 ADD MSTORE PUSH2 0x4F31 DUP2 PUSH2 0x4EF5 JUMP JUMPDEST SWAP1 POP SWAP2 SWAP1 POP JUMP JUMPDEST PUSH32 0x4E487B7100000000000000000000000000000000000000000000000000000000 PUSH1 0x0 MSTORE PUSH1 0x12 PUSH1 0x4 MSTORE PUSH1 0x24 PUSH1 0x0 REVERT JUMPDEST PUSH1 0x0 PUSH2 0x4F72 DUP3 PUSH2 0x3F92 JUMP JUMPDEST SWAP2 POP PUSH2 0x4F7D DUP4 PUSH2 0x3F92 JUMP JUMPDEST SWAP3 POP DUP3 PUSH2 0x4F8D JUMPI PUSH2 0x4F8C PUSH2 0x4F38 JUMP JUMPDEST JUMPDEST DUP3 DUP3 MOD SWAP1 POP SWAP3 SWAP2 POP POP JUMP JUMPDEST PUSH32 0x4E487B7100000000000000000000000000000000000000000000000000000000 PUSH1 0x0 MSTORE PUSH1 0x11 PUSH1 0x4 MSTORE PUSH1 0x24 PUSH1 0x0 REVERT JUMPDEST PUSH1 0x0 PUSH2 0x4FD2 DUP3 PUSH2 0x3F92 JUMP JUMPDEST SWAP2 POP PUSH2 0x4FDD DUP4 PUSH2 0x3F92 JUMP JUMPDEST SWAP3 POP DUP3 DUP3 ADD SWAP1 POP DUP1 DUP3 GT ISZERO PUSH2 0x4FF5 JUMPI PUSH2 0x4FF4 PUSH2 0x4F98 JUMP JUMPDEST JUMPDEST SWAP3 SWAP2 POP POP JUMP JUMPDEST PUSH32 0x3130360000000000000000000000000000000000000000000000000000000000 PUSH1 0x0 DUP3 ADD MSTORE POP JUMP JUMPDEST PUSH1 0x0 PUSH2 0x5031 PUSH1 0x3 DUP4 PUSH2 0x3E8D JUMP JUMPDEST SWAP2 POP PUSH2 0x503C DUP3 PUSH2 0x4FFB JUMP JUMPDEST PUSH1 0x20 DUP3 ADD SWAP1 POP SWAP2 SWAP1 POP JUMP JUMPDEST PUSH1 0x0 PUSH1 0x20 DUP3 ADD SWAP1 POP DUP2 DUP2 SUB PUSH1 0x0 DUP4 ADD MSTORE PUSH2 0x5060 DUP2 PUSH2 0x5024 JUMP JUMPDEST SWAP1 POP SWAP2 SWAP1 POP JUMP JUMPDEST PUSH1 0x0 PUSH2 0x5072 DUP3 PUSH2 0x45F2 JUMP JUMPDEST SWAP2 POP PUSH1 0xFF DUP3 SUB PUSH2 0x5085 JUMPI PUSH2 0x5084 PUSH2 0x4F98 JUMP JUMPDEST JUMPDEST PUSH1 0x1 DUP3 ADD SWAP1 POP SWAP2 SWAP1 POP JUMP JUMPDEST PUSH1 0x0 DUP2 SWAP1 POP SWAP3 SWAP2 POP POP JUMP JUMPDEST PUSH1 0x0 PUSH2 0x50A6 DUP3 PUSH2 0x3E82 JUMP JUMPDEST PUSH2 0x50B0 DUP2 DUP6 PUSH2 0x5090 JUMP JUMPDEST SWAP4 POP PUSH2 0x50C0 DUP2 DUP6 PUSH1 0x20 DUP7 ADD PUSH2 0x3E9E JUMP JUMPDEST DUP1 DUP5 ADD SWAP2 POP POP SWAP3 SWAP2 POP POP JUMP JUMPDEST PUSH1 0x0 PUSH2 0x50D8 DUP3 DUP13 PUSH2 0x509B JUMP JUMPDEST SWAP2 POP PUSH2 0x50E4 DUP3 DUP12 PUSH2 0x509B JUMP JUMPDEST SWAP2 POP PUSH2 0x50F0 DUP3 DUP11 PUSH2 0x509B JUMP JUMPDEST SWAP2 POP PUSH2 0x50FC DUP3 DUP10 PUSH2 0x509B JUMP JUMPDEST SWAP2 POP PUSH2 0x5108 DUP3 DUP9 PUSH2 0x509B JUMP JUMPDEST SWAP2 POP PUSH2 0x5114 DUP3 DUP8 PUSH2 0x509B JUMP JUMPDEST SWAP2 POP PUSH2 0x5120 DUP3 DUP7 PUSH2 0x509B JUMP JUMPDEST SWAP2 POP PUSH2 0x512C DUP3 DUP6 PUSH2 0x509B JUMP JUMPDEST SWAP2 POP PUSH2 0x5138 DUP3 DUP5 PUSH2 0x509B JUMP JUMPDEST SWAP2 POP DUP2 SWAP1 POP SWAP11 SWAP10 POP POP POP POP POP POP POP POP POP POP JUMP JUMPDEST PUSH1 0x0 PUSH2 0x5157 DUP3 DUP5 PUSH2 0x509B JUMP JUMPDEST SWAP2 POP DUP2 SWAP1 POP SWAP3 SWAP2 POP POP JUMP JUMPDEST PUSH1 0x0 PUSH2 0x516D DUP3 PUSH2 0x3F92 JUMP JUMPDEST SWAP2 POP PUSH32 0xFFFFFFFFFFFFFFFFFFFFFFFFFFFFFFFFFFFFFFFFFFFFFFFFFFFFFFFFFFFFFFFF DUP3 SUB PUSH2 0x519F JUMPI PUSH2 0x519E PUSH2 0x4F98 JUMP JUMPDEST JUMPDEST PUSH1 0x1 DUP3 ADD SWAP1 POP SWAP2 SWAP1 POP JUMP JUMPDEST PUSH1 0x0 PUSH2 0x51B5 DUP3 PUSH2 0x3F92 JUMP JUMPDEST SWAP2 POP PUSH2 0x51C0 DUP4 PUSH2 0x3F92 JUMP JUMPDEST SWAP3 POP DUP3 DUP3 SUB SWAP1 POP DUP2 DUP2 GT ISZERO PUSH2 0x51D8 JUMPI PUSH2 0x51D7 PUSH2 0x4F98 JUMP JUMPDEST JUMPDEST SWAP3 SWAP2 POP POP JUMP JUMPDEST PUSH32 0x3130370000000000000000000000000000000000000000000000000000000000 PUSH1 0x0 DUP3 ADD MSTORE POP JUMP JUMPDEST PUSH1 0x0 PUSH2 0x5214 PUSH1 0x3 DUP4 PUSH2 0x3E8D JUMP JUMPDEST SWAP2 POP PUSH2 0x521F DUP3 PUSH2 0x51DE JUMP JUMPDEST PUSH1 0x20 DUP3 ADD SWAP1 POP SWAP2 SWAP1 POP JUMP JUMPDEST PUSH1 0x0 PUSH1 0x20 DUP3 ADD SWAP1 POP DUP2 DUP2 SUB PUSH1 0x0 DUP4 ADD MSTORE PUSH2 0x5243 DUP2 PUSH2 0x5207 JUMP JUMPDEST SWAP1 POP SWAP2 SWAP1 POP JUMP JUMPDEST PUSH32 0x3130380000000000000000000000000000000000000000000000000000000000 PUSH1 0x0 DUP3 ADD MSTORE POP JUMP JUMPDEST PUSH1 0x0 PUSH2 0x5280 PUSH1 0x3 DUP4 PUSH2 0x3E8D JUMP JUMPDEST SWAP2 POP PUSH2 0x528B DUP3 PUSH2 0x524A JUMP JUMPDEST PUSH1 0x20 DUP3 ADD SWAP1 POP SWAP2 SWAP1 POP JUMP JUMPDEST PUSH1 0x0 PUSH1 0x20 DUP3 ADD SWAP1 POP DUP2 DUP2 SUB PUSH1 0x0 DUP4 ADD MSTORE PUSH2 0x52AF DUP2 PUSH2 0x5273 JUMP JUMPDEST SWAP1 POP SWAP2 SWAP1 POP JUMP JUMPDEST PUSH32 0x4552433732313A207472616E736665722066726F6D20696E636F727265637420 PUSH1 0x0 DUP3 ADD MSTORE PUSH32 0x6F776E6572000000000000000000000000000000000000000000000000000000 PUSH1 0x20 DUP3 ADD MSTORE POP JUMP JUMPDEST PUSH1 0x0 PUSH2 0x5312 PUSH1 0x25 DUP4 PUSH2 0x3E8D JUMP JUMPDEST SWAP2 POP PUSH2 0x531D DUP3 PUSH2 0x52B6 JUMP JUMPDEST PUSH1 0x40 DUP3 ADD SWAP1 POP SWAP2 SWAP1 POP JUMP JUMPDEST PUSH1 0x0 PUSH1 0x20 DUP3 ADD SWAP1 POP DUP2 DUP2 SUB PUSH1 0x0 DUP4 ADD MSTORE PUSH2 0x5341 DUP2 PUSH2 0x5305 JUMP JUMPDEST SWAP1 POP SWAP2 SWAP1 POP JUMP JUMPDEST PUSH32 0x4552433732313A207472616E7366657220746F20746865207A65726F20616464 PUSH1 0x0 DUP3 ADD MSTORE PUSH32 0x7265737300000000000000000000000000000000000000000000000000000000 PUSH1 0x20 DUP3 ADD MSTORE POP JUMP JUMPDEST PUSH1 0x0 PUSH2 0x53A4 PUSH1 0x24 DUP4 PUSH2 0x3E8D JUMP JUMPDEST SWAP2 POP PUSH2 0x53AF DUP3 PUSH2 0x5348 JUMP JUMPDEST PUSH1 0x40 DUP3 ADD SWAP1 POP SWAP2 SWAP1 POP JUMP JUMPDEST PUSH1 0x0 PUSH1 0x20 DUP3 ADD SWAP1 POP DUP2 DUP2 SUB PUSH1 0x0 DUP4 ADD MSTORE PUSH2 0x53D3 DUP2 PUSH2 0x5397 JUMP JUMPDEST SWAP1 POP SWAP2 SWAP1 POP JUMP JUMPDEST PUSH32 0x4F776E61626C653A2063616C6C6572206973206E6F7420746865206F776E6572 PUSH1 0x0 DUP3 ADD MSTORE POP JUMP JUMPDEST PUSH1 0x0 PUSH2 0x5410 PUSH1 0x20 DUP4 PUSH2 0x3E8D JUMP JUMPDEST SWAP2 POP PUSH2 0x541B DUP3 PUSH2 0x53DA JUMP JUMPDEST PUSH1 0x20 DUP3 ADD SWAP1 POP SWAP2 SWAP1 POP JUMP JUMPDEST PUSH1 0x0 PUSH1 0x20 DUP3 ADD SWAP1 POP DUP2 DUP2 SUB PUSH1 0x0 DUP4 ADD MSTORE PUSH2 0x543F DUP2 PUSH2 0x5403 JUMP JUMPDEST SWAP1 POP SWAP2 SWAP1 POP JUMP JUMPDEST PUSH1 0x0 DUP2 SWAP1 POP SWAP2 SWAP1 POP JUMP JUMPDEST PUSH2 0x5461 PUSH2 0x545C DUP3 PUSH2 0x3F92 JUMP JUMPDEST PUSH2 0x5446 JUMP JUMPDEST DUP3 MSTORE POP POP JUMP JUMPDEST PUSH1 0x0 DUP2 PUSH1 0x60 SHL SWAP1 POP SWAP2 SWAP1 POP JUMP JUMPDEST PUSH1 0x0 PUSH2 0x547F DUP3 PUSH2 0x5467 JUMP JUMPDEST SWAP1 POP SWAP2 SWAP1 POP JUMP JUMPDEST PUSH1 0x0 PUSH2 0x5491 DUP3 PUSH2 0x5474 JUMP JUMPDEST SWAP1 POP SWAP2 SWAP1 POP JUMP JUMPDEST PUSH2 0x54A9 PUSH2 0x54A4 DUP3 PUSH2 0x3F54 JUMP JUMPDEST PUSH2 0x5486 JUMP JUMPDEST DUP3 MSTORE POP POP JUMP JUMPDEST PUSH1 0x0 PUSH2 0x54BB DUP3 DUP10 PUSH2 0x5450 JUMP JUMPDEST PUSH1 0x20 DUP3 ADD SWAP2 POP PUSH2 0x54CB DUP3 DUP9 PUSH2 0x5450 JUMP JUMPDEST PUSH1 0x20 DUP3 ADD SWAP2 POP PUSH2 0x54DB DUP3 DUP8 PUSH2 0x5450 JUMP JUMPDEST PUSH1 0x20 DUP3 ADD SWAP2 POP PUSH2 0x54EB DUP3 DUP7 PUSH2 0x5498 JUMP JUMPDEST PUSH1 0x14 DUP3 ADD SWAP2 POP PUSH2 0x54FB DUP3 DUP6 PUSH2 0x5450 JUMP JUMPDEST PUSH1 0x20 DUP3 ADD SWAP2 POP PUSH2 0x550B DUP3 DUP5 PUSH2 0x5450 JUMP JUMPDEST PUSH1 0x20 DUP3 ADD SWAP2 POP DUP2 SWAP1 POP SWAP8 SWAP7 POP POP POP POP POP POP POP JUMP JUMPDEST PUSH32 0x3000000000000000000000000000000000000000000000000000000000000000 PUSH1 0x0 DUP3 ADD MSTORE POP JUMP JUMPDEST PUSH1 0x0 PUSH2 0x5555 PUSH1 0x1 DUP4 PUSH2 0x5090 JUMP JUMPDEST SWAP2 POP PUSH2 0x5560 DUP3 PUSH2 0x551F JUMP JUMPDEST PUSH1 0x1 DUP3 ADD SWAP1 POP SWAP2 SWAP1 POP JUMP JUMPDEST PUSH1 0x0 PUSH2 0x5576 DUP3 PUSH2 0x5548 JUMP JUMPDEST SWAP2 POP PUSH2 0x5582 DUP3 DUP5 PUSH2 0x509B JUMP JUMPDEST SWAP2 POP DUP2 SWAP1 POP SWAP3 SWAP2 POP POP JUMP JUMPDEST PUSH32 0x4552433732313A206D696E7420746F20746865207A65726F2061646472657373 PUSH1 0x0 DUP3 ADD MSTORE POP JUMP JUMPDEST PUSH1 0x0 PUSH2 0x55C3 PUSH1 0x20 DUP4 PUSH2 0x3E8D JUMP JUMPDEST SWAP2 POP PUSH2 0x55CE DUP3 PUSH2 0x558D JUMP JUMPDEST PUSH1 0x20 DUP3 ADD SWAP1 POP SWAP2 SWAP1 POP JUMP JUMPDEST PUSH1 0x0 PUSH1 0x20 DUP3 ADD SWAP1 POP DUP2 DUP2 SUB PUSH1 0x0 DUP4 ADD MSTORE PUSH2 0x55F2 DUP2 PUSH2 0x55B6 JUMP JUMPDEST SWAP1 POP SWAP2 SWAP1 POP JUMP JUMPDEST PUSH32 0x4552433732313A20746F6B656E20616C7265616479206D696E74656400000000 PUSH1 0x0 DUP3 ADD MSTORE POP JUMP JUMPDEST PUSH1 0x0 PUSH2 0x562F PUSH1 0x1C DUP4 PUSH2 0x3E8D JUMP JUMPDEST SWAP2 POP PUSH2 0x563A DUP3 PUSH2 0x55F9 JUMP JUMPDEST PUSH1 0x20 DUP3 ADD SWAP1 POP SWAP2 SWAP1 POP JUMP JUMPDEST PUSH1 0x0 PUSH1 0x20 DUP3 ADD SWAP1 POP DUP2 DUP2 SUB PUSH1 0x0 DUP4 ADD MSTORE PUSH2 0x565E DUP2 PUSH2 0x5622 JUMP JUMPDEST SWAP1 POP SWAP2 SWAP1 POP JUMP JUMPDEST PUSH1 0x0 DUP2 SLOAD PUSH2 0x5672 DUP2 PUSH2 0x491A JUMP JUMPDEST PUSH2 0x567C DUP2 DUP7 PUSH2 0x5090 JUMP JUMPDEST SWAP5 POP PUSH1 0x1 DUP3 AND PUSH1 0x0 DUP2 EQ PUSH2 0x5697 JUMPI PUSH1 0x1 DUP2 EQ PUSH2 0x56AC JUMPI PUSH2 0x56DF JUMP JUMPDEST PUSH1 0xFF NOT DUP4 AND DUP7 MSTORE DUP2 ISZERO ISZERO DUP3 MUL DUP7 ADD SWAP4 POP PUSH2 0x56DF JUMP JUMPDEST PUSH2 0x56B5 DUP6 PUSH2 0x4A52 JUMP JUMPDEST PUSH1 0x0 JUMPDEST DUP4 DUP2 LT ISZERO PUSH2 0x56D7 JUMPI DUP2 SLOAD DUP2 DUP10 ADD MSTORE PUSH1 0x1 DUP3 ADD SWAP2 POP PUSH1 0x20 DUP2 ADD SWAP1 POP PUSH2 0x56B8 JUMP JUMPDEST DUP4 DUP9 ADD SWAP6 POP POP POP JUMPDEST POP POP POP SWAP3 SWAP2 POP POP JUMP JUMPDEST PUSH32 0x2E6A736F6E000000000000000000000000000000000000000000000000000000 PUSH1 0x0 DUP3 ADD MSTORE POP JUMP JUMPDEST PUSH1 0x0 PUSH2 0x571E PUSH1 0x5 DUP4 PUSH2 0x5090 JUMP JUMPDEST SWAP2 POP PUSH2 0x5729 DUP3 PUSH2 0x56E8 JUMP JUMPDEST PUSH1 0x5 DUP3 ADD SWAP1 POP SWAP2 SWAP1 POP JUMP JUMPDEST PUSH1 0x0 PUSH2 0x5740 DUP3 DUP6 PUSH2 0x5665 JUMP JUMPDEST SWAP2 POP PUSH2 0x574C DUP3 DUP5 PUSH2 0x509B JUMP JUMPDEST SWAP2 POP PUSH2 0x5757 DUP3 PUSH2 0x5711 JUMP JUMPDEST SWAP2 POP DUP2 SWAP1 POP SWAP4 SWAP3 POP POP POP JUMP JUMPDEST PUSH1 0x0 PUSH2 0x576F DUP3 DUP6 PUSH2 0x509B JUMP JUMPDEST SWAP2 POP PUSH2 0x577B DUP3 DUP5 PUSH2 0x509B JUMP JUMPDEST SWAP2 POP DUP2 SWAP1 POP SWAP4 SWAP3 POP POP POP JUMP JUMPDEST PUSH32 0x455243373231456E756D657261626C653A20636F6E7365637574697665207472 PUSH1 0x0 DUP3 ADD MSTORE PUSH32 0x616E7366657273206E6F7420737570706F727465640000000000000000000000 PUSH1 0x20 DUP3 ADD MSTORE POP JUMP JUMPDEST PUSH1 0x0 PUSH2 0x57E3 PUSH1 0x35 DUP4 PUSH2 0x3E8D JUMP JUMPDEST SWAP2 POP PUSH2 0x57EE DUP3 PUSH2 0x5787 JUMP JUMPDEST PUSH1 0x40 DUP3 ADD SWAP1 POP SWAP2 SWAP1 POP JUMP JUMPDEST PUSH1 0x0 PUSH1 0x20 DUP3 ADD SWAP1 POP DUP2 DUP2 SUB PUSH1 0x0 DUP4 ADD MSTORE PUSH2 0x5812 DUP2 PUSH2 0x57D6 JUMP JUMPDEST SWAP1 POP SWAP2 SWAP1 POP JUMP JUMPDEST PUSH32 0x416363657373436F6E74726F6C3A206163636F756E7420000000000000000000 PUSH1 0x0 DUP3 ADD MSTORE POP JUMP JUMPDEST PUSH1 0x0 PUSH2 0x584F PUSH1 0x17 DUP4 PUSH2 0x5090 JUMP JUMPDEST SWAP2 POP PUSH2 0x585A DUP3 PUSH2 0x5819 JUMP JUMPDEST PUSH1 0x17 DUP3 ADD SWAP1 POP SWAP2 SWAP1 POP JUMP JUMPDEST PUSH32 0x206973206D697373696E6720726F6C6520000000000000000000000000000000 PUSH1 0x0 DUP3 ADD MSTORE POP JUMP JUMPDEST PUSH1 0x0 PUSH2 0x589B PUSH1 0x11 DUP4 PUSH2 0x5090 JUMP JUMPDEST SWAP2 POP PUSH2 0x58A6 DUP3 PUSH2 0x5865 JUMP JUMPDEST PUSH1 0x11 DUP3 ADD SWAP1 POP SWAP2 SWAP1 POP JUMP JUMPDEST PUSH1 0x0 PUSH2 0x58BC DUP3 PUSH2 0x5842 JUMP JUMPDEST SWAP2 POP PUSH2 0x58C8 DUP3 DUP6 PUSH2 0x509B JUMP JUMPDEST SWAP2 POP PUSH2 0x58D3 DUP3 PUSH2 0x588E JUMP JUMPDEST SWAP2 POP PUSH2 0x58DF DUP3 DUP5 PUSH2 0x509B JUMP JUMPDEST SWAP2 POP DUP2 SWAP1 POP SWAP4 SWAP3 POP POP POP JUMP JUMPDEST PUSH1 0x0 PUSH2 0x58F6 DUP3 PUSH2 0x45F2 JUMP JUMPDEST SWAP2 POP PUSH2 0x5901 DUP4 PUSH2 0x45F2 JUMP JUMPDEST SWAP3 POP DUP3 PUSH2 0x5911 JUMPI PUSH2 0x5910 PUSH2 0x4F38 JUMP JUMPDEST JUMPDEST DUP3 DUP3 DIV SWAP1 POP SWAP3 SWAP2 POP POP JUMP JUMPDEST PUSH1 0x0 PUSH2 0x5927 DUP3 PUSH2 0x45F2 JUMP JUMPDEST SWAP2 POP PUSH2 0x5932 DUP4 PUSH2 0x45F2 JUMP JUMPDEST SWAP3 POP DUP3 PUSH2 0x5942 JUMPI PUSH2 0x5941 PUSH2 0x4F38 JUMP JUMPDEST JUMPDEST DUP3 DUP3 MOD SWAP1 POP SWAP3 SWAP2 POP POP JUMP JUMPDEST PUSH1 0x0 PUSH2 0x5958 DUP3 PUSH2 0x45F2 JUMP JUMPDEST SWAP2 POP PUSH2 0x5963 DUP4 PUSH2 0x45F2 JUMP JUMPDEST SWAP3 POP DUP3 DUP3 ADD SWAP1 POP PUSH1 0xFF DUP2 GT ISZERO PUSH2 0x597C JUMPI PUSH2 0x597B PUSH2 0x4F98 JUMP JUMPDEST JUMPDEST SWAP3 SWAP2 POP POP JUMP JUMPDEST PUSH1 0x0 PUSH2 0x598D DUP3 PUSH2 0x45F2 JUMP JUMPDEST SWAP2 POP PUSH1 0x0 DUP3 SUB PUSH2 0x59A0 JUMPI PUSH2 0x599F PUSH2 0x4F98 JUMP JUMPDEST JUMPDEST PUSH1 0x1 DUP3 SUB SWAP1 POP SWAP2 SWAP1 POP JUMP JUMPDEST PUSH32 0x4E487B7100000000000000000000000000000000000000000000000000000000 PUSH1 0x0 MSTORE PUSH1 0x31 PUSH1 0x4 MSTORE PUSH1 0x24 PUSH1 0x0 REVERT JUMPDEST PUSH1 0x0 PUSH2 0x59E5 DUP3 PUSH2 0x3F92 JUMP JUMPDEST SWAP2 POP PUSH2 0x59F0 DUP4 PUSH2 0x3F92 JUMP JUMPDEST SWAP3 POP DUP3 DUP3 MUL PUSH2 0x59FE DUP2 PUSH2 0x3F92 JUMP JUMPDEST SWAP2 POP DUP3 DUP3 DIV DUP5 EQ DUP4 ISZERO OR PUSH2 0x5A15 JUMPI PUSH2 0x5A14 PUSH2 0x4F98 JUMP JUMPDEST JUMPDEST POP SWAP3 SWAP2 POP POP JUMP JUMPDEST PUSH1 0x0 PUSH2 0x5A27 DUP3 PUSH2 0x3F92 JUMP JUMPDEST SWAP2 POP PUSH1 0x0 DUP3 SUB PUSH2 0x5A3A JUMPI PUSH2 0x5A39 PUSH2 0x4F98 JUMP JUMPDEST JUMPDEST PUSH1 0x1 DUP3 SUB SWAP1 POP SWAP2 SWAP1 POP JUMP JUMPDEST PUSH32 0x537472696E67733A20686578206C656E67746820696E73756666696369656E74 PUSH1 0x0 DUP3 ADD MSTORE POP JUMP JUMPDEST PUSH1 0x0 PUSH2 0x5A7B PUSH1 0x20 DUP4 PUSH2 0x3E8D JUMP JUMPDEST SWAP2 POP PUSH2 0x5A86 DUP3 PUSH2 0x5A45 JUMP JUMPDEST PUSH1 0x20 DUP3 ADD SWAP1 POP SWAP2 SWAP1 POP JUMP JUMPDEST PUSH1 0x0 PUSH1 0x20 DUP3 ADD SWAP1 POP DUP2 DUP2 SUB PUSH1 0x0 DUP4 ADD MSTORE PUSH2 0x5AAA DUP2 PUSH2 0x5A6E JUMP JUMPDEST SWAP1 POP SWAP2 SWAP1 POP JUMP INVALID LOG2 PUSH5 0x6970667358 0x22 SLT KECCAK256 NUMBER ISZERO CALLDATACOPY NOT 0xC3 0xD3 0xEC PUSH10 0xB17EFABFB7EC41F5974D PUSH4 0xCCF2BE17 0x2A MSTORE8 CALLDATACOPY 0xE0 PUSH32 0xDAF8FBBB64736F6C63430008180033697066733A2F2F62616679626569646836 PUSH22 0x6B3762323567786C62357264377673656C6533747636 CALLVALUE PUSH24 0x7832706572336C6A707876626374736E3464693378667269 0x2F "},"methodIdentifiers":{"ADMIN_ROLE()":"75b238fc","DEFAULT_ADMIN_ROLE()":"a217fddf","balanceOf(address)":"70a08231","buyItem(uint256)":"e7fb74c7","cancelListing(uint256)":"305a67a8","getFishermanTypeByTokenId(uint256)":"f42a7b70","getOwnedNFTs(address)":"18148f1b","getRoleAdmin(bytes32)":"248a9ca3","grantRole(bytes32,address)":"2f2ff15d","hasRole(bytes32,address)":"91d14854","listItem(uint256,uint256)":"883efa67","listings(uint256)":"de74e57b","maxSupplies(uint256)":"87962dcc","mintFisherman()":"a212a5cc","mintPrice()":"6817c76c","mintedSupplies(uint256)":"2489fd5e","name()":"06fdde03","onERC721Received(address,address,uint256,bytes)":"150b7a02","owner()":"8da5cb5b","ownerOf(uint256)":"6352211e","partOptions0(uint256)":"be6f0ef1","partOptions1(uint256)":"606733ed","partOptions2(uint256)":"d70e761b","renounceOwnership()":"715018a6","renounceRole(bytes32,address)":"36568abe","revokeRole(bytes32,address)":"d547741f","setBaseTokenURI(string)":"30176e13","setMaxSupplies(uint256[])":"95e66287","setMintPrice(uint256)":"f4a0a528","setPartOptions(uint256,uint8[9])":"8ac103f7","supportsInterface(bytes4)":"01ffc9a7","symbol()":"95d89b41","tokenByIndex(uint256)":"4f6ccce7","tokenOfOwnerByIndex(address,uint256)":"2f745c59","tokenURI(uint256)":"c87b56dd","totalSupply()":"18160ddd","transferFrom(address,address,uint256)":"23b872dd","transferOwnership(address)":"f2fde38b","updateMaxSupplyAt(uint256,uint256)":"fc0b5b1d","withdraw()":"3ccfd60b"}}}}}