{"contracts/User.sol":{"User":{"abi":[{"inputs":[{"internalType":"address","name":"_gmcContract","type":"address"},{"internalType":"address","name":"_fishermanNFT","type":"address"},{"internalType":"address","name":"_fishingRodNFT","type":"address"},{"internalType":"uint256","name":"_baitPrice","type":"uint256"}],"stateMutability":"nonpayable","type":"constructor"},{"anonymous":false,"inputs":[{"indexed":true,"internalType":"address","name":"playerAddress","type":"address"},{"indexed":false,"internalType":"uint256","name":"newCount","type":"uint256"}],"name":"BaitCountUpdated","type":"event"},{"anonymous":false,"inputs":[{"indexed":false,"internalType":"address","name":"userAddress","type":"address"},{"indexed":false,"internalType":"uint256","name":"count","type":"uint256"}],"name":"ClaimGMC","type":"event"},{"anonymous":false,"inputs":[{"indexed":true,"internalType":"address","name":"playerAddress","type":"address"},{"indexed":false,"internalType":"uint256","name":"newAmount","type":"uint256"}],"name":"CollectedGMCUpdated","type":"event"},{"anonymous":false,"inputs":[{"indexed":true,"internalType":"address","name":"playerAddress","type":"address"},{"indexed":false,"internalType":"uint256","name":"addedExp","type":"uint256"},{"indexed":false,"internalType":"uint256","name":"newExp","type":"uint256"}],"name":"ExperienceAdded","type":"event"},{"anonymous":false,"inputs":[{"indexed":true,"internalType":"address","name":"playerAddress","type":"address"},{"indexed":false,"internalType":"uint256","name":"star","type":"uint256"},{"indexed":false,"internalType":"uint256","name":"newCount","type":"uint256"}],"name":"FishCountUpdated","type":"event"},{"anonymous":false,"inputs":[{"indexed":true,"internalType":"address","name":"playerAddress","type":"address"},{"indexed":false,"internalType":"uint256","name":"newLevel","type":"uint256"}],"name":"FishPoolLevelUpdated","type":"event"},{"anonymous":false,"inputs":[{"indexed":true,"internalType":"address","name":"playerAddress","type":"address"},{"indexed":false,"internalType":"uint256","name":"newFishermanId","type":"uint256"}],"name":"FishermanChanged","type":"event"},{"anonymous":false,"inputs":[{"indexed":true,"internalType":"uint256","name":"levelUpLimit","type":"uint256"},{"indexed":true,"internalType":"uint256","name":"baitPurchaseLimit","type":"uint256"},{"indexed":true,"internalType":"uint256","name":"baitPrice","type":"uint256"}],"name":"LimitAttributeUpdate","type":"event"},{"anonymous":false,"inputs":[{"indexed":true,"internalType":"address","name":"previousOwner","type":"address"},{"indexed":true,"internalType":"address","name":"newOwner","type":"address"}],"name":"OwnershipTransferStarted","type":"event"},{"anonymous":false,"inputs":[{"indexed":true,"internalType":"address","name":"previousOwner","type":"address"},{"indexed":true,"internalType":"address","name":"newOwner","type":"address"}],"name":"OwnershipTransferred","type":"event"},{"anonymous":false,"inputs":[{"indexed":true,"internalType":"address","name":"playerAddress","type":"address"}],"name":"PlayerAdded","type":"event"},{"anonymous":false,"inputs":[{"indexed":true,"internalType":"address","name":"playerAddress","type":"address"},{"indexed":false,"internalType":"uint256","name":"newLevel","type":"uint256"}],"name":"PlayerLevelUpdated","type":"event"},{"anonymous":false,"inputs":[{"indexed":true,"internalType":"address","name":"playerAddress","type":"address"},{"indexed":false,"internalType":"uint256","name":"newLevel","type":"uint256"}],"name":"PlayerLeveledUp","type":"event"},{"anonymous":false,"inputs":[{"indexed":true,"internalType":"address","name":"playerAddress","type":"address"},{"indexed":false,"internalType":"uint256","name":"newRodId","type":"uint256"}],"name":"RodChanged","type":"event"},{"anonymous":false,"inputs":[{"indexed":true,"internalType":"bytes32","name":"role","type":"bytes32"},{"indexed":true,"internalType":"bytes32","name":"previousAdminRole","type":"bytes32"},{"indexed":true,"internalType":"bytes32","name":"newAdminRole","type":"bytes32"}],"name":"RoleAdminChanged","type":"event"},{"anonymous":false,"inputs":[{"indexed":true,"internalType":"bytes32","name":"role","type":"bytes32"},{"indexed":true,"internalType":"address","name":"account","type":"address"},{"indexed":true,"internalType":"address","name":"sender","type":"address"}],"name":"RoleGranted","type":"event"},{"anonymous":false,"inputs":[{"indexed":true,"internalType":"bytes32","name":"role","type":"bytes32"},{"indexed":true,"internalType":"address","name":"account","type":"address"},{"indexed":true,"internalType":"address","name":"sender","type":"address"}],"name":"RoleRevoked","type":"event"},{"anonymous":false,"inputs":[{"components":[{"internalType":"uint256","name":"fishingCount","type":"uint256"},{"internalType":"uint256","name":"experience","type":"uint256"},{"internalType":"uint256","name":"level","type":"uint256"},{"internalType":"uint256[5]","name":"unlockedFishingSpots","type":"uint256[5]"},{"internalType":"uint256","name":"currentFishingSpot","type":"uint256"},{"internalType":"uint256","name":"fishPoolLevel","type":"uint256"},{"internalType":"uint256","name":"interestRate","type":"uint256"},{"internalType":"uint256","name":"collectedGMC","type":"uint256"},{"internalType":"uint256","name":"baitCount","type":"uint256"},{"internalType":"uint256[10]","name":"fishCount","type":"uint256[10]"},{"internalType":"uint256","name":"currentFishermanNFT","type":"uint256"},{"internalType":"uint256","name":"currentRodNFT","type":"uint256"}],"indexed":true,"internalType":"struct User.PlayerInfo[]","name":"playerInfo","type":"tuple[]"},{"indexed":true,"internalType":"address[]","name":"playerAddresses","type":"address[]"}],"name":"UserDataUpdate","type":"event"},{"inputs":[],"name":"ADMIN_ROLE","outputs":[{"internalType":"bytes32","name":"","type":"bytes32"}],"stateMutability":"view","type":"function"},{"inputs":[],"name":"DEFAULT_ADMIN_ROLE","outputs":[{"internalType":"bytes32","name":"","type":"bytes32"}],"stateMutability":"view","type":"function"},{"inputs":[],"name":"acceptOwnership","outputs":[],"stateMutability":"nonpayable","type":"function"},{"inputs":[{"internalType":"address","name":"newAdmin","type":"address"}],"name":"addAdmin","outputs":[],"stateMutability":"nonpayable","type":"function"},{"inputs":[{"internalType":"address","name":"userAddress","type":"address"}],"name":"addUser","outputs":[],"stateMutability":"nonpayable","type":"function"},{"inputs":[],"name":"baitPrice","outputs":[{"internalType":"uint256","name":"","type":"uint256"}],"stateMutability":"view","type":"function"},{"inputs":[],"name":"baitPurchaseLimit","outputs":[{"internalType":"uint256","name":"","type":"uint256"}],"stateMutability":"view","type":"function"},{"inputs":[{"internalType":"uint256","name":"count","type":"uint256"}],"name":"buyBaits","outputs":[],"stateMutability":"nonpayable","type":"function"},{"inputs":[{"internalType":"address","name":"userAddress","type":"address"},{"internalType":"uint256","name":"fishermanId","type":"uint256"}],"name":"changeFisherman","outputs":[],"stateMutability":"nonpayable","type":"function"},{"inputs":[{"internalType":"uint256","name":"rodId","type":"uint256"},{"internalType":"address","name":"userAddress","type":"address"}],"name":"changeRod","outputs":[],"stateMutability":"nonpayable","type":"function"},{"inputs":[{"internalType":"address","name":"userAddress","type":"address"},{"internalType":"uint256","name":"count","type":"uint256"}],"name":"claimGMC","outputs":[],"stateMutability":"nonpayable","type":"function"},{"inputs":[],"name":"fishermanNFT","outputs":[{"internalType":"contract IFishermanNFT","name":"","type":"address"}],"stateMutability":"view","type":"function"},{"inputs":[],"name":"fishingCountLimit","outputs":[{"internalType":"uint256","name":"","type":"uint256"}],"stateMutability":"view","type":"function"},{"inputs":[],"name":"fishingRodNFT","outputs":[{"internalType":"contract IFishingRodNFT","name":"","type":"address"}],"stateMutability":"view","type":"function"},{"inputs":[{"internalType":"address","name":"playerAddress","type":"address"}],"name":"getBaitCount","outputs":[{"internalType":"uint256","name":"","type":"uint256"}],"stateMutability":"view","type":"function"},{"inputs":[],"name":"getBaitPurchaseLimit","outputs":[{"internalType":"uint256","name":"","type":"uint256"}],"stateMutability":"view","type":"function"},{"inputs":[{"internalType":"address","name":"playerAddress","type":"address"}],"name":"getCollectedGMC","outputs":[{"internalType":"uint256","name":"","type":"uint256"}],"stateMutability":"view","type":"function"},{"inputs":[{"internalType":"address","name":"playerAddress","type":"address"}],"name":"getCurrentFishermanNFT","outputs":[{"internalType":"uint256","name":"","type":"uint256"}],"stateMutability":"view","type":"function"},{"inputs":[{"internalType":"address","name":"playerAddress","type":"address"}],"name":"getCurrentFishingRodNFT","outputs":[{"internalType":"uint256","name":"","type":"uint256"}],"stateMutability":"view","type":"function"},{"inputs":[{"internalType":"address","name":"playerAddress","type":"address"}],"name":"getExperience","outputs":[{"internalType":"uint256","name":"","type":"uint256"}],"stateMutability":"view","type":"function"},{"inputs":[{"internalType":"address","name":"playerAddress","type":"address"}],"name":"getFishCount","outputs":[{"internalType":"uint256[10]","name":"","type":"uint256[10]"}],"stateMutability":"view","type":"function"},{"inputs":[{"internalType":"address","name":"playerAddress","type":"address"}],"name":"getFishPoolLevel","outputs":[{"internalType":"uint256","name":"","type":"uint256"}],"stateMutability":"view","type":"function"},{"inputs":[],"name":"getFishingCountLimit","outputs":[{"internalType":"uint256","name":"","type":"uint256"}],"stateMutability":"view","type":"function"},{"inputs":[],"name":"getLevelUpLimit","outputs":[{"internalType":"uint256","name":"","type":"uint256"}],"stateMutability":"view","type":"function"},{"inputs":[{"internalType":"address","name":"account","type":"address"}],"name":"getPlayerInfo","outputs":[{"components":[{"internalType":"uint256","name":"fishingCount","type":"uint256"},{"internalType":"uint256","name":"experience","type":"uint256"},{"internalType":"uint256","name":"level","type":"uint256"},{"internalType":"uint256[5]","name":"unlockedFishingSpots","type":"uint256[5]"},{"internalType":"uint256","name":"currentFishingSpot","type":"uint256"},{"internalType":"uint256","name":"fishPoolLevel","type":"uint256"},{"internalType":"uint256","name":"interestRate","type":"uint256"},{"internalType":"uint256","name":"collectedGMC","type":"uint256"},{"internalType":"uint256","name":"baitCount","type":"uint256"},{"internalType":"uint256[10]","name":"fishCount","type":"uint256[10]"},{"internalType":"uint256","name":"currentFishermanNFT","type":"uint256"},{"internalType":"uint256","name":"currentRodNFT","type":"uint256"}],"internalType":"struct User.PlayerInfo","name":"","type":"tuple"}],"stateMutability":"view","type":"function"},{"inputs":[{"internalType":"address","name":"playerAddress","type":"address"}],"name":"getPlayerLevel","outputs":[{"internalType":"uint256","name":"","type":"uint256"}],"stateMutability":"view","type":"function"},{"inputs":[{"internalType":"bytes32","name":"role","type":"bytes32"}],"name":"getRoleAdmin","outputs":[{"internalType":"bytes32","name":"","type":"bytes32"}],"stateMutability":"view","type":"function"},{"inputs":[{"internalType":"address","name":"userAddress","type":"address"}],"name":"getUnlockedFishingSpots","outputs":[{"internalType":"uint256[5]","name":"","type":"uint256[5]"}],"stateMutability":"view","type":"function"},{"inputs":[{"internalType":"address","name":"userAddress","type":"address"}],"name":"getUser","outputs":[{"components":[{"internalType":"uint256","name":"fishingCount","type":"uint256"},{"internalType":"uint256","name":"experience","type":"uint256"},{"internalType":"uint256","name":"level","type":"uint256"},{"internalType":"uint256[5]","name":"unlockedFishingSpots","type":"uint256[5]"},{"internalType":"uint256","name":"currentFishingSpot","type":"uint256"},{"internalType":"uint256","name":"fishPoolLevel","type":"uint256"},{"internalType":"uint256","name":"interestRate","type":"uint256"},{"internalType":"uint256","name":"collectedGMC","type":"uint256"},{"internalType":"uint256","name":"baitCount","type":"uint256"},{"internalType":"uint256[10]","name":"fishCount","type":"uint256[10]"},{"internalType":"uint256","name":"currentFishermanNFT","type":"uint256"},{"internalType":"uint256","name":"currentRodNFT","type":"uint256"}],"internalType":"struct User.PlayerInfo","name":"","type":"tuple"}],"stateMutability":"view","type":"function"},{"inputs":[],"name":"gmcContract","outputs":[{"internalType":"contract IGMC","name":"","type":"address"}],"stateMutability":"view","type":"function"},{"inputs":[{"internalType":"bytes32","name":"role","type":"bytes32"},{"internalType":"address","name":"account","type":"address"}],"name":"grantRole","outputs":[],"stateMutability":"nonpayable","type":"function"},{"inputs":[{"internalType":"bytes32","name":"role","type":"bytes32"},{"internalType":"address","name":"account","type":"address"}],"name":"hasRole","outputs":[{"internalType":"bool","name":"","type":"bool"}],"stateMutability":"view","type":"function"},{"inputs":[],"name":"levelUpLimit","outputs":[{"internalType":"uint256","name":"","type":"uint256"}],"stateMutability":"view","type":"function"},{"inputs":[],"name":"owner","outputs":[{"internalType":"address","name":"","type":"address"}],"stateMutability":"view","type":"function"},{"inputs":[{"internalType":"address","name":"admin","type":"address"}],"name":"removeAdmin","outputs":[],"stateMutability":"nonpayable","type":"function"},{"inputs":[],"name":"renounceOwnership","outputs":[],"stateMutability":"nonpayable","type":"function"},{"inputs":[{"internalType":"bytes32","name":"role","type":"bytes32"},{"internalType":"address","name":"account","type":"address"}],"name":"renounceRole","outputs":[],"stateMutability":"nonpayable","type":"function"},{"inputs":[{"internalType":"bytes32","name":"role","type":"bytes32"},{"internalType":"address","name":"account","type":"address"}],"name":"revokeRole","outputs":[],"stateMutability":"nonpayable","type":"function"},{"inputs":[{"internalType":"address","name":"playerAddress","type":"address"},{"internalType":"uint256","name":"newCount","type":"uint256"}],"name":"setBaitCount","outputs":[],"stateMutability":"nonpayable","type":"function"},{"inputs":[{"internalType":"uint256","name":"_baitPurchaseLimit","type":"uint256"}],"name":"setBaitPurchaseLimit","outputs":[],"stateMutability":"nonpayable","type":"function"},{"inputs":[{"internalType":"address","name":"playerAddress","type":"address"},{"internalType":"uint256","name":"newAmount","type":"uint256"}],"name":"setCollectedGMC","outputs":[],"stateMutability":"nonpayable","type":"function"},{"inputs":[{"internalType":"address","name":"userAddress","type":"address"},{"internalType":"uint256","name":"exp","type":"uint256"}],"name":"setExperience","outputs":[],"stateMutability":"nonpayable","type":"function"},{"inputs":[{"internalType":"address","name":"playerAddress","type":"address"},{"internalType":"uint256","name":"star","type":"uint256"},{"internalType":"uint256","name":"newCount","type":"uint256"}],"name":"setFishCount","outputs":[],"stateMutability":"nonpayable","type":"function"},{"inputs":[{"internalType":"address","name":"playerAddress","type":"address"},{"internalType":"uint256","name":"newLevel","type":"uint256"}],"name":"setFishPoolLevel","outputs":[],"stateMutability":"nonpayable","type":"function"},{"inputs":[{"internalType":"address","name":"userAddress","type":"address"},{"internalType":"uint256","name":"count","type":"uint256"}],"name":"setFishingCount","outputs":[],"stateMutability":"nonpayable","type":"function"},{"inputs":[{"internalType":"uint256","name":"_fishingCountLimit","type":"uint256"}],"name":"setFishingCountLimit","outputs":[],"stateMutability":"nonpayable","type":"function"},{"inputs":[{"internalType":"uint256","name":"_levelUpLimit","type":"uint256"}],"name":"setLevelUpLimit","outputs":[],"stateMutability":"nonpayable","type":"function"},{"inputs":[{"internalType":"address","name":"playerAddress","type":"address"},{"internalType":"uint256","name":"newLevel","type":"uint256"}],"name":"setPlayerLevel","outputs":[],"stateMutability":"nonpayable","type":"function"},{"inputs":[{"internalType":"bytes4","name":"interfaceId","type":"bytes4"}],"name":"supportsInterface","outputs":[{"internalType":"bool","name":"","type":"bool"}],"stateMutability":"view","type":"function"},{"inputs":[{"internalType":"address","name":"newOwner","type":"address"}],"name":"transferOwnership","outputs":[],"stateMutability":"nonpayable","type":"function"},{"inputs":[{"internalType":"uint256","name":"_levelUpLimit","type":"uint256"},{"internalType":"uint256","name":"_baitPurchaseLimit","type":"uint256"},{"internalType":"uint256","name":"_fishingCountLimit","type":"uint256"},{"internalType":"uint256","name":"_baitPrice","type":"uint256"}],"name":"updateLimitAttribute","outputs":[],"stateMutability":"nonpayable","type":"function"},{"inputs":[{"components":[{"internalType":"uint256","name":"fishingCount","type":"uint256"},{"internalType":"uint256","name":"experience","type":"uint256"},{"internalType":"uint256","name":"level","type":"uint256"},{"internalType":"uint256[5]","name":"unlockedFishingSpots","type":"uint256[5]"},{"internalType":"uint256","name":"currentFishingSpot","type":"uint256"},{"internalType":"uint256","name":"fishPoolLevel","type":"uint256"},{"internalType":"uint256","name":"interestRate","type":"uint256"},{"internalType":"uint256","name":"collectedGMC","type":"uint256"},{"internalType":"uint256","name":"baitCount","type":"uint256"},{"internalType":"uint256[10]","name":"fishCount","type":"uint256[10]"},{"internalType":"uint256","name":"currentFishermanNFT","type":"uint256"},{"internalType":"uint256","name":"currentRodNFT","type":"uint256"}],"internalType":"struct User.PlayerInfo[]","name":"playerInfo","type":"tuple[]"},{"internalType":"address[]","name":"playerAddresses","type":"address[]"}],"name":"updateUserData","outputs":[],"stateMutability":"nonpayable","type":"function"}],"evm":{"bytecode":{"linkReferences":{},"object":"60806040523480156200001157600080fd5b50604051620061f6380380620061f683398181016040528101906200003791906200046d565b620000576200004b6200018a60201b60201c565b6200019260201b60201c565b60336006819055506063600781905550600a600881905550806009819055506200008b6000801b336200025660201b60201c565b620000bd7fa49807205ce4d355092ef5a8a18f56e8913cf4a201fbe287825b095693c21775336200025660201b60201c565b83600260006101000a81548173ffffffffffffffffffffffffffffffffffffffff021916908373ffffffffffffffffffffffffffffffffffffffff16021790555082600360006101000a81548173ffffffffffffffffffffffffffffffffffffffff021916908373ffffffffffffffffffffffffffffffffffffffff16021790555081600460006101000a81548173ffffffffffffffffffffffffffffffffffffffff021916908373ffffffffffffffffffffffffffffffffffffffff16021790555050505050620004df565b600033905090565b60008060009054906101000a900473ffffffffffffffffffffffffffffffffffffffff169050816000806101000a81548173ffffffffffffffffffffffffffffffffffffffff021916908373ffffffffffffffffffffffffffffffffffffffff1602179055508173ffffffffffffffffffffffffffffffffffffffff168173ffffffffffffffffffffffffffffffffffffffff167f8be0079c531659141344cd1fd0a4f28419497f9722a3daafe3b4186f6b6457e060405160405180910390a35050565b6200026882826200026c60201b60201c565b5050565b6200027e82826200035d60201b60201c565b6200035957600180600084815260200190815260200160002060000160008373ffffffffffffffffffffffffffffffffffffffff1673ffffffffffffffffffffffffffffffffffffffff16815260200190815260200160002060006101000a81548160ff021916908315150217905550620002fe6200018a60201b60201c565b73ffffffffffffffffffffffffffffffffffffffff168173ffffffffffffffffffffffffffffffffffffffff16837f2f8788117e7eff1d82e926ec794901d17c78024a50270940304540a733656f0d60405160405180910390a45b5050565b60006001600084815260200190815260200160002060000160008373ffffffffffffffffffffffffffffffffffffffff1673ffffffffffffffffffffffffffffffffffffffff16815260200190815260200160002060009054906101000a900460ff16905092915050565b600080fd5b600073ffffffffffffffffffffffffffffffffffffffff82169050919050565b6000620003fa82620003cd565b9050919050565b6200040c81620003ed565b81146200041857600080fd5b50565b6000815190506200042c8162000401565b92915050565b6000819050919050565b620004478162000432565b81146200045357600080fd5b50565b60008151905062000467816200043c565b92915050565b600080600080608085870312156200048a5762000489620003c8565b5b60006200049a878288016200041b565b9450506020620004ad878288016200041b565b9350506040620004c0878288016200041b565b9250506060620004d38782880162000456565b91505092959194509250565b615d0780620004ef6000396000f3fe608060405234801561001057600080fd5b506004361061030c5760003560e01c806379ba50971161019d578063bfb56d62116100e9578063e55ae65a116100a2578063eaaaa2341161007c578063eaaaa23414610949578063f206140514610965578063f2fde38b14610983578063f76b7de51461099f5761030c565b8063e55ae65a146108f3578063e678f86c14610911578063e9bcc5f31461092d5761030c565b8063bfb56d6214610833578063c6051a941461084f578063c8001b731461087f578063cee8b4aa1461089d578063d547741f146108bb578063dea90512146108d75761030c565b80639af7a00a11610156578063a63eba4811610130578063a63eba48146107c1578063b474ca76146107dd578063b5d626c4146107fb578063bf129fd0146108175761030c565b80639af7a00a1461076b5780639deedd5b14610787578063a217fddf146107a35761030c565b806379ba5097146106955780638c953a781461069f5780638ca5f74d146106cf5780638da5cb5b146106ed57806391d148541461070b578063951559001461073b5761030c565b806348aabab21161025c5780636aba920b1161021557806370480275116101ef5780637048027514610621578063715018a61461063d57806375b238fc146106475780637757346d146106655761030c565b80636aba920b146105a55780636b743a2c146105c15780636f77926b146105f15761030c565b806348aabab2146104d157806350a4098a1461050157806353acd2ab1461051f578063593284011461053b578063657a93931461056b5780636667a9a7146105875761030c565b806322a66172116102c957806331c4ecdc116102a357806331c4ecdc1461043957806334b735a11461046957806336568abe14610499578063421b2d8b146104b55761030c565b806322a66172146103d1578063248a9ca3146103ed5780632f2ff15d1461041d5761030c565b806301ffc9a714610311578063047ac5de146103415780631785f53c1461035f57806318250e071461037b5780631fbff24f14610399578063215c5d00146103b5575b600080fd5b61032b600480360381019061032691906143f7565b6109cf565b604051610338919061443f565b60405180910390f35b610349610a49565b60405161035691906144d9565b60405180910390f35b61037960048036038101906103749190614532565b610a6f565b005b610383610aa4565b6040516103909190614578565b60405180910390f35b6103b360048036038101906103ae9190614a6a565b610aaa565b005b6103cf60048036038101906103ca9190614ae2565b61124b565b005b6103eb60048036038101906103e69190614b49565b6112d5565b005b61040760048036038101906104029190614bac565b61165d565b6040516104149190614be8565b60405180910390f35b61043760048036038101906104329190614c03565b61167d565b005b610453600480360381019061044e9190614532565b61169e565b6040516104609190614578565b60405180910390f35b610483600480360381019061047e9190614532565b611776565b6040516104909190614578565b60405180910390f35b6104b360048036038101906104ae9190614c03565b61184e565b005b6104cf60048036038101906104ca9190614532565b6118d1565b005b6104eb60048036038101906104e69190614532565b611be8565b6040516104f89190614578565b60405180910390f35b610509611cc0565b6040516105169190614c64565b60405180910390f35b61053960048036038101906105349190614c7f565b611ce6565b005b61055560048036038101906105509190614532565b612056565b6040516105629190614ee8565b60405180910390f35b61058560048036038101906105809190614b49565b61219e565b005b61058f6121db565b60405161059c9190614578565b60405180910390f35b6105bf60048036038101906105ba9190614c7f565b6121e5565b005b6105db60048036038101906105d69190614532565b61233d565b6040516105e89190614578565b60405180910390f35b61060b60048036038101906106069190614532565b612415565b6040516106189190614ee8565b60405180910390f35b61063b60048036038101906106369190614532565b6125e6565b005b61064561261b565b005b61064f61262f565b60405161065c9190614be8565b60405180910390f35b61067f600480360381019061067a9190614532565b612653565b60405161068c9190614578565b60405180910390f35b61069d61272b565b005b6106b960048036038101906106b49190614532565b6127f4565b6040516106c69190614f66565b60405180910390f35b6106d761290d565b6040516106e49190614578565b60405180910390f35b6106f5612917565b6040516107029190614f90565b60405180910390f35b61072560048036038101906107209190614c03565b612940565b604051610732919061443f565b60405180910390f35b61075560048036038101906107509190614532565b6129ab565b6040516107629190614578565b60405180910390f35b61078560048036038101906107809190614fab565b612a83565b005b6107a1600480360381019061079c9190614b49565b612bf1565b005b6107ab612c2e565b6040516107b89190614be8565b60405180910390f35b6107db60048036038101906107d69190614c7f565b612c35565b005b6107e5612d8d565b6040516107f29190614578565b60405180910390f35b61081560048036038101906108109190614c7f565b612d93565b005b610831600480360381019061082c9190614c7f565b612ffb565b005b61084d60048036038101906108489190614c7f565b613153565b005b61086960048036038101906108649190614532565b6132b7565b6040516108769190615060565b60405180910390f35b6108876133d0565b604051610894919061509d565b60405180910390f35b6108a56133f6565b6040516108b29190614578565b60405180910390f35b6108d560048036038101906108d09190614c03565b6133fc565b005b6108f160048036038101906108ec9190614c7f565b61341d565b005b6108fb613575565b6040516109089190614578565b60405180910390f35b61092b60048036038101906109269190614b49565b61357b565b005b610947600480360381019061094291906150b8565b6135b8565b005b610963600480360381019061095e9190614c7f565b613928565b005b61096d6139fc565b60405161097a9190614578565b60405180910390f35b61099d60048036038101906109989190614532565b613a06565b005b6109b960048036038101906109b49190614532565b613aec565b6040516109c69190614578565b60405180910390f35b60007f7965db0b000000000000000000000000000000000000000000000000000000007bffffffffffffffffffffffffffffffffffffffffffffffffffffffff1916827bffffffffffffffffffffffffffffffffffffffffffffffffffffffff19161480610a425750610a4182613bc4565b5b9050919050565b600260009054906101000a900473ffffffffffffffffffffffffffffffffffffffff1681565b610a77613c2e565b610aa17fa49807205ce4d355092ef5a8a18f56e8913cf4a201fbe287825b095693c21775826133fc565b50565b60095481565b610ad47fa49807205ce4d355092ef5a8a18f56e8913cf4a201fbe287825b095693c2177533612940565b610add57600080fd5b8051825114610b21576040517f08c379a0000000000000000000000000000000000000000000000000000000008152600401610b1890615155565b60405180910390fd5b60005b82518110156111ee57600b6000838381518110610b4457610b43615175565b5b602002602001015173ffffffffffffffffffffffffffffffffffffffff1673ffffffffffffffffffffffffffffffffffffffff16815260200190815260200160002060009054906101000a900460ff16610bd3576040517f08c379a0000000000000000000000000000000000000000000000000000000008152600401610bca906151f0565b60405180910390fd5b828181518110610be657610be5615175565b5b602002602001015160000151600a6000848481518110610c0957610c08615175565b5b602002602001015173ffffffffffffffffffffffffffffffffffffffff1673ffffffffffffffffffffffffffffffffffffffff16815260200190815260200160002060000181905550828181518110610c6557610c64615175565b5b602002602001015160200151600a6000848481518110610c8857610c87615175565b5b602002602001015173ffffffffffffffffffffffffffffffffffffffff1673ffffffffffffffffffffffffffffffffffffffff16815260200190815260200160002060010181905550828181518110610ce457610ce3615175565b5b602002602001015160400151600a6000848481518110610d0757610d06615175565b5b602002602001015173ffffffffffffffffffffffffffffffffffffffff1673ffffffffffffffffffffffffffffffffffffffff16815260200190815260200160002060020181905550828181518110610d6357610d62615175565b5b602002602001015160600151600a6000848481518110610d8657610d85615175565b5b602002602001015173ffffffffffffffffffffffffffffffffffffffff1673ffffffffffffffffffffffffffffffffffffffff168152602001908152602001600020600301906005610dd992919061423c565b50828181518110610ded57610dec615175565b5b602002602001015160800151600a6000848481518110610e1057610e0f615175565b5b602002602001015173ffffffffffffffffffffffffffffffffffffffff1673ffffffffffffffffffffffffffffffffffffffff16815260200190815260200160002060080181905550828181518110610e6c57610e6b615175565b5b602002602001015160a00151600a6000848481518110610e8f57610e8e615175565b5b602002602001015173ffffffffffffffffffffffffffffffffffffffff1673ffffffffffffffffffffffffffffffffffffffff16815260200190815260200160002060090181905550828181518110610eeb57610eea615175565b5b602002602001015160c00151600a6000848481518110610f0e57610f0d615175565b5b602002602001015173ffffffffffffffffffffffffffffffffffffffff1673ffffffffffffffffffffffffffffffffffffffff168152602001908152602001600020600a0181905550828181518110610f6a57610f69615175565b5b602002602001015160e00151600a6000848481518110610f8d57610f8c615175565b5b602002602001015173ffffffffffffffffffffffffffffffffffffffff1673ffffffffffffffffffffffffffffffffffffffff168152602001908152602001600020600b0181905550828181518110610fe957610fe8615175565b5b60200260200101516101000151600a600084848151811061100d5761100c615175565b5b602002602001015173ffffffffffffffffffffffffffffffffffffffff1673ffffffffffffffffffffffffffffffffffffffff168152602001908152602001600020600c018190555082818151811061106957611068615175565b5b60200260200101516101200151600a600084848151811061108d5761108c615175565b5b602002602001015173ffffffffffffffffffffffffffffffffffffffff1673ffffffffffffffffffffffffffffffffffffffff168152602001908152602001600020600d0190600a6110e092919061427c565b508281815181106110f4576110f3615175565b5b60200260200101516101400151600a600084848151811061111857611117615175565b5b602002602001015173ffffffffffffffffffffffffffffffffffffffff1673ffffffffffffffffffffffffffffffffffffffff1681526020019081526020016000206017018190555082818151811061117457611173615175565b5b60200260200101516101600151600a600084848151811061119857611197615175565b5b602002602001015173ffffffffffffffffffffffffffffffffffffffff1673ffffffffffffffffffffffffffffffffffffffff168152602001908152602001600020601801819055508080600101915050610b24565b50806040516111fd91906152c8565b604051809103902082604051611213919061558a565b60405180910390207fc91fdb6201eb89b7a1b567d23d3c59bbfd7f7d942aa9e8ad346319d17f0b910860405160405180910390a35050565b6112757fa49807205ce4d355092ef5a8a18f56e8913cf4a201fbe287825b095693c2177533612940565b61127e57600080fd5b836006819055508260078190555081600881905550806009819055506009546007546006547ffb7230b722712fa11b563a061381502fa2e6f8f6432c8af6ec3b309c26e74cb660405160405180910390a450505050565b600b60003373ffffffffffffffffffffffffffffffffffffffff1673ffffffffffffffffffffffffffffffffffffffff16815260200190815260200160002060009054906101000a900460ff16611361576040517f08c379a0000000000000000000000000000000000000000000000000000000008152600401611358906151f0565b60405180910390fd5b60075481600a60003373ffffffffffffffffffffffffffffffffffffffff1673ffffffffffffffffffffffffffffffffffffffff168152602001908152602001600020600c01546113b291906155d0565b11156113f3576040517f08c379a00000000000000000000000000000000000000000000000000000000081526004016113ea90615650565b60405180910390fd5b6000600954826114039190615670565b905080600260009054906101000a900473ffffffffffffffffffffffffffffffffffffffff1673ffffffffffffffffffffffffffffffffffffffff166370a08231336040518263ffffffff1660e01b81526004016114619190614f90565b602060405180830381865afa15801561147e573d6000803e3d6000fd5b505050506040513d601f19601f820116820180604052508101906114a291906156c7565b10156114e3576040517f08c379a00000000000000000000000000000000000000000000000000000000081526004016114da90615740565b60405180910390fd5b600260009054906101000a900473ffffffffffffffffffffffffffffffffffffffff1673ffffffffffffffffffffffffffffffffffffffff166342966c68836040518263ffffffff1660e01b815260040161153e9190614578565b600060405180830381600087803b15801561155857600080fd5b505af115801561156c573d6000803e3d6000fd5b5050505081600a60003373ffffffffffffffffffffffffffffffffffffffff1673ffffffffffffffffffffffffffffffffffffffff168152602001908152602001600020600c0160008282546115c291906155d0565b925050819055503373ffffffffffffffffffffffffffffffffffffffff167f61de7c9c9fef84bf815ad3b2d17a9af3d0655af7a1c9423e5d2dee99ec5c6ffc600a60003373ffffffffffffffffffffffffffffffffffffffff1673ffffffffffffffffffffffffffffffffffffffff168152602001908152602001600020600c01546040516116519190614578565b60405180910390a25050565b600060016000838152602001908152602001600020600101549050919050565b6116868261165d565b61168f81613cac565b6116998383613cc0565b505050565b6000600b60008373ffffffffffffffffffffffffffffffffffffffff1673ffffffffffffffffffffffffffffffffffffffff16815260200190815260200160002060009054906101000a900460ff1661172c576040517f08c379a0000000000000000000000000000000000000000000000000000000008152600401611723906151f0565b60405180910390fd5b600a60008373ffffffffffffffffffffffffffffffffffffffff1673ffffffffffffffffffffffffffffffffffffffff168152602001908152602001600020600901549050919050565b6000600b60008373ffffffffffffffffffffffffffffffffffffffff1673ffffffffffffffffffffffffffffffffffffffff16815260200190815260200160002060009054906101000a900460ff16611804576040517f08c379a00000000000000000000000000000000000000000000000000000000081526004016117fb906151f0565b60405180910390fd5b600a60008373ffffffffffffffffffffffffffffffffffffffff1673ffffffffffffffffffffffffffffffffffffffff168152602001908152602001600020600201549050919050565b611856613da0565b73ffffffffffffffffffffffffffffffffffffffff168173ffffffffffffffffffffffffffffffffffffffff16146118c3576040517f08c379a00000000000000000000000000000000000000000000000000000000081526004016118ba906157d2565b60405180910390fd5b6118cd8282613da8565b5050565b6118fb7fa49807205ce4d355092ef5a8a18f56e8913cf4a201fbe287825b095693c2177533612940565b61190457600080fd5b600b60008273ffffffffffffffffffffffffffffffffffffffff1673ffffffffffffffffffffffffffffffffffffffff16815260200190815260200160002060009054906101000a900460ff161561195b57600080fd5b604051806101800160405280600a815260200160008152602001600181526020016040518060a001604052806103e981526020016000815260200160008152602001600081526020016000815250815260200160008152602001600181526020016000815260200160008152602001601e8152602001604051806101400160405280600081526020016000815260200160008152602001600081526020016000815260200160008152602001600081526020016000815260200160008152602001600081525081526020017fffffffffffffffffffffffffffffffffffffffffffffffffffffffffffffffff81526020017fffffffffffffffffffffffffffffffffffffffffffffffffffffffffffffffff815250600a60008373ffffffffffffffffffffffffffffffffffffffff1673ffffffffffffffffffffffffffffffffffffffff168152602001908152602001600020600082015181600001556020820151816001015560408201518160020155606082015181600301906005611ae492919061423c565b506080820151816008015560a0820151816009015560c082015181600a015560e082015181600b015561010082015181600c015561012082015181600d0190600a611b3092919061427c565b50610140820151816017015561016082015181601801559050506001600b60008373ffffffffffffffffffffffffffffffffffffffff1673ffffffffffffffffffffffffffffffffffffffff16815260200190815260200160002060006101000a81548160ff0219169083151502179055508073ffffffffffffffffffffffffffffffffffffffff167ff2ae205522024c14e5a7a26ba6d1fb1252dc8e161b5abc79ed5795fd3c5b926160405160405180910390a250565b6000600b60008373ffffffffffffffffffffffffffffffffffffffff1673ffffffffffffffffffffffffffffffffffffffff16815260200190815260200160002060009054906101000a900460ff16611c76576040517f08c379a0000000000000000000000000000000000000000000000000000000008152600401611c6d906151f0565b60405180910390fd5b600a60008373ffffffffffffffffffffffffffffffffffffffff1673ffffffffffffffffffffffffffffffffffffffff168152602001908152602001600020600c01549050919050565b600360009054906101000a900473ffffffffffffffffffffffffffffffffffffffff1681565b611d107fa49807205ce4d355092ef5a8a18f56e8913cf4a201fbe287825b095693c2177533612940565b611d1957600080fd5b600b60008373ffffffffffffffffffffffffffffffffffffffff1673ffffffffffffffffffffffffffffffffffffffff16815260200190815260200160002060009054906101000a900460ff16611da5576040517f08c379a0000000000000000000000000000000000000000000000000000000008152600401611d9c906151f0565b60405180910390fd5b600060608373ffffffffffffffffffffffffffffffffffffffff16600360009054906101000a900473ffffffffffffffffffffffffffffffffffffffff1673ffffffffffffffffffffffffffffffffffffffff16636352211e856040518263ffffffff1660e01b8152600401611e1b9190614578565b602060405180830381865afa158015611e38573d6000803e3d6000fd5b505050506040513d601f19601f82011682018060405250810190611e5c9190615807565b73ffffffffffffffffffffffffffffffffffffffff1614611fb757600360009054906101000a900473ffffffffffffffffffffffffffffffffffffffff1673ffffffffffffffffffffffffffffffffffffffff166318148f1b856040518263ffffffff1660e01b8152600401611ed29190614f90565b600060405180830381865afa158015611eef573d6000803e3d6000fd5b505050506040513d6000823e3d601f19601f82011682018060405250810190611f1891906158f7565b9050600081511115611f8e5780600081518110611f3857611f37615175565b5b6020026020010151915081600a60008673ffffffffffffffffffffffffffffffffffffffff1673ffffffffffffffffffffffffffffffffffffffff16815260200190815260200160002060170181905550611fb2565b7fffffffffffffffffffffffffffffffffffffffffffffffffffffffffffffffff91505b612002565b82600a60008673ffffffffffffffffffffffffffffffffffffffff1673ffffffffffffffffffffffffffffffffffffffff168152602001908152602001600020601701819055508291505b8373ffffffffffffffffffffffffffffffffffffffff167f08e9f015b4a09d3e66a5d3703ecc0d035e52da672786c75b807300bd4a72530d836040516120489190614578565b60405180910390a250505050565b61205e6142bc565b600a60008373ffffffffffffffffffffffffffffffffffffffff1673ffffffffffffffffffffffffffffffffffffffff1681526020019081526020016000206040518061018001604052908160008201548152602001600182015481526020016002820154815260200160038201600580602002604051908101604052809291908260058015612103576020028201915b8154815260200190600101908083116120ef575b505050505081526020016008820154815260200160098201548152602001600a8201548152602001600b8201548152602001600c8201548152602001600d8201600a806020026040519081016040528092919082600a801561217a576020028201915b815481526020019060010190808311612166575b50505050508152602001601782015481526020016018820154815250509050919050565b6121c87fa49807205ce4d355092ef5a8a18f56e8913cf4a201fbe287825b095693c2177533612940565b6121d157600080fd5b8060078190555050565b6000600754905090565b61220f7fa49807205ce4d355092ef5a8a18f56e8913cf4a201fbe287825b095693c2177533612940565b61221857600080fd5b600b60008373ffffffffffffffffffffffffffffffffffffffff1673ffffffffffffffffffffffffffffffffffffffff16815260200190815260200160002060009054906101000a900460ff166122a4576040517f08c379a000000000000000000000000000000000000000000000000000000000815260040161229b906151f0565b60405180910390fd5b80600a60008473ffffffffffffffffffffffffffffffffffffffff1673ffffffffffffffffffffffffffffffffffffffff168152602001908152602001600020600c01819055508173ffffffffffffffffffffffffffffffffffffffff167f61de7c9c9fef84bf815ad3b2d17a9af3d0655af7a1c9423e5d2dee99ec5c6ffc826040516123319190614578565b60405180910390a25050565b6000600b60008373ffffffffffffffffffffffffffffffffffffffff1673ffffffffffffffffffffffffffffffffffffffff16815260200190815260200160002060009054906101000a900460ff166123cb576040517f08c379a00000000000000000000000000000000000000000000000000000000081526004016123c2906151f0565b60405180910390fd5b600a60008373ffffffffffffffffffffffffffffffffffffffff1673ffffffffffffffffffffffffffffffffffffffff168152602001908152602001600020600101549050919050565b61241d6142bc565b6124477fa49807205ce4d355092ef5a8a18f56e8913cf4a201fbe287825b095693c2177533612940565b61245057600080fd5b600b60008373ffffffffffffffffffffffffffffffffffffffff1673ffffffffffffffffffffffffffffffffffffffff16815260200190815260200160002060009054906101000a900460ff166124a657600080fd5b600a60008373ffffffffffffffffffffffffffffffffffffffff1673ffffffffffffffffffffffffffffffffffffffff168152602001908152602001600020604051806101800160405290816000820154815260200160018201548152602001600282015481526020016003820160058060200260405190810160405280929190826005801561254b576020028201915b815481526020019060010190808311612537575b505050505081526020016008820154815260200160098201548152602001600a8201548152602001600b8201548152602001600c8201548152602001600d8201600a806020026040519081016040528092919082600a80156125c2576020028201915b8154815260200190600101908083116125ae575b50505050508152602001601782015481526020016018820154815250509050919050565b6125ee613c2e565b6126187fa49807205ce4d355092ef5a8a18f56e8913cf4a201fbe287825b095693c217758261167d565b50565b612623613c2e565b61262d6000613e8a565b565b7fa49807205ce4d355092ef5a8a18f56e8913cf4a201fbe287825b095693c2177581565b6000600b60008373ffffffffffffffffffffffffffffffffffffffff1673ffffffffffffffffffffffffffffffffffffffff16815260200190815260200160002060009054906101000a900460ff166126e1576040517f08c379a00000000000000000000000000000000000000000000000000000000081526004016126d8906151f0565b60405180910390fd5b600a60008373ffffffffffffffffffffffffffffffffffffffff1673ffffffffffffffffffffffffffffffffffffffff168152602001908152602001600020601801549050919050565b600560009054906101000a900473ffffffffffffffffffffffffffffffffffffffff1673ffffffffffffffffffffffffffffffffffffffff163373ffffffffffffffffffffffffffffffffffffffff161461278557600080fd5b6127b0600560009054906101000a900473ffffffffffffffffffffffffffffffffffffffff16613e8a565b6000600560006101000a81548173ffffffffffffffffffffffffffffffffffffffff021916908373ffffffffffffffffffffffffffffffffffffffff160217905550565b6127fc614329565b600b60008373ffffffffffffffffffffffffffffffffffffffff1673ffffffffffffffffffffffffffffffffffffffff16815260200190815260200160002060009054906101000a900460ff16612888576040517f08c379a000000000000000000000000000000000000000000000000000000000815260040161287f906151f0565b60405180910390fd5b600a60008373ffffffffffffffffffffffffffffffffffffffff1673ffffffffffffffffffffffffffffffffffffffff168152602001908152602001600020600301600580602002604051908101604052809291908260058015612901576020028201915b8154815260200190600101908083116128ed575b50505050509050919050565b6000600654905090565b60008060009054906101000a900473ffffffffffffffffffffffffffffffffffffffff16905090565b60006001600084815260200190815260200160002060000160008373ffffffffffffffffffffffffffffffffffffffff1673ffffffffffffffffffffffffffffffffffffffff16815260200190815260200160002060009054906101000a900460ff16905092915050565b6000600b60008373ffffffffffffffffffffffffffffffffffffffff1673ffffffffffffffffffffffffffffffffffffffff16815260200190815260200160002060009054906101000a900460ff16612a39576040517f08c379a0000000000000000000000000000000000000000000000000000000008152600401612a30906151f0565b60405180910390fd5b600a60008373ffffffffffffffffffffffffffffffffffffffff1673ffffffffffffffffffffffffffffffffffffffff168152602001908152602001600020600b01549050919050565b612aad7fa49807205ce4d355092ef5a8a18f56e8913cf4a201fbe287825b095693c2177533612940565b612ab657600080fd5b600b60008473ffffffffffffffffffffffffffffffffffffffff1673ffffffffffffffffffffffffffffffffffffffff16815260200190815260200160002060009054906101000a900460ff16612b42576040517f08c379a0000000000000000000000000000000000000000000000000000000008152600401612b39906151f0565b60405180910390fd5b80600a60008573ffffffffffffffffffffffffffffffffffffffff1673ffffffffffffffffffffffffffffffffffffffff168152602001908152602001600020600d0183600a8110612b9757612b96615175565b5b01819055508273ffffffffffffffffffffffffffffffffffffffff167f374ed846dc3e18a969aef22277ce3669832a6ea83e3088149d5b40319413de478383604051612be4929190615940565b60405180910390a2505050565b612c1b7fa49807205ce4d355092ef5a8a18f56e8913cf4a201fbe287825b095693c2177533612940565b612c2457600080fd5b8060088190555050565b6000801b81565b612c5f7fa49807205ce4d355092ef5a8a18f56e8913cf4a201fbe287825b095693c2177533612940565b612c6857600080fd5b600b60008373ffffffffffffffffffffffffffffffffffffffff1673ffffffffffffffffffffffffffffffffffffffff16815260200190815260200160002060009054906101000a900460ff16612cf4576040517f08c379a0000000000000000000000000000000000000000000000000000000008152600401612ceb906151f0565b60405180910390fd5b80600a60008473ffffffffffffffffffffffffffffffffffffffff1673ffffffffffffffffffffffffffffffffffffffff168152602001908152602001600020600b01819055508173ffffffffffffffffffffffffffffffffffffffff167f7f299cebc3c4384ae412a6ba151d00bd215add4b1379155dd71c3376cbf07df682604051612d819190614578565b60405180910390a25050565b60075481565b612dbd7fa49807205ce4d355092ef5a8a18f56e8913cf4a201fbe287825b095693c2177533612940565b612dc657600080fd5b600b60008373ffffffffffffffffffffffffffffffffffffffff1673ffffffffffffffffffffffffffffffffffffffff16815260200190815260200160002060009054906101000a900460ff16612e52576040517f08c379a0000000000000000000000000000000000000000000000000000000008152600401612e49906151f0565b60405180910390fd5b6000600a60008473ffffffffffffffffffffffffffffffffffffffff1673ffffffffffffffffffffffffffffffffffffffff168152602001908152602001600020600b0154905081811015612edc576040517f08c379a0000000000000000000000000000000000000000000000000000000008152600401612ed3906159b5565b60405180910390fd5b600260009054906101000a900473ffffffffffffffffffffffffffffffffffffffff1673ffffffffffffffffffffffffffffffffffffffff166340c10f1984846040518363ffffffff1660e01b8152600401612f399291906159d5565b600060405180830381600087803b158015612f5357600080fd5b505af1158015612f67573d6000803e3d6000fd5b505050508181612f7791906159fe565b600a60008573ffffffffffffffffffffffffffffffffffffffff1673ffffffffffffffffffffffffffffffffffffffff168152602001908152602001600020600b01819055507f190fe81f396538a8654aafa1adcdabc1825d53aa9fa6dd809991683d943e3a178383604051612fee9291906159d5565b60405180910390a1505050565b6130257fa49807205ce4d355092ef5a8a18f56e8913cf4a201fbe287825b095693c2177533612940565b61302e57600080fd5b600b60008373ffffffffffffffffffffffffffffffffffffffff1673ffffffffffffffffffffffffffffffffffffffff16815260200190815260200160002060009054906101000a900460ff166130ba576040517f08c379a00000000000000000000000000000000000000000000000000000000081526004016130b1906151f0565b60405180910390fd5b80600a60008473ffffffffffffffffffffffffffffffffffffffff1673ffffffffffffffffffffffffffffffffffffffff168152602001908152602001600020600901819055508173ffffffffffffffffffffffffffffffffffffffff167f7ed17f7b101bb354c92f134f7c421a00e511b046abf1edceb1956966e7443480826040516131479190614578565b60405180910390a25050565b61317d7fa49807205ce4d355092ef5a8a18f56e8913cf4a201fbe287825b095693c2177533612940565b61318657600080fd5b600b60008373ffffffffffffffffffffffffffffffffffffffff1673ffffffffffffffffffffffffffffffffffffffff16815260200190815260200160002060009054906101000a900460ff16613212576040517f08c379a0000000000000000000000000000000000000000000000000000000008152600401613209906151f0565b60405180910390fd5b6000600a60008473ffffffffffffffffffffffffffffffffffffffff1673ffffffffffffffffffffffffffffffffffffffff16815260200190815260200160002090508181600101819055508273ffffffffffffffffffffffffffffffffffffffff167f81665166aed8384c9df23393834f1b549569bbb3ca825f52f8390f1bbe1638718383600101546040516132aa929190615940565b60405180910390a2505050565b6132bf61434b565b600b60008373ffffffffffffffffffffffffffffffffffffffff1673ffffffffffffffffffffffffffffffffffffffff16815260200190815260200160002060009054906101000a900460ff1661334b576040517f08c379a0000000000000000000000000000000000000000000000000000000008152600401613342906151f0565b60405180910390fd5b600a60008373ffffffffffffffffffffffffffffffffffffffff1673ffffffffffffffffffffffffffffffffffffffff168152602001908152602001600020600d01600a806020026040519081016040528092919082600a80156133c4576020028201915b8154815260200190600101908083116133b0575b50505050509050919050565b600460009054906101000a900473ffffffffffffffffffffffffffffffffffffffff1681565b60065481565b6134058261165d565b61340e81613cac565b6134188383613da8565b505050565b6134477fa49807205ce4d355092ef5a8a18f56e8913cf4a201fbe287825b095693c2177533612940565b61345057600080fd5b600b60008373ffffffffffffffffffffffffffffffffffffffff1673ffffffffffffffffffffffffffffffffffffffff16815260200190815260200160002060009054906101000a900460ff166134dc576040517f08c379a00000000000000000000000000000000000000000000000000000000081526004016134d3906151f0565b60405180910390fd5b80600a60008473ffffffffffffffffffffffffffffffffffffffff1673ffffffffffffffffffffffffffffffffffffffff168152602001908152602001600020600201819055508173ffffffffffffffffffffffffffffffffffffffff167f7b45410837b569e79f978c88fbb1ab01a26d6922675e4de2fc0bae4e0586ceac826040516135699190614578565b60405180910390a25050565b60085481565b6135a57fa49807205ce4d355092ef5a8a18f56e8913cf4a201fbe287825b095693c2177533612940565b6135ae57600080fd5b8060068190555050565b6135e27fa49807205ce4d355092ef5a8a18f56e8913cf4a201fbe287825b095693c2177533612940565b6135eb57600080fd5b600b60008273ffffffffffffffffffffffffffffffffffffffff1673ffffffffffffffffffffffffffffffffffffffff16815260200190815260200160002060009054906101000a900460ff16613677576040517f08c379a000000000000000000000000000000000000000000000000000000000815260040161366e906151f0565b60405180910390fd5b600060608273ffffffffffffffffffffffffffffffffffffffff16600460009054906101000a900473ffffffffffffffffffffffffffffffffffffffff1673ffffffffffffffffffffffffffffffffffffffff16636352211e866040518263ffffffff1660e01b81526004016136ed9190614578565b602060405180830381865afa15801561370a573d6000803e3d6000fd5b505050506040513d601f19601f8201168201806040525081019061372e9190615807565b73ffffffffffffffffffffffffffffffffffffffff161461388957600460009054906101000a900473ffffffffffffffffffffffffffffffffffffffff1673ffffffffffffffffffffffffffffffffffffffff166318148f1b846040518263ffffffff1660e01b81526004016137a49190614f90565b600060405180830381865afa1580156137c1573d6000803e3d6000fd5b505050506040513d6000823e3d601f19601f820116820180604052508101906137ea91906158f7565b9050600081511115613860578060008151811061380a57613809615175565b5b6020026020010151915081600a60008573ffffffffffffffffffffffffffffffffffffffff1673ffffffffffffffffffffffffffffffffffffffff16815260200190815260200160002060180181905550613884565b7fffffffffffffffffffffffffffffffffffffffffffffffffffffffffffffffff91505b6138d4565b83600a60008573ffffffffffffffffffffffffffffffffffffffff1673ffffffffffffffffffffffffffffffffffffffff168152602001908152602001600020601801819055508391505b8273ffffffffffffffffffffffffffffffffffffffff167fcc9803ff35bbb65900301a2b84f90ad432fd23b513fb5dddcb6f4568cb9c54c98360405161391a9190614578565b60405180910390a250505050565b6139527fa49807205ce4d355092ef5a8a18f56e8913cf4a201fbe287825b095693c2177533612940565b61395b57600080fd5b600b60008373ffffffffffffffffffffffffffffffffffffffff1673ffffffffffffffffffffffffffffffffffffffff16815260200190815260200160002060009054906101000a900460ff166139b157600080fd5b80600a60008473ffffffffffffffffffffffffffffffffffffffff1673ffffffffffffffffffffffffffffffffffffffff168152602001908152602001600020600001819055505050565b6000600854905090565b613a0e613c2e565b600073ffffffffffffffffffffffffffffffffffffffff168173ffffffffffffffffffffffffffffffffffffffff1603613a4757600080fd5b80600560006101000a81548173ffffffffffffffffffffffffffffffffffffffff021916908373ffffffffffffffffffffffffffffffffffffffff1602179055508073ffffffffffffffffffffffffffffffffffffffff16613aa7612917565b73ffffffffffffffffffffffffffffffffffffffff167f38d16b8cac22d99fc7c124b9cd0de2d3fa1faef420bfe791d8c362d765e2270060405160405180910390a350565b6000600b60008373ffffffffffffffffffffffffffffffffffffffff1673ffffffffffffffffffffffffffffffffffffffff16815260200190815260200160002060009054906101000a900460ff16613b7a576040517f08c379a0000000000000000000000000000000000000000000000000000000008152600401613b71906151f0565b60405180910390fd5b600a60008373ffffffffffffffffffffffffffffffffffffffff1673ffffffffffffffffffffffffffffffffffffffff168152602001908152602001600020601701549050919050565b60007f01ffc9a7000000000000000000000000000000000000000000000000000000007bffffffffffffffffffffffffffffffffffffffffffffffffffffffff1916827bffffffffffffffffffffffffffffffffffffffffffffffffffffffff1916149050919050565b613c36613da0565b73ffffffffffffffffffffffffffffffffffffffff16613c54612917565b73ffffffffffffffffffffffffffffffffffffffff1614613caa576040517f08c379a0000000000000000000000000000000000000000000000000000000008152600401613ca190615a7e565b60405180910390fd5b565b613cbd81613cb8613da0565b613f4e565b50565b613cca8282612940565b613d9c57600180600084815260200190815260200160002060000160008373ffffffffffffffffffffffffffffffffffffffff1673ffffffffffffffffffffffffffffffffffffffff16815260200190815260200160002060006101000a81548160ff021916908315150217905550613d41613da0565b73ffffffffffffffffffffffffffffffffffffffff168173ffffffffffffffffffffffffffffffffffffffff16837f2f8788117e7eff1d82e926ec794901d17c78024a50270940304540a733656f0d60405160405180910390a45b5050565b600033905090565b613db28282612940565b15613e865760006001600084815260200190815260200160002060000160008373ffffffffffffffffffffffffffffffffffffffff1673ffffffffffffffffffffffffffffffffffffffff16815260200190815260200160002060006101000a81548160ff021916908315150217905550613e2b613da0565b73ffffffffffffffffffffffffffffffffffffffff168173ffffffffffffffffffffffffffffffffffffffff16837ff6391f5c32d9c69d2a47ea670b442974b53935d1edc7fd64eb21e047a839171b60405160405180910390a45b5050565b60008060009054906101000a900473ffffffffffffffffffffffffffffffffffffffff169050816000806101000a81548173ffffffffffffffffffffffffffffffffffffffff021916908373ffffffffffffffffffffffffffffffffffffffff1602179055508173ffffffffffffffffffffffffffffffffffffffff168173ffffffffffffffffffffffffffffffffffffffff167f8be0079c531659141344cd1fd0a4f28419497f9722a3daafe3b4186f6b6457e060405160405180910390a35050565b613f588282612940565b613fcf57613f6581613fd3565b613f738360001c6020614000565b604051602001613f84929190615ba7565b6040516020818303038152906040526040517f08c379a0000000000000000000000000000000000000000000000000000000008152600401613fc69190615c1a565b60405180910390fd5b5050565b6060613ff98273ffffffffffffffffffffffffffffffffffffffff16601460ff16614000565b9050919050565b6060600060028360026140139190615670565b61401d91906155d0565b67ffffffffffffffff811115614036576140356145a9565b5b6040519080825280601f01601f1916602001820160405280156140685781602001600182028036833780820191505090505b5090507f3000000000000000000000000000000000000000000000000000000000000000816000815181106140a05761409f615175565b5b60200101907effffffffffffffffffffffffffffffffffffffffffffffffffffffffffffff1916908160001a9053507f78000000000000000000000000000000000000000000000000000000000000008160018151811061410457614103615175565b5b60200101907effffffffffffffffffffffffffffffffffffffffffffffffffffffffffffff1916908160001a905350600060018460026141449190615670565b61414e91906155d0565b90505b60018111156141ee577f3031323334353637383961626364656600000000000000000000000000000000600f8616601081106141905761418f615175565b5b1a60f81b8282815181106141a7576141a6615175565b5b60200101907effffffffffffffffffffffffffffffffffffffffffffffffffffffffffffff1916908160001a905350600485901c9450806141e790615c3c565b9050614151565b5060008414614232576040517f08c379a000000000000000000000000000000000000000000000000000000000815260040161422990615cb1565b60405180910390fd5b8091505092915050565b826005810192821561426b579160200282015b8281111561426a57825182559160200191906001019061424f565b5b509050614278919061436e565b5090565b82600a81019282156142ab579160200282015b828111156142aa57825182559160200191906001019061428f565b5b5090506142b8919061436e565b5090565b6040518061018001604052806000815260200160008152602001600081526020016142e5614329565b8152602001600081526020016000815260200160008152602001600081526020016000815260200161431561434b565b815260200160008152602001600081525090565b6040518060a00160405280600590602082028036833780820191505090505090565b604051806101400160405280600a90602082028036833780820191505090505090565b5b8082111561438757600081600090555060010161436f565b5090565b6000604051905090565b600080fd5b600080fd5b60007fffffffff0000000000000000000000000000000000000000000000000000000082169050919050565b6143d48161439f565b81146143df57600080fd5b50565b6000813590506143f1816143cb565b92915050565b60006020828403121561440d5761440c614395565b5b600061441b848285016143e2565b91505092915050565b60008115159050919050565b61443981614424565b82525050565b60006020820190506144546000830184614430565b92915050565b600073ffffffffffffffffffffffffffffffffffffffff82169050919050565b6000819050919050565b600061449f61449a6144958461445a565b61447a565b61445a565b9050919050565b60006144b182614484565b9050919050565b60006144c3826144a6565b9050919050565b6144d3816144b8565b82525050565b60006020820190506144ee60008301846144ca565b92915050565b60006144ff8261445a565b9050919050565b61450f816144f4565b811461451a57600080fd5b50565b60008135905061452c81614506565b92915050565b60006020828403121561454857614547614395565b5b60006145568482850161451d565b91505092915050565b6000819050919050565b6145728161455f565b82525050565b600060208201905061458d6000830184614569565b92915050565b600080fd5b6000601f19601f8301169050919050565b7f4e487b7100000000000000000000000000000000000000000000000000000000600052604160045260246000fd5b6145e182614598565b810181811067ffffffffffffffff82111715614600576145ff6145a9565b5b80604052505050565b600061461361438b565b905061461f82826145d8565b919050565b600067ffffffffffffffff82111561463f5761463e6145a9565b5b602082029050602081019050919050565b600080fd5b600080fd5b6146638161455f565b811461466e57600080fd5b50565b6000813590506146808161465a565b92915050565b600067ffffffffffffffff8211156146a1576146a06145a9565b5b602082029050919050565b60006146bf6146ba84614686565b614609565b905080602084028301858111156146d9576146d8614650565b5b835b8181101561470257806146ee8882614671565b8452602084019350506020810190506146db565b5050509392505050565b600082601f83011261472157614720614593565b5b600561472e8482856146ac565b91505092915050565b600067ffffffffffffffff821115614752576147516145a9565b5b602082029050919050565b600061477061476b84614737565b614609565b9050806020840283018581111561478a57614789614650565b5b835b818110156147b3578061479f8882614671565b84526020840193505060208101905061478c565b5050509392505050565b600082601f8301126147d2576147d1614593565b5b600a6147df84828561475d565b91505092915050565b600061032082840312156147ff576147fe614655565b5b61480a610180614609565b9050600061481a84828501614671565b600083015250602061482e84828501614671565b602083015250604061484284828501614671565b60408301525060606148568482850161470c565b60608301525061010061486b84828501614671565b60808301525061012061488084828501614671565b60a08301525061014061489584828501614671565b60c0830152506101606148aa84828501614671565b60e0830152506101806148bf84828501614671565b610100830152506101a06148d5848285016147bd565b610120830152506102e06148eb84828501614671565b6101408301525061030061490184828501614671565b6101608301525092915050565b600061492161491c84614624565b614609565b905080838252602082019050610320840283018581111561494557614944614650565b5b835b8181101561496f578061495a88826147e8565b84526020840193505061032081019050614947565b5050509392505050565b600082601f83011261498e5761498d614593565b5b813561499e84826020860161490e565b91505092915050565b600067ffffffffffffffff8211156149c2576149c16145a9565b5b602082029050602081019050919050565b60006149e66149e1846149a7565b614609565b90508083825260208201905060208402830185811115614a0957614a08614650565b5b835b81811015614a325780614a1e888261451d565b845260208401935050602081019050614a0b565b5050509392505050565b600082601f830112614a5157614a50614593565b5b8135614a618482602086016149d3565b91505092915050565b60008060408385031215614a8157614a80614395565b5b600083013567ffffffffffffffff811115614a9f57614a9e61439a565b5b614aab85828601614979565b925050602083013567ffffffffffffffff811115614acc57614acb61439a565b5b614ad885828601614a3c565b9150509250929050565b60008060008060808587031215614afc57614afb614395565b5b6000614b0a87828801614671565b9450506020614b1b87828801614671565b9350506040614b2c87828801614671565b9250506060614b3d87828801614671565b91505092959194509250565b600060208284031215614b5f57614b5e614395565b5b6000614b6d84828501614671565b91505092915050565b6000819050919050565b614b8981614b76565b8114614b9457600080fd5b50565b600081359050614ba681614b80565b92915050565b600060208284031215614bc257614bc1614395565b5b6000614bd084828501614b97565b91505092915050565b614be281614b76565b82525050565b6000602082019050614bfd6000830184614bd9565b92915050565b60008060408385031215614c1a57614c19614395565b5b6000614c2885828601614b97565b9250506020614c398582860161451d565b9150509250929050565b6000614c4e826144a6565b9050919050565b614c5e81614c43565b82525050565b6000602082019050614c796000830184614c55565b92915050565b60008060408385031215614c9657614c95614395565b5b6000614ca48582860161451d565b9250506020614cb585828601614671565b9150509250929050565b614cc88161455f565b82525050565b600060059050919050565b600081905092915050565b6000819050919050565b6000614cfa8383614cbf565b60208301905092915050565b6000602082019050919050565b614d1c81614cce565b614d268184614cd9565b9250614d3182614ce4565b8060005b83811015614d62578151614d498782614cee565b9650614d5483614d06565b925050600181019050614d35565b505050505050565b6000600a9050919050565b600081905092915050565b6000819050919050565b6000602082019050919050565b614da081614d6a565b614daa8184614d75565b9250614db582614d80565b8060005b83811015614de6578151614dcd8782614cee565b9650614dd883614d8a565b925050600181019050614db9565b505050505050565b61032082016000820151614e056000850182614cbf565b506020820151614e186020850182614cbf565b506040820151614e2b6040850182614cbf565b506060820151614e3e6060850182614d13565b506080820151614e52610100850182614cbf565b5060a0820151614e66610120850182614cbf565b5060c0820151614e7a610140850182614cbf565b5060e0820151614e8e610160850182614cbf565b50610100820151614ea3610180850182614cbf565b50610120820151614eb86101a0850182614d97565b50610140820151614ecd6102e0850182614cbf565b50610160820151614ee2610300850182614cbf565b50505050565b600061032082019050614efe6000830184614dee565b92915050565b600081905092915050565b614f1881614cce565b614f228184614f04565b9250614f2d82614ce4565b8060005b83811015614f5e578151614f458782614cee565b9650614f5083614d06565b925050600181019050614f31565b505050505050565b600060a082019050614f7b6000830184614f0f565b92915050565b614f8a816144f4565b82525050565b6000602082019050614fa56000830184614f81565b92915050565b600080600060608486031215614fc457614fc3614395565b5b6000614fd28682870161451d565b9350506020614fe386828701614671565b9250506040614ff486828701614671565b9150509250925092565b600081905092915050565b61501281614d6a565b61501c8184614ffe565b925061502782614d80565b8060005b8381101561505857815161503f8782614cee565b965061504a83614d8a565b92505060018101905061502b565b505050505050565b6000610140820190506150766000830184615009565b92915050565b6000615087826144a6565b9050919050565b6150978161507c565b82525050565b60006020820190506150b2600083018461508e565b92915050565b600080604083850312156150cf576150ce614395565b5b60006150dd85828601614671565b92505060206150ee8582860161451d565b9150509250929050565b600082825260208201905092915050565b7f3130320000000000000000000000000000000000000000000000000000000000600082015250565b600061513f6003836150f8565b915061514a82615109565b602082019050919050565b6000602082019050818103600083015261516e81615132565b9050919050565b7f4e487b7100000000000000000000000000000000000000000000000000000000600052603260045260246000fd5b7f3130310000000000000000000000000000000000000000000000000000000000600082015250565b60006151da6003836150f8565b91506151e5826151a4565b602082019050919050565b60006020820190508181036000830152615209816151cd565b9050919050565b600081519050919050565b600081905092915050565b6000819050602082019050919050565b61523f816144f4565b82525050565b60006152518383615236565b60208301905092915050565b6000602082019050919050565b600061527582615210565b61527f818561521b565b935061528a83615226565b8060005b838110156152bb5781516152a28882615245565b97506152ad8361525d565b92505060018101905061528e565b5085935050505092915050565b60006152d4828461526a565b915081905092915050565b600081519050919050565b600081905092915050565b6000819050602082019050919050565b61530e8161455f565b82525050565b60006153208383615305565b60208301905092915050565b600081905092915050565b61534081614cce565b61534a818461532c565b925061535582614ce4565b8060005b8381101561538657815161536d8782615314565b965061537883614d06565b925050600181019050615359565b505050505050565b600061539a8383615337565b60a08301905092915050565b600081905092915050565b6153ba81614d6a565b6153c481846153a6565b92506153cf82614d80565b8060005b838110156154005781516153e78782615314565b96506153f283614d8a565b9250506001810190506153d3565b505050505050565b600061541483836153b1565b6101408301905092915050565b6000820160008201516154348482615314565b93505060208201516154468482615314565b93505060408201516154588482615314565b935050606082015161546a848261538e565b935050608082015161547c8482615314565b93505060a082015161548e8482615314565b93505060c08201516154a08482615314565b93505060e08201516154b28482615314565b9350506101008201516154c58482615314565b9350506101208201516154d88482615408565b9350506101408201516154eb8482615314565b9350506101608201516154fe8482615314565b935050505050565b60006155128383615421565b6103208301905092915050565b6000602082019050919050565b6000615537826152df565b61554181856152ea565b935061554c836152f5565b8060005b8381101561557d5781516155648882615506565b975061556f8361551f565b925050600181019050615550565b5085935050505092915050565b6000615596828461552c565b915081905092915050565b7f4e487b7100000000000000000000000000000000000000000000000000000000600052601160045260246000fd5b60006155db8261455f565b91506155e68361455f565b92508282019050808211156155fe576155fd6155a1565b5b92915050565b7f3130380000000000000000000000000000000000000000000000000000000000600082015250565b600061563a6003836150f8565b915061564582615604565b602082019050919050565b600060208201905081810360008301526156698161562d565b9050919050565b600061567b8261455f565b91506156868361455f565b92508282026156948161455f565b915082820484148315176156ab576156aa6155a1565b5b5092915050565b6000815190506156c18161465a565b92915050565b6000602082840312156156dd576156dc614395565b5b60006156eb848285016156b2565b91505092915050565b7f3130330000000000000000000000000000000000000000000000000000000000600082015250565b600061572a6003836150f8565b9150615735826156f4565b602082019050919050565b600060208201905081810360008301526157598161571d565b9050919050565b7f416363657373436f6e74726f6c3a2063616e206f6e6c792072656e6f756e636560008201527f20726f6c657320666f722073656c660000000000000000000000000000000000602082015250565b60006157bc602f836150f8565b91506157c782615760565b604082019050919050565b600060208201905081810360008301526157eb816157af565b9050919050565b60008151905061580181614506565b92915050565b60006020828403121561581d5761581c614395565b5b600061582b848285016157f2565b91505092915050565b600067ffffffffffffffff82111561584f5761584e6145a9565b5b602082029050602081019050919050565b600061587361586e84615834565b614609565b9050808382526020820190506020840283018581111561589657615895614650565b5b835b818110156158bf57806158ab88826156b2565b845260208401935050602081019050615898565b5050509392505050565b600082601f8301126158de576158dd614593565b5b81516158ee848260208601615860565b91505092915050565b60006020828403121561590d5761590c614395565b5b600082015167ffffffffffffffff81111561592b5761592a61439a565b5b615937848285016158c9565b91505092915050565b60006040820190506159556000830185614569565b6159626020830184614569565b9392505050565b7f3130340000000000000000000000000000000000000000000000000000000000600082015250565b600061599f6003836150f8565b91506159aa82615969565b602082019050919050565b600060208201905081810360008301526159ce81615992565b9050919050565b60006040820190506159ea6000830185614f81565b6159f76020830184614569565b9392505050565b6000615a098261455f565b9150615a148361455f565b9250828203905081811115615a2c57615a2b6155a1565b5b92915050565b7f4f776e61626c653a2063616c6c6572206973206e6f7420746865206f776e6572600082015250565b6000615a686020836150f8565b9150615a7382615a32565b602082019050919050565b60006020820190508181036000830152615a9781615a5b565b9050919050565b600081905092915050565b7f416363657373436f6e74726f6c3a206163636f756e7420000000000000000000600082015250565b6000615adf601783615a9e565b9150615aea82615aa9565b601782019050919050565b600081519050919050565b60005b83811015615b1e578082015181840152602081019050615b03565b60008484015250505050565b6000615b3582615af5565b615b3f8185615a9e565b9350615b4f818560208601615b00565b80840191505092915050565b7f206973206d697373696e6720726f6c6520000000000000000000000000000000600082015250565b6000615b91601183615a9e565b9150615b9c82615b5b565b601182019050919050565b6000615bb282615ad2565b9150615bbe8285615b2a565b9150615bc982615b84565b9150615bd58284615b2a565b91508190509392505050565b6000615bec82615af5565b615bf681856150f8565b9350615c06818560208601615b00565b615c0f81614598565b840191505092915050565b60006020820190508181036000830152615c348184615be1565b905092915050565b6000615c478261455f565b915060008203615c5a57615c596155a1565b5b600182039050919050565b7f537472696e67733a20686578206c656e67746820696e73756666696369656e74600082015250565b6000615c9b6020836150f8565b9150615ca682615c65565b602082019050919050565b60006020820190508181036000830152615cca81615c8e565b905091905056fea264697066735822122067d02f229d1ef02abba5001be48a8e3d9b8001566f29c6cc3d3086efd9854a9664736f6c63430008180033","opcodes":"PUSH1 0x80 PUSH1 0x40 MSTORE CALLVALUE DUP1 ISZERO PUSH3 0x11 JUMPI PUSH1 0x0 DUP1 REVERT JUMPDEST POP PUSH1 0x40 MLOAD PUSH3 0x61F6 CODESIZE SUB DUP1 PUSH3 0x61F6 DUP4 CODECOPY DUP2 DUP2 ADD PUSH1 0x40 MSTORE DUP2 ADD SWAP1 PUSH3 0x37 SWAP2 SWAP1 PUSH3 0x46D JUMP JUMPDEST PUSH3 0x57 PUSH3 0x4B PUSH3 0x18A PUSH1 0x20 SHL PUSH1 0x20 SHR JUMP JUMPDEST PUSH3 0x192 PUSH1 0x20 SHL PUSH1 0x20 SHR JUMP JUMPDEST PUSH1 0x33 PUSH1 0x6 DUP2 SWAP1 SSTORE POP PUSH1 0x63 PUSH1 0x7 DUP2 SWAP1 SSTORE POP PUSH1 0xA PUSH1 0x8 DUP2 SWAP1 SSTORE POP DUP1 PUSH1 0x9 DUP2 SWAP1 SSTORE POP PUSH3 0x8B PUSH1 0x0 DUP1 SHL CALLER PUSH3 0x256 PUSH1 0x20 SHL PUSH1 0x20 SHR JUMP JUMPDEST PUSH3 0xBD PUSH32 0xA49807205CE4D355092EF5A8A18F56E8913CF4A201FBE287825B095693C21775 CALLER PUSH3 0x256 PUSH1 0x20 SHL PUSH1 0x20 SHR JUMP JUMPDEST DUP4 PUSH1 0x2 PUSH1 0x0 PUSH2 0x100 EXP DUP2 SLOAD DUP2 PUSH20 0xFFFFFFFFFFFFFFFFFFFFFFFFFFFFFFFFFFFFFFFF MUL NOT AND SWAP1 DUP4 PUSH20 0xFFFFFFFFFFFFFFFFFFFFFFFFFFFFFFFFFFFFFFFF AND MUL OR SWAP1 SSTORE POP DUP3 PUSH1 0x3 PUSH1 0x0 PUSH2 0x100 EXP DUP2 SLOAD DUP2 PUSH20 0xFFFFFFFFFFFFFFFFFFFFFFFFFFFFFFFFFFFFFFFF MUL NOT AND SWAP1 DUP4 PUSH20 0xFFFFFFFFFFFFFFFFFFFFFFFFFFFFFFFFFFFFFFFF AND MUL OR SWAP1 SSTORE POP DUP2 PUSH1 0x4 PUSH1 0x0 PUSH2 0x100 EXP DUP2 SLOAD DUP2 PUSH20 0xFFFFFFFFFFFFFFFFFFFFFFFFFFFFFFFFFFFFFFFF MUL NOT AND SWAP1 DUP4 PUSH20 0xFFFFFFFFFFFFFFFFFFFFFFFFFFFFFFFFFFFFFFFF AND MUL OR SWAP1 SSTORE POP POP POP POP POP PUSH3 0x4DF JUMP JUMPDEST PUSH1 0x0 CALLER SWAP1 POP SWAP1 JUMP JUMPDEST PUSH1 0x0 DUP1 PUSH1 0x0 SWAP1 SLOAD SWAP1 PUSH2 0x100 EXP SWAP1 DIV PUSH20 0xFFFFFFFFFFFFFFFFFFFFFFFFFFFFFFFFFFFFFFFF AND SWAP1 POP DUP2 PUSH1 0x0 DUP1 PUSH2 0x100 EXP DUP2 SLOAD DUP2 PUSH20 0xFFFFFFFFFFFFFFFFFFFFFFFFFFFFFFFFFFFFFFFF MUL NOT AND SWAP1 DUP4 PUSH20 0xFFFFFFFFFFFFFFFFFFFFFFFFFFFFFFFFFFFFFFFF AND MUL OR SWAP1 SSTORE POP DUP2 PUSH20 0xFFFFFFFFFFFFFFFFFFFFFFFFFFFFFFFFFFFFFFFF AND DUP2 PUSH20 0xFFFFFFFFFFFFFFFFFFFFFFFFFFFFFFFFFFFFFFFF AND PUSH32 0x8BE0079C531659141344CD1FD0A4F28419497F9722A3DAAFE3B4186F6B6457E0 PUSH1 0x40 MLOAD PUSH1 0x40 MLOAD DUP1 SWAP2 SUB SWAP1 LOG3 POP POP JUMP JUMPDEST PUSH3 0x268 DUP3 DUP3 PUSH3 0x26C PUSH1 0x20 SHL PUSH1 0x20 SHR JUMP JUMPDEST POP POP JUMP JUMPDEST PUSH3 0x27E DUP3 DUP3 PUSH3 0x35D PUSH1 0x20 SHL PUSH1 0x20 SHR JUMP JUMPDEST PUSH3 0x359 JUMPI PUSH1 0x1 DUP1 PUSH1 0x0 DUP5 DUP2 MSTORE PUSH1 0x20 ADD SWAP1 DUP2 MSTORE PUSH1 0x20 ADD PUSH1 0x0 KECCAK256 PUSH1 0x0 ADD PUSH1 0x0 DUP4 PUSH20 0xFFFFFFFFFFFFFFFFFFFFFFFFFFFFFFFFFFFFFFFF AND PUSH20 0xFFFFFFFFFFFFFFFFFFFFFFFFFFFFFFFFFFFFFFFF AND DUP2 MSTORE PUSH1 0x20 ADD SWAP1 DUP2 MSTORE PUSH1 0x20 ADD PUSH1 0x0 KECCAK256 PUSH1 0x0 PUSH2 0x100 EXP DUP2 SLOAD DUP2 PUSH1 0xFF MUL NOT AND SWAP1 DUP4 ISZERO ISZERO MUL OR SWAP1 SSTORE POP PUSH3 0x2FE PUSH3 0x18A PUSH1 0x20 SHL PUSH1 0x20 SHR JUMP JUMPDEST PUSH20 0xFFFFFFFFFFFFFFFFFFFFFFFFFFFFFFFFFFFFFFFF AND DUP2 PUSH20 0xFFFFFFFFFFFFFFFFFFFFFFFFFFFFFFFFFFFFFFFF AND DUP4 PUSH32 0x2F8788117E7EFF1D82E926EC794901D17C78024A50270940304540A733656F0D PUSH1 0x40 MLOAD PUSH1 0x40 MLOAD DUP1 SWAP2 SUB SWAP1 LOG4 JUMPDEST POP POP JUMP JUMPDEST PUSH1 0x0 PUSH1 0x1 PUSH1 0x0 DUP5 DUP2 MSTORE PUSH1 0x20 ADD SWAP1 DUP2 MSTORE PUSH1 0x20 ADD PUSH1 0x0 KECCAK256 PUSH1 0x0 ADD PUSH1 0x0 DUP4 PUSH20 0xFFFFFFFFFFFFFFFFFFFFFFFFFFFFFFFFFFFFFFFF AND PUSH20 0xFFFFFFFFFFFFFFFFFFFFFFFFFFFFFFFFFFFFFFFF AND DUP2 MSTORE PUSH1 0x20 ADD SWAP1 DUP2 MSTORE PUSH1 0x20 ADD PUSH1 0x0 KECCAK256 PUSH1 0x0 SWAP1 SLOAD SWAP1 PUSH2 0x100 EXP SWAP1 DIV PUSH1 0xFF AND SWAP1 POP SWAP3 SWAP2 POP POP JUMP JUMPDEST PUSH1 0x0 DUP1 REVERT JUMPDEST PUSH1 0x0 PUSH20 0xFFFFFFFFFFFFFFFFFFFFFFFFFFFFFFFFFFFFFFFF DUP3 AND SWAP1 POP SWAP2 SWAP1 POP JUMP JUMPDEST PUSH1 0x0 PUSH3 0x3FA DUP3 PUSH3 0x3CD JUMP JUMPDEST SWAP1 POP SWAP2 SWAP1 POP JUMP JUMPDEST PUSH3 0x40C DUP2 PUSH3 0x3ED JUMP JUMPDEST DUP2 EQ PUSH3 0x418 JUMPI PUSH1 0x0 DUP1 REVERT JUMPDEST POP JUMP JUMPDEST PUSH1 0x0 DUP2 MLOAD SWAP1 POP PUSH3 0x42C DUP2 PUSH3 0x401 JUMP JUMPDEST SWAP3 SWAP2 POP POP JUMP JUMPDEST PUSH1 0x0 DUP2 SWAP1 POP SWAP2 SWAP1 POP JUMP JUMPDEST PUSH3 0x447 DUP2 PUSH3 0x432 JUMP JUMPDEST DUP2 EQ PUSH3 0x453 JUMPI PUSH1 0x0 DUP1 REVERT JUMPDEST POP JUMP JUMPDEST PUSH1 0x0 DUP2 MLOAD SWAP1 POP PUSH3 0x467 DUP2 PUSH3 0x43C JUMP JUMPDEST SWAP3 SWAP2 POP POP JUMP JUMPDEST PUSH1 0x0 DUP1 PUSH1 0x0 DUP1 PUSH1 0x80 DUP6 DUP8 SUB SLT ISZERO PUSH3 0x48A JUMPI PUSH3 0x489 PUSH3 0x3C8 JUMP JUMPDEST JUMPDEST PUSH1 0x0 PUSH3 0x49A DUP8 DUP3 DUP9 ADD PUSH3 0x41B JUMP JUMPDEST SWAP5 POP POP PUSH1 0x20 PUSH3 0x4AD DUP8 DUP3 DUP9 ADD PUSH3 0x41B JUMP JUMPDEST SWAP4 POP POP PUSH1 0x40 PUSH3 0x4C0 DUP8 DUP3 DUP9 ADD PUSH3 0x41B JUMP JUMPDEST SWAP3 POP POP PUSH1 0x60 PUSH3 0x4D3 DUP8 DUP3 DUP9 ADD PUSH3 0x456 JUMP JUMPDEST SWAP2 POP POP SWAP3 SWAP6 SWAP2 SWAP5 POP SWAP3 POP JUMP JUMPDEST PUSH2 0x5D07 DUP1 PUSH3 0x4EF PUSH1 0x0 CODECOPY PUSH1 0x0 RETURN INVALID PUSH1 0x80 PUSH1 0x40 MSTORE CALLVALUE DUP1 ISZERO PUSH2 0x10 JUMPI PUSH1 0x0 DUP1 REVERT JUMPDEST POP PUSH1 0x4 CALLDATASIZE LT PUSH2 0x30C JUMPI PUSH1 0x0 CALLDATALOAD PUSH1 0xE0 SHR DUP1 PUSH4 0x79BA5097 GT PUSH2 0x19D JUMPI DUP1 PUSH4 0xBFB56D62 GT PUSH2 0xE9 JUMPI DUP1 PUSH4 0xE55AE65A GT PUSH2 0xA2 JUMPI DUP1 PUSH4 0xEAAAA234 GT PUSH2 0x7C JUMPI DUP1 PUSH4 0xEAAAA234 EQ PUSH2 0x949 JUMPI DUP1 PUSH4 0xF2061405 EQ PUSH2 0x965 JUMPI DUP1 PUSH4 0xF2FDE38B EQ PUSH2 0x983 JUMPI DUP1 PUSH4 0xF76B7DE5 EQ PUSH2 0x99F JUMPI PUSH2 0x30C JUMP JUMPDEST DUP1 PUSH4 0xE55AE65A EQ PUSH2 0x8F3 JUMPI DUP1 PUSH4 0xE678F86C EQ PUSH2 0x911 JUMPI DUP1 PUSH4 0xE9BCC5F3 EQ PUSH2 0x92D JUMPI PUSH2 0x30C JUMP JUMPDEST DUP1 PUSH4 0xBFB56D62 EQ PUSH2 0x833 JUMPI DUP1 PUSH4 0xC6051A94 EQ PUSH2 0x84F JUMPI DUP1 PUSH4 0xC8001B73 EQ PUSH2 0x87F JUMPI DUP1 PUSH4 0xCEE8B4AA EQ PUSH2 0x89D JUMPI DUP1 PUSH4 0xD547741F EQ PUSH2 0x8BB JUMPI DUP1 PUSH4 0xDEA90512 EQ PUSH2 0x8D7 JUMPI PUSH2 0x30C JUMP JUMPDEST DUP1 PUSH4 0x9AF7A00A GT PUSH2 0x156 JUMPI DUP1 PUSH4 0xA63EBA48 GT PUSH2 0x130 JUMPI DUP1 PUSH4 0xA63EBA48 EQ PUSH2 0x7C1 JUMPI DUP1 PUSH4 0xB474CA76 EQ PUSH2 0x7DD JUMPI DUP1 PUSH4 0xB5D626C4 EQ PUSH2 0x7FB JUMPI DUP1 PUSH4 0xBF129FD0 EQ PUSH2 0x817 JUMPI PUSH2 0x30C JUMP JUMPDEST DUP1 PUSH4 0x9AF7A00A EQ PUSH2 0x76B JUMPI DUP1 PUSH4 0x9DEEDD5B EQ PUSH2 0x787 JUMPI DUP1 PUSH4 0xA217FDDF EQ PUSH2 0x7A3 JUMPI PUSH2 0x30C JUMP JUMPDEST DUP1 PUSH4 0x79BA5097 EQ PUSH2 0x695 JUMPI DUP1 PUSH4 0x8C953A78 EQ PUSH2 0x69F JUMPI DUP1 PUSH4 0x8CA5F74D EQ PUSH2 0x6CF JUMPI DUP1 PUSH4 0x8DA5CB5B EQ PUSH2 0x6ED JUMPI DUP1 PUSH4 0x91D14854 EQ PUSH2 0x70B JUMPI DUP1 PUSH4 0x95155900 EQ PUSH2 0x73B JUMPI PUSH2 0x30C JUMP JUMPDEST DUP1 PUSH4 0x48AABAB2 GT PUSH2 0x25C JUMPI DUP1 PUSH4 0x6ABA920B GT PUSH2 0x215 JUMPI DUP1 PUSH4 0x70480275 GT PUSH2 0x1EF JUMPI DUP1 PUSH4 0x70480275 EQ PUSH2 0x621 JUMPI DUP1 PUSH4 0x715018A6 EQ PUSH2 0x63D JUMPI DUP1 PUSH4 0x75B238FC EQ PUSH2 0x647 JUMPI DUP1 PUSH4 0x7757346D EQ PUSH2 0x665 JUMPI PUSH2 0x30C JUMP JUMPDEST DUP1 PUSH4 0x6ABA920B EQ PUSH2 0x5A5 JUMPI DUP1 PUSH4 0x6B743A2C EQ PUSH2 0x5C1 JUMPI DUP1 PUSH4 0x6F77926B EQ PUSH2 0x5F1 JUMPI PUSH2 0x30C JUMP JUMPDEST DUP1 PUSH4 0x48AABAB2 EQ PUSH2 0x4D1 JUMPI DUP1 PUSH4 0x50A4098A EQ PUSH2 0x501 JUMPI DUP1 PUSH4 0x53ACD2AB EQ PUSH2 0x51F JUMPI DUP1 PUSH4 0x59328401 EQ PUSH2 0x53B JUMPI DUP1 PUSH4 0x657A9393 EQ PUSH2 0x56B JUMPI DUP1 PUSH4 0x6667A9A7 EQ PUSH2 0x587 JUMPI PUSH2 0x30C JUMP JUMPDEST DUP1 PUSH4 0x22A66172 GT PUSH2 0x2C9 JUMPI DUP1 PUSH4 0x31C4ECDC GT PUSH2 0x2A3 JUMPI DUP1 PUSH4 0x31C4ECDC EQ PUSH2 0x439 JUMPI DUP1 PUSH4 0x34B735A1 EQ PUSH2 0x469 JUMPI DUP1 PUSH4 0x36568ABE EQ PUSH2 0x499 JUMPI DUP1 PUSH4 0x421B2D8B EQ PUSH2 0x4B5 JUMPI PUSH2 0x30C JUMP JUMPDEST DUP1 PUSH4 0x22A66172 EQ PUSH2 0x3D1 JUMPI DUP1 PUSH4 0x248A9CA3 EQ PUSH2 0x3ED JUMPI DUP1 PUSH4 0x2F2FF15D EQ PUSH2 0x41D JUMPI PUSH2 0x30C JUMP JUMPDEST DUP1 PUSH4 0x1FFC9A7 EQ PUSH2 0x311 JUMPI DUP1 PUSH4 0x47AC5DE EQ PUSH2 0x341 JUMPI DUP1 PUSH4 0x1785F53C EQ PUSH2 0x35F JUMPI DUP1 PUSH4 0x18250E07 EQ PUSH2 0x37B JUMPI DUP1 PUSH4 0x1FBFF24F EQ PUSH2 0x399 JUMPI DUP1 PUSH4 0x215C5D00 EQ PUSH2 0x3B5 JUMPI JUMPDEST PUSH1 0x0 DUP1 REVERT JUMPDEST PUSH2 0x32B PUSH1 0x4 DUP1 CALLDATASIZE SUB DUP2 ADD SWAP1 PUSH2 0x326 SWAP2 SWAP1 PUSH2 0x43F7 JUMP JUMPDEST PUSH2 0x9CF JUMP JUMPDEST PUSH1 0x40 MLOAD PUSH2 0x338 SWAP2 SWAP1 PUSH2 0x443F JUMP JUMPDEST PUSH1 0x40 MLOAD DUP1 SWAP2 SUB SWAP1 RETURN JUMPDEST PUSH2 0x349 PUSH2 0xA49 JUMP JUMPDEST PUSH1 0x40 MLOAD PUSH2 0x356 SWAP2 SWAP1 PUSH2 0x44D9 JUMP JUMPDEST PUSH1 0x40 MLOAD DUP1 SWAP2 SUB SWAP1 RETURN JUMPDEST PUSH2 0x379 PUSH1 0x4 DUP1 CALLDATASIZE SUB DUP2 ADD SWAP1 PUSH2 0x374 SWAP2 SWAP1 PUSH2 0x4532 JUMP JUMPDEST PUSH2 0xA6F JUMP JUMPDEST STOP JUMPDEST PUSH2 0x383 PUSH2 0xAA4 JUMP JUMPDEST PUSH1 0x40 MLOAD PUSH2 0x390 SWAP2 SWAP1 PUSH2 0x4578 JUMP JUMPDEST PUSH1 0x40 MLOAD DUP1 SWAP2 SUB SWAP1 RETURN JUMPDEST PUSH2 0x3B3 PUSH1 0x4 DUP1 CALLDATASIZE SUB DUP2 ADD SWAP1 PUSH2 0x3AE SWAP2 SWAP1 PUSH2 0x4A6A JUMP JUMPDEST PUSH2 0xAAA JUMP JUMPDEST STOP JUMPDEST PUSH2 0x3CF PUSH1 0x4 DUP1 CALLDATASIZE SUB DUP2 ADD SWAP1 PUSH2 0x3CA SWAP2 SWAP1 PUSH2 0x4AE2 JUMP JUMPDEST PUSH2 0x124B JUMP JUMPDEST STOP JUMPDEST PUSH2 0x3EB PUSH1 0x4 DUP1 CALLDATASIZE SUB DUP2 ADD SWAP1 PUSH2 0x3E6 SWAP2 SWAP1 PUSH2 0x4B49 JUMP JUMPDEST PUSH2 0x12D5 JUMP JUMPDEST STOP JUMPDEST PUSH2 0x407 PUSH1 0x4 DUP1 CALLDATASIZE SUB DUP2 ADD SWAP1 PUSH2 0x402 SWAP2 SWAP1 PUSH2 0x4BAC JUMP JUMPDEST PUSH2 0x165D JUMP JUMPDEST PUSH1 0x40 MLOAD PUSH2 0x414 SWAP2 SWAP1 PUSH2 0x4BE8 JUMP JUMPDEST PUSH1 0x40 MLOAD DUP1 SWAP2 SUB SWAP1 RETURN JUMPDEST PUSH2 0x437 PUSH1 0x4 DUP1 CALLDATASIZE SUB DUP2 ADD SWAP1 PUSH2 0x432 SWAP2 SWAP1 PUSH2 0x4C03 JUMP JUMPDEST PUSH2 0x167D JUMP JUMPDEST STOP JUMPDEST PUSH2 0x453 PUSH1 0x4 DUP1 CALLDATASIZE SUB DUP2 ADD SWAP1 PUSH2 0x44E SWAP2 SWAP1 PUSH2 0x4532 JUMP JUMPDEST PUSH2 0x169E JUMP JUMPDEST PUSH1 0x40 MLOAD PUSH2 0x460 SWAP2 SWAP1 PUSH2 0x4578 JUMP JUMPDEST PUSH1 0x40 MLOAD DUP1 SWAP2 SUB SWAP1 RETURN JUMPDEST PUSH2 0x483 PUSH1 0x4 DUP1 CALLDATASIZE SUB DUP2 ADD SWAP1 PUSH2 0x47E SWAP2 SWAP1 PUSH2 0x4532 JUMP JUMPDEST PUSH2 0x1776 JUMP JUMPDEST PUSH1 0x40 MLOAD PUSH2 0x490 SWAP2 SWAP1 PUSH2 0x4578 JUMP JUMPDEST PUSH1 0x40 MLOAD DUP1 SWAP2 SUB SWAP1 RETURN JUMPDEST PUSH2 0x4B3 PUSH1 0x4 DUP1 CALLDATASIZE SUB DUP2 ADD SWAP1 PUSH2 0x4AE SWAP2 SWAP1 PUSH2 0x4C03 JUMP JUMPDEST PUSH2 0x184E JUMP JUMPDEST STOP JUMPDEST PUSH2 0x4CF PUSH1 0x4 DUP1 CALLDATASIZE SUB DUP2 ADD SWAP1 PUSH2 0x4CA SWAP2 SWAP1 PUSH2 0x4532 JUMP JUMPDEST PUSH2 0x18D1 JUMP JUMPDEST STOP JUMPDEST PUSH2 0x4EB PUSH1 0x4 DUP1 CALLDATASIZE SUB DUP2 ADD SWAP1 PUSH2 0x4E6 SWAP2 SWAP1 PUSH2 0x4532 JUMP JUMPDEST PUSH2 0x1BE8 JUMP JUMPDEST PUSH1 0x40 MLOAD PUSH2 0x4F8 SWAP2 SWAP1 PUSH2 0x4578 JUMP JUMPDEST PUSH1 0x40 MLOAD DUP1 SWAP2 SUB SWAP1 RETURN JUMPDEST PUSH2 0x509 PUSH2 0x1CC0 JUMP JUMPDEST PUSH1 0x40 MLOAD PUSH2 0x516 SWAP2 SWAP1 PUSH2 0x4C64 JUMP JUMPDEST PUSH1 0x40 MLOAD DUP1 SWAP2 SUB SWAP1 RETURN JUMPDEST PUSH2 0x539 PUSH1 0x4 DUP1 CALLDATASIZE SUB DUP2 ADD SWAP1 PUSH2 0x534 SWAP2 SWAP1 PUSH2 0x4C7F JUMP JUMPDEST PUSH2 0x1CE6 JUMP JUMPDEST STOP JUMPDEST PUSH2 0x555 PUSH1 0x4 DUP1 CALLDATASIZE SUB DUP2 ADD SWAP1 PUSH2 0x550 SWAP2 SWAP1 PUSH2 0x4532 JUMP JUMPDEST PUSH2 0x2056 JUMP JUMPDEST PUSH1 0x40 MLOAD PUSH2 0x562 SWAP2 SWAP1 PUSH2 0x4EE8 JUMP JUMPDEST PUSH1 0x40 MLOAD DUP1 SWAP2 SUB SWAP1 RETURN JUMPDEST PUSH2 0x585 PUSH1 0x4 DUP1 CALLDATASIZE SUB DUP2 ADD SWAP1 PUSH2 0x580 SWAP2 SWAP1 PUSH2 0x4B49 JUMP JUMPDEST PUSH2 0x219E JUMP JUMPDEST STOP JUMPDEST PUSH2 0x58F PUSH2 0x21DB JUMP JUMPDEST PUSH1 0x40 MLOAD PUSH2 0x59C SWAP2 SWAP1 PUSH2 0x4578 JUMP JUMPDEST PUSH1 0x40 MLOAD DUP1 SWAP2 SUB SWAP1 RETURN JUMPDEST PUSH2 0x5BF PUSH1 0x4 DUP1 CALLDATASIZE SUB DUP2 ADD SWAP1 PUSH2 0x5BA SWAP2 SWAP1 PUSH2 0x4C7F JUMP JUMPDEST PUSH2 0x21E5 JUMP JUMPDEST STOP JUMPDEST PUSH2 0x5DB PUSH1 0x4 DUP1 CALLDATASIZE SUB DUP2 ADD SWAP1 PUSH2 0x5D6 SWAP2 SWAP1 PUSH2 0x4532 JUMP JUMPDEST PUSH2 0x233D JUMP JUMPDEST PUSH1 0x40 MLOAD PUSH2 0x5E8 SWAP2 SWAP1 PUSH2 0x4578 JUMP JUMPDEST PUSH1 0x40 MLOAD DUP1 SWAP2 SUB SWAP1 RETURN JUMPDEST PUSH2 0x60B PUSH1 0x4 DUP1 CALLDATASIZE SUB DUP2 ADD SWAP1 PUSH2 0x606 SWAP2 SWAP1 PUSH2 0x4532 JUMP JUMPDEST PUSH2 0x2415 JUMP JUMPDEST PUSH1 0x40 MLOAD PUSH2 0x618 SWAP2 SWAP1 PUSH2 0x4EE8 JUMP JUMPDEST PUSH1 0x40 MLOAD DUP1 SWAP2 SUB SWAP1 RETURN JUMPDEST PUSH2 0x63B PUSH1 0x4 DUP1 CALLDATASIZE SUB DUP2 ADD SWAP1 PUSH2 0x636 SWAP2 SWAP1 PUSH2 0x4532 JUMP JUMPDEST PUSH2 0x25E6 JUMP JUMPDEST STOP JUMPDEST PUSH2 0x645 PUSH2 0x261B JUMP JUMPDEST STOP JUMPDEST PUSH2 0x64F PUSH2 0x262F JUMP JUMPDEST PUSH1 0x40 MLOAD PUSH2 0x65C SWAP2 SWAP1 PUSH2 0x4BE8 JUMP JUMPDEST PUSH1 0x40 MLOAD DUP1 SWAP2 SUB SWAP1 RETURN JUMPDEST PUSH2 0x67F PUSH1 0x4 DUP1 CALLDATASIZE SUB DUP2 ADD SWAP1 PUSH2 0x67A SWAP2 SWAP1 PUSH2 0x4532 JUMP JUMPDEST PUSH2 0x2653 JUMP JUMPDEST PUSH1 0x40 MLOAD PUSH2 0x68C SWAP2 SWAP1 PUSH2 0x4578 JUMP JUMPDEST PUSH1 0x40 MLOAD DUP1 SWAP2 SUB SWAP1 RETURN JUMPDEST PUSH2 0x69D PUSH2 0x272B JUMP JUMPDEST STOP JUMPDEST PUSH2 0x6B9 PUSH1 0x4 DUP1 CALLDATASIZE SUB DUP2 ADD SWAP1 PUSH2 0x6B4 SWAP2 SWAP1 PUSH2 0x4532 JUMP JUMPDEST PUSH2 0x27F4 JUMP JUMPDEST PUSH1 0x40 MLOAD PUSH2 0x6C6 SWAP2 SWAP1 PUSH2 0x4F66 JUMP JUMPDEST PUSH1 0x40 MLOAD DUP1 SWAP2 SUB SWAP1 RETURN JUMPDEST PUSH2 0x6D7 PUSH2 0x290D JUMP JUMPDEST PUSH1 0x40 MLOAD PUSH2 0x6E4 SWAP2 SWAP1 PUSH2 0x4578 JUMP JUMPDEST PUSH1 0x40 MLOAD DUP1 SWAP2 SUB SWAP1 RETURN JUMPDEST PUSH2 0x6F5 PUSH2 0x2917 JUMP JUMPDEST PUSH1 0x40 MLOAD PUSH2 0x702 SWAP2 SWAP1 PUSH2 0x4F90 JUMP JUMPDEST PUSH1 0x40 MLOAD DUP1 SWAP2 SUB SWAP1 RETURN JUMPDEST PUSH2 0x725 PUSH1 0x4 DUP1 CALLDATASIZE SUB DUP2 ADD SWAP1 PUSH2 0x720 SWAP2 SWAP1 PUSH2 0x4C03 JUMP JUMPDEST PUSH2 0x2940 JUMP JUMPDEST PUSH1 0x40 MLOAD PUSH2 0x732 SWAP2 SWAP1 PUSH2 0x443F JUMP JUMPDEST PUSH1 0x40 MLOAD DUP1 SWAP2 SUB SWAP1 RETURN JUMPDEST PUSH2 0x755 PUSH1 0x4 DUP1 CALLDATASIZE SUB DUP2 ADD SWAP1 PUSH2 0x750 SWAP2 SWAP1 PUSH2 0x4532 JUMP JUMPDEST PUSH2 0x29AB JUMP JUMPDEST PUSH1 0x40 MLOAD PUSH2 0x762 SWAP2 SWAP1 PUSH2 0x4578 JUMP JUMPDEST PUSH1 0x40 MLOAD DUP1 SWAP2 SUB SWAP1 RETURN JUMPDEST PUSH2 0x785 PUSH1 0x4 DUP1 CALLDATASIZE SUB DUP2 ADD SWAP1 PUSH2 0x780 SWAP2 SWAP1 PUSH2 0x4FAB JUMP JUMPDEST PUSH2 0x2A83 JUMP JUMPDEST STOP JUMPDEST PUSH2 0x7A1 PUSH1 0x4 DUP1 CALLDATASIZE SUB DUP2 ADD SWAP1 PUSH2 0x79C SWAP2 SWAP1 PUSH2 0x4B49 JUMP JUMPDEST PUSH2 0x2BF1 JUMP JUMPDEST STOP JUMPDEST PUSH2 0x7AB PUSH2 0x2C2E JUMP JUMPDEST PUSH1 0x40 MLOAD PUSH2 0x7B8 SWAP2 SWAP1 PUSH2 0x4BE8 JUMP JUMPDEST PUSH1 0x40 MLOAD DUP1 SWAP2 SUB SWAP1 RETURN JUMPDEST PUSH2 0x7DB PUSH1 0x4 DUP1 CALLDATASIZE SUB DUP2 ADD SWAP1 PUSH2 0x7D6 SWAP2 SWAP1 PUSH2 0x4C7F JUMP JUMPDEST PUSH2 0x2C35 JUMP JUMPDEST STOP JUMPDEST PUSH2 0x7E5 PUSH2 0x2D8D JUMP JUMPDEST PUSH1 0x40 MLOAD PUSH2 0x7F2 SWAP2 SWAP1 PUSH2 0x4578 JUMP JUMPDEST PUSH1 0x40 MLOAD DUP1 SWAP2 SUB SWAP1 RETURN JUMPDEST PUSH2 0x815 PUSH1 0x4 DUP1 CALLDATASIZE SUB DUP2 ADD SWAP1 PUSH2 0x810 SWAP2 SWAP1 PUSH2 0x4C7F JUMP JUMPDEST PUSH2 0x2D93 JUMP JUMPDEST STOP JUMPDEST PUSH2 0x831 PUSH1 0x4 DUP1 CALLDATASIZE SUB DUP2 ADD SWAP1 PUSH2 0x82C SWAP2 SWAP1 PUSH2 0x4C7F JUMP JUMPDEST PUSH2 0x2FFB JUMP JUMPDEST STOP JUMPDEST PUSH2 0x84D PUSH1 0x4 DUP1 CALLDATASIZE SUB DUP2 ADD SWAP1 PUSH2 0x848 SWAP2 SWAP1 PUSH2 0x4C7F JUMP JUMPDEST PUSH2 0x3153 JUMP JUMPDEST STOP JUMPDEST PUSH2 0x869 PUSH1 0x4 DUP1 CALLDATASIZE SUB DUP2 ADD SWAP1 PUSH2 0x864 SWAP2 SWAP1 PUSH2 0x4532 JUMP JUMPDEST PUSH2 0x32B7 JUMP JUMPDEST PUSH1 0x40 MLOAD PUSH2 0x876 SWAP2 SWAP1 PUSH2 0x5060 JUMP JUMPDEST PUSH1 0x40 MLOAD DUP1 SWAP2 SUB SWAP1 RETURN JUMPDEST PUSH2 0x887 PUSH2 0x33D0 JUMP JUMPDEST PUSH1 0x40 MLOAD PUSH2 0x894 SWAP2 SWAP1 PUSH2 0x509D JUMP JUMPDEST PUSH1 0x40 MLOAD DUP1 SWAP2 SUB SWAP1 RETURN JUMPDEST PUSH2 0x8A5 PUSH2 0x33F6 JUMP JUMPDEST PUSH1 0x40 MLOAD PUSH2 0x8B2 SWAP2 SWAP1 PUSH2 0x4578 JUMP JUMPDEST PUSH1 0x40 MLOAD DUP1 SWAP2 SUB SWAP1 RETURN JUMPDEST PUSH2 0x8D5 PUSH1 0x4 DUP1 CALLDATASIZE SUB DUP2 ADD SWAP1 PUSH2 0x8D0 SWAP2 SWAP1 PUSH2 0x4C03 JUMP JUMPDEST PUSH2 0x33FC JUMP JUMPDEST STOP JUMPDEST PUSH2 0x8F1 PUSH1 0x4 DUP1 CALLDATASIZE SUB DUP2 ADD SWAP1 PUSH2 0x8EC SWAP2 SWAP1 PUSH2 0x4C7F JUMP JUMPDEST PUSH2 0x341D JUMP JUMPDEST STOP JUMPDEST PUSH2 0x8FB PUSH2 0x3575 JUMP JUMPDEST PUSH1 0x40 MLOAD PUSH2 0x908 SWAP2 SWAP1 PUSH2 0x4578 JUMP JUMPDEST PUSH1 0x40 MLOAD DUP1 SWAP2 SUB SWAP1 RETURN JUMPDEST PUSH2 0x92B PUSH1 0x4 DUP1 CALLDATASIZE SUB DUP2 ADD SWAP1 PUSH2 0x926 SWAP2 SWAP1 PUSH2 0x4B49 JUMP JUMPDEST PUSH2 0x357B JUMP JUMPDEST STOP JUMPDEST PUSH2 0x947 PUSH1 0x4 DUP1 CALLDATASIZE SUB DUP2 ADD SWAP1 PUSH2 0x942 SWAP2 SWAP1 PUSH2 0x50B8 JUMP JUMPDEST PUSH2 0x35B8 JUMP JUMPDEST STOP JUMPDEST PUSH2 0x963 PUSH1 0x4 DUP1 CALLDATASIZE SUB DUP2 ADD SWAP1 PUSH2 0x95E SWAP2 SWAP1 PUSH2 0x4C7F JUMP JUMPDEST PUSH2 0x3928 JUMP JUMPDEST STOP JUMPDEST PUSH2 0x96D PUSH2 0x39FC JUMP JUMPDEST PUSH1 0x40 MLOAD PUSH2 0x97A SWAP2 SWAP1 PUSH2 0x4578 JUMP JUMPDEST PUSH1 0x40 MLOAD DUP1 SWAP2 SUB SWAP1 RETURN JUMPDEST PUSH2 0x99D PUSH1 0x4 DUP1 CALLDATASIZE SUB DUP2 ADD SWAP1 PUSH2 0x998 SWAP2 SWAP1 PUSH2 0x4532 JUMP JUMPDEST PUSH2 0x3A06 JUMP JUMPDEST STOP JUMPDEST PUSH2 0x9B9 PUSH1 0x4 DUP1 CALLDATASIZE SUB DUP2 ADD SWAP1 PUSH2 0x9B4 SWAP2 SWAP1 PUSH2 0x4532 JUMP JUMPDEST PUSH2 0x3AEC JUMP JUMPDEST PUSH1 0x40 MLOAD PUSH2 0x9C6 SWAP2 SWAP1 PUSH2 0x4578 JUMP JUMPDEST PUSH1 0x40 MLOAD DUP1 SWAP2 SUB SWAP1 RETURN JUMPDEST PUSH1 0x0 PUSH32 0x7965DB0B00000000000000000000000000000000000000000000000000000000 PUSH28 0xFFFFFFFFFFFFFFFFFFFFFFFFFFFFFFFFFFFFFFFFFFFFFFFFFFFFFFFF NOT AND DUP3 PUSH28 0xFFFFFFFFFFFFFFFFFFFFFFFFFFFFFFFFFFFFFFFFFFFFFFFFFFFFFFFF NOT AND EQ DUP1 PUSH2 0xA42 JUMPI POP PUSH2 0xA41 DUP3 PUSH2 0x3BC4 JUMP JUMPDEST JUMPDEST SWAP1 POP SWAP2 SWAP1 POP JUMP JUMPDEST PUSH1 0x2 PUSH1 0x0 SWAP1 SLOAD SWAP1 PUSH2 0x100 EXP SWAP1 DIV PUSH20 0xFFFFFFFFFFFFFFFFFFFFFFFFFFFFFFFFFFFFFFFF AND DUP2 JUMP JUMPDEST PUSH2 0xA77 PUSH2 0x3C2E JUMP JUMPDEST PUSH2 0xAA1 PUSH32 0xA49807205CE4D355092EF5A8A18F56E8913CF4A201FBE287825B095693C21775 DUP3 PUSH2 0x33FC JUMP JUMPDEST POP JUMP JUMPDEST PUSH1 0x9 SLOAD DUP2 JUMP JUMPDEST PUSH2 0xAD4 PUSH32 0xA49807205CE4D355092EF5A8A18F56E8913CF4A201FBE287825B095693C21775 CALLER PUSH2 0x2940 JUMP JUMPDEST PUSH2 0xADD JUMPI PUSH1 0x0 DUP1 REVERT JUMPDEST DUP1 MLOAD DUP3 MLOAD EQ PUSH2 0xB21 JUMPI PUSH1 0x40 MLOAD PUSH32 0x8C379A000000000000000000000000000000000000000000000000000000000 DUP2 MSTORE PUSH1 0x4 ADD PUSH2 0xB18 SWAP1 PUSH2 0x5155 JUMP JUMPDEST PUSH1 0x40 MLOAD DUP1 SWAP2 SUB SWAP1 REVERT JUMPDEST PUSH1 0x0 JUMPDEST DUP3 MLOAD DUP2 LT ISZERO PUSH2 0x11EE JUMPI PUSH1 0xB PUSH1 0x0 DUP4 DUP4 DUP2 MLOAD DUP2 LT PUSH2 0xB44 JUMPI PUSH2 0xB43 PUSH2 0x5175 JUMP JUMPDEST JUMPDEST PUSH1 0x20 MUL PUSH1 0x20 ADD ADD MLOAD PUSH20 0xFFFFFFFFFFFFFFFFFFFFFFFFFFFFFFFFFFFFFFFF AND PUSH20 0xFFFFFFFFFFFFFFFFFFFFFFFFFFFFFFFFFFFFFFFF AND DUP2 MSTORE PUSH1 0x20 ADD SWAP1 DUP2 MSTORE PUSH1 0x20 ADD PUSH1 0x0 KECCAK256 PUSH1 0x0 SWAP1 SLOAD SWAP1 PUSH2 0x100 EXP SWAP1 DIV PUSH1 0xFF AND PUSH2 0xBD3 JUMPI PUSH1 0x40 MLOAD PUSH32 0x8C379A000000000000000000000000000000000000000000000000000000000 DUP2 MSTORE PUSH1 0x4 ADD PUSH2 0xBCA SWAP1 PUSH2 0x51F0 JUMP JUMPDEST PUSH1 0x40 MLOAD DUP1 SWAP2 SUB SWAP1 REVERT JUMPDEST DUP3 DUP2 DUP2 MLOAD DUP2 LT PUSH2 0xBE6 JUMPI PUSH2 0xBE5 PUSH2 0x5175 JUMP JUMPDEST JUMPDEST PUSH1 0x20 MUL PUSH1 0x20 ADD ADD MLOAD PUSH1 0x0 ADD MLOAD PUSH1 0xA PUSH1 0x0 DUP5 DUP5 DUP2 MLOAD DUP2 LT PUSH2 0xC09 JUMPI PUSH2 0xC08 PUSH2 0x5175 JUMP JUMPDEST JUMPDEST PUSH1 0x20 MUL PUSH1 0x20 ADD ADD MLOAD PUSH20 0xFFFFFFFFFFFFFFFFFFFFFFFFFFFFFFFFFFFFFFFF AND PUSH20 0xFFFFFFFFFFFFFFFFFFFFFFFFFFFFFFFFFFFFFFFF AND DUP2 MSTORE PUSH1 0x20 ADD SWAP1 DUP2 MSTORE PUSH1 0x20 ADD PUSH1 0x0 KECCAK256 PUSH1 0x0 ADD DUP2 SWAP1 SSTORE POP DUP3 DUP2 DUP2 MLOAD DUP2 LT PUSH2 0xC65 JUMPI PUSH2 0xC64 PUSH2 0x5175 JUMP JUMPDEST JUMPDEST PUSH1 0x20 MUL PUSH1 0x20 ADD ADD MLOAD PUSH1 0x20 ADD MLOAD PUSH1 0xA PUSH1 0x0 DUP5 DUP5 DUP2 MLOAD DUP2 LT PUSH2 0xC88 JUMPI PUSH2 0xC87 PUSH2 0x5175 JUMP JUMPDEST JUMPDEST PUSH1 0x20 MUL PUSH1 0x20 ADD ADD MLOAD PUSH20 0xFFFFFFFFFFFFFFFFFFFFFFFFFFFFFFFFFFFFFFFF AND PUSH20 0xFFFFFFFFFFFFFFFFFFFFFFFFFFFFFFFFFFFFFFFF AND DUP2 MSTORE PUSH1 0x20 ADD SWAP1 DUP2 MSTORE PUSH1 0x20 ADD PUSH1 0x0 KECCAK256 PUSH1 0x1 ADD DUP2 SWAP1 SSTORE POP DUP3 DUP2 DUP2 MLOAD DUP2 LT PUSH2 0xCE4 JUMPI PUSH2 0xCE3 PUSH2 0x5175 JUMP JUMPDEST JUMPDEST PUSH1 0x20 MUL PUSH1 0x20 ADD ADD MLOAD PUSH1 0x40 ADD MLOAD PUSH1 0xA PUSH1 0x0 DUP5 DUP5 DUP2 MLOAD DUP2 LT PUSH2 0xD07 JUMPI PUSH2 0xD06 PUSH2 0x5175 JUMP JUMPDEST JUMPDEST PUSH1 0x20 MUL PUSH1 0x20 ADD ADD MLOAD PUSH20 0xFFFFFFFFFFFFFFFFFFFFFFFFFFFFFFFFFFFFFFFF AND PUSH20 0xFFFFFFFFFFFFFFFFFFFFFFFFFFFFFFFFFFFFFFFF AND DUP2 MSTORE PUSH1 0x20 ADD SWAP1 DUP2 MSTORE PUSH1 0x20 ADD PUSH1 0x0 KECCAK256 PUSH1 0x2 ADD DUP2 SWAP1 SSTORE POP DUP3 DUP2 DUP2 MLOAD DUP2 LT PUSH2 0xD63 JUMPI PUSH2 0xD62 PUSH2 0x5175 JUMP JUMPDEST JUMPDEST PUSH1 0x20 MUL PUSH1 0x20 ADD ADD MLOAD PUSH1 0x60 ADD MLOAD PUSH1 0xA PUSH1 0x0 DUP5 DUP5 DUP2 MLOAD DUP2 LT PUSH2 0xD86 JUMPI PUSH2 0xD85 PUSH2 0x5175 JUMP JUMPDEST JUMPDEST PUSH1 0x20 MUL PUSH1 0x20 ADD ADD MLOAD PUSH20 0xFFFFFFFFFFFFFFFFFFFFFFFFFFFFFFFFFFFFFFFF AND PUSH20 0xFFFFFFFFFFFFFFFFFFFFFFFFFFFFFFFFFFFFFFFF AND DUP2 MSTORE PUSH1 0x20 ADD SWAP1 DUP2 MSTORE PUSH1 0x20 ADD PUSH1 0x0 KECCAK256 PUSH1 0x3 ADD SWAP1 PUSH1 0x5 PUSH2 0xDD9 SWAP3 SWAP2 SWAP1 PUSH2 0x423C JUMP JUMPDEST POP DUP3 DUP2 DUP2 MLOAD DUP2 LT PUSH2 0xDED JUMPI PUSH2 0xDEC PUSH2 0x5175 JUMP JUMPDEST JUMPDEST PUSH1 0x20 MUL PUSH1 0x20 ADD ADD MLOAD PUSH1 0x80 ADD MLOAD PUSH1 0xA PUSH1 0x0 DUP5 DUP5 DUP2 MLOAD DUP2 LT PUSH2 0xE10 JUMPI PUSH2 0xE0F PUSH2 0x5175 JUMP JUMPDEST JUMPDEST PUSH1 0x20 MUL PUSH1 0x20 ADD ADD MLOAD PUSH20 0xFFFFFFFFFFFFFFFFFFFFFFFFFFFFFFFFFFFFFFFF AND PUSH20 0xFFFFFFFFFFFFFFFFFFFFFFFFFFFFFFFFFFFFFFFF AND DUP2 MSTORE PUSH1 0x20 ADD SWAP1 DUP2 MSTORE PUSH1 0x20 ADD PUSH1 0x0 KECCAK256 PUSH1 0x8 ADD DUP2 SWAP1 SSTORE POP DUP3 DUP2 DUP2 MLOAD DUP2 LT PUSH2 0xE6C JUMPI PUSH2 0xE6B PUSH2 0x5175 JUMP JUMPDEST JUMPDEST PUSH1 0x20 MUL PUSH1 0x20 ADD ADD MLOAD PUSH1 0xA0 ADD MLOAD PUSH1 0xA PUSH1 0x0 DUP5 DUP5 DUP2 MLOAD DUP2 LT PUSH2 0xE8F JUMPI PUSH2 0xE8E PUSH2 0x5175 JUMP JUMPDEST JUMPDEST PUSH1 0x20 MUL PUSH1 0x20 ADD ADD MLOAD PUSH20 0xFFFFFFFFFFFFFFFFFFFFFFFFFFFFFFFFFFFFFFFF AND PUSH20 0xFFFFFFFFFFFFFFFFFFFFFFFFFFFFFFFFFFFFFFFF AND DUP2 MSTORE PUSH1 0x20 ADD SWAP1 DUP2 MSTORE PUSH1 0x20 ADD PUSH1 0x0 KECCAK256 PUSH1 0x9 ADD DUP2 SWAP1 SSTORE POP DUP3 DUP2 DUP2 MLOAD DUP2 LT PUSH2 0xEEB JUMPI PUSH2 0xEEA PUSH2 0x5175 JUMP JUMPDEST JUMPDEST PUSH1 0x20 MUL PUSH1 0x20 ADD ADD MLOAD PUSH1 0xC0 ADD MLOAD PUSH1 0xA PUSH1 0x0 DUP5 DUP5 DUP2 MLOAD DUP2 LT PUSH2 0xF0E JUMPI PUSH2 0xF0D PUSH2 0x5175 JUMP JUMPDEST JUMPDEST PUSH1 0x20 MUL PUSH1 0x20 ADD ADD MLOAD PUSH20 0xFFFFFFFFFFFFFFFFFFFFFFFFFFFFFFFFFFFFFFFF AND PUSH20 0xFFFFFFFFFFFFFFFFFFFFFFFFFFFFFFFFFFFFFFFF AND DUP2 MSTORE PUSH1 0x20 ADD SWAP1 DUP2 MSTORE PUSH1 0x20 ADD PUSH1 0x0 KECCAK256 PUSH1 0xA ADD DUP2 SWAP1 SSTORE POP DUP3 DUP2 DUP2 MLOAD DUP2 LT PUSH2 0xF6A JUMPI PUSH2 0xF69 PUSH2 0x5175 JUMP JUMPDEST JUMPDEST PUSH1 0x20 MUL PUSH1 0x20 ADD ADD MLOAD PUSH1 0xE0 ADD MLOAD PUSH1 0xA PUSH1 0x0 DUP5 DUP5 DUP2 MLOAD DUP2 LT PUSH2 0xF8D JUMPI PUSH2 0xF8C PUSH2 0x5175 JUMP JUMPDEST JUMPDEST PUSH1 0x20 MUL PUSH1 0x20 ADD ADD MLOAD PUSH20 0xFFFFFFFFFFFFFFFFFFFFFFFFFFFFFFFFFFFFFFFF AND PUSH20 0xFFFFFFFFFFFFFFFFFFFFFFFFFFFFFFFFFFFFFFFF AND DUP2 MSTORE PUSH1 0x20 ADD SWAP1 DUP2 MSTORE PUSH1 0x20 ADD PUSH1 0x0 KECCAK256 PUSH1 0xB ADD DUP2 SWAP1 SSTORE POP DUP3 DUP2 DUP2 MLOAD DUP2 LT PUSH2 0xFE9 JUMPI PUSH2 0xFE8 PUSH2 0x5175 JUMP JUMPDEST JUMPDEST PUSH1 0x20 MUL PUSH1 0x20 ADD ADD MLOAD PUSH2 0x100 ADD MLOAD PUSH1 0xA PUSH1 0x0 DUP5 DUP5 DUP2 MLOAD DUP2 LT PUSH2 0x100D JUMPI PUSH2 0x100C PUSH2 0x5175 JUMP JUMPDEST JUMPDEST PUSH1 0x20 MUL PUSH1 0x20 ADD ADD MLOAD PUSH20 0xFFFFFFFFFFFFFFFFFFFFFFFFFFFFFFFFFFFFFFFF AND PUSH20 0xFFFFFFFFFFFFFFFFFFFFFFFFFFFFFFFFFFFFFFFF AND DUP2 MSTORE PUSH1 0x20 ADD SWAP1 DUP2 MSTORE PUSH1 0x20 ADD PUSH1 0x0 KECCAK256 PUSH1 0xC ADD DUP2 SWAP1 SSTORE POP DUP3 DUP2 DUP2 MLOAD DUP2 LT PUSH2 0x1069 JUMPI PUSH2 0x1068 PUSH2 0x5175 JUMP JUMPDEST JUMPDEST PUSH1 0x20 MUL PUSH1 0x20 ADD ADD MLOAD PUSH2 0x120 ADD MLOAD PUSH1 0xA PUSH1 0x0 DUP5 DUP5 DUP2 MLOAD DUP2 LT PUSH2 0x108D JUMPI PUSH2 0x108C PUSH2 0x5175 JUMP JUMPDEST JUMPDEST PUSH1 0x20 MUL PUSH1 0x20 ADD ADD MLOAD PUSH20 0xFFFFFFFFFFFFFFFFFFFFFFFFFFFFFFFFFFFFFFFF AND PUSH20 0xFFFFFFFFFFFFFFFFFFFFFFFFFFFFFFFFFFFFFFFF AND DUP2 MSTORE PUSH1 0x20 ADD SWAP1 DUP2 MSTORE PUSH1 0x20 ADD PUSH1 0x0 KECCAK256 PUSH1 0xD ADD SWAP1 PUSH1 0xA PUSH2 0x10E0 SWAP3 SWAP2 SWAP1 PUSH2 0x427C JUMP JUMPDEST POP DUP3 DUP2 DUP2 MLOAD DUP2 LT PUSH2 0x10F4 JUMPI PUSH2 0x10F3 PUSH2 0x5175 JUMP JUMPDEST JUMPDEST PUSH1 0x20 MUL PUSH1 0x20 ADD ADD MLOAD PUSH2 0x140 ADD MLOAD PUSH1 0xA PUSH1 0x0 DUP5 DUP5 DUP2 MLOAD DUP2 LT PUSH2 0x1118 JUMPI PUSH2 0x1117 PUSH2 0x5175 JUMP JUMPDEST JUMPDEST PUSH1 0x20 MUL PUSH1 0x20 ADD ADD MLOAD PUSH20 0xFFFFFFFFFFFFFFFFFFFFFFFFFFFFFFFFFFFFFFFF AND PUSH20 0xFFFFFFFFFFFFFFFFFFFFFFFFFFFFFFFFFFFFFFFF AND DUP2 MSTORE PUSH1 0x20 ADD SWAP1 DUP2 MSTORE PUSH1 0x20 ADD PUSH1 0x0 KECCAK256 PUSH1 0x17 ADD DUP2 SWAP1 SSTORE POP DUP3 DUP2 DUP2 MLOAD DUP2 LT PUSH2 0x1174 JUMPI PUSH2 0x1173 PUSH2 0x5175 JUMP JUMPDEST JUMPDEST PUSH1 0x20 MUL PUSH1 0x20 ADD ADD MLOAD PUSH2 0x160 ADD MLOAD PUSH1 0xA PUSH1 0x0 DUP5 DUP5 DUP2 MLOAD DUP2 LT PUSH2 0x1198 JUMPI PUSH2 0x1197 PUSH2 0x5175 JUMP JUMPDEST JUMPDEST PUSH1 0x20 MUL PUSH1 0x20 ADD ADD MLOAD PUSH20 0xFFFFFFFFFFFFFFFFFFFFFFFFFFFFFFFFFFFFFFFF AND PUSH20 0xFFFFFFFFFFFFFFFFFFFFFFFFFFFFFFFFFFFFFFFF AND DUP2 MSTORE PUSH1 0x20 ADD SWAP1 DUP2 MSTORE PUSH1 0x20 ADD PUSH1 0x0 KECCAK256 PUSH1 0x18 ADD DUP2 SWAP1 SSTORE POP DUP1 DUP1 PUSH1 0x1 ADD SWAP2 POP POP PUSH2 0xB24 JUMP JUMPDEST POP DUP1 PUSH1 0x40 MLOAD PUSH2 0x11FD SWAP2 SWAP1 PUSH2 0x52C8 JUMP JUMPDEST PUSH1 0x40 MLOAD DUP1 SWAP2 SUB SWAP1 KECCAK256 DUP3 PUSH1 0x40 MLOAD PUSH2 0x1213 SWAP2 SWAP1 PUSH2 0x558A JUMP JUMPDEST PUSH1 0x40 MLOAD DUP1 SWAP2 SUB SWAP1 KECCAK256 PUSH32 0xC91FDB6201EB89B7A1B567D23D3C59BBFD7F7D942AA9E8AD346319D17F0B9108 PUSH1 0x40 MLOAD PUSH1 0x40 MLOAD DUP1 SWAP2 SUB SWAP1 LOG3 POP POP JUMP JUMPDEST PUSH2 0x1275 PUSH32 0xA49807205CE4D355092EF5A8A18F56E8913CF4A201FBE287825B095693C21775 CALLER PUSH2 0x2940 JUMP JUMPDEST PUSH2 0x127E JUMPI PUSH1 0x0 DUP1 REVERT JUMPDEST DUP4 PUSH1 0x6 DUP2 SWAP1 SSTORE POP DUP3 PUSH1 0x7 DUP2 SWAP1 SSTORE POP DUP2 PUSH1 0x8 DUP2 SWAP1 SSTORE POP DUP1 PUSH1 0x9 DUP2 SWAP1 SSTORE POP PUSH1 0x9 SLOAD PUSH1 0x7 SLOAD PUSH1 0x6 SLOAD PUSH32 0xFB7230B722712FA11B563A061381502FA2E6F8F6432C8AF6EC3B309C26E74CB6 PUSH1 0x40 MLOAD PUSH1 0x40 MLOAD DUP1 SWAP2 SUB SWAP1 LOG4 POP POP POP POP JUMP JUMPDEST PUSH1 0xB PUSH1 0x0 CALLER PUSH20 0xFFFFFFFFFFFFFFFFFFFFFFFFFFFFFFFFFFFFFFFF AND PUSH20 0xFFFFFFFFFFFFFFFFFFFFFFFFFFFFFFFFFFFFFFFF AND DUP2 MSTORE PUSH1 0x20 ADD SWAP1 DUP2 MSTORE PUSH1 0x20 ADD PUSH1 0x0 KECCAK256 PUSH1 0x0 SWAP1 SLOAD SWAP1 PUSH2 0x100 EXP SWAP1 DIV PUSH1 0xFF AND PUSH2 0x1361 JUMPI PUSH1 0x40 MLOAD PUSH32 0x8C379A000000000000000000000000000000000000000000000000000000000 DUP2 MSTORE PUSH1 0x4 ADD PUSH2 0x1358 SWAP1 PUSH2 0x51F0 JUMP JUMPDEST PUSH1 0x40 MLOAD DUP1 SWAP2 SUB SWAP1 REVERT JUMPDEST PUSH1 0x7 SLOAD DUP2 PUSH1 0xA PUSH1 0x0 CALLER PUSH20 0xFFFFFFFFFFFFFFFFFFFFFFFFFFFFFFFFFFFFFFFF AND PUSH20 0xFFFFFFFFFFFFFFFFFFFFFFFFFFFFFFFFFFFFFFFF AND DUP2 MSTORE PUSH1 0x20 ADD SWAP1 DUP2 MSTORE PUSH1 0x20 ADD PUSH1 0x0 KECCAK256 PUSH1 0xC ADD SLOAD PUSH2 0x13B2 SWAP2 SWAP1 PUSH2 0x55D0 JUMP JUMPDEST GT ISZERO PUSH2 0x13F3 JUMPI PUSH1 0x40 MLOAD PUSH32 0x8C379A000000000000000000000000000000000000000000000000000000000 DUP2 MSTORE PUSH1 0x4 ADD PUSH2 0x13EA SWAP1 PUSH2 0x5650 JUMP JUMPDEST PUSH1 0x40 MLOAD DUP1 SWAP2 SUB SWAP1 REVERT JUMPDEST PUSH1 0x0 PUSH1 0x9 SLOAD DUP3 PUSH2 0x1403 SWAP2 SWAP1 PUSH2 0x5670 JUMP JUMPDEST SWAP1 POP DUP1 PUSH1 0x2 PUSH1 0x0 SWAP1 SLOAD SWAP1 PUSH2 0x100 EXP SWAP1 DIV PUSH20 0xFFFFFFFFFFFFFFFFFFFFFFFFFFFFFFFFFFFFFFFF AND PUSH20 0xFFFFFFFFFFFFFFFFFFFFFFFFFFFFFFFFFFFFFFFF AND PUSH4 0x70A08231 CALLER PUSH1 0x40 MLOAD DUP3 PUSH4 0xFFFFFFFF AND PUSH1 0xE0 SHL DUP2 MSTORE PUSH1 0x4 ADD PUSH2 0x1461 SWAP2 SWAP1 PUSH2 0x4F90 JUMP JUMPDEST PUSH1 0x20 PUSH1 0x40 MLOAD DUP1 DUP4 SUB DUP2 DUP7 GAS STATICCALL ISZERO DUP1 ISZERO PUSH2 0x147E JUMPI RETURNDATASIZE PUSH1 0x0 DUP1 RETURNDATACOPY RETURNDATASIZE PUSH1 0x0 REVERT JUMPDEST POP POP POP POP PUSH1 0x40 MLOAD RETURNDATASIZE PUSH1 0x1F NOT PUSH1 0x1F DUP3 ADD AND DUP3 ADD DUP1 PUSH1 0x40 MSTORE POP DUP2 ADD SWAP1 PUSH2 0x14A2 SWAP2 SWAP1 PUSH2 0x56C7 JUMP JUMPDEST LT ISZERO PUSH2 0x14E3 JUMPI PUSH1 0x40 MLOAD PUSH32 0x8C379A000000000000000000000000000000000000000000000000000000000 DUP2 MSTORE PUSH1 0x4 ADD PUSH2 0x14DA SWAP1 PUSH2 0x5740 JUMP JUMPDEST PUSH1 0x40 MLOAD DUP1 SWAP2 SUB SWAP1 REVERT JUMPDEST PUSH1 0x2 PUSH1 0x0 SWAP1 SLOAD SWAP1 PUSH2 0x100 EXP SWAP1 DIV PUSH20 0xFFFFFFFFFFFFFFFFFFFFFFFFFFFFFFFFFFFFFFFF AND PUSH20 0xFFFFFFFFFFFFFFFFFFFFFFFFFFFFFFFFFFFFFFFF AND PUSH4 0x42966C68 DUP4 PUSH1 0x40 MLOAD DUP3 PUSH4 0xFFFFFFFF AND PUSH1 0xE0 SHL DUP2 MSTORE PUSH1 0x4 ADD PUSH2 0x153E SWAP2 SWAP1 PUSH2 0x4578 JUMP JUMPDEST PUSH1 0x0 PUSH1 0x40 MLOAD DUP1 DUP4 SUB DUP2 PUSH1 0x0 DUP8 DUP1 EXTCODESIZE ISZERO DUP1 ISZERO PUSH2 0x1558 JUMPI PUSH1 0x0 DUP1 REVERT JUMPDEST POP GAS CALL ISZERO DUP1 ISZERO PUSH2 0x156C JUMPI RETURNDATASIZE PUSH1 0x0 DUP1 RETURNDATACOPY RETURNDATASIZE PUSH1 0x0 REVERT JUMPDEST POP POP POP POP DUP2 PUSH1 0xA PUSH1 0x0 CALLER PUSH20 0xFFFFFFFFFFFFFFFFFFFFFFFFFFFFFFFFFFFFFFFF AND PUSH20 0xFFFFFFFFFFFFFFFFFFFFFFFFFFFFFFFFFFFFFFFF AND DUP2 MSTORE PUSH1 0x20 ADD SWAP1 DUP2 MSTORE PUSH1 0x20 ADD PUSH1 0x0 KECCAK256 PUSH1 0xC ADD PUSH1 0x0 DUP3 DUP3 SLOAD PUSH2 0x15C2 SWAP2 SWAP1 PUSH2 0x55D0 JUMP JUMPDEST SWAP3 POP POP DUP2 SWAP1 SSTORE POP CALLER PUSH20 0xFFFFFFFFFFFFFFFFFFFFFFFFFFFFFFFFFFFFFFFF AND PUSH32 0x61DE7C9C9FEF84BF815AD3B2D17A9AF3D0655AF7A1C9423E5D2DEE99EC5C6FFC PUSH1 0xA PUSH1 0x0 CALLER PUSH20 0xFFFFFFFFFFFFFFFFFFFFFFFFFFFFFFFFFFFFFFFF AND PUSH20 0xFFFFFFFFFFFFFFFFFFFFFFFFFFFFFFFFFFFFFFFF AND DUP2 MSTORE PUSH1 0x20 ADD SWAP1 DUP2 MSTORE PUSH1 0x20 ADD PUSH1 0x0 KECCAK256 PUSH1 0xC ADD SLOAD PUSH1 0x40 MLOAD PUSH2 0x1651 SWAP2 SWAP1 PUSH2 0x4578 JUMP JUMPDEST PUSH1 0x40 MLOAD DUP1 SWAP2 SUB SWAP1 LOG2 POP POP JUMP JUMPDEST PUSH1 0x0 PUSH1 0x1 PUSH1 0x0 DUP4 DUP2 MSTORE PUSH1 0x20 ADD SWAP1 DUP2 MSTORE PUSH1 0x20 ADD PUSH1 0x0 KECCAK256 PUSH1 0x1 ADD SLOAD SWAP1 POP SWAP2 SWAP1 POP JUMP JUMPDEST PUSH2 0x1686 DUP3 PUSH2 0x165D JUMP JUMPDEST PUSH2 0x168F DUP2 PUSH2 0x3CAC JUMP JUMPDEST PUSH2 0x1699 DUP4 DUP4 PUSH2 0x3CC0 JUMP JUMPDEST POP POP POP JUMP JUMPDEST PUSH1 0x0 PUSH1 0xB PUSH1 0x0 DUP4 PUSH20 0xFFFFFFFFFFFFFFFFFFFFFFFFFFFFFFFFFFFFFFFF AND PUSH20 0xFFFFFFFFFFFFFFFFFFFFFFFFFFFFFFFFFFFFFFFF AND DUP2 MSTORE PUSH1 0x20 ADD SWAP1 DUP2 MSTORE PUSH1 0x20 ADD PUSH1 0x0 KECCAK256 PUSH1 0x0 SWAP1 SLOAD SWAP1 PUSH2 0x100 EXP SWAP1 DIV PUSH1 0xFF AND PUSH2 0x172C JUMPI PUSH1 0x40 MLOAD PUSH32 0x8C379A000000000000000000000000000000000000000000000000000000000 DUP2 MSTORE PUSH1 0x4 ADD PUSH2 0x1723 SWAP1 PUSH2 0x51F0 JUMP JUMPDEST PUSH1 0x40 MLOAD DUP1 SWAP2 SUB SWAP1 REVERT JUMPDEST PUSH1 0xA PUSH1 0x0 DUP4 PUSH20 0xFFFFFFFFFFFFFFFFFFFFFFFFFFFFFFFFFFFFFFFF AND PUSH20 0xFFFFFFFFFFFFFFFFFFFFFFFFFFFFFFFFFFFFFFFF AND DUP2 MSTORE PUSH1 0x20 ADD SWAP1 DUP2 MSTORE PUSH1 0x20 ADD PUSH1 0x0 KECCAK256 PUSH1 0x9 ADD SLOAD SWAP1 POP SWAP2 SWAP1 POP JUMP JUMPDEST PUSH1 0x0 PUSH1 0xB PUSH1 0x0 DUP4 PUSH20 0xFFFFFFFFFFFFFFFFFFFFFFFFFFFFFFFFFFFFFFFF AND PUSH20 0xFFFFFFFFFFFFFFFFFFFFFFFFFFFFFFFFFFFFFFFF AND DUP2 MSTORE PUSH1 0x20 ADD SWAP1 DUP2 MSTORE PUSH1 0x20 ADD PUSH1 0x0 KECCAK256 PUSH1 0x0 SWAP1 SLOAD SWAP1 PUSH2 0x100 EXP SWAP1 DIV PUSH1 0xFF AND PUSH2 0x1804 JUMPI PUSH1 0x40 MLOAD PUSH32 0x8C379A000000000000000000000000000000000000000000000000000000000 DUP2 MSTORE PUSH1 0x4 ADD PUSH2 0x17FB SWAP1 PUSH2 0x51F0 JUMP JUMPDEST PUSH1 0x40 MLOAD DUP1 SWAP2 SUB SWAP1 REVERT JUMPDEST PUSH1 0xA PUSH1 0x0 DUP4 PUSH20 0xFFFFFFFFFFFFFFFFFFFFFFFFFFFFFFFFFFFFFFFF AND PUSH20 0xFFFFFFFFFFFFFFFFFFFFFFFFFFFFFFFFFFFFFFFF AND DUP2 MSTORE PUSH1 0x20 ADD SWAP1 DUP2 MSTORE PUSH1 0x20 ADD PUSH1 0x0 KECCAK256 PUSH1 0x2 ADD SLOAD SWAP1 POP SWAP2 SWAP1 POP JUMP JUMPDEST PUSH2 0x1856 PUSH2 0x3DA0 JUMP JUMPDEST PUSH20 0xFFFFFFFFFFFFFFFFFFFFFFFFFFFFFFFFFFFFFFFF AND DUP2 PUSH20 0xFFFFFFFFFFFFFFFFFFFFFFFFFFFFFFFFFFFFFFFF AND EQ PUSH2 0x18C3 JUMPI PUSH1 0x40 MLOAD PUSH32 0x8C379A000000000000000000000000000000000000000000000000000000000 DUP2 MSTORE PUSH1 0x4 ADD PUSH2 0x18BA SWAP1 PUSH2 0x57D2 JUMP JUMPDEST PUSH1 0x40 MLOAD DUP1 SWAP2 SUB SWAP1 REVERT JUMPDEST PUSH2 0x18CD DUP3 DUP3 PUSH2 0x3DA8 JUMP JUMPDEST POP POP JUMP JUMPDEST PUSH2 0x18FB PUSH32 0xA49807205CE4D355092EF5A8A18F56E8913CF4A201FBE287825B095693C21775 CALLER PUSH2 0x2940 JUMP JUMPDEST PUSH2 0x1904 JUMPI PUSH1 0x0 DUP1 REVERT JUMPDEST PUSH1 0xB PUSH1 0x0 DUP3 PUSH20 0xFFFFFFFFFFFFFFFFFFFFFFFFFFFFFFFFFFFFFFFF AND PUSH20 0xFFFFFFFFFFFFFFFFFFFFFFFFFFFFFFFFFFFFFFFF AND DUP2 MSTORE PUSH1 0x20 ADD SWAP1 DUP2 MSTORE PUSH1 0x20 ADD PUSH1 0x0 KECCAK256 PUSH1 0x0 SWAP1 SLOAD SWAP1 PUSH2 0x100 EXP SWAP1 DIV PUSH1 0xFF AND ISZERO PUSH2 0x195B JUMPI PUSH1 0x0 DUP1 REVERT JUMPDEST PUSH1 0x40 MLOAD DUP1 PUSH2 0x180 ADD PUSH1 0x40 MSTORE DUP1 PUSH1 0xA DUP2 MSTORE PUSH1 0x20 ADD PUSH1 0x0 DUP2 MSTORE PUSH1 0x20 ADD PUSH1 0x1 DUP2 MSTORE PUSH1 0x20 ADD PUSH1 0x40 MLOAD DUP1 PUSH1 0xA0 ADD PUSH1 0x40 MSTORE DUP1 PUSH2 0x3E9 DUP2 MSTORE PUSH1 0x20 ADD PUSH1 0x0 DUP2 MSTORE PUSH1 0x20 ADD PUSH1 0x0 DUP2 MSTORE PUSH1 0x20 ADD PUSH1 0x0 DUP2 MSTORE PUSH1 0x20 ADD PUSH1 0x0 DUP2 MSTORE POP DUP2 MSTORE PUSH1 0x20 ADD PUSH1 0x0 DUP2 MSTORE PUSH1 0x20 ADD PUSH1 0x1 DUP2 MSTORE PUSH1 0x20 ADD PUSH1 0x0 DUP2 MSTORE PUSH1 0x20 ADD PUSH1 0x0 DUP2 MSTORE PUSH1 0x20 ADD PUSH1 0x1E DUP2 MSTORE PUSH1 0x20 ADD PUSH1 0x40 MLOAD DUP1 PUSH2 0x140 ADD PUSH1 0x40 MSTORE DUP1 PUSH1 0x0 DUP2 MSTORE PUSH1 0x20 ADD PUSH1 0x0 DUP2 MSTORE PUSH1 0x20 ADD PUSH1 0x0 DUP2 MSTORE PUSH1 0x20 ADD PUSH1 0x0 DUP2 MSTORE PUSH1 0x20 ADD PUSH1 0x0 DUP2 MSTORE PUSH1 0x20 ADD PUSH1 0x0 DUP2 MSTORE PUSH1 0x20 ADD PUSH1 0x0 DUP2 MSTORE PUSH1 0x20 ADD PUSH1 0x0 DUP2 MSTORE PUSH1 0x20 ADD PUSH1 0x0 DUP2 MSTORE PUSH1 0x20 ADD PUSH1 0x0 DUP2 MSTORE POP DUP2 MSTORE PUSH1 0x20 ADD PUSH32 0xFFFFFFFFFFFFFFFFFFFFFFFFFFFFFFFFFFFFFFFFFFFFFFFFFFFFFFFFFFFFFFFF DUP2 MSTORE PUSH1 0x20 ADD PUSH32 0xFFFFFFFFFFFFFFFFFFFFFFFFFFFFFFFFFFFFFFFFFFFFFFFFFFFFFFFFFFFFFFFF DUP2 MSTORE POP PUSH1 0xA PUSH1 0x0 DUP4 PUSH20 0xFFFFFFFFFFFFFFFFFFFFFFFFFFFFFFFFFFFFFFFF AND PUSH20 0xFFFFFFFFFFFFFFFFFFFFFFFFFFFFFFFFFFFFFFFF AND DUP2 MSTORE PUSH1 0x20 ADD SWAP1 DUP2 MSTORE PUSH1 0x20 ADD PUSH1 0x0 KECCAK256 PUSH1 0x0 DUP3 ADD MLOAD DUP2 PUSH1 0x0 ADD SSTORE PUSH1 0x20 DUP3 ADD MLOAD DUP2 PUSH1 0x1 ADD SSTORE PUSH1 0x40 DUP3 ADD MLOAD DUP2 PUSH1 0x2 ADD SSTORE PUSH1 0x60 DUP3 ADD MLOAD DUP2 PUSH1 0x3 ADD SWAP1 PUSH1 0x5 PUSH2 0x1AE4 SWAP3 SWAP2 SWAP1 PUSH2 0x423C JUMP JUMPDEST POP PUSH1 0x80 DUP3 ADD MLOAD DUP2 PUSH1 0x8 ADD SSTORE PUSH1 0xA0 DUP3 ADD MLOAD DUP2 PUSH1 0x9 ADD SSTORE PUSH1 0xC0 DUP3 ADD MLOAD DUP2 PUSH1 0xA ADD SSTORE PUSH1 0xE0 DUP3 ADD MLOAD DUP2 PUSH1 0xB ADD SSTORE PUSH2 0x100 DUP3 ADD MLOAD DUP2 PUSH1 0xC ADD SSTORE PUSH2 0x120 DUP3 ADD MLOAD DUP2 PUSH1 0xD ADD SWAP1 PUSH1 0xA PUSH2 0x1B30 SWAP3 SWAP2 SWAP1 PUSH2 0x427C JUMP JUMPDEST POP PUSH2 0x140 DUP3 ADD MLOAD DUP2 PUSH1 0x17 ADD SSTORE PUSH2 0x160 DUP3 ADD MLOAD DUP2 PUSH1 0x18 ADD SSTORE SWAP1 POP POP PUSH1 0x1 PUSH1 0xB PUSH1 0x0 DUP4 PUSH20 0xFFFFFFFFFFFFFFFFFFFFFFFFFFFFFFFFFFFFFFFF AND PUSH20 0xFFFFFFFFFFFFFFFFFFFFFFFFFFFFFFFFFFFFFFFF AND DUP2 MSTORE PUSH1 0x20 ADD SWAP1 DUP2 MSTORE PUSH1 0x20 ADD PUSH1 0x0 KECCAK256 PUSH1 0x0 PUSH2 0x100 EXP DUP2 SLOAD DUP2 PUSH1 0xFF MUL NOT AND SWAP1 DUP4 ISZERO ISZERO MUL OR SWAP1 SSTORE POP DUP1 PUSH20 0xFFFFFFFFFFFFFFFFFFFFFFFFFFFFFFFFFFFFFFFF AND PUSH32 0xF2AE205522024C14E5A7A26BA6D1FB1252DC8E161B5ABC79ED5795FD3C5B9261 PUSH1 0x40 MLOAD PUSH1 0x40 MLOAD DUP1 SWAP2 SUB SWAP1 LOG2 POP JUMP JUMPDEST PUSH1 0x0 PUSH1 0xB PUSH1 0x0 DUP4 PUSH20 0xFFFFFFFFFFFFFFFFFFFFFFFFFFFFFFFFFFFFFFFF AND PUSH20 0xFFFFFFFFFFFFFFFFFFFFFFFFFFFFFFFFFFFFFFFF AND DUP2 MSTORE PUSH1 0x20 ADD SWAP1 DUP2 MSTORE PUSH1 0x20 ADD PUSH1 0x0 KECCAK256 PUSH1 0x0 SWAP1 SLOAD SWAP1 PUSH2 0x100 EXP SWAP1 DIV PUSH1 0xFF AND PUSH2 0x1C76 JUMPI PUSH1 0x40 MLOAD PUSH32 0x8C379A000000000000000000000000000000000000000000000000000000000 DUP2 MSTORE PUSH1 0x4 ADD PUSH2 0x1C6D SWAP1 PUSH2 0x51F0 JUMP JUMPDEST PUSH1 0x40 MLOAD DUP1 SWAP2 SUB SWAP1 REVERT JUMPDEST PUSH1 0xA PUSH1 0x0 DUP4 PUSH20 0xFFFFFFFFFFFFFFFFFFFFFFFFFFFFFFFFFFFFFFFF AND PUSH20 0xFFFFFFFFFFFFFFFFFFFFFFFFFFFFFFFFFFFFFFFF AND DUP2 MSTORE PUSH1 0x20 ADD SWAP1 DUP2 MSTORE PUSH1 0x20 ADD PUSH1 0x0 KECCAK256 PUSH1 0xC ADD SLOAD SWAP1 POP SWAP2 SWAP1 POP JUMP JUMPDEST PUSH1 0x3 PUSH1 0x0 SWAP1 SLOAD SWAP1 PUSH2 0x100 EXP SWAP1 DIV PUSH20 0xFFFFFFFFFFFFFFFFFFFFFFFFFFFFFFFFFFFFFFFF AND DUP2 JUMP JUMPDEST PUSH2 0x1D10 PUSH32 0xA49807205CE4D355092EF5A8A18F56E8913CF4A201FBE287825B095693C21775 CALLER PUSH2 0x2940 JUMP JUMPDEST PUSH2 0x1D19 JUMPI PUSH1 0x0 DUP1 REVERT JUMPDEST PUSH1 0xB PUSH1 0x0 DUP4 PUSH20 0xFFFFFFFFFFFFFFFFFFFFFFFFFFFFFFFFFFFFFFFF AND PUSH20 0xFFFFFFFFFFFFFFFFFFFFFFFFFFFFFFFFFFFFFFFF AND DUP2 MSTORE PUSH1 0x20 ADD SWAP1 DUP2 MSTORE PUSH1 0x20 ADD PUSH1 0x0 KECCAK256 PUSH1 0x0 SWAP1 SLOAD SWAP1 PUSH2 0x100 EXP SWAP1 DIV PUSH1 0xFF AND PUSH2 0x1DA5 JUMPI PUSH1 0x40 MLOAD PUSH32 0x8C379A000000000000000000000000000000000000000000000000000000000 DUP2 MSTORE PUSH1 0x4 ADD PUSH2 0x1D9C SWAP1 PUSH2 0x51F0 JUMP JUMPDEST PUSH1 0x40 MLOAD DUP1 SWAP2 SUB SWAP1 REVERT JUMPDEST PUSH1 0x0 PUSH1 0x60 DUP4 PUSH20 0xFFFFFFFFFFFFFFFFFFFFFFFFFFFFFFFFFFFFFFFF AND PUSH1 0x3 PUSH1 0x0 SWAP1 SLOAD SWAP1 PUSH2 0x100 EXP SWAP1 DIV PUSH20 0xFFFFFFFFFFFFFFFFFFFFFFFFFFFFFFFFFFFFFFFF AND PUSH20 0xFFFFFFFFFFFFFFFFFFFFFFFFFFFFFFFFFFFFFFFF AND PUSH4 0x6352211E DUP6 PUSH1 0x40 MLOAD DUP3 PUSH4 0xFFFFFFFF AND PUSH1 0xE0 SHL DUP2 MSTORE PUSH1 0x4 ADD PUSH2 0x1E1B SWAP2 SWAP1 PUSH2 0x4578 JUMP JUMPDEST PUSH1 0x20 PUSH1 0x40 MLOAD DUP1 DUP4 SUB DUP2 DUP7 GAS STATICCALL ISZERO DUP1 ISZERO PUSH2 0x1E38 JUMPI RETURNDATASIZE PUSH1 0x0 DUP1 RETURNDATACOPY RETURNDATASIZE PUSH1 0x0 REVERT JUMPDEST POP POP POP POP PUSH1 0x40 MLOAD RETURNDATASIZE PUSH1 0x1F NOT PUSH1 0x1F DUP3 ADD AND DUP3 ADD DUP1 PUSH1 0x40 MSTORE POP DUP2 ADD SWAP1 PUSH2 0x1E5C SWAP2 SWAP1 PUSH2 0x5807 JUMP JUMPDEST PUSH20 0xFFFFFFFFFFFFFFFFFFFFFFFFFFFFFFFFFFFFFFFF AND EQ PUSH2 0x1FB7 JUMPI PUSH1 0x3 PUSH1 0x0 SWAP1 SLOAD SWAP1 PUSH2 0x100 EXP SWAP1 DIV PUSH20 0xFFFFFFFFFFFFFFFFFFFFFFFFFFFFFFFFFFFFFFFF AND PUSH20 0xFFFFFFFFFFFFFFFFFFFFFFFFFFFFFFFFFFFFFFFF AND PUSH4 0x18148F1B DUP6 PUSH1 0x40 MLOAD DUP3 PUSH4 0xFFFFFFFF AND PUSH1 0xE0 SHL DUP2 MSTORE PUSH1 0x4 ADD PUSH2 0x1ED2 SWAP2 SWAP1 PUSH2 0x4F90 JUMP JUMPDEST PUSH1 0x0 PUSH1 0x40 MLOAD DUP1 DUP4 SUB DUP2 DUP7 GAS STATICCALL ISZERO DUP1 ISZERO PUSH2 0x1EEF JUMPI RETURNDATASIZE PUSH1 0x0 DUP1 RETURNDATACOPY RETURNDATASIZE PUSH1 0x0 REVERT JUMPDEST POP POP POP POP PUSH1 0x40 MLOAD RETURNDATASIZE PUSH1 0x0 DUP3 RETURNDATACOPY RETURNDATASIZE PUSH1 0x1F NOT PUSH1 0x1F DUP3 ADD AND DUP3 ADD DUP1 PUSH1 0x40 MSTORE POP DUP2 ADD SWAP1 PUSH2 0x1F18 SWAP2 SWAP1 PUSH2 0x58F7 JUMP JUMPDEST SWAP1 POP PUSH1 0x0 DUP2 MLOAD GT ISZERO PUSH2 0x1F8E JUMPI DUP1 PUSH1 0x0 DUP2 MLOAD DUP2 LT PUSH2 0x1F38 JUMPI PUSH2 0x1F37 PUSH2 0x5175 JUMP JUMPDEST JUMPDEST PUSH1 0x20 MUL PUSH1 0x20 ADD ADD MLOAD SWAP2 POP DUP2 PUSH1 0xA PUSH1 0x0 DUP7 PUSH20 0xFFFFFFFFFFFFFFFFFFFFFFFFFFFFFFFFFFFFFFFF AND PUSH20 0xFFFFFFFFFFFFFFFFFFFFFFFFFFFFFFFFFFFFFFFF AND DUP2 MSTORE PUSH1 0x20 ADD SWAP1 DUP2 MSTORE PUSH1 0x20 ADD PUSH1 0x0 KECCAK256 PUSH1 0x17 ADD DUP2 SWAP1 SSTORE POP PUSH2 0x1FB2 JUMP JUMPDEST PUSH32 0xFFFFFFFFFFFFFFFFFFFFFFFFFFFFFFFFFFFFFFFFFFFFFFFFFFFFFFFFFFFFFFFF SWAP2 POP JUMPDEST PUSH2 0x2002 JUMP JUMPDEST DUP3 PUSH1 0xA PUSH1 0x0 DUP7 PUSH20 0xFFFFFFFFFFFFFFFFFFFFFFFFFFFFFFFFFFFFFFFF AND PUSH20 0xFFFFFFFFFFFFFFFFFFFFFFFFFFFFFFFFFFFFFFFF AND DUP2 MSTORE PUSH1 0x20 ADD SWAP1 DUP2 MSTORE PUSH1 0x20 ADD PUSH1 0x0 KECCAK256 PUSH1 0x17 ADD DUP2 SWAP1 SSTORE POP DUP3 SWAP2 POP JUMPDEST DUP4 PUSH20 0xFFFFFFFFFFFFFFFFFFFFFFFFFFFFFFFFFFFFFFFF AND PUSH32 0x8E9F015B4A09D3E66A5D3703ECC0D035E52DA672786C75B807300BD4A72530D DUP4 PUSH1 0x40 MLOAD PUSH2 0x2048 SWAP2 SWAP1 PUSH2 0x4578 JUMP JUMPDEST PUSH1 0x40 MLOAD DUP1 SWAP2 SUB SWAP1 LOG2 POP POP POP POP JUMP JUMPDEST PUSH2 0x205E PUSH2 0x42BC JUMP JUMPDEST PUSH1 0xA PUSH1 0x0 DUP4 PUSH20 0xFFFFFFFFFFFFFFFFFFFFFFFFFFFFFFFFFFFFFFFF AND PUSH20 0xFFFFFFFFFFFFFFFFFFFFFFFFFFFFFFFFFFFFFFFF AND DUP2 MSTORE PUSH1 0x20 ADD SWAP1 DUP2 MSTORE PUSH1 0x20 ADD PUSH1 0x0 KECCAK256 PUSH1 0x40 MLOAD DUP1 PUSH2 0x180 ADD PUSH1 0x40 MSTORE SWAP1 DUP2 PUSH1 0x0 DUP3 ADD SLOAD DUP2 MSTORE PUSH1 0x20 ADD PUSH1 0x1 DUP3 ADD SLOAD DUP2 MSTORE PUSH1 0x20 ADD PUSH1 0x2 DUP3 ADD SLOAD DUP2 MSTORE PUSH1 0x20 ADD PUSH1 0x3 DUP3 ADD PUSH1 0x5 DUP1 PUSH1 0x20 MUL PUSH1 0x40 MLOAD SWAP1 DUP2 ADD PUSH1 0x40 MSTORE DUP1 SWAP3 SWAP2 SWAP1 DUP3 PUSH1 0x5 DUP1 ISZERO PUSH2 0x2103 JUMPI PUSH1 0x20 MUL DUP3 ADD SWAP2 JUMPDEST DUP2 SLOAD DUP2 MSTORE PUSH1 0x20 ADD SWAP1 PUSH1 0x1 ADD SWAP1 DUP1 DUP4 GT PUSH2 0x20EF JUMPI JUMPDEST POP POP POP POP POP DUP2 MSTORE PUSH1 0x20 ADD PUSH1 0x8 DUP3 ADD SLOAD DUP2 MSTORE PUSH1 0x20 ADD PUSH1 0x9 DUP3 ADD SLOAD DUP2 MSTORE PUSH1 0x20 ADD PUSH1 0xA DUP3 ADD SLOAD DUP2 MSTORE PUSH1 0x20 ADD PUSH1 0xB DUP3 ADD SLOAD DUP2 MSTORE PUSH1 0x20 ADD PUSH1 0xC DUP3 ADD SLOAD DUP2 MSTORE PUSH1 0x20 ADD PUSH1 0xD DUP3 ADD PUSH1 0xA DUP1 PUSH1 0x20 MUL PUSH1 0x40 MLOAD SWAP1 DUP2 ADD PUSH1 0x40 MSTORE DUP1 SWAP3 SWAP2 SWAP1 DUP3 PUSH1 0xA DUP1 ISZERO PUSH2 0x217A JUMPI PUSH1 0x20 MUL DUP3 ADD SWAP2 JUMPDEST DUP2 SLOAD DUP2 MSTORE PUSH1 0x20 ADD SWAP1 PUSH1 0x1 ADD SWAP1 DUP1 DUP4 GT PUSH2 0x2166 JUMPI JUMPDEST POP POP POP POP POP DUP2 MSTORE PUSH1 0x20 ADD PUSH1 0x17 DUP3 ADD SLOAD DUP2 MSTORE PUSH1 0x20 ADD PUSH1 0x18 DUP3 ADD SLOAD DUP2 MSTORE POP POP SWAP1 POP SWAP2 SWAP1 POP JUMP JUMPDEST PUSH2 0x21C8 PUSH32 0xA49807205CE4D355092EF5A8A18F56E8913CF4A201FBE287825B095693C21775 CALLER PUSH2 0x2940 JUMP JUMPDEST PUSH2 0x21D1 JUMPI PUSH1 0x0 DUP1 REVERT JUMPDEST DUP1 PUSH1 0x7 DUP2 SWAP1 SSTORE POP POP JUMP JUMPDEST PUSH1 0x0 PUSH1 0x7 SLOAD SWAP1 POP SWAP1 JUMP JUMPDEST PUSH2 0x220F PUSH32 0xA49807205CE4D355092EF5A8A18F56E8913CF4A201FBE287825B095693C21775 CALLER PUSH2 0x2940 JUMP JUMPDEST PUSH2 0x2218 JUMPI PUSH1 0x0 DUP1 REVERT JUMPDEST PUSH1 0xB PUSH1 0x0 DUP4 PUSH20 0xFFFFFFFFFFFFFFFFFFFFFFFFFFFFFFFFFFFFFFFF AND PUSH20 0xFFFFFFFFFFFFFFFFFFFFFFFFFFFFFFFFFFFFFFFF AND DUP2 MSTORE PUSH1 0x20 ADD SWAP1 DUP2 MSTORE PUSH1 0x20 ADD PUSH1 0x0 KECCAK256 PUSH1 0x0 SWAP1 SLOAD SWAP1 PUSH2 0x100 EXP SWAP1 DIV PUSH1 0xFF AND PUSH2 0x22A4 JUMPI PUSH1 0x40 MLOAD PUSH32 0x8C379A000000000000000000000000000000000000000000000000000000000 DUP2 MSTORE PUSH1 0x4 ADD PUSH2 0x229B SWAP1 PUSH2 0x51F0 JUMP JUMPDEST PUSH1 0x40 MLOAD DUP1 SWAP2 SUB SWAP1 REVERT JUMPDEST DUP1 PUSH1 0xA PUSH1 0x0 DUP5 PUSH20 0xFFFFFFFFFFFFFFFFFFFFFFFFFFFFFFFFFFFFFFFF AND PUSH20 0xFFFFFFFFFFFFFFFFFFFFFFFFFFFFFFFFFFFFFFFF AND DUP2 MSTORE PUSH1 0x20 ADD SWAP1 DUP2 MSTORE PUSH1 0x20 ADD PUSH1 0x0 KECCAK256 PUSH1 0xC ADD DUP2 SWAP1 SSTORE POP DUP2 PUSH20 0xFFFFFFFFFFFFFFFFFFFFFFFFFFFFFFFFFFFFFFFF AND PUSH32 0x61DE7C9C9FEF84BF815AD3B2D17A9AF3D0655AF7A1C9423E5D2DEE99EC5C6FFC DUP3 PUSH1 0x40 MLOAD PUSH2 0x2331 SWAP2 SWAP1 PUSH2 0x4578 JUMP JUMPDEST PUSH1 0x40 MLOAD DUP1 SWAP2 SUB SWAP1 LOG2 POP POP JUMP JUMPDEST PUSH1 0x0 PUSH1 0xB PUSH1 0x0 DUP4 PUSH20 0xFFFFFFFFFFFFFFFFFFFFFFFFFFFFFFFFFFFFFFFF AND PUSH20 0xFFFFFFFFFFFFFFFFFFFFFFFFFFFFFFFFFFFFFFFF AND DUP2 MSTORE PUSH1 0x20 ADD SWAP1 DUP2 MSTORE PUSH1 0x20 ADD PUSH1 0x0 KECCAK256 PUSH1 0x0 SWAP1 SLOAD SWAP1 PUSH2 0x100 EXP SWAP1 DIV PUSH1 0xFF AND PUSH2 0x23CB JUMPI PUSH1 0x40 MLOAD PUSH32 0x8C379A000000000000000000000000000000000000000000000000000000000 DUP2 MSTORE PUSH1 0x4 ADD PUSH2 0x23C2 SWAP1 PUSH2 0x51F0 JUMP JUMPDEST PUSH1 0x40 MLOAD DUP1 SWAP2 SUB SWAP1 REVERT JUMPDEST PUSH1 0xA PUSH1 0x0 DUP4 PUSH20 0xFFFFFFFFFFFFFFFFFFFFFFFFFFFFFFFFFFFFFFFF AND PUSH20 0xFFFFFFFFFFFFFFFFFFFFFFFFFFFFFFFFFFFFFFFF AND DUP2 MSTORE PUSH1 0x20 ADD SWAP1 DUP2 MSTORE PUSH1 0x20 ADD PUSH1 0x0 KECCAK256 PUSH1 0x1 ADD SLOAD SWAP1 POP SWAP2 SWAP1 POP JUMP JUMPDEST PUSH2 0x241D PUSH2 0x42BC JUMP JUMPDEST PUSH2 0x2447 PUSH32 0xA49807205CE4D355092EF5A8A18F56E8913CF4A201FBE287825B095693C21775 CALLER PUSH2 0x2940 JUMP JUMPDEST PUSH2 0x2450 JUMPI PUSH1 0x0 DUP1 REVERT JUMPDEST PUSH1 0xB PUSH1 0x0 DUP4 PUSH20 0xFFFFFFFFFFFFFFFFFFFFFFFFFFFFFFFFFFFFFFFF AND PUSH20 0xFFFFFFFFFFFFFFFFFFFFFFFFFFFFFFFFFFFFFFFF AND DUP2 MSTORE PUSH1 0x20 ADD SWAP1 DUP2 MSTORE PUSH1 0x20 ADD PUSH1 0x0 KECCAK256 PUSH1 0x0 SWAP1 SLOAD SWAP1 PUSH2 0x100 EXP SWAP1 DIV PUSH1 0xFF AND PUSH2 0x24A6 JUMPI PUSH1 0x0 DUP1 REVERT JUMPDEST PUSH1 0xA PUSH1 0x0 DUP4 PUSH20 0xFFFFFFFFFFFFFFFFFFFFFFFFFFFFFFFFFFFFFFFF AND PUSH20 0xFFFFFFFFFFFFFFFFFFFFFFFFFFFFFFFFFFFFFFFF AND DUP2 MSTORE PUSH1 0x20 ADD SWAP1 DUP2 MSTORE PUSH1 0x20 ADD PUSH1 0x0 KECCAK256 PUSH1 0x40 MLOAD DUP1 PUSH2 0x180 ADD PUSH1 0x40 MSTORE SWAP1 DUP2 PUSH1 0x0 DUP3 ADD SLOAD DUP2 MSTORE PUSH1 0x20 ADD PUSH1 0x1 DUP3 ADD SLOAD DUP2 MSTORE PUSH1 0x20 ADD PUSH1 0x2 DUP3 ADD SLOAD DUP2 MSTORE PUSH1 0x20 ADD PUSH1 0x3 DUP3 ADD PUSH1 0x5 DUP1 PUSH1 0x20 MUL PUSH1 0x40 MLOAD SWAP1 DUP2 ADD PUSH1 0x40 MSTORE DUP1 SWAP3 SWAP2 SWAP1 DUP3 PUSH1 0x5 DUP1 ISZERO PUSH2 0x254B JUMPI PUSH1 0x20 MUL DUP3 ADD SWAP2 JUMPDEST DUP2 SLOAD DUP2 MSTORE PUSH1 0x20 ADD SWAP1 PUSH1 0x1 ADD SWAP1 DUP1 DUP4 GT PUSH2 0x2537 JUMPI JUMPDEST POP POP POP POP POP DUP2 MSTORE PUSH1 0x20 ADD PUSH1 0x8 DUP3 ADD SLOAD DUP2 MSTORE PUSH1 0x20 ADD PUSH1 0x9 DUP3 ADD SLOAD DUP2 MSTORE PUSH1 0x20 ADD PUSH1 0xA DUP3 ADD SLOAD DUP2 MSTORE PUSH1 0x20 ADD PUSH1 0xB DUP3 ADD SLOAD DUP2 MSTORE PUSH1 0x20 ADD PUSH1 0xC DUP3 ADD SLOAD DUP2 MSTORE PUSH1 0x20 ADD PUSH1 0xD DUP3 ADD PUSH1 0xA DUP1 PUSH1 0x20 MUL PUSH1 0x40 MLOAD SWAP1 DUP2 ADD PUSH1 0x40 MSTORE DUP1 SWAP3 SWAP2 SWAP1 DUP3 PUSH1 0xA DUP1 ISZERO PUSH2 0x25C2 JUMPI PUSH1 0x20 MUL DUP3 ADD SWAP2 JUMPDEST DUP2 SLOAD DUP2 MSTORE PUSH1 0x20 ADD SWAP1 PUSH1 0x1 ADD SWAP1 DUP1 DUP4 GT PUSH2 0x25AE JUMPI JUMPDEST POP POP POP POP POP DUP2 MSTORE PUSH1 0x20 ADD PUSH1 0x17 DUP3 ADD SLOAD DUP2 MSTORE PUSH1 0x20 ADD PUSH1 0x18 DUP3 ADD SLOAD DUP2 MSTORE POP POP SWAP1 POP SWAP2 SWAP1 POP JUMP JUMPDEST PUSH2 0x25EE PUSH2 0x3C2E JUMP JUMPDEST PUSH2 0x2618 PUSH32 0xA49807205CE4D355092EF5A8A18F56E8913CF4A201FBE287825B095693C21775 DUP3 PUSH2 0x167D JUMP JUMPDEST POP JUMP JUMPDEST PUSH2 0x2623 PUSH2 0x3C2E JUMP JUMPDEST PUSH2 0x262D PUSH1 0x0 PUSH2 0x3E8A JUMP JUMPDEST JUMP JUMPDEST PUSH32 0xA49807205CE4D355092EF5A8A18F56E8913CF4A201FBE287825B095693C21775 DUP2 JUMP JUMPDEST PUSH1 0x0 PUSH1 0xB PUSH1 0x0 DUP4 PUSH20 0xFFFFFFFFFFFFFFFFFFFFFFFFFFFFFFFFFFFFFFFF AND PUSH20 0xFFFFFFFFFFFFFFFFFFFFFFFFFFFFFFFFFFFFFFFF AND DUP2 MSTORE PUSH1 0x20 ADD SWAP1 DUP2 MSTORE PUSH1 0x20 ADD PUSH1 0x0 KECCAK256 PUSH1 0x0 SWAP1 SLOAD SWAP1 PUSH2 0x100 EXP SWAP1 DIV PUSH1 0xFF AND PUSH2 0x26E1 JUMPI PUSH1 0x40 MLOAD PUSH32 0x8C379A000000000000000000000000000000000000000000000000000000000 DUP2 MSTORE PUSH1 0x4 ADD PUSH2 0x26D8 SWAP1 PUSH2 0x51F0 JUMP JUMPDEST PUSH1 0x40 MLOAD DUP1 SWAP2 SUB SWAP1 REVERT JUMPDEST PUSH1 0xA PUSH1 0x0 DUP4 PUSH20 0xFFFFFFFFFFFFFFFFFFFFFFFFFFFFFFFFFFFFFFFF AND PUSH20 0xFFFFFFFFFFFFFFFFFFFFFFFFFFFFFFFFFFFFFFFF AND DUP2 MSTORE PUSH1 0x20 ADD SWAP1 DUP2 MSTORE PUSH1 0x20 ADD PUSH1 0x0 KECCAK256 PUSH1 0x18 ADD SLOAD SWAP1 POP SWAP2 SWAP1 POP JUMP JUMPDEST PUSH1 0x5 PUSH1 0x0 SWAP1 SLOAD SWAP1 PUSH2 0x100 EXP SWAP1 DIV PUSH20 0xFFFFFFFFFFFFFFFFFFFFFFFFFFFFFFFFFFFFFFFF AND PUSH20 0xFFFFFFFFFFFFFFFFFFFFFFFFFFFFFFFFFFFFFFFF AND CALLER PUSH20 0xFFFFFFFFFFFFFFFFFFFFFFFFFFFFFFFFFFFFFFFF AND EQ PUSH2 0x2785 JUMPI PUSH1 0x0 DUP1 REVERT JUMPDEST PUSH2 0x27B0 PUSH1 0x5 PUSH1 0x0 SWAP1 SLOAD SWAP1 PUSH2 0x100 EXP SWAP1 DIV PUSH20 0xFFFFFFFFFFFFFFFFFFFFFFFFFFFFFFFFFFFFFFFF AND PUSH2 0x3E8A JUMP JUMPDEST PUSH1 0x0 PUSH1 0x5 PUSH1 0x0 PUSH2 0x100 EXP DUP2 SLOAD DUP2 PUSH20 0xFFFFFFFFFFFFFFFFFFFFFFFFFFFFFFFFFFFFFFFF MUL NOT AND SWAP1 DUP4 PUSH20 0xFFFFFFFFFFFFFFFFFFFFFFFFFFFFFFFFFFFFFFFF AND MUL OR SWAP1 SSTORE POP JUMP JUMPDEST PUSH2 0x27FC PUSH2 0x4329 JUMP JUMPDEST PUSH1 0xB PUSH1 0x0 DUP4 PUSH20 0xFFFFFFFFFFFFFFFFFFFFFFFFFFFFFFFFFFFFFFFF AND PUSH20 0xFFFFFFFFFFFFFFFFFFFFFFFFFFFFFFFFFFFFFFFF AND DUP2 MSTORE PUSH1 0x20 ADD SWAP1 DUP2 MSTORE PUSH1 0x20 ADD PUSH1 0x0 KECCAK256 PUSH1 0x0 SWAP1 SLOAD SWAP1 PUSH2 0x100 EXP SWAP1 DIV PUSH1 0xFF AND PUSH2 0x2888 JUMPI PUSH1 0x40 MLOAD PUSH32 0x8C379A000000000000000000000000000000000000000000000000000000000 DUP2 MSTORE PUSH1 0x4 ADD PUSH2 0x287F SWAP1 PUSH2 0x51F0 JUMP JUMPDEST PUSH1 0x40 MLOAD DUP1 SWAP2 SUB SWAP1 REVERT JUMPDEST PUSH1 0xA PUSH1 0x0 DUP4 PUSH20 0xFFFFFFFFFFFFFFFFFFFFFFFFFFFFFFFFFFFFFFFF AND PUSH20 0xFFFFFFFFFFFFFFFFFFFFFFFFFFFFFFFFFFFFFFFF AND DUP2 MSTORE PUSH1 0x20 ADD SWAP1 DUP2 MSTORE PUSH1 0x20 ADD PUSH1 0x0 KECCAK256 PUSH1 0x3 ADD PUSH1 0x5 DUP1 PUSH1 0x20 MUL PUSH1 0x40 MLOAD SWAP1 DUP2 ADD PUSH1 0x40 MSTORE DUP1 SWAP3 SWAP2 SWAP1 DUP3 PUSH1 0x5 DUP1 ISZERO PUSH2 0x2901 JUMPI PUSH1 0x20 MUL DUP3 ADD SWAP2 JUMPDEST DUP2 SLOAD DUP2 MSTORE PUSH1 0x20 ADD SWAP1 PUSH1 0x1 ADD SWAP1 DUP1 DUP4 GT PUSH2 0x28ED JUMPI JUMPDEST POP POP POP POP POP SWAP1 POP SWAP2 SWAP1 POP JUMP JUMPDEST PUSH1 0x0 PUSH1 0x6 SLOAD SWAP1 POP SWAP1 JUMP JUMPDEST PUSH1 0x0 DUP1 PUSH1 0x0 SWAP1 SLOAD SWAP1 PUSH2 0x100 EXP SWAP1 DIV PUSH20 0xFFFFFFFFFFFFFFFFFFFFFFFFFFFFFFFFFFFFFFFF AND SWAP1 POP SWAP1 JUMP JUMPDEST PUSH1 0x0 PUSH1 0x1 PUSH1 0x0 DUP5 DUP2 MSTORE PUSH1 0x20 ADD SWAP1 DUP2 MSTORE PUSH1 0x20 ADD PUSH1 0x0 KECCAK256 PUSH1 0x0 ADD PUSH1 0x0 DUP4 PUSH20 0xFFFFFFFFFFFFFFFFFFFFFFFFFFFFFFFFFFFFFFFF AND PUSH20 0xFFFFFFFFFFFFFFFFFFFFFFFFFFFFFFFFFFFFFFFF AND DUP2 MSTORE PUSH1 0x20 ADD SWAP1 DUP2 MSTORE PUSH1 0x20 ADD PUSH1 0x0 KECCAK256 PUSH1 0x0 SWAP1 SLOAD SWAP1 PUSH2 0x100 EXP SWAP1 DIV PUSH1 0xFF AND SWAP1 POP SWAP3 SWAP2 POP POP JUMP JUMPDEST PUSH1 0x0 PUSH1 0xB PUSH1 0x0 DUP4 PUSH20 0xFFFFFFFFFFFFFFFFFFFFFFFFFFFFFFFFFFFFFFFF AND PUSH20 0xFFFFFFFFFFFFFFFFFFFFFFFFFFFFFFFFFFFFFFFF AND DUP2 MSTORE PUSH1 0x20 ADD SWAP1 DUP2 MSTORE PUSH1 0x20 ADD PUSH1 0x0 KECCAK256 PUSH1 0x0 SWAP1 SLOAD SWAP1 PUSH2 0x100 EXP SWAP1 DIV PUSH1 0xFF AND PUSH2 0x2A39 JUMPI PUSH1 0x40 MLOAD PUSH32 0x8C379A000000000000000000000000000000000000000000000000000000000 DUP2 MSTORE PUSH1 0x4 ADD PUSH2 0x2A30 SWAP1 PUSH2 0x51F0 JUMP JUMPDEST PUSH1 0x40 MLOAD DUP1 SWAP2 SUB SWAP1 REVERT JUMPDEST PUSH1 0xA PUSH1 0x0 DUP4 PUSH20 0xFFFFFFFFFFFFFFFFFFFFFFFFFFFFFFFFFFFFFFFF AND PUSH20 0xFFFFFFFFFFFFFFFFFFFFFFFFFFFFFFFFFFFFFFFF AND DUP2 MSTORE PUSH1 0x20 ADD SWAP1 DUP2 MSTORE PUSH1 0x20 ADD PUSH1 0x0 KECCAK256 PUSH1 0xB ADD SLOAD SWAP1 POP SWAP2 SWAP1 POP JUMP JUMPDEST PUSH2 0x2AAD PUSH32 0xA49807205CE4D355092EF5A8A18F56E8913CF4A201FBE287825B095693C21775 CALLER PUSH2 0x2940 JUMP JUMPDEST PUSH2 0x2AB6 JUMPI PUSH1 0x0 DUP1 REVERT JUMPDEST PUSH1 0xB PUSH1 0x0 DUP5 PUSH20 0xFFFFFFFFFFFFFFFFFFFFFFFFFFFFFFFFFFFFFFFF AND PUSH20 0xFFFFFFFFFFFFFFFFFFFFFFFFFFFFFFFFFFFFFFFF AND DUP2 MSTORE PUSH1 0x20 ADD SWAP1 DUP2 MSTORE PUSH1 0x20 ADD PUSH1 0x0 KECCAK256 PUSH1 0x0 SWAP1 SLOAD SWAP1 PUSH2 0x100 EXP SWAP1 DIV PUSH1 0xFF AND PUSH2 0x2B42 JUMPI PUSH1 0x40 MLOAD PUSH32 0x8C379A000000000000000000000000000000000000000000000000000000000 DUP2 MSTORE PUSH1 0x4 ADD PUSH2 0x2B39 SWAP1 PUSH2 0x51F0 JUMP JUMPDEST PUSH1 0x40 MLOAD DUP1 SWAP2 SUB SWAP1 REVERT JUMPDEST DUP1 PUSH1 0xA PUSH1 0x0 DUP6 PUSH20 0xFFFFFFFFFFFFFFFFFFFFFFFFFFFFFFFFFFFFFFFF AND PUSH20 0xFFFFFFFFFFFFFFFFFFFFFFFFFFFFFFFFFFFFFFFF AND DUP2 MSTORE PUSH1 0x20 ADD SWAP1 DUP2 MSTORE PUSH1 0x20 ADD PUSH1 0x0 KECCAK256 PUSH1 0xD ADD DUP4 PUSH1 0xA DUP2 LT PUSH2 0x2B97 JUMPI PUSH2 0x2B96 PUSH2 0x5175 JUMP JUMPDEST JUMPDEST ADD DUP2 SWAP1 SSTORE POP DUP3 PUSH20 0xFFFFFFFFFFFFFFFFFFFFFFFFFFFFFFFFFFFFFFFF AND PUSH32 0x374ED846DC3E18A969AEF22277CE3669832A6EA83E3088149D5B40319413DE47 DUP4 DUP4 PUSH1 0x40 MLOAD PUSH2 0x2BE4 SWAP3 SWAP2 SWAP1 PUSH2 0x5940 JUMP JUMPDEST PUSH1 0x40 MLOAD DUP1 SWAP2 SUB SWAP1 LOG2 POP POP POP JUMP JUMPDEST PUSH2 0x2C1B PUSH32 0xA49807205CE4D355092EF5A8A18F56E8913CF4A201FBE287825B095693C21775 CALLER PUSH2 0x2940 JUMP JUMPDEST PUSH2 0x2C24 JUMPI PUSH1 0x0 DUP1 REVERT JUMPDEST DUP1 PUSH1 0x8 DUP2 SWAP1 SSTORE POP POP JUMP JUMPDEST PUSH1 0x0 DUP1 SHL DUP2 JUMP JUMPDEST PUSH2 0x2C5F PUSH32 0xA49807205CE4D355092EF5A8A18F56E8913CF4A201FBE287825B095693C21775 CALLER PUSH2 0x2940 JUMP JUMPDEST PUSH2 0x2C68 JUMPI PUSH1 0x0 DUP1 REVERT JUMPDEST PUSH1 0xB PUSH1 0x0 DUP4 PUSH20 0xFFFFFFFFFFFFFFFFFFFFFFFFFFFFFFFFFFFFFFFF AND PUSH20 0xFFFFFFFFFFFFFFFFFFFFFFFFFFFFFFFFFFFFFFFF AND DUP2 MSTORE PUSH1 0x20 ADD SWAP1 DUP2 MSTORE PUSH1 0x20 ADD PUSH1 0x0 KECCAK256 PUSH1 0x0 SWAP1 SLOAD SWAP1 PUSH2 0x100 EXP SWAP1 DIV PUSH1 0xFF AND PUSH2 0x2CF4 JUMPI PUSH1 0x40 MLOAD PUSH32 0x8C379A000000000000000000000000000000000000000000000000000000000 DUP2 MSTORE PUSH1 0x4 ADD PUSH2 0x2CEB SWAP1 PUSH2 0x51F0 JUMP JUMPDEST PUSH1 0x40 MLOAD DUP1 SWAP2 SUB SWAP1 REVERT JUMPDEST DUP1 PUSH1 0xA PUSH1 0x0 DUP5 PUSH20 0xFFFFFFFFFFFFFFFFFFFFFFFFFFFFFFFFFFFFFFFF AND PUSH20 0xFFFFFFFFFFFFFFFFFFFFFFFFFFFFFFFFFFFFFFFF AND DUP2 MSTORE PUSH1 0x20 ADD SWAP1 DUP2 MSTORE PUSH1 0x20 ADD PUSH1 0x0 KECCAK256 PUSH1 0xB ADD DUP2 SWAP1 SSTORE POP DUP2 PUSH20 0xFFFFFFFFFFFFFFFFFFFFFFFFFFFFFFFFFFFFFFFF AND PUSH32 0x7F299CEBC3C4384AE412A6BA151D00BD215ADD4B1379155DD71C3376CBF07DF6 DUP3 PUSH1 0x40 MLOAD PUSH2 0x2D81 SWAP2 SWAP1 PUSH2 0x4578 JUMP JUMPDEST PUSH1 0x40 MLOAD DUP1 SWAP2 SUB SWAP1 LOG2 POP POP JUMP JUMPDEST PUSH1 0x7 SLOAD DUP2 JUMP JUMPDEST PUSH2 0x2DBD PUSH32 0xA49807205CE4D355092EF5A8A18F56E8913CF4A201FBE287825B095693C21775 CALLER PUSH2 0x2940 JUMP JUMPDEST PUSH2 0x2DC6 JUMPI PUSH1 0x0 DUP1 REVERT JUMPDEST PUSH1 0xB PUSH1 0x0 DUP4 PUSH20 0xFFFFFFFFFFFFFFFFFFFFFFFFFFFFFFFFFFFFFFFF AND PUSH20 0xFFFFFFFFFFFFFFFFFFFFFFFFFFFFFFFFFFFFFFFF AND DUP2 MSTORE PUSH1 0x20 ADD SWAP1 DUP2 MSTORE PUSH1 0x20 ADD PUSH1 0x0 KECCAK256 PUSH1 0x0 SWAP1 SLOAD SWAP1 PUSH2 0x100 EXP SWAP1 DIV PUSH1 0xFF AND PUSH2 0x2E52 JUMPI PUSH1 0x40 MLOAD PUSH32 0x8C379A000000000000000000000000000000000000000000000000000000000 DUP2 MSTORE PUSH1 0x4 ADD PUSH2 0x2E49 SWAP1 PUSH2 0x51F0 JUMP JUMPDEST PUSH1 0x40 MLOAD DUP1 SWAP2 SUB SWAP1 REVERT JUMPDEST PUSH1 0x0 PUSH1 0xA PUSH1 0x0 DUP5 PUSH20 0xFFFFFFFFFFFFFFFFFFFFFFFFFFFFFFFFFFFFFFFF AND PUSH20 0xFFFFFFFFFFFFFFFFFFFFFFFFFFFFFFFFFFFFFFFF AND DUP2 MSTORE PUSH1 0x20 ADD SWAP1 DUP2 MSTORE PUSH1 0x20 ADD PUSH1 0x0 KECCAK256 PUSH1 0xB ADD SLOAD SWAP1 POP DUP2 DUP2 LT ISZERO PUSH2 0x2EDC JUMPI PUSH1 0x40 MLOAD PUSH32 0x8C379A000000000000000000000000000000000000000000000000000000000 DUP2 MSTORE PUSH1 0x4 ADD PUSH2 0x2ED3 SWAP1 PUSH2 0x59B5 JUMP JUMPDEST PUSH1 0x40 MLOAD DUP1 SWAP2 SUB SWAP1 REVERT JUMPDEST PUSH1 0x2 PUSH1 0x0 SWAP1 SLOAD SWAP1 PUSH2 0x100 EXP SWAP1 DIV PUSH20 0xFFFFFFFFFFFFFFFFFFFFFFFFFFFFFFFFFFFFFFFF AND PUSH20 0xFFFFFFFFFFFFFFFFFFFFFFFFFFFFFFFFFFFFFFFF AND PUSH4 0x40C10F19 DUP5 DUP5 PUSH1 0x40 MLOAD DUP4 PUSH4 0xFFFFFFFF AND PUSH1 0xE0 SHL DUP2 MSTORE PUSH1 0x4 ADD PUSH2 0x2F39 SWAP3 SWAP2 SWAP1 PUSH2 0x59D5 JUMP JUMPDEST PUSH1 0x0 PUSH1 0x40 MLOAD DUP1 DUP4 SUB DUP2 PUSH1 0x0 DUP8 DUP1 EXTCODESIZE ISZERO DUP1 ISZERO PUSH2 0x2F53 JUMPI PUSH1 0x0 DUP1 REVERT JUMPDEST POP GAS CALL ISZERO DUP1 ISZERO PUSH2 0x2F67 JUMPI RETURNDATASIZE PUSH1 0x0 DUP1 RETURNDATACOPY RETURNDATASIZE PUSH1 0x0 REVERT JUMPDEST POP POP POP POP DUP2 DUP2 PUSH2 0x2F77 SWAP2 SWAP1 PUSH2 0x59FE JUMP JUMPDEST PUSH1 0xA PUSH1 0x0 DUP6 PUSH20 0xFFFFFFFFFFFFFFFFFFFFFFFFFFFFFFFFFFFFFFFF AND PUSH20 0xFFFFFFFFFFFFFFFFFFFFFFFFFFFFFFFFFFFFFFFF AND DUP2 MSTORE PUSH1 0x20 ADD SWAP1 DUP2 MSTORE PUSH1 0x20 ADD PUSH1 0x0 KECCAK256 PUSH1 0xB ADD DUP2 SWAP1 SSTORE POP PUSH32 0x190FE81F396538A8654AAFA1ADCDABC1825D53AA9FA6DD809991683D943E3A17 DUP4 DUP4 PUSH1 0x40 MLOAD PUSH2 0x2FEE SWAP3 SWAP2 SWAP1 PUSH2 0x59D5 JUMP JUMPDEST PUSH1 0x40 MLOAD DUP1 SWAP2 SUB SWAP1 LOG1 POP POP POP JUMP JUMPDEST PUSH2 0x3025 PUSH32 0xA49807205CE4D355092EF5A8A18F56E8913CF4A201FBE287825B095693C21775 CALLER PUSH2 0x2940 JUMP JUMPDEST PUSH2 0x302E JUMPI PUSH1 0x0 DUP1 REVERT JUMPDEST PUSH1 0xB PUSH1 0x0 DUP4 PUSH20 0xFFFFFFFFFFFFFFFFFFFFFFFFFFFFFFFFFFFFFFFF AND PUSH20 0xFFFFFFFFFFFFFFFFFFFFFFFFFFFFFFFFFFFFFFFF AND DUP2 MSTORE PUSH1 0x20 ADD SWAP1 DUP2 MSTORE PUSH1 0x20 ADD PUSH1 0x0 KECCAK256 PUSH1 0x0 SWAP1 SLOAD SWAP1 PUSH2 0x100 EXP SWAP1 DIV PUSH1 0xFF AND PUSH2 0x30BA JUMPI PUSH1 0x40 MLOAD PUSH32 0x8C379A000000000000000000000000000000000000000000000000000000000 DUP2 MSTORE PUSH1 0x4 ADD PUSH2 0x30B1 SWAP1 PUSH2 0x51F0 JUMP JUMPDEST PUSH1 0x40 MLOAD DUP1 SWAP2 SUB SWAP1 REVERT JUMPDEST DUP1 PUSH1 0xA PUSH1 0x0 DUP5 PUSH20 0xFFFFFFFFFFFFFFFFFFFFFFFFFFFFFFFFFFFFFFFF AND PUSH20 0xFFFFFFFFFFFFFFFFFFFFFFFFFFFFFFFFFFFFFFFF AND DUP2 MSTORE PUSH1 0x20 ADD SWAP1 DUP2 MSTORE PUSH1 0x20 ADD PUSH1 0x0 KECCAK256 PUSH1 0x9 ADD DUP2 SWAP1 SSTORE POP DUP2 PUSH20 0xFFFFFFFFFFFFFFFFFFFFFFFFFFFFFFFFFFFFFFFF AND PUSH32 0x7ED17F7B101BB354C92F134F7C421A00E511B046ABF1EDCEB1956966E7443480 DUP3 PUSH1 0x40 MLOAD PUSH2 0x3147 SWAP2 SWAP1 PUSH2 0x4578 JUMP JUMPDEST PUSH1 0x40 MLOAD DUP1 SWAP2 SUB SWAP1 LOG2 POP POP JUMP JUMPDEST PUSH2 0x317D PUSH32 0xA49807205CE4D355092EF5A8A18F56E8913CF4A201FBE287825B095693C21775 CALLER PUSH2 0x2940 JUMP JUMPDEST PUSH2 0x3186 JUMPI PUSH1 0x0 DUP1 REVERT JUMPDEST PUSH1 0xB PUSH1 0x0 DUP4 PUSH20 0xFFFFFFFFFFFFFFFFFFFFFFFFFFFFFFFFFFFFFFFF AND PUSH20 0xFFFFFFFFFFFFFFFFFFFFFFFFFFFFFFFFFFFFFFFF AND DUP2 MSTORE PUSH1 0x20 ADD SWAP1 DUP2 MSTORE PUSH1 0x20 ADD PUSH1 0x0 KECCAK256 PUSH1 0x0 SWAP1 SLOAD SWAP1 PUSH2 0x100 EXP SWAP1 DIV PUSH1 0xFF AND PUSH2 0x3212 JUMPI PUSH1 0x40 MLOAD PUSH32 0x8C379A000000000000000000000000000000000000000000000000000000000 DUP2 MSTORE PUSH1 0x4 ADD PUSH2 0x3209 SWAP1 PUSH2 0x51F0 JUMP JUMPDEST PUSH1 0x40 MLOAD DUP1 SWAP2 SUB SWAP1 REVERT JUMPDEST PUSH1 0x0 PUSH1 0xA PUSH1 0x0 DUP5 PUSH20 0xFFFFFFFFFFFFFFFFFFFFFFFFFFFFFFFFFFFFFFFF AND PUSH20 0xFFFFFFFFFFFFFFFFFFFFFFFFFFFFFFFFFFFFFFFF AND DUP2 MSTORE PUSH1 0x20 ADD SWAP1 DUP2 MSTORE PUSH1 0x20 ADD PUSH1 0x0 KECCAK256 SWAP1 POP DUP2 DUP2 PUSH1 0x1 ADD DUP2 SWAP1 SSTORE POP DUP3 PUSH20 0xFFFFFFFFFFFFFFFFFFFFFFFFFFFFFFFFFFFFFFFF AND PUSH32 0x81665166AED8384C9DF23393834F1B549569BBB3CA825F52F8390F1BBE163871 DUP4 DUP4 PUSH1 0x1 ADD SLOAD PUSH1 0x40 MLOAD PUSH2 0x32AA SWAP3 SWAP2 SWAP1 PUSH2 0x5940 JUMP JUMPDEST PUSH1 0x40 MLOAD DUP1 SWAP2 SUB SWAP1 LOG2 POP POP POP JUMP JUMPDEST PUSH2 0x32BF PUSH2 0x434B JUMP JUMPDEST PUSH1 0xB PUSH1 0x0 DUP4 PUSH20 0xFFFFFFFFFFFFFFFFFFFFFFFFFFFFFFFFFFFFFFFF AND PUSH20 0xFFFFFFFFFFFFFFFFFFFFFFFFFFFFFFFFFFFFFFFF AND DUP2 MSTORE PUSH1 0x20 ADD SWAP1 DUP2 MSTORE PUSH1 0x20 ADD PUSH1 0x0 KECCAK256 PUSH1 0x0 SWAP1 SLOAD SWAP1 PUSH2 0x100 EXP SWAP1 DIV PUSH1 0xFF AND PUSH2 0x334B JUMPI PUSH1 0x40 MLOAD PUSH32 0x8C379A000000000000000000000000000000000000000000000000000000000 DUP2 MSTORE PUSH1 0x4 ADD PUSH2 0x3342 SWAP1 PUSH2 0x51F0 JUMP JUMPDEST PUSH1 0x40 MLOAD DUP1 SWAP2 SUB SWAP1 REVERT JUMPDEST PUSH1 0xA PUSH1 0x0 DUP4 PUSH20 0xFFFFFFFFFFFFFFFFFFFFFFFFFFFFFFFFFFFFFFFF AND PUSH20 0xFFFFFFFFFFFFFFFFFFFFFFFFFFFFFFFFFFFFFFFF AND DUP2 MSTORE PUSH1 0x20 ADD SWAP1 DUP2 MSTORE PUSH1 0x20 ADD PUSH1 0x0 KECCAK256 PUSH1 0xD ADD PUSH1 0xA DUP1 PUSH1 0x20 MUL PUSH1 0x40 MLOAD SWAP1 DUP2 ADD PUSH1 0x40 MSTORE DUP1 SWAP3 SWAP2 SWAP1 DUP3 PUSH1 0xA DUP1 ISZERO PUSH2 0x33C4 JUMPI PUSH1 0x20 MUL DUP3 ADD SWAP2 JUMPDEST DUP2 SLOAD DUP2 MSTORE PUSH1 0x20 ADD SWAP1 PUSH1 0x1 ADD SWAP1 DUP1 DUP4 GT PUSH2 0x33B0 JUMPI JUMPDEST POP POP POP POP POP SWAP1 POP SWAP2 SWAP1 POP JUMP JUMPDEST PUSH1 0x4 PUSH1 0x0 SWAP1 SLOAD SWAP1 PUSH2 0x100 EXP SWAP1 DIV PUSH20 0xFFFFFFFFFFFFFFFFFFFFFFFFFFFFFFFFFFFFFFFF AND DUP2 JUMP JUMPDEST PUSH1 0x6 SLOAD DUP2 JUMP JUMPDEST PUSH2 0x3405 DUP3 PUSH2 0x165D JUMP JUMPDEST PUSH2 0x340E DUP2 PUSH2 0x3CAC JUMP JUMPDEST PUSH2 0x3418 DUP4 DUP4 PUSH2 0x3DA8 JUMP JUMPDEST POP POP POP JUMP JUMPDEST PUSH2 0x3447 PUSH32 0xA49807205CE4D355092EF5A8A18F56E8913CF4A201FBE287825B095693C21775 CALLER PUSH2 0x2940 JUMP JUMPDEST PUSH2 0x3450 JUMPI PUSH1 0x0 DUP1 REVERT JUMPDEST PUSH1 0xB PUSH1 0x0 DUP4 PUSH20 0xFFFFFFFFFFFFFFFFFFFFFFFFFFFFFFFFFFFFFFFF AND PUSH20 0xFFFFFFFFFFFFFFFFFFFFFFFFFFFFFFFFFFFFFFFF AND DUP2 MSTORE PUSH1 0x20 ADD SWAP1 DUP2 MSTORE PUSH1 0x20 ADD PUSH1 0x0 KECCAK256 PUSH1 0x0 SWAP1 SLOAD SWAP1 PUSH2 0x100 EXP SWAP1 DIV PUSH1 0xFF AND PUSH2 0x34DC JUMPI PUSH1 0x40 MLOAD PUSH32 0x8C379A000000000000000000000000000000000000000000000000000000000 DUP2 MSTORE PUSH1 0x4 ADD PUSH2 0x34D3 SWAP1 PUSH2 0x51F0 JUMP JUMPDEST PUSH1 0x40 MLOAD DUP1 SWAP2 SUB SWAP1 REVERT JUMPDEST DUP1 PUSH1 0xA PUSH1 0x0 DUP5 PUSH20 0xFFFFFFFFFFFFFFFFFFFFFFFFFFFFFFFFFFFFFFFF AND PUSH20 0xFFFFFFFFFFFFFFFFFFFFFFFFFFFFFFFFFFFFFFFF AND DUP2 MSTORE PUSH1 0x20 ADD SWAP1 DUP2 MSTORE PUSH1 0x20 ADD PUSH1 0x0 KECCAK256 PUSH1 0x2 ADD DUP2 SWAP1 SSTORE POP DUP2 PUSH20 0xFFFFFFFFFFFFFFFFFFFFFFFFFFFFFFFFFFFFFFFF AND PUSH32 0x7B45410837B569E79F978C88FBB1AB01A26D6922675E4DE2FC0BAE4E0586CEAC DUP3 PUSH1 0x40 MLOAD PUSH2 0x3569 SWAP2 SWAP1 PUSH2 0x4578 JUMP JUMPDEST PUSH1 0x40 MLOAD DUP1 SWAP2 SUB SWAP1 LOG2 POP POP JUMP JUMPDEST PUSH1 0x8 SLOAD DUP2 JUMP JUMPDEST PUSH2 0x35A5 PUSH32 0xA49807205CE4D355092EF5A8A18F56E8913CF4A201FBE287825B095693C21775 CALLER PUSH2 0x2940 JUMP JUMPDEST PUSH2 0x35AE JUMPI PUSH1 0x0 DUP1 REVERT JUMPDEST DUP1 PUSH1 0x6 DUP2 SWAP1 SSTORE POP POP JUMP JUMPDEST PUSH2 0x35E2 PUSH32 0xA49807205CE4D355092EF5A8A18F56E8913CF4A201FBE287825B095693C21775 CALLER PUSH2 0x2940 JUMP JUMPDEST PUSH2 0x35EB JUMPI PUSH1 0x0 DUP1 REVERT JUMPDEST PUSH1 0xB PUSH1 0x0 DUP3 PUSH20 0xFFFFFFFFFFFFFFFFFFFFFFFFFFFFFFFFFFFFFFFF AND PUSH20 0xFFFFFFFFFFFFFFFFFFFFFFFFFFFFFFFFFFFFFFFF AND DUP2 MSTORE PUSH1 0x20 ADD SWAP1 DUP2 MSTORE PUSH1 0x20 ADD PUSH1 0x0 KECCAK256 PUSH1 0x0 SWAP1 SLOAD SWAP1 PUSH2 0x100 EXP SWAP1 DIV PUSH1 0xFF AND PUSH2 0x3677 JUMPI PUSH1 0x40 MLOAD PUSH32 0x8C379A000000000000000000000000000000000000000000000000000000000 DUP2 MSTORE PUSH1 0x4 ADD PUSH2 0x366E SWAP1 PUSH2 0x51F0 JUMP JUMPDEST PUSH1 0x40 MLOAD DUP1 SWAP2 SUB SWAP1 REVERT JUMPDEST PUSH1 0x0 PUSH1 0x60 DUP3 PUSH20 0xFFFFFFFFFFFFFFFFFFFFFFFFFFFFFFFFFFFFFFFF AND PUSH1 0x4 PUSH1 0x0 SWAP1 SLOAD SWAP1 PUSH2 0x100 EXP SWAP1 DIV PUSH20 0xFFFFFFFFFFFFFFFFFFFFFFFFFFFFFFFFFFFFFFFF AND PUSH20 0xFFFFFFFFFFFFFFFFFFFFFFFFFFFFFFFFFFFFFFFF AND PUSH4 0x6352211E DUP7 PUSH1 0x40 MLOAD DUP3 PUSH4 0xFFFFFFFF AND PUSH1 0xE0 SHL DUP2 MSTORE PUSH1 0x4 ADD PUSH2 0x36ED SWAP2 SWAP1 PUSH2 0x4578 JUMP JUMPDEST PUSH1 0x20 PUSH1 0x40 MLOAD DUP1 DUP4 SUB DUP2 DUP7 GAS STATICCALL ISZERO DUP1 ISZERO PUSH2 0x370A JUMPI RETURNDATASIZE PUSH1 0x0 DUP1 RETURNDATACOPY RETURNDATASIZE PUSH1 0x0 REVERT JUMPDEST POP POP POP POP PUSH1 0x40 MLOAD RETURNDATASIZE PUSH1 0x1F NOT PUSH1 0x1F DUP3 ADD AND DUP3 ADD DUP1 PUSH1 0x40 MSTORE POP DUP2 ADD SWAP1 PUSH2 0x372E SWAP2 SWAP1 PUSH2 0x5807 JUMP JUMPDEST PUSH20 0xFFFFFFFFFFFFFFFFFFFFFFFFFFFFFFFFFFFFFFFF AND EQ PUSH2 0x3889 JUMPI PUSH1 0x4 PUSH1 0x0 SWAP1 SLOAD SWAP1 PUSH2 0x100 EXP SWAP1 DIV PUSH20 0xFFFFFFFFFFFFFFFFFFFFFFFFFFFFFFFFFFFFFFFF AND PUSH20 0xFFFFFFFFFFFFFFFFFFFFFFFFFFFFFFFFFFFFFFFF AND PUSH4 0x18148F1B DUP5 PUSH1 0x40 MLOAD DUP3 PUSH4 0xFFFFFFFF AND PUSH1 0xE0 SHL DUP2 MSTORE PUSH1 0x4 ADD PUSH2 0x37A4 SWAP2 SWAP1 PUSH2 0x4F90 JUMP JUMPDEST PUSH1 0x0 PUSH1 0x40 MLOAD DUP1 DUP4 SUB DUP2 DUP7 GAS STATICCALL ISZERO DUP1 ISZERO PUSH2 0x37C1 JUMPI RETURNDATASIZE PUSH1 0x0 DUP1 RETURNDATACOPY RETURNDATASIZE PUSH1 0x0 REVERT JUMPDEST POP POP POP POP PUSH1 0x40 MLOAD RETURNDATASIZE PUSH1 0x0 DUP3 RETURNDATACOPY RETURNDATASIZE PUSH1 0x1F NOT PUSH1 0x1F DUP3 ADD AND DUP3 ADD DUP1 PUSH1 0x40 MSTORE POP DUP2 ADD SWAP1 PUSH2 0x37EA SWAP2 SWAP1 PUSH2 0x58F7 JUMP JUMPDEST SWAP1 POP PUSH1 0x0 DUP2 MLOAD GT ISZERO PUSH2 0x3860 JUMPI DUP1 PUSH1 0x0 DUP2 MLOAD DUP2 LT PUSH2 0x380A JUMPI PUSH2 0x3809 PUSH2 0x5175 JUMP JUMPDEST JUMPDEST PUSH1 0x20 MUL PUSH1 0x20 ADD ADD MLOAD SWAP2 POP DUP2 PUSH1 0xA PUSH1 0x0 DUP6 PUSH20 0xFFFFFFFFFFFFFFFFFFFFFFFFFFFFFFFFFFFFFFFF AND PUSH20 0xFFFFFFFFFFFFFFFFFFFFFFFFFFFFFFFFFFFFFFFF AND DUP2 MSTORE PUSH1 0x20 ADD SWAP1 DUP2 MSTORE PUSH1 0x20 ADD PUSH1 0x0 KECCAK256 PUSH1 0x18 ADD DUP2 SWAP1 SSTORE POP PUSH2 0x3884 JUMP JUMPDEST PUSH32 0xFFFFFFFFFFFFFFFFFFFFFFFFFFFFFFFFFFFFFFFFFFFFFFFFFFFFFFFFFFFFFFFF SWAP2 POP JUMPDEST PUSH2 0x38D4 JUMP JUMPDEST DUP4 PUSH1 0xA PUSH1 0x0 DUP6 PUSH20 0xFFFFFFFFFFFFFFFFFFFFFFFFFFFFFFFFFFFFFFFF AND PUSH20 0xFFFFFFFFFFFFFFFFFFFFFFFFFFFFFFFFFFFFFFFF AND DUP2 MSTORE PUSH1 0x20 ADD SWAP1 DUP2 MSTORE PUSH1 0x20 ADD PUSH1 0x0 KECCAK256 PUSH1 0x18 ADD DUP2 SWAP1 SSTORE POP DUP4 SWAP2 POP JUMPDEST DUP3 PUSH20 0xFFFFFFFFFFFFFFFFFFFFFFFFFFFFFFFFFFFFFFFF AND PUSH32 0xCC9803FF35BBB65900301A2B84F90AD432FD23B513FB5DDDCB6F4568CB9C54C9 DUP4 PUSH1 0x40 MLOAD PUSH2 0x391A SWAP2 SWAP1 PUSH2 0x4578 JUMP JUMPDEST PUSH1 0x40 MLOAD DUP1 SWAP2 SUB SWAP1 LOG2 POP POP POP POP JUMP JUMPDEST PUSH2 0x3952 PUSH32 0xA49807205CE4D355092EF5A8A18F56E8913CF4A201FBE287825B095693C21775 CALLER PUSH2 0x2940 JUMP JUMPDEST PUSH2 0x395B JUMPI PUSH1 0x0 DUP1 REVERT JUMPDEST PUSH1 0xB PUSH1 0x0 DUP4 PUSH20 0xFFFFFFFFFFFFFFFFFFFFFFFFFFFFFFFFFFFFFFFF AND PUSH20 0xFFFFFFFFFFFFFFFFFFFFFFFFFFFFFFFFFFFFFFFF AND DUP2 MSTORE PUSH1 0x20 ADD SWAP1 DUP2 MSTORE PUSH1 0x20 ADD PUSH1 0x0 KECCAK256 PUSH1 0x0 SWAP1 SLOAD SWAP1 PUSH2 0x100 EXP SWAP1 DIV PUSH1 0xFF AND PUSH2 0x39B1 JUMPI PUSH1 0x0 DUP1 REVERT JUMPDEST DUP1 PUSH1 0xA PUSH1 0x0 DUP5 PUSH20 0xFFFFFFFFFFFFFFFFFFFFFFFFFFFFFFFFFFFFFFFF AND PUSH20 0xFFFFFFFFFFFFFFFFFFFFFFFFFFFFFFFFFFFFFFFF AND DUP2 MSTORE PUSH1 0x20 ADD SWAP1 DUP2 MSTORE PUSH1 0x20 ADD PUSH1 0x0 KECCAK256 PUSH1 0x0 ADD DUP2 SWAP1 SSTORE POP POP POP JUMP JUMPDEST PUSH1 0x0 PUSH1 0x8 SLOAD SWAP1 POP SWAP1 JUMP JUMPDEST PUSH2 0x3A0E PUSH2 0x3C2E JUMP JUMPDEST PUSH1 0x0 PUSH20 0xFFFFFFFFFFFFFFFFFFFFFFFFFFFFFFFFFFFFFFFF AND DUP2 PUSH20 0xFFFFFFFFFFFFFFFFFFFFFFFFFFFFFFFFFFFFFFFF AND SUB PUSH2 0x3A47 JUMPI PUSH1 0x0 DUP1 REVERT JUMPDEST DUP1 PUSH1 0x5 PUSH1 0x0 PUSH2 0x100 EXP DUP2 SLOAD DUP2 PUSH20 0xFFFFFFFFFFFFFFFFFFFFFFFFFFFFFFFFFFFFFFFF MUL NOT AND SWAP1 DUP4 PUSH20 0xFFFFFFFFFFFFFFFFFFFFFFFFFFFFFFFFFFFFFFFF AND MUL OR SWAP1 SSTORE POP DUP1 PUSH20 0xFFFFFFFFFFFFFFFFFFFFFFFFFFFFFFFFFFFFFFFF AND PUSH2 0x3AA7 PUSH2 0x2917 JUMP JUMPDEST PUSH20 0xFFFFFFFFFFFFFFFFFFFFFFFFFFFFFFFFFFFFFFFF AND PUSH32 0x38D16B8CAC22D99FC7C124B9CD0DE2D3FA1FAEF420BFE791D8C362D765E22700 PUSH1 0x40 MLOAD PUSH1 0x40 MLOAD DUP1 SWAP2 SUB SWAP1 LOG3 POP JUMP JUMPDEST PUSH1 0x0 PUSH1 0xB PUSH1 0x0 DUP4 PUSH20 0xFFFFFFFFFFFFFFFFFFFFFFFFFFFFFFFFFFFFFFFF AND PUSH20 0xFFFFFFFFFFFFFFFFFFFFFFFFFFFFFFFFFFFFFFFF AND DUP2 MSTORE PUSH1 0x20 ADD SWAP1 DUP2 MSTORE PUSH1 0x20 ADD PUSH1 0x0 KECCAK256 PUSH1 0x0 SWAP1 SLOAD SWAP1 PUSH2 0x100 EXP SWAP1 DIV PUSH1 0xFF AND PUSH2 0x3B7A JUMPI PUSH1 0x40 MLOAD PUSH32 0x8C379A000000000000000000000000000000000000000000000000000000000 DUP2 MSTORE PUSH1 0x4 ADD PUSH2 0x3B71 SWAP1 PUSH2 0x51F0 JUMP JUMPDEST PUSH1 0x40 MLOAD DUP1 SWAP2 SUB SWAP1 REVERT JUMPDEST PUSH1 0xA PUSH1 0x0 DUP4 PUSH20 0xFFFFFFFFFFFFFFFFFFFFFFFFFFFFFFFFFFFFFFFF AND PUSH20 0xFFFFFFFFFFFFFFFFFFFFFFFFFFFFFFFFFFFFFFFF AND DUP2 MSTORE PUSH1 0x20 ADD SWAP1 DUP2 MSTORE PUSH1 0x20 ADD PUSH1 0x0 KECCAK256 PUSH1 0x17 ADD SLOAD SWAP1 POP SWAP2 SWAP1 POP JUMP JUMPDEST PUSH1 0x0 PUSH32 0x1FFC9A700000000000000000000000000000000000000000000000000000000 PUSH28 0xFFFFFFFFFFFFFFFFFFFFFFFFFFFFFFFFFFFFFFFFFFFFFFFFFFFFFFFF NOT AND DUP3 PUSH28 0xFFFFFFFFFFFFFFFFFFFFFFFFFFFFFFFFFFFFFFFFFFFFFFFFFFFFFFFF NOT AND EQ SWAP1 POP SWAP2 SWAP1 POP JUMP JUMPDEST PUSH2 0x3C36 PUSH2 0x3DA0 JUMP JUMPDEST PUSH20 0xFFFFFFFFFFFFFFFFFFFFFFFFFFFFFFFFFFFFFFFF AND PUSH2 0x3C54 PUSH2 0x2917 JUMP JUMPDEST PUSH20 0xFFFFFFFFFFFFFFFFFFFFFFFFFFFFFFFFFFFFFFFF AND EQ PUSH2 0x3CAA JUMPI PUSH1 0x40 MLOAD PUSH32 0x8C379A000000000000000000000000000000000000000000000000000000000 DUP2 MSTORE PUSH1 0x4 ADD PUSH2 0x3CA1 SWAP1 PUSH2 0x5A7E JUMP JUMPDEST PUSH1 0x40 MLOAD DUP1 SWAP2 SUB SWAP1 REVERT JUMPDEST JUMP JUMPDEST PUSH2 0x3CBD DUP2 PUSH2 0x3CB8 PUSH2 0x3DA0 JUMP JUMPDEST PUSH2 0x3F4E JUMP JUMPDEST POP JUMP JUMPDEST PUSH2 0x3CCA DUP3 DUP3 PUSH2 0x2940 JUMP JUMPDEST PUSH2 0x3D9C JUMPI PUSH1 0x1 DUP1 PUSH1 0x0 DUP5 DUP2 MSTORE PUSH1 0x20 ADD SWAP1 DUP2 MSTORE PUSH1 0x20 ADD PUSH1 0x0 KECCAK256 PUSH1 0x0 ADD PUSH1 0x0 DUP4 PUSH20 0xFFFFFFFFFFFFFFFFFFFFFFFFFFFFFFFFFFFFFFFF AND PUSH20 0xFFFFFFFFFFFFFFFFFFFFFFFFFFFFFFFFFFFFFFFF AND DUP2 MSTORE PUSH1 0x20 ADD SWAP1 DUP2 MSTORE PUSH1 0x20 ADD PUSH1 0x0 KECCAK256 PUSH1 0x0 PUSH2 0x100 EXP DUP2 SLOAD DUP2 PUSH1 0xFF MUL NOT AND SWAP1 DUP4 ISZERO ISZERO MUL OR SWAP1 SSTORE POP PUSH2 0x3D41 PUSH2 0x3DA0 JUMP JUMPDEST PUSH20 0xFFFFFFFFFFFFFFFFFFFFFFFFFFFFFFFFFFFFFFFF AND DUP2 PUSH20 0xFFFFFFFFFFFFFFFFFFFFFFFFFFFFFFFFFFFFFFFF AND DUP4 PUSH32 0x2F8788117E7EFF1D82E926EC794901D17C78024A50270940304540A733656F0D PUSH1 0x40 MLOAD PUSH1 0x40 MLOAD DUP1 SWAP2 SUB SWAP1 LOG4 JUMPDEST POP POP JUMP JUMPDEST PUSH1 0x0 CALLER SWAP1 POP SWAP1 JUMP JUMPDEST PUSH2 0x3DB2 DUP3 DUP3 PUSH2 0x2940 JUMP JUMPDEST ISZERO PUSH2 0x3E86 JUMPI PUSH1 0x0 PUSH1 0x1 PUSH1 0x0 DUP5 DUP2 MSTORE PUSH1 0x20 ADD SWAP1 DUP2 MSTORE PUSH1 0x20 ADD PUSH1 0x0 KECCAK256 PUSH1 0x0 ADD PUSH1 0x0 DUP4 PUSH20 0xFFFFFFFFFFFFFFFFFFFFFFFFFFFFFFFFFFFFFFFF AND PUSH20 0xFFFFFFFFFFFFFFFFFFFFFFFFFFFFFFFFFFFFFFFF AND DUP2 MSTORE PUSH1 0x20 ADD SWAP1 DUP2 MSTORE PUSH1 0x20 ADD PUSH1 0x0 KECCAK256 PUSH1 0x0 PUSH2 0x100 EXP DUP2 SLOAD DUP2 PUSH1 0xFF MUL NOT AND SWAP1 DUP4 ISZERO ISZERO MUL OR SWAP1 SSTORE POP PUSH2 0x3E2B PUSH2 0x3DA0 JUMP JUMPDEST PUSH20 0xFFFFFFFFFFFFFFFFFFFFFFFFFFFFFFFFFFFFFFFF AND DUP2 PUSH20 0xFFFFFFFFFFFFFFFFFFFFFFFFFFFFFFFFFFFFFFFF AND DUP4 PUSH32 0xF6391F5C32D9C69D2A47EA670B442974B53935D1EDC7FD64EB21E047A839171B PUSH1 0x40 MLOAD PUSH1 0x40 MLOAD DUP1 SWAP2 SUB SWAP1 LOG4 JUMPDEST POP POP JUMP JUMPDEST PUSH1 0x0 DUP1 PUSH1 0x0 SWAP1 SLOAD SWAP1 PUSH2 0x100 EXP SWAP1 DIV PUSH20 0xFFFFFFFFFFFFFFFFFFFFFFFFFFFFFFFFFFFFFFFF AND SWAP1 POP DUP2 PUSH1 0x0 DUP1 PUSH2 0x100 EXP DUP2 SLOAD DUP2 PUSH20 0xFFFFFFFFFFFFFFFFFFFFFFFFFFFFFFFFFFFFFFFF MUL NOT AND SWAP1 DUP4 PUSH20 0xFFFFFFFFFFFFFFFFFFFFFFFFFFFFFFFFFFFFFFFF AND MUL OR SWAP1 SSTORE POP DUP2 PUSH20 0xFFFFFFFFFFFFFFFFFFFFFFFFFFFFFFFFFFFFFFFF AND DUP2 PUSH20 0xFFFFFFFFFFFFFFFFFFFFFFFFFFFFFFFFFFFFFFFF AND PUSH32 0x8BE0079C531659141344CD1FD0A4F28419497F9722A3DAAFE3B4186F6B6457E0 PUSH1 0x40 MLOAD PUSH1 0x40 MLOAD DUP1 SWAP2 SUB SWAP1 LOG3 POP POP JUMP JUMPDEST PUSH2 0x3F58 DUP3 DUP3 PUSH2 0x2940 JUMP JUMPDEST PUSH2 0x3FCF JUMPI PUSH2 0x3F65 DUP2 PUSH2 0x3FD3 JUMP JUMPDEST PUSH2 0x3F73 DUP4 PUSH1 0x0 SHR PUSH1 0x20 PUSH2 0x4000 JUMP JUMPDEST PUSH1 0x40 MLOAD PUSH1 0x20 ADD PUSH2 0x3F84 SWAP3 SWAP2 SWAP1 PUSH2 0x5BA7 JUMP JUMPDEST PUSH1 0x40 MLOAD PUSH1 0x20 DUP2 DUP4 SUB SUB DUP2 MSTORE SWAP1 PUSH1 0x40 MSTORE PUSH1 0x40 MLOAD PUSH32 0x8C379A000000000000000000000000000000000000000000000000000000000 DUP2 MSTORE PUSH1 0x4 ADD PUSH2 0x3FC6 SWAP2 SWAP1 PUSH2 0x5C1A JUMP JUMPDEST PUSH1 0x40 MLOAD DUP1 SWAP2 SUB SWAP1 REVERT JUMPDEST POP POP JUMP JUMPDEST PUSH1 0x60 PUSH2 0x3FF9 DUP3 PUSH20 0xFFFFFFFFFFFFFFFFFFFFFFFFFFFFFFFFFFFFFFFF AND PUSH1 0x14 PUSH1 0xFF AND PUSH2 0x4000 JUMP JUMPDEST SWAP1 POP SWAP2 SWAP1 POP JUMP JUMPDEST PUSH1 0x60 PUSH1 0x0 PUSH1 0x2 DUP4 PUSH1 0x2 PUSH2 0x4013 SWAP2 SWAP1 PUSH2 0x5670 JUMP JUMPDEST PUSH2 0x401D SWAP2 SWAP1 PUSH2 0x55D0 JUMP JUMPDEST PUSH8 0xFFFFFFFFFFFFFFFF DUP2 GT ISZERO PUSH2 0x4036 JUMPI PUSH2 0x4035 PUSH2 0x45A9 JUMP JUMPDEST JUMPDEST PUSH1 0x40 MLOAD SWAP1 DUP1 DUP3 MSTORE DUP1 PUSH1 0x1F ADD PUSH1 0x1F NOT AND PUSH1 0x20 ADD DUP3 ADD PUSH1 0x40 MSTORE DUP1 ISZERO PUSH2 0x4068 JUMPI DUP2 PUSH1 0x20 ADD PUSH1 0x1 DUP3 MUL DUP1 CALLDATASIZE DUP4 CALLDATACOPY DUP1 DUP3 ADD SWAP2 POP POP SWAP1 POP JUMPDEST POP SWAP1 POP PUSH32 0x3000000000000000000000000000000000000000000000000000000000000000 DUP2 PUSH1 0x0 DUP2 MLOAD DUP2 LT PUSH2 0x40A0 JUMPI PUSH2 0x409F PUSH2 0x5175 JUMP JUMPDEST JUMPDEST PUSH1 0x20 ADD ADD SWAP1 PUSH31 0xFFFFFFFFFFFFFFFFFFFFFFFFFFFFFFFFFFFFFFFFFFFFFFFFFFFFFFFFFFFFFF NOT AND SWAP1 DUP2 PUSH1 0x0 BYTE SWAP1 MSTORE8 POP PUSH32 0x7800000000000000000000000000000000000000000000000000000000000000 DUP2 PUSH1 0x1 DUP2 MLOAD DUP2 LT PUSH2 0x4104 JUMPI PUSH2 0x4103 PUSH2 0x5175 JUMP JUMPDEST JUMPDEST PUSH1 0x20 ADD ADD SWAP1 PUSH31 0xFFFFFFFFFFFFFFFFFFFFFFFFFFFFFFFFFFFFFFFFFFFFFFFFFFFFFFFFFFFFFF NOT AND SWAP1 DUP2 PUSH1 0x0 BYTE SWAP1 MSTORE8 POP PUSH1 0x0 PUSH1 0x1 DUP5 PUSH1 0x2 PUSH2 0x4144 SWAP2 SWAP1 PUSH2 0x5670 JUMP JUMPDEST PUSH2 0x414E SWAP2 SWAP1 PUSH2 0x55D0 JUMP JUMPDEST SWAP1 POP JUMPDEST PUSH1 0x1 DUP2 GT ISZERO PUSH2 0x41EE JUMPI PUSH32 0x3031323334353637383961626364656600000000000000000000000000000000 PUSH1 0xF DUP7 AND PUSH1 0x10 DUP2 LT PUSH2 0x4190 JUMPI PUSH2 0x418F PUSH2 0x5175 JUMP JUMPDEST JUMPDEST BYTE PUSH1 0xF8 SHL DUP3 DUP3 DUP2 MLOAD DUP2 LT PUSH2 0x41A7 JUMPI PUSH2 0x41A6 PUSH2 0x5175 JUMP JUMPDEST JUMPDEST PUSH1 0x20 ADD ADD SWAP1 PUSH31 0xFFFFFFFFFFFFFFFFFFFFFFFFFFFFFFFFFFFFFFFFFFFFFFFFFFFFFFFFFFFFFF NOT AND SWAP1 DUP2 PUSH1 0x0 BYTE SWAP1 MSTORE8 POP PUSH1 0x4 DUP6 SWAP1 SHR SWAP5 POP DUP1 PUSH2 0x41E7 SWAP1 PUSH2 0x5C3C JUMP JUMPDEST SWAP1 POP PUSH2 0x4151 JUMP JUMPDEST POP PUSH1 0x0 DUP5 EQ PUSH2 0x4232 JUMPI PUSH1 0x40 MLOAD PUSH32 0x8C379A000000000000000000000000000000000000000000000000000000000 DUP2 MSTORE PUSH1 0x4 ADD PUSH2 0x4229 SWAP1 PUSH2 0x5CB1 JUMP JUMPDEST PUSH1 0x40 MLOAD DUP1 SWAP2 SUB SWAP1 REVERT JUMPDEST DUP1 SWAP2 POP POP SWAP3 SWAP2 POP POP JUMP JUMPDEST DUP3 PUSH1 0x5 DUP2 ADD SWAP3 DUP3 ISZERO PUSH2 0x426B JUMPI SWAP2 PUSH1 0x20 MUL DUP3 ADD JUMPDEST DUP3 DUP2 GT ISZERO PUSH2 0x426A JUMPI DUP3 MLOAD DUP3 SSTORE SWAP2 PUSH1 0x20 ADD SWAP2 SWAP1 PUSH1 0x1 ADD SWAP1 PUSH2 0x424F JUMP JUMPDEST JUMPDEST POP SWAP1 POP PUSH2 0x4278 SWAP2 SWAP1 PUSH2 0x436E JUMP JUMPDEST POP SWAP1 JUMP JUMPDEST DUP3 PUSH1 0xA DUP2 ADD SWAP3 DUP3 ISZERO PUSH2 0x42AB JUMPI SWAP2 PUSH1 0x20 MUL DUP3 ADD JUMPDEST DUP3 DUP2 GT ISZERO PUSH2 0x42AA JUMPI DUP3 MLOAD DUP3 SSTORE SWAP2 PUSH1 0x20 ADD SWAP2 SWAP1 PUSH1 0x1 ADD SWAP1 PUSH2 0x428F JUMP JUMPDEST JUMPDEST POP SWAP1 POP PUSH2 0x42B8 SWAP2 SWAP1 PUSH2 0x436E JUMP JUMPDEST POP SWAP1 JUMP JUMPDEST PUSH1 0x40 MLOAD DUP1 PUSH2 0x180 ADD PUSH1 0x40 MSTORE DUP1 PUSH1 0x0 DUP2 MSTORE PUSH1 0x20 ADD PUSH1 0x0 DUP2 MSTORE PUSH1 0x20 ADD PUSH1 0x0 DUP2 MSTORE PUSH1 0x20 ADD PUSH2 0x42E5 PUSH2 0x4329 JUMP JUMPDEST DUP2 MSTORE PUSH1 0x20 ADD PUSH1 0x0 DUP2 MSTORE PUSH1 0x20 ADD PUSH1 0x0 DUP2 MSTORE PUSH1 0x20 ADD PUSH1 0x0 DUP2 MSTORE PUSH1 0x20 ADD PUSH1 0x0 DUP2 MSTORE PUSH1 0x20 ADD PUSH1 0x0 DUP2 MSTORE PUSH1 0x20 ADD PUSH2 0x4315 PUSH2 0x434B JUMP JUMPDEST DUP2 MSTORE PUSH1 0x20 ADD PUSH1 0x0 DUP2 MSTORE PUSH1 0x20 ADD PUSH1 0x0 DUP2 MSTORE POP SWAP1 JUMP JUMPDEST PUSH1 0x40 MLOAD DUP1 PUSH1 0xA0 ADD PUSH1 0x40 MSTORE DUP1 PUSH1 0x5 SWAP1 PUSH1 0x20 DUP3 MUL DUP1 CALLDATASIZE DUP4 CALLDATACOPY DUP1 DUP3 ADD SWAP2 POP POP SWAP1 POP POP SWAP1 JUMP JUMPDEST PUSH1 0x40 MLOAD DUP1 PUSH2 0x140 ADD PUSH1 0x40 MSTORE DUP1 PUSH1 0xA SWAP1 PUSH1 0x20 DUP3 MUL DUP1 CALLDATASIZE DUP4 CALLDATACOPY DUP1 DUP3 ADD SWAP2 POP POP SWAP1 POP POP SWAP1 JUMP JUMPDEST JUMPDEST DUP1 DUP3 GT ISZERO PUSH2 0x4387 JUMPI PUSH1 0x0 DUP2 PUSH1 0x0 SWAP1 SSTORE POP PUSH1 0x1 ADD PUSH2 0x436F JUMP JUMPDEST POP SWAP1 JUMP JUMPDEST PUSH1 0x0 PUSH1 0x40 MLOAD SWAP1 POP SWAP1 JUMP JUMPDEST PUSH1 0x0 DUP1 REVERT JUMPDEST PUSH1 0x0 DUP1 REVERT JUMPDEST PUSH1 0x0 PUSH32 0xFFFFFFFF00000000000000000000000000000000000000000000000000000000 DUP3 AND SWAP1 POP SWAP2 SWAP1 POP JUMP JUMPDEST PUSH2 0x43D4 DUP2 PUSH2 0x439F JUMP JUMPDEST DUP2 EQ PUSH2 0x43DF JUMPI PUSH1 0x0 DUP1 REVERT JUMPDEST POP JUMP JUMPDEST PUSH1 0x0 DUP2 CALLDATALOAD SWAP1 POP PUSH2 0x43F1 DUP2 PUSH2 0x43CB JUMP JUMPDEST SWAP3 SWAP2 POP POP JUMP JUMPDEST PUSH1 0x0 PUSH1 0x20 DUP3 DUP5 SUB SLT ISZERO PUSH2 0x440D JUMPI PUSH2 0x440C PUSH2 0x4395 JUMP JUMPDEST JUMPDEST PUSH1 0x0 PUSH2 0x441B DUP5 DUP3 DUP6 ADD PUSH2 0x43E2 JUMP JUMPDEST SWAP2 POP POP SWAP3 SWAP2 POP POP JUMP JUMPDEST PUSH1 0x0 DUP2 ISZERO ISZERO SWAP1 POP SWAP2 SWAP1 POP JUMP JUMPDEST PUSH2 0x4439 DUP2 PUSH2 0x4424 JUMP JUMPDEST DUP3 MSTORE POP POP JUMP JUMPDEST PUSH1 0x0 PUSH1 0x20 DUP3 ADD SWAP1 POP PUSH2 0x4454 PUSH1 0x0 DUP4 ADD DUP5 PUSH2 0x4430 JUMP JUMPDEST SWAP3 SWAP2 POP POP JUMP JUMPDEST PUSH1 0x0 PUSH20 0xFFFFFFFFFFFFFFFFFFFFFFFFFFFFFFFFFFFFFFFF DUP3 AND SWAP1 POP SWAP2 SWAP1 POP JUMP JUMPDEST PUSH1 0x0 DUP2 SWAP1 POP SWAP2 SWAP1 POP JUMP JUMPDEST PUSH1 0x0 PUSH2 0x449F PUSH2 0x449A PUSH2 0x4495 DUP5 PUSH2 0x445A JUMP JUMPDEST PUSH2 0x447A JUMP JUMPDEST PUSH2 0x445A JUMP JUMPDEST SWAP1 POP SWAP2 SWAP1 POP JUMP JUMPDEST PUSH1 0x0 PUSH2 0x44B1 DUP3 PUSH2 0x4484 JUMP JUMPDEST SWAP1 POP SWAP2 SWAP1 POP JUMP JUMPDEST PUSH1 0x0 PUSH2 0x44C3 DUP3 PUSH2 0x44A6 JUMP JUMPDEST SWAP1 POP SWAP2 SWAP1 POP JUMP JUMPDEST PUSH2 0x44D3 DUP2 PUSH2 0x44B8 JUMP JUMPDEST DUP3 MSTORE POP POP JUMP JUMPDEST PUSH1 0x0 PUSH1 0x20 DUP3 ADD SWAP1 POP PUSH2 0x44EE PUSH1 0x0 DUP4 ADD DUP5 PUSH2 0x44CA JUMP JUMPDEST SWAP3 SWAP2 POP POP JUMP JUMPDEST PUSH1 0x0 PUSH2 0x44FF DUP3 PUSH2 0x445A JUMP JUMPDEST SWAP1 POP SWAP2 SWAP1 POP JUMP JUMPDEST PUSH2 0x450F DUP2 PUSH2 0x44F4 JUMP JUMPDEST DUP2 EQ PUSH2 0x451A JUMPI PUSH1 0x0 DUP1 REVERT JUMPDEST POP JUMP JUMPDEST PUSH1 0x0 DUP2 CALLDATALOAD SWAP1 POP PUSH2 0x452C DUP2 PUSH2 0x4506 JUMP JUMPDEST SWAP3 SWAP2 POP POP JUMP JUMPDEST PUSH1 0x0 PUSH1 0x20 DUP3 DUP5 SUB SLT ISZERO PUSH2 0x4548 JUMPI PUSH2 0x4547 PUSH2 0x4395 JUMP JUMPDEST JUMPDEST PUSH1 0x0 PUSH2 0x4556 DUP5 DUP3 DUP6 ADD PUSH2 0x451D JUMP JUMPDEST SWAP2 POP POP SWAP3 SWAP2 POP POP JUMP JUMPDEST PUSH1 0x0 DUP2 SWAP1 POP SWAP2 SWAP1 POP JUMP JUMPDEST PUSH2 0x4572 DUP2 PUSH2 0x455F JUMP JUMPDEST DUP3 MSTORE POP POP JUMP JUMPDEST PUSH1 0x0 PUSH1 0x20 DUP3 ADD SWAP1 POP PUSH2 0x458D PUSH1 0x0 DUP4 ADD DUP5 PUSH2 0x4569 JUMP JUMPDEST SWAP3 SWAP2 POP POP JUMP JUMPDEST PUSH1 0x0 DUP1 REVERT JUMPDEST PUSH1 0x0 PUSH1 0x1F NOT PUSH1 0x1F DUP4 ADD AND SWAP1 POP SWAP2 SWAP1 POP JUMP JUMPDEST PUSH32 0x4E487B7100000000000000000000000000000000000000000000000000000000 PUSH1 0x0 MSTORE PUSH1 0x41 PUSH1 0x4 MSTORE PUSH1 0x24 PUSH1 0x0 REVERT JUMPDEST PUSH2 0x45E1 DUP3 PUSH2 0x4598 JUMP JUMPDEST DUP2 ADD DUP2 DUP2 LT PUSH8 0xFFFFFFFFFFFFFFFF DUP3 GT OR ISZERO PUSH2 0x4600 JUMPI PUSH2 0x45FF PUSH2 0x45A9 JUMP JUMPDEST JUMPDEST DUP1 PUSH1 0x40 MSTORE POP POP POP JUMP JUMPDEST PUSH1 0x0 PUSH2 0x4613 PUSH2 0x438B JUMP JUMPDEST SWAP1 POP PUSH2 0x461F DUP3 DUP3 PUSH2 0x45D8 JUMP JUMPDEST SWAP2 SWAP1 POP JUMP JUMPDEST PUSH1 0x0 PUSH8 0xFFFFFFFFFFFFFFFF DUP3 GT ISZERO PUSH2 0x463F JUMPI PUSH2 0x463E PUSH2 0x45A9 JUMP JUMPDEST JUMPDEST PUSH1 0x20 DUP3 MUL SWAP1 POP PUSH1 0x20 DUP2 ADD SWAP1 POP SWAP2 SWAP1 POP JUMP JUMPDEST PUSH1 0x0 DUP1 REVERT JUMPDEST PUSH1 0x0 DUP1 REVERT JUMPDEST PUSH2 0x4663 DUP2 PUSH2 0x455F JUMP JUMPDEST DUP2 EQ PUSH2 0x466E JUMPI PUSH1 0x0 DUP1 REVERT JUMPDEST POP JUMP JUMPDEST PUSH1 0x0 DUP2 CALLDATALOAD SWAP1 POP PUSH2 0x4680 DUP2 PUSH2 0x465A JUMP JUMPDEST SWAP3 SWAP2 POP POP JUMP JUMPDEST PUSH1 0x0 PUSH8 0xFFFFFFFFFFFFFFFF DUP3 GT ISZERO PUSH2 0x46A1 JUMPI PUSH2 0x46A0 PUSH2 0x45A9 JUMP JUMPDEST JUMPDEST PUSH1 0x20 DUP3 MUL SWAP1 POP SWAP2 SWAP1 POP JUMP JUMPDEST PUSH1 0x0 PUSH2 0x46BF PUSH2 0x46BA DUP5 PUSH2 0x4686 JUMP JUMPDEST PUSH2 0x4609 JUMP JUMPDEST SWAP1 POP DUP1 PUSH1 0x20 DUP5 MUL DUP4 ADD DUP6 DUP2 GT ISZERO PUSH2 0x46D9 JUMPI PUSH2 0x46D8 PUSH2 0x4650 JUMP JUMPDEST JUMPDEST DUP4 JUMPDEST DUP2 DUP2 LT ISZERO PUSH2 0x4702 JUMPI DUP1 PUSH2 0x46EE DUP9 DUP3 PUSH2 0x4671 JUMP JUMPDEST DUP5 MSTORE PUSH1 0x20 DUP5 ADD SWAP4 POP POP PUSH1 0x20 DUP2 ADD SWAP1 POP PUSH2 0x46DB JUMP JUMPDEST POP POP POP SWAP4 SWAP3 POP POP POP JUMP JUMPDEST PUSH1 0x0 DUP3 PUSH1 0x1F DUP4 ADD SLT PUSH2 0x4721 JUMPI PUSH2 0x4720 PUSH2 0x4593 JUMP JUMPDEST JUMPDEST PUSH1 0x5 PUSH2 0x472E DUP5 DUP3 DUP6 PUSH2 0x46AC JUMP JUMPDEST SWAP2 POP POP SWAP3 SWAP2 POP POP JUMP JUMPDEST PUSH1 0x0 PUSH8 0xFFFFFFFFFFFFFFFF DUP3 GT ISZERO PUSH2 0x4752 JUMPI PUSH2 0x4751 PUSH2 0x45A9 JUMP JUMPDEST JUMPDEST PUSH1 0x20 DUP3 MUL SWAP1 POP SWAP2 SWAP1 POP JUMP JUMPDEST PUSH1 0x0 PUSH2 0x4770 PUSH2 0x476B DUP5 PUSH2 0x4737 JUMP JUMPDEST PUSH2 0x4609 JUMP JUMPDEST SWAP1 POP DUP1 PUSH1 0x20 DUP5 MUL DUP4 ADD DUP6 DUP2 GT ISZERO PUSH2 0x478A JUMPI PUSH2 0x4789 PUSH2 0x4650 JUMP JUMPDEST JUMPDEST DUP4 JUMPDEST DUP2 DUP2 LT ISZERO PUSH2 0x47B3 JUMPI DUP1 PUSH2 0x479F DUP9 DUP3 PUSH2 0x4671 JUMP JUMPDEST DUP5 MSTORE PUSH1 0x20 DUP5 ADD SWAP4 POP POP PUSH1 0x20 DUP2 ADD SWAP1 POP PUSH2 0x478C JUMP JUMPDEST POP POP POP SWAP4 SWAP3 POP POP POP JUMP JUMPDEST PUSH1 0x0 DUP3 PUSH1 0x1F DUP4 ADD SLT PUSH2 0x47D2 JUMPI PUSH2 0x47D1 PUSH2 0x4593 JUMP JUMPDEST JUMPDEST PUSH1 0xA PUSH2 0x47DF DUP5 DUP3 DUP6 PUSH2 0x475D JUMP JUMPDEST SWAP2 POP POP SWAP3 SWAP2 POP POP JUMP JUMPDEST PUSH1 0x0 PUSH2 0x320 DUP3 DUP5 SUB SLT ISZERO PUSH2 0x47FF JUMPI PUSH2 0x47FE PUSH2 0x4655 JUMP JUMPDEST JUMPDEST PUSH2 0x480A PUSH2 0x180 PUSH2 0x4609 JUMP JUMPDEST SWAP1 POP PUSH1 0x0 PUSH2 0x481A DUP5 DUP3 DUP6 ADD PUSH2 0x4671 JUMP JUMPDEST PUSH1 0x0 DUP4 ADD MSTORE POP PUSH1 0x20 PUSH2 0x482E DUP5 DUP3 DUP6 ADD PUSH2 0x4671 JUMP JUMPDEST PUSH1 0x20 DUP4 ADD MSTORE POP PUSH1 0x40 PUSH2 0x4842 DUP5 DUP3 DUP6 ADD PUSH2 0x4671 JUMP JUMPDEST PUSH1 0x40 DUP4 ADD MSTORE POP PUSH1 0x60 PUSH2 0x4856 DUP5 DUP3 DUP6 ADD PUSH2 0x470C JUMP JUMPDEST PUSH1 0x60 DUP4 ADD MSTORE POP PUSH2 0x100 PUSH2 0x486B DUP5 DUP3 DUP6 ADD PUSH2 0x4671 JUMP JUMPDEST PUSH1 0x80 DUP4 ADD MSTORE POP PUSH2 0x120 PUSH2 0x4880 DUP5 DUP3 DUP6 ADD PUSH2 0x4671 JUMP JUMPDEST PUSH1 0xA0 DUP4 ADD MSTORE POP PUSH2 0x140 PUSH2 0x4895 DUP5 DUP3 DUP6 ADD PUSH2 0x4671 JUMP JUMPDEST PUSH1 0xC0 DUP4 ADD MSTORE POP PUSH2 0x160 PUSH2 0x48AA DUP5 DUP3 DUP6 ADD PUSH2 0x4671 JUMP JUMPDEST PUSH1 0xE0 DUP4 ADD MSTORE POP PUSH2 0x180 PUSH2 0x48BF DUP5 DUP3 DUP6 ADD PUSH2 0x4671 JUMP JUMPDEST PUSH2 0x100 DUP4 ADD MSTORE POP PUSH2 0x1A0 PUSH2 0x48D5 DUP5 DUP3 DUP6 ADD PUSH2 0x47BD JUMP JUMPDEST PUSH2 0x120 DUP4 ADD MSTORE POP PUSH2 0x2E0 PUSH2 0x48EB DUP5 DUP3 DUP6 ADD PUSH2 0x4671 JUMP JUMPDEST PUSH2 0x140 DUP4 ADD MSTORE POP PUSH2 0x300 PUSH2 0x4901 DUP5 DUP3 DUP6 ADD PUSH2 0x4671 JUMP JUMPDEST PUSH2 0x160 DUP4 ADD MSTORE POP SWAP3 SWAP2 POP POP JUMP JUMPDEST PUSH1 0x0 PUSH2 0x4921 PUSH2 0x491C DUP5 PUSH2 0x4624 JUMP JUMPDEST PUSH2 0x4609 JUMP JUMPDEST SWAP1 POP DUP1 DUP4 DUP3 MSTORE PUSH1 0x20 DUP3 ADD SWAP1 POP PUSH2 0x320 DUP5 MUL DUP4 ADD DUP6 DUP2 GT ISZERO PUSH2 0x4945 JUMPI PUSH2 0x4944 PUSH2 0x4650 JUMP JUMPDEST JUMPDEST DUP4 JUMPDEST DUP2 DUP2 LT ISZERO PUSH2 0x496F JUMPI DUP1 PUSH2 0x495A DUP9 DUP3 PUSH2 0x47E8 JUMP JUMPDEST DUP5 MSTORE PUSH1 0x20 DUP5 ADD SWAP4 POP POP PUSH2 0x320 DUP2 ADD SWAP1 POP PUSH2 0x4947 JUMP JUMPDEST POP POP POP SWAP4 SWAP3 POP POP POP JUMP JUMPDEST PUSH1 0x0 DUP3 PUSH1 0x1F DUP4 ADD SLT PUSH2 0x498E JUMPI PUSH2 0x498D PUSH2 0x4593 JUMP JUMPDEST JUMPDEST DUP2 CALLDATALOAD PUSH2 0x499E DUP5 DUP3 PUSH1 0x20 DUP7 ADD PUSH2 0x490E JUMP JUMPDEST SWAP2 POP POP SWAP3 SWAP2 POP POP JUMP JUMPDEST PUSH1 0x0 PUSH8 0xFFFFFFFFFFFFFFFF DUP3 GT ISZERO PUSH2 0x49C2 JUMPI PUSH2 0x49C1 PUSH2 0x45A9 JUMP JUMPDEST JUMPDEST PUSH1 0x20 DUP3 MUL SWAP1 POP PUSH1 0x20 DUP2 ADD SWAP1 POP SWAP2 SWAP1 POP JUMP JUMPDEST PUSH1 0x0 PUSH2 0x49E6 PUSH2 0x49E1 DUP5 PUSH2 0x49A7 JUMP JUMPDEST PUSH2 0x4609 JUMP JUMPDEST SWAP1 POP DUP1 DUP4 DUP3 MSTORE PUSH1 0x20 DUP3 ADD SWAP1 POP PUSH1 0x20 DUP5 MUL DUP4 ADD DUP6 DUP2 GT ISZERO PUSH2 0x4A09 JUMPI PUSH2 0x4A08 PUSH2 0x4650 JUMP JUMPDEST JUMPDEST DUP4 JUMPDEST DUP2 DUP2 LT ISZERO PUSH2 0x4A32 JUMPI DUP1 PUSH2 0x4A1E DUP9 DUP3 PUSH2 0x451D JUMP JUMPDEST DUP5 MSTORE PUSH1 0x20 DUP5 ADD SWAP4 POP POP PUSH1 0x20 DUP2 ADD SWAP1 POP PUSH2 0x4A0B JUMP JUMPDEST POP POP POP SWAP4 SWAP3 POP POP POP JUMP JUMPDEST PUSH1 0x0 DUP3 PUSH1 0x1F DUP4 ADD SLT PUSH2 0x4A51 JUMPI PUSH2 0x4A50 PUSH2 0x4593 JUMP JUMPDEST JUMPDEST DUP2 CALLDATALOAD PUSH2 0x4A61 DUP5 DUP3 PUSH1 0x20 DUP7 ADD PUSH2 0x49D3 JUMP JUMPDEST SWAP2 POP POP SWAP3 SWAP2 POP POP JUMP JUMPDEST PUSH1 0x0 DUP1 PUSH1 0x40 DUP4 DUP6 SUB SLT ISZERO PUSH2 0x4A81 JUMPI PUSH2 0x4A80 PUSH2 0x4395 JUMP JUMPDEST JUMPDEST PUSH1 0x0 DUP4 ADD CALLDATALOAD PUSH8 0xFFFFFFFFFFFFFFFF DUP2 GT ISZERO PUSH2 0x4A9F JUMPI PUSH2 0x4A9E PUSH2 0x439A JUMP JUMPDEST JUMPDEST PUSH2 0x4AAB DUP6 DUP3 DUP7 ADD PUSH2 0x4979 JUMP JUMPDEST SWAP3 POP POP PUSH1 0x20 DUP4 ADD CALLDATALOAD PUSH8 0xFFFFFFFFFFFFFFFF DUP2 GT ISZERO PUSH2 0x4ACC JUMPI PUSH2 0x4ACB PUSH2 0x439A JUMP JUMPDEST JUMPDEST PUSH2 0x4AD8 DUP6 DUP3 DUP7 ADD PUSH2 0x4A3C JUMP JUMPDEST SWAP2 POP POP SWAP3 POP SWAP3 SWAP1 POP JUMP JUMPDEST PUSH1 0x0 DUP1 PUSH1 0x0 DUP1 PUSH1 0x80 DUP6 DUP8 SUB SLT ISZERO PUSH2 0x4AFC JUMPI PUSH2 0x4AFB PUSH2 0x4395 JUMP JUMPDEST JUMPDEST PUSH1 0x0 PUSH2 0x4B0A DUP8 DUP3 DUP9 ADD PUSH2 0x4671 JUMP JUMPDEST SWAP5 POP POP PUSH1 0x20 PUSH2 0x4B1B DUP8 DUP3 DUP9 ADD PUSH2 0x4671 JUMP JUMPDEST SWAP4 POP POP PUSH1 0x40 PUSH2 0x4B2C DUP8 DUP3 DUP9 ADD PUSH2 0x4671 JUMP JUMPDEST SWAP3 POP POP PUSH1 0x60 PUSH2 0x4B3D DUP8 DUP3 DUP9 ADD PUSH2 0x4671 JUMP JUMPDEST SWAP2 POP POP SWAP3 SWAP6 SWAP2 SWAP5 POP SWAP3 POP JUMP JUMPDEST PUSH1 0x0 PUSH1 0x20 DUP3 DUP5 SUB SLT ISZERO PUSH2 0x4B5F JUMPI PUSH2 0x4B5E PUSH2 0x4395 JUMP JUMPDEST JUMPDEST PUSH1 0x0 PUSH2 0x4B6D DUP5 DUP3 DUP6 ADD PUSH2 0x4671 JUMP JUMPDEST SWAP2 POP POP SWAP3 SWAP2 POP POP JUMP JUMPDEST PUSH1 0x0 DUP2 SWAP1 POP SWAP2 SWAP1 POP JUMP JUMPDEST PUSH2 0x4B89 DUP2 PUSH2 0x4B76 JUMP JUMPDEST DUP2 EQ PUSH2 0x4B94 JUMPI PUSH1 0x0 DUP1 REVERT JUMPDEST POP JUMP JUMPDEST PUSH1 0x0 DUP2 CALLDATALOAD SWAP1 POP PUSH2 0x4BA6 DUP2 PUSH2 0x4B80 JUMP JUMPDEST SWAP3 SWAP2 POP POP JUMP JUMPDEST PUSH1 0x0 PUSH1 0x20 DUP3 DUP5 SUB SLT ISZERO PUSH2 0x4BC2 JUMPI PUSH2 0x4BC1 PUSH2 0x4395 JUMP JUMPDEST JUMPDEST PUSH1 0x0 PUSH2 0x4BD0 DUP5 DUP3 DUP6 ADD PUSH2 0x4B97 JUMP JUMPDEST SWAP2 POP POP SWAP3 SWAP2 POP POP JUMP JUMPDEST PUSH2 0x4BE2 DUP2 PUSH2 0x4B76 JUMP JUMPDEST DUP3 MSTORE POP POP JUMP JUMPDEST PUSH1 0x0 PUSH1 0x20 DUP3 ADD SWAP1 POP PUSH2 0x4BFD PUSH1 0x0 DUP4 ADD DUP5 PUSH2 0x4BD9 JUMP JUMPDEST SWAP3 SWAP2 POP POP JUMP JUMPDEST PUSH1 0x0 DUP1 PUSH1 0x40 DUP4 DUP6 SUB SLT ISZERO PUSH2 0x4C1A JUMPI PUSH2 0x4C19 PUSH2 0x4395 JUMP JUMPDEST JUMPDEST PUSH1 0x0 PUSH2 0x4C28 DUP6 DUP3 DUP7 ADD PUSH2 0x4B97 JUMP JUMPDEST SWAP3 POP POP PUSH1 0x20 PUSH2 0x4C39 DUP6 DUP3 DUP7 ADD PUSH2 0x451D JUMP JUMPDEST SWAP2 POP POP SWAP3 POP SWAP3 SWAP1 POP JUMP JUMPDEST PUSH1 0x0 PUSH2 0x4C4E DUP3 PUSH2 0x44A6 JUMP JUMPDEST SWAP1 POP SWAP2 SWAP1 POP JUMP JUMPDEST PUSH2 0x4C5E DUP2 PUSH2 0x4C43 JUMP JUMPDEST DUP3 MSTORE POP POP JUMP JUMPDEST PUSH1 0x0 PUSH1 0x20 DUP3 ADD SWAP1 POP PUSH2 0x4C79 PUSH1 0x0 DUP4 ADD DUP5 PUSH2 0x4C55 JUMP JUMPDEST SWAP3 SWAP2 POP POP JUMP JUMPDEST PUSH1 0x0 DUP1 PUSH1 0x40 DUP4 DUP6 SUB SLT ISZERO PUSH2 0x4C96 JUMPI PUSH2 0x4C95 PUSH2 0x4395 JUMP JUMPDEST JUMPDEST PUSH1 0x0 PUSH2 0x4CA4 DUP6 DUP3 DUP7 ADD PUSH2 0x451D JUMP JUMPDEST SWAP3 POP POP PUSH1 0x20 PUSH2 0x4CB5 DUP6 DUP3 DUP7 ADD PUSH2 0x4671 JUMP JUMPDEST SWAP2 POP POP SWAP3 POP SWAP3 SWAP1 POP JUMP JUMPDEST PUSH2 0x4CC8 DUP2 PUSH2 0x455F JUMP JUMPDEST DUP3 MSTORE POP POP JUMP JUMPDEST PUSH1 0x0 PUSH1 0x5 SWAP1 POP SWAP2 SWAP1 POP JUMP JUMPDEST PUSH1 0x0 DUP2 SWAP1 POP SWAP3 SWAP2 POP POP JUMP JUMPDEST PUSH1 0x0 DUP2 SWAP1 POP SWAP2 SWAP1 POP JUMP JUMPDEST PUSH1 0x0 PUSH2 0x4CFA DUP4 DUP4 PUSH2 0x4CBF JUMP JUMPDEST PUSH1 0x20 DUP4 ADD SWAP1 POP SWAP3 SWAP2 POP POP JUMP JUMPDEST PUSH1 0x0 PUSH1 0x20 DUP3 ADD SWAP1 POP SWAP2 SWAP1 POP JUMP JUMPDEST PUSH2 0x4D1C DUP2 PUSH2 0x4CCE JUMP JUMPDEST PUSH2 0x4D26 DUP2 DUP5 PUSH2 0x4CD9 JUMP JUMPDEST SWAP3 POP PUSH2 0x4D31 DUP3 PUSH2 0x4CE4 JUMP JUMPDEST DUP1 PUSH1 0x0 JUMPDEST DUP4 DUP2 LT ISZERO PUSH2 0x4D62 JUMPI DUP2 MLOAD PUSH2 0x4D49 DUP8 DUP3 PUSH2 0x4CEE JUMP JUMPDEST SWAP7 POP PUSH2 0x4D54 DUP4 PUSH2 0x4D06 JUMP JUMPDEST SWAP3 POP POP PUSH1 0x1 DUP2 ADD SWAP1 POP PUSH2 0x4D35 JUMP JUMPDEST POP POP POP POP POP POP JUMP JUMPDEST PUSH1 0x0 PUSH1 0xA SWAP1 POP SWAP2 SWAP1 POP JUMP JUMPDEST PUSH1 0x0 DUP2 SWAP1 POP SWAP3 SWAP2 POP POP JUMP JUMPDEST PUSH1 0x0 DUP2 SWAP1 POP SWAP2 SWAP1 POP JUMP JUMPDEST PUSH1 0x0 PUSH1 0x20 DUP3 ADD SWAP1 POP SWAP2 SWAP1 POP JUMP JUMPDEST PUSH2 0x4DA0 DUP2 PUSH2 0x4D6A JUMP JUMPDEST PUSH2 0x4DAA DUP2 DUP5 PUSH2 0x4D75 JUMP JUMPDEST SWAP3 POP PUSH2 0x4DB5 DUP3 PUSH2 0x4D80 JUMP JUMPDEST DUP1 PUSH1 0x0 JUMPDEST DUP4 DUP2 LT ISZERO PUSH2 0x4DE6 JUMPI DUP2 MLOAD PUSH2 0x4DCD DUP8 DUP3 PUSH2 0x4CEE JUMP JUMPDEST SWAP7 POP PUSH2 0x4DD8 DUP4 PUSH2 0x4D8A JUMP JUMPDEST SWAP3 POP POP PUSH1 0x1 DUP2 ADD SWAP1 POP PUSH2 0x4DB9 JUMP JUMPDEST POP POP POP POP POP POP JUMP JUMPDEST PUSH2 0x320 DUP3 ADD PUSH1 0x0 DUP3 ADD MLOAD PUSH2 0x4E05 PUSH1 0x0 DUP6 ADD DUP3 PUSH2 0x4CBF JUMP JUMPDEST POP PUSH1 0x20 DUP3 ADD MLOAD PUSH2 0x4E18 PUSH1 0x20 DUP6 ADD DUP3 PUSH2 0x4CBF JUMP JUMPDEST POP PUSH1 0x40 DUP3 ADD MLOAD PUSH2 0x4E2B PUSH1 0x40 DUP6 ADD DUP3 PUSH2 0x4CBF JUMP JUMPDEST POP PUSH1 0x60 DUP3 ADD MLOAD PUSH2 0x4E3E PUSH1 0x60 DUP6 ADD DUP3 PUSH2 0x4D13 JUMP JUMPDEST POP PUSH1 0x80 DUP3 ADD MLOAD PUSH2 0x4E52 PUSH2 0x100 DUP6 ADD DUP3 PUSH2 0x4CBF JUMP JUMPDEST POP PUSH1 0xA0 DUP3 ADD MLOAD PUSH2 0x4E66 PUSH2 0x120 DUP6 ADD DUP3 PUSH2 0x4CBF JUMP JUMPDEST POP PUSH1 0xC0 DUP3 ADD MLOAD PUSH2 0x4E7A PUSH2 0x140 DUP6 ADD DUP3 PUSH2 0x4CBF JUMP JUMPDEST POP PUSH1 0xE0 DUP3 ADD MLOAD PUSH2 0x4E8E PUSH2 0x160 DUP6 ADD DUP3 PUSH2 0x4CBF JUMP JUMPDEST POP PUSH2 0x100 DUP3 ADD MLOAD PUSH2 0x4EA3 PUSH2 0x180 DUP6 ADD DUP3 PUSH2 0x4CBF JUMP JUMPDEST POP PUSH2 0x120 DUP3 ADD MLOAD PUSH2 0x4EB8 PUSH2 0x1A0 DUP6 ADD DUP3 PUSH2 0x4D97 JUMP JUMPDEST POP PUSH2 0x140 DUP3 ADD MLOAD PUSH2 0x4ECD PUSH2 0x2E0 DUP6 ADD DUP3 PUSH2 0x4CBF JUMP JUMPDEST POP PUSH2 0x160 DUP3 ADD MLOAD PUSH2 0x4EE2 PUSH2 0x300 DUP6 ADD DUP3 PUSH2 0x4CBF JUMP JUMPDEST POP POP POP POP JUMP JUMPDEST PUSH1 0x0 PUSH2 0x320 DUP3 ADD SWAP1 POP PUSH2 0x4EFE PUSH1 0x0 DUP4 ADD DUP5 PUSH2 0x4DEE JUMP JUMPDEST SWAP3 SWAP2 POP POP JUMP JUMPDEST PUSH1 0x0 DUP2 SWAP1 POP SWAP3 SWAP2 POP POP JUMP JUMPDEST PUSH2 0x4F18 DUP2 PUSH2 0x4CCE JUMP JUMPDEST PUSH2 0x4F22 DUP2 DUP5 PUSH2 0x4F04 JUMP JUMPDEST SWAP3 POP PUSH2 0x4F2D DUP3 PUSH2 0x4CE4 JUMP JUMPDEST DUP1 PUSH1 0x0 JUMPDEST DUP4 DUP2 LT ISZERO PUSH2 0x4F5E JUMPI DUP2 MLOAD PUSH2 0x4F45 DUP8 DUP3 PUSH2 0x4CEE JUMP JUMPDEST SWAP7 POP PUSH2 0x4F50 DUP4 PUSH2 0x4D06 JUMP JUMPDEST SWAP3 POP POP PUSH1 0x1 DUP2 ADD SWAP1 POP PUSH2 0x4F31 JUMP JUMPDEST POP POP POP POP POP POP JUMP JUMPDEST PUSH1 0x0 PUSH1 0xA0 DUP3 ADD SWAP1 POP PUSH2 0x4F7B PUSH1 0x0 DUP4 ADD DUP5 PUSH2 0x4F0F JUMP JUMPDEST SWAP3 SWAP2 POP POP JUMP JUMPDEST PUSH2 0x4F8A DUP2 PUSH2 0x44F4 JUMP JUMPDEST DUP3 MSTORE POP POP JUMP JUMPDEST PUSH1 0x0 PUSH1 0x20 DUP3 ADD SWAP1 POP PUSH2 0x4FA5 PUSH1 0x0 DUP4 ADD DUP5 PUSH2 0x4F81 JUMP JUMPDEST SWAP3 SWAP2 POP POP JUMP JUMPDEST PUSH1 0x0 DUP1 PUSH1 0x0 PUSH1 0x60 DUP5 DUP7 SUB SLT ISZERO PUSH2 0x4FC4 JUMPI PUSH2 0x4FC3 PUSH2 0x4395 JUMP JUMPDEST JUMPDEST PUSH1 0x0 PUSH2 0x4FD2 DUP7 DUP3 DUP8 ADD PUSH2 0x451D JUMP JUMPDEST SWAP4 POP POP PUSH1 0x20 PUSH2 0x4FE3 DUP7 DUP3 DUP8 ADD PUSH2 0x4671 JUMP JUMPDEST SWAP3 POP POP PUSH1 0x40 PUSH2 0x4FF4 DUP7 DUP3 DUP8 ADD PUSH2 0x4671 JUMP JUMPDEST SWAP2 POP POP SWAP3 POP SWAP3 POP SWAP3 JUMP JUMPDEST PUSH1 0x0 DUP2 SWAP1 POP SWAP3 SWAP2 POP POP JUMP JUMPDEST PUSH2 0x5012 DUP2 PUSH2 0x4D6A JUMP JUMPDEST PUSH2 0x501C DUP2 DUP5 PUSH2 0x4FFE JUMP JUMPDEST SWAP3 POP PUSH2 0x5027 DUP3 PUSH2 0x4D80 JUMP JUMPDEST DUP1 PUSH1 0x0 JUMPDEST DUP4 DUP2 LT ISZERO PUSH2 0x5058 JUMPI DUP2 MLOAD PUSH2 0x503F DUP8 DUP3 PUSH2 0x4CEE JUMP JUMPDEST SWAP7 POP PUSH2 0x504A DUP4 PUSH2 0x4D8A JUMP JUMPDEST SWAP3 POP POP PUSH1 0x1 DUP2 ADD SWAP1 POP PUSH2 0x502B JUMP JUMPDEST POP POP POP POP POP POP JUMP JUMPDEST PUSH1 0x0 PUSH2 0x140 DUP3 ADD SWAP1 POP PUSH2 0x5076 PUSH1 0x0 DUP4 ADD DUP5 PUSH2 0x5009 JUMP JUMPDEST SWAP3 SWAP2 POP POP JUMP JUMPDEST PUSH1 0x0 PUSH2 0x5087 DUP3 PUSH2 0x44A6 JUMP JUMPDEST SWAP1 POP SWAP2 SWAP1 POP JUMP JUMPDEST PUSH2 0x5097 DUP2 PUSH2 0x507C JUMP JUMPDEST DUP3 MSTORE POP POP JUMP JUMPDEST PUSH1 0x0 PUSH1 0x20 DUP3 ADD SWAP1 POP PUSH2 0x50B2 PUSH1 0x0 DUP4 ADD DUP5 PUSH2 0x508E JUMP JUMPDEST SWAP3 SWAP2 POP POP JUMP JUMPDEST PUSH1 0x0 DUP1 PUSH1 0x40 DUP4 DUP6 SUB SLT ISZERO PUSH2 0x50CF JUMPI PUSH2 0x50CE PUSH2 0x4395 JUMP JUMPDEST JUMPDEST PUSH1 0x0 PUSH2 0x50DD DUP6 DUP3 DUP7 ADD PUSH2 0x4671 JUMP JUMPDEST SWAP3 POP POP PUSH1 0x20 PUSH2 0x50EE DUP6 DUP3 DUP7 ADD PUSH2 0x451D JUMP JUMPDEST SWAP2 POP POP SWAP3 POP SWAP3 SWAP1 POP JUMP JUMPDEST PUSH1 0x0 DUP3 DUP3 MSTORE PUSH1 0x20 DUP3 ADD SWAP1 POP SWAP3 SWAP2 POP POP JUMP JUMPDEST PUSH32 0x3130320000000000000000000000000000000000000000000000000000000000 PUSH1 0x0 DUP3 ADD MSTORE POP JUMP JUMPDEST PUSH1 0x0 PUSH2 0x513F PUSH1 0x3 DUP4 PUSH2 0x50F8 JUMP JUMPDEST SWAP2 POP PUSH2 0x514A DUP3 PUSH2 0x5109 JUMP JUMPDEST PUSH1 0x20 DUP3 ADD SWAP1 POP SWAP2 SWAP1 POP JUMP JUMPDEST PUSH1 0x0 PUSH1 0x20 DUP3 ADD SWAP1 POP DUP2 DUP2 SUB PUSH1 0x0 DUP4 ADD MSTORE PUSH2 0x516E DUP2 PUSH2 0x5132 JUMP JUMPDEST SWAP1 POP SWAP2 SWAP1 POP JUMP JUMPDEST PUSH32 0x4E487B7100000000000000000000000000000000000000000000000000000000 PUSH1 0x0 MSTORE PUSH1 0x32 PUSH1 0x4 MSTORE PUSH1 0x24 PUSH1 0x0 REVERT JUMPDEST PUSH32 0x3130310000000000000000000000000000000000000000000000000000000000 PUSH1 0x0 DUP3 ADD MSTORE POP JUMP JUMPDEST PUSH1 0x0 PUSH2 0x51DA PUSH1 0x3 DUP4 PUSH2 0x50F8 JUMP JUMPDEST SWAP2 POP PUSH2 0x51E5 DUP3 PUSH2 0x51A4 JUMP JUMPDEST PUSH1 0x20 DUP3 ADD SWAP1 POP SWAP2 SWAP1 POP JUMP JUMPDEST PUSH1 0x0 PUSH1 0x20 DUP3 ADD SWAP1 POP DUP2 DUP2 SUB PUSH1 0x0 DUP4 ADD MSTORE PUSH2 0x5209 DUP2 PUSH2 0x51CD JUMP JUMPDEST SWAP1 POP SWAP2 SWAP1 POP JUMP JUMPDEST PUSH1 0x0 DUP2 MLOAD SWAP1 POP SWAP2 SWAP1 POP JUMP JUMPDEST PUSH1 0x0 DUP2 SWAP1 POP SWAP3 SWAP2 POP POP JUMP JUMPDEST PUSH1 0x0 DUP2 SWAP1 POP PUSH1 0x20 DUP3 ADD SWAP1 POP SWAP2 SWAP1 POP JUMP JUMPDEST PUSH2 0x523F DUP2 PUSH2 0x44F4 JUMP JUMPDEST DUP3 MSTORE POP POP JUMP JUMPDEST PUSH1 0x0 PUSH2 0x5251 DUP4 DUP4 PUSH2 0x5236 JUMP JUMPDEST PUSH1 0x20 DUP4 ADD SWAP1 POP SWAP3 SWAP2 POP POP JUMP JUMPDEST PUSH1 0x0 PUSH1 0x20 DUP3 ADD SWAP1 POP SWAP2 SWAP1 POP JUMP JUMPDEST PUSH1 0x0 PUSH2 0x5275 DUP3 PUSH2 0x5210 JUMP JUMPDEST PUSH2 0x527F DUP2 DUP6 PUSH2 0x521B JUMP JUMPDEST SWAP4 POP PUSH2 0x528A DUP4 PUSH2 0x5226 JUMP JUMPDEST DUP1 PUSH1 0x0 JUMPDEST DUP4 DUP2 LT ISZERO PUSH2 0x52BB JUMPI DUP2 MLOAD PUSH2 0x52A2 DUP9 DUP3 PUSH2 0x5245 JUMP JUMPDEST SWAP8 POP PUSH2 0x52AD DUP4 PUSH2 0x525D JUMP JUMPDEST SWAP3 POP POP PUSH1 0x1 DUP2 ADD SWAP1 POP PUSH2 0x528E JUMP JUMPDEST POP DUP6 SWAP4 POP POP POP POP SWAP3 SWAP2 POP POP JUMP JUMPDEST PUSH1 0x0 PUSH2 0x52D4 DUP3 DUP5 PUSH2 0x526A JUMP JUMPDEST SWAP2 POP DUP2 SWAP1 POP SWAP3 SWAP2 POP POP JUMP JUMPDEST PUSH1 0x0 DUP2 MLOAD SWAP1 POP SWAP2 SWAP1 POP JUMP JUMPDEST PUSH1 0x0 DUP2 SWAP1 POP SWAP3 SWAP2 POP POP JUMP JUMPDEST PUSH1 0x0 DUP2 SWAP1 POP PUSH1 0x20 DUP3 ADD SWAP1 POP SWAP2 SWAP1 POP JUMP JUMPDEST PUSH2 0x530E DUP2 PUSH2 0x455F JUMP JUMPDEST DUP3 MSTORE POP POP JUMP JUMPDEST PUSH1 0x0 PUSH2 0x5320 DUP4 DUP4 PUSH2 0x5305 JUMP JUMPDEST PUSH1 0x20 DUP4 ADD SWAP1 POP SWAP3 SWAP2 POP POP JUMP JUMPDEST PUSH1 0x0 DUP2 SWAP1 POP SWAP3 SWAP2 POP POP JUMP JUMPDEST PUSH2 0x5340 DUP2 PUSH2 0x4CCE JUMP JUMPDEST PUSH2 0x534A DUP2 DUP5 PUSH2 0x532C JUMP JUMPDEST SWAP3 POP PUSH2 0x5355 DUP3 PUSH2 0x4CE4 JUMP JUMPDEST DUP1 PUSH1 0x0 JUMPDEST DUP4 DUP2 LT ISZERO PUSH2 0x5386 JUMPI DUP2 MLOAD PUSH2 0x536D DUP8 DUP3 PUSH2 0x5314 JUMP JUMPDEST SWAP7 POP PUSH2 0x5378 DUP4 PUSH2 0x4D06 JUMP JUMPDEST SWAP3 POP POP PUSH1 0x1 DUP2 ADD SWAP1 POP PUSH2 0x5359 JUMP JUMPDEST POP POP POP POP POP POP JUMP JUMPDEST PUSH1 0x0 PUSH2 0x539A DUP4 DUP4 PUSH2 0x5337 JUMP JUMPDEST PUSH1 0xA0 DUP4 ADD SWAP1 POP SWAP3 SWAP2 POP POP JUMP JUMPDEST PUSH1 0x0 DUP2 SWAP1 POP SWAP3 SWAP2 POP POP JUMP JUMPDEST PUSH2 0x53BA DUP2 PUSH2 0x4D6A JUMP JUMPDEST PUSH2 0x53C4 DUP2 DUP5 PUSH2 0x53A6 JUMP JUMPDEST SWAP3 POP PUSH2 0x53CF DUP3 PUSH2 0x4D80 JUMP JUMPDEST DUP1 PUSH1 0x0 JUMPDEST DUP4 DUP2 LT ISZERO PUSH2 0x5400 JUMPI DUP2 MLOAD PUSH2 0x53E7 DUP8 DUP3 PUSH2 0x5314 JUMP JUMPDEST SWAP7 POP PUSH2 0x53F2 DUP4 PUSH2 0x4D8A JUMP JUMPDEST SWAP3 POP POP PUSH1 0x1 DUP2 ADD SWAP1 POP PUSH2 0x53D3 JUMP JUMPDEST POP POP POP POP POP POP JUMP JUMPDEST PUSH1 0x0 PUSH2 0x5414 DUP4 DUP4 PUSH2 0x53B1 JUMP JUMPDEST PUSH2 0x140 DUP4 ADD SWAP1 POP SWAP3 SWAP2 POP POP JUMP JUMPDEST PUSH1 0x0 DUP3 ADD PUSH1 0x0 DUP3 ADD MLOAD PUSH2 0x5434 DUP5 DUP3 PUSH2 0x5314 JUMP JUMPDEST SWAP4 POP POP PUSH1 0x20 DUP3 ADD MLOAD PUSH2 0x5446 DUP5 DUP3 PUSH2 0x5314 JUMP JUMPDEST SWAP4 POP POP PUSH1 0x40 DUP3 ADD MLOAD PUSH2 0x5458 DUP5 DUP3 PUSH2 0x5314 JUMP JUMPDEST SWAP4 POP POP PUSH1 0x60 DUP3 ADD MLOAD PUSH2 0x546A DUP5 DUP3 PUSH2 0x538E JUMP JUMPDEST SWAP4 POP POP PUSH1 0x80 DUP3 ADD MLOAD PUSH2 0x547C DUP5 DUP3 PUSH2 0x5314 JUMP JUMPDEST SWAP4 POP POP PUSH1 0xA0 DUP3 ADD MLOAD PUSH2 0x548E DUP5 DUP3 PUSH2 0x5314 JUMP JUMPDEST SWAP4 POP POP PUSH1 0xC0 DUP3 ADD MLOAD PUSH2 0x54A0 DUP5 DUP3 PUSH2 0x5314 JUMP JUMPDEST SWAP4 POP POP PUSH1 0xE0 DUP3 ADD MLOAD PUSH2 0x54B2 DUP5 DUP3 PUSH2 0x5314 JUMP JUMPDEST SWAP4 POP POP PUSH2 0x100 DUP3 ADD MLOAD PUSH2 0x54C5 DUP5 DUP3 PUSH2 0x5314 JUMP JUMPDEST SWAP4 POP POP PUSH2 0x120 DUP3 ADD MLOAD PUSH2 0x54D8 DUP5 DUP3 PUSH2 0x5408 JUMP JUMPDEST SWAP4 POP POP PUSH2 0x140 DUP3 ADD MLOAD PUSH2 0x54EB DUP5 DUP3 PUSH2 0x5314 JUMP JUMPDEST SWAP4 POP POP PUSH2 0x160 DUP3 ADD MLOAD PUSH2 0x54FE DUP5 DUP3 PUSH2 0x5314 JUMP JUMPDEST SWAP4 POP POP POP POP POP JUMP JUMPDEST PUSH1 0x0 PUSH2 0x5512 DUP4 DUP4 PUSH2 0x5421 JUMP JUMPDEST PUSH2 0x320 DUP4 ADD SWAP1 POP SWAP3 SWAP2 POP POP JUMP JUMPDEST PUSH1 0x0 PUSH1 0x20 DUP3 ADD SWAP1 POP SWAP2 SWAP1 POP JUMP JUMPDEST PUSH1 0x0 PUSH2 0x5537 DUP3 PUSH2 0x52DF JUMP JUMPDEST PUSH2 0x5541 DUP2 DUP6 PUSH2 0x52EA JUMP JUMPDEST SWAP4 POP PUSH2 0x554C DUP4 PUSH2 0x52F5 JUMP JUMPDEST DUP1 PUSH1 0x0 JUMPDEST DUP4 DUP2 LT ISZERO PUSH2 0x557D JUMPI DUP2 MLOAD PUSH2 0x5564 DUP9 DUP3 PUSH2 0x5506 JUMP JUMPDEST SWAP8 POP PUSH2 0x556F DUP4 PUSH2 0x551F JUMP JUMPDEST SWAP3 POP POP PUSH1 0x1 DUP2 ADD SWAP1 POP PUSH2 0x5550 JUMP JUMPDEST POP DUP6 SWAP4 POP POP POP POP SWAP3 SWAP2 POP POP JUMP JUMPDEST PUSH1 0x0 PUSH2 0x5596 DUP3 DUP5 PUSH2 0x552C JUMP JUMPDEST SWAP2 POP DUP2 SWAP1 POP SWAP3 SWAP2 POP POP JUMP JUMPDEST PUSH32 0x4E487B7100000000000000000000000000000000000000000000000000000000 PUSH1 0x0 MSTORE PUSH1 0x11 PUSH1 0x4 MSTORE PUSH1 0x24 PUSH1 0x0 REVERT JUMPDEST PUSH1 0x0 PUSH2 0x55DB DUP3 PUSH2 0x455F JUMP JUMPDEST SWAP2 POP PUSH2 0x55E6 DUP4 PUSH2 0x455F JUMP JUMPDEST SWAP3 POP DUP3 DUP3 ADD SWAP1 POP DUP1 DUP3 GT ISZERO PUSH2 0x55FE JUMPI PUSH2 0x55FD PUSH2 0x55A1 JUMP JUMPDEST JUMPDEST SWAP3 SWAP2 POP POP JUMP JUMPDEST PUSH32 0x3130380000000000000000000000000000000000000000000000000000000000 PUSH1 0x0 DUP3 ADD MSTORE POP JUMP JUMPDEST PUSH1 0x0 PUSH2 0x563A PUSH1 0x3 DUP4 PUSH2 0x50F8 JUMP JUMPDEST SWAP2 POP PUSH2 0x5645 DUP3 PUSH2 0x5604 JUMP JUMPDEST PUSH1 0x20 DUP3 ADD SWAP1 POP SWAP2 SWAP1 POP JUMP JUMPDEST PUSH1 0x0 PUSH1 0x20 DUP3 ADD SWAP1 POP DUP2 DUP2 SUB PUSH1 0x0 DUP4 ADD MSTORE PUSH2 0x5669 DUP2 PUSH2 0x562D JUMP JUMPDEST SWAP1 POP SWAP2 SWAP1 POP JUMP JUMPDEST PUSH1 0x0 PUSH2 0x567B DUP3 PUSH2 0x455F JUMP JUMPDEST SWAP2 POP PUSH2 0x5686 DUP4 PUSH2 0x455F JUMP JUMPDEST SWAP3 POP DUP3 DUP3 MUL PUSH2 0x5694 DUP2 PUSH2 0x455F JUMP JUMPDEST SWAP2 POP DUP3 DUP3 DIV DUP5 EQ DUP4 ISZERO OR PUSH2 0x56AB JUMPI PUSH2 0x56AA PUSH2 0x55A1 JUMP JUMPDEST JUMPDEST POP SWAP3 SWAP2 POP POP JUMP JUMPDEST PUSH1 0x0 DUP2 MLOAD SWAP1 POP PUSH2 0x56C1 DUP2 PUSH2 0x465A JUMP JUMPDEST SWAP3 SWAP2 POP POP JUMP JUMPDEST PUSH1 0x0 PUSH1 0x20 DUP3 DUP5 SUB SLT ISZERO PUSH2 0x56DD JUMPI PUSH2 0x56DC PUSH2 0x4395 JUMP JUMPDEST JUMPDEST PUSH1 0x0 PUSH2 0x56EB DUP5 DUP3 DUP6 ADD PUSH2 0x56B2 JUMP JUMPDEST SWAP2 POP POP SWAP3 SWAP2 POP POP JUMP JUMPDEST PUSH32 0x3130330000000000000000000000000000000000000000000000000000000000 PUSH1 0x0 DUP3 ADD MSTORE POP JUMP JUMPDEST PUSH1 0x0 PUSH2 0x572A PUSH1 0x3 DUP4 PUSH2 0x50F8 JUMP JUMPDEST SWAP2 POP PUSH2 0x5735 DUP3 PUSH2 0x56F4 JUMP JUMPDEST PUSH1 0x20 DUP3 ADD SWAP1 POP SWAP2 SWAP1 POP JUMP JUMPDEST PUSH1 0x0 PUSH1 0x20 DUP3 ADD SWAP1 POP DUP2 DUP2 SUB PUSH1 0x0 DUP4 ADD MSTORE PUSH2 0x5759 DUP2 PUSH2 0x571D JUMP JUMPDEST SWAP1 POP SWAP2 SWAP1 POP JUMP JUMPDEST PUSH32 0x416363657373436F6E74726F6C3A2063616E206F6E6C792072656E6F756E6365 PUSH1 0x0 DUP3 ADD MSTORE PUSH32 0x20726F6C657320666F722073656C660000000000000000000000000000000000 PUSH1 0x20 DUP3 ADD MSTORE POP JUMP JUMPDEST PUSH1 0x0 PUSH2 0x57BC PUSH1 0x2F DUP4 PUSH2 0x50F8 JUMP JUMPDEST SWAP2 POP PUSH2 0x57C7 DUP3 PUSH2 0x5760 JUMP JUMPDEST PUSH1 0x40 DUP3 ADD SWAP1 POP SWAP2 SWAP1 POP JUMP JUMPDEST PUSH1 0x0 PUSH1 0x20 DUP3 ADD SWAP1 POP DUP2 DUP2 SUB PUSH1 0x0 DUP4 ADD MSTORE PUSH2 0x57EB DUP2 PUSH2 0x57AF JUMP JUMPDEST SWAP1 POP SWAP2 SWAP1 POP JUMP JUMPDEST PUSH1 0x0 DUP2 MLOAD SWAP1 POP PUSH2 0x5801 DUP2 PUSH2 0x4506 JUMP JUMPDEST SWAP3 SWAP2 POP POP JUMP JUMPDEST PUSH1 0x0 PUSH1 0x20 DUP3 DUP5 SUB SLT ISZERO PUSH2 0x581D JUMPI PUSH2 0x581C PUSH2 0x4395 JUMP JUMPDEST JUMPDEST PUSH1 0x0 PUSH2 0x582B DUP5 DUP3 DUP6 ADD PUSH2 0x57F2 JUMP JUMPDEST SWAP2 POP POP SWAP3 SWAP2 POP POP JUMP JUMPDEST PUSH1 0x0 PUSH8 0xFFFFFFFFFFFFFFFF DUP3 GT ISZERO PUSH2 0x584F JUMPI PUSH2 0x584E PUSH2 0x45A9 JUMP JUMPDEST JUMPDEST PUSH1 0x20 DUP3 MUL SWAP1 POP PUSH1 0x20 DUP2 ADD SWAP1 POP SWAP2 SWAP1 POP JUMP JUMPDEST PUSH1 0x0 PUSH2 0x5873 PUSH2 0x586E DUP5 PUSH2 0x5834 JUMP JUMPDEST PUSH2 0x4609 JUMP JUMPDEST SWAP1 POP DUP1 DUP4 DUP3 MSTORE PUSH1 0x20 DUP3 ADD SWAP1 POP PUSH1 0x20 DUP5 MUL DUP4 ADD DUP6 DUP2 GT ISZERO PUSH2 0x5896 JUMPI PUSH2 0x5895 PUSH2 0x4650 JUMP JUMPDEST JUMPDEST DUP4 JUMPDEST DUP2 DUP2 LT ISZERO PUSH2 0x58BF JUMPI DUP1 PUSH2 0x58AB DUP9 DUP3 PUSH2 0x56B2 JUMP JUMPDEST DUP5 MSTORE PUSH1 0x20 DUP5 ADD SWAP4 POP POP PUSH1 0x20 DUP2 ADD SWAP1 POP PUSH2 0x5898 JUMP JUMPDEST POP POP POP SWAP4 SWAP3 POP POP POP JUMP JUMPDEST PUSH1 0x0 DUP3 PUSH1 0x1F DUP4 ADD SLT PUSH2 0x58DE JUMPI PUSH2 0x58DD PUSH2 0x4593 JUMP JUMPDEST JUMPDEST DUP2 MLOAD PUSH2 0x58EE DUP5 DUP3 PUSH1 0x20 DUP7 ADD PUSH2 0x5860 JUMP JUMPDEST SWAP2 POP POP SWAP3 SWAP2 POP POP JUMP JUMPDEST PUSH1 0x0 PUSH1 0x20 DUP3 DUP5 SUB SLT ISZERO PUSH2 0x590D JUMPI PUSH2 0x590C PUSH2 0x4395 JUMP JUMPDEST JUMPDEST PUSH1 0x0 DUP3 ADD MLOAD PUSH8 0xFFFFFFFFFFFFFFFF DUP2 GT ISZERO PUSH2 0x592B JUMPI PUSH2 0x592A PUSH2 0x439A JUMP JUMPDEST JUMPDEST PUSH2 0x5937 DUP5 DUP3 DUP6 ADD PUSH2 0x58C9 JUMP JUMPDEST SWAP2 POP POP SWAP3 SWAP2 POP POP JUMP JUMPDEST PUSH1 0x0 PUSH1 0x40 DUP3 ADD SWAP1 POP PUSH2 0x5955 PUSH1 0x0 DUP4 ADD DUP6 PUSH2 0x4569 JUMP JUMPDEST PUSH2 0x5962 PUSH1 0x20 DUP4 ADD DUP5 PUSH2 0x4569 JUMP JUMPDEST SWAP4 SWAP3 POP POP POP JUMP JUMPDEST PUSH32 0x3130340000000000000000000000000000000000000000000000000000000000 PUSH1 0x0 DUP3 ADD MSTORE POP JUMP JUMPDEST PUSH1 0x0 PUSH2 0x599F PUSH1 0x3 DUP4 PUSH2 0x50F8 JUMP JUMPDEST SWAP2 POP PUSH2 0x59AA DUP3 PUSH2 0x5969 JUMP JUMPDEST PUSH1 0x20 DUP3 ADD SWAP1 POP SWAP2 SWAP1 POP JUMP JUMPDEST PUSH1 0x0 PUSH1 0x20 DUP3 ADD SWAP1 POP DUP2 DUP2 SUB PUSH1 0x0 DUP4 ADD MSTORE PUSH2 0x59CE DUP2 PUSH2 0x5992 JUMP JUMPDEST SWAP1 POP SWAP2 SWAP1 POP JUMP JUMPDEST PUSH1 0x0 PUSH1 0x40 DUP3 ADD SWAP1 POP PUSH2 0x59EA PUSH1 0x0 DUP4 ADD DUP6 PUSH2 0x4F81 JUMP JUMPDEST PUSH2 0x59F7 PUSH1 0x20 DUP4 ADD DUP5 PUSH2 0x4569 JUMP JUMPDEST SWAP4 SWAP3 POP POP POP JUMP JUMPDEST PUSH1 0x0 PUSH2 0x5A09 DUP3 PUSH2 0x455F JUMP JUMPDEST SWAP2 POP PUSH2 0x5A14 DUP4 PUSH2 0x455F JUMP JUMPDEST SWAP3 POP DUP3 DUP3 SUB SWAP1 POP DUP2 DUP2 GT ISZERO PUSH2 0x5A2C JUMPI PUSH2 0x5A2B PUSH2 0x55A1 JUMP JUMPDEST JUMPDEST SWAP3 SWAP2 POP POP JUMP JUMPDEST PUSH32 0x4F776E61626C653A2063616C6C6572206973206E6F7420746865206F776E6572 PUSH1 0x0 DUP3 ADD MSTORE POP JUMP JUMPDEST PUSH1 0x0 PUSH2 0x5A68 PUSH1 0x20 DUP4 PUSH2 0x50F8 JUMP JUMPDEST SWAP2 POP PUSH2 0x5A73 DUP3 PUSH2 0x5A32 JUMP JUMPDEST PUSH1 0x20 DUP3 ADD SWAP1 POP SWAP2 SWAP1 POP JUMP JUMPDEST PUSH1 0x0 PUSH1 0x20 DUP3 ADD SWAP1 POP DUP2 DUP2 SUB PUSH1 0x0 DUP4 ADD MSTORE PUSH2 0x5A97 DUP2 PUSH2 0x5A5B JUMP JUMPDEST SWAP1 POP SWAP2 SWAP1 POP JUMP JUMPDEST PUSH1 0x0 DUP2 SWAP1 POP SWAP3 SWAP2 POP POP JUMP JUMPDEST PUSH32 0x416363657373436F6E74726F6C3A206163636F756E7420000000000000000000 PUSH1 0x0 DUP3 ADD MSTORE POP JUMP JUMPDEST PUSH1 0x0 PUSH2 0x5ADF PUSH1 0x17 DUP4 PUSH2 0x5A9E JUMP JUMPDEST SWAP2 POP PUSH2 0x5AEA DUP3 PUSH2 0x5AA9 JUMP JUMPDEST PUSH1 0x17 DUP3 ADD SWAP1 POP SWAP2 SWAP1 POP JUMP JUMPDEST PUSH1 0x0 DUP2 MLOAD SWAP1 POP SWAP2 SWAP1 POP JUMP JUMPDEST PUSH1 0x0 JUMPDEST DUP4 DUP2 LT ISZERO PUSH2 0x5B1E JUMPI DUP1 DUP3 ADD MLOAD DUP2 DUP5 ADD MSTORE PUSH1 0x20 DUP2 ADD SWAP1 POP PUSH2 0x5B03 JUMP JUMPDEST PUSH1 0x0 DUP5 DUP5 ADD MSTORE POP POP POP POP JUMP JUMPDEST PUSH1 0x0 PUSH2 0x5B35 DUP3 PUSH2 0x5AF5 JUMP JUMPDEST PUSH2 0x5B3F DUP2 DUP6 PUSH2 0x5A9E JUMP JUMPDEST SWAP4 POP PUSH2 0x5B4F DUP2 DUP6 PUSH1 0x20 DUP7 ADD PUSH2 0x5B00 JUMP JUMPDEST DUP1 DUP5 ADD SWAP2 POP POP SWAP3 SWAP2 POP POP JUMP JUMPDEST PUSH32 0x206973206D697373696E6720726F6C6520000000000000000000000000000000 PUSH1 0x0 DUP3 ADD MSTORE POP JUMP JUMPDEST PUSH1 0x0 PUSH2 0x5B91 PUSH1 0x11 DUP4 PUSH2 0x5A9E JUMP JUMPDEST SWAP2 POP PUSH2 0x5B9C DUP3 PUSH2 0x5B5B JUMP JUMPDEST PUSH1 0x11 DUP3 ADD SWAP1 POP SWAP2 SWAP1 POP JUMP JUMPDEST PUSH1 0x0 PUSH2 0x5BB2 DUP3 PUSH2 0x5AD2 JUMP JUMPDEST SWAP2 POP PUSH2 0x5BBE DUP3 DUP6 PUSH2 0x5B2A JUMP JUMPDEST SWAP2 POP PUSH2 0x5BC9 DUP3 PUSH2 0x5B84 JUMP JUMPDEST SWAP2 POP PUSH2 0x5BD5 DUP3 DUP5 PUSH2 0x5B2A JUMP JUMPDEST SWAP2 POP DUP2 SWAP1 POP SWAP4 SWAP3 POP POP POP JUMP JUMPDEST PUSH1 0x0 PUSH2 0x5BEC DUP3 PUSH2 0x5AF5 JUMP JUMPDEST PUSH2 0x5BF6 DUP2 DUP6 PUSH2 0x50F8 JUMP JUMPDEST SWAP4 POP PUSH2 0x5C06 DUP2 DUP6 PUSH1 0x20 DUP7 ADD PUSH2 0x5B00 JUMP JUMPDEST PUSH2 0x5C0F DUP2 PUSH2 0x4598 JUMP JUMPDEST DUP5 ADD SWAP2 POP POP SWAP3 SWAP2 POP POP JUMP JUMPDEST PUSH1 0x0 PUSH1 0x20 DUP3 ADD SWAP1 POP DUP2 DUP2 SUB PUSH1 0x0 DUP4 ADD MSTORE PUSH2 0x5C34 DUP2 DUP5 PUSH2 0x5BE1 JUMP JUMPDEST SWAP1 POP SWAP3 SWAP2 POP POP JUMP JUMPDEST PUSH1 0x0 PUSH2 0x5C47 DUP3 PUSH2 0x455F JUMP JUMPDEST SWAP2 POP PUSH1 0x0 DUP3 SUB PUSH2 0x5C5A JUMPI PUSH2 0x5C59 PUSH2 0x55A1 JUMP JUMPDEST JUMPDEST PUSH1 0x1 DUP3 SUB SWAP1 POP SWAP2 SWAP1 POP JUMP JUMPDEST PUSH32 0x537472696E67733A20686578206C656E67746820696E73756666696369656E74 PUSH1 0x0 DUP3 ADD MSTORE POP JUMP JUMPDEST PUSH1 0x0 PUSH2 0x5C9B PUSH1 0x20 DUP4 PUSH2 0x50F8 JUMP JUMPDEST SWAP2 POP PUSH2 0x5CA6 DUP3 PUSH2 0x5C65 JUMP JUMPDEST PUSH1 0x20 DUP3 ADD SWAP1 POP SWAP2 SWAP1 POP JUMP JUMPDEST PUSH1 0x0 PUSH1 0x20 DUP3 ADD SWAP1 POP DUP2 DUP2 SUB PUSH1 0x0 DUP4 ADD MSTORE PUSH2 0x5CCA DUP2 PUSH2 0x5C8E JUMP JUMPDEST SWAP1 POP SWAP2 SWAP1 POP JUMP INVALID LOG2 PUSH5 0x6970667358 0x22 SLT KECCAK256 PUSH8 0xD02F229D1EF02ABB 0xA5 STOP SHL 0xE4 DUP11 DUP15 RETURNDATASIZE SWAP12 DUP1 ADD JUMP PUSH16 0x29C6CC3D3086EFD9854A9664736F6C63 NUMBER STOP ADDMOD XOR STOP CALLER "},"methodIdentifiers":{"ADMIN_ROLE()":"75b238fc","DEFAULT_ADMIN_ROLE()":"a217fddf","acceptOwnership()":"79ba5097","addAdmin(address)":"70480275","addUser(address)":"421b2d8b","baitPrice()":"18250e07","baitPurchaseLimit()":"b474ca76","buyBaits(uint256)":"22a66172","changeFisherman(address,uint256)":"53acd2ab","changeRod(uint256,address)":"e9bcc5f3","claimGMC(address,uint256)":"b5d626c4","fishermanNFT()":"50a4098a","fishingCountLimit()":"e55ae65a","fishingRodNFT()":"c8001b73","getBaitCount(address)":"48aabab2","getBaitPurchaseLimit()":"6667a9a7","getCollectedGMC(address)":"95155900","getCurrentFishermanNFT(address)":"f76b7de5","getCurrentFishingRodNFT(address)":"7757346d","getExperience(address)":"6b743a2c","getFishCount(address)":"c6051a94","getFishPoolLevel(address)":"31c4ecdc","getFishingCountLimit()":"f2061405","getLevelUpLimit()":"8ca5f74d","getPlayerInfo(address)":"59328401","getPlayerLevel(address)":"34b735a1","getRoleAdmin(bytes32)":"248a9ca3","getUnlockedFishingSpots(address)":"8c953a78","getUser(address)":"6f77926b","gmcContract()":"047ac5de","grantRole(bytes32,address)":"2f2ff15d","hasRole(bytes32,address)":"91d14854","levelUpLimit()":"cee8b4aa","owner()":"8da5cb5b","removeAdmin(address)":"1785f53c","renounceOwnership()":"715018a6","renounceRole(bytes32,address)":"36568abe","revokeRole(bytes32,address)":"d547741f","setBaitCount(address,uint256)":"6aba920b","setBaitPurchaseLimit(uint256)":"657a9393","setCollectedGMC(address,uint256)":"a63eba48","setExperience(address,uint256)":"bfb56d62","setFishCount(address,uint256,uint256)":"9af7a00a","setFishPoolLevel(address,uint256)":"bf129fd0","setFishingCount(address,uint256)":"eaaaa234","setFishingCountLimit(uint256)":"9deedd5b","setLevelUpLimit(uint256)":"e678f86c","setPlayerLevel(address,uint256)":"dea90512","supportsInterface(bytes4)":"01ffc9a7","transferOwnership(address)":"f2fde38b","updateLimitAttribute(uint256,uint256,uint256,uint256)":"215c5d00","updateUserData((uint256,uint256,uint256,uint256[5],uint256,uint256,uint256,uint256,uint256,uint256[10],uint256,uint256)[],address[])":"1fbff24f"}}}}}