{"contracts/FishermanNFTTest.sol":{"FishermanNFTTest":{"abi":[{"inputs":[{"internalType":"uint256","name":"_mintPrice","type":"uint256"}],"stateMutability":"nonpayable","type":"constructor"},{"anonymous":false,"inputs":[{"indexed":true,"internalType":"address","name":"newAdmin","type":"address"}],"name":"AdminAdded","type":"event"},{"anonymous":false,"inputs":[{"indexed":true,"internalType":"address","name":"removedAdmin","type":"address"}],"name":"AdminRemoved","type":"event"},{"anonymous":false,"inputs":[{"indexed":true,"internalType":"address","name":"to","type":"address"},{"indexed":true,"internalType":"uint256","name":"tokenId","type":"uint256"},{"indexed":false,"internalType":"string","name":"fishermanType","type":"string"}],"name":"FishermanMinted","type":"event"},{"anonymous":false,"inputs":[{"indexed":true,"internalType":"uint256","name":"tokenId","type":"uint256"},{"indexed":true,"internalType":"address","name":"seller","type":"address"},{"indexed":false,"internalType":"uint256","name":"price","type":"uint256"}],"name":"ItemListed","type":"event"},{"anonymous":false,"inputs":[{"indexed":true,"internalType":"uint256","name":"tokenId","type":"uint256"},{"indexed":true,"internalType":"address","name":"buyer","type":"address"},{"indexed":false,"internalType":"uint256","name":"price","type":"uint256"}],"name":"ItemSold","type":"event"},{"anonymous":false,"inputs":[{"indexed":false,"internalType":"uint256","name":"_tokenId","type":"uint256"}],"name":"MetadataUpdate","type":"event"},{"anonymous":false,"inputs":[{"indexed":true,"internalType":"address","name":"previousOwner","type":"address"},{"indexed":true,"internalType":"address","name":"newOwner","type":"address"}],"name":"OwnershipTransferred","type":"event"},{"anonymous":false,"inputs":[{"indexed":true,"internalType":"bytes32","name":"role","type":"bytes32"},{"indexed":true,"internalType":"bytes32","name":"previousAdminRole","type":"bytes32"},{"indexed":true,"internalType":"bytes32","name":"newAdminRole","type":"bytes32"}],"name":"RoleAdminChanged","type":"event"},{"anonymous":false,"inputs":[{"indexed":true,"internalType":"bytes32","name":"role","type":"bytes32"},{"indexed":true,"internalType":"address","name":"account","type":"address"},{"indexed":true,"internalType":"address","name":"sender","type":"address"}],"name":"RoleGranted","type":"event"},{"anonymous":false,"inputs":[{"indexed":true,"internalType":"bytes32","name":"role","type":"bytes32"},{"indexed":true,"internalType":"address","name":"account","type":"address"},{"indexed":true,"internalType":"address","name":"sender","type":"address"}],"name":"RoleRevoked","type":"event"},{"anonymous":false,"inputs":[{"indexed":true,"internalType":"address","name":"from","type":"address"},{"indexed":true,"internalType":"address","name":"to","type":"address"},{"indexed":true,"internalType":"uint256","name":"tokenId","type":"uint256"}],"name":"Transfer","type":"event"},{"inputs":[],"name":"ADMIN_ROLE","outputs":[{"internalType":"bytes32","name":"","type":"bytes32"}],"stateMutability":"view","type":"function"},{"inputs":[],"name":"DEFAULT_ADMIN_ROLE","outputs":[{"internalType":"bytes32","name":"","type":"bytes32"}],"stateMutability":"view","type":"function"},{"inputs":[{"internalType":"address","name":"owner","type":"address"}],"name":"balanceOf","outputs":[{"internalType":"uint256","name":"","type":"uint256"}],"stateMutability":"view","type":"function"},{"inputs":[{"internalType":"uint256","name":"tokenId","type":"uint256"}],"name":"buyItem","outputs":[],"stateMutability":"payable","type":"function"},{"inputs":[{"internalType":"uint256","name":"tokenId","type":"uint256"}],"name":"cancelListing","outputs":[],"stateMutability":"nonpayable","type":"function"},{"inputs":[{"internalType":"uint256","name":"tokenId","type":"uint256"}],"name":"getFishermanTypeByTokenId","outputs":[{"internalType":"string","name":"","type":"string"}],"stateMutability":"view","type":"function"},{"inputs":[{"internalType":"address","name":"owner","type":"address"}],"name":"getOwnedNFTs","outputs":[{"components":[{"internalType":"uint256","name":"tokenId","type":"uint256"},{"internalType":"string","name":"fishermanType","type":"string"}],"internalType":"struct FishermanNFTTest.FishermanNft[]","name":"","type":"tuple[]"}],"stateMutability":"view","type":"function"},{"inputs":[{"internalType":"bytes32","name":"role","type":"bytes32"}],"name":"getRoleAdmin","outputs":[{"internalType":"bytes32","name":"","type":"bytes32"}],"stateMutability":"view","type":"function"},{"inputs":[{"internalType":"bytes32","name":"role","type":"bytes32"},{"internalType":"address","name":"account","type":"address"}],"name":"grantRole","outputs":[],"stateMutability":"nonpayable","type":"function"},{"inputs":[{"internalType":"bytes32","name":"role","type":"bytes32"},{"internalType":"address","name":"account","type":"address"}],"name":"hasRole","outputs":[{"internalType":"bool","name":"","type":"bool"}],"stateMutability":"view","type":"function"},{"inputs":[{"internalType":"uint256","name":"tokenId","type":"uint256"},{"internalType":"uint256","name":"price","type":"uint256"}],"name":"listItem","outputs":[],"stateMutability":"nonpayable","type":"function"},{"inputs":[{"internalType":"uint256","name":"","type":"uint256"}],"name":"listings","outputs":[{"internalType":"address","name":"seller","type":"address"},{"internalType":"uint256","name":"price","type":"uint256"}],"stateMutability":"view","type":"function"},{"inputs":[{"internalType":"uint256","name":"","type":"uint256"}],"name":"maxSupplies","outputs":[{"internalType":"uint256","name":"","type":"uint256"}],"stateMutability":"view","type":"function"},{"inputs":[],"name":"mintFisherman","outputs":[{"internalType":"uint256","name":"","type":"uint256"}],"stateMutability":"payable","type":"function"},{"inputs":[],"name":"mintPrice","outputs":[{"internalType":"uint256","name":"","type":"uint256"}],"stateMutability":"view","type":"function"},{"inputs":[{"internalType":"uint256","name":"","type":"uint256"}],"name":"mintedSupplies","outputs":[{"internalType":"uint256","name":"","type":"uint256"}],"stateMutability":"view","type":"function"},{"inputs":[],"name":"name","outputs":[{"internalType":"string","name":"","type":"string"}],"stateMutability":"view","type":"function"},{"inputs":[{"internalType":"address","name":"","type":"address"},{"internalType":"address","name":"","type":"address"},{"internalType":"uint256","name":"","type":"uint256"},{"internalType":"bytes","name":"","type":"bytes"}],"name":"onERC721Received","outputs":[{"internalType":"bytes4","name":"","type":"bytes4"}],"stateMutability":"nonpayable","type":"function"},{"inputs":[],"name":"owner","outputs":[{"internalType":"address","name":"","type":"address"}],"stateMutability":"view","type":"function"},{"inputs":[{"internalType":"uint256","name":"tokenId","type":"uint256"}],"name":"ownerOf","outputs":[{"internalType":"address","name":"","type":"address"}],"stateMutability":"view","type":"function"},{"inputs":[{"internalType":"uint256","name":"","type":"uint256"}],"name":"partOptions0","outputs":[{"internalType":"uint8","name":"","type":"uint8"}],"stateMutability":"view","type":"function"},{"inputs":[{"internalType":"uint256","name":"","type":"uint256"}],"name":"partOptions1","outputs":[{"internalType":"uint8","name":"","type":"uint8"}],"stateMutability":"view","type":"function"},{"inputs":[{"internalType":"uint256","name":"","type":"uint256"}],"name":"partOptions2","outputs":[{"internalType":"uint8","name":"","type":"uint8"}],"stateMutability":"view","type":"function"},{"inputs":[],"name":"renounceOwnership","outputs":[],"stateMutability":"nonpayable","type":"function"},{"inputs":[{"internalType":"bytes32","name":"role","type":"bytes32"},{"internalType":"address","name":"account","type":"address"}],"name":"renounceRole","outputs":[],"stateMutability":"nonpayable","type":"function"},{"inputs":[{"internalType":"bytes32","name":"role","type":"bytes32"},{"internalType":"address","name":"account","type":"address"}],"name":"revokeRole","outputs":[],"stateMutability":"nonpayable","type":"function"},{"inputs":[{"internalType":"string","name":"newBaseTokenURI","type":"string"}],"name":"setBaseTokenURI","outputs":[],"stateMutability":"nonpayable","type":"function"},{"inputs":[{"internalType":"uint256[]","name":"newMaxSupplies","type":"uint256[]"}],"name":"setMaxSupplies","outputs":[],"stateMutability":"nonpayable","type":"function"},{"inputs":[{"internalType":"uint256","name":"newMintPrice","type":"uint256"}],"name":"setMintPrice","outputs":[],"stateMutability":"nonpayable","type":"function"},{"inputs":[{"internalType":"uint256","name":"typeIndex","type":"uint256"},{"internalType":"uint8[9]","name":"newOptions","type":"uint8[9]"}],"name":"setPartOptions","outputs":[],"stateMutability":"nonpayable","type":"function"},{"inputs":[{"internalType":"bytes4","name":"interfaceId","type":"bytes4"}],"name":"supportsInterface","outputs":[{"internalType":"bool","name":"","type":"bool"}],"stateMutability":"view","type":"function"},{"inputs":[],"name":"symbol","outputs":[{"internalType":"string","name":"","type":"string"}],"stateMutability":"view","type":"function"},{"inputs":[{"internalType":"uint256","name":"index","type":"uint256"}],"name":"tokenByIndex","outputs":[{"internalType":"uint256","name":"","type":"uint256"}],"stateMutability":"view","type":"function"},{"inputs":[{"internalType":"address","name":"owner","type":"address"},{"internalType":"uint256","name":"index","type":"uint256"}],"name":"tokenOfOwnerByIndex","outputs":[{"internalType":"uint256","name":"","type":"uint256"}],"stateMutability":"view","type":"function"},{"inputs":[{"internalType":"uint256","name":"tokenId","type":"uint256"}],"name":"tokenURI","outputs":[{"internalType":"string","name":"","type":"string"}],"stateMutability":"view","type":"function"},{"inputs":[],"name":"totalSupply","outputs":[{"internalType":"uint256","name":"","type":"uint256"}],"stateMutability":"view","type":"function"},{"inputs":[{"internalType":"address","name":"from","type":"address"},{"internalType":"address","name":"to","type":"address"},{"internalType":"uint256","name":"tokenId","type":"uint256"}],"name":"transferFrom","outputs":[],"stateMutability":"nonpayable","type":"function"},{"inputs":[{"internalType":"address","name":"newOwner","type":"address"}],"name":"transferOwnership","outputs":[],"stateMutability":"nonpayable","type":"function"},{"inputs":[{"internalType":"uint256","name":"index","type":"uint256"},{"internalType":"uint256","name":"newMaxSupply","type":"uint256"}],"name":"updateMaxSupplyAt","outputs":[],"stateMutability":"nonpayable","type":"function"},{"inputs":[],"name":"withdraw","outputs":[],"stateMutability":"nonpayable","type":"function"}],"evm":{"bytecode":{"linkReferences":{},"object":"60806040526040518060800160405280604381526020016200661960439139601190816200002e91906200099b565b50604051806101200160405280600160ff168152602001600160ff168152602001600460ff168152602001600460ff168152602001600460ff168152602001600460ff168152602001600460ff168152602001600460ff168152602001600460ff168152506016906009620000a5929190620005b7565b50604051806101200160405280600160ff168152602001600160ff168152602001600460ff168152602001600460ff168152602001600460ff168152602001600460ff168152602001600460ff168152602001600460ff168152602001600460ff1681525060179060096200011c929190620005b7565b50604051806101200160405280600160ff168152602001600160ff168152602001600360ff168152602001600360ff168152602001600360ff168152602001600360ff168152602001600360ff168152602001600360ff168152602001600360ff16815250601890600962000193929190620005b7565b50348015620001a157600080fd5b506040516200665c3803806200665c8339818101604052810190620001c7919062000ab8565b6040518060400160405280600c81526020017f4669736865726d616e4e465400000000000000000000000000000000000000008152506040518060400160405280600381526020017f464d4e000000000000000000000000000000000000000000000000000000000081525062000253620002476200037860201b60201c565b6200038060201b60201c565b81600190816200026491906200099b565b5080600290816200027691906200099b565b50505080601281905550620002956000801b336200044460201b60201c565b620002c77fa49807205ce4d355092ef5a8a18f56e8913cf4a201fbe287825b095693c21775336200044460201b60201c565b604051806060016040528061400061ffff16815260200161400061ffff16815260200161088b61ffff1681525060149060036200030692919062000658565b5060148054905067ffffffffffffffff8111156200032957620003286200072c565b5b604051908082528060200260200182016040528015620003585781602001602082028036833780820191505090505b506015908051906020019062000370929190620006b0565b505062000aea565b600033905090565b60008060009054906101000a900473ffffffffffffffffffffffffffffffffffffffff169050816000806101000a81548173ffffffffffffffffffffffffffffffffffffffff021916908373ffffffffffffffffffffffffffffffffffffffff1602179055508173ffffffffffffffffffffffffffffffffffffffff168173ffffffffffffffffffffffffffffffffffffffff167f8be0079c531659141344cd1fd0a4f28419497f9722a3daafe3b4186f6b6457e060405160405180910390a35050565b6200045682826200045a60201b60201c565b5050565b6200046c82826200054c60201b60201c565b620005485760016006600084815260200190815260200160002060000160008373ffffffffffffffffffffffffffffffffffffffff1673ffffffffffffffffffffffffffffffffffffffff16815260200190815260200160002060006101000a81548160ff021916908315150217905550620004ed6200037860201b60201c565b73ffffffffffffffffffffffffffffffffffffffff168173ffffffffffffffffffffffffffffffffffffffff16837f2f8788117e7eff1d82e926ec794901d17c78024a50270940304540a733656f0d60405160405180910390a45b5050565b60006006600084815260200190815260200160002060000160008373ffffffffffffffffffffffffffffffffffffffff1673ffffffffffffffffffffffffffffffffffffffff16815260200190815260200160002060009054906101000a900460ff16905092915050565b826009601f01602090048101928215620006455791602002820160005b838211156200061457835183826101000a81548160ff021916908360ff1602179055509260200192600101602081600001049283019260010302620005d4565b8015620006435782816101000a81549060ff021916905560010160208160000104928301926001030262000614565b505b50905062000654919062000702565b5090565b8280548282559060005260206000209081019282156200069d579160200282015b828111156200069c578251829061ffff1690559160200191906001019062000679565b5b509050620006ac919062000702565b5090565b828054828255906000526020600020908101928215620006ef579160200282015b82811115620006ee578251825591602001919060010190620006d1565b5b509050620006fe919062000702565b5090565b5b808211156200071d57600081600090555060010162000703565b5090565b600081519050919050565b7f4e487b7100000000000000000000000000000000000000000000000000000000600052604160045260246000fd5b7f4e487b7100000000000000000000000000000000000000000000000000000000600052602260045260246000fd5b60006002820490506001821680620007a357607f821691505b602082108103620007b957620007b86200075b565b5b50919050565b60008190508160005260206000209050919050565b60006020601f8301049050919050565b600082821b905092915050565b600060088302620008237fffffffffffffffffffffffffffffffffffffffffffffffffffffffffffffffff82620007e4565b6200082f8683620007e4565b95508019841693508086168417925050509392505050565b6000819050919050565b6000819050919050565b60006200087c62000876620008708462000847565b62000851565b62000847565b9050919050565b6000819050919050565b62000898836200085b565b620008b0620008a78262000883565b848454620007f1565b825550505050565b600090565b620008c7620008b8565b620008d48184846200088d565b505050565b5b81811015620008fc57620008f0600082620008bd565b600181019050620008da565b5050565b601f8211156200094b576200091581620007bf565b6200092084620007d4565b8101602085101562000930578190505b620009486200093f85620007d4565b830182620008d9565b50505b505050565b600082821c905092915050565b6000620009706000198460080262000950565b1980831691505092915050565b60006200098b83836200095d565b9150826002028217905092915050565b620009a68262000721565b67ffffffffffffffff811115620009c257620009c16200072c565b5b620009ce82546200078a565b620009db82828562000900565b600060209050601f83116001811462000a135760008415620009fe578287015190505b62000a0a85826200097d565b86555062000a7a565b601f19841662000a2386620007bf565b60005b8281101562000a4d5784890151825560018201915060208501945060208101905062000a26565b8683101562000a6d578489015162000a69601f8916826200095d565b8355505b6001600288020188555050505b505050505050565b600080fd5b62000a928162000847565b811462000a9e57600080fd5b50565b60008151905062000ab28162000a87565b92915050565b60006020828403121562000ad15762000ad062000a82565b5b600062000ae18482850162000aa1565b91505092915050565b615b1f8062000afa6000396000f3fe60806040526004361061023b5760003560e01c806375b238fc1161012e578063be6f0ef1116100ab578063e7fb74c71161006f578063e7fb74c7146108fb578063f2fde38b14610917578063f42a7b7014610940578063f4a0a5281461097d578063fc0b5b1d146109a65761023b565b8063be6f0ef1146107dd578063c87b56dd1461081a578063d547741f14610857578063d70e761b14610880578063de74e57b146108bd5761023b565b806391d14854116100f257806391d148541461070357806395d89b411461074057806395e662871461076b578063a212a5cc14610794578063a217fddf146107b25761023b565b806375b238fc1461061e57806387962dcc14610649578063883efa67146106865780638ac103f7146106af5780638da5cb5b146106d85761023b565b806330176e13116101bc578063606733ed11610180578063606733ed146105255780636352211e146105625780636817c76c1461059f57806370a08231146105ca578063715018a6146106075761023b565b806330176e1314610456578063305a67a81461047f57806336568abe146104a85780633ccfd60b146104d15780634f6ccce7146104e85761023b565b806323b872dd1161020357806323b872dd1461034d5780632489fd5e14610376578063248a9ca3146103b35780632f2ff15d146103f05780632f745c59146104195761023b565b806301ffc9a71461024057806306fdde031461027d578063150b7a02146102a857806318148f1b146102e557806318160ddd14610322575b600080fd5b34801561024c57600080fd5b5061026760048036038101906102629190613e57565b6109cf565b6040516102749190613e9f565b60405180910390f35b34801561028957600080fd5b50610292610ab1565b60405161029f9190613f4a565b60405180910390f35b3480156102b457600080fd5b506102cf60048036038101906102ca9190614135565b610b43565b6040516102dc91906141c7565b60405180910390f35b3480156102f157600080fd5b5061030c600480360381019061030791906141e2565b610b57565b6040516103199190614367565b60405180910390f35b34801561032e57600080fd5b50610337610d8c565b6040516103449190614398565b60405180910390f35b34801561035957600080fd5b50610374600480360381019061036f91906143b3565b610d99565b005b34801561038257600080fd5b5061039d60048036038101906103989190614406565b610e12565b6040516103aa9190614398565b60405180910390f35b3480156103bf57600080fd5b506103da60048036038101906103d59190614469565b610e36565b6040516103e791906144a5565b60405180910390f35b3480156103fc57600080fd5b50610417600480360381019061041291906144c0565b610e56565b005b34801561042557600080fd5b50610440600480360381019061043b9190614500565b610e77565b60405161044d9190614398565b60405180910390f35b34801561046257600080fd5b5061047d600480360381019061047891906145e1565b610f1c565b005b34801561048b57600080fd5b506104a660048036038101906104a19190614406565b610f98565b005b3480156104b457600080fd5b506104cf60048036038101906104ca91906144c0565b6110e0565b005b3480156104dd57600080fd5b506104e6611163565b005b3480156104f457600080fd5b5061050f600480360381019061050a9190614406565b6111c1565b60405161051c9190614398565b60405180910390f35b34801561053157600080fd5b5061054c60048036038101906105479190614406565b6111fc565b6040516105599190614646565b60405180910390f35b34801561056e57600080fd5b5061058960048036038101906105849190614406565b611226565b6040516105969190614670565b60405180910390f35b3480156105ab57600080fd5b506105b46112ac565b6040516105c19190614398565b60405180910390f35b3480156105d657600080fd5b506105f160048036038101906105ec91906141e2565b6112b2565b6040516105fe9190614398565b60405180910390f35b34801561061357600080fd5b5061061c611369565b005b34801561062a57600080fd5b5061063361137d565b60405161064091906144a5565b60405180910390f35b34801561065557600080fd5b50610670600480360381019061066b9190614406565b6113a1565b60405161067d9190614398565b60405180910390f35b34801561069257600080fd5b506106ad60048036038101906106a8919061468b565b6113c5565b005b3480156106bb57600080fd5b506106d660048036038101906106d191906147ad565b611502565b005b3480156106e457600080fd5b506106ed6115ce565b6040516106fa9190614670565b60405180910390f35b34801561070f57600080fd5b5061072a600480360381019061072591906144c0565b6115f7565b6040516107379190613e9f565b60405180910390f35b34801561074c57600080fd5b50610755611662565b6040516107629190613f4a565b60405180910390f35b34801561077757600080fd5b50610792600480360381019061078d91906148b1565b6116f4565b005b61079c611852565b6040516107a99190614398565b60405180910390f35b3480156107be57600080fd5b506107c7611ec0565b6040516107d491906144a5565b60405180910390f35b3480156107e957600080fd5b5061080460048036038101906107ff9190614406565b611ec7565b6040516108119190614646565b60405180910390f35b34801561082657600080fd5b50610841600480360381019061083c9190614406565b611ef1565b60405161084e9190613f4a565b60405180910390f35b34801561086357600080fd5b5061087e600480360381019061087991906144c0565b611feb565b005b34801561088c57600080fd5b506108a760048036038101906108a29190614406565b61200c565b6040516108b49190614646565b60405180910390f35b3480156108c957600080fd5b506108e460048036038101906108df9190614406565b612036565b6040516108f29291906148fa565b60405180910390f35b61091560048036038101906109109190614406565b61207a565b005b34801561092357600080fd5b5061093e600480360381019061093991906141e2565b61227b565b005b34801561094c57600080fd5b5061096760048036038101906109629190614406565b6122c8565b6040516109749190613f4a565b60405180910390f35b34801561098957600080fd5b506109a4600480360381019061099f9190614406565b61236d565b005b3480156109b257600080fd5b506109cd60048036038101906109c8919061468b565b6123e0565b005b60007f304ad1f2000000000000000000000000000000000000000000000000000000007bffffffffffffffffffffffffffffffffffffffffffffffffffffffff1916827bffffffffffffffffffffffffffffffffffffffffffffffffffffffff19161480610a9a57507f5b5e139f000000000000000000000000000000000000000000000000000000007bffffffffffffffffffffffffffffffffffffffffffffffffffffffff1916827bffffffffffffffffffffffffffffffffffffffffffffffffffffffff1916145b80610aaa5750610aa9826124ac565b5b9050919050565b606060078054610ac090614952565b80601f0160208091040260200160405190810160405280929190818152602001828054610aec90614952565b8015610b395780601f10610b0e57610100808354040283529160200191610b39565b820191906000526020600020905b815481529060010190602001808311610b1c57829003601f168201915b5050505050905090565b600063150b7a0260e01b9050949350505050565b60606000610b64836112b2565b905060008167ffffffffffffffff811115610b8257610b8161400a565b5b604051908082528060200260200182016040528015610bb05781602001602082028036833780820191505090505b50905060008267ffffffffffffffff811115610bcf57610bce61400a565b5b604051908082528060200260200182016040528015610c0257816020015b6060815260200190600190039081610bed5790505b50905060005b83811015610c4657610c1a8682610e77565b838281518110610c2d57610c2c614983565b5b6020026020010181815250508080600101915050610c08565b5060005b8251811015610ca157610c76838281518110610c6957610c68614983565b5b60200260200101516122c8565b828281518110610c8957610c88614983565b5b60200260200101819052508080600101915050610c4a565b5060008367ffffffffffffffff811115610cbe57610cbd61400a565b5b604051908082528060200260200182016040528015610cf757816020015b610ce4613caa565b815260200190600190039081610cdc5790505b50905060005b84811015610d7f5760006040518060400160405280868481518110610d2557610d24614983565b5b60200260200101518152602001858481518110610d4557610d44614983565b5b6020026020010151815250905080838381518110610d6657610d65614983565b5b6020026020010181905250508080600101915050610cfd565b5080945050505050919050565b6000600e80549050905090565b610dc37fa49807205ce4d355092ef5a8a18f56e8913cf4a201fbe287825b095693c21775336115f7565b610e02576040517f08c379a0000000000000000000000000000000000000000000000000000000008152600401610df9906149fe565b60405180910390fd5b610e0d838383612526565b505050565b60158181548110610e2257600080fd5b906000526020600020016000915090505481565b600060066000838152602001908152602001600020600101549050919050565b610e5f82610e36565b610e688161281f565b610e728383612833565b505050565b6000610e82836112b2565b8210610ec3576040517f08c379a0000000000000000000000000000000000000000000000000000000008152600401610eba90614a6a565b60405180910390fd5b600b60008473ffffffffffffffffffffffffffffffffffffffff1673ffffffffffffffffffffffffffffffffffffffff168152602001908152602001600020600083815260200190815260200160002054905092915050565b610f467fa49807205ce4d355092ef5a8a18f56e8913cf4a201fbe287825b095693c21775336115f7565b610f85576040517f08c379a0000000000000000000000000000000000000000000000000000000008152600401610f7c906149fe565b60405180910390fd5b8060119081610f949190614c36565b5050565b6000601360008381526020019081526020016000206040518060400160405290816000820160009054906101000a900473ffffffffffffffffffffffffffffffffffffffff1673ffffffffffffffffffffffffffffffffffffffff1673ffffffffffffffffffffffffffffffffffffffff16815260200160018201548152505090503373ffffffffffffffffffffffffffffffffffffffff16816000015173ffffffffffffffffffffffffffffffffffffffff161461108c576040517f08c379a000000000000000000000000000000000000000000000000000000000815260040161108390614d54565b60405180910390fd5b60136000838152602001908152602001600020600080820160006101000a81549073ffffffffffffffffffffffffffffffffffffffff0219169055600182016000905550506110dc303384612914565b5050565b6110e8612924565b73ffffffffffffffffffffffffffffffffffffffff168173ffffffffffffffffffffffffffffffffffffffff1614611155576040517f08c379a000000000000000000000000000000000000000000000000000000000815260040161114c90614de6565b60405180910390fd5b61115f828261292c565b5050565b61116b612a0e565b60004790506111786115ce565b73ffffffffffffffffffffffffffffffffffffffff166108fc829081150290604051600060405180830381858888f193505050501580156111bd573d6000803e3d6000fd5b5050565b60006111cb610d8c565b82106111d657600080fd5b600e82815481106111ea576111e9614983565b5b90600052602060002001549050919050565b6017816009811061120c57600080fd5b60209182820401919006915054906101000a900460ff1681565b60008061123283612a8c565b9050600073ffffffffffffffffffffffffffffffffffffffff168173ffffffffffffffffffffffffffffffffffffffff16036112a3576040517f08c379a000000000000000000000000000000000000000000000000000000000815260040161129a90614e52565b60405180910390fd5b80915050919050565b60125481565b60008073ffffffffffffffffffffffffffffffffffffffff168273ffffffffffffffffffffffffffffffffffffffff1603611322576040517f08c379a000000000000000000000000000000000000000000000000000000000815260040161131990614ee4565b60405180910390fd5b600460008373ffffffffffffffffffffffffffffffffffffffff1673ffffffffffffffffffffffffffffffffffffffff168152602001908152602001600020549050919050565b611371612a0e565b61137b6000612ac9565b565b7fa49807205ce4d355092ef5a8a18f56e8913cf4a201fbe287825b095693c2177581565b601481815481106113b157600080fd5b906000526020600020016000915090505481565b600081116113d257600080fd5b3373ffffffffffffffffffffffffffffffffffffffff166113f283611226565b73ffffffffffffffffffffffffffffffffffffffff161461141257600080fd5b61141d333084612914565b60405180604001604052803373ffffffffffffffffffffffffffffffffffffffff168152602001828152506013600084815260200190815260200160002060008201518160000160006101000a81548173ffffffffffffffffffffffffffffffffffffffff021916908373ffffffffffffffffffffffffffffffffffffffff160217905550602082015181600101559050503373ffffffffffffffffffffffffffffffffffffffff16827fc93edc6ee14cd6c0c2842099adfa8953b237dbdad304ba28e96dce8a7f2a828c836040516114f69190614398565b60405180910390a35050565b61152c7fa49807205ce4d355092ef5a8a18f56e8913cf4a201fbe287825b095693c21775336115f7565b61156b576040517f08c379a0000000000000000000000000000000000000000000000000000000008152600401611562906149fe565b60405180910390fd5b6003821061157857600080fd5b6000820361159757806016906009611591929190613cc4565b506115ca565b600182036115b6578060179060096115b0929190613cc4565b506115c9565b8060189060096115c7929190613cc4565b505b5b5050565b60008060009054906101000a900473ffffffffffffffffffffffffffffffffffffffff16905090565b60006006600084815260200190815260200160002060000160008373ffffffffffffffffffffffffffffffffffffffff1673ffffffffffffffffffffffffffffffffffffffff16815260200190815260200160002060009054906101000a900460ff16905092915050565b60606008805461167190614952565b80601f016020809104026020016040519081016040528092919081815260200182805461169d90614952565b80156116ea5780601f106116bf576101008083540402835291602001916116ea565b820191906000526020600020905b8154815290600101906020018083116116cd57829003601f168201915b5050505050905090565b61171e7fa49807205ce4d355092ef5a8a18f56e8913cf4a201fbe287825b095693c21775336115f7565b61175d576040517f08c379a0000000000000000000000000000000000000000000000000000000008152600401611754906149fe565b60405180910390fd5b6015805490508151101561177057600080fd5b60005b81518110156117dc576015805490508110156117cf576015818154811061179d5761179c614983565b5b90600052602060002001548282815181106117bb576117ba614983565b5b602002602001015110156117ce57600080fd5b5b8080600101915050611773565b5080601490805190602001906117f3929190613d5e565b506015805490508151111561184f57600060158054905090505b815181101561184d57601560009080600181540180825580915050600190039060005260206000200160009091909190915055808060010191505061180d565b505b50565b6000601254341015611899576040517f08c379a000000000000000000000000000000000000000000000000000000000815260040161189090614f50565b60405180910390fd5b6000600160646118a7612b8d565b6118b19190614f9f565b6118bb9190614fff565b90506000604782116118d057600090506118e7565b606382116118e157600190506118e6565b600290505b5b601481815481106118fb576118fa614983565b5b90600052602060002001546015828154811061191a57611919614983565b5b906000526020600020015410611965576040517f08c379a000000000000000000000000000000000000000000000000000000000815260040161195c9061507f565b60405180910390fd5b60006119716009612bc8565b905061197d6009612bd6565b611985613dab565b600083036119f85760166009806020026040519081016040528092919082600980156119ec576020028201916000905b82829054906101000a900460ff1660ff16815260200190600101906020826000010492830192600103820291508084116119b55790505b50505050509050611ad3565b60018303611a6b576017600980602002604051908101604052809291908260098015611a5f576020028201916000905b82829054906101000a900460ff1660ff1681526020019060010190602082600001049283019260010382029150808411611a285790505b50505050509050611ad2565b6018600980602002604051908101604052809291908260098015611aca576020028201916000905b82829054906101000a900460ff1660ff1681526020019060010190602082600001049283019260010382029150808411611a935790505b505050505090505b5b606060005b80611d2e57611ae5613dab565b600186611af29190614fff565b81600060098110611b0657611b05614983565b5b602002019060ff16908160ff16815250506000600190505b60098160ff161015611ba0576001858260ff1660098110611b4257611b41614983565b5b602002015160ff16611b52612b8d565b611b5c9190614f9f565b611b669190614fff565b828260ff1660098110611b7c57611b7b614983565b5b602002019060ff16908160ff16815250508080611b989061509f565b915050611b1e565b50611bc281600060098110611bb857611bb7614983565b5b6020020151612bec565b611be382600160098110611bd957611bd8614983565b5b6020020151612bec565b611c0483600260098110611bfa57611bf9614983565b5b6020020151612bec565b611c2584600360098110611c1b57611c1a614983565b5b6020020151612bec565b611c4685600460098110611c3c57611c3b614983565b5b6020020151612bec565b611c6786600560098110611c5d57611c5c614983565b5b6020020151612bec565b611c8887600660098110611c7e57611c7d614983565b5b6020020151612bec565b611ca988600760098110611c9f57611c9e614983565b5b6020020151612bec565b611cca89600860098110611cc057611cbf614983565b5b6020020151612bec565b604051602001611ce299989796959493929190615104565b6040516020818303038152906040529250601083604051611d039190615183565b908152602001604051809103902060009054906101000a900460ff16611d2857600191505b50611ad8565b60158581548110611d4257611d41614983565b5b906000526020600020016000815480929190611d5d9061519a565b9190505550611d6c3385612c3a565b6040518060400160405280601281526020017f30313031303130313033303130313034303400000000000000000000000000008152509150611dae8483612e57565b81600d60008681526020019081526020016000209081611dce9190614c36565b506001601083604051611de19190615183565b908152602001604051809103902060006101000a81548160ff021916908315150217905550833373ffffffffffffffffffffffffffffffffffffffff167f8ee4b9f15ee011f61a4a6c5a5e7aec5d3ce89e5190a2b7d3609d6f2a5b492f6884604051611e4d9190613f4a565b60405180910390a3601254341115611eb4573373ffffffffffffffffffffffffffffffffffffffff166108fc60125434611e8791906151e2565b9081150290604051600060405180830381858888f19350505050158015611eb2573d6000803e3d6000fd5b505b83965050505050505090565b6000801b81565b60168160098110611ed757600080fd5b60209182820401919006915054906101000a900460ff1681565b6060611efc82612ee7565b611f0557600080fd5b6000600a60008481526020019081526020016000208054611f2590614952565b80601f0160208091040260200160405190810160405280929190818152602001828054611f5190614952565b8015611f9e5780601f10611f7357610100808354040283529160200191611f9e565b820191906000526020600020905b815481529060010190602001808311611f8157829003601f168201915b505050505090506000611faf612f28565b90506000815103611fc4578192505050611fe6565b600082511115611fd8578192505050611fe6565b611fe184612fba565b925050505b919050565b611ff482610e36565b611ffd8161281f565b612007838361292c565b505050565b6018816009811061201c57600080fd5b60209182820401919006915054906101000a900460ff1681565b60136020528060005260406000206000915090508060000160009054906101000a900473ffffffffffffffffffffffffffffffffffffffff16908060010154905082565b6000601360008381526020019081526020016000206040518060400160405290816000820160009054906101000a900473ffffffffffffffffffffffffffffffffffffffff1673ffffffffffffffffffffffffffffffffffffffff1673ffffffffffffffffffffffffffffffffffffffff16815260200160018201548152505090506000816020015111612143576040517f08c379a000000000000000000000000000000000000000000000000000000000815260040161213a90615262565b60405180910390fd5b80602001513414612189576040517f08c379a0000000000000000000000000000000000000000000000000000000008152600401612180906152ce565b60405180910390fd5b60136000838152602001908152602001600020600080820160006101000a81549073ffffffffffffffffffffffffffffffffffffffff0219169055600182016000905550506121d9303384612914565b806000015173ffffffffffffffffffffffffffffffffffffffff166108fc349081150290604051600060405180830381858888f19350505050158015612223573d6000803e3d6000fd5b503373ffffffffffffffffffffffffffffffffffffffff16827fa574c741071bb18f51fa88c17aeefec514bebf670ca22a3736fba6504ecbb763836020015160405161226f9190614398565b60405180910390a35050565b612283612a0e565b600073ffffffffffffffffffffffffffffffffffffffff168173ffffffffffffffffffffffffffffffffffffffff16036122bc57600080fd5b6122c581612ac9565b50565b6060600d600083815260200190815260200160002080546122e890614952565b80601f016020809104026020016040519081016040528092919081815260200182805461231490614952565b80156123615780601f1061233657610100808354040283529160200191612361565b820191906000526020600020905b81548152906001019060200180831161234457829003601f168201915b50505050509050919050565b6123977fa49807205ce4d355092ef5a8a18f56e8913cf4a201fbe287825b095693c21775336115f7565b6123d6576040517f08c379a00000000000000000000000000000000000000000000000000000000081526004016123cd906149fe565b60405180910390fd5b8060128190555050565b61240a7fa49807205ce4d355092ef5a8a18f56e8913cf4a201fbe287825b095693c21775336115f7565b612449576040517f08c379a0000000000000000000000000000000000000000000000000000000008152600401612440906149fe565b60405180910390fd5b601480549050821061245a57600080fd5b6015828154811061246e5761246d614983565b5b906000526020600020015481101561248557600080fd5b806014838154811061249a57612499614983565b5b90600052602060002001819055505050565b60007f7965db0b000000000000000000000000000000000000000000000000000000007bffffffffffffffffffffffffffffffffffffffffffffffffffffffff1916827bffffffffffffffffffffffffffffffffffffffffffffffffffffffff1916148061251f575061251e82613022565b5b9050919050565b8273ffffffffffffffffffffffffffffffffffffffff1661254682611226565b73ffffffffffffffffffffffffffffffffffffffff161461259c576040517f08c379a000000000000000000000000000000000000000000000000000000000815260040161259390615360565b60405180910390fd5b600073ffffffffffffffffffffffffffffffffffffffff168273ffffffffffffffffffffffffffffffffffffffff160361260b576040517f08c379a0000000000000000000000000000000000000000000000000000000008152600401612602906153f2565b60405180910390fd5b6126188383836001613104565b8273ffffffffffffffffffffffffffffffffffffffff1661263882611226565b73ffffffffffffffffffffffffffffffffffffffff161461268e576040517f08c379a000000000000000000000000000000000000000000000000000000000815260040161268590615360565b60405180910390fd5b6005600082815260200190815260200160002060006101000a81549073ffffffffffffffffffffffffffffffffffffffff02191690556001600460008573ffffffffffffffffffffffffffffffffffffffff1673ffffffffffffffffffffffffffffffffffffffff168152602001908152602001600020600082825403925050819055506001600460008473ffffffffffffffffffffffffffffffffffffffff1673ffffffffffffffffffffffffffffffffffffffff16815260200190815260200160002060008282540192505081905550816003600083815260200190815260200160002060006101000a81548173ffffffffffffffffffffffffffffffffffffffff021916908373ffffffffffffffffffffffffffffffffffffffff160217905550808273ffffffffffffffffffffffffffffffffffffffff168473ffffffffffffffffffffffffffffffffffffffff167fddf252ad1be2c89b69c2b068fc378daa952ba7f163c4a11628f55a4df523b3ef60405160405180910390a461281a8383836001613262565b505050565b6128308161282b612924565b613268565b50565b61283d82826115f7565b6129105760016006600084815260200190815260200160002060000160008373ffffffffffffffffffffffffffffffffffffffff1673ffffffffffffffffffffffffffffffffffffffff16815260200190815260200160002060006101000a81548160ff0219169083151502179055506128b5612924565b73ffffffffffffffffffffffffffffffffffffffff168173ffffffffffffffffffffffffffffffffffffffff16837f2f8788117e7eff1d82e926ec794901d17c78024a50270940304540a733656f0d60405160405180910390a45b5050565b61291f838383612526565b505050565b600033905090565b61293682826115f7565b15612a0a5760006006600084815260200190815260200160002060000160008373ffffffffffffffffffffffffffffffffffffffff1673ffffffffffffffffffffffffffffffffffffffff16815260200190815260200160002060006101000a81548160ff0219169083151502179055506129af612924565b73ffffffffffffffffffffffffffffffffffffffff168173ffffffffffffffffffffffffffffffffffffffff16837ff6391f5c32d9c69d2a47ea670b442974b53935d1edc7fd64eb21e047a839171b60405160405180910390a45b5050565b612a16612924565b73ffffffffffffffffffffffffffffffffffffffff16612a346115ce565b73ffffffffffffffffffffffffffffffffffffffff1614612a8a576040517f08c379a0000000000000000000000000000000000000000000000000000000008152600401612a819061545e565b60405180910390fd5b565b60006003600083815260200190815260200160002060009054906101000a900473ffffffffffffffffffffffffffffffffffffffff169050919050565b60008060009054906101000a900473ffffffffffffffffffffffffffffffffffffffff169050816000806101000a81548173ffffffffffffffffffffffffffffffffffffffff021916908373ffffffffffffffffffffffffffffffffffffffff1602179055508173ffffffffffffffffffffffffffffffffffffffff168173ffffffffffffffffffffffffffffffffffffffff167f8be0079c531659141344cd1fd0a4f28419497f9722a3daafe3b4186f6b6457e060405160405180910390a35050565b6000424443335a47604051602001612baa969594939291906154e7565b6040516020818303038152906040528051906020012060001c905090565b600081600001549050919050565b6001816000016000828254019250508190555050565b6060600a8260ff161015612c2957612c03826132ed565b604051602001612c1391906155a3565b6040516020818303038152906040529050612c35565b612c32826132ed565b90505b919050565b600073ffffffffffffffffffffffffffffffffffffffff168273ffffffffffffffffffffffffffffffffffffffff1603612ca9576040517f08c379a0000000000000000000000000000000000000000000000000000000008152600401612ca090615611565b60405180910390fd5b612cb281612ee7565b15612cf2576040517f08c379a0000000000000000000000000000000000000000000000000000000008152600401612ce99061567d565b60405180910390fd5b612d00600083836001613104565b612d0981612ee7565b15612d49576040517f08c379a0000000000000000000000000000000000000000000000000000000008152600401612d409061567d565b60405180910390fd5b6001600460008473ffffffffffffffffffffffffffffffffffffffff1673ffffffffffffffffffffffffffffffffffffffff16815260200190815260200160002060008282540192505081905550816003600083815260200190815260200160002060006101000a81548173ffffffffffffffffffffffffffffffffffffffff021916908373ffffffffffffffffffffffffffffffffffffffff160217905550808273ffffffffffffffffffffffffffffffffffffffff16600073ffffffffffffffffffffffffffffffffffffffff167fddf252ad1be2c89b69c2b068fc378daa952ba7f163c4a11628f55a4df523b3ef60405160405180910390a4612e53600083836001613262565b5050565b612e6082612ee7565b612e6957600080fd5b601181604051602001612e7d92919061576c565b604051602081830303815290604052600a60008481526020019081526020016000209081612eab9190614c36565b507ff8e1a15aba9398e019f0b49df1a4fde98ee17ae345cb5f6b5e2c27f5033e8ce782604051612edb9190614398565b60405180910390a15050565b60008073ffffffffffffffffffffffffffffffffffffffff16612f0983612a8c565b73ffffffffffffffffffffffffffffffffffffffff1614159050919050565b606060118054612f3790614952565b80601f0160208091040260200160405190810160405280929190818152602001828054612f6390614952565b8015612fb05780601f10612f8557610100808354040283529160200191612fb0565b820191906000526020600020905b815481529060010190602001808311612f9357829003601f168201915b5050505050905090565b6060612fc58261345f565b6000612fcf612f28565b90506000815111612fef576040518060200160405280600081525061301a565b80612ff9846134aa565b60405160200161300a92919061579b565b6040516020818303038152906040525b915050919050565b60007f304ad1f2000000000000000000000000000000000000000000000000000000007bffffffffffffffffffffffffffffffffffffffffffffffffffffffff1916827bffffffffffffffffffffffffffffffffffffffffffffffffffffffff191614806130ed57507f5b5e139f000000000000000000000000000000000000000000000000000000007bffffffffffffffffffffffffffffffffffffffffffffffffffffffff1916827bffffffffffffffffffffffffffffffffffffffffffffffffffffffff1916145b806130fd57506130fc82613578565b5b9050919050565b613110848484846135e2565b6001811115613154576040517f08c379a000000000000000000000000000000000000000000000000000000000815260040161314b90615831565b60405180910390fd5b6000829050600073ffffffffffffffffffffffffffffffffffffffff168573ffffffffffffffffffffffffffffffffffffffff160361319b57613196816135e8565b6131da565b8373ffffffffffffffffffffffffffffffffffffffff168573ffffffffffffffffffffffffffffffffffffffff16146131d9576131d88582613631565b5b5b600073ffffffffffffffffffffffffffffffffffffffff168473ffffffffffffffffffffffffffffffffffffffff160361321c576132178161379e565b61325b565b8473ffffffffffffffffffffffffffffffffffffffff168473ffffffffffffffffffffffffffffffffffffffff161461325a57613259848261386f565b5b5b5050505050565b50505050565b61327282826115f7565b6132e95761327f816138ee565b61328d8360001c602061391b565b60405160200161329e9291906158e9565b6040516020818303038152906040526040517f08c379a00000000000000000000000000000000000000000000000000000000081526004016132e09190613f4a565b60405180910390fd5b5050565b606060008260ff1603613337576040518060400160405280600181526020017f3000000000000000000000000000000000000000000000000000000000000000815250905061345a565b600082905060005b60008260ff161461336c5780806133559061509f565b915050600a826133659190615923565b915061333f565b60008160ff1667ffffffffffffffff81111561338b5761338a61400a565b5b6040519080825280601f01601f1916602001820160405280156133bd5781602001600182028036833780820191505090505b50905060008290505b60008660ff161461345257600a866133de9190615954565b60306133ea9190615985565b60f81b82826133f8906159ba565b92508260ff168151811061340f5761340e614983565b5b60200101907effffffffffffffffffffffffffffffffffffffffffffffffffffffffffffff1916908160001a905350600a8661344b9190615923565b95506133c6565b819450505050505b919050565b61346881612ee7565b6134a7576040517f08c379a000000000000000000000000000000000000000000000000000000000815260040161349e90614e52565b60405180910390fd5b50565b6060600060016134b984613b57565b01905060008167ffffffffffffffff8111156134d8576134d761400a565b5b6040519080825280601f01601f19166020018201604052801561350a5781602001600182028036833780820191505090505b509050600082602001820190505b60011561356d578080600190039150507f3031323334353637383961626364656600000000000000000000000000000000600a86061a8153600a858161356157613560614f70565b5b04945060008503613518575b819350505050919050565b60007f01ffc9a7000000000000000000000000000000000000000000000000000000007bffffffffffffffffffffffffffffffffffffffffffffffffffffffff1916827bffffffffffffffffffffffffffffffffffffffffffffffffffffffff1916149050919050565b50505050565b600e80549050600f600083815260200190815260200160002081905550600e81908060018154018082558091505060019003906000526020600020016000909190919091505550565b6000600161363e846112b2565b61364891906151e2565b90506000600c600084815260200190815260200160002054905081811461372d576000600b60008673ffffffffffffffffffffffffffffffffffffffff1673ffffffffffffffffffffffffffffffffffffffff168152602001908152602001600020600084815260200190815260200160002054905080600b60008773ffffffffffffffffffffffffffffffffffffffff1673ffffffffffffffffffffffffffffffffffffffff16815260200190815260200160002060008481526020019081526020016000208190555081600c600083815260200190815260200160002081905550505b600c600084815260200190815260200160002060009055600b60008573ffffffffffffffffffffffffffffffffffffffff1673ffffffffffffffffffffffffffffffffffffffff16815260200190815260200160002060008381526020019081526020016000206000905550505050565b60006001600e805490506137b291906151e2565b90506000600f60008481526020019081526020016000205490506000600e83815481106137e2576137e1614983565b5b9060005260206000200154905080600e838154811061380457613803614983565b5b906000526020600020018190555081600f600083815260200190815260200160002081905550600f600085815260200190815260200160002060009055600e805480613853576138526159e3565b5b6001900381819060005260206000200160009055905550505050565b600061387a836112b2565b905081600b60008573ffffffffffffffffffffffffffffffffffffffff1673ffffffffffffffffffffffffffffffffffffffff16815260200190815260200160002060008381526020019081526020016000208190555080600c600084815260200190815260200160002081905550505050565b60606139148273ffffffffffffffffffffffffffffffffffffffff16601460ff1661391b565b9050919050565b60606000600283600261392e9190615a12565b6139389190614fff565b67ffffffffffffffff8111156139515761395061400a565b5b6040519080825280601f01601f1916602001820160405280156139835781602001600182028036833780820191505090505b5090507f3000000000000000000000000000000000000000000000000000000000000000816000815181106139bb576139ba614983565b5b60200101907effffffffffffffffffffffffffffffffffffffffffffffffffffffffffffff1916908160001a9053507f780000000000000000000000000000000000000000000000000000000000000081600181518110613a1f57613a1e614983565b5b60200101907effffffffffffffffffffffffffffffffffffffffffffffffffffffffffffff1916908160001a90535060006001846002613a5f9190615a12565b613a699190614fff565b90505b6001811115613b09577f3031323334353637383961626364656600000000000000000000000000000000600f861660108110613aab57613aaa614983565b5b1a60f81b828281518110613ac257613ac1614983565b5b60200101907effffffffffffffffffffffffffffffffffffffffffffffffffffffffffffff1916908160001a905350600485901c945080613b0290615a54565b9050613a6c565b5060008414613b4d576040517f08c379a0000000000000000000000000000000000000000000000000000000008152600401613b4490615ac9565b60405180910390fd5b8091505092915050565b600080600090507a184f03e93ff9f4daa797ed6e38ed64bf6a1f0100000000000000008310613bb5577a184f03e93ff9f4daa797ed6e38ed64bf6a1f0100000000000000008381613bab57613baa614f70565b5b0492506040810190505b6d04ee2d6d415b85acef81000000008310613bf2576d04ee2d6d415b85acef81000000008381613be857613be7614f70565b5b0492506020810190505b662386f26fc100008310613c2157662386f26fc100008381613c1757613c16614f70565b5b0492506010810190505b6305f5e1008310613c4a576305f5e1008381613c4057613c3f614f70565b5b0492506008810190505b6127108310613c6f576127108381613c6557613c64614f70565b5b0492506004810190505b60648310613c925760648381613c8857613c87614f70565b5b0492506002810190505b600a8310613ca1576001810190505b80915050919050565b604051806040016040528060008152602001606081525090565b826009601f01602090048101928215613d4d5791602002820160005b83821115613d1e57835183826101000a81548160ff021916908360ff1602179055509260200192600101602081600001049283019260010302613ce0565b8015613d4b5782816101000a81549060ff0219169055600101602081600001049283019260010302613d1e565b505b509050613d5a9190613dce565b5090565b828054828255906000526020600020908101928215613d9a579160200282015b82811115613d99578251825591602001919060010190613d7e565b5b509050613da79190613dce565b5090565b604051806101200160405280600990602082028036833780820191505090505090565b5b80821115613de7576000816000905550600101613dcf565b5090565b6000604051905090565b600080fd5b600080fd5b60007fffffffff0000000000000000000000000000000000000000000000000000000082169050919050565b613e3481613dff565b8114613e3f57600080fd5b50565b600081359050613e5181613e2b565b92915050565b600060208284031215613e6d57613e6c613df5565b5b6000613e7b84828501613e42565b91505092915050565b60008115159050919050565b613e9981613e84565b82525050565b6000602082019050613eb46000830184613e90565b92915050565b600081519050919050565b600082825260208201905092915050565b60005b83811015613ef4578082015181840152602081019050613ed9565b60008484015250505050565b6000601f19601f8301169050919050565b6000613f1c82613eba565b613f268185613ec5565b9350613f36818560208601613ed6565b613f3f81613f00565b840191505092915050565b60006020820190508181036000830152613f648184613f11565b905092915050565b600073ffffffffffffffffffffffffffffffffffffffff82169050919050565b6000613f9782613f6c565b9050919050565b613fa781613f8c565b8114613fb257600080fd5b50565b600081359050613fc481613f9e565b92915050565b6000819050919050565b613fdd81613fca565b8114613fe857600080fd5b50565b600081359050613ffa81613fd4565b92915050565b600080fd5b600080fd5b7f4e487b7100000000000000000000000000000000000000000000000000000000600052604160045260246000fd5b61404282613f00565b810181811067ffffffffffffffff821117156140615761406061400a565b5b80604052505050565b6000614074613deb565b90506140808282614039565b919050565b600067ffffffffffffffff8211156140a05761409f61400a565b5b6140a982613f00565b9050602081019050919050565b82818337600083830152505050565b60006140d86140d384614085565b61406a565b9050828152602081018484840111156140f4576140f3614005565b5b6140ff8482856140b6565b509392505050565b600082601f83011261411c5761411b614000565b5b813561412c8482602086016140c5565b91505092915050565b6000806000806080858703121561414f5761414e613df5565b5b600061415d87828801613fb5565b945050602061416e87828801613fb5565b935050604061417f87828801613feb565b925050606085013567ffffffffffffffff8111156141a05761419f613dfa565b5b6141ac87828801614107565b91505092959194509250565b6141c181613dff565b82525050565b60006020820190506141dc60008301846141b8565b92915050565b6000602082840312156141f8576141f7613df5565b5b600061420684828501613fb5565b91505092915050565b600081519050919050565b600082825260208201905092915050565b6000819050602082019050919050565b61424481613fca565b82525050565b600082825260208201905092915050565b600061426682613eba565b614270818561424a565b9350614280818560208601613ed6565b61428981613f00565b840191505092915050565b60006040830160008301516142ac600086018261423b565b50602083015184820360208601526142c4828261425b565b9150508091505092915050565b60006142dd8383614294565b905092915050565b6000602082019050919050565b60006142fd8261420f565b614307818561421a565b9350836020820285016143198561422b565b8060005b85811015614355578484038952815161433685826142d1565b9450614341836142e5565b925060208a0199505060018101905061431d565b50829750879550505050505092915050565b6000602082019050818103600083015261438181846142f2565b905092915050565b61439281613fca565b82525050565b60006020820190506143ad6000830184614389565b92915050565b6000806000606084860312156143cc576143cb613df5565b5b60006143da86828701613fb5565b93505060206143eb86828701613fb5565b92505060406143fc86828701613feb565b9150509250925092565b60006020828403121561441c5761441b613df5565b5b600061442a84828501613feb565b91505092915050565b6000819050919050565b61444681614433565b811461445157600080fd5b50565b6000813590506144638161443d565b92915050565b60006020828403121561447f5761447e613df5565b5b600061448d84828501614454565b91505092915050565b61449f81614433565b82525050565b60006020820190506144ba6000830184614496565b92915050565b600080604083850312156144d7576144d6613df5565b5b60006144e585828601614454565b92505060206144f685828601613fb5565b9150509250929050565b6000806040838503121561451757614516613df5565b5b600061452585828601613fb5565b925050602061453685828601613feb565b9150509250929050565b600067ffffffffffffffff82111561455b5761455a61400a565b5b61456482613f00565b9050602081019050919050565b600061458461457f84614540565b61406a565b9050828152602081018484840111156145a05761459f614005565b5b6145ab8482856140b6565b509392505050565b600082601f8301126145c8576145c7614000565b5b81356145d8848260208601614571565b91505092915050565b6000602082840312156145f7576145f6613df5565b5b600082013567ffffffffffffffff81111561461557614614613dfa565b5b614621848285016145b3565b91505092915050565b600060ff82169050919050565b6146408161462a565b82525050565b600060208201905061465b6000830184614637565b92915050565b61466a81613f8c565b82525050565b60006020820190506146856000830184614661565b92915050565b600080604083850312156146a2576146a1613df5565b5b60006146b085828601613feb565b92505060206146c185828601613feb565b9150509250929050565b600067ffffffffffffffff8211156146e6576146e561400a565b5b602082029050919050565b600080fd5b6146ff8161462a565b811461470a57600080fd5b50565b60008135905061471c816146f6565b92915050565b6000614735614730846146cb565b61406a565b9050806020840283018581111561474f5761474e6146f1565b5b835b818110156147785780614764888261470d565b845260208401935050602081019050614751565b5050509392505050565b600082601f83011261479757614796614000565b5b60096147a4848285614722565b91505092915050565b60008061014083850312156147c5576147c4613df5565b5b60006147d385828601613feb565b92505060206147e485828601614782565b9150509250929050565b600067ffffffffffffffff8211156148095761480861400a565b5b602082029050602081019050919050565b600061482d614828846147ee565b61406a565b905080838252602082019050602084028301858111156148505761484f6146f1565b5b835b8181101561487957806148658882613feb565b845260208401935050602081019050614852565b5050509392505050565b600082601f83011261489857614897614000565b5b81356148a884826020860161481a565b91505092915050565b6000602082840312156148c7576148c6613df5565b5b600082013567ffffffffffffffff8111156148e5576148e4613dfa565b5b6148f184828501614883565b91505092915050565b600060408201905061490f6000830185614661565b61491c6020830184614389565b9392505050565b7f4e487b7100000000000000000000000000000000000000000000000000000000600052602260045260246000fd5b6000600282049050600182168061496a57607f821691505b60208210810361497d5761497c614923565b5b50919050565b7f4e487b7100000000000000000000000000000000000000000000000000000000600052603260045260246000fd5b7f3330310000000000000000000000000000000000000000000000000000000000600082015250565b60006149e8600383613ec5565b91506149f3826149b2565b602082019050919050565b60006020820190508181036000830152614a17816149db565b9050919050565b7f3100000000000000000000000000000000000000000000000000000000000000600082015250565b6000614a54600183613ec5565b9150614a5f82614a1e565b602082019050919050565b60006020820190508181036000830152614a8381614a47565b9050919050565b60008190508160005260206000209050919050565b60006020601f8301049050919050565b600082821b905092915050565b600060088302614aec7fffffffffffffffffffffffffffffffffffffffffffffffffffffffffffffffff82614aaf565b614af68683614aaf565b95508019841693508086168417925050509392505050565b6000819050919050565b6000614b33614b2e614b2984613fca565b614b0e565b613fca565b9050919050565b6000819050919050565b614b4d83614b18565b614b61614b5982614b3a565b848454614abc565b825550505050565b600090565b614b76614b69565b614b81818484614b44565b505050565b5b81811015614ba557614b9a600082614b6e565b600181019050614b87565b5050565b601f821115614bea57614bbb81614a8a565b614bc484614a9f565b81016020851015614bd3578190505b614be7614bdf85614a9f565b830182614b86565b50505b505050565b600082821c905092915050565b6000614c0d60001984600802614bef565b1980831691505092915050565b6000614c268383614bfc565b9150826002028217905092915050565b614c3f82613eba565b67ffffffffffffffff811115614c5857614c5761400a565b5b614c628254614952565b614c6d828285614ba9565b600060209050601f831160018114614ca05760008415614c8e578287015190505b614c988582614c1a565b865550614d00565b601f198416614cae86614a8a565b60005b82811015614cd657848901518255600182019150602085019450602081019050614cb1565b86831015614cf35784890151614cef601f891682614bfc565b8355505b6001600288020188555050505b505050505050565b7f3130350000000000000000000000000000000000000000000000000000000000600082015250565b6000614d3e600383613ec5565b9150614d4982614d08565b602082019050919050565b60006020820190508181036000830152614d6d81614d31565b9050919050565b7f416363657373436f6e74726f6c3a2063616e206f6e6c792072656e6f756e636560008201527f20726f6c657320666f722073656c660000000000000000000000000000000000602082015250565b6000614dd0602f83613ec5565b9150614ddb82614d74565b604082019050919050565b60006020820190508181036000830152614dff81614dc3565b9050919050565b7f4552433732313a20696e76616c696420746f6b656e2049440000000000000000600082015250565b6000614e3c601883613ec5565b9150614e4782614e06565b602082019050919050565b60006020820190508181036000830152614e6b81614e2f565b9050919050565b7f4552433732313a2061646472657373207a65726f206973206e6f74206120766160008201527f6c6964206f776e65720000000000000000000000000000000000000000000000602082015250565b6000614ece602983613ec5565b9150614ed982614e72565b604082019050919050565b60006020820190508181036000830152614efd81614ec1565b9050919050565b7f496e73756666696369656e74207061796d656e74000000000000000000000000600082015250565b6000614f3a601483613ec5565b9150614f4582614f04565b602082019050919050565b60006020820190508181036000830152614f6981614f2d565b9050919050565b7f4e487b7100000000000000000000000000000000000000000000000000000000600052601260045260246000fd5b6000614faa82613fca565b9150614fb583613fca565b925082614fc557614fc4614f70565b5b828206905092915050565b7f4e487b7100000000000000000000000000000000000000000000000000000000600052601160045260246000fd5b600061500a82613fca565b915061501583613fca565b925082820190508082111561502d5761502c614fd0565b5b92915050565b7f3130360000000000000000000000000000000000000000000000000000000000600082015250565b6000615069600383613ec5565b915061507482615033565b602082019050919050565b600060208201905081810360008301526150988161505c565b9050919050565b60006150aa8261462a565b915060ff82036150bd576150bc614fd0565b5b600182019050919050565b600081905092915050565b60006150de82613eba565b6150e881856150c8565b93506150f8818560208601613ed6565b80840191505092915050565b6000615110828c6150d3565b915061511c828b6150d3565b9150615128828a6150d3565b915061513482896150d3565b915061514082886150d3565b915061514c82876150d3565b915061515882866150d3565b915061516482856150d3565b915061517082846150d3565b91508190509a9950505050505050505050565b600061518f82846150d3565b915081905092915050565b60006151a582613fca565b91507fffffffffffffffffffffffffffffffffffffffffffffffffffffffffffffffff82036151d7576151d6614fd0565b5b600182019050919050565b60006151ed82613fca565b91506151f883613fca565b92508282039050818111156152105761520f614fd0565b5b92915050565b7f3130370000000000000000000000000000000000000000000000000000000000600082015250565b600061524c600383613ec5565b915061525782615216565b602082019050919050565b6000602082019050818103600083015261527b8161523f565b9050919050565b7f3130380000000000000000000000000000000000000000000000000000000000600082015250565b60006152b8600383613ec5565b91506152c382615282565b602082019050919050565b600060208201905081810360008301526152e7816152ab565b9050919050565b7f4552433732313a207472616e736665722066726f6d20696e636f72726563742060008201527f6f776e6572000000000000000000000000000000000000000000000000000000602082015250565b600061534a602583613ec5565b9150615355826152ee565b604082019050919050565b600060208201905081810360008301526153798161533d565b9050919050565b7f4552433732313a207472616e7366657220746f20746865207a65726f2061646460008201527f7265737300000000000000000000000000000000000000000000000000000000602082015250565b60006153dc602483613ec5565b91506153e782615380565b604082019050919050565b6000602082019050818103600083015261540b816153cf565b9050919050565b7f4f776e61626c653a2063616c6c6572206973206e6f7420746865206f776e6572600082015250565b6000615448602083613ec5565b915061545382615412565b602082019050919050565b600060208201905081810360008301526154778161543b565b9050919050565b6000819050919050565b61549961549482613fca565b61547e565b82525050565b60008160601b9050919050565b60006154b78261549f565b9050919050565b60006154c9826154ac565b9050919050565b6154e16154dc82613f8c565b6154be565b82525050565b60006154f38289615488565b6020820191506155038288615488565b6020820191506155138287615488565b60208201915061552382866154d0565b6014820191506155338285615488565b6020820191506155438284615488565b602082019150819050979650505050505050565b7f3000000000000000000000000000000000000000000000000000000000000000600082015250565b600061558d6001836150c8565b915061559882615557565b600182019050919050565b60006155ae82615580565b91506155ba82846150d3565b915081905092915050565b7f4552433732313a206d696e7420746f20746865207a65726f2061646472657373600082015250565b60006155fb602083613ec5565b9150615606826155c5565b602082019050919050565b6000602082019050818103600083015261562a816155ee565b9050919050565b7f4552433732313a20746f6b656e20616c7265616479206d696e74656400000000600082015250565b6000615667601c83613ec5565b915061567282615631565b602082019050919050565b600060208201905081810360008301526156968161565a565b9050919050565b600081546156aa81614952565b6156b481866150c8565b945060018216600081146156cf57600181146156e457615717565b60ff1983168652811515820286019350615717565b6156ed85614a8a565b60005b8381101561570f578154818901526001820191506020810190506156f0565b838801955050505b50505092915050565b7f2e6a736f6e000000000000000000000000000000000000000000000000000000600082015250565b60006157566005836150c8565b915061576182615720565b600582019050919050565b6000615778828561569d565b915061578482846150d3565b915061578f82615749565b91508190509392505050565b60006157a782856150d3565b91506157b382846150d3565b91508190509392505050565b7f455243373231456e756d657261626c653a20636f6e736563757469766520747260008201527f616e7366657273206e6f7420737570706f727465640000000000000000000000602082015250565b600061581b603583613ec5565b9150615826826157bf565b604082019050919050565b6000602082019050818103600083015261584a8161580e565b9050919050565b7f416363657373436f6e74726f6c3a206163636f756e7420000000000000000000600082015250565b60006158876017836150c8565b915061589282615851565b601782019050919050565b7f206973206d697373696e6720726f6c6520000000000000000000000000000000600082015250565b60006158d36011836150c8565b91506158de8261589d565b601182019050919050565b60006158f48261587a565b915061590082856150d3565b915061590b826158c6565b915061591782846150d3565b91508190509392505050565b600061592e8261462a565b91506159398361462a565b92508261594957615948614f70565b5b828204905092915050565b600061595f8261462a565b915061596a8361462a565b92508261597a57615979614f70565b5b828206905092915050565b60006159908261462a565b915061599b8361462a565b9250828201905060ff8111156159b4576159b3614fd0565b5b92915050565b60006159c58261462a565b9150600082036159d8576159d7614fd0565b5b600182039050919050565b7f4e487b7100000000000000000000000000000000000000000000000000000000600052603160045260246000fd5b6000615a1d82613fca565b9150615a2883613fca565b9250828202615a3681613fca565b91508282048414831517615a4d57615a4c614fd0565b5b5092915050565b6000615a5f82613fca565b915060008203615a7257615a71614fd0565b5b600182039050919050565b7f537472696e67733a20686578206c656e67746820696e73756666696369656e74600082015250565b6000615ab3602083613ec5565b9150615abe82615a7d565b602082019050919050565b60006020820190508181036000830152615ae281615aa6565b905091905056fea264697066735822122047c9d626e17469721cbf58002ee7cae6d7acc53673732ed63d7cc6260fd2a44064736f6c63430008180033697066733a2f2f62616679626569657273706373667a6e7264763362676676636d67363265676665747433336d7937346d676b61636d6d62326a32667a736a6a79712f","opcodes":"PUSH1 0x80 PUSH1 0x40 MSTORE PUSH1 0x40 MLOAD DUP1 PUSH1 0x80 ADD PUSH1 0x40 MSTORE DUP1 PUSH1 0x43 DUP2 MSTORE PUSH1 0x20 ADD PUSH3 0x6619 PUSH1 0x43 SWAP2 CODECOPY PUSH1 0x11 SWAP1 DUP2 PUSH3 0x2E SWAP2 SWAP1 PUSH3 0x99B JUMP JUMPDEST POP PUSH1 0x40 MLOAD DUP1 PUSH2 0x120 ADD PUSH1 0x40 MSTORE DUP1 PUSH1 0x1 PUSH1 0xFF AND DUP2 MSTORE PUSH1 0x20 ADD PUSH1 0x1 PUSH1 0xFF AND DUP2 MSTORE PUSH1 0x20 ADD PUSH1 0x4 PUSH1 0xFF AND DUP2 MSTORE PUSH1 0x20 ADD PUSH1 0x4 PUSH1 0xFF AND DUP2 MSTORE PUSH1 0x20 ADD PUSH1 0x4 PUSH1 0xFF AND DUP2 MSTORE PUSH1 0x20 ADD PUSH1 0x4 PUSH1 0xFF AND DUP2 MSTORE PUSH1 0x20 ADD PUSH1 0x4 PUSH1 0xFF AND DUP2 MSTORE PUSH1 0x20 ADD PUSH1 0x4 PUSH1 0xFF AND DUP2 MSTORE PUSH1 0x20 ADD PUSH1 0x4 PUSH1 0xFF AND DUP2 MSTORE POP PUSH1 0x16 SWAP1 PUSH1 0x9 PUSH3 0xA5 SWAP3 SWAP2 SWAP1 PUSH3 0x5B7 JUMP JUMPDEST POP PUSH1 0x40 MLOAD DUP1 PUSH2 0x120 ADD PUSH1 0x40 MSTORE DUP1 PUSH1 0x1 PUSH1 0xFF AND DUP2 MSTORE PUSH1 0x20 ADD PUSH1 0x1 PUSH1 0xFF AND DUP2 MSTORE PUSH1 0x20 ADD PUSH1 0x4 PUSH1 0xFF AND DUP2 MSTORE PUSH1 0x20 ADD PUSH1 0x4 PUSH1 0xFF AND DUP2 MSTORE PUSH1 0x20 ADD PUSH1 0x4 PUSH1 0xFF AND DUP2 MSTORE PUSH1 0x20 ADD PUSH1 0x4 PUSH1 0xFF AND DUP2 MSTORE PUSH1 0x20 ADD PUSH1 0x4 PUSH1 0xFF AND DUP2 MSTORE PUSH1 0x20 ADD PUSH1 0x4 PUSH1 0xFF AND DUP2 MSTORE PUSH1 0x20 ADD PUSH1 0x4 PUSH1 0xFF AND DUP2 MSTORE POP PUSH1 0x17 SWAP1 PUSH1 0x9 PUSH3 0x11C SWAP3 SWAP2 SWAP1 PUSH3 0x5B7 JUMP JUMPDEST POP PUSH1 0x40 MLOAD DUP1 PUSH2 0x120 ADD PUSH1 0x40 MSTORE DUP1 PUSH1 0x1 PUSH1 0xFF AND DUP2 MSTORE PUSH1 0x20 ADD PUSH1 0x1 PUSH1 0xFF AND DUP2 MSTORE PUSH1 0x20 ADD PUSH1 0x3 PUSH1 0xFF AND DUP2 MSTORE PUSH1 0x20 ADD PUSH1 0x3 PUSH1 0xFF AND DUP2 MSTORE PUSH1 0x20 ADD PUSH1 0x3 PUSH1 0xFF AND DUP2 MSTORE PUSH1 0x20 ADD PUSH1 0x3 PUSH1 0xFF AND DUP2 MSTORE PUSH1 0x20 ADD PUSH1 0x3 PUSH1 0xFF AND DUP2 MSTORE PUSH1 0x20 ADD PUSH1 0x3 PUSH1 0xFF AND DUP2 MSTORE PUSH1 0x20 ADD PUSH1 0x3 PUSH1 0xFF AND DUP2 MSTORE POP PUSH1 0x18 SWAP1 PUSH1 0x9 PUSH3 0x193 SWAP3 SWAP2 SWAP1 PUSH3 0x5B7 JUMP JUMPDEST POP CALLVALUE DUP1 ISZERO PUSH3 0x1A1 JUMPI PUSH1 0x0 DUP1 REVERT JUMPDEST POP PUSH1 0x40 MLOAD PUSH3 0x665C CODESIZE SUB DUP1 PUSH3 0x665C DUP4 CODECOPY DUP2 DUP2 ADD PUSH1 0x40 MSTORE DUP2 ADD SWAP1 PUSH3 0x1C7 SWAP2 SWAP1 PUSH3 0xAB8 JUMP JUMPDEST PUSH1 0x40 MLOAD DUP1 PUSH1 0x40 ADD PUSH1 0x40 MSTORE DUP1 PUSH1 0xC DUP2 MSTORE PUSH1 0x20 ADD PUSH32 0x4669736865726D616E4E46540000000000000000000000000000000000000000 DUP2 MSTORE POP PUSH1 0x40 MLOAD DUP1 PUSH1 0x40 ADD PUSH1 0x40 MSTORE DUP1 PUSH1 0x3 DUP2 MSTORE PUSH1 0x20 ADD PUSH32 0x464D4E0000000000000000000000000000000000000000000000000000000000 DUP2 MSTORE POP PUSH3 0x253 PUSH3 0x247 PUSH3 0x378 PUSH1 0x20 SHL PUSH1 0x20 SHR JUMP JUMPDEST PUSH3 0x380 PUSH1 0x20 SHL PUSH1 0x20 SHR JUMP JUMPDEST DUP2 PUSH1 0x1 SWAP1 DUP2 PUSH3 0x264 SWAP2 SWAP1 PUSH3 0x99B JUMP JUMPDEST POP DUP1 PUSH1 0x2 SWAP1 DUP2 PUSH3 0x276 SWAP2 SWAP1 PUSH3 0x99B JUMP JUMPDEST POP POP POP DUP1 PUSH1 0x12 DUP2 SWAP1 SSTORE POP PUSH3 0x295 PUSH1 0x0 DUP1 SHL CALLER PUSH3 0x444 PUSH1 0x20 SHL PUSH1 0x20 SHR JUMP JUMPDEST PUSH3 0x2C7 PUSH32 0xA49807205CE4D355092EF5A8A18F56E8913CF4A201FBE287825B095693C21775 CALLER PUSH3 0x444 PUSH1 0x20 SHL PUSH1 0x20 SHR JUMP JUMPDEST PUSH1 0x40 MLOAD DUP1 PUSH1 0x60 ADD PUSH1 0x40 MSTORE DUP1 PUSH2 0x4000 PUSH2 0xFFFF AND DUP2 MSTORE PUSH1 0x20 ADD PUSH2 0x4000 PUSH2 0xFFFF AND DUP2 MSTORE PUSH1 0x20 ADD PUSH2 0x88B PUSH2 0xFFFF AND DUP2 MSTORE POP PUSH1 0x14 SWAP1 PUSH1 0x3 PUSH3 0x306 SWAP3 SWAP2 SWAP1 PUSH3 0x658 JUMP JUMPDEST POP PUSH1 0x14 DUP1 SLOAD SWAP1 POP PUSH8 0xFFFFFFFFFFFFFFFF DUP2 GT ISZERO PUSH3 0x329 JUMPI PUSH3 0x328 PUSH3 0x72C JUMP JUMPDEST JUMPDEST PUSH1 0x40 MLOAD SWAP1 DUP1 DUP3 MSTORE DUP1 PUSH1 0x20 MUL PUSH1 0x20 ADD DUP3 ADD PUSH1 0x40 MSTORE DUP1 ISZERO PUSH3 0x358 JUMPI DUP2 PUSH1 0x20 ADD PUSH1 0x20 DUP3 MUL DUP1 CALLDATASIZE DUP4 CALLDATACOPY DUP1 DUP3 ADD SWAP2 POP POP SWAP1 POP JUMPDEST POP PUSH1 0x15 SWAP1 DUP1 MLOAD SWAP1 PUSH1 0x20 ADD SWAP1 PUSH3 0x370 SWAP3 SWAP2 SWAP1 PUSH3 0x6B0 JUMP JUMPDEST POP POP PUSH3 0xAEA JUMP JUMPDEST PUSH1 0x0 CALLER SWAP1 POP SWAP1 JUMP JUMPDEST PUSH1 0x0 DUP1 PUSH1 0x0 SWAP1 SLOAD SWAP1 PUSH2 0x100 EXP SWAP1 DIV PUSH20 0xFFFFFFFFFFFFFFFFFFFFFFFFFFFFFFFFFFFFFFFF AND SWAP1 POP DUP2 PUSH1 0x0 DUP1 PUSH2 0x100 EXP DUP2 SLOAD DUP2 PUSH20 0xFFFFFFFFFFFFFFFFFFFFFFFFFFFFFFFFFFFFFFFF MUL NOT AND SWAP1 DUP4 PUSH20 0xFFFFFFFFFFFFFFFFFFFFFFFFFFFFFFFFFFFFFFFF AND MUL OR SWAP1 SSTORE POP DUP2 PUSH20 0xFFFFFFFFFFFFFFFFFFFFFFFFFFFFFFFFFFFFFFFF AND DUP2 PUSH20 0xFFFFFFFFFFFFFFFFFFFFFFFFFFFFFFFFFFFFFFFF AND PUSH32 0x8BE0079C531659141344CD1FD0A4F28419497F9722A3DAAFE3B4186F6B6457E0 PUSH1 0x40 MLOAD PUSH1 0x40 MLOAD DUP1 SWAP2 SUB SWAP1 LOG3 POP POP JUMP JUMPDEST PUSH3 0x456 DUP3 DUP3 PUSH3 0x45A PUSH1 0x20 SHL PUSH1 0x20 SHR JUMP JUMPDEST POP POP JUMP JUMPDEST PUSH3 0x46C DUP3 DUP3 PUSH3 0x54C PUSH1 0x20 SHL PUSH1 0x20 SHR JUMP JUMPDEST PUSH3 0x548 JUMPI PUSH1 0x1 PUSH1 0x6 PUSH1 0x0 DUP5 DUP2 MSTORE PUSH1 0x20 ADD SWAP1 DUP2 MSTORE PUSH1 0x20 ADD PUSH1 0x0 KECCAK256 PUSH1 0x0 ADD PUSH1 0x0 DUP4 PUSH20 0xFFFFFFFFFFFFFFFFFFFFFFFFFFFFFFFFFFFFFFFF AND PUSH20 0xFFFFFFFFFFFFFFFFFFFFFFFFFFFFFFFFFFFFFFFF AND DUP2 MSTORE PUSH1 0x20 ADD SWAP1 DUP2 MSTORE PUSH1 0x20 ADD PUSH1 0x0 KECCAK256 PUSH1 0x0 PUSH2 0x100 EXP DUP2 SLOAD DUP2 PUSH1 0xFF MUL NOT AND SWAP1 DUP4 ISZERO ISZERO MUL OR SWAP1 SSTORE POP PUSH3 0x4ED PUSH3 0x378 PUSH1 0x20 SHL PUSH1 0x20 SHR JUMP JUMPDEST PUSH20 0xFFFFFFFFFFFFFFFFFFFFFFFFFFFFFFFFFFFFFFFF AND DUP2 PUSH20 0xFFFFFFFFFFFFFFFFFFFFFFFFFFFFFFFFFFFFFFFF AND DUP4 PUSH32 0x2F8788117E7EFF1D82E926EC794901D17C78024A50270940304540A733656F0D PUSH1 0x40 MLOAD PUSH1 0x40 MLOAD DUP1 SWAP2 SUB SWAP1 LOG4 JUMPDEST POP POP JUMP JUMPDEST PUSH1 0x0 PUSH1 0x6 PUSH1 0x0 DUP5 DUP2 MSTORE PUSH1 0x20 ADD SWAP1 DUP2 MSTORE PUSH1 0x20 ADD PUSH1 0x0 KECCAK256 PUSH1 0x0 ADD PUSH1 0x0 DUP4 PUSH20 0xFFFFFFFFFFFFFFFFFFFFFFFFFFFFFFFFFFFFFFFF AND PUSH20 0xFFFFFFFFFFFFFFFFFFFFFFFFFFFFFFFFFFFFFFFF AND DUP2 MSTORE PUSH1 0x20 ADD SWAP1 DUP2 MSTORE PUSH1 0x20 ADD PUSH1 0x0 KECCAK256 PUSH1 0x0 SWAP1 SLOAD SWAP1 PUSH2 0x100 EXP SWAP1 DIV PUSH1 0xFF AND SWAP1 POP SWAP3 SWAP2 POP POP JUMP JUMPDEST DUP3 PUSH1 0x9 PUSH1 0x1F ADD PUSH1 0x20 SWAP1 DIV DUP2 ADD SWAP3 DUP3 ISZERO PUSH3 0x645 JUMPI SWAP2 PUSH1 0x20 MUL DUP3 ADD PUSH1 0x0 JUMPDEST DUP4 DUP3 GT ISZERO PUSH3 0x614 JUMPI DUP4 MLOAD DUP4 DUP3 PUSH2 0x100 EXP DUP2 SLOAD DUP2 PUSH1 0xFF MUL NOT AND SWAP1 DUP4 PUSH1 0xFF AND MUL OR SWAP1 SSTORE POP SWAP3 PUSH1 0x20 ADD SWAP3 PUSH1 0x1 ADD PUSH1 0x20 DUP2 PUSH1 0x0 ADD DIV SWAP3 DUP4 ADD SWAP3 PUSH1 0x1 SUB MUL PUSH3 0x5D4 JUMP JUMPDEST DUP1 ISZERO PUSH3 0x643 JUMPI DUP3 DUP2 PUSH2 0x100 EXP DUP2 SLOAD SWAP1 PUSH1 0xFF MUL NOT AND SWAP1 SSTORE PUSH1 0x1 ADD PUSH1 0x20 DUP2 PUSH1 0x0 ADD DIV SWAP3 DUP4 ADD SWAP3 PUSH1 0x1 SUB MUL PUSH3 0x614 JUMP JUMPDEST POP JUMPDEST POP SWAP1 POP PUSH3 0x654 SWAP2 SWAP1 PUSH3 0x702 JUMP JUMPDEST POP SWAP1 JUMP JUMPDEST DUP3 DUP1 SLOAD DUP3 DUP3 SSTORE SWAP1 PUSH1 0x0 MSTORE PUSH1 0x20 PUSH1 0x0 KECCAK256 SWAP1 DUP2 ADD SWAP3 DUP3 ISZERO PUSH3 0x69D JUMPI SWAP2 PUSH1 0x20 MUL DUP3 ADD JUMPDEST DUP3 DUP2 GT ISZERO PUSH3 0x69C JUMPI DUP3 MLOAD DUP3 SWAP1 PUSH2 0xFFFF AND SWAP1 SSTORE SWAP2 PUSH1 0x20 ADD SWAP2 SWAP1 PUSH1 0x1 ADD SWAP1 PUSH3 0x679 JUMP JUMPDEST JUMPDEST POP SWAP1 POP PUSH3 0x6AC SWAP2 SWAP1 PUSH3 0x702 JUMP JUMPDEST POP SWAP1 JUMP JUMPDEST DUP3 DUP1 SLOAD DUP3 DUP3 SSTORE SWAP1 PUSH1 0x0 MSTORE PUSH1 0x20 PUSH1 0x0 KECCAK256 SWAP1 DUP2 ADD SWAP3 DUP3 ISZERO PUSH3 0x6EF JUMPI SWAP2 PUSH1 0x20 MUL DUP3 ADD JUMPDEST DUP3 DUP2 GT ISZERO PUSH3 0x6EE JUMPI DUP3 MLOAD DUP3 SSTORE SWAP2 PUSH1 0x20 ADD SWAP2 SWAP1 PUSH1 0x1 ADD SWAP1 PUSH3 0x6D1 JUMP JUMPDEST JUMPDEST POP SWAP1 POP PUSH3 0x6FE SWAP2 SWAP1 PUSH3 0x702 JUMP JUMPDEST POP SWAP1 JUMP JUMPDEST JUMPDEST DUP1 DUP3 GT ISZERO PUSH3 0x71D JUMPI PUSH1 0x0 DUP2 PUSH1 0x0 SWAP1 SSTORE POP PUSH1 0x1 ADD PUSH3 0x703 JUMP JUMPDEST POP SWAP1 JUMP JUMPDEST PUSH1 0x0 DUP2 MLOAD SWAP1 POP SWAP2 SWAP1 POP JUMP JUMPDEST PUSH32 0x4E487B7100000000000000000000000000000000000000000000000000000000 PUSH1 0x0 MSTORE PUSH1 0x41 PUSH1 0x4 MSTORE PUSH1 0x24 PUSH1 0x0 REVERT JUMPDEST PUSH32 0x4E487B7100000000000000000000000000000000000000000000000000000000 PUSH1 0x0 MSTORE PUSH1 0x22 PUSH1 0x4 MSTORE PUSH1 0x24 PUSH1 0x0 REVERT JUMPDEST PUSH1 0x0 PUSH1 0x2 DUP3 DIV SWAP1 POP PUSH1 0x1 DUP3 AND DUP1 PUSH3 0x7A3 JUMPI PUSH1 0x7F DUP3 AND SWAP2 POP JUMPDEST PUSH1 0x20 DUP3 LT DUP2 SUB PUSH3 0x7B9 JUMPI PUSH3 0x7B8 PUSH3 0x75B JUMP JUMPDEST JUMPDEST POP SWAP2 SWAP1 POP JUMP JUMPDEST PUSH1 0x0 DUP2 SWAP1 POP DUP2 PUSH1 0x0 MSTORE PUSH1 0x20 PUSH1 0x0 KECCAK256 SWAP1 POP SWAP2 SWAP1 POP JUMP JUMPDEST PUSH1 0x0 PUSH1 0x20 PUSH1 0x1F DUP4 ADD DIV SWAP1 POP SWAP2 SWAP1 POP JUMP JUMPDEST PUSH1 0x0 DUP3 DUP3 SHL SWAP1 POP SWAP3 SWAP2 POP POP JUMP JUMPDEST PUSH1 0x0 PUSH1 0x8 DUP4 MUL PUSH3 0x823 PUSH32 0xFFFFFFFFFFFFFFFFFFFFFFFFFFFFFFFFFFFFFFFFFFFFFFFFFFFFFFFFFFFFFFFF DUP3 PUSH3 0x7E4 JUMP JUMPDEST PUSH3 0x82F DUP7 DUP4 PUSH3 0x7E4 JUMP JUMPDEST SWAP6 POP DUP1 NOT DUP5 AND SWAP4 POP DUP1 DUP7 AND DUP5 OR SWAP3 POP POP POP SWAP4 SWAP3 POP POP POP JUMP JUMPDEST PUSH1 0x0 DUP2 SWAP1 POP SWAP2 SWAP1 POP JUMP JUMPDEST PUSH1 0x0 DUP2 SWAP1 POP SWAP2 SWAP1 POP JUMP JUMPDEST PUSH1 0x0 PUSH3 0x87C PUSH3 0x876 PUSH3 0x870 DUP5 PUSH3 0x847 JUMP JUMPDEST PUSH3 0x851 JUMP JUMPDEST PUSH3 0x847 JUMP JUMPDEST SWAP1 POP SWAP2 SWAP1 POP JUMP JUMPDEST PUSH1 0x0 DUP2 SWAP1 POP SWAP2 SWAP1 POP JUMP JUMPDEST PUSH3 0x898 DUP4 PUSH3 0x85B JUMP JUMPDEST PUSH3 0x8B0 PUSH3 0x8A7 DUP3 PUSH3 0x883 JUMP JUMPDEST DUP5 DUP5 SLOAD PUSH3 0x7F1 JUMP JUMPDEST DUP3 SSTORE POP POP POP POP JUMP JUMPDEST PUSH1 0x0 SWAP1 JUMP JUMPDEST PUSH3 0x8C7 PUSH3 0x8B8 JUMP JUMPDEST PUSH3 0x8D4 DUP2 DUP5 DUP5 PUSH3 0x88D JUMP JUMPDEST POP POP POP JUMP JUMPDEST JUMPDEST DUP2 DUP2 LT ISZERO PUSH3 0x8FC JUMPI PUSH3 0x8F0 PUSH1 0x0 DUP3 PUSH3 0x8BD JUMP JUMPDEST PUSH1 0x1 DUP2 ADD SWAP1 POP PUSH3 0x8DA JUMP JUMPDEST POP POP JUMP JUMPDEST PUSH1 0x1F DUP3 GT ISZERO PUSH3 0x94B JUMPI PUSH3 0x915 DUP2 PUSH3 0x7BF JUMP JUMPDEST PUSH3 0x920 DUP5 PUSH3 0x7D4 JUMP JUMPDEST DUP2 ADD PUSH1 0x20 DUP6 LT ISZERO PUSH3 0x930 JUMPI DUP2 SWAP1 POP JUMPDEST PUSH3 0x948 PUSH3 0x93F DUP6 PUSH3 0x7D4 JUMP JUMPDEST DUP4 ADD DUP3 PUSH3 0x8D9 JUMP JUMPDEST POP POP JUMPDEST POP POP POP JUMP JUMPDEST PUSH1 0x0 DUP3 DUP3 SHR SWAP1 POP SWAP3 SWAP2 POP POP JUMP JUMPDEST PUSH1 0x0 PUSH3 0x970 PUSH1 0x0 NOT DUP5 PUSH1 0x8 MUL PUSH3 0x950 JUMP JUMPDEST NOT DUP1 DUP4 AND SWAP2 POP POP SWAP3 SWAP2 POP POP JUMP JUMPDEST PUSH1 0x0 PUSH3 0x98B DUP4 DUP4 PUSH3 0x95D JUMP JUMPDEST SWAP2 POP DUP3 PUSH1 0x2 MUL DUP3 OR SWAP1 POP SWAP3 SWAP2 POP POP JUMP JUMPDEST PUSH3 0x9A6 DUP3 PUSH3 0x721 JUMP JUMPDEST PUSH8 0xFFFFFFFFFFFFFFFF DUP2 GT ISZERO PUSH3 0x9C2 JUMPI PUSH3 0x9C1 PUSH3 0x72C JUMP JUMPDEST JUMPDEST PUSH3 0x9CE DUP3 SLOAD PUSH3 0x78A JUMP JUMPDEST PUSH3 0x9DB DUP3 DUP3 DUP6 PUSH3 0x900 JUMP JUMPDEST PUSH1 0x0 PUSH1 0x20 SWAP1 POP PUSH1 0x1F DUP4 GT PUSH1 0x1 DUP2 EQ PUSH3 0xA13 JUMPI PUSH1 0x0 DUP5 ISZERO PUSH3 0x9FE JUMPI DUP3 DUP8 ADD MLOAD SWAP1 POP JUMPDEST PUSH3 0xA0A DUP6 DUP3 PUSH3 0x97D JUMP JUMPDEST DUP7 SSTORE POP PUSH3 0xA7A JUMP JUMPDEST PUSH1 0x1F NOT DUP5 AND PUSH3 0xA23 DUP7 PUSH3 0x7BF JUMP JUMPDEST PUSH1 0x0 JUMPDEST DUP3 DUP2 LT ISZERO PUSH3 0xA4D JUMPI DUP5 DUP10 ADD MLOAD DUP3 SSTORE PUSH1 0x1 DUP3 ADD SWAP2 POP PUSH1 0x20 DUP6 ADD SWAP5 POP PUSH1 0x20 DUP2 ADD SWAP1 POP PUSH3 0xA26 JUMP JUMPDEST DUP7 DUP4 LT ISZERO PUSH3 0xA6D JUMPI DUP5 DUP10 ADD MLOAD PUSH3 0xA69 PUSH1 0x1F DUP10 AND DUP3 PUSH3 0x95D JUMP JUMPDEST DUP4 SSTORE POP JUMPDEST PUSH1 0x1 PUSH1 0x2 DUP9 MUL ADD DUP9 SSTORE POP POP POP JUMPDEST POP POP POP POP POP POP JUMP JUMPDEST PUSH1 0x0 DUP1 REVERT JUMPDEST PUSH3 0xA92 DUP2 PUSH3 0x847 JUMP JUMPDEST DUP2 EQ PUSH3 0xA9E JUMPI PUSH1 0x0 DUP1 REVERT JUMPDEST POP JUMP JUMPDEST PUSH1 0x0 DUP2 MLOAD SWAP1 POP PUSH3 0xAB2 DUP2 PUSH3 0xA87 JUMP JUMPDEST SWAP3 SWAP2 POP POP JUMP JUMPDEST PUSH1 0x0 PUSH1 0x20 DUP3 DUP5 SUB SLT ISZERO PUSH3 0xAD1 JUMPI PUSH3 0xAD0 PUSH3 0xA82 JUMP JUMPDEST JUMPDEST PUSH1 0x0 PUSH3 0xAE1 DUP5 DUP3 DUP6 ADD PUSH3 0xAA1 JUMP JUMPDEST SWAP2 POP POP SWAP3 SWAP2 POP POP JUMP JUMPDEST PUSH2 0x5B1F DUP1 PUSH3 0xAFA PUSH1 0x0 CODECOPY PUSH1 0x0 RETURN INVALID PUSH1 0x80 PUSH1 0x40 MSTORE PUSH1 0x4 CALLDATASIZE LT PUSH2 0x23B JUMPI PUSH1 0x0 CALLDATALOAD PUSH1 0xE0 SHR DUP1 PUSH4 0x75B238FC GT PUSH2 0x12E JUMPI DUP1 PUSH4 0xBE6F0EF1 GT PUSH2 0xAB JUMPI DUP1 PUSH4 0xE7FB74C7 GT PUSH2 0x6F JUMPI DUP1 PUSH4 0xE7FB74C7 EQ PUSH2 0x8FB JUMPI DUP1 PUSH4 0xF2FDE38B EQ PUSH2 0x917 JUMPI DUP1 PUSH4 0xF42A7B70 EQ PUSH2 0x940 JUMPI DUP1 PUSH4 0xF4A0A528 EQ PUSH2 0x97D JUMPI DUP1 PUSH4 0xFC0B5B1D EQ PUSH2 0x9A6 JUMPI PUSH2 0x23B JUMP JUMPDEST DUP1 PUSH4 0xBE6F0EF1 EQ PUSH2 0x7DD JUMPI DUP1 PUSH4 0xC87B56DD EQ PUSH2 0x81A JUMPI DUP1 PUSH4 0xD547741F EQ PUSH2 0x857 JUMPI DUP1 PUSH4 0xD70E761B EQ PUSH2 0x880 JUMPI DUP1 PUSH4 0xDE74E57B EQ PUSH2 0x8BD JUMPI PUSH2 0x23B JUMP JUMPDEST DUP1 PUSH4 0x91D14854 GT PUSH2 0xF2 JUMPI DUP1 PUSH4 0x91D14854 EQ PUSH2 0x703 JUMPI DUP1 PUSH4 0x95D89B41 EQ PUSH2 0x740 JUMPI DUP1 PUSH4 0x95E66287 EQ PUSH2 0x76B JUMPI DUP1 PUSH4 0xA212A5CC EQ PUSH2 0x794 JUMPI DUP1 PUSH4 0xA217FDDF EQ PUSH2 0x7B2 JUMPI PUSH2 0x23B JUMP JUMPDEST DUP1 PUSH4 0x75B238FC EQ PUSH2 0x61E JUMPI DUP1 PUSH4 0x87962DCC EQ PUSH2 0x649 JUMPI DUP1 PUSH4 0x883EFA67 EQ PUSH2 0x686 JUMPI DUP1 PUSH4 0x8AC103F7 EQ PUSH2 0x6AF JUMPI DUP1 PUSH4 0x8DA5CB5B EQ PUSH2 0x6D8 JUMPI PUSH2 0x23B JUMP JUMPDEST DUP1 PUSH4 0x30176E13 GT PUSH2 0x1BC JUMPI DUP1 PUSH4 0x606733ED GT PUSH2 0x180 JUMPI DUP1 PUSH4 0x606733ED EQ PUSH2 0x525 JUMPI DUP1 PUSH4 0x6352211E EQ PUSH2 0x562 JUMPI DUP1 PUSH4 0x6817C76C EQ PUSH2 0x59F JUMPI DUP1 PUSH4 0x70A08231 EQ PUSH2 0x5CA JUMPI DUP1 PUSH4 0x715018A6 EQ PUSH2 0x607 JUMPI PUSH2 0x23B JUMP JUMPDEST DUP1 PUSH4 0x30176E13 EQ PUSH2 0x456 JUMPI DUP1 PUSH4 0x305A67A8 EQ PUSH2 0x47F JUMPI DUP1 PUSH4 0x36568ABE EQ PUSH2 0x4A8 JUMPI DUP1 PUSH4 0x3CCFD60B EQ PUSH2 0x4D1 JUMPI DUP1 PUSH4 0x4F6CCCE7 EQ PUSH2 0x4E8 JUMPI PUSH2 0x23B JUMP JUMPDEST DUP1 PUSH4 0x23B872DD GT PUSH2 0x203 JUMPI DUP1 PUSH4 0x23B872DD EQ PUSH2 0x34D JUMPI DUP1 PUSH4 0x2489FD5E EQ PUSH2 0x376 JUMPI DUP1 PUSH4 0x248A9CA3 EQ PUSH2 0x3B3 JUMPI DUP1 PUSH4 0x2F2FF15D EQ PUSH2 0x3F0 JUMPI DUP1 PUSH4 0x2F745C59 EQ PUSH2 0x419 JUMPI PUSH2 0x23B JUMP JUMPDEST DUP1 PUSH4 0x1FFC9A7 EQ PUSH2 0x240 JUMPI DUP1 PUSH4 0x6FDDE03 EQ PUSH2 0x27D JUMPI DUP1 PUSH4 0x150B7A02 EQ PUSH2 0x2A8 JUMPI DUP1 PUSH4 0x18148F1B EQ PUSH2 0x2E5 JUMPI DUP1 PUSH4 0x18160DDD EQ PUSH2 0x322 JUMPI JUMPDEST PUSH1 0x0 DUP1 REVERT JUMPDEST CALLVALUE DUP1 ISZERO PUSH2 0x24C JUMPI PUSH1 0x0 DUP1 REVERT JUMPDEST POP PUSH2 0x267 PUSH1 0x4 DUP1 CALLDATASIZE SUB DUP2 ADD SWAP1 PUSH2 0x262 SWAP2 SWAP1 PUSH2 0x3E57 JUMP JUMPDEST PUSH2 0x9CF JUMP JUMPDEST PUSH1 0x40 MLOAD PUSH2 0x274 SWAP2 SWAP1 PUSH2 0x3E9F JUMP JUMPDEST PUSH1 0x40 MLOAD DUP1 SWAP2 SUB SWAP1 RETURN JUMPDEST CALLVALUE DUP1 ISZERO PUSH2 0x289 JUMPI PUSH1 0x0 DUP1 REVERT JUMPDEST POP PUSH2 0x292 PUSH2 0xAB1 JUMP JUMPDEST PUSH1 0x40 MLOAD PUSH2 0x29F SWAP2 SWAP1 PUSH2 0x3F4A JUMP JUMPDEST PUSH1 0x40 MLOAD DUP1 SWAP2 SUB SWAP1 RETURN JUMPDEST CALLVALUE DUP1 ISZERO PUSH2 0x2B4 JUMPI PUSH1 0x0 DUP1 REVERT JUMPDEST POP PUSH2 0x2CF PUSH1 0x4 DUP1 CALLDATASIZE SUB DUP2 ADD SWAP1 PUSH2 0x2CA SWAP2 SWAP1 PUSH2 0x4135 JUMP JUMPDEST PUSH2 0xB43 JUMP JUMPDEST PUSH1 0x40 MLOAD PUSH2 0x2DC SWAP2 SWAP1 PUSH2 0x41C7 JUMP JUMPDEST PUSH1 0x40 MLOAD DUP1 SWAP2 SUB SWAP1 RETURN JUMPDEST CALLVALUE DUP1 ISZERO PUSH2 0x2F1 JUMPI PUSH1 0x0 DUP1 REVERT JUMPDEST POP PUSH2 0x30C PUSH1 0x4 DUP1 CALLDATASIZE SUB DUP2 ADD SWAP1 PUSH2 0x307 SWAP2 SWAP1 PUSH2 0x41E2 JUMP JUMPDEST PUSH2 0xB57 JUMP JUMPDEST PUSH1 0x40 MLOAD PUSH2 0x319 SWAP2 SWAP1 PUSH2 0x4367 JUMP JUMPDEST PUSH1 0x40 MLOAD DUP1 SWAP2 SUB SWAP1 RETURN JUMPDEST CALLVALUE DUP1 ISZERO PUSH2 0x32E JUMPI PUSH1 0x0 DUP1 REVERT JUMPDEST POP PUSH2 0x337 PUSH2 0xD8C JUMP JUMPDEST PUSH1 0x40 MLOAD PUSH2 0x344 SWAP2 SWAP1 PUSH2 0x4398 JUMP JUMPDEST PUSH1 0x40 MLOAD DUP1 SWAP2 SUB SWAP1 RETURN JUMPDEST CALLVALUE DUP1 ISZERO PUSH2 0x359 JUMPI PUSH1 0x0 DUP1 REVERT JUMPDEST POP PUSH2 0x374 PUSH1 0x4 DUP1 CALLDATASIZE SUB DUP2 ADD SWAP1 PUSH2 0x36F SWAP2 SWAP1 PUSH2 0x43B3 JUMP JUMPDEST PUSH2 0xD99 JUMP JUMPDEST STOP JUMPDEST CALLVALUE DUP1 ISZERO PUSH2 0x382 JUMPI PUSH1 0x0 DUP1 REVERT JUMPDEST POP PUSH2 0x39D PUSH1 0x4 DUP1 CALLDATASIZE SUB DUP2 ADD SWAP1 PUSH2 0x398 SWAP2 SWAP1 PUSH2 0x4406 JUMP JUMPDEST PUSH2 0xE12 JUMP JUMPDEST PUSH1 0x40 MLOAD PUSH2 0x3AA SWAP2 SWAP1 PUSH2 0x4398 JUMP JUMPDEST PUSH1 0x40 MLOAD DUP1 SWAP2 SUB SWAP1 RETURN JUMPDEST CALLVALUE DUP1 ISZERO PUSH2 0x3BF JUMPI PUSH1 0x0 DUP1 REVERT JUMPDEST POP PUSH2 0x3DA PUSH1 0x4 DUP1 CALLDATASIZE SUB DUP2 ADD SWAP1 PUSH2 0x3D5 SWAP2 SWAP1 PUSH2 0x4469 JUMP JUMPDEST PUSH2 0xE36 JUMP JUMPDEST PUSH1 0x40 MLOAD PUSH2 0x3E7 SWAP2 SWAP1 PUSH2 0x44A5 JUMP JUMPDEST PUSH1 0x40 MLOAD DUP1 SWAP2 SUB SWAP1 RETURN JUMPDEST CALLVALUE DUP1 ISZERO PUSH2 0x3FC JUMPI PUSH1 0x0 DUP1 REVERT JUMPDEST POP PUSH2 0x417 PUSH1 0x4 DUP1 CALLDATASIZE SUB DUP2 ADD SWAP1 PUSH2 0x412 SWAP2 SWAP1 PUSH2 0x44C0 JUMP JUMPDEST PUSH2 0xE56 JUMP JUMPDEST STOP JUMPDEST CALLVALUE DUP1 ISZERO PUSH2 0x425 JUMPI PUSH1 0x0 DUP1 REVERT JUMPDEST POP PUSH2 0x440 PUSH1 0x4 DUP1 CALLDATASIZE SUB DUP2 ADD SWAP1 PUSH2 0x43B SWAP2 SWAP1 PUSH2 0x4500 JUMP JUMPDEST PUSH2 0xE77 JUMP JUMPDEST PUSH1 0x40 MLOAD PUSH2 0x44D SWAP2 SWAP1 PUSH2 0x4398 JUMP JUMPDEST PUSH1 0x40 MLOAD DUP1 SWAP2 SUB SWAP1 RETURN JUMPDEST CALLVALUE DUP1 ISZERO PUSH2 0x462 JUMPI PUSH1 0x0 DUP1 REVERT JUMPDEST POP PUSH2 0x47D PUSH1 0x4 DUP1 CALLDATASIZE SUB DUP2 ADD SWAP1 PUSH2 0x478 SWAP2 SWAP1 PUSH2 0x45E1 JUMP JUMPDEST PUSH2 0xF1C JUMP JUMPDEST STOP JUMPDEST CALLVALUE DUP1 ISZERO PUSH2 0x48B JUMPI PUSH1 0x0 DUP1 REVERT JUMPDEST POP PUSH2 0x4A6 PUSH1 0x4 DUP1 CALLDATASIZE SUB DUP2 ADD SWAP1 PUSH2 0x4A1 SWAP2 SWAP1 PUSH2 0x4406 JUMP JUMPDEST PUSH2 0xF98 JUMP JUMPDEST STOP JUMPDEST CALLVALUE DUP1 ISZERO PUSH2 0x4B4 JUMPI PUSH1 0x0 DUP1 REVERT JUMPDEST POP PUSH2 0x4CF PUSH1 0x4 DUP1 CALLDATASIZE SUB DUP2 ADD SWAP1 PUSH2 0x4CA SWAP2 SWAP1 PUSH2 0x44C0 JUMP JUMPDEST PUSH2 0x10E0 JUMP JUMPDEST STOP JUMPDEST CALLVALUE DUP1 ISZERO PUSH2 0x4DD JUMPI PUSH1 0x0 DUP1 REVERT JUMPDEST POP PUSH2 0x4E6 PUSH2 0x1163 JUMP JUMPDEST STOP JUMPDEST CALLVALUE DUP1 ISZERO PUSH2 0x4F4 JUMPI PUSH1 0x0 DUP1 REVERT JUMPDEST POP PUSH2 0x50F PUSH1 0x4 DUP1 CALLDATASIZE SUB DUP2 ADD SWAP1 PUSH2 0x50A SWAP2 SWAP1 PUSH2 0x4406 JUMP JUMPDEST PUSH2 0x11C1 JUMP JUMPDEST PUSH1 0x40 MLOAD PUSH2 0x51C SWAP2 SWAP1 PUSH2 0x4398 JUMP JUMPDEST PUSH1 0x40 MLOAD DUP1 SWAP2 SUB SWAP1 RETURN JUMPDEST CALLVALUE DUP1 ISZERO PUSH2 0x531 JUMPI PUSH1 0x0 DUP1 REVERT JUMPDEST POP PUSH2 0x54C PUSH1 0x4 DUP1 CALLDATASIZE SUB DUP2 ADD SWAP1 PUSH2 0x547 SWAP2 SWAP1 PUSH2 0x4406 JUMP JUMPDEST PUSH2 0x11FC JUMP JUMPDEST PUSH1 0x40 MLOAD PUSH2 0x559 SWAP2 SWAP1 PUSH2 0x4646 JUMP JUMPDEST PUSH1 0x40 MLOAD DUP1 SWAP2 SUB SWAP1 RETURN JUMPDEST CALLVALUE DUP1 ISZERO PUSH2 0x56E JUMPI PUSH1 0x0 DUP1 REVERT JUMPDEST POP PUSH2 0x589 PUSH1 0x4 DUP1 CALLDATASIZE SUB DUP2 ADD SWAP1 PUSH2 0x584 SWAP2 SWAP1 PUSH2 0x4406 JUMP JUMPDEST PUSH2 0x1226 JUMP JUMPDEST PUSH1 0x40 MLOAD PUSH2 0x596 SWAP2 SWAP1 PUSH2 0x4670 JUMP JUMPDEST PUSH1 0x40 MLOAD DUP1 SWAP2 SUB SWAP1 RETURN JUMPDEST CALLVALUE DUP1 ISZERO PUSH2 0x5AB JUMPI PUSH1 0x0 DUP1 REVERT JUMPDEST POP PUSH2 0x5B4 PUSH2 0x12AC JUMP JUMPDEST PUSH1 0x40 MLOAD PUSH2 0x5C1 SWAP2 SWAP1 PUSH2 0x4398 JUMP JUMPDEST PUSH1 0x40 MLOAD DUP1 SWAP2 SUB SWAP1 RETURN JUMPDEST CALLVALUE DUP1 ISZERO PUSH2 0x5D6 JUMPI PUSH1 0x0 DUP1 REVERT JUMPDEST POP PUSH2 0x5F1 PUSH1 0x4 DUP1 CALLDATASIZE SUB DUP2 ADD SWAP1 PUSH2 0x5EC SWAP2 SWAP1 PUSH2 0x41E2 JUMP JUMPDEST PUSH2 0x12B2 JUMP JUMPDEST PUSH1 0x40 MLOAD PUSH2 0x5FE SWAP2 SWAP1 PUSH2 0x4398 JUMP JUMPDEST PUSH1 0x40 MLOAD DUP1 SWAP2 SUB SWAP1 RETURN JUMPDEST CALLVALUE DUP1 ISZERO PUSH2 0x613 JUMPI PUSH1 0x0 DUP1 REVERT JUMPDEST POP PUSH2 0x61C PUSH2 0x1369 JUMP JUMPDEST STOP JUMPDEST CALLVALUE DUP1 ISZERO PUSH2 0x62A JUMPI PUSH1 0x0 DUP1 REVERT JUMPDEST POP PUSH2 0x633 PUSH2 0x137D JUMP JUMPDEST PUSH1 0x40 MLOAD PUSH2 0x640 SWAP2 SWAP1 PUSH2 0x44A5 JUMP JUMPDEST PUSH1 0x40 MLOAD DUP1 SWAP2 SUB SWAP1 RETURN JUMPDEST CALLVALUE DUP1 ISZERO PUSH2 0x655 JUMPI PUSH1 0x0 DUP1 REVERT JUMPDEST POP PUSH2 0x670 PUSH1 0x4 DUP1 CALLDATASIZE SUB DUP2 ADD SWAP1 PUSH2 0x66B SWAP2 SWAP1 PUSH2 0x4406 JUMP JUMPDEST PUSH2 0x13A1 JUMP JUMPDEST PUSH1 0x40 MLOAD PUSH2 0x67D SWAP2 SWAP1 PUSH2 0x4398 JUMP JUMPDEST PUSH1 0x40 MLOAD DUP1 SWAP2 SUB SWAP1 RETURN JUMPDEST CALLVALUE DUP1 ISZERO PUSH2 0x692 JUMPI PUSH1 0x0 DUP1 REVERT JUMPDEST POP PUSH2 0x6AD PUSH1 0x4 DUP1 CALLDATASIZE SUB DUP2 ADD SWAP1 PUSH2 0x6A8 SWAP2 SWAP1 PUSH2 0x468B JUMP JUMPDEST PUSH2 0x13C5 JUMP JUMPDEST STOP JUMPDEST CALLVALUE DUP1 ISZERO PUSH2 0x6BB JUMPI PUSH1 0x0 DUP1 REVERT JUMPDEST POP PUSH2 0x6D6 PUSH1 0x4 DUP1 CALLDATASIZE SUB DUP2 ADD SWAP1 PUSH2 0x6D1 SWAP2 SWAP1 PUSH2 0x47AD JUMP JUMPDEST PUSH2 0x1502 JUMP JUMPDEST STOP JUMPDEST CALLVALUE DUP1 ISZERO PUSH2 0x6E4 JUMPI PUSH1 0x0 DUP1 REVERT JUMPDEST POP PUSH2 0x6ED PUSH2 0x15CE JUMP JUMPDEST PUSH1 0x40 MLOAD PUSH2 0x6FA SWAP2 SWAP1 PUSH2 0x4670 JUMP JUMPDEST PUSH1 0x40 MLOAD DUP1 SWAP2 SUB SWAP1 RETURN JUMPDEST CALLVALUE DUP1 ISZERO PUSH2 0x70F JUMPI PUSH1 0x0 DUP1 REVERT JUMPDEST POP PUSH2 0x72A PUSH1 0x4 DUP1 CALLDATASIZE SUB DUP2 ADD SWAP1 PUSH2 0x725 SWAP2 SWAP1 PUSH2 0x44C0 JUMP JUMPDEST PUSH2 0x15F7 JUMP JUMPDEST PUSH1 0x40 MLOAD PUSH2 0x737 SWAP2 SWAP1 PUSH2 0x3E9F JUMP JUMPDEST PUSH1 0x40 MLOAD DUP1 SWAP2 SUB SWAP1 RETURN JUMPDEST CALLVALUE DUP1 ISZERO PUSH2 0x74C JUMPI PUSH1 0x0 DUP1 REVERT JUMPDEST POP PUSH2 0x755 PUSH2 0x1662 JUMP JUMPDEST PUSH1 0x40 MLOAD PUSH2 0x762 SWAP2 SWAP1 PUSH2 0x3F4A JUMP JUMPDEST PUSH1 0x40 MLOAD DUP1 SWAP2 SUB SWAP1 RETURN JUMPDEST CALLVALUE DUP1 ISZERO PUSH2 0x777 JUMPI PUSH1 0x0 DUP1 REVERT JUMPDEST POP PUSH2 0x792 PUSH1 0x4 DUP1 CALLDATASIZE SUB DUP2 ADD SWAP1 PUSH2 0x78D SWAP2 SWAP1 PUSH2 0x48B1 JUMP JUMPDEST PUSH2 0x16F4 JUMP JUMPDEST STOP JUMPDEST PUSH2 0x79C PUSH2 0x1852 JUMP JUMPDEST PUSH1 0x40 MLOAD PUSH2 0x7A9 SWAP2 SWAP1 PUSH2 0x4398 JUMP JUMPDEST PUSH1 0x40 MLOAD DUP1 SWAP2 SUB SWAP1 RETURN JUMPDEST CALLVALUE DUP1 ISZERO PUSH2 0x7BE JUMPI PUSH1 0x0 DUP1 REVERT JUMPDEST POP PUSH2 0x7C7 PUSH2 0x1EC0 JUMP JUMPDEST PUSH1 0x40 MLOAD PUSH2 0x7D4 SWAP2 SWAP1 PUSH2 0x44A5 JUMP JUMPDEST PUSH1 0x40 MLOAD DUP1 SWAP2 SUB SWAP1 RETURN JUMPDEST CALLVALUE DUP1 ISZERO PUSH2 0x7E9 JUMPI PUSH1 0x0 DUP1 REVERT JUMPDEST POP PUSH2 0x804 PUSH1 0x4 DUP1 CALLDATASIZE SUB DUP2 ADD SWAP1 PUSH2 0x7FF SWAP2 SWAP1 PUSH2 0x4406 JUMP JUMPDEST PUSH2 0x1EC7 JUMP JUMPDEST PUSH1 0x40 MLOAD PUSH2 0x811 SWAP2 SWAP1 PUSH2 0x4646 JUMP JUMPDEST PUSH1 0x40 MLOAD DUP1 SWAP2 SUB SWAP1 RETURN JUMPDEST CALLVALUE DUP1 ISZERO PUSH2 0x826 JUMPI PUSH1 0x0 DUP1 REVERT JUMPDEST POP PUSH2 0x841 PUSH1 0x4 DUP1 CALLDATASIZE SUB DUP2 ADD SWAP1 PUSH2 0x83C SWAP2 SWAP1 PUSH2 0x4406 JUMP JUMPDEST PUSH2 0x1EF1 JUMP JUMPDEST PUSH1 0x40 MLOAD PUSH2 0x84E SWAP2 SWAP1 PUSH2 0x3F4A JUMP JUMPDEST PUSH1 0x40 MLOAD DUP1 SWAP2 SUB SWAP1 RETURN JUMPDEST CALLVALUE DUP1 ISZERO PUSH2 0x863 JUMPI PUSH1 0x0 DUP1 REVERT JUMPDEST POP PUSH2 0x87E PUSH1 0x4 DUP1 CALLDATASIZE SUB DUP2 ADD SWAP1 PUSH2 0x879 SWAP2 SWAP1 PUSH2 0x44C0 JUMP JUMPDEST PUSH2 0x1FEB JUMP JUMPDEST STOP JUMPDEST CALLVALUE DUP1 ISZERO PUSH2 0x88C JUMPI PUSH1 0x0 DUP1 REVERT JUMPDEST POP PUSH2 0x8A7 PUSH1 0x4 DUP1 CALLDATASIZE SUB DUP2 ADD SWAP1 PUSH2 0x8A2 SWAP2 SWAP1 PUSH2 0x4406 JUMP JUMPDEST PUSH2 0x200C JUMP JUMPDEST PUSH1 0x40 MLOAD PUSH2 0x8B4 SWAP2 SWAP1 PUSH2 0x4646 JUMP JUMPDEST PUSH1 0x40 MLOAD DUP1 SWAP2 SUB SWAP1 RETURN JUMPDEST CALLVALUE DUP1 ISZERO PUSH2 0x8C9 JUMPI PUSH1 0x0 DUP1 REVERT JUMPDEST POP PUSH2 0x8E4 PUSH1 0x4 DUP1 CALLDATASIZE SUB DUP2 ADD SWAP1 PUSH2 0x8DF SWAP2 SWAP1 PUSH2 0x4406 JUMP JUMPDEST PUSH2 0x2036 JUMP JUMPDEST PUSH1 0x40 MLOAD PUSH2 0x8F2 SWAP3 SWAP2 SWAP1 PUSH2 0x48FA JUMP JUMPDEST PUSH1 0x40 MLOAD DUP1 SWAP2 SUB SWAP1 RETURN JUMPDEST PUSH2 0x915 PUSH1 0x4 DUP1 CALLDATASIZE SUB DUP2 ADD SWAP1 PUSH2 0x910 SWAP2 SWAP1 PUSH2 0x4406 JUMP JUMPDEST PUSH2 0x207A JUMP JUMPDEST STOP JUMPDEST CALLVALUE DUP1 ISZERO PUSH2 0x923 JUMPI PUSH1 0x0 DUP1 REVERT JUMPDEST POP PUSH2 0x93E PUSH1 0x4 DUP1 CALLDATASIZE SUB DUP2 ADD SWAP1 PUSH2 0x939 SWAP2 SWAP1 PUSH2 0x41E2 JUMP JUMPDEST PUSH2 0x227B JUMP JUMPDEST STOP JUMPDEST CALLVALUE DUP1 ISZERO PUSH2 0x94C JUMPI PUSH1 0x0 DUP1 REVERT JUMPDEST POP PUSH2 0x967 PUSH1 0x4 DUP1 CALLDATASIZE SUB DUP2 ADD SWAP1 PUSH2 0x962 SWAP2 SWAP1 PUSH2 0x4406 JUMP JUMPDEST PUSH2 0x22C8 JUMP JUMPDEST PUSH1 0x40 MLOAD PUSH2 0x974 SWAP2 SWAP1 PUSH2 0x3F4A JUMP JUMPDEST PUSH1 0x40 MLOAD DUP1 SWAP2 SUB SWAP1 RETURN JUMPDEST CALLVALUE DUP1 ISZERO PUSH2 0x989 JUMPI PUSH1 0x0 DUP1 REVERT JUMPDEST POP PUSH2 0x9A4 PUSH1 0x4 DUP1 CALLDATASIZE SUB DUP2 ADD SWAP1 PUSH2 0x99F SWAP2 SWAP1 PUSH2 0x4406 JUMP JUMPDEST PUSH2 0x236D JUMP JUMPDEST STOP JUMPDEST CALLVALUE DUP1 ISZERO PUSH2 0x9B2 JUMPI PUSH1 0x0 DUP1 REVERT JUMPDEST POP PUSH2 0x9CD PUSH1 0x4 DUP1 CALLDATASIZE SUB DUP2 ADD SWAP1 PUSH2 0x9C8 SWAP2 SWAP1 PUSH2 0x468B JUMP JUMPDEST PUSH2 0x23E0 JUMP JUMPDEST STOP JUMPDEST PUSH1 0x0 PUSH32 0x304AD1F200000000000000000000000000000000000000000000000000000000 PUSH28 0xFFFFFFFFFFFFFFFFFFFFFFFFFFFFFFFFFFFFFFFFFFFFFFFFFFFFFFFF NOT AND DUP3 PUSH28 0xFFFFFFFFFFFFFFFFFFFFFFFFFFFFFFFFFFFFFFFFFFFFFFFFFFFFFFFF NOT AND EQ DUP1 PUSH2 0xA9A JUMPI POP PUSH32 0x5B5E139F00000000000000000000000000000000000000000000000000000000 PUSH28 0xFFFFFFFFFFFFFFFFFFFFFFFFFFFFFFFFFFFFFFFFFFFFFFFFFFFFFFFF NOT AND DUP3 PUSH28 0xFFFFFFFFFFFFFFFFFFFFFFFFFFFFFFFFFFFFFFFFFFFFFFFFFFFFFFFF NOT AND EQ JUMPDEST DUP1 PUSH2 0xAAA JUMPI POP PUSH2 0xAA9 DUP3 PUSH2 0x24AC JUMP JUMPDEST JUMPDEST SWAP1 POP SWAP2 SWAP1 POP JUMP JUMPDEST PUSH1 0x60 PUSH1 0x7 DUP1 SLOAD PUSH2 0xAC0 SWAP1 PUSH2 0x4952 JUMP JUMPDEST DUP1 PUSH1 0x1F ADD PUSH1 0x20 DUP1 SWAP2 DIV MUL PUSH1 0x20 ADD PUSH1 0x40 MLOAD SWAP1 DUP2 ADD PUSH1 0x40 MSTORE DUP1 SWAP3 SWAP2 SWAP1 DUP2 DUP2 MSTORE PUSH1 0x20 ADD DUP3 DUP1 SLOAD PUSH2 0xAEC SWAP1 PUSH2 0x4952 JUMP JUMPDEST DUP1 ISZERO PUSH2 0xB39 JUMPI DUP1 PUSH1 0x1F LT PUSH2 0xB0E JUMPI PUSH2 0x100 DUP1 DUP4 SLOAD DIV MUL DUP4 MSTORE SWAP2 PUSH1 0x20 ADD SWAP2 PUSH2 0xB39 JUMP JUMPDEST DUP3 ADD SWAP2 SWAP1 PUSH1 0x0 MSTORE PUSH1 0x20 PUSH1 0x0 KECCAK256 SWAP1 JUMPDEST DUP2 SLOAD DUP2 MSTORE SWAP1 PUSH1 0x1 ADD SWAP1 PUSH1 0x20 ADD DUP1 DUP4 GT PUSH2 0xB1C JUMPI DUP3 SWAP1 SUB PUSH1 0x1F AND DUP3 ADD SWAP2 JUMPDEST POP POP POP POP POP SWAP1 POP SWAP1 JUMP JUMPDEST PUSH1 0x0 PUSH4 0x150B7A02 PUSH1 0xE0 SHL SWAP1 POP SWAP5 SWAP4 POP POP POP POP JUMP JUMPDEST PUSH1 0x60 PUSH1 0x0 PUSH2 0xB64 DUP4 PUSH2 0x12B2 JUMP JUMPDEST SWAP1 POP PUSH1 0x0 DUP2 PUSH8 0xFFFFFFFFFFFFFFFF DUP2 GT ISZERO PUSH2 0xB82 JUMPI PUSH2 0xB81 PUSH2 0x400A JUMP JUMPDEST JUMPDEST PUSH1 0x40 MLOAD SWAP1 DUP1 DUP3 MSTORE DUP1 PUSH1 0x20 MUL PUSH1 0x20 ADD DUP3 ADD PUSH1 0x40 MSTORE DUP1 ISZERO PUSH2 0xBB0 JUMPI DUP2 PUSH1 0x20 ADD PUSH1 0x20 DUP3 MUL DUP1 CALLDATASIZE DUP4 CALLDATACOPY DUP1 DUP3 ADD SWAP2 POP POP SWAP1 POP JUMPDEST POP SWAP1 POP PUSH1 0x0 DUP3 PUSH8 0xFFFFFFFFFFFFFFFF DUP2 GT ISZERO PUSH2 0xBCF JUMPI PUSH2 0xBCE PUSH2 0x400A JUMP JUMPDEST JUMPDEST PUSH1 0x40 MLOAD SWAP1 DUP1 DUP3 MSTORE DUP1 PUSH1 0x20 MUL PUSH1 0x20 ADD DUP3 ADD PUSH1 0x40 MSTORE DUP1 ISZERO PUSH2 0xC02 JUMPI DUP2 PUSH1 0x20 ADD JUMPDEST PUSH1 0x60 DUP2 MSTORE PUSH1 0x20 ADD SWAP1 PUSH1 0x1 SWAP1 SUB SWAP1 DUP2 PUSH2 0xBED JUMPI SWAP1 POP JUMPDEST POP SWAP1 POP PUSH1 0x0 JUMPDEST DUP4 DUP2 LT ISZERO PUSH2 0xC46 JUMPI PUSH2 0xC1A DUP7 DUP3 PUSH2 0xE77 JUMP JUMPDEST DUP4 DUP3 DUP2 MLOAD DUP2 LT PUSH2 0xC2D JUMPI PUSH2 0xC2C PUSH2 0x4983 JUMP JUMPDEST JUMPDEST PUSH1 0x20 MUL PUSH1 0x20 ADD ADD DUP2 DUP2 MSTORE POP POP DUP1 DUP1 PUSH1 0x1 ADD SWAP2 POP POP PUSH2 0xC08 JUMP JUMPDEST POP PUSH1 0x0 JUMPDEST DUP3 MLOAD DUP2 LT ISZERO PUSH2 0xCA1 JUMPI PUSH2 0xC76 DUP4 DUP3 DUP2 MLOAD DUP2 LT PUSH2 0xC69 JUMPI PUSH2 0xC68 PUSH2 0x4983 JUMP JUMPDEST JUMPDEST PUSH1 0x20 MUL PUSH1 0x20 ADD ADD MLOAD PUSH2 0x22C8 JUMP JUMPDEST DUP3 DUP3 DUP2 MLOAD DUP2 LT PUSH2 0xC89 JUMPI PUSH2 0xC88 PUSH2 0x4983 JUMP JUMPDEST JUMPDEST PUSH1 0x20 MUL PUSH1 0x20 ADD ADD DUP2 SWAP1 MSTORE POP DUP1 DUP1 PUSH1 0x1 ADD SWAP2 POP POP PUSH2 0xC4A JUMP JUMPDEST POP PUSH1 0x0 DUP4 PUSH8 0xFFFFFFFFFFFFFFFF DUP2 GT ISZERO PUSH2 0xCBE JUMPI PUSH2 0xCBD PUSH2 0x400A JUMP JUMPDEST JUMPDEST PUSH1 0x40 MLOAD SWAP1 DUP1 DUP3 MSTORE DUP1 PUSH1 0x20 MUL PUSH1 0x20 ADD DUP3 ADD PUSH1 0x40 MSTORE DUP1 ISZERO PUSH2 0xCF7 JUMPI DUP2 PUSH1 0x20 ADD JUMPDEST PUSH2 0xCE4 PUSH2 0x3CAA JUMP JUMPDEST DUP2 MSTORE PUSH1 0x20 ADD SWAP1 PUSH1 0x1 SWAP1 SUB SWAP1 DUP2 PUSH2 0xCDC JUMPI SWAP1 POP JUMPDEST POP SWAP1 POP PUSH1 0x0 JUMPDEST DUP5 DUP2 LT ISZERO PUSH2 0xD7F JUMPI PUSH1 0x0 PUSH1 0x40 MLOAD DUP1 PUSH1 0x40 ADD PUSH1 0x40 MSTORE DUP1 DUP7 DUP5 DUP2 MLOAD DUP2 LT PUSH2 0xD25 JUMPI PUSH2 0xD24 PUSH2 0x4983 JUMP JUMPDEST JUMPDEST PUSH1 0x20 MUL PUSH1 0x20 ADD ADD MLOAD DUP2 MSTORE PUSH1 0x20 ADD DUP6 DUP5 DUP2 MLOAD DUP2 LT PUSH2 0xD45 JUMPI PUSH2 0xD44 PUSH2 0x4983 JUMP JUMPDEST JUMPDEST PUSH1 0x20 MUL PUSH1 0x20 ADD ADD MLOAD DUP2 MSTORE POP SWAP1 POP DUP1 DUP4 DUP4 DUP2 MLOAD DUP2 LT PUSH2 0xD66 JUMPI PUSH2 0xD65 PUSH2 0x4983 JUMP JUMPDEST JUMPDEST PUSH1 0x20 MUL PUSH1 0x20 ADD ADD DUP2 SWAP1 MSTORE POP POP DUP1 DUP1 PUSH1 0x1 ADD SWAP2 POP POP PUSH2 0xCFD JUMP JUMPDEST POP DUP1 SWAP5 POP POP POP POP POP SWAP2 SWAP1 POP JUMP JUMPDEST PUSH1 0x0 PUSH1 0xE DUP1 SLOAD SWAP1 POP SWAP1 POP SWAP1 JUMP JUMPDEST PUSH2 0xDC3 PUSH32 0xA49807205CE4D355092EF5A8A18F56E8913CF4A201FBE287825B095693C21775 CALLER PUSH2 0x15F7 JUMP JUMPDEST PUSH2 0xE02 JUMPI PUSH1 0x40 MLOAD PUSH32 0x8C379A000000000000000000000000000000000000000000000000000000000 DUP2 MSTORE PUSH1 0x4 ADD PUSH2 0xDF9 SWAP1 PUSH2 0x49FE JUMP JUMPDEST PUSH1 0x40 MLOAD DUP1 SWAP2 SUB SWAP1 REVERT JUMPDEST PUSH2 0xE0D DUP4 DUP4 DUP4 PUSH2 0x2526 JUMP JUMPDEST POP POP POP JUMP JUMPDEST PUSH1 0x15 DUP2 DUP2 SLOAD DUP2 LT PUSH2 0xE22 JUMPI PUSH1 0x0 DUP1 REVERT JUMPDEST SWAP1 PUSH1 0x0 MSTORE PUSH1 0x20 PUSH1 0x0 KECCAK256 ADD PUSH1 0x0 SWAP2 POP SWAP1 POP SLOAD DUP2 JUMP JUMPDEST PUSH1 0x0 PUSH1 0x6 PUSH1 0x0 DUP4 DUP2 MSTORE PUSH1 0x20 ADD SWAP1 DUP2 MSTORE PUSH1 0x20 ADD PUSH1 0x0 KECCAK256 PUSH1 0x1 ADD SLOAD SWAP1 POP SWAP2 SWAP1 POP JUMP JUMPDEST PUSH2 0xE5F DUP3 PUSH2 0xE36 JUMP JUMPDEST PUSH2 0xE68 DUP2 PUSH2 0x281F JUMP JUMPDEST PUSH2 0xE72 DUP4 DUP4 PUSH2 0x2833 JUMP JUMPDEST POP POP POP JUMP JUMPDEST PUSH1 0x0 PUSH2 0xE82 DUP4 PUSH2 0x12B2 JUMP JUMPDEST DUP3 LT PUSH2 0xEC3 JUMPI PUSH1 0x40 MLOAD PUSH32 0x8C379A000000000000000000000000000000000000000000000000000000000 DUP2 MSTORE PUSH1 0x4 ADD PUSH2 0xEBA SWAP1 PUSH2 0x4A6A JUMP JUMPDEST PUSH1 0x40 MLOAD DUP1 SWAP2 SUB SWAP1 REVERT JUMPDEST PUSH1 0xB PUSH1 0x0 DUP5 PUSH20 0xFFFFFFFFFFFFFFFFFFFFFFFFFFFFFFFFFFFFFFFF AND PUSH20 0xFFFFFFFFFFFFFFFFFFFFFFFFFFFFFFFFFFFFFFFF AND DUP2 MSTORE PUSH1 0x20 ADD SWAP1 DUP2 MSTORE PUSH1 0x20 ADD PUSH1 0x0 KECCAK256 PUSH1 0x0 DUP4 DUP2 MSTORE PUSH1 0x20 ADD SWAP1 DUP2 MSTORE PUSH1 0x20 ADD PUSH1 0x0 KECCAK256 SLOAD SWAP1 POP SWAP3 SWAP2 POP POP JUMP JUMPDEST PUSH2 0xF46 PUSH32 0xA49807205CE4D355092EF5A8A18F56E8913CF4A201FBE287825B095693C21775 CALLER PUSH2 0x15F7 JUMP JUMPDEST PUSH2 0xF85 JUMPI PUSH1 0x40 MLOAD PUSH32 0x8C379A000000000000000000000000000000000000000000000000000000000 DUP2 MSTORE PUSH1 0x4 ADD PUSH2 0xF7C SWAP1 PUSH2 0x49FE JUMP JUMPDEST PUSH1 0x40 MLOAD DUP1 SWAP2 SUB SWAP1 REVERT JUMPDEST DUP1 PUSH1 0x11 SWAP1 DUP2 PUSH2 0xF94 SWAP2 SWAP1 PUSH2 0x4C36 JUMP JUMPDEST POP POP JUMP JUMPDEST PUSH1 0x0 PUSH1 0x13 PUSH1 0x0 DUP4 DUP2 MSTORE PUSH1 0x20 ADD SWAP1 DUP2 MSTORE PUSH1 0x20 ADD PUSH1 0x0 KECCAK256 PUSH1 0x40 MLOAD DUP1 PUSH1 0x40 ADD PUSH1 0x40 MSTORE SWAP1 DUP2 PUSH1 0x0 DUP3 ADD PUSH1 0x0 SWAP1 SLOAD SWAP1 PUSH2 0x100 EXP SWAP1 DIV PUSH20 0xFFFFFFFFFFFFFFFFFFFFFFFFFFFFFFFFFFFFFFFF AND PUSH20 0xFFFFFFFFFFFFFFFFFFFFFFFFFFFFFFFFFFFFFFFF AND PUSH20 0xFFFFFFFFFFFFFFFFFFFFFFFFFFFFFFFFFFFFFFFF AND DUP2 MSTORE PUSH1 0x20 ADD PUSH1 0x1 DUP3 ADD SLOAD DUP2 MSTORE POP POP SWAP1 POP CALLER PUSH20 0xFFFFFFFFFFFFFFFFFFFFFFFFFFFFFFFFFFFFFFFF AND DUP2 PUSH1 0x0 ADD MLOAD PUSH20 0xFFFFFFFFFFFFFFFFFFFFFFFFFFFFFFFFFFFFFFFF AND EQ PUSH2 0x108C JUMPI PUSH1 0x40 MLOAD PUSH32 0x8C379A000000000000000000000000000000000000000000000000000000000 DUP2 MSTORE PUSH1 0x4 ADD PUSH2 0x1083 SWAP1 PUSH2 0x4D54 JUMP JUMPDEST PUSH1 0x40 MLOAD DUP1 SWAP2 SUB SWAP1 REVERT JUMPDEST PUSH1 0x13 PUSH1 0x0 DUP4 DUP2 MSTORE PUSH1 0x20 ADD SWAP1 DUP2 MSTORE PUSH1 0x20 ADD PUSH1 0x0 KECCAK256 PUSH1 0x0 DUP1 DUP3 ADD PUSH1 0x0 PUSH2 0x100 EXP DUP2 SLOAD SWAP1 PUSH20 0xFFFFFFFFFFFFFFFFFFFFFFFFFFFFFFFFFFFFFFFF MUL NOT AND SWAP1 SSTORE PUSH1 0x1 DUP3 ADD PUSH1 0x0 SWAP1 SSTORE POP POP PUSH2 0x10DC ADDRESS CALLER DUP5 PUSH2 0x2914 JUMP JUMPDEST POP POP JUMP JUMPDEST PUSH2 0x10E8 PUSH2 0x2924 JUMP JUMPDEST PUSH20 0xFFFFFFFFFFFFFFFFFFFFFFFFFFFFFFFFFFFFFFFF AND DUP2 PUSH20 0xFFFFFFFFFFFFFFFFFFFFFFFFFFFFFFFFFFFFFFFF AND EQ PUSH2 0x1155 JUMPI PUSH1 0x40 MLOAD PUSH32 0x8C379A000000000000000000000000000000000000000000000000000000000 DUP2 MSTORE PUSH1 0x4 ADD PUSH2 0x114C SWAP1 PUSH2 0x4DE6 JUMP JUMPDEST PUSH1 0x40 MLOAD DUP1 SWAP2 SUB SWAP1 REVERT JUMPDEST PUSH2 0x115F DUP3 DUP3 PUSH2 0x292C JUMP JUMPDEST POP POP JUMP JUMPDEST PUSH2 0x116B PUSH2 0x2A0E JUMP JUMPDEST PUSH1 0x0 SELFBALANCE SWAP1 POP PUSH2 0x1178 PUSH2 0x15CE JUMP JUMPDEST PUSH20 0xFFFFFFFFFFFFFFFFFFFFFFFFFFFFFFFFFFFFFFFF AND PUSH2 0x8FC DUP3 SWAP1 DUP2 ISZERO MUL SWAP1 PUSH1 0x40 MLOAD PUSH1 0x0 PUSH1 0x40 MLOAD DUP1 DUP4 SUB DUP2 DUP6 DUP9 DUP9 CALL SWAP4 POP POP POP POP ISZERO DUP1 ISZERO PUSH2 0x11BD JUMPI RETURNDATASIZE PUSH1 0x0 DUP1 RETURNDATACOPY RETURNDATASIZE PUSH1 0x0 REVERT JUMPDEST POP POP JUMP JUMPDEST PUSH1 0x0 PUSH2 0x11CB PUSH2 0xD8C JUMP JUMPDEST DUP3 LT PUSH2 0x11D6 JUMPI PUSH1 0x0 DUP1 REVERT JUMPDEST PUSH1 0xE DUP3 DUP2 SLOAD DUP2 LT PUSH2 0x11EA JUMPI PUSH2 0x11E9 PUSH2 0x4983 JUMP JUMPDEST JUMPDEST SWAP1 PUSH1 0x0 MSTORE PUSH1 0x20 PUSH1 0x0 KECCAK256 ADD SLOAD SWAP1 POP SWAP2 SWAP1 POP JUMP JUMPDEST PUSH1 0x17 DUP2 PUSH1 0x9 DUP2 LT PUSH2 0x120C JUMPI PUSH1 0x0 DUP1 REVERT JUMPDEST PUSH1 0x20 SWAP2 DUP3 DUP3 DIV ADD SWAP2 SWAP1 MOD SWAP2 POP SLOAD SWAP1 PUSH2 0x100 EXP SWAP1 DIV PUSH1 0xFF AND DUP2 JUMP JUMPDEST PUSH1 0x0 DUP1 PUSH2 0x1232 DUP4 PUSH2 0x2A8C JUMP JUMPDEST SWAP1 POP PUSH1 0x0 PUSH20 0xFFFFFFFFFFFFFFFFFFFFFFFFFFFFFFFFFFFFFFFF AND DUP2 PUSH20 0xFFFFFFFFFFFFFFFFFFFFFFFFFFFFFFFFFFFFFFFF AND SUB PUSH2 0x12A3 JUMPI PUSH1 0x40 MLOAD PUSH32 0x8C379A000000000000000000000000000000000000000000000000000000000 DUP2 MSTORE PUSH1 0x4 ADD PUSH2 0x129A SWAP1 PUSH2 0x4E52 JUMP JUMPDEST PUSH1 0x40 MLOAD DUP1 SWAP2 SUB SWAP1 REVERT JUMPDEST DUP1 SWAP2 POP POP SWAP2 SWAP1 POP JUMP JUMPDEST PUSH1 0x12 SLOAD DUP2 JUMP JUMPDEST PUSH1 0x0 DUP1 PUSH20 0xFFFFFFFFFFFFFFFFFFFFFFFFFFFFFFFFFFFFFFFF AND DUP3 PUSH20 0xFFFFFFFFFFFFFFFFFFFFFFFFFFFFFFFFFFFFFFFF AND SUB PUSH2 0x1322 JUMPI PUSH1 0x40 MLOAD PUSH32 0x8C379A000000000000000000000000000000000000000000000000000000000 DUP2 MSTORE PUSH1 0x4 ADD PUSH2 0x1319 SWAP1 PUSH2 0x4EE4 JUMP JUMPDEST PUSH1 0x40 MLOAD DUP1 SWAP2 SUB SWAP1 REVERT JUMPDEST PUSH1 0x4 PUSH1 0x0 DUP4 PUSH20 0xFFFFFFFFFFFFFFFFFFFFFFFFFFFFFFFFFFFFFFFF AND PUSH20 0xFFFFFFFFFFFFFFFFFFFFFFFFFFFFFFFFFFFFFFFF AND DUP2 MSTORE PUSH1 0x20 ADD SWAP1 DUP2 MSTORE PUSH1 0x20 ADD PUSH1 0x0 KECCAK256 SLOAD SWAP1 POP SWAP2 SWAP1 POP JUMP JUMPDEST PUSH2 0x1371 PUSH2 0x2A0E JUMP JUMPDEST PUSH2 0x137B PUSH1 0x0 PUSH2 0x2AC9 JUMP JUMPDEST JUMP JUMPDEST PUSH32 0xA49807205CE4D355092EF5A8A18F56E8913CF4A201FBE287825B095693C21775 DUP2 JUMP JUMPDEST PUSH1 0x14 DUP2 DUP2 SLOAD DUP2 LT PUSH2 0x13B1 JUMPI PUSH1 0x0 DUP1 REVERT JUMPDEST SWAP1 PUSH1 0x0 MSTORE PUSH1 0x20 PUSH1 0x0 KECCAK256 ADD PUSH1 0x0 SWAP2 POP SWAP1 POP SLOAD DUP2 JUMP JUMPDEST PUSH1 0x0 DUP2 GT PUSH2 0x13D2 JUMPI PUSH1 0x0 DUP1 REVERT JUMPDEST CALLER PUSH20 0xFFFFFFFFFFFFFFFFFFFFFFFFFFFFFFFFFFFFFFFF AND PUSH2 0x13F2 DUP4 PUSH2 0x1226 JUMP JUMPDEST PUSH20 0xFFFFFFFFFFFFFFFFFFFFFFFFFFFFFFFFFFFFFFFF AND EQ PUSH2 0x1412 JUMPI PUSH1 0x0 DUP1 REVERT JUMPDEST PUSH2 0x141D CALLER ADDRESS DUP5 PUSH2 0x2914 JUMP JUMPDEST PUSH1 0x40 MLOAD DUP1 PUSH1 0x40 ADD PUSH1 0x40 MSTORE DUP1 CALLER PUSH20 0xFFFFFFFFFFFFFFFFFFFFFFFFFFFFFFFFFFFFFFFF AND DUP2 MSTORE PUSH1 0x20 ADD DUP3 DUP2 MSTORE POP PUSH1 0x13 PUSH1 0x0 DUP5 DUP2 MSTORE PUSH1 0x20 ADD SWAP1 DUP2 MSTORE PUSH1 0x20 ADD PUSH1 0x0 KECCAK256 PUSH1 0x0 DUP3 ADD MLOAD DUP2 PUSH1 0x0 ADD PUSH1 0x0 PUSH2 0x100 EXP DUP2 SLOAD DUP2 PUSH20 0xFFFFFFFFFFFFFFFFFFFFFFFFFFFFFFFFFFFFFFFF MUL NOT AND SWAP1 DUP4 PUSH20 0xFFFFFFFFFFFFFFFFFFFFFFFFFFFFFFFFFFFFFFFF AND MUL OR SWAP1 SSTORE POP PUSH1 0x20 DUP3 ADD MLOAD DUP2 PUSH1 0x1 ADD SSTORE SWAP1 POP POP CALLER PUSH20 0xFFFFFFFFFFFFFFFFFFFFFFFFFFFFFFFFFFFFFFFF AND DUP3 PUSH32 0xC93EDC6EE14CD6C0C2842099ADFA8953B237DBDAD304BA28E96DCE8A7F2A828C DUP4 PUSH1 0x40 MLOAD PUSH2 0x14F6 SWAP2 SWAP1 PUSH2 0x4398 JUMP JUMPDEST PUSH1 0x40 MLOAD DUP1 SWAP2 SUB SWAP1 LOG3 POP POP JUMP JUMPDEST PUSH2 0x152C PUSH32 0xA49807205CE4D355092EF5A8A18F56E8913CF4A201FBE287825B095693C21775 CALLER PUSH2 0x15F7 JUMP JUMPDEST PUSH2 0x156B JUMPI PUSH1 0x40 MLOAD PUSH32 0x8C379A000000000000000000000000000000000000000000000000000000000 DUP2 MSTORE PUSH1 0x4 ADD PUSH2 0x1562 SWAP1 PUSH2 0x49FE JUMP JUMPDEST PUSH1 0x40 MLOAD DUP1 SWAP2 SUB SWAP1 REVERT JUMPDEST PUSH1 0x3 DUP3 LT PUSH2 0x1578 JUMPI PUSH1 0x0 DUP1 REVERT JUMPDEST PUSH1 0x0 DUP3 SUB PUSH2 0x1597 JUMPI DUP1 PUSH1 0x16 SWAP1 PUSH1 0x9 PUSH2 0x1591 SWAP3 SWAP2 SWAP1 PUSH2 0x3CC4 JUMP JUMPDEST POP PUSH2 0x15CA JUMP JUMPDEST PUSH1 0x1 DUP3 SUB PUSH2 0x15B6 JUMPI DUP1 PUSH1 0x17 SWAP1 PUSH1 0x9 PUSH2 0x15B0 SWAP3 SWAP2 SWAP1 PUSH2 0x3CC4 JUMP JUMPDEST POP PUSH2 0x15C9 JUMP JUMPDEST DUP1 PUSH1 0x18 SWAP1 PUSH1 0x9 PUSH2 0x15C7 SWAP3 SWAP2 SWAP1 PUSH2 0x3CC4 JUMP JUMPDEST POP JUMPDEST JUMPDEST POP POP JUMP JUMPDEST PUSH1 0x0 DUP1 PUSH1 0x0 SWAP1 SLOAD SWAP1 PUSH2 0x100 EXP SWAP1 DIV PUSH20 0xFFFFFFFFFFFFFFFFFFFFFFFFFFFFFFFFFFFFFFFF AND SWAP1 POP SWAP1 JUMP JUMPDEST PUSH1 0x0 PUSH1 0x6 PUSH1 0x0 DUP5 DUP2 MSTORE PUSH1 0x20 ADD SWAP1 DUP2 MSTORE PUSH1 0x20 ADD PUSH1 0x0 KECCAK256 PUSH1 0x0 ADD PUSH1 0x0 DUP4 PUSH20 0xFFFFFFFFFFFFFFFFFFFFFFFFFFFFFFFFFFFFFFFF AND PUSH20 0xFFFFFFFFFFFFFFFFFFFFFFFFFFFFFFFFFFFFFFFF AND DUP2 MSTORE PUSH1 0x20 ADD SWAP1 DUP2 MSTORE PUSH1 0x20 ADD PUSH1 0x0 KECCAK256 PUSH1 0x0 SWAP1 SLOAD SWAP1 PUSH2 0x100 EXP SWAP1 DIV PUSH1 0xFF AND SWAP1 POP SWAP3 SWAP2 POP POP JUMP JUMPDEST PUSH1 0x60 PUSH1 0x8 DUP1 SLOAD PUSH2 0x1671 SWAP1 PUSH2 0x4952 JUMP JUMPDEST DUP1 PUSH1 0x1F ADD PUSH1 0x20 DUP1 SWAP2 DIV MUL PUSH1 0x20 ADD PUSH1 0x40 MLOAD SWAP1 DUP2 ADD PUSH1 0x40 MSTORE DUP1 SWAP3 SWAP2 SWAP1 DUP2 DUP2 MSTORE PUSH1 0x20 ADD DUP3 DUP1 SLOAD PUSH2 0x169D SWAP1 PUSH2 0x4952 JUMP JUMPDEST DUP1 ISZERO PUSH2 0x16EA JUMPI DUP1 PUSH1 0x1F LT PUSH2 0x16BF JUMPI PUSH2 0x100 DUP1 DUP4 SLOAD DIV MUL DUP4 MSTORE SWAP2 PUSH1 0x20 ADD SWAP2 PUSH2 0x16EA JUMP JUMPDEST DUP3 ADD SWAP2 SWAP1 PUSH1 0x0 MSTORE PUSH1 0x20 PUSH1 0x0 KECCAK256 SWAP1 JUMPDEST DUP2 SLOAD DUP2 MSTORE SWAP1 PUSH1 0x1 ADD SWAP1 PUSH1 0x20 ADD DUP1 DUP4 GT PUSH2 0x16CD JUMPI DUP3 SWAP1 SUB PUSH1 0x1F AND DUP3 ADD SWAP2 JUMPDEST POP POP POP POP POP SWAP1 POP SWAP1 JUMP JUMPDEST PUSH2 0x171E PUSH32 0xA49807205CE4D355092EF5A8A18F56E8913CF4A201FBE287825B095693C21775 CALLER PUSH2 0x15F7 JUMP JUMPDEST PUSH2 0x175D JUMPI PUSH1 0x40 MLOAD PUSH32 0x8C379A000000000000000000000000000000000000000000000000000000000 DUP2 MSTORE PUSH1 0x4 ADD PUSH2 0x1754 SWAP1 PUSH2 0x49FE JUMP JUMPDEST PUSH1 0x40 MLOAD DUP1 SWAP2 SUB SWAP1 REVERT JUMPDEST PUSH1 0x15 DUP1 SLOAD SWAP1 POP DUP2 MLOAD LT ISZERO PUSH2 0x1770 JUMPI PUSH1 0x0 DUP1 REVERT JUMPDEST PUSH1 0x0 JUMPDEST DUP2 MLOAD DUP2 LT ISZERO PUSH2 0x17DC JUMPI PUSH1 0x15 DUP1 SLOAD SWAP1 POP DUP2 LT ISZERO PUSH2 0x17CF JUMPI PUSH1 0x15 DUP2 DUP2 SLOAD DUP2 LT PUSH2 0x179D JUMPI PUSH2 0x179C PUSH2 0x4983 JUMP JUMPDEST JUMPDEST SWAP1 PUSH1 0x0 MSTORE PUSH1 0x20 PUSH1 0x0 KECCAK256 ADD SLOAD DUP3 DUP3 DUP2 MLOAD DUP2 LT PUSH2 0x17BB JUMPI PUSH2 0x17BA PUSH2 0x4983 JUMP JUMPDEST JUMPDEST PUSH1 0x20 MUL PUSH1 0x20 ADD ADD MLOAD LT ISZERO PUSH2 0x17CE JUMPI PUSH1 0x0 DUP1 REVERT JUMPDEST JUMPDEST DUP1 DUP1 PUSH1 0x1 ADD SWAP2 POP POP PUSH2 0x1773 JUMP JUMPDEST POP DUP1 PUSH1 0x14 SWAP1 DUP1 MLOAD SWAP1 PUSH1 0x20 ADD SWAP1 PUSH2 0x17F3 SWAP3 SWAP2 SWAP1 PUSH2 0x3D5E JUMP JUMPDEST POP PUSH1 0x15 DUP1 SLOAD SWAP1 POP DUP2 MLOAD GT ISZERO PUSH2 0x184F JUMPI PUSH1 0x0 PUSH1 0x15 DUP1 SLOAD SWAP1 POP SWAP1 POP JUMPDEST DUP2 MLOAD DUP2 LT ISZERO PUSH2 0x184D JUMPI PUSH1 0x15 PUSH1 0x0 SWAP1 DUP1 PUSH1 0x1 DUP2 SLOAD ADD DUP1 DUP3 SSTORE DUP1 SWAP2 POP POP PUSH1 0x1 SWAP1 SUB SWAP1 PUSH1 0x0 MSTORE PUSH1 0x20 PUSH1 0x0 KECCAK256 ADD PUSH1 0x0 SWAP1 SWAP2 SWAP1 SWAP2 SWAP1 SWAP2 POP SSTORE DUP1 DUP1 PUSH1 0x1 ADD SWAP2 POP POP PUSH2 0x180D JUMP JUMPDEST POP JUMPDEST POP JUMP JUMPDEST PUSH1 0x0 PUSH1 0x12 SLOAD CALLVALUE LT ISZERO PUSH2 0x1899 JUMPI PUSH1 0x40 MLOAD PUSH32 0x8C379A000000000000000000000000000000000000000000000000000000000 DUP2 MSTORE PUSH1 0x4 ADD PUSH2 0x1890 SWAP1 PUSH2 0x4F50 JUMP JUMPDEST PUSH1 0x40 MLOAD DUP1 SWAP2 SUB SWAP1 REVERT JUMPDEST PUSH1 0x0 PUSH1 0x1 PUSH1 0x64 PUSH2 0x18A7 PUSH2 0x2B8D JUMP JUMPDEST PUSH2 0x18B1 SWAP2 SWAP1 PUSH2 0x4F9F JUMP JUMPDEST PUSH2 0x18BB SWAP2 SWAP1 PUSH2 0x4FFF JUMP JUMPDEST SWAP1 POP PUSH1 0x0 PUSH1 0x47 DUP3 GT PUSH2 0x18D0 JUMPI PUSH1 0x0 SWAP1 POP PUSH2 0x18E7 JUMP JUMPDEST PUSH1 0x63 DUP3 GT PUSH2 0x18E1 JUMPI PUSH1 0x1 SWAP1 POP PUSH2 0x18E6 JUMP JUMPDEST PUSH1 0x2 SWAP1 POP JUMPDEST JUMPDEST PUSH1 0x14 DUP2 DUP2 SLOAD DUP2 LT PUSH2 0x18FB JUMPI PUSH2 0x18FA PUSH2 0x4983 JUMP JUMPDEST JUMPDEST SWAP1 PUSH1 0x0 MSTORE PUSH1 0x20 PUSH1 0x0 KECCAK256 ADD SLOAD PUSH1 0x15 DUP3 DUP2 SLOAD DUP2 LT PUSH2 0x191A JUMPI PUSH2 0x1919 PUSH2 0x4983 JUMP JUMPDEST JUMPDEST SWAP1 PUSH1 0x0 MSTORE PUSH1 0x20 PUSH1 0x0 KECCAK256 ADD SLOAD LT PUSH2 0x1965 JUMPI PUSH1 0x40 MLOAD PUSH32 0x8C379A000000000000000000000000000000000000000000000000000000000 DUP2 MSTORE PUSH1 0x4 ADD PUSH2 0x195C SWAP1 PUSH2 0x507F JUMP JUMPDEST PUSH1 0x40 MLOAD DUP1 SWAP2 SUB SWAP1 REVERT JUMPDEST PUSH1 0x0 PUSH2 0x1971 PUSH1 0x9 PUSH2 0x2BC8 JUMP JUMPDEST SWAP1 POP PUSH2 0x197D PUSH1 0x9 PUSH2 0x2BD6 JUMP JUMPDEST PUSH2 0x1985 PUSH2 0x3DAB JUMP JUMPDEST PUSH1 0x0 DUP4 SUB PUSH2 0x19F8 JUMPI PUSH1 0x16 PUSH1 0x9 DUP1 PUSH1 0x20 MUL PUSH1 0x40 MLOAD SWAP1 DUP2 ADD PUSH1 0x40 MSTORE DUP1 SWAP3 SWAP2 SWAP1 DUP3 PUSH1 0x9 DUP1 ISZERO PUSH2 0x19EC JUMPI PUSH1 0x20 MUL DUP3 ADD SWAP2 PUSH1 0x0 SWAP1 JUMPDEST DUP3 DUP3 SWAP1 SLOAD SWAP1 PUSH2 0x100 EXP SWAP1 DIV PUSH1 0xFF AND PUSH1 0xFF AND DUP2 MSTORE PUSH1 0x20 ADD SWAP1 PUSH1 0x1 ADD SWAP1 PUSH1 0x20 DUP3 PUSH1 0x0 ADD DIV SWAP3 DUP4 ADD SWAP3 PUSH1 0x1 SUB DUP3 MUL SWAP2 POP DUP1 DUP5 GT PUSH2 0x19B5 JUMPI SWAP1 POP JUMPDEST POP POP POP POP POP SWAP1 POP PUSH2 0x1AD3 JUMP JUMPDEST PUSH1 0x1 DUP4 SUB PUSH2 0x1A6B JUMPI PUSH1 0x17 PUSH1 0x9 DUP1 PUSH1 0x20 MUL PUSH1 0x40 MLOAD SWAP1 DUP2 ADD PUSH1 0x40 MSTORE DUP1 SWAP3 SWAP2 SWAP1 DUP3 PUSH1 0x9 DUP1 ISZERO PUSH2 0x1A5F JUMPI PUSH1 0x20 MUL DUP3 ADD SWAP2 PUSH1 0x0 SWAP1 JUMPDEST DUP3 DUP3 SWAP1 SLOAD SWAP1 PUSH2 0x100 EXP SWAP1 DIV PUSH1 0xFF AND PUSH1 0xFF AND DUP2 MSTORE PUSH1 0x20 ADD SWAP1 PUSH1 0x1 ADD SWAP1 PUSH1 0x20 DUP3 PUSH1 0x0 ADD DIV SWAP3 DUP4 ADD SWAP3 PUSH1 0x1 SUB DUP3 MUL SWAP2 POP DUP1 DUP5 GT PUSH2 0x1A28 JUMPI SWAP1 POP JUMPDEST POP POP POP POP POP SWAP1 POP PUSH2 0x1AD2 JUMP JUMPDEST PUSH1 0x18 PUSH1 0x9 DUP1 PUSH1 0x20 MUL PUSH1 0x40 MLOAD SWAP1 DUP2 ADD PUSH1 0x40 MSTORE DUP1 SWAP3 SWAP2 SWAP1 DUP3 PUSH1 0x9 DUP1 ISZERO PUSH2 0x1ACA JUMPI PUSH1 0x20 MUL DUP3 ADD SWAP2 PUSH1 0x0 SWAP1 JUMPDEST DUP3 DUP3 SWAP1 SLOAD SWAP1 PUSH2 0x100 EXP SWAP1 DIV PUSH1 0xFF AND PUSH1 0xFF AND DUP2 MSTORE PUSH1 0x20 ADD SWAP1 PUSH1 0x1 ADD SWAP1 PUSH1 0x20 DUP3 PUSH1 0x0 ADD DIV SWAP3 DUP4 ADD SWAP3 PUSH1 0x1 SUB DUP3 MUL SWAP2 POP DUP1 DUP5 GT PUSH2 0x1A93 JUMPI SWAP1 POP JUMPDEST POP POP POP POP POP SWAP1 POP JUMPDEST JUMPDEST PUSH1 0x60 PUSH1 0x0 JUMPDEST DUP1 PUSH2 0x1D2E JUMPI PUSH2 0x1AE5 PUSH2 0x3DAB JUMP JUMPDEST PUSH1 0x1 DUP7 PUSH2 0x1AF2 SWAP2 SWAP1 PUSH2 0x4FFF JUMP JUMPDEST DUP2 PUSH1 0x0 PUSH1 0x9 DUP2 LT PUSH2 0x1B06 JUMPI PUSH2 0x1B05 PUSH2 0x4983 JUMP JUMPDEST JUMPDEST PUSH1 0x20 MUL ADD SWAP1 PUSH1 0xFF AND SWAP1 DUP2 PUSH1 0xFF AND DUP2 MSTORE POP POP PUSH1 0x0 PUSH1 0x1 SWAP1 POP JUMPDEST PUSH1 0x9 DUP2 PUSH1 0xFF AND LT ISZERO PUSH2 0x1BA0 JUMPI PUSH1 0x1 DUP6 DUP3 PUSH1 0xFF AND PUSH1 0x9 DUP2 LT PUSH2 0x1B42 JUMPI PUSH2 0x1B41 PUSH2 0x4983 JUMP JUMPDEST JUMPDEST PUSH1 0x20 MUL ADD MLOAD PUSH1 0xFF AND PUSH2 0x1B52 PUSH2 0x2B8D JUMP JUMPDEST PUSH2 0x1B5C SWAP2 SWAP1 PUSH2 0x4F9F JUMP JUMPDEST PUSH2 0x1B66 SWAP2 SWAP1 PUSH2 0x4FFF JUMP JUMPDEST DUP3 DUP3 PUSH1 0xFF AND PUSH1 0x9 DUP2 LT PUSH2 0x1B7C JUMPI PUSH2 0x1B7B PUSH2 0x4983 JUMP JUMPDEST JUMPDEST PUSH1 0x20 MUL ADD SWAP1 PUSH1 0xFF AND SWAP1 DUP2 PUSH1 0xFF AND DUP2 MSTORE POP POP DUP1 DUP1 PUSH2 0x1B98 SWAP1 PUSH2 0x509F JUMP JUMPDEST SWAP2 POP POP PUSH2 0x1B1E JUMP JUMPDEST POP PUSH2 0x1BC2 DUP2 PUSH1 0x0 PUSH1 0x9 DUP2 LT PUSH2 0x1BB8 JUMPI PUSH2 0x1BB7 PUSH2 0x4983 JUMP JUMPDEST JUMPDEST PUSH1 0x20 MUL ADD MLOAD PUSH2 0x2BEC JUMP JUMPDEST PUSH2 0x1BE3 DUP3 PUSH1 0x1 PUSH1 0x9 DUP2 LT PUSH2 0x1BD9 JUMPI PUSH2 0x1BD8 PUSH2 0x4983 JUMP JUMPDEST JUMPDEST PUSH1 0x20 MUL ADD MLOAD PUSH2 0x2BEC JUMP JUMPDEST PUSH2 0x1C04 DUP4 PUSH1 0x2 PUSH1 0x9 DUP2 LT PUSH2 0x1BFA JUMPI PUSH2 0x1BF9 PUSH2 0x4983 JUMP JUMPDEST JUMPDEST PUSH1 0x20 MUL ADD MLOAD PUSH2 0x2BEC JUMP JUMPDEST PUSH2 0x1C25 DUP5 PUSH1 0x3 PUSH1 0x9 DUP2 LT PUSH2 0x1C1B JUMPI PUSH2 0x1C1A PUSH2 0x4983 JUMP JUMPDEST JUMPDEST PUSH1 0x20 MUL ADD MLOAD PUSH2 0x2BEC JUMP JUMPDEST PUSH2 0x1C46 DUP6 PUSH1 0x4 PUSH1 0x9 DUP2 LT PUSH2 0x1C3C JUMPI PUSH2 0x1C3B PUSH2 0x4983 JUMP JUMPDEST JUMPDEST PUSH1 0x20 MUL ADD MLOAD PUSH2 0x2BEC JUMP JUMPDEST PUSH2 0x1C67 DUP7 PUSH1 0x5 PUSH1 0x9 DUP2 LT PUSH2 0x1C5D JUMPI PUSH2 0x1C5C PUSH2 0x4983 JUMP JUMPDEST JUMPDEST PUSH1 0x20 MUL ADD MLOAD PUSH2 0x2BEC JUMP JUMPDEST PUSH2 0x1C88 DUP8 PUSH1 0x6 PUSH1 0x9 DUP2 LT PUSH2 0x1C7E JUMPI PUSH2 0x1C7D PUSH2 0x4983 JUMP JUMPDEST JUMPDEST PUSH1 0x20 MUL ADD MLOAD PUSH2 0x2BEC JUMP JUMPDEST PUSH2 0x1CA9 DUP9 PUSH1 0x7 PUSH1 0x9 DUP2 LT PUSH2 0x1C9F JUMPI PUSH2 0x1C9E PUSH2 0x4983 JUMP JUMPDEST JUMPDEST PUSH1 0x20 MUL ADD MLOAD PUSH2 0x2BEC JUMP JUMPDEST PUSH2 0x1CCA DUP10 PUSH1 0x8 PUSH1 0x9 DUP2 LT PUSH2 0x1CC0 JUMPI PUSH2 0x1CBF PUSH2 0x4983 JUMP JUMPDEST JUMPDEST PUSH1 0x20 MUL ADD MLOAD PUSH2 0x2BEC JUMP JUMPDEST PUSH1 0x40 MLOAD PUSH1 0x20 ADD PUSH2 0x1CE2 SWAP10 SWAP9 SWAP8 SWAP7 SWAP6 SWAP5 SWAP4 SWAP3 SWAP2 SWAP1 PUSH2 0x5104 JUMP JUMPDEST PUSH1 0x40 MLOAD PUSH1 0x20 DUP2 DUP4 SUB SUB DUP2 MSTORE SWAP1 PUSH1 0x40 MSTORE SWAP3 POP PUSH1 0x10 DUP4 PUSH1 0x40 MLOAD PUSH2 0x1D03 SWAP2 SWAP1 PUSH2 0x5183 JUMP JUMPDEST SWAP1 DUP2 MSTORE PUSH1 0x20 ADD PUSH1 0x40 MLOAD DUP1 SWAP2 SUB SWAP1 KECCAK256 PUSH1 0x0 SWAP1 SLOAD SWAP1 PUSH2 0x100 EXP SWAP1 DIV PUSH1 0xFF AND PUSH2 0x1D28 JUMPI PUSH1 0x1 SWAP2 POP JUMPDEST POP PUSH2 0x1AD8 JUMP JUMPDEST PUSH1 0x15 DUP6 DUP2 SLOAD DUP2 LT PUSH2 0x1D42 JUMPI PUSH2 0x1D41 PUSH2 0x4983 JUMP JUMPDEST JUMPDEST SWAP1 PUSH1 0x0 MSTORE PUSH1 0x20 PUSH1 0x0 KECCAK256 ADD PUSH1 0x0 DUP2 SLOAD DUP1 SWAP3 SWAP2 SWAP1 PUSH2 0x1D5D SWAP1 PUSH2 0x519A JUMP JUMPDEST SWAP2 SWAP1 POP SSTORE POP PUSH2 0x1D6C CALLER DUP6 PUSH2 0x2C3A JUMP JUMPDEST PUSH1 0x40 MLOAD DUP1 PUSH1 0x40 ADD PUSH1 0x40 MSTORE DUP1 PUSH1 0x12 DUP2 MSTORE PUSH1 0x20 ADD PUSH32 0x3031303130313031303330313031303430340000000000000000000000000000 DUP2 MSTORE POP SWAP2 POP PUSH2 0x1DAE DUP5 DUP4 PUSH2 0x2E57 JUMP JUMPDEST DUP2 PUSH1 0xD PUSH1 0x0 DUP7 DUP2 MSTORE PUSH1 0x20 ADD SWAP1 DUP2 MSTORE PUSH1 0x20 ADD PUSH1 0x0 KECCAK256 SWAP1 DUP2 PUSH2 0x1DCE SWAP2 SWAP1 PUSH2 0x4C36 JUMP JUMPDEST POP PUSH1 0x1 PUSH1 0x10 DUP4 PUSH1 0x40 MLOAD PUSH2 0x1DE1 SWAP2 SWAP1 PUSH2 0x5183 JUMP JUMPDEST SWAP1 DUP2 MSTORE PUSH1 0x20 ADD PUSH1 0x40 MLOAD DUP1 SWAP2 SUB SWAP1 KECCAK256 PUSH1 0x0 PUSH2 0x100 EXP DUP2 SLOAD DUP2 PUSH1 0xFF MUL NOT AND SWAP1 DUP4 ISZERO ISZERO MUL OR SWAP1 SSTORE POP DUP4 CALLER PUSH20 0xFFFFFFFFFFFFFFFFFFFFFFFFFFFFFFFFFFFFFFFF AND PUSH32 0x8EE4B9F15EE011F61A4A6C5A5E7AEC5D3CE89E5190A2B7D3609D6F2A5B492F68 DUP5 PUSH1 0x40 MLOAD PUSH2 0x1E4D SWAP2 SWAP1 PUSH2 0x3F4A JUMP JUMPDEST PUSH1 0x40 MLOAD DUP1 SWAP2 SUB SWAP1 LOG3 PUSH1 0x12 SLOAD CALLVALUE GT ISZERO PUSH2 0x1EB4 JUMPI CALLER PUSH20 0xFFFFFFFFFFFFFFFFFFFFFFFFFFFFFFFFFFFFFFFF AND PUSH2 0x8FC PUSH1 0x12 SLOAD CALLVALUE PUSH2 0x1E87 SWAP2 SWAP1 PUSH2 0x51E2 JUMP JUMPDEST SWAP1 DUP2 ISZERO MUL SWAP1 PUSH1 0x40 MLOAD PUSH1 0x0 PUSH1 0x40 MLOAD DUP1 DUP4 SUB DUP2 DUP6 DUP9 DUP9 CALL SWAP4 POP POP POP POP ISZERO DUP1 ISZERO PUSH2 0x1EB2 JUMPI RETURNDATASIZE PUSH1 0x0 DUP1 RETURNDATACOPY RETURNDATASIZE PUSH1 0x0 REVERT JUMPDEST POP JUMPDEST DUP4 SWAP7 POP POP POP POP POP POP POP SWAP1 JUMP JUMPDEST PUSH1 0x0 DUP1 SHL DUP2 JUMP JUMPDEST PUSH1 0x16 DUP2 PUSH1 0x9 DUP2 LT PUSH2 0x1ED7 JUMPI PUSH1 0x0 DUP1 REVERT JUMPDEST PUSH1 0x20 SWAP2 DUP3 DUP3 DIV ADD SWAP2 SWAP1 MOD SWAP2 POP SLOAD SWAP1 PUSH2 0x100 EXP SWAP1 DIV PUSH1 0xFF AND DUP2 JUMP JUMPDEST PUSH1 0x60 PUSH2 0x1EFC DUP3 PUSH2 0x2EE7 JUMP JUMPDEST PUSH2 0x1F05 JUMPI PUSH1 0x0 DUP1 REVERT JUMPDEST PUSH1 0x0 PUSH1 0xA PUSH1 0x0 DUP5 DUP2 MSTORE PUSH1 0x20 ADD SWAP1 DUP2 MSTORE PUSH1 0x20 ADD PUSH1 0x0 KECCAK256 DUP1 SLOAD PUSH2 0x1F25 SWAP1 PUSH2 0x4952 JUMP JUMPDEST DUP1 PUSH1 0x1F ADD PUSH1 0x20 DUP1 SWAP2 DIV MUL PUSH1 0x20 ADD PUSH1 0x40 MLOAD SWAP1 DUP2 ADD PUSH1 0x40 MSTORE DUP1 SWAP3 SWAP2 SWAP1 DUP2 DUP2 MSTORE PUSH1 0x20 ADD DUP3 DUP1 SLOAD PUSH2 0x1F51 SWAP1 PUSH2 0x4952 JUMP JUMPDEST DUP1 ISZERO PUSH2 0x1F9E JUMPI DUP1 PUSH1 0x1F LT PUSH2 0x1F73 JUMPI PUSH2 0x100 DUP1 DUP4 SLOAD DIV MUL DUP4 MSTORE SWAP2 PUSH1 0x20 ADD SWAP2 PUSH2 0x1F9E JUMP JUMPDEST DUP3 ADD SWAP2 SWAP1 PUSH1 0x0 MSTORE PUSH1 0x20 PUSH1 0x0 KECCAK256 SWAP1 JUMPDEST DUP2 SLOAD DUP2 MSTORE SWAP1 PUSH1 0x1 ADD SWAP1 PUSH1 0x20 ADD DUP1 DUP4 GT PUSH2 0x1F81 JUMPI DUP3 SWAP1 SUB PUSH1 0x1F AND DUP3 ADD SWAP2 JUMPDEST POP POP POP POP POP SWAP1 POP PUSH1 0x0 PUSH2 0x1FAF PUSH2 0x2F28 JUMP JUMPDEST SWAP1 POP PUSH1 0x0 DUP2 MLOAD SUB PUSH2 0x1FC4 JUMPI DUP2 SWAP3 POP POP POP PUSH2 0x1FE6 JUMP JUMPDEST PUSH1 0x0 DUP3 MLOAD GT ISZERO PUSH2 0x1FD8 JUMPI DUP2 SWAP3 POP POP POP PUSH2 0x1FE6 JUMP JUMPDEST PUSH2 0x1FE1 DUP5 PUSH2 0x2FBA JUMP JUMPDEST SWAP3 POP POP POP JUMPDEST SWAP2 SWAP1 POP JUMP JUMPDEST PUSH2 0x1FF4 DUP3 PUSH2 0xE36 JUMP JUMPDEST PUSH2 0x1FFD DUP2 PUSH2 0x281F JUMP JUMPDEST PUSH2 0x2007 DUP4 DUP4 PUSH2 0x292C JUMP JUMPDEST POP POP POP JUMP JUMPDEST PUSH1 0x18 DUP2 PUSH1 0x9 DUP2 LT PUSH2 0x201C JUMPI PUSH1 0x0 DUP1 REVERT JUMPDEST PUSH1 0x20 SWAP2 DUP3 DUP3 DIV ADD SWAP2 SWAP1 MOD SWAP2 POP SLOAD SWAP1 PUSH2 0x100 EXP SWAP1 DIV PUSH1 0xFF AND DUP2 JUMP JUMPDEST PUSH1 0x13 PUSH1 0x20 MSTORE DUP1 PUSH1 0x0 MSTORE PUSH1 0x40 PUSH1 0x0 KECCAK256 PUSH1 0x0 SWAP2 POP SWAP1 POP DUP1 PUSH1 0x0 ADD PUSH1 0x0 SWAP1 SLOAD SWAP1 PUSH2 0x100 EXP SWAP1 DIV PUSH20 0xFFFFFFFFFFFFFFFFFFFFFFFFFFFFFFFFFFFFFFFF AND SWAP1 DUP1 PUSH1 0x1 ADD SLOAD SWAP1 POP DUP3 JUMP JUMPDEST PUSH1 0x0 PUSH1 0x13 PUSH1 0x0 DUP4 DUP2 MSTORE PUSH1 0x20 ADD SWAP1 DUP2 MSTORE PUSH1 0x20 ADD PUSH1 0x0 KECCAK256 PUSH1 0x40 MLOAD DUP1 PUSH1 0x40 ADD PUSH1 0x40 MSTORE SWAP1 DUP2 PUSH1 0x0 DUP3 ADD PUSH1 0x0 SWAP1 SLOAD SWAP1 PUSH2 0x100 EXP SWAP1 DIV PUSH20 0xFFFFFFFFFFFFFFFFFFFFFFFFFFFFFFFFFFFFFFFF AND PUSH20 0xFFFFFFFFFFFFFFFFFFFFFFFFFFFFFFFFFFFFFFFF AND PUSH20 0xFFFFFFFFFFFFFFFFFFFFFFFFFFFFFFFFFFFFFFFF AND DUP2 MSTORE PUSH1 0x20 ADD PUSH1 0x1 DUP3 ADD SLOAD DUP2 MSTORE POP POP SWAP1 POP PUSH1 0x0 DUP2 PUSH1 0x20 ADD MLOAD GT PUSH2 0x2143 JUMPI PUSH1 0x40 MLOAD PUSH32 0x8C379A000000000000000000000000000000000000000000000000000000000 DUP2 MSTORE PUSH1 0x4 ADD PUSH2 0x213A SWAP1 PUSH2 0x5262 JUMP JUMPDEST PUSH1 0x40 MLOAD DUP1 SWAP2 SUB SWAP1 REVERT JUMPDEST DUP1 PUSH1 0x20 ADD MLOAD CALLVALUE EQ PUSH2 0x2189 JUMPI PUSH1 0x40 MLOAD PUSH32 0x8C379A000000000000000000000000000000000000000000000000000000000 DUP2 MSTORE PUSH1 0x4 ADD PUSH2 0x2180 SWAP1 PUSH2 0x52CE JUMP JUMPDEST PUSH1 0x40 MLOAD DUP1 SWAP2 SUB SWAP1 REVERT JUMPDEST PUSH1 0x13 PUSH1 0x0 DUP4 DUP2 MSTORE PUSH1 0x20 ADD SWAP1 DUP2 MSTORE PUSH1 0x20 ADD PUSH1 0x0 KECCAK256 PUSH1 0x0 DUP1 DUP3 ADD PUSH1 0x0 PUSH2 0x100 EXP DUP2 SLOAD SWAP1 PUSH20 0xFFFFFFFFFFFFFFFFFFFFFFFFFFFFFFFFFFFFFFFF MUL NOT AND SWAP1 SSTORE PUSH1 0x1 DUP3 ADD PUSH1 0x0 SWAP1 SSTORE POP POP PUSH2 0x21D9 ADDRESS CALLER DUP5 PUSH2 0x2914 JUMP JUMPDEST DUP1 PUSH1 0x0 ADD MLOAD PUSH20 0xFFFFFFFFFFFFFFFFFFFFFFFFFFFFFFFFFFFFFFFF AND PUSH2 0x8FC CALLVALUE SWAP1 DUP2 ISZERO MUL SWAP1 PUSH1 0x40 MLOAD PUSH1 0x0 PUSH1 0x40 MLOAD DUP1 DUP4 SUB DUP2 DUP6 DUP9 DUP9 CALL SWAP4 POP POP POP POP ISZERO DUP1 ISZERO PUSH2 0x2223 JUMPI RETURNDATASIZE PUSH1 0x0 DUP1 RETURNDATACOPY RETURNDATASIZE PUSH1 0x0 REVERT JUMPDEST POP CALLER PUSH20 0xFFFFFFFFFFFFFFFFFFFFFFFFFFFFFFFFFFFFFFFF AND DUP3 PUSH32 0xA574C741071BB18F51FA88C17AEEFEC514BEBF670CA22A3736FBA6504ECBB763 DUP4 PUSH1 0x20 ADD MLOAD PUSH1 0x40 MLOAD PUSH2 0x226F SWAP2 SWAP1 PUSH2 0x4398 JUMP JUMPDEST PUSH1 0x40 MLOAD DUP1 SWAP2 SUB SWAP1 LOG3 POP POP JUMP JUMPDEST PUSH2 0x2283 PUSH2 0x2A0E JUMP JUMPDEST PUSH1 0x0 PUSH20 0xFFFFFFFFFFFFFFFFFFFFFFFFFFFFFFFFFFFFFFFF AND DUP2 PUSH20 0xFFFFFFFFFFFFFFFFFFFFFFFFFFFFFFFFFFFFFFFF AND SUB PUSH2 0x22BC JUMPI PUSH1 0x0 DUP1 REVERT JUMPDEST PUSH2 0x22C5 DUP2 PUSH2 0x2AC9 JUMP JUMPDEST POP JUMP JUMPDEST PUSH1 0x60 PUSH1 0xD PUSH1 0x0 DUP4 DUP2 MSTORE PUSH1 0x20 ADD SWAP1 DUP2 MSTORE PUSH1 0x20 ADD PUSH1 0x0 KECCAK256 DUP1 SLOAD PUSH2 0x22E8 SWAP1 PUSH2 0x4952 JUMP JUMPDEST DUP1 PUSH1 0x1F ADD PUSH1 0x20 DUP1 SWAP2 DIV MUL PUSH1 0x20 ADD PUSH1 0x40 MLOAD SWAP1 DUP2 ADD PUSH1 0x40 MSTORE DUP1 SWAP3 SWAP2 SWAP1 DUP2 DUP2 MSTORE PUSH1 0x20 ADD DUP3 DUP1 SLOAD PUSH2 0x2314 SWAP1 PUSH2 0x4952 JUMP JUMPDEST DUP1 ISZERO PUSH2 0x2361 JUMPI DUP1 PUSH1 0x1F LT PUSH2 0x2336 JUMPI PUSH2 0x100 DUP1 DUP4 SLOAD DIV MUL DUP4 MSTORE SWAP2 PUSH1 0x20 ADD SWAP2 PUSH2 0x2361 JUMP JUMPDEST DUP3 ADD SWAP2 SWAP1 PUSH1 0x0 MSTORE PUSH1 0x20 PUSH1 0x0 KECCAK256 SWAP1 JUMPDEST DUP2 SLOAD DUP2 MSTORE SWAP1 PUSH1 0x1 ADD SWAP1 PUSH1 0x20 ADD DUP1 DUP4 GT PUSH2 0x2344 JUMPI DUP3 SWAP1 SUB PUSH1 0x1F AND DUP3 ADD SWAP2 JUMPDEST POP POP POP POP POP SWAP1 POP SWAP2 SWAP1 POP JUMP JUMPDEST PUSH2 0x2397 PUSH32 0xA49807205CE4D355092EF5A8A18F56E8913CF4A201FBE287825B095693C21775 CALLER PUSH2 0x15F7 JUMP JUMPDEST PUSH2 0x23D6 JUMPI PUSH1 0x40 MLOAD PUSH32 0x8C379A000000000000000000000000000000000000000000000000000000000 DUP2 MSTORE PUSH1 0x4 ADD PUSH2 0x23CD SWAP1 PUSH2 0x49FE JUMP JUMPDEST PUSH1 0x40 MLOAD DUP1 SWAP2 SUB SWAP1 REVERT JUMPDEST DUP1 PUSH1 0x12 DUP2 SWAP1 SSTORE POP POP JUMP JUMPDEST PUSH2 0x240A PUSH32 0xA49807205CE4D355092EF5A8A18F56E8913CF4A201FBE287825B095693C21775 CALLER PUSH2 0x15F7 JUMP JUMPDEST PUSH2 0x2449 JUMPI PUSH1 0x40 MLOAD PUSH32 0x8C379A000000000000000000000000000000000000000000000000000000000 DUP2 MSTORE PUSH1 0x4 ADD PUSH2 0x2440 SWAP1 PUSH2 0x49FE JUMP JUMPDEST PUSH1 0x40 MLOAD DUP1 SWAP2 SUB SWAP1 REVERT JUMPDEST PUSH1 0x14 DUP1 SLOAD SWAP1 POP DUP3 LT PUSH2 0x245A JUMPI PUSH1 0x0 DUP1 REVERT JUMPDEST PUSH1 0x15 DUP3 DUP2 SLOAD DUP2 LT PUSH2 0x246E JUMPI PUSH2 0x246D PUSH2 0x4983 JUMP JUMPDEST JUMPDEST SWAP1 PUSH1 0x0 MSTORE PUSH1 0x20 PUSH1 0x0 KECCAK256 ADD SLOAD DUP2 LT ISZERO PUSH2 0x2485 JUMPI PUSH1 0x0 DUP1 REVERT JUMPDEST DUP1 PUSH1 0x14 DUP4 DUP2 SLOAD DUP2 LT PUSH2 0x249A JUMPI PUSH2 0x2499 PUSH2 0x4983 JUMP JUMPDEST JUMPDEST SWAP1 PUSH1 0x0 MSTORE PUSH1 0x20 PUSH1 0x0 KECCAK256 ADD DUP2 SWAP1 SSTORE POP POP POP JUMP JUMPDEST PUSH1 0x0 PUSH32 0x7965DB0B00000000000000000000000000000000000000000000000000000000 PUSH28 0xFFFFFFFFFFFFFFFFFFFFFFFFFFFFFFFFFFFFFFFFFFFFFFFFFFFFFFFF NOT AND DUP3 PUSH28 0xFFFFFFFFFFFFFFFFFFFFFFFFFFFFFFFFFFFFFFFFFFFFFFFFFFFFFFFF NOT AND EQ DUP1 PUSH2 0x251F JUMPI POP PUSH2 0x251E DUP3 PUSH2 0x3022 JUMP JUMPDEST JUMPDEST SWAP1 POP SWAP2 SWAP1 POP JUMP JUMPDEST DUP3 PUSH20 0xFFFFFFFFFFFFFFFFFFFFFFFFFFFFFFFFFFFFFFFF AND PUSH2 0x2546 DUP3 PUSH2 0x1226 JUMP JUMPDEST PUSH20 0xFFFFFFFFFFFFFFFFFFFFFFFFFFFFFFFFFFFFFFFF AND EQ PUSH2 0x259C JUMPI PUSH1 0x40 MLOAD PUSH32 0x8C379A000000000000000000000000000000000000000000000000000000000 DUP2 MSTORE PUSH1 0x4 ADD PUSH2 0x2593 SWAP1 PUSH2 0x5360 JUMP JUMPDEST PUSH1 0x40 MLOAD DUP1 SWAP2 SUB SWAP1 REVERT JUMPDEST PUSH1 0x0 PUSH20 0xFFFFFFFFFFFFFFFFFFFFFFFFFFFFFFFFFFFFFFFF AND DUP3 PUSH20 0xFFFFFFFFFFFFFFFFFFFFFFFFFFFFFFFFFFFFFFFF AND SUB PUSH2 0x260B JUMPI PUSH1 0x40 MLOAD PUSH32 0x8C379A000000000000000000000000000000000000000000000000000000000 DUP2 MSTORE PUSH1 0x4 ADD PUSH2 0x2602 SWAP1 PUSH2 0x53F2 JUMP JUMPDEST PUSH1 0x40 MLOAD DUP1 SWAP2 SUB SWAP1 REVERT JUMPDEST PUSH2 0x2618 DUP4 DUP4 DUP4 PUSH1 0x1 PUSH2 0x3104 JUMP JUMPDEST DUP3 PUSH20 0xFFFFFFFFFFFFFFFFFFFFFFFFFFFFFFFFFFFFFFFF AND PUSH2 0x2638 DUP3 PUSH2 0x1226 JUMP JUMPDEST PUSH20 0xFFFFFFFFFFFFFFFFFFFFFFFFFFFFFFFFFFFFFFFF AND EQ PUSH2 0x268E JUMPI PUSH1 0x40 MLOAD PUSH32 0x8C379A000000000000000000000000000000000000000000000000000000000 DUP2 MSTORE PUSH1 0x4 ADD PUSH2 0x2685 SWAP1 PUSH2 0x5360 JUMP JUMPDEST PUSH1 0x40 MLOAD DUP1 SWAP2 SUB SWAP1 REVERT JUMPDEST PUSH1 0x5 PUSH1 0x0 DUP3 DUP2 MSTORE PUSH1 0x20 ADD SWAP1 DUP2 MSTORE PUSH1 0x20 ADD PUSH1 0x0 KECCAK256 PUSH1 0x0 PUSH2 0x100 EXP DUP2 SLOAD SWAP1 PUSH20 0xFFFFFFFFFFFFFFFFFFFFFFFFFFFFFFFFFFFFFFFF MUL NOT AND SWAP1 SSTORE PUSH1 0x1 PUSH1 0x4 PUSH1 0x0 DUP6 PUSH20 0xFFFFFFFFFFFFFFFFFFFFFFFFFFFFFFFFFFFFFFFF AND PUSH20 0xFFFFFFFFFFFFFFFFFFFFFFFFFFFFFFFFFFFFFFFF AND DUP2 MSTORE PUSH1 0x20 ADD SWAP1 DUP2 MSTORE PUSH1 0x20 ADD PUSH1 0x0 KECCAK256 PUSH1 0x0 DUP3 DUP3 SLOAD SUB SWAP3 POP POP DUP2 SWAP1 SSTORE POP PUSH1 0x1 PUSH1 0x4 PUSH1 0x0 DUP5 PUSH20 0xFFFFFFFFFFFFFFFFFFFFFFFFFFFFFFFFFFFFFFFF AND PUSH20 0xFFFFFFFFFFFFFFFFFFFFFFFFFFFFFFFFFFFFFFFF AND DUP2 MSTORE PUSH1 0x20 ADD SWAP1 DUP2 MSTORE PUSH1 0x20 ADD PUSH1 0x0 KECCAK256 PUSH1 0x0 DUP3 DUP3 SLOAD ADD SWAP3 POP POP DUP2 SWAP1 SSTORE POP DUP2 PUSH1 0x3 PUSH1 0x0 DUP4 DUP2 MSTORE PUSH1 0x20 ADD SWAP1 DUP2 MSTORE PUSH1 0x20 ADD PUSH1 0x0 KECCAK256 PUSH1 0x0 PUSH2 0x100 EXP DUP2 SLOAD DUP2 PUSH20 0xFFFFFFFFFFFFFFFFFFFFFFFFFFFFFFFFFFFFFFFF MUL NOT AND SWAP1 DUP4 PUSH20 0xFFFFFFFFFFFFFFFFFFFFFFFFFFFFFFFFFFFFFFFF AND MUL OR SWAP1 SSTORE POP DUP1 DUP3 PUSH20 0xFFFFFFFFFFFFFFFFFFFFFFFFFFFFFFFFFFFFFFFF AND DUP5 PUSH20 0xFFFFFFFFFFFFFFFFFFFFFFFFFFFFFFFFFFFFFFFF AND PUSH32 0xDDF252AD1BE2C89B69C2B068FC378DAA952BA7F163C4A11628F55A4DF523B3EF PUSH1 0x40 MLOAD PUSH1 0x40 MLOAD DUP1 SWAP2 SUB SWAP1 LOG4 PUSH2 0x281A DUP4 DUP4 DUP4 PUSH1 0x1 PUSH2 0x3262 JUMP JUMPDEST POP POP POP JUMP JUMPDEST PUSH2 0x2830 DUP2 PUSH2 0x282B PUSH2 0x2924 JUMP JUMPDEST PUSH2 0x3268 JUMP JUMPDEST POP JUMP JUMPDEST PUSH2 0x283D DUP3 DUP3 PUSH2 0x15F7 JUMP JUMPDEST PUSH2 0x2910 JUMPI PUSH1 0x1 PUSH1 0x6 PUSH1 0x0 DUP5 DUP2 MSTORE PUSH1 0x20 ADD SWAP1 DUP2 MSTORE PUSH1 0x20 ADD PUSH1 0x0 KECCAK256 PUSH1 0x0 ADD PUSH1 0x0 DUP4 PUSH20 0xFFFFFFFFFFFFFFFFFFFFFFFFFFFFFFFFFFFFFFFF AND PUSH20 0xFFFFFFFFFFFFFFFFFFFFFFFFFFFFFFFFFFFFFFFF AND DUP2 MSTORE PUSH1 0x20 ADD SWAP1 DUP2 MSTORE PUSH1 0x20 ADD PUSH1 0x0 KECCAK256 PUSH1 0x0 PUSH2 0x100 EXP DUP2 SLOAD DUP2 PUSH1 0xFF MUL NOT AND SWAP1 DUP4 ISZERO ISZERO MUL OR SWAP1 SSTORE POP PUSH2 0x28B5 PUSH2 0x2924 JUMP JUMPDEST PUSH20 0xFFFFFFFFFFFFFFFFFFFFFFFFFFFFFFFFFFFFFFFF AND DUP2 PUSH20 0xFFFFFFFFFFFFFFFFFFFFFFFFFFFFFFFFFFFFFFFF AND DUP4 PUSH32 0x2F8788117E7EFF1D82E926EC794901D17C78024A50270940304540A733656F0D PUSH1 0x40 MLOAD PUSH1 0x40 MLOAD DUP1 SWAP2 SUB SWAP1 LOG4 JUMPDEST POP POP JUMP JUMPDEST PUSH2 0x291F DUP4 DUP4 DUP4 PUSH2 0x2526 JUMP JUMPDEST POP POP POP JUMP JUMPDEST PUSH1 0x0 CALLER SWAP1 POP SWAP1 JUMP JUMPDEST PUSH2 0x2936 DUP3 DUP3 PUSH2 0x15F7 JUMP JUMPDEST ISZERO PUSH2 0x2A0A JUMPI PUSH1 0x0 PUSH1 0x6 PUSH1 0x0 DUP5 DUP2 MSTORE PUSH1 0x20 ADD SWAP1 DUP2 MSTORE PUSH1 0x20 ADD PUSH1 0x0 KECCAK256 PUSH1 0x0 ADD PUSH1 0x0 DUP4 PUSH20 0xFFFFFFFFFFFFFFFFFFFFFFFFFFFFFFFFFFFFFFFF AND PUSH20 0xFFFFFFFFFFFFFFFFFFFFFFFFFFFFFFFFFFFFFFFF AND DUP2 MSTORE PUSH1 0x20 ADD SWAP1 DUP2 MSTORE PUSH1 0x20 ADD PUSH1 0x0 KECCAK256 PUSH1 0x0 PUSH2 0x100 EXP DUP2 SLOAD DUP2 PUSH1 0xFF MUL NOT AND SWAP1 DUP4 ISZERO ISZERO MUL OR SWAP1 SSTORE POP PUSH2 0x29AF PUSH2 0x2924 JUMP JUMPDEST PUSH20 0xFFFFFFFFFFFFFFFFFFFFFFFFFFFFFFFFFFFFFFFF AND DUP2 PUSH20 0xFFFFFFFFFFFFFFFFFFFFFFFFFFFFFFFFFFFFFFFF AND DUP4 PUSH32 0xF6391F5C32D9C69D2A47EA670B442974B53935D1EDC7FD64EB21E047A839171B PUSH1 0x40 MLOAD PUSH1 0x40 MLOAD DUP1 SWAP2 SUB SWAP1 LOG4 JUMPDEST POP POP JUMP JUMPDEST PUSH2 0x2A16 PUSH2 0x2924 JUMP JUMPDEST PUSH20 0xFFFFFFFFFFFFFFFFFFFFFFFFFFFFFFFFFFFFFFFF AND PUSH2 0x2A34 PUSH2 0x15CE JUMP JUMPDEST PUSH20 0xFFFFFFFFFFFFFFFFFFFFFFFFFFFFFFFFFFFFFFFF AND EQ PUSH2 0x2A8A JUMPI PUSH1 0x40 MLOAD PUSH32 0x8C379A000000000000000000000000000000000000000000000000000000000 DUP2 MSTORE PUSH1 0x4 ADD PUSH2 0x2A81 SWAP1 PUSH2 0x545E JUMP JUMPDEST PUSH1 0x40 MLOAD DUP1 SWAP2 SUB SWAP1 REVERT JUMPDEST JUMP JUMPDEST PUSH1 0x0 PUSH1 0x3 PUSH1 0x0 DUP4 DUP2 MSTORE PUSH1 0x20 ADD SWAP1 DUP2 MSTORE PUSH1 0x20 ADD PUSH1 0x0 KECCAK256 PUSH1 0x0 SWAP1 SLOAD SWAP1 PUSH2 0x100 EXP SWAP1 DIV PUSH20 0xFFFFFFFFFFFFFFFFFFFFFFFFFFFFFFFFFFFFFFFF AND SWAP1 POP SWAP2 SWAP1 POP JUMP JUMPDEST PUSH1 0x0 DUP1 PUSH1 0x0 SWAP1 SLOAD SWAP1 PUSH2 0x100 EXP SWAP1 DIV PUSH20 0xFFFFFFFFFFFFFFFFFFFFFFFFFFFFFFFFFFFFFFFF AND SWAP1 POP DUP2 PUSH1 0x0 DUP1 PUSH2 0x100 EXP DUP2 SLOAD DUP2 PUSH20 0xFFFFFFFFFFFFFFFFFFFFFFFFFFFFFFFFFFFFFFFF MUL NOT AND SWAP1 DUP4 PUSH20 0xFFFFFFFFFFFFFFFFFFFFFFFFFFFFFFFFFFFFFFFF AND MUL OR SWAP1 SSTORE POP DUP2 PUSH20 0xFFFFFFFFFFFFFFFFFFFFFFFFFFFFFFFFFFFFFFFF AND DUP2 PUSH20 0xFFFFFFFFFFFFFFFFFFFFFFFFFFFFFFFFFFFFFFFF AND PUSH32 0x8BE0079C531659141344CD1FD0A4F28419497F9722A3DAAFE3B4186F6B6457E0 PUSH1 0x40 MLOAD PUSH1 0x40 MLOAD DUP1 SWAP2 SUB SWAP1 LOG3 POP POP JUMP JUMPDEST PUSH1 0x0 TIMESTAMP PREVRANDAO NUMBER CALLER GAS SELFBALANCE PUSH1 0x40 MLOAD PUSH1 0x20 ADD PUSH2 0x2BAA SWAP7 SWAP6 SWAP5 SWAP4 SWAP3 SWAP2 SWAP1 PUSH2 0x54E7 JUMP JUMPDEST PUSH1 0x40 MLOAD PUSH1 0x20 DUP2 DUP4 SUB SUB DUP2 MSTORE SWAP1 PUSH1 0x40 MSTORE DUP1 MLOAD SWAP1 PUSH1 0x20 ADD KECCAK256 PUSH1 0x0 SHR SWAP1 POP SWAP1 JUMP JUMPDEST PUSH1 0x0 DUP2 PUSH1 0x0 ADD SLOAD SWAP1 POP SWAP2 SWAP1 POP JUMP JUMPDEST PUSH1 0x1 DUP2 PUSH1 0x0 ADD PUSH1 0x0 DUP3 DUP3 SLOAD ADD SWAP3 POP POP DUP2 SWAP1 SSTORE POP POP JUMP JUMPDEST PUSH1 0x60 PUSH1 0xA DUP3 PUSH1 0xFF AND LT ISZERO PUSH2 0x2C29 JUMPI PUSH2 0x2C03 DUP3 PUSH2 0x32ED JUMP JUMPDEST PUSH1 0x40 MLOAD PUSH1 0x20 ADD PUSH2 0x2C13 SWAP2 SWAP1 PUSH2 0x55A3 JUMP JUMPDEST PUSH1 0x40 MLOAD PUSH1 0x20 DUP2 DUP4 SUB SUB DUP2 MSTORE SWAP1 PUSH1 0x40 MSTORE SWAP1 POP PUSH2 0x2C35 JUMP JUMPDEST PUSH2 0x2C32 DUP3 PUSH2 0x32ED JUMP JUMPDEST SWAP1 POP JUMPDEST SWAP2 SWAP1 POP JUMP JUMPDEST PUSH1 0x0 PUSH20 0xFFFFFFFFFFFFFFFFFFFFFFFFFFFFFFFFFFFFFFFF AND DUP3 PUSH20 0xFFFFFFFFFFFFFFFFFFFFFFFFFFFFFFFFFFFFFFFF AND SUB PUSH2 0x2CA9 JUMPI PUSH1 0x40 MLOAD PUSH32 0x8C379A000000000000000000000000000000000000000000000000000000000 DUP2 MSTORE PUSH1 0x4 ADD PUSH2 0x2CA0 SWAP1 PUSH2 0x5611 JUMP JUMPDEST PUSH1 0x40 MLOAD DUP1 SWAP2 SUB SWAP1 REVERT JUMPDEST PUSH2 0x2CB2 DUP2 PUSH2 0x2EE7 JUMP JUMPDEST ISZERO PUSH2 0x2CF2 JUMPI PUSH1 0x40 MLOAD PUSH32 0x8C379A000000000000000000000000000000000000000000000000000000000 DUP2 MSTORE PUSH1 0x4 ADD PUSH2 0x2CE9 SWAP1 PUSH2 0x567D JUMP JUMPDEST PUSH1 0x40 MLOAD DUP1 SWAP2 SUB SWAP1 REVERT JUMPDEST PUSH2 0x2D00 PUSH1 0x0 DUP4 DUP4 PUSH1 0x1 PUSH2 0x3104 JUMP JUMPDEST PUSH2 0x2D09 DUP2 PUSH2 0x2EE7 JUMP JUMPDEST ISZERO PUSH2 0x2D49 JUMPI PUSH1 0x40 MLOAD PUSH32 0x8C379A000000000000000000000000000000000000000000000000000000000 DUP2 MSTORE PUSH1 0x4 ADD PUSH2 0x2D40 SWAP1 PUSH2 0x567D JUMP JUMPDEST PUSH1 0x40 MLOAD DUP1 SWAP2 SUB SWAP1 REVERT JUMPDEST PUSH1 0x1 PUSH1 0x4 PUSH1 0x0 DUP5 PUSH20 0xFFFFFFFFFFFFFFFFFFFFFFFFFFFFFFFFFFFFFFFF AND PUSH20 0xFFFFFFFFFFFFFFFFFFFFFFFFFFFFFFFFFFFFFFFF AND DUP2 MSTORE PUSH1 0x20 ADD SWAP1 DUP2 MSTORE PUSH1 0x20 ADD PUSH1 0x0 KECCAK256 PUSH1 0x0 DUP3 DUP3 SLOAD ADD SWAP3 POP POP DUP2 SWAP1 SSTORE POP DUP2 PUSH1 0x3 PUSH1 0x0 DUP4 DUP2 MSTORE PUSH1 0x20 ADD SWAP1 DUP2 MSTORE PUSH1 0x20 ADD PUSH1 0x0 KECCAK256 PUSH1 0x0 PUSH2 0x100 EXP DUP2 SLOAD DUP2 PUSH20 0xFFFFFFFFFFFFFFFFFFFFFFFFFFFFFFFFFFFFFFFF MUL NOT AND SWAP1 DUP4 PUSH20 0xFFFFFFFFFFFFFFFFFFFFFFFFFFFFFFFFFFFFFFFF AND MUL OR SWAP1 SSTORE POP DUP1 DUP3 PUSH20 0xFFFFFFFFFFFFFFFFFFFFFFFFFFFFFFFFFFFFFFFF AND PUSH1 0x0 PUSH20 0xFFFFFFFFFFFFFFFFFFFFFFFFFFFFFFFFFFFFFFFF AND PUSH32 0xDDF252AD1BE2C89B69C2B068FC378DAA952BA7F163C4A11628F55A4DF523B3EF PUSH1 0x40 MLOAD PUSH1 0x40 MLOAD DUP1 SWAP2 SUB SWAP1 LOG4 PUSH2 0x2E53 PUSH1 0x0 DUP4 DUP4 PUSH1 0x1 PUSH2 0x3262 JUMP JUMPDEST POP POP JUMP JUMPDEST PUSH2 0x2E60 DUP3 PUSH2 0x2EE7 JUMP JUMPDEST PUSH2 0x2E69 JUMPI PUSH1 0x0 DUP1 REVERT JUMPDEST PUSH1 0x11 DUP2 PUSH1 0x40 MLOAD PUSH1 0x20 ADD PUSH2 0x2E7D SWAP3 SWAP2 SWAP1 PUSH2 0x576C JUMP JUMPDEST PUSH1 0x40 MLOAD PUSH1 0x20 DUP2 DUP4 SUB SUB DUP2 MSTORE SWAP1 PUSH1 0x40 MSTORE PUSH1 0xA PUSH1 0x0 DUP5 DUP2 MSTORE PUSH1 0x20 ADD SWAP1 DUP2 MSTORE PUSH1 0x20 ADD PUSH1 0x0 KECCAK256 SWAP1 DUP2 PUSH2 0x2EAB SWAP2 SWAP1 PUSH2 0x4C36 JUMP JUMPDEST POP PUSH32 0xF8E1A15ABA9398E019F0B49DF1A4FDE98EE17AE345CB5F6B5E2C27F5033E8CE7 DUP3 PUSH1 0x40 MLOAD PUSH2 0x2EDB SWAP2 SWAP1 PUSH2 0x4398 JUMP JUMPDEST PUSH1 0x40 MLOAD DUP1 SWAP2 SUB SWAP1 LOG1 POP POP JUMP JUMPDEST PUSH1 0x0 DUP1 PUSH20 0xFFFFFFFFFFFFFFFFFFFFFFFFFFFFFFFFFFFFFFFF AND PUSH2 0x2F09 DUP4 PUSH2 0x2A8C JUMP JUMPDEST PUSH20 0xFFFFFFFFFFFFFFFFFFFFFFFFFFFFFFFFFFFFFFFF AND EQ ISZERO SWAP1 POP SWAP2 SWAP1 POP JUMP JUMPDEST PUSH1 0x60 PUSH1 0x11 DUP1 SLOAD PUSH2 0x2F37 SWAP1 PUSH2 0x4952 JUMP JUMPDEST DUP1 PUSH1 0x1F ADD PUSH1 0x20 DUP1 SWAP2 DIV MUL PUSH1 0x20 ADD PUSH1 0x40 MLOAD SWAP1 DUP2 ADD PUSH1 0x40 MSTORE DUP1 SWAP3 SWAP2 SWAP1 DUP2 DUP2 MSTORE PUSH1 0x20 ADD DUP3 DUP1 SLOAD PUSH2 0x2F63 SWAP1 PUSH2 0x4952 JUMP JUMPDEST DUP1 ISZERO PUSH2 0x2FB0 JUMPI DUP1 PUSH1 0x1F LT PUSH2 0x2F85 JUMPI PUSH2 0x100 DUP1 DUP4 SLOAD DIV MUL DUP4 MSTORE SWAP2 PUSH1 0x20 ADD SWAP2 PUSH2 0x2FB0 JUMP JUMPDEST DUP3 ADD SWAP2 SWAP1 PUSH1 0x0 MSTORE PUSH1 0x20 PUSH1 0x0 KECCAK256 SWAP1 JUMPDEST DUP2 SLOAD DUP2 MSTORE SWAP1 PUSH1 0x1 ADD SWAP1 PUSH1 0x20 ADD DUP1 DUP4 GT PUSH2 0x2F93 JUMPI DUP3 SWAP1 SUB PUSH1 0x1F AND DUP3 ADD SWAP2 JUMPDEST POP POP POP POP POP SWAP1 POP SWAP1 JUMP JUMPDEST PUSH1 0x60 PUSH2 0x2FC5 DUP3 PUSH2 0x345F JUMP JUMPDEST PUSH1 0x0 PUSH2 0x2FCF PUSH2 0x2F28 JUMP JUMPDEST SWAP1 POP PUSH1 0x0 DUP2 MLOAD GT PUSH2 0x2FEF JUMPI PUSH1 0x40 MLOAD DUP1 PUSH1 0x20 ADD PUSH1 0x40 MSTORE DUP1 PUSH1 0x0 DUP2 MSTORE POP PUSH2 0x301A JUMP JUMPDEST DUP1 PUSH2 0x2FF9 DUP5 PUSH2 0x34AA JUMP JUMPDEST PUSH1 0x40 MLOAD PUSH1 0x20 ADD PUSH2 0x300A SWAP3 SWAP2 SWAP1 PUSH2 0x579B JUMP JUMPDEST PUSH1 0x40 MLOAD PUSH1 0x20 DUP2 DUP4 SUB SUB DUP2 MSTORE SWAP1 PUSH1 0x40 MSTORE JUMPDEST SWAP2 POP POP SWAP2 SWAP1 POP JUMP JUMPDEST PUSH1 0x0 PUSH32 0x304AD1F200000000000000000000000000000000000000000000000000000000 PUSH28 0xFFFFFFFFFFFFFFFFFFFFFFFFFFFFFFFFFFFFFFFFFFFFFFFFFFFFFFFF NOT AND DUP3 PUSH28 0xFFFFFFFFFFFFFFFFFFFFFFFFFFFFFFFFFFFFFFFFFFFFFFFFFFFFFFFF NOT AND EQ DUP1 PUSH2 0x30ED JUMPI POP PUSH32 0x5B5E139F00000000000000000000000000000000000000000000000000000000 PUSH28 0xFFFFFFFFFFFFFFFFFFFFFFFFFFFFFFFFFFFFFFFFFFFFFFFFFFFFFFFF NOT AND DUP3 PUSH28 0xFFFFFFFFFFFFFFFFFFFFFFFFFFFFFFFFFFFFFFFFFFFFFFFFFFFFFFFF NOT AND EQ JUMPDEST DUP1 PUSH2 0x30FD JUMPI POP PUSH2 0x30FC DUP3 PUSH2 0x3578 JUMP JUMPDEST JUMPDEST SWAP1 POP SWAP2 SWAP1 POP JUMP JUMPDEST PUSH2 0x3110 DUP5 DUP5 DUP5 DUP5 PUSH2 0x35E2 JUMP JUMPDEST PUSH1 0x1 DUP2 GT ISZERO PUSH2 0x3154 JUMPI PUSH1 0x40 MLOAD PUSH32 0x8C379A000000000000000000000000000000000000000000000000000000000 DUP2 MSTORE PUSH1 0x4 ADD PUSH2 0x314B SWAP1 PUSH2 0x5831 JUMP JUMPDEST PUSH1 0x40 MLOAD DUP1 SWAP2 SUB SWAP1 REVERT JUMPDEST PUSH1 0x0 DUP3 SWAP1 POP PUSH1 0x0 PUSH20 0xFFFFFFFFFFFFFFFFFFFFFFFFFFFFFFFFFFFFFFFF AND DUP6 PUSH20 0xFFFFFFFFFFFFFFFFFFFFFFFFFFFFFFFFFFFFFFFF AND SUB PUSH2 0x319B JUMPI PUSH2 0x3196 DUP2 PUSH2 0x35E8 JUMP JUMPDEST PUSH2 0x31DA JUMP JUMPDEST DUP4 PUSH20 0xFFFFFFFFFFFFFFFFFFFFFFFFFFFFFFFFFFFFFFFF AND DUP6 PUSH20 0xFFFFFFFFFFFFFFFFFFFFFFFFFFFFFFFFFFFFFFFF AND EQ PUSH2 0x31D9 JUMPI PUSH2 0x31D8 DUP6 DUP3 PUSH2 0x3631 JUMP JUMPDEST JUMPDEST JUMPDEST PUSH1 0x0 PUSH20 0xFFFFFFFFFFFFFFFFFFFFFFFFFFFFFFFFFFFFFFFF AND DUP5 PUSH20 0xFFFFFFFFFFFFFFFFFFFFFFFFFFFFFFFFFFFFFFFF AND SUB PUSH2 0x321C JUMPI PUSH2 0x3217 DUP2 PUSH2 0x379E JUMP JUMPDEST PUSH2 0x325B JUMP JUMPDEST DUP5 PUSH20 0xFFFFFFFFFFFFFFFFFFFFFFFFFFFFFFFFFFFFFFFF AND DUP5 PUSH20 0xFFFFFFFFFFFFFFFFFFFFFFFFFFFFFFFFFFFFFFFF AND EQ PUSH2 0x325A JUMPI PUSH2 0x3259 DUP5 DUP3 PUSH2 0x386F JUMP JUMPDEST JUMPDEST JUMPDEST POP POP POP POP POP JUMP JUMPDEST POP POP POP POP JUMP JUMPDEST PUSH2 0x3272 DUP3 DUP3 PUSH2 0x15F7 JUMP JUMPDEST PUSH2 0x32E9 JUMPI PUSH2 0x327F DUP2 PUSH2 0x38EE JUMP JUMPDEST PUSH2 0x328D DUP4 PUSH1 0x0 SHR PUSH1 0x20 PUSH2 0x391B JUMP JUMPDEST PUSH1 0x40 MLOAD PUSH1 0x20 ADD PUSH2 0x329E SWAP3 SWAP2 SWAP1 PUSH2 0x58E9 JUMP JUMPDEST PUSH1 0x40 MLOAD PUSH1 0x20 DUP2 DUP4 SUB SUB DUP2 MSTORE SWAP1 PUSH1 0x40 MSTORE PUSH1 0x40 MLOAD PUSH32 0x8C379A000000000000000000000000000000000000000000000000000000000 DUP2 MSTORE PUSH1 0x4 ADD PUSH2 0x32E0 SWAP2 SWAP1 PUSH2 0x3F4A JUMP JUMPDEST PUSH1 0x40 MLOAD DUP1 SWAP2 SUB SWAP1 REVERT JUMPDEST POP POP JUMP JUMPDEST PUSH1 0x60 PUSH1 0x0 DUP3 PUSH1 0xFF AND SUB PUSH2 0x3337 JUMPI PUSH1 0x40 MLOAD DUP1 PUSH1 0x40 ADD PUSH1 0x40 MSTORE DUP1 PUSH1 0x1 DUP2 MSTORE PUSH1 0x20 ADD PUSH32 0x3000000000000000000000000000000000000000000000000000000000000000 DUP2 MSTORE POP SWAP1 POP PUSH2 0x345A JUMP JUMPDEST PUSH1 0x0 DUP3 SWAP1 POP PUSH1 0x0 JUMPDEST PUSH1 0x0 DUP3 PUSH1 0xFF AND EQ PUSH2 0x336C JUMPI DUP1 DUP1 PUSH2 0x3355 SWAP1 PUSH2 0x509F JUMP JUMPDEST SWAP2 POP POP PUSH1 0xA DUP3 PUSH2 0x3365 SWAP2 SWAP1 PUSH2 0x5923 JUMP JUMPDEST SWAP2 POP PUSH2 0x333F JUMP JUMPDEST PUSH1 0x0 DUP2 PUSH1 0xFF AND PUSH8 0xFFFFFFFFFFFFFFFF DUP2 GT ISZERO PUSH2 0x338B JUMPI PUSH2 0x338A PUSH2 0x400A JUMP JUMPDEST JUMPDEST PUSH1 0x40 MLOAD SWAP1 DUP1 DUP3 MSTORE DUP1 PUSH1 0x1F ADD PUSH1 0x1F NOT AND PUSH1 0x20 ADD DUP3 ADD PUSH1 0x40 MSTORE DUP1 ISZERO PUSH2 0x33BD JUMPI DUP2 PUSH1 0x20 ADD PUSH1 0x1 DUP3 MUL DUP1 CALLDATASIZE DUP4 CALLDATACOPY DUP1 DUP3 ADD SWAP2 POP POP SWAP1 POP JUMPDEST POP SWAP1 POP PUSH1 0x0 DUP3 SWAP1 POP JUMPDEST PUSH1 0x0 DUP7 PUSH1 0xFF AND EQ PUSH2 0x3452 JUMPI PUSH1 0xA DUP7 PUSH2 0x33DE SWAP2 SWAP1 PUSH2 0x5954 JUMP JUMPDEST PUSH1 0x30 PUSH2 0x33EA SWAP2 SWAP1 PUSH2 0x5985 JUMP JUMPDEST PUSH1 0xF8 SHL DUP3 DUP3 PUSH2 0x33F8 SWAP1 PUSH2 0x59BA JUMP JUMPDEST SWAP3 POP DUP3 PUSH1 0xFF AND DUP2 MLOAD DUP2 LT PUSH2 0x340F JUMPI PUSH2 0x340E PUSH2 0x4983 JUMP JUMPDEST JUMPDEST PUSH1 0x20 ADD ADD SWAP1 PUSH31 0xFFFFFFFFFFFFFFFFFFFFFFFFFFFFFFFFFFFFFFFFFFFFFFFFFFFFFFFFFFFFFF NOT AND SWAP1 DUP2 PUSH1 0x0 BYTE SWAP1 MSTORE8 POP PUSH1 0xA DUP7 PUSH2 0x344B SWAP2 SWAP1 PUSH2 0x5923 JUMP JUMPDEST SWAP6 POP PUSH2 0x33C6 JUMP JUMPDEST DUP2 SWAP5 POP POP POP POP POP JUMPDEST SWAP2 SWAP1 POP JUMP JUMPDEST PUSH2 0x3468 DUP2 PUSH2 0x2EE7 JUMP JUMPDEST PUSH2 0x34A7 JUMPI PUSH1 0x40 MLOAD PUSH32 0x8C379A000000000000000000000000000000000000000000000000000000000 DUP2 MSTORE PUSH1 0x4 ADD PUSH2 0x349E SWAP1 PUSH2 0x4E52 JUMP JUMPDEST PUSH1 0x40 MLOAD DUP1 SWAP2 SUB SWAP1 REVERT JUMPDEST POP JUMP JUMPDEST PUSH1 0x60 PUSH1 0x0 PUSH1 0x1 PUSH2 0x34B9 DUP5 PUSH2 0x3B57 JUMP JUMPDEST ADD SWAP1 POP PUSH1 0x0 DUP2 PUSH8 0xFFFFFFFFFFFFFFFF DUP2 GT ISZERO PUSH2 0x34D8 JUMPI PUSH2 0x34D7 PUSH2 0x400A JUMP JUMPDEST JUMPDEST PUSH1 0x40 MLOAD SWAP1 DUP1 DUP3 MSTORE DUP1 PUSH1 0x1F ADD PUSH1 0x1F NOT AND PUSH1 0x20 ADD DUP3 ADD PUSH1 0x40 MSTORE DUP1 ISZERO PUSH2 0x350A JUMPI DUP2 PUSH1 0x20 ADD PUSH1 0x1 DUP3 MUL DUP1 CALLDATASIZE DUP4 CALLDATACOPY DUP1 DUP3 ADD SWAP2 POP POP SWAP1 POP JUMPDEST POP SWAP1 POP PUSH1 0x0 DUP3 PUSH1 0x20 ADD DUP3 ADD SWAP1 POP JUMPDEST PUSH1 0x1 ISZERO PUSH2 0x356D JUMPI DUP1 DUP1 PUSH1 0x1 SWAP1 SUB SWAP2 POP POP PUSH32 0x3031323334353637383961626364656600000000000000000000000000000000 PUSH1 0xA DUP7 MOD BYTE DUP2 MSTORE8 PUSH1 0xA DUP6 DUP2 PUSH2 0x3561 JUMPI PUSH2 0x3560 PUSH2 0x4F70 JUMP JUMPDEST JUMPDEST DIV SWAP5 POP PUSH1 0x0 DUP6 SUB PUSH2 0x3518 JUMPI JUMPDEST DUP2 SWAP4 POP POP POP POP SWAP2 SWAP1 POP JUMP JUMPDEST PUSH1 0x0 PUSH32 0x1FFC9A700000000000000000000000000000000000000000000000000000000 PUSH28 0xFFFFFFFFFFFFFFFFFFFFFFFFFFFFFFFFFFFFFFFFFFFFFFFFFFFFFFFF NOT AND DUP3 PUSH28 0xFFFFFFFFFFFFFFFFFFFFFFFFFFFFFFFFFFFFFFFFFFFFFFFFFFFFFFFF NOT AND EQ SWAP1 POP SWAP2 SWAP1 POP JUMP JUMPDEST POP POP POP POP JUMP JUMPDEST PUSH1 0xE DUP1 SLOAD SWAP1 POP PUSH1 0xF PUSH1 0x0 DUP4 DUP2 MSTORE PUSH1 0x20 ADD SWAP1 DUP2 MSTORE PUSH1 0x20 ADD PUSH1 0x0 KECCAK256 DUP2 SWAP1 SSTORE POP PUSH1 0xE DUP2 SWAP1 DUP1 PUSH1 0x1 DUP2 SLOAD ADD DUP1 DUP3 SSTORE DUP1 SWAP2 POP POP PUSH1 0x1 SWAP1 SUB SWAP1 PUSH1 0x0 MSTORE PUSH1 0x20 PUSH1 0x0 KECCAK256 ADD PUSH1 0x0 SWAP1 SWAP2 SWAP1 SWAP2 SWAP1 SWAP2 POP SSTORE POP JUMP JUMPDEST PUSH1 0x0 PUSH1 0x1 PUSH2 0x363E DUP5 PUSH2 0x12B2 JUMP JUMPDEST PUSH2 0x3648 SWAP2 SWAP1 PUSH2 0x51E2 JUMP JUMPDEST SWAP1 POP PUSH1 0x0 PUSH1 0xC PUSH1 0x0 DUP5 DUP2 MSTORE PUSH1 0x20 ADD SWAP1 DUP2 MSTORE PUSH1 0x20 ADD PUSH1 0x0 KECCAK256 SLOAD SWAP1 POP DUP2 DUP2 EQ PUSH2 0x372D JUMPI PUSH1 0x0 PUSH1 0xB PUSH1 0x0 DUP7 PUSH20 0xFFFFFFFFFFFFFFFFFFFFFFFFFFFFFFFFFFFFFFFF AND PUSH20 0xFFFFFFFFFFFFFFFFFFFFFFFFFFFFFFFFFFFFFFFF AND DUP2 MSTORE PUSH1 0x20 ADD SWAP1 DUP2 MSTORE PUSH1 0x20 ADD PUSH1 0x0 KECCAK256 PUSH1 0x0 DUP5 DUP2 MSTORE PUSH1 0x20 ADD SWAP1 DUP2 MSTORE PUSH1 0x20 ADD PUSH1 0x0 KECCAK256 SLOAD SWAP1 POP DUP1 PUSH1 0xB PUSH1 0x0 DUP8 PUSH20 0xFFFFFFFFFFFFFFFFFFFFFFFFFFFFFFFFFFFFFFFF AND PUSH20 0xFFFFFFFFFFFFFFFFFFFFFFFFFFFFFFFFFFFFFFFF AND DUP2 MSTORE PUSH1 0x20 ADD SWAP1 DUP2 MSTORE PUSH1 0x20 ADD PUSH1 0x0 KECCAK256 PUSH1 0x0 DUP5 DUP2 MSTORE PUSH1 0x20 ADD SWAP1 DUP2 MSTORE PUSH1 0x20 ADD PUSH1 0x0 KECCAK256 DUP2 SWAP1 SSTORE POP DUP2 PUSH1 0xC PUSH1 0x0 DUP4 DUP2 MSTORE PUSH1 0x20 ADD SWAP1 DUP2 MSTORE PUSH1 0x20 ADD PUSH1 0x0 KECCAK256 DUP2 SWAP1 SSTORE POP POP JUMPDEST PUSH1 0xC PUSH1 0x0 DUP5 DUP2 MSTORE PUSH1 0x20 ADD SWAP1 DUP2 MSTORE PUSH1 0x20 ADD PUSH1 0x0 KECCAK256 PUSH1 0x0 SWAP1 SSTORE PUSH1 0xB PUSH1 0x0 DUP6 PUSH20 0xFFFFFFFFFFFFFFFFFFFFFFFFFFFFFFFFFFFFFFFF AND PUSH20 0xFFFFFFFFFFFFFFFFFFFFFFFFFFFFFFFFFFFFFFFF AND DUP2 MSTORE PUSH1 0x20 ADD SWAP1 DUP2 MSTORE PUSH1 0x20 ADD PUSH1 0x0 KECCAK256 PUSH1 0x0 DUP4 DUP2 MSTORE PUSH1 0x20 ADD SWAP1 DUP2 MSTORE PUSH1 0x20 ADD PUSH1 0x0 KECCAK256 PUSH1 0x0 SWAP1 SSTORE POP POP POP POP JUMP JUMPDEST PUSH1 0x0 PUSH1 0x1 PUSH1 0xE DUP1 SLOAD SWAP1 POP PUSH2 0x37B2 SWAP2 SWAP1 PUSH2 0x51E2 JUMP JUMPDEST SWAP1 POP PUSH1 0x0 PUSH1 0xF PUSH1 0x0 DUP5 DUP2 MSTORE PUSH1 0x20 ADD SWAP1 DUP2 MSTORE PUSH1 0x20 ADD PUSH1 0x0 KECCAK256 SLOAD SWAP1 POP PUSH1 0x0 PUSH1 0xE DUP4 DUP2 SLOAD DUP2 LT PUSH2 0x37E2 JUMPI PUSH2 0x37E1 PUSH2 0x4983 JUMP JUMPDEST JUMPDEST SWAP1 PUSH1 0x0 MSTORE PUSH1 0x20 PUSH1 0x0 KECCAK256 ADD SLOAD SWAP1 POP DUP1 PUSH1 0xE DUP4 DUP2 SLOAD DUP2 LT PUSH2 0x3804 JUMPI PUSH2 0x3803 PUSH2 0x4983 JUMP JUMPDEST JUMPDEST SWAP1 PUSH1 0x0 MSTORE PUSH1 0x20 PUSH1 0x0 KECCAK256 ADD DUP2 SWAP1 SSTORE POP DUP2 PUSH1 0xF PUSH1 0x0 DUP4 DUP2 MSTORE PUSH1 0x20 ADD SWAP1 DUP2 MSTORE PUSH1 0x20 ADD PUSH1 0x0 KECCAK256 DUP2 SWAP1 SSTORE POP PUSH1 0xF PUSH1 0x0 DUP6 DUP2 MSTORE PUSH1 0x20 ADD SWAP1 DUP2 MSTORE PUSH1 0x20 ADD PUSH1 0x0 KECCAK256 PUSH1 0x0 SWAP1 SSTORE PUSH1 0xE DUP1 SLOAD DUP1 PUSH2 0x3853 JUMPI PUSH2 0x3852 PUSH2 0x59E3 JUMP JUMPDEST JUMPDEST PUSH1 0x1 SWAP1 SUB DUP2 DUP2 SWAP1 PUSH1 0x0 MSTORE PUSH1 0x20 PUSH1 0x0 KECCAK256 ADD PUSH1 0x0 SWAP1 SSTORE SWAP1 SSTORE POP POP POP POP JUMP JUMPDEST PUSH1 0x0 PUSH2 0x387A DUP4 PUSH2 0x12B2 JUMP JUMPDEST SWAP1 POP DUP2 PUSH1 0xB PUSH1 0x0 DUP6 PUSH20 0xFFFFFFFFFFFFFFFFFFFFFFFFFFFFFFFFFFFFFFFF AND PUSH20 0xFFFFFFFFFFFFFFFFFFFFFFFFFFFFFFFFFFFFFFFF AND DUP2 MSTORE PUSH1 0x20 ADD SWAP1 DUP2 MSTORE PUSH1 0x20 ADD PUSH1 0x0 KECCAK256 PUSH1 0x0 DUP4 DUP2 MSTORE PUSH1 0x20 ADD SWAP1 DUP2 MSTORE PUSH1 0x20 ADD PUSH1 0x0 KECCAK256 DUP2 SWAP1 SSTORE POP DUP1 PUSH1 0xC PUSH1 0x0 DUP5 DUP2 MSTORE PUSH1 0x20 ADD SWAP1 DUP2 MSTORE PUSH1 0x20 ADD PUSH1 0x0 KECCAK256 DUP2 SWAP1 SSTORE POP POP POP POP JUMP JUMPDEST PUSH1 0x60 PUSH2 0x3914 DUP3 PUSH20 0xFFFFFFFFFFFFFFFFFFFFFFFFFFFFFFFFFFFFFFFF AND PUSH1 0x14 PUSH1 0xFF AND PUSH2 0x391B JUMP JUMPDEST SWAP1 POP SWAP2 SWAP1 POP JUMP JUMPDEST PUSH1 0x60 PUSH1 0x0 PUSH1 0x2 DUP4 PUSH1 0x2 PUSH2 0x392E SWAP2 SWAP1 PUSH2 0x5A12 JUMP JUMPDEST PUSH2 0x3938 SWAP2 SWAP1 PUSH2 0x4FFF JUMP JUMPDEST PUSH8 0xFFFFFFFFFFFFFFFF DUP2 GT ISZERO PUSH2 0x3951 JUMPI PUSH2 0x3950 PUSH2 0x400A JUMP JUMPDEST JUMPDEST PUSH1 0x40 MLOAD SWAP1 DUP1 DUP3 MSTORE DUP1 PUSH1 0x1F ADD PUSH1 0x1F NOT AND PUSH1 0x20 ADD DUP3 ADD PUSH1 0x40 MSTORE DUP1 ISZERO PUSH2 0x3983 JUMPI DUP2 PUSH1 0x20 ADD PUSH1 0x1 DUP3 MUL DUP1 CALLDATASIZE DUP4 CALLDATACOPY DUP1 DUP3 ADD SWAP2 POP POP SWAP1 POP JUMPDEST POP SWAP1 POP PUSH32 0x3000000000000000000000000000000000000000000000000000000000000000 DUP2 PUSH1 0x0 DUP2 MLOAD DUP2 LT PUSH2 0x39BB JUMPI PUSH2 0x39BA PUSH2 0x4983 JUMP JUMPDEST JUMPDEST PUSH1 0x20 ADD ADD SWAP1 PUSH31 0xFFFFFFFFFFFFFFFFFFFFFFFFFFFFFFFFFFFFFFFFFFFFFFFFFFFFFFFFFFFFFF NOT AND SWAP1 DUP2 PUSH1 0x0 BYTE SWAP1 MSTORE8 POP PUSH32 0x7800000000000000000000000000000000000000000000000000000000000000 DUP2 PUSH1 0x1 DUP2 MLOAD DUP2 LT PUSH2 0x3A1F JUMPI PUSH2 0x3A1E PUSH2 0x4983 JUMP JUMPDEST JUMPDEST PUSH1 0x20 ADD ADD SWAP1 PUSH31 0xFFFFFFFFFFFFFFFFFFFFFFFFFFFFFFFFFFFFFFFFFFFFFFFFFFFFFFFFFFFFFF NOT AND SWAP1 DUP2 PUSH1 0x0 BYTE SWAP1 MSTORE8 POP PUSH1 0x0 PUSH1 0x1 DUP5 PUSH1 0x2 PUSH2 0x3A5F SWAP2 SWAP1 PUSH2 0x5A12 JUMP JUMPDEST PUSH2 0x3A69 SWAP2 SWAP1 PUSH2 0x4FFF JUMP JUMPDEST SWAP1 POP JUMPDEST PUSH1 0x1 DUP2 GT ISZERO PUSH2 0x3B09 JUMPI PUSH32 0x3031323334353637383961626364656600000000000000000000000000000000 PUSH1 0xF DUP7 AND PUSH1 0x10 DUP2 LT PUSH2 0x3AAB JUMPI PUSH2 0x3AAA PUSH2 0x4983 JUMP JUMPDEST JUMPDEST BYTE PUSH1 0xF8 SHL DUP3 DUP3 DUP2 MLOAD DUP2 LT PUSH2 0x3AC2 JUMPI PUSH2 0x3AC1 PUSH2 0x4983 JUMP JUMPDEST JUMPDEST PUSH1 0x20 ADD ADD SWAP1 PUSH31 0xFFFFFFFFFFFFFFFFFFFFFFFFFFFFFFFFFFFFFFFFFFFFFFFFFFFFFFFFFFFFFF NOT AND SWAP1 DUP2 PUSH1 0x0 BYTE SWAP1 MSTORE8 POP PUSH1 0x4 DUP6 SWAP1 SHR SWAP5 POP DUP1 PUSH2 0x3B02 SWAP1 PUSH2 0x5A54 JUMP JUMPDEST SWAP1 POP PUSH2 0x3A6C JUMP JUMPDEST POP PUSH1 0x0 DUP5 EQ PUSH2 0x3B4D JUMPI PUSH1 0x40 MLOAD PUSH32 0x8C379A000000000000000000000000000000000000000000000000000000000 DUP2 MSTORE PUSH1 0x4 ADD PUSH2 0x3B44 SWAP1 PUSH2 0x5AC9 JUMP JUMPDEST PUSH1 0x40 MLOAD DUP1 SWAP2 SUB SWAP1 REVERT JUMPDEST DUP1 SWAP2 POP POP SWAP3 SWAP2 POP POP JUMP JUMPDEST PUSH1 0x0 DUP1 PUSH1 0x0 SWAP1 POP PUSH27 0x184F03E93FF9F4DAA797ED6E38ED64BF6A1F010000000000000000 DUP4 LT PUSH2 0x3BB5 JUMPI PUSH27 0x184F03E93FF9F4DAA797ED6E38ED64BF6A1F010000000000000000 DUP4 DUP2 PUSH2 0x3BAB JUMPI PUSH2 0x3BAA PUSH2 0x4F70 JUMP JUMPDEST JUMPDEST DIV SWAP3 POP PUSH1 0x40 DUP2 ADD SWAP1 POP JUMPDEST PUSH14 0x4EE2D6D415B85ACEF8100000000 DUP4 LT PUSH2 0x3BF2 JUMPI PUSH14 0x4EE2D6D415B85ACEF8100000000 DUP4 DUP2 PUSH2 0x3BE8 JUMPI PUSH2 0x3BE7 PUSH2 0x4F70 JUMP JUMPDEST JUMPDEST DIV SWAP3 POP PUSH1 0x20 DUP2 ADD SWAP1 POP JUMPDEST PUSH7 0x2386F26FC10000 DUP4 LT PUSH2 0x3C21 JUMPI PUSH7 0x2386F26FC10000 DUP4 DUP2 PUSH2 0x3C17 JUMPI PUSH2 0x3C16 PUSH2 0x4F70 JUMP JUMPDEST JUMPDEST DIV SWAP3 POP PUSH1 0x10 DUP2 ADD SWAP1 POP JUMPDEST PUSH4 0x5F5E100 DUP4 LT PUSH2 0x3C4A JUMPI PUSH4 0x5F5E100 DUP4 DUP2 PUSH2 0x3C40 JUMPI PUSH2 0x3C3F PUSH2 0x4F70 JUMP JUMPDEST JUMPDEST DIV SWAP3 POP PUSH1 0x8 DUP2 ADD SWAP1 POP JUMPDEST PUSH2 0x2710 DUP4 LT PUSH2 0x3C6F JUMPI PUSH2 0x2710 DUP4 DUP2 PUSH2 0x3C65 JUMPI PUSH2 0x3C64 PUSH2 0x4F70 JUMP JUMPDEST JUMPDEST DIV SWAP3 POP PUSH1 0x4 DUP2 ADD SWAP1 POP JUMPDEST PUSH1 0x64 DUP4 LT PUSH2 0x3C92 JUMPI PUSH1 0x64 DUP4 DUP2 PUSH2 0x3C88 JUMPI PUSH2 0x3C87 PUSH2 0x4F70 JUMP JUMPDEST JUMPDEST DIV SWAP3 POP PUSH1 0x2 DUP2 ADD SWAP1 POP JUMPDEST PUSH1 0xA DUP4 LT PUSH2 0x3CA1 JUMPI PUSH1 0x1 DUP2 ADD SWAP1 POP JUMPDEST DUP1 SWAP2 POP POP SWAP2 SWAP1 POP JUMP JUMPDEST PUSH1 0x40 MLOAD DUP1 PUSH1 0x40 ADD PUSH1 0x40 MSTORE DUP1 PUSH1 0x0 DUP2 MSTORE PUSH1 0x20 ADD PUSH1 0x60 DUP2 MSTORE POP SWAP1 JUMP JUMPDEST DUP3 PUSH1 0x9 PUSH1 0x1F ADD PUSH1 0x20 SWAP1 DIV DUP2 ADD SWAP3 DUP3 ISZERO PUSH2 0x3D4D JUMPI SWAP2 PUSH1 0x20 MUL DUP3 ADD PUSH1 0x0 JUMPDEST DUP4 DUP3 GT ISZERO PUSH2 0x3D1E JUMPI DUP4 MLOAD DUP4 DUP3 PUSH2 0x100 EXP DUP2 SLOAD DUP2 PUSH1 0xFF MUL NOT AND SWAP1 DUP4 PUSH1 0xFF AND MUL OR SWAP1 SSTORE POP SWAP3 PUSH1 0x20 ADD SWAP3 PUSH1 0x1 ADD PUSH1 0x20 DUP2 PUSH1 0x0 ADD DIV SWAP3 DUP4 ADD SWAP3 PUSH1 0x1 SUB MUL PUSH2 0x3CE0 JUMP JUMPDEST DUP1 ISZERO PUSH2 0x3D4B JUMPI DUP3 DUP2 PUSH2 0x100 EXP DUP2 SLOAD SWAP1 PUSH1 0xFF MUL NOT AND SWAP1 SSTORE PUSH1 0x1 ADD PUSH1 0x20 DUP2 PUSH1 0x0 ADD DIV SWAP3 DUP4 ADD SWAP3 PUSH1 0x1 SUB MUL PUSH2 0x3D1E JUMP JUMPDEST POP JUMPDEST POP SWAP1 POP PUSH2 0x3D5A SWAP2 SWAP1 PUSH2 0x3DCE JUMP JUMPDEST POP SWAP1 JUMP JUMPDEST DUP3 DUP1 SLOAD DUP3 DUP3 SSTORE SWAP1 PUSH1 0x0 MSTORE PUSH1 0x20 PUSH1 0x0 KECCAK256 SWAP1 DUP2 ADD SWAP3 DUP3 ISZERO PUSH2 0x3D9A JUMPI SWAP2 PUSH1 0x20 MUL DUP3 ADD JUMPDEST DUP3 DUP2 GT ISZERO PUSH2 0x3D99 JUMPI DUP3 MLOAD DUP3 SSTORE SWAP2 PUSH1 0x20 ADD SWAP2 SWAP1 PUSH1 0x1 ADD SWAP1 PUSH2 0x3D7E JUMP JUMPDEST JUMPDEST POP SWAP1 POP PUSH2 0x3DA7 SWAP2 SWAP1 PUSH2 0x3DCE JUMP JUMPDEST POP SWAP1 JUMP JUMPDEST PUSH1 0x40 MLOAD DUP1 PUSH2 0x120 ADD PUSH1 0x40 MSTORE DUP1 PUSH1 0x9 SWAP1 PUSH1 0x20 DUP3 MUL DUP1 CALLDATASIZE DUP4 CALLDATACOPY DUP1 DUP3 ADD SWAP2 POP POP SWAP1 POP POP SWAP1 JUMP JUMPDEST JUMPDEST DUP1 DUP3 GT ISZERO PUSH2 0x3DE7 JUMPI PUSH1 0x0 DUP2 PUSH1 0x0 SWAP1 SSTORE POP PUSH1 0x1 ADD PUSH2 0x3DCF JUMP JUMPDEST POP SWAP1 JUMP JUMPDEST PUSH1 0x0 PUSH1 0x40 MLOAD SWAP1 POP SWAP1 JUMP JUMPDEST PUSH1 0x0 DUP1 REVERT JUMPDEST PUSH1 0x0 DUP1 REVERT JUMPDEST PUSH1 0x0 PUSH32 0xFFFFFFFF00000000000000000000000000000000000000000000000000000000 DUP3 AND SWAP1 POP SWAP2 SWAP1 POP JUMP JUMPDEST PUSH2 0x3E34 DUP2 PUSH2 0x3DFF JUMP JUMPDEST DUP2 EQ PUSH2 0x3E3F JUMPI PUSH1 0x0 DUP1 REVERT JUMPDEST POP JUMP JUMPDEST PUSH1 0x0 DUP2 CALLDATALOAD SWAP1 POP PUSH2 0x3E51 DUP2 PUSH2 0x3E2B JUMP JUMPDEST SWAP3 SWAP2 POP POP JUMP JUMPDEST PUSH1 0x0 PUSH1 0x20 DUP3 DUP5 SUB SLT ISZERO PUSH2 0x3E6D JUMPI PUSH2 0x3E6C PUSH2 0x3DF5 JUMP JUMPDEST JUMPDEST PUSH1 0x0 PUSH2 0x3E7B DUP5 DUP3 DUP6 ADD PUSH2 0x3E42 JUMP JUMPDEST SWAP2 POP POP SWAP3 SWAP2 POP POP JUMP JUMPDEST PUSH1 0x0 DUP2 ISZERO ISZERO SWAP1 POP SWAP2 SWAP1 POP JUMP JUMPDEST PUSH2 0x3E99 DUP2 PUSH2 0x3E84 JUMP JUMPDEST DUP3 MSTORE POP POP JUMP JUMPDEST PUSH1 0x0 PUSH1 0x20 DUP3 ADD SWAP1 POP PUSH2 0x3EB4 PUSH1 0x0 DUP4 ADD DUP5 PUSH2 0x3E90 JUMP JUMPDEST SWAP3 SWAP2 POP POP JUMP JUMPDEST PUSH1 0x0 DUP2 MLOAD SWAP1 POP SWAP2 SWAP1 POP JUMP JUMPDEST PUSH1 0x0 DUP3 DUP3 MSTORE PUSH1 0x20 DUP3 ADD SWAP1 POP SWAP3 SWAP2 POP POP JUMP JUMPDEST PUSH1 0x0 JUMPDEST DUP4 DUP2 LT ISZERO PUSH2 0x3EF4 JUMPI DUP1 DUP3 ADD MLOAD DUP2 DUP5 ADD MSTORE PUSH1 0x20 DUP2 ADD SWAP1 POP PUSH2 0x3ED9 JUMP JUMPDEST PUSH1 0x0 DUP5 DUP5 ADD MSTORE POP POP POP POP JUMP JUMPDEST PUSH1 0x0 PUSH1 0x1F NOT PUSH1 0x1F DUP4 ADD AND SWAP1 POP SWAP2 SWAP1 POP JUMP JUMPDEST PUSH1 0x0 PUSH2 0x3F1C DUP3 PUSH2 0x3EBA JUMP JUMPDEST PUSH2 0x3F26 DUP2 DUP6 PUSH2 0x3EC5 JUMP JUMPDEST SWAP4 POP PUSH2 0x3F36 DUP2 DUP6 PUSH1 0x20 DUP7 ADD PUSH2 0x3ED6 JUMP JUMPDEST PUSH2 0x3F3F DUP2 PUSH2 0x3F00 JUMP JUMPDEST DUP5 ADD SWAP2 POP POP SWAP3 SWAP2 POP POP JUMP JUMPDEST PUSH1 0x0 PUSH1 0x20 DUP3 ADD SWAP1 POP DUP2 DUP2 SUB PUSH1 0x0 DUP4 ADD MSTORE PUSH2 0x3F64 DUP2 DUP5 PUSH2 0x3F11 JUMP JUMPDEST SWAP1 POP SWAP3 SWAP2 POP POP JUMP JUMPDEST PUSH1 0x0 PUSH20 0xFFFFFFFFFFFFFFFFFFFFFFFFFFFFFFFFFFFFFFFF DUP3 AND SWAP1 POP SWAP2 SWAP1 POP JUMP JUMPDEST PUSH1 0x0 PUSH2 0x3F97 DUP3 PUSH2 0x3F6C JUMP JUMPDEST SWAP1 POP SWAP2 SWAP1 POP JUMP JUMPDEST PUSH2 0x3FA7 DUP2 PUSH2 0x3F8C JUMP JUMPDEST DUP2 EQ PUSH2 0x3FB2 JUMPI PUSH1 0x0 DUP1 REVERT JUMPDEST POP JUMP JUMPDEST PUSH1 0x0 DUP2 CALLDATALOAD SWAP1 POP PUSH2 0x3FC4 DUP2 PUSH2 0x3F9E JUMP JUMPDEST SWAP3 SWAP2 POP POP JUMP JUMPDEST PUSH1 0x0 DUP2 SWAP1 POP SWAP2 SWAP1 POP JUMP JUMPDEST PUSH2 0x3FDD DUP2 PUSH2 0x3FCA JUMP JUMPDEST DUP2 EQ PUSH2 0x3FE8 JUMPI PUSH1 0x0 DUP1 REVERT JUMPDEST POP JUMP JUMPDEST PUSH1 0x0 DUP2 CALLDATALOAD SWAP1 POP PUSH2 0x3FFA DUP2 PUSH2 0x3FD4 JUMP JUMPDEST SWAP3 SWAP2 POP POP JUMP JUMPDEST PUSH1 0x0 DUP1 REVERT JUMPDEST PUSH1 0x0 DUP1 REVERT JUMPDEST PUSH32 0x4E487B7100000000000000000000000000000000000000000000000000000000 PUSH1 0x0 MSTORE PUSH1 0x41 PUSH1 0x4 MSTORE PUSH1 0x24 PUSH1 0x0 REVERT JUMPDEST PUSH2 0x4042 DUP3 PUSH2 0x3F00 JUMP JUMPDEST DUP2 ADD DUP2 DUP2 LT PUSH8 0xFFFFFFFFFFFFFFFF DUP3 GT OR ISZERO PUSH2 0x4061 JUMPI PUSH2 0x4060 PUSH2 0x400A JUMP JUMPDEST JUMPDEST DUP1 PUSH1 0x40 MSTORE POP POP POP JUMP JUMPDEST PUSH1 0x0 PUSH2 0x4074 PUSH2 0x3DEB JUMP JUMPDEST SWAP1 POP PUSH2 0x4080 DUP3 DUP3 PUSH2 0x4039 JUMP JUMPDEST SWAP2 SWAP1 POP JUMP JUMPDEST PUSH1 0x0 PUSH8 0xFFFFFFFFFFFFFFFF DUP3 GT ISZERO PUSH2 0x40A0 JUMPI PUSH2 0x409F PUSH2 0x400A JUMP JUMPDEST JUMPDEST PUSH2 0x40A9 DUP3 PUSH2 0x3F00 JUMP JUMPDEST SWAP1 POP PUSH1 0x20 DUP2 ADD SWAP1 POP SWAP2 SWAP1 POP JUMP JUMPDEST DUP3 DUP2 DUP4 CALLDATACOPY PUSH1 0x0 DUP4 DUP4 ADD MSTORE POP POP POP JUMP JUMPDEST PUSH1 0x0 PUSH2 0x40D8 PUSH2 0x40D3 DUP5 PUSH2 0x4085 JUMP JUMPDEST PUSH2 0x406A JUMP JUMPDEST SWAP1 POP DUP3 DUP2 MSTORE PUSH1 0x20 DUP2 ADD DUP5 DUP5 DUP5 ADD GT ISZERO PUSH2 0x40F4 JUMPI PUSH2 0x40F3 PUSH2 0x4005 JUMP JUMPDEST JUMPDEST PUSH2 0x40FF DUP5 DUP3 DUP6 PUSH2 0x40B6 JUMP JUMPDEST POP SWAP4 SWAP3 POP POP POP JUMP JUMPDEST PUSH1 0x0 DUP3 PUSH1 0x1F DUP4 ADD SLT PUSH2 0x411C JUMPI PUSH2 0x411B PUSH2 0x4000 JUMP JUMPDEST JUMPDEST DUP2 CALLDATALOAD PUSH2 0x412C DUP5 DUP3 PUSH1 0x20 DUP7 ADD PUSH2 0x40C5 JUMP JUMPDEST SWAP2 POP POP SWAP3 SWAP2 POP POP JUMP JUMPDEST PUSH1 0x0 DUP1 PUSH1 0x0 DUP1 PUSH1 0x80 DUP6 DUP8 SUB SLT ISZERO PUSH2 0x414F JUMPI PUSH2 0x414E PUSH2 0x3DF5 JUMP JUMPDEST JUMPDEST PUSH1 0x0 PUSH2 0x415D DUP8 DUP3 DUP9 ADD PUSH2 0x3FB5 JUMP JUMPDEST SWAP5 POP POP PUSH1 0x20 PUSH2 0x416E DUP8 DUP3 DUP9 ADD PUSH2 0x3FB5 JUMP JUMPDEST SWAP4 POP POP PUSH1 0x40 PUSH2 0x417F DUP8 DUP3 DUP9 ADD PUSH2 0x3FEB JUMP JUMPDEST SWAP3 POP POP PUSH1 0x60 DUP6 ADD CALLDATALOAD PUSH8 0xFFFFFFFFFFFFFFFF DUP2 GT ISZERO PUSH2 0x41A0 JUMPI PUSH2 0x419F PUSH2 0x3DFA JUMP JUMPDEST JUMPDEST PUSH2 0x41AC DUP8 DUP3 DUP9 ADD PUSH2 0x4107 JUMP JUMPDEST SWAP2 POP POP SWAP3 SWAP6 SWAP2 SWAP5 POP SWAP3 POP JUMP JUMPDEST PUSH2 0x41C1 DUP2 PUSH2 0x3DFF JUMP JUMPDEST DUP3 MSTORE POP POP JUMP JUMPDEST PUSH1 0x0 PUSH1 0x20 DUP3 ADD SWAP1 POP PUSH2 0x41DC PUSH1 0x0 DUP4 ADD DUP5 PUSH2 0x41B8 JUMP JUMPDEST SWAP3 SWAP2 POP POP JUMP JUMPDEST PUSH1 0x0 PUSH1 0x20 DUP3 DUP5 SUB SLT ISZERO PUSH2 0x41F8 JUMPI PUSH2 0x41F7 PUSH2 0x3DF5 JUMP JUMPDEST JUMPDEST PUSH1 0x0 PUSH2 0x4206 DUP5 DUP3 DUP6 ADD PUSH2 0x3FB5 JUMP JUMPDEST SWAP2 POP POP SWAP3 SWAP2 POP POP JUMP JUMPDEST PUSH1 0x0 DUP2 MLOAD SWAP1 POP SWAP2 SWAP1 POP JUMP JUMPDEST PUSH1 0x0 DUP3 DUP3 MSTORE PUSH1 0x20 DUP3 ADD SWAP1 POP SWAP3 SWAP2 POP POP JUMP JUMPDEST PUSH1 0x0 DUP2 SWAP1 POP PUSH1 0x20 DUP3 ADD SWAP1 POP SWAP2 SWAP1 POP JUMP JUMPDEST PUSH2 0x4244 DUP2 PUSH2 0x3FCA JUMP JUMPDEST DUP3 MSTORE POP POP JUMP JUMPDEST PUSH1 0x0 DUP3 DUP3 MSTORE PUSH1 0x20 DUP3 ADD SWAP1 POP SWAP3 SWAP2 POP POP JUMP JUMPDEST PUSH1 0x0 PUSH2 0x4266 DUP3 PUSH2 0x3EBA JUMP JUMPDEST PUSH2 0x4270 DUP2 DUP6 PUSH2 0x424A JUMP JUMPDEST SWAP4 POP PUSH2 0x4280 DUP2 DUP6 PUSH1 0x20 DUP7 ADD PUSH2 0x3ED6 JUMP JUMPDEST PUSH2 0x4289 DUP2 PUSH2 0x3F00 JUMP JUMPDEST DUP5 ADD SWAP2 POP POP SWAP3 SWAP2 POP POP JUMP JUMPDEST PUSH1 0x0 PUSH1 0x40 DUP4 ADD PUSH1 0x0 DUP4 ADD MLOAD PUSH2 0x42AC PUSH1 0x0 DUP7 ADD DUP3 PUSH2 0x423B JUMP JUMPDEST POP PUSH1 0x20 DUP4 ADD MLOAD DUP5 DUP3 SUB PUSH1 0x20 DUP7 ADD MSTORE PUSH2 0x42C4 DUP3 DUP3 PUSH2 0x425B JUMP JUMPDEST SWAP2 POP POP DUP1 SWAP2 POP POP SWAP3 SWAP2 POP POP JUMP JUMPDEST PUSH1 0x0 PUSH2 0x42DD DUP4 DUP4 PUSH2 0x4294 JUMP JUMPDEST SWAP1 POP SWAP3 SWAP2 POP POP JUMP JUMPDEST PUSH1 0x0 PUSH1 0x20 DUP3 ADD SWAP1 POP SWAP2 SWAP1 POP JUMP JUMPDEST PUSH1 0x0 PUSH2 0x42FD DUP3 PUSH2 0x420F JUMP JUMPDEST PUSH2 0x4307 DUP2 DUP6 PUSH2 0x421A JUMP JUMPDEST SWAP4 POP DUP4 PUSH1 0x20 DUP3 MUL DUP6 ADD PUSH2 0x4319 DUP6 PUSH2 0x422B JUMP JUMPDEST DUP1 PUSH1 0x0 JUMPDEST DUP6 DUP2 LT ISZERO PUSH2 0x4355 JUMPI DUP5 DUP5 SUB DUP10 MSTORE DUP2 MLOAD PUSH2 0x4336 DUP6 DUP3 PUSH2 0x42D1 JUMP JUMPDEST SWAP5 POP PUSH2 0x4341 DUP4 PUSH2 0x42E5 JUMP JUMPDEST SWAP3 POP PUSH1 0x20 DUP11 ADD SWAP10 POP POP PUSH1 0x1 DUP2 ADD SWAP1 POP PUSH2 0x431D JUMP JUMPDEST POP DUP3 SWAP8 POP DUP8 SWAP6 POP POP POP POP POP POP SWAP3 SWAP2 POP POP JUMP JUMPDEST PUSH1 0x0 PUSH1 0x20 DUP3 ADD SWAP1 POP DUP2 DUP2 SUB PUSH1 0x0 DUP4 ADD MSTORE PUSH2 0x4381 DUP2 DUP5 PUSH2 0x42F2 JUMP JUMPDEST SWAP1 POP SWAP3 SWAP2 POP POP JUMP JUMPDEST PUSH2 0x4392 DUP2 PUSH2 0x3FCA JUMP JUMPDEST DUP3 MSTORE POP POP JUMP JUMPDEST PUSH1 0x0 PUSH1 0x20 DUP3 ADD SWAP1 POP PUSH2 0x43AD PUSH1 0x0 DUP4 ADD DUP5 PUSH2 0x4389 JUMP JUMPDEST SWAP3 SWAP2 POP POP JUMP JUMPDEST PUSH1 0x0 DUP1 PUSH1 0x0 PUSH1 0x60 DUP5 DUP7 SUB SLT ISZERO PUSH2 0x43CC JUMPI PUSH2 0x43CB PUSH2 0x3DF5 JUMP JUMPDEST JUMPDEST PUSH1 0x0 PUSH2 0x43DA DUP7 DUP3 DUP8 ADD PUSH2 0x3FB5 JUMP JUMPDEST SWAP4 POP POP PUSH1 0x20 PUSH2 0x43EB DUP7 DUP3 DUP8 ADD PUSH2 0x3FB5 JUMP JUMPDEST SWAP3 POP POP PUSH1 0x40 PUSH2 0x43FC DUP7 DUP3 DUP8 ADD PUSH2 0x3FEB JUMP JUMPDEST SWAP2 POP POP SWAP3 POP SWAP3 POP SWAP3 JUMP JUMPDEST PUSH1 0x0 PUSH1 0x20 DUP3 DUP5 SUB SLT ISZERO PUSH2 0x441C JUMPI PUSH2 0x441B PUSH2 0x3DF5 JUMP JUMPDEST JUMPDEST PUSH1 0x0 PUSH2 0x442A DUP5 DUP3 DUP6 ADD PUSH2 0x3FEB JUMP JUMPDEST SWAP2 POP POP SWAP3 SWAP2 POP POP JUMP JUMPDEST PUSH1 0x0 DUP2 SWAP1 POP SWAP2 SWAP1 POP JUMP JUMPDEST PUSH2 0x4446 DUP2 PUSH2 0x4433 JUMP JUMPDEST DUP2 EQ PUSH2 0x4451 JUMPI PUSH1 0x0 DUP1 REVERT JUMPDEST POP JUMP JUMPDEST PUSH1 0x0 DUP2 CALLDATALOAD SWAP1 POP PUSH2 0x4463 DUP2 PUSH2 0x443D JUMP JUMPDEST SWAP3 SWAP2 POP POP JUMP JUMPDEST PUSH1 0x0 PUSH1 0x20 DUP3 DUP5 SUB SLT ISZERO PUSH2 0x447F JUMPI PUSH2 0x447E PUSH2 0x3DF5 JUMP JUMPDEST JUMPDEST PUSH1 0x0 PUSH2 0x448D DUP5 DUP3 DUP6 ADD PUSH2 0x4454 JUMP JUMPDEST SWAP2 POP POP SWAP3 SWAP2 POP POP JUMP JUMPDEST PUSH2 0x449F DUP2 PUSH2 0x4433 JUMP JUMPDEST DUP3 MSTORE POP POP JUMP JUMPDEST PUSH1 0x0 PUSH1 0x20 DUP3 ADD SWAP1 POP PUSH2 0x44BA PUSH1 0x0 DUP4 ADD DUP5 PUSH2 0x4496 JUMP JUMPDEST SWAP3 SWAP2 POP POP JUMP JUMPDEST PUSH1 0x0 DUP1 PUSH1 0x40 DUP4 DUP6 SUB SLT ISZERO PUSH2 0x44D7 JUMPI PUSH2 0x44D6 PUSH2 0x3DF5 JUMP JUMPDEST JUMPDEST PUSH1 0x0 PUSH2 0x44E5 DUP6 DUP3 DUP7 ADD PUSH2 0x4454 JUMP JUMPDEST SWAP3 POP POP PUSH1 0x20 PUSH2 0x44F6 DUP6 DUP3 DUP7 ADD PUSH2 0x3FB5 JUMP JUMPDEST SWAP2 POP POP SWAP3 POP SWAP3 SWAP1 POP JUMP JUMPDEST PUSH1 0x0 DUP1 PUSH1 0x40 DUP4 DUP6 SUB SLT ISZERO PUSH2 0x4517 JUMPI PUSH2 0x4516 PUSH2 0x3DF5 JUMP JUMPDEST JUMPDEST PUSH1 0x0 PUSH2 0x4525 DUP6 DUP3 DUP7 ADD PUSH2 0x3FB5 JUMP JUMPDEST SWAP3 POP POP PUSH1 0x20 PUSH2 0x4536 DUP6 DUP3 DUP7 ADD PUSH2 0x3FEB JUMP JUMPDEST SWAP2 POP POP SWAP3 POP SWAP3 SWAP1 POP JUMP JUMPDEST PUSH1 0x0 PUSH8 0xFFFFFFFFFFFFFFFF DUP3 GT ISZERO PUSH2 0x455B JUMPI PUSH2 0x455A PUSH2 0x400A JUMP JUMPDEST JUMPDEST PUSH2 0x4564 DUP3 PUSH2 0x3F00 JUMP JUMPDEST SWAP1 POP PUSH1 0x20 DUP2 ADD SWAP1 POP SWAP2 SWAP1 POP JUMP JUMPDEST PUSH1 0x0 PUSH2 0x4584 PUSH2 0x457F DUP5 PUSH2 0x4540 JUMP JUMPDEST PUSH2 0x406A JUMP JUMPDEST SWAP1 POP DUP3 DUP2 MSTORE PUSH1 0x20 DUP2 ADD DUP5 DUP5 DUP5 ADD GT ISZERO PUSH2 0x45A0 JUMPI PUSH2 0x459F PUSH2 0x4005 JUMP JUMPDEST JUMPDEST PUSH2 0x45AB DUP5 DUP3 DUP6 PUSH2 0x40B6 JUMP JUMPDEST POP SWAP4 SWAP3 POP POP POP JUMP JUMPDEST PUSH1 0x0 DUP3 PUSH1 0x1F DUP4 ADD SLT PUSH2 0x45C8 JUMPI PUSH2 0x45C7 PUSH2 0x4000 JUMP JUMPDEST JUMPDEST DUP2 CALLDATALOAD PUSH2 0x45D8 DUP5 DUP3 PUSH1 0x20 DUP7 ADD PUSH2 0x4571 JUMP JUMPDEST SWAP2 POP POP SWAP3 SWAP2 POP POP JUMP JUMPDEST PUSH1 0x0 PUSH1 0x20 DUP3 DUP5 SUB SLT ISZERO PUSH2 0x45F7 JUMPI PUSH2 0x45F6 PUSH2 0x3DF5 JUMP JUMPDEST JUMPDEST PUSH1 0x0 DUP3 ADD CALLDATALOAD PUSH8 0xFFFFFFFFFFFFFFFF DUP2 GT ISZERO PUSH2 0x4615 JUMPI PUSH2 0x4614 PUSH2 0x3DFA JUMP JUMPDEST JUMPDEST PUSH2 0x4621 DUP5 DUP3 DUP6 ADD PUSH2 0x45B3 JUMP JUMPDEST SWAP2 POP POP SWAP3 SWAP2 POP POP JUMP JUMPDEST PUSH1 0x0 PUSH1 0xFF DUP3 AND SWAP1 POP SWAP2 SWAP1 POP JUMP JUMPDEST PUSH2 0x4640 DUP2 PUSH2 0x462A JUMP JUMPDEST DUP3 MSTORE POP POP JUMP JUMPDEST PUSH1 0x0 PUSH1 0x20 DUP3 ADD SWAP1 POP PUSH2 0x465B PUSH1 0x0 DUP4 ADD DUP5 PUSH2 0x4637 JUMP JUMPDEST SWAP3 SWAP2 POP POP JUMP JUMPDEST PUSH2 0x466A DUP2 PUSH2 0x3F8C JUMP JUMPDEST DUP3 MSTORE POP POP JUMP JUMPDEST PUSH1 0x0 PUSH1 0x20 DUP3 ADD SWAP1 POP PUSH2 0x4685 PUSH1 0x0 DUP4 ADD DUP5 PUSH2 0x4661 JUMP JUMPDEST SWAP3 SWAP2 POP POP JUMP JUMPDEST PUSH1 0x0 DUP1 PUSH1 0x40 DUP4 DUP6 SUB SLT ISZERO PUSH2 0x46A2 JUMPI PUSH2 0x46A1 PUSH2 0x3DF5 JUMP JUMPDEST JUMPDEST PUSH1 0x0 PUSH2 0x46B0 DUP6 DUP3 DUP7 ADD PUSH2 0x3FEB JUMP JUMPDEST SWAP3 POP POP PUSH1 0x20 PUSH2 0x46C1 DUP6 DUP3 DUP7 ADD PUSH2 0x3FEB JUMP JUMPDEST SWAP2 POP POP SWAP3 POP SWAP3 SWAP1 POP JUMP JUMPDEST PUSH1 0x0 PUSH8 0xFFFFFFFFFFFFFFFF DUP3 GT ISZERO PUSH2 0x46E6 JUMPI PUSH2 0x46E5 PUSH2 0x400A JUMP JUMPDEST JUMPDEST PUSH1 0x20 DUP3 MUL SWAP1 POP SWAP2 SWAP1 POP JUMP JUMPDEST PUSH1 0x0 DUP1 REVERT JUMPDEST PUSH2 0x46FF DUP2 PUSH2 0x462A JUMP JUMPDEST DUP2 EQ PUSH2 0x470A JUMPI PUSH1 0x0 DUP1 REVERT JUMPDEST POP JUMP JUMPDEST PUSH1 0x0 DUP2 CALLDATALOAD SWAP1 POP PUSH2 0x471C DUP2 PUSH2 0x46F6 JUMP JUMPDEST SWAP3 SWAP2 POP POP JUMP JUMPDEST PUSH1 0x0 PUSH2 0x4735 PUSH2 0x4730 DUP5 PUSH2 0x46CB JUMP JUMPDEST PUSH2 0x406A JUMP JUMPDEST SWAP1 POP DUP1 PUSH1 0x20 DUP5 MUL DUP4 ADD DUP6 DUP2 GT ISZERO PUSH2 0x474F JUMPI PUSH2 0x474E PUSH2 0x46F1 JUMP JUMPDEST JUMPDEST DUP4 JUMPDEST DUP2 DUP2 LT ISZERO PUSH2 0x4778 JUMPI DUP1 PUSH2 0x4764 DUP9 DUP3 PUSH2 0x470D JUMP JUMPDEST DUP5 MSTORE PUSH1 0x20 DUP5 ADD SWAP4 POP POP PUSH1 0x20 DUP2 ADD SWAP1 POP PUSH2 0x4751 JUMP JUMPDEST POP POP POP SWAP4 SWAP3 POP POP POP JUMP JUMPDEST PUSH1 0x0 DUP3 PUSH1 0x1F DUP4 ADD SLT PUSH2 0x4797 JUMPI PUSH2 0x4796 PUSH2 0x4000 JUMP JUMPDEST JUMPDEST PUSH1 0x9 PUSH2 0x47A4 DUP5 DUP3 DUP6 PUSH2 0x4722 JUMP JUMPDEST SWAP2 POP POP SWAP3 SWAP2 POP POP JUMP JUMPDEST PUSH1 0x0 DUP1 PUSH2 0x140 DUP4 DUP6 SUB SLT ISZERO PUSH2 0x47C5 JUMPI PUSH2 0x47C4 PUSH2 0x3DF5 JUMP JUMPDEST JUMPDEST PUSH1 0x0 PUSH2 0x47D3 DUP6 DUP3 DUP7 ADD PUSH2 0x3FEB JUMP JUMPDEST SWAP3 POP POP PUSH1 0x20 PUSH2 0x47E4 DUP6 DUP3 DUP7 ADD PUSH2 0x4782 JUMP JUMPDEST SWAP2 POP POP SWAP3 POP SWAP3 SWAP1 POP JUMP JUMPDEST PUSH1 0x0 PUSH8 0xFFFFFFFFFFFFFFFF DUP3 GT ISZERO PUSH2 0x4809 JUMPI PUSH2 0x4808 PUSH2 0x400A JUMP JUMPDEST JUMPDEST PUSH1 0x20 DUP3 MUL SWAP1 POP PUSH1 0x20 DUP2 ADD SWAP1 POP SWAP2 SWAP1 POP JUMP JUMPDEST PUSH1 0x0 PUSH2 0x482D PUSH2 0x4828 DUP5 PUSH2 0x47EE JUMP JUMPDEST PUSH2 0x406A JUMP JUMPDEST SWAP1 POP DUP1 DUP4 DUP3 MSTORE PUSH1 0x20 DUP3 ADD SWAP1 POP PUSH1 0x20 DUP5 MUL DUP4 ADD DUP6 DUP2 GT ISZERO PUSH2 0x4850 JUMPI PUSH2 0x484F PUSH2 0x46F1 JUMP JUMPDEST JUMPDEST DUP4 JUMPDEST DUP2 DUP2 LT ISZERO PUSH2 0x4879 JUMPI DUP1 PUSH2 0x4865 DUP9 DUP3 PUSH2 0x3FEB JUMP JUMPDEST DUP5 MSTORE PUSH1 0x20 DUP5 ADD SWAP4 POP POP PUSH1 0x20 DUP2 ADD SWAP1 POP PUSH2 0x4852 JUMP JUMPDEST POP POP POP SWAP4 SWAP3 POP POP POP JUMP JUMPDEST PUSH1 0x0 DUP3 PUSH1 0x1F DUP4 ADD SLT PUSH2 0x4898 JUMPI PUSH2 0x4897 PUSH2 0x4000 JUMP JUMPDEST JUMPDEST DUP2 CALLDATALOAD PUSH2 0x48A8 DUP5 DUP3 PUSH1 0x20 DUP7 ADD PUSH2 0x481A JUMP JUMPDEST SWAP2 POP POP SWAP3 SWAP2 POP POP JUMP JUMPDEST PUSH1 0x0 PUSH1 0x20 DUP3 DUP5 SUB SLT ISZERO PUSH2 0x48C7 JUMPI PUSH2 0x48C6 PUSH2 0x3DF5 JUMP JUMPDEST JUMPDEST PUSH1 0x0 DUP3 ADD CALLDATALOAD PUSH8 0xFFFFFFFFFFFFFFFF DUP2 GT ISZERO PUSH2 0x48E5 JUMPI PUSH2 0x48E4 PUSH2 0x3DFA JUMP JUMPDEST JUMPDEST PUSH2 0x48F1 DUP5 DUP3 DUP6 ADD PUSH2 0x4883 JUMP JUMPDEST SWAP2 POP POP SWAP3 SWAP2 POP POP JUMP JUMPDEST PUSH1 0x0 PUSH1 0x40 DUP3 ADD SWAP1 POP PUSH2 0x490F PUSH1 0x0 DUP4 ADD DUP6 PUSH2 0x4661 JUMP JUMPDEST PUSH2 0x491C PUSH1 0x20 DUP4 ADD DUP5 PUSH2 0x4389 JUMP JUMPDEST SWAP4 SWAP3 POP POP POP JUMP JUMPDEST PUSH32 0x4E487B7100000000000000000000000000000000000000000000000000000000 PUSH1 0x0 MSTORE PUSH1 0x22 PUSH1 0x4 MSTORE PUSH1 0x24 PUSH1 0x0 REVERT JUMPDEST PUSH1 0x0 PUSH1 0x2 DUP3 DIV SWAP1 POP PUSH1 0x1 DUP3 AND DUP1 PUSH2 0x496A JUMPI PUSH1 0x7F DUP3 AND SWAP2 POP JUMPDEST PUSH1 0x20 DUP3 LT DUP2 SUB PUSH2 0x497D JUMPI PUSH2 0x497C PUSH2 0x4923 JUMP JUMPDEST JUMPDEST POP SWAP2 SWAP1 POP JUMP JUMPDEST PUSH32 0x4E487B7100000000000000000000000000000000000000000000000000000000 PUSH1 0x0 MSTORE PUSH1 0x32 PUSH1 0x4 MSTORE PUSH1 0x24 PUSH1 0x0 REVERT JUMPDEST PUSH32 0x3330310000000000000000000000000000000000000000000000000000000000 PUSH1 0x0 DUP3 ADD MSTORE POP JUMP JUMPDEST PUSH1 0x0 PUSH2 0x49E8 PUSH1 0x3 DUP4 PUSH2 0x3EC5 JUMP JUMPDEST SWAP2 POP PUSH2 0x49F3 DUP3 PUSH2 0x49B2 JUMP JUMPDEST PUSH1 0x20 DUP3 ADD SWAP1 POP SWAP2 SWAP1 POP JUMP JUMPDEST PUSH1 0x0 PUSH1 0x20 DUP3 ADD SWAP1 POP DUP2 DUP2 SUB PUSH1 0x0 DUP4 ADD MSTORE PUSH2 0x4A17 DUP2 PUSH2 0x49DB JUMP JUMPDEST SWAP1 POP SWAP2 SWAP1 POP JUMP JUMPDEST PUSH32 0x3100000000000000000000000000000000000000000000000000000000000000 PUSH1 0x0 DUP3 ADD MSTORE POP JUMP JUMPDEST PUSH1 0x0 PUSH2 0x4A54 PUSH1 0x1 DUP4 PUSH2 0x3EC5 JUMP JUMPDEST SWAP2 POP PUSH2 0x4A5F DUP3 PUSH2 0x4A1E JUMP JUMPDEST PUSH1 0x20 DUP3 ADD SWAP1 POP SWAP2 SWAP1 POP JUMP JUMPDEST PUSH1 0x0 PUSH1 0x20 DUP3 ADD SWAP1 POP DUP2 DUP2 SUB PUSH1 0x0 DUP4 ADD MSTORE PUSH2 0x4A83 DUP2 PUSH2 0x4A47 JUMP JUMPDEST SWAP1 POP SWAP2 SWAP1 POP JUMP JUMPDEST PUSH1 0x0 DUP2 SWAP1 POP DUP2 PUSH1 0x0 MSTORE PUSH1 0x20 PUSH1 0x0 KECCAK256 SWAP1 POP SWAP2 SWAP1 POP JUMP JUMPDEST PUSH1 0x0 PUSH1 0x20 PUSH1 0x1F DUP4 ADD DIV SWAP1 POP SWAP2 SWAP1 POP JUMP JUMPDEST PUSH1 0x0 DUP3 DUP3 SHL SWAP1 POP SWAP3 SWAP2 POP POP JUMP JUMPDEST PUSH1 0x0 PUSH1 0x8 DUP4 MUL PUSH2 0x4AEC PUSH32 0xFFFFFFFFFFFFFFFFFFFFFFFFFFFFFFFFFFFFFFFFFFFFFFFFFFFFFFFFFFFFFFFF DUP3 PUSH2 0x4AAF JUMP JUMPDEST PUSH2 0x4AF6 DUP7 DUP4 PUSH2 0x4AAF JUMP JUMPDEST SWAP6 POP DUP1 NOT DUP5 AND SWAP4 POP DUP1 DUP7 AND DUP5 OR SWAP3 POP POP POP SWAP4 SWAP3 POP POP POP JUMP JUMPDEST PUSH1 0x0 DUP2 SWAP1 POP SWAP2 SWAP1 POP JUMP JUMPDEST PUSH1 0x0 PUSH2 0x4B33 PUSH2 0x4B2E PUSH2 0x4B29 DUP5 PUSH2 0x3FCA JUMP JUMPDEST PUSH2 0x4B0E JUMP JUMPDEST PUSH2 0x3FCA JUMP JUMPDEST SWAP1 POP SWAP2 SWAP1 POP JUMP JUMPDEST PUSH1 0x0 DUP2 SWAP1 POP SWAP2 SWAP1 POP JUMP JUMPDEST PUSH2 0x4B4D DUP4 PUSH2 0x4B18 JUMP JUMPDEST PUSH2 0x4B61 PUSH2 0x4B59 DUP3 PUSH2 0x4B3A JUMP JUMPDEST DUP5 DUP5 SLOAD PUSH2 0x4ABC JUMP JUMPDEST DUP3 SSTORE POP POP POP POP JUMP JUMPDEST PUSH1 0x0 SWAP1 JUMP JUMPDEST PUSH2 0x4B76 PUSH2 0x4B69 JUMP JUMPDEST PUSH2 0x4B81 DUP2 DUP5 DUP5 PUSH2 0x4B44 JUMP JUMPDEST POP POP POP JUMP JUMPDEST JUMPDEST DUP2 DUP2 LT ISZERO PUSH2 0x4BA5 JUMPI PUSH2 0x4B9A PUSH1 0x0 DUP3 PUSH2 0x4B6E JUMP JUMPDEST PUSH1 0x1 DUP2 ADD SWAP1 POP PUSH2 0x4B87 JUMP JUMPDEST POP POP JUMP JUMPDEST PUSH1 0x1F DUP3 GT ISZERO PUSH2 0x4BEA JUMPI PUSH2 0x4BBB DUP2 PUSH2 0x4A8A JUMP JUMPDEST PUSH2 0x4BC4 DUP5 PUSH2 0x4A9F JUMP JUMPDEST DUP2 ADD PUSH1 0x20 DUP6 LT ISZERO PUSH2 0x4BD3 JUMPI DUP2 SWAP1 POP JUMPDEST PUSH2 0x4BE7 PUSH2 0x4BDF DUP6 PUSH2 0x4A9F JUMP JUMPDEST DUP4 ADD DUP3 PUSH2 0x4B86 JUMP JUMPDEST POP POP JUMPDEST POP POP POP JUMP JUMPDEST PUSH1 0x0 DUP3 DUP3 SHR SWAP1 POP SWAP3 SWAP2 POP POP JUMP JUMPDEST PUSH1 0x0 PUSH2 0x4C0D PUSH1 0x0 NOT DUP5 PUSH1 0x8 MUL PUSH2 0x4BEF JUMP JUMPDEST NOT DUP1 DUP4 AND SWAP2 POP POP SWAP3 SWAP2 POP POP JUMP JUMPDEST PUSH1 0x0 PUSH2 0x4C26 DUP4 DUP4 PUSH2 0x4BFC JUMP JUMPDEST SWAP2 POP DUP3 PUSH1 0x2 MUL DUP3 OR SWAP1 POP SWAP3 SWAP2 POP POP JUMP JUMPDEST PUSH2 0x4C3F DUP3 PUSH2 0x3EBA JUMP JUMPDEST PUSH8 0xFFFFFFFFFFFFFFFF DUP2 GT ISZERO PUSH2 0x4C58 JUMPI PUSH2 0x4C57 PUSH2 0x400A JUMP JUMPDEST JUMPDEST PUSH2 0x4C62 DUP3 SLOAD PUSH2 0x4952 JUMP JUMPDEST PUSH2 0x4C6D DUP3 DUP3 DUP6 PUSH2 0x4BA9 JUMP JUMPDEST PUSH1 0x0 PUSH1 0x20 SWAP1 POP PUSH1 0x1F DUP4 GT PUSH1 0x1 DUP2 EQ PUSH2 0x4CA0 JUMPI PUSH1 0x0 DUP5 ISZERO PUSH2 0x4C8E JUMPI DUP3 DUP8 ADD MLOAD SWAP1 POP JUMPDEST PUSH2 0x4C98 DUP6 DUP3 PUSH2 0x4C1A JUMP JUMPDEST DUP7 SSTORE POP PUSH2 0x4D00 JUMP JUMPDEST PUSH1 0x1F NOT DUP5 AND PUSH2 0x4CAE DUP7 PUSH2 0x4A8A JUMP JUMPDEST PUSH1 0x0 JUMPDEST DUP3 DUP2 LT ISZERO PUSH2 0x4CD6 JUMPI DUP5 DUP10 ADD MLOAD DUP3 SSTORE PUSH1 0x1 DUP3 ADD SWAP2 POP PUSH1 0x20 DUP6 ADD SWAP5 POP PUSH1 0x20 DUP2 ADD SWAP1 POP PUSH2 0x4CB1 JUMP JUMPDEST DUP7 DUP4 LT ISZERO PUSH2 0x4CF3 JUMPI DUP5 DUP10 ADD MLOAD PUSH2 0x4CEF PUSH1 0x1F DUP10 AND DUP3 PUSH2 0x4BFC JUMP JUMPDEST DUP4 SSTORE POP JUMPDEST PUSH1 0x1 PUSH1 0x2 DUP9 MUL ADD DUP9 SSTORE POP POP POP JUMPDEST POP POP POP POP POP POP JUMP JUMPDEST PUSH32 0x3130350000000000000000000000000000000000000000000000000000000000 PUSH1 0x0 DUP3 ADD MSTORE POP JUMP JUMPDEST PUSH1 0x0 PUSH2 0x4D3E PUSH1 0x3 DUP4 PUSH2 0x3EC5 JUMP JUMPDEST SWAP2 POP PUSH2 0x4D49 DUP3 PUSH2 0x4D08 JUMP JUMPDEST PUSH1 0x20 DUP3 ADD SWAP1 POP SWAP2 SWAP1 POP JUMP JUMPDEST PUSH1 0x0 PUSH1 0x20 DUP3 ADD SWAP1 POP DUP2 DUP2 SUB PUSH1 0x0 DUP4 ADD MSTORE PUSH2 0x4D6D DUP2 PUSH2 0x4D31 JUMP JUMPDEST SWAP1 POP SWAP2 SWAP1 POP JUMP JUMPDEST PUSH32 0x416363657373436F6E74726F6C3A2063616E206F6E6C792072656E6F756E6365 PUSH1 0x0 DUP3 ADD MSTORE PUSH32 0x20726F6C657320666F722073656C660000000000000000000000000000000000 PUSH1 0x20 DUP3 ADD MSTORE POP JUMP JUMPDEST PUSH1 0x0 PUSH2 0x4DD0 PUSH1 0x2F DUP4 PUSH2 0x3EC5 JUMP JUMPDEST SWAP2 POP PUSH2 0x4DDB DUP3 PUSH2 0x4D74 JUMP JUMPDEST PUSH1 0x40 DUP3 ADD SWAP1 POP SWAP2 SWAP1 POP JUMP JUMPDEST PUSH1 0x0 PUSH1 0x20 DUP3 ADD SWAP1 POP DUP2 DUP2 SUB PUSH1 0x0 DUP4 ADD MSTORE PUSH2 0x4DFF DUP2 PUSH2 0x4DC3 JUMP JUMPDEST SWAP1 POP SWAP2 SWAP1 POP JUMP JUMPDEST PUSH32 0x4552433732313A20696E76616C696420746F6B656E2049440000000000000000 PUSH1 0x0 DUP3 ADD MSTORE POP JUMP JUMPDEST PUSH1 0x0 PUSH2 0x4E3C PUSH1 0x18 DUP4 PUSH2 0x3EC5 JUMP JUMPDEST SWAP2 POP PUSH2 0x4E47 DUP3 PUSH2 0x4E06 JUMP JUMPDEST PUSH1 0x20 DUP3 ADD SWAP1 POP SWAP2 SWAP1 POP JUMP JUMPDEST PUSH1 0x0 PUSH1 0x20 DUP3 ADD SWAP1 POP DUP2 DUP2 SUB PUSH1 0x0 DUP4 ADD MSTORE PUSH2 0x4E6B DUP2 PUSH2 0x4E2F JUMP JUMPDEST SWAP1 POP SWAP2 SWAP1 POP JUMP JUMPDEST PUSH32 0x4552433732313A2061646472657373207A65726F206973206E6F742061207661 PUSH1 0x0 DUP3 ADD MSTORE PUSH32 0x6C6964206F776E65720000000000000000000000000000000000000000000000 PUSH1 0x20 DUP3 ADD MSTORE POP JUMP JUMPDEST PUSH1 0x0 PUSH2 0x4ECE PUSH1 0x29 DUP4 PUSH2 0x3EC5 JUMP JUMPDEST SWAP2 POP PUSH2 0x4ED9 DUP3 PUSH2 0x4E72 JUMP JUMPDEST PUSH1 0x40 DUP3 ADD SWAP1 POP SWAP2 SWAP1 POP JUMP JUMPDEST PUSH1 0x0 PUSH1 0x20 DUP3 ADD SWAP1 POP DUP2 DUP2 SUB PUSH1 0x0 DUP4 ADD MSTORE PUSH2 0x4EFD DUP2 PUSH2 0x4EC1 JUMP JUMPDEST SWAP1 POP SWAP2 SWAP1 POP JUMP JUMPDEST PUSH32 0x496E73756666696369656E74207061796D656E74000000000000000000000000 PUSH1 0x0 DUP3 ADD MSTORE POP JUMP JUMPDEST PUSH1 0x0 PUSH2 0x4F3A PUSH1 0x14 DUP4 PUSH2 0x3EC5 JUMP JUMPDEST SWAP2 POP PUSH2 0x4F45 DUP3 PUSH2 0x4F04 JUMP JUMPDEST PUSH1 0x20 DUP3 ADD SWAP1 POP SWAP2 SWAP1 POP JUMP JUMPDEST PUSH1 0x0 PUSH1 0x20 DUP3 ADD SWAP1 POP DUP2 DUP2 SUB PUSH1 0x0 DUP4 ADD MSTORE PUSH2 0x4F69 DUP2 PUSH2 0x4F2D JUMP JUMPDEST SWAP1 POP SWAP2 SWAP1 POP JUMP JUMPDEST PUSH32 0x4E487B7100000000000000000000000000000000000000000000000000000000 PUSH1 0x0 MSTORE PUSH1 0x12 PUSH1 0x4 MSTORE PUSH1 0x24 PUSH1 0x0 REVERT JUMPDEST PUSH1 0x0 PUSH2 0x4FAA DUP3 PUSH2 0x3FCA JUMP JUMPDEST SWAP2 POP PUSH2 0x4FB5 DUP4 PUSH2 0x3FCA JUMP JUMPDEST SWAP3 POP DUP3 PUSH2 0x4FC5 JUMPI PUSH2 0x4FC4 PUSH2 0x4F70 JUMP JUMPDEST JUMPDEST DUP3 DUP3 MOD SWAP1 POP SWAP3 SWAP2 POP POP JUMP JUMPDEST PUSH32 0x4E487B7100000000000000000000000000000000000000000000000000000000 PUSH1 0x0 MSTORE PUSH1 0x11 PUSH1 0x4 MSTORE PUSH1 0x24 PUSH1 0x0 REVERT JUMPDEST PUSH1 0x0 PUSH2 0x500A DUP3 PUSH2 0x3FCA JUMP JUMPDEST SWAP2 POP PUSH2 0x5015 DUP4 PUSH2 0x3FCA JUMP JUMPDEST SWAP3 POP DUP3 DUP3 ADD SWAP1 POP DUP1 DUP3 GT ISZERO PUSH2 0x502D JUMPI PUSH2 0x502C PUSH2 0x4FD0 JUMP JUMPDEST JUMPDEST SWAP3 SWAP2 POP POP JUMP JUMPDEST PUSH32 0x3130360000000000000000000000000000000000000000000000000000000000 PUSH1 0x0 DUP3 ADD MSTORE POP JUMP JUMPDEST PUSH1 0x0 PUSH2 0x5069 PUSH1 0x3 DUP4 PUSH2 0x3EC5 JUMP JUMPDEST SWAP2 POP PUSH2 0x5074 DUP3 PUSH2 0x5033 JUMP JUMPDEST PUSH1 0x20 DUP3 ADD SWAP1 POP SWAP2 SWAP1 POP JUMP JUMPDEST PUSH1 0x0 PUSH1 0x20 DUP3 ADD SWAP1 POP DUP2 DUP2 SUB PUSH1 0x0 DUP4 ADD MSTORE PUSH2 0x5098 DUP2 PUSH2 0x505C JUMP JUMPDEST SWAP1 POP SWAP2 SWAP1 POP JUMP JUMPDEST PUSH1 0x0 PUSH2 0x50AA DUP3 PUSH2 0x462A JUMP JUMPDEST SWAP2 POP PUSH1 0xFF DUP3 SUB PUSH2 0x50BD JUMPI PUSH2 0x50BC PUSH2 0x4FD0 JUMP JUMPDEST JUMPDEST PUSH1 0x1 DUP3 ADD SWAP1 POP SWAP2 SWAP1 POP JUMP JUMPDEST PUSH1 0x0 DUP2 SWAP1 POP SWAP3 SWAP2 POP POP JUMP JUMPDEST PUSH1 0x0 PUSH2 0x50DE DUP3 PUSH2 0x3EBA JUMP JUMPDEST PUSH2 0x50E8 DUP2 DUP6 PUSH2 0x50C8 JUMP JUMPDEST SWAP4 POP PUSH2 0x50F8 DUP2 DUP6 PUSH1 0x20 DUP7 ADD PUSH2 0x3ED6 JUMP JUMPDEST DUP1 DUP5 ADD SWAP2 POP POP SWAP3 SWAP2 POP POP JUMP JUMPDEST PUSH1 0x0 PUSH2 0x5110 DUP3 DUP13 PUSH2 0x50D3 JUMP JUMPDEST SWAP2 POP PUSH2 0x511C DUP3 DUP12 PUSH2 0x50D3 JUMP JUMPDEST SWAP2 POP PUSH2 0x5128 DUP3 DUP11 PUSH2 0x50D3 JUMP JUMPDEST SWAP2 POP PUSH2 0x5134 DUP3 DUP10 PUSH2 0x50D3 JUMP JUMPDEST SWAP2 POP PUSH2 0x5140 DUP3 DUP9 PUSH2 0x50D3 JUMP JUMPDEST SWAP2 POP PUSH2 0x514C DUP3 DUP8 PUSH2 0x50D3 JUMP JUMPDEST SWAP2 POP PUSH2 0x5158 DUP3 DUP7 PUSH2 0x50D3 JUMP JUMPDEST SWAP2 POP PUSH2 0x5164 DUP3 DUP6 PUSH2 0x50D3 JUMP JUMPDEST SWAP2 POP PUSH2 0x5170 DUP3 DUP5 PUSH2 0x50D3 JUMP JUMPDEST SWAP2 POP DUP2 SWAP1 POP SWAP11 SWAP10 POP POP POP POP POP POP POP POP POP POP JUMP JUMPDEST PUSH1 0x0 PUSH2 0x518F DUP3 DUP5 PUSH2 0x50D3 JUMP JUMPDEST SWAP2 POP DUP2 SWAP1 POP SWAP3 SWAP2 POP POP JUMP JUMPDEST PUSH1 0x0 PUSH2 0x51A5 DUP3 PUSH2 0x3FCA JUMP JUMPDEST SWAP2 POP PUSH32 0xFFFFFFFFFFFFFFFFFFFFFFFFFFFFFFFFFFFFFFFFFFFFFFFFFFFFFFFFFFFFFFFF DUP3 SUB PUSH2 0x51D7 JUMPI PUSH2 0x51D6 PUSH2 0x4FD0 JUMP JUMPDEST JUMPDEST PUSH1 0x1 DUP3 ADD SWAP1 POP SWAP2 SWAP1 POP JUMP JUMPDEST PUSH1 0x0 PUSH2 0x51ED DUP3 PUSH2 0x3FCA JUMP JUMPDEST SWAP2 POP PUSH2 0x51F8 DUP4 PUSH2 0x3FCA JUMP JUMPDEST SWAP3 POP DUP3 DUP3 SUB SWAP1 POP DUP2 DUP2 GT ISZERO PUSH2 0x5210 JUMPI PUSH2 0x520F PUSH2 0x4FD0 JUMP JUMPDEST JUMPDEST SWAP3 SWAP2 POP POP JUMP JUMPDEST PUSH32 0x3130370000000000000000000000000000000000000000000000000000000000 PUSH1 0x0 DUP3 ADD MSTORE POP JUMP JUMPDEST PUSH1 0x0 PUSH2 0x524C PUSH1 0x3 DUP4 PUSH2 0x3EC5 JUMP JUMPDEST SWAP2 POP PUSH2 0x5257 DUP3 PUSH2 0x5216 JUMP JUMPDEST PUSH1 0x20 DUP3 ADD SWAP1 POP SWAP2 SWAP1 POP JUMP JUMPDEST PUSH1 0x0 PUSH1 0x20 DUP3 ADD SWAP1 POP DUP2 DUP2 SUB PUSH1 0x0 DUP4 ADD MSTORE PUSH2 0x527B DUP2 PUSH2 0x523F JUMP JUMPDEST SWAP1 POP SWAP2 SWAP1 POP JUMP JUMPDEST PUSH32 0x3130380000000000000000000000000000000000000000000000000000000000 PUSH1 0x0 DUP3 ADD MSTORE POP JUMP JUMPDEST PUSH1 0x0 PUSH2 0x52B8 PUSH1 0x3 DUP4 PUSH2 0x3EC5 JUMP JUMPDEST SWAP2 POP PUSH2 0x52C3 DUP3 PUSH2 0x5282 JUMP JUMPDEST PUSH1 0x20 DUP3 ADD SWAP1 POP SWAP2 SWAP1 POP JUMP JUMPDEST PUSH1 0x0 PUSH1 0x20 DUP3 ADD SWAP1 POP DUP2 DUP2 SUB PUSH1 0x0 DUP4 ADD MSTORE PUSH2 0x52E7 DUP2 PUSH2 0x52AB JUMP JUMPDEST SWAP1 POP SWAP2 SWAP1 POP JUMP JUMPDEST PUSH32 0x4552433732313A207472616E736665722066726F6D20696E636F727265637420 PUSH1 0x0 DUP3 ADD MSTORE PUSH32 0x6F776E6572000000000000000000000000000000000000000000000000000000 PUSH1 0x20 DUP3 ADD MSTORE POP JUMP JUMPDEST PUSH1 0x0 PUSH2 0x534A PUSH1 0x25 DUP4 PUSH2 0x3EC5 JUMP JUMPDEST SWAP2 POP PUSH2 0x5355 DUP3 PUSH2 0x52EE JUMP JUMPDEST PUSH1 0x40 DUP3 ADD SWAP1 POP SWAP2 SWAP1 POP JUMP JUMPDEST PUSH1 0x0 PUSH1 0x20 DUP3 ADD SWAP1 POP DUP2 DUP2 SUB PUSH1 0x0 DUP4 ADD MSTORE PUSH2 0x5379 DUP2 PUSH2 0x533D JUMP JUMPDEST SWAP1 POP SWAP2 SWAP1 POP JUMP JUMPDEST PUSH32 0x4552433732313A207472616E7366657220746F20746865207A65726F20616464 PUSH1 0x0 DUP3 ADD MSTORE PUSH32 0x7265737300000000000000000000000000000000000000000000000000000000 PUSH1 0x20 DUP3 ADD MSTORE POP JUMP JUMPDEST PUSH1 0x0 PUSH2 0x53DC PUSH1 0x24 DUP4 PUSH2 0x3EC5 JUMP JUMPDEST SWAP2 POP PUSH2 0x53E7 DUP3 PUSH2 0x5380 JUMP JUMPDEST PUSH1 0x40 DUP3 ADD SWAP1 POP SWAP2 SWAP1 POP JUMP JUMPDEST PUSH1 0x0 PUSH1 0x20 DUP3 ADD SWAP1 POP DUP2 DUP2 SUB PUSH1 0x0 DUP4 ADD MSTORE PUSH2 0x540B DUP2 PUSH2 0x53CF JUMP JUMPDEST SWAP1 POP SWAP2 SWAP1 POP JUMP JUMPDEST PUSH32 0x4F776E61626C653A2063616C6C6572206973206E6F7420746865206F776E6572 PUSH1 0x0 DUP3 ADD MSTORE POP JUMP JUMPDEST PUSH1 0x0 PUSH2 0x5448 PUSH1 0x20 DUP4 PUSH2 0x3EC5 JUMP JUMPDEST SWAP2 POP PUSH2 0x5453 DUP3 PUSH2 0x5412 JUMP JUMPDEST PUSH1 0x20 DUP3 ADD SWAP1 POP SWAP2 SWAP1 POP JUMP JUMPDEST PUSH1 0x0 PUSH1 0x20 DUP3 ADD SWAP1 POP DUP2 DUP2 SUB PUSH1 0x0 DUP4 ADD MSTORE PUSH2 0x5477 DUP2 PUSH2 0x543B JUMP JUMPDEST SWAP1 POP SWAP2 SWAP1 POP JUMP JUMPDEST PUSH1 0x0 DUP2 SWAP1 POP SWAP2 SWAP1 POP JUMP JUMPDEST PUSH2 0x5499 PUSH2 0x5494 DUP3 PUSH2 0x3FCA JUMP JUMPDEST PUSH2 0x547E JUMP JUMPDEST DUP3 MSTORE POP POP JUMP JUMPDEST PUSH1 0x0 DUP2 PUSH1 0x60 SHL SWAP1 POP SWAP2 SWAP1 POP JUMP JUMPDEST PUSH1 0x0 PUSH2 0x54B7 DUP3 PUSH2 0x549F JUMP JUMPDEST SWAP1 POP SWAP2 SWAP1 POP JUMP JUMPDEST PUSH1 0x0 PUSH2 0x54C9 DUP3 PUSH2 0x54AC JUMP JUMPDEST SWAP1 POP SWAP2 SWAP1 POP JUMP JUMPDEST PUSH2 0x54E1 PUSH2 0x54DC DUP3 PUSH2 0x3F8C JUMP JUMPDEST PUSH2 0x54BE JUMP JUMPDEST DUP3 MSTORE POP POP JUMP JUMPDEST PUSH1 0x0 PUSH2 0x54F3 DUP3 DUP10 PUSH2 0x5488 JUMP JUMPDEST PUSH1 0x20 DUP3 ADD SWAP2 POP PUSH2 0x5503 DUP3 DUP9 PUSH2 0x5488 JUMP JUMPDEST PUSH1 0x20 DUP3 ADD SWAP2 POP PUSH2 0x5513 DUP3 DUP8 PUSH2 0x5488 JUMP JUMPDEST PUSH1 0x20 DUP3 ADD SWAP2 POP PUSH2 0x5523 DUP3 DUP7 PUSH2 0x54D0 JUMP JUMPDEST PUSH1 0x14 DUP3 ADD SWAP2 POP PUSH2 0x5533 DUP3 DUP6 PUSH2 0x5488 JUMP JUMPDEST PUSH1 0x20 DUP3 ADD SWAP2 POP PUSH2 0x5543 DUP3 DUP5 PUSH2 0x5488 JUMP JUMPDEST PUSH1 0x20 DUP3 ADD SWAP2 POP DUP2 SWAP1 POP SWAP8 SWAP7 POP POP POP POP POP POP POP JUMP JUMPDEST PUSH32 0x3000000000000000000000000000000000000000000000000000000000000000 PUSH1 0x0 DUP3 ADD MSTORE POP JUMP JUMPDEST PUSH1 0x0 PUSH2 0x558D PUSH1 0x1 DUP4 PUSH2 0x50C8 JUMP JUMPDEST SWAP2 POP PUSH2 0x5598 DUP3 PUSH2 0x5557 JUMP JUMPDEST PUSH1 0x1 DUP3 ADD SWAP1 POP SWAP2 SWAP1 POP JUMP JUMPDEST PUSH1 0x0 PUSH2 0x55AE DUP3 PUSH2 0x5580 JUMP JUMPDEST SWAP2 POP PUSH2 0x55BA DUP3 DUP5 PUSH2 0x50D3 JUMP JUMPDEST SWAP2 POP DUP2 SWAP1 POP SWAP3 SWAP2 POP POP JUMP JUMPDEST PUSH32 0x4552433732313A206D696E7420746F20746865207A65726F2061646472657373 PUSH1 0x0 DUP3 ADD MSTORE POP JUMP JUMPDEST PUSH1 0x0 PUSH2 0x55FB PUSH1 0x20 DUP4 PUSH2 0x3EC5 JUMP JUMPDEST SWAP2 POP PUSH2 0x5606 DUP3 PUSH2 0x55C5 JUMP JUMPDEST PUSH1 0x20 DUP3 ADD SWAP1 POP SWAP2 SWAP1 POP JUMP JUMPDEST PUSH1 0x0 PUSH1 0x20 DUP3 ADD SWAP1 POP DUP2 DUP2 SUB PUSH1 0x0 DUP4 ADD MSTORE PUSH2 0x562A DUP2 PUSH2 0x55EE JUMP JUMPDEST SWAP1 POP SWAP2 SWAP1 POP JUMP JUMPDEST PUSH32 0x4552433732313A20746F6B656E20616C7265616479206D696E74656400000000 PUSH1 0x0 DUP3 ADD MSTORE POP JUMP JUMPDEST PUSH1 0x0 PUSH2 0x5667 PUSH1 0x1C DUP4 PUSH2 0x3EC5 JUMP JUMPDEST SWAP2 POP PUSH2 0x5672 DUP3 PUSH2 0x5631 JUMP JUMPDEST PUSH1 0x20 DUP3 ADD SWAP1 POP SWAP2 SWAP1 POP JUMP JUMPDEST PUSH1 0x0 PUSH1 0x20 DUP3 ADD SWAP1 POP DUP2 DUP2 SUB PUSH1 0x0 DUP4 ADD MSTORE PUSH2 0x5696 DUP2 PUSH2 0x565A JUMP JUMPDEST SWAP1 POP SWAP2 SWAP1 POP JUMP JUMPDEST PUSH1 0x0 DUP2 SLOAD PUSH2 0x56AA DUP2 PUSH2 0x4952 JUMP JUMPDEST PUSH2 0x56B4 DUP2 DUP7 PUSH2 0x50C8 JUMP JUMPDEST SWAP5 POP PUSH1 0x1 DUP3 AND PUSH1 0x0 DUP2 EQ PUSH2 0x56CF JUMPI PUSH1 0x1 DUP2 EQ PUSH2 0x56E4 JUMPI PUSH2 0x5717 JUMP JUMPDEST PUSH1 0xFF NOT DUP4 AND DUP7 MSTORE DUP2 ISZERO ISZERO DUP3 MUL DUP7 ADD SWAP4 POP PUSH2 0x5717 JUMP JUMPDEST PUSH2 0x56ED DUP6 PUSH2 0x4A8A JUMP JUMPDEST PUSH1 0x0 JUMPDEST DUP4 DUP2 LT ISZERO PUSH2 0x570F JUMPI DUP2 SLOAD DUP2 DUP10 ADD MSTORE PUSH1 0x1 DUP3 ADD SWAP2 POP PUSH1 0x20 DUP2 ADD SWAP1 POP PUSH2 0x56F0 JUMP JUMPDEST DUP4 DUP9 ADD SWAP6 POP POP POP JUMPDEST POP POP POP SWAP3 SWAP2 POP POP JUMP JUMPDEST PUSH32 0x2E6A736F6E000000000000000000000000000000000000000000000000000000 PUSH1 0x0 DUP3 ADD MSTORE POP JUMP JUMPDEST PUSH1 0x0 PUSH2 0x5756 PUSH1 0x5 DUP4 PUSH2 0x50C8 JUMP JUMPDEST SWAP2 POP PUSH2 0x5761 DUP3 PUSH2 0x5720 JUMP JUMPDEST PUSH1 0x5 DUP3 ADD SWAP1 POP SWAP2 SWAP1 POP JUMP JUMPDEST PUSH1 0x0 PUSH2 0x5778 DUP3 DUP6 PUSH2 0x569D JUMP JUMPDEST SWAP2 POP PUSH2 0x5784 DUP3 DUP5 PUSH2 0x50D3 JUMP JUMPDEST SWAP2 POP PUSH2 0x578F DUP3 PUSH2 0x5749 JUMP JUMPDEST SWAP2 POP DUP2 SWAP1 POP SWAP4 SWAP3 POP POP POP JUMP JUMPDEST PUSH1 0x0 PUSH2 0x57A7 DUP3 DUP6 PUSH2 0x50D3 JUMP JUMPDEST SWAP2 POP PUSH2 0x57B3 DUP3 DUP5 PUSH2 0x50D3 JUMP JUMPDEST SWAP2 POP DUP2 SWAP1 POP SWAP4 SWAP3 POP POP POP JUMP JUMPDEST PUSH32 0x455243373231456E756D657261626C653A20636F6E7365637574697665207472 PUSH1 0x0 DUP3 ADD MSTORE PUSH32 0x616E7366657273206E6F7420737570706F727465640000000000000000000000 PUSH1 0x20 DUP3 ADD MSTORE POP JUMP JUMPDEST PUSH1 0x0 PUSH2 0x581B PUSH1 0x35 DUP4 PUSH2 0x3EC5 JUMP JUMPDEST SWAP2 POP PUSH2 0x5826 DUP3 PUSH2 0x57BF JUMP JUMPDEST PUSH1 0x40 DUP3 ADD SWAP1 POP SWAP2 SWAP1 POP JUMP JUMPDEST PUSH1 0x0 PUSH1 0x20 DUP3 ADD SWAP1 POP DUP2 DUP2 SUB PUSH1 0x0 DUP4 ADD MSTORE PUSH2 0x584A DUP2 PUSH2 0x580E JUMP JUMPDEST SWAP1 POP SWAP2 SWAP1 POP JUMP JUMPDEST PUSH32 0x416363657373436F6E74726F6C3A206163636F756E7420000000000000000000 PUSH1 0x0 DUP3 ADD MSTORE POP JUMP JUMPDEST PUSH1 0x0 PUSH2 0x5887 PUSH1 0x17 DUP4 PUSH2 0x50C8 JUMP JUMPDEST SWAP2 POP PUSH2 0x5892 DUP3 PUSH2 0x5851 JUMP JUMPDEST PUSH1 0x17 DUP3 ADD SWAP1 POP SWAP2 SWAP1 POP JUMP JUMPDEST PUSH32 0x206973206D697373696E6720726F6C6520000000000000000000000000000000 PUSH1 0x0 DUP3 ADD MSTORE POP JUMP JUMPDEST PUSH1 0x0 PUSH2 0x58D3 PUSH1 0x11 DUP4 PUSH2 0x50C8 JUMP JUMPDEST SWAP2 POP PUSH2 0x58DE DUP3 PUSH2 0x589D JUMP JUMPDEST PUSH1 0x11 DUP3 ADD SWAP1 POP SWAP2 SWAP1 POP JUMP JUMPDEST PUSH1 0x0 PUSH2 0x58F4 DUP3 PUSH2 0x587A JUMP JUMPDEST SWAP2 POP PUSH2 0x5900 DUP3 DUP6 PUSH2 0x50D3 JUMP JUMPDEST SWAP2 POP PUSH2 0x590B DUP3 PUSH2 0x58C6 JUMP JUMPDEST SWAP2 POP PUSH2 0x5917 DUP3 DUP5 PUSH2 0x50D3 JUMP JUMPDEST SWAP2 POP DUP2 SWAP1 POP SWAP4 SWAP3 POP POP POP JUMP JUMPDEST PUSH1 0x0 PUSH2 0x592E DUP3 PUSH2 0x462A JUMP JUMPDEST SWAP2 POP PUSH2 0x5939 DUP4 PUSH2 0x462A JUMP JUMPDEST SWAP3 POP DUP3 PUSH2 0x5949 JUMPI PUSH2 0x5948 PUSH2 0x4F70 JUMP JUMPDEST JUMPDEST DUP3 DUP3 DIV SWAP1 POP SWAP3 SWAP2 POP POP JUMP JUMPDEST PUSH1 0x0 PUSH2 0x595F DUP3 PUSH2 0x462A JUMP JUMPDEST SWAP2 POP PUSH2 0x596A DUP4 PUSH2 0x462A JUMP JUMPDEST SWAP3 POP DUP3 PUSH2 0x597A JUMPI PUSH2 0x5979 PUSH2 0x4F70 JUMP JUMPDEST JUMPDEST DUP3 DUP3 MOD SWAP1 POP SWAP3 SWAP2 POP POP JUMP JUMPDEST PUSH1 0x0 PUSH2 0x5990 DUP3 PUSH2 0x462A JUMP JUMPDEST SWAP2 POP PUSH2 0x599B DUP4 PUSH2 0x462A JUMP JUMPDEST SWAP3 POP DUP3 DUP3 ADD SWAP1 POP PUSH1 0xFF DUP2 GT ISZERO PUSH2 0x59B4 JUMPI PUSH2 0x59B3 PUSH2 0x4FD0 JUMP JUMPDEST JUMPDEST SWAP3 SWAP2 POP POP JUMP JUMPDEST PUSH1 0x0 PUSH2 0x59C5 DUP3 PUSH2 0x462A JUMP JUMPDEST SWAP2 POP PUSH1 0x0 DUP3 SUB PUSH2 0x59D8 JUMPI PUSH2 0x59D7 PUSH2 0x4FD0 JUMP JUMPDEST JUMPDEST PUSH1 0x1 DUP3 SUB SWAP1 POP SWAP2 SWAP1 POP JUMP JUMPDEST PUSH32 0x4E487B7100000000000000000000000000000000000000000000000000000000 PUSH1 0x0 MSTORE PUSH1 0x31 PUSH1 0x4 MSTORE PUSH1 0x24 PUSH1 0x0 REVERT JUMPDEST PUSH1 0x0 PUSH2 0x5A1D DUP3 PUSH2 0x3FCA JUMP JUMPDEST SWAP2 POP PUSH2 0x5A28 DUP4 PUSH2 0x3FCA JUMP JUMPDEST SWAP3 POP DUP3 DUP3 MUL PUSH2 0x5A36 DUP2 PUSH2 0x3FCA JUMP JUMPDEST SWAP2 POP DUP3 DUP3 DIV DUP5 EQ DUP4 ISZERO OR PUSH2 0x5A4D JUMPI PUSH2 0x5A4C PUSH2 0x4FD0 JUMP JUMPDEST JUMPDEST POP SWAP3 SWAP2 POP POP JUMP JUMPDEST PUSH1 0x0 PUSH2 0x5A5F DUP3 PUSH2 0x3FCA JUMP JUMPDEST SWAP2 POP PUSH1 0x0 DUP3 SUB PUSH2 0x5A72 JUMPI PUSH2 0x5A71 PUSH2 0x4FD0 JUMP JUMPDEST JUMPDEST PUSH1 0x1 DUP3 SUB SWAP1 POP SWAP2 SWAP1 POP JUMP JUMPDEST PUSH32 0x537472696E67733A20686578206C656E67746820696E73756666696369656E74 PUSH1 0x0 DUP3 ADD MSTORE POP JUMP JUMPDEST PUSH1 0x0 PUSH2 0x5AB3 PUSH1 0x20 DUP4 PUSH2 0x3EC5 JUMP JUMPDEST SWAP2 POP PUSH2 0x5ABE DUP3 PUSH2 0x5A7D JUMP JUMPDEST PUSH1 0x20 DUP3 ADD SWAP1 POP SWAP2 SWAP1 POP JUMP JUMPDEST PUSH1 0x0 PUSH1 0x20 DUP3 ADD SWAP1 POP DUP2 DUP2 SUB PUSH1 0x0 DUP4 ADD MSTORE PUSH2 0x5AE2 DUP2 PUSH2 0x5AA6 JUMP JUMPDEST SWAP1 POP SWAP2 SWAP1 POP JUMP INVALID LOG2 PUSH5 0x6970667358 0x22 SLT KECCAK256 SELFBALANCE 0xC9 0xD6 0x26 0xE1 PUSH21 0x69721CBF58002EE7CAE6D7ACC53673732ED63D7CC6 0x26 0xF 0xD2 LOG4 BLOCKHASH PUSH5 0x736F6C6343 STOP ADDMOD XOR STOP CALLER PUSH10 0x7066733A2F2F62616679 PUSH3 0x656965 PUSH19 0x73706373667A6E7264763362676676636D6736 ORIGIN PUSH6 0x676665747433 CALLER PUSH14 0x7937346D676B61636D6D62326A32 PUSH7 0x7A736A6A79712F "},"methodIdentifiers":{"ADMIN_ROLE()":"75b238fc","DEFAULT_ADMIN_ROLE()":"a217fddf","balanceOf(address)":"70a08231","buyItem(uint256)":"e7fb74c7","cancelListing(uint256)":"305a67a8","getFishermanTypeByTokenId(uint256)":"f42a7b70","getOwnedNFTs(address)":"18148f1b","getRoleAdmin(bytes32)":"248a9ca3","grantRole(bytes32,address)":"2f2ff15d","hasRole(bytes32,address)":"91d14854","listItem(uint256,uint256)":"883efa67","listings(uint256)":"de74e57b","maxSupplies(uint256)":"87962dcc","mintFisherman()":"a212a5cc","mintPrice()":"6817c76c","mintedSupplies(uint256)":"2489fd5e","name()":"06fdde03","onERC721Received(address,address,uint256,bytes)":"150b7a02","owner()":"8da5cb5b","ownerOf(uint256)":"6352211e","partOptions0(uint256)":"be6f0ef1","partOptions1(uint256)":"606733ed","partOptions2(uint256)":"d70e761b","renounceOwnership()":"715018a6","renounceRole(bytes32,address)":"36568abe","revokeRole(bytes32,address)":"d547741f","setBaseTokenURI(string)":"30176e13","setMaxSupplies(uint256[])":"95e66287","setMintPrice(uint256)":"f4a0a528","setPartOptions(uint256,uint8[9])":"8ac103f7","supportsInterface(bytes4)":"01ffc9a7","symbol()":"95d89b41","tokenByIndex(uint256)":"4f6ccce7","tokenOfOwnerByIndex(address,uint256)":"2f745c59","tokenURI(uint256)":"c87b56dd","totalSupply()":"18160ddd","transferFrom(address,address,uint256)":"23b872dd","transferOwnership(address)":"f2fde38b","updateMaxSupplyAt(uint256,uint256)":"fc0b5b1d","withdraw()":"3ccfd60b"}}}}}