{"contracts/User.sol":{"User":{"abi":[{"inputs":[{"internalType":"address","name":"_gmcContract","type":"address"},{"internalType":"address","name":"_fishermanNFT","type":"address"},{"internalType":"address","name":"_fishingRodNFT","type":"address"},{"internalType":"uint256","name":"_baitPrice","type":"uint256"}],"stateMutability":"nonpayable","type":"constructor"},{"anonymous":false,"inputs":[{"indexed":true,"internalType":"address","name":"playerAddress","type":"address"},{"indexed":false,"internalType":"uint256","name":"newCount","type":"uint256"}],"name":"BaitCountUpdated","type":"event"},{"anonymous":false,"inputs":[{"indexed":false,"internalType":"address","name":"userAddress","type":"address"},{"indexed":false,"internalType":"uint256","name":"count","type":"uint256"}],"name":"ClaimGMC","type":"event"},{"anonymous":false,"inputs":[{"indexed":true,"internalType":"address","name":"playerAddress","type":"address"},{"indexed":false,"internalType":"uint256","name":"newAmount","type":"uint256"}],"name":"CollectedGMCUpdated","type":"event"},{"anonymous":false,"inputs":[{"indexed":true,"internalType":"address","name":"playerAddress","type":"address"},{"indexed":false,"internalType":"uint256","name":"addedExp","type":"uint256"},{"indexed":false,"internalType":"uint256","name":"newExp","type":"uint256"}],"name":"ExperienceAdded","type":"event"},{"anonymous":false,"inputs":[{"indexed":true,"internalType":"address","name":"playerAddress","type":"address"},{"indexed":false,"internalType":"uint256","name":"star","type":"uint256"},{"indexed":false,"internalType":"uint256","name":"newCount","type":"uint256"}],"name":"FishCountUpdated","type":"event"},{"anonymous":false,"inputs":[{"indexed":true,"internalType":"address","name":"playerAddress","type":"address"},{"indexed":false,"internalType":"uint256","name":"newLevel","type":"uint256"}],"name":"FishPoolLevelUpdated","type":"event"},{"anonymous":false,"inputs":[{"indexed":true,"internalType":"address","name":"playerAddress","type":"address"},{"indexed":false,"internalType":"uint256","name":"newFishermanId","type":"uint256"}],"name":"FishermanChanged","type":"event"},{"anonymous":false,"inputs":[{"indexed":true,"internalType":"uint256","name":"levelUpLimit","type":"uint256"},{"indexed":true,"internalType":"uint256","name":"baitPurchaseLimit","type":"uint256"},{"indexed":true,"internalType":"uint256","name":"baitPrice","type":"uint256"}],"name":"LimitAttributeUpdate","type":"event"},{"anonymous":false,"inputs":[{"indexed":true,"internalType":"address","name":"previousOwner","type":"address"},{"indexed":true,"internalType":"address","name":"newOwner","type":"address"}],"name":"OwnershipTransferStarted","type":"event"},{"anonymous":false,"inputs":[{"indexed":true,"internalType":"address","name":"previousOwner","type":"address"},{"indexed":true,"internalType":"address","name":"newOwner","type":"address"}],"name":"OwnershipTransferred","type":"event"},{"anonymous":false,"inputs":[{"indexed":true,"internalType":"address","name":"playerAddress","type":"address"}],"name":"PlayerAdded","type":"event"},{"anonymous":false,"inputs":[{"indexed":true,"internalType":"address","name":"playerAddress","type":"address"},{"indexed":false,"internalType":"uint256","name":"newLevel","type":"uint256"}],"name":"PlayerLevelUpdated","type":"event"},{"anonymous":false,"inputs":[{"indexed":true,"internalType":"address","name":"playerAddress","type":"address"},{"indexed":false,"internalType":"uint256","name":"newLevel","type":"uint256"}],"name":"PlayerLeveledUp","type":"event"},{"anonymous":false,"inputs":[{"indexed":true,"internalType":"address","name":"playerAddress","type":"address"},{"indexed":false,"internalType":"uint256","name":"newRodId","type":"uint256"}],"name":"RodChanged","type":"event"},{"anonymous":false,"inputs":[{"indexed":true,"internalType":"bytes32","name":"role","type":"bytes32"},{"indexed":true,"internalType":"bytes32","name":"previousAdminRole","type":"bytes32"},{"indexed":true,"internalType":"bytes32","name":"newAdminRole","type":"bytes32"}],"name":"RoleAdminChanged","type":"event"},{"anonymous":false,"inputs":[{"indexed":true,"internalType":"bytes32","name":"role","type":"bytes32"},{"indexed":true,"internalType":"address","name":"account","type":"address"},{"indexed":true,"internalType":"address","name":"sender","type":"address"}],"name":"RoleGranted","type":"event"},{"anonymous":false,"inputs":[{"indexed":true,"internalType":"bytes32","name":"role","type":"bytes32"},{"indexed":true,"internalType":"address","name":"account","type":"address"},{"indexed":true,"internalType":"address","name":"sender","type":"address"}],"name":"RoleRevoked","type":"event"},{"anonymous":false,"inputs":[{"components":[{"internalType":"uint256","name":"fishingCount","type":"uint256"},{"internalType":"uint256","name":"experience","type":"uint256"},{"internalType":"uint256","name":"level","type":"uint256"},{"internalType":"uint256[5]","name":"unlockedFishingSpots","type":"uint256[5]"},{"internalType":"uint256","name":"currentFishingSpot","type":"uint256"},{"internalType":"uint256","name":"fishPoolLevel","type":"uint256"},{"internalType":"uint256","name":"interestRate","type":"uint256"},{"internalType":"uint256","name":"collectedGMC","type":"uint256"},{"internalType":"uint256","name":"baitCount","type":"uint256"},{"internalType":"uint256[10]","name":"fishCount","type":"uint256[10]"},{"internalType":"uint256","name":"currentFishermanNFT","type":"uint256"},{"internalType":"uint256","name":"currentRodNFT","type":"uint256"}],"indexed":true,"internalType":"struct User.PlayerInfo[]","name":"playerInfo","type":"tuple[]"},{"indexed":true,"internalType":"address[]","name":"playerAddresses","type":"address[]"}],"name":"UserDataUpdate","type":"event"},{"inputs":[],"name":"ADMIN_ROLE","outputs":[{"internalType":"bytes32","name":"","type":"bytes32"}],"stateMutability":"view","type":"function"},{"inputs":[],"name":"DEFAULT_ADMIN_ROLE","outputs":[{"internalType":"bytes32","name":"","type":"bytes32"}],"stateMutability":"view","type":"function"},{"inputs":[],"name":"acceptOwnership","outputs":[],"stateMutability":"nonpayable","type":"function"},{"inputs":[{"internalType":"address","name":"newAdmin","type":"address"}],"name":"addAdmin","outputs":[],"stateMutability":"nonpayable","type":"function"},{"inputs":[{"internalType":"address","name":"userAddress","type":"address"}],"name":"addUser","outputs":[],"stateMutability":"nonpayable","type":"function"},{"inputs":[],"name":"baitPrice","outputs":[{"internalType":"uint256","name":"","type":"uint256"}],"stateMutability":"view","type":"function"},{"inputs":[],"name":"baitPurchaseLimit","outputs":[{"internalType":"uint256","name":"","type":"uint256"}],"stateMutability":"view","type":"function"},{"inputs":[{"internalType":"address","name":"userAddress","type":"address"},{"internalType":"uint256","name":"count","type":"uint256"}],"name":"buyBaits","outputs":[],"stateMutability":"nonpayable","type":"function"},{"inputs":[{"internalType":"address","name":"userAddress","type":"address"},{"internalType":"uint256","name":"fishermanId","type":"uint256"}],"name":"changeFisherman","outputs":[],"stateMutability":"nonpayable","type":"function"},{"inputs":[{"internalType":"uint256","name":"rodId","type":"uint256"},{"internalType":"address","name":"userAddress","type":"address"}],"name":"changeRod","outputs":[],"stateMutability":"nonpayable","type":"function"},{"inputs":[{"internalType":"address","name":"userAddress","type":"address"},{"internalType":"uint256","name":"count","type":"uint256"}],"name":"claimGMC","outputs":[],"stateMutability":"nonpayable","type":"function"},{"inputs":[],"name":"fishermanNFT","outputs":[{"internalType":"contract IFishermanNFT","name":"","type":"address"}],"stateMutability":"view","type":"function"},{"inputs":[],"name":"fishingCountLimit","outputs":[{"internalType":"uint256","name":"","type":"uint256"}],"stateMutability":"view","type":"function"},{"inputs":[],"name":"fishingRodNFT","outputs":[{"internalType":"contract IFishingRodNFT","name":"","type":"address"}],"stateMutability":"view","type":"function"},{"inputs":[{"internalType":"address","name":"playerAddress","type":"address"}],"name":"getBaitCount","outputs":[{"internalType":"uint256","name":"","type":"uint256"}],"stateMutability":"view","type":"function"},{"inputs":[],"name":"getBaitPurchaseLimit","outputs":[{"internalType":"uint256","name":"","type":"uint256"}],"stateMutability":"view","type":"function"},{"inputs":[{"internalType":"address","name":"playerAddress","type":"address"}],"name":"getCollectedGMC","outputs":[{"internalType":"uint256","name":"","type":"uint256"}],"stateMutability":"view","type":"function"},{"inputs":[{"internalType":"address","name":"playerAddress","type":"address"}],"name":"getCurrentFishermanNFT","outputs":[{"internalType":"uint256","name":"","type":"uint256"}],"stateMutability":"view","type":"function"},{"inputs":[{"internalType":"address","name":"playerAddress","type":"address"}],"name":"getCurrentFishingRodNFT","outputs":[{"internalType":"uint256","name":"","type":"uint256"}],"stateMutability":"view","type":"function"},{"inputs":[{"internalType":"address","name":"playerAddress","type":"address"}],"name":"getExperience","outputs":[{"internalType":"uint256","name":"","type":"uint256"}],"stateMutability":"view","type":"function"},{"inputs":[{"internalType":"address","name":"playerAddress","type":"address"}],"name":"getFishCount","outputs":[{"internalType":"uint256[10]","name":"","type":"uint256[10]"}],"stateMutability":"view","type":"function"},{"inputs":[{"internalType":"address","name":"playerAddress","type":"address"}],"name":"getFishPoolLevel","outputs":[{"internalType":"uint256","name":"","type":"uint256"}],"stateMutability":"view","type":"function"},{"inputs":[],"name":"getFishingCountLimit","outputs":[{"internalType":"uint256","name":"","type":"uint256"}],"stateMutability":"view","type":"function"},{"inputs":[],"name":"getLevelUpLimit","outputs":[{"internalType":"uint256","name":"","type":"uint256"}],"stateMutability":"view","type":"function"},{"inputs":[{"internalType":"address","name":"account","type":"address"}],"name":"getPlayerInfo","outputs":[{"components":[{"internalType":"uint256","name":"fishingCount","type":"uint256"},{"internalType":"uint256","name":"experience","type":"uint256"},{"internalType":"uint256","name":"level","type":"uint256"},{"internalType":"uint256[5]","name":"unlockedFishingSpots","type":"uint256[5]"},{"internalType":"uint256","name":"currentFishingSpot","type":"uint256"},{"internalType":"uint256","name":"fishPoolLevel","type":"uint256"},{"internalType":"uint256","name":"interestRate","type":"uint256"},{"internalType":"uint256","name":"collectedGMC","type":"uint256"},{"internalType":"uint256","name":"baitCount","type":"uint256"},{"internalType":"uint256[10]","name":"fishCount","type":"uint256[10]"},{"internalType":"uint256","name":"currentFishermanNFT","type":"uint256"},{"internalType":"uint256","name":"currentRodNFT","type":"uint256"}],"internalType":"struct User.PlayerInfo","name":"","type":"tuple"}],"stateMutability":"view","type":"function"},{"inputs":[{"internalType":"address","name":"playerAddress","type":"address"}],"name":"getPlayerLevel","outputs":[{"internalType":"uint256","name":"","type":"uint256"}],"stateMutability":"view","type":"function"},{"inputs":[{"internalType":"bytes32","name":"role","type":"bytes32"}],"name":"getRoleAdmin","outputs":[{"internalType":"bytes32","name":"","type":"bytes32"}],"stateMutability":"view","type":"function"},{"inputs":[{"internalType":"address","name":"userAddress","type":"address"}],"name":"getUnlockedFishingSpots","outputs":[{"internalType":"uint256[5]","name":"","type":"uint256[5]"}],"stateMutability":"view","type":"function"},{"inputs":[{"internalType":"address","name":"userAddress","type":"address"}],"name":"getUser","outputs":[{"components":[{"internalType":"uint256","name":"fishingCount","type":"uint256"},{"internalType":"uint256","name":"experience","type":"uint256"},{"internalType":"uint256","name":"level","type":"uint256"},{"internalType":"uint256[5]","name":"unlockedFishingSpots","type":"uint256[5]"},{"internalType":"uint256","name":"currentFishingSpot","type":"uint256"},{"internalType":"uint256","name":"fishPoolLevel","type":"uint256"},{"internalType":"uint256","name":"interestRate","type":"uint256"},{"internalType":"uint256","name":"collectedGMC","type":"uint256"},{"internalType":"uint256","name":"baitCount","type":"uint256"},{"internalType":"uint256[10]","name":"fishCount","type":"uint256[10]"},{"internalType":"uint256","name":"currentFishermanNFT","type":"uint256"},{"internalType":"uint256","name":"currentRodNFT","type":"uint256"}],"internalType":"struct User.PlayerInfo","name":"","type":"tuple"}],"stateMutability":"view","type":"function"},{"inputs":[],"name":"gmcContract","outputs":[{"internalType":"contract IGMC","name":"","type":"address"}],"stateMutability":"view","type":"function"},{"inputs":[{"internalType":"bytes32","name":"role","type":"bytes32"},{"internalType":"address","name":"account","type":"address"}],"name":"grantRole","outputs":[],"stateMutability":"nonpayable","type":"function"},{"inputs":[{"internalType":"bytes32","name":"role","type":"bytes32"},{"internalType":"address","name":"account","type":"address"}],"name":"hasRole","outputs":[{"internalType":"bool","name":"","type":"bool"}],"stateMutability":"view","type":"function"},{"inputs":[],"name":"levelUpLimit","outputs":[{"internalType":"uint256","name":"","type":"uint256"}],"stateMutability":"view","type":"function"},{"inputs":[],"name":"owner","outputs":[{"internalType":"address","name":"","type":"address"}],"stateMutability":"view","type":"function"},{"inputs":[{"internalType":"address","name":"admin","type":"address"}],"name":"removeAdmin","outputs":[],"stateMutability":"nonpayable","type":"function"},{"inputs":[],"name":"renounceOwnership","outputs":[],"stateMutability":"nonpayable","type":"function"},{"inputs":[{"internalType":"bytes32","name":"role","type":"bytes32"},{"internalType":"address","name":"account","type":"address"}],"name":"renounceRole","outputs":[],"stateMutability":"nonpayable","type":"function"},{"inputs":[{"internalType":"bytes32","name":"role","type":"bytes32"},{"internalType":"address","name":"account","type":"address"}],"name":"revokeRole","outputs":[],"stateMutability":"nonpayable","type":"function"},{"inputs":[{"internalType":"address","name":"playerAddress","type":"address"},{"internalType":"uint256","name":"newCount","type":"uint256"}],"name":"setBaitCount","outputs":[],"stateMutability":"nonpayable","type":"function"},{"inputs":[{"internalType":"uint256","name":"_baitPurchaseLimit","type":"uint256"}],"name":"setBaitPurchaseLimit","outputs":[],"stateMutability":"nonpayable","type":"function"},{"inputs":[{"internalType":"address","name":"playerAddress","type":"address"},{"internalType":"uint256","name":"newAmount","type":"uint256"}],"name":"setCollectedGMC","outputs":[],"stateMutability":"nonpayable","type":"function"},{"inputs":[{"internalType":"address","name":"userAddress","type":"address"},{"internalType":"uint256","name":"exp","type":"uint256"}],"name":"setExperience","outputs":[],"stateMutability":"nonpayable","type":"function"},{"inputs":[{"internalType":"address","name":"playerAddress","type":"address"},{"internalType":"uint256","name":"star","type":"uint256"},{"internalType":"uint256","name":"newCount","type":"uint256"}],"name":"setFishCount","outputs":[],"stateMutability":"nonpayable","type":"function"},{"inputs":[{"internalType":"address","name":"playerAddress","type":"address"},{"internalType":"uint256","name":"newLevel","type":"uint256"}],"name":"setFishPoolLevel","outputs":[],"stateMutability":"nonpayable","type":"function"},{"inputs":[{"internalType":"address","name":"userAddress","type":"address"},{"internalType":"uint256","name":"count","type":"uint256"}],"name":"setFishingCount","outputs":[],"stateMutability":"nonpayable","type":"function"},{"inputs":[{"internalType":"uint256","name":"_fishingCountLimit","type":"uint256"}],"name":"setFishingCountLimit","outputs":[],"stateMutability":"nonpayable","type":"function"},{"inputs":[{"internalType":"uint256","name":"_levelUpLimit","type":"uint256"}],"name":"setLevelUpLimit","outputs":[],"stateMutability":"nonpayable","type":"function"},{"inputs":[{"internalType":"address","name":"playerAddress","type":"address"},{"internalType":"uint256","name":"newLevel","type":"uint256"}],"name":"setPlayerLevel","outputs":[],"stateMutability":"nonpayable","type":"function"},{"inputs":[{"internalType":"bytes4","name":"interfaceId","type":"bytes4"}],"name":"supportsInterface","outputs":[{"internalType":"bool","name":"","type":"bool"}],"stateMutability":"view","type":"function"},{"inputs":[{"internalType":"address","name":"newOwner","type":"address"}],"name":"transferOwnership","outputs":[],"stateMutability":"nonpayable","type":"function"},{"inputs":[{"internalType":"uint256","name":"_levelUpLimit","type":"uint256"},{"internalType":"uint256","name":"_baitPurchaseLimit","type":"uint256"},{"internalType":"uint256","name":"_fishingCountLimit","type":"uint256"},{"internalType":"uint256","name":"_baitPrice","type":"uint256"}],"name":"updateLimitAttribute","outputs":[],"stateMutability":"nonpayable","type":"function"},{"inputs":[{"components":[{"internalType":"uint256","name":"fishingCount","type":"uint256"},{"internalType":"uint256","name":"experience","type":"uint256"},{"internalType":"uint256","name":"level","type":"uint256"},{"internalType":"uint256[5]","name":"unlockedFishingSpots","type":"uint256[5]"},{"internalType":"uint256","name":"currentFishingSpot","type":"uint256"},{"internalType":"uint256","name":"fishPoolLevel","type":"uint256"},{"internalType":"uint256","name":"interestRate","type":"uint256"},{"internalType":"uint256","name":"collectedGMC","type":"uint256"},{"internalType":"uint256","name":"baitCount","type":"uint256"},{"internalType":"uint256[10]","name":"fishCount","type":"uint256[10]"},{"internalType":"uint256","name":"currentFishermanNFT","type":"uint256"},{"internalType":"uint256","name":"currentRodNFT","type":"uint256"}],"internalType":"struct User.PlayerInfo[]","name":"playerInfo","type":"tuple[]"},{"internalType":"address[]","name":"playerAddresses","type":"address[]"}],"name":"updateUserData","outputs":[],"stateMutability":"nonpayable","type":"function"}],"evm":{"bytecode":{"linkReferences":{},"object":"60806040523480156200001157600080fd5b50604051620061673803806200616783398181016040528101906200003791906200046d565b620000576200004b6200018a60201b60201c565b6200019260201b60201c565b60336006819055506063600781905550600a600881905550806009819055506200008b6000801b336200025660201b60201c565b620000bd7fa49807205ce4d355092ef5a8a18f56e8913cf4a201fbe287825b095693c21775336200025660201b60201c565b83600260006101000a81548173ffffffffffffffffffffffffffffffffffffffff021916908373ffffffffffffffffffffffffffffffffffffffff16021790555082600360006101000a81548173ffffffffffffffffffffffffffffffffffffffff021916908373ffffffffffffffffffffffffffffffffffffffff16021790555081600460006101000a81548173ffffffffffffffffffffffffffffffffffffffff021916908373ffffffffffffffffffffffffffffffffffffffff16021790555050505050620004df565b600033905090565b60008060009054906101000a900473ffffffffffffffffffffffffffffffffffffffff169050816000806101000a81548173ffffffffffffffffffffffffffffffffffffffff021916908373ffffffffffffffffffffffffffffffffffffffff1602179055508173ffffffffffffffffffffffffffffffffffffffff168173ffffffffffffffffffffffffffffffffffffffff167f8be0079c531659141344cd1fd0a4f28419497f9722a3daafe3b4186f6b6457e060405160405180910390a35050565b6200026882826200026c60201b60201c565b5050565b6200027e82826200035d60201b60201c565b6200035957600180600084815260200190815260200160002060000160008373ffffffffffffffffffffffffffffffffffffffff1673ffffffffffffffffffffffffffffffffffffffff16815260200190815260200160002060006101000a81548160ff021916908315150217905550620002fe6200018a60201b60201c565b73ffffffffffffffffffffffffffffffffffffffff168173ffffffffffffffffffffffffffffffffffffffff16837f2f8788117e7eff1d82e926ec794901d17c78024a50270940304540a733656f0d60405160405180910390a45b5050565b60006001600084815260200190815260200160002060000160008373ffffffffffffffffffffffffffffffffffffffff1673ffffffffffffffffffffffffffffffffffffffff16815260200190815260200160002060009054906101000a900460ff16905092915050565b600080fd5b600073ffffffffffffffffffffffffffffffffffffffff82169050919050565b6000620003fa82620003cd565b9050919050565b6200040c81620003ed565b81146200041857600080fd5b50565b6000815190506200042c8162000401565b92915050565b6000819050919050565b620004478162000432565b81146200045357600080fd5b50565b60008151905062000467816200043c565b92915050565b600080600080608085870312156200048a5762000489620003c8565b5b60006200049a878288016200041b565b9450506020620004ad878288016200041b565b9350506040620004c0878288016200041b565b9250506060620004d38782880162000456565b91505092959194509250565b615c7880620004ef6000396000f3fe608060405234801561001057600080fd5b506004361061030c5760003560e01c80638c953a781161019d578063c6051a94116100e9578063e55ae65a116100a2578063eaaaa2341161007c578063eaaaa23414610949578063f206140514610965578063f2fde38b14610983578063f76b7de51461099f5761030c565b8063e55ae65a146108f3578063e678f86c14610911578063e9bcc5f31461092d5761030c565b8063c6051a9414610833578063c8001b7314610863578063cee8b4aa14610881578063d4f08cca1461089f578063d547741f146108bb578063dea90512146108d75761030c565b80639deedd5b11610156578063b474ca7611610130578063b474ca76146107c1578063b5d626c4146107df578063bf129fd0146107fb578063bfb56d62146108175761030c565b80639deedd5b1461076b578063a217fddf14610787578063a63eba48146107a55761030c565b80638c953a78146106835780638ca5f74d146106b35780638da5cb5b146106d157806391d14854146106ef578063951559001461071f5780639af7a00a1461074f5761030c565b806350a4098a1161025c5780636b743a2c11610215578063715018a6116101ef578063715018a61461062157806375b238fc1461062b5780637757346d1461064957806379ba5097146106795761030c565b80636b743a2c146105a55780636f77926b146105d557806370480275146106055761030c565b806350a4098a146104e557806353acd2ab14610503578063593284011461051f578063657a93931461054f5780636667a9a71461056b5780636aba920b146105895761030c565b8063248a9ca3116102c957806334b735a1116102a357806334b735a11461044d57806336568abe1461047d578063421b2d8b1461049957806348aabab2146104b55761030c565b8063248a9ca3146103d15780632f2ff15d1461040157806331c4ecdc1461041d5761030c565b806301ffc9a714610311578063047ac5de146103415780631785f53c1461035f57806318250e071461037b5780631fbff24f14610399578063215c5d00146103b5575b600080fd5b61032b6004803603810190610326919061439d565b6109cf565b60405161033891906143e5565b60405180910390f35b610349610a49565b604051610356919061447f565b60405180910390f35b610379600480360381019061037491906144d8565b610a6f565b005b610383610aa4565b604051610390919061451e565b60405180910390f35b6103b360048036038101906103ae9190614a10565b610aaa565b005b6103cf60048036038101906103ca9190614a88565b61124b565b005b6103eb60048036038101906103e69190614b25565b6112d5565b6040516103f89190614b61565b60405180910390f35b61041b60048036038101906104169190614b7c565b6112f5565b005b610437600480360381019061043291906144d8565b611316565b604051610444919061451e565b60405180910390f35b610467600480360381019061046291906144d8565b6113ee565b604051610474919061451e565b60405180910390f35b61049760048036038101906104929190614b7c565b6114c6565b005b6104b360048036038101906104ae91906144d8565b611549565b005b6104cf60048036038101906104ca91906144d8565b611860565b6040516104dc919061451e565b60405180910390f35b6104ed611938565b6040516104fa9190614bdd565b60405180910390f35b61051d60048036038101906105189190614bf8565b61195e565b005b610539600480360381019061053491906144d8565b611cce565b6040516105469190614e61565b60405180910390f35b61056960048036038101906105649190614e7d565b611e16565b005b610573611e53565b604051610580919061451e565b60405180910390f35b6105a3600480360381019061059e9190614bf8565b611e5d565b005b6105bf60048036038101906105ba91906144d8565b611fb5565b6040516105cc919061451e565b60405180910390f35b6105ef60048036038101906105ea91906144d8565b61208d565b6040516105fc9190614e61565b60405180910390f35b61061f600480360381019061061a91906144d8565b61225e565b005b610629612293565b005b6106336122a7565b6040516106409190614b61565b60405180910390f35b610663600480360381019061065e91906144d8565b6122cb565b604051610670919061451e565b60405180910390f35b6106816123a3565b005b61069d600480360381019061069891906144d8565b61246c565b6040516106aa9190614f0c565b60405180910390f35b6106bb612585565b6040516106c8919061451e565b60405180910390f35b6106d961258f565b6040516106e69190614f36565b60405180910390f35b61070960048036038101906107049190614b7c565b6125b8565b60405161071691906143e5565b60405180910390f35b610739600480360381019061073491906144d8565b612623565b604051610746919061451e565b60405180910390f35b61076960048036038101906107649190614f51565b6126fb565b005b61078560048036038101906107809190614e7d565b612869565b005b61078f6128a6565b60405161079c9190614b61565b60405180910390f35b6107bf60048036038101906107ba9190614bf8565b6128ad565b005b6107c9612a05565b6040516107d6919061451e565b60405180910390f35b6107f960048036038101906107f49190614bf8565b612a0b565b005b61081560048036038101906108109190614bf8565b612c73565b005b610831600480360381019061082c9190614bf8565b612dcb565b005b61084d600480360381019061084891906144d8565b612f2f565b60405161085a9190615006565b60405180910390f35b61086b613048565b6040516108789190615043565b60405180910390f35b61088961306e565b604051610896919061451e565b60405180910390f35b6108b960048036038101906108b49190614bf8565b613074565b005b6108d560048036038101906108d09190614b7c565b6133a2565b005b6108f160048036038101906108ec9190614bf8565b6133c3565b005b6108fb61351b565b604051610908919061451e565b60405180910390f35b61092b60048036038101906109269190614e7d565b613521565b005b6109476004803603810190610942919061505e565b61355e565b005b610963600480360381019061095e9190614bf8565b6138ce565b005b61096d6139a2565b60405161097a919061451e565b60405180910390f35b61099d600480360381019061099891906144d8565b6139ac565b005b6109b960048036038101906109b491906144d8565b613a92565b6040516109c6919061451e565b60405180910390f35b60007f7965db0b000000000000000000000000000000000000000000000000000000007bffffffffffffffffffffffffffffffffffffffffffffffffffffffff1916827bffffffffffffffffffffffffffffffffffffffffffffffffffffffff19161480610a425750610a4182613b6a565b5b9050919050565b600260009054906101000a900473ffffffffffffffffffffffffffffffffffffffff1681565b610a77613bd4565b610aa17fa49807205ce4d355092ef5a8a18f56e8913cf4a201fbe287825b095693c21775826133a2565b50565b60095481565b610ad47fa49807205ce4d355092ef5a8a18f56e8913cf4a201fbe287825b095693c21775336125b8565b610add57600080fd5b8051825114610b21576040517f08c379a0000000000000000000000000000000000000000000000000000000008152600401610b18906150fb565b60405180910390fd5b60005b82518110156111ee57600b6000838381518110610b4457610b4361511b565b5b602002602001015173ffffffffffffffffffffffffffffffffffffffff1673ffffffffffffffffffffffffffffffffffffffff16815260200190815260200160002060009054906101000a900460ff16610bd3576040517f08c379a0000000000000000000000000000000000000000000000000000000008152600401610bca90615196565b60405180910390fd5b828181518110610be657610be561511b565b5b602002602001015160000151600a6000848481518110610c0957610c0861511b565b5b602002602001015173ffffffffffffffffffffffffffffffffffffffff1673ffffffffffffffffffffffffffffffffffffffff16815260200190815260200160002060000181905550828181518110610c6557610c6461511b565b5b602002602001015160200151600a6000848481518110610c8857610c8761511b565b5b602002602001015173ffffffffffffffffffffffffffffffffffffffff1673ffffffffffffffffffffffffffffffffffffffff16815260200190815260200160002060010181905550828181518110610ce457610ce361511b565b5b602002602001015160400151600a6000848481518110610d0757610d0661511b565b5b602002602001015173ffffffffffffffffffffffffffffffffffffffff1673ffffffffffffffffffffffffffffffffffffffff16815260200190815260200160002060020181905550828181518110610d6357610d6261511b565b5b602002602001015160600151600a6000848481518110610d8657610d8561511b565b5b602002602001015173ffffffffffffffffffffffffffffffffffffffff1673ffffffffffffffffffffffffffffffffffffffff168152602001908152602001600020600301906005610dd99291906141e2565b50828181518110610ded57610dec61511b565b5b602002602001015160800151600a6000848481518110610e1057610e0f61511b565b5b602002602001015173ffffffffffffffffffffffffffffffffffffffff1673ffffffffffffffffffffffffffffffffffffffff16815260200190815260200160002060080181905550828181518110610e6c57610e6b61511b565b5b602002602001015160a00151600a6000848481518110610e8f57610e8e61511b565b5b602002602001015173ffffffffffffffffffffffffffffffffffffffff1673ffffffffffffffffffffffffffffffffffffffff16815260200190815260200160002060090181905550828181518110610eeb57610eea61511b565b5b602002602001015160c00151600a6000848481518110610f0e57610f0d61511b565b5b602002602001015173ffffffffffffffffffffffffffffffffffffffff1673ffffffffffffffffffffffffffffffffffffffff168152602001908152602001600020600a0181905550828181518110610f6a57610f6961511b565b5b602002602001015160e00151600a6000848481518110610f8d57610f8c61511b565b5b602002602001015173ffffffffffffffffffffffffffffffffffffffff1673ffffffffffffffffffffffffffffffffffffffff168152602001908152602001600020600b0181905550828181518110610fe957610fe861511b565b5b60200260200101516101000151600a600084848151811061100d5761100c61511b565b5b602002602001015173ffffffffffffffffffffffffffffffffffffffff1673ffffffffffffffffffffffffffffffffffffffff168152602001908152602001600020600c01819055508281815181106110695761106861511b565b5b60200260200101516101200151600a600084848151811061108d5761108c61511b565b5b602002602001015173ffffffffffffffffffffffffffffffffffffffff1673ffffffffffffffffffffffffffffffffffffffff168152602001908152602001600020600d0190600a6110e0929190614222565b508281815181106110f4576110f361511b565b5b60200260200101516101400151600a60008484815181106111185761111761511b565b5b602002602001015173ffffffffffffffffffffffffffffffffffffffff1673ffffffffffffffffffffffffffffffffffffffff168152602001908152602001600020601701819055508281815181106111745761117361511b565b5b60200260200101516101600151600a60008484815181106111985761119761511b565b5b602002602001015173ffffffffffffffffffffffffffffffffffffffff1673ffffffffffffffffffffffffffffffffffffffff168152602001908152602001600020601801819055508080600101915050610b24565b50806040516111fd919061526e565b6040518091039020826040516112139190615530565b60405180910390207fc91fdb6201eb89b7a1b567d23d3c59bbfd7f7d942aa9e8ad346319d17f0b910860405160405180910390a35050565b6112757fa49807205ce4d355092ef5a8a18f56e8913cf4a201fbe287825b095693c21775336125b8565b61127e57600080fd5b836006819055508260078190555081600881905550806009819055506009546007546006547ffb7230b722712fa11b563a061381502fa2e6f8f6432c8af6ec3b309c26e74cb660405160405180910390a450505050565b600060016000838152602001908152602001600020600101549050919050565b6112fe826112d5565b61130781613c52565b6113118383613c66565b505050565b6000600b60008373ffffffffffffffffffffffffffffffffffffffff1673ffffffffffffffffffffffffffffffffffffffff16815260200190815260200160002060009054906101000a900460ff166113a4576040517f08c379a000000000000000000000000000000000000000000000000000000000815260040161139b90615196565b60405180910390fd5b600a60008373ffffffffffffffffffffffffffffffffffffffff1673ffffffffffffffffffffffffffffffffffffffff168152602001908152602001600020600901549050919050565b6000600b60008373ffffffffffffffffffffffffffffffffffffffff1673ffffffffffffffffffffffffffffffffffffffff16815260200190815260200160002060009054906101000a900460ff1661147c576040517f08c379a000000000000000000000000000000000000000000000000000000000815260040161147390615196565b60405180910390fd5b600a60008373ffffffffffffffffffffffffffffffffffffffff1673ffffffffffffffffffffffffffffffffffffffff168152602001908152602001600020600201549050919050565b6114ce613d46565b73ffffffffffffffffffffffffffffffffffffffff168173ffffffffffffffffffffffffffffffffffffffff161461153b576040517f08c379a0000000000000000000000000000000000000000000000000000000008152600401611532906155b9565b60405180910390fd5b6115458282613d4e565b5050565b6115737fa49807205ce4d355092ef5a8a18f56e8913cf4a201fbe287825b095693c21775336125b8565b61157c57600080fd5b600b60008273ffffffffffffffffffffffffffffffffffffffff1673ffffffffffffffffffffffffffffffffffffffff16815260200190815260200160002060009054906101000a900460ff16156115d357600080fd5b604051806101800160405280600a815260200160008152602001600181526020016040518060a001604052806103e981526020016000815260200160008152602001600081526020016000815250815260200160008152602001600181526020016000815260200160008152602001601e8152602001604051806101400160405280600081526020016000815260200160008152602001600081526020016000815260200160008152602001600081526020016000815260200160008152602001600081525081526020017fffffffffffffffffffffffffffffffffffffffffffffffffffffffffffffffff81526020017fffffffffffffffffffffffffffffffffffffffffffffffffffffffffffffffff815250600a60008373ffffffffffffffffffffffffffffffffffffffff1673ffffffffffffffffffffffffffffffffffffffff16815260200190815260200160002060008201518160000155602082015181600101556040820151816002015560608201518160030190600561175c9291906141e2565b506080820151816008015560a0820151816009015560c082015181600a015560e082015181600b015561010082015181600c015561012082015181600d0190600a6117a8929190614222565b50610140820151816017015561016082015181601801559050506001600b60008373ffffffffffffffffffffffffffffffffffffffff1673ffffffffffffffffffffffffffffffffffffffff16815260200190815260200160002060006101000a81548160ff0219169083151502179055508073ffffffffffffffffffffffffffffffffffffffff167ff2ae205522024c14e5a7a26ba6d1fb1252dc8e161b5abc79ed5795fd3c5b926160405160405180910390a250565b6000600b60008373ffffffffffffffffffffffffffffffffffffffff1673ffffffffffffffffffffffffffffffffffffffff16815260200190815260200160002060009054906101000a900460ff166118ee576040517f08c379a00000000000000000000000000000000000000000000000000000000081526004016118e590615196565b60405180910390fd5b600a60008373ffffffffffffffffffffffffffffffffffffffff1673ffffffffffffffffffffffffffffffffffffffff168152602001908152602001600020600c01549050919050565b600360009054906101000a900473ffffffffffffffffffffffffffffffffffffffff1681565b6119887fa49807205ce4d355092ef5a8a18f56e8913cf4a201fbe287825b095693c21775336125b8565b61199157600080fd5b600b60008373ffffffffffffffffffffffffffffffffffffffff1673ffffffffffffffffffffffffffffffffffffffff16815260200190815260200160002060009054906101000a900460ff16611a1d576040517f08c379a0000000000000000000000000000000000000000000000000000000008152600401611a1490615196565b60405180910390fd5b600060608373ffffffffffffffffffffffffffffffffffffffff16600360009054906101000a900473ffffffffffffffffffffffffffffffffffffffff1673ffffffffffffffffffffffffffffffffffffffff16636352211e856040518263ffffffff1660e01b8152600401611a93919061451e565b602060405180830381865afa158015611ab0573d6000803e3d6000fd5b505050506040513d601f19601f82011682018060405250810190611ad491906155ee565b73ffffffffffffffffffffffffffffffffffffffff1614611c2f57600360009054906101000a900473ffffffffffffffffffffffffffffffffffffffff1673ffffffffffffffffffffffffffffffffffffffff166318148f1b856040518263ffffffff1660e01b8152600401611b4a9190614f36565b600060405180830381865afa158015611b67573d6000803e3d6000fd5b505050506040513d6000823e3d601f19601f82011682018060405250810190611b9091906156f3565b9050600081511115611c065780600081518110611bb057611baf61511b565b5b6020026020010151915081600a60008673ffffffffffffffffffffffffffffffffffffffff1673ffffffffffffffffffffffffffffffffffffffff16815260200190815260200160002060170181905550611c2a565b7fffffffffffffffffffffffffffffffffffffffffffffffffffffffffffffffff91505b611c7a565b82600a60008673ffffffffffffffffffffffffffffffffffffffff1673ffffffffffffffffffffffffffffffffffffffff168152602001908152602001600020601701819055508291505b8373ffffffffffffffffffffffffffffffffffffffff167f08e9f015b4a09d3e66a5d3703ecc0d035e52da672786c75b807300bd4a72530d83604051611cc0919061451e565b60405180910390a250505050565b611cd6614262565b600a60008373ffffffffffffffffffffffffffffffffffffffff1673ffffffffffffffffffffffffffffffffffffffff1681526020019081526020016000206040518061018001604052908160008201548152602001600182015481526020016002820154815260200160038201600580602002604051908101604052809291908260058015611d7b576020028201915b815481526020019060010190808311611d67575b505050505081526020016008820154815260200160098201548152602001600a8201548152602001600b8201548152602001600c8201548152602001600d8201600a806020026040519081016040528092919082600a8015611df2576020028201915b815481526020019060010190808311611dde575b50505050508152602001601782015481526020016018820154815250509050919050565b611e407fa49807205ce4d355092ef5a8a18f56e8913cf4a201fbe287825b095693c21775336125b8565b611e4957600080fd5b8060078190555050565b6000600754905090565b611e877fa49807205ce4d355092ef5a8a18f56e8913cf4a201fbe287825b095693c21775336125b8565b611e9057600080fd5b600b60008373ffffffffffffffffffffffffffffffffffffffff1673ffffffffffffffffffffffffffffffffffffffff16815260200190815260200160002060009054906101000a900460ff16611f1c576040517f08c379a0000000000000000000000000000000000000000000000000000000008152600401611f1390615196565b60405180910390fd5b80600a60008473ffffffffffffffffffffffffffffffffffffffff1673ffffffffffffffffffffffffffffffffffffffff168152602001908152602001600020600c01819055508173ffffffffffffffffffffffffffffffffffffffff167f61de7c9c9fef84bf815ad3b2d17a9af3d0655af7a1c9423e5d2dee99ec5c6ffc82604051611fa9919061451e565b60405180910390a25050565b6000600b60008373ffffffffffffffffffffffffffffffffffffffff1673ffffffffffffffffffffffffffffffffffffffff16815260200190815260200160002060009054906101000a900460ff16612043576040517f08c379a000000000000000000000000000000000000000000000000000000000815260040161203a90615196565b60405180910390fd5b600a60008373ffffffffffffffffffffffffffffffffffffffff1673ffffffffffffffffffffffffffffffffffffffff168152602001908152602001600020600101549050919050565b612095614262565b6120bf7fa49807205ce4d355092ef5a8a18f56e8913cf4a201fbe287825b095693c21775336125b8565b6120c857600080fd5b600b60008373ffffffffffffffffffffffffffffffffffffffff1673ffffffffffffffffffffffffffffffffffffffff16815260200190815260200160002060009054906101000a900460ff1661211e57600080fd5b600a60008373ffffffffffffffffffffffffffffffffffffffff1673ffffffffffffffffffffffffffffffffffffffff16815260200190815260200160002060405180610180016040529081600082015481526020016001820154815260200160028201548152602001600382016005806020026040519081016040528092919082600580156121c3576020028201915b8154815260200190600101908083116121af575b505050505081526020016008820154815260200160098201548152602001600a8201548152602001600b8201548152602001600c8201548152602001600d8201600a806020026040519081016040528092919082600a801561223a576020028201915b815481526020019060010190808311612226575b50505050508152602001601782015481526020016018820154815250509050919050565b612266613bd4565b6122907fa49807205ce4d355092ef5a8a18f56e8913cf4a201fbe287825b095693c21775826112f5565b50565b61229b613bd4565b6122a56000613e30565b565b7fa49807205ce4d355092ef5a8a18f56e8913cf4a201fbe287825b095693c2177581565b6000600b60008373ffffffffffffffffffffffffffffffffffffffff1673ffffffffffffffffffffffffffffffffffffffff16815260200190815260200160002060009054906101000a900460ff16612359576040517f08c379a000000000000000000000000000000000000000000000000000000000815260040161235090615196565b60405180910390fd5b600a60008373ffffffffffffffffffffffffffffffffffffffff1673ffffffffffffffffffffffffffffffffffffffff168152602001908152602001600020601801549050919050565b600560009054906101000a900473ffffffffffffffffffffffffffffffffffffffff1673ffffffffffffffffffffffffffffffffffffffff163373ffffffffffffffffffffffffffffffffffffffff16146123fd57600080fd5b612428600560009054906101000a900473ffffffffffffffffffffffffffffffffffffffff16613e30565b6000600560006101000a81548173ffffffffffffffffffffffffffffffffffffffff021916908373ffffffffffffffffffffffffffffffffffffffff160217905550565b6124746142cf565b600b60008373ffffffffffffffffffffffffffffffffffffffff1673ffffffffffffffffffffffffffffffffffffffff16815260200190815260200160002060009054906101000a900460ff16612500576040517f08c379a00000000000000000000000000000000000000000000000000000000081526004016124f790615196565b60405180910390fd5b600a60008373ffffffffffffffffffffffffffffffffffffffff1673ffffffffffffffffffffffffffffffffffffffff168152602001908152602001600020600301600580602002604051908101604052809291908260058015612579576020028201915b815481526020019060010190808311612565575b50505050509050919050565b6000600654905090565b60008060009054906101000a900473ffffffffffffffffffffffffffffffffffffffff16905090565b60006001600084815260200190815260200160002060000160008373ffffffffffffffffffffffffffffffffffffffff1673ffffffffffffffffffffffffffffffffffffffff16815260200190815260200160002060009054906101000a900460ff16905092915050565b6000600b60008373ffffffffffffffffffffffffffffffffffffffff1673ffffffffffffffffffffffffffffffffffffffff16815260200190815260200160002060009054906101000a900460ff166126b1576040517f08c379a00000000000000000000000000000000000000000000000000000000081526004016126a890615196565b60405180910390fd5b600a60008373ffffffffffffffffffffffffffffffffffffffff1673ffffffffffffffffffffffffffffffffffffffff168152602001908152602001600020600b01549050919050565b6127257fa49807205ce4d355092ef5a8a18f56e8913cf4a201fbe287825b095693c21775336125b8565b61272e57600080fd5b600b60008473ffffffffffffffffffffffffffffffffffffffff1673ffffffffffffffffffffffffffffffffffffffff16815260200190815260200160002060009054906101000a900460ff166127ba576040517f08c379a00000000000000000000000000000000000000000000000000000000081526004016127b190615196565b60405180910390fd5b80600a60008573ffffffffffffffffffffffffffffffffffffffff1673ffffffffffffffffffffffffffffffffffffffff168152602001908152602001600020600d0183600a811061280f5761280e61511b565b5b01819055508273ffffffffffffffffffffffffffffffffffffffff167f374ed846dc3e18a969aef22277ce3669832a6ea83e3088149d5b40319413de47838360405161285c92919061573c565b60405180910390a2505050565b6128937fa49807205ce4d355092ef5a8a18f56e8913cf4a201fbe287825b095693c21775336125b8565b61289c57600080fd5b8060088190555050565b6000801b81565b6128d77fa49807205ce4d355092ef5a8a18f56e8913cf4a201fbe287825b095693c21775336125b8565b6128e057600080fd5b600b60008373ffffffffffffffffffffffffffffffffffffffff1673ffffffffffffffffffffffffffffffffffffffff16815260200190815260200160002060009054906101000a900460ff1661296c576040517f08c379a000000000000000000000000000000000000000000000000000000000815260040161296390615196565b60405180910390fd5b80600a60008473ffffffffffffffffffffffffffffffffffffffff1673ffffffffffffffffffffffffffffffffffffffff168152602001908152602001600020600b01819055508173ffffffffffffffffffffffffffffffffffffffff167f7f299cebc3c4384ae412a6ba151d00bd215add4b1379155dd71c3376cbf07df6826040516129f9919061451e565b60405180910390a25050565b60075481565b612a357fa49807205ce4d355092ef5a8a18f56e8913cf4a201fbe287825b095693c21775336125b8565b612a3e57600080fd5b600b60008373ffffffffffffffffffffffffffffffffffffffff1673ffffffffffffffffffffffffffffffffffffffff16815260200190815260200160002060009054906101000a900460ff16612aca576040517f08c379a0000000000000000000000000000000000000000000000000000000008152600401612ac190615196565b60405180910390fd5b6000600a60008473ffffffffffffffffffffffffffffffffffffffff1673ffffffffffffffffffffffffffffffffffffffff168152602001908152602001600020600b0154905081811015612b54576040517f08c379a0000000000000000000000000000000000000000000000000000000008152600401612b4b906157b1565b60405180910390fd5b600260009054906101000a900473ffffffffffffffffffffffffffffffffffffffff1673ffffffffffffffffffffffffffffffffffffffff166340c10f1984846040518363ffffffff1660e01b8152600401612bb19291906157d1565b600060405180830381600087803b158015612bcb57600080fd5b505af1158015612bdf573d6000803e3d6000fd5b505050508181612bef9190615829565b600a60008573ffffffffffffffffffffffffffffffffffffffff1673ffffffffffffffffffffffffffffffffffffffff168152602001908152602001600020600b01819055507f190fe81f396538a8654aafa1adcdabc1825d53aa9fa6dd809991683d943e3a178383604051612c669291906157d1565b60405180910390a1505050565b612c9d7fa49807205ce4d355092ef5a8a18f56e8913cf4a201fbe287825b095693c21775336125b8565b612ca657600080fd5b600b60008373ffffffffffffffffffffffffffffffffffffffff1673ffffffffffffffffffffffffffffffffffffffff16815260200190815260200160002060009054906101000a900460ff16612d32576040517f08c379a0000000000000000000000000000000000000000000000000000000008152600401612d2990615196565b60405180910390fd5b80600a60008473ffffffffffffffffffffffffffffffffffffffff1673ffffffffffffffffffffffffffffffffffffffff168152602001908152602001600020600901819055508173ffffffffffffffffffffffffffffffffffffffff167f7ed17f7b101bb354c92f134f7c421a00e511b046abf1edceb1956966e744348082604051612dbf919061451e565b60405180910390a25050565b612df57fa49807205ce4d355092ef5a8a18f56e8913cf4a201fbe287825b095693c21775336125b8565b612dfe57600080fd5b600b60008373ffffffffffffffffffffffffffffffffffffffff1673ffffffffffffffffffffffffffffffffffffffff16815260200190815260200160002060009054906101000a900460ff16612e8a576040517f08c379a0000000000000000000000000000000000000000000000000000000008152600401612e8190615196565b60405180910390fd5b6000600a60008473ffffffffffffffffffffffffffffffffffffffff1673ffffffffffffffffffffffffffffffffffffffff16815260200190815260200160002090508181600101819055508273ffffffffffffffffffffffffffffffffffffffff167f81665166aed8384c9df23393834f1b549569bbb3ca825f52f8390f1bbe163871838360010154604051612f2292919061573c565b60405180910390a2505050565b612f376142f1565b600b60008373ffffffffffffffffffffffffffffffffffffffff1673ffffffffffffffffffffffffffffffffffffffff16815260200190815260200160002060009054906101000a900460ff16612fc3576040517f08c379a0000000000000000000000000000000000000000000000000000000008152600401612fba90615196565b60405180910390fd5b600a60008373ffffffffffffffffffffffffffffffffffffffff1673ffffffffffffffffffffffffffffffffffffffff168152602001908152602001600020600d01600a806020026040519081016040528092919082600a801561303c576020028201915b815481526020019060010190808311613028575b50505050509050919050565b600460009054906101000a900473ffffffffffffffffffffffffffffffffffffffff1681565b60065481565b61309e7fa49807205ce4d355092ef5a8a18f56e8913cf4a201fbe287825b095693c21775336125b8565b6130a757600080fd5b600b60008373ffffffffffffffffffffffffffffffffffffffff1673ffffffffffffffffffffffffffffffffffffffff16815260200190815260200160002060009054906101000a900460ff16613133576040517f08c379a000000000000000000000000000000000000000000000000000000000815260040161312a90615196565b60405180910390fd5b600060095482613143919061585d565b905080600260009054906101000a900473ffffffffffffffffffffffffffffffffffffffff1673ffffffffffffffffffffffffffffffffffffffff166370a08231856040518263ffffffff1660e01b81526004016131a19190614f36565b602060405180830381865afa1580156131be573d6000803e3d6000fd5b505050506040513d601f19601f820116820180604052508101906131e2919061589f565b1015613223576040517f08c379a000000000000000000000000000000000000000000000000000000000815260040161321a90615918565b60405180910390fd5b600260009054906101000a900473ffffffffffffffffffffffffffffffffffffffff1673ffffffffffffffffffffffffffffffffffffffff1663beabacc88430846040518463ffffffff1660e01b815260040161328293929190615938565b600060405180830381600087803b15801561329c57600080fd5b505af11580156132b0573d6000803e3d6000fd5b5050505081600a60008573ffffffffffffffffffffffffffffffffffffffff1673ffffffffffffffffffffffffffffffffffffffff168152602001908152602001600020600c016000828254613306919061596f565b925050819055508273ffffffffffffffffffffffffffffffffffffffff167f61de7c9c9fef84bf815ad3b2d17a9af3d0655af7a1c9423e5d2dee99ec5c6ffc600a60008673ffffffffffffffffffffffffffffffffffffffff1673ffffffffffffffffffffffffffffffffffffffff168152602001908152602001600020600c0154604051613395919061451e565b60405180910390a2505050565b6133ab826112d5565b6133b481613c52565b6133be8383613d4e565b505050565b6133ed7fa49807205ce4d355092ef5a8a18f56e8913cf4a201fbe287825b095693c21775336125b8565b6133f657600080fd5b600b60008373ffffffffffffffffffffffffffffffffffffffff1673ffffffffffffffffffffffffffffffffffffffff16815260200190815260200160002060009054906101000a900460ff16613482576040517f08c379a000000000000000000000000000000000000000000000000000000000815260040161347990615196565b60405180910390fd5b80600a60008473ffffffffffffffffffffffffffffffffffffffff1673ffffffffffffffffffffffffffffffffffffffff168152602001908152602001600020600201819055508173ffffffffffffffffffffffffffffffffffffffff167f7b45410837b569e79f978c88fbb1ab01a26d6922675e4de2fc0bae4e0586ceac8260405161350f919061451e565b60405180910390a25050565b60085481565b61354b7fa49807205ce4d355092ef5a8a18f56e8913cf4a201fbe287825b095693c21775336125b8565b61355457600080fd5b8060068190555050565b6135887fa49807205ce4d355092ef5a8a18f56e8913cf4a201fbe287825b095693c21775336125b8565b61359157600080fd5b600b60008273ffffffffffffffffffffffffffffffffffffffff1673ffffffffffffffffffffffffffffffffffffffff16815260200190815260200160002060009054906101000a900460ff1661361d576040517f08c379a000000000000000000000000000000000000000000000000000000000815260040161361490615196565b60405180910390fd5b600060608273ffffffffffffffffffffffffffffffffffffffff16600460009054906101000a900473ffffffffffffffffffffffffffffffffffffffff1673ffffffffffffffffffffffffffffffffffffffff16636352211e866040518263ffffffff1660e01b8152600401613693919061451e565b602060405180830381865afa1580156136b0573d6000803e3d6000fd5b505050506040513d601f19601f820116820180604052508101906136d491906155ee565b73ffffffffffffffffffffffffffffffffffffffff161461382f57600460009054906101000a900473ffffffffffffffffffffffffffffffffffffffff1673ffffffffffffffffffffffffffffffffffffffff166318148f1b846040518263ffffffff1660e01b815260040161374a9190614f36565b600060405180830381865afa158015613767573d6000803e3d6000fd5b505050506040513d6000823e3d601f19601f8201168201806040525081019061379091906156f3565b905060008151111561380657806000815181106137b0576137af61511b565b5b6020026020010151915081600a60008573ffffffffffffffffffffffffffffffffffffffff1673ffffffffffffffffffffffffffffffffffffffff1681526020019081526020016000206018018190555061382a565b7fffffffffffffffffffffffffffffffffffffffffffffffffffffffffffffffff91505b61387a565b83600a60008573ffffffffffffffffffffffffffffffffffffffff1673ffffffffffffffffffffffffffffffffffffffff168152602001908152602001600020601801819055508391505b8273ffffffffffffffffffffffffffffffffffffffff167fcc9803ff35bbb65900301a2b84f90ad432fd23b513fb5dddcb6f4568cb9c54c9836040516138c0919061451e565b60405180910390a250505050565b6138f87fa49807205ce4d355092ef5a8a18f56e8913cf4a201fbe287825b095693c21775336125b8565b61390157600080fd5b600b60008373ffffffffffffffffffffffffffffffffffffffff1673ffffffffffffffffffffffffffffffffffffffff16815260200190815260200160002060009054906101000a900460ff1661395757600080fd5b80600a60008473ffffffffffffffffffffffffffffffffffffffff1673ffffffffffffffffffffffffffffffffffffffff168152602001908152602001600020600001819055505050565b6000600854905090565b6139b4613bd4565b600073ffffffffffffffffffffffffffffffffffffffff168173ffffffffffffffffffffffffffffffffffffffff16036139ed57600080fd5b80600560006101000a81548173ffffffffffffffffffffffffffffffffffffffff021916908373ffffffffffffffffffffffffffffffffffffffff1602179055508073ffffffffffffffffffffffffffffffffffffffff16613a4d61258f565b73ffffffffffffffffffffffffffffffffffffffff167f38d16b8cac22d99fc7c124b9cd0de2d3fa1faef420bfe791d8c362d765e2270060405160405180910390a350565b6000600b60008373ffffffffffffffffffffffffffffffffffffffff1673ffffffffffffffffffffffffffffffffffffffff16815260200190815260200160002060009054906101000a900460ff16613b20576040517f08c379a0000000000000000000000000000000000000000000000000000000008152600401613b1790615196565b60405180910390fd5b600a60008373ffffffffffffffffffffffffffffffffffffffff1673ffffffffffffffffffffffffffffffffffffffff168152602001908152602001600020601701549050919050565b60007f01ffc9a7000000000000000000000000000000000000000000000000000000007bffffffffffffffffffffffffffffffffffffffffffffffffffffffff1916827bffffffffffffffffffffffffffffffffffffffffffffffffffffffff1916149050919050565b613bdc613d46565b73ffffffffffffffffffffffffffffffffffffffff16613bfa61258f565b73ffffffffffffffffffffffffffffffffffffffff1614613c50576040517f08c379a0000000000000000000000000000000000000000000000000000000008152600401613c47906159ef565b60405180910390fd5b565b613c6381613c5e613d46565b613ef4565b50565b613c7082826125b8565b613d4257600180600084815260200190815260200160002060000160008373ffffffffffffffffffffffffffffffffffffffff1673ffffffffffffffffffffffffffffffffffffffff16815260200190815260200160002060006101000a81548160ff021916908315150217905550613ce7613d46565b73ffffffffffffffffffffffffffffffffffffffff168173ffffffffffffffffffffffffffffffffffffffff16837f2f8788117e7eff1d82e926ec794901d17c78024a50270940304540a733656f0d60405160405180910390a45b5050565b600033905090565b613d5882826125b8565b15613e2c5760006001600084815260200190815260200160002060000160008373ffffffffffffffffffffffffffffffffffffffff1673ffffffffffffffffffffffffffffffffffffffff16815260200190815260200160002060006101000a81548160ff021916908315150217905550613dd1613d46565b73ffffffffffffffffffffffffffffffffffffffff168173ffffffffffffffffffffffffffffffffffffffff16837ff6391f5c32d9c69d2a47ea670b442974b53935d1edc7fd64eb21e047a839171b60405160405180910390a45b5050565b60008060009054906101000a900473ffffffffffffffffffffffffffffffffffffffff169050816000806101000a81548173ffffffffffffffffffffffffffffffffffffffff021916908373ffffffffffffffffffffffffffffffffffffffff1602179055508173ffffffffffffffffffffffffffffffffffffffff168173ffffffffffffffffffffffffffffffffffffffff167f8be0079c531659141344cd1fd0a4f28419497f9722a3daafe3b4186f6b6457e060405160405180910390a35050565b613efe82826125b8565b613f7557613f0b81613f79565b613f198360001c6020613fa6565b604051602001613f2a929190615b18565b6040516020818303038152906040526040517f08c379a0000000000000000000000000000000000000000000000000000000008152600401613f6c9190615b8b565b60405180910390fd5b5050565b6060613f9f8273ffffffffffffffffffffffffffffffffffffffff16601460ff16613fa6565b9050919050565b606060006002836002613fb9919061585d565b613fc3919061596f565b67ffffffffffffffff811115613fdc57613fdb61454f565b5b6040519080825280601f01601f19166020018201604052801561400e5781602001600182028036833780820191505090505b5090507f3000000000000000000000000000000000000000000000000000000000000000816000815181106140465761404561511b565b5b60200101907effffffffffffffffffffffffffffffffffffffffffffffffffffffffffffff1916908160001a9053507f7800000000000000000000000000000000000000000000000000000000000000816001815181106140aa576140a961511b565b5b60200101907effffffffffffffffffffffffffffffffffffffffffffffffffffffffffffff1916908160001a905350600060018460026140ea919061585d565b6140f4919061596f565b90505b6001811115614194577f3031323334353637383961626364656600000000000000000000000000000000600f8616601081106141365761413561511b565b5b1a60f81b82828151811061414d5761414c61511b565b5b60200101907effffffffffffffffffffffffffffffffffffffffffffffffffffffffffffff1916908160001a905350600485901c94508061418d90615bad565b90506140f7565b50600084146141d8576040517f08c379a00000000000000000000000000000000000000000000000000000000081526004016141cf90615c22565b60405180910390fd5b8091505092915050565b8260058101928215614211579160200282015b828111156142105782518255916020019190600101906141f5565b5b50905061421e9190614314565b5090565b82600a8101928215614251579160200282015b82811115614250578251825591602001919060010190614235565b5b50905061425e9190614314565b5090565b60405180610180016040528060008152602001600081526020016000815260200161428b6142cf565b815260200160008152602001600081526020016000815260200160008152602001600081526020016142bb6142f1565b815260200160008152602001600081525090565b6040518060a00160405280600590602082028036833780820191505090505090565b604051806101400160405280600a90602082028036833780820191505090505090565b5b8082111561432d576000816000905550600101614315565b5090565b6000604051905090565b600080fd5b600080fd5b60007fffffffff0000000000000000000000000000000000000000000000000000000082169050919050565b61437a81614345565b811461438557600080fd5b50565b60008135905061439781614371565b92915050565b6000602082840312156143b3576143b261433b565b5b60006143c184828501614388565b91505092915050565b60008115159050919050565b6143df816143ca565b82525050565b60006020820190506143fa60008301846143d6565b92915050565b600073ffffffffffffffffffffffffffffffffffffffff82169050919050565b6000819050919050565b600061444561444061443b84614400565b614420565b614400565b9050919050565b60006144578261442a565b9050919050565b60006144698261444c565b9050919050565b6144798161445e565b82525050565b60006020820190506144946000830184614470565b92915050565b60006144a582614400565b9050919050565b6144b58161449a565b81146144c057600080fd5b50565b6000813590506144d2816144ac565b92915050565b6000602082840312156144ee576144ed61433b565b5b60006144fc848285016144c3565b91505092915050565b6000819050919050565b61451881614505565b82525050565b6000602082019050614533600083018461450f565b92915050565b600080fd5b6000601f19601f8301169050919050565b7f4e487b7100000000000000000000000000000000000000000000000000000000600052604160045260246000fd5b6145878261453e565b810181811067ffffffffffffffff821117156145a6576145a561454f565b5b80604052505050565b60006145b9614331565b90506145c5828261457e565b919050565b600067ffffffffffffffff8211156145e5576145e461454f565b5b602082029050602081019050919050565b600080fd5b600080fd5b61460981614505565b811461461457600080fd5b50565b60008135905061462681614600565b92915050565b600067ffffffffffffffff8211156146475761464661454f565b5b602082029050919050565b60006146656146608461462c565b6145af565b9050806020840283018581111561467f5761467e6145f6565b5b835b818110156146a857806146948882614617565b845260208401935050602081019050614681565b5050509392505050565b600082601f8301126146c7576146c6614539565b5b60056146d4848285614652565b91505092915050565b600067ffffffffffffffff8211156146f8576146f761454f565b5b602082029050919050565b6000614716614711846146dd565b6145af565b905080602084028301858111156147305761472f6145f6565b5b835b8181101561475957806147458882614617565b845260208401935050602081019050614732565b5050509392505050565b600082601f83011261477857614777614539565b5b600a614785848285614703565b91505092915050565b600061032082840312156147a5576147a46145fb565b5b6147b06101806145af565b905060006147c084828501614617565b60008301525060206147d484828501614617565b60208301525060406147e884828501614617565b60408301525060606147fc848285016146b2565b60608301525061010061481184828501614617565b60808301525061012061482684828501614617565b60a08301525061014061483b84828501614617565b60c08301525061016061485084828501614617565b60e08301525061018061486584828501614617565b610100830152506101a061487b84828501614763565b610120830152506102e061489184828501614617565b610140830152506103006148a784828501614617565b6101608301525092915050565b60006148c76148c2846145ca565b6145af565b90508083825260208201905061032084028301858111156148eb576148ea6145f6565b5b835b818110156149155780614900888261478e565b845260208401935050610320810190506148ed565b5050509392505050565b600082601f83011261493457614933614539565b5b81356149448482602086016148b4565b91505092915050565b600067ffffffffffffffff8211156149685761496761454f565b5b602082029050602081019050919050565b600061498c6149878461494d565b6145af565b905080838252602082019050602084028301858111156149af576149ae6145f6565b5b835b818110156149d857806149c488826144c3565b8452602084019350506020810190506149b1565b5050509392505050565b600082601f8301126149f7576149f6614539565b5b8135614a07848260208601614979565b91505092915050565b60008060408385031215614a2757614a2661433b565b5b600083013567ffffffffffffffff811115614a4557614a44614340565b5b614a518582860161491f565b925050602083013567ffffffffffffffff811115614a7257614a71614340565b5b614a7e858286016149e2565b9150509250929050565b60008060008060808587031215614aa257614aa161433b565b5b6000614ab087828801614617565b9450506020614ac187828801614617565b9350506040614ad287828801614617565b9250506060614ae387828801614617565b91505092959194509250565b6000819050919050565b614b0281614aef565b8114614b0d57600080fd5b50565b600081359050614b1f81614af9565b92915050565b600060208284031215614b3b57614b3a61433b565b5b6000614b4984828501614b10565b91505092915050565b614b5b81614aef565b82525050565b6000602082019050614b766000830184614b52565b92915050565b60008060408385031215614b9357614b9261433b565b5b6000614ba185828601614b10565b9250506020614bb2858286016144c3565b9150509250929050565b6000614bc78261444c565b9050919050565b614bd781614bbc565b82525050565b6000602082019050614bf26000830184614bce565b92915050565b60008060408385031215614c0f57614c0e61433b565b5b6000614c1d858286016144c3565b9250506020614c2e85828601614617565b9150509250929050565b614c4181614505565b82525050565b600060059050919050565b600081905092915050565b6000819050919050565b6000614c738383614c38565b60208301905092915050565b6000602082019050919050565b614c9581614c47565b614c9f8184614c52565b9250614caa82614c5d565b8060005b83811015614cdb578151614cc28782614c67565b9650614ccd83614c7f565b925050600181019050614cae565b505050505050565b6000600a9050919050565b600081905092915050565b6000819050919050565b6000602082019050919050565b614d1981614ce3565b614d238184614cee565b9250614d2e82614cf9565b8060005b83811015614d5f578151614d468782614c67565b9650614d5183614d03565b925050600181019050614d32565b505050505050565b61032082016000820151614d7e6000850182614c38565b506020820151614d916020850182614c38565b506040820151614da46040850182614c38565b506060820151614db76060850182614c8c565b506080820151614dcb610100850182614c38565b5060a0820151614ddf610120850182614c38565b5060c0820151614df3610140850182614c38565b5060e0820151614e07610160850182614c38565b50610100820151614e1c610180850182614c38565b50610120820151614e316101a0850182614d10565b50610140820151614e466102e0850182614c38565b50610160820151614e5b610300850182614c38565b50505050565b600061032082019050614e776000830184614d67565b92915050565b600060208284031215614e9357614e9261433b565b5b6000614ea184828501614617565b91505092915050565b600081905092915050565b614ebe81614c47565b614ec88184614eaa565b9250614ed382614c5d565b8060005b83811015614f04578151614eeb8782614c67565b9650614ef683614c7f565b925050600181019050614ed7565b505050505050565b600060a082019050614f216000830184614eb5565b92915050565b614f308161449a565b82525050565b6000602082019050614f4b6000830184614f27565b92915050565b600080600060608486031215614f6a57614f6961433b565b5b6000614f78868287016144c3565b9350506020614f8986828701614617565b9250506040614f9a86828701614617565b9150509250925092565b600081905092915050565b614fb881614ce3565b614fc28184614fa4565b9250614fcd82614cf9565b8060005b83811015614ffe578151614fe58782614c67565b9650614ff083614d03565b925050600181019050614fd1565b505050505050565b60006101408201905061501c6000830184614faf565b92915050565b600061502d8261444c565b9050919050565b61503d81615022565b82525050565b60006020820190506150586000830184615034565b92915050565b600080604083850312156150755761507461433b565b5b600061508385828601614617565b9250506020615094858286016144c3565b9150509250929050565b600082825260208201905092915050565b7f3130320000000000000000000000000000000000000000000000000000000000600082015250565b60006150e560038361509e565b91506150f0826150af565b602082019050919050565b60006020820190508181036000830152615114816150d8565b9050919050565b7f4e487b7100000000000000000000000000000000000000000000000000000000600052603260045260246000fd5b7f3130310000000000000000000000000000000000000000000000000000000000600082015250565b600061518060038361509e565b915061518b8261514a565b602082019050919050565b600060208201905081810360008301526151af81615173565b9050919050565b600081519050919050565b600081905092915050565b6000819050602082019050919050565b6151e58161449a565b82525050565b60006151f783836151dc565b60208301905092915050565b6000602082019050919050565b600061521b826151b6565b61522581856151c1565b9350615230836151cc565b8060005b8381101561526157815161524888826151eb565b975061525383615203565b925050600181019050615234565b5085935050505092915050565b600061527a8284615210565b915081905092915050565b600081519050919050565b600081905092915050565b6000819050602082019050919050565b6152b481614505565b82525050565b60006152c683836152ab565b60208301905092915050565b600081905092915050565b6152e681614c47565b6152f081846152d2565b92506152fb82614c5d565b8060005b8381101561532c57815161531387826152ba565b965061531e83614c7f565b9250506001810190506152ff565b505050505050565b600061534083836152dd565b60a08301905092915050565b600081905092915050565b61536081614ce3565b61536a818461534c565b925061537582614cf9565b8060005b838110156153a657815161538d87826152ba565b965061539883614d03565b925050600181019050615379565b505050505050565b60006153ba8383615357565b6101408301905092915050565b6000820160008201516153da84826152ba565b93505060208201516153ec84826152ba565b93505060408201516153fe84826152ba565b93505060608201516154108482615334565b935050608082015161542284826152ba565b93505060a082015161543484826152ba565b93505060c082015161544684826152ba565b93505060e082015161545884826152ba565b93505061010082015161546b84826152ba565b93505061012082015161547e84826153ae565b93505061014082015161549184826152ba565b9350506101608201516154a484826152ba565b935050505050565b60006154b883836153c7565b6103208301905092915050565b6000602082019050919050565b60006154dd82615285565b6154e78185615290565b93506154f28361529b565b8060005b8381101561552357815161550a88826154ac565b9750615515836154c5565b9250506001810190506154f6565b5085935050505092915050565b600061553c82846154d2565b915081905092915050565b7f416363657373436f6e74726f6c3a2063616e206f6e6c792072656e6f756e636560008201527f20726f6c657320666f722073656c660000000000000000000000000000000000602082015250565b60006155a3602f8361509e565b91506155ae82615547565b604082019050919050565b600060208201905081810360008301526155d281615596565b9050919050565b6000815190506155e8816144ac565b92915050565b6000602082840312156156045761560361433b565b5b6000615612848285016155d9565b91505092915050565b600067ffffffffffffffff8211156156365761563561454f565b5b602082029050602081019050919050565b60008151905061565681614600565b92915050565b600061566f61566a8461561b565b6145af565b90508083825260208201905060208402830185811115615692576156916145f6565b5b835b818110156156bb57806156a78882615647565b845260208401935050602081019050615694565b5050509392505050565b600082601f8301126156da576156d9614539565b5b81516156ea84826020860161565c565b91505092915050565b6000602082840312156157095761570861433b565b5b600082015167ffffffffffffffff81111561572757615726614340565b5b615733848285016156c5565b91505092915050565b6000604082019050615751600083018561450f565b61575e602083018461450f565b9392505050565b7f3130340000000000000000000000000000000000000000000000000000000000600082015250565b600061579b60038361509e565b91506157a682615765565b602082019050919050565b600060208201905081810360008301526157ca8161578e565b9050919050565b60006040820190506157e66000830185614f27565b6157f3602083018461450f565b9392505050565b7f4e487b7100000000000000000000000000000000000000000000000000000000600052601160045260246000fd5b600061583482614505565b915061583f83614505565b9250828203905081811115615857576158566157fa565b5b92915050565b600061586882614505565b915061587383614505565b925082820261588181614505565b91508282048414831517615898576158976157fa565b5b5092915050565b6000602082840312156158b5576158b461433b565b5b60006158c384828501615647565b91505092915050565b7f3130330000000000000000000000000000000000000000000000000000000000600082015250565b600061590260038361509e565b915061590d826158cc565b602082019050919050565b60006020820190508181036000830152615931816158f5565b9050919050565b600060608201905061594d6000830186614f27565b61595a6020830185614f27565b615967604083018461450f565b949350505050565b600061597a82614505565b915061598583614505565b925082820190508082111561599d5761599c6157fa565b5b92915050565b7f4f776e61626c653a2063616c6c6572206973206e6f7420746865206f776e6572600082015250565b60006159d960208361509e565b91506159e4826159a3565b602082019050919050565b60006020820190508181036000830152615a08816159cc565b9050919050565b600081905092915050565b7f416363657373436f6e74726f6c3a206163636f756e7420000000000000000000600082015250565b6000615a50601783615a0f565b9150615a5b82615a1a565b601782019050919050565b600081519050919050565b60005b83811015615a8f578082015181840152602081019050615a74565b60008484015250505050565b6000615aa682615a66565b615ab08185615a0f565b9350615ac0818560208601615a71565b80840191505092915050565b7f206973206d697373696e6720726f6c6520000000000000000000000000000000600082015250565b6000615b02601183615a0f565b9150615b0d82615acc565b601182019050919050565b6000615b2382615a43565b9150615b2f8285615a9b565b9150615b3a82615af5565b9150615b468284615a9b565b91508190509392505050565b6000615b5d82615a66565b615b67818561509e565b9350615b77818560208601615a71565b615b808161453e565b840191505092915050565b60006020820190508181036000830152615ba58184615b52565b905092915050565b6000615bb882614505565b915060008203615bcb57615bca6157fa565b5b600182039050919050565b7f537472696e67733a20686578206c656e67746820696e73756666696369656e74600082015250565b6000615c0c60208361509e565b9150615c1782615bd6565b602082019050919050565b60006020820190508181036000830152615c3b81615bff565b905091905056fea264697066735822122047339ddb9d0f23917c14e73e655dba632a7a60aec2bc9cf5e5862246ff1b476f64736f6c63430008180033","opcodes":"PUSH1 0x80 PUSH1 0x40 MSTORE CALLVALUE DUP1 ISZERO PUSH3 0x11 JUMPI PUSH1 0x0 DUP1 REVERT JUMPDEST POP PUSH1 0x40 MLOAD PUSH3 0x6167 CODESIZE SUB DUP1 PUSH3 0x6167 DUP4 CODECOPY DUP2 DUP2 ADD PUSH1 0x40 MSTORE DUP2 ADD SWAP1 PUSH3 0x37 SWAP2 SWAP1 PUSH3 0x46D JUMP JUMPDEST PUSH3 0x57 PUSH3 0x4B PUSH3 0x18A PUSH1 0x20 SHL PUSH1 0x20 SHR JUMP JUMPDEST PUSH3 0x192 PUSH1 0x20 SHL PUSH1 0x20 SHR JUMP JUMPDEST PUSH1 0x33 PUSH1 0x6 DUP2 SWAP1 SSTORE POP PUSH1 0x63 PUSH1 0x7 DUP2 SWAP1 SSTORE POP PUSH1 0xA PUSH1 0x8 DUP2 SWAP1 SSTORE POP DUP1 PUSH1 0x9 DUP2 SWAP1 SSTORE POP PUSH3 0x8B PUSH1 0x0 DUP1 SHL CALLER PUSH3 0x256 PUSH1 0x20 SHL PUSH1 0x20 SHR JUMP JUMPDEST PUSH3 0xBD PUSH32 0xA49807205CE4D355092EF5A8A18F56E8913CF4A201FBE287825B095693C21775 CALLER PUSH3 0x256 PUSH1 0x20 SHL PUSH1 0x20 SHR JUMP JUMPDEST DUP4 PUSH1 0x2 PUSH1 0x0 PUSH2 0x100 EXP DUP2 SLOAD DUP2 PUSH20 0xFFFFFFFFFFFFFFFFFFFFFFFFFFFFFFFFFFFFFFFF MUL NOT AND SWAP1 DUP4 PUSH20 0xFFFFFFFFFFFFFFFFFFFFFFFFFFFFFFFFFFFFFFFF AND MUL OR SWAP1 SSTORE POP DUP3 PUSH1 0x3 PUSH1 0x0 PUSH2 0x100 EXP DUP2 SLOAD DUP2 PUSH20 0xFFFFFFFFFFFFFFFFFFFFFFFFFFFFFFFFFFFFFFFF MUL NOT AND SWAP1 DUP4 PUSH20 0xFFFFFFFFFFFFFFFFFFFFFFFFFFFFFFFFFFFFFFFF AND MUL OR SWAP1 SSTORE POP DUP2 PUSH1 0x4 PUSH1 0x0 PUSH2 0x100 EXP DUP2 SLOAD DUP2 PUSH20 0xFFFFFFFFFFFFFFFFFFFFFFFFFFFFFFFFFFFFFFFF MUL NOT AND SWAP1 DUP4 PUSH20 0xFFFFFFFFFFFFFFFFFFFFFFFFFFFFFFFFFFFFFFFF AND MUL OR SWAP1 SSTORE POP POP POP POP POP PUSH3 0x4DF JUMP JUMPDEST PUSH1 0x0 CALLER SWAP1 POP SWAP1 JUMP JUMPDEST PUSH1 0x0 DUP1 PUSH1 0x0 SWAP1 SLOAD SWAP1 PUSH2 0x100 EXP SWAP1 DIV PUSH20 0xFFFFFFFFFFFFFFFFFFFFFFFFFFFFFFFFFFFFFFFF AND SWAP1 POP DUP2 PUSH1 0x0 DUP1 PUSH2 0x100 EXP DUP2 SLOAD DUP2 PUSH20 0xFFFFFFFFFFFFFFFFFFFFFFFFFFFFFFFFFFFFFFFF MUL NOT AND SWAP1 DUP4 PUSH20 0xFFFFFFFFFFFFFFFFFFFFFFFFFFFFFFFFFFFFFFFF AND MUL OR SWAP1 SSTORE POP DUP2 PUSH20 0xFFFFFFFFFFFFFFFFFFFFFFFFFFFFFFFFFFFFFFFF AND DUP2 PUSH20 0xFFFFFFFFFFFFFFFFFFFFFFFFFFFFFFFFFFFFFFFF AND PUSH32 0x8BE0079C531659141344CD1FD0A4F28419497F9722A3DAAFE3B4186F6B6457E0 PUSH1 0x40 MLOAD PUSH1 0x40 MLOAD DUP1 SWAP2 SUB SWAP1 LOG3 POP POP JUMP JUMPDEST PUSH3 0x268 DUP3 DUP3 PUSH3 0x26C PUSH1 0x20 SHL PUSH1 0x20 SHR JUMP JUMPDEST POP POP JUMP JUMPDEST PUSH3 0x27E DUP3 DUP3 PUSH3 0x35D PUSH1 0x20 SHL PUSH1 0x20 SHR JUMP JUMPDEST PUSH3 0x359 JUMPI PUSH1 0x1 DUP1 PUSH1 0x0 DUP5 DUP2 MSTORE PUSH1 0x20 ADD SWAP1 DUP2 MSTORE PUSH1 0x20 ADD PUSH1 0x0 KECCAK256 PUSH1 0x0 ADD PUSH1 0x0 DUP4 PUSH20 0xFFFFFFFFFFFFFFFFFFFFFFFFFFFFFFFFFFFFFFFF AND PUSH20 0xFFFFFFFFFFFFFFFFFFFFFFFFFFFFFFFFFFFFFFFF AND DUP2 MSTORE PUSH1 0x20 ADD SWAP1 DUP2 MSTORE PUSH1 0x20 ADD PUSH1 0x0 KECCAK256 PUSH1 0x0 PUSH2 0x100 EXP DUP2 SLOAD DUP2 PUSH1 0xFF MUL NOT AND SWAP1 DUP4 ISZERO ISZERO MUL OR SWAP1 SSTORE POP PUSH3 0x2FE PUSH3 0x18A PUSH1 0x20 SHL PUSH1 0x20 SHR JUMP JUMPDEST PUSH20 0xFFFFFFFFFFFFFFFFFFFFFFFFFFFFFFFFFFFFFFFF AND DUP2 PUSH20 0xFFFFFFFFFFFFFFFFFFFFFFFFFFFFFFFFFFFFFFFF AND DUP4 PUSH32 0x2F8788117E7EFF1D82E926EC794901D17C78024A50270940304540A733656F0D PUSH1 0x40 MLOAD PUSH1 0x40 MLOAD DUP1 SWAP2 SUB SWAP1 LOG4 JUMPDEST POP POP JUMP JUMPDEST PUSH1 0x0 PUSH1 0x1 PUSH1 0x0 DUP5 DUP2 MSTORE PUSH1 0x20 ADD SWAP1 DUP2 MSTORE PUSH1 0x20 ADD PUSH1 0x0 KECCAK256 PUSH1 0x0 ADD PUSH1 0x0 DUP4 PUSH20 0xFFFFFFFFFFFFFFFFFFFFFFFFFFFFFFFFFFFFFFFF AND PUSH20 0xFFFFFFFFFFFFFFFFFFFFFFFFFFFFFFFFFFFFFFFF AND DUP2 MSTORE PUSH1 0x20 ADD SWAP1 DUP2 MSTORE PUSH1 0x20 ADD PUSH1 0x0 KECCAK256 PUSH1 0x0 SWAP1 SLOAD SWAP1 PUSH2 0x100 EXP SWAP1 DIV PUSH1 0xFF AND SWAP1 POP SWAP3 SWAP2 POP POP JUMP JUMPDEST PUSH1 0x0 DUP1 REVERT JUMPDEST PUSH1 0x0 PUSH20 0xFFFFFFFFFFFFFFFFFFFFFFFFFFFFFFFFFFFFFFFF DUP3 AND SWAP1 POP SWAP2 SWAP1 POP JUMP JUMPDEST PUSH1 0x0 PUSH3 0x3FA DUP3 PUSH3 0x3CD JUMP JUMPDEST SWAP1 POP SWAP2 SWAP1 POP JUMP JUMPDEST PUSH3 0x40C DUP2 PUSH3 0x3ED JUMP JUMPDEST DUP2 EQ PUSH3 0x418 JUMPI PUSH1 0x0 DUP1 REVERT JUMPDEST POP JUMP JUMPDEST PUSH1 0x0 DUP2 MLOAD SWAP1 POP PUSH3 0x42C DUP2 PUSH3 0x401 JUMP JUMPDEST SWAP3 SWAP2 POP POP JUMP JUMPDEST PUSH1 0x0 DUP2 SWAP1 POP SWAP2 SWAP1 POP JUMP JUMPDEST PUSH3 0x447 DUP2 PUSH3 0x432 JUMP JUMPDEST DUP2 EQ PUSH3 0x453 JUMPI PUSH1 0x0 DUP1 REVERT JUMPDEST POP JUMP JUMPDEST PUSH1 0x0 DUP2 MLOAD SWAP1 POP PUSH3 0x467 DUP2 PUSH3 0x43C JUMP JUMPDEST SWAP3 SWAP2 POP POP JUMP JUMPDEST PUSH1 0x0 DUP1 PUSH1 0x0 DUP1 PUSH1 0x80 DUP6 DUP8 SUB SLT ISZERO PUSH3 0x48A JUMPI PUSH3 0x489 PUSH3 0x3C8 JUMP JUMPDEST JUMPDEST PUSH1 0x0 PUSH3 0x49A DUP8 DUP3 DUP9 ADD PUSH3 0x41B JUMP JUMPDEST SWAP5 POP POP PUSH1 0x20 PUSH3 0x4AD DUP8 DUP3 DUP9 ADD PUSH3 0x41B JUMP JUMPDEST SWAP4 POP POP PUSH1 0x40 PUSH3 0x4C0 DUP8 DUP3 DUP9 ADD PUSH3 0x41B JUMP JUMPDEST SWAP3 POP POP PUSH1 0x60 PUSH3 0x4D3 DUP8 DUP3 DUP9 ADD PUSH3 0x456 JUMP JUMPDEST SWAP2 POP POP SWAP3 SWAP6 SWAP2 SWAP5 POP SWAP3 POP JUMP JUMPDEST PUSH2 0x5C78 DUP1 PUSH3 0x4EF PUSH1 0x0 CODECOPY PUSH1 0x0 RETURN INVALID PUSH1 0x80 PUSH1 0x40 MSTORE CALLVALUE DUP1 ISZERO PUSH2 0x10 JUMPI PUSH1 0x0 DUP1 REVERT JUMPDEST POP PUSH1 0x4 CALLDATASIZE LT PUSH2 0x30C JUMPI PUSH1 0x0 CALLDATALOAD PUSH1 0xE0 SHR DUP1 PUSH4 0x8C953A78 GT PUSH2 0x19D JUMPI DUP1 PUSH4 0xC6051A94 GT PUSH2 0xE9 JUMPI DUP1 PUSH4 0xE55AE65A GT PUSH2 0xA2 JUMPI DUP1 PUSH4 0xEAAAA234 GT PUSH2 0x7C JUMPI DUP1 PUSH4 0xEAAAA234 EQ PUSH2 0x949 JUMPI DUP1 PUSH4 0xF2061405 EQ PUSH2 0x965 JUMPI DUP1 PUSH4 0xF2FDE38B EQ PUSH2 0x983 JUMPI DUP1 PUSH4 0xF76B7DE5 EQ PUSH2 0x99F JUMPI PUSH2 0x30C JUMP JUMPDEST DUP1 PUSH4 0xE55AE65A EQ PUSH2 0x8F3 JUMPI DUP1 PUSH4 0xE678F86C EQ PUSH2 0x911 JUMPI DUP1 PUSH4 0xE9BCC5F3 EQ PUSH2 0x92D JUMPI PUSH2 0x30C JUMP JUMPDEST DUP1 PUSH4 0xC6051A94 EQ PUSH2 0x833 JUMPI DUP1 PUSH4 0xC8001B73 EQ PUSH2 0x863 JUMPI DUP1 PUSH4 0xCEE8B4AA EQ PUSH2 0x881 JUMPI DUP1 PUSH4 0xD4F08CCA EQ PUSH2 0x89F JUMPI DUP1 PUSH4 0xD547741F EQ PUSH2 0x8BB JUMPI DUP1 PUSH4 0xDEA90512 EQ PUSH2 0x8D7 JUMPI PUSH2 0x30C JUMP JUMPDEST DUP1 PUSH4 0x9DEEDD5B GT PUSH2 0x156 JUMPI DUP1 PUSH4 0xB474CA76 GT PUSH2 0x130 JUMPI DUP1 PUSH4 0xB474CA76 EQ PUSH2 0x7C1 JUMPI DUP1 PUSH4 0xB5D626C4 EQ PUSH2 0x7DF JUMPI DUP1 PUSH4 0xBF129FD0 EQ PUSH2 0x7FB JUMPI DUP1 PUSH4 0xBFB56D62 EQ PUSH2 0x817 JUMPI PUSH2 0x30C JUMP JUMPDEST DUP1 PUSH4 0x9DEEDD5B EQ PUSH2 0x76B JUMPI DUP1 PUSH4 0xA217FDDF EQ PUSH2 0x787 JUMPI DUP1 PUSH4 0xA63EBA48 EQ PUSH2 0x7A5 JUMPI PUSH2 0x30C JUMP JUMPDEST DUP1 PUSH4 0x8C953A78 EQ PUSH2 0x683 JUMPI DUP1 PUSH4 0x8CA5F74D EQ PUSH2 0x6B3 JUMPI DUP1 PUSH4 0x8DA5CB5B EQ PUSH2 0x6D1 JUMPI DUP1 PUSH4 0x91D14854 EQ PUSH2 0x6EF JUMPI DUP1 PUSH4 0x95155900 EQ PUSH2 0x71F JUMPI DUP1 PUSH4 0x9AF7A00A EQ PUSH2 0x74F JUMPI PUSH2 0x30C JUMP JUMPDEST DUP1 PUSH4 0x50A4098A GT PUSH2 0x25C JUMPI DUP1 PUSH4 0x6B743A2C GT PUSH2 0x215 JUMPI DUP1 PUSH4 0x715018A6 GT PUSH2 0x1EF JUMPI DUP1 PUSH4 0x715018A6 EQ PUSH2 0x621 JUMPI DUP1 PUSH4 0x75B238FC EQ PUSH2 0x62B JUMPI DUP1 PUSH4 0x7757346D EQ PUSH2 0x649 JUMPI DUP1 PUSH4 0x79BA5097 EQ PUSH2 0x679 JUMPI PUSH2 0x30C JUMP JUMPDEST DUP1 PUSH4 0x6B743A2C EQ PUSH2 0x5A5 JUMPI DUP1 PUSH4 0x6F77926B EQ PUSH2 0x5D5 JUMPI DUP1 PUSH4 0x70480275 EQ PUSH2 0x605 JUMPI PUSH2 0x30C JUMP JUMPDEST DUP1 PUSH4 0x50A4098A EQ PUSH2 0x4E5 JUMPI DUP1 PUSH4 0x53ACD2AB EQ PUSH2 0x503 JUMPI DUP1 PUSH4 0x59328401 EQ PUSH2 0x51F JUMPI DUP1 PUSH4 0x657A9393 EQ PUSH2 0x54F JUMPI DUP1 PUSH4 0x6667A9A7 EQ PUSH2 0x56B JUMPI DUP1 PUSH4 0x6ABA920B EQ PUSH2 0x589 JUMPI PUSH2 0x30C JUMP JUMPDEST DUP1 PUSH4 0x248A9CA3 GT PUSH2 0x2C9 JUMPI DUP1 PUSH4 0x34B735A1 GT PUSH2 0x2A3 JUMPI DUP1 PUSH4 0x34B735A1 EQ PUSH2 0x44D JUMPI DUP1 PUSH4 0x36568ABE EQ PUSH2 0x47D JUMPI DUP1 PUSH4 0x421B2D8B EQ PUSH2 0x499 JUMPI DUP1 PUSH4 0x48AABAB2 EQ PUSH2 0x4B5 JUMPI PUSH2 0x30C JUMP JUMPDEST DUP1 PUSH4 0x248A9CA3 EQ PUSH2 0x3D1 JUMPI DUP1 PUSH4 0x2F2FF15D EQ PUSH2 0x401 JUMPI DUP1 PUSH4 0x31C4ECDC EQ PUSH2 0x41D JUMPI PUSH2 0x30C JUMP JUMPDEST DUP1 PUSH4 0x1FFC9A7 EQ PUSH2 0x311 JUMPI DUP1 PUSH4 0x47AC5DE EQ PUSH2 0x341 JUMPI DUP1 PUSH4 0x1785F53C EQ PUSH2 0x35F JUMPI DUP1 PUSH4 0x18250E07 EQ PUSH2 0x37B JUMPI DUP1 PUSH4 0x1FBFF24F EQ PUSH2 0x399 JUMPI DUP1 PUSH4 0x215C5D00 EQ PUSH2 0x3B5 JUMPI JUMPDEST PUSH1 0x0 DUP1 REVERT JUMPDEST PUSH2 0x32B PUSH1 0x4 DUP1 CALLDATASIZE SUB DUP2 ADD SWAP1 PUSH2 0x326 SWAP2 SWAP1 PUSH2 0x439D JUMP JUMPDEST PUSH2 0x9CF JUMP JUMPDEST PUSH1 0x40 MLOAD PUSH2 0x338 SWAP2 SWAP1 PUSH2 0x43E5 JUMP JUMPDEST PUSH1 0x40 MLOAD DUP1 SWAP2 SUB SWAP1 RETURN JUMPDEST PUSH2 0x349 PUSH2 0xA49 JUMP JUMPDEST PUSH1 0x40 MLOAD PUSH2 0x356 SWAP2 SWAP1 PUSH2 0x447F JUMP JUMPDEST PUSH1 0x40 MLOAD DUP1 SWAP2 SUB SWAP1 RETURN JUMPDEST PUSH2 0x379 PUSH1 0x4 DUP1 CALLDATASIZE SUB DUP2 ADD SWAP1 PUSH2 0x374 SWAP2 SWAP1 PUSH2 0x44D8 JUMP JUMPDEST PUSH2 0xA6F JUMP JUMPDEST STOP JUMPDEST PUSH2 0x383 PUSH2 0xAA4 JUMP JUMPDEST PUSH1 0x40 MLOAD PUSH2 0x390 SWAP2 SWAP1 PUSH2 0x451E JUMP JUMPDEST PUSH1 0x40 MLOAD DUP1 SWAP2 SUB SWAP1 RETURN JUMPDEST PUSH2 0x3B3 PUSH1 0x4 DUP1 CALLDATASIZE SUB DUP2 ADD SWAP1 PUSH2 0x3AE SWAP2 SWAP1 PUSH2 0x4A10 JUMP JUMPDEST PUSH2 0xAAA JUMP JUMPDEST STOP JUMPDEST PUSH2 0x3CF PUSH1 0x4 DUP1 CALLDATASIZE SUB DUP2 ADD SWAP1 PUSH2 0x3CA SWAP2 SWAP1 PUSH2 0x4A88 JUMP JUMPDEST PUSH2 0x124B JUMP JUMPDEST STOP JUMPDEST PUSH2 0x3EB PUSH1 0x4 DUP1 CALLDATASIZE SUB DUP2 ADD SWAP1 PUSH2 0x3E6 SWAP2 SWAP1 PUSH2 0x4B25 JUMP JUMPDEST PUSH2 0x12D5 JUMP JUMPDEST PUSH1 0x40 MLOAD PUSH2 0x3F8 SWAP2 SWAP1 PUSH2 0x4B61 JUMP JUMPDEST PUSH1 0x40 MLOAD DUP1 SWAP2 SUB SWAP1 RETURN JUMPDEST PUSH2 0x41B PUSH1 0x4 DUP1 CALLDATASIZE SUB DUP2 ADD SWAP1 PUSH2 0x416 SWAP2 SWAP1 PUSH2 0x4B7C JUMP JUMPDEST PUSH2 0x12F5 JUMP JUMPDEST STOP JUMPDEST PUSH2 0x437 PUSH1 0x4 DUP1 CALLDATASIZE SUB DUP2 ADD SWAP1 PUSH2 0x432 SWAP2 SWAP1 PUSH2 0x44D8 JUMP JUMPDEST PUSH2 0x1316 JUMP JUMPDEST PUSH1 0x40 MLOAD PUSH2 0x444 SWAP2 SWAP1 PUSH2 0x451E JUMP JUMPDEST PUSH1 0x40 MLOAD DUP1 SWAP2 SUB SWAP1 RETURN JUMPDEST PUSH2 0x467 PUSH1 0x4 DUP1 CALLDATASIZE SUB DUP2 ADD SWAP1 PUSH2 0x462 SWAP2 SWAP1 PUSH2 0x44D8 JUMP JUMPDEST PUSH2 0x13EE JUMP JUMPDEST PUSH1 0x40 MLOAD PUSH2 0x474 SWAP2 SWAP1 PUSH2 0x451E JUMP JUMPDEST PUSH1 0x40 MLOAD DUP1 SWAP2 SUB SWAP1 RETURN JUMPDEST PUSH2 0x497 PUSH1 0x4 DUP1 CALLDATASIZE SUB DUP2 ADD SWAP1 PUSH2 0x492 SWAP2 SWAP1 PUSH2 0x4B7C JUMP JUMPDEST PUSH2 0x14C6 JUMP JUMPDEST STOP JUMPDEST PUSH2 0x4B3 PUSH1 0x4 DUP1 CALLDATASIZE SUB DUP2 ADD SWAP1 PUSH2 0x4AE SWAP2 SWAP1 PUSH2 0x44D8 JUMP JUMPDEST PUSH2 0x1549 JUMP JUMPDEST STOP JUMPDEST PUSH2 0x4CF PUSH1 0x4 DUP1 CALLDATASIZE SUB DUP2 ADD SWAP1 PUSH2 0x4CA SWAP2 SWAP1 PUSH2 0x44D8 JUMP JUMPDEST PUSH2 0x1860 JUMP JUMPDEST PUSH1 0x40 MLOAD PUSH2 0x4DC SWAP2 SWAP1 PUSH2 0x451E JUMP JUMPDEST PUSH1 0x40 MLOAD DUP1 SWAP2 SUB SWAP1 RETURN JUMPDEST PUSH2 0x4ED PUSH2 0x1938 JUMP JUMPDEST PUSH1 0x40 MLOAD PUSH2 0x4FA SWAP2 SWAP1 PUSH2 0x4BDD JUMP JUMPDEST PUSH1 0x40 MLOAD DUP1 SWAP2 SUB SWAP1 RETURN JUMPDEST PUSH2 0x51D PUSH1 0x4 DUP1 CALLDATASIZE SUB DUP2 ADD SWAP1 PUSH2 0x518 SWAP2 SWAP1 PUSH2 0x4BF8 JUMP JUMPDEST PUSH2 0x195E JUMP JUMPDEST STOP JUMPDEST PUSH2 0x539 PUSH1 0x4 DUP1 CALLDATASIZE SUB DUP2 ADD SWAP1 PUSH2 0x534 SWAP2 SWAP1 PUSH2 0x44D8 JUMP JUMPDEST PUSH2 0x1CCE JUMP JUMPDEST PUSH1 0x40 MLOAD PUSH2 0x546 SWAP2 SWAP1 PUSH2 0x4E61 JUMP JUMPDEST PUSH1 0x40 MLOAD DUP1 SWAP2 SUB SWAP1 RETURN JUMPDEST PUSH2 0x569 PUSH1 0x4 DUP1 CALLDATASIZE SUB DUP2 ADD SWAP1 PUSH2 0x564 SWAP2 SWAP1 PUSH2 0x4E7D JUMP JUMPDEST PUSH2 0x1E16 JUMP JUMPDEST STOP JUMPDEST PUSH2 0x573 PUSH2 0x1E53 JUMP JUMPDEST PUSH1 0x40 MLOAD PUSH2 0x580 SWAP2 SWAP1 PUSH2 0x451E JUMP JUMPDEST PUSH1 0x40 MLOAD DUP1 SWAP2 SUB SWAP1 RETURN JUMPDEST PUSH2 0x5A3 PUSH1 0x4 DUP1 CALLDATASIZE SUB DUP2 ADD SWAP1 PUSH2 0x59E SWAP2 SWAP1 PUSH2 0x4BF8 JUMP JUMPDEST PUSH2 0x1E5D JUMP JUMPDEST STOP JUMPDEST PUSH2 0x5BF PUSH1 0x4 DUP1 CALLDATASIZE SUB DUP2 ADD SWAP1 PUSH2 0x5BA SWAP2 SWAP1 PUSH2 0x44D8 JUMP JUMPDEST PUSH2 0x1FB5 JUMP JUMPDEST PUSH1 0x40 MLOAD PUSH2 0x5CC SWAP2 SWAP1 PUSH2 0x451E JUMP JUMPDEST PUSH1 0x40 MLOAD DUP1 SWAP2 SUB SWAP1 RETURN JUMPDEST PUSH2 0x5EF PUSH1 0x4 DUP1 CALLDATASIZE SUB DUP2 ADD SWAP1 PUSH2 0x5EA SWAP2 SWAP1 PUSH2 0x44D8 JUMP JUMPDEST PUSH2 0x208D JUMP JUMPDEST PUSH1 0x40 MLOAD PUSH2 0x5FC SWAP2 SWAP1 PUSH2 0x4E61 JUMP JUMPDEST PUSH1 0x40 MLOAD DUP1 SWAP2 SUB SWAP1 RETURN JUMPDEST PUSH2 0x61F PUSH1 0x4 DUP1 CALLDATASIZE SUB DUP2 ADD SWAP1 PUSH2 0x61A SWAP2 SWAP1 PUSH2 0x44D8 JUMP JUMPDEST PUSH2 0x225E JUMP JUMPDEST STOP JUMPDEST PUSH2 0x629 PUSH2 0x2293 JUMP JUMPDEST STOP JUMPDEST PUSH2 0x633 PUSH2 0x22A7 JUMP JUMPDEST PUSH1 0x40 MLOAD PUSH2 0x640 SWAP2 SWAP1 PUSH2 0x4B61 JUMP JUMPDEST PUSH1 0x40 MLOAD DUP1 SWAP2 SUB SWAP1 RETURN JUMPDEST PUSH2 0x663 PUSH1 0x4 DUP1 CALLDATASIZE SUB DUP2 ADD SWAP1 PUSH2 0x65E SWAP2 SWAP1 PUSH2 0x44D8 JUMP JUMPDEST PUSH2 0x22CB JUMP JUMPDEST PUSH1 0x40 MLOAD PUSH2 0x670 SWAP2 SWAP1 PUSH2 0x451E JUMP JUMPDEST PUSH1 0x40 MLOAD DUP1 SWAP2 SUB SWAP1 RETURN JUMPDEST PUSH2 0x681 PUSH2 0x23A3 JUMP JUMPDEST STOP JUMPDEST PUSH2 0x69D PUSH1 0x4 DUP1 CALLDATASIZE SUB DUP2 ADD SWAP1 PUSH2 0x698 SWAP2 SWAP1 PUSH2 0x44D8 JUMP JUMPDEST PUSH2 0x246C JUMP JUMPDEST PUSH1 0x40 MLOAD PUSH2 0x6AA SWAP2 SWAP1 PUSH2 0x4F0C JUMP JUMPDEST PUSH1 0x40 MLOAD DUP1 SWAP2 SUB SWAP1 RETURN JUMPDEST PUSH2 0x6BB PUSH2 0x2585 JUMP JUMPDEST PUSH1 0x40 MLOAD PUSH2 0x6C8 SWAP2 SWAP1 PUSH2 0x451E JUMP JUMPDEST PUSH1 0x40 MLOAD DUP1 SWAP2 SUB SWAP1 RETURN JUMPDEST PUSH2 0x6D9 PUSH2 0x258F JUMP JUMPDEST PUSH1 0x40 MLOAD PUSH2 0x6E6 SWAP2 SWAP1 PUSH2 0x4F36 JUMP JUMPDEST PUSH1 0x40 MLOAD DUP1 SWAP2 SUB SWAP1 RETURN JUMPDEST PUSH2 0x709 PUSH1 0x4 DUP1 CALLDATASIZE SUB DUP2 ADD SWAP1 PUSH2 0x704 SWAP2 SWAP1 PUSH2 0x4B7C JUMP JUMPDEST PUSH2 0x25B8 JUMP JUMPDEST PUSH1 0x40 MLOAD PUSH2 0x716 SWAP2 SWAP1 PUSH2 0x43E5 JUMP JUMPDEST PUSH1 0x40 MLOAD DUP1 SWAP2 SUB SWAP1 RETURN JUMPDEST PUSH2 0x739 PUSH1 0x4 DUP1 CALLDATASIZE SUB DUP2 ADD SWAP1 PUSH2 0x734 SWAP2 SWAP1 PUSH2 0x44D8 JUMP JUMPDEST PUSH2 0x2623 JUMP JUMPDEST PUSH1 0x40 MLOAD PUSH2 0x746 SWAP2 SWAP1 PUSH2 0x451E JUMP JUMPDEST PUSH1 0x40 MLOAD DUP1 SWAP2 SUB SWAP1 RETURN JUMPDEST PUSH2 0x769 PUSH1 0x4 DUP1 CALLDATASIZE SUB DUP2 ADD SWAP1 PUSH2 0x764 SWAP2 SWAP1 PUSH2 0x4F51 JUMP JUMPDEST PUSH2 0x26FB JUMP JUMPDEST STOP JUMPDEST PUSH2 0x785 PUSH1 0x4 DUP1 CALLDATASIZE SUB DUP2 ADD SWAP1 PUSH2 0x780 SWAP2 SWAP1 PUSH2 0x4E7D JUMP JUMPDEST PUSH2 0x2869 JUMP JUMPDEST STOP JUMPDEST PUSH2 0x78F PUSH2 0x28A6 JUMP JUMPDEST PUSH1 0x40 MLOAD PUSH2 0x79C SWAP2 SWAP1 PUSH2 0x4B61 JUMP JUMPDEST PUSH1 0x40 MLOAD DUP1 SWAP2 SUB SWAP1 RETURN JUMPDEST PUSH2 0x7BF PUSH1 0x4 DUP1 CALLDATASIZE SUB DUP2 ADD SWAP1 PUSH2 0x7BA SWAP2 SWAP1 PUSH2 0x4BF8 JUMP JUMPDEST PUSH2 0x28AD JUMP JUMPDEST STOP JUMPDEST PUSH2 0x7C9 PUSH2 0x2A05 JUMP JUMPDEST PUSH1 0x40 MLOAD PUSH2 0x7D6 SWAP2 SWAP1 PUSH2 0x451E JUMP JUMPDEST PUSH1 0x40 MLOAD DUP1 SWAP2 SUB SWAP1 RETURN JUMPDEST PUSH2 0x7F9 PUSH1 0x4 DUP1 CALLDATASIZE SUB DUP2 ADD SWAP1 PUSH2 0x7F4 SWAP2 SWAP1 PUSH2 0x4BF8 JUMP JUMPDEST PUSH2 0x2A0B JUMP JUMPDEST STOP JUMPDEST PUSH2 0x815 PUSH1 0x4 DUP1 CALLDATASIZE SUB DUP2 ADD SWAP1 PUSH2 0x810 SWAP2 SWAP1 PUSH2 0x4BF8 JUMP JUMPDEST PUSH2 0x2C73 JUMP JUMPDEST STOP JUMPDEST PUSH2 0x831 PUSH1 0x4 DUP1 CALLDATASIZE SUB DUP2 ADD SWAP1 PUSH2 0x82C SWAP2 SWAP1 PUSH2 0x4BF8 JUMP JUMPDEST PUSH2 0x2DCB JUMP JUMPDEST STOP JUMPDEST PUSH2 0x84D PUSH1 0x4 DUP1 CALLDATASIZE SUB DUP2 ADD SWAP1 PUSH2 0x848 SWAP2 SWAP1 PUSH2 0x44D8 JUMP JUMPDEST PUSH2 0x2F2F JUMP JUMPDEST PUSH1 0x40 MLOAD PUSH2 0x85A SWAP2 SWAP1 PUSH2 0x5006 JUMP JUMPDEST PUSH1 0x40 MLOAD DUP1 SWAP2 SUB SWAP1 RETURN JUMPDEST PUSH2 0x86B PUSH2 0x3048 JUMP JUMPDEST PUSH1 0x40 MLOAD PUSH2 0x878 SWAP2 SWAP1 PUSH2 0x5043 JUMP JUMPDEST PUSH1 0x40 MLOAD DUP1 SWAP2 SUB SWAP1 RETURN JUMPDEST PUSH2 0x889 PUSH2 0x306E JUMP JUMPDEST PUSH1 0x40 MLOAD PUSH2 0x896 SWAP2 SWAP1 PUSH2 0x451E JUMP JUMPDEST PUSH1 0x40 MLOAD DUP1 SWAP2 SUB SWAP1 RETURN JUMPDEST PUSH2 0x8B9 PUSH1 0x4 DUP1 CALLDATASIZE SUB DUP2 ADD SWAP1 PUSH2 0x8B4 SWAP2 SWAP1 PUSH2 0x4BF8 JUMP JUMPDEST PUSH2 0x3074 JUMP JUMPDEST STOP JUMPDEST PUSH2 0x8D5 PUSH1 0x4 DUP1 CALLDATASIZE SUB DUP2 ADD SWAP1 PUSH2 0x8D0 SWAP2 SWAP1 PUSH2 0x4B7C JUMP JUMPDEST PUSH2 0x33A2 JUMP JUMPDEST STOP JUMPDEST PUSH2 0x8F1 PUSH1 0x4 DUP1 CALLDATASIZE SUB DUP2 ADD SWAP1 PUSH2 0x8EC SWAP2 SWAP1 PUSH2 0x4BF8 JUMP JUMPDEST PUSH2 0x33C3 JUMP JUMPDEST STOP JUMPDEST PUSH2 0x8FB PUSH2 0x351B JUMP JUMPDEST PUSH1 0x40 MLOAD PUSH2 0x908 SWAP2 SWAP1 PUSH2 0x451E JUMP JUMPDEST PUSH1 0x40 MLOAD DUP1 SWAP2 SUB SWAP1 RETURN JUMPDEST PUSH2 0x92B PUSH1 0x4 DUP1 CALLDATASIZE SUB DUP2 ADD SWAP1 PUSH2 0x926 SWAP2 SWAP1 PUSH2 0x4E7D JUMP JUMPDEST PUSH2 0x3521 JUMP JUMPDEST STOP JUMPDEST PUSH2 0x947 PUSH1 0x4 DUP1 CALLDATASIZE SUB DUP2 ADD SWAP1 PUSH2 0x942 SWAP2 SWAP1 PUSH2 0x505E JUMP JUMPDEST PUSH2 0x355E JUMP JUMPDEST STOP JUMPDEST PUSH2 0x963 PUSH1 0x4 DUP1 CALLDATASIZE SUB DUP2 ADD SWAP1 PUSH2 0x95E SWAP2 SWAP1 PUSH2 0x4BF8 JUMP JUMPDEST PUSH2 0x38CE JUMP JUMPDEST STOP JUMPDEST PUSH2 0x96D PUSH2 0x39A2 JUMP JUMPDEST PUSH1 0x40 MLOAD PUSH2 0x97A SWAP2 SWAP1 PUSH2 0x451E JUMP JUMPDEST PUSH1 0x40 MLOAD DUP1 SWAP2 SUB SWAP1 RETURN JUMPDEST PUSH2 0x99D PUSH1 0x4 DUP1 CALLDATASIZE SUB DUP2 ADD SWAP1 PUSH2 0x998 SWAP2 SWAP1 PUSH2 0x44D8 JUMP JUMPDEST PUSH2 0x39AC JUMP JUMPDEST STOP JUMPDEST PUSH2 0x9B9 PUSH1 0x4 DUP1 CALLDATASIZE SUB DUP2 ADD SWAP1 PUSH2 0x9B4 SWAP2 SWAP1 PUSH2 0x44D8 JUMP JUMPDEST PUSH2 0x3A92 JUMP JUMPDEST PUSH1 0x40 MLOAD PUSH2 0x9C6 SWAP2 SWAP1 PUSH2 0x451E JUMP JUMPDEST PUSH1 0x40 MLOAD DUP1 SWAP2 SUB SWAP1 RETURN JUMPDEST PUSH1 0x0 PUSH32 0x7965DB0B00000000000000000000000000000000000000000000000000000000 PUSH28 0xFFFFFFFFFFFFFFFFFFFFFFFFFFFFFFFFFFFFFFFFFFFFFFFFFFFFFFFF NOT AND DUP3 PUSH28 0xFFFFFFFFFFFFFFFFFFFFFFFFFFFFFFFFFFFFFFFFFFFFFFFFFFFFFFFF NOT AND EQ DUP1 PUSH2 0xA42 JUMPI POP PUSH2 0xA41 DUP3 PUSH2 0x3B6A JUMP JUMPDEST JUMPDEST SWAP1 POP SWAP2 SWAP1 POP JUMP JUMPDEST PUSH1 0x2 PUSH1 0x0 SWAP1 SLOAD SWAP1 PUSH2 0x100 EXP SWAP1 DIV PUSH20 0xFFFFFFFFFFFFFFFFFFFFFFFFFFFFFFFFFFFFFFFF AND DUP2 JUMP JUMPDEST PUSH2 0xA77 PUSH2 0x3BD4 JUMP JUMPDEST PUSH2 0xAA1 PUSH32 0xA49807205CE4D355092EF5A8A18F56E8913CF4A201FBE287825B095693C21775 DUP3 PUSH2 0x33A2 JUMP JUMPDEST POP JUMP JUMPDEST PUSH1 0x9 SLOAD DUP2 JUMP JUMPDEST PUSH2 0xAD4 PUSH32 0xA49807205CE4D355092EF5A8A18F56E8913CF4A201FBE287825B095693C21775 CALLER PUSH2 0x25B8 JUMP JUMPDEST PUSH2 0xADD JUMPI PUSH1 0x0 DUP1 REVERT JUMPDEST DUP1 MLOAD DUP3 MLOAD EQ PUSH2 0xB21 JUMPI PUSH1 0x40 MLOAD PUSH32 0x8C379A000000000000000000000000000000000000000000000000000000000 DUP2 MSTORE PUSH1 0x4 ADD PUSH2 0xB18 SWAP1 PUSH2 0x50FB JUMP JUMPDEST PUSH1 0x40 MLOAD DUP1 SWAP2 SUB SWAP1 REVERT JUMPDEST PUSH1 0x0 JUMPDEST DUP3 MLOAD DUP2 LT ISZERO PUSH2 0x11EE JUMPI PUSH1 0xB PUSH1 0x0 DUP4 DUP4 DUP2 MLOAD DUP2 LT PUSH2 0xB44 JUMPI PUSH2 0xB43 PUSH2 0x511B JUMP JUMPDEST JUMPDEST PUSH1 0x20 MUL PUSH1 0x20 ADD ADD MLOAD PUSH20 0xFFFFFFFFFFFFFFFFFFFFFFFFFFFFFFFFFFFFFFFF AND PUSH20 0xFFFFFFFFFFFFFFFFFFFFFFFFFFFFFFFFFFFFFFFF AND DUP2 MSTORE PUSH1 0x20 ADD SWAP1 DUP2 MSTORE PUSH1 0x20 ADD PUSH1 0x0 KECCAK256 PUSH1 0x0 SWAP1 SLOAD SWAP1 PUSH2 0x100 EXP SWAP1 DIV PUSH1 0xFF AND PUSH2 0xBD3 JUMPI PUSH1 0x40 MLOAD PUSH32 0x8C379A000000000000000000000000000000000000000000000000000000000 DUP2 MSTORE PUSH1 0x4 ADD PUSH2 0xBCA SWAP1 PUSH2 0x5196 JUMP JUMPDEST PUSH1 0x40 MLOAD DUP1 SWAP2 SUB SWAP1 REVERT JUMPDEST DUP3 DUP2 DUP2 MLOAD DUP2 LT PUSH2 0xBE6 JUMPI PUSH2 0xBE5 PUSH2 0x511B JUMP JUMPDEST JUMPDEST PUSH1 0x20 MUL PUSH1 0x20 ADD ADD MLOAD PUSH1 0x0 ADD MLOAD PUSH1 0xA PUSH1 0x0 DUP5 DUP5 DUP2 MLOAD DUP2 LT PUSH2 0xC09 JUMPI PUSH2 0xC08 PUSH2 0x511B JUMP JUMPDEST JUMPDEST PUSH1 0x20 MUL PUSH1 0x20 ADD ADD MLOAD PUSH20 0xFFFFFFFFFFFFFFFFFFFFFFFFFFFFFFFFFFFFFFFF AND PUSH20 0xFFFFFFFFFFFFFFFFFFFFFFFFFFFFFFFFFFFFFFFF AND DUP2 MSTORE PUSH1 0x20 ADD SWAP1 DUP2 MSTORE PUSH1 0x20 ADD PUSH1 0x0 KECCAK256 PUSH1 0x0 ADD DUP2 SWAP1 SSTORE POP DUP3 DUP2 DUP2 MLOAD DUP2 LT PUSH2 0xC65 JUMPI PUSH2 0xC64 PUSH2 0x511B JUMP JUMPDEST JUMPDEST PUSH1 0x20 MUL PUSH1 0x20 ADD ADD MLOAD PUSH1 0x20 ADD MLOAD PUSH1 0xA PUSH1 0x0 DUP5 DUP5 DUP2 MLOAD DUP2 LT PUSH2 0xC88 JUMPI PUSH2 0xC87 PUSH2 0x511B JUMP JUMPDEST JUMPDEST PUSH1 0x20 MUL PUSH1 0x20 ADD ADD MLOAD PUSH20 0xFFFFFFFFFFFFFFFFFFFFFFFFFFFFFFFFFFFFFFFF AND PUSH20 0xFFFFFFFFFFFFFFFFFFFFFFFFFFFFFFFFFFFFFFFF AND DUP2 MSTORE PUSH1 0x20 ADD SWAP1 DUP2 MSTORE PUSH1 0x20 ADD PUSH1 0x0 KECCAK256 PUSH1 0x1 ADD DUP2 SWAP1 SSTORE POP DUP3 DUP2 DUP2 MLOAD DUP2 LT PUSH2 0xCE4 JUMPI PUSH2 0xCE3 PUSH2 0x511B JUMP JUMPDEST JUMPDEST PUSH1 0x20 MUL PUSH1 0x20 ADD ADD MLOAD PUSH1 0x40 ADD MLOAD PUSH1 0xA PUSH1 0x0 DUP5 DUP5 DUP2 MLOAD DUP2 LT PUSH2 0xD07 JUMPI PUSH2 0xD06 PUSH2 0x511B JUMP JUMPDEST JUMPDEST PUSH1 0x20 MUL PUSH1 0x20 ADD ADD MLOAD PUSH20 0xFFFFFFFFFFFFFFFFFFFFFFFFFFFFFFFFFFFFFFFF AND PUSH20 0xFFFFFFFFFFFFFFFFFFFFFFFFFFFFFFFFFFFFFFFF AND DUP2 MSTORE PUSH1 0x20 ADD SWAP1 DUP2 MSTORE PUSH1 0x20 ADD PUSH1 0x0 KECCAK256 PUSH1 0x2 ADD DUP2 SWAP1 SSTORE POP DUP3 DUP2 DUP2 MLOAD DUP2 LT PUSH2 0xD63 JUMPI PUSH2 0xD62 PUSH2 0x511B JUMP JUMPDEST JUMPDEST PUSH1 0x20 MUL PUSH1 0x20 ADD ADD MLOAD PUSH1 0x60 ADD MLOAD PUSH1 0xA PUSH1 0x0 DUP5 DUP5 DUP2 MLOAD DUP2 LT PUSH2 0xD86 JUMPI PUSH2 0xD85 PUSH2 0x511B JUMP JUMPDEST JUMPDEST PUSH1 0x20 MUL PUSH1 0x20 ADD ADD MLOAD PUSH20 0xFFFFFFFFFFFFFFFFFFFFFFFFFFFFFFFFFFFFFFFF AND PUSH20 0xFFFFFFFFFFFFFFFFFFFFFFFFFFFFFFFFFFFFFFFF AND DUP2 MSTORE PUSH1 0x20 ADD SWAP1 DUP2 MSTORE PUSH1 0x20 ADD PUSH1 0x0 KECCAK256 PUSH1 0x3 ADD SWAP1 PUSH1 0x5 PUSH2 0xDD9 SWAP3 SWAP2 SWAP1 PUSH2 0x41E2 JUMP JUMPDEST POP DUP3 DUP2 DUP2 MLOAD DUP2 LT PUSH2 0xDED JUMPI PUSH2 0xDEC PUSH2 0x511B JUMP JUMPDEST JUMPDEST PUSH1 0x20 MUL PUSH1 0x20 ADD ADD MLOAD PUSH1 0x80 ADD MLOAD PUSH1 0xA PUSH1 0x0 DUP5 DUP5 DUP2 MLOAD DUP2 LT PUSH2 0xE10 JUMPI PUSH2 0xE0F PUSH2 0x511B JUMP JUMPDEST JUMPDEST PUSH1 0x20 MUL PUSH1 0x20 ADD ADD MLOAD PUSH20 0xFFFFFFFFFFFFFFFFFFFFFFFFFFFFFFFFFFFFFFFF AND PUSH20 0xFFFFFFFFFFFFFFFFFFFFFFFFFFFFFFFFFFFFFFFF AND DUP2 MSTORE PUSH1 0x20 ADD SWAP1 DUP2 MSTORE PUSH1 0x20 ADD PUSH1 0x0 KECCAK256 PUSH1 0x8 ADD DUP2 SWAP1 SSTORE POP DUP3 DUP2 DUP2 MLOAD DUP2 LT PUSH2 0xE6C JUMPI PUSH2 0xE6B PUSH2 0x511B JUMP JUMPDEST JUMPDEST PUSH1 0x20 MUL PUSH1 0x20 ADD ADD MLOAD PUSH1 0xA0 ADD MLOAD PUSH1 0xA PUSH1 0x0 DUP5 DUP5 DUP2 MLOAD DUP2 LT PUSH2 0xE8F JUMPI PUSH2 0xE8E PUSH2 0x511B JUMP JUMPDEST JUMPDEST PUSH1 0x20 MUL PUSH1 0x20 ADD ADD MLOAD PUSH20 0xFFFFFFFFFFFFFFFFFFFFFFFFFFFFFFFFFFFFFFFF AND PUSH20 0xFFFFFFFFFFFFFFFFFFFFFFFFFFFFFFFFFFFFFFFF AND DUP2 MSTORE PUSH1 0x20 ADD SWAP1 DUP2 MSTORE PUSH1 0x20 ADD PUSH1 0x0 KECCAK256 PUSH1 0x9 ADD DUP2 SWAP1 SSTORE POP DUP3 DUP2 DUP2 MLOAD DUP2 LT PUSH2 0xEEB JUMPI PUSH2 0xEEA PUSH2 0x511B JUMP JUMPDEST JUMPDEST PUSH1 0x20 MUL PUSH1 0x20 ADD ADD MLOAD PUSH1 0xC0 ADD MLOAD PUSH1 0xA PUSH1 0x0 DUP5 DUP5 DUP2 MLOAD DUP2 LT PUSH2 0xF0E JUMPI PUSH2 0xF0D PUSH2 0x511B JUMP JUMPDEST JUMPDEST PUSH1 0x20 MUL PUSH1 0x20 ADD ADD MLOAD PUSH20 0xFFFFFFFFFFFFFFFFFFFFFFFFFFFFFFFFFFFFFFFF AND PUSH20 0xFFFFFFFFFFFFFFFFFFFFFFFFFFFFFFFFFFFFFFFF AND DUP2 MSTORE PUSH1 0x20 ADD SWAP1 DUP2 MSTORE PUSH1 0x20 ADD PUSH1 0x0 KECCAK256 PUSH1 0xA ADD DUP2 SWAP1 SSTORE POP DUP3 DUP2 DUP2 MLOAD DUP2 LT PUSH2 0xF6A JUMPI PUSH2 0xF69 PUSH2 0x511B JUMP JUMPDEST JUMPDEST PUSH1 0x20 MUL PUSH1 0x20 ADD ADD MLOAD PUSH1 0xE0 ADD MLOAD PUSH1 0xA PUSH1 0x0 DUP5 DUP5 DUP2 MLOAD DUP2 LT PUSH2 0xF8D JUMPI PUSH2 0xF8C PUSH2 0x511B JUMP JUMPDEST JUMPDEST PUSH1 0x20 MUL PUSH1 0x20 ADD ADD MLOAD PUSH20 0xFFFFFFFFFFFFFFFFFFFFFFFFFFFFFFFFFFFFFFFF AND PUSH20 0xFFFFFFFFFFFFFFFFFFFFFFFFFFFFFFFFFFFFFFFF AND DUP2 MSTORE PUSH1 0x20 ADD SWAP1 DUP2 MSTORE PUSH1 0x20 ADD PUSH1 0x0 KECCAK256 PUSH1 0xB ADD DUP2 SWAP1 SSTORE POP DUP3 DUP2 DUP2 MLOAD DUP2 LT PUSH2 0xFE9 JUMPI PUSH2 0xFE8 PUSH2 0x511B JUMP JUMPDEST JUMPDEST PUSH1 0x20 MUL PUSH1 0x20 ADD ADD MLOAD PUSH2 0x100 ADD MLOAD PUSH1 0xA PUSH1 0x0 DUP5 DUP5 DUP2 MLOAD DUP2 LT PUSH2 0x100D JUMPI PUSH2 0x100C PUSH2 0x511B JUMP JUMPDEST JUMPDEST PUSH1 0x20 MUL PUSH1 0x20 ADD ADD MLOAD PUSH20 0xFFFFFFFFFFFFFFFFFFFFFFFFFFFFFFFFFFFFFFFF AND PUSH20 0xFFFFFFFFFFFFFFFFFFFFFFFFFFFFFFFFFFFFFFFF AND DUP2 MSTORE PUSH1 0x20 ADD SWAP1 DUP2 MSTORE PUSH1 0x20 ADD PUSH1 0x0 KECCAK256 PUSH1 0xC ADD DUP2 SWAP1 SSTORE POP DUP3 DUP2 DUP2 MLOAD DUP2 LT PUSH2 0x1069 JUMPI PUSH2 0x1068 PUSH2 0x511B JUMP JUMPDEST JUMPDEST PUSH1 0x20 MUL PUSH1 0x20 ADD ADD MLOAD PUSH2 0x120 ADD MLOAD PUSH1 0xA PUSH1 0x0 DUP5 DUP5 DUP2 MLOAD DUP2 LT PUSH2 0x108D JUMPI PUSH2 0x108C PUSH2 0x511B JUMP JUMPDEST JUMPDEST PUSH1 0x20 MUL PUSH1 0x20 ADD ADD MLOAD PUSH20 0xFFFFFFFFFFFFFFFFFFFFFFFFFFFFFFFFFFFFFFFF AND PUSH20 0xFFFFFFFFFFFFFFFFFFFFFFFFFFFFFFFFFFFFFFFF AND DUP2 MSTORE PUSH1 0x20 ADD SWAP1 DUP2 MSTORE PUSH1 0x20 ADD PUSH1 0x0 KECCAK256 PUSH1 0xD ADD SWAP1 PUSH1 0xA PUSH2 0x10E0 SWAP3 SWAP2 SWAP1 PUSH2 0x4222 JUMP JUMPDEST POP DUP3 DUP2 DUP2 MLOAD DUP2 LT PUSH2 0x10F4 JUMPI PUSH2 0x10F3 PUSH2 0x511B JUMP JUMPDEST JUMPDEST PUSH1 0x20 MUL PUSH1 0x20 ADD ADD MLOAD PUSH2 0x140 ADD MLOAD PUSH1 0xA PUSH1 0x0 DUP5 DUP5 DUP2 MLOAD DUP2 LT PUSH2 0x1118 JUMPI PUSH2 0x1117 PUSH2 0x511B JUMP JUMPDEST JUMPDEST PUSH1 0x20 MUL PUSH1 0x20 ADD ADD MLOAD PUSH20 0xFFFFFFFFFFFFFFFFFFFFFFFFFFFFFFFFFFFFFFFF AND PUSH20 0xFFFFFFFFFFFFFFFFFFFFFFFFFFFFFFFFFFFFFFFF AND DUP2 MSTORE PUSH1 0x20 ADD SWAP1 DUP2 MSTORE PUSH1 0x20 ADD PUSH1 0x0 KECCAK256 PUSH1 0x17 ADD DUP2 SWAP1 SSTORE POP DUP3 DUP2 DUP2 MLOAD DUP2 LT PUSH2 0x1174 JUMPI PUSH2 0x1173 PUSH2 0x511B JUMP JUMPDEST JUMPDEST PUSH1 0x20 MUL PUSH1 0x20 ADD ADD MLOAD PUSH2 0x160 ADD MLOAD PUSH1 0xA PUSH1 0x0 DUP5 DUP5 DUP2 MLOAD DUP2 LT PUSH2 0x1198 JUMPI PUSH2 0x1197 PUSH2 0x511B JUMP JUMPDEST JUMPDEST PUSH1 0x20 MUL PUSH1 0x20 ADD ADD MLOAD PUSH20 0xFFFFFFFFFFFFFFFFFFFFFFFFFFFFFFFFFFFFFFFF AND PUSH20 0xFFFFFFFFFFFFFFFFFFFFFFFFFFFFFFFFFFFFFFFF AND DUP2 MSTORE PUSH1 0x20 ADD SWAP1 DUP2 MSTORE PUSH1 0x20 ADD PUSH1 0x0 KECCAK256 PUSH1 0x18 ADD DUP2 SWAP1 SSTORE POP DUP1 DUP1 PUSH1 0x1 ADD SWAP2 POP POP PUSH2 0xB24 JUMP JUMPDEST POP DUP1 PUSH1 0x40 MLOAD PUSH2 0x11FD SWAP2 SWAP1 PUSH2 0x526E JUMP JUMPDEST PUSH1 0x40 MLOAD DUP1 SWAP2 SUB SWAP1 KECCAK256 DUP3 PUSH1 0x40 MLOAD PUSH2 0x1213 SWAP2 SWAP1 PUSH2 0x5530 JUMP JUMPDEST PUSH1 0x40 MLOAD DUP1 SWAP2 SUB SWAP1 KECCAK256 PUSH32 0xC91FDB6201EB89B7A1B567D23D3C59BBFD7F7D942AA9E8AD346319D17F0B9108 PUSH1 0x40 MLOAD PUSH1 0x40 MLOAD DUP1 SWAP2 SUB SWAP1 LOG3 POP POP JUMP JUMPDEST PUSH2 0x1275 PUSH32 0xA49807205CE4D355092EF5A8A18F56E8913CF4A201FBE287825B095693C21775 CALLER PUSH2 0x25B8 JUMP JUMPDEST PUSH2 0x127E JUMPI PUSH1 0x0 DUP1 REVERT JUMPDEST DUP4 PUSH1 0x6 DUP2 SWAP1 SSTORE POP DUP3 PUSH1 0x7 DUP2 SWAP1 SSTORE POP DUP2 PUSH1 0x8 DUP2 SWAP1 SSTORE POP DUP1 PUSH1 0x9 DUP2 SWAP1 SSTORE POP PUSH1 0x9 SLOAD PUSH1 0x7 SLOAD PUSH1 0x6 SLOAD PUSH32 0xFB7230B722712FA11B563A061381502FA2E6F8F6432C8AF6EC3B309C26E74CB6 PUSH1 0x40 MLOAD PUSH1 0x40 MLOAD DUP1 SWAP2 SUB SWAP1 LOG4 POP POP POP POP JUMP JUMPDEST PUSH1 0x0 PUSH1 0x1 PUSH1 0x0 DUP4 DUP2 MSTORE PUSH1 0x20 ADD SWAP1 DUP2 MSTORE PUSH1 0x20 ADD PUSH1 0x0 KECCAK256 PUSH1 0x1 ADD SLOAD SWAP1 POP SWAP2 SWAP1 POP JUMP JUMPDEST PUSH2 0x12FE DUP3 PUSH2 0x12D5 JUMP JUMPDEST PUSH2 0x1307 DUP2 PUSH2 0x3C52 JUMP JUMPDEST PUSH2 0x1311 DUP4 DUP4 PUSH2 0x3C66 JUMP JUMPDEST POP POP POP JUMP JUMPDEST PUSH1 0x0 PUSH1 0xB PUSH1 0x0 DUP4 PUSH20 0xFFFFFFFFFFFFFFFFFFFFFFFFFFFFFFFFFFFFFFFF AND PUSH20 0xFFFFFFFFFFFFFFFFFFFFFFFFFFFFFFFFFFFFFFFF AND DUP2 MSTORE PUSH1 0x20 ADD SWAP1 DUP2 MSTORE PUSH1 0x20 ADD PUSH1 0x0 KECCAK256 PUSH1 0x0 SWAP1 SLOAD SWAP1 PUSH2 0x100 EXP SWAP1 DIV PUSH1 0xFF AND PUSH2 0x13A4 JUMPI PUSH1 0x40 MLOAD PUSH32 0x8C379A000000000000000000000000000000000000000000000000000000000 DUP2 MSTORE PUSH1 0x4 ADD PUSH2 0x139B SWAP1 PUSH2 0x5196 JUMP JUMPDEST PUSH1 0x40 MLOAD DUP1 SWAP2 SUB SWAP1 REVERT JUMPDEST PUSH1 0xA PUSH1 0x0 DUP4 PUSH20 0xFFFFFFFFFFFFFFFFFFFFFFFFFFFFFFFFFFFFFFFF AND PUSH20 0xFFFFFFFFFFFFFFFFFFFFFFFFFFFFFFFFFFFFFFFF AND DUP2 MSTORE PUSH1 0x20 ADD SWAP1 DUP2 MSTORE PUSH1 0x20 ADD PUSH1 0x0 KECCAK256 PUSH1 0x9 ADD SLOAD SWAP1 POP SWAP2 SWAP1 POP JUMP JUMPDEST PUSH1 0x0 PUSH1 0xB PUSH1 0x0 DUP4 PUSH20 0xFFFFFFFFFFFFFFFFFFFFFFFFFFFFFFFFFFFFFFFF AND PUSH20 0xFFFFFFFFFFFFFFFFFFFFFFFFFFFFFFFFFFFFFFFF AND DUP2 MSTORE PUSH1 0x20 ADD SWAP1 DUP2 MSTORE PUSH1 0x20 ADD PUSH1 0x0 KECCAK256 PUSH1 0x0 SWAP1 SLOAD SWAP1 PUSH2 0x100 EXP SWAP1 DIV PUSH1 0xFF AND PUSH2 0x147C JUMPI PUSH1 0x40 MLOAD PUSH32 0x8C379A000000000000000000000000000000000000000000000000000000000 DUP2 MSTORE PUSH1 0x4 ADD PUSH2 0x1473 SWAP1 PUSH2 0x5196 JUMP JUMPDEST PUSH1 0x40 MLOAD DUP1 SWAP2 SUB SWAP1 REVERT JUMPDEST PUSH1 0xA PUSH1 0x0 DUP4 PUSH20 0xFFFFFFFFFFFFFFFFFFFFFFFFFFFFFFFFFFFFFFFF AND PUSH20 0xFFFFFFFFFFFFFFFFFFFFFFFFFFFFFFFFFFFFFFFF AND DUP2 MSTORE PUSH1 0x20 ADD SWAP1 DUP2 MSTORE PUSH1 0x20 ADD PUSH1 0x0 KECCAK256 PUSH1 0x2 ADD SLOAD SWAP1 POP SWAP2 SWAP1 POP JUMP JUMPDEST PUSH2 0x14CE PUSH2 0x3D46 JUMP JUMPDEST PUSH20 0xFFFFFFFFFFFFFFFFFFFFFFFFFFFFFFFFFFFFFFFF AND DUP2 PUSH20 0xFFFFFFFFFFFFFFFFFFFFFFFFFFFFFFFFFFFFFFFF AND EQ PUSH2 0x153B JUMPI PUSH1 0x40 MLOAD PUSH32 0x8C379A000000000000000000000000000000000000000000000000000000000 DUP2 MSTORE PUSH1 0x4 ADD PUSH2 0x1532 SWAP1 PUSH2 0x55B9 JUMP JUMPDEST PUSH1 0x40 MLOAD DUP1 SWAP2 SUB SWAP1 REVERT JUMPDEST PUSH2 0x1545 DUP3 DUP3 PUSH2 0x3D4E JUMP JUMPDEST POP POP JUMP JUMPDEST PUSH2 0x1573 PUSH32 0xA49807205CE4D355092EF5A8A18F56E8913CF4A201FBE287825B095693C21775 CALLER PUSH2 0x25B8 JUMP JUMPDEST PUSH2 0x157C JUMPI PUSH1 0x0 DUP1 REVERT JUMPDEST PUSH1 0xB PUSH1 0x0 DUP3 PUSH20 0xFFFFFFFFFFFFFFFFFFFFFFFFFFFFFFFFFFFFFFFF AND PUSH20 0xFFFFFFFFFFFFFFFFFFFFFFFFFFFFFFFFFFFFFFFF AND DUP2 MSTORE PUSH1 0x20 ADD SWAP1 DUP2 MSTORE PUSH1 0x20 ADD PUSH1 0x0 KECCAK256 PUSH1 0x0 SWAP1 SLOAD SWAP1 PUSH2 0x100 EXP SWAP1 DIV PUSH1 0xFF AND ISZERO PUSH2 0x15D3 JUMPI PUSH1 0x0 DUP1 REVERT JUMPDEST PUSH1 0x40 MLOAD DUP1 PUSH2 0x180 ADD PUSH1 0x40 MSTORE DUP1 PUSH1 0xA DUP2 MSTORE PUSH1 0x20 ADD PUSH1 0x0 DUP2 MSTORE PUSH1 0x20 ADD PUSH1 0x1 DUP2 MSTORE PUSH1 0x20 ADD PUSH1 0x40 MLOAD DUP1 PUSH1 0xA0 ADD PUSH1 0x40 MSTORE DUP1 PUSH2 0x3E9 DUP2 MSTORE PUSH1 0x20 ADD PUSH1 0x0 DUP2 MSTORE PUSH1 0x20 ADD PUSH1 0x0 DUP2 MSTORE PUSH1 0x20 ADD PUSH1 0x0 DUP2 MSTORE PUSH1 0x20 ADD PUSH1 0x0 DUP2 MSTORE POP DUP2 MSTORE PUSH1 0x20 ADD PUSH1 0x0 DUP2 MSTORE PUSH1 0x20 ADD PUSH1 0x1 DUP2 MSTORE PUSH1 0x20 ADD PUSH1 0x0 DUP2 MSTORE PUSH1 0x20 ADD PUSH1 0x0 DUP2 MSTORE PUSH1 0x20 ADD PUSH1 0x1E DUP2 MSTORE PUSH1 0x20 ADD PUSH1 0x40 MLOAD DUP1 PUSH2 0x140 ADD PUSH1 0x40 MSTORE DUP1 PUSH1 0x0 DUP2 MSTORE PUSH1 0x20 ADD PUSH1 0x0 DUP2 MSTORE PUSH1 0x20 ADD PUSH1 0x0 DUP2 MSTORE PUSH1 0x20 ADD PUSH1 0x0 DUP2 MSTORE PUSH1 0x20 ADD PUSH1 0x0 DUP2 MSTORE PUSH1 0x20 ADD PUSH1 0x0 DUP2 MSTORE PUSH1 0x20 ADD PUSH1 0x0 DUP2 MSTORE PUSH1 0x20 ADD PUSH1 0x0 DUP2 MSTORE PUSH1 0x20 ADD PUSH1 0x0 DUP2 MSTORE PUSH1 0x20 ADD PUSH1 0x0 DUP2 MSTORE POP DUP2 MSTORE PUSH1 0x20 ADD PUSH32 0xFFFFFFFFFFFFFFFFFFFFFFFFFFFFFFFFFFFFFFFFFFFFFFFFFFFFFFFFFFFFFFFF DUP2 MSTORE PUSH1 0x20 ADD PUSH32 0xFFFFFFFFFFFFFFFFFFFFFFFFFFFFFFFFFFFFFFFFFFFFFFFFFFFFFFFFFFFFFFFF DUP2 MSTORE POP PUSH1 0xA PUSH1 0x0 DUP4 PUSH20 0xFFFFFFFFFFFFFFFFFFFFFFFFFFFFFFFFFFFFFFFF AND PUSH20 0xFFFFFFFFFFFFFFFFFFFFFFFFFFFFFFFFFFFFFFFF AND DUP2 MSTORE PUSH1 0x20 ADD SWAP1 DUP2 MSTORE PUSH1 0x20 ADD PUSH1 0x0 KECCAK256 PUSH1 0x0 DUP3 ADD MLOAD DUP2 PUSH1 0x0 ADD SSTORE PUSH1 0x20 DUP3 ADD MLOAD DUP2 PUSH1 0x1 ADD SSTORE PUSH1 0x40 DUP3 ADD MLOAD DUP2 PUSH1 0x2 ADD SSTORE PUSH1 0x60 DUP3 ADD MLOAD DUP2 PUSH1 0x3 ADD SWAP1 PUSH1 0x5 PUSH2 0x175C SWAP3 SWAP2 SWAP1 PUSH2 0x41E2 JUMP JUMPDEST POP PUSH1 0x80 DUP3 ADD MLOAD DUP2 PUSH1 0x8 ADD SSTORE PUSH1 0xA0 DUP3 ADD MLOAD DUP2 PUSH1 0x9 ADD SSTORE PUSH1 0xC0 DUP3 ADD MLOAD DUP2 PUSH1 0xA ADD SSTORE PUSH1 0xE0 DUP3 ADD MLOAD DUP2 PUSH1 0xB ADD SSTORE PUSH2 0x100 DUP3 ADD MLOAD DUP2 PUSH1 0xC ADD SSTORE PUSH2 0x120 DUP3 ADD MLOAD DUP2 PUSH1 0xD ADD SWAP1 PUSH1 0xA PUSH2 0x17A8 SWAP3 SWAP2 SWAP1 PUSH2 0x4222 JUMP JUMPDEST POP PUSH2 0x140 DUP3 ADD MLOAD DUP2 PUSH1 0x17 ADD SSTORE PUSH2 0x160 DUP3 ADD MLOAD DUP2 PUSH1 0x18 ADD SSTORE SWAP1 POP POP PUSH1 0x1 PUSH1 0xB PUSH1 0x0 DUP4 PUSH20 0xFFFFFFFFFFFFFFFFFFFFFFFFFFFFFFFFFFFFFFFF AND PUSH20 0xFFFFFFFFFFFFFFFFFFFFFFFFFFFFFFFFFFFFFFFF AND DUP2 MSTORE PUSH1 0x20 ADD SWAP1 DUP2 MSTORE PUSH1 0x20 ADD PUSH1 0x0 KECCAK256 PUSH1 0x0 PUSH2 0x100 EXP DUP2 SLOAD DUP2 PUSH1 0xFF MUL NOT AND SWAP1 DUP4 ISZERO ISZERO MUL OR SWAP1 SSTORE POP DUP1 PUSH20 0xFFFFFFFFFFFFFFFFFFFFFFFFFFFFFFFFFFFFFFFF AND PUSH32 0xF2AE205522024C14E5A7A26BA6D1FB1252DC8E161B5ABC79ED5795FD3C5B9261 PUSH1 0x40 MLOAD PUSH1 0x40 MLOAD DUP1 SWAP2 SUB SWAP1 LOG2 POP JUMP JUMPDEST PUSH1 0x0 PUSH1 0xB PUSH1 0x0 DUP4 PUSH20 0xFFFFFFFFFFFFFFFFFFFFFFFFFFFFFFFFFFFFFFFF AND PUSH20 0xFFFFFFFFFFFFFFFFFFFFFFFFFFFFFFFFFFFFFFFF AND DUP2 MSTORE PUSH1 0x20 ADD SWAP1 DUP2 MSTORE PUSH1 0x20 ADD PUSH1 0x0 KECCAK256 PUSH1 0x0 SWAP1 SLOAD SWAP1 PUSH2 0x100 EXP SWAP1 DIV PUSH1 0xFF AND PUSH2 0x18EE JUMPI PUSH1 0x40 MLOAD PUSH32 0x8C379A000000000000000000000000000000000000000000000000000000000 DUP2 MSTORE PUSH1 0x4 ADD PUSH2 0x18E5 SWAP1 PUSH2 0x5196 JUMP JUMPDEST PUSH1 0x40 MLOAD DUP1 SWAP2 SUB SWAP1 REVERT JUMPDEST PUSH1 0xA PUSH1 0x0 DUP4 PUSH20 0xFFFFFFFFFFFFFFFFFFFFFFFFFFFFFFFFFFFFFFFF AND PUSH20 0xFFFFFFFFFFFFFFFFFFFFFFFFFFFFFFFFFFFFFFFF AND DUP2 MSTORE PUSH1 0x20 ADD SWAP1 DUP2 MSTORE PUSH1 0x20 ADD PUSH1 0x0 KECCAK256 PUSH1 0xC ADD SLOAD SWAP1 POP SWAP2 SWAP1 POP JUMP JUMPDEST PUSH1 0x3 PUSH1 0x0 SWAP1 SLOAD SWAP1 PUSH2 0x100 EXP SWAP1 DIV PUSH20 0xFFFFFFFFFFFFFFFFFFFFFFFFFFFFFFFFFFFFFFFF AND DUP2 JUMP JUMPDEST PUSH2 0x1988 PUSH32 0xA49807205CE4D355092EF5A8A18F56E8913CF4A201FBE287825B095693C21775 CALLER PUSH2 0x25B8 JUMP JUMPDEST PUSH2 0x1991 JUMPI PUSH1 0x0 DUP1 REVERT JUMPDEST PUSH1 0xB PUSH1 0x0 DUP4 PUSH20 0xFFFFFFFFFFFFFFFFFFFFFFFFFFFFFFFFFFFFFFFF AND PUSH20 0xFFFFFFFFFFFFFFFFFFFFFFFFFFFFFFFFFFFFFFFF AND DUP2 MSTORE PUSH1 0x20 ADD SWAP1 DUP2 MSTORE PUSH1 0x20 ADD PUSH1 0x0 KECCAK256 PUSH1 0x0 SWAP1 SLOAD SWAP1 PUSH2 0x100 EXP SWAP1 DIV PUSH1 0xFF AND PUSH2 0x1A1D JUMPI PUSH1 0x40 MLOAD PUSH32 0x8C379A000000000000000000000000000000000000000000000000000000000 DUP2 MSTORE PUSH1 0x4 ADD PUSH2 0x1A14 SWAP1 PUSH2 0x5196 JUMP JUMPDEST PUSH1 0x40 MLOAD DUP1 SWAP2 SUB SWAP1 REVERT JUMPDEST PUSH1 0x0 PUSH1 0x60 DUP4 PUSH20 0xFFFFFFFFFFFFFFFFFFFFFFFFFFFFFFFFFFFFFFFF AND PUSH1 0x3 PUSH1 0x0 SWAP1 SLOAD SWAP1 PUSH2 0x100 EXP SWAP1 DIV PUSH20 0xFFFFFFFFFFFFFFFFFFFFFFFFFFFFFFFFFFFFFFFF AND PUSH20 0xFFFFFFFFFFFFFFFFFFFFFFFFFFFFFFFFFFFFFFFF AND PUSH4 0x6352211E DUP6 PUSH1 0x40 MLOAD DUP3 PUSH4 0xFFFFFFFF AND PUSH1 0xE0 SHL DUP2 MSTORE PUSH1 0x4 ADD PUSH2 0x1A93 SWAP2 SWAP1 PUSH2 0x451E JUMP JUMPDEST PUSH1 0x20 PUSH1 0x40 MLOAD DUP1 DUP4 SUB DUP2 DUP7 GAS STATICCALL ISZERO DUP1 ISZERO PUSH2 0x1AB0 JUMPI RETURNDATASIZE PUSH1 0x0 DUP1 RETURNDATACOPY RETURNDATASIZE PUSH1 0x0 REVERT JUMPDEST POP POP POP POP PUSH1 0x40 MLOAD RETURNDATASIZE PUSH1 0x1F NOT PUSH1 0x1F DUP3 ADD AND DUP3 ADD DUP1 PUSH1 0x40 MSTORE POP DUP2 ADD SWAP1 PUSH2 0x1AD4 SWAP2 SWAP1 PUSH2 0x55EE JUMP JUMPDEST PUSH20 0xFFFFFFFFFFFFFFFFFFFFFFFFFFFFFFFFFFFFFFFF AND EQ PUSH2 0x1C2F JUMPI PUSH1 0x3 PUSH1 0x0 SWAP1 SLOAD SWAP1 PUSH2 0x100 EXP SWAP1 DIV PUSH20 0xFFFFFFFFFFFFFFFFFFFFFFFFFFFFFFFFFFFFFFFF AND PUSH20 0xFFFFFFFFFFFFFFFFFFFFFFFFFFFFFFFFFFFFFFFF AND PUSH4 0x18148F1B DUP6 PUSH1 0x40 MLOAD DUP3 PUSH4 0xFFFFFFFF AND PUSH1 0xE0 SHL DUP2 MSTORE PUSH1 0x4 ADD PUSH2 0x1B4A SWAP2 SWAP1 PUSH2 0x4F36 JUMP JUMPDEST PUSH1 0x0 PUSH1 0x40 MLOAD DUP1 DUP4 SUB DUP2 DUP7 GAS STATICCALL ISZERO DUP1 ISZERO PUSH2 0x1B67 JUMPI RETURNDATASIZE PUSH1 0x0 DUP1 RETURNDATACOPY RETURNDATASIZE PUSH1 0x0 REVERT JUMPDEST POP POP POP POP PUSH1 0x40 MLOAD RETURNDATASIZE PUSH1 0x0 DUP3 RETURNDATACOPY RETURNDATASIZE PUSH1 0x1F NOT PUSH1 0x1F DUP3 ADD AND DUP3 ADD DUP1 PUSH1 0x40 MSTORE POP DUP2 ADD SWAP1 PUSH2 0x1B90 SWAP2 SWAP1 PUSH2 0x56F3 JUMP JUMPDEST SWAP1 POP PUSH1 0x0 DUP2 MLOAD GT ISZERO PUSH2 0x1C06 JUMPI DUP1 PUSH1 0x0 DUP2 MLOAD DUP2 LT PUSH2 0x1BB0 JUMPI PUSH2 0x1BAF PUSH2 0x511B JUMP JUMPDEST JUMPDEST PUSH1 0x20 MUL PUSH1 0x20 ADD ADD MLOAD SWAP2 POP DUP2 PUSH1 0xA PUSH1 0x0 DUP7 PUSH20 0xFFFFFFFFFFFFFFFFFFFFFFFFFFFFFFFFFFFFFFFF AND PUSH20 0xFFFFFFFFFFFFFFFFFFFFFFFFFFFFFFFFFFFFFFFF AND DUP2 MSTORE PUSH1 0x20 ADD SWAP1 DUP2 MSTORE PUSH1 0x20 ADD PUSH1 0x0 KECCAK256 PUSH1 0x17 ADD DUP2 SWAP1 SSTORE POP PUSH2 0x1C2A JUMP JUMPDEST PUSH32 0xFFFFFFFFFFFFFFFFFFFFFFFFFFFFFFFFFFFFFFFFFFFFFFFFFFFFFFFFFFFFFFFF SWAP2 POP JUMPDEST PUSH2 0x1C7A JUMP JUMPDEST DUP3 PUSH1 0xA PUSH1 0x0 DUP7 PUSH20 0xFFFFFFFFFFFFFFFFFFFFFFFFFFFFFFFFFFFFFFFF AND PUSH20 0xFFFFFFFFFFFFFFFFFFFFFFFFFFFFFFFFFFFFFFFF AND DUP2 MSTORE PUSH1 0x20 ADD SWAP1 DUP2 MSTORE PUSH1 0x20 ADD PUSH1 0x0 KECCAK256 PUSH1 0x17 ADD DUP2 SWAP1 SSTORE POP DUP3 SWAP2 POP JUMPDEST DUP4 PUSH20 0xFFFFFFFFFFFFFFFFFFFFFFFFFFFFFFFFFFFFFFFF AND PUSH32 0x8E9F015B4A09D3E66A5D3703ECC0D035E52DA672786C75B807300BD4A72530D DUP4 PUSH1 0x40 MLOAD PUSH2 0x1CC0 SWAP2 SWAP1 PUSH2 0x451E JUMP JUMPDEST PUSH1 0x40 MLOAD DUP1 SWAP2 SUB SWAP1 LOG2 POP POP POP POP JUMP JUMPDEST PUSH2 0x1CD6 PUSH2 0x4262 JUMP JUMPDEST PUSH1 0xA PUSH1 0x0 DUP4 PUSH20 0xFFFFFFFFFFFFFFFFFFFFFFFFFFFFFFFFFFFFFFFF AND PUSH20 0xFFFFFFFFFFFFFFFFFFFFFFFFFFFFFFFFFFFFFFFF AND DUP2 MSTORE PUSH1 0x20 ADD SWAP1 DUP2 MSTORE PUSH1 0x20 ADD PUSH1 0x0 KECCAK256 PUSH1 0x40 MLOAD DUP1 PUSH2 0x180 ADD PUSH1 0x40 MSTORE SWAP1 DUP2 PUSH1 0x0 DUP3 ADD SLOAD DUP2 MSTORE PUSH1 0x20 ADD PUSH1 0x1 DUP3 ADD SLOAD DUP2 MSTORE PUSH1 0x20 ADD PUSH1 0x2 DUP3 ADD SLOAD DUP2 MSTORE PUSH1 0x20 ADD PUSH1 0x3 DUP3 ADD PUSH1 0x5 DUP1 PUSH1 0x20 MUL PUSH1 0x40 MLOAD SWAP1 DUP2 ADD PUSH1 0x40 MSTORE DUP1 SWAP3 SWAP2 SWAP1 DUP3 PUSH1 0x5 DUP1 ISZERO PUSH2 0x1D7B JUMPI PUSH1 0x20 MUL DUP3 ADD SWAP2 JUMPDEST DUP2 SLOAD DUP2 MSTORE PUSH1 0x20 ADD SWAP1 PUSH1 0x1 ADD SWAP1 DUP1 DUP4 GT PUSH2 0x1D67 JUMPI JUMPDEST POP POP POP POP POP DUP2 MSTORE PUSH1 0x20 ADD PUSH1 0x8 DUP3 ADD SLOAD DUP2 MSTORE PUSH1 0x20 ADD PUSH1 0x9 DUP3 ADD SLOAD DUP2 MSTORE PUSH1 0x20 ADD PUSH1 0xA DUP3 ADD SLOAD DUP2 MSTORE PUSH1 0x20 ADD PUSH1 0xB DUP3 ADD SLOAD DUP2 MSTORE PUSH1 0x20 ADD PUSH1 0xC DUP3 ADD SLOAD DUP2 MSTORE PUSH1 0x20 ADD PUSH1 0xD DUP3 ADD PUSH1 0xA DUP1 PUSH1 0x20 MUL PUSH1 0x40 MLOAD SWAP1 DUP2 ADD PUSH1 0x40 MSTORE DUP1 SWAP3 SWAP2 SWAP1 DUP3 PUSH1 0xA DUP1 ISZERO PUSH2 0x1DF2 JUMPI PUSH1 0x20 MUL DUP3 ADD SWAP2 JUMPDEST DUP2 SLOAD DUP2 MSTORE PUSH1 0x20 ADD SWAP1 PUSH1 0x1 ADD SWAP1 DUP1 DUP4 GT PUSH2 0x1DDE JUMPI JUMPDEST POP POP POP POP POP DUP2 MSTORE PUSH1 0x20 ADD PUSH1 0x17 DUP3 ADD SLOAD DUP2 MSTORE PUSH1 0x20 ADD PUSH1 0x18 DUP3 ADD SLOAD DUP2 MSTORE POP POP SWAP1 POP SWAP2 SWAP1 POP JUMP JUMPDEST PUSH2 0x1E40 PUSH32 0xA49807205CE4D355092EF5A8A18F56E8913CF4A201FBE287825B095693C21775 CALLER PUSH2 0x25B8 JUMP JUMPDEST PUSH2 0x1E49 JUMPI PUSH1 0x0 DUP1 REVERT JUMPDEST DUP1 PUSH1 0x7 DUP2 SWAP1 SSTORE POP POP JUMP JUMPDEST PUSH1 0x0 PUSH1 0x7 SLOAD SWAP1 POP SWAP1 JUMP JUMPDEST PUSH2 0x1E87 PUSH32 0xA49807205CE4D355092EF5A8A18F56E8913CF4A201FBE287825B095693C21775 CALLER PUSH2 0x25B8 JUMP JUMPDEST PUSH2 0x1E90 JUMPI PUSH1 0x0 DUP1 REVERT JUMPDEST PUSH1 0xB PUSH1 0x0 DUP4 PUSH20 0xFFFFFFFFFFFFFFFFFFFFFFFFFFFFFFFFFFFFFFFF AND PUSH20 0xFFFFFFFFFFFFFFFFFFFFFFFFFFFFFFFFFFFFFFFF AND DUP2 MSTORE PUSH1 0x20 ADD SWAP1 DUP2 MSTORE PUSH1 0x20 ADD PUSH1 0x0 KECCAK256 PUSH1 0x0 SWAP1 SLOAD SWAP1 PUSH2 0x100 EXP SWAP1 DIV PUSH1 0xFF AND PUSH2 0x1F1C JUMPI PUSH1 0x40 MLOAD PUSH32 0x8C379A000000000000000000000000000000000000000000000000000000000 DUP2 MSTORE PUSH1 0x4 ADD PUSH2 0x1F13 SWAP1 PUSH2 0x5196 JUMP JUMPDEST PUSH1 0x40 MLOAD DUP1 SWAP2 SUB SWAP1 REVERT JUMPDEST DUP1 PUSH1 0xA PUSH1 0x0 DUP5 PUSH20 0xFFFFFFFFFFFFFFFFFFFFFFFFFFFFFFFFFFFFFFFF AND PUSH20 0xFFFFFFFFFFFFFFFFFFFFFFFFFFFFFFFFFFFFFFFF AND DUP2 MSTORE PUSH1 0x20 ADD SWAP1 DUP2 MSTORE PUSH1 0x20 ADD PUSH1 0x0 KECCAK256 PUSH1 0xC ADD DUP2 SWAP1 SSTORE POP DUP2 PUSH20 0xFFFFFFFFFFFFFFFFFFFFFFFFFFFFFFFFFFFFFFFF AND PUSH32 0x61DE7C9C9FEF84BF815AD3B2D17A9AF3D0655AF7A1C9423E5D2DEE99EC5C6FFC DUP3 PUSH1 0x40 MLOAD PUSH2 0x1FA9 SWAP2 SWAP1 PUSH2 0x451E JUMP JUMPDEST PUSH1 0x40 MLOAD DUP1 SWAP2 SUB SWAP1 LOG2 POP POP JUMP JUMPDEST PUSH1 0x0 PUSH1 0xB PUSH1 0x0 DUP4 PUSH20 0xFFFFFFFFFFFFFFFFFFFFFFFFFFFFFFFFFFFFFFFF AND PUSH20 0xFFFFFFFFFFFFFFFFFFFFFFFFFFFFFFFFFFFFFFFF AND DUP2 MSTORE PUSH1 0x20 ADD SWAP1 DUP2 MSTORE PUSH1 0x20 ADD PUSH1 0x0 KECCAK256 PUSH1 0x0 SWAP1 SLOAD SWAP1 PUSH2 0x100 EXP SWAP1 DIV PUSH1 0xFF AND PUSH2 0x2043 JUMPI PUSH1 0x40 MLOAD PUSH32 0x8C379A000000000000000000000000000000000000000000000000000000000 DUP2 MSTORE PUSH1 0x4 ADD PUSH2 0x203A SWAP1 PUSH2 0x5196 JUMP JUMPDEST PUSH1 0x40 MLOAD DUP1 SWAP2 SUB SWAP1 REVERT JUMPDEST PUSH1 0xA PUSH1 0x0 DUP4 PUSH20 0xFFFFFFFFFFFFFFFFFFFFFFFFFFFFFFFFFFFFFFFF AND PUSH20 0xFFFFFFFFFFFFFFFFFFFFFFFFFFFFFFFFFFFFFFFF AND DUP2 MSTORE PUSH1 0x20 ADD SWAP1 DUP2 MSTORE PUSH1 0x20 ADD PUSH1 0x0 KECCAK256 PUSH1 0x1 ADD SLOAD SWAP1 POP SWAP2 SWAP1 POP JUMP JUMPDEST PUSH2 0x2095 PUSH2 0x4262 JUMP JUMPDEST PUSH2 0x20BF PUSH32 0xA49807205CE4D355092EF5A8A18F56E8913CF4A201FBE287825B095693C21775 CALLER PUSH2 0x25B8 JUMP JUMPDEST PUSH2 0x20C8 JUMPI PUSH1 0x0 DUP1 REVERT JUMPDEST PUSH1 0xB PUSH1 0x0 DUP4 PUSH20 0xFFFFFFFFFFFFFFFFFFFFFFFFFFFFFFFFFFFFFFFF AND PUSH20 0xFFFFFFFFFFFFFFFFFFFFFFFFFFFFFFFFFFFFFFFF AND DUP2 MSTORE PUSH1 0x20 ADD SWAP1 DUP2 MSTORE PUSH1 0x20 ADD PUSH1 0x0 KECCAK256 PUSH1 0x0 SWAP1 SLOAD SWAP1 PUSH2 0x100 EXP SWAP1 DIV PUSH1 0xFF AND PUSH2 0x211E JUMPI PUSH1 0x0 DUP1 REVERT JUMPDEST PUSH1 0xA PUSH1 0x0 DUP4 PUSH20 0xFFFFFFFFFFFFFFFFFFFFFFFFFFFFFFFFFFFFFFFF AND PUSH20 0xFFFFFFFFFFFFFFFFFFFFFFFFFFFFFFFFFFFFFFFF AND DUP2 MSTORE PUSH1 0x20 ADD SWAP1 DUP2 MSTORE PUSH1 0x20 ADD PUSH1 0x0 KECCAK256 PUSH1 0x40 MLOAD DUP1 PUSH2 0x180 ADD PUSH1 0x40 MSTORE SWAP1 DUP2 PUSH1 0x0 DUP3 ADD SLOAD DUP2 MSTORE PUSH1 0x20 ADD PUSH1 0x1 DUP3 ADD SLOAD DUP2 MSTORE PUSH1 0x20 ADD PUSH1 0x2 DUP3 ADD SLOAD DUP2 MSTORE PUSH1 0x20 ADD PUSH1 0x3 DUP3 ADD PUSH1 0x5 DUP1 PUSH1 0x20 MUL PUSH1 0x40 MLOAD SWAP1 DUP2 ADD PUSH1 0x40 MSTORE DUP1 SWAP3 SWAP2 SWAP1 DUP3 PUSH1 0x5 DUP1 ISZERO PUSH2 0x21C3 JUMPI PUSH1 0x20 MUL DUP3 ADD SWAP2 JUMPDEST DUP2 SLOAD DUP2 MSTORE PUSH1 0x20 ADD SWAP1 PUSH1 0x1 ADD SWAP1 DUP1 DUP4 GT PUSH2 0x21AF JUMPI JUMPDEST POP POP POP POP POP DUP2 MSTORE PUSH1 0x20 ADD PUSH1 0x8 DUP3 ADD SLOAD DUP2 MSTORE PUSH1 0x20 ADD PUSH1 0x9 DUP3 ADD SLOAD DUP2 MSTORE PUSH1 0x20 ADD PUSH1 0xA DUP3 ADD SLOAD DUP2 MSTORE PUSH1 0x20 ADD PUSH1 0xB DUP3 ADD SLOAD DUP2 MSTORE PUSH1 0x20 ADD PUSH1 0xC DUP3 ADD SLOAD DUP2 MSTORE PUSH1 0x20 ADD PUSH1 0xD DUP3 ADD PUSH1 0xA DUP1 PUSH1 0x20 MUL PUSH1 0x40 MLOAD SWAP1 DUP2 ADD PUSH1 0x40 MSTORE DUP1 SWAP3 SWAP2 SWAP1 DUP3 PUSH1 0xA DUP1 ISZERO PUSH2 0x223A JUMPI PUSH1 0x20 MUL DUP3 ADD SWAP2 JUMPDEST DUP2 SLOAD DUP2 MSTORE PUSH1 0x20 ADD SWAP1 PUSH1 0x1 ADD SWAP1 DUP1 DUP4 GT PUSH2 0x2226 JUMPI JUMPDEST POP POP POP POP POP DUP2 MSTORE PUSH1 0x20 ADD PUSH1 0x17 DUP3 ADD SLOAD DUP2 MSTORE PUSH1 0x20 ADD PUSH1 0x18 DUP3 ADD SLOAD DUP2 MSTORE POP POP SWAP1 POP SWAP2 SWAP1 POP JUMP JUMPDEST PUSH2 0x2266 PUSH2 0x3BD4 JUMP JUMPDEST PUSH2 0x2290 PUSH32 0xA49807205CE4D355092EF5A8A18F56E8913CF4A201FBE287825B095693C21775 DUP3 PUSH2 0x12F5 JUMP JUMPDEST POP JUMP JUMPDEST PUSH2 0x229B PUSH2 0x3BD4 JUMP JUMPDEST PUSH2 0x22A5 PUSH1 0x0 PUSH2 0x3E30 JUMP JUMPDEST JUMP JUMPDEST PUSH32 0xA49807205CE4D355092EF5A8A18F56E8913CF4A201FBE287825B095693C21775 DUP2 JUMP JUMPDEST PUSH1 0x0 PUSH1 0xB PUSH1 0x0 DUP4 PUSH20 0xFFFFFFFFFFFFFFFFFFFFFFFFFFFFFFFFFFFFFFFF AND PUSH20 0xFFFFFFFFFFFFFFFFFFFFFFFFFFFFFFFFFFFFFFFF AND DUP2 MSTORE PUSH1 0x20 ADD SWAP1 DUP2 MSTORE PUSH1 0x20 ADD PUSH1 0x0 KECCAK256 PUSH1 0x0 SWAP1 SLOAD SWAP1 PUSH2 0x100 EXP SWAP1 DIV PUSH1 0xFF AND PUSH2 0x2359 JUMPI PUSH1 0x40 MLOAD PUSH32 0x8C379A000000000000000000000000000000000000000000000000000000000 DUP2 MSTORE PUSH1 0x4 ADD PUSH2 0x2350 SWAP1 PUSH2 0x5196 JUMP JUMPDEST PUSH1 0x40 MLOAD DUP1 SWAP2 SUB SWAP1 REVERT JUMPDEST PUSH1 0xA PUSH1 0x0 DUP4 PUSH20 0xFFFFFFFFFFFFFFFFFFFFFFFFFFFFFFFFFFFFFFFF AND PUSH20 0xFFFFFFFFFFFFFFFFFFFFFFFFFFFFFFFFFFFFFFFF AND DUP2 MSTORE PUSH1 0x20 ADD SWAP1 DUP2 MSTORE PUSH1 0x20 ADD PUSH1 0x0 KECCAK256 PUSH1 0x18 ADD SLOAD SWAP1 POP SWAP2 SWAP1 POP JUMP JUMPDEST PUSH1 0x5 PUSH1 0x0 SWAP1 SLOAD SWAP1 PUSH2 0x100 EXP SWAP1 DIV PUSH20 0xFFFFFFFFFFFFFFFFFFFFFFFFFFFFFFFFFFFFFFFF AND PUSH20 0xFFFFFFFFFFFFFFFFFFFFFFFFFFFFFFFFFFFFFFFF AND CALLER PUSH20 0xFFFFFFFFFFFFFFFFFFFFFFFFFFFFFFFFFFFFFFFF AND EQ PUSH2 0x23FD JUMPI PUSH1 0x0 DUP1 REVERT JUMPDEST PUSH2 0x2428 PUSH1 0x5 PUSH1 0x0 SWAP1 SLOAD SWAP1 PUSH2 0x100 EXP SWAP1 DIV PUSH20 0xFFFFFFFFFFFFFFFFFFFFFFFFFFFFFFFFFFFFFFFF AND PUSH2 0x3E30 JUMP JUMPDEST PUSH1 0x0 PUSH1 0x5 PUSH1 0x0 PUSH2 0x100 EXP DUP2 SLOAD DUP2 PUSH20 0xFFFFFFFFFFFFFFFFFFFFFFFFFFFFFFFFFFFFFFFF MUL NOT AND SWAP1 DUP4 PUSH20 0xFFFFFFFFFFFFFFFFFFFFFFFFFFFFFFFFFFFFFFFF AND MUL OR SWAP1 SSTORE POP JUMP JUMPDEST PUSH2 0x2474 PUSH2 0x42CF JUMP JUMPDEST PUSH1 0xB PUSH1 0x0 DUP4 PUSH20 0xFFFFFFFFFFFFFFFFFFFFFFFFFFFFFFFFFFFFFFFF AND PUSH20 0xFFFFFFFFFFFFFFFFFFFFFFFFFFFFFFFFFFFFFFFF AND DUP2 MSTORE PUSH1 0x20 ADD SWAP1 DUP2 MSTORE PUSH1 0x20 ADD PUSH1 0x0 KECCAK256 PUSH1 0x0 SWAP1 SLOAD SWAP1 PUSH2 0x100 EXP SWAP1 DIV PUSH1 0xFF AND PUSH2 0x2500 JUMPI PUSH1 0x40 MLOAD PUSH32 0x8C379A000000000000000000000000000000000000000000000000000000000 DUP2 MSTORE PUSH1 0x4 ADD PUSH2 0x24F7 SWAP1 PUSH2 0x5196 JUMP JUMPDEST PUSH1 0x40 MLOAD DUP1 SWAP2 SUB SWAP1 REVERT JUMPDEST PUSH1 0xA PUSH1 0x0 DUP4 PUSH20 0xFFFFFFFFFFFFFFFFFFFFFFFFFFFFFFFFFFFFFFFF AND PUSH20 0xFFFFFFFFFFFFFFFFFFFFFFFFFFFFFFFFFFFFFFFF AND DUP2 MSTORE PUSH1 0x20 ADD SWAP1 DUP2 MSTORE PUSH1 0x20 ADD PUSH1 0x0 KECCAK256 PUSH1 0x3 ADD PUSH1 0x5 DUP1 PUSH1 0x20 MUL PUSH1 0x40 MLOAD SWAP1 DUP2 ADD PUSH1 0x40 MSTORE DUP1 SWAP3 SWAP2 SWAP1 DUP3 PUSH1 0x5 DUP1 ISZERO PUSH2 0x2579 JUMPI PUSH1 0x20 MUL DUP3 ADD SWAP2 JUMPDEST DUP2 SLOAD DUP2 MSTORE PUSH1 0x20 ADD SWAP1 PUSH1 0x1 ADD SWAP1 DUP1 DUP4 GT PUSH2 0x2565 JUMPI JUMPDEST POP POP POP POP POP SWAP1 POP SWAP2 SWAP1 POP JUMP JUMPDEST PUSH1 0x0 PUSH1 0x6 SLOAD SWAP1 POP SWAP1 JUMP JUMPDEST PUSH1 0x0 DUP1 PUSH1 0x0 SWAP1 SLOAD SWAP1 PUSH2 0x100 EXP SWAP1 DIV PUSH20 0xFFFFFFFFFFFFFFFFFFFFFFFFFFFFFFFFFFFFFFFF AND SWAP1 POP SWAP1 JUMP JUMPDEST PUSH1 0x0 PUSH1 0x1 PUSH1 0x0 DUP5 DUP2 MSTORE PUSH1 0x20 ADD SWAP1 DUP2 MSTORE PUSH1 0x20 ADD PUSH1 0x0 KECCAK256 PUSH1 0x0 ADD PUSH1 0x0 DUP4 PUSH20 0xFFFFFFFFFFFFFFFFFFFFFFFFFFFFFFFFFFFFFFFF AND PUSH20 0xFFFFFFFFFFFFFFFFFFFFFFFFFFFFFFFFFFFFFFFF AND DUP2 MSTORE PUSH1 0x20 ADD SWAP1 DUP2 MSTORE PUSH1 0x20 ADD PUSH1 0x0 KECCAK256 PUSH1 0x0 SWAP1 SLOAD SWAP1 PUSH2 0x100 EXP SWAP1 DIV PUSH1 0xFF AND SWAP1 POP SWAP3 SWAP2 POP POP JUMP JUMPDEST PUSH1 0x0 PUSH1 0xB PUSH1 0x0 DUP4 PUSH20 0xFFFFFFFFFFFFFFFFFFFFFFFFFFFFFFFFFFFFFFFF AND PUSH20 0xFFFFFFFFFFFFFFFFFFFFFFFFFFFFFFFFFFFFFFFF AND DUP2 MSTORE PUSH1 0x20 ADD SWAP1 DUP2 MSTORE PUSH1 0x20 ADD PUSH1 0x0 KECCAK256 PUSH1 0x0 SWAP1 SLOAD SWAP1 PUSH2 0x100 EXP SWAP1 DIV PUSH1 0xFF AND PUSH2 0x26B1 JUMPI PUSH1 0x40 MLOAD PUSH32 0x8C379A000000000000000000000000000000000000000000000000000000000 DUP2 MSTORE PUSH1 0x4 ADD PUSH2 0x26A8 SWAP1 PUSH2 0x5196 JUMP JUMPDEST PUSH1 0x40 MLOAD DUP1 SWAP2 SUB SWAP1 REVERT JUMPDEST PUSH1 0xA PUSH1 0x0 DUP4 PUSH20 0xFFFFFFFFFFFFFFFFFFFFFFFFFFFFFFFFFFFFFFFF AND PUSH20 0xFFFFFFFFFFFFFFFFFFFFFFFFFFFFFFFFFFFFFFFF AND DUP2 MSTORE PUSH1 0x20 ADD SWAP1 DUP2 MSTORE PUSH1 0x20 ADD PUSH1 0x0 KECCAK256 PUSH1 0xB ADD SLOAD SWAP1 POP SWAP2 SWAP1 POP JUMP JUMPDEST PUSH2 0x2725 PUSH32 0xA49807205CE4D355092EF5A8A18F56E8913CF4A201FBE287825B095693C21775 CALLER PUSH2 0x25B8 JUMP JUMPDEST PUSH2 0x272E JUMPI PUSH1 0x0 DUP1 REVERT JUMPDEST PUSH1 0xB PUSH1 0x0 DUP5 PUSH20 0xFFFFFFFFFFFFFFFFFFFFFFFFFFFFFFFFFFFFFFFF AND PUSH20 0xFFFFFFFFFFFFFFFFFFFFFFFFFFFFFFFFFFFFFFFF AND DUP2 MSTORE PUSH1 0x20 ADD SWAP1 DUP2 MSTORE PUSH1 0x20 ADD PUSH1 0x0 KECCAK256 PUSH1 0x0 SWAP1 SLOAD SWAP1 PUSH2 0x100 EXP SWAP1 DIV PUSH1 0xFF AND PUSH2 0x27BA JUMPI PUSH1 0x40 MLOAD PUSH32 0x8C379A000000000000000000000000000000000000000000000000000000000 DUP2 MSTORE PUSH1 0x4 ADD PUSH2 0x27B1 SWAP1 PUSH2 0x5196 JUMP JUMPDEST PUSH1 0x40 MLOAD DUP1 SWAP2 SUB SWAP1 REVERT JUMPDEST DUP1 PUSH1 0xA PUSH1 0x0 DUP6 PUSH20 0xFFFFFFFFFFFFFFFFFFFFFFFFFFFFFFFFFFFFFFFF AND PUSH20 0xFFFFFFFFFFFFFFFFFFFFFFFFFFFFFFFFFFFFFFFF AND DUP2 MSTORE PUSH1 0x20 ADD SWAP1 DUP2 MSTORE PUSH1 0x20 ADD PUSH1 0x0 KECCAK256 PUSH1 0xD ADD DUP4 PUSH1 0xA DUP2 LT PUSH2 0x280F JUMPI PUSH2 0x280E PUSH2 0x511B JUMP JUMPDEST JUMPDEST ADD DUP2 SWAP1 SSTORE POP DUP3 PUSH20 0xFFFFFFFFFFFFFFFFFFFFFFFFFFFFFFFFFFFFFFFF AND PUSH32 0x374ED846DC3E18A969AEF22277CE3669832A6EA83E3088149D5B40319413DE47 DUP4 DUP4 PUSH1 0x40 MLOAD PUSH2 0x285C SWAP3 SWAP2 SWAP1 PUSH2 0x573C JUMP JUMPDEST PUSH1 0x40 MLOAD DUP1 SWAP2 SUB SWAP1 LOG2 POP POP POP JUMP JUMPDEST PUSH2 0x2893 PUSH32 0xA49807205CE4D355092EF5A8A18F56E8913CF4A201FBE287825B095693C21775 CALLER PUSH2 0x25B8 JUMP JUMPDEST PUSH2 0x289C JUMPI PUSH1 0x0 DUP1 REVERT JUMPDEST DUP1 PUSH1 0x8 DUP2 SWAP1 SSTORE POP POP JUMP JUMPDEST PUSH1 0x0 DUP1 SHL DUP2 JUMP JUMPDEST PUSH2 0x28D7 PUSH32 0xA49807205CE4D355092EF5A8A18F56E8913CF4A201FBE287825B095693C21775 CALLER PUSH2 0x25B8 JUMP JUMPDEST PUSH2 0x28E0 JUMPI PUSH1 0x0 DUP1 REVERT JUMPDEST PUSH1 0xB PUSH1 0x0 DUP4 PUSH20 0xFFFFFFFFFFFFFFFFFFFFFFFFFFFFFFFFFFFFFFFF AND PUSH20 0xFFFFFFFFFFFFFFFFFFFFFFFFFFFFFFFFFFFFFFFF AND DUP2 MSTORE PUSH1 0x20 ADD SWAP1 DUP2 MSTORE PUSH1 0x20 ADD PUSH1 0x0 KECCAK256 PUSH1 0x0 SWAP1 SLOAD SWAP1 PUSH2 0x100 EXP SWAP1 DIV PUSH1 0xFF AND PUSH2 0x296C JUMPI PUSH1 0x40 MLOAD PUSH32 0x8C379A000000000000000000000000000000000000000000000000000000000 DUP2 MSTORE PUSH1 0x4 ADD PUSH2 0x2963 SWAP1 PUSH2 0x5196 JUMP JUMPDEST PUSH1 0x40 MLOAD DUP1 SWAP2 SUB SWAP1 REVERT JUMPDEST DUP1 PUSH1 0xA PUSH1 0x0 DUP5 PUSH20 0xFFFFFFFFFFFFFFFFFFFFFFFFFFFFFFFFFFFFFFFF AND PUSH20 0xFFFFFFFFFFFFFFFFFFFFFFFFFFFFFFFFFFFFFFFF AND DUP2 MSTORE PUSH1 0x20 ADD SWAP1 DUP2 MSTORE PUSH1 0x20 ADD PUSH1 0x0 KECCAK256 PUSH1 0xB ADD DUP2 SWAP1 SSTORE POP DUP2 PUSH20 0xFFFFFFFFFFFFFFFFFFFFFFFFFFFFFFFFFFFFFFFF AND PUSH32 0x7F299CEBC3C4384AE412A6BA151D00BD215ADD4B1379155DD71C3376CBF07DF6 DUP3 PUSH1 0x40 MLOAD PUSH2 0x29F9 SWAP2 SWAP1 PUSH2 0x451E JUMP JUMPDEST PUSH1 0x40 MLOAD DUP1 SWAP2 SUB SWAP1 LOG2 POP POP JUMP JUMPDEST PUSH1 0x7 SLOAD DUP2 JUMP JUMPDEST PUSH2 0x2A35 PUSH32 0xA49807205CE4D355092EF5A8A18F56E8913CF4A201FBE287825B095693C21775 CALLER PUSH2 0x25B8 JUMP JUMPDEST PUSH2 0x2A3E JUMPI PUSH1 0x0 DUP1 REVERT JUMPDEST PUSH1 0xB PUSH1 0x0 DUP4 PUSH20 0xFFFFFFFFFFFFFFFFFFFFFFFFFFFFFFFFFFFFFFFF AND PUSH20 0xFFFFFFFFFFFFFFFFFFFFFFFFFFFFFFFFFFFFFFFF AND DUP2 MSTORE PUSH1 0x20 ADD SWAP1 DUP2 MSTORE PUSH1 0x20 ADD PUSH1 0x0 KECCAK256 PUSH1 0x0 SWAP1 SLOAD SWAP1 PUSH2 0x100 EXP SWAP1 DIV PUSH1 0xFF AND PUSH2 0x2ACA JUMPI PUSH1 0x40 MLOAD PUSH32 0x8C379A000000000000000000000000000000000000000000000000000000000 DUP2 MSTORE PUSH1 0x4 ADD PUSH2 0x2AC1 SWAP1 PUSH2 0x5196 JUMP JUMPDEST PUSH1 0x40 MLOAD DUP1 SWAP2 SUB SWAP1 REVERT JUMPDEST PUSH1 0x0 PUSH1 0xA PUSH1 0x0 DUP5 PUSH20 0xFFFFFFFFFFFFFFFFFFFFFFFFFFFFFFFFFFFFFFFF AND PUSH20 0xFFFFFFFFFFFFFFFFFFFFFFFFFFFFFFFFFFFFFFFF AND DUP2 MSTORE PUSH1 0x20 ADD SWAP1 DUP2 MSTORE PUSH1 0x20 ADD PUSH1 0x0 KECCAK256 PUSH1 0xB ADD SLOAD SWAP1 POP DUP2 DUP2 LT ISZERO PUSH2 0x2B54 JUMPI PUSH1 0x40 MLOAD PUSH32 0x8C379A000000000000000000000000000000000000000000000000000000000 DUP2 MSTORE PUSH1 0x4 ADD PUSH2 0x2B4B SWAP1 PUSH2 0x57B1 JUMP JUMPDEST PUSH1 0x40 MLOAD DUP1 SWAP2 SUB SWAP1 REVERT JUMPDEST PUSH1 0x2 PUSH1 0x0 SWAP1 SLOAD SWAP1 PUSH2 0x100 EXP SWAP1 DIV PUSH20 0xFFFFFFFFFFFFFFFFFFFFFFFFFFFFFFFFFFFFFFFF AND PUSH20 0xFFFFFFFFFFFFFFFFFFFFFFFFFFFFFFFFFFFFFFFF AND PUSH4 0x40C10F19 DUP5 DUP5 PUSH1 0x40 MLOAD DUP4 PUSH4 0xFFFFFFFF AND PUSH1 0xE0 SHL DUP2 MSTORE PUSH1 0x4 ADD PUSH2 0x2BB1 SWAP3 SWAP2 SWAP1 PUSH2 0x57D1 JUMP JUMPDEST PUSH1 0x0 PUSH1 0x40 MLOAD DUP1 DUP4 SUB DUP2 PUSH1 0x0 DUP8 DUP1 EXTCODESIZE ISZERO DUP1 ISZERO PUSH2 0x2BCB JUMPI PUSH1 0x0 DUP1 REVERT JUMPDEST POP GAS CALL ISZERO DUP1 ISZERO PUSH2 0x2BDF JUMPI RETURNDATASIZE PUSH1 0x0 DUP1 RETURNDATACOPY RETURNDATASIZE PUSH1 0x0 REVERT JUMPDEST POP POP POP POP DUP2 DUP2 PUSH2 0x2BEF SWAP2 SWAP1 PUSH2 0x5829 JUMP JUMPDEST PUSH1 0xA PUSH1 0x0 DUP6 PUSH20 0xFFFFFFFFFFFFFFFFFFFFFFFFFFFFFFFFFFFFFFFF AND PUSH20 0xFFFFFFFFFFFFFFFFFFFFFFFFFFFFFFFFFFFFFFFF AND DUP2 MSTORE PUSH1 0x20 ADD SWAP1 DUP2 MSTORE PUSH1 0x20 ADD PUSH1 0x0 KECCAK256 PUSH1 0xB ADD DUP2 SWAP1 SSTORE POP PUSH32 0x190FE81F396538A8654AAFA1ADCDABC1825D53AA9FA6DD809991683D943E3A17 DUP4 DUP4 PUSH1 0x40 MLOAD PUSH2 0x2C66 SWAP3 SWAP2 SWAP1 PUSH2 0x57D1 JUMP JUMPDEST PUSH1 0x40 MLOAD DUP1 SWAP2 SUB SWAP1 LOG1 POP POP POP JUMP JUMPDEST PUSH2 0x2C9D PUSH32 0xA49807205CE4D355092EF5A8A18F56E8913CF4A201FBE287825B095693C21775 CALLER PUSH2 0x25B8 JUMP JUMPDEST PUSH2 0x2CA6 JUMPI PUSH1 0x0 DUP1 REVERT JUMPDEST PUSH1 0xB PUSH1 0x0 DUP4 PUSH20 0xFFFFFFFFFFFFFFFFFFFFFFFFFFFFFFFFFFFFFFFF AND PUSH20 0xFFFFFFFFFFFFFFFFFFFFFFFFFFFFFFFFFFFFFFFF AND DUP2 MSTORE PUSH1 0x20 ADD SWAP1 DUP2 MSTORE PUSH1 0x20 ADD PUSH1 0x0 KECCAK256 PUSH1 0x0 SWAP1 SLOAD SWAP1 PUSH2 0x100 EXP SWAP1 DIV PUSH1 0xFF AND PUSH2 0x2D32 JUMPI PUSH1 0x40 MLOAD PUSH32 0x8C379A000000000000000000000000000000000000000000000000000000000 DUP2 MSTORE PUSH1 0x4 ADD PUSH2 0x2D29 SWAP1 PUSH2 0x5196 JUMP JUMPDEST PUSH1 0x40 MLOAD DUP1 SWAP2 SUB SWAP1 REVERT JUMPDEST DUP1 PUSH1 0xA PUSH1 0x0 DUP5 PUSH20 0xFFFFFFFFFFFFFFFFFFFFFFFFFFFFFFFFFFFFFFFF AND PUSH20 0xFFFFFFFFFFFFFFFFFFFFFFFFFFFFFFFFFFFFFFFF AND DUP2 MSTORE PUSH1 0x20 ADD SWAP1 DUP2 MSTORE PUSH1 0x20 ADD PUSH1 0x0 KECCAK256 PUSH1 0x9 ADD DUP2 SWAP1 SSTORE POP DUP2 PUSH20 0xFFFFFFFFFFFFFFFFFFFFFFFFFFFFFFFFFFFFFFFF AND PUSH32 0x7ED17F7B101BB354C92F134F7C421A00E511B046ABF1EDCEB1956966E7443480 DUP3 PUSH1 0x40 MLOAD PUSH2 0x2DBF SWAP2 SWAP1 PUSH2 0x451E JUMP JUMPDEST PUSH1 0x40 MLOAD DUP1 SWAP2 SUB SWAP1 LOG2 POP POP JUMP JUMPDEST PUSH2 0x2DF5 PUSH32 0xA49807205CE4D355092EF5A8A18F56E8913CF4A201FBE287825B095693C21775 CALLER PUSH2 0x25B8 JUMP JUMPDEST PUSH2 0x2DFE JUMPI PUSH1 0x0 DUP1 REVERT JUMPDEST PUSH1 0xB PUSH1 0x0 DUP4 PUSH20 0xFFFFFFFFFFFFFFFFFFFFFFFFFFFFFFFFFFFFFFFF AND PUSH20 0xFFFFFFFFFFFFFFFFFFFFFFFFFFFFFFFFFFFFFFFF AND DUP2 MSTORE PUSH1 0x20 ADD SWAP1 DUP2 MSTORE PUSH1 0x20 ADD PUSH1 0x0 KECCAK256 PUSH1 0x0 SWAP1 SLOAD SWAP1 PUSH2 0x100 EXP SWAP1 DIV PUSH1 0xFF AND PUSH2 0x2E8A JUMPI PUSH1 0x40 MLOAD PUSH32 0x8C379A000000000000000000000000000000000000000000000000000000000 DUP2 MSTORE PUSH1 0x4 ADD PUSH2 0x2E81 SWAP1 PUSH2 0x5196 JUMP JUMPDEST PUSH1 0x40 MLOAD DUP1 SWAP2 SUB SWAP1 REVERT JUMPDEST PUSH1 0x0 PUSH1 0xA PUSH1 0x0 DUP5 PUSH20 0xFFFFFFFFFFFFFFFFFFFFFFFFFFFFFFFFFFFFFFFF AND PUSH20 0xFFFFFFFFFFFFFFFFFFFFFFFFFFFFFFFFFFFFFFFF AND DUP2 MSTORE PUSH1 0x20 ADD SWAP1 DUP2 MSTORE PUSH1 0x20 ADD PUSH1 0x0 KECCAK256 SWAP1 POP DUP2 DUP2 PUSH1 0x1 ADD DUP2 SWAP1 SSTORE POP DUP3 PUSH20 0xFFFFFFFFFFFFFFFFFFFFFFFFFFFFFFFFFFFFFFFF AND PUSH32 0x81665166AED8384C9DF23393834F1B549569BBB3CA825F52F8390F1BBE163871 DUP4 DUP4 PUSH1 0x1 ADD SLOAD PUSH1 0x40 MLOAD PUSH2 0x2F22 SWAP3 SWAP2 SWAP1 PUSH2 0x573C JUMP JUMPDEST PUSH1 0x40 MLOAD DUP1 SWAP2 SUB SWAP1 LOG2 POP POP POP JUMP JUMPDEST PUSH2 0x2F37 PUSH2 0x42F1 JUMP JUMPDEST PUSH1 0xB PUSH1 0x0 DUP4 PUSH20 0xFFFFFFFFFFFFFFFFFFFFFFFFFFFFFFFFFFFFFFFF AND PUSH20 0xFFFFFFFFFFFFFFFFFFFFFFFFFFFFFFFFFFFFFFFF AND DUP2 MSTORE PUSH1 0x20 ADD SWAP1 DUP2 MSTORE PUSH1 0x20 ADD PUSH1 0x0 KECCAK256 PUSH1 0x0 SWAP1 SLOAD SWAP1 PUSH2 0x100 EXP SWAP1 DIV PUSH1 0xFF AND PUSH2 0x2FC3 JUMPI PUSH1 0x40 MLOAD PUSH32 0x8C379A000000000000000000000000000000000000000000000000000000000 DUP2 MSTORE PUSH1 0x4 ADD PUSH2 0x2FBA SWAP1 PUSH2 0x5196 JUMP JUMPDEST PUSH1 0x40 MLOAD DUP1 SWAP2 SUB SWAP1 REVERT JUMPDEST PUSH1 0xA PUSH1 0x0 DUP4 PUSH20 0xFFFFFFFFFFFFFFFFFFFFFFFFFFFFFFFFFFFFFFFF AND PUSH20 0xFFFFFFFFFFFFFFFFFFFFFFFFFFFFFFFFFFFFFFFF AND DUP2 MSTORE PUSH1 0x20 ADD SWAP1 DUP2 MSTORE PUSH1 0x20 ADD PUSH1 0x0 KECCAK256 PUSH1 0xD ADD PUSH1 0xA DUP1 PUSH1 0x20 MUL PUSH1 0x40 MLOAD SWAP1 DUP2 ADD PUSH1 0x40 MSTORE DUP1 SWAP3 SWAP2 SWAP1 DUP3 PUSH1 0xA DUP1 ISZERO PUSH2 0x303C JUMPI PUSH1 0x20 MUL DUP3 ADD SWAP2 JUMPDEST DUP2 SLOAD DUP2 MSTORE PUSH1 0x20 ADD SWAP1 PUSH1 0x1 ADD SWAP1 DUP1 DUP4 GT PUSH2 0x3028 JUMPI JUMPDEST POP POP POP POP POP SWAP1 POP SWAP2 SWAP1 POP JUMP JUMPDEST PUSH1 0x4 PUSH1 0x0 SWAP1 SLOAD SWAP1 PUSH2 0x100 EXP SWAP1 DIV PUSH20 0xFFFFFFFFFFFFFFFFFFFFFFFFFFFFFFFFFFFFFFFF AND DUP2 JUMP JUMPDEST PUSH1 0x6 SLOAD DUP2 JUMP JUMPDEST PUSH2 0x309E PUSH32 0xA49807205CE4D355092EF5A8A18F56E8913CF4A201FBE287825B095693C21775 CALLER PUSH2 0x25B8 JUMP JUMPDEST PUSH2 0x30A7 JUMPI PUSH1 0x0 DUP1 REVERT JUMPDEST PUSH1 0xB PUSH1 0x0 DUP4 PUSH20 0xFFFFFFFFFFFFFFFFFFFFFFFFFFFFFFFFFFFFFFFF AND PUSH20 0xFFFFFFFFFFFFFFFFFFFFFFFFFFFFFFFFFFFFFFFF AND DUP2 MSTORE PUSH1 0x20 ADD SWAP1 DUP2 MSTORE PUSH1 0x20 ADD PUSH1 0x0 KECCAK256 PUSH1 0x0 SWAP1 SLOAD SWAP1 PUSH2 0x100 EXP SWAP1 DIV PUSH1 0xFF AND PUSH2 0x3133 JUMPI PUSH1 0x40 MLOAD PUSH32 0x8C379A000000000000000000000000000000000000000000000000000000000 DUP2 MSTORE PUSH1 0x4 ADD PUSH2 0x312A SWAP1 PUSH2 0x5196 JUMP JUMPDEST PUSH1 0x40 MLOAD DUP1 SWAP2 SUB SWAP1 REVERT JUMPDEST PUSH1 0x0 PUSH1 0x9 SLOAD DUP3 PUSH2 0x3143 SWAP2 SWAP1 PUSH2 0x585D JUMP JUMPDEST SWAP1 POP DUP1 PUSH1 0x2 PUSH1 0x0 SWAP1 SLOAD SWAP1 PUSH2 0x100 EXP SWAP1 DIV PUSH20 0xFFFFFFFFFFFFFFFFFFFFFFFFFFFFFFFFFFFFFFFF AND PUSH20 0xFFFFFFFFFFFFFFFFFFFFFFFFFFFFFFFFFFFFFFFF AND PUSH4 0x70A08231 DUP6 PUSH1 0x40 MLOAD DUP3 PUSH4 0xFFFFFFFF AND PUSH1 0xE0 SHL DUP2 MSTORE PUSH1 0x4 ADD PUSH2 0x31A1 SWAP2 SWAP1 PUSH2 0x4F36 JUMP JUMPDEST PUSH1 0x20 PUSH1 0x40 MLOAD DUP1 DUP4 SUB DUP2 DUP7 GAS STATICCALL ISZERO DUP1 ISZERO PUSH2 0x31BE JUMPI RETURNDATASIZE PUSH1 0x0 DUP1 RETURNDATACOPY RETURNDATASIZE PUSH1 0x0 REVERT JUMPDEST POP POP POP POP PUSH1 0x40 MLOAD RETURNDATASIZE PUSH1 0x1F NOT PUSH1 0x1F DUP3 ADD AND DUP3 ADD DUP1 PUSH1 0x40 MSTORE POP DUP2 ADD SWAP1 PUSH2 0x31E2 SWAP2 SWAP1 PUSH2 0x589F JUMP JUMPDEST LT ISZERO PUSH2 0x3223 JUMPI PUSH1 0x40 MLOAD PUSH32 0x8C379A000000000000000000000000000000000000000000000000000000000 DUP2 MSTORE PUSH1 0x4 ADD PUSH2 0x321A SWAP1 PUSH2 0x5918 JUMP JUMPDEST PUSH1 0x40 MLOAD DUP1 SWAP2 SUB SWAP1 REVERT JUMPDEST PUSH1 0x2 PUSH1 0x0 SWAP1 SLOAD SWAP1 PUSH2 0x100 EXP SWAP1 DIV PUSH20 0xFFFFFFFFFFFFFFFFFFFFFFFFFFFFFFFFFFFFFFFF AND PUSH20 0xFFFFFFFFFFFFFFFFFFFFFFFFFFFFFFFFFFFFFFFF AND PUSH4 0xBEABACC8 DUP5 ADDRESS DUP5 PUSH1 0x40 MLOAD DUP5 PUSH4 0xFFFFFFFF AND PUSH1 0xE0 SHL DUP2 MSTORE PUSH1 0x4 ADD PUSH2 0x3282 SWAP4 SWAP3 SWAP2 SWAP1 PUSH2 0x5938 JUMP JUMPDEST PUSH1 0x0 PUSH1 0x40 MLOAD DUP1 DUP4 SUB DUP2 PUSH1 0x0 DUP8 DUP1 EXTCODESIZE ISZERO DUP1 ISZERO PUSH2 0x329C JUMPI PUSH1 0x0 DUP1 REVERT JUMPDEST POP GAS CALL ISZERO DUP1 ISZERO PUSH2 0x32B0 JUMPI RETURNDATASIZE PUSH1 0x0 DUP1 RETURNDATACOPY RETURNDATASIZE PUSH1 0x0 REVERT JUMPDEST POP POP POP POP DUP2 PUSH1 0xA PUSH1 0x0 DUP6 PUSH20 0xFFFFFFFFFFFFFFFFFFFFFFFFFFFFFFFFFFFFFFFF AND PUSH20 0xFFFFFFFFFFFFFFFFFFFFFFFFFFFFFFFFFFFFFFFF AND DUP2 MSTORE PUSH1 0x20 ADD SWAP1 DUP2 MSTORE PUSH1 0x20 ADD PUSH1 0x0 KECCAK256 PUSH1 0xC ADD PUSH1 0x0 DUP3 DUP3 SLOAD PUSH2 0x3306 SWAP2 SWAP1 PUSH2 0x596F JUMP JUMPDEST SWAP3 POP POP DUP2 SWAP1 SSTORE POP DUP3 PUSH20 0xFFFFFFFFFFFFFFFFFFFFFFFFFFFFFFFFFFFFFFFF AND PUSH32 0x61DE7C9C9FEF84BF815AD3B2D17A9AF3D0655AF7A1C9423E5D2DEE99EC5C6FFC PUSH1 0xA PUSH1 0x0 DUP7 PUSH20 0xFFFFFFFFFFFFFFFFFFFFFFFFFFFFFFFFFFFFFFFF AND PUSH20 0xFFFFFFFFFFFFFFFFFFFFFFFFFFFFFFFFFFFFFFFF AND DUP2 MSTORE PUSH1 0x20 ADD SWAP1 DUP2 MSTORE PUSH1 0x20 ADD PUSH1 0x0 KECCAK256 PUSH1 0xC ADD SLOAD PUSH1 0x40 MLOAD PUSH2 0x3395 SWAP2 SWAP1 PUSH2 0x451E JUMP JUMPDEST PUSH1 0x40 MLOAD DUP1 SWAP2 SUB SWAP1 LOG2 POP POP POP JUMP JUMPDEST PUSH2 0x33AB DUP3 PUSH2 0x12D5 JUMP JUMPDEST PUSH2 0x33B4 DUP2 PUSH2 0x3C52 JUMP JUMPDEST PUSH2 0x33BE DUP4 DUP4 PUSH2 0x3D4E JUMP JUMPDEST POP POP POP JUMP JUMPDEST PUSH2 0x33ED PUSH32 0xA49807205CE4D355092EF5A8A18F56E8913CF4A201FBE287825B095693C21775 CALLER PUSH2 0x25B8 JUMP JUMPDEST PUSH2 0x33F6 JUMPI PUSH1 0x0 DUP1 REVERT JUMPDEST PUSH1 0xB PUSH1 0x0 DUP4 PUSH20 0xFFFFFFFFFFFFFFFFFFFFFFFFFFFFFFFFFFFFFFFF AND PUSH20 0xFFFFFFFFFFFFFFFFFFFFFFFFFFFFFFFFFFFFFFFF AND DUP2 MSTORE PUSH1 0x20 ADD SWAP1 DUP2 MSTORE PUSH1 0x20 ADD PUSH1 0x0 KECCAK256 PUSH1 0x0 SWAP1 SLOAD SWAP1 PUSH2 0x100 EXP SWAP1 DIV PUSH1 0xFF AND PUSH2 0x3482 JUMPI PUSH1 0x40 MLOAD PUSH32 0x8C379A000000000000000000000000000000000000000000000000000000000 DUP2 MSTORE PUSH1 0x4 ADD PUSH2 0x3479 SWAP1 PUSH2 0x5196 JUMP JUMPDEST PUSH1 0x40 MLOAD DUP1 SWAP2 SUB SWAP1 REVERT JUMPDEST DUP1 PUSH1 0xA PUSH1 0x0 DUP5 PUSH20 0xFFFFFFFFFFFFFFFFFFFFFFFFFFFFFFFFFFFFFFFF AND PUSH20 0xFFFFFFFFFFFFFFFFFFFFFFFFFFFFFFFFFFFFFFFF AND DUP2 MSTORE PUSH1 0x20 ADD SWAP1 DUP2 MSTORE PUSH1 0x20 ADD PUSH1 0x0 KECCAK256 PUSH1 0x2 ADD DUP2 SWAP1 SSTORE POP DUP2 PUSH20 0xFFFFFFFFFFFFFFFFFFFFFFFFFFFFFFFFFFFFFFFF AND PUSH32 0x7B45410837B569E79F978C88FBB1AB01A26D6922675E4DE2FC0BAE4E0586CEAC DUP3 PUSH1 0x40 MLOAD PUSH2 0x350F SWAP2 SWAP1 PUSH2 0x451E JUMP JUMPDEST PUSH1 0x40 MLOAD DUP1 SWAP2 SUB SWAP1 LOG2 POP POP JUMP JUMPDEST PUSH1 0x8 SLOAD DUP2 JUMP JUMPDEST PUSH2 0x354B PUSH32 0xA49807205CE4D355092EF5A8A18F56E8913CF4A201FBE287825B095693C21775 CALLER PUSH2 0x25B8 JUMP JUMPDEST PUSH2 0x3554 JUMPI PUSH1 0x0 DUP1 REVERT JUMPDEST DUP1 PUSH1 0x6 DUP2 SWAP1 SSTORE POP POP JUMP JUMPDEST PUSH2 0x3588 PUSH32 0xA49807205CE4D355092EF5A8A18F56E8913CF4A201FBE287825B095693C21775 CALLER PUSH2 0x25B8 JUMP JUMPDEST PUSH2 0x3591 JUMPI PUSH1 0x0 DUP1 REVERT JUMPDEST PUSH1 0xB PUSH1 0x0 DUP3 PUSH20 0xFFFFFFFFFFFFFFFFFFFFFFFFFFFFFFFFFFFFFFFF AND PUSH20 0xFFFFFFFFFFFFFFFFFFFFFFFFFFFFFFFFFFFFFFFF AND DUP2 MSTORE PUSH1 0x20 ADD SWAP1 DUP2 MSTORE PUSH1 0x20 ADD PUSH1 0x0 KECCAK256 PUSH1 0x0 SWAP1 SLOAD SWAP1 PUSH2 0x100 EXP SWAP1 DIV PUSH1 0xFF AND PUSH2 0x361D JUMPI PUSH1 0x40 MLOAD PUSH32 0x8C379A000000000000000000000000000000000000000000000000000000000 DUP2 MSTORE PUSH1 0x4 ADD PUSH2 0x3614 SWAP1 PUSH2 0x5196 JUMP JUMPDEST PUSH1 0x40 MLOAD DUP1 SWAP2 SUB SWAP1 REVERT JUMPDEST PUSH1 0x0 PUSH1 0x60 DUP3 PUSH20 0xFFFFFFFFFFFFFFFFFFFFFFFFFFFFFFFFFFFFFFFF AND PUSH1 0x4 PUSH1 0x0 SWAP1 SLOAD SWAP1 PUSH2 0x100 EXP SWAP1 DIV PUSH20 0xFFFFFFFFFFFFFFFFFFFFFFFFFFFFFFFFFFFFFFFF AND PUSH20 0xFFFFFFFFFFFFFFFFFFFFFFFFFFFFFFFFFFFFFFFF AND PUSH4 0x6352211E DUP7 PUSH1 0x40 MLOAD DUP3 PUSH4 0xFFFFFFFF AND PUSH1 0xE0 SHL DUP2 MSTORE PUSH1 0x4 ADD PUSH2 0x3693 SWAP2 SWAP1 PUSH2 0x451E JUMP JUMPDEST PUSH1 0x20 PUSH1 0x40 MLOAD DUP1 DUP4 SUB DUP2 DUP7 GAS STATICCALL ISZERO DUP1 ISZERO PUSH2 0x36B0 JUMPI RETURNDATASIZE PUSH1 0x0 DUP1 RETURNDATACOPY RETURNDATASIZE PUSH1 0x0 REVERT JUMPDEST POP POP POP POP PUSH1 0x40 MLOAD RETURNDATASIZE PUSH1 0x1F NOT PUSH1 0x1F DUP3 ADD AND DUP3 ADD DUP1 PUSH1 0x40 MSTORE POP DUP2 ADD SWAP1 PUSH2 0x36D4 SWAP2 SWAP1 PUSH2 0x55EE JUMP JUMPDEST PUSH20 0xFFFFFFFFFFFFFFFFFFFFFFFFFFFFFFFFFFFFFFFF AND EQ PUSH2 0x382F JUMPI PUSH1 0x4 PUSH1 0x0 SWAP1 SLOAD SWAP1 PUSH2 0x100 EXP SWAP1 DIV PUSH20 0xFFFFFFFFFFFFFFFFFFFFFFFFFFFFFFFFFFFFFFFF AND PUSH20 0xFFFFFFFFFFFFFFFFFFFFFFFFFFFFFFFFFFFFFFFF AND PUSH4 0x18148F1B DUP5 PUSH1 0x40 MLOAD DUP3 PUSH4 0xFFFFFFFF AND PUSH1 0xE0 SHL DUP2 MSTORE PUSH1 0x4 ADD PUSH2 0x374A SWAP2 SWAP1 PUSH2 0x4F36 JUMP JUMPDEST PUSH1 0x0 PUSH1 0x40 MLOAD DUP1 DUP4 SUB DUP2 DUP7 GAS STATICCALL ISZERO DUP1 ISZERO PUSH2 0x3767 JUMPI RETURNDATASIZE PUSH1 0x0 DUP1 RETURNDATACOPY RETURNDATASIZE PUSH1 0x0 REVERT JUMPDEST POP POP POP POP PUSH1 0x40 MLOAD RETURNDATASIZE PUSH1 0x0 DUP3 RETURNDATACOPY RETURNDATASIZE PUSH1 0x1F NOT PUSH1 0x1F DUP3 ADD AND DUP3 ADD DUP1 PUSH1 0x40 MSTORE POP DUP2 ADD SWAP1 PUSH2 0x3790 SWAP2 SWAP1 PUSH2 0x56F3 JUMP JUMPDEST SWAP1 POP PUSH1 0x0 DUP2 MLOAD GT ISZERO PUSH2 0x3806 JUMPI DUP1 PUSH1 0x0 DUP2 MLOAD DUP2 LT PUSH2 0x37B0 JUMPI PUSH2 0x37AF PUSH2 0x511B JUMP JUMPDEST JUMPDEST PUSH1 0x20 MUL PUSH1 0x20 ADD ADD MLOAD SWAP2 POP DUP2 PUSH1 0xA PUSH1 0x0 DUP6 PUSH20 0xFFFFFFFFFFFFFFFFFFFFFFFFFFFFFFFFFFFFFFFF AND PUSH20 0xFFFFFFFFFFFFFFFFFFFFFFFFFFFFFFFFFFFFFFFF AND DUP2 MSTORE PUSH1 0x20 ADD SWAP1 DUP2 MSTORE PUSH1 0x20 ADD PUSH1 0x0 KECCAK256 PUSH1 0x18 ADD DUP2 SWAP1 SSTORE POP PUSH2 0x382A JUMP JUMPDEST PUSH32 0xFFFFFFFFFFFFFFFFFFFFFFFFFFFFFFFFFFFFFFFFFFFFFFFFFFFFFFFFFFFFFFFF SWAP2 POP JUMPDEST PUSH2 0x387A JUMP JUMPDEST DUP4 PUSH1 0xA PUSH1 0x0 DUP6 PUSH20 0xFFFFFFFFFFFFFFFFFFFFFFFFFFFFFFFFFFFFFFFF AND PUSH20 0xFFFFFFFFFFFFFFFFFFFFFFFFFFFFFFFFFFFFFFFF AND DUP2 MSTORE PUSH1 0x20 ADD SWAP1 DUP2 MSTORE PUSH1 0x20 ADD PUSH1 0x0 KECCAK256 PUSH1 0x18 ADD DUP2 SWAP1 SSTORE POP DUP4 SWAP2 POP JUMPDEST DUP3 PUSH20 0xFFFFFFFFFFFFFFFFFFFFFFFFFFFFFFFFFFFFFFFF AND PUSH32 0xCC9803FF35BBB65900301A2B84F90AD432FD23B513FB5DDDCB6F4568CB9C54C9 DUP4 PUSH1 0x40 MLOAD PUSH2 0x38C0 SWAP2 SWAP1 PUSH2 0x451E JUMP JUMPDEST PUSH1 0x40 MLOAD DUP1 SWAP2 SUB SWAP1 LOG2 POP POP POP POP JUMP JUMPDEST PUSH2 0x38F8 PUSH32 0xA49807205CE4D355092EF5A8A18F56E8913CF4A201FBE287825B095693C21775 CALLER PUSH2 0x25B8 JUMP JUMPDEST PUSH2 0x3901 JUMPI PUSH1 0x0 DUP1 REVERT JUMPDEST PUSH1 0xB PUSH1 0x0 DUP4 PUSH20 0xFFFFFFFFFFFFFFFFFFFFFFFFFFFFFFFFFFFFFFFF AND PUSH20 0xFFFFFFFFFFFFFFFFFFFFFFFFFFFFFFFFFFFFFFFF AND DUP2 MSTORE PUSH1 0x20 ADD SWAP1 DUP2 MSTORE PUSH1 0x20 ADD PUSH1 0x0 KECCAK256 PUSH1 0x0 SWAP1 SLOAD SWAP1 PUSH2 0x100 EXP SWAP1 DIV PUSH1 0xFF AND PUSH2 0x3957 JUMPI PUSH1 0x0 DUP1 REVERT JUMPDEST DUP1 PUSH1 0xA PUSH1 0x0 DUP5 PUSH20 0xFFFFFFFFFFFFFFFFFFFFFFFFFFFFFFFFFFFFFFFF AND PUSH20 0xFFFFFFFFFFFFFFFFFFFFFFFFFFFFFFFFFFFFFFFF AND DUP2 MSTORE PUSH1 0x20 ADD SWAP1 DUP2 MSTORE PUSH1 0x20 ADD PUSH1 0x0 KECCAK256 PUSH1 0x0 ADD DUP2 SWAP1 SSTORE POP POP POP JUMP JUMPDEST PUSH1 0x0 PUSH1 0x8 SLOAD SWAP1 POP SWAP1 JUMP JUMPDEST PUSH2 0x39B4 PUSH2 0x3BD4 JUMP JUMPDEST PUSH1 0x0 PUSH20 0xFFFFFFFFFFFFFFFFFFFFFFFFFFFFFFFFFFFFFFFF AND DUP2 PUSH20 0xFFFFFFFFFFFFFFFFFFFFFFFFFFFFFFFFFFFFFFFF AND SUB PUSH2 0x39ED JUMPI PUSH1 0x0 DUP1 REVERT JUMPDEST DUP1 PUSH1 0x5 PUSH1 0x0 PUSH2 0x100 EXP DUP2 SLOAD DUP2 PUSH20 0xFFFFFFFFFFFFFFFFFFFFFFFFFFFFFFFFFFFFFFFF MUL NOT AND SWAP1 DUP4 PUSH20 0xFFFFFFFFFFFFFFFFFFFFFFFFFFFFFFFFFFFFFFFF AND MUL OR SWAP1 SSTORE POP DUP1 PUSH20 0xFFFFFFFFFFFFFFFFFFFFFFFFFFFFFFFFFFFFFFFF AND PUSH2 0x3A4D PUSH2 0x258F JUMP JUMPDEST PUSH20 0xFFFFFFFFFFFFFFFFFFFFFFFFFFFFFFFFFFFFFFFF AND PUSH32 0x38D16B8CAC22D99FC7C124B9CD0DE2D3FA1FAEF420BFE791D8C362D765E22700 PUSH1 0x40 MLOAD PUSH1 0x40 MLOAD DUP1 SWAP2 SUB SWAP1 LOG3 POP JUMP JUMPDEST PUSH1 0x0 PUSH1 0xB PUSH1 0x0 DUP4 PUSH20 0xFFFFFFFFFFFFFFFFFFFFFFFFFFFFFFFFFFFFFFFF AND PUSH20 0xFFFFFFFFFFFFFFFFFFFFFFFFFFFFFFFFFFFFFFFF AND DUP2 MSTORE PUSH1 0x20 ADD SWAP1 DUP2 MSTORE PUSH1 0x20 ADD PUSH1 0x0 KECCAK256 PUSH1 0x0 SWAP1 SLOAD SWAP1 PUSH2 0x100 EXP SWAP1 DIV PUSH1 0xFF AND PUSH2 0x3B20 JUMPI PUSH1 0x40 MLOAD PUSH32 0x8C379A000000000000000000000000000000000000000000000000000000000 DUP2 MSTORE PUSH1 0x4 ADD PUSH2 0x3B17 SWAP1 PUSH2 0x5196 JUMP JUMPDEST PUSH1 0x40 MLOAD DUP1 SWAP2 SUB SWAP1 REVERT JUMPDEST PUSH1 0xA PUSH1 0x0 DUP4 PUSH20 0xFFFFFFFFFFFFFFFFFFFFFFFFFFFFFFFFFFFFFFFF AND PUSH20 0xFFFFFFFFFFFFFFFFFFFFFFFFFFFFFFFFFFFFFFFF AND DUP2 MSTORE PUSH1 0x20 ADD SWAP1 DUP2 MSTORE PUSH1 0x20 ADD PUSH1 0x0 KECCAK256 PUSH1 0x17 ADD SLOAD SWAP1 POP SWAP2 SWAP1 POP JUMP JUMPDEST PUSH1 0x0 PUSH32 0x1FFC9A700000000000000000000000000000000000000000000000000000000 PUSH28 0xFFFFFFFFFFFFFFFFFFFFFFFFFFFFFFFFFFFFFFFFFFFFFFFFFFFFFFFF NOT AND DUP3 PUSH28 0xFFFFFFFFFFFFFFFFFFFFFFFFFFFFFFFFFFFFFFFFFFFFFFFFFFFFFFFF NOT AND EQ SWAP1 POP SWAP2 SWAP1 POP JUMP JUMPDEST PUSH2 0x3BDC PUSH2 0x3D46 JUMP JUMPDEST PUSH20 0xFFFFFFFFFFFFFFFFFFFFFFFFFFFFFFFFFFFFFFFF AND PUSH2 0x3BFA PUSH2 0x258F JUMP JUMPDEST PUSH20 0xFFFFFFFFFFFFFFFFFFFFFFFFFFFFFFFFFFFFFFFF AND EQ PUSH2 0x3C50 JUMPI PUSH1 0x40 MLOAD PUSH32 0x8C379A000000000000000000000000000000000000000000000000000000000 DUP2 MSTORE PUSH1 0x4 ADD PUSH2 0x3C47 SWAP1 PUSH2 0x59EF JUMP JUMPDEST PUSH1 0x40 MLOAD DUP1 SWAP2 SUB SWAP1 REVERT JUMPDEST JUMP JUMPDEST PUSH2 0x3C63 DUP2 PUSH2 0x3C5E PUSH2 0x3D46 JUMP JUMPDEST PUSH2 0x3EF4 JUMP JUMPDEST POP JUMP JUMPDEST PUSH2 0x3C70 DUP3 DUP3 PUSH2 0x25B8 JUMP JUMPDEST PUSH2 0x3D42 JUMPI PUSH1 0x1 DUP1 PUSH1 0x0 DUP5 DUP2 MSTORE PUSH1 0x20 ADD SWAP1 DUP2 MSTORE PUSH1 0x20 ADD PUSH1 0x0 KECCAK256 PUSH1 0x0 ADD PUSH1 0x0 DUP4 PUSH20 0xFFFFFFFFFFFFFFFFFFFFFFFFFFFFFFFFFFFFFFFF AND PUSH20 0xFFFFFFFFFFFFFFFFFFFFFFFFFFFFFFFFFFFFFFFF AND DUP2 MSTORE PUSH1 0x20 ADD SWAP1 DUP2 MSTORE PUSH1 0x20 ADD PUSH1 0x0 KECCAK256 PUSH1 0x0 PUSH2 0x100 EXP DUP2 SLOAD DUP2 PUSH1 0xFF MUL NOT AND SWAP1 DUP4 ISZERO ISZERO MUL OR SWAP1 SSTORE POP PUSH2 0x3CE7 PUSH2 0x3D46 JUMP JUMPDEST PUSH20 0xFFFFFFFFFFFFFFFFFFFFFFFFFFFFFFFFFFFFFFFF AND DUP2 PUSH20 0xFFFFFFFFFFFFFFFFFFFFFFFFFFFFFFFFFFFFFFFF AND DUP4 PUSH32 0x2F8788117E7EFF1D82E926EC794901D17C78024A50270940304540A733656F0D PUSH1 0x40 MLOAD PUSH1 0x40 MLOAD DUP1 SWAP2 SUB SWAP1 LOG4 JUMPDEST POP POP JUMP JUMPDEST PUSH1 0x0 CALLER SWAP1 POP SWAP1 JUMP JUMPDEST PUSH2 0x3D58 DUP3 DUP3 PUSH2 0x25B8 JUMP JUMPDEST ISZERO PUSH2 0x3E2C JUMPI PUSH1 0x0 PUSH1 0x1 PUSH1 0x0 DUP5 DUP2 MSTORE PUSH1 0x20 ADD SWAP1 DUP2 MSTORE PUSH1 0x20 ADD PUSH1 0x0 KECCAK256 PUSH1 0x0 ADD PUSH1 0x0 DUP4 PUSH20 0xFFFFFFFFFFFFFFFFFFFFFFFFFFFFFFFFFFFFFFFF AND PUSH20 0xFFFFFFFFFFFFFFFFFFFFFFFFFFFFFFFFFFFFFFFF AND DUP2 MSTORE PUSH1 0x20 ADD SWAP1 DUP2 MSTORE PUSH1 0x20 ADD PUSH1 0x0 KECCAK256 PUSH1 0x0 PUSH2 0x100 EXP DUP2 SLOAD DUP2 PUSH1 0xFF MUL NOT AND SWAP1 DUP4 ISZERO ISZERO MUL OR SWAP1 SSTORE POP PUSH2 0x3DD1 PUSH2 0x3D46 JUMP JUMPDEST PUSH20 0xFFFFFFFFFFFFFFFFFFFFFFFFFFFFFFFFFFFFFFFF AND DUP2 PUSH20 0xFFFFFFFFFFFFFFFFFFFFFFFFFFFFFFFFFFFFFFFF AND DUP4 PUSH32 0xF6391F5C32D9C69D2A47EA670B442974B53935D1EDC7FD64EB21E047A839171B PUSH1 0x40 MLOAD PUSH1 0x40 MLOAD DUP1 SWAP2 SUB SWAP1 LOG4 JUMPDEST POP POP JUMP JUMPDEST PUSH1 0x0 DUP1 PUSH1 0x0 SWAP1 SLOAD SWAP1 PUSH2 0x100 EXP SWAP1 DIV PUSH20 0xFFFFFFFFFFFFFFFFFFFFFFFFFFFFFFFFFFFFFFFF AND SWAP1 POP DUP2 PUSH1 0x0 DUP1 PUSH2 0x100 EXP DUP2 SLOAD DUP2 PUSH20 0xFFFFFFFFFFFFFFFFFFFFFFFFFFFFFFFFFFFFFFFF MUL NOT AND SWAP1 DUP4 PUSH20 0xFFFFFFFFFFFFFFFFFFFFFFFFFFFFFFFFFFFFFFFF AND MUL OR SWAP1 SSTORE POP DUP2 PUSH20 0xFFFFFFFFFFFFFFFFFFFFFFFFFFFFFFFFFFFFFFFF AND DUP2 PUSH20 0xFFFFFFFFFFFFFFFFFFFFFFFFFFFFFFFFFFFFFFFF AND PUSH32 0x8BE0079C531659141344CD1FD0A4F28419497F9722A3DAAFE3B4186F6B6457E0 PUSH1 0x40 MLOAD PUSH1 0x40 MLOAD DUP1 SWAP2 SUB SWAP1 LOG3 POP POP JUMP JUMPDEST PUSH2 0x3EFE DUP3 DUP3 PUSH2 0x25B8 JUMP JUMPDEST PUSH2 0x3F75 JUMPI PUSH2 0x3F0B DUP2 PUSH2 0x3F79 JUMP JUMPDEST PUSH2 0x3F19 DUP4 PUSH1 0x0 SHR PUSH1 0x20 PUSH2 0x3FA6 JUMP JUMPDEST PUSH1 0x40 MLOAD PUSH1 0x20 ADD PUSH2 0x3F2A SWAP3 SWAP2 SWAP1 PUSH2 0x5B18 JUMP JUMPDEST PUSH1 0x40 MLOAD PUSH1 0x20 DUP2 DUP4 SUB SUB DUP2 MSTORE SWAP1 PUSH1 0x40 MSTORE PUSH1 0x40 MLOAD PUSH32 0x8C379A000000000000000000000000000000000000000000000000000000000 DUP2 MSTORE PUSH1 0x4 ADD PUSH2 0x3F6C SWAP2 SWAP1 PUSH2 0x5B8B JUMP JUMPDEST PUSH1 0x40 MLOAD DUP1 SWAP2 SUB SWAP1 REVERT JUMPDEST POP POP JUMP JUMPDEST PUSH1 0x60 PUSH2 0x3F9F DUP3 PUSH20 0xFFFFFFFFFFFFFFFFFFFFFFFFFFFFFFFFFFFFFFFF AND PUSH1 0x14 PUSH1 0xFF AND PUSH2 0x3FA6 JUMP JUMPDEST SWAP1 POP SWAP2 SWAP1 POP JUMP JUMPDEST PUSH1 0x60 PUSH1 0x0 PUSH1 0x2 DUP4 PUSH1 0x2 PUSH2 0x3FB9 SWAP2 SWAP1 PUSH2 0x585D JUMP JUMPDEST PUSH2 0x3FC3 SWAP2 SWAP1 PUSH2 0x596F JUMP JUMPDEST PUSH8 0xFFFFFFFFFFFFFFFF DUP2 GT ISZERO PUSH2 0x3FDC JUMPI PUSH2 0x3FDB PUSH2 0x454F JUMP JUMPDEST JUMPDEST PUSH1 0x40 MLOAD SWAP1 DUP1 DUP3 MSTORE DUP1 PUSH1 0x1F ADD PUSH1 0x1F NOT AND PUSH1 0x20 ADD DUP3 ADD PUSH1 0x40 MSTORE DUP1 ISZERO PUSH2 0x400E JUMPI DUP2 PUSH1 0x20 ADD PUSH1 0x1 DUP3 MUL DUP1 CALLDATASIZE DUP4 CALLDATACOPY DUP1 DUP3 ADD SWAP2 POP POP SWAP1 POP JUMPDEST POP SWAP1 POP PUSH32 0x3000000000000000000000000000000000000000000000000000000000000000 DUP2 PUSH1 0x0 DUP2 MLOAD DUP2 LT PUSH2 0x4046 JUMPI PUSH2 0x4045 PUSH2 0x511B JUMP JUMPDEST JUMPDEST PUSH1 0x20 ADD ADD SWAP1 PUSH31 0xFFFFFFFFFFFFFFFFFFFFFFFFFFFFFFFFFFFFFFFFFFFFFFFFFFFFFFFFFFFFFF NOT AND SWAP1 DUP2 PUSH1 0x0 BYTE SWAP1 MSTORE8 POP PUSH32 0x7800000000000000000000000000000000000000000000000000000000000000 DUP2 PUSH1 0x1 DUP2 MLOAD DUP2 LT PUSH2 0x40AA JUMPI PUSH2 0x40A9 PUSH2 0x511B JUMP JUMPDEST JUMPDEST PUSH1 0x20 ADD ADD SWAP1 PUSH31 0xFFFFFFFFFFFFFFFFFFFFFFFFFFFFFFFFFFFFFFFFFFFFFFFFFFFFFFFFFFFFFF NOT AND SWAP1 DUP2 PUSH1 0x0 BYTE SWAP1 MSTORE8 POP PUSH1 0x0 PUSH1 0x1 DUP5 PUSH1 0x2 PUSH2 0x40EA SWAP2 SWAP1 PUSH2 0x585D JUMP JUMPDEST PUSH2 0x40F4 SWAP2 SWAP1 PUSH2 0x596F JUMP JUMPDEST SWAP1 POP JUMPDEST PUSH1 0x1 DUP2 GT ISZERO PUSH2 0x4194 JUMPI PUSH32 0x3031323334353637383961626364656600000000000000000000000000000000 PUSH1 0xF DUP7 AND PUSH1 0x10 DUP2 LT PUSH2 0x4136 JUMPI PUSH2 0x4135 PUSH2 0x511B JUMP JUMPDEST JUMPDEST BYTE PUSH1 0xF8 SHL DUP3 DUP3 DUP2 MLOAD DUP2 LT PUSH2 0x414D JUMPI PUSH2 0x414C PUSH2 0x511B JUMP JUMPDEST JUMPDEST PUSH1 0x20 ADD ADD SWAP1 PUSH31 0xFFFFFFFFFFFFFFFFFFFFFFFFFFFFFFFFFFFFFFFFFFFFFFFFFFFFFFFFFFFFFF NOT AND SWAP1 DUP2 PUSH1 0x0 BYTE SWAP1 MSTORE8 POP PUSH1 0x4 DUP6 SWAP1 SHR SWAP5 POP DUP1 PUSH2 0x418D SWAP1 PUSH2 0x5BAD JUMP JUMPDEST SWAP1 POP PUSH2 0x40F7 JUMP JUMPDEST POP PUSH1 0x0 DUP5 EQ PUSH2 0x41D8 JUMPI PUSH1 0x40 MLOAD PUSH32 0x8C379A000000000000000000000000000000000000000000000000000000000 DUP2 MSTORE PUSH1 0x4 ADD PUSH2 0x41CF SWAP1 PUSH2 0x5C22 JUMP JUMPDEST PUSH1 0x40 MLOAD DUP1 SWAP2 SUB SWAP1 REVERT JUMPDEST DUP1 SWAP2 POP POP SWAP3 SWAP2 POP POP JUMP JUMPDEST DUP3 PUSH1 0x5 DUP2 ADD SWAP3 DUP3 ISZERO PUSH2 0x4211 JUMPI SWAP2 PUSH1 0x20 MUL DUP3 ADD JUMPDEST DUP3 DUP2 GT ISZERO PUSH2 0x4210 JUMPI DUP3 MLOAD DUP3 SSTORE SWAP2 PUSH1 0x20 ADD SWAP2 SWAP1 PUSH1 0x1 ADD SWAP1 PUSH2 0x41F5 JUMP JUMPDEST JUMPDEST POP SWAP1 POP PUSH2 0x421E SWAP2 SWAP1 PUSH2 0x4314 JUMP JUMPDEST POP SWAP1 JUMP JUMPDEST DUP3 PUSH1 0xA DUP2 ADD SWAP3 DUP3 ISZERO PUSH2 0x4251 JUMPI SWAP2 PUSH1 0x20 MUL DUP3 ADD JUMPDEST DUP3 DUP2 GT ISZERO PUSH2 0x4250 JUMPI DUP3 MLOAD DUP3 SSTORE SWAP2 PUSH1 0x20 ADD SWAP2 SWAP1 PUSH1 0x1 ADD SWAP1 PUSH2 0x4235 JUMP JUMPDEST JUMPDEST POP SWAP1 POP PUSH2 0x425E SWAP2 SWAP1 PUSH2 0x4314 JUMP JUMPDEST POP SWAP1 JUMP JUMPDEST PUSH1 0x40 MLOAD DUP1 PUSH2 0x180 ADD PUSH1 0x40 MSTORE DUP1 PUSH1 0x0 DUP2 MSTORE PUSH1 0x20 ADD PUSH1 0x0 DUP2 MSTORE PUSH1 0x20 ADD PUSH1 0x0 DUP2 MSTORE PUSH1 0x20 ADD PUSH2 0x428B PUSH2 0x42CF JUMP JUMPDEST DUP2 MSTORE PUSH1 0x20 ADD PUSH1 0x0 DUP2 MSTORE PUSH1 0x20 ADD PUSH1 0x0 DUP2 MSTORE PUSH1 0x20 ADD PUSH1 0x0 DUP2 MSTORE PUSH1 0x20 ADD PUSH1 0x0 DUP2 MSTORE PUSH1 0x20 ADD PUSH1 0x0 DUP2 MSTORE PUSH1 0x20 ADD PUSH2 0x42BB PUSH2 0x42F1 JUMP JUMPDEST DUP2 MSTORE PUSH1 0x20 ADD PUSH1 0x0 DUP2 MSTORE PUSH1 0x20 ADD PUSH1 0x0 DUP2 MSTORE POP SWAP1 JUMP JUMPDEST PUSH1 0x40 MLOAD DUP1 PUSH1 0xA0 ADD PUSH1 0x40 MSTORE DUP1 PUSH1 0x5 SWAP1 PUSH1 0x20 DUP3 MUL DUP1 CALLDATASIZE DUP4 CALLDATACOPY DUP1 DUP3 ADD SWAP2 POP POP SWAP1 POP POP SWAP1 JUMP JUMPDEST PUSH1 0x40 MLOAD DUP1 PUSH2 0x140 ADD PUSH1 0x40 MSTORE DUP1 PUSH1 0xA SWAP1 PUSH1 0x20 DUP3 MUL DUP1 CALLDATASIZE DUP4 CALLDATACOPY DUP1 DUP3 ADD SWAP2 POP POP SWAP1 POP POP SWAP1 JUMP JUMPDEST JUMPDEST DUP1 DUP3 GT ISZERO PUSH2 0x432D JUMPI PUSH1 0x0 DUP2 PUSH1 0x0 SWAP1 SSTORE POP PUSH1 0x1 ADD PUSH2 0x4315 JUMP JUMPDEST POP SWAP1 JUMP JUMPDEST PUSH1 0x0 PUSH1 0x40 MLOAD SWAP1 POP SWAP1 JUMP JUMPDEST PUSH1 0x0 DUP1 REVERT JUMPDEST PUSH1 0x0 DUP1 REVERT JUMPDEST PUSH1 0x0 PUSH32 0xFFFFFFFF00000000000000000000000000000000000000000000000000000000 DUP3 AND SWAP1 POP SWAP2 SWAP1 POP JUMP JUMPDEST PUSH2 0x437A DUP2 PUSH2 0x4345 JUMP JUMPDEST DUP2 EQ PUSH2 0x4385 JUMPI PUSH1 0x0 DUP1 REVERT JUMPDEST POP JUMP JUMPDEST PUSH1 0x0 DUP2 CALLDATALOAD SWAP1 POP PUSH2 0x4397 DUP2 PUSH2 0x4371 JUMP JUMPDEST SWAP3 SWAP2 POP POP JUMP JUMPDEST PUSH1 0x0 PUSH1 0x20 DUP3 DUP5 SUB SLT ISZERO PUSH2 0x43B3 JUMPI PUSH2 0x43B2 PUSH2 0x433B JUMP JUMPDEST JUMPDEST PUSH1 0x0 PUSH2 0x43C1 DUP5 DUP3 DUP6 ADD PUSH2 0x4388 JUMP JUMPDEST SWAP2 POP POP SWAP3 SWAP2 POP POP JUMP JUMPDEST PUSH1 0x0 DUP2 ISZERO ISZERO SWAP1 POP SWAP2 SWAP1 POP JUMP JUMPDEST PUSH2 0x43DF DUP2 PUSH2 0x43CA JUMP JUMPDEST DUP3 MSTORE POP POP JUMP JUMPDEST PUSH1 0x0 PUSH1 0x20 DUP3 ADD SWAP1 POP PUSH2 0x43FA PUSH1 0x0 DUP4 ADD DUP5 PUSH2 0x43D6 JUMP JUMPDEST SWAP3 SWAP2 POP POP JUMP JUMPDEST PUSH1 0x0 PUSH20 0xFFFFFFFFFFFFFFFFFFFFFFFFFFFFFFFFFFFFFFFF DUP3 AND SWAP1 POP SWAP2 SWAP1 POP JUMP JUMPDEST PUSH1 0x0 DUP2 SWAP1 POP SWAP2 SWAP1 POP JUMP JUMPDEST PUSH1 0x0 PUSH2 0x4445 PUSH2 0x4440 PUSH2 0x443B DUP5 PUSH2 0x4400 JUMP JUMPDEST PUSH2 0x4420 JUMP JUMPDEST PUSH2 0x4400 JUMP JUMPDEST SWAP1 POP SWAP2 SWAP1 POP JUMP JUMPDEST PUSH1 0x0 PUSH2 0x4457 DUP3 PUSH2 0x442A JUMP JUMPDEST SWAP1 POP SWAP2 SWAP1 POP JUMP JUMPDEST PUSH1 0x0 PUSH2 0x4469 DUP3 PUSH2 0x444C JUMP JUMPDEST SWAP1 POP SWAP2 SWAP1 POP JUMP JUMPDEST PUSH2 0x4479 DUP2 PUSH2 0x445E JUMP JUMPDEST DUP3 MSTORE POP POP JUMP JUMPDEST PUSH1 0x0 PUSH1 0x20 DUP3 ADD SWAP1 POP PUSH2 0x4494 PUSH1 0x0 DUP4 ADD DUP5 PUSH2 0x4470 JUMP JUMPDEST SWAP3 SWAP2 POP POP JUMP JUMPDEST PUSH1 0x0 PUSH2 0x44A5 DUP3 PUSH2 0x4400 JUMP JUMPDEST SWAP1 POP SWAP2 SWAP1 POP JUMP JUMPDEST PUSH2 0x44B5 DUP2 PUSH2 0x449A JUMP JUMPDEST DUP2 EQ PUSH2 0x44C0 JUMPI PUSH1 0x0 DUP1 REVERT JUMPDEST POP JUMP JUMPDEST PUSH1 0x0 DUP2 CALLDATALOAD SWAP1 POP PUSH2 0x44D2 DUP2 PUSH2 0x44AC JUMP JUMPDEST SWAP3 SWAP2 POP POP JUMP JUMPDEST PUSH1 0x0 PUSH1 0x20 DUP3 DUP5 SUB SLT ISZERO PUSH2 0x44EE JUMPI PUSH2 0x44ED PUSH2 0x433B JUMP JUMPDEST JUMPDEST PUSH1 0x0 PUSH2 0x44FC DUP5 DUP3 DUP6 ADD PUSH2 0x44C3 JUMP JUMPDEST SWAP2 POP POP SWAP3 SWAP2 POP POP JUMP JUMPDEST PUSH1 0x0 DUP2 SWAP1 POP SWAP2 SWAP1 POP JUMP JUMPDEST PUSH2 0x4518 DUP2 PUSH2 0x4505 JUMP JUMPDEST DUP3 MSTORE POP POP JUMP JUMPDEST PUSH1 0x0 PUSH1 0x20 DUP3 ADD SWAP1 POP PUSH2 0x4533 PUSH1 0x0 DUP4 ADD DUP5 PUSH2 0x450F JUMP JUMPDEST SWAP3 SWAP2 POP POP JUMP JUMPDEST PUSH1 0x0 DUP1 REVERT JUMPDEST PUSH1 0x0 PUSH1 0x1F NOT PUSH1 0x1F DUP4 ADD AND SWAP1 POP SWAP2 SWAP1 POP JUMP JUMPDEST PUSH32 0x4E487B7100000000000000000000000000000000000000000000000000000000 PUSH1 0x0 MSTORE PUSH1 0x41 PUSH1 0x4 MSTORE PUSH1 0x24 PUSH1 0x0 REVERT JUMPDEST PUSH2 0x4587 DUP3 PUSH2 0x453E JUMP JUMPDEST DUP2 ADD DUP2 DUP2 LT PUSH8 0xFFFFFFFFFFFFFFFF DUP3 GT OR ISZERO PUSH2 0x45A6 JUMPI PUSH2 0x45A5 PUSH2 0x454F JUMP JUMPDEST JUMPDEST DUP1 PUSH1 0x40 MSTORE POP POP POP JUMP JUMPDEST PUSH1 0x0 PUSH2 0x45B9 PUSH2 0x4331 JUMP JUMPDEST SWAP1 POP PUSH2 0x45C5 DUP3 DUP3 PUSH2 0x457E JUMP JUMPDEST SWAP2 SWAP1 POP JUMP JUMPDEST PUSH1 0x0 PUSH8 0xFFFFFFFFFFFFFFFF DUP3 GT ISZERO PUSH2 0x45E5 JUMPI PUSH2 0x45E4 PUSH2 0x454F JUMP JUMPDEST JUMPDEST PUSH1 0x20 DUP3 MUL SWAP1 POP PUSH1 0x20 DUP2 ADD SWAP1 POP SWAP2 SWAP1 POP JUMP JUMPDEST PUSH1 0x0 DUP1 REVERT JUMPDEST PUSH1 0x0 DUP1 REVERT JUMPDEST PUSH2 0x4609 DUP2 PUSH2 0x4505 JUMP JUMPDEST DUP2 EQ PUSH2 0x4614 JUMPI PUSH1 0x0 DUP1 REVERT JUMPDEST POP JUMP JUMPDEST PUSH1 0x0 DUP2 CALLDATALOAD SWAP1 POP PUSH2 0x4626 DUP2 PUSH2 0x4600 JUMP JUMPDEST SWAP3 SWAP2 POP POP JUMP JUMPDEST PUSH1 0x0 PUSH8 0xFFFFFFFFFFFFFFFF DUP3 GT ISZERO PUSH2 0x4647 JUMPI PUSH2 0x4646 PUSH2 0x454F JUMP JUMPDEST JUMPDEST PUSH1 0x20 DUP3 MUL SWAP1 POP SWAP2 SWAP1 POP JUMP JUMPDEST PUSH1 0x0 PUSH2 0x4665 PUSH2 0x4660 DUP5 PUSH2 0x462C JUMP JUMPDEST PUSH2 0x45AF JUMP JUMPDEST SWAP1 POP DUP1 PUSH1 0x20 DUP5 MUL DUP4 ADD DUP6 DUP2 GT ISZERO PUSH2 0x467F JUMPI PUSH2 0x467E PUSH2 0x45F6 JUMP JUMPDEST JUMPDEST DUP4 JUMPDEST DUP2 DUP2 LT ISZERO PUSH2 0x46A8 JUMPI DUP1 PUSH2 0x4694 DUP9 DUP3 PUSH2 0x4617 JUMP JUMPDEST DUP5 MSTORE PUSH1 0x20 DUP5 ADD SWAP4 POP POP PUSH1 0x20 DUP2 ADD SWAP1 POP PUSH2 0x4681 JUMP JUMPDEST POP POP POP SWAP4 SWAP3 POP POP POP JUMP JUMPDEST PUSH1 0x0 DUP3 PUSH1 0x1F DUP4 ADD SLT PUSH2 0x46C7 JUMPI PUSH2 0x46C6 PUSH2 0x4539 JUMP JUMPDEST JUMPDEST PUSH1 0x5 PUSH2 0x46D4 DUP5 DUP3 DUP6 PUSH2 0x4652 JUMP JUMPDEST SWAP2 POP POP SWAP3 SWAP2 POP POP JUMP JUMPDEST PUSH1 0x0 PUSH8 0xFFFFFFFFFFFFFFFF DUP3 GT ISZERO PUSH2 0x46F8 JUMPI PUSH2 0x46F7 PUSH2 0x454F JUMP JUMPDEST JUMPDEST PUSH1 0x20 DUP3 MUL SWAP1 POP SWAP2 SWAP1 POP JUMP JUMPDEST PUSH1 0x0 PUSH2 0x4716 PUSH2 0x4711 DUP5 PUSH2 0x46DD JUMP JUMPDEST PUSH2 0x45AF JUMP JUMPDEST SWAP1 POP DUP1 PUSH1 0x20 DUP5 MUL DUP4 ADD DUP6 DUP2 GT ISZERO PUSH2 0x4730 JUMPI PUSH2 0x472F PUSH2 0x45F6 JUMP JUMPDEST JUMPDEST DUP4 JUMPDEST DUP2 DUP2 LT ISZERO PUSH2 0x4759 JUMPI DUP1 PUSH2 0x4745 DUP9 DUP3 PUSH2 0x4617 JUMP JUMPDEST DUP5 MSTORE PUSH1 0x20 DUP5 ADD SWAP4 POP POP PUSH1 0x20 DUP2 ADD SWAP1 POP PUSH2 0x4732 JUMP JUMPDEST POP POP POP SWAP4 SWAP3 POP POP POP JUMP JUMPDEST PUSH1 0x0 DUP3 PUSH1 0x1F DUP4 ADD SLT PUSH2 0x4778 JUMPI PUSH2 0x4777 PUSH2 0x4539 JUMP JUMPDEST JUMPDEST PUSH1 0xA PUSH2 0x4785 DUP5 DUP3 DUP6 PUSH2 0x4703 JUMP JUMPDEST SWAP2 POP POP SWAP3 SWAP2 POP POP JUMP JUMPDEST PUSH1 0x0 PUSH2 0x320 DUP3 DUP5 SUB SLT ISZERO PUSH2 0x47A5 JUMPI PUSH2 0x47A4 PUSH2 0x45FB JUMP JUMPDEST JUMPDEST PUSH2 0x47B0 PUSH2 0x180 PUSH2 0x45AF JUMP JUMPDEST SWAP1 POP PUSH1 0x0 PUSH2 0x47C0 DUP5 DUP3 DUP6 ADD PUSH2 0x4617 JUMP JUMPDEST PUSH1 0x0 DUP4 ADD MSTORE POP PUSH1 0x20 PUSH2 0x47D4 DUP5 DUP3 DUP6 ADD PUSH2 0x4617 JUMP JUMPDEST PUSH1 0x20 DUP4 ADD MSTORE POP PUSH1 0x40 PUSH2 0x47E8 DUP5 DUP3 DUP6 ADD PUSH2 0x4617 JUMP JUMPDEST PUSH1 0x40 DUP4 ADD MSTORE POP PUSH1 0x60 PUSH2 0x47FC DUP5 DUP3 DUP6 ADD PUSH2 0x46B2 JUMP JUMPDEST PUSH1 0x60 DUP4 ADD MSTORE POP PUSH2 0x100 PUSH2 0x4811 DUP5 DUP3 DUP6 ADD PUSH2 0x4617 JUMP JUMPDEST PUSH1 0x80 DUP4 ADD MSTORE POP PUSH2 0x120 PUSH2 0x4826 DUP5 DUP3 DUP6 ADD PUSH2 0x4617 JUMP JUMPDEST PUSH1 0xA0 DUP4 ADD MSTORE POP PUSH2 0x140 PUSH2 0x483B DUP5 DUP3 DUP6 ADD PUSH2 0x4617 JUMP JUMPDEST PUSH1 0xC0 DUP4 ADD MSTORE POP PUSH2 0x160 PUSH2 0x4850 DUP5 DUP3 DUP6 ADD PUSH2 0x4617 JUMP JUMPDEST PUSH1 0xE0 DUP4 ADD MSTORE POP PUSH2 0x180 PUSH2 0x4865 DUP5 DUP3 DUP6 ADD PUSH2 0x4617 JUMP JUMPDEST PUSH2 0x100 DUP4 ADD MSTORE POP PUSH2 0x1A0 PUSH2 0x487B DUP5 DUP3 DUP6 ADD PUSH2 0x4763 JUMP JUMPDEST PUSH2 0x120 DUP4 ADD MSTORE POP PUSH2 0x2E0 PUSH2 0x4891 DUP5 DUP3 DUP6 ADD PUSH2 0x4617 JUMP JUMPDEST PUSH2 0x140 DUP4 ADD MSTORE POP PUSH2 0x300 PUSH2 0x48A7 DUP5 DUP3 DUP6 ADD PUSH2 0x4617 JUMP JUMPDEST PUSH2 0x160 DUP4 ADD MSTORE POP SWAP3 SWAP2 POP POP JUMP JUMPDEST PUSH1 0x0 PUSH2 0x48C7 PUSH2 0x48C2 DUP5 PUSH2 0x45CA JUMP JUMPDEST PUSH2 0x45AF JUMP JUMPDEST SWAP1 POP DUP1 DUP4 DUP3 MSTORE PUSH1 0x20 DUP3 ADD SWAP1 POP PUSH2 0x320 DUP5 MUL DUP4 ADD DUP6 DUP2 GT ISZERO PUSH2 0x48EB JUMPI PUSH2 0x48EA PUSH2 0x45F6 JUMP JUMPDEST JUMPDEST DUP4 JUMPDEST DUP2 DUP2 LT ISZERO PUSH2 0x4915 JUMPI DUP1 PUSH2 0x4900 DUP9 DUP3 PUSH2 0x478E JUMP JUMPDEST DUP5 MSTORE PUSH1 0x20 DUP5 ADD SWAP4 POP POP PUSH2 0x320 DUP2 ADD SWAP1 POP PUSH2 0x48ED JUMP JUMPDEST POP POP POP SWAP4 SWAP3 POP POP POP JUMP JUMPDEST PUSH1 0x0 DUP3 PUSH1 0x1F DUP4 ADD SLT PUSH2 0x4934 JUMPI PUSH2 0x4933 PUSH2 0x4539 JUMP JUMPDEST JUMPDEST DUP2 CALLDATALOAD PUSH2 0x4944 DUP5 DUP3 PUSH1 0x20 DUP7 ADD PUSH2 0x48B4 JUMP JUMPDEST SWAP2 POP POP SWAP3 SWAP2 POP POP JUMP JUMPDEST PUSH1 0x0 PUSH8 0xFFFFFFFFFFFFFFFF DUP3 GT ISZERO PUSH2 0x4968 JUMPI PUSH2 0x4967 PUSH2 0x454F JUMP JUMPDEST JUMPDEST PUSH1 0x20 DUP3 MUL SWAP1 POP PUSH1 0x20 DUP2 ADD SWAP1 POP SWAP2 SWAP1 POP JUMP JUMPDEST PUSH1 0x0 PUSH2 0x498C PUSH2 0x4987 DUP5 PUSH2 0x494D JUMP JUMPDEST PUSH2 0x45AF JUMP JUMPDEST SWAP1 POP DUP1 DUP4 DUP3 MSTORE PUSH1 0x20 DUP3 ADD SWAP1 POP PUSH1 0x20 DUP5 MUL DUP4 ADD DUP6 DUP2 GT ISZERO PUSH2 0x49AF JUMPI PUSH2 0x49AE PUSH2 0x45F6 JUMP JUMPDEST JUMPDEST DUP4 JUMPDEST DUP2 DUP2 LT ISZERO PUSH2 0x49D8 JUMPI DUP1 PUSH2 0x49C4 DUP9 DUP3 PUSH2 0x44C3 JUMP JUMPDEST DUP5 MSTORE PUSH1 0x20 DUP5 ADD SWAP4 POP POP PUSH1 0x20 DUP2 ADD SWAP1 POP PUSH2 0x49B1 JUMP JUMPDEST POP POP POP SWAP4 SWAP3 POP POP POP JUMP JUMPDEST PUSH1 0x0 DUP3 PUSH1 0x1F DUP4 ADD SLT PUSH2 0x49F7 JUMPI PUSH2 0x49F6 PUSH2 0x4539 JUMP JUMPDEST JUMPDEST DUP2 CALLDATALOAD PUSH2 0x4A07 DUP5 DUP3 PUSH1 0x20 DUP7 ADD PUSH2 0x4979 JUMP JUMPDEST SWAP2 POP POP SWAP3 SWAP2 POP POP JUMP JUMPDEST PUSH1 0x0 DUP1 PUSH1 0x40 DUP4 DUP6 SUB SLT ISZERO PUSH2 0x4A27 JUMPI PUSH2 0x4A26 PUSH2 0x433B JUMP JUMPDEST JUMPDEST PUSH1 0x0 DUP4 ADD CALLDATALOAD PUSH8 0xFFFFFFFFFFFFFFFF DUP2 GT ISZERO PUSH2 0x4A45 JUMPI PUSH2 0x4A44 PUSH2 0x4340 JUMP JUMPDEST JUMPDEST PUSH2 0x4A51 DUP6 DUP3 DUP7 ADD PUSH2 0x491F JUMP JUMPDEST SWAP3 POP POP PUSH1 0x20 DUP4 ADD CALLDATALOAD PUSH8 0xFFFFFFFFFFFFFFFF DUP2 GT ISZERO PUSH2 0x4A72 JUMPI PUSH2 0x4A71 PUSH2 0x4340 JUMP JUMPDEST JUMPDEST PUSH2 0x4A7E DUP6 DUP3 DUP7 ADD PUSH2 0x49E2 JUMP JUMPDEST SWAP2 POP POP SWAP3 POP SWAP3 SWAP1 POP JUMP JUMPDEST PUSH1 0x0 DUP1 PUSH1 0x0 DUP1 PUSH1 0x80 DUP6 DUP8 SUB SLT ISZERO PUSH2 0x4AA2 JUMPI PUSH2 0x4AA1 PUSH2 0x433B JUMP JUMPDEST JUMPDEST PUSH1 0x0 PUSH2 0x4AB0 DUP8 DUP3 DUP9 ADD PUSH2 0x4617 JUMP JUMPDEST SWAP5 POP POP PUSH1 0x20 PUSH2 0x4AC1 DUP8 DUP3 DUP9 ADD PUSH2 0x4617 JUMP JUMPDEST SWAP4 POP POP PUSH1 0x40 PUSH2 0x4AD2 DUP8 DUP3 DUP9 ADD PUSH2 0x4617 JUMP JUMPDEST SWAP3 POP POP PUSH1 0x60 PUSH2 0x4AE3 DUP8 DUP3 DUP9 ADD PUSH2 0x4617 JUMP JUMPDEST SWAP2 POP POP SWAP3 SWAP6 SWAP2 SWAP5 POP SWAP3 POP JUMP JUMPDEST PUSH1 0x0 DUP2 SWAP1 POP SWAP2 SWAP1 POP JUMP JUMPDEST PUSH2 0x4B02 DUP2 PUSH2 0x4AEF JUMP JUMPDEST DUP2 EQ PUSH2 0x4B0D JUMPI PUSH1 0x0 DUP1 REVERT JUMPDEST POP JUMP JUMPDEST PUSH1 0x0 DUP2 CALLDATALOAD SWAP1 POP PUSH2 0x4B1F DUP2 PUSH2 0x4AF9 JUMP JUMPDEST SWAP3 SWAP2 POP POP JUMP JUMPDEST PUSH1 0x0 PUSH1 0x20 DUP3 DUP5 SUB SLT ISZERO PUSH2 0x4B3B JUMPI PUSH2 0x4B3A PUSH2 0x433B JUMP JUMPDEST JUMPDEST PUSH1 0x0 PUSH2 0x4B49 DUP5 DUP3 DUP6 ADD PUSH2 0x4B10 JUMP JUMPDEST SWAP2 POP POP SWAP3 SWAP2 POP POP JUMP JUMPDEST PUSH2 0x4B5B DUP2 PUSH2 0x4AEF JUMP JUMPDEST DUP3 MSTORE POP POP JUMP JUMPDEST PUSH1 0x0 PUSH1 0x20 DUP3 ADD SWAP1 POP PUSH2 0x4B76 PUSH1 0x0 DUP4 ADD DUP5 PUSH2 0x4B52 JUMP JUMPDEST SWAP3 SWAP2 POP POP JUMP JUMPDEST PUSH1 0x0 DUP1 PUSH1 0x40 DUP4 DUP6 SUB SLT ISZERO PUSH2 0x4B93 JUMPI PUSH2 0x4B92 PUSH2 0x433B JUMP JUMPDEST JUMPDEST PUSH1 0x0 PUSH2 0x4BA1 DUP6 DUP3 DUP7 ADD PUSH2 0x4B10 JUMP JUMPDEST SWAP3 POP POP PUSH1 0x20 PUSH2 0x4BB2 DUP6 DUP3 DUP7 ADD PUSH2 0x44C3 JUMP JUMPDEST SWAP2 POP POP SWAP3 POP SWAP3 SWAP1 POP JUMP JUMPDEST PUSH1 0x0 PUSH2 0x4BC7 DUP3 PUSH2 0x444C JUMP JUMPDEST SWAP1 POP SWAP2 SWAP1 POP JUMP JUMPDEST PUSH2 0x4BD7 DUP2 PUSH2 0x4BBC JUMP JUMPDEST DUP3 MSTORE POP POP JUMP JUMPDEST PUSH1 0x0 PUSH1 0x20 DUP3 ADD SWAP1 POP PUSH2 0x4BF2 PUSH1 0x0 DUP4 ADD DUP5 PUSH2 0x4BCE JUMP JUMPDEST SWAP3 SWAP2 POP POP JUMP JUMPDEST PUSH1 0x0 DUP1 PUSH1 0x40 DUP4 DUP6 SUB SLT ISZERO PUSH2 0x4C0F JUMPI PUSH2 0x4C0E PUSH2 0x433B JUMP JUMPDEST JUMPDEST PUSH1 0x0 PUSH2 0x4C1D DUP6 DUP3 DUP7 ADD PUSH2 0x44C3 JUMP JUMPDEST SWAP3 POP POP PUSH1 0x20 PUSH2 0x4C2E DUP6 DUP3 DUP7 ADD PUSH2 0x4617 JUMP JUMPDEST SWAP2 POP POP SWAP3 POP SWAP3 SWAP1 POP JUMP JUMPDEST PUSH2 0x4C41 DUP2 PUSH2 0x4505 JUMP JUMPDEST DUP3 MSTORE POP POP JUMP JUMPDEST PUSH1 0x0 PUSH1 0x5 SWAP1 POP SWAP2 SWAP1 POP JUMP JUMPDEST PUSH1 0x0 DUP2 SWAP1 POP SWAP3 SWAP2 POP POP JUMP JUMPDEST PUSH1 0x0 DUP2 SWAP1 POP SWAP2 SWAP1 POP JUMP JUMPDEST PUSH1 0x0 PUSH2 0x4C73 DUP4 DUP4 PUSH2 0x4C38 JUMP JUMPDEST PUSH1 0x20 DUP4 ADD SWAP1 POP SWAP3 SWAP2 POP POP JUMP JUMPDEST PUSH1 0x0 PUSH1 0x20 DUP3 ADD SWAP1 POP SWAP2 SWAP1 POP JUMP JUMPDEST PUSH2 0x4C95 DUP2 PUSH2 0x4C47 JUMP JUMPDEST PUSH2 0x4C9F DUP2 DUP5 PUSH2 0x4C52 JUMP JUMPDEST SWAP3 POP PUSH2 0x4CAA DUP3 PUSH2 0x4C5D JUMP JUMPDEST DUP1 PUSH1 0x0 JUMPDEST DUP4 DUP2 LT ISZERO PUSH2 0x4CDB JUMPI DUP2 MLOAD PUSH2 0x4CC2 DUP8 DUP3 PUSH2 0x4C67 JUMP JUMPDEST SWAP7 POP PUSH2 0x4CCD DUP4 PUSH2 0x4C7F JUMP JUMPDEST SWAP3 POP POP PUSH1 0x1 DUP2 ADD SWAP1 POP PUSH2 0x4CAE JUMP JUMPDEST POP POP POP POP POP POP JUMP JUMPDEST PUSH1 0x0 PUSH1 0xA SWAP1 POP SWAP2 SWAP1 POP JUMP JUMPDEST PUSH1 0x0 DUP2 SWAP1 POP SWAP3 SWAP2 POP POP JUMP JUMPDEST PUSH1 0x0 DUP2 SWAP1 POP SWAP2 SWAP1 POP JUMP JUMPDEST PUSH1 0x0 PUSH1 0x20 DUP3 ADD SWAP1 POP SWAP2 SWAP1 POP JUMP JUMPDEST PUSH2 0x4D19 DUP2 PUSH2 0x4CE3 JUMP JUMPDEST PUSH2 0x4D23 DUP2 DUP5 PUSH2 0x4CEE JUMP JUMPDEST SWAP3 POP PUSH2 0x4D2E DUP3 PUSH2 0x4CF9 JUMP JUMPDEST DUP1 PUSH1 0x0 JUMPDEST DUP4 DUP2 LT ISZERO PUSH2 0x4D5F JUMPI DUP2 MLOAD PUSH2 0x4D46 DUP8 DUP3 PUSH2 0x4C67 JUMP JUMPDEST SWAP7 POP PUSH2 0x4D51 DUP4 PUSH2 0x4D03 JUMP JUMPDEST SWAP3 POP POP PUSH1 0x1 DUP2 ADD SWAP1 POP PUSH2 0x4D32 JUMP JUMPDEST POP POP POP POP POP POP JUMP JUMPDEST PUSH2 0x320 DUP3 ADD PUSH1 0x0 DUP3 ADD MLOAD PUSH2 0x4D7E PUSH1 0x0 DUP6 ADD DUP3 PUSH2 0x4C38 JUMP JUMPDEST POP PUSH1 0x20 DUP3 ADD MLOAD PUSH2 0x4D91 PUSH1 0x20 DUP6 ADD DUP3 PUSH2 0x4C38 JUMP JUMPDEST POP PUSH1 0x40 DUP3 ADD MLOAD PUSH2 0x4DA4 PUSH1 0x40 DUP6 ADD DUP3 PUSH2 0x4C38 JUMP JUMPDEST POP PUSH1 0x60 DUP3 ADD MLOAD PUSH2 0x4DB7 PUSH1 0x60 DUP6 ADD DUP3 PUSH2 0x4C8C JUMP JUMPDEST POP PUSH1 0x80 DUP3 ADD MLOAD PUSH2 0x4DCB PUSH2 0x100 DUP6 ADD DUP3 PUSH2 0x4C38 JUMP JUMPDEST POP PUSH1 0xA0 DUP3 ADD MLOAD PUSH2 0x4DDF PUSH2 0x120 DUP6 ADD DUP3 PUSH2 0x4C38 JUMP JUMPDEST POP PUSH1 0xC0 DUP3 ADD MLOAD PUSH2 0x4DF3 PUSH2 0x140 DUP6 ADD DUP3 PUSH2 0x4C38 JUMP JUMPDEST POP PUSH1 0xE0 DUP3 ADD MLOAD PUSH2 0x4E07 PUSH2 0x160 DUP6 ADD DUP3 PUSH2 0x4C38 JUMP JUMPDEST POP PUSH2 0x100 DUP3 ADD MLOAD PUSH2 0x4E1C PUSH2 0x180 DUP6 ADD DUP3 PUSH2 0x4C38 JUMP JUMPDEST POP PUSH2 0x120 DUP3 ADD MLOAD PUSH2 0x4E31 PUSH2 0x1A0 DUP6 ADD DUP3 PUSH2 0x4D10 JUMP JUMPDEST POP PUSH2 0x140 DUP3 ADD MLOAD PUSH2 0x4E46 PUSH2 0x2E0 DUP6 ADD DUP3 PUSH2 0x4C38 JUMP JUMPDEST POP PUSH2 0x160 DUP3 ADD MLOAD PUSH2 0x4E5B PUSH2 0x300 DUP6 ADD DUP3 PUSH2 0x4C38 JUMP JUMPDEST POP POP POP POP JUMP JUMPDEST PUSH1 0x0 PUSH2 0x320 DUP3 ADD SWAP1 POP PUSH2 0x4E77 PUSH1 0x0 DUP4 ADD DUP5 PUSH2 0x4D67 JUMP JUMPDEST SWAP3 SWAP2 POP POP JUMP JUMPDEST PUSH1 0x0 PUSH1 0x20 DUP3 DUP5 SUB SLT ISZERO PUSH2 0x4E93 JUMPI PUSH2 0x4E92 PUSH2 0x433B JUMP JUMPDEST JUMPDEST PUSH1 0x0 PUSH2 0x4EA1 DUP5 DUP3 DUP6 ADD PUSH2 0x4617 JUMP JUMPDEST SWAP2 POP POP SWAP3 SWAP2 POP POP JUMP JUMPDEST PUSH1 0x0 DUP2 SWAP1 POP SWAP3 SWAP2 POP POP JUMP JUMPDEST PUSH2 0x4EBE DUP2 PUSH2 0x4C47 JUMP JUMPDEST PUSH2 0x4EC8 DUP2 DUP5 PUSH2 0x4EAA JUMP JUMPDEST SWAP3 POP PUSH2 0x4ED3 DUP3 PUSH2 0x4C5D JUMP JUMPDEST DUP1 PUSH1 0x0 JUMPDEST DUP4 DUP2 LT ISZERO PUSH2 0x4F04 JUMPI DUP2 MLOAD PUSH2 0x4EEB DUP8 DUP3 PUSH2 0x4C67 JUMP JUMPDEST SWAP7 POP PUSH2 0x4EF6 DUP4 PUSH2 0x4C7F JUMP JUMPDEST SWAP3 POP POP PUSH1 0x1 DUP2 ADD SWAP1 POP PUSH2 0x4ED7 JUMP JUMPDEST POP POP POP POP POP POP JUMP JUMPDEST PUSH1 0x0 PUSH1 0xA0 DUP3 ADD SWAP1 POP PUSH2 0x4F21 PUSH1 0x0 DUP4 ADD DUP5 PUSH2 0x4EB5 JUMP JUMPDEST SWAP3 SWAP2 POP POP JUMP JUMPDEST PUSH2 0x4F30 DUP2 PUSH2 0x449A JUMP JUMPDEST DUP3 MSTORE POP POP JUMP JUMPDEST PUSH1 0x0 PUSH1 0x20 DUP3 ADD SWAP1 POP PUSH2 0x4F4B PUSH1 0x0 DUP4 ADD DUP5 PUSH2 0x4F27 JUMP JUMPDEST SWAP3 SWAP2 POP POP JUMP JUMPDEST PUSH1 0x0 DUP1 PUSH1 0x0 PUSH1 0x60 DUP5 DUP7 SUB SLT ISZERO PUSH2 0x4F6A JUMPI PUSH2 0x4F69 PUSH2 0x433B JUMP JUMPDEST JUMPDEST PUSH1 0x0 PUSH2 0x4F78 DUP7 DUP3 DUP8 ADD PUSH2 0x44C3 JUMP JUMPDEST SWAP4 POP POP PUSH1 0x20 PUSH2 0x4F89 DUP7 DUP3 DUP8 ADD PUSH2 0x4617 JUMP JUMPDEST SWAP3 POP POP PUSH1 0x40 PUSH2 0x4F9A DUP7 DUP3 DUP8 ADD PUSH2 0x4617 JUMP JUMPDEST SWAP2 POP POP SWAP3 POP SWAP3 POP SWAP3 JUMP JUMPDEST PUSH1 0x0 DUP2 SWAP1 POP SWAP3 SWAP2 POP POP JUMP JUMPDEST PUSH2 0x4FB8 DUP2 PUSH2 0x4CE3 JUMP JUMPDEST PUSH2 0x4FC2 DUP2 DUP5 PUSH2 0x4FA4 JUMP JUMPDEST SWAP3 POP PUSH2 0x4FCD DUP3 PUSH2 0x4CF9 JUMP JUMPDEST DUP1 PUSH1 0x0 JUMPDEST DUP4 DUP2 LT ISZERO PUSH2 0x4FFE JUMPI DUP2 MLOAD PUSH2 0x4FE5 DUP8 DUP3 PUSH2 0x4C67 JUMP JUMPDEST SWAP7 POP PUSH2 0x4FF0 DUP4 PUSH2 0x4D03 JUMP JUMPDEST SWAP3 POP POP PUSH1 0x1 DUP2 ADD SWAP1 POP PUSH2 0x4FD1 JUMP JUMPDEST POP POP POP POP POP POP JUMP JUMPDEST PUSH1 0x0 PUSH2 0x140 DUP3 ADD SWAP1 POP PUSH2 0x501C PUSH1 0x0 DUP4 ADD DUP5 PUSH2 0x4FAF JUMP JUMPDEST SWAP3 SWAP2 POP POP JUMP JUMPDEST PUSH1 0x0 PUSH2 0x502D DUP3 PUSH2 0x444C JUMP JUMPDEST SWAP1 POP SWAP2 SWAP1 POP JUMP JUMPDEST PUSH2 0x503D DUP2 PUSH2 0x5022 JUMP JUMPDEST DUP3 MSTORE POP POP JUMP JUMPDEST PUSH1 0x0 PUSH1 0x20 DUP3 ADD SWAP1 POP PUSH2 0x5058 PUSH1 0x0 DUP4 ADD DUP5 PUSH2 0x5034 JUMP JUMPDEST SWAP3 SWAP2 POP POP JUMP JUMPDEST PUSH1 0x0 DUP1 PUSH1 0x40 DUP4 DUP6 SUB SLT ISZERO PUSH2 0x5075 JUMPI PUSH2 0x5074 PUSH2 0x433B JUMP JUMPDEST JUMPDEST PUSH1 0x0 PUSH2 0x5083 DUP6 DUP3 DUP7 ADD PUSH2 0x4617 JUMP JUMPDEST SWAP3 POP POP PUSH1 0x20 PUSH2 0x5094 DUP6 DUP3 DUP7 ADD PUSH2 0x44C3 JUMP JUMPDEST SWAP2 POP POP SWAP3 POP SWAP3 SWAP1 POP JUMP JUMPDEST PUSH1 0x0 DUP3 DUP3 MSTORE PUSH1 0x20 DUP3 ADD SWAP1 POP SWAP3 SWAP2 POP POP JUMP JUMPDEST PUSH32 0x3130320000000000000000000000000000000000000000000000000000000000 PUSH1 0x0 DUP3 ADD MSTORE POP JUMP JUMPDEST PUSH1 0x0 PUSH2 0x50E5 PUSH1 0x3 DUP4 PUSH2 0x509E JUMP JUMPDEST SWAP2 POP PUSH2 0x50F0 DUP3 PUSH2 0x50AF JUMP JUMPDEST PUSH1 0x20 DUP3 ADD SWAP1 POP SWAP2 SWAP1 POP JUMP JUMPDEST PUSH1 0x0 PUSH1 0x20 DUP3 ADD SWAP1 POP DUP2 DUP2 SUB PUSH1 0x0 DUP4 ADD MSTORE PUSH2 0x5114 DUP2 PUSH2 0x50D8 JUMP JUMPDEST SWAP1 POP SWAP2 SWAP1 POP JUMP JUMPDEST PUSH32 0x4E487B7100000000000000000000000000000000000000000000000000000000 PUSH1 0x0 MSTORE PUSH1 0x32 PUSH1 0x4 MSTORE PUSH1 0x24 PUSH1 0x0 REVERT JUMPDEST PUSH32 0x3130310000000000000000000000000000000000000000000000000000000000 PUSH1 0x0 DUP3 ADD MSTORE POP JUMP JUMPDEST PUSH1 0x0 PUSH2 0x5180 PUSH1 0x3 DUP4 PUSH2 0x509E JUMP JUMPDEST SWAP2 POP PUSH2 0x518B DUP3 PUSH2 0x514A JUMP JUMPDEST PUSH1 0x20 DUP3 ADD SWAP1 POP SWAP2 SWAP1 POP JUMP JUMPDEST PUSH1 0x0 PUSH1 0x20 DUP3 ADD SWAP1 POP DUP2 DUP2 SUB PUSH1 0x0 DUP4 ADD MSTORE PUSH2 0x51AF DUP2 PUSH2 0x5173 JUMP JUMPDEST SWAP1 POP SWAP2 SWAP1 POP JUMP JUMPDEST PUSH1 0x0 DUP2 MLOAD SWAP1 POP SWAP2 SWAP1 POP JUMP JUMPDEST PUSH1 0x0 DUP2 SWAP1 POP SWAP3 SWAP2 POP POP JUMP JUMPDEST PUSH1 0x0 DUP2 SWAP1 POP PUSH1 0x20 DUP3 ADD SWAP1 POP SWAP2 SWAP1 POP JUMP JUMPDEST PUSH2 0x51E5 DUP2 PUSH2 0x449A JUMP JUMPDEST DUP3 MSTORE POP POP JUMP JUMPDEST PUSH1 0x0 PUSH2 0x51F7 DUP4 DUP4 PUSH2 0x51DC JUMP JUMPDEST PUSH1 0x20 DUP4 ADD SWAP1 POP SWAP3 SWAP2 POP POP JUMP JUMPDEST PUSH1 0x0 PUSH1 0x20 DUP3 ADD SWAP1 POP SWAP2 SWAP1 POP JUMP JUMPDEST PUSH1 0x0 PUSH2 0x521B DUP3 PUSH2 0x51B6 JUMP JUMPDEST PUSH2 0x5225 DUP2 DUP6 PUSH2 0x51C1 JUMP JUMPDEST SWAP4 POP PUSH2 0x5230 DUP4 PUSH2 0x51CC JUMP JUMPDEST DUP1 PUSH1 0x0 JUMPDEST DUP4 DUP2 LT ISZERO PUSH2 0x5261 JUMPI DUP2 MLOAD PUSH2 0x5248 DUP9 DUP3 PUSH2 0x51EB JUMP JUMPDEST SWAP8 POP PUSH2 0x5253 DUP4 PUSH2 0x5203 JUMP JUMPDEST SWAP3 POP POP PUSH1 0x1 DUP2 ADD SWAP1 POP PUSH2 0x5234 JUMP JUMPDEST POP DUP6 SWAP4 POP POP POP POP SWAP3 SWAP2 POP POP JUMP JUMPDEST PUSH1 0x0 PUSH2 0x527A DUP3 DUP5 PUSH2 0x5210 JUMP JUMPDEST SWAP2 POP DUP2 SWAP1 POP SWAP3 SWAP2 POP POP JUMP JUMPDEST PUSH1 0x0 DUP2 MLOAD SWAP1 POP SWAP2 SWAP1 POP JUMP JUMPDEST PUSH1 0x0 DUP2 SWAP1 POP SWAP3 SWAP2 POP POP JUMP JUMPDEST PUSH1 0x0 DUP2 SWAP1 POP PUSH1 0x20 DUP3 ADD SWAP1 POP SWAP2 SWAP1 POP JUMP JUMPDEST PUSH2 0x52B4 DUP2 PUSH2 0x4505 JUMP JUMPDEST DUP3 MSTORE POP POP JUMP JUMPDEST PUSH1 0x0 PUSH2 0x52C6 DUP4 DUP4 PUSH2 0x52AB JUMP JUMPDEST PUSH1 0x20 DUP4 ADD SWAP1 POP SWAP3 SWAP2 POP POP JUMP JUMPDEST PUSH1 0x0 DUP2 SWAP1 POP SWAP3 SWAP2 POP POP JUMP JUMPDEST PUSH2 0x52E6 DUP2 PUSH2 0x4C47 JUMP JUMPDEST PUSH2 0x52F0 DUP2 DUP5 PUSH2 0x52D2 JUMP JUMPDEST SWAP3 POP PUSH2 0x52FB DUP3 PUSH2 0x4C5D JUMP JUMPDEST DUP1 PUSH1 0x0 JUMPDEST DUP4 DUP2 LT ISZERO PUSH2 0x532C JUMPI DUP2 MLOAD PUSH2 0x5313 DUP8 DUP3 PUSH2 0x52BA JUMP JUMPDEST SWAP7 POP PUSH2 0x531E DUP4 PUSH2 0x4C7F JUMP JUMPDEST SWAP3 POP POP PUSH1 0x1 DUP2 ADD SWAP1 POP PUSH2 0x52FF JUMP JUMPDEST POP POP POP POP POP POP JUMP JUMPDEST PUSH1 0x0 PUSH2 0x5340 DUP4 DUP4 PUSH2 0x52DD JUMP JUMPDEST PUSH1 0xA0 DUP4 ADD SWAP1 POP SWAP3 SWAP2 POP POP JUMP JUMPDEST PUSH1 0x0 DUP2 SWAP1 POP SWAP3 SWAP2 POP POP JUMP JUMPDEST PUSH2 0x5360 DUP2 PUSH2 0x4CE3 JUMP JUMPDEST PUSH2 0x536A DUP2 DUP5 PUSH2 0x534C JUMP JUMPDEST SWAP3 POP PUSH2 0x5375 DUP3 PUSH2 0x4CF9 JUMP JUMPDEST DUP1 PUSH1 0x0 JUMPDEST DUP4 DUP2 LT ISZERO PUSH2 0x53A6 JUMPI DUP2 MLOAD PUSH2 0x538D DUP8 DUP3 PUSH2 0x52BA JUMP JUMPDEST SWAP7 POP PUSH2 0x5398 DUP4 PUSH2 0x4D03 JUMP JUMPDEST SWAP3 POP POP PUSH1 0x1 DUP2 ADD SWAP1 POP PUSH2 0x5379 JUMP JUMPDEST POP POP POP POP POP POP JUMP JUMPDEST PUSH1 0x0 PUSH2 0x53BA DUP4 DUP4 PUSH2 0x5357 JUMP JUMPDEST PUSH2 0x140 DUP4 ADD SWAP1 POP SWAP3 SWAP2 POP POP JUMP JUMPDEST PUSH1 0x0 DUP3 ADD PUSH1 0x0 DUP3 ADD MLOAD PUSH2 0x53DA DUP5 DUP3 PUSH2 0x52BA JUMP JUMPDEST SWAP4 POP POP PUSH1 0x20 DUP3 ADD MLOAD PUSH2 0x53EC DUP5 DUP3 PUSH2 0x52BA JUMP JUMPDEST SWAP4 POP POP PUSH1 0x40 DUP3 ADD MLOAD PUSH2 0x53FE DUP5 DUP3 PUSH2 0x52BA JUMP JUMPDEST SWAP4 POP POP PUSH1 0x60 DUP3 ADD MLOAD PUSH2 0x5410 DUP5 DUP3 PUSH2 0x5334 JUMP JUMPDEST SWAP4 POP POP PUSH1 0x80 DUP3 ADD MLOAD PUSH2 0x5422 DUP5 DUP3 PUSH2 0x52BA JUMP JUMPDEST SWAP4 POP POP PUSH1 0xA0 DUP3 ADD MLOAD PUSH2 0x5434 DUP5 DUP3 PUSH2 0x52BA JUMP JUMPDEST SWAP4 POP POP PUSH1 0xC0 DUP3 ADD MLOAD PUSH2 0x5446 DUP5 DUP3 PUSH2 0x52BA JUMP JUMPDEST SWAP4 POP POP PUSH1 0xE0 DUP3 ADD MLOAD PUSH2 0x5458 DUP5 DUP3 PUSH2 0x52BA JUMP JUMPDEST SWAP4 POP POP PUSH2 0x100 DUP3 ADD MLOAD PUSH2 0x546B DUP5 DUP3 PUSH2 0x52BA JUMP JUMPDEST SWAP4 POP POP PUSH2 0x120 DUP3 ADD MLOAD PUSH2 0x547E DUP5 DUP3 PUSH2 0x53AE JUMP JUMPDEST SWAP4 POP POP PUSH2 0x140 DUP3 ADD MLOAD PUSH2 0x5491 DUP5 DUP3 PUSH2 0x52BA JUMP JUMPDEST SWAP4 POP POP PUSH2 0x160 DUP3 ADD MLOAD PUSH2 0x54A4 DUP5 DUP3 PUSH2 0x52BA JUMP JUMPDEST SWAP4 POP POP POP POP POP JUMP JUMPDEST PUSH1 0x0 PUSH2 0x54B8 DUP4 DUP4 PUSH2 0x53C7 JUMP JUMPDEST PUSH2 0x320 DUP4 ADD SWAP1 POP SWAP3 SWAP2 POP POP JUMP JUMPDEST PUSH1 0x0 PUSH1 0x20 DUP3 ADD SWAP1 POP SWAP2 SWAP1 POP JUMP JUMPDEST PUSH1 0x0 PUSH2 0x54DD DUP3 PUSH2 0x5285 JUMP JUMPDEST PUSH2 0x54E7 DUP2 DUP6 PUSH2 0x5290 JUMP JUMPDEST SWAP4 POP PUSH2 0x54F2 DUP4 PUSH2 0x529B JUMP JUMPDEST DUP1 PUSH1 0x0 JUMPDEST DUP4 DUP2 LT ISZERO PUSH2 0x5523 JUMPI DUP2 MLOAD PUSH2 0x550A DUP9 DUP3 PUSH2 0x54AC JUMP JUMPDEST SWAP8 POP PUSH2 0x5515 DUP4 PUSH2 0x54C5 JUMP JUMPDEST SWAP3 POP POP PUSH1 0x1 DUP2 ADD SWAP1 POP PUSH2 0x54F6 JUMP JUMPDEST POP DUP6 SWAP4 POP POP POP POP SWAP3 SWAP2 POP POP JUMP JUMPDEST PUSH1 0x0 PUSH2 0x553C DUP3 DUP5 PUSH2 0x54D2 JUMP JUMPDEST SWAP2 POP DUP2 SWAP1 POP SWAP3 SWAP2 POP POP JUMP JUMPDEST PUSH32 0x416363657373436F6E74726F6C3A2063616E206F6E6C792072656E6F756E6365 PUSH1 0x0 DUP3 ADD MSTORE PUSH32 0x20726F6C657320666F722073656C660000000000000000000000000000000000 PUSH1 0x20 DUP3 ADD MSTORE POP JUMP JUMPDEST PUSH1 0x0 PUSH2 0x55A3 PUSH1 0x2F DUP4 PUSH2 0x509E JUMP JUMPDEST SWAP2 POP PUSH2 0x55AE DUP3 PUSH2 0x5547 JUMP JUMPDEST PUSH1 0x40 DUP3 ADD SWAP1 POP SWAP2 SWAP1 POP JUMP JUMPDEST PUSH1 0x0 PUSH1 0x20 DUP3 ADD SWAP1 POP DUP2 DUP2 SUB PUSH1 0x0 DUP4 ADD MSTORE PUSH2 0x55D2 DUP2 PUSH2 0x5596 JUMP JUMPDEST SWAP1 POP SWAP2 SWAP1 POP JUMP JUMPDEST PUSH1 0x0 DUP2 MLOAD SWAP1 POP PUSH2 0x55E8 DUP2 PUSH2 0x44AC JUMP JUMPDEST SWAP3 SWAP2 POP POP JUMP JUMPDEST PUSH1 0x0 PUSH1 0x20 DUP3 DUP5 SUB SLT ISZERO PUSH2 0x5604 JUMPI PUSH2 0x5603 PUSH2 0x433B JUMP JUMPDEST JUMPDEST PUSH1 0x0 PUSH2 0x5612 DUP5 DUP3 DUP6 ADD PUSH2 0x55D9 JUMP JUMPDEST SWAP2 POP POP SWAP3 SWAP2 POP POP JUMP JUMPDEST PUSH1 0x0 PUSH8 0xFFFFFFFFFFFFFFFF DUP3 GT ISZERO PUSH2 0x5636 JUMPI PUSH2 0x5635 PUSH2 0x454F JUMP JUMPDEST JUMPDEST PUSH1 0x20 DUP3 MUL SWAP1 POP PUSH1 0x20 DUP2 ADD SWAP1 POP SWAP2 SWAP1 POP JUMP JUMPDEST PUSH1 0x0 DUP2 MLOAD SWAP1 POP PUSH2 0x5656 DUP2 PUSH2 0x4600 JUMP JUMPDEST SWAP3 SWAP2 POP POP JUMP JUMPDEST PUSH1 0x0 PUSH2 0x566F PUSH2 0x566A DUP5 PUSH2 0x561B JUMP JUMPDEST PUSH2 0x45AF JUMP JUMPDEST SWAP1 POP DUP1 DUP4 DUP3 MSTORE PUSH1 0x20 DUP3 ADD SWAP1 POP PUSH1 0x20 DUP5 MUL DUP4 ADD DUP6 DUP2 GT ISZERO PUSH2 0x5692 JUMPI PUSH2 0x5691 PUSH2 0x45F6 JUMP JUMPDEST JUMPDEST DUP4 JUMPDEST DUP2 DUP2 LT ISZERO PUSH2 0x56BB JUMPI DUP1 PUSH2 0x56A7 DUP9 DUP3 PUSH2 0x5647 JUMP JUMPDEST DUP5 MSTORE PUSH1 0x20 DUP5 ADD SWAP4 POP POP PUSH1 0x20 DUP2 ADD SWAP1 POP PUSH2 0x5694 JUMP JUMPDEST POP POP POP SWAP4 SWAP3 POP POP POP JUMP JUMPDEST PUSH1 0x0 DUP3 PUSH1 0x1F DUP4 ADD SLT PUSH2 0x56DA JUMPI PUSH2 0x56D9 PUSH2 0x4539 JUMP JUMPDEST JUMPDEST DUP2 MLOAD PUSH2 0x56EA DUP5 DUP3 PUSH1 0x20 DUP7 ADD PUSH2 0x565C JUMP JUMPDEST SWAP2 POP POP SWAP3 SWAP2 POP POP JUMP JUMPDEST PUSH1 0x0 PUSH1 0x20 DUP3 DUP5 SUB SLT ISZERO PUSH2 0x5709 JUMPI PUSH2 0x5708 PUSH2 0x433B JUMP JUMPDEST JUMPDEST PUSH1 0x0 DUP3 ADD MLOAD PUSH8 0xFFFFFFFFFFFFFFFF DUP2 GT ISZERO PUSH2 0x5727 JUMPI PUSH2 0x5726 PUSH2 0x4340 JUMP JUMPDEST JUMPDEST PUSH2 0x5733 DUP5 DUP3 DUP6 ADD PUSH2 0x56C5 JUMP JUMPDEST SWAP2 POP POP SWAP3 SWAP2 POP POP JUMP JUMPDEST PUSH1 0x0 PUSH1 0x40 DUP3 ADD SWAP1 POP PUSH2 0x5751 PUSH1 0x0 DUP4 ADD DUP6 PUSH2 0x450F JUMP JUMPDEST PUSH2 0x575E PUSH1 0x20 DUP4 ADD DUP5 PUSH2 0x450F JUMP JUMPDEST SWAP4 SWAP3 POP POP POP JUMP JUMPDEST PUSH32 0x3130340000000000000000000000000000000000000000000000000000000000 PUSH1 0x0 DUP3 ADD MSTORE POP JUMP JUMPDEST PUSH1 0x0 PUSH2 0x579B PUSH1 0x3 DUP4 PUSH2 0x509E JUMP JUMPDEST SWAP2 POP PUSH2 0x57A6 DUP3 PUSH2 0x5765 JUMP JUMPDEST PUSH1 0x20 DUP3 ADD SWAP1 POP SWAP2 SWAP1 POP JUMP JUMPDEST PUSH1 0x0 PUSH1 0x20 DUP3 ADD SWAP1 POP DUP2 DUP2 SUB PUSH1 0x0 DUP4 ADD MSTORE PUSH2 0x57CA DUP2 PUSH2 0x578E JUMP JUMPDEST SWAP1 POP SWAP2 SWAP1 POP JUMP JUMPDEST PUSH1 0x0 PUSH1 0x40 DUP3 ADD SWAP1 POP PUSH2 0x57E6 PUSH1 0x0 DUP4 ADD DUP6 PUSH2 0x4F27 JUMP JUMPDEST PUSH2 0x57F3 PUSH1 0x20 DUP4 ADD DUP5 PUSH2 0x450F JUMP JUMPDEST SWAP4 SWAP3 POP POP POP JUMP JUMPDEST PUSH32 0x4E487B7100000000000000000000000000000000000000000000000000000000 PUSH1 0x0 MSTORE PUSH1 0x11 PUSH1 0x4 MSTORE PUSH1 0x24 PUSH1 0x0 REVERT JUMPDEST PUSH1 0x0 PUSH2 0x5834 DUP3 PUSH2 0x4505 JUMP JUMPDEST SWAP2 POP PUSH2 0x583F DUP4 PUSH2 0x4505 JUMP JUMPDEST SWAP3 POP DUP3 DUP3 SUB SWAP1 POP DUP2 DUP2 GT ISZERO PUSH2 0x5857 JUMPI PUSH2 0x5856 PUSH2 0x57FA JUMP JUMPDEST JUMPDEST SWAP3 SWAP2 POP POP JUMP JUMPDEST PUSH1 0x0 PUSH2 0x5868 DUP3 PUSH2 0x4505 JUMP JUMPDEST SWAP2 POP PUSH2 0x5873 DUP4 PUSH2 0x4505 JUMP JUMPDEST SWAP3 POP DUP3 DUP3 MUL PUSH2 0x5881 DUP2 PUSH2 0x4505 JUMP JUMPDEST SWAP2 POP DUP3 DUP3 DIV DUP5 EQ DUP4 ISZERO OR PUSH2 0x5898 JUMPI PUSH2 0x5897 PUSH2 0x57FA JUMP JUMPDEST JUMPDEST POP SWAP3 SWAP2 POP POP JUMP JUMPDEST PUSH1 0x0 PUSH1 0x20 DUP3 DUP5 SUB SLT ISZERO PUSH2 0x58B5 JUMPI PUSH2 0x58B4 PUSH2 0x433B JUMP JUMPDEST JUMPDEST PUSH1 0x0 PUSH2 0x58C3 DUP5 DUP3 DUP6 ADD PUSH2 0x5647 JUMP JUMPDEST SWAP2 POP POP SWAP3 SWAP2 POP POP JUMP JUMPDEST PUSH32 0x3130330000000000000000000000000000000000000000000000000000000000 PUSH1 0x0 DUP3 ADD MSTORE POP JUMP JUMPDEST PUSH1 0x0 PUSH2 0x5902 PUSH1 0x3 DUP4 PUSH2 0x509E JUMP JUMPDEST SWAP2 POP PUSH2 0x590D DUP3 PUSH2 0x58CC JUMP JUMPDEST PUSH1 0x20 DUP3 ADD SWAP1 POP SWAP2 SWAP1 POP JUMP JUMPDEST PUSH1 0x0 PUSH1 0x20 DUP3 ADD SWAP1 POP DUP2 DUP2 SUB PUSH1 0x0 DUP4 ADD MSTORE PUSH2 0x5931 DUP2 PUSH2 0x58F5 JUMP JUMPDEST SWAP1 POP SWAP2 SWAP1 POP JUMP JUMPDEST PUSH1 0x0 PUSH1 0x60 DUP3 ADD SWAP1 POP PUSH2 0x594D PUSH1 0x0 DUP4 ADD DUP7 PUSH2 0x4F27 JUMP JUMPDEST PUSH2 0x595A PUSH1 0x20 DUP4 ADD DUP6 PUSH2 0x4F27 JUMP JUMPDEST PUSH2 0x5967 PUSH1 0x40 DUP4 ADD DUP5 PUSH2 0x450F JUMP JUMPDEST SWAP5 SWAP4 POP POP POP POP JUMP JUMPDEST PUSH1 0x0 PUSH2 0x597A DUP3 PUSH2 0x4505 JUMP JUMPDEST SWAP2 POP PUSH2 0x5985 DUP4 PUSH2 0x4505 JUMP JUMPDEST SWAP3 POP DUP3 DUP3 ADD SWAP1 POP DUP1 DUP3 GT ISZERO PUSH2 0x599D JUMPI PUSH2 0x599C PUSH2 0x57FA JUMP JUMPDEST JUMPDEST SWAP3 SWAP2 POP POP JUMP JUMPDEST PUSH32 0x4F776E61626C653A2063616C6C6572206973206E6F7420746865206F776E6572 PUSH1 0x0 DUP3 ADD MSTORE POP JUMP JUMPDEST PUSH1 0x0 PUSH2 0x59D9 PUSH1 0x20 DUP4 PUSH2 0x509E JUMP JUMPDEST SWAP2 POP PUSH2 0x59E4 DUP3 PUSH2 0x59A3 JUMP JUMPDEST PUSH1 0x20 DUP3 ADD SWAP1 POP SWAP2 SWAP1 POP JUMP JUMPDEST PUSH1 0x0 PUSH1 0x20 DUP3 ADD SWAP1 POP DUP2 DUP2 SUB PUSH1 0x0 DUP4 ADD MSTORE PUSH2 0x5A08 DUP2 PUSH2 0x59CC JUMP JUMPDEST SWAP1 POP SWAP2 SWAP1 POP JUMP JUMPDEST PUSH1 0x0 DUP2 SWAP1 POP SWAP3 SWAP2 POP POP JUMP JUMPDEST PUSH32 0x416363657373436F6E74726F6C3A206163636F756E7420000000000000000000 PUSH1 0x0 DUP3 ADD MSTORE POP JUMP JUMPDEST PUSH1 0x0 PUSH2 0x5A50 PUSH1 0x17 DUP4 PUSH2 0x5A0F JUMP JUMPDEST SWAP2 POP PUSH2 0x5A5B DUP3 PUSH2 0x5A1A JUMP JUMPDEST PUSH1 0x17 DUP3 ADD SWAP1 POP SWAP2 SWAP1 POP JUMP JUMPDEST PUSH1 0x0 DUP2 MLOAD SWAP1 POP SWAP2 SWAP1 POP JUMP JUMPDEST PUSH1 0x0 JUMPDEST DUP4 DUP2 LT ISZERO PUSH2 0x5A8F JUMPI DUP1 DUP3 ADD MLOAD DUP2 DUP5 ADD MSTORE PUSH1 0x20 DUP2 ADD SWAP1 POP PUSH2 0x5A74 JUMP JUMPDEST PUSH1 0x0 DUP5 DUP5 ADD MSTORE POP POP POP POP JUMP JUMPDEST PUSH1 0x0 PUSH2 0x5AA6 DUP3 PUSH2 0x5A66 JUMP JUMPDEST PUSH2 0x5AB0 DUP2 DUP6 PUSH2 0x5A0F JUMP JUMPDEST SWAP4 POP PUSH2 0x5AC0 DUP2 DUP6 PUSH1 0x20 DUP7 ADD PUSH2 0x5A71 JUMP JUMPDEST DUP1 DUP5 ADD SWAP2 POP POP SWAP3 SWAP2 POP POP JUMP JUMPDEST PUSH32 0x206973206D697373696E6720726F6C6520000000000000000000000000000000 PUSH1 0x0 DUP3 ADD MSTORE POP JUMP JUMPDEST PUSH1 0x0 PUSH2 0x5B02 PUSH1 0x11 DUP4 PUSH2 0x5A0F JUMP JUMPDEST SWAP2 POP PUSH2 0x5B0D DUP3 PUSH2 0x5ACC JUMP JUMPDEST PUSH1 0x11 DUP3 ADD SWAP1 POP SWAP2 SWAP1 POP JUMP JUMPDEST PUSH1 0x0 PUSH2 0x5B23 DUP3 PUSH2 0x5A43 JUMP JUMPDEST SWAP2 POP PUSH2 0x5B2F DUP3 DUP6 PUSH2 0x5A9B JUMP JUMPDEST SWAP2 POP PUSH2 0x5B3A DUP3 PUSH2 0x5AF5 JUMP JUMPDEST SWAP2 POP PUSH2 0x5B46 DUP3 DUP5 PUSH2 0x5A9B JUMP JUMPDEST SWAP2 POP DUP2 SWAP1 POP SWAP4 SWAP3 POP POP POP JUMP JUMPDEST PUSH1 0x0 PUSH2 0x5B5D DUP3 PUSH2 0x5A66 JUMP JUMPDEST PUSH2 0x5B67 DUP2 DUP6 PUSH2 0x509E JUMP JUMPDEST SWAP4 POP PUSH2 0x5B77 DUP2 DUP6 PUSH1 0x20 DUP7 ADD PUSH2 0x5A71 JUMP JUMPDEST PUSH2 0x5B80 DUP2 PUSH2 0x453E JUMP JUMPDEST DUP5 ADD SWAP2 POP POP SWAP3 SWAP2 POP POP JUMP JUMPDEST PUSH1 0x0 PUSH1 0x20 DUP3 ADD SWAP1 POP DUP2 DUP2 SUB PUSH1 0x0 DUP4 ADD MSTORE PUSH2 0x5BA5 DUP2 DUP5 PUSH2 0x5B52 JUMP JUMPDEST SWAP1 POP SWAP3 SWAP2 POP POP JUMP JUMPDEST PUSH1 0x0 PUSH2 0x5BB8 DUP3 PUSH2 0x4505 JUMP JUMPDEST SWAP2 POP PUSH1 0x0 DUP3 SUB PUSH2 0x5BCB JUMPI PUSH2 0x5BCA PUSH2 0x57FA JUMP JUMPDEST JUMPDEST PUSH1 0x1 DUP3 SUB SWAP1 POP SWAP2 SWAP1 POP JUMP JUMPDEST PUSH32 0x537472696E67733A20686578206C656E67746820696E73756666696369656E74 PUSH1 0x0 DUP3 ADD MSTORE POP JUMP JUMPDEST PUSH1 0x0 PUSH2 0x5C0C PUSH1 0x20 DUP4 PUSH2 0x509E JUMP JUMPDEST SWAP2 POP PUSH2 0x5C17 DUP3 PUSH2 0x5BD6 JUMP JUMPDEST PUSH1 0x20 DUP3 ADD SWAP1 POP SWAP2 SWAP1 POP JUMP JUMPDEST PUSH1 0x0 PUSH1 0x20 DUP3 ADD SWAP1 POP DUP2 DUP2 SUB PUSH1 0x0 DUP4 ADD MSTORE PUSH2 0x5C3B DUP2 PUSH2 0x5BFF JUMP JUMPDEST SWAP1 POP SWAP2 SWAP1 POP JUMP INVALID LOG2 PUSH5 0x6970667358 0x22 SLT KECCAK256 SELFBALANCE CALLER SWAP14 0xDB SWAP14 0xF 0x23 SWAP2 PUSH29 0x14E73E655DBA632A7A60AEC2BC9CF5E5862246FF1B476F64736F6C6343 STOP ADDMOD XOR STOP CALLER "},"methodIdentifiers":{"ADMIN_ROLE()":"75b238fc","DEFAULT_ADMIN_ROLE()":"a217fddf","acceptOwnership()":"79ba5097","addAdmin(address)":"70480275","addUser(address)":"421b2d8b","baitPrice()":"18250e07","baitPurchaseLimit()":"b474ca76","buyBaits(address,uint256)":"d4f08cca","changeFisherman(address,uint256)":"53acd2ab","changeRod(uint256,address)":"e9bcc5f3","claimGMC(address,uint256)":"b5d626c4","fishermanNFT()":"50a4098a","fishingCountLimit()":"e55ae65a","fishingRodNFT()":"c8001b73","getBaitCount(address)":"48aabab2","getBaitPurchaseLimit()":"6667a9a7","getCollectedGMC(address)":"95155900","getCurrentFishermanNFT(address)":"f76b7de5","getCurrentFishingRodNFT(address)":"7757346d","getExperience(address)":"6b743a2c","getFishCount(address)":"c6051a94","getFishPoolLevel(address)":"31c4ecdc","getFishingCountLimit()":"f2061405","getLevelUpLimit()":"8ca5f74d","getPlayerInfo(address)":"59328401","getPlayerLevel(address)":"34b735a1","getRoleAdmin(bytes32)":"248a9ca3","getUnlockedFishingSpots(address)":"8c953a78","getUser(address)":"6f77926b","gmcContract()":"047ac5de","grantRole(bytes32,address)":"2f2ff15d","hasRole(bytes32,address)":"91d14854","levelUpLimit()":"cee8b4aa","owner()":"8da5cb5b","removeAdmin(address)":"1785f53c","renounceOwnership()":"715018a6","renounceRole(bytes32,address)":"36568abe","revokeRole(bytes32,address)":"d547741f","setBaitCount(address,uint256)":"6aba920b","setBaitPurchaseLimit(uint256)":"657a9393","setCollectedGMC(address,uint256)":"a63eba48","setExperience(address,uint256)":"bfb56d62","setFishCount(address,uint256,uint256)":"9af7a00a","setFishPoolLevel(address,uint256)":"bf129fd0","setFishingCount(address,uint256)":"eaaaa234","setFishingCountLimit(uint256)":"9deedd5b","setLevelUpLimit(uint256)":"e678f86c","setPlayerLevel(address,uint256)":"dea90512","supportsInterface(bytes4)":"01ffc9a7","transferOwnership(address)":"f2fde38b","updateLimitAttribute(uint256,uint256,uint256,uint256)":"215c5d00","updateUserData((uint256,uint256,uint256,uint256[5],uint256,uint256,uint256,uint256,uint256,uint256[10],uint256,uint256)[],address[])":"1fbff24f"}}}}}