{
  "_format": "hh-sol-artifact-1",
  "contractName": "FishermanNFTTest",
  "sourceName": "contracts/FishermanNFTTest.sol",
  "abi": [
    {
      "inputs": [
        {
          "internalType": "uint256",
          "name": "_mintPrice",
          "type": "uint256"
        }
      ],
      "stateMutability": "nonpayable",
      "type": "constructor"
    },
    {
      "anonymous": false,
      "inputs": [
        {
          "indexed": true,
          "internalType": "address",
          "name": "newAdmin",
          "type": "address"
        }
      ],
      "name": "AdminAdded",
      "type": "event"
    },
    {
      "anonymous": false,
      "inputs": [
        {
          "indexed": true,
          "internalType": "address",
          "name": "removedAdmin",
          "type": "address"
        }
      ],
      "name": "AdminRemoved",
      "type": "event"
    },
    {
      "anonymous": false,
      "inputs": [
        {
          "indexed": true,
          "internalType": "address",
          "name": "to",
          "type": "address"
        },
        {
          "indexed": true,
          "internalType": "uint256",
          "name": "tokenId",
          "type": "uint256"
        },
        {
          "indexed": false,
          "internalType": "string",
          "name": "fishermanType",
          "type": "string"
        }
      ],
      "name": "FishermanMinted",
      "type": "event"
    },
    {
      "anonymous": false,
      "inputs": [
        {
          "indexed": true,
          "internalType": "uint256",
          "name": "tokenId",
          "type": "uint256"
        },
        {
          "indexed": true,
          "internalType": "address",
          "name": "seller",
          "type": "address"
        },
        {
          "indexed": false,
          "internalType": "uint256",
          "name": "price",
          "type": "uint256"
        }
      ],
      "name": "ItemListed",
      "type": "event"
    },
    {
      "anonymous": false,
      "inputs": [
        {
          "indexed": true,
          "internalType": "uint256",
          "name": "tokenId",
          "type": "uint256"
        },
        {
          "indexed": true,
          "internalType": "address",
          "name": "buyer",
          "type": "address"
        },
        {
          "indexed": false,
          "internalType": "uint256",
          "name": "price",
          "type": "uint256"
        }
      ],
      "name": "ItemSold",
      "type": "event"
    },
    {
      "anonymous": false,
      "inputs": [
        {
          "indexed": false,
          "internalType": "uint256",
          "name": "_tokenId",
          "type": "uint256"
        }
      ],
      "name": "MetadataUpdate",
      "type": "event"
    },
    {
      "anonymous": false,
      "inputs": [
        {
          "indexed": true,
          "internalType": "address",
          "name": "previousOwner",
          "type": "address"
        },
        {
          "indexed": true,
          "internalType": "address",
          "name": "newOwner",
          "type": "address"
        }
      ],
      "name": "OwnershipTransferred",
      "type": "event"
    },
    {
      "anonymous": false,
      "inputs": [
        {
          "indexed": true,
          "internalType": "bytes32",
          "name": "role",
          "type": "bytes32"
        },
        {
          "indexed": true,
          "internalType": "bytes32",
          "name": "previousAdminRole",
          "type": "bytes32"
        },
        {
          "indexed": true,
          "internalType": "bytes32",
          "name": "newAdminRole",
          "type": "bytes32"
        }
      ],
      "name": "RoleAdminChanged",
      "type": "event"
    },
    {
      "anonymous": false,
      "inputs": [
        {
          "indexed": true,
          "internalType": "bytes32",
          "name": "role",
          "type": "bytes32"
        },
        {
          "indexed": true,
          "internalType": "address",
          "name": "account",
          "type": "address"
        },
        {
          "indexed": true,
          "internalType": "address",
          "name": "sender",
          "type": "address"
        }
      ],
      "name": "RoleGranted",
      "type": "event"
    },
    {
      "anonymous": false,
      "inputs": [
        {
          "indexed": true,
          "internalType": "bytes32",
          "name": "role",
          "type": "bytes32"
        },
        {
          "indexed": true,
          "internalType": "address",
          "name": "account",
          "type": "address"
        },
        {
          "indexed": true,
          "internalType": "address",
          "name": "sender",
          "type": "address"
        }
      ],
      "name": "RoleRevoked",
      "type": "event"
    },
    {
      "anonymous": false,
      "inputs": [
        {
          "indexed": true,
          "internalType": "address",
          "name": "from",
          "type": "address"
        },
        {
          "indexed": true,
          "internalType": "address",
          "name": "to",
          "type": "address"
        },
        {
          "indexed": true,
          "internalType": "uint256",
          "name": "tokenId",
          "type": "uint256"
        }
      ],
      "name": "Transfer",
      "type": "event"
    },
    {
      "inputs": [],
      "name": "ADMIN_ROLE",
      "outputs": [
        {
          "internalType": "bytes32",
          "name": "",
          "type": "bytes32"
        }
      ],
      "stateMutability": "view",
      "type": "function"
    },
    {
      "inputs": [],
      "name": "DEFAULT_ADMIN_ROLE",
      "outputs": [
        {
          "internalType": "bytes32",
          "name": "",
          "type": "bytes32"
        }
      ],
      "stateMutability": "view",
      "type": "function"
    },
    {
      "inputs": [
        {
          "internalType": "address",
          "name": "owner",
          "type": "address"
        }
      ],
      "name": "balanceOf",
      "outputs": [
        {
          "internalType": "uint256",
          "name": "",
          "type": "uint256"
        }
      ],
      "stateMutability": "view",
      "type": "function"
    },
    {
      "inputs": [
        {
          "internalType": "uint256",
          "name": "tokenId",
          "type": "uint256"
        }
      ],
      "name": "buyItem",
      "outputs": [],
      "stateMutability": "payable",
      "type": "function"
    },
    {
      "inputs": [
        {
          "internalType": "uint256",
          "name": "tokenId",
          "type": "uint256"
        }
      ],
      "name": "cancelListing",
      "outputs": [],
      "stateMutability": "nonpayable",
      "type": "function"
    },
    {
      "inputs": [
        {
          "internalType": "uint256",
          "name": "tokenId",
          "type": "uint256"
        }
      ],
      "name": "getFishermanTypeByTokenId",
      "outputs": [
        {
          "internalType": "string",
          "name": "",
          "type": "string"
        }
      ],
      "stateMutability": "view",
      "type": "function"
    },
    {
      "inputs": [
        {
          "internalType": "address",
          "name": "owner",
          "type": "address"
        }
      ],
      "name": "getOwnedNFTs",
      "outputs": [
        {
          "components": [
            {
              "internalType": "uint256",
              "name": "tokenId",
              "type": "uint256"
            },
            {
              "internalType": "string",
              "name": "fishermanType",
              "type": "string"
            }
          ],
          "internalType": "struct FishermanNFTTest.FishermanNft[]",
          "name": "",
          "type": "tuple[]"
        }
      ],
      "stateMutability": "view",
      "type": "function"
    },
    {
      "inputs": [
        {
          "internalType": "bytes32",
          "name": "role",
          "type": "bytes32"
        }
      ],
      "name": "getRoleAdmin",
      "outputs": [
        {
          "internalType": "bytes32",
          "name": "",
          "type": "bytes32"
        }
      ],
      "stateMutability": "view",
      "type": "function"
    },
    {
      "inputs": [
        {
          "internalType": "bytes32",
          "name": "role",
          "type": "bytes32"
        },
        {
          "internalType": "address",
          "name": "account",
          "type": "address"
        }
      ],
      "name": "grantRole",
      "outputs": [],
      "stateMutability": "nonpayable",
      "type": "function"
    },
    {
      "inputs": [
        {
          "internalType": "bytes32",
          "name": "role",
          "type": "bytes32"
        },
        {
          "internalType": "address",
          "name": "account",
          "type": "address"
        }
      ],
      "name": "hasRole",
      "outputs": [
        {
          "internalType": "bool",
          "name": "",
          "type": "bool"
        }
      ],
      "stateMutability": "view",
      "type": "function"
    },
    {
      "inputs": [
        {
          "internalType": "uint256",
          "name": "tokenId",
          "type": "uint256"
        },
        {
          "internalType": "uint256",
          "name": "price",
          "type": "uint256"
        }
      ],
      "name": "listItem",
      "outputs": [],
      "stateMutability": "nonpayable",
      "type": "function"
    },
    {
      "inputs": [
        {
          "internalType": "uint256",
          "name": "",
          "type": "uint256"
        }
      ],
      "name": "listings",
      "outputs": [
        {
          "internalType": "address",
          "name": "seller",
          "type": "address"
        },
        {
          "internalType": "uint256",
          "name": "price",
          "type": "uint256"
        }
      ],
      "stateMutability": "view",
      "type": "function"
    },
    {
      "inputs": [
        {
          "internalType": "uint256",
          "name": "",
          "type": "uint256"
        }
      ],
      "name": "maxSupplies",
      "outputs": [
        {
          "internalType": "uint256",
          "name": "",
          "type": "uint256"
        }
      ],
      "stateMutability": "view",
      "type": "function"
    },
    {
      "inputs": [],
      "name": "mintFisherman",
      "outputs": [
        {
          "internalType": "uint256",
          "name": "",
          "type": "uint256"
        }
      ],
      "stateMutability": "payable",
      "type": "function"
    },
    {
      "inputs": [],
      "name": "mintPrice",
      "outputs": [
        {
          "internalType": "uint256",
          "name": "",
          "type": "uint256"
        }
      ],
      "stateMutability": "view",
      "type": "function"
    },
    {
      "inputs": [
        {
          "internalType": "uint256",
          "name": "",
          "type": "uint256"
        }
      ],
      "name": "mintedSupplies",
      "outputs": [
        {
          "internalType": "uint256",
          "name": "",
          "type": "uint256"
        }
      ],
      "stateMutability": "view",
      "type": "function"
    },
    {
      "inputs": [],
      "name": "name",
      "outputs": [
        {
          "internalType": "string",
          "name": "",
          "type": "string"
        }
      ],
      "stateMutability": "view",
      "type": "function"
    },
    {
      "inputs": [
        {
          "internalType": "address",
          "name": "",
          "type": "address"
        },
        {
          "internalType": "address",
          "name": "",
          "type": "address"
        },
        {
          "internalType": "uint256",
          "name": "",
          "type": "uint256"
        },
        {
          "internalType": "bytes",
          "name": "",
          "type": "bytes"
        }
      ],
      "name": "onERC721Received",
      "outputs": [
        {
          "internalType": "bytes4",
          "name": "",
          "type": "bytes4"
        }
      ],
      "stateMutability": "nonpayable",
      "type": "function"
    },
    {
      "inputs": [],
      "name": "owner",
      "outputs": [
        {
          "internalType": "address",
          "name": "",
          "type": "address"
        }
      ],
      "stateMutability": "view",
      "type": "function"
    },
    {
      "inputs": [
        {
          "internalType": "uint256",
          "name": "tokenId",
          "type": "uint256"
        }
      ],
      "name": "ownerOf",
      "outputs": [
        {
          "internalType": "address",
          "name": "",
          "type": "address"
        }
      ],
      "stateMutability": "view",
      "type": "function"
    },
    {
      "inputs": [
        {
          "internalType": "uint256",
          "name": "",
          "type": "uint256"
        }
      ],
      "name": "partOptions0",
      "outputs": [
        {
          "internalType": "uint8",
          "name": "",
          "type": "uint8"
        }
      ],
      "stateMutability": "view",
      "type": "function"
    },
    {
      "inputs": [
        {
          "internalType": "uint256",
          "name": "",
          "type": "uint256"
        }
      ],
      "name": "partOptions1",
      "outputs": [
        {
          "internalType": "uint8",
          "name": "",
          "type": "uint8"
        }
      ],
      "stateMutability": "view",
      "type": "function"
    },
    {
      "inputs": [
        {
          "internalType": "uint256",
          "name": "",
          "type": "uint256"
        }
      ],
      "name": "partOptions2",
      "outputs": [
        {
          "internalType": "uint8",
          "name": "",
          "type": "uint8"
        }
      ],
      "stateMutability": "view",
      "type": "function"
    },
    {
      "inputs": [],
      "name": "renounceOwnership",
      "outputs": [],
      "stateMutability": "nonpayable",
      "type": "function"
    },
    {
      "inputs": [
        {
          "internalType": "bytes32",
          "name": "role",
          "type": "bytes32"
        },
        {
          "internalType": "address",
          "name": "account",
          "type": "address"
        }
      ],
      "name": "renounceRole",
      "outputs": [],
      "stateMutability": "nonpayable",
      "type": "function"
    },
    {
      "inputs": [
        {
          "internalType": "bytes32",
          "name": "role",
          "type": "bytes32"
        },
        {
          "internalType": "address",
          "name": "account",
          "type": "address"
        }
      ],
      "name": "revokeRole",
      "outputs": [],
      "stateMutability": "nonpayable",
      "type": "function"
    },
    {
      "inputs": [
        {
          "internalType": "string",
          "name": "newBaseTokenURI",
          "type": "string"
        }
      ],
      "name": "setBaseTokenURI",
      "outputs": [],
      "stateMutability": "nonpayable",
      "type": "function"
    },
    {
      "inputs": [
        {
          "internalType": "uint256[]",
          "name": "newMaxSupplies",
          "type": "uint256[]"
        }
      ],
      "name": "setMaxSupplies",
      "outputs": [],
      "stateMutability": "nonpayable",
      "type": "function"
    },
    {
      "inputs": [
        {
          "internalType": "uint256",
          "name": "newMintPrice",
          "type": "uint256"
        }
      ],
      "name": "setMintPrice",
      "outputs": [],
      "stateMutability": "nonpayable",
      "type": "function"
    },
    {
      "inputs": [
        {
          "internalType": "uint256",
          "name": "typeIndex",
          "type": "uint256"
        },
        {
          "internalType": "uint8[9]",
          "name": "newOptions",
          "type": "uint8[9]"
        }
      ],
      "name": "setPartOptions",
      "outputs": [],
      "stateMutability": "nonpayable",
      "type": "function"
    },
    {
      "inputs": [
        {
          "internalType": "bytes4",
          "name": "interfaceId",
          "type": "bytes4"
        }
      ],
      "name": "supportsInterface",
      "outputs": [
        {
          "internalType": "bool",
          "name": "",
          "type": "bool"
        }
      ],
      "stateMutability": "view",
      "type": "function"
    },
    {
      "inputs": [],
      "name": "symbol",
      "outputs": [
        {
          "internalType": "string",
          "name": "",
          "type": "string"
        }
      ],
      "stateMutability": "view",
      "type": "function"
    },
    {
      "inputs": [
        {
          "internalType": "uint256",
          "name": "index",
          "type": "uint256"
        }
      ],
      "name": "tokenByIndex",
      "outputs": [
        {
          "internalType": "uint256",
          "name": "",
          "type": "uint256"
        }
      ],
      "stateMutability": "view",
      "type": "function"
    },
    {
      "inputs": [
        {
          "internalType": "address",
          "name": "owner",
          "type": "address"
        },
        {
          "internalType": "uint256",
          "name": "index",
          "type": "uint256"
        }
      ],
      "name": "tokenOfOwnerByIndex",
      "outputs": [
        {
          "internalType": "uint256",
          "name": "",
          "type": "uint256"
        }
      ],
      "stateMutability": "view",
      "type": "function"
    },
    {
      "inputs": [
        {
          "internalType": "uint256",
          "name": "tokenId",
          "type": "uint256"
        }
      ],
      "name": "tokenURI",
      "outputs": [
        {
          "internalType": "string",
          "name": "",
          "type": "string"
        }
      ],
      "stateMutability": "view",
      "type": "function"
    },
    {
      "inputs": [],
      "name": "totalSupply",
      "outputs": [
        {
          "internalType": "uint256",
          "name": "",
          "type": "uint256"
        }
      ],
      "stateMutability": "view",
      "type": "function"
    },
    {
      "inputs": [
        {
          "internalType": "address",
          "name": "from",
          "type": "address"
        },
        {
          "internalType": "address",
          "name": "to",
          "type": "address"
        },
        {
          "internalType": "uint256",
          "name": "tokenId",
          "type": "uint256"
        }
      ],
      "name": "transferFrom",
      "outputs": [],
      "stateMutability": "nonpayable",
      "type": "function"
    },
    {
      "inputs": [
        {
          "internalType": "address",
          "name": "newOwner",
          "type": "address"
        }
      ],
      "name": "transferOwnership",
      "outputs": [],
      "stateMutability": "nonpayable",
      "type": "function"
    },
    {
      "inputs": [
        {
          "internalType": "uint256",
          "name": "index",
          "type": "uint256"
        },
        {
          "internalType": "uint256",
          "name": "newMaxSupply",
          "type": "uint256"
        }
      ],
      "name": "updateMaxSupplyAt",
      "outputs": [],
      "stateMutability": "nonpayable",
      "type": "function"
    },
    {
      "inputs": [],
      "name": "withdraw",
      "outputs": [],
      "stateMutability": "nonpayable",
      "type": "function"
    }
  ],
  "bytecode": "0x60806040526040518060800160405280604381526020016200661960439139601190816200002e91906200099b565b50604051806101200160405280600160ff168152602001600160ff168152602001600460ff168152602001600460ff168152602001600460ff168152602001600460ff168152602001600460ff168152602001600460ff168152602001600460ff168152506016906009620000a5929190620005b7565b50604051806101200160405280600160ff168152602001600160ff168152602001600460ff168152602001600460ff168152602001600460ff168152602001600460ff168152602001600460ff168152602001600460ff168152602001600460ff1681525060179060096200011c929190620005b7565b50604051806101200160405280600160ff168152602001600160ff168152602001600360ff168152602001600360ff168152602001600360ff168152602001600360ff168152602001600360ff168152602001600360ff168152602001600360ff16815250601890600962000193929190620005b7565b50348015620001a157600080fd5b506040516200665c3803806200665c8339818101604052810190620001c7919062000ab8565b6040518060400160405280600c81526020017f4669736865726d616e4e465400000000000000000000000000000000000000008152506040518060400160405280600381526020017f464d4e000000000000000000000000000000000000000000000000000000000081525062000253620002476200037860201b60201c565b6200038060201b60201c565b81600190816200026491906200099b565b5080600290816200027691906200099b565b50505080601281905550620002956000801b336200044460201b60201c565b620002c77fa49807205ce4d355092ef5a8a18f56e8913cf4a201fbe287825b095693c21775336200044460201b60201c565b604051806060016040528061400061ffff16815260200161400061ffff16815260200161088b61ffff1681525060149060036200030692919062000658565b5060148054905067ffffffffffffffff8111156200032957620003286200072c565b5b604051908082528060200260200182016040528015620003585781602001602082028036833780820191505090505b506015908051906020019062000370929190620006b0565b505062000aea565b600033905090565b60008060009054906101000a900473ffffffffffffffffffffffffffffffffffffffff169050816000806101000a81548173ffffffffffffffffffffffffffffffffffffffff021916908373ffffffffffffffffffffffffffffffffffffffff1602179055508173ffffffffffffffffffffffffffffffffffffffff168173ffffffffffffffffffffffffffffffffffffffff167f8be0079c531659141344cd1fd0a4f28419497f9722a3daafe3b4186f6b6457e060405160405180910390a35050565b6200045682826200045a60201b60201c565b5050565b6200046c82826200054c60201b60201c565b620005485760016006600084815260200190815260200160002060000160008373ffffffffffffffffffffffffffffffffffffffff1673ffffffffffffffffffffffffffffffffffffffff16815260200190815260200160002060006101000a81548160ff021916908315150217905550620004ed6200037860201b60201c565b73ffffffffffffffffffffffffffffffffffffffff168173ffffffffffffffffffffffffffffffffffffffff16837f2f8788117e7eff1d82e926ec794901d17c78024a50270940304540a733656f0d60405160405180910390a45b5050565b60006006600084815260200190815260200160002060000160008373ffffffffffffffffffffffffffffffffffffffff1673ffffffffffffffffffffffffffffffffffffffff16815260200190815260200160002060009054906101000a900460ff16905092915050565b826009601f01602090048101928215620006455791602002820160005b838211156200061457835183826101000a81548160ff021916908360ff1602179055509260200192600101602081600001049283019260010302620005d4565b8015620006435782816101000a81549060ff021916905560010160208160000104928301926001030262000614565b505b50905062000654919062000702565b5090565b8280548282559060005260206000209081019282156200069d579160200282015b828111156200069c578251829061ffff1690559160200191906001019062000679565b5b509050620006ac919062000702565b5090565b828054828255906000526020600020908101928215620006ef579160200282015b82811115620006ee578251825591602001919060010190620006d1565b5b509050620006fe919062000702565b5090565b5b808211156200071d57600081600090555060010162000703565b5090565b600081519050919050565b7f4e487b7100000000000000000000000000000000000000000000000000000000600052604160045260246000fd5b7f4e487b7100000000000000000000000000000000000000000000000000000000600052602260045260246000fd5b60006002820490506001821680620007a357607f821691505b602082108103620007b957620007b86200075b565b5b50919050565b60008190508160005260206000209050919050565b60006020601f8301049050919050565b600082821b905092915050565b600060088302620008237fffffffffffffffffffffffffffffffffffffffffffffffffffffffffffffffff82620007e4565b6200082f8683620007e4565b95508019841693508086168417925050509392505050565b6000819050919050565b6000819050919050565b60006200087c62000876620008708462000847565b62000851565b62000847565b9050919050565b6000819050919050565b62000898836200085b565b620008b0620008a78262000883565b848454620007f1565b825550505050565b600090565b620008c7620008b8565b620008d48184846200088d565b505050565b5b81811015620008fc57620008f0600082620008bd565b600181019050620008da565b5050565b601f8211156200094b576200091581620007bf565b6200092084620007d4565b8101602085101562000930578190505b620009486200093f85620007d4565b830182620008d9565b50505b505050565b600082821c905092915050565b6000620009706000198460080262000950565b1980831691505092915050565b60006200098b83836200095d565b9150826002028217905092915050565b620009a68262000721565b67ffffffffffffffff811115620009c257620009c16200072c565b5b620009ce82546200078a565b620009db82828562000900565b600060209050601f83116001811462000a135760008415620009fe578287015190505b62000a0a85826200097d565b86555062000a7a565b601f19841662000a2386620007bf565b60005b8281101562000a4d5784890151825560018201915060208501945060208101905062000a26565b8683101562000a6d578489015162000a69601f8916826200095d565b8355505b6001600288020188555050505b505050505050565b600080fd5b62000a928162000847565b811462000a9e57600080fd5b50565b60008151905062000ab28162000a87565b92915050565b60006020828403121562000ad15762000ad062000a82565b5b600062000ae18482850162000aa1565b91505092915050565b615b1f8062000afa6000396000f3fe60806040526004361061023b5760003560e01c806375b238fc1161012e578063be6f0ef1116100ab578063e7fb74c71161006f578063e7fb74c7146108fb578063f2fde38b14610917578063f42a7b7014610940578063f4a0a5281461097d578063fc0b5b1d146109a65761023b565b8063be6f0ef1146107dd578063c87b56dd1461081a578063d547741f14610857578063d70e761b14610880578063de74e57b146108bd5761023b565b806391d14854116100f257806391d148541461070357806395d89b411461074057806395e662871461076b578063a212a5cc14610794578063a217fddf146107b25761023b565b806375b238fc1461061e57806387962dcc14610649578063883efa67146106865780638ac103f7146106af5780638da5cb5b146106d85761023b565b806330176e13116101bc578063606733ed11610180578063606733ed146105255780636352211e146105625780636817c76c1461059f57806370a08231146105ca578063715018a6146106075761023b565b806330176e1314610456578063305a67a81461047f57806336568abe146104a85780633ccfd60b146104d15780634f6ccce7146104e85761023b565b806323b872dd1161020357806323b872dd1461034d5780632489fd5e14610376578063248a9ca3146103b35780632f2ff15d146103f05780632f745c59146104195761023b565b806301ffc9a71461024057806306fdde031461027d578063150b7a02146102a857806318148f1b146102e557806318160ddd14610322575b600080fd5b34801561024c57600080fd5b5061026760048036038101906102629190613e57565b6109cf565b6040516102749190613e9f565b60405180910390f35b34801561028957600080fd5b50610292610ab1565b60405161029f9190613f4a565b60405180910390f35b3480156102b457600080fd5b506102cf60048036038101906102ca9190614135565b610b43565b6040516102dc91906141c7565b60405180910390f35b3480156102f157600080fd5b5061030c600480360381019061030791906141e2565b610b57565b6040516103199190614367565b60405180910390f35b34801561032e57600080fd5b50610337610d8c565b6040516103449190614398565b60405180910390f35b34801561035957600080fd5b50610374600480360381019061036f91906143b3565b610d99565b005b34801561038257600080fd5b5061039d60048036038101906103989190614406565b610e12565b6040516103aa9190614398565b60405180910390f35b3480156103bf57600080fd5b506103da60048036038101906103d59190614469565b610e36565b6040516103e791906144a5565b60405180910390f35b3480156103fc57600080fd5b50610417600480360381019061041291906144c0565b610e56565b005b34801561042557600080fd5b50610440600480360381019061043b9190614500565b610e77565b60405161044d9190614398565b60405180910390f35b34801561046257600080fd5b5061047d600480360381019061047891906145e1565b610f1c565b005b34801561048b57600080fd5b506104a660048036038101906104a19190614406565b610f98565b005b3480156104b457600080fd5b506104cf60048036038101906104ca91906144c0565b6110e0565b005b3480156104dd57600080fd5b506104e6611163565b005b3480156104f457600080fd5b5061050f600480360381019061050a9190614406565b6111c1565b60405161051c9190614398565b60405180910390f35b34801561053157600080fd5b5061054c60048036038101906105479190614406565b6111fc565b6040516105599190614646565b60405180910390f35b34801561056e57600080fd5b5061058960048036038101906105849190614406565b611226565b6040516105969190614670565b60405180910390f35b3480156105ab57600080fd5b506105b46112ac565b6040516105c19190614398565b60405180910390f35b3480156105d657600080fd5b506105f160048036038101906105ec91906141e2565b6112b2565b6040516105fe9190614398565b60405180910390f35b34801561061357600080fd5b5061061c611369565b005b34801561062a57600080fd5b5061063361137d565b60405161064091906144a5565b60405180910390f35b34801561065557600080fd5b50610670600480360381019061066b9190614406565b6113a1565b60405161067d9190614398565b60405180910390f35b34801561069257600080fd5b506106ad60048036038101906106a8919061468b565b6113c5565b005b3480156106bb57600080fd5b506106d660048036038101906106d191906147ad565b611502565b005b3480156106e457600080fd5b506106ed6115ce565b6040516106fa9190614670565b60405180910390f35b34801561070f57600080fd5b5061072a600480360381019061072591906144c0565b6115f7565b6040516107379190613e9f565b60405180910390f35b34801561074c57600080fd5b50610755611662565b6040516107629190613f4a565b60405180910390f35b34801561077757600080fd5b50610792600480360381019061078d91906148b1565b6116f4565b005b61079c611852565b6040516107a99190614398565b60405180910390f35b3480156107be57600080fd5b506107c7611ec0565b6040516107d491906144a5565b60405180910390f35b3480156107e957600080fd5b5061080460048036038101906107ff9190614406565b611ec7565b6040516108119190614646565b60405180910390f35b34801561082657600080fd5b50610841600480360381019061083c9190614406565b611ef1565b60405161084e9190613f4a565b60405180910390f35b34801561086357600080fd5b5061087e600480360381019061087991906144c0565b611feb565b005b34801561088c57600080fd5b506108a760048036038101906108a29190614406565b61200c565b6040516108b49190614646565b60405180910390f35b3480156108c957600080fd5b506108e460048036038101906108df9190614406565b612036565b6040516108f29291906148fa565b60405180910390f35b61091560048036038101906109109190614406565b61207a565b005b34801561092357600080fd5b5061093e600480360381019061093991906141e2565b61227b565b005b34801561094c57600080fd5b5061096760048036038101906109629190614406565b6122c8565b6040516109749190613f4a565b60405180910390f35b34801561098957600080fd5b506109a4600480360381019061099f9190614406565b61236d565b005b3480156109b257600080fd5b506109cd60048036038101906109c8919061468b565b6123e0565b005b60007f304ad1f2000000000000000000000000000000000000000000000000000000007bffffffffffffffffffffffffffffffffffffffffffffffffffffffff1916827bffffffffffffffffffffffffffffffffffffffffffffffffffffffff19161480610a9a57507f5b5e139f000000000000000000000000000000000000000000000000000000007bffffffffffffffffffffffffffffffffffffffffffffffffffffffff1916827bffffffffffffffffffffffffffffffffffffffffffffffffffffffff1916145b80610aaa5750610aa9826124ac565b5b9050919050565b606060078054610ac090614952565b80601f0160208091040260200160405190810160405280929190818152602001828054610aec90614952565b8015610b395780601f10610b0e57610100808354040283529160200191610b39565b820191906000526020600020905b815481529060010190602001808311610b1c57829003601f168201915b5050505050905090565b600063150b7a0260e01b9050949350505050565b60606000610b64836112b2565b905060008167ffffffffffffffff811115610b8257610b8161400a565b5b604051908082528060200260200182016040528015610bb05781602001602082028036833780820191505090505b50905060008267ffffffffffffffff811115610bcf57610bce61400a565b5b604051908082528060200260200182016040528015610c0257816020015b6060815260200190600190039081610bed5790505b50905060005b83811015610c4657610c1a8682610e77565b838281518110610c2d57610c2c614983565b5b6020026020010181815250508080600101915050610c08565b5060005b8251811015610ca157610c76838281518110610c6957610c68614983565b5b60200260200101516122c8565b828281518110610c8957610c88614983565b5b60200260200101819052508080600101915050610c4a565b5060008367ffffffffffffffff811115610cbe57610cbd61400a565b5b604051908082528060200260200182016040528015610cf757816020015b610ce4613caa565b815260200190600190039081610cdc5790505b50905060005b84811015610d7f5760006040518060400160405280868481518110610d2557610d24614983565b5b60200260200101518152602001858481518110610d4557610d44614983565b5b6020026020010151815250905080838381518110610d6657610d65614983565b5b6020026020010181905250508080600101915050610cfd565b5080945050505050919050565b6000600e80549050905090565b610dc37fa49807205ce4d355092ef5a8a18f56e8913cf4a201fbe287825b095693c21775336115f7565b610e02576040517f08c379a0000000000000000000000000000000000000000000000000000000008152600401610df9906149fe565b60405180910390fd5b610e0d838383612526565b505050565b60158181548110610e2257600080fd5b906000526020600020016000915090505481565b600060066000838152602001908152602001600020600101549050919050565b610e5f82610e36565b610e688161281f565b610e728383612833565b505050565b6000610e82836112b2565b8210610ec3576040517f08c379a0000000000000000000000000000000000000000000000000000000008152600401610eba90614a6a565b60405180910390fd5b600b60008473ffffffffffffffffffffffffffffffffffffffff1673ffffffffffffffffffffffffffffffffffffffff168152602001908152602001600020600083815260200190815260200160002054905092915050565b610f467fa49807205ce4d355092ef5a8a18f56e8913cf4a201fbe287825b095693c21775336115f7565b610f85576040517f08c379a0000000000000000000000000000000000000000000000000000000008152600401610f7c906149fe565b60405180910390fd5b8060119081610f949190614c36565b5050565b6000601360008381526020019081526020016000206040518060400160405290816000820160009054906101000a900473ffffffffffffffffffffffffffffffffffffffff1673ffffffffffffffffffffffffffffffffffffffff1673ffffffffffffffffffffffffffffffffffffffff16815260200160018201548152505090503373ffffffffffffffffffffffffffffffffffffffff16816000015173ffffffffffffffffffffffffffffffffffffffff161461108c576040517f08c379a000000000000000000000000000000000000000000000000000000000815260040161108390614d54565b60405180910390fd5b60136000838152602001908152602001600020600080820160006101000a81549073ffffffffffffffffffffffffffffffffffffffff0219169055600182016000905550506110dc303384612914565b5050565b6110e8612924565b73ffffffffffffffffffffffffffffffffffffffff168173ffffffffffffffffffffffffffffffffffffffff1614611155576040517f08c379a000000000000000000000000000000000000000000000000000000000815260040161114c90614de6565b60405180910390fd5b61115f828261292c565b5050565b61116b612a0e565b60004790506111786115ce565b73ffffffffffffffffffffffffffffffffffffffff166108fc829081150290604051600060405180830381858888f193505050501580156111bd573d6000803e3d6000fd5b5050565b60006111cb610d8c565b82106111d657600080fd5b600e82815481106111ea576111e9614983565b5b90600052602060002001549050919050565b6017816009811061120c57600080fd5b60209182820401919006915054906101000a900460ff1681565b60008061123283612a8c565b9050600073ffffffffffffffffffffffffffffffffffffffff168173ffffffffffffffffffffffffffffffffffffffff16036112a3576040517f08c379a000000000000000000000000000000000000000000000000000000000815260040161129a90614e52565b60405180910390fd5b80915050919050565b60125481565b60008073ffffffffffffffffffffffffffffffffffffffff168273ffffffffffffffffffffffffffffffffffffffff1603611322576040517f08c379a000000000000000000000000000000000000000000000000000000000815260040161131990614ee4565b60405180910390fd5b600460008373ffffffffffffffffffffffffffffffffffffffff1673ffffffffffffffffffffffffffffffffffffffff168152602001908152602001600020549050919050565b611371612a0e565b61137b6000612ac9565b565b7fa49807205ce4d355092ef5a8a18f56e8913cf4a201fbe287825b095693c2177581565b601481815481106113b157600080fd5b906000526020600020016000915090505481565b600081116113d257600080fd5b3373ffffffffffffffffffffffffffffffffffffffff166113f283611226565b73ffffffffffffffffffffffffffffffffffffffff161461141257600080fd5b61141d333084612914565b60405180604001604052803373ffffffffffffffffffffffffffffffffffffffff168152602001828152506013600084815260200190815260200160002060008201518160000160006101000a81548173ffffffffffffffffffffffffffffffffffffffff021916908373ffffffffffffffffffffffffffffffffffffffff160217905550602082015181600101559050503373ffffffffffffffffffffffffffffffffffffffff16827fc93edc6ee14cd6c0c2842099adfa8953b237dbdad304ba28e96dce8a7f2a828c836040516114f69190614398565b60405180910390a35050565b61152c7fa49807205ce4d355092ef5a8a18f56e8913cf4a201fbe287825b095693c21775336115f7565b61156b576040517f08c379a0000000000000000000000000000000000000000000000000000000008152600401611562906149fe565b60405180910390fd5b6003821061157857600080fd5b6000820361159757806016906009611591929190613cc4565b506115ca565b600182036115b6578060179060096115b0929190613cc4565b506115c9565b8060189060096115c7929190613cc4565b505b5b5050565b60008060009054906101000a900473ffffffffffffffffffffffffffffffffffffffff16905090565b60006006600084815260200190815260200160002060000160008373ffffffffffffffffffffffffffffffffffffffff1673ffffffffffffffffffffffffffffffffffffffff16815260200190815260200160002060009054906101000a900460ff16905092915050565b60606008805461167190614952565b80601f016020809104026020016040519081016040528092919081815260200182805461169d90614952565b80156116ea5780601f106116bf576101008083540402835291602001916116ea565b820191906000526020600020905b8154815290600101906020018083116116cd57829003601f168201915b5050505050905090565b61171e7fa49807205ce4d355092ef5a8a18f56e8913cf4a201fbe287825b095693c21775336115f7565b61175d576040517f08c379a0000000000000000000000000000000000000000000000000000000008152600401611754906149fe565b60405180910390fd5b6015805490508151101561177057600080fd5b60005b81518110156117dc576015805490508110156117cf576015818154811061179d5761179c614983565b5b90600052602060002001548282815181106117bb576117ba614983565b5b602002602001015110156117ce57600080fd5b5b8080600101915050611773565b5080601490805190602001906117f3929190613d5e565b506015805490508151111561184f57600060158054905090505b815181101561184d57601560009080600181540180825580915050600190039060005260206000200160009091909190915055808060010191505061180d565b505b50565b6000601254341015611899576040517f08c379a000000000000000000000000000000000000000000000000000000000815260040161189090614f50565b60405180910390fd5b6000600160646118a7612b8d565b6118b19190614f9f565b6118bb9190614fff565b90506000604782116118d057600090506118e7565b606382116118e157600190506118e6565b600290505b5b601481815481106118fb576118fa614983565b5b90600052602060002001546015828154811061191a57611919614983565b5b906000526020600020015410611965576040517f08c379a000000000000000000000000000000000000000000000000000000000815260040161195c9061507f565b60405180910390fd5b60006119716009612bc8565b905061197d6009612bd6565b611985613dab565b600083036119f85760166009806020026040519081016040528092919082600980156119ec576020028201916000905b82829054906101000a900460ff1660ff16815260200190600101906020826000010492830192600103820291508084116119b55790505b50505050509050611ad3565b60018303611a6b576017600980602002604051908101604052809291908260098015611a5f576020028201916000905b82829054906101000a900460ff1660ff1681526020019060010190602082600001049283019260010382029150808411611a285790505b50505050509050611ad2565b6018600980602002604051908101604052809291908260098015611aca576020028201916000905b82829054906101000a900460ff1660ff1681526020019060010190602082600001049283019260010382029150808411611a935790505b505050505090505b5b606060005b80611d2e57611ae5613dab565b600186611af29190614fff565b81600060098110611b0657611b05614983565b5b602002019060ff16908160ff16815250506000600190505b60098160ff161015611ba0576001858260ff1660098110611b4257611b41614983565b5b602002015160ff16611b52612b8d565b611b5c9190614f9f565b611b669190614fff565b828260ff1660098110611b7c57611b7b614983565b5b602002019060ff16908160ff16815250508080611b989061509f565b915050611b1e565b50611bc281600060098110611bb857611bb7614983565b5b6020020151612bec565b611be382600160098110611bd957611bd8614983565b5b6020020151612bec565b611c0483600260098110611bfa57611bf9614983565b5b6020020151612bec565b611c2584600360098110611c1b57611c1a614983565b5b6020020151612bec565b611c4685600460098110611c3c57611c3b614983565b5b6020020151612bec565b611c6786600560098110611c5d57611c5c614983565b5b6020020151612bec565b611c8887600660098110611c7e57611c7d614983565b5b6020020151612bec565b611ca988600760098110611c9f57611c9e614983565b5b6020020151612bec565b611cca89600860098110611cc057611cbf614983565b5b6020020151612bec565b604051602001611ce299989796959493929190615104565b6040516020818303038152906040529250601083604051611d039190615183565b908152602001604051809103902060009054906101000a900460ff16611d2857600191505b50611ad8565b60158581548110611d4257611d41614983565b5b906000526020600020016000815480929190611d5d9061519a565b9190505550611d6c3385612c3a565b6040518060400160405280601281526020017f30313031303130313033303130313034303400000000000000000000000000008152509150611dae8483612e57565b81600d60008681526020019081526020016000209081611dce9190614c36565b506001601083604051611de19190615183565b908152602001604051809103902060006101000a81548160ff021916908315150217905550833373ffffffffffffffffffffffffffffffffffffffff167f8ee4b9f15ee011f61a4a6c5a5e7aec5d3ce89e5190a2b7d3609d6f2a5b492f6884604051611e4d9190613f4a565b60405180910390a3601254341115611eb4573373ffffffffffffffffffffffffffffffffffffffff166108fc60125434611e8791906151e2565b9081150290604051600060405180830381858888f19350505050158015611eb2573d6000803e3d6000fd5b505b83965050505050505090565b6000801b81565b60168160098110611ed757600080fd5b60209182820401919006915054906101000a900460ff1681565b6060611efc82612ee7565b611f0557600080fd5b6000600a60008481526020019081526020016000208054611f2590614952565b80601f0160208091040260200160405190810160405280929190818152602001828054611f5190614952565b8015611f9e5780601f10611f7357610100808354040283529160200191611f9e565b820191906000526020600020905b815481529060010190602001808311611f8157829003601f168201915b505050505090506000611faf612f28565b90506000815103611fc4578192505050611fe6565b600082511115611fd8578192505050611fe6565b611fe184612fba565b925050505b919050565b611ff482610e36565b611ffd8161281f565b612007838361292c565b505050565b6018816009811061201c57600080fd5b60209182820401919006915054906101000a900460ff1681565b60136020528060005260406000206000915090508060000160009054906101000a900473ffffffffffffffffffffffffffffffffffffffff16908060010154905082565b6000601360008381526020019081526020016000206040518060400160405290816000820160009054906101000a900473ffffffffffffffffffffffffffffffffffffffff1673ffffffffffffffffffffffffffffffffffffffff1673ffffffffffffffffffffffffffffffffffffffff16815260200160018201548152505090506000816020015111612143576040517f08c379a000000000000000000000000000000000000000000000000000000000815260040161213a90615262565b60405180910390fd5b80602001513414612189576040517f08c379a0000000000000000000000000000000000000000000000000000000008152600401612180906152ce565b60405180910390fd5b60136000838152602001908152602001600020600080820160006101000a81549073ffffffffffffffffffffffffffffffffffffffff0219169055600182016000905550506121d9303384612914565b806000015173ffffffffffffffffffffffffffffffffffffffff166108fc349081150290604051600060405180830381858888f19350505050158015612223573d6000803e3d6000fd5b503373ffffffffffffffffffffffffffffffffffffffff16827fa574c741071bb18f51fa88c17aeefec514bebf670ca22a3736fba6504ecbb763836020015160405161226f9190614398565b60405180910390a35050565b612283612a0e565b600073ffffffffffffffffffffffffffffffffffffffff168173ffffffffffffffffffffffffffffffffffffffff16036122bc57600080fd5b6122c581612ac9565b50565b6060600d600083815260200190815260200160002080546122e890614952565b80601f016020809104026020016040519081016040528092919081815260200182805461231490614952565b80156123615780601f1061233657610100808354040283529160200191612361565b820191906000526020600020905b81548152906001019060200180831161234457829003601f168201915b50505050509050919050565b6123977fa49807205ce4d355092ef5a8a18f56e8913cf4a201fbe287825b095693c21775336115f7565b6123d6576040517f08c379a00000000000000000000000000000000000000000000000000000000081526004016123cd906149fe565b60405180910390fd5b8060128190555050565b61240a7fa49807205ce4d355092ef5a8a18f56e8913cf4a201fbe287825b095693c21775336115f7565b612449576040517f08c379a0000000000000000000000000000000000000000000000000000000008152600401612440906149fe565b60405180910390fd5b601480549050821061245a57600080fd5b6015828154811061246e5761246d614983565b5b906000526020600020015481101561248557600080fd5b806014838154811061249a57612499614983565b5b90600052602060002001819055505050565b60007f7965db0b000000000000000000000000000000000000000000000000000000007bffffffffffffffffffffffffffffffffffffffffffffffffffffffff1916827bffffffffffffffffffffffffffffffffffffffffffffffffffffffff1916148061251f575061251e82613022565b5b9050919050565b8273ffffffffffffffffffffffffffffffffffffffff1661254682611226565b73ffffffffffffffffffffffffffffffffffffffff161461259c576040517f08c379a000000000000000000000000000000000000000000000000000000000815260040161259390615360565b60405180910390fd5b600073ffffffffffffffffffffffffffffffffffffffff168273ffffffffffffffffffffffffffffffffffffffff160361260b576040517f08c379a0000000000000000000000000000000000000000000000000000000008152600401612602906153f2565b60405180910390fd5b6126188383836001613104565b8273ffffffffffffffffffffffffffffffffffffffff1661263882611226565b73ffffffffffffffffffffffffffffffffffffffff161461268e576040517f08c379a000000000000000000000000000000000000000000000000000000000815260040161268590615360565b60405180910390fd5b6005600082815260200190815260200160002060006101000a81549073ffffffffffffffffffffffffffffffffffffffff02191690556001600460008573ffffffffffffffffffffffffffffffffffffffff1673ffffffffffffffffffffffffffffffffffffffff168152602001908152602001600020600082825403925050819055506001600460008473ffffffffffffffffffffffffffffffffffffffff1673ffffffffffffffffffffffffffffffffffffffff16815260200190815260200160002060008282540192505081905550816003600083815260200190815260200160002060006101000a81548173ffffffffffffffffffffffffffffffffffffffff021916908373ffffffffffffffffffffffffffffffffffffffff160217905550808273ffffffffffffffffffffffffffffffffffffffff168473ffffffffffffffffffffffffffffffffffffffff167fddf252ad1be2c89b69c2b068fc378daa952ba7f163c4a11628f55a4df523b3ef60405160405180910390a461281a8383836001613262565b505050565b6128308161282b612924565b613268565b50565b61283d82826115f7565b6129105760016006600084815260200190815260200160002060000160008373ffffffffffffffffffffffffffffffffffffffff1673ffffffffffffffffffffffffffffffffffffffff16815260200190815260200160002060006101000a81548160ff0219169083151502179055506128b5612924565b73ffffffffffffffffffffffffffffffffffffffff168173ffffffffffffffffffffffffffffffffffffffff16837f2f8788117e7eff1d82e926ec794901d17c78024a50270940304540a733656f0d60405160405180910390a45b5050565b61291f838383612526565b505050565b600033905090565b61293682826115f7565b15612a0a5760006006600084815260200190815260200160002060000160008373ffffffffffffffffffffffffffffffffffffffff1673ffffffffffffffffffffffffffffffffffffffff16815260200190815260200160002060006101000a81548160ff0219169083151502179055506129af612924565b73ffffffffffffffffffffffffffffffffffffffff168173ffffffffffffffffffffffffffffffffffffffff16837ff6391f5c32d9c69d2a47ea670b442974b53935d1edc7fd64eb21e047a839171b60405160405180910390a45b5050565b612a16612924565b73ffffffffffffffffffffffffffffffffffffffff16612a346115ce565b73ffffffffffffffffffffffffffffffffffffffff1614612a8a576040517f08c379a0000000000000000000000000000000000000000000000000000000008152600401612a819061545e565b60405180910390fd5b565b60006003600083815260200190815260200160002060009054906101000a900473ffffffffffffffffffffffffffffffffffffffff169050919050565b60008060009054906101000a900473ffffffffffffffffffffffffffffffffffffffff169050816000806101000a81548173ffffffffffffffffffffffffffffffffffffffff021916908373ffffffffffffffffffffffffffffffffffffffff1602179055508173ffffffffffffffffffffffffffffffffffffffff168173ffffffffffffffffffffffffffffffffffffffff167f8be0079c531659141344cd1fd0a4f28419497f9722a3daafe3b4186f6b6457e060405160405180910390a35050565b6000424443335a47604051602001612baa969594939291906154e7565b6040516020818303038152906040528051906020012060001c905090565b600081600001549050919050565b6001816000016000828254019250508190555050565b6060600a8260ff161015612c2957612c03826132ed565b604051602001612c1391906155a3565b6040516020818303038152906040529050612c35565b612c32826132ed565b90505b919050565b600073ffffffffffffffffffffffffffffffffffffffff168273ffffffffffffffffffffffffffffffffffffffff1603612ca9576040517f08c379a0000000000000000000000000000000000000000000000000000000008152600401612ca090615611565b60405180910390fd5b612cb281612ee7565b15612cf2576040517f08c379a0000000000000000000000000000000000000000000000000000000008152600401612ce99061567d565b60405180910390fd5b612d00600083836001613104565b612d0981612ee7565b15612d49576040517f08c379a0000000000000000000000000000000000000000000000000000000008152600401612d409061567d565b60405180910390fd5b6001600460008473ffffffffffffffffffffffffffffffffffffffff1673ffffffffffffffffffffffffffffffffffffffff16815260200190815260200160002060008282540192505081905550816003600083815260200190815260200160002060006101000a81548173ffffffffffffffffffffffffffffffffffffffff021916908373ffffffffffffffffffffffffffffffffffffffff160217905550808273ffffffffffffffffffffffffffffffffffffffff16600073ffffffffffffffffffffffffffffffffffffffff167fddf252ad1be2c89b69c2b068fc378daa952ba7f163c4a11628f55a4df523b3ef60405160405180910390a4612e53600083836001613262565b5050565b612e6082612ee7565b612e6957600080fd5b601181604051602001612e7d92919061576c565b604051602081830303815290604052600a60008481526020019081526020016000209081612eab9190614c36565b507ff8e1a15aba9398e019f0b49df1a4fde98ee17ae345cb5f6b5e2c27f5033e8ce782604051612edb9190614398565b60405180910390a15050565b60008073ffffffffffffffffffffffffffffffffffffffff16612f0983612a8c565b73ffffffffffffffffffffffffffffffffffffffff1614159050919050565b606060118054612f3790614952565b80601f0160208091040260200160405190810160405280929190818152602001828054612f6390614952565b8015612fb05780601f10612f8557610100808354040283529160200191612fb0565b820191906000526020600020905b815481529060010190602001808311612f9357829003601f168201915b5050505050905090565b6060612fc58261345f565b6000612fcf612f28565b90506000815111612fef576040518060200160405280600081525061301a565b80612ff9846134aa565b60405160200161300a92919061579b565b6040516020818303038152906040525b915050919050565b60007f304ad1f2000000000000000000000000000000000000000000000000000000007bffffffffffffffffffffffffffffffffffffffffffffffffffffffff1916827bffffffffffffffffffffffffffffffffffffffffffffffffffffffff191614806130ed57507f5b5e139f000000000000000000000000000000000000000000000000000000007bffffffffffffffffffffffffffffffffffffffffffffffffffffffff1916827bffffffffffffffffffffffffffffffffffffffffffffffffffffffff1916145b806130fd57506130fc82613578565b5b9050919050565b613110848484846135e2565b6001811115613154576040517f08c379a000000000000000000000000000000000000000000000000000000000815260040161314b90615831565b60405180910390fd5b6000829050600073ffffffffffffffffffffffffffffffffffffffff168573ffffffffffffffffffffffffffffffffffffffff160361319b57613196816135e8565b6131da565b8373ffffffffffffffffffffffffffffffffffffffff168573ffffffffffffffffffffffffffffffffffffffff16146131d9576131d88582613631565b5b5b600073ffffffffffffffffffffffffffffffffffffffff168473ffffffffffffffffffffffffffffffffffffffff160361321c576132178161379e565b61325b565b8473ffffffffffffffffffffffffffffffffffffffff168473ffffffffffffffffffffffffffffffffffffffff161461325a57613259848261386f565b5b5b5050505050565b50505050565b61327282826115f7565b6132e95761327f816138ee565b61328d8360001c602061391b565b60405160200161329e9291906158e9565b6040516020818303038152906040526040517f08c379a00000000000000000000000000000000000000000000000000000000081526004016132e09190613f4a565b60405180910390fd5b5050565b606060008260ff1603613337576040518060400160405280600181526020017f3000000000000000000000000000000000000000000000000000000000000000815250905061345a565b600082905060005b60008260ff161461336c5780806133559061509f565b915050600a826133659190615923565b915061333f565b60008160ff1667ffffffffffffffff81111561338b5761338a61400a565b5b6040519080825280601f01601f1916602001820160405280156133bd5781602001600182028036833780820191505090505b50905060008290505b60008660ff161461345257600a866133de9190615954565b60306133ea9190615985565b60f81b82826133f8906159ba565b92508260ff168151811061340f5761340e614983565b5b60200101907effffffffffffffffffffffffffffffffffffffffffffffffffffffffffffff1916908160001a905350600a8661344b9190615923565b95506133c6565b819450505050505b919050565b61346881612ee7565b6134a7576040517f08c379a000000000000000000000000000000000000000000000000000000000815260040161349e90614e52565b60405180910390fd5b50565b6060600060016134b984613b57565b01905060008167ffffffffffffffff8111156134d8576134d761400a565b5b6040519080825280601f01601f19166020018201604052801561350a5781602001600182028036833780820191505090505b509050600082602001820190505b60011561356d578080600190039150507f3031323334353637383961626364656600000000000000000000000000000000600a86061a8153600a858161356157613560614f70565b5b04945060008503613518575b819350505050919050565b60007f01ffc9a7000000000000000000000000000000000000000000000000000000007bffffffffffffffffffffffffffffffffffffffffffffffffffffffff1916827bffffffffffffffffffffffffffffffffffffffffffffffffffffffff1916149050919050565b50505050565b600e80549050600f600083815260200190815260200160002081905550600e81908060018154018082558091505060019003906000526020600020016000909190919091505550565b6000600161363e846112b2565b61364891906151e2565b90506000600c600084815260200190815260200160002054905081811461372d576000600b60008673ffffffffffffffffffffffffffffffffffffffff1673ffffffffffffffffffffffffffffffffffffffff168152602001908152602001600020600084815260200190815260200160002054905080600b60008773ffffffffffffffffffffffffffffffffffffffff1673ffffffffffffffffffffffffffffffffffffffff16815260200190815260200160002060008481526020019081526020016000208190555081600c600083815260200190815260200160002081905550505b600c600084815260200190815260200160002060009055600b60008573ffffffffffffffffffffffffffffffffffffffff1673ffffffffffffffffffffffffffffffffffffffff16815260200190815260200160002060008381526020019081526020016000206000905550505050565b60006001600e805490506137b291906151e2565b90506000600f60008481526020019081526020016000205490506000600e83815481106137e2576137e1614983565b5b9060005260206000200154905080600e838154811061380457613803614983565b5b906000526020600020018190555081600f600083815260200190815260200160002081905550600f600085815260200190815260200160002060009055600e805480613853576138526159e3565b5b6001900381819060005260206000200160009055905550505050565b600061387a836112b2565b905081600b60008573ffffffffffffffffffffffffffffffffffffffff1673ffffffffffffffffffffffffffffffffffffffff16815260200190815260200160002060008381526020019081526020016000208190555080600c600084815260200190815260200160002081905550505050565b60606139148273ffffffffffffffffffffffffffffffffffffffff16601460ff1661391b565b9050919050565b60606000600283600261392e9190615a12565b6139389190614fff565b67ffffffffffffffff8111156139515761395061400a565b5b6040519080825280601f01601f1916602001820160405280156139835781602001600182028036833780820191505090505b5090507f3000000000000000000000000000000000000000000000000000000000000000816000815181106139bb576139ba614983565b5b60200101907effffffffffffffffffffffffffffffffffffffffffffffffffffffffffffff1916908160001a9053507f780000000000000000000000000000000000000000000000000000000000000081600181518110613a1f57613a1e614983565b5b60200101907effffffffffffffffffffffffffffffffffffffffffffffffffffffffffffff1916908160001a90535060006001846002613a5f9190615a12565b613a699190614fff565b90505b6001811115613b09577f3031323334353637383961626364656600000000000000000000000000000000600f861660108110613aab57613aaa614983565b5b1a60f81b828281518110613ac257613ac1614983565b5b60200101907effffffffffffffffffffffffffffffffffffffffffffffffffffffffffffff1916908160001a905350600485901c945080613b0290615a54565b9050613a6c565b5060008414613b4d576040517f08c379a0000000000000000000000000000000000000000000000000000000008152600401613b4490615ac9565b60405180910390fd5b8091505092915050565b600080600090507a184f03e93ff9f4daa797ed6e38ed64bf6a1f0100000000000000008310613bb5577a184f03e93ff9f4daa797ed6e38ed64bf6a1f0100000000000000008381613bab57613baa614f70565b5b0492506040810190505b6d04ee2d6d415b85acef81000000008310613bf2576d04ee2d6d415b85acef81000000008381613be857613be7614f70565b5b0492506020810190505b662386f26fc100008310613c2157662386f26fc100008381613c1757613c16614f70565b5b0492506010810190505b6305f5e1008310613c4a576305f5e1008381613c4057613c3f614f70565b5b0492506008810190505b6127108310613c6f576127108381613c6557613c64614f70565b5b0492506004810190505b60648310613c925760648381613c8857613c87614f70565b5b0492506002810190505b600a8310613ca1576001810190505b80915050919050565b604051806040016040528060008152602001606081525090565b826009601f01602090048101928215613d4d5791602002820160005b83821115613d1e57835183826101000a81548160ff021916908360ff1602179055509260200192600101602081600001049283019260010302613ce0565b8015613d4b5782816101000a81549060ff0219169055600101602081600001049283019260010302613d1e565b505b509050613d5a9190613dce565b5090565b828054828255906000526020600020908101928215613d9a579160200282015b82811115613d99578251825591602001919060010190613d7e565b5b509050613da79190613dce565b5090565b604051806101200160405280600990602082028036833780820191505090505090565b5b80821115613de7576000816000905550600101613dcf565b5090565b6000604051905090565b600080fd5b600080fd5b60007fffffffff0000000000000000000000000000000000000000000000000000000082169050919050565b613e3481613dff565b8114613e3f57600080fd5b50565b600081359050613e5181613e2b565b92915050565b600060208284031215613e6d57613e6c613df5565b5b6000613e7b84828501613e42565b91505092915050565b60008115159050919050565b613e9981613e84565b82525050565b6000602082019050613eb46000830184613e90565b92915050565b600081519050919050565b600082825260208201905092915050565b60005b83811015613ef4578082015181840152602081019050613ed9565b60008484015250505050565b6000601f19601f8301169050919050565b6000613f1c82613eba565b613f268185613ec5565b9350613f36818560208601613ed6565b613f3f81613f00565b840191505092915050565b60006020820190508181036000830152613f648184613f11565b905092915050565b600073ffffffffffffffffffffffffffffffffffffffff82169050919050565b6000613f9782613f6c565b9050919050565b613fa781613f8c565b8114613fb257600080fd5b50565b600081359050613fc481613f9e565b92915050565b6000819050919050565b613fdd81613fca565b8114613fe857600080fd5b50565b600081359050613ffa81613fd4565b92915050565b600080fd5b600080fd5b7f4e487b7100000000000000000000000000000000000000000000000000000000600052604160045260246000fd5b61404282613f00565b810181811067ffffffffffffffff821117156140615761406061400a565b5b80604052505050565b6000614074613deb565b90506140808282614039565b919050565b600067ffffffffffffffff8211156140a05761409f61400a565b5b6140a982613f00565b9050602081019050919050565b82818337600083830152505050565b60006140d86140d384614085565b61406a565b9050828152602081018484840111156140f4576140f3614005565b5b6140ff8482856140b6565b509392505050565b600082601f83011261411c5761411b614000565b5b813561412c8482602086016140c5565b91505092915050565b6000806000806080858703121561414f5761414e613df5565b5b600061415d87828801613fb5565b945050602061416e87828801613fb5565b935050604061417f87828801613feb565b925050606085013567ffffffffffffffff8111156141a05761419f613dfa565b5b6141ac87828801614107565b91505092959194509250565b6141c181613dff565b82525050565b60006020820190506141dc60008301846141b8565b92915050565b6000602082840312156141f8576141f7613df5565b5b600061420684828501613fb5565b91505092915050565b600081519050919050565b600082825260208201905092915050565b6000819050602082019050919050565b61424481613fca565b82525050565b600082825260208201905092915050565b600061426682613eba565b614270818561424a565b9350614280818560208601613ed6565b61428981613f00565b840191505092915050565b60006040830160008301516142ac600086018261423b565b50602083015184820360208601526142c4828261425b565b9150508091505092915050565b60006142dd8383614294565b905092915050565b6000602082019050919050565b60006142fd8261420f565b614307818561421a565b9350836020820285016143198561422b565b8060005b85811015614355578484038952815161433685826142d1565b9450614341836142e5565b925060208a0199505060018101905061431d565b50829750879550505050505092915050565b6000602082019050818103600083015261438181846142f2565b905092915050565b61439281613fca565b82525050565b60006020820190506143ad6000830184614389565b92915050565b6000806000606084860312156143cc576143cb613df5565b5b60006143da86828701613fb5565b93505060206143eb86828701613fb5565b92505060406143fc86828701613feb565b9150509250925092565b60006020828403121561441c5761441b613df5565b5b600061442a84828501613feb565b91505092915050565b6000819050919050565b61444681614433565b811461445157600080fd5b50565b6000813590506144638161443d565b92915050565b60006020828403121561447f5761447e613df5565b5b600061448d84828501614454565b91505092915050565b61449f81614433565b82525050565b60006020820190506144ba6000830184614496565b92915050565b600080604083850312156144d7576144d6613df5565b5b60006144e585828601614454565b92505060206144f685828601613fb5565b9150509250929050565b6000806040838503121561451757614516613df5565b5b600061452585828601613fb5565b925050602061453685828601613feb565b9150509250929050565b600067ffffffffffffffff82111561455b5761455a61400a565b5b61456482613f00565b9050602081019050919050565b600061458461457f84614540565b61406a565b9050828152602081018484840111156145a05761459f614005565b5b6145ab8482856140b6565b509392505050565b600082601f8301126145c8576145c7614000565b5b81356145d8848260208601614571565b91505092915050565b6000602082840312156145f7576145f6613df5565b5b600082013567ffffffffffffffff81111561461557614614613dfa565b5b614621848285016145b3565b91505092915050565b600060ff82169050919050565b6146408161462a565b82525050565b600060208201905061465b6000830184614637565b92915050565b61466a81613f8c565b82525050565b60006020820190506146856000830184614661565b92915050565b600080604083850312156146a2576146a1613df5565b5b60006146b085828601613feb565b92505060206146c185828601613feb565b9150509250929050565b600067ffffffffffffffff8211156146e6576146e561400a565b5b602082029050919050565b600080fd5b6146ff8161462a565b811461470a57600080fd5b50565b60008135905061471c816146f6565b92915050565b6000614735614730846146cb565b61406a565b9050806020840283018581111561474f5761474e6146f1565b5b835b818110156147785780614764888261470d565b845260208401935050602081019050614751565b5050509392505050565b600082601f83011261479757614796614000565b5b60096147a4848285614722565b91505092915050565b60008061014083850312156147c5576147c4613df5565b5b60006147d385828601613feb565b92505060206147e485828601614782565b9150509250929050565b600067ffffffffffffffff8211156148095761480861400a565b5b602082029050602081019050919050565b600061482d614828846147ee565b61406a565b905080838252602082019050602084028301858111156148505761484f6146f1565b5b835b8181101561487957806148658882613feb565b845260208401935050602081019050614852565b5050509392505050565b600082601f83011261489857614897614000565b5b81356148a884826020860161481a565b91505092915050565b6000602082840312156148c7576148c6613df5565b5b600082013567ffffffffffffffff8111156148e5576148e4613dfa565b5b6148f184828501614883565b91505092915050565b600060408201905061490f6000830185614661565b61491c6020830184614389565b9392505050565b7f4e487b7100000000000000000000000000000000000000000000000000000000600052602260045260246000fd5b6000600282049050600182168061496a57607f821691505b60208210810361497d5761497c614923565b5b50919050565b7f4e487b7100000000000000000000000000000000000000000000000000000000600052603260045260246000fd5b7f3330310000000000000000000000000000000000000000000000000000000000600082015250565b60006149e8600383613ec5565b91506149f3826149b2565b602082019050919050565b60006020820190508181036000830152614a17816149db565b9050919050565b7f3100000000000000000000000000000000000000000000000000000000000000600082015250565b6000614a54600183613ec5565b9150614a5f82614a1e565b602082019050919050565b60006020820190508181036000830152614a8381614a47565b9050919050565b60008190508160005260206000209050919050565b60006020601f8301049050919050565b600082821b905092915050565b600060088302614aec7fffffffffffffffffffffffffffffffffffffffffffffffffffffffffffffffff82614aaf565b614af68683614aaf565b95508019841693508086168417925050509392505050565b6000819050919050565b6000614b33614b2e614b2984613fca565b614b0e565b613fca565b9050919050565b6000819050919050565b614b4d83614b18565b614b61614b5982614b3a565b848454614abc565b825550505050565b600090565b614b76614b69565b614b81818484614b44565b505050565b5b81811015614ba557614b9a600082614b6e565b600181019050614b87565b5050565b601f821115614bea57614bbb81614a8a565b614bc484614a9f565b81016020851015614bd3578190505b614be7614bdf85614a9f565b830182614b86565b50505b505050565b600082821c905092915050565b6000614c0d60001984600802614bef565b1980831691505092915050565b6000614c268383614bfc565b9150826002028217905092915050565b614c3f82613eba565b67ffffffffffffffff811115614c5857614c5761400a565b5b614c628254614952565b614c6d828285614ba9565b600060209050601f831160018114614ca05760008415614c8e578287015190505b614c988582614c1a565b865550614d00565b601f198416614cae86614a8a565b60005b82811015614cd657848901518255600182019150602085019450602081019050614cb1565b86831015614cf35784890151614cef601f891682614bfc565b8355505b6001600288020188555050505b505050505050565b7f3130350000000000000000000000000000000000000000000000000000000000600082015250565b6000614d3e600383613ec5565b9150614d4982614d08565b602082019050919050565b60006020820190508181036000830152614d6d81614d31565b9050919050565b7f416363657373436f6e74726f6c3a2063616e206f6e6c792072656e6f756e636560008201527f20726f6c657320666f722073656c660000000000000000000000000000000000602082015250565b6000614dd0602f83613ec5565b9150614ddb82614d74565b604082019050919050565b60006020820190508181036000830152614dff81614dc3565b9050919050565b7f4552433732313a20696e76616c696420746f6b656e2049440000000000000000600082015250565b6000614e3c601883613ec5565b9150614e4782614e06565b602082019050919050565b60006020820190508181036000830152614e6b81614e2f565b9050919050565b7f4552433732313a2061646472657373207a65726f206973206e6f74206120766160008201527f6c6964206f776e65720000000000000000000000000000000000000000000000602082015250565b6000614ece602983613ec5565b9150614ed982614e72565b604082019050919050565b60006020820190508181036000830152614efd81614ec1565b9050919050565b7f496e73756666696369656e74207061796d656e74000000000000000000000000600082015250565b6000614f3a601483613ec5565b9150614f4582614f04565b602082019050919050565b60006020820190508181036000830152614f6981614f2d565b9050919050565b7f4e487b7100000000000000000000000000000000000000000000000000000000600052601260045260246000fd5b6000614faa82613fca565b9150614fb583613fca565b925082614fc557614fc4614f70565b5b828206905092915050565b7f4e487b7100000000000000000000000000000000000000000000000000000000600052601160045260246000fd5b600061500a82613fca565b915061501583613fca565b925082820190508082111561502d5761502c614fd0565b5b92915050565b7f3130360000000000000000000000000000000000000000000000000000000000600082015250565b6000615069600383613ec5565b915061507482615033565b602082019050919050565b600060208201905081810360008301526150988161505c565b9050919050565b60006150aa8261462a565b915060ff82036150bd576150bc614fd0565b5b600182019050919050565b600081905092915050565b60006150de82613eba565b6150e881856150c8565b93506150f8818560208601613ed6565b80840191505092915050565b6000615110828c6150d3565b915061511c828b6150d3565b9150615128828a6150d3565b915061513482896150d3565b915061514082886150d3565b915061514c82876150d3565b915061515882866150d3565b915061516482856150d3565b915061517082846150d3565b91508190509a9950505050505050505050565b600061518f82846150d3565b915081905092915050565b60006151a582613fca565b91507fffffffffffffffffffffffffffffffffffffffffffffffffffffffffffffffff82036151d7576151d6614fd0565b5b600182019050919050565b60006151ed82613fca565b91506151f883613fca565b92508282039050818111156152105761520f614fd0565b5b92915050565b7f3130370000000000000000000000000000000000000000000000000000000000600082015250565b600061524c600383613ec5565b915061525782615216565b602082019050919050565b6000602082019050818103600083015261527b8161523f565b9050919050565b7f3130380000000000000000000000000000000000000000000000000000000000600082015250565b60006152b8600383613ec5565b91506152c382615282565b602082019050919050565b600060208201905081810360008301526152e7816152ab565b9050919050565b7f4552433732313a207472616e736665722066726f6d20696e636f72726563742060008201527f6f776e6572000000000000000000000000000000000000000000000000000000602082015250565b600061534a602583613ec5565b9150615355826152ee565b604082019050919050565b600060208201905081810360008301526153798161533d565b9050919050565b7f4552433732313a207472616e7366657220746f20746865207a65726f2061646460008201527f7265737300000000000000000000000000000000000000000000000000000000602082015250565b60006153dc602483613ec5565b91506153e782615380565b604082019050919050565b6000602082019050818103600083015261540b816153cf565b9050919050565b7f4f776e61626c653a2063616c6c6572206973206e6f7420746865206f776e6572600082015250565b6000615448602083613ec5565b915061545382615412565b602082019050919050565b600060208201905081810360008301526154778161543b565b9050919050565b6000819050919050565b61549961549482613fca565b61547e565b82525050565b60008160601b9050919050565b60006154b78261549f565b9050919050565b60006154c9826154ac565b9050919050565b6154e16154dc82613f8c565b6154be565b82525050565b60006154f38289615488565b6020820191506155038288615488565b6020820191506155138287615488565b60208201915061552382866154d0565b6014820191506155338285615488565b6020820191506155438284615488565b602082019150819050979650505050505050565b7f3000000000000000000000000000000000000000000000000000000000000000600082015250565b600061558d6001836150c8565b915061559882615557565b600182019050919050565b60006155ae82615580565b91506155ba82846150d3565b915081905092915050565b7f4552433732313a206d696e7420746f20746865207a65726f2061646472657373600082015250565b60006155fb602083613ec5565b9150615606826155c5565b602082019050919050565b6000602082019050818103600083015261562a816155ee565b9050919050565b7f4552433732313a20746f6b656e20616c7265616479206d696e74656400000000600082015250565b6000615667601c83613ec5565b915061567282615631565b602082019050919050565b600060208201905081810360008301526156968161565a565b9050919050565b600081546156aa81614952565b6156b481866150c8565b945060018216600081146156cf57600181146156e457615717565b60ff1983168652811515820286019350615717565b6156ed85614a8a565b60005b8381101561570f578154818901526001820191506020810190506156f0565b838801955050505b50505092915050565b7f2e6a736f6e000000000000000000000000000000000000000000000000000000600082015250565b60006157566005836150c8565b915061576182615720565b600582019050919050565b6000615778828561569d565b915061578482846150d3565b915061578f82615749565b91508190509392505050565b60006157a782856150d3565b91506157b382846150d3565b91508190509392505050565b7f455243373231456e756d657261626c653a20636f6e736563757469766520747260008201527f616e7366657273206e6f7420737570706f727465640000000000000000000000602082015250565b600061581b603583613ec5565b9150615826826157bf565b604082019050919050565b6000602082019050818103600083015261584a8161580e565b9050919050565b7f416363657373436f6e74726f6c3a206163636f756e7420000000000000000000600082015250565b60006158876017836150c8565b915061589282615851565b601782019050919050565b7f206973206d697373696e6720726f6c6520000000000000000000000000000000600082015250565b60006158d36011836150c8565b91506158de8261589d565b601182019050919050565b60006158f48261587a565b915061590082856150d3565b915061590b826158c6565b915061591782846150d3565b91508190509392505050565b600061592e8261462a565b91506159398361462a565b92508261594957615948614f70565b5b828204905092915050565b600061595f8261462a565b915061596a8361462a565b92508261597a57615979614f70565b5b828206905092915050565b60006159908261462a565b915061599b8361462a565b9250828201905060ff8111156159b4576159b3614fd0565b5b92915050565b60006159c58261462a565b9150600082036159d8576159d7614fd0565b5b600182039050919050565b7f4e487b7100000000000000000000000000000000000000000000000000000000600052603160045260246000fd5b6000615a1d82613fca565b9150615a2883613fca565b9250828202615a3681613fca565b91508282048414831517615a4d57615a4c614fd0565b5b5092915050565b6000615a5f82613fca565b915060008203615a7257615a71614fd0565b5b600182039050919050565b7f537472696e67733a20686578206c656e67746820696e73756666696369656e74600082015250565b6000615ab3602083613ec5565b9150615abe82615a7d565b602082019050919050565b60006020820190508181036000830152615ae281615aa6565b905091905056fea264697066735822122047c9d626e17469721cbf58002ee7cae6d7acc53673732ed63d7cc6260fd2a44064736f6c63430008180033697066733a2f2f62616679626569657273706373667a6e7264763362676676636d67363265676665747433336d7937346d676b61636d6d62326a32667a736a6a79712f",
  "linkReferences": {},
  "deployedLinkReferences": {}
}