{
  "_format": "hh-sol-artifact-1",
  "contractName": "FishingRodNFT",
  "sourceName": "contracts/FishingRodNFT.sol",
  "abi": [
    {
      "inputs": [
        {
          "internalType": "uint256",
          "name": "_mintPrice",
          "type": "uint256"
        }
      ],
      "stateMutability": "nonpayable",
      "type": "constructor"
    },
    {
      "anonymous": false,
      "inputs": [
        {
          "indexed": true,
          "internalType": "address",
          "name": "newAdmin",
          "type": "address"
        }
      ],
      "name": "AdminAdded",
      "type": "event"
    },
    {
      "anonymous": false,
      "inputs": [
        {
          "indexed": true,
          "internalType": "address",
          "name": "removedAdmin",
          "type": "address"
        }
      ],
      "name": "AdminRemoved",
      "type": "event"
    },
    {
      "anonymous": false,
      "inputs": [
        {
          "indexed": true,
          "internalType": "uint256",
          "name": "tokenId",
          "type": "uint256"
        },
        {
          "indexed": true,
          "internalType": "address",
          "name": "seller",
          "type": "address"
        },
        {
          "indexed": false,
          "internalType": "uint256",
          "name": "price",
          "type": "uint256"
        }
      ],
      "name": "ItemListed",
      "type": "event"
    },
    {
      "anonymous": false,
      "inputs": [
        {
          "indexed": true,
          "internalType": "uint256",
          "name": "tokenId",
          "type": "uint256"
        },
        {
          "indexed": true,
          "internalType": "address",
          "name": "buyer",
          "type": "address"
        },
        {
          "indexed": false,
          "internalType": "uint256",
          "name": "price",
          "type": "uint256"
        }
      ],
      "name": "ItemSold",
      "type": "event"
    },
    {
      "anonymous": false,
      "inputs": [
        {
          "indexed": true,
          "internalType": "address",
          "name": "previousOwner",
          "type": "address"
        },
        {
          "indexed": true,
          "internalType": "address",
          "name": "newOwner",
          "type": "address"
        }
      ],
      "name": "OwnershipTransferred",
      "type": "event"
    },
    {
      "anonymous": false,
      "inputs": [
        {
          "indexed": true,
          "internalType": "uint256",
          "name": "tokenId",
          "type": "uint256"
        }
      ],
      "name": "RodAttributesUpdated",
      "type": "event"
    },
    {
      "anonymous": false,
      "inputs": [
        {
          "indexed": true,
          "internalType": "address",
          "name": "to",
          "type": "address"
        },
        {
          "indexed": true,
          "internalType": "uint256",
          "name": "tokenId",
          "type": "uint256"
        },
        {
          "indexed": false,
          "internalType": "uint256",
          "name": "rodType",
          "type": "uint256"
        }
      ],
      "name": "RodMinted",
      "type": "event"
    },
    {
      "anonymous": false,
      "inputs": [
        {
          "indexed": true,
          "internalType": "bytes32",
          "name": "role",
          "type": "bytes32"
        },
        {
          "indexed": true,
          "internalType": "bytes32",
          "name": "previousAdminRole",
          "type": "bytes32"
        },
        {
          "indexed": true,
          "internalType": "bytes32",
          "name": "newAdminRole",
          "type": "bytes32"
        }
      ],
      "name": "RoleAdminChanged",
      "type": "event"
    },
    {
      "anonymous": false,
      "inputs": [
        {
          "indexed": true,
          "internalType": "bytes32",
          "name": "role",
          "type": "bytes32"
        },
        {
          "indexed": true,
          "internalType": "address",
          "name": "account",
          "type": "address"
        },
        {
          "indexed": true,
          "internalType": "address",
          "name": "sender",
          "type": "address"
        }
      ],
      "name": "RoleGranted",
      "type": "event"
    },
    {
      "anonymous": false,
      "inputs": [
        {
          "indexed": true,
          "internalType": "bytes32",
          "name": "role",
          "type": "bytes32"
        },
        {
          "indexed": true,
          "internalType": "address",
          "name": "account",
          "type": "address"
        },
        {
          "indexed": true,
          "internalType": "address",
          "name": "sender",
          "type": "address"
        }
      ],
      "name": "RoleRevoked",
      "type": "event"
    },
    {
      "anonymous": false,
      "inputs": [
        {
          "indexed": true,
          "internalType": "address",
          "name": "from",
          "type": "address"
        },
        {
          "indexed": true,
          "internalType": "address",
          "name": "to",
          "type": "address"
        },
        {
          "indexed": true,
          "internalType": "uint256",
          "name": "tokenId",
          "type": "uint256"
        }
      ],
      "name": "Transfer",
      "type": "event"
    },
    {
      "inputs": [],
      "name": "ADMIN_ROLE",
      "outputs": [
        {
          "internalType": "bytes32",
          "name": "",
          "type": "bytes32"
        }
      ],
      "stateMutability": "view",
      "type": "function"
    },
    {
      "inputs": [],
      "name": "DEFAULT_ADMIN_ROLE",
      "outputs": [
        {
          "internalType": "bytes32",
          "name": "",
          "type": "bytes32"
        }
      ],
      "stateMutability": "view",
      "type": "function"
    },
    {
      "inputs": [
        {
          "internalType": "address",
          "name": "owner",
          "type": "address"
        }
      ],
      "name": "balanceOf",
      "outputs": [
        {
          "internalType": "uint256",
          "name": "",
          "type": "uint256"
        }
      ],
      "stateMutability": "view",
      "type": "function"
    },
    {
      "inputs": [
        {
          "internalType": "uint256",
          "name": "tokenId",
          "type": "uint256"
        }
      ],
      "name": "buyItem",
      "outputs": [],
      "stateMutability": "payable",
      "type": "function"
    },
    {
      "inputs": [
        {
          "internalType": "uint256",
          "name": "tokenId",
          "type": "uint256"
        }
      ],
      "name": "cancelListing",
      "outputs": [],
      "stateMutability": "nonpayable",
      "type": "function"
    },
    {
      "inputs": [
        {
          "internalType": "address",
          "name": "playAddress",
          "type": "address"
        }
      ],
      "name": "freeMintRod",
      "outputs": [
        {
          "internalType": "uint256",
          "name": "",
          "type": "uint256"
        },
        {
          "internalType": "uint256",
          "name": "",
          "type": "uint256"
        }
      ],
      "stateMutability": "nonpayable",
      "type": "function"
    },
    {
      "inputs": [
        {
          "internalType": "address",
          "name": "owner",
          "type": "address"
        }
      ],
      "name": "getOwnedNFTs",
      "outputs": [
        {
          "components": [
            {
              "internalType": "uint256",
              "name": "tokenId",
              "type": "uint256"
            },
            {
              "internalType": "uint256",
              "name": "rodType",
              "type": "uint256"
            }
          ],
          "internalType": "struct FishingRodNFT.RodNft[]",
          "name": "",
          "type": "tuple[]"
        }
      ],
      "stateMutability": "view",
      "type": "function"
    },
    {
      "inputs": [
        {
          "internalType": "uint256",
          "name": "tokenId",
          "type": "uint256"
        }
      ],
      "name": "getRodTypeByTokenId",
      "outputs": [
        {
          "internalType": "uint256",
          "name": "",
          "type": "uint256"
        }
      ],
      "stateMutability": "view",
      "type": "function"
    },
    {
      "inputs": [
        {
          "internalType": "bytes32",
          "name": "role",
          "type": "bytes32"
        }
      ],
      "name": "getRoleAdmin",
      "outputs": [
        {
          "internalType": "bytes32",
          "name": "",
          "type": "bytes32"
        }
      ],
      "stateMutability": "view",
      "type": "function"
    },
    {
      "inputs": [
        {
          "internalType": "bytes32",
          "name": "role",
          "type": "bytes32"
        },
        {
          "internalType": "address",
          "name": "account",
          "type": "address"
        }
      ],
      "name": "grantRole",
      "outputs": [],
      "stateMutability": "nonpayable",
      "type": "function"
    },
    {
      "inputs": [
        {
          "internalType": "bytes32",
          "name": "role",
          "type": "bytes32"
        },
        {
          "internalType": "address",
          "name": "account",
          "type": "address"
        }
      ],
      "name": "hasRole",
      "outputs": [
        {
          "internalType": "bool",
          "name": "",
          "type": "bool"
        }
      ],
      "stateMutability": "view",
      "type": "function"
    },
    {
      "inputs": [
        {
          "internalType": "uint256",
          "name": "tokenId",
          "type": "uint256"
        },
        {
          "internalType": "uint256",
          "name": "price",
          "type": "uint256"
        }
      ],
      "name": "listItem",
      "outputs": [],
      "stateMutability": "nonpayable",
      "type": "function"
    },
    {
      "inputs": [
        {
          "internalType": "uint256",
          "name": "",
          "type": "uint256"
        }
      ],
      "name": "listings",
      "outputs": [
        {
          "internalType": "address",
          "name": "seller",
          "type": "address"
        },
        {
          "internalType": "uint256",
          "name": "price",
          "type": "uint256"
        }
      ],
      "stateMutability": "view",
      "type": "function"
    },
    {
      "inputs": [],
      "name": "mintPrice",
      "outputs": [
        {
          "internalType": "uint256",
          "name": "",
          "type": "uint256"
        }
      ],
      "stateMutability": "view",
      "type": "function"
    },
    {
      "inputs": [],
      "name": "mintRod",
      "outputs": [
        {
          "internalType": "uint256",
          "name": "",
          "type": "uint256"
        },
        {
          "internalType": "uint256",
          "name": "",
          "type": "uint256"
        }
      ],
      "stateMutability": "payable",
      "type": "function"
    },
    {
      "inputs": [],
      "name": "name",
      "outputs": [
        {
          "internalType": "string",
          "name": "",
          "type": "string"
        }
      ],
      "stateMutability": "view",
      "type": "function"
    },
    {
      "inputs": [
        {
          "internalType": "address",
          "name": "",
          "type": "address"
        },
        {
          "internalType": "address",
          "name": "",
          "type": "address"
        },
        {
          "internalType": "uint256",
          "name": "",
          "type": "uint256"
        },
        {
          "internalType": "bytes",
          "name": "",
          "type": "bytes"
        }
      ],
      "name": "onERC721Received",
      "outputs": [
        {
          "internalType": "bytes4",
          "name": "",
          "type": "bytes4"
        }
      ],
      "stateMutability": "nonpayable",
      "type": "function"
    },
    {
      "inputs": [],
      "name": "owner",
      "outputs": [
        {
          "internalType": "address",
          "name": "",
          "type": "address"
        }
      ],
      "stateMutability": "view",
      "type": "function"
    },
    {
      "inputs": [
        {
          "internalType": "uint256",
          "name": "tokenId",
          "type": "uint256"
        }
      ],
      "name": "ownerOf",
      "outputs": [
        {
          "internalType": "address",
          "name": "",
          "type": "address"
        }
      ],
      "stateMutability": "view",
      "type": "function"
    },
    {
      "inputs": [],
      "name": "renounceOwnership",
      "outputs": [],
      "stateMutability": "nonpayable",
      "type": "function"
    },
    {
      "inputs": [
        {
          "internalType": "bytes32",
          "name": "role",
          "type": "bytes32"
        },
        {
          "internalType": "address",
          "name": "account",
          "type": "address"
        }
      ],
      "name": "renounceRole",
      "outputs": [],
      "stateMutability": "nonpayable",
      "type": "function"
    },
    {
      "inputs": [
        {
          "internalType": "bytes32",
          "name": "role",
          "type": "bytes32"
        },
        {
          "internalType": "address",
          "name": "account",
          "type": "address"
        }
      ],
      "name": "revokeRole",
      "outputs": [],
      "stateMutability": "nonpayable",
      "type": "function"
    },
    {
      "inputs": [
        {
          "internalType": "string",
          "name": "newBaseTokenURI",
          "type": "string"
        }
      ],
      "name": "setBaseTokenURI",
      "outputs": [],
      "stateMutability": "nonpayable",
      "type": "function"
    },
    {
      "inputs": [
        {
          "internalType": "uint256",
          "name": "newMintPrice",
          "type": "uint256"
        }
      ],
      "name": "setMintPrice",
      "outputs": [],
      "stateMutability": "nonpayable",
      "type": "function"
    },
    {
      "inputs": [
        {
          "internalType": "bytes4",
          "name": "interfaceId",
          "type": "bytes4"
        }
      ],
      "name": "supportsInterface",
      "outputs": [
        {
          "internalType": "bool",
          "name": "",
          "type": "bool"
        }
      ],
      "stateMutability": "view",
      "type": "function"
    },
    {
      "inputs": [],
      "name": "symbol",
      "outputs": [
        {
          "internalType": "string",
          "name": "",
          "type": "string"
        }
      ],
      "stateMutability": "view",
      "type": "function"
    },
    {
      "inputs": [
        {
          "internalType": "uint256",
          "name": "index",
          "type": "uint256"
        }
      ],
      "name": "tokenByIndex",
      "outputs": [
        {
          "internalType": "uint256",
          "name": "",
          "type": "uint256"
        }
      ],
      "stateMutability": "view",
      "type": "function"
    },
    {
      "inputs": [
        {
          "internalType": "address",
          "name": "owner",
          "type": "address"
        },
        {
          "internalType": "uint256",
          "name": "index",
          "type": "uint256"
        }
      ],
      "name": "tokenOfOwnerByIndex",
      "outputs": [
        {
          "internalType": "uint256",
          "name": "",
          "type": "uint256"
        }
      ],
      "stateMutability": "view",
      "type": "function"
    },
    {
      "inputs": [
        {
          "internalType": "uint256",
          "name": "tokenId",
          "type": "uint256"
        }
      ],
      "name": "tokenURI",
      "outputs": [
        {
          "internalType": "string",
          "name": "",
          "type": "string"
        }
      ],
      "stateMutability": "view",
      "type": "function"
    },
    {
      "inputs": [],
      "name": "totalSupply",
      "outputs": [
        {
          "internalType": "uint256",
          "name": "",
          "type": "uint256"
        }
      ],
      "stateMutability": "view",
      "type": "function"
    },
    {
      "inputs": [
        {
          "internalType": "address",
          "name": "from",
          "type": "address"
        },
        {
          "internalType": "address",
          "name": "to",
          "type": "address"
        },
        {
          "internalType": "uint256",
          "name": "tokenId",
          "type": "uint256"
        }
      ],
      "name": "transferFrom",
      "outputs": [],
      "stateMutability": "nonpayable",
      "type": "function"
    },
    {
      "inputs": [
        {
          "internalType": "address",
          "name": "newOwner",
          "type": "address"
        }
      ],
      "name": "transferOwnership",
      "outputs": [],
      "stateMutability": "nonpayable",
      "type": "function"
    },
    {
      "inputs": [],
      "name": "withdraw",
      "outputs": [],
      "stateMutability": "nonpayable",
      "type": "function"
    }
  ],
  "bytecode": "0x60806040526040518060600160405280603681526020016200523a60369139600f90816200002e919062000622565b503480156200003c57600080fd5b50604051620052703803806200527083398181016040528101906200006291906200073f565b6040518060400160405280600d81526020017f46697368696e67526f644e4654000000000000000000000000000000000000008152506040518060400160405280600381526020017f46524e0000000000000000000000000000000000000000000000000000000000815250620000ee620000e26200016960201b60201c565b6200017160201b60201c565b8160019081620000ff919062000622565b50806002908162000111919062000622565b50505080601081905550620001306000801b336200023560201b60201c565b620001627fa49807205ce4d355092ef5a8a18f56e8913cf4a201fbe287825b095693c21775336200023560201b60201c565b5062000771565b600033905090565b60008060009054906101000a900473ffffffffffffffffffffffffffffffffffffffff169050816000806101000a81548173ffffffffffffffffffffffffffffffffffffffff021916908373ffffffffffffffffffffffffffffffffffffffff1602179055508173ffffffffffffffffffffffffffffffffffffffff168173ffffffffffffffffffffffffffffffffffffffff167f8be0079c531659141344cd1fd0a4f28419497f9722a3daafe3b4186f6b6457e060405160405180910390a35050565b6200024782826200024b60201b60201c565b5050565b6200025d82826200033d60201b60201c565b620003395760016006600084815260200190815260200160002060000160008373ffffffffffffffffffffffffffffffffffffffff1673ffffffffffffffffffffffffffffffffffffffff16815260200190815260200160002060006101000a81548160ff021916908315150217905550620002de6200016960201b60201c565b73ffffffffffffffffffffffffffffffffffffffff168173ffffffffffffffffffffffffffffffffffffffff16837f2f8788117e7eff1d82e926ec794901d17c78024a50270940304540a733656f0d60405160405180910390a45b5050565b60006006600084815260200190815260200160002060000160008373ffffffffffffffffffffffffffffffffffffffff1673ffffffffffffffffffffffffffffffffffffffff16815260200190815260200160002060009054906101000a900460ff16905092915050565b600081519050919050565b7f4e487b7100000000000000000000000000000000000000000000000000000000600052604160045260246000fd5b7f4e487b7100000000000000000000000000000000000000000000000000000000600052602260045260246000fd5b600060028204905060018216806200042a57607f821691505b60208210810362000440576200043f620003e2565b5b50919050565b60008190508160005260206000209050919050565b60006020601f8301049050919050565b600082821b905092915050565b600060088302620004aa7fffffffffffffffffffffffffffffffffffffffffffffffffffffffffffffffff826200046b565b620004b686836200046b565b95508019841693508086168417925050509392505050565b6000819050919050565b6000819050919050565b600062000503620004fd620004f784620004ce565b620004d8565b620004ce565b9050919050565b6000819050919050565b6200051f83620004e2565b620005376200052e826200050a565b84845462000478565b825550505050565b600090565b6200054e6200053f565b6200055b81848462000514565b505050565b5b8181101562000583576200057760008262000544565b60018101905062000561565b5050565b601f821115620005d2576200059c8162000446565b620005a7846200045b565b81016020851015620005b7578190505b620005cf620005c6856200045b565b83018262000560565b50505b505050565b600082821c905092915050565b6000620005f760001984600802620005d7565b1980831691505092915050565b6000620006128383620005e4565b9150826002028217905092915050565b6200062d82620003a8565b67ffffffffffffffff811115620006495762000648620003b3565b5b62000655825462000411565b6200066282828562000587565b600060209050601f8311600181146200069a576000841562000685578287015190505b62000691858262000604565b86555062000701565b601f198416620006aa8662000446565b60005b82811015620006d457848901518255600182019150602085019450602081019050620006ad565b86831015620006f45784890151620006f0601f891682620005e4565b8355505b6001600288020188555050505b505050505050565b600080fd5b6200071981620004ce565b81146200072557600080fd5b50565b60008151905062000739816200070e565b92915050565b60006020828403121562000758576200075762000709565b5b6000620007688482850162000728565b91505092915050565b614ab980620007816000396000f3fe6080604052600436106101ee5760003560e01c80636817c76c1161010d57806395d89b41116100a0578063d547741f1161006f578063d547741f14610740578063de74e57b14610769578063e7fb74c7146107a7578063f2fde38b146107c3578063f4a0a528146107ec576101ee565b806395d89b4114610670578063a217fddf1461069b578063a94f2cac146106c6578063c87b56dd14610703576101ee565b806375b238fc116100dc57806375b238fc146105b4578063883efa67146105df5780638da5cb5b1461060857806391d1485414610633576101ee565b80636817c76c1461051657806368f9dee31461054157806370a0823114610560578063715018a61461059d576101ee565b80632f745c591161018557806337543e231161015457806337543e23146104475780633ccfd60b146104855780634f6ccce71461049c5780636352211e146104d9576101ee565b80632f745c591461038f57806330176e13146103cc578063305a67a8146103f557806336568abe1461041e576101ee565b806318160ddd116101c157806318160ddd146102d557806323b872dd14610300578063248a9ca3146103295780632f2ff15d14610366576101ee565b806301ffc9a7146101f357806306fdde0314610230578063150b7a021461025b57806318148f1b14610298575b600080fd5b3480156101ff57600080fd5b5061021a600480360381019061021591906130b7565b610815565b60405161022791906130ff565b60405180910390f35b34801561023c57600080fd5b506102456108f7565b60405161025291906131aa565b60405180910390f35b34801561026757600080fd5b50610282600480360381019061027d9190613395565b610989565b60405161028f9190613427565b60405180910390f35b3480156102a457600080fd5b506102bf60048036038101906102ba9190613442565b61099d565b6040516102cc919061355c565b60405180910390f35b3480156102e157600080fd5b506102ea610bce565b6040516102f7919061358d565b60405180910390f35b34801561030c57600080fd5b50610327600480360381019061032291906135a8565b610bdb565b005b34801561033557600080fd5b50610350600480360381019061034b9190613631565b610c54565b60405161035d919061366d565b60405180910390f35b34801561037257600080fd5b5061038d60048036038101906103889190613688565b610c74565b005b34801561039b57600080fd5b506103b660048036038101906103b191906136c8565b610c95565b6040516103c3919061358d565b60405180910390f35b3480156103d857600080fd5b506103f360048036038101906103ee91906137a9565b610d3a565b005b34801561040157600080fd5b5061041c600480360381019061041791906137f2565b610db6565b005b34801561042a57600080fd5b5061044560048036038101906104409190613688565b610efe565b005b34801561045357600080fd5b5061046e60048036038101906104699190613442565b610f81565b60405161047c92919061381f565b60405180910390f35b34801561049157600080fd5b5061049a61109c565b005b3480156104a857600080fd5b506104c360048036038101906104be91906137f2565b6110fa565b6040516104d0919061358d565b60405180910390f35b3480156104e557600080fd5b5061050060048036038101906104fb91906137f2565b61116b565b60405161050d9190613857565b60405180910390f35b34801561052257600080fd5b5061052b6111f1565b604051610538919061358d565b60405180910390f35b6105496111f7565b60405161055792919061381f565b60405180910390f35b34801561056c57600080fd5b5061058760048036038101906105829190613442565b611430565b604051610594919061358d565b60405180910390f35b3480156105a957600080fd5b506105b26114e7565b005b3480156105c057600080fd5b506105c96114fb565b6040516105d6919061366d565b60405180910390f35b3480156105eb57600080fd5b5061060660048036038101906106019190613872565b61151f565b005b34801561061457600080fd5b5061061d6116c8565b60405161062a9190613857565b60405180910390f35b34801561063f57600080fd5b5061065a60048036038101906106559190613688565b6116f1565b60405161066791906130ff565b60405180910390f35b34801561067c57600080fd5b5061068561175c565b60405161069291906131aa565b60405180910390f35b3480156106a757600080fd5b506106b06117ee565b6040516106bd919061366d565b60405180910390f35b3480156106d257600080fd5b506106ed60048036038101906106e891906137f2565b6117f5565b6040516106fa919061358d565b60405180910390f35b34801561070f57600080fd5b5061072a600480360381019061072591906137f2565b611812565b60405161073791906131aa565b60405180910390f35b34801561074c57600080fd5b5061076760048036038101906107629190613688565b6118a7565b005b34801561077557600080fd5b50610790600480360381019061078b91906137f2565b6118c8565b60405161079e9291906138b2565b60405180910390f35b6107c160048036038101906107bc91906137f2565b61190c565b005b3480156107cf57600080fd5b506107ea60048036038101906107e59190613442565b611b0d565b005b3480156107f857600080fd5b50610813600480360381019061080e91906137f2565b611b90565b005b60007f304ad1f2000000000000000000000000000000000000000000000000000000007bffffffffffffffffffffffffffffffffffffffffffffffffffffffff1916827bffffffffffffffffffffffffffffffffffffffffffffffffffffffff191614806108e057507f5b5e139f000000000000000000000000000000000000000000000000000000007bffffffffffffffffffffffffffffffffffffffffffffffffffffffff1916827bffffffffffffffffffffffffffffffffffffffffffffffffffffffff1916145b806108f057506108ef82611c03565b5b9050919050565b6060600780546109069061390a565b80601f01602080910402602001604051908101604052809291908181526020018280546109329061390a565b801561097f5780601f106109545761010080835404028352916020019161097f565b820191906000526020600020905b81548152906001019060200180831161096257829003601f168201915b5050505050905090565b600063150b7a0260e01b9050949350505050565b606060006109aa83611430565b905060008167ffffffffffffffff8111156109c8576109c761326a565b5b6040519080825280602002602001820160405280156109f65781602001602082028036833780820191505090505b50905060008267ffffffffffffffff811115610a1557610a1461326a565b5b604051908082528060200260200182016040528015610a435781602001602082028036833780820191505090505b50905060005b83811015610a8757610a5b8682610c95565b838281518110610a6e57610a6d61393b565b5b6020026020010181815250508080600101915050610a49565b5060005b8251811015610ae357610ab7838281518110610aaa57610aa961393b565b5b60200260200101516117f5565b828281518110610aca57610ac961393b565b5b6020026020010181815250508080600101915050610a8b565b5060008367ffffffffffffffff811115610b0057610aff61326a565b5b604051908082528060200260200182016040528015610b3957816020015b610b26613031565b815260200190600190039081610b1e5790505b50905060005b84811015610bc15760006040518060400160405280868481518110610b6757610b6661393b565b5b60200260200101518152602001858481518110610b8757610b8661393b565b5b6020026020010151815250905080838381518110610ba857610ba761393b565b5b6020026020010181905250508080600101915050610b3f565b5080945050505050919050565b6000600c80549050905090565b610c057fa49807205ce4d355092ef5a8a18f56e8913cf4a201fbe287825b095693c21775336116f1565b610c44576040517f08c379a0000000000000000000000000000000000000000000000000000000008152600401610c3b906139b6565b60405180910390fd5b610c4f838383611c7d565b505050565b600060066000838152602001908152602001600020600101549050919050565b610c7d82610c54565b610c8681611f76565b610c908383611f8a565b505050565b6000610ca083611430565b8210610ce1576040517f08c379a0000000000000000000000000000000000000000000000000000000008152600401610cd890613a48565b60405180910390fd5b600a60008473ffffffffffffffffffffffffffffffffffffffff1673ffffffffffffffffffffffffffffffffffffffff168152602001908152602001600020600083815260200190815260200160002054905092915050565b610d647fa49807205ce4d355092ef5a8a18f56e8913cf4a201fbe287825b095693c21775336116f1565b610da3576040517f08c379a0000000000000000000000000000000000000000000000000000000008152600401610d9a906139b6565b60405180910390fd5b80600f9081610db29190613c14565b5050565b6000601160008381526020019081526020016000206040518060400160405290816000820160009054906101000a900473ffffffffffffffffffffffffffffffffffffffff1673ffffffffffffffffffffffffffffffffffffffff1673ffffffffffffffffffffffffffffffffffffffff16815260200160018201548152505090503373ffffffffffffffffffffffffffffffffffffffff16816000015173ffffffffffffffffffffffffffffffffffffffff1614610eaa576040517f08c379a0000000000000000000000000000000000000000000000000000000008152600401610ea190613d32565b60405180910390fd5b60116000838152602001908152602001600020600080820160006101000a81549073ffffffffffffffffffffffffffffffffffffffff021916905560018201600090555050610efa30338461206b565b5050565b610f0661207b565b73ffffffffffffffffffffffffffffffffffffffff168173ffffffffffffffffffffffffffffffffffffffff1614610f73576040517f08c379a0000000000000000000000000000000000000000000000000000000008152600401610f6a90613dc4565b60405180910390fd5b610f7d8282612083565b5050565b600080610fae7fa49807205ce4d355092ef5a8a18f56e8913cf4a201fbe287825b095693c21775336116f1565b610fed576040517f08c379a0000000000000000000000000000000000000000000000000000000008152600401610fe4906139b6565b60405180910390fd5b600080610ffa6009612165565b90506110066009612173565b8160136000838152602001908152602001600020819055506110288582612189565b81600e600083815260200190815260200160002081905550808573ffffffffffffffffffffffffffffffffffffffff167f68bb481fd1bcc350565b491e9f7d8ccda7f7f5213c88de5e9954bdb49fd357f584604051611087919061358d565b60405180910390a38082935093505050915091565b6110a46123a6565b60004790506110b16116c8565b73ffffffffffffffffffffffffffffffffffffffff166108fc829081150290604051600060405180830381858888f193505050501580156110f6573d6000803e3d6000fd5b5050565b6000611104610bce565b8210611145576040517f08c379a000000000000000000000000000000000000000000000000000000000815260040161113c90613e56565b60405180910390fd5b600c82815481106111595761115861393b565b5b90600052602060002001549050919050565b60008061117783612424565b9050600073ffffffffffffffffffffffffffffffffffffffff168173ffffffffffffffffffffffffffffffffffffffff16036111e8576040517f08c379a00000000000000000000000000000000000000000000000000000000081526004016111df90613ec2565b60405180910390fd5b80915050919050565b60105481565b60008060105434101561123f576040517f08c379a000000000000000000000000000000000000000000000000000000000815260040161123690613f2e565b60405180910390fd5b60006040518060c00160405280604360ff168152602001600c60ff168152602001600860ff168152602001600660ff168152602001600460ff168152602001600360ff1681525090506000606490506000814244336040516020016112a693929190613fb7565b6040516020818303038152906040528051906020012060001c6112c99190614023565b905060008060005b600681101561131f578581600681106112ed576112ec61393b565b5b602002015160ff16826113009190614083565b9150818410156113125780925061131f565b80806001019150506112d1565b50600061132c6009612165565b90506113386009612173565b82601360008381526020019081526020016000208190555061135a3382612189565b82600e600083815260200190815260200160002081905550803373ffffffffffffffffffffffffffffffffffffffff167f68bb481fd1bcc350565b491e9f7d8ccda7f7f5213c88de5e9954bdb49fd357f5856040516113b9919061358d565b60405180910390a3601054341115611420573373ffffffffffffffffffffffffffffffffffffffff166108fc601054346113f391906140b7565b9081150290604051600060405180830381858888f1935050505015801561141e573d6000803e3d6000fd5b505b8083975097505050505050509091565b60008073ffffffffffffffffffffffffffffffffffffffff168273ffffffffffffffffffffffffffffffffffffffff16036114a0576040517f08c379a00000000000000000000000000000000000000000000000000000000081526004016114979061415d565b60405180910390fd5b600460008373ffffffffffffffffffffffffffffffffffffffff1673ffffffffffffffffffffffffffffffffffffffff168152602001908152602001600020549050919050565b6114ef6123a6565b6114f96000612461565b565b7fa49807205ce4d355092ef5a8a18f56e8913cf4a201fbe287825b095693c2177581565b60008111611562576040517f08c379a0000000000000000000000000000000000000000000000000000000008152600401611559906141c9565b60405180910390fd5b3373ffffffffffffffffffffffffffffffffffffffff166115828361116b565b73ffffffffffffffffffffffffffffffffffffffff16146115d8576040517f08c379a00000000000000000000000000000000000000000000000000000000081526004016115cf9061425b565b60405180910390fd5b6115e333308461206b565b60405180604001604052803373ffffffffffffffffffffffffffffffffffffffff168152602001828152506011600084815260200190815260200160002060008201518160000160006101000a81548173ffffffffffffffffffffffffffffffffffffffff021916908373ffffffffffffffffffffffffffffffffffffffff160217905550602082015181600101559050503373ffffffffffffffffffffffffffffffffffffffff16827fc93edc6ee14cd6c0c2842099adfa8953b237dbdad304ba28e96dce8a7f2a828c836040516116bc919061358d565b60405180910390a35050565b60008060009054906101000a900473ffffffffffffffffffffffffffffffffffffffff16905090565b60006006600084815260200190815260200160002060000160008373ffffffffffffffffffffffffffffffffffffffff1673ffffffffffffffffffffffffffffffffffffffff16815260200190815260200160002060009054906101000a900460ff16905092915050565b60606008805461176b9061390a565b80601f01602080910402602001604051908101604052809291908181526020018280546117979061390a565b80156117e45780601f106117b9576101008083540402835291602001916117e4565b820191906000526020600020905b8154815290600101906020018083116117c757829003601f168201915b5050505050905090565b6000801b81565b6000600e6000838152602001908152602001600020549050919050565b606061181d82612525565b61185c576040517f08c379a0000000000000000000000000000000000000000000000000000000008152600401611853906142ed565b60405180910390fd5b600060136000848152602001908152602001600020549050600f61187f82612566565b604051602001611890929190614418565b604051602081830303815290604052915050919050565b6118b082610c54565b6118b981611f76565b6118c38383612083565b505050565b60116020528060005260406000206000915090508060000160009054906101000a900473ffffffffffffffffffffffffffffffffffffffff16908060010154905082565b6000601160008381526020019081526020016000206040518060400160405290816000820160009054906101000a900473ffffffffffffffffffffffffffffffffffffffff1673ffffffffffffffffffffffffffffffffffffffff1673ffffffffffffffffffffffffffffffffffffffff168152602001600182015481525050905060008160200151116119d5576040517f08c379a00000000000000000000000000000000000000000000000000000000081526004016119cc90614493565b60405180910390fd5b80602001513414611a1b576040517f08c379a0000000000000000000000000000000000000000000000000000000008152600401611a12906144ff565b60405180910390fd5b60116000838152602001908152602001600020600080820160006101000a81549073ffffffffffffffffffffffffffffffffffffffff021916905560018201600090555050611a6b30338461206b565b806000015173ffffffffffffffffffffffffffffffffffffffff166108fc349081150290604051600060405180830381858888f19350505050158015611ab5573d6000803e3d6000fd5b503373ffffffffffffffffffffffffffffffffffffffff16827fa574c741071bb18f51fa88c17aeefec514bebf670ca22a3736fba6504ecbb7638360200151604051611b01919061358d565b60405180910390a35050565b611b156123a6565b600073ffffffffffffffffffffffffffffffffffffffff168173ffffffffffffffffffffffffffffffffffffffff1603611b84576040517f08c379a0000000000000000000000000000000000000000000000000000000008152600401611b7b90614591565b60405180910390fd5b611b8d81612461565b50565b611bba7fa49807205ce4d355092ef5a8a18f56e8913cf4a201fbe287825b095693c21775336116f1565b611bf9576040517f08c379a0000000000000000000000000000000000000000000000000000000008152600401611bf0906139b6565b60405180910390fd5b8060108190555050565b60007f7965db0b000000000000000000000000000000000000000000000000000000007bffffffffffffffffffffffffffffffffffffffffffffffffffffffff1916827bffffffffffffffffffffffffffffffffffffffffffffffffffffffff19161480611c765750611c7582612634565b5b9050919050565b8273ffffffffffffffffffffffffffffffffffffffff16611c9d8261116b565b73ffffffffffffffffffffffffffffffffffffffff1614611cf3576040517f08c379a0000000000000000000000000000000000000000000000000000000008152600401611cea90614623565b60405180910390fd5b600073ffffffffffffffffffffffffffffffffffffffff168273ffffffffffffffffffffffffffffffffffffffff1603611d62576040517f08c379a0000000000000000000000000000000000000000000000000000000008152600401611d59906146b5565b60405180910390fd5b611d6f8383836001612716565b8273ffffffffffffffffffffffffffffffffffffffff16611d8f8261116b565b73ffffffffffffffffffffffffffffffffffffffff1614611de5576040517f08c379a0000000000000000000000000000000000000000000000000000000008152600401611ddc90614623565b60405180910390fd5b6005600082815260200190815260200160002060006101000a81549073ffffffffffffffffffffffffffffffffffffffff02191690556001600460008573ffffffffffffffffffffffffffffffffffffffff1673ffffffffffffffffffffffffffffffffffffffff168152602001908152602001600020600082825403925050819055506001600460008473ffffffffffffffffffffffffffffffffffffffff1673ffffffffffffffffffffffffffffffffffffffff16815260200190815260200160002060008282540192505081905550816003600083815260200190815260200160002060006101000a81548173ffffffffffffffffffffffffffffffffffffffff021916908373ffffffffffffffffffffffffffffffffffffffff160217905550808273ffffffffffffffffffffffffffffffffffffffff168473ffffffffffffffffffffffffffffffffffffffff167fddf252ad1be2c89b69c2b068fc378daa952ba7f163c4a11628f55a4df523b3ef60405160405180910390a4611f718383836001612874565b505050565b611f8781611f8261207b565b61287a565b50565b611f9482826116f1565b6120675760016006600084815260200190815260200160002060000160008373ffffffffffffffffffffffffffffffffffffffff1673ffffffffffffffffffffffffffffffffffffffff16815260200190815260200160002060006101000a81548160ff02191690831515021790555061200c61207b565b73ffffffffffffffffffffffffffffffffffffffff168173ffffffffffffffffffffffffffffffffffffffff16837f2f8788117e7eff1d82e926ec794901d17c78024a50270940304540a733656f0d60405160405180910390a45b5050565b612076838383611c7d565b505050565b600033905090565b61208d82826116f1565b156121615760006006600084815260200190815260200160002060000160008373ffffffffffffffffffffffffffffffffffffffff1673ffffffffffffffffffffffffffffffffffffffff16815260200190815260200160002060006101000a81548160ff02191690831515021790555061210661207b565b73ffffffffffffffffffffffffffffffffffffffff168173ffffffffffffffffffffffffffffffffffffffff16837ff6391f5c32d9c69d2a47ea670b442974b53935d1edc7fd64eb21e047a839171b60405160405180910390a45b5050565b600081600001549050919050565b6001816000016000828254019250508190555050565b600073ffffffffffffffffffffffffffffffffffffffff168273ffffffffffffffffffffffffffffffffffffffff16036121f8576040517f08c379a00000000000000000000000000000000000000000000000000000000081526004016121ef90614721565b60405180910390fd5b61220181612525565b15612241576040517f08c379a00000000000000000000000000000000000000000000000000000000081526004016122389061478d565b60405180910390fd5b61224f600083836001612716565b61225881612525565b15612298576040517f08c379a000000000000000000000000000000000000000000000000000000000815260040161228f9061478d565b60405180910390fd5b6001600460008473ffffffffffffffffffffffffffffffffffffffff1673ffffffffffffffffffffffffffffffffffffffff16815260200190815260200160002060008282540192505081905550816003600083815260200190815260200160002060006101000a81548173ffffffffffffffffffffffffffffffffffffffff021916908373ffffffffffffffffffffffffffffffffffffffff160217905550808273ffffffffffffffffffffffffffffffffffffffff16600073ffffffffffffffffffffffffffffffffffffffff167fddf252ad1be2c89b69c2b068fc378daa952ba7f163c4a11628f55a4df523b3ef60405160405180910390a46123a2600083836001612874565b5050565b6123ae61207b565b73ffffffffffffffffffffffffffffffffffffffff166123cc6116c8565b73ffffffffffffffffffffffffffffffffffffffff1614612422576040517f08c379a0000000000000000000000000000000000000000000000000000000008152600401612419906147f9565b60405180910390fd5b565b60006003600083815260200190815260200160002060009054906101000a900473ffffffffffffffffffffffffffffffffffffffff169050919050565b60008060009054906101000a900473ffffffffffffffffffffffffffffffffffffffff169050816000806101000a81548173ffffffffffffffffffffffffffffffffffffffff021916908373ffffffffffffffffffffffffffffffffffffffff1602179055508173ffffffffffffffffffffffffffffffffffffffff168173ffffffffffffffffffffffffffffffffffffffff167f8be0079c531659141344cd1fd0a4f28419497f9722a3daafe3b4186f6b6457e060405160405180910390a35050565b60008073ffffffffffffffffffffffffffffffffffffffff1661254783612424565b73ffffffffffffffffffffffffffffffffffffffff1614159050919050565b606060006001612575846128ff565b01905060008167ffffffffffffffff8111156125945761259361326a565b5b6040519080825280601f01601f1916602001820160405280156125c65781602001600182028036833780820191505090505b509050600082602001820190505b600115612629578080600190039150507f3031323334353637383961626364656600000000000000000000000000000000600a86061a8153600a858161261d5761261c613ff4565b5b049450600085036125d4575b819350505050919050565b60007f304ad1f2000000000000000000000000000000000000000000000000000000007bffffffffffffffffffffffffffffffffffffffffffffffffffffffff1916827bffffffffffffffffffffffffffffffffffffffffffffffffffffffff191614806126ff57507f5b5e139f000000000000000000000000000000000000000000000000000000007bffffffffffffffffffffffffffffffffffffffffffffffffffffffff1916827bffffffffffffffffffffffffffffffffffffffffffffffffffffffff1916145b8061270f575061270e82612a52565b5b9050919050565b61272284848484612abc565b6001811115612766576040517f08c379a000000000000000000000000000000000000000000000000000000000815260040161275d9061488b565b60405180910390fd5b6000829050600073ffffffffffffffffffffffffffffffffffffffff168573ffffffffffffffffffffffffffffffffffffffff16036127ad576127a881612ac2565b6127ec565b8373ffffffffffffffffffffffffffffffffffffffff168573ffffffffffffffffffffffffffffffffffffffff16146127eb576127ea8582612b0b565b5b5b600073ffffffffffffffffffffffffffffffffffffffff168473ffffffffffffffffffffffffffffffffffffffff160361282e5761282981612c78565b61286d565b8473ffffffffffffffffffffffffffffffffffffffff168473ffffffffffffffffffffffffffffffffffffffff161461286c5761286b8482612d49565b5b5b5050505050565b50505050565b61288482826116f1565b6128fb5761289181612dc8565b61289f8360001c6020612df5565b6040516020016128b0929190614943565b6040516020818303038152906040526040517f08c379a00000000000000000000000000000000000000000000000000000000081526004016128f291906131aa565b60405180910390fd5b5050565b600080600090507a184f03e93ff9f4daa797ed6e38ed64bf6a1f010000000000000000831061295d577a184f03e93ff9f4daa797ed6e38ed64bf6a1f010000000000000000838161295357612952613ff4565b5b0492506040810190505b6d04ee2d6d415b85acef8100000000831061299a576d04ee2d6d415b85acef810000000083816129905761298f613ff4565b5b0492506020810190505b662386f26fc1000083106129c957662386f26fc1000083816129bf576129be613ff4565b5b0492506010810190505b6305f5e10083106129f2576305f5e10083816129e8576129e7613ff4565b5b0492506008810190505b6127108310612a17576127108381612a0d57612a0c613ff4565b5b0492506004810190505b60648310612a3a5760648381612a3057612a2f613ff4565b5b0492506002810190505b600a8310612a49576001810190505b80915050919050565b60007f01ffc9a7000000000000000000000000000000000000000000000000000000007bffffffffffffffffffffffffffffffffffffffffffffffffffffffff1916827bffffffffffffffffffffffffffffffffffffffffffffffffffffffff1916149050919050565b50505050565b600c80549050600d600083815260200190815260200160002081905550600c81908060018154018082558091505060019003906000526020600020016000909190919091505550565b60006001612b1884611430565b612b2291906140b7565b90506000600b6000848152602001908152602001600020549050818114612c07576000600a60008673ffffffffffffffffffffffffffffffffffffffff1673ffffffffffffffffffffffffffffffffffffffff168152602001908152602001600020600084815260200190815260200160002054905080600a60008773ffffffffffffffffffffffffffffffffffffffff1673ffffffffffffffffffffffffffffffffffffffff16815260200190815260200160002060008481526020019081526020016000208190555081600b600083815260200190815260200160002081905550505b600b600084815260200190815260200160002060009055600a60008573ffffffffffffffffffffffffffffffffffffffff1673ffffffffffffffffffffffffffffffffffffffff16815260200190815260200160002060008381526020019081526020016000206000905550505050565b60006001600c80549050612c8c91906140b7565b90506000600d60008481526020019081526020016000205490506000600c8381548110612cbc57612cbb61393b565b5b9060005260206000200154905080600c8381548110612cde57612cdd61393b565b5b906000526020600020018190555081600d600083815260200190815260200160002081905550600d600085815260200190815260200160002060009055600c805480612d2d57612d2c61497d565b5b6001900381819060005260206000200160009055905550505050565b6000612d5483611430565b905081600a60008573ffffffffffffffffffffffffffffffffffffffff1673ffffffffffffffffffffffffffffffffffffffff16815260200190815260200160002060008381526020019081526020016000208190555080600b600084815260200190815260200160002081905550505050565b6060612dee8273ffffffffffffffffffffffffffffffffffffffff16601460ff16612df5565b9050919050565b606060006002836002612e0891906149ac565b612e129190614083565b67ffffffffffffffff811115612e2b57612e2a61326a565b5b6040519080825280601f01601f191660200182016040528015612e5d5781602001600182028036833780820191505090505b5090507f300000000000000000000000000000000000000000000000000000000000000081600081518110612e9557612e9461393b565b5b60200101907effffffffffffffffffffffffffffffffffffffffffffffffffffffffffffff1916908160001a9053507f780000000000000000000000000000000000000000000000000000000000000081600181518110612ef957612ef861393b565b5b60200101907effffffffffffffffffffffffffffffffffffffffffffffffffffffffffffff1916908160001a90535060006001846002612f3991906149ac565b612f439190614083565b90505b6001811115612fe3577f3031323334353637383961626364656600000000000000000000000000000000600f861660108110612f8557612f8461393b565b5b1a60f81b828281518110612f9c57612f9b61393b565b5b60200101907effffffffffffffffffffffffffffffffffffffffffffffffffffffffffffff1916908160001a905350600485901c945080612fdc906149ee565b9050612f46565b5060008414613027576040517f08c379a000000000000000000000000000000000000000000000000000000000815260040161301e90614a63565b60405180910390fd5b8091505092915050565b604051806040016040528060008152602001600081525090565b6000604051905090565b600080fd5b600080fd5b60007fffffffff0000000000000000000000000000000000000000000000000000000082169050919050565b6130948161305f565b811461309f57600080fd5b50565b6000813590506130b18161308b565b92915050565b6000602082840312156130cd576130cc613055565b5b60006130db848285016130a2565b91505092915050565b60008115159050919050565b6130f9816130e4565b82525050565b600060208201905061311460008301846130f0565b92915050565b600081519050919050565b600082825260208201905092915050565b60005b83811015613154578082015181840152602081019050613139565b60008484015250505050565b6000601f19601f8301169050919050565b600061317c8261311a565b6131868185613125565b9350613196818560208601613136565b61319f81613160565b840191505092915050565b600060208201905081810360008301526131c48184613171565b905092915050565b600073ffffffffffffffffffffffffffffffffffffffff82169050919050565b60006131f7826131cc565b9050919050565b613207816131ec565b811461321257600080fd5b50565b600081359050613224816131fe565b92915050565b6000819050919050565b61323d8161322a565b811461324857600080fd5b50565b60008135905061325a81613234565b92915050565b600080fd5b600080fd5b7f4e487b7100000000000000000000000000000000000000000000000000000000600052604160045260246000fd5b6132a282613160565b810181811067ffffffffffffffff821117156132c1576132c061326a565b5b80604052505050565b60006132d461304b565b90506132e08282613299565b919050565b600067ffffffffffffffff821115613300576132ff61326a565b5b61330982613160565b9050602081019050919050565b82818337600083830152505050565b6000613338613333846132e5565b6132ca565b90508281526020810184848401111561335457613353613265565b5b61335f848285613316565b509392505050565b600082601f83011261337c5761337b613260565b5b813561338c848260208601613325565b91505092915050565b600080600080608085870312156133af576133ae613055565b5b60006133bd87828801613215565b94505060206133ce87828801613215565b93505060406133df8782880161324b565b925050606085013567ffffffffffffffff811115613400576133ff61305a565b5b61340c87828801613367565b91505092959194509250565b6134218161305f565b82525050565b600060208201905061343c6000830184613418565b92915050565b60006020828403121561345857613457613055565b5b600061346684828501613215565b91505092915050565b600081519050919050565b600082825260208201905092915050565b6000819050602082019050919050565b6134a48161322a565b82525050565b6040820160008201516134c0600085018261349b565b5060208201516134d3602085018261349b565b50505050565b60006134e583836134aa565b60408301905092915050565b6000602082019050919050565b60006135098261346f565b613513818561347a565b935061351e8361348b565b8060005b8381101561354f57815161353688826134d9565b9750613541836134f1565b925050600181019050613522565b5085935050505092915050565b6000602082019050818103600083015261357681846134fe565b905092915050565b6135878161322a565b82525050565b60006020820190506135a2600083018461357e565b92915050565b6000806000606084860312156135c1576135c0613055565b5b60006135cf86828701613215565b93505060206135e086828701613215565b92505060406135f18682870161324b565b9150509250925092565b6000819050919050565b61360e816135fb565b811461361957600080fd5b50565b60008135905061362b81613605565b92915050565b60006020828403121561364757613646613055565b5b60006136558482850161361c565b91505092915050565b613667816135fb565b82525050565b6000602082019050613682600083018461365e565b92915050565b6000806040838503121561369f5761369e613055565b5b60006136ad8582860161361c565b92505060206136be85828601613215565b9150509250929050565b600080604083850312156136df576136de613055565b5b60006136ed85828601613215565b92505060206136fe8582860161324b565b9150509250929050565b600067ffffffffffffffff8211156137235761372261326a565b5b61372c82613160565b9050602081019050919050565b600061374c61374784613708565b6132ca565b90508281526020810184848401111561376857613767613265565b5b613773848285613316565b509392505050565b600082601f8301126137905761378f613260565b5b81356137a0848260208601613739565b91505092915050565b6000602082840312156137bf576137be613055565b5b600082013567ffffffffffffffff8111156137dd576137dc61305a565b5b6137e98482850161377b565b91505092915050565b60006020828403121561380857613807613055565b5b60006138168482850161324b565b91505092915050565b6000604082019050613834600083018561357e565b613841602083018461357e565b9392505050565b613851816131ec565b82525050565b600060208201905061386c6000830184613848565b92915050565b6000806040838503121561388957613888613055565b5b60006138978582860161324b565b92505060206138a88582860161324b565b9150509250929050565b60006040820190506138c76000830185613848565b6138d4602083018461357e565b9392505050565b7f4e487b7100000000000000000000000000000000000000000000000000000000600052602260045260246000fd5b6000600282049050600182168061392257607f821691505b602082108103613935576139346138db565b5b50919050565b7f4e487b7100000000000000000000000000000000000000000000000000000000600052603260045260246000fd5b7f43616c6c6572206973206e6f7420616e2061646d696e00000000000000000000600082015250565b60006139a0601683613125565b91506139ab8261396a565b602082019050919050565b600060208201905081810360008301526139cf81613993565b9050919050565b7f455243373231456e756d657261626c653a206f776e657220696e646578206f7560008201527f74206f6620626f756e6473000000000000000000000000000000000000000000602082015250565b6000613a32602b83613125565b9150613a3d826139d6565b604082019050919050565b60006020820190508181036000830152613a6181613a25565b9050919050565b60008190508160005260206000209050919050565b60006020601f8301049050919050565b600082821b905092915050565b600060088302613aca7fffffffffffffffffffffffffffffffffffffffffffffffffffffffffffffffff82613a8d565b613ad48683613a8d565b95508019841693508086168417925050509392505050565b6000819050919050565b6000613b11613b0c613b078461322a565b613aec565b61322a565b9050919050565b6000819050919050565b613b2b83613af6565b613b3f613b3782613b18565b848454613a9a565b825550505050565b600090565b613b54613b47565b613b5f818484613b22565b505050565b5b81811015613b8357613b78600082613b4c565b600181019050613b65565b5050565b601f821115613bc857613b9981613a68565b613ba284613a7d565b81016020851015613bb1578190505b613bc5613bbd85613a7d565b830182613b64565b50505b505050565b600082821c905092915050565b6000613beb60001984600802613bcd565b1980831691505092915050565b6000613c048383613bda565b9150826002028217905092915050565b613c1d8261311a565b67ffffffffffffffff811115613c3657613c3561326a565b5b613c40825461390a565b613c4b828285613b87565b600060209050601f831160018114613c7e5760008415613c6c578287015190505b613c768582613bf8565b865550613cde565b601f198416613c8c86613a68565b60005b82811015613cb457848901518255600182019150602085019450602081019050613c8f565b86831015613cd15784890151613ccd601f891682613bda565b8355505b6001600288020188555050505b505050505050565b7f596f7520617265206e6f74207468652073656c6c657200000000000000000000600082015250565b6000613d1c601683613125565b9150613d2782613ce6565b602082019050919050565b60006020820190508181036000830152613d4b81613d0f565b9050919050565b7f416363657373436f6e74726f6c3a2063616e206f6e6c792072656e6f756e636560008201527f20726f6c657320666f722073656c660000000000000000000000000000000000602082015250565b6000613dae602f83613125565b9150613db982613d52565b604082019050919050565b60006020820190508181036000830152613ddd81613da1565b9050919050565b7f455243373231456e756d657261626c653a20676c6f62616c20696e646578206f60008201527f7574206f6620626f756e64730000000000000000000000000000000000000000602082015250565b6000613e40602c83613125565b9150613e4b82613de4565b604082019050919050565b60006020820190508181036000830152613e6f81613e33565b9050919050565b7f4552433732313a20696e76616c696420746f6b656e2049440000000000000000600082015250565b6000613eac601883613125565b9150613eb782613e76565b602082019050919050565b60006020820190508181036000830152613edb81613e9f565b9050919050565b7f496e73756666696369656e74207061796d656e74000000000000000000000000600082015250565b6000613f18601483613125565b9150613f2382613ee2565b602082019050919050565b60006020820190508181036000830152613f4781613f0b565b9050919050565b6000819050919050565b613f69613f648261322a565b613f4e565b82525050565b60008160601b9050919050565b6000613f8782613f6f565b9050919050565b6000613f9982613f7c565b9050919050565b613fb1613fac826131ec565b613f8e565b82525050565b6000613fc38286613f58565b602082019150613fd38285613f58565b602082019150613fe38284613fa0565b601482019150819050949350505050565b7f4e487b7100000000000000000000000000000000000000000000000000000000600052601260045260246000fd5b600061402e8261322a565b91506140398361322a565b92508261404957614048613ff4565b5b828206905092915050565b7f4e487b7100000000000000000000000000000000000000000000000000000000600052601160045260246000fd5b600061408e8261322a565b91506140998361322a565b92508282019050808211156140b1576140b0614054565b5b92915050565b60006140c28261322a565b91506140cd8361322a565b92508282039050818111156140e5576140e4614054565b5b92915050565b7f4552433732313a2061646472657373207a65726f206973206e6f74206120766160008201527f6c6964206f776e65720000000000000000000000000000000000000000000000602082015250565b6000614147602983613125565b9150614152826140eb565b604082019050919050565b600060208201905081810360008301526141768161413a565b9050919050565b7f5072696365206d7573742062652067726561746572207468616e207a65726f00600082015250565b60006141b3601f83613125565b91506141be8261417d565b602082019050919050565b600060208201905081810360008301526141e2816141a6565b9050919050565b7f596f7520617265206e6f7420746865206f776e6572206f662074686973204e4660008201527f5400000000000000000000000000000000000000000000000000000000000000602082015250565b6000614245602183613125565b9150614250826141e9565b604082019050919050565b6000602082019050818103600083015261427481614238565b9050919050565b7f4552433732314d657461646174613a2055524920717565727920666f72206e6f60008201527f6e6578697374656e7420746f6b656e0000000000000000000000000000000000602082015250565b60006142d7602f83613125565b91506142e28261427b565b604082019050919050565b60006020820190508181036000830152614306816142ca565b9050919050565b600081905092915050565b600081546143258161390a565b61432f818661430d565b9450600182166000811461434a576001811461435f57614392565b60ff1983168652811515820286019350614392565b61436885613a68565b60005b8381101561438a5781548189015260018201915060208101905061436b565b838801955050505b50505092915050565b60006143a68261311a565b6143b0818561430d565b93506143c0818560208601613136565b80840191505092915050565b7f2e6a736f6e000000000000000000000000000000000000000000000000000000600082015250565b600061440260058361430d565b915061440d826143cc565b600582019050919050565b60006144248285614318565b9150614430828461439b565b915061443b826143f5565b91508190509392505050565b7f54686973204e4654206973206e6f7420666f722073616c650000000000000000600082015250565b600061447d601883613125565b915061448882614447565b602082019050919050565b600060208201905081810360008301526144ac81614470565b9050919050565b7f496e636f72726563742070726963650000000000000000000000000000000000600082015250565b60006144e9600f83613125565b91506144f4826144b3565b602082019050919050565b60006020820190508181036000830152614518816144dc565b9050919050565b7f4f776e61626c653a206e6577206f776e657220697320746865207a65726f206160008201527f6464726573730000000000000000000000000000000000000000000000000000602082015250565b600061457b602683613125565b91506145868261451f565b604082019050919050565b600060208201905081810360008301526145aa8161456e565b9050919050565b7f4552433732313a207472616e736665722066726f6d20696e636f72726563742060008201527f6f776e6572000000000000000000000000000000000000000000000000000000602082015250565b600061460d602583613125565b9150614618826145b1565b604082019050919050565b6000602082019050818103600083015261463c81614600565b9050919050565b7f4552433732313a207472616e7366657220746f20746865207a65726f2061646460008201527f7265737300000000000000000000000000000000000000000000000000000000602082015250565b600061469f602483613125565b91506146aa82614643565b604082019050919050565b600060208201905081810360008301526146ce81614692565b9050919050565b7f4552433732313a206d696e7420746f20746865207a65726f2061646472657373600082015250565b600061470b602083613125565b9150614716826146d5565b602082019050919050565b6000602082019050818103600083015261473a816146fe565b9050919050565b7f4552433732313a20746f6b656e20616c7265616479206d696e74656400000000600082015250565b6000614777601c83613125565b915061478282614741565b602082019050919050565b600060208201905081810360008301526147a68161476a565b9050919050565b7f4f776e61626c653a2063616c6c6572206973206e6f7420746865206f776e6572600082015250565b60006147e3602083613125565b91506147ee826147ad565b602082019050919050565b60006020820190508181036000830152614812816147d6565b9050919050565b7f455243373231456e756d657261626c653a20636f6e736563757469766520747260008201527f616e7366657273206e6f7420737570706f727465640000000000000000000000602082015250565b6000614875603583613125565b915061488082614819565b604082019050919050565b600060208201905081810360008301526148a481614868565b9050919050565b7f416363657373436f6e74726f6c3a206163636f756e7420000000000000000000600082015250565b60006148e160178361430d565b91506148ec826148ab565b601782019050919050565b7f206973206d697373696e6720726f6c6520000000000000000000000000000000600082015250565b600061492d60118361430d565b9150614938826148f7565b601182019050919050565b600061494e826148d4565b915061495a828561439b565b915061496582614920565b9150614971828461439b565b91508190509392505050565b7f4e487b7100000000000000000000000000000000000000000000000000000000600052603160045260246000fd5b60006149b78261322a565b91506149c28361322a565b92508282026149d08161322a565b915082820484148315176149e7576149e6614054565b5b5092915050565b60006149f98261322a565b915060008203614a0c57614a0b614054565b5b600182039050919050565b7f537472696e67733a20686578206c656e67746820696e73756666696369656e74600082015250565b6000614a4d602083613125565b9150614a5882614a17565b602082019050919050565b60006020820190508181036000830152614a7c81614a40565b905091905056fea2646970667358221220987eb0a26d91dbb63aa0ad43dd0487ad0b1f79812fdeea98363b36564248cd6e64736f6c63430008180033697066733a2f2f516d556563396a4e665842417857454c655a74735835666d674e676d635432794c76654e794e516a34474b4d7a792f",
  "linkReferences": {},
  "deployedLinkReferences": {}
}