{
  "_format": "hh-sol-artifact-1",
  "contractName": "FishingRodNFT",
  "sourceName": "contracts/FishingRodNFT.sol",
  "abi": [
    {
      "inputs": [
        {
          "internalType": "uint256",
          "name": "_mintPrice",
          "type": "uint256"
        }
      ],
      "stateMutability": "nonpayable",
      "type": "constructor"
    },
    {
      "anonymous": false,
      "inputs": [
        {
          "indexed": true,
          "internalType": "address",
          "name": "newAdmin",
          "type": "address"
        }
      ],
      "name": "AdminAdded",
      "type": "event"
    },
    {
      "anonymous": false,
      "inputs": [
        {
          "indexed": true,
          "internalType": "address",
          "name": "removedAdmin",
          "type": "address"
        }
      ],
      "name": "AdminRemoved",
      "type": "event"
    },
    {
      "anonymous": false,
      "inputs": [
        {
          "indexed": true,
          "internalType": "uint256",
          "name": "tokenId",
          "type": "uint256"
        },
        {
          "indexed": true,
          "internalType": "address",
          "name": "seller",
          "type": "address"
        },
        {
          "indexed": false,
          "internalType": "uint256",
          "name": "price",
          "type": "uint256"
        }
      ],
      "name": "ItemListed",
      "type": "event"
    },
    {
      "anonymous": false,
      "inputs": [
        {
          "indexed": true,
          "internalType": "uint256",
          "name": "tokenId",
          "type": "uint256"
        },
        {
          "indexed": true,
          "internalType": "address",
          "name": "buyer",
          "type": "address"
        },
        {
          "indexed": false,
          "internalType": "uint256",
          "name": "price",
          "type": "uint256"
        }
      ],
      "name": "ItemSold",
      "type": "event"
    },
    {
      "anonymous": false,
      "inputs": [
        {
          "indexed": true,
          "internalType": "address",
          "name": "previousOwner",
          "type": "address"
        },
        {
          "indexed": true,
          "internalType": "address",
          "name": "newOwner",
          "type": "address"
        }
      ],
      "name": "OwnershipTransferred",
      "type": "event"
    },
    {
      "anonymous": false,
      "inputs": [
        {
          "indexed": true,
          "internalType": "uint256",
          "name": "tokenId",
          "type": "uint256"
        }
      ],
      "name": "RodAttributesUpdated",
      "type": "event"
    },
    {
      "anonymous": false,
      "inputs": [
        {
          "indexed": true,
          "internalType": "address",
          "name": "to",
          "type": "address"
        },
        {
          "indexed": true,
          "internalType": "uint256",
          "name": "tokenId",
          "type": "uint256"
        },
        {
          "indexed": false,
          "internalType": "uint256",
          "name": "rodType",
          "type": "uint256"
        }
      ],
      "name": "RodMinted",
      "type": "event"
    },
    {
      "anonymous": false,
      "inputs": [
        {
          "indexed": true,
          "internalType": "bytes32",
          "name": "role",
          "type": "bytes32"
        },
        {
          "indexed": true,
          "internalType": "bytes32",
          "name": "previousAdminRole",
          "type": "bytes32"
        },
        {
          "indexed": true,
          "internalType": "bytes32",
          "name": "newAdminRole",
          "type": "bytes32"
        }
      ],
      "name": "RoleAdminChanged",
      "type": "event"
    },
    {
      "anonymous": false,
      "inputs": [
        {
          "indexed": true,
          "internalType": "bytes32",
          "name": "role",
          "type": "bytes32"
        },
        {
          "indexed": true,
          "internalType": "address",
          "name": "account",
          "type": "address"
        },
        {
          "indexed": true,
          "internalType": "address",
          "name": "sender",
          "type": "address"
        }
      ],
      "name": "RoleGranted",
      "type": "event"
    },
    {
      "anonymous": false,
      "inputs": [
        {
          "indexed": true,
          "internalType": "bytes32",
          "name": "role",
          "type": "bytes32"
        },
        {
          "indexed": true,
          "internalType": "address",
          "name": "account",
          "type": "address"
        },
        {
          "indexed": true,
          "internalType": "address",
          "name": "sender",
          "type": "address"
        }
      ],
      "name": "RoleRevoked",
      "type": "event"
    },
    {
      "anonymous": false,
      "inputs": [
        {
          "indexed": true,
          "internalType": "address",
          "name": "from",
          "type": "address"
        },
        {
          "indexed": true,
          "internalType": "address",
          "name": "to",
          "type": "address"
        },
        {
          "indexed": true,
          "internalType": "uint256",
          "name": "tokenId",
          "type": "uint256"
        }
      ],
      "name": "Transfer",
      "type": "event"
    },
    {
      "inputs": [],
      "name": "ADMIN_ROLE",
      "outputs": [
        {
          "internalType": "bytes32",
          "name": "",
          "type": "bytes32"
        }
      ],
      "stateMutability": "view",
      "type": "function"
    },
    {
      "inputs": [],
      "name": "DEFAULT_ADMIN_ROLE",
      "outputs": [
        {
          "internalType": "bytes32",
          "name": "",
          "type": "bytes32"
        }
      ],
      "stateMutability": "view",
      "type": "function"
    },
    {
      "inputs": [
        {
          "internalType": "address",
          "name": "owner",
          "type": "address"
        }
      ],
      "name": "balanceOf",
      "outputs": [
        {
          "internalType": "uint256",
          "name": "",
          "type": "uint256"
        }
      ],
      "stateMutability": "view",
      "type": "function"
    },
    {
      "inputs": [
        {
          "internalType": "uint256",
          "name": "tokenId",
          "type": "uint256"
        }
      ],
      "name": "buyItem",
      "outputs": [],
      "stateMutability": "payable",
      "type": "function"
    },
    {
      "inputs": [
        {
          "internalType": "uint256",
          "name": "tokenId",
          "type": "uint256"
        }
      ],
      "name": "cancelListing",
      "outputs": [],
      "stateMutability": "nonpayable",
      "type": "function"
    },
    {
      "inputs": [
        {
          "internalType": "address",
          "name": "playAddress",
          "type": "address"
        }
      ],
      "name": "freeMintRod",
      "outputs": [
        {
          "internalType": "uint256",
          "name": "",
          "type": "uint256"
        },
        {
          "internalType": "uint256",
          "name": "",
          "type": "uint256"
        }
      ],
      "stateMutability": "nonpayable",
      "type": "function"
    },
    {
      "inputs": [
        {
          "internalType": "address",
          "name": "owner",
          "type": "address"
        }
      ],
      "name": "getOwnedNFTs",
      "outputs": [
        {
          "components": [
            {
              "internalType": "uint256",
              "name": "tokenId",
              "type": "uint256"
            },
            {
              "internalType": "uint256",
              "name": "rodType",
              "type": "uint256"
            }
          ],
          "internalType": "struct FishingRodNFT.RodNft[]",
          "name": "",
          "type": "tuple[]"
        }
      ],
      "stateMutability": "view",
      "type": "function"
    },
    {
      "inputs": [
        {
          "internalType": "uint256",
          "name": "tokenId",
          "type": "uint256"
        }
      ],
      "name": "getRodTypeByTokenId",
      "outputs": [
        {
          "internalType": "uint256",
          "name": "",
          "type": "uint256"
        }
      ],
      "stateMutability": "view",
      "type": "function"
    },
    {
      "inputs": [
        {
          "internalType": "bytes32",
          "name": "role",
          "type": "bytes32"
        }
      ],
      "name": "getRoleAdmin",
      "outputs": [
        {
          "internalType": "bytes32",
          "name": "",
          "type": "bytes32"
        }
      ],
      "stateMutability": "view",
      "type": "function"
    },
    {
      "inputs": [
        {
          "internalType": "bytes32",
          "name": "role",
          "type": "bytes32"
        },
        {
          "internalType": "address",
          "name": "account",
          "type": "address"
        }
      ],
      "name": "grantRole",
      "outputs": [],
      "stateMutability": "nonpayable",
      "type": "function"
    },
    {
      "inputs": [
        {
          "internalType": "bytes32",
          "name": "role",
          "type": "bytes32"
        },
        {
          "internalType": "address",
          "name": "account",
          "type": "address"
        }
      ],
      "name": "hasRole",
      "outputs": [
        {
          "internalType": "bool",
          "name": "",
          "type": "bool"
        }
      ],
      "stateMutability": "view",
      "type": "function"
    },
    {
      "inputs": [
        {
          "internalType": "uint256",
          "name": "tokenId",
          "type": "uint256"
        },
        {
          "internalType": "uint256",
          "name": "price",
          "type": "uint256"
        }
      ],
      "name": "listItem",
      "outputs": [],
      "stateMutability": "nonpayable",
      "type": "function"
    },
    {
      "inputs": [
        {
          "internalType": "uint256",
          "name": "",
          "type": "uint256"
        }
      ],
      "name": "listings",
      "outputs": [
        {
          "internalType": "address",
          "name": "seller",
          "type": "address"
        },
        {
          "internalType": "uint256",
          "name": "price",
          "type": "uint256"
        }
      ],
      "stateMutability": "view",
      "type": "function"
    },
    {
      "inputs": [],
      "name": "mintPrice",
      "outputs": [
        {
          "internalType": "uint256",
          "name": "",
          "type": "uint256"
        }
      ],
      "stateMutability": "view",
      "type": "function"
    },
    {
      "inputs": [],
      "name": "mintRod",
      "outputs": [
        {
          "internalType": "uint256",
          "name": "",
          "type": "uint256"
        },
        {
          "internalType": "uint256",
          "name": "",
          "type": "uint256"
        }
      ],
      "stateMutability": "payable",
      "type": "function"
    },
    {
      "inputs": [],
      "name": "name",
      "outputs": [
        {
          "internalType": "string",
          "name": "",
          "type": "string"
        }
      ],
      "stateMutability": "view",
      "type": "function"
    },
    {
      "inputs": [
        {
          "internalType": "address",
          "name": "",
          "type": "address"
        },
        {
          "internalType": "address",
          "name": "",
          "type": "address"
        },
        {
          "internalType": "uint256",
          "name": "",
          "type": "uint256"
        },
        {
          "internalType": "bytes",
          "name": "",
          "type": "bytes"
        }
      ],
      "name": "onERC721Received",
      "outputs": [
        {
          "internalType": "bytes4",
          "name": "",
          "type": "bytes4"
        }
      ],
      "stateMutability": "nonpayable",
      "type": "function"
    },
    {
      "inputs": [],
      "name": "owner",
      "outputs": [
        {
          "internalType": "address",
          "name": "",
          "type": "address"
        }
      ],
      "stateMutability": "view",
      "type": "function"
    },
    {
      "inputs": [
        {
          "internalType": "uint256",
          "name": "tokenId",
          "type": "uint256"
        }
      ],
      "name": "ownerOf",
      "outputs": [
        {
          "internalType": "address",
          "name": "",
          "type": "address"
        }
      ],
      "stateMutability": "view",
      "type": "function"
    },
    {
      "inputs": [],
      "name": "renounceOwnership",
      "outputs": [],
      "stateMutability": "nonpayable",
      "type": "function"
    },
    {
      "inputs": [
        {
          "internalType": "bytes32",
          "name": "role",
          "type": "bytes32"
        },
        {
          "internalType": "address",
          "name": "account",
          "type": "address"
        }
      ],
      "name": "renounceRole",
      "outputs": [],
      "stateMutability": "nonpayable",
      "type": "function"
    },
    {
      "inputs": [
        {
          "internalType": "bytes32",
          "name": "role",
          "type": "bytes32"
        },
        {
          "internalType": "address",
          "name": "account",
          "type": "address"
        }
      ],
      "name": "revokeRole",
      "outputs": [],
      "stateMutability": "nonpayable",
      "type": "function"
    },
    {
      "inputs": [
        {
          "internalType": "string",
          "name": "newBaseTokenURI",
          "type": "string"
        }
      ],
      "name": "setBaseTokenURI",
      "outputs": [],
      "stateMutability": "nonpayable",
      "type": "function"
    },
    {
      "inputs": [
        {
          "internalType": "uint256",
          "name": "newMintPrice",
          "type": "uint256"
        }
      ],
      "name": "setMintPrice",
      "outputs": [],
      "stateMutability": "nonpayable",
      "type": "function"
    },
    {
      "inputs": [
        {
          "internalType": "bytes4",
          "name": "interfaceId",
          "type": "bytes4"
        }
      ],
      "name": "supportsInterface",
      "outputs": [
        {
          "internalType": "bool",
          "name": "",
          "type": "bool"
        }
      ],
      "stateMutability": "view",
      "type": "function"
    },
    {
      "inputs": [],
      "name": "symbol",
      "outputs": [
        {
          "internalType": "string",
          "name": "",
          "type": "string"
        }
      ],
      "stateMutability": "view",
      "type": "function"
    },
    {
      "inputs": [
        {
          "internalType": "uint256",
          "name": "index",
          "type": "uint256"
        }
      ],
      "name": "tokenByIndex",
      "outputs": [
        {
          "internalType": "uint256",
          "name": "",
          "type": "uint256"
        }
      ],
      "stateMutability": "view",
      "type": "function"
    },
    {
      "inputs": [
        {
          "internalType": "address",
          "name": "owner",
          "type": "address"
        },
        {
          "internalType": "uint256",
          "name": "index",
          "type": "uint256"
        }
      ],
      "name": "tokenOfOwnerByIndex",
      "outputs": [
        {
          "internalType": "uint256",
          "name": "",
          "type": "uint256"
        }
      ],
      "stateMutability": "view",
      "type": "function"
    },
    {
      "inputs": [
        {
          "internalType": "uint256",
          "name": "tokenId",
          "type": "uint256"
        }
      ],
      "name": "tokenURI",
      "outputs": [
        {
          "internalType": "string",
          "name": "",
          "type": "string"
        }
      ],
      "stateMutability": "view",
      "type": "function"
    },
    {
      "inputs": [],
      "name": "totalSupply",
      "outputs": [
        {
          "internalType": "uint256",
          "name": "",
          "type": "uint256"
        }
      ],
      "stateMutability": "view",
      "type": "function"
    },
    {
      "inputs": [
        {
          "internalType": "address",
          "name": "from",
          "type": "address"
        },
        {
          "internalType": "address",
          "name": "to",
          "type": "address"
        },
        {
          "internalType": "uint256",
          "name": "tokenId",
          "type": "uint256"
        }
      ],
      "name": "transferFrom",
      "outputs": [],
      "stateMutability": "nonpayable",
      "type": "function"
    },
    {
      "inputs": [
        {
          "internalType": "address",
          "name": "newOwner",
          "type": "address"
        }
      ],
      "name": "transferOwnership",
      "outputs": [],
      "stateMutability": "nonpayable",
      "type": "function"
    },
    {
      "inputs": [],
      "name": "withdraw",
      "outputs": [],
      "stateMutability": "nonpayable",
      "type": "function"
    }
  ],
  "bytecode": "0x60806040526040518060600160405280603681526020016200527360369139600f90816200002e919062000622565b503480156200003c57600080fd5b50604051620052a9380380620052a983398181016040528101906200006291906200073f565b6040518060400160405280600d81526020017f46697368696e67526f644e4654000000000000000000000000000000000000008152506040518060400160405280600381526020017f46524e0000000000000000000000000000000000000000000000000000000000815250620000ee620000e26200016960201b60201c565b6200017160201b60201c565b8160019081620000ff919062000622565b50806002908162000111919062000622565b50505080601081905550620001306000801b336200023560201b60201c565b620001627fa49807205ce4d355092ef5a8a18f56e8913cf4a201fbe287825b095693c21775336200023560201b60201c565b5062000771565b600033905090565b60008060009054906101000a900473ffffffffffffffffffffffffffffffffffffffff169050816000806101000a81548173ffffffffffffffffffffffffffffffffffffffff021916908373ffffffffffffffffffffffffffffffffffffffff1602179055508173ffffffffffffffffffffffffffffffffffffffff168173ffffffffffffffffffffffffffffffffffffffff167f8be0079c531659141344cd1fd0a4f28419497f9722a3daafe3b4186f6b6457e060405160405180910390a35050565b6200024782826200024b60201b60201c565b5050565b6200025d82826200033d60201b60201c565b620003395760016006600084815260200190815260200160002060000160008373ffffffffffffffffffffffffffffffffffffffff1673ffffffffffffffffffffffffffffffffffffffff16815260200190815260200160002060006101000a81548160ff021916908315150217905550620002de6200016960201b60201c565b73ffffffffffffffffffffffffffffffffffffffff168173ffffffffffffffffffffffffffffffffffffffff16837f2f8788117e7eff1d82e926ec794901d17c78024a50270940304540a733656f0d60405160405180910390a45b5050565b60006006600084815260200190815260200160002060000160008373ffffffffffffffffffffffffffffffffffffffff1673ffffffffffffffffffffffffffffffffffffffff16815260200190815260200160002060009054906101000a900460ff16905092915050565b600081519050919050565b7f4e487b7100000000000000000000000000000000000000000000000000000000600052604160045260246000fd5b7f4e487b7100000000000000000000000000000000000000000000000000000000600052602260045260246000fd5b600060028204905060018216806200042a57607f821691505b60208210810362000440576200043f620003e2565b5b50919050565b60008190508160005260206000209050919050565b60006020601f8301049050919050565b600082821b905092915050565b600060088302620004aa7fffffffffffffffffffffffffffffffffffffffffffffffffffffffffffffffff826200046b565b620004b686836200046b565b95508019841693508086168417925050509392505050565b6000819050919050565b6000819050919050565b600062000503620004fd620004f784620004ce565b620004d8565b620004ce565b9050919050565b6000819050919050565b6200051f83620004e2565b620005376200052e826200050a565b84845462000478565b825550505050565b600090565b6200054e6200053f565b6200055b81848462000514565b505050565b5b8181101562000583576200057760008262000544565b60018101905062000561565b5050565b601f821115620005d2576200059c8162000446565b620005a7846200045b565b81016020851015620005b7578190505b620005cf620005c6856200045b565b83018262000560565b50505b505050565b600082821c905092915050565b6000620005f760001984600802620005d7565b1980831691505092915050565b6000620006128383620005e4565b9150826002028217905092915050565b6200062d82620003a8565b67ffffffffffffffff811115620006495762000648620003b3565b5b62000655825462000411565b6200066282828562000587565b600060209050601f8311600181146200069a576000841562000685578287015190505b62000691858262000604565b86555062000701565b601f198416620006aa8662000446565b60005b82811015620006d457848901518255600182019150602085019450602081019050620006ad565b86831015620006f45784890151620006f0601f891682620005e4565b8355505b6001600288020188555050505b505050505050565b600080fd5b6200071981620004ce565b81146200072557600080fd5b50565b60008151905062000739816200070e565b92915050565b60006020828403121562000758576200075762000709565b5b6000620007688482850162000728565b91505092915050565b614af280620007816000396000f3fe6080604052600436106101ee5760003560e01c80636817c76c1161010d57806395d89b41116100a0578063d547741f1161006f578063d547741f14610740578063de74e57b14610769578063e7fb74c7146107a7578063f2fde38b146107c3578063f4a0a528146107ec576101ee565b806395d89b4114610670578063a217fddf1461069b578063a94f2cac146106c6578063c87b56dd14610703576101ee565b806375b238fc116100dc57806375b238fc146105b4578063883efa67146105df5780638da5cb5b1461060857806391d1485414610633576101ee565b80636817c76c1461051657806368f9dee31461054157806370a0823114610560578063715018a61461059d576101ee565b80632f745c591161018557806337543e231161015457806337543e23146104475780633ccfd60b146104855780634f6ccce71461049c5780636352211e146104d9576101ee565b80632f745c591461038f57806330176e13146103cc578063305a67a8146103f557806336568abe1461041e576101ee565b806318160ddd116101c157806318160ddd146102d557806323b872dd14610300578063248a9ca3146103295780632f2ff15d14610366576101ee565b806301ffc9a7146101f357806306fdde0314610230578063150b7a021461025b57806318148f1b14610298575b600080fd5b3480156101ff57600080fd5b5061021a600480360381019061021591906130bd565b610815565b6040516102279190613105565b60405180910390f35b34801561023c57600080fd5b506102456108f7565b60405161025291906131b0565b60405180910390f35b34801561026757600080fd5b50610282600480360381019061027d919061339b565b610989565b60405161028f919061342d565b60405180910390f35b3480156102a457600080fd5b506102bf60048036038101906102ba9190613448565b61099d565b6040516102cc9190613562565b60405180910390f35b3480156102e157600080fd5b506102ea610bce565b6040516102f79190613593565b60405180910390f35b34801561030c57600080fd5b50610327600480360381019061032291906135ae565b610bdb565b005b34801561033557600080fd5b50610350600480360381019061034b9190613637565b610c54565b60405161035d9190613673565b60405180910390f35b34801561037257600080fd5b5061038d6004803603810190610388919061368e565b610c74565b005b34801561039b57600080fd5b506103b660048036038101906103b191906136ce565b610c95565b6040516103c39190613593565b60405180910390f35b3480156103d857600080fd5b506103f360048036038101906103ee91906137af565b610d3a565b005b34801561040157600080fd5b5061041c600480360381019061041791906137f8565b610db6565b005b34801561042a57600080fd5b506104456004803603810190610440919061368e565b610efe565b005b34801561045357600080fd5b5061046e60048036038101906104699190613448565b610f81565b60405161047c929190613825565b60405180910390f35b34801561049157600080fd5b5061049a61109c565b005b3480156104a857600080fd5b506104c360048036038101906104be91906137f8565b6110fa565b6040516104d09190613593565b60405180910390f35b3480156104e557600080fd5b5061050060048036038101906104fb91906137f8565b61116b565b60405161050d919061385d565b60405180910390f35b34801561052257600080fd5b5061052b6111f1565b6040516105389190613593565b60405180910390f35b6105496111f7565b604051610557929190613825565b60405180910390f35b34801561056c57600080fd5b5061058760048036038101906105829190613448565b611436565b6040516105949190613593565b60405180910390f35b3480156105a957600080fd5b506105b26114ed565b005b3480156105c057600080fd5b506105c9611501565b6040516105d69190613673565b60405180910390f35b3480156105eb57600080fd5b5061060660048036038101906106019190613878565b611525565b005b34801561061457600080fd5b5061061d6116ce565b60405161062a919061385d565b60405180910390f35b34801561063f57600080fd5b5061065a6004803603810190610655919061368e565b6116f7565b6040516106679190613105565b60405180910390f35b34801561067c57600080fd5b50610685611762565b60405161069291906131b0565b60405180910390f35b3480156106a757600080fd5b506106b06117f4565b6040516106bd9190613673565b60405180910390f35b3480156106d257600080fd5b506106ed60048036038101906106e891906137f8565b6117fb565b6040516106fa9190613593565b60405180910390f35b34801561070f57600080fd5b5061072a600480360381019061072591906137f8565b611818565b60405161073791906131b0565b60405180910390f35b34801561074c57600080fd5b506107676004803603810190610762919061368e565b6118ad565b005b34801561077557600080fd5b50610790600480360381019061078b91906137f8565b6118ce565b60405161079e9291906138b8565b60405180910390f35b6107c160048036038101906107bc91906137f8565b611912565b005b3480156107cf57600080fd5b506107ea60048036038101906107e59190613448565b611b13565b005b3480156107f857600080fd5b50610813600480360381019061080e91906137f8565b611b96565b005b60007f304ad1f2000000000000000000000000000000000000000000000000000000007bffffffffffffffffffffffffffffffffffffffffffffffffffffffff1916827bffffffffffffffffffffffffffffffffffffffffffffffffffffffff191614806108e057507f5b5e139f000000000000000000000000000000000000000000000000000000007bffffffffffffffffffffffffffffffffffffffffffffffffffffffff1916827bffffffffffffffffffffffffffffffffffffffffffffffffffffffff1916145b806108f057506108ef82611c09565b5b9050919050565b60606007805461090690613910565b80601f016020809104026020016040519081016040528092919081815260200182805461093290613910565b801561097f5780601f106109545761010080835404028352916020019161097f565b820191906000526020600020905b81548152906001019060200180831161096257829003601f168201915b5050505050905090565b600063150b7a0260e01b9050949350505050565b606060006109aa83611436565b905060008167ffffffffffffffff8111156109c8576109c7613270565b5b6040519080825280602002602001820160405280156109f65781602001602082028036833780820191505090505b50905060008267ffffffffffffffff811115610a1557610a14613270565b5b604051908082528060200260200182016040528015610a435781602001602082028036833780820191505090505b50905060005b83811015610a8757610a5b8682610c95565b838281518110610a6e57610a6d613941565b5b6020026020010181815250508080600101915050610a49565b5060005b8251811015610ae357610ab7838281518110610aaa57610aa9613941565b5b60200260200101516117fb565b828281518110610aca57610ac9613941565b5b6020026020010181815250508080600101915050610a8b565b5060008367ffffffffffffffff811115610b0057610aff613270565b5b604051908082528060200260200182016040528015610b3957816020015b610b26613037565b815260200190600190039081610b1e5790505b50905060005b84811015610bc15760006040518060400160405280868481518110610b6757610b66613941565b5b60200260200101518152602001858481518110610b8757610b86613941565b5b6020026020010151815250905080838381518110610ba857610ba7613941565b5b6020026020010181905250508080600101915050610b3f565b5080945050505050919050565b6000600c80549050905090565b610c057fa49807205ce4d355092ef5a8a18f56e8913cf4a201fbe287825b095693c21775336116f7565b610c44576040517f08c379a0000000000000000000000000000000000000000000000000000000008152600401610c3b906139bc565b60405180910390fd5b610c4f838383611c83565b505050565b600060066000838152602001908152602001600020600101549050919050565b610c7d82610c54565b610c8681611f7c565b610c908383611f90565b505050565b6000610ca083611436565b8210610ce1576040517f08c379a0000000000000000000000000000000000000000000000000000000008152600401610cd890613a4e565b60405180910390fd5b600a60008473ffffffffffffffffffffffffffffffffffffffff1673ffffffffffffffffffffffffffffffffffffffff168152602001908152602001600020600083815260200190815260200160002054905092915050565b610d647fa49807205ce4d355092ef5a8a18f56e8913cf4a201fbe287825b095693c21775336116f7565b610da3576040517f08c379a0000000000000000000000000000000000000000000000000000000008152600401610d9a906139bc565b60405180910390fd5b80600f9081610db29190613c1a565b5050565b6000601160008381526020019081526020016000206040518060400160405290816000820160009054906101000a900473ffffffffffffffffffffffffffffffffffffffff1673ffffffffffffffffffffffffffffffffffffffff1673ffffffffffffffffffffffffffffffffffffffff16815260200160018201548152505090503373ffffffffffffffffffffffffffffffffffffffff16816000015173ffffffffffffffffffffffffffffffffffffffff1614610eaa576040517f08c379a0000000000000000000000000000000000000000000000000000000008152600401610ea190613d38565b60405180910390fd5b60116000838152602001908152602001600020600080820160006101000a81549073ffffffffffffffffffffffffffffffffffffffff021916905560018201600090555050610efa303384612071565b5050565b610f06612081565b73ffffffffffffffffffffffffffffffffffffffff168173ffffffffffffffffffffffffffffffffffffffff1614610f73576040517f08c379a0000000000000000000000000000000000000000000000000000000008152600401610f6a90613dca565b60405180910390fd5b610f7d8282612089565b5050565b600080610fae7fa49807205ce4d355092ef5a8a18f56e8913cf4a201fbe287825b095693c21775336116f7565b610fed576040517f08c379a0000000000000000000000000000000000000000000000000000000008152600401610fe4906139bc565b60405180910390fd5b600080610ffa600961216b565b90506110066009612179565b816013600083815260200190815260200160002081905550611028858261218f565b81600e600083815260200190815260200160002081905550808573ffffffffffffffffffffffffffffffffffffffff167f68bb481fd1bcc350565b491e9f7d8ccda7f7f5213c88de5e9954bdb49fd357f5846040516110879190613593565b60405180910390a38082935093505050915091565b6110a46123ac565b60004790506110b16116ce565b73ffffffffffffffffffffffffffffffffffffffff166108fc829081150290604051600060405180830381858888f193505050501580156110f6573d6000803e3d6000fd5b5050565b6000611104610bce565b8210611145576040517f08c379a000000000000000000000000000000000000000000000000000000000815260040161113c90613e5c565b60405180910390fd5b600c828154811061115957611158613941565b5b90600052602060002001549050919050565b6000806111778361242a565b9050600073ffffffffffffffffffffffffffffffffffffffff168173ffffffffffffffffffffffffffffffffffffffff16036111e8576040517f08c379a00000000000000000000000000000000000000000000000000000000081526004016111df90613ec8565b60405180910390fd5b80915050919050565b60105481565b60008060105434101561123f576040517f08c379a000000000000000000000000000000000000000000000000000000000815260040161123690613f34565b60405180910390fd5b60006040518060c00160405280604360ff168152602001600c60ff168152602001600860ff168152602001600660ff168152602001600460ff168152602001600360ff168152509050600060649050600081424443335a476040516020016112ac96959493929190613fbd565b6040516020818303038152906040528051906020012060001c6112cf919061405c565b905060008060005b6006811015611325578581600681106112f3576112f2613941565b5b602002015160ff168261130691906140bc565b91508184101561131857809250611325565b80806001019150506112d7565b506000611332600961216b565b905061133e6009612179565b826013600083815260200190815260200160002081905550611360338261218f565b82600e600083815260200190815260200160002081905550803373ffffffffffffffffffffffffffffffffffffffff167f68bb481fd1bcc350565b491e9f7d8ccda7f7f5213c88de5e9954bdb49fd357f5856040516113bf9190613593565b60405180910390a3601054341115611426573373ffffffffffffffffffffffffffffffffffffffff166108fc601054346113f991906140f0565b9081150290604051600060405180830381858888f19350505050158015611424573d6000803e3d6000fd5b505b8083975097505050505050509091565b60008073ffffffffffffffffffffffffffffffffffffffff168273ffffffffffffffffffffffffffffffffffffffff16036114a6576040517f08c379a000000000000000000000000000000000000000000000000000000000815260040161149d90614196565b60405180910390fd5b600460008373ffffffffffffffffffffffffffffffffffffffff1673ffffffffffffffffffffffffffffffffffffffff168152602001908152602001600020549050919050565b6114f56123ac565b6114ff6000612467565b565b7fa49807205ce4d355092ef5a8a18f56e8913cf4a201fbe287825b095693c2177581565b60008111611568576040517f08c379a000000000000000000000000000000000000000000000000000000000815260040161155f90614202565b60405180910390fd5b3373ffffffffffffffffffffffffffffffffffffffff166115888361116b565b73ffffffffffffffffffffffffffffffffffffffff16146115de576040517f08c379a00000000000000000000000000000000000000000000000000000000081526004016115d590614294565b60405180910390fd5b6115e9333084612071565b60405180604001604052803373ffffffffffffffffffffffffffffffffffffffff168152602001828152506011600084815260200190815260200160002060008201518160000160006101000a81548173ffffffffffffffffffffffffffffffffffffffff021916908373ffffffffffffffffffffffffffffffffffffffff160217905550602082015181600101559050503373ffffffffffffffffffffffffffffffffffffffff16827fc93edc6ee14cd6c0c2842099adfa8953b237dbdad304ba28e96dce8a7f2a828c836040516116c29190613593565b60405180910390a35050565b60008060009054906101000a900473ffffffffffffffffffffffffffffffffffffffff16905090565b60006006600084815260200190815260200160002060000160008373ffffffffffffffffffffffffffffffffffffffff1673ffffffffffffffffffffffffffffffffffffffff16815260200190815260200160002060009054906101000a900460ff16905092915050565b60606008805461177190613910565b80601f016020809104026020016040519081016040528092919081815260200182805461179d90613910565b80156117ea5780601f106117bf576101008083540402835291602001916117ea565b820191906000526020600020905b8154815290600101906020018083116117cd57829003601f168201915b5050505050905090565b6000801b81565b6000600e6000838152602001908152602001600020549050919050565b60606118238261252b565b611862576040517f08c379a000000000000000000000000000000000000000000000000000000000815260040161185990614326565b60405180910390fd5b600060136000848152602001908152602001600020549050600f6118858261256c565b604051602001611896929190614451565b604051602081830303815290604052915050919050565b6118b682610c54565b6118bf81611f7c565b6118c98383612089565b505050565b60116020528060005260406000206000915090508060000160009054906101000a900473ffffffffffffffffffffffffffffffffffffffff16908060010154905082565b6000601160008381526020019081526020016000206040518060400160405290816000820160009054906101000a900473ffffffffffffffffffffffffffffffffffffffff1673ffffffffffffffffffffffffffffffffffffffff1673ffffffffffffffffffffffffffffffffffffffff168152602001600182015481525050905060008160200151116119db576040517f08c379a00000000000000000000000000000000000000000000000000000000081526004016119d2906144cc565b60405180910390fd5b80602001513414611a21576040517f08c379a0000000000000000000000000000000000000000000000000000000008152600401611a1890614538565b60405180910390fd5b60116000838152602001908152602001600020600080820160006101000a81549073ffffffffffffffffffffffffffffffffffffffff021916905560018201600090555050611a71303384612071565b806000015173ffffffffffffffffffffffffffffffffffffffff166108fc349081150290604051600060405180830381858888f19350505050158015611abb573d6000803e3d6000fd5b503373ffffffffffffffffffffffffffffffffffffffff16827fa574c741071bb18f51fa88c17aeefec514bebf670ca22a3736fba6504ecbb7638360200151604051611b079190613593565b60405180910390a35050565b611b1b6123ac565b600073ffffffffffffffffffffffffffffffffffffffff168173ffffffffffffffffffffffffffffffffffffffff1603611b8a576040517f08c379a0000000000000000000000000000000000000000000000000000000008152600401611b81906145ca565b60405180910390fd5b611b9381612467565b50565b611bc07fa49807205ce4d355092ef5a8a18f56e8913cf4a201fbe287825b095693c21775336116f7565b611bff576040517f08c379a0000000000000000000000000000000000000000000000000000000008152600401611bf6906139bc565b60405180910390fd5b8060108190555050565b60007f7965db0b000000000000000000000000000000000000000000000000000000007bffffffffffffffffffffffffffffffffffffffffffffffffffffffff1916827bffffffffffffffffffffffffffffffffffffffffffffffffffffffff19161480611c7c5750611c7b8261263a565b5b9050919050565b8273ffffffffffffffffffffffffffffffffffffffff16611ca38261116b565b73ffffffffffffffffffffffffffffffffffffffff1614611cf9576040517f08c379a0000000000000000000000000000000000000000000000000000000008152600401611cf09061465c565b60405180910390fd5b600073ffffffffffffffffffffffffffffffffffffffff168273ffffffffffffffffffffffffffffffffffffffff1603611d68576040517f08c379a0000000000000000000000000000000000000000000000000000000008152600401611d5f906146ee565b60405180910390fd5b611d75838383600161271c565b8273ffffffffffffffffffffffffffffffffffffffff16611d958261116b565b73ffffffffffffffffffffffffffffffffffffffff1614611deb576040517f08c379a0000000000000000000000000000000000000000000000000000000008152600401611de29061465c565b60405180910390fd5b6005600082815260200190815260200160002060006101000a81549073ffffffffffffffffffffffffffffffffffffffff02191690556001600460008573ffffffffffffffffffffffffffffffffffffffff1673ffffffffffffffffffffffffffffffffffffffff168152602001908152602001600020600082825403925050819055506001600460008473ffffffffffffffffffffffffffffffffffffffff1673ffffffffffffffffffffffffffffffffffffffff16815260200190815260200160002060008282540192505081905550816003600083815260200190815260200160002060006101000a81548173ffffffffffffffffffffffffffffffffffffffff021916908373ffffffffffffffffffffffffffffffffffffffff160217905550808273ffffffffffffffffffffffffffffffffffffffff168473ffffffffffffffffffffffffffffffffffffffff167fddf252ad1be2c89b69c2b068fc378daa952ba7f163c4a11628f55a4df523b3ef60405160405180910390a4611f77838383600161287a565b505050565b611f8d81611f88612081565b612880565b50565b611f9a82826116f7565b61206d5760016006600084815260200190815260200160002060000160008373ffffffffffffffffffffffffffffffffffffffff1673ffffffffffffffffffffffffffffffffffffffff16815260200190815260200160002060006101000a81548160ff021916908315150217905550612012612081565b73ffffffffffffffffffffffffffffffffffffffff168173ffffffffffffffffffffffffffffffffffffffff16837f2f8788117e7eff1d82e926ec794901d17c78024a50270940304540a733656f0d60405160405180910390a45b5050565b61207c838383611c83565b505050565b600033905090565b61209382826116f7565b156121675760006006600084815260200190815260200160002060000160008373ffffffffffffffffffffffffffffffffffffffff1673ffffffffffffffffffffffffffffffffffffffff16815260200190815260200160002060006101000a81548160ff02191690831515021790555061210c612081565b73ffffffffffffffffffffffffffffffffffffffff168173ffffffffffffffffffffffffffffffffffffffff16837ff6391f5c32d9c69d2a47ea670b442974b53935d1edc7fd64eb21e047a839171b60405160405180910390a45b5050565b600081600001549050919050565b6001816000016000828254019250508190555050565b600073ffffffffffffffffffffffffffffffffffffffff168273ffffffffffffffffffffffffffffffffffffffff16036121fe576040517f08c379a00000000000000000000000000000000000000000000000000000000081526004016121f59061475a565b60405180910390fd5b6122078161252b565b15612247576040517f08c379a000000000000000000000000000000000000000000000000000000000815260040161223e906147c6565b60405180910390fd5b61225560008383600161271c565b61225e8161252b565b1561229e576040517f08c379a0000000000000000000000000000000000000000000000000000000008152600401612295906147c6565b60405180910390fd5b6001600460008473ffffffffffffffffffffffffffffffffffffffff1673ffffffffffffffffffffffffffffffffffffffff16815260200190815260200160002060008282540192505081905550816003600083815260200190815260200160002060006101000a81548173ffffffffffffffffffffffffffffffffffffffff021916908373ffffffffffffffffffffffffffffffffffffffff160217905550808273ffffffffffffffffffffffffffffffffffffffff16600073ffffffffffffffffffffffffffffffffffffffff167fddf252ad1be2c89b69c2b068fc378daa952ba7f163c4a11628f55a4df523b3ef60405160405180910390a46123a860008383600161287a565b5050565b6123b4612081565b73ffffffffffffffffffffffffffffffffffffffff166123d26116ce565b73ffffffffffffffffffffffffffffffffffffffff1614612428576040517f08c379a000000000000000000000000000000000000000000000000000000000815260040161241f90614832565b60405180910390fd5b565b60006003600083815260200190815260200160002060009054906101000a900473ffffffffffffffffffffffffffffffffffffffff169050919050565b60008060009054906101000a900473ffffffffffffffffffffffffffffffffffffffff169050816000806101000a81548173ffffffffffffffffffffffffffffffffffffffff021916908373ffffffffffffffffffffffffffffffffffffffff1602179055508173ffffffffffffffffffffffffffffffffffffffff168173ffffffffffffffffffffffffffffffffffffffff167f8be0079c531659141344cd1fd0a4f28419497f9722a3daafe3b4186f6b6457e060405160405180910390a35050565b60008073ffffffffffffffffffffffffffffffffffffffff1661254d8361242a565b73ffffffffffffffffffffffffffffffffffffffff1614159050919050565b60606000600161257b84612905565b01905060008167ffffffffffffffff81111561259a57612599613270565b5b6040519080825280601f01601f1916602001820160405280156125cc5781602001600182028036833780820191505090505b509050600082602001820190505b60011561262f578080600190039150507f3031323334353637383961626364656600000000000000000000000000000000600a86061a8153600a85816126235761262261402d565b5b049450600085036125da575b819350505050919050565b60007f304ad1f2000000000000000000000000000000000000000000000000000000007bffffffffffffffffffffffffffffffffffffffffffffffffffffffff1916827bffffffffffffffffffffffffffffffffffffffffffffffffffffffff1916148061270557507f5b5e139f000000000000000000000000000000000000000000000000000000007bffffffffffffffffffffffffffffffffffffffffffffffffffffffff1916827bffffffffffffffffffffffffffffffffffffffffffffffffffffffff1916145b80612715575061271482612a58565b5b9050919050565b61272884848484612ac2565b600181111561276c576040517f08c379a0000000000000000000000000000000000000000000000000000000008152600401612763906148c4565b60405180910390fd5b6000829050600073ffffffffffffffffffffffffffffffffffffffff168573ffffffffffffffffffffffffffffffffffffffff16036127b3576127ae81612ac8565b6127f2565b8373ffffffffffffffffffffffffffffffffffffffff168573ffffffffffffffffffffffffffffffffffffffff16146127f1576127f08582612b11565b5b5b600073ffffffffffffffffffffffffffffffffffffffff168473ffffffffffffffffffffffffffffffffffffffff16036128345761282f81612c7e565b612873565b8473ffffffffffffffffffffffffffffffffffffffff168473ffffffffffffffffffffffffffffffffffffffff1614612872576128718482612d4f565b5b5b5050505050565b50505050565b61288a82826116f7565b6129015761289781612dce565b6128a58360001c6020612dfb565b6040516020016128b692919061497c565b6040516020818303038152906040526040517f08c379a00000000000000000000000000000000000000000000000000000000081526004016128f891906131b0565b60405180910390fd5b5050565b600080600090507a184f03e93ff9f4daa797ed6e38ed64bf6a1f0100000000000000008310612963577a184f03e93ff9f4daa797ed6e38ed64bf6a1f01000000000000000083816129595761295861402d565b5b0492506040810190505b6d04ee2d6d415b85acef810000000083106129a0576d04ee2d6d415b85acef810000000083816129965761299561402d565b5b0492506020810190505b662386f26fc1000083106129cf57662386f26fc1000083816129c5576129c461402d565b5b0492506010810190505b6305f5e10083106129f8576305f5e10083816129ee576129ed61402d565b5b0492506008810190505b6127108310612a1d576127108381612a1357612a1261402d565b5b0492506004810190505b60648310612a405760648381612a3657612a3561402d565b5b0492506002810190505b600a8310612a4f576001810190505b80915050919050565b60007f01ffc9a7000000000000000000000000000000000000000000000000000000007bffffffffffffffffffffffffffffffffffffffffffffffffffffffff1916827bffffffffffffffffffffffffffffffffffffffffffffffffffffffff1916149050919050565b50505050565b600c80549050600d600083815260200190815260200160002081905550600c81908060018154018082558091505060019003906000526020600020016000909190919091505550565b60006001612b1e84611436565b612b2891906140f0565b90506000600b6000848152602001908152602001600020549050818114612c0d576000600a60008673ffffffffffffffffffffffffffffffffffffffff1673ffffffffffffffffffffffffffffffffffffffff168152602001908152602001600020600084815260200190815260200160002054905080600a60008773ffffffffffffffffffffffffffffffffffffffff1673ffffffffffffffffffffffffffffffffffffffff16815260200190815260200160002060008481526020019081526020016000208190555081600b600083815260200190815260200160002081905550505b600b600084815260200190815260200160002060009055600a60008573ffffffffffffffffffffffffffffffffffffffff1673ffffffffffffffffffffffffffffffffffffffff16815260200190815260200160002060008381526020019081526020016000206000905550505050565b60006001600c80549050612c9291906140f0565b90506000600d60008481526020019081526020016000205490506000600c8381548110612cc257612cc1613941565b5b9060005260206000200154905080600c8381548110612ce457612ce3613941565b5b906000526020600020018190555081600d600083815260200190815260200160002081905550600d600085815260200190815260200160002060009055600c805480612d3357612d326149b6565b5b6001900381819060005260206000200160009055905550505050565b6000612d5a83611436565b905081600a60008573ffffffffffffffffffffffffffffffffffffffff1673ffffffffffffffffffffffffffffffffffffffff16815260200190815260200160002060008381526020019081526020016000208190555080600b600084815260200190815260200160002081905550505050565b6060612df48273ffffffffffffffffffffffffffffffffffffffff16601460ff16612dfb565b9050919050565b606060006002836002612e0e91906149e5565b612e1891906140bc565b67ffffffffffffffff811115612e3157612e30613270565b5b6040519080825280601f01601f191660200182016040528015612e635781602001600182028036833780820191505090505b5090507f300000000000000000000000000000000000000000000000000000000000000081600081518110612e9b57612e9a613941565b5b60200101907effffffffffffffffffffffffffffffffffffffffffffffffffffffffffffff1916908160001a9053507f780000000000000000000000000000000000000000000000000000000000000081600181518110612eff57612efe613941565b5b60200101907effffffffffffffffffffffffffffffffffffffffffffffffffffffffffffff1916908160001a90535060006001846002612f3f91906149e5565b612f4991906140bc565b90505b6001811115612fe9577f3031323334353637383961626364656600000000000000000000000000000000600f861660108110612f8b57612f8a613941565b5b1a60f81b828281518110612fa257612fa1613941565b5b60200101907effffffffffffffffffffffffffffffffffffffffffffffffffffffffffffff1916908160001a905350600485901c945080612fe290614a27565b9050612f4c565b506000841461302d576040517f08c379a000000000000000000000000000000000000000000000000000000000815260040161302490614a9c565b60405180910390fd5b8091505092915050565b604051806040016040528060008152602001600081525090565b6000604051905090565b600080fd5b600080fd5b60007fffffffff0000000000000000000000000000000000000000000000000000000082169050919050565b61309a81613065565b81146130a557600080fd5b50565b6000813590506130b781613091565b92915050565b6000602082840312156130d3576130d261305b565b5b60006130e1848285016130a8565b91505092915050565b60008115159050919050565b6130ff816130ea565b82525050565b600060208201905061311a60008301846130f6565b92915050565b600081519050919050565b600082825260208201905092915050565b60005b8381101561315a57808201518184015260208101905061313f565b60008484015250505050565b6000601f19601f8301169050919050565b600061318282613120565b61318c818561312b565b935061319c81856020860161313c565b6131a581613166565b840191505092915050565b600060208201905081810360008301526131ca8184613177565b905092915050565b600073ffffffffffffffffffffffffffffffffffffffff82169050919050565b60006131fd826131d2565b9050919050565b61320d816131f2565b811461321857600080fd5b50565b60008135905061322a81613204565b92915050565b6000819050919050565b61324381613230565b811461324e57600080fd5b50565b6000813590506132608161323a565b92915050565b600080fd5b600080fd5b7f4e487b7100000000000000000000000000000000000000000000000000000000600052604160045260246000fd5b6132a882613166565b810181811067ffffffffffffffff821117156132c7576132c6613270565b5b80604052505050565b60006132da613051565b90506132e6828261329f565b919050565b600067ffffffffffffffff82111561330657613305613270565b5b61330f82613166565b9050602081019050919050565b82818337600083830152505050565b600061333e613339846132eb565b6132d0565b90508281526020810184848401111561335a5761335961326b565b5b61336584828561331c565b509392505050565b600082601f83011261338257613381613266565b5b813561339284826020860161332b565b91505092915050565b600080600080608085870312156133b5576133b461305b565b5b60006133c38782880161321b565b94505060206133d48782880161321b565b93505060406133e587828801613251565b925050606085013567ffffffffffffffff81111561340657613405613060565b5b6134128782880161336d565b91505092959194509250565b61342781613065565b82525050565b6000602082019050613442600083018461341e565b92915050565b60006020828403121561345e5761345d61305b565b5b600061346c8482850161321b565b91505092915050565b600081519050919050565b600082825260208201905092915050565b6000819050602082019050919050565b6134aa81613230565b82525050565b6040820160008201516134c660008501826134a1565b5060208201516134d960208501826134a1565b50505050565b60006134eb83836134b0565b60408301905092915050565b6000602082019050919050565b600061350f82613475565b6135198185613480565b935061352483613491565b8060005b8381101561355557815161353c88826134df565b9750613547836134f7565b925050600181019050613528565b5085935050505092915050565b6000602082019050818103600083015261357c8184613504565b905092915050565b61358d81613230565b82525050565b60006020820190506135a86000830184613584565b92915050565b6000806000606084860312156135c7576135c661305b565b5b60006135d58682870161321b565b93505060206135e68682870161321b565b92505060406135f786828701613251565b9150509250925092565b6000819050919050565b61361481613601565b811461361f57600080fd5b50565b6000813590506136318161360b565b92915050565b60006020828403121561364d5761364c61305b565b5b600061365b84828501613622565b91505092915050565b61366d81613601565b82525050565b60006020820190506136886000830184613664565b92915050565b600080604083850312156136a5576136a461305b565b5b60006136b385828601613622565b92505060206136c48582860161321b565b9150509250929050565b600080604083850312156136e5576136e461305b565b5b60006136f38582860161321b565b925050602061370485828601613251565b9150509250929050565b600067ffffffffffffffff82111561372957613728613270565b5b61373282613166565b9050602081019050919050565b600061375261374d8461370e565b6132d0565b90508281526020810184848401111561376e5761376d61326b565b5b61377984828561331c565b509392505050565b600082601f83011261379657613795613266565b5b81356137a684826020860161373f565b91505092915050565b6000602082840312156137c5576137c461305b565b5b600082013567ffffffffffffffff8111156137e3576137e2613060565b5b6137ef84828501613781565b91505092915050565b60006020828403121561380e5761380d61305b565b5b600061381c84828501613251565b91505092915050565b600060408201905061383a6000830185613584565b6138476020830184613584565b9392505050565b613857816131f2565b82525050565b6000602082019050613872600083018461384e565b92915050565b6000806040838503121561388f5761388e61305b565b5b600061389d85828601613251565b92505060206138ae85828601613251565b9150509250929050565b60006040820190506138cd600083018561384e565b6138da6020830184613584565b9392505050565b7f4e487b7100000000000000000000000000000000000000000000000000000000600052602260045260246000fd5b6000600282049050600182168061392857607f821691505b60208210810361393b5761393a6138e1565b5b50919050565b7f4e487b7100000000000000000000000000000000000000000000000000000000600052603260045260246000fd5b7f43616c6c6572206973206e6f7420616e2061646d696e00000000000000000000600082015250565b60006139a660168361312b565b91506139b182613970565b602082019050919050565b600060208201905081810360008301526139d581613999565b9050919050565b7f455243373231456e756d657261626c653a206f776e657220696e646578206f7560008201527f74206f6620626f756e6473000000000000000000000000000000000000000000602082015250565b6000613a38602b8361312b565b9150613a43826139dc565b604082019050919050565b60006020820190508181036000830152613a6781613a2b565b9050919050565b60008190508160005260206000209050919050565b60006020601f8301049050919050565b600082821b905092915050565b600060088302613ad07fffffffffffffffffffffffffffffffffffffffffffffffffffffffffffffffff82613a93565b613ada8683613a93565b95508019841693508086168417925050509392505050565b6000819050919050565b6000613b17613b12613b0d84613230565b613af2565b613230565b9050919050565b6000819050919050565b613b3183613afc565b613b45613b3d82613b1e565b848454613aa0565b825550505050565b600090565b613b5a613b4d565b613b65818484613b28565b505050565b5b81811015613b8957613b7e600082613b52565b600181019050613b6b565b5050565b601f821115613bce57613b9f81613a6e565b613ba884613a83565b81016020851015613bb7578190505b613bcb613bc385613a83565b830182613b6a565b50505b505050565b600082821c905092915050565b6000613bf160001984600802613bd3565b1980831691505092915050565b6000613c0a8383613be0565b9150826002028217905092915050565b613c2382613120565b67ffffffffffffffff811115613c3c57613c3b613270565b5b613c468254613910565b613c51828285613b8d565b600060209050601f831160018114613c845760008415613c72578287015190505b613c7c8582613bfe565b865550613ce4565b601f198416613c9286613a6e565b60005b82811015613cba57848901518255600182019150602085019450602081019050613c95565b86831015613cd75784890151613cd3601f891682613be0565b8355505b6001600288020188555050505b505050505050565b7f596f7520617265206e6f74207468652073656c6c657200000000000000000000600082015250565b6000613d2260168361312b565b9150613d2d82613cec565b602082019050919050565b60006020820190508181036000830152613d5181613d15565b9050919050565b7f416363657373436f6e74726f6c3a2063616e206f6e6c792072656e6f756e636560008201527f20726f6c657320666f722073656c660000000000000000000000000000000000602082015250565b6000613db4602f8361312b565b9150613dbf82613d58565b604082019050919050565b60006020820190508181036000830152613de381613da7565b9050919050565b7f455243373231456e756d657261626c653a20676c6f62616c20696e646578206f60008201527f7574206f6620626f756e64730000000000000000000000000000000000000000602082015250565b6000613e46602c8361312b565b9150613e5182613dea565b604082019050919050565b60006020820190508181036000830152613e7581613e39565b9050919050565b7f4552433732313a20696e76616c696420746f6b656e2049440000000000000000600082015250565b6000613eb260188361312b565b9150613ebd82613e7c565b602082019050919050565b60006020820190508181036000830152613ee181613ea5565b9050919050565b7f496e73756666696369656e74207061796d656e74000000000000000000000000600082015250565b6000613f1e60148361312b565b9150613f2982613ee8565b602082019050919050565b60006020820190508181036000830152613f4d81613f11565b9050919050565b6000819050919050565b613f6f613f6a82613230565b613f54565b82525050565b60008160601b9050919050565b6000613f8d82613f75565b9050919050565b6000613f9f82613f82565b9050919050565b613fb7613fb2826131f2565b613f94565b82525050565b6000613fc98289613f5e565b602082019150613fd98288613f5e565b602082019150613fe98287613f5e565b602082019150613ff98286613fa6565b6014820191506140098285613f5e565b6020820191506140198284613f5e565b602082019150819050979650505050505050565b7f4e487b7100000000000000000000000000000000000000000000000000000000600052601260045260246000fd5b600061406782613230565b915061407283613230565b9250826140825761408161402d565b5b828206905092915050565b7f4e487b7100000000000000000000000000000000000000000000000000000000600052601160045260246000fd5b60006140c782613230565b91506140d283613230565b92508282019050808211156140ea576140e961408d565b5b92915050565b60006140fb82613230565b915061410683613230565b925082820390508181111561411e5761411d61408d565b5b92915050565b7f4552433732313a2061646472657373207a65726f206973206e6f74206120766160008201527f6c6964206f776e65720000000000000000000000000000000000000000000000602082015250565b600061418060298361312b565b915061418b82614124565b604082019050919050565b600060208201905081810360008301526141af81614173565b9050919050565b7f5072696365206d7573742062652067726561746572207468616e207a65726f00600082015250565b60006141ec601f8361312b565b91506141f7826141b6565b602082019050919050565b6000602082019050818103600083015261421b816141df565b9050919050565b7f596f7520617265206e6f7420746865206f776e6572206f662074686973204e4660008201527f5400000000000000000000000000000000000000000000000000000000000000602082015250565b600061427e60218361312b565b915061428982614222565b604082019050919050565b600060208201905081810360008301526142ad81614271565b9050919050565b7f4552433732314d657461646174613a2055524920717565727920666f72206e6f60008201527f6e6578697374656e7420746f6b656e0000000000000000000000000000000000602082015250565b6000614310602f8361312b565b915061431b826142b4565b604082019050919050565b6000602082019050818103600083015261433f81614303565b9050919050565b600081905092915050565b6000815461435e81613910565b6143688186614346565b945060018216600081146143835760018114614398576143cb565b60ff19831686528115158202860193506143cb565b6143a185613a6e565b60005b838110156143c3578154818901526001820191506020810190506143a4565b838801955050505b50505092915050565b60006143df82613120565b6143e98185614346565b93506143f981856020860161313c565b80840191505092915050565b7f2e6a736f6e000000000000000000000000000000000000000000000000000000600082015250565b600061443b600583614346565b915061444682614405565b600582019050919050565b600061445d8285614351565b915061446982846143d4565b91506144748261442e565b91508190509392505050565b7f54686973204e4654206973206e6f7420666f722073616c650000000000000000600082015250565b60006144b660188361312b565b91506144c182614480565b602082019050919050565b600060208201905081810360008301526144e5816144a9565b9050919050565b7f496e636f72726563742070726963650000000000000000000000000000000000600082015250565b6000614522600f8361312b565b915061452d826144ec565b602082019050919050565b6000602082019050818103600083015261455181614515565b9050919050565b7f4f776e61626c653a206e6577206f776e657220697320746865207a65726f206160008201527f6464726573730000000000000000000000000000000000000000000000000000602082015250565b60006145b460268361312b565b91506145bf82614558565b604082019050919050565b600060208201905081810360008301526145e3816145a7565b9050919050565b7f4552433732313a207472616e736665722066726f6d20696e636f72726563742060008201527f6f776e6572000000000000000000000000000000000000000000000000000000602082015250565b600061464660258361312b565b9150614651826145ea565b604082019050919050565b6000602082019050818103600083015261467581614639565b9050919050565b7f4552433732313a207472616e7366657220746f20746865207a65726f2061646460008201527f7265737300000000000000000000000000000000000000000000000000000000602082015250565b60006146d860248361312b565b91506146e38261467c565b604082019050919050565b60006020820190508181036000830152614707816146cb565b9050919050565b7f4552433732313a206d696e7420746f20746865207a65726f2061646472657373600082015250565b600061474460208361312b565b915061474f8261470e565b602082019050919050565b6000602082019050818103600083015261477381614737565b9050919050565b7f4552433732313a20746f6b656e20616c7265616479206d696e74656400000000600082015250565b60006147b0601c8361312b565b91506147bb8261477a565b602082019050919050565b600060208201905081810360008301526147df816147a3565b9050919050565b7f4f776e61626c653a2063616c6c6572206973206e6f7420746865206f776e6572600082015250565b600061481c60208361312b565b9150614827826147e6565b602082019050919050565b6000602082019050818103600083015261484b8161480f565b9050919050565b7f455243373231456e756d657261626c653a20636f6e736563757469766520747260008201527f616e7366657273206e6f7420737570706f727465640000000000000000000000602082015250565b60006148ae60358361312b565b91506148b982614852565b604082019050919050565b600060208201905081810360008301526148dd816148a1565b9050919050565b7f416363657373436f6e74726f6c3a206163636f756e7420000000000000000000600082015250565b600061491a601783614346565b9150614925826148e4565b601782019050919050565b7f206973206d697373696e6720726f6c6520000000000000000000000000000000600082015250565b6000614966601183614346565b915061497182614930565b601182019050919050565b60006149878261490d565b915061499382856143d4565b915061499e82614959565b91506149aa82846143d4565b91508190509392505050565b7f4e487b7100000000000000000000000000000000000000000000000000000000600052603160045260246000fd5b60006149f082613230565b91506149fb83613230565b9250828202614a0981613230565b91508282048414831517614a2057614a1f61408d565b5b5092915050565b6000614a3282613230565b915060008203614a4557614a4461408d565b5b600182039050919050565b7f537472696e67733a20686578206c656e67746820696e73756666696369656e74600082015250565b6000614a8660208361312b565b9150614a9182614a50565b602082019050919050565b60006020820190508181036000830152614ab581614a79565b905091905056fea26469706673582212208f91b55faf63e07873feef880493b41f1bfbf024370891f30f35f31acfb681d964736f6c63430008180033697066733a2f2f516d6466564e72714a32363846666d444235633754775a34315774337366356b4345537a62525a5a646b6566764a2f",
  "linkReferences": {},
  "deployedLinkReferences": {}
}