{
  "_format": "hh-sol-artifact-1",
  "contractName": "FishermanNFT",
  "sourceName": "contracts/FishermanNFT.sol",
  "abi": [
    {
      "inputs": [
        {
          "internalType": "uint256",
          "name": "_mintPrice",
          "type": "uint256"
        }
      ],
      "stateMutability": "nonpayable",
      "type": "constructor"
    },
    {
      "anonymous": false,
      "inputs": [
        {
          "indexed": true,
          "internalType": "address",
          "name": "newAdmin",
          "type": "address"
        }
      ],
      "name": "AdminAdded",
      "type": "event"
    },
    {
      "anonymous": false,
      "inputs": [
        {
          "indexed": true,
          "internalType": "address",
          "name": "removedAdmin",
          "type": "address"
        }
      ],
      "name": "AdminRemoved",
      "type": "event"
    },
    {
      "anonymous": false,
      "inputs": [
        {
          "indexed": true,
          "internalType": "address",
          "name": "to",
          "type": "address"
        },
        {
          "indexed": true,
          "internalType": "uint256",
          "name": "tokenId",
          "type": "uint256"
        },
        {
          "indexed": false,
          "internalType": "string",
          "name": "fishermanType",
          "type": "string"
        }
      ],
      "name": "FishermanMinted",
      "type": "event"
    },
    {
      "anonymous": false,
      "inputs": [
        {
          "indexed": true,
          "internalType": "uint256",
          "name": "tokenId",
          "type": "uint256"
        },
        {
          "indexed": true,
          "internalType": "address",
          "name": "seller",
          "type": "address"
        },
        {
          "indexed": false,
          "internalType": "uint256",
          "name": "price",
          "type": "uint256"
        }
      ],
      "name": "ItemListed",
      "type": "event"
    },
    {
      "anonymous": false,
      "inputs": [
        {
          "indexed": true,
          "internalType": "uint256",
          "name": "tokenId",
          "type": "uint256"
        },
        {
          "indexed": true,
          "internalType": "address",
          "name": "buyer",
          "type": "address"
        },
        {
          "indexed": false,
          "internalType": "uint256",
          "name": "price",
          "type": "uint256"
        }
      ],
      "name": "ItemSold",
      "type": "event"
    },
    {
      "anonymous": false,
      "inputs": [
        {
          "indexed": false,
          "internalType": "uint256",
          "name": "_tokenId",
          "type": "uint256"
        }
      ],
      "name": "MetadataUpdate",
      "type": "event"
    },
    {
      "anonymous": false,
      "inputs": [
        {
          "indexed": true,
          "internalType": "address",
          "name": "previousOwner",
          "type": "address"
        },
        {
          "indexed": true,
          "internalType": "address",
          "name": "newOwner",
          "type": "address"
        }
      ],
      "name": "OwnershipTransferred",
      "type": "event"
    },
    {
      "anonymous": false,
      "inputs": [
        {
          "indexed": true,
          "internalType": "bytes32",
          "name": "role",
          "type": "bytes32"
        },
        {
          "indexed": true,
          "internalType": "bytes32",
          "name": "previousAdminRole",
          "type": "bytes32"
        },
        {
          "indexed": true,
          "internalType": "bytes32",
          "name": "newAdminRole",
          "type": "bytes32"
        }
      ],
      "name": "RoleAdminChanged",
      "type": "event"
    },
    {
      "anonymous": false,
      "inputs": [
        {
          "indexed": true,
          "internalType": "bytes32",
          "name": "role",
          "type": "bytes32"
        },
        {
          "indexed": true,
          "internalType": "address",
          "name": "account",
          "type": "address"
        },
        {
          "indexed": true,
          "internalType": "address",
          "name": "sender",
          "type": "address"
        }
      ],
      "name": "RoleGranted",
      "type": "event"
    },
    {
      "anonymous": false,
      "inputs": [
        {
          "indexed": true,
          "internalType": "bytes32",
          "name": "role",
          "type": "bytes32"
        },
        {
          "indexed": true,
          "internalType": "address",
          "name": "account",
          "type": "address"
        },
        {
          "indexed": true,
          "internalType": "address",
          "name": "sender",
          "type": "address"
        }
      ],
      "name": "RoleRevoked",
      "type": "event"
    },
    {
      "anonymous": false,
      "inputs": [
        {
          "indexed": true,
          "internalType": "address",
          "name": "from",
          "type": "address"
        },
        {
          "indexed": true,
          "internalType": "address",
          "name": "to",
          "type": "address"
        },
        {
          "indexed": true,
          "internalType": "uint256",
          "name": "tokenId",
          "type": "uint256"
        }
      ],
      "name": "Transfer",
      "type": "event"
    },
    {
      "inputs": [],
      "name": "ADMIN_ROLE",
      "outputs": [
        {
          "internalType": "bytes32",
          "name": "",
          "type": "bytes32"
        }
      ],
      "stateMutability": "view",
      "type": "function"
    },
    {
      "inputs": [],
      "name": "DEFAULT_ADMIN_ROLE",
      "outputs": [
        {
          "internalType": "bytes32",
          "name": "",
          "type": "bytes32"
        }
      ],
      "stateMutability": "view",
      "type": "function"
    },
    {
      "inputs": [
        {
          "internalType": "address",
          "name": "owner",
          "type": "address"
        }
      ],
      "name": "balanceOf",
      "outputs": [
        {
          "internalType": "uint256",
          "name": "",
          "type": "uint256"
        }
      ],
      "stateMutability": "view",
      "type": "function"
    },
    {
      "inputs": [
        {
          "internalType": "uint256",
          "name": "tokenId",
          "type": "uint256"
        }
      ],
      "name": "buyItem",
      "outputs": [],
      "stateMutability": "payable",
      "type": "function"
    },
    {
      "inputs": [
        {
          "internalType": "uint256",
          "name": "tokenId",
          "type": "uint256"
        }
      ],
      "name": "cancelListing",
      "outputs": [],
      "stateMutability": "nonpayable",
      "type": "function"
    },
    {
      "inputs": [
        {
          "internalType": "uint256",
          "name": "tokenId",
          "type": "uint256"
        }
      ],
      "name": "getFishermanTypeByTokenId",
      "outputs": [
        {
          "internalType": "string",
          "name": "",
          "type": "string"
        }
      ],
      "stateMutability": "view",
      "type": "function"
    },
    {
      "inputs": [
        {
          "internalType": "address",
          "name": "owner",
          "type": "address"
        }
      ],
      "name": "getOwnedNFTs",
      "outputs": [
        {
          "components": [
            {
              "internalType": "uint256",
              "name": "tokenId",
              "type": "uint256"
            },
            {
              "internalType": "string",
              "name": "fishermanType",
              "type": "string"
            }
          ],
          "internalType": "struct FishermanNFT.FishermanNft[]",
          "name": "",
          "type": "tuple[]"
        }
      ],
      "stateMutability": "view",
      "type": "function"
    },
    {
      "inputs": [
        {
          "internalType": "bytes32",
          "name": "role",
          "type": "bytes32"
        }
      ],
      "name": "getRoleAdmin",
      "outputs": [
        {
          "internalType": "bytes32",
          "name": "",
          "type": "bytes32"
        }
      ],
      "stateMutability": "view",
      "type": "function"
    },
    {
      "inputs": [
        {
          "internalType": "bytes32",
          "name": "role",
          "type": "bytes32"
        },
        {
          "internalType": "address",
          "name": "account",
          "type": "address"
        }
      ],
      "name": "grantRole",
      "outputs": [],
      "stateMutability": "nonpayable",
      "type": "function"
    },
    {
      "inputs": [
        {
          "internalType": "bytes32",
          "name": "role",
          "type": "bytes32"
        },
        {
          "internalType": "address",
          "name": "account",
          "type": "address"
        }
      ],
      "name": "hasRole",
      "outputs": [
        {
          "internalType": "bool",
          "name": "",
          "type": "bool"
        }
      ],
      "stateMutability": "view",
      "type": "function"
    },
    {
      "inputs": [
        {
          "internalType": "uint256",
          "name": "tokenId",
          "type": "uint256"
        },
        {
          "internalType": "uint256",
          "name": "price",
          "type": "uint256"
        }
      ],
      "name": "listItem",
      "outputs": [],
      "stateMutability": "nonpayable",
      "type": "function"
    },
    {
      "inputs": [
        {
          "internalType": "uint256",
          "name": "",
          "type": "uint256"
        }
      ],
      "name": "listings",
      "outputs": [
        {
          "internalType": "address",
          "name": "seller",
          "type": "address"
        },
        {
          "internalType": "uint256",
          "name": "price",
          "type": "uint256"
        }
      ],
      "stateMutability": "view",
      "type": "function"
    },
    {
      "inputs": [
        {
          "internalType": "uint256",
          "name": "",
          "type": "uint256"
        }
      ],
      "name": "maxSupplies",
      "outputs": [
        {
          "internalType": "uint256",
          "name": "",
          "type": "uint256"
        }
      ],
      "stateMutability": "view",
      "type": "function"
    },
    {
      "inputs": [],
      "name": "mintFisherman",
      "outputs": [
        {
          "internalType": "uint256",
          "name": "",
          "type": "uint256"
        }
      ],
      "stateMutability": "payable",
      "type": "function"
    },
    {
      "inputs": [],
      "name": "mintPrice",
      "outputs": [
        {
          "internalType": "uint256",
          "name": "",
          "type": "uint256"
        }
      ],
      "stateMutability": "view",
      "type": "function"
    },
    {
      "inputs": [
        {
          "internalType": "uint256",
          "name": "",
          "type": "uint256"
        }
      ],
      "name": "mintedSupplies",
      "outputs": [
        {
          "internalType": "uint256",
          "name": "",
          "type": "uint256"
        }
      ],
      "stateMutability": "view",
      "type": "function"
    },
    {
      "inputs": [],
      "name": "name",
      "outputs": [
        {
          "internalType": "string",
          "name": "",
          "type": "string"
        }
      ],
      "stateMutability": "view",
      "type": "function"
    },
    {
      "inputs": [
        {
          "internalType": "address",
          "name": "",
          "type": "address"
        },
        {
          "internalType": "address",
          "name": "",
          "type": "address"
        },
        {
          "internalType": "uint256",
          "name": "",
          "type": "uint256"
        },
        {
          "internalType": "bytes",
          "name": "",
          "type": "bytes"
        }
      ],
      "name": "onERC721Received",
      "outputs": [
        {
          "internalType": "bytes4",
          "name": "",
          "type": "bytes4"
        }
      ],
      "stateMutability": "nonpayable",
      "type": "function"
    },
    {
      "inputs": [],
      "name": "owner",
      "outputs": [
        {
          "internalType": "address",
          "name": "",
          "type": "address"
        }
      ],
      "stateMutability": "view",
      "type": "function"
    },
    {
      "inputs": [
        {
          "internalType": "uint256",
          "name": "tokenId",
          "type": "uint256"
        }
      ],
      "name": "ownerOf",
      "outputs": [
        {
          "internalType": "address",
          "name": "",
          "type": "address"
        }
      ],
      "stateMutability": "view",
      "type": "function"
    },
    {
      "inputs": [
        {
          "internalType": "uint256",
          "name": "",
          "type": "uint256"
        }
      ],
      "name": "partOptions0",
      "outputs": [
        {
          "internalType": "uint8",
          "name": "",
          "type": "uint8"
        }
      ],
      "stateMutability": "view",
      "type": "function"
    },
    {
      "inputs": [
        {
          "internalType": "uint256",
          "name": "",
          "type": "uint256"
        }
      ],
      "name": "partOptions1",
      "outputs": [
        {
          "internalType": "uint8",
          "name": "",
          "type": "uint8"
        }
      ],
      "stateMutability": "view",
      "type": "function"
    },
    {
      "inputs": [
        {
          "internalType": "uint256",
          "name": "",
          "type": "uint256"
        }
      ],
      "name": "partOptions2",
      "outputs": [
        {
          "internalType": "uint8",
          "name": "",
          "type": "uint8"
        }
      ],
      "stateMutability": "view",
      "type": "function"
    },
    {
      "inputs": [],
      "name": "renounceOwnership",
      "outputs": [],
      "stateMutability": "nonpayable",
      "type": "function"
    },
    {
      "inputs": [
        {
          "internalType": "bytes32",
          "name": "role",
          "type": "bytes32"
        },
        {
          "internalType": "address",
          "name": "account",
          "type": "address"
        }
      ],
      "name": "renounceRole",
      "outputs": [],
      "stateMutability": "nonpayable",
      "type": "function"
    },
    {
      "inputs": [
        {
          "internalType": "bytes32",
          "name": "role",
          "type": "bytes32"
        },
        {
          "internalType": "address",
          "name": "account",
          "type": "address"
        }
      ],
      "name": "revokeRole",
      "outputs": [],
      "stateMutability": "nonpayable",
      "type": "function"
    },
    {
      "inputs": [
        {
          "internalType": "string",
          "name": "newBaseTokenURI",
          "type": "string"
        }
      ],
      "name": "setBaseTokenURI",
      "outputs": [],
      "stateMutability": "nonpayable",
      "type": "function"
    },
    {
      "inputs": [
        {
          "internalType": "uint256[]",
          "name": "newMaxSupplies",
          "type": "uint256[]"
        }
      ],
      "name": "setMaxSupplies",
      "outputs": [],
      "stateMutability": "nonpayable",
      "type": "function"
    },
    {
      "inputs": [
        {
          "internalType": "uint256",
          "name": "newMintPrice",
          "type": "uint256"
        }
      ],
      "name": "setMintPrice",
      "outputs": [],
      "stateMutability": "nonpayable",
      "type": "function"
    },
    {
      "inputs": [
        {
          "internalType": "uint256",
          "name": "typeIndex",
          "type": "uint256"
        },
        {
          "internalType": "uint8[9]",
          "name": "newOptions",
          "type": "uint8[9]"
        }
      ],
      "name": "setPartOptions",
      "outputs": [],
      "stateMutability": "nonpayable",
      "type": "function"
    },
    {
      "inputs": [
        {
          "internalType": "bytes4",
          "name": "interfaceId",
          "type": "bytes4"
        }
      ],
      "name": "supportsInterface",
      "outputs": [
        {
          "internalType": "bool",
          "name": "",
          "type": "bool"
        }
      ],
      "stateMutability": "view",
      "type": "function"
    },
    {
      "inputs": [],
      "name": "symbol",
      "outputs": [
        {
          "internalType": "string",
          "name": "",
          "type": "string"
        }
      ],
      "stateMutability": "view",
      "type": "function"
    },
    {
      "inputs": [
        {
          "internalType": "uint256",
          "name": "index",
          "type": "uint256"
        }
      ],
      "name": "tokenByIndex",
      "outputs": [
        {
          "internalType": "uint256",
          "name": "",
          "type": "uint256"
        }
      ],
      "stateMutability": "view",
      "type": "function"
    },
    {
      "inputs": [
        {
          "internalType": "address",
          "name": "owner",
          "type": "address"
        },
        {
          "internalType": "uint256",
          "name": "index",
          "type": "uint256"
        }
      ],
      "name": "tokenOfOwnerByIndex",
      "outputs": [
        {
          "internalType": "uint256",
          "name": "",
          "type": "uint256"
        }
      ],
      "stateMutability": "view",
      "type": "function"
    },
    {
      "inputs": [
        {
          "internalType": "uint256",
          "name": "tokenId",
          "type": "uint256"
        }
      ],
      "name": "tokenURI",
      "outputs": [
        {
          "internalType": "string",
          "name": "",
          "type": "string"
        }
      ],
      "stateMutability": "view",
      "type": "function"
    },
    {
      "inputs": [],
      "name": "totalSupply",
      "outputs": [
        {
          "internalType": "uint256",
          "name": "",
          "type": "uint256"
        }
      ],
      "stateMutability": "view",
      "type": "function"
    },
    {
      "inputs": [
        {
          "internalType": "address",
          "name": "from",
          "type": "address"
        },
        {
          "internalType": "address",
          "name": "to",
          "type": "address"
        },
        {
          "internalType": "uint256",
          "name": "tokenId",
          "type": "uint256"
        }
      ],
      "name": "transferFrom",
      "outputs": [],
      "stateMutability": "nonpayable",
      "type": "function"
    },
    {
      "inputs": [
        {
          "internalType": "address",
          "name": "newOwner",
          "type": "address"
        }
      ],
      "name": "transferOwnership",
      "outputs": [],
      "stateMutability": "nonpayable",
      "type": "function"
    },
    {
      "inputs": [
        {
          "internalType": "uint256",
          "name": "index",
          "type": "uint256"
        },
        {
          "internalType": "uint256",
          "name": "newMaxSupply",
          "type": "uint256"
        }
      ],
      "name": "updateMaxSupplyAt",
      "outputs": [],
      "stateMutability": "nonpayable",
      "type": "function"
    },
    {
      "inputs": [],
      "name": "withdraw",
      "outputs": [],
      "stateMutability": "nonpayable",
      "type": "function"
    }
  ],
  "bytecode": "0x6080604052604051806060016040528060368152602001620065e660369139601190816200002e9190620009a0565b50604051806101200160405280600160ff168152602001600160ff168152602001600560ff168152602001600560ff168152602001600560ff168152602001600560ff168152602001600560ff168152602001600560ff168152602001600560ff168152506016906009620000a5929190620005bb565b50604051806101200160405280600160ff168152602001600160ff168152602001600460ff168152602001600460ff168152602001600460ff168152602001600460ff168152602001600460ff168152602001600460ff168152602001600460ff1681525060179060096200011c929190620005bb565b50604051806101200160405280600160ff168152602001600160ff168152602001600360ff168152602001600360ff168152602001600360ff168152602001600360ff168152602001600360ff168152602001600360ff168152602001600360ff16815250601890600962000193929190620005bb565b50348015620001a157600080fd5b506040516200661c3803806200661c8339818101604052810190620001c7919062000abd565b6040518060400160405280600c81526020017f4669736865726d616e4e465400000000000000000000000000000000000000008152506040518060400160405280600381526020017f464d4e000000000000000000000000000000000000000000000000000000000081525062000253620002476200037c60201b60201c565b6200038460201b60201c565b8160019081620002649190620009a0565b508060029081620002769190620009a0565b50505080601281905550620002956000801b336200044860201b60201c565b620002c77fa49807205ce4d355092ef5a8a18f56e8913cf4a201fbe287825b095693c21775336200044860201b60201c565b60405180606001604052806201312d62ffffff16815260200161400062ffffff16815260200161088b62ffffff1681525060149060036200030a9291906200065c565b5060148054905067ffffffffffffffff8111156200032d576200032c62000731565b5b6040519080825280602002602001820160405280156200035c5781602001602082028036833780820191505090505b506015908051906020019062000374929190620006b5565b505062000aef565b600033905090565b60008060009054906101000a900473ffffffffffffffffffffffffffffffffffffffff169050816000806101000a81548173ffffffffffffffffffffffffffffffffffffffff021916908373ffffffffffffffffffffffffffffffffffffffff1602179055508173ffffffffffffffffffffffffffffffffffffffff168173ffffffffffffffffffffffffffffffffffffffff167f8be0079c531659141344cd1fd0a4f28419497f9722a3daafe3b4186f6b6457e060405160405180910390a35050565b6200045a82826200045e60201b60201c565b5050565b6200047082826200055060201b60201c565b6200054c5760016006600084815260200190815260200160002060000160008373ffffffffffffffffffffffffffffffffffffffff1673ffffffffffffffffffffffffffffffffffffffff16815260200190815260200160002060006101000a81548160ff021916908315150217905550620004f16200037c60201b60201c565b73ffffffffffffffffffffffffffffffffffffffff168173ffffffffffffffffffffffffffffffffffffffff16837f2f8788117e7eff1d82e926ec794901d17c78024a50270940304540a733656f0d60405160405180910390a45b5050565b60006006600084815260200190815260200160002060000160008373ffffffffffffffffffffffffffffffffffffffff1673ffffffffffffffffffffffffffffffffffffffff16815260200190815260200160002060009054906101000a900460ff16905092915050565b826009601f01602090048101928215620006495791602002820160005b838211156200061857835183826101000a81548160ff021916908360ff1602179055509260200192600101602081600001049283019260010302620005d8565b8015620006475782816101000a81549060ff021916905560010160208160000104928301926001030262000618565b505b50905062000658919062000707565b5090565b828054828255906000526020600020908101928215620006a2579160200282015b82811115620006a1578251829062ffffff169055916020019190600101906200067d565b5b509050620006b1919062000707565b5090565b828054828255906000526020600020908101928215620006f4579160200282015b82811115620006f3578251825591602001919060010190620006d6565b5b50905062000703919062000707565b5090565b5b808211156200072257600081600090555060010162000708565b5090565b600081519050919050565b7f4e487b7100000000000000000000000000000000000000000000000000000000600052604160045260246000fd5b7f4e487b7100000000000000000000000000000000000000000000000000000000600052602260045260246000fd5b60006002820490506001821680620007a857607f821691505b602082108103620007be57620007bd62000760565b5b50919050565b60008190508160005260206000209050919050565b60006020601f8301049050919050565b600082821b905092915050565b600060088302620008287fffffffffffffffffffffffffffffffffffffffffffffffffffffffffffffffff82620007e9565b620008348683620007e9565b95508019841693508086168417925050509392505050565b6000819050919050565b6000819050919050565b6000620008816200087b62000875846200084c565b62000856565b6200084c565b9050919050565b6000819050919050565b6200089d8362000860565b620008b5620008ac8262000888565b848454620007f6565b825550505050565b600090565b620008cc620008bd565b620008d981848462000892565b505050565b5b818110156200090157620008f5600082620008c2565b600181019050620008df565b5050565b601f82111562000950576200091a81620007c4565b6200092584620007d9565b8101602085101562000935578190505b6200094d6200094485620007d9565b830182620008de565b50505b505050565b600082821c905092915050565b6000620009756000198460080262000955565b1980831691505092915050565b600062000990838362000962565b9150826002028217905092915050565b620009ab8262000726565b67ffffffffffffffff811115620009c757620009c662000731565b5b620009d382546200078f565b620009e082828562000905565b600060209050601f83116001811462000a18576000841562000a03578287015190505b62000a0f858262000982565b86555062000a7f565b601f19841662000a2886620007c4565b60005b8281101562000a525784890151825560018201915060208501945060208101905062000a2b565b8683101562000a72578489015162000a6e601f89168262000962565b8355505b6001600288020188555050505b505050505050565b600080fd5b62000a97816200084c565b811462000aa357600080fd5b50565b60008151905062000ab78162000a8c565b92915050565b60006020828403121562000ad65762000ad562000a87565b5b600062000ae68482850162000aa6565b91505092915050565b615ae78062000aff6000396000f3fe60806040526004361061023b5760003560e01c806375b238fc1161012e578063be6f0ef1116100ab578063e7fb74c71161006f578063e7fb74c7146108fb578063f2fde38b14610917578063f42a7b7014610940578063f4a0a5281461097d578063fc0b5b1d146109a65761023b565b8063be6f0ef1146107dd578063c87b56dd1461081a578063d547741f14610857578063d70e761b14610880578063de74e57b146108bd5761023b565b806391d14854116100f257806391d148541461070357806395d89b411461074057806395e662871461076b578063a212a5cc14610794578063a217fddf146107b25761023b565b806375b238fc1461061e57806387962dcc14610649578063883efa67146106865780638ac103f7146106af5780638da5cb5b146106d85761023b565b806330176e13116101bc578063606733ed11610180578063606733ed146105255780636352211e146105625780636817c76c1461059f57806370a08231146105ca578063715018a6146106075761023b565b806330176e1314610456578063305a67a81461047f57806336568abe146104a85780633ccfd60b146104d15780634f6ccce7146104e85761023b565b806323b872dd1161020357806323b872dd1461034d5780632489fd5e14610376578063248a9ca3146103b35780632f2ff15d146103f05780632f745c59146104195761023b565b806301ffc9a71461024057806306fdde031461027d578063150b7a02146102a857806318148f1b146102e557806318160ddd14610322575b600080fd5b34801561024c57600080fd5b5061026760048036038101906102629190613e1f565b6109cf565b6040516102749190613e67565b60405180910390f35b34801561028957600080fd5b50610292610ab1565b60405161029f9190613f12565b60405180910390f35b3480156102b457600080fd5b506102cf60048036038101906102ca91906140fd565b610b43565b6040516102dc919061418f565b60405180910390f35b3480156102f157600080fd5b5061030c600480360381019061030791906141aa565b610b57565b604051610319919061432f565b60405180910390f35b34801561032e57600080fd5b50610337610d8c565b6040516103449190614360565b60405180910390f35b34801561035957600080fd5b50610374600480360381019061036f919061437b565b610d99565b005b34801561038257600080fd5b5061039d600480360381019061039891906143ce565b610e12565b6040516103aa9190614360565b60405180910390f35b3480156103bf57600080fd5b506103da60048036038101906103d59190614431565b610e36565b6040516103e7919061446d565b60405180910390f35b3480156103fc57600080fd5b5061041760048036038101906104129190614488565b610e56565b005b34801561042557600080fd5b50610440600480360381019061043b91906144c8565b610e77565b60405161044d9190614360565b60405180910390f35b34801561046257600080fd5b5061047d600480360381019061047891906145a9565b610f1c565b005b34801561048b57600080fd5b506104a660048036038101906104a191906143ce565b610f98565b005b3480156104b457600080fd5b506104cf60048036038101906104ca9190614488565b6110e0565b005b3480156104dd57600080fd5b506104e6611163565b005b3480156104f457600080fd5b5061050f600480360381019061050a91906143ce565b6111c1565b60405161051c9190614360565b60405180910390f35b34801561053157600080fd5b5061054c600480360381019061054791906143ce565b6111fc565b604051610559919061460e565b60405180910390f35b34801561056e57600080fd5b50610589600480360381019061058491906143ce565b611226565b6040516105969190614638565b60405180910390f35b3480156105ab57600080fd5b506105b46112ac565b6040516105c19190614360565b60405180910390f35b3480156105d657600080fd5b506105f160048036038101906105ec91906141aa565b6112b2565b6040516105fe9190614360565b60405180910390f35b34801561061357600080fd5b5061061c611369565b005b34801561062a57600080fd5b5061063361137d565b604051610640919061446d565b60405180910390f35b34801561065557600080fd5b50610670600480360381019061066b91906143ce565b6113a1565b60405161067d9190614360565b60405180910390f35b34801561069257600080fd5b506106ad60048036038101906106a89190614653565b6113c5565b005b3480156106bb57600080fd5b506106d660048036038101906106d19190614775565b611502565b005b3480156106e457600080fd5b506106ed6115ce565b6040516106fa9190614638565b60405180910390f35b34801561070f57600080fd5b5061072a60048036038101906107259190614488565b6115f7565b6040516107379190613e67565b60405180910390f35b34801561074c57600080fd5b50610755611662565b6040516107629190613f12565b60405180910390f35b34801561077757600080fd5b50610792600480360381019061078d9190614879565b6116f4565b005b61079c611852565b6040516107a99190614360565b60405180910390f35b3480156107be57600080fd5b506107c7611e88565b6040516107d4919061446d565b60405180910390f35b3480156107e957600080fd5b5061080460048036038101906107ff91906143ce565b611e8f565b604051610811919061460e565b60405180910390f35b34801561082657600080fd5b50610841600480360381019061083c91906143ce565b611eb9565b60405161084e9190613f12565b60405180910390f35b34801561086357600080fd5b5061087e60048036038101906108799190614488565b611fb3565b005b34801561088c57600080fd5b506108a760048036038101906108a291906143ce565b611fd4565b6040516108b4919061460e565b60405180910390f35b3480156108c957600080fd5b506108e460048036038101906108df91906143ce565b611ffe565b6040516108f29291906148c2565b60405180910390f35b610915600480360381019061091091906143ce565b612042565b005b34801561092357600080fd5b5061093e600480360381019061093991906141aa565b612243565b005b34801561094c57600080fd5b50610967600480360381019061096291906143ce565b612290565b6040516109749190613f12565b60405180910390f35b34801561098957600080fd5b506109a4600480360381019061099f91906143ce565b612335565b005b3480156109b257600080fd5b506109cd60048036038101906109c89190614653565b6123a8565b005b60007f304ad1f2000000000000000000000000000000000000000000000000000000007bffffffffffffffffffffffffffffffffffffffffffffffffffffffff1916827bffffffffffffffffffffffffffffffffffffffffffffffffffffffff19161480610a9a57507f5b5e139f000000000000000000000000000000000000000000000000000000007bffffffffffffffffffffffffffffffffffffffffffffffffffffffff1916827bffffffffffffffffffffffffffffffffffffffffffffffffffffffff1916145b80610aaa5750610aa982612474565b5b9050919050565b606060078054610ac09061491a565b80601f0160208091040260200160405190810160405280929190818152602001828054610aec9061491a565b8015610b395780601f10610b0e57610100808354040283529160200191610b39565b820191906000526020600020905b815481529060010190602001808311610b1c57829003601f168201915b5050505050905090565b600063150b7a0260e01b9050949350505050565b60606000610b64836112b2565b905060008167ffffffffffffffff811115610b8257610b81613fd2565b5b604051908082528060200260200182016040528015610bb05781602001602082028036833780820191505090505b50905060008267ffffffffffffffff811115610bcf57610bce613fd2565b5b604051908082528060200260200182016040528015610c0257816020015b6060815260200190600190039081610bed5790505b50905060005b83811015610c4657610c1a8682610e77565b838281518110610c2d57610c2c61494b565b5b6020026020010181815250508080600101915050610c08565b5060005b8251811015610ca157610c76838281518110610c6957610c6861494b565b5b6020026020010151612290565b828281518110610c8957610c8861494b565b5b60200260200101819052508080600101915050610c4a565b5060008367ffffffffffffffff811115610cbe57610cbd613fd2565b5b604051908082528060200260200182016040528015610cf757816020015b610ce4613c72565b815260200190600190039081610cdc5790505b50905060005b84811015610d7f5760006040518060400160405280868481518110610d2557610d2461494b565b5b60200260200101518152602001858481518110610d4557610d4461494b565b5b6020026020010151815250905080838381518110610d6657610d6561494b565b5b6020026020010181905250508080600101915050610cfd565b5080945050505050919050565b6000600e80549050905090565b610dc37fa49807205ce4d355092ef5a8a18f56e8913cf4a201fbe287825b095693c21775336115f7565b610e02576040517f08c379a0000000000000000000000000000000000000000000000000000000008152600401610df9906149c6565b60405180910390fd5b610e0d8383836124ee565b505050565b60158181548110610e2257600080fd5b906000526020600020016000915090505481565b600060066000838152602001908152602001600020600101549050919050565b610e5f82610e36565b610e68816127e7565b610e7283836127fb565b505050565b6000610e82836112b2565b8210610ec3576040517f08c379a0000000000000000000000000000000000000000000000000000000008152600401610eba90614a32565b60405180910390fd5b600b60008473ffffffffffffffffffffffffffffffffffffffff1673ffffffffffffffffffffffffffffffffffffffff168152602001908152602001600020600083815260200190815260200160002054905092915050565b610f467fa49807205ce4d355092ef5a8a18f56e8913cf4a201fbe287825b095693c21775336115f7565b610f85576040517f08c379a0000000000000000000000000000000000000000000000000000000008152600401610f7c906149c6565b60405180910390fd5b8060119081610f949190614bfe565b5050565b6000601360008381526020019081526020016000206040518060400160405290816000820160009054906101000a900473ffffffffffffffffffffffffffffffffffffffff1673ffffffffffffffffffffffffffffffffffffffff1673ffffffffffffffffffffffffffffffffffffffff16815260200160018201548152505090503373ffffffffffffffffffffffffffffffffffffffff16816000015173ffffffffffffffffffffffffffffffffffffffff161461108c576040517f08c379a000000000000000000000000000000000000000000000000000000000815260040161108390614d1c565b60405180910390fd5b60136000838152602001908152602001600020600080820160006101000a81549073ffffffffffffffffffffffffffffffffffffffff0219169055600182016000905550506110dc3033846128dc565b5050565b6110e86128ec565b73ffffffffffffffffffffffffffffffffffffffff168173ffffffffffffffffffffffffffffffffffffffff1614611155576040517f08c379a000000000000000000000000000000000000000000000000000000000815260040161114c90614dae565b60405180910390fd5b61115f82826128f4565b5050565b61116b6129d6565b60004790506111786115ce565b73ffffffffffffffffffffffffffffffffffffffff166108fc829081150290604051600060405180830381858888f193505050501580156111bd573d6000803e3d6000fd5b5050565b60006111cb610d8c565b82106111d657600080fd5b600e82815481106111ea576111e961494b565b5b90600052602060002001549050919050565b6017816009811061120c57600080fd5b60209182820401919006915054906101000a900460ff1681565b60008061123283612a54565b9050600073ffffffffffffffffffffffffffffffffffffffff168173ffffffffffffffffffffffffffffffffffffffff16036112a3576040517f08c379a000000000000000000000000000000000000000000000000000000000815260040161129a90614e1a565b60405180910390fd5b80915050919050565b60125481565b60008073ffffffffffffffffffffffffffffffffffffffff168273ffffffffffffffffffffffffffffffffffffffff1603611322576040517f08c379a000000000000000000000000000000000000000000000000000000000815260040161131990614eac565b60405180910390fd5b600460008373ffffffffffffffffffffffffffffffffffffffff1673ffffffffffffffffffffffffffffffffffffffff168152602001908152602001600020549050919050565b6113716129d6565b61137b6000612a91565b565b7fa49807205ce4d355092ef5a8a18f56e8913cf4a201fbe287825b095693c2177581565b601481815481106113b157600080fd5b906000526020600020016000915090505481565b600081116113d257600080fd5b3373ffffffffffffffffffffffffffffffffffffffff166113f283611226565b73ffffffffffffffffffffffffffffffffffffffff161461141257600080fd5b61141d3330846128dc565b60405180604001604052803373ffffffffffffffffffffffffffffffffffffffff168152602001828152506013600084815260200190815260200160002060008201518160000160006101000a81548173ffffffffffffffffffffffffffffffffffffffff021916908373ffffffffffffffffffffffffffffffffffffffff160217905550602082015181600101559050503373ffffffffffffffffffffffffffffffffffffffff16827fc93edc6ee14cd6c0c2842099adfa8953b237dbdad304ba28e96dce8a7f2a828c836040516114f69190614360565b60405180910390a35050565b61152c7fa49807205ce4d355092ef5a8a18f56e8913cf4a201fbe287825b095693c21775336115f7565b61156b576040517f08c379a0000000000000000000000000000000000000000000000000000000008152600401611562906149c6565b60405180910390fd5b6003821061157857600080fd5b6000820361159757806016906009611591929190613c8c565b506115ca565b600182036115b6578060179060096115b0929190613c8c565b506115c9565b8060189060096115c7929190613c8c565b505b5b5050565b60008060009054906101000a900473ffffffffffffffffffffffffffffffffffffffff16905090565b60006006600084815260200190815260200160002060000160008373ffffffffffffffffffffffffffffffffffffffff1673ffffffffffffffffffffffffffffffffffffffff16815260200190815260200160002060009054906101000a900460ff16905092915050565b6060600880546116719061491a565b80601f016020809104026020016040519081016040528092919081815260200182805461169d9061491a565b80156116ea5780601f106116bf576101008083540402835291602001916116ea565b820191906000526020600020905b8154815290600101906020018083116116cd57829003601f168201915b5050505050905090565b61171e7fa49807205ce4d355092ef5a8a18f56e8913cf4a201fbe287825b095693c21775336115f7565b61175d576040517f08c379a0000000000000000000000000000000000000000000000000000000008152600401611754906149c6565b60405180910390fd5b6015805490508151101561177057600080fd5b60005b81518110156117dc576015805490508110156117cf576015818154811061179d5761179c61494b565b5b90600052602060002001548282815181106117bb576117ba61494b565b5b602002602001015110156117ce57600080fd5b5b8080600101915050611773565b5080601490805190602001906117f3929190613d26565b506015805490508151111561184f57600060158054905090505b815181101561184d57601560009080600181540180825580915050600190039060005260206000200160009091909190915055808060010191505061180d565b505b50565b6000601254341015611899576040517f08c379a000000000000000000000000000000000000000000000000000000000815260040161189090614f18565b60405180910390fd5b6000600160646118a7612b55565b6118b19190614f67565b6118bb9190614fc7565b90506000604782116118d057600090506118e7565b606382116118e157600190506118e6565b600290505b5b601481815481106118fb576118fa61494b565b5b90600052602060002001546015828154811061191a5761191961494b565b5b906000526020600020015410611965576040517f08c379a000000000000000000000000000000000000000000000000000000000815260040161195c90615047565b60405180910390fd5b60006119716009612b90565b905061197d6009612b9e565b611985613d73565b600083036119f85760166009806020026040519081016040528092919082600980156119ec576020028201916000905b82829054906101000a900460ff1660ff16815260200190600101906020826000010492830192600103820291508084116119b55790505b50505050509050611ad3565b60018303611a6b576017600980602002604051908101604052809291908260098015611a5f576020028201916000905b82829054906101000a900460ff1660ff1681526020019060010190602082600001049283019260010382029150808411611a285790505b50505050509050611ad2565b6018600980602002604051908101604052809291908260098015611aca576020028201916000905b82829054906101000a900460ff1660ff1681526020019060010190602082600001049283019260010382029150808411611a935790505b505050505090505b5b606060005b80611d2e57611ae5613d73565b600186611af29190614fc7565b81600060098110611b0657611b0561494b565b5b602002019060ff16908160ff16815250506000600190505b60098160ff161015611ba0576001858260ff1660098110611b4257611b4161494b565b5b602002015160ff16611b52612b55565b611b5c9190614f67565b611b669190614fc7565b828260ff1660098110611b7c57611b7b61494b565b5b602002019060ff16908160ff16815250508080611b9890615067565b915050611b1e565b50611bc281600060098110611bb857611bb761494b565b5b6020020151612bb4565b611be382600160098110611bd957611bd861494b565b5b6020020151612bb4565b611c0483600260098110611bfa57611bf961494b565b5b6020020151612bb4565b611c2584600360098110611c1b57611c1a61494b565b5b6020020151612bb4565b611c4685600460098110611c3c57611c3b61494b565b5b6020020151612bb4565b611c6786600560098110611c5d57611c5c61494b565b5b6020020151612bb4565b611c8887600660098110611c7e57611c7d61494b565b5b6020020151612bb4565b611ca988600760098110611c9f57611c9e61494b565b5b6020020151612bb4565b611cca89600860098110611cc057611cbf61494b565b5b6020020151612bb4565b604051602001611ce2999897969594939291906150cc565b6040516020818303038152906040529250601083604051611d03919061514b565b908152602001604051809103902060009054906101000a900460ff16611d2857600191505b50611ad8565b60158581548110611d4257611d4161494b565b5b906000526020600020016000815480929190611d5d90615162565b9190505550611d6c3385612c02565b611d768483612e1f565b81600d60008681526020019081526020016000209081611d969190614bfe565b506001601083604051611da9919061514b565b908152602001604051809103902060006101000a81548160ff021916908315150217905550833373ffffffffffffffffffffffffffffffffffffffff167f8ee4b9f15ee011f61a4a6c5a5e7aec5d3ce89e5190a2b7d3609d6f2a5b492f6884604051611e159190613f12565b60405180910390a3601254341115611e7c573373ffffffffffffffffffffffffffffffffffffffff166108fc60125434611e4f91906151aa565b9081150290604051600060405180830381858888f19350505050158015611e7a573d6000803e3d6000fd5b505b83965050505050505090565b6000801b81565b60168160098110611e9f57600080fd5b60209182820401919006915054906101000a900460ff1681565b6060611ec482612eaf565b611ecd57600080fd5b6000600a60008481526020019081526020016000208054611eed9061491a565b80601f0160208091040260200160405190810160405280929190818152602001828054611f199061491a565b8015611f665780601f10611f3b57610100808354040283529160200191611f66565b820191906000526020600020905b815481529060010190602001808311611f4957829003601f168201915b505050505090506000611f77612ef0565b90506000815103611f8c578192505050611fae565b600082511115611fa0578192505050611fae565b611fa984612f82565b925050505b919050565b611fbc82610e36565b611fc5816127e7565b611fcf83836128f4565b505050565b60188160098110611fe457600080fd5b60209182820401919006915054906101000a900460ff1681565b60136020528060005260406000206000915090508060000160009054906101000a900473ffffffffffffffffffffffffffffffffffffffff16908060010154905082565b6000601360008381526020019081526020016000206040518060400160405290816000820160009054906101000a900473ffffffffffffffffffffffffffffffffffffffff1673ffffffffffffffffffffffffffffffffffffffff1673ffffffffffffffffffffffffffffffffffffffff1681526020016001820154815250509050600081602001511161210b576040517f08c379a00000000000000000000000000000000000000000000000000000000081526004016121029061522a565b60405180910390fd5b80602001513414612151576040517f08c379a000000000000000000000000000000000000000000000000000000000815260040161214890615296565b60405180910390fd5b60136000838152602001908152602001600020600080820160006101000a81549073ffffffffffffffffffffffffffffffffffffffff0219169055600182016000905550506121a13033846128dc565b806000015173ffffffffffffffffffffffffffffffffffffffff166108fc349081150290604051600060405180830381858888f193505050501580156121eb573d6000803e3d6000fd5b503373ffffffffffffffffffffffffffffffffffffffff16827fa574c741071bb18f51fa88c17aeefec514bebf670ca22a3736fba6504ecbb76383602001516040516122379190614360565b60405180910390a35050565b61224b6129d6565b600073ffffffffffffffffffffffffffffffffffffffff168173ffffffffffffffffffffffffffffffffffffffff160361228457600080fd5b61228d81612a91565b50565b6060600d600083815260200190815260200160002080546122b09061491a565b80601f01602080910402602001604051908101604052809291908181526020018280546122dc9061491a565b80156123295780601f106122fe57610100808354040283529160200191612329565b820191906000526020600020905b81548152906001019060200180831161230c57829003601f168201915b50505050509050919050565b61235f7fa49807205ce4d355092ef5a8a18f56e8913cf4a201fbe287825b095693c21775336115f7565b61239e576040517f08c379a0000000000000000000000000000000000000000000000000000000008152600401612395906149c6565b60405180910390fd5b8060128190555050565b6123d27fa49807205ce4d355092ef5a8a18f56e8913cf4a201fbe287825b095693c21775336115f7565b612411576040517f08c379a0000000000000000000000000000000000000000000000000000000008152600401612408906149c6565b60405180910390fd5b601480549050821061242257600080fd5b601582815481106124365761243561494b565b5b906000526020600020015481101561244d57600080fd5b80601483815481106124625761246161494b565b5b90600052602060002001819055505050565b60007f7965db0b000000000000000000000000000000000000000000000000000000007bffffffffffffffffffffffffffffffffffffffffffffffffffffffff1916827bffffffffffffffffffffffffffffffffffffffffffffffffffffffff191614806124e757506124e682612fea565b5b9050919050565b8273ffffffffffffffffffffffffffffffffffffffff1661250e82611226565b73ffffffffffffffffffffffffffffffffffffffff1614612564576040517f08c379a000000000000000000000000000000000000000000000000000000000815260040161255b90615328565b60405180910390fd5b600073ffffffffffffffffffffffffffffffffffffffff168273ffffffffffffffffffffffffffffffffffffffff16036125d3576040517f08c379a00000000000000000000000000000000000000000000000000000000081526004016125ca906153ba565b60405180910390fd5b6125e083838360016130cc565b8273ffffffffffffffffffffffffffffffffffffffff1661260082611226565b73ffffffffffffffffffffffffffffffffffffffff1614612656576040517f08c379a000000000000000000000000000000000000000000000000000000000815260040161264d90615328565b60405180910390fd5b6005600082815260200190815260200160002060006101000a81549073ffffffffffffffffffffffffffffffffffffffff02191690556001600460008573ffffffffffffffffffffffffffffffffffffffff1673ffffffffffffffffffffffffffffffffffffffff168152602001908152602001600020600082825403925050819055506001600460008473ffffffffffffffffffffffffffffffffffffffff1673ffffffffffffffffffffffffffffffffffffffff16815260200190815260200160002060008282540192505081905550816003600083815260200190815260200160002060006101000a81548173ffffffffffffffffffffffffffffffffffffffff021916908373ffffffffffffffffffffffffffffffffffffffff160217905550808273ffffffffffffffffffffffffffffffffffffffff168473ffffffffffffffffffffffffffffffffffffffff167fddf252ad1be2c89b69c2b068fc378daa952ba7f163c4a11628f55a4df523b3ef60405160405180910390a46127e2838383600161322a565b505050565b6127f8816127f36128ec565b613230565b50565b61280582826115f7565b6128d85760016006600084815260200190815260200160002060000160008373ffffffffffffffffffffffffffffffffffffffff1673ffffffffffffffffffffffffffffffffffffffff16815260200190815260200160002060006101000a81548160ff02191690831515021790555061287d6128ec565b73ffffffffffffffffffffffffffffffffffffffff168173ffffffffffffffffffffffffffffffffffffffff16837f2f8788117e7eff1d82e926ec794901d17c78024a50270940304540a733656f0d60405160405180910390a45b5050565b6128e78383836124ee565b505050565b600033905090565b6128fe82826115f7565b156129d25760006006600084815260200190815260200160002060000160008373ffffffffffffffffffffffffffffffffffffffff1673ffffffffffffffffffffffffffffffffffffffff16815260200190815260200160002060006101000a81548160ff0219169083151502179055506129776128ec565b73ffffffffffffffffffffffffffffffffffffffff168173ffffffffffffffffffffffffffffffffffffffff16837ff6391f5c32d9c69d2a47ea670b442974b53935d1edc7fd64eb21e047a839171b60405160405180910390a45b5050565b6129de6128ec565b73ffffffffffffffffffffffffffffffffffffffff166129fc6115ce565b73ffffffffffffffffffffffffffffffffffffffff1614612a52576040517f08c379a0000000000000000000000000000000000000000000000000000000008152600401612a4990615426565b60405180910390fd5b565b60006003600083815260200190815260200160002060009054906101000a900473ffffffffffffffffffffffffffffffffffffffff169050919050565b60008060009054906101000a900473ffffffffffffffffffffffffffffffffffffffff169050816000806101000a81548173ffffffffffffffffffffffffffffffffffffffff021916908373ffffffffffffffffffffffffffffffffffffffff1602179055508173ffffffffffffffffffffffffffffffffffffffff168173ffffffffffffffffffffffffffffffffffffffff167f8be0079c531659141344cd1fd0a4f28419497f9722a3daafe3b4186f6b6457e060405160405180910390a35050565b6000424443335a47604051602001612b72969594939291906154af565b6040516020818303038152906040528051906020012060001c905090565b600081600001549050919050565b6001816000016000828254019250508190555050565b6060600a8260ff161015612bf157612bcb826132b5565b604051602001612bdb919061556b565b6040516020818303038152906040529050612bfd565b612bfa826132b5565b90505b919050565b600073ffffffffffffffffffffffffffffffffffffffff168273ffffffffffffffffffffffffffffffffffffffff1603612c71576040517f08c379a0000000000000000000000000000000000000000000000000000000008152600401612c68906155d9565b60405180910390fd5b612c7a81612eaf565b15612cba576040517f08c379a0000000000000000000000000000000000000000000000000000000008152600401612cb190615645565b60405180910390fd5b612cc86000838360016130cc565b612cd181612eaf565b15612d11576040517f08c379a0000000000000000000000000000000000000000000000000000000008152600401612d0890615645565b60405180910390fd5b6001600460008473ffffffffffffffffffffffffffffffffffffffff1673ffffffffffffffffffffffffffffffffffffffff16815260200190815260200160002060008282540192505081905550816003600083815260200190815260200160002060006101000a81548173ffffffffffffffffffffffffffffffffffffffff021916908373ffffffffffffffffffffffffffffffffffffffff160217905550808273ffffffffffffffffffffffffffffffffffffffff16600073ffffffffffffffffffffffffffffffffffffffff167fddf252ad1be2c89b69c2b068fc378daa952ba7f163c4a11628f55a4df523b3ef60405160405180910390a4612e1b60008383600161322a565b5050565b612e2882612eaf565b612e3157600080fd5b601181604051602001612e45929190615734565b604051602081830303815290604052600a60008481526020019081526020016000209081612e739190614bfe565b507ff8e1a15aba9398e019f0b49df1a4fde98ee17ae345cb5f6b5e2c27f5033e8ce782604051612ea39190614360565b60405180910390a15050565b60008073ffffffffffffffffffffffffffffffffffffffff16612ed183612a54565b73ffffffffffffffffffffffffffffffffffffffff1614159050919050565b606060118054612eff9061491a565b80601f0160208091040260200160405190810160405280929190818152602001828054612f2b9061491a565b8015612f785780601f10612f4d57610100808354040283529160200191612f78565b820191906000526020600020905b815481529060010190602001808311612f5b57829003601f168201915b5050505050905090565b6060612f8d82613427565b6000612f97612ef0565b90506000815111612fb75760405180602001604052806000815250612fe2565b80612fc184613472565b604051602001612fd2929190615763565b6040516020818303038152906040525b915050919050565b60007f304ad1f2000000000000000000000000000000000000000000000000000000007bffffffffffffffffffffffffffffffffffffffffffffffffffffffff1916827bffffffffffffffffffffffffffffffffffffffffffffffffffffffff191614806130b557507f5b5e139f000000000000000000000000000000000000000000000000000000007bffffffffffffffffffffffffffffffffffffffffffffffffffffffff1916827bffffffffffffffffffffffffffffffffffffffffffffffffffffffff1916145b806130c557506130c482613540565b5b9050919050565b6130d8848484846135aa565b600181111561311c576040517f08c379a0000000000000000000000000000000000000000000000000000000008152600401613113906157f9565b60405180910390fd5b6000829050600073ffffffffffffffffffffffffffffffffffffffff168573ffffffffffffffffffffffffffffffffffffffff16036131635761315e816135b0565b6131a2565b8373ffffffffffffffffffffffffffffffffffffffff168573ffffffffffffffffffffffffffffffffffffffff16146131a1576131a085826135f9565b5b5b600073ffffffffffffffffffffffffffffffffffffffff168473ffffffffffffffffffffffffffffffffffffffff16036131e4576131df81613766565b613223565b8473ffffffffffffffffffffffffffffffffffffffff168473ffffffffffffffffffffffffffffffffffffffff1614613222576132218482613837565b5b5b5050505050565b50505050565b61323a82826115f7565b6132b157613247816138b6565b6132558360001c60206138e3565b6040516020016132669291906158b1565b6040516020818303038152906040526040517f08c379a00000000000000000000000000000000000000000000000000000000081526004016132a89190613f12565b60405180910390fd5b5050565b606060008260ff16036132ff576040518060400160405280600181526020017f30000000000000000000000000000000000000000000000000000000000000008152509050613422565b600082905060005b60008260ff161461333457808061331d90615067565b915050600a8261332d91906158eb565b9150613307565b60008160ff1667ffffffffffffffff81111561335357613352613fd2565b5b6040519080825280601f01601f1916602001820160405280156133855781602001600182028036833780820191505090505b50905060008290505b60008660ff161461341a57600a866133a6919061591c565b60306133b2919061594d565b60f81b82826133c090615982565b92508260ff16815181106133d7576133d661494b565b5b60200101907effffffffffffffffffffffffffffffffffffffffffffffffffffffffffffff1916908160001a905350600a8661341391906158eb565b955061338e565b819450505050505b919050565b61343081612eaf565b61346f576040517f08c379a000000000000000000000000000000000000000000000000000000000815260040161346690614e1a565b60405180910390fd5b50565b60606000600161348184613b1f565b01905060008167ffffffffffffffff8111156134a05761349f613fd2565b5b6040519080825280601f01601f1916602001820160405280156134d25781602001600182028036833780820191505090505b509050600082602001820190505b600115613535578080600190039150507f3031323334353637383961626364656600000000000000000000000000000000600a86061a8153600a858161352957613528614f38565b5b049450600085036134e0575b819350505050919050565b60007f01ffc9a7000000000000000000000000000000000000000000000000000000007bffffffffffffffffffffffffffffffffffffffffffffffffffffffff1916827bffffffffffffffffffffffffffffffffffffffffffffffffffffffff1916149050919050565b50505050565b600e80549050600f600083815260200190815260200160002081905550600e81908060018154018082558091505060019003906000526020600020016000909190919091505550565b60006001613606846112b2565b61361091906151aa565b90506000600c60008481526020019081526020016000205490508181146136f5576000600b60008673ffffffffffffffffffffffffffffffffffffffff1673ffffffffffffffffffffffffffffffffffffffff168152602001908152602001600020600084815260200190815260200160002054905080600b60008773ffffffffffffffffffffffffffffffffffffffff1673ffffffffffffffffffffffffffffffffffffffff16815260200190815260200160002060008481526020019081526020016000208190555081600c600083815260200190815260200160002081905550505b600c600084815260200190815260200160002060009055600b60008573ffffffffffffffffffffffffffffffffffffffff1673ffffffffffffffffffffffffffffffffffffffff16815260200190815260200160002060008381526020019081526020016000206000905550505050565b60006001600e8054905061377a91906151aa565b90506000600f60008481526020019081526020016000205490506000600e83815481106137aa576137a961494b565b5b9060005260206000200154905080600e83815481106137cc576137cb61494b565b5b906000526020600020018190555081600f600083815260200190815260200160002081905550600f600085815260200190815260200160002060009055600e80548061381b5761381a6159ab565b5b6001900381819060005260206000200160009055905550505050565b6000613842836112b2565b905081600b60008573ffffffffffffffffffffffffffffffffffffffff1673ffffffffffffffffffffffffffffffffffffffff16815260200190815260200160002060008381526020019081526020016000208190555080600c600084815260200190815260200160002081905550505050565b60606138dc8273ffffffffffffffffffffffffffffffffffffffff16601460ff166138e3565b9050919050565b6060600060028360026138f691906159da565b6139009190614fc7565b67ffffffffffffffff81111561391957613918613fd2565b5b6040519080825280601f01601f19166020018201604052801561394b5781602001600182028036833780820191505090505b5090507f3000000000000000000000000000000000000000000000000000000000000000816000815181106139835761398261494b565b5b60200101907effffffffffffffffffffffffffffffffffffffffffffffffffffffffffffff1916908160001a9053507f7800000000000000000000000000000000000000000000000000000000000000816001815181106139e7576139e661494b565b5b60200101907effffffffffffffffffffffffffffffffffffffffffffffffffffffffffffff1916908160001a90535060006001846002613a2791906159da565b613a319190614fc7565b90505b6001811115613ad1577f3031323334353637383961626364656600000000000000000000000000000000600f861660108110613a7357613a7261494b565b5b1a60f81b828281518110613a8a57613a8961494b565b5b60200101907effffffffffffffffffffffffffffffffffffffffffffffffffffffffffffff1916908160001a905350600485901c945080613aca90615a1c565b9050613a34565b5060008414613b15576040517f08c379a0000000000000000000000000000000000000000000000000000000008152600401613b0c90615a91565b60405180910390fd5b8091505092915050565b600080600090507a184f03e93ff9f4daa797ed6e38ed64bf6a1f0100000000000000008310613b7d577a184f03e93ff9f4daa797ed6e38ed64bf6a1f0100000000000000008381613b7357613b72614f38565b5b0492506040810190505b6d04ee2d6d415b85acef81000000008310613bba576d04ee2d6d415b85acef81000000008381613bb057613baf614f38565b5b0492506020810190505b662386f26fc100008310613be957662386f26fc100008381613bdf57613bde614f38565b5b0492506010810190505b6305f5e1008310613c12576305f5e1008381613c0857613c07614f38565b5b0492506008810190505b6127108310613c37576127108381613c2d57613c2c614f38565b5b0492506004810190505b60648310613c5a5760648381613c5057613c4f614f38565b5b0492506002810190505b600a8310613c69576001810190505b80915050919050565b604051806040016040528060008152602001606081525090565b826009601f01602090048101928215613d155791602002820160005b83821115613ce657835183826101000a81548160ff021916908360ff1602179055509260200192600101602081600001049283019260010302613ca8565b8015613d135782816101000a81549060ff0219169055600101602081600001049283019260010302613ce6565b505b509050613d229190613d96565b5090565b828054828255906000526020600020908101928215613d62579160200282015b82811115613d61578251825591602001919060010190613d46565b5b509050613d6f9190613d96565b5090565b604051806101200160405280600990602082028036833780820191505090505090565b5b80821115613daf576000816000905550600101613d97565b5090565b6000604051905090565b600080fd5b600080fd5b60007fffffffff0000000000000000000000000000000000000000000000000000000082169050919050565b613dfc81613dc7565b8114613e0757600080fd5b50565b600081359050613e1981613df3565b92915050565b600060208284031215613e3557613e34613dbd565b5b6000613e4384828501613e0a565b91505092915050565b60008115159050919050565b613e6181613e4c565b82525050565b6000602082019050613e7c6000830184613e58565b92915050565b600081519050919050565b600082825260208201905092915050565b60005b83811015613ebc578082015181840152602081019050613ea1565b60008484015250505050565b6000601f19601f8301169050919050565b6000613ee482613e82565b613eee8185613e8d565b9350613efe818560208601613e9e565b613f0781613ec8565b840191505092915050565b60006020820190508181036000830152613f2c8184613ed9565b905092915050565b600073ffffffffffffffffffffffffffffffffffffffff82169050919050565b6000613f5f82613f34565b9050919050565b613f6f81613f54565b8114613f7a57600080fd5b50565b600081359050613f8c81613f66565b92915050565b6000819050919050565b613fa581613f92565b8114613fb057600080fd5b50565b600081359050613fc281613f9c565b92915050565b600080fd5b600080fd5b7f4e487b7100000000000000000000000000000000000000000000000000000000600052604160045260246000fd5b61400a82613ec8565b810181811067ffffffffffffffff8211171561402957614028613fd2565b5b80604052505050565b600061403c613db3565b90506140488282614001565b919050565b600067ffffffffffffffff82111561406857614067613fd2565b5b61407182613ec8565b9050602081019050919050565b82818337600083830152505050565b60006140a061409b8461404d565b614032565b9050828152602081018484840111156140bc576140bb613fcd565b5b6140c784828561407e565b509392505050565b600082601f8301126140e4576140e3613fc8565b5b81356140f484826020860161408d565b91505092915050565b6000806000806080858703121561411757614116613dbd565b5b600061412587828801613f7d565b945050602061413687828801613f7d565b935050604061414787828801613fb3565b925050606085013567ffffffffffffffff81111561416857614167613dc2565b5b614174878288016140cf565b91505092959194509250565b61418981613dc7565b82525050565b60006020820190506141a46000830184614180565b92915050565b6000602082840312156141c0576141bf613dbd565b5b60006141ce84828501613f7d565b91505092915050565b600081519050919050565b600082825260208201905092915050565b6000819050602082019050919050565b61420c81613f92565b82525050565b600082825260208201905092915050565b600061422e82613e82565b6142388185614212565b9350614248818560208601613e9e565b61425181613ec8565b840191505092915050565b60006040830160008301516142746000860182614203565b506020830151848203602086015261428c8282614223565b9150508091505092915050565b60006142a5838361425c565b905092915050565b6000602082019050919050565b60006142c5826141d7565b6142cf81856141e2565b9350836020820285016142e1856141f3565b8060005b8581101561431d57848403895281516142fe8582614299565b9450614309836142ad565b925060208a019950506001810190506142e5565b50829750879550505050505092915050565b6000602082019050818103600083015261434981846142ba565b905092915050565b61435a81613f92565b82525050565b60006020820190506143756000830184614351565b92915050565b60008060006060848603121561439457614393613dbd565b5b60006143a286828701613f7d565b93505060206143b386828701613f7d565b92505060406143c486828701613fb3565b9150509250925092565b6000602082840312156143e4576143e3613dbd565b5b60006143f284828501613fb3565b91505092915050565b6000819050919050565b61440e816143fb565b811461441957600080fd5b50565b60008135905061442b81614405565b92915050565b60006020828403121561444757614446613dbd565b5b60006144558482850161441c565b91505092915050565b614467816143fb565b82525050565b6000602082019050614482600083018461445e565b92915050565b6000806040838503121561449f5761449e613dbd565b5b60006144ad8582860161441c565b92505060206144be85828601613f7d565b9150509250929050565b600080604083850312156144df576144de613dbd565b5b60006144ed85828601613f7d565b92505060206144fe85828601613fb3565b9150509250929050565b600067ffffffffffffffff82111561452357614522613fd2565b5b61452c82613ec8565b9050602081019050919050565b600061454c61454784614508565b614032565b90508281526020810184848401111561456857614567613fcd565b5b61457384828561407e565b509392505050565b600082601f8301126145905761458f613fc8565b5b81356145a0848260208601614539565b91505092915050565b6000602082840312156145bf576145be613dbd565b5b600082013567ffffffffffffffff8111156145dd576145dc613dc2565b5b6145e98482850161457b565b91505092915050565b600060ff82169050919050565b614608816145f2565b82525050565b600060208201905061462360008301846145ff565b92915050565b61463281613f54565b82525050565b600060208201905061464d6000830184614629565b92915050565b6000806040838503121561466a57614669613dbd565b5b600061467885828601613fb3565b925050602061468985828601613fb3565b9150509250929050565b600067ffffffffffffffff8211156146ae576146ad613fd2565b5b602082029050919050565b600080fd5b6146c7816145f2565b81146146d257600080fd5b50565b6000813590506146e4816146be565b92915050565b60006146fd6146f884614693565b614032565b90508060208402830185811115614717576147166146b9565b5b835b81811015614740578061472c88826146d5565b845260208401935050602081019050614719565b5050509392505050565b600082601f83011261475f5761475e613fc8565b5b600961476c8482856146ea565b91505092915050565b600080610140838503121561478d5761478c613dbd565b5b600061479b85828601613fb3565b92505060206147ac8582860161474a565b9150509250929050565b600067ffffffffffffffff8211156147d1576147d0613fd2565b5b602082029050602081019050919050565b60006147f56147f0846147b6565b614032565b90508083825260208201905060208402830185811115614818576148176146b9565b5b835b81811015614841578061482d8882613fb3565b84526020840193505060208101905061481a565b5050509392505050565b600082601f8301126148605761485f613fc8565b5b81356148708482602086016147e2565b91505092915050565b60006020828403121561488f5761488e613dbd565b5b600082013567ffffffffffffffff8111156148ad576148ac613dc2565b5b6148b98482850161484b565b91505092915050565b60006040820190506148d76000830185614629565b6148e46020830184614351565b9392505050565b7f4e487b7100000000000000000000000000000000000000000000000000000000600052602260045260246000fd5b6000600282049050600182168061493257607f821691505b602082108103614945576149446148eb565b5b50919050565b7f4e487b7100000000000000000000000000000000000000000000000000000000600052603260045260246000fd5b7f3330310000000000000000000000000000000000000000000000000000000000600082015250565b60006149b0600383613e8d565b91506149bb8261497a565b602082019050919050565b600060208201905081810360008301526149df816149a3565b9050919050565b7f3100000000000000000000000000000000000000000000000000000000000000600082015250565b6000614a1c600183613e8d565b9150614a27826149e6565b602082019050919050565b60006020820190508181036000830152614a4b81614a0f565b9050919050565b60008190508160005260206000209050919050565b60006020601f8301049050919050565b600082821b905092915050565b600060088302614ab47fffffffffffffffffffffffffffffffffffffffffffffffffffffffffffffffff82614a77565b614abe8683614a77565b95508019841693508086168417925050509392505050565b6000819050919050565b6000614afb614af6614af184613f92565b614ad6565b613f92565b9050919050565b6000819050919050565b614b1583614ae0565b614b29614b2182614b02565b848454614a84565b825550505050565b600090565b614b3e614b31565b614b49818484614b0c565b505050565b5b81811015614b6d57614b62600082614b36565b600181019050614b4f565b5050565b601f821115614bb257614b8381614a52565b614b8c84614a67565b81016020851015614b9b578190505b614baf614ba785614a67565b830182614b4e565b50505b505050565b600082821c905092915050565b6000614bd560001984600802614bb7565b1980831691505092915050565b6000614bee8383614bc4565b9150826002028217905092915050565b614c0782613e82565b67ffffffffffffffff811115614c2057614c1f613fd2565b5b614c2a825461491a565b614c35828285614b71565b600060209050601f831160018114614c685760008415614c56578287015190505b614c608582614be2565b865550614cc8565b601f198416614c7686614a52565b60005b82811015614c9e57848901518255600182019150602085019450602081019050614c79565b86831015614cbb5784890151614cb7601f891682614bc4565b8355505b6001600288020188555050505b505050505050565b7f3130350000000000000000000000000000000000000000000000000000000000600082015250565b6000614d06600383613e8d565b9150614d1182614cd0565b602082019050919050565b60006020820190508181036000830152614d3581614cf9565b9050919050565b7f416363657373436f6e74726f6c3a2063616e206f6e6c792072656e6f756e636560008201527f20726f6c657320666f722073656c660000000000000000000000000000000000602082015250565b6000614d98602f83613e8d565b9150614da382614d3c565b604082019050919050565b60006020820190508181036000830152614dc781614d8b565b9050919050565b7f4552433732313a20696e76616c696420746f6b656e2049440000000000000000600082015250565b6000614e04601883613e8d565b9150614e0f82614dce565b602082019050919050565b60006020820190508181036000830152614e3381614df7565b9050919050565b7f4552433732313a2061646472657373207a65726f206973206e6f74206120766160008201527f6c6964206f776e65720000000000000000000000000000000000000000000000602082015250565b6000614e96602983613e8d565b9150614ea182614e3a565b604082019050919050565b60006020820190508181036000830152614ec581614e89565b9050919050565b7f496e73756666696369656e74207061796d656e74000000000000000000000000600082015250565b6000614f02601483613e8d565b9150614f0d82614ecc565b602082019050919050565b60006020820190508181036000830152614f3181614ef5565b9050919050565b7f4e487b7100000000000000000000000000000000000000000000000000000000600052601260045260246000fd5b6000614f7282613f92565b9150614f7d83613f92565b925082614f8d57614f8c614f38565b5b828206905092915050565b7f4e487b7100000000000000000000000000000000000000000000000000000000600052601160045260246000fd5b6000614fd282613f92565b9150614fdd83613f92565b9250828201905080821115614ff557614ff4614f98565b5b92915050565b7f3130360000000000000000000000000000000000000000000000000000000000600082015250565b6000615031600383613e8d565b915061503c82614ffb565b602082019050919050565b6000602082019050818103600083015261506081615024565b9050919050565b6000615072826145f2565b915060ff820361508557615084614f98565b5b600182019050919050565b600081905092915050565b60006150a682613e82565b6150b08185615090565b93506150c0818560208601613e9e565b80840191505092915050565b60006150d8828c61509b565b91506150e4828b61509b565b91506150f0828a61509b565b91506150fc828961509b565b9150615108828861509b565b9150615114828761509b565b9150615120828661509b565b915061512c828561509b565b9150615138828461509b565b91508190509a9950505050505050505050565b6000615157828461509b565b915081905092915050565b600061516d82613f92565b91507fffffffffffffffffffffffffffffffffffffffffffffffffffffffffffffffff820361519f5761519e614f98565b5b600182019050919050565b60006151b582613f92565b91506151c083613f92565b92508282039050818111156151d8576151d7614f98565b5b92915050565b7f3130370000000000000000000000000000000000000000000000000000000000600082015250565b6000615214600383613e8d565b915061521f826151de565b602082019050919050565b6000602082019050818103600083015261524381615207565b9050919050565b7f3130380000000000000000000000000000000000000000000000000000000000600082015250565b6000615280600383613e8d565b915061528b8261524a565b602082019050919050565b600060208201905081810360008301526152af81615273565b9050919050565b7f4552433732313a207472616e736665722066726f6d20696e636f72726563742060008201527f6f776e6572000000000000000000000000000000000000000000000000000000602082015250565b6000615312602583613e8d565b915061531d826152b6565b604082019050919050565b6000602082019050818103600083015261534181615305565b9050919050565b7f4552433732313a207472616e7366657220746f20746865207a65726f2061646460008201527f7265737300000000000000000000000000000000000000000000000000000000602082015250565b60006153a4602483613e8d565b91506153af82615348565b604082019050919050565b600060208201905081810360008301526153d381615397565b9050919050565b7f4f776e61626c653a2063616c6c6572206973206e6f7420746865206f776e6572600082015250565b6000615410602083613e8d565b915061541b826153da565b602082019050919050565b6000602082019050818103600083015261543f81615403565b9050919050565b6000819050919050565b61546161545c82613f92565b615446565b82525050565b60008160601b9050919050565b600061547f82615467565b9050919050565b600061549182615474565b9050919050565b6154a96154a482613f54565b615486565b82525050565b60006154bb8289615450565b6020820191506154cb8288615450565b6020820191506154db8287615450565b6020820191506154eb8286615498565b6014820191506154fb8285615450565b60208201915061550b8284615450565b602082019150819050979650505050505050565b7f3000000000000000000000000000000000000000000000000000000000000000600082015250565b6000615555600183615090565b91506155608261551f565b600182019050919050565b600061557682615548565b9150615582828461509b565b915081905092915050565b7f4552433732313a206d696e7420746f20746865207a65726f2061646472657373600082015250565b60006155c3602083613e8d565b91506155ce8261558d565b602082019050919050565b600060208201905081810360008301526155f2816155b6565b9050919050565b7f4552433732313a20746f6b656e20616c7265616479206d696e74656400000000600082015250565b600061562f601c83613e8d565b915061563a826155f9565b602082019050919050565b6000602082019050818103600083015261565e81615622565b9050919050565b600081546156728161491a565b61567c8186615090565b9450600182166000811461569757600181146156ac576156df565b60ff19831686528115158202860193506156df565b6156b585614a52565b60005b838110156156d7578154818901526001820191506020810190506156b8565b838801955050505b50505092915050565b7f2e6a736f6e000000000000000000000000000000000000000000000000000000600082015250565b600061571e600583615090565b9150615729826156e8565b600582019050919050565b60006157408285615665565b915061574c828461509b565b915061575782615711565b91508190509392505050565b600061576f828561509b565b915061577b828461509b565b91508190509392505050565b7f455243373231456e756d657261626c653a20636f6e736563757469766520747260008201527f616e7366657273206e6f7420737570706f727465640000000000000000000000602082015250565b60006157e3603583613e8d565b91506157ee82615787565b604082019050919050565b60006020820190508181036000830152615812816157d6565b9050919050565b7f416363657373436f6e74726f6c3a206163636f756e7420000000000000000000600082015250565b600061584f601783615090565b915061585a82615819565b601782019050919050565b7f206973206d697373696e6720726f6c6520000000000000000000000000000000600082015250565b600061589b601183615090565b91506158a682615865565b601182019050919050565b60006158bc82615842565b91506158c8828561509b565b91506158d38261588e565b91506158df828461509b565b91508190509392505050565b60006158f6826145f2565b9150615901836145f2565b92508261591157615910614f38565b5b828204905092915050565b6000615927826145f2565b9150615932836145f2565b92508261594257615941614f38565b5b828206905092915050565b6000615958826145f2565b9150615963836145f2565b9250828201905060ff81111561597c5761597b614f98565b5b92915050565b600061598d826145f2565b9150600082036159a05761599f614f98565b5b600182039050919050565b7f4e487b7100000000000000000000000000000000000000000000000000000000600052603160045260246000fd5b60006159e582613f92565b91506159f083613f92565b92508282026159fe81613f92565b91508282048414831517615a1557615a14614f98565b5b5092915050565b6000615a2782613f92565b915060008203615a3a57615a39614f98565b5b600182039050919050565b7f537472696e67733a20686578206c656e67746820696e73756666696369656e74600082015250565b6000615a7b602083613e8d565b9150615a8682615a45565b602082019050919050565b60006020820190508181036000830152615aaa81615a6e565b905091905056fea26469706673582212200141d86375c82df16bf0353e181421bf4d197ea6a88d542416c3e28b59643b8664736f6c63430008180033697066733a2f2f516d62384872684d7266787261634459526e364c5a704d6a4c74694a454744796d33613771624153704a476f596a2f",
  "linkReferences": {},
  "deployedLinkReferences": {}
}