{
  "_format": "hh-sol-artifact-1",
  "contractName": "FishermanNFT",
  "sourceName": "contracts/FishermanNFT.sol",
  "abi": [
    {
      "inputs": [
        {
          "internalType": "uint256",
          "name": "_mintPrice",
          "type": "uint256"
        }
      ],
      "stateMutability": "nonpayable",
      "type": "constructor"
    },
    {
      "anonymous": false,
      "inputs": [
        {
          "indexed": true,
          "internalType": "address",
          "name": "newAdmin",
          "type": "address"
        }
      ],
      "name": "AdminAdded",
      "type": "event"
    },
    {
      "anonymous": false,
      "inputs": [
        {
          "indexed": true,
          "internalType": "address",
          "name": "removedAdmin",
          "type": "address"
        }
      ],
      "name": "AdminRemoved",
      "type": "event"
    },
    {
      "anonymous": false,
      "inputs": [
        {
          "indexed": true,
          "internalType": "address",
          "name": "to",
          "type": "address"
        },
        {
          "indexed": true,
          "internalType": "uint256",
          "name": "tokenId",
          "type": "uint256"
        },
        {
          "indexed": false,
          "internalType": "uint256",
          "name": "fishermanType",
          "type": "uint256"
        }
      ],
      "name": "FishermanMinted",
      "type": "event"
    },
    {
      "anonymous": false,
      "inputs": [
        {
          "indexed": true,
          "internalType": "uint256",
          "name": "tokenId",
          "type": "uint256"
        },
        {
          "indexed": true,
          "internalType": "address",
          "name": "seller",
          "type": "address"
        },
        {
          "indexed": false,
          "internalType": "uint256",
          "name": "price",
          "type": "uint256"
        }
      ],
      "name": "ItemListed",
      "type": "event"
    },
    {
      "anonymous": false,
      "inputs": [
        {
          "indexed": true,
          "internalType": "uint256",
          "name": "tokenId",
          "type": "uint256"
        },
        {
          "indexed": true,
          "internalType": "address",
          "name": "buyer",
          "type": "address"
        },
        {
          "indexed": false,
          "internalType": "uint256",
          "name": "price",
          "type": "uint256"
        }
      ],
      "name": "ItemSold",
      "type": "event"
    },
    {
      "anonymous": false,
      "inputs": [
        {
          "indexed": false,
          "internalType": "uint256",
          "name": "_tokenId",
          "type": "uint256"
        }
      ],
      "name": "MetadataUpdate",
      "type": "event"
    },
    {
      "anonymous": false,
      "inputs": [
        {
          "indexed": true,
          "internalType": "address",
          "name": "previousOwner",
          "type": "address"
        },
        {
          "indexed": true,
          "internalType": "address",
          "name": "newOwner",
          "type": "address"
        }
      ],
      "name": "OwnershipTransferred",
      "type": "event"
    },
    {
      "anonymous": false,
      "inputs": [
        {
          "indexed": true,
          "internalType": "bytes32",
          "name": "role",
          "type": "bytes32"
        },
        {
          "indexed": true,
          "internalType": "bytes32",
          "name": "previousAdminRole",
          "type": "bytes32"
        },
        {
          "indexed": true,
          "internalType": "bytes32",
          "name": "newAdminRole",
          "type": "bytes32"
        }
      ],
      "name": "RoleAdminChanged",
      "type": "event"
    },
    {
      "anonymous": false,
      "inputs": [
        {
          "indexed": true,
          "internalType": "bytes32",
          "name": "role",
          "type": "bytes32"
        },
        {
          "indexed": true,
          "internalType": "address",
          "name": "account",
          "type": "address"
        },
        {
          "indexed": true,
          "internalType": "address",
          "name": "sender",
          "type": "address"
        }
      ],
      "name": "RoleGranted",
      "type": "event"
    },
    {
      "anonymous": false,
      "inputs": [
        {
          "indexed": true,
          "internalType": "bytes32",
          "name": "role",
          "type": "bytes32"
        },
        {
          "indexed": true,
          "internalType": "address",
          "name": "account",
          "type": "address"
        },
        {
          "indexed": true,
          "internalType": "address",
          "name": "sender",
          "type": "address"
        }
      ],
      "name": "RoleRevoked",
      "type": "event"
    },
    {
      "anonymous": false,
      "inputs": [
        {
          "indexed": true,
          "internalType": "address",
          "name": "from",
          "type": "address"
        },
        {
          "indexed": true,
          "internalType": "address",
          "name": "to",
          "type": "address"
        },
        {
          "indexed": true,
          "internalType": "uint256",
          "name": "tokenId",
          "type": "uint256"
        }
      ],
      "name": "Transfer",
      "type": "event"
    },
    {
      "inputs": [],
      "name": "ADMIN_ROLE",
      "outputs": [
        {
          "internalType": "bytes32",
          "name": "",
          "type": "bytes32"
        }
      ],
      "stateMutability": "view",
      "type": "function"
    },
    {
      "inputs": [],
      "name": "DEFAULT_ADMIN_ROLE",
      "outputs": [
        {
          "internalType": "bytes32",
          "name": "",
          "type": "bytes32"
        }
      ],
      "stateMutability": "view",
      "type": "function"
    },
    {
      "inputs": [
        {
          "internalType": "address",
          "name": "owner",
          "type": "address"
        }
      ],
      "name": "balanceOf",
      "outputs": [
        {
          "internalType": "uint256",
          "name": "",
          "type": "uint256"
        }
      ],
      "stateMutability": "view",
      "type": "function"
    },
    {
      "inputs": [
        {
          "internalType": "uint256",
          "name": "tokenId",
          "type": "uint256"
        }
      ],
      "name": "buyItem",
      "outputs": [],
      "stateMutability": "payable",
      "type": "function"
    },
    {
      "inputs": [
        {
          "internalType": "uint256",
          "name": "tokenId",
          "type": "uint256"
        }
      ],
      "name": "cancelListing",
      "outputs": [],
      "stateMutability": "nonpayable",
      "type": "function"
    },
    {
      "inputs": [
        {
          "internalType": "address",
          "name": "playAddress",
          "type": "address"
        }
      ],
      "name": "freeMintFisherman",
      "outputs": [
        {
          "internalType": "uint256",
          "name": "",
          "type": "uint256"
        }
      ],
      "stateMutability": "nonpayable",
      "type": "function"
    },
    {
      "inputs": [
        {
          "internalType": "uint256",
          "name": "tokenId",
          "type": "uint256"
        }
      ],
      "name": "getFishermanTypeByTokenId",
      "outputs": [
        {
          "internalType": "uint256",
          "name": "",
          "type": "uint256"
        }
      ],
      "stateMutability": "view",
      "type": "function"
    },
    {
      "inputs": [
        {
          "internalType": "address",
          "name": "owner",
          "type": "address"
        }
      ],
      "name": "getOwnedNFTs",
      "outputs": [
        {
          "components": [
            {
              "internalType": "uint256",
              "name": "tokenId",
              "type": "uint256"
            },
            {
              "internalType": "uint256",
              "name": "fishermanType",
              "type": "uint256"
            }
          ],
          "internalType": "struct FishermanNFT.FishermanNft[]",
          "name": "",
          "type": "tuple[]"
        }
      ],
      "stateMutability": "view",
      "type": "function"
    },
    {
      "inputs": [
        {
          "internalType": "bytes32",
          "name": "role",
          "type": "bytes32"
        }
      ],
      "name": "getRoleAdmin",
      "outputs": [
        {
          "internalType": "bytes32",
          "name": "",
          "type": "bytes32"
        }
      ],
      "stateMutability": "view",
      "type": "function"
    },
    {
      "inputs": [
        {
          "internalType": "bytes32",
          "name": "role",
          "type": "bytes32"
        },
        {
          "internalType": "address",
          "name": "account",
          "type": "address"
        }
      ],
      "name": "grantRole",
      "outputs": [],
      "stateMutability": "nonpayable",
      "type": "function"
    },
    {
      "inputs": [
        {
          "internalType": "bytes32",
          "name": "role",
          "type": "bytes32"
        },
        {
          "internalType": "address",
          "name": "account",
          "type": "address"
        }
      ],
      "name": "hasRole",
      "outputs": [
        {
          "internalType": "bool",
          "name": "",
          "type": "bool"
        }
      ],
      "stateMutability": "view",
      "type": "function"
    },
    {
      "inputs": [
        {
          "internalType": "uint256",
          "name": "tokenId",
          "type": "uint256"
        },
        {
          "internalType": "uint256",
          "name": "price",
          "type": "uint256"
        }
      ],
      "name": "listItem",
      "outputs": [],
      "stateMutability": "nonpayable",
      "type": "function"
    },
    {
      "inputs": [
        {
          "internalType": "uint256",
          "name": "",
          "type": "uint256"
        }
      ],
      "name": "listings",
      "outputs": [
        {
          "internalType": "address",
          "name": "seller",
          "type": "address"
        },
        {
          "internalType": "uint256",
          "name": "price",
          "type": "uint256"
        }
      ],
      "stateMutability": "view",
      "type": "function"
    },
    {
      "inputs": [
        {
          "internalType": "uint256",
          "name": "",
          "type": "uint256"
        }
      ],
      "name": "maxSupplies",
      "outputs": [
        {
          "internalType": "uint256",
          "name": "",
          "type": "uint256"
        }
      ],
      "stateMutability": "view",
      "type": "function"
    },
    {
      "inputs": [],
      "name": "mintFisherman",
      "outputs": [
        {
          "internalType": "uint256",
          "name": "",
          "type": "uint256"
        }
      ],
      "stateMutability": "payable",
      "type": "function"
    },
    {
      "inputs": [],
      "name": "mintPrice",
      "outputs": [
        {
          "internalType": "uint256",
          "name": "",
          "type": "uint256"
        }
      ],
      "stateMutability": "view",
      "type": "function"
    },
    {
      "inputs": [
        {
          "internalType": "uint256",
          "name": "",
          "type": "uint256"
        }
      ],
      "name": "mintedSupplies",
      "outputs": [
        {
          "internalType": "uint256",
          "name": "",
          "type": "uint256"
        }
      ],
      "stateMutability": "view",
      "type": "function"
    },
    {
      "inputs": [],
      "name": "name",
      "outputs": [
        {
          "internalType": "string",
          "name": "",
          "type": "string"
        }
      ],
      "stateMutability": "view",
      "type": "function"
    },
    {
      "inputs": [
        {
          "internalType": "address",
          "name": "",
          "type": "address"
        },
        {
          "internalType": "address",
          "name": "",
          "type": "address"
        },
        {
          "internalType": "uint256",
          "name": "",
          "type": "uint256"
        },
        {
          "internalType": "bytes",
          "name": "",
          "type": "bytes"
        }
      ],
      "name": "onERC721Received",
      "outputs": [
        {
          "internalType": "bytes4",
          "name": "",
          "type": "bytes4"
        }
      ],
      "stateMutability": "nonpayable",
      "type": "function"
    },
    {
      "inputs": [],
      "name": "owner",
      "outputs": [
        {
          "internalType": "address",
          "name": "",
          "type": "address"
        }
      ],
      "stateMutability": "view",
      "type": "function"
    },
    {
      "inputs": [
        {
          "internalType": "uint256",
          "name": "tokenId",
          "type": "uint256"
        }
      ],
      "name": "ownerOf",
      "outputs": [
        {
          "internalType": "address",
          "name": "",
          "type": "address"
        }
      ],
      "stateMutability": "view",
      "type": "function"
    },
    {
      "inputs": [],
      "name": "renounceOwnership",
      "outputs": [],
      "stateMutability": "nonpayable",
      "type": "function"
    },
    {
      "inputs": [
        {
          "internalType": "bytes32",
          "name": "role",
          "type": "bytes32"
        },
        {
          "internalType": "address",
          "name": "account",
          "type": "address"
        }
      ],
      "name": "renounceRole",
      "outputs": [],
      "stateMutability": "nonpayable",
      "type": "function"
    },
    {
      "inputs": [
        {
          "internalType": "bytes32",
          "name": "role",
          "type": "bytes32"
        },
        {
          "internalType": "address",
          "name": "account",
          "type": "address"
        }
      ],
      "name": "revokeRole",
      "outputs": [],
      "stateMutability": "nonpayable",
      "type": "function"
    },
    {
      "inputs": [
        {
          "internalType": "string",
          "name": "newBaseTokenURI",
          "type": "string"
        }
      ],
      "name": "setBaseTokenURI",
      "outputs": [],
      "stateMutability": "nonpayable",
      "type": "function"
    },
    {
      "inputs": [
        {
          "internalType": "uint256[]",
          "name": "newMaxSupplies",
          "type": "uint256[]"
        }
      ],
      "name": "setMaxSupplies",
      "outputs": [],
      "stateMutability": "nonpayable",
      "type": "function"
    },
    {
      "inputs": [
        {
          "internalType": "uint256",
          "name": "newMintPrice",
          "type": "uint256"
        }
      ],
      "name": "setMintPrice",
      "outputs": [],
      "stateMutability": "nonpayable",
      "type": "function"
    },
    {
      "inputs": [
        {
          "internalType": "bytes4",
          "name": "interfaceId",
          "type": "bytes4"
        }
      ],
      "name": "supportsInterface",
      "outputs": [
        {
          "internalType": "bool",
          "name": "",
          "type": "bool"
        }
      ],
      "stateMutability": "view",
      "type": "function"
    },
    {
      "inputs": [],
      "name": "symbol",
      "outputs": [
        {
          "internalType": "string",
          "name": "",
          "type": "string"
        }
      ],
      "stateMutability": "view",
      "type": "function"
    },
    {
      "inputs": [
        {
          "internalType": "uint256",
          "name": "index",
          "type": "uint256"
        }
      ],
      "name": "tokenByIndex",
      "outputs": [
        {
          "internalType": "uint256",
          "name": "",
          "type": "uint256"
        }
      ],
      "stateMutability": "view",
      "type": "function"
    },
    {
      "inputs": [
        {
          "internalType": "address",
          "name": "owner",
          "type": "address"
        },
        {
          "internalType": "uint256",
          "name": "index",
          "type": "uint256"
        }
      ],
      "name": "tokenOfOwnerByIndex",
      "outputs": [
        {
          "internalType": "uint256",
          "name": "",
          "type": "uint256"
        }
      ],
      "stateMutability": "view",
      "type": "function"
    },
    {
      "inputs": [
        {
          "internalType": "uint256",
          "name": "tokenId",
          "type": "uint256"
        }
      ],
      "name": "tokenURI",
      "outputs": [
        {
          "internalType": "string",
          "name": "",
          "type": "string"
        }
      ],
      "stateMutability": "view",
      "type": "function"
    },
    {
      "inputs": [],
      "name": "totalSupply",
      "outputs": [
        {
          "internalType": "uint256",
          "name": "",
          "type": "uint256"
        }
      ],
      "stateMutability": "view",
      "type": "function"
    },
    {
      "inputs": [
        {
          "internalType": "address",
          "name": "from",
          "type": "address"
        },
        {
          "internalType": "address",
          "name": "to",
          "type": "address"
        },
        {
          "internalType": "uint256",
          "name": "tokenId",
          "type": "uint256"
        }
      ],
      "name": "transferFrom",
      "outputs": [],
      "stateMutability": "nonpayable",
      "type": "function"
    },
    {
      "inputs": [
        {
          "internalType": "address",
          "name": "newOwner",
          "type": "address"
        }
      ],
      "name": "transferOwnership",
      "outputs": [],
      "stateMutability": "nonpayable",
      "type": "function"
    },
    {
      "inputs": [
        {
          "internalType": "uint256",
          "name": "index",
          "type": "uint256"
        },
        {
          "internalType": "uint256",
          "name": "newMaxSupply",
          "type": "uint256"
        }
      ],
      "name": "updateMaxSupplyAt",
      "outputs": [],
      "stateMutability": "nonpayable",
      "type": "function"
    },
    {
      "inputs": [],
      "name": "withdraw",
      "outputs": [],
      "stateMutability": "nonpayable",
      "type": "function"
    }
  ],
  "bytecode": "0x6080604052604051806060016040528060368152602001620061c960369139601090816200002e91906200079a565b503480156200003c57600080fd5b50604051620061ff380380620061ff8339818101604052810190620000629190620008b7565b6040518060400160405280600c81526020017f4669736865726d616e4e465400000000000000000000000000000000000000008152506040518060400160405280600381526020017f464d4e0000000000000000000000000000000000000000000000000000000000815250620000ee620000e26200021760201b60201c565b6200021f60201b60201c565b8160019081620000ff91906200079a565b5080600290816200011191906200079a565b50505080601181905550620001306000801b33620002e360201b60201c565b620001627fa49807205ce4d355092ef5a8a18f56e8913cf4a201fbe287825b095693c2177533620002e360201b60201c565b6040518060600160405280624814d062ffffff16815260200161400062ffffff16815260200161088b62ffffff168152506013906003620001a592919062000456565b5060138054905067ffffffffffffffff811115620001c857620001c76200052b565b5b604051908082528060200260200182016040528015620001f75781602001602082028036833780820191505090505b50601490805190602001906200020f929190620004af565b5050620008e9565b600033905090565b60008060009054906101000a900473ffffffffffffffffffffffffffffffffffffffff169050816000806101000a81548173ffffffffffffffffffffffffffffffffffffffff021916908373ffffffffffffffffffffffffffffffffffffffff1602179055508173ffffffffffffffffffffffffffffffffffffffff168173ffffffffffffffffffffffffffffffffffffffff167f8be0079c531659141344cd1fd0a4f28419497f9722a3daafe3b4186f6b6457e060405160405180910390a35050565b620002f58282620002f960201b60201c565b5050565b6200030b8282620003eb60201b60201c565b620003e75760016006600084815260200190815260200160002060000160008373ffffffffffffffffffffffffffffffffffffffff1673ffffffffffffffffffffffffffffffffffffffff16815260200190815260200160002060006101000a81548160ff0219169083151502179055506200038c6200021760201b60201c565b73ffffffffffffffffffffffffffffffffffffffff168173ffffffffffffffffffffffffffffffffffffffff16837f2f8788117e7eff1d82e926ec794901d17c78024a50270940304540a733656f0d60405160405180910390a45b5050565b60006006600084815260200190815260200160002060000160008373ffffffffffffffffffffffffffffffffffffffff1673ffffffffffffffffffffffffffffffffffffffff16815260200190815260200160002060009054906101000a900460ff16905092915050565b8280548282559060005260206000209081019282156200049c579160200282015b828111156200049b578251829062ffffff1690559160200191906001019062000477565b5b509050620004ab919062000501565b5090565b828054828255906000526020600020908101928215620004ee579160200282015b82811115620004ed578251825591602001919060010190620004d0565b5b509050620004fd919062000501565b5090565b5b808211156200051c57600081600090555060010162000502565b5090565b600081519050919050565b7f4e487b7100000000000000000000000000000000000000000000000000000000600052604160045260246000fd5b7f4e487b7100000000000000000000000000000000000000000000000000000000600052602260045260246000fd5b60006002820490506001821680620005a257607f821691505b602082108103620005b857620005b76200055a565b5b50919050565b60008190508160005260206000209050919050565b60006020601f8301049050919050565b600082821b905092915050565b600060088302620006227fffffffffffffffffffffffffffffffffffffffffffffffffffffffffffffffff82620005e3565b6200062e8683620005e3565b95508019841693508086168417925050509392505050565b6000819050919050565b6000819050919050565b60006200067b620006756200066f8462000646565b62000650565b62000646565b9050919050565b6000819050919050565b62000697836200065a565b620006af620006a68262000682565b848454620005f0565b825550505050565b600090565b620006c6620006b7565b620006d38184846200068c565b505050565b5b81811015620006fb57620006ef600082620006bc565b600181019050620006d9565b5050565b601f8211156200074a576200071481620005be565b6200071f84620005d3565b810160208510156200072f578190505b620007476200073e85620005d3565b830182620006d8565b50505b505050565b600082821c905092915050565b60006200076f600019846008026200074f565b1980831691505092915050565b60006200078a83836200075c565b9150826002028217905092915050565b620007a58262000520565b67ffffffffffffffff811115620007c157620007c06200052b565b5b620007cd825462000589565b620007da828285620006ff565b600060209050601f831160018114620008125760008415620007fd578287015190505b6200080985826200077c565b86555062000879565b601f1984166200082286620005be565b60005b828110156200084c5784890151825560018201915060208501945060208101905062000825565b868310156200086c578489015162000868601f8916826200075c565b8355505b6001600288020188555050505b505050505050565b600080fd5b620008918162000646565b81146200089d57600080fd5b50565b600081519050620008b18162000886565b92915050565b600060208284031215620008d057620008cf62000881565b5b6000620008e084828501620008a0565b91505092915050565b6158d080620008f96000396000f3fe60806040526004361061021a5760003560e01c8063715018a611610123578063a212a5cc116100ab578063e7fb74c71161006f578063e7fb74c714610837578063f2fde38b14610853578063f42a7b701461087c578063f4a0a528146108b9578063fc0b5b1d146108e25761021a565b8063a212a5cc1461074a578063a217fddf14610768578063c87b56dd14610793578063d547741f146107d0578063de74e57b146107f95761021a565b8063883efa67116100f2578063883efa67146106655780638da5cb5b1461068e57806391d14854146106b957806395d89b41146106f657806395e66287146107215761021a565b8063715018a6146105a957806375b238fc146105c05780637f22b99d146105eb57806387962dcc146106285761021a565b80632f745c59116101a65780633ccfd60b116101755780633ccfd60b146104b05780634f6ccce7146104c75780636352211e146105045780636817c76c1461054157806370a082311461056c5761021a565b80632f745c59146103f857806330176e1314610435578063305a67a81461045e57806336568abe146104875761021a565b806318160ddd116101ed57806318160ddd1461030157806323b872dd1461032c5780632489fd5e14610355578063248a9ca3146103925780632f2ff15d146103cf5761021a565b806301ffc9a71461021f57806306fdde031461025c578063150b7a021461028757806318148f1b146102c4575b600080fd5b34801561022b57600080fd5b5061024660048036038101906102419190613aec565b61090b565b6040516102539190613b34565b60405180910390f35b34801561026857600080fd5b506102716109ed565b60405161027e9190613bdf565b60405180910390f35b34801561029357600080fd5b506102ae60048036038101906102a99190613dca565b610a7f565b6040516102bb9190613e5c565b60405180910390f35b3480156102d057600080fd5b506102eb60048036038101906102e69190613e77565b610a93565b6040516102f89190613f91565b60405180910390f35b34801561030d57600080fd5b50610316610cc4565b6040516103239190613fc2565b60405180910390f35b34801561033857600080fd5b50610353600480360381019061034e9190613fdd565b610cd1565b005b34801561036157600080fd5b5061037c60048036038101906103779190614030565b610d4a565b6040516103899190613fc2565b60405180910390f35b34801561039e57600080fd5b506103b960048036038101906103b49190614093565b610d6e565b6040516103c691906140cf565b60405180910390f35b3480156103db57600080fd5b506103f660048036038101906103f191906140ea565b610d8e565b005b34801561040457600080fd5b5061041f600480360381019061041a919061412a565b610daf565b60405161042c9190613fc2565b60405180910390f35b34801561044157600080fd5b5061045c6004803603810190610457919061420b565b610e54565b005b34801561046a57600080fd5b5061048560048036038101906104809190614030565b610ed0565b005b34801561049357600080fd5b506104ae60048036038101906104a991906140ea565b611018565b005b3480156104bc57600080fd5b506104c561109b565b005b3480156104d357600080fd5b506104ee60048036038101906104e99190614030565b6110f9565b6040516104fb9190613fc2565b60405180910390f35b34801561051057600080fd5b5061052b60048036038101906105269190614030565b61116a565b6040516105389190614263565b60405180910390f35b34801561054d57600080fd5b506105566111f0565b6040516105639190613fc2565b60405180910390f35b34801561057857600080fd5b50610593600480360381019061058e9190613e77565b6111f6565b6040516105a09190613fc2565b60405180910390f35b3480156105b557600080fd5b506105be6112ad565b005b3480156105cc57600080fd5b506105d56112c1565b6040516105e291906140cf565b60405180910390f35b3480156105f757600080fd5b50610612600480360381019061060d9190613e77565b6112e5565b60405161061f9190613fc2565b60405180910390f35b34801561063457600080fd5b5061064f600480360381019061064a9190614030565b6115a0565b60405161065c9190613fc2565b60405180910390f35b34801561067157600080fd5b5061068c6004803603810190610687919061427e565b6115c4565b005b34801561069a57600080fd5b506106a361176d565b6040516106b09190614263565b60405180910390f35b3480156106c557600080fd5b506106e060048036038101906106db91906140ea565b611796565b6040516106ed9190613b34565b60405180910390f35b34801561070257600080fd5b5061070b611801565b6040516107189190613bdf565b60405180910390f35b34801561072d57600080fd5b5061074860048036038101906107439190614386565b611893565b005b610752611a5d565b60405161075f9190613fc2565b60405180910390f35b34801561077457600080fd5b5061077d611d9e565b60405161078a91906140cf565b60405180910390f35b34801561079f57600080fd5b506107ba60048036038101906107b59190614030565b611da5565b6040516107c79190613bdf565b60405180910390f35b3480156107dc57600080fd5b506107f760048036038101906107f291906140ea565b611ed5565b005b34801561080557600080fd5b50610820600480360381019061081b9190614030565b611ef6565b60405161082e9291906143cf565b60405180910390f35b610851600480360381019061084c9190614030565b611f3a565b005b34801561085f57600080fd5b5061087a60048036038101906108759190613e77565b61213b565b005b34801561088857600080fd5b506108a3600480360381019061089e9190614030565b6121be565b6040516108b09190613fc2565b60405180910390f35b3480156108c557600080fd5b506108e060048036038101906108db9190614030565b6121db565b005b3480156108ee57600080fd5b506109096004803603810190610904919061427e565b61224e565b005b60007f304ad1f2000000000000000000000000000000000000000000000000000000007bffffffffffffffffffffffffffffffffffffffffffffffffffffffff1916827bffffffffffffffffffffffffffffffffffffffffffffffffffffffff191614806109d657507f5b5e139f000000000000000000000000000000000000000000000000000000007bffffffffffffffffffffffffffffffffffffffffffffffffffffffff1916827bffffffffffffffffffffffffffffffffffffffffffffffffffffffff1916145b806109e657506109e582612386565b5b9050919050565b6060600780546109fc90614427565b80601f0160208091040260200160405190810160405280929190818152602001828054610a2890614427565b8015610a755780601f10610a4a57610100808354040283529160200191610a75565b820191906000526020600020905b815481529060010190602001808311610a5857829003601f168201915b5050505050905090565b600063150b7a0260e01b9050949350505050565b60606000610aa0836111f6565b905060008167ffffffffffffffff811115610abe57610abd613c9f565b5b604051908082528060200260200182016040528015610aec5781602001602082028036833780820191505090505b50905060008267ffffffffffffffff811115610b0b57610b0a613c9f565b5b604051908082528060200260200182016040528015610b395781602001602082028036833780820191505090505b50905060005b83811015610b7d57610b518682610daf565b838281518110610b6457610b63614458565b5b6020026020010181815250508080600101915050610b3f565b5060005b8251811015610bd957610bad838281518110610ba057610b9f614458565b5b60200260200101516121be565b828281518110610bc057610bbf614458565b5b6020026020010181815250508080600101915050610b81565b5060008367ffffffffffffffff811115610bf657610bf5613c9f565b5b604051908082528060200260200182016040528015610c2f57816020015b610c1c6139fc565b815260200190600190039081610c145790505b50905060005b84811015610cb75760006040518060400160405280868481518110610c5d57610c5c614458565b5b60200260200101518152602001858481518110610c7d57610c7c614458565b5b6020026020010151815250905080838381518110610c9e57610c9d614458565b5b6020026020010181905250508080600101915050610c35565b5080945050505050919050565b6000600e80549050905090565b610cfb7fa49807205ce4d355092ef5a8a18f56e8913cf4a201fbe287825b095693c2177533611796565b610d3a576040517f08c379a0000000000000000000000000000000000000000000000000000000008152600401610d31906144d3565b60405180910390fd5b610d45838383612400565b505050565b60148181548110610d5a57600080fd5b906000526020600020016000915090505481565b600060066000838152602001908152602001600020600101549050919050565b610d9782610d6e565b610da0816126f9565b610daa838361270d565b505050565b6000610dba836111f6565b8210610dfb576040517f08c379a0000000000000000000000000000000000000000000000000000000008152600401610df290614565565b60405180910390fd5b600b60008473ffffffffffffffffffffffffffffffffffffffff1673ffffffffffffffffffffffffffffffffffffffff168152602001908152602001600020600083815260200190815260200160002054905092915050565b610e7e7fa49807205ce4d355092ef5a8a18f56e8913cf4a201fbe287825b095693c2177533611796565b610ebd576040517f08c379a0000000000000000000000000000000000000000000000000000000008152600401610eb4906144d3565b60405180910390fd5b8060109081610ecc9190614731565b5050565b6000601260008381526020019081526020016000206040518060400160405290816000820160009054906101000a900473ffffffffffffffffffffffffffffffffffffffff1673ffffffffffffffffffffffffffffffffffffffff1673ffffffffffffffffffffffffffffffffffffffff16815260200160018201548152505090503373ffffffffffffffffffffffffffffffffffffffff16816000015173ffffffffffffffffffffffffffffffffffffffff1614610fc4576040517f08c379a0000000000000000000000000000000000000000000000000000000008152600401610fbb9061484f565b60405180910390fd5b60126000838152602001908152602001600020600080820160006101000a81549073ffffffffffffffffffffffffffffffffffffffff0219169055600182016000905550506110143033846127ee565b5050565b6110206127fe565b73ffffffffffffffffffffffffffffffffffffffff168173ffffffffffffffffffffffffffffffffffffffff161461108d576040517f08c379a0000000000000000000000000000000000000000000000000000000008152600401611084906148e1565b60405180910390fd5b6110978282612806565b5050565b6110a36128e8565b60004790506110b061176d565b73ffffffffffffffffffffffffffffffffffffffff166108fc829081150290604051600060405180830381858888f193505050501580156110f5573d6000803e3d6000fd5b5050565b6000611103610cc4565b8210611144576040517f08c379a000000000000000000000000000000000000000000000000000000000815260040161113b90614973565b60405180910390fd5b600e828154811061115857611157614458565b5b90600052602060002001549050919050565b60008061117683612966565b9050600073ffffffffffffffffffffffffffffffffffffffff168173ffffffffffffffffffffffffffffffffffffffff16036111e7576040517f08c379a00000000000000000000000000000000000000000000000000000000081526004016111de906149df565b60405180910390fd5b80915050919050565b60115481565b60008073ffffffffffffffffffffffffffffffffffffffff168273ffffffffffffffffffffffffffffffffffffffff1603611266576040517f08c379a000000000000000000000000000000000000000000000000000000000815260040161125d90614a71565b60405180910390fd5b600460008373ffffffffffffffffffffffffffffffffffffffff1673ffffffffffffffffffffffffffffffffffffffff168152602001908152602001600020549050919050565b6112b56128e8565b6112bf60006129a3565b565b7fa49807205ce4d355092ef5a8a18f56e8913cf4a201fbe287825b095693c2177581565b60006113117fa49807205ce4d355092ef5a8a18f56e8913cf4a201fbe287825b095693c2177533611796565b611350576040517f08c379a0000000000000000000000000000000000000000000000000000000008152600401611347906144d3565b60405180910390fd5b60006013818154811061136657611365614458565b5b90600052602060002001546014828154811061138557611384614458565b5b9060005260206000200154106113d0576040517f08c379a00000000000000000000000000000000000000000000000000000000081526004016113c790614add565b60405180910390fd5b60006113dc6009612a67565b90506113e86009612a75565b6000808303611417576014838154811061140557611404614458565b5b906000526020600020015490506114e6565b6001830361146f57601360008154811061143457611433614458565b5b90600052602060002001546014848154811061145357611452614458565b5b90600052602060002001546114689190614b2c565b90506114e5565b601360018154811061148457611483614458565b5b906000526020600020015460136000815481106114a4576114a3614458565b5b9060005260206000200154601485815481106114c3576114c2614458565b5b90600052602060002001546114d89190614b2c565b6114e29190614b2c565b90505b5b601483815481106114fa576114f9614458565b5b90600052602060002001600081548092919061151590614b60565b91905055506115248583612a8b565b61152e8282612ca8565b80600d600084815260200190815260200160002081905550813373ffffffffffffffffffffffffffffffffffffffff167f80c9b1168a21aa522b4fadf6b78b2f18431bd34939cb6b3a77467f2d3b4e91368560405161158d9190613fc2565b60405180910390a3819350505050919050565b601381815481106115b057600080fd5b906000526020600020016000915090505481565b60008111611607576040517f08c379a00000000000000000000000000000000000000000000000000000000081526004016115fe90614bf4565b60405180910390fd5b3373ffffffffffffffffffffffffffffffffffffffff166116278361116a565b73ffffffffffffffffffffffffffffffffffffffff161461167d576040517f08c379a000000000000000000000000000000000000000000000000000000000815260040161167490614c86565b60405180910390fd5b6116883330846127ee565b60405180604001604052803373ffffffffffffffffffffffffffffffffffffffff168152602001828152506012600084815260200190815260200160002060008201518160000160006101000a81548173ffffffffffffffffffffffffffffffffffffffff021916908373ffffffffffffffffffffffffffffffffffffffff160217905550602082015181600101559050503373ffffffffffffffffffffffffffffffffffffffff16827fc93edc6ee14cd6c0c2842099adfa8953b237dbdad304ba28e96dce8a7f2a828c836040516117619190613fc2565b60405180910390a35050565b60008060009054906101000a900473ffffffffffffffffffffffffffffffffffffffff16905090565b60006006600084815260200190815260200160002060000160008373ffffffffffffffffffffffffffffffffffffffff1673ffffffffffffffffffffffffffffffffffffffff16815260200190815260200160002060009054906101000a900460ff16905092915050565b60606008805461181090614427565b80601f016020809104026020016040519081016040528092919081815260200182805461183c90614427565b80156118895780601f1061185e57610100808354040283529160200191611889565b820191906000526020600020905b81548152906001019060200180831161186c57829003601f168201915b5050505050905090565b6118bd7fa49807205ce4d355092ef5a8a18f56e8913cf4a201fbe287825b095693c2177533611796565b6118fc576040517f08c379a00000000000000000000000000000000000000000000000000000000081526004016118f3906144d3565b60405180910390fd5b60148054905081511015611945576040517f08c379a000000000000000000000000000000000000000000000000000000000815260040161193c90614d18565b60405180910390fd5b60005b81518110156119e7576014805490508110156119da576014818154811061197257611971614458565b5b90600052602060002001548282815181106119905761198f614458565b5b602002602001015110156119d9576040517f08c379a00000000000000000000000000000000000000000000000000000000081526004016119d090614daa565b60405180910390fd5b5b8080600101915050611948565b5080601390805190602001906119fe929190613a16565b5060148054905081511115611a5a57600060148054905090505b8151811015611a58576014600090806001815401808255809150506001900390600052602060002001600090919091909150558080600101915050611a18565b505b50565b6000601154341015611aa4576040517f08c379a0000000000000000000000000000000000000000000000000000000008152600401611a9b90614e16565b60405180910390fd5b600060016064611ab2612d76565b611abc9190614e65565b611ac69190614b2c565b9050600060468211611adb5760009050611af2565b60638211611aec5760019050611af1565b600290505b5b60138181548110611b0657611b05614458565b5b906000526020600020015460148281548110611b2557611b24614458565b5b906000526020600020015410611b70576040517f08c379a0000000000000000000000000000000000000000000000000000000008152600401611b6790614add565b60405180910390fd5b6000611b7c6009612a67565b9050611b886009612a75565b6000808303611bb75760148381548110611ba557611ba4614458565b5b90600052602060002001549050611c86565b60018303611c0f576013600081548110611bd457611bd3614458565b5b906000526020600020015460148481548110611bf357611bf2614458565b5b9060005260206000200154611c089190614b2c565b9050611c85565b6013600181548110611c2457611c23614458565b5b90600052602060002001546013600081548110611c4457611c43614458565b5b906000526020600020015460148581548110611c6357611c62614458565b5b9060005260206000200154611c789190614b2c565b611c829190614b2c565b90505b5b60148381548110611c9a57611c99614458565b5b906000526020600020016000815480929190611cb590614b60565b9190505550611cc43383612a8b565b611cce8282612ca8565b80600d600084815260200190815260200160002081905550813373ffffffffffffffffffffffffffffffffffffffff167f80c9b1168a21aa522b4fadf6b78b2f18431bd34939cb6b3a77467f2d3b4e913685604051611d2d9190613fc2565b60405180910390a3601154341115611d94573373ffffffffffffffffffffffffffffffffffffffff166108fc60115434611d679190614e96565b9081150290604051600060405180830381858888f19350505050158015611d92573d6000803e3d6000fd5b505b8194505050505090565b6000801b81565b6060611db082612dab565b611def576040517f08c379a0000000000000000000000000000000000000000000000000000000008152600401611de690614f3c565b60405180910390fd5b6000600a60008481526020019081526020016000208054611e0f90614427565b80601f0160208091040260200160405190810160405280929190818152602001828054611e3b90614427565b8015611e885780601f10611e5d57610100808354040283529160200191611e88565b820191906000526020600020905b815481529060010190602001808311611e6b57829003601f168201915b505050505090506000611e99612dec565b90506000815103611eae578192505050611ed0565b600082511115611ec2578192505050611ed0565b611ecb84612e7e565b925050505b919050565b611ede82610d6e565b611ee7816126f9565b611ef18383612806565b505050565b60126020528060005260406000206000915090508060000160009054906101000a900473ffffffffffffffffffffffffffffffffffffffff16908060010154905082565b6000601260008381526020019081526020016000206040518060400160405290816000820160009054906101000a900473ffffffffffffffffffffffffffffffffffffffff1673ffffffffffffffffffffffffffffffffffffffff1673ffffffffffffffffffffffffffffffffffffffff16815260200160018201548152505090506000816020015111612003576040517f08c379a0000000000000000000000000000000000000000000000000000000008152600401611ffa90614fa8565b60405180910390fd5b80602001513414612049576040517f08c379a000000000000000000000000000000000000000000000000000000000815260040161204090615014565b60405180910390fd5b60126000838152602001908152602001600020600080820160006101000a81549073ffffffffffffffffffffffffffffffffffffffff0219169055600182016000905550506120993033846127ee565b806000015173ffffffffffffffffffffffffffffffffffffffff166108fc349081150290604051600060405180830381858888f193505050501580156120e3573d6000803e3d6000fd5b503373ffffffffffffffffffffffffffffffffffffffff16827fa574c741071bb18f51fa88c17aeefec514bebf670ca22a3736fba6504ecbb763836020015160405161212f9190613fc2565b60405180910390a35050565b6121436128e8565b600073ffffffffffffffffffffffffffffffffffffffff168173ffffffffffffffffffffffffffffffffffffffff16036121b2576040517f08c379a00000000000000000000000000000000000000000000000000000000081526004016121a9906150a6565b60405180910390fd5b6121bb816129a3565b50565b6000600d6000838152602001908152602001600020549050919050565b6122057fa49807205ce4d355092ef5a8a18f56e8913cf4a201fbe287825b095693c2177533611796565b612244576040517f08c379a000000000000000000000000000000000000000000000000000000000815260040161223b906144d3565b60405180910390fd5b8060118190555050565b6122787fa49807205ce4d355092ef5a8a18f56e8913cf4a201fbe287825b095693c2177533611796565b6122b7576040517f08c379a00000000000000000000000000000000000000000000000000000000081526004016122ae906144d3565b60405180910390fd5b60138054905082106122fe576040517f08c379a00000000000000000000000000000000000000000000000000000000081526004016122f590615112565b60405180910390fd5b6014828154811061231257612311614458565b5b906000526020600020015481101561235f576040517f08c379a000000000000000000000000000000000000000000000000000000000815260040161235690614daa565b60405180910390fd5b806013838154811061237457612373614458565b5b90600052602060002001819055505050565b60007f7965db0b000000000000000000000000000000000000000000000000000000007bffffffffffffffffffffffffffffffffffffffffffffffffffffffff1916827bffffffffffffffffffffffffffffffffffffffffffffffffffffffff191614806123f957506123f882612ee6565b5b9050919050565b8273ffffffffffffffffffffffffffffffffffffffff166124208261116a565b73ffffffffffffffffffffffffffffffffffffffff1614612476576040517f08c379a000000000000000000000000000000000000000000000000000000000815260040161246d906151a4565b60405180910390fd5b600073ffffffffffffffffffffffffffffffffffffffff168273ffffffffffffffffffffffffffffffffffffffff16036124e5576040517f08c379a00000000000000000000000000000000000000000000000000000000081526004016124dc90615236565b60405180910390fd5b6124f28383836001612fc8565b8273ffffffffffffffffffffffffffffffffffffffff166125128261116a565b73ffffffffffffffffffffffffffffffffffffffff1614612568576040517f08c379a000000000000000000000000000000000000000000000000000000000815260040161255f906151a4565b60405180910390fd5b6005600082815260200190815260200160002060006101000a81549073ffffffffffffffffffffffffffffffffffffffff02191690556001600460008573ffffffffffffffffffffffffffffffffffffffff1673ffffffffffffffffffffffffffffffffffffffff168152602001908152602001600020600082825403925050819055506001600460008473ffffffffffffffffffffffffffffffffffffffff1673ffffffffffffffffffffffffffffffffffffffff16815260200190815260200160002060008282540192505081905550816003600083815260200190815260200160002060006101000a81548173ffffffffffffffffffffffffffffffffffffffff021916908373ffffffffffffffffffffffffffffffffffffffff160217905550808273ffffffffffffffffffffffffffffffffffffffff168473ffffffffffffffffffffffffffffffffffffffff167fddf252ad1be2c89b69c2b068fc378daa952ba7f163c4a11628f55a4df523b3ef60405160405180910390a46126f48383836001613126565b505050565b61270a816127056127fe565b61312c565b50565b6127178282611796565b6127ea5760016006600084815260200190815260200160002060000160008373ffffffffffffffffffffffffffffffffffffffff1673ffffffffffffffffffffffffffffffffffffffff16815260200190815260200160002060006101000a81548160ff02191690831515021790555061278f6127fe565b73ffffffffffffffffffffffffffffffffffffffff168173ffffffffffffffffffffffffffffffffffffffff16837f2f8788117e7eff1d82e926ec794901d17c78024a50270940304540a733656f0d60405160405180910390a45b5050565b6127f9838383612400565b505050565b600033905090565b6128108282611796565b156128e45760006006600084815260200190815260200160002060000160008373ffffffffffffffffffffffffffffffffffffffff1673ffffffffffffffffffffffffffffffffffffffff16815260200190815260200160002060006101000a81548160ff0219169083151502179055506128896127fe565b73ffffffffffffffffffffffffffffffffffffffff168173ffffffffffffffffffffffffffffffffffffffff16837ff6391f5c32d9c69d2a47ea670b442974b53935d1edc7fd64eb21e047a839171b60405160405180910390a45b5050565b6128f06127fe565b73ffffffffffffffffffffffffffffffffffffffff1661290e61176d565b73ffffffffffffffffffffffffffffffffffffffff1614612964576040517f08c379a000000000000000000000000000000000000000000000000000000000815260040161295b906152a2565b60405180910390fd5b565b60006003600083815260200190815260200160002060009054906101000a900473ffffffffffffffffffffffffffffffffffffffff169050919050565b60008060009054906101000a900473ffffffffffffffffffffffffffffffffffffffff169050816000806101000a81548173ffffffffffffffffffffffffffffffffffffffff021916908373ffffffffffffffffffffffffffffffffffffffff1602179055508173ffffffffffffffffffffffffffffffffffffffff168173ffffffffffffffffffffffffffffffffffffffff167f8be0079c531659141344cd1fd0a4f28419497f9722a3daafe3b4186f6b6457e060405160405180910390a35050565b600081600001549050919050565b6001816000016000828254019250508190555050565b600073ffffffffffffffffffffffffffffffffffffffff168273ffffffffffffffffffffffffffffffffffffffff1603612afa576040517f08c379a0000000000000000000000000000000000000000000000000000000008152600401612af19061530e565b60405180910390fd5b612b0381612dab565b15612b43576040517f08c379a0000000000000000000000000000000000000000000000000000000008152600401612b3a9061537a565b60405180910390fd5b612b51600083836001612fc8565b612b5a81612dab565b15612b9a576040517f08c379a0000000000000000000000000000000000000000000000000000000008152600401612b919061537a565b60405180910390fd5b6001600460008473ffffffffffffffffffffffffffffffffffffffff1673ffffffffffffffffffffffffffffffffffffffff16815260200190815260200160002060008282540192505081905550816003600083815260200190815260200160002060006101000a81548173ffffffffffffffffffffffffffffffffffffffff021916908373ffffffffffffffffffffffffffffffffffffffff160217905550808273ffffffffffffffffffffffffffffffffffffffff16600073ffffffffffffffffffffffffffffffffffffffff167fddf252ad1be2c89b69c2b068fc378daa952ba7f163c4a11628f55a4df523b3ef60405160405180910390a4612ca4600083836001613126565b5050565b612cb182612dab565b612cf0576040517f08c379a0000000000000000000000000000000000000000000000000000000008152600401612ce79061540c565b60405180910390fd5b6010612cfb826131b1565b604051602001612d0c929190615537565b604051602081830303815290604052600a60008481526020019081526020016000209081612d3a9190614731565b507ff8e1a15aba9398e019f0b49df1a4fde98ee17ae345cb5f6b5e2c27f5033e8ce782604051612d6a9190613fc2565b60405180910390a15050565b6000424433604051602001612d8d939291906155cf565b6040516020818303038152906040528051906020012060001c905090565b60008073ffffffffffffffffffffffffffffffffffffffff16612dcd83612966565b73ffffffffffffffffffffffffffffffffffffffff1614159050919050565b606060108054612dfb90614427565b80601f0160208091040260200160405190810160405280929190818152602001828054612e2790614427565b8015612e745780601f10612e4957610100808354040283529160200191612e74565b820191906000526020600020905b815481529060010190602001808311612e5757829003601f168201915b5050505050905090565b6060612e898261327f565b6000612e93612dec565b90506000815111612eb35760405180602001604052806000815250612ede565b80612ebd846131b1565b604051602001612ece92919061560c565b6040516020818303038152906040525b915050919050565b60007f304ad1f2000000000000000000000000000000000000000000000000000000007bffffffffffffffffffffffffffffffffffffffffffffffffffffffff1916827bffffffffffffffffffffffffffffffffffffffffffffffffffffffff19161480612fb157507f5b5e139f000000000000000000000000000000000000000000000000000000007bffffffffffffffffffffffffffffffffffffffffffffffffffffffff1916827bffffffffffffffffffffffffffffffffffffffffffffffffffffffff1916145b80612fc15750612fc0826132ca565b5b9050919050565b612fd484848484613334565b6001811115613018576040517f08c379a000000000000000000000000000000000000000000000000000000000815260040161300f906156a2565b60405180910390fd5b6000829050600073ffffffffffffffffffffffffffffffffffffffff168573ffffffffffffffffffffffffffffffffffffffff160361305f5761305a8161333a565b61309e565b8373ffffffffffffffffffffffffffffffffffffffff168573ffffffffffffffffffffffffffffffffffffffff161461309d5761309c8582613383565b5b5b600073ffffffffffffffffffffffffffffffffffffffff168473ffffffffffffffffffffffffffffffffffffffff16036130e0576130db816134f0565b61311f565b8473ffffffffffffffffffffffffffffffffffffffff168473ffffffffffffffffffffffffffffffffffffffff161461311e5761311d84826135c1565b5b5b5050505050565b50505050565b6131368282611796565b6131ad5761314381613640565b6131518360001c602061366d565b60405160200161316292919061575a565b6040516020818303038152906040526040517f08c379a00000000000000000000000000000000000000000000000000000000081526004016131a49190613bdf565b60405180910390fd5b5050565b6060600060016131c0846138a9565b01905060008167ffffffffffffffff8111156131df576131de613c9f565b5b6040519080825280601f01601f1916602001820160405280156132115781602001600182028036833780820191505090505b509050600082602001820190505b600115613274578080600190039150507f3031323334353637383961626364656600000000000000000000000000000000600a86061a8153600a858161326857613267614e36565b5b0494506000850361321f575b819350505050919050565b61328881612dab565b6132c7576040517f08c379a00000000000000000000000000000000000000000000000000000000081526004016132be906149df565b60405180910390fd5b50565b60007f01ffc9a7000000000000000000000000000000000000000000000000000000007bffffffffffffffffffffffffffffffffffffffffffffffffffffffff1916827bffffffffffffffffffffffffffffffffffffffffffffffffffffffff1916149050919050565b50505050565b600e80549050600f600083815260200190815260200160002081905550600e81908060018154018082558091505060019003906000526020600020016000909190919091505550565b60006001613390846111f6565b61339a9190614e96565b90506000600c600084815260200190815260200160002054905081811461347f576000600b60008673ffffffffffffffffffffffffffffffffffffffff1673ffffffffffffffffffffffffffffffffffffffff168152602001908152602001600020600084815260200190815260200160002054905080600b60008773ffffffffffffffffffffffffffffffffffffffff1673ffffffffffffffffffffffffffffffffffffffff16815260200190815260200160002060008481526020019081526020016000208190555081600c600083815260200190815260200160002081905550505b600c600084815260200190815260200160002060009055600b60008573ffffffffffffffffffffffffffffffffffffffff1673ffffffffffffffffffffffffffffffffffffffff16815260200190815260200160002060008381526020019081526020016000206000905550505050565b60006001600e805490506135049190614e96565b90506000600f60008481526020019081526020016000205490506000600e838154811061353457613533614458565b5b9060005260206000200154905080600e838154811061355657613555614458565b5b906000526020600020018190555081600f600083815260200190815260200160002081905550600f600085815260200190815260200160002060009055600e8054806135a5576135a4615794565b5b6001900381819060005260206000200160009055905550505050565b60006135cc836111f6565b905081600b60008573ffffffffffffffffffffffffffffffffffffffff1673ffffffffffffffffffffffffffffffffffffffff16815260200190815260200160002060008381526020019081526020016000208190555080600c600084815260200190815260200160002081905550505050565b60606136668273ffffffffffffffffffffffffffffffffffffffff16601460ff1661366d565b9050919050565b60606000600283600261368091906157c3565b61368a9190614b2c565b67ffffffffffffffff8111156136a3576136a2613c9f565b5b6040519080825280601f01601f1916602001820160405280156136d55781602001600182028036833780820191505090505b5090507f30000000000000000000000000000000000000000000000000000000000000008160008151811061370d5761370c614458565b5b60200101907effffffffffffffffffffffffffffffffffffffffffffffffffffffffffffff1916908160001a9053507f78000000000000000000000000000000000000000000000000000000000000008160018151811061377157613770614458565b5b60200101907effffffffffffffffffffffffffffffffffffffffffffffffffffffffffffff1916908160001a905350600060018460026137b191906157c3565b6137bb9190614b2c565b90505b600181111561385b577f3031323334353637383961626364656600000000000000000000000000000000600f8616601081106137fd576137fc614458565b5b1a60f81b82828151811061381457613813614458565b5b60200101907effffffffffffffffffffffffffffffffffffffffffffffffffffffffffffff1916908160001a905350600485901c94508061385490615805565b90506137be565b506000841461389f576040517f08c379a00000000000000000000000000000000000000000000000000000000081526004016138969061587a565b60405180910390fd5b8091505092915050565b600080600090507a184f03e93ff9f4daa797ed6e38ed64bf6a1f0100000000000000008310613907577a184f03e93ff9f4daa797ed6e38ed64bf6a1f01000000000000000083816138fd576138fc614e36565b5b0492506040810190505b6d04ee2d6d415b85acef81000000008310613944576d04ee2d6d415b85acef8100000000838161393a57613939614e36565b5b0492506020810190505b662386f26fc10000831061397357662386f26fc10000838161396957613968614e36565b5b0492506010810190505b6305f5e100831061399c576305f5e100838161399257613991614e36565b5b0492506008810190505b61271083106139c15761271083816139b7576139b6614e36565b5b0492506004810190505b606483106139e457606483816139da576139d9614e36565b5b0492506002810190505b600a83106139f3576001810190505b80915050919050565b604051806040016040528060008152602001600081525090565b828054828255906000526020600020908101928215613a52579160200282015b82811115613a51578251825591602001919060010190613a36565b5b509050613a5f9190613a63565b5090565b5b80821115613a7c576000816000905550600101613a64565b5090565b6000604051905090565b600080fd5b600080fd5b60007fffffffff0000000000000000000000000000000000000000000000000000000082169050919050565b613ac981613a94565b8114613ad457600080fd5b50565b600081359050613ae681613ac0565b92915050565b600060208284031215613b0257613b01613a8a565b5b6000613b1084828501613ad7565b91505092915050565b60008115159050919050565b613b2e81613b19565b82525050565b6000602082019050613b496000830184613b25565b92915050565b600081519050919050565b600082825260208201905092915050565b60005b83811015613b89578082015181840152602081019050613b6e565b60008484015250505050565b6000601f19601f8301169050919050565b6000613bb182613b4f565b613bbb8185613b5a565b9350613bcb818560208601613b6b565b613bd481613b95565b840191505092915050565b60006020820190508181036000830152613bf98184613ba6565b905092915050565b600073ffffffffffffffffffffffffffffffffffffffff82169050919050565b6000613c2c82613c01565b9050919050565b613c3c81613c21565b8114613c4757600080fd5b50565b600081359050613c5981613c33565b92915050565b6000819050919050565b613c7281613c5f565b8114613c7d57600080fd5b50565b600081359050613c8f81613c69565b92915050565b600080fd5b600080fd5b7f4e487b7100000000000000000000000000000000000000000000000000000000600052604160045260246000fd5b613cd782613b95565b810181811067ffffffffffffffff82111715613cf657613cf5613c9f565b5b80604052505050565b6000613d09613a80565b9050613d158282613cce565b919050565b600067ffffffffffffffff821115613d3557613d34613c9f565b5b613d3e82613b95565b9050602081019050919050565b82818337600083830152505050565b6000613d6d613d6884613d1a565b613cff565b905082815260208101848484011115613d8957613d88613c9a565b5b613d94848285613d4b565b509392505050565b600082601f830112613db157613db0613c95565b5b8135613dc1848260208601613d5a565b91505092915050565b60008060008060808587031215613de457613de3613a8a565b5b6000613df287828801613c4a565b9450506020613e0387828801613c4a565b9350506040613e1487828801613c80565b925050606085013567ffffffffffffffff811115613e3557613e34613a8f565b5b613e4187828801613d9c565b91505092959194509250565b613e5681613a94565b82525050565b6000602082019050613e716000830184613e4d565b92915050565b600060208284031215613e8d57613e8c613a8a565b5b6000613e9b84828501613c4a565b91505092915050565b600081519050919050565b600082825260208201905092915050565b6000819050602082019050919050565b613ed981613c5f565b82525050565b604082016000820151613ef56000850182613ed0565b506020820151613f086020850182613ed0565b50505050565b6000613f1a8383613edf565b60408301905092915050565b6000602082019050919050565b6000613f3e82613ea4565b613f488185613eaf565b9350613f5383613ec0565b8060005b83811015613f84578151613f6b8882613f0e565b9750613f7683613f26565b925050600181019050613f57565b5085935050505092915050565b60006020820190508181036000830152613fab8184613f33565b905092915050565b613fbc81613c5f565b82525050565b6000602082019050613fd76000830184613fb3565b92915050565b600080600060608486031215613ff657613ff5613a8a565b5b600061400486828701613c4a565b935050602061401586828701613c4a565b925050604061402686828701613c80565b9150509250925092565b60006020828403121561404657614045613a8a565b5b600061405484828501613c80565b91505092915050565b6000819050919050565b6140708161405d565b811461407b57600080fd5b50565b60008135905061408d81614067565b92915050565b6000602082840312156140a9576140a8613a8a565b5b60006140b78482850161407e565b91505092915050565b6140c98161405d565b82525050565b60006020820190506140e460008301846140c0565b92915050565b6000806040838503121561410157614100613a8a565b5b600061410f8582860161407e565b925050602061412085828601613c4a565b9150509250929050565b6000806040838503121561414157614140613a8a565b5b600061414f85828601613c4a565b925050602061416085828601613c80565b9150509250929050565b600067ffffffffffffffff82111561418557614184613c9f565b5b61418e82613b95565b9050602081019050919050565b60006141ae6141a98461416a565b613cff565b9050828152602081018484840111156141ca576141c9613c9a565b5b6141d5848285613d4b565b509392505050565b600082601f8301126141f2576141f1613c95565b5b813561420284826020860161419b565b91505092915050565b60006020828403121561422157614220613a8a565b5b600082013567ffffffffffffffff81111561423f5761423e613a8f565b5b61424b848285016141dd565b91505092915050565b61425d81613c21565b82525050565b60006020820190506142786000830184614254565b92915050565b6000806040838503121561429557614294613a8a565b5b60006142a385828601613c80565b92505060206142b485828601613c80565b9150509250929050565b600067ffffffffffffffff8211156142d9576142d8613c9f565b5b602082029050602081019050919050565b600080fd5b60006143026142fd846142be565b613cff565b90508083825260208201905060208402830185811115614325576143246142ea565b5b835b8181101561434e578061433a8882613c80565b845260208401935050602081019050614327565b5050509392505050565b600082601f83011261436d5761436c613c95565b5b813561437d8482602086016142ef565b91505092915050565b60006020828403121561439c5761439b613a8a565b5b600082013567ffffffffffffffff8111156143ba576143b9613a8f565b5b6143c684828501614358565b91505092915050565b60006040820190506143e46000830185614254565b6143f16020830184613fb3565b9392505050565b7f4e487b7100000000000000000000000000000000000000000000000000000000600052602260045260246000fd5b6000600282049050600182168061443f57607f821691505b602082108103614452576144516143f8565b5b50919050565b7f4e487b7100000000000000000000000000000000000000000000000000000000600052603260045260246000fd5b7f43616c6c6572206973206e6f7420616e2061646d696e00000000000000000000600082015250565b60006144bd601683613b5a565b91506144c882614487565b602082019050919050565b600060208201905081810360008301526144ec816144b0565b9050919050565b7f455243373231456e756d657261626c653a206f776e657220696e646578206f7560008201527f74206f6620626f756e6473000000000000000000000000000000000000000000602082015250565b600061454f602b83613b5a565b915061455a826144f3565b604082019050919050565b6000602082019050818103600083015261457e81614542565b9050919050565b60008190508160005260206000209050919050565b60006020601f8301049050919050565b600082821b905092915050565b6000600883026145e77fffffffffffffffffffffffffffffffffffffffffffffffffffffffffffffffff826145aa565b6145f186836145aa565b95508019841693508086168417925050509392505050565b6000819050919050565b600061462e61462961462484613c5f565b614609565b613c5f565b9050919050565b6000819050919050565b61464883614613565b61465c61465482614635565b8484546145b7565b825550505050565b600090565b614671614664565b61467c81848461463f565b505050565b5b818110156146a057614695600082614669565b600181019050614682565b5050565b601f8211156146e5576146b681614585565b6146bf8461459a565b810160208510156146ce578190505b6146e26146da8561459a565b830182614681565b50505b505050565b600082821c905092915050565b6000614708600019846008026146ea565b1980831691505092915050565b600061472183836146f7565b9150826002028217905092915050565b61473a82613b4f565b67ffffffffffffffff81111561475357614752613c9f565b5b61475d8254614427565b6147688282856146a4565b600060209050601f83116001811461479b5760008415614789578287015190505b6147938582614715565b8655506147fb565b601f1984166147a986614585565b60005b828110156147d1578489015182556001820191506020850194506020810190506147ac565b868310156147ee57848901516147ea601f8916826146f7565b8355505b6001600288020188555050505b505050505050565b7f596f7520617265206e6f74207468652073656c6c657200000000000000000000600082015250565b6000614839601683613b5a565b915061484482614803565b602082019050919050565b600060208201905081810360008301526148688161482c565b9050919050565b7f416363657373436f6e74726f6c3a2063616e206f6e6c792072656e6f756e636560008201527f20726f6c657320666f722073656c660000000000000000000000000000000000602082015250565b60006148cb602f83613b5a565b91506148d68261486f565b604082019050919050565b600060208201905081810360008301526148fa816148be565b9050919050565b7f455243373231456e756d657261626c653a20676c6f62616c20696e646578206f60008201527f7574206f6620626f756e64730000000000000000000000000000000000000000602082015250565b600061495d602c83613b5a565b915061496882614901565b604082019050919050565b6000602082019050818103600083015261498c81614950565b9050919050565b7f4552433732313a20696e76616c696420746f6b656e2049440000000000000000600082015250565b60006149c9601883613b5a565b91506149d482614993565b602082019050919050565b600060208201905081810360008301526149f8816149bc565b9050919050565b7f4552433732313a2061646472657373207a65726f206973206e6f74206120766160008201527f6c6964206f776e65720000000000000000000000000000000000000000000000602082015250565b6000614a5b602983613b5a565b9150614a66826149ff565b604082019050919050565b60006020820190508181036000830152614a8a81614a4e565b9050919050565b7f4d617820737570706c79207265616368656420666f7220746869732074797065600082015250565b6000614ac7602083613b5a565b9150614ad282614a91565b602082019050919050565b60006020820190508181036000830152614af681614aba565b9050919050565b7f4e487b7100000000000000000000000000000000000000000000000000000000600052601160045260246000fd5b6000614b3782613c5f565b9150614b4283613c5f565b9250828201905080821115614b5a57614b59614afd565b5b92915050565b6000614b6b82613c5f565b91507fffffffffffffffffffffffffffffffffffffffffffffffffffffffffffffffff8203614b9d57614b9c614afd565b5b600182019050919050565b7f5072696365206d7573742062652067726561746572207468616e207a65726f00600082015250565b6000614bde601f83613b5a565b9150614be982614ba8565b602082019050919050565b60006020820190508181036000830152614c0d81614bd1565b9050919050565b7f596f7520617265206e6f7420746865206f776e6572206f662074686973204e4660008201527f5400000000000000000000000000000000000000000000000000000000000000602082015250565b6000614c70602183613b5a565b9150614c7b82614c14565b604082019050919050565b60006020820190508181036000830152614c9f81614c63565b9050919050565b7f4e65772061727261792063616e6e6f742062652073686f72746572207468616e60008201527f206d696e746564537570706c6965730000000000000000000000000000000000602082015250565b6000614d02602f83613b5a565b9150614d0d82614ca6565b604082019050919050565b60006020820190508181036000830152614d3181614cf5565b9050919050565b7f4e6577206d617820737570706c79206d7573742062652067726561746572207460008201527f68616e206f7220657175616c20746f206d696e74656420737570706c79000000602082015250565b6000614d94603d83613b5a565b9150614d9f82614d38565b604082019050919050565b60006020820190508181036000830152614dc381614d87565b9050919050565b7f496e73756666696369656e74207061796d656e74000000000000000000000000600082015250565b6000614e00601483613b5a565b9150614e0b82614dca565b602082019050919050565b60006020820190508181036000830152614e2f81614df3565b9050919050565b7f4e487b7100000000000000000000000000000000000000000000000000000000600052601260045260246000fd5b6000614e7082613c5f565b9150614e7b83613c5f565b925082614e8b57614e8a614e36565b5b828206905092915050565b6000614ea182613c5f565b9150614eac83613c5f565b9250828203905081811115614ec457614ec3614afd565b5b92915050565b7f4552433732314d657461646174613a2055524920717565727920666f72206e6f60008201527f6e6578697374656e7420746f6b656e0000000000000000000000000000000000602082015250565b6000614f26602f83613b5a565b9150614f3182614eca565b604082019050919050565b60006020820190508181036000830152614f5581614f19565b9050919050565b7f54686973204e4654206973206e6f7420666f722073616c650000000000000000600082015250565b6000614f92601883613b5a565b9150614f9d82614f5c565b602082019050919050565b60006020820190508181036000830152614fc181614f85565b9050919050565b7f496e636f72726563742070726963650000000000000000000000000000000000600082015250565b6000614ffe600f83613b5a565b915061500982614fc8565b602082019050919050565b6000602082019050818103600083015261502d81614ff1565b9050919050565b7f4f776e61626c653a206e6577206f776e657220697320746865207a65726f206160008201527f6464726573730000000000000000000000000000000000000000000000000000602082015250565b6000615090602683613b5a565b915061509b82615034565b604082019050919050565b600060208201905081810360008301526150bf81615083565b9050919050565b7f496e646578206f7574206f6620626f756e647300000000000000000000000000600082015250565b60006150fc601383613b5a565b9150615107826150c6565b602082019050919050565b6000602082019050818103600083015261512b816150ef565b9050919050565b7f4552433732313a207472616e736665722066726f6d20696e636f72726563742060008201527f6f776e6572000000000000000000000000000000000000000000000000000000602082015250565b600061518e602583613b5a565b915061519982615132565b604082019050919050565b600060208201905081810360008301526151bd81615181565b9050919050565b7f4552433732313a207472616e7366657220746f20746865207a65726f2061646460008201527f7265737300000000000000000000000000000000000000000000000000000000602082015250565b6000615220602483613b5a565b915061522b826151c4565b604082019050919050565b6000602082019050818103600083015261524f81615213565b9050919050565b7f4f776e61626c653a2063616c6c6572206973206e6f7420746865206f776e6572600082015250565b600061528c602083613b5a565b915061529782615256565b602082019050919050565b600060208201905081810360008301526152bb8161527f565b9050919050565b7f4552433732313a206d696e7420746f20746865207a65726f2061646472657373600082015250565b60006152f8602083613b5a565b9150615303826152c2565b602082019050919050565b60006020820190508181036000830152615327816152eb565b9050919050565b7f4552433732313a20746f6b656e20616c7265616479206d696e74656400000000600082015250565b6000615364601c83613b5a565b915061536f8261532e565b602082019050919050565b6000602082019050818103600083015261539381615357565b9050919050565b7f464d4e3a2055524920736574206f66206e6f6e6578697374656e7420746f6b6560008201527f6e00000000000000000000000000000000000000000000000000000000000000602082015250565b60006153f6602183613b5a565b91506154018261539a565b604082019050919050565b60006020820190508181036000830152615425816153e9565b9050919050565b600081905092915050565b6000815461544481614427565b61544e818661542c565b94506001821660008114615469576001811461547e576154b1565b60ff19831686528115158202860193506154b1565b61548785614585565b60005b838110156154a95781548189015260018201915060208101905061548a565b838801955050505b50505092915050565b60006154c582613b4f565b6154cf818561542c565b93506154df818560208601613b6b565b80840191505092915050565b7f2e6a736f6e000000000000000000000000000000000000000000000000000000600082015250565b600061552160058361542c565b915061552c826154eb565b600582019050919050565b60006155438285615437565b915061554f82846154ba565b915061555a82615514565b91508190509392505050565b6000819050919050565b61558161557c82613c5f565b615566565b82525050565b60008160601b9050919050565b600061559f82615587565b9050919050565b60006155b182615594565b9050919050565b6155c96155c482613c21565b6155a6565b82525050565b60006155db8286615570565b6020820191506155eb8285615570565b6020820191506155fb82846155b8565b601482019150819050949350505050565b600061561882856154ba565b915061562482846154ba565b91508190509392505050565b7f455243373231456e756d657261626c653a20636f6e736563757469766520747260008201527f616e7366657273206e6f7420737570706f727465640000000000000000000000602082015250565b600061568c603583613b5a565b915061569782615630565b604082019050919050565b600060208201905081810360008301526156bb8161567f565b9050919050565b7f416363657373436f6e74726f6c3a206163636f756e7420000000000000000000600082015250565b60006156f860178361542c565b9150615703826156c2565b601782019050919050565b7f206973206d697373696e6720726f6c6520000000000000000000000000000000600082015250565b600061574460118361542c565b915061574f8261570e565b601182019050919050565b6000615765826156eb565b915061577182856154ba565b915061577c82615737565b915061578882846154ba565b91508190509392505050565b7f4e487b7100000000000000000000000000000000000000000000000000000000600052603160045260246000fd5b60006157ce82613c5f565b91506157d983613c5f565b92508282026157e781613c5f565b915082820484148315176157fe576157fd614afd565b5b5092915050565b600061581082613c5f565b91506000820361582357615822614afd565b5b600182039050919050565b7f537472696e67733a20686578206c656e67746820696e73756666696369656e74600082015250565b6000615864602083613b5a565b915061586f8261582e565b602082019050919050565b6000602082019050818103600083015261589381615857565b905091905056fea264697066735822122036819cb0b92782f88e4441a7b7d0acce85e7a779aaff48723e709eba9e9059b864736f6c63430008180033697066733a2f2f516d5279544a366d7443346d4e46685a5263714864335232514c6e4b4131584c78666655386e58536678695a4b572f",
  "linkReferences": {},
  "deployedLinkReferences": {}
}