{
  "_format": "hh-sol-artifact-1",
  "contractName": "FishermanNFT",
  "sourceName": "contracts/FishermanNFT.sol",
  "abi": [
    {
      "inputs": [
        {
          "internalType": "uint256",
          "name": "_mintPrice",
          "type": "uint256"
        }
      ],
      "stateMutability": "nonpayable",
      "type": "constructor"
    },
    {
      "anonymous": false,
      "inputs": [
        {
          "indexed": true,
          "internalType": "address",
          "name": "newAdmin",
          "type": "address"
        }
      ],
      "name": "AdminAdded",
      "type": "event"
    },
    {
      "anonymous": false,
      "inputs": [
        {
          "indexed": true,
          "internalType": "address",
          "name": "removedAdmin",
          "type": "address"
        }
      ],
      "name": "AdminRemoved",
      "type": "event"
    },
    {
      "anonymous": false,
      "inputs": [
        {
          "indexed": true,
          "internalType": "address",
          "name": "to",
          "type": "address"
        },
        {
          "indexed": true,
          "internalType": "uint256",
          "name": "tokenId",
          "type": "uint256"
        }
      ],
      "name": "FishermanMinted",
      "type": "event"
    },
    {
      "anonymous": false,
      "inputs": [
        {
          "indexed": true,
          "internalType": "uint256",
          "name": "tokenId",
          "type": "uint256"
        },
        {
          "indexed": true,
          "internalType": "address",
          "name": "seller",
          "type": "address"
        },
        {
          "indexed": false,
          "internalType": "uint256",
          "name": "price",
          "type": "uint256"
        }
      ],
      "name": "ItemListed",
      "type": "event"
    },
    {
      "anonymous": false,
      "inputs": [
        {
          "indexed": true,
          "internalType": "uint256",
          "name": "tokenId",
          "type": "uint256"
        },
        {
          "indexed": true,
          "internalType": "address",
          "name": "buyer",
          "type": "address"
        },
        {
          "indexed": false,
          "internalType": "uint256",
          "name": "price",
          "type": "uint256"
        }
      ],
      "name": "ItemSold",
      "type": "event"
    },
    {
      "anonymous": false,
      "inputs": [
        {
          "indexed": false,
          "internalType": "uint256",
          "name": "_tokenId",
          "type": "uint256"
        }
      ],
      "name": "MetadataUpdate",
      "type": "event"
    },
    {
      "anonymous": false,
      "inputs": [
        {
          "indexed": true,
          "internalType": "address",
          "name": "previousOwner",
          "type": "address"
        },
        {
          "indexed": true,
          "internalType": "address",
          "name": "newOwner",
          "type": "address"
        }
      ],
      "name": "OwnershipTransferred",
      "type": "event"
    },
    {
      "anonymous": false,
      "inputs": [
        {
          "indexed": true,
          "internalType": "bytes32",
          "name": "role",
          "type": "bytes32"
        },
        {
          "indexed": true,
          "internalType": "bytes32",
          "name": "previousAdminRole",
          "type": "bytes32"
        },
        {
          "indexed": true,
          "internalType": "bytes32",
          "name": "newAdminRole",
          "type": "bytes32"
        }
      ],
      "name": "RoleAdminChanged",
      "type": "event"
    },
    {
      "anonymous": false,
      "inputs": [
        {
          "indexed": true,
          "internalType": "bytes32",
          "name": "role",
          "type": "bytes32"
        },
        {
          "indexed": true,
          "internalType": "address",
          "name": "account",
          "type": "address"
        },
        {
          "indexed": true,
          "internalType": "address",
          "name": "sender",
          "type": "address"
        }
      ],
      "name": "RoleGranted",
      "type": "event"
    },
    {
      "anonymous": false,
      "inputs": [
        {
          "indexed": true,
          "internalType": "bytes32",
          "name": "role",
          "type": "bytes32"
        },
        {
          "indexed": true,
          "internalType": "address",
          "name": "account",
          "type": "address"
        },
        {
          "indexed": true,
          "internalType": "address",
          "name": "sender",
          "type": "address"
        }
      ],
      "name": "RoleRevoked",
      "type": "event"
    },
    {
      "anonymous": false,
      "inputs": [
        {
          "indexed": true,
          "internalType": "address",
          "name": "from",
          "type": "address"
        },
        {
          "indexed": true,
          "internalType": "address",
          "name": "to",
          "type": "address"
        },
        {
          "indexed": true,
          "internalType": "uint256",
          "name": "tokenId",
          "type": "uint256"
        }
      ],
      "name": "Transfer",
      "type": "event"
    },
    {
      "inputs": [],
      "name": "ADMIN_ROLE",
      "outputs": [
        {
          "internalType": "bytes32",
          "name": "",
          "type": "bytes32"
        }
      ],
      "stateMutability": "view",
      "type": "function"
    },
    {
      "inputs": [],
      "name": "DEFAULT_ADMIN_ROLE",
      "outputs": [
        {
          "internalType": "bytes32",
          "name": "",
          "type": "bytes32"
        }
      ],
      "stateMutability": "view",
      "type": "function"
    },
    {
      "inputs": [
        {
          "internalType": "address",
          "name": "owner",
          "type": "address"
        }
      ],
      "name": "balanceOf",
      "outputs": [
        {
          "internalType": "uint256",
          "name": "",
          "type": "uint256"
        }
      ],
      "stateMutability": "view",
      "type": "function"
    },
    {
      "inputs": [
        {
          "internalType": "uint256",
          "name": "tokenId",
          "type": "uint256"
        }
      ],
      "name": "buyItem",
      "outputs": [],
      "stateMutability": "payable",
      "type": "function"
    },
    {
      "inputs": [
        {
          "internalType": "uint256",
          "name": "tokenId",
          "type": "uint256"
        }
      ],
      "name": "cancelListing",
      "outputs": [],
      "stateMutability": "nonpayable",
      "type": "function"
    },
    {
      "inputs": [
        {
          "internalType": "address",
          "name": "playAddress",
          "type": "address"
        }
      ],
      "name": "freeMintFisherman",
      "outputs": [
        {
          "internalType": "uint256",
          "name": "",
          "type": "uint256"
        }
      ],
      "stateMutability": "nonpayable",
      "type": "function"
    },
    {
      "inputs": [
        {
          "internalType": "address",
          "name": "owner",
          "type": "address"
        }
      ],
      "name": "getOwnedNFTs",
      "outputs": [
        {
          "internalType": "uint256[]",
          "name": "",
          "type": "uint256[]"
        }
      ],
      "stateMutability": "view",
      "type": "function"
    },
    {
      "inputs": [
        {
          "internalType": "bytes32",
          "name": "role",
          "type": "bytes32"
        }
      ],
      "name": "getRoleAdmin",
      "outputs": [
        {
          "internalType": "bytes32",
          "name": "",
          "type": "bytes32"
        }
      ],
      "stateMutability": "view",
      "type": "function"
    },
    {
      "inputs": [
        {
          "internalType": "bytes32",
          "name": "role",
          "type": "bytes32"
        },
        {
          "internalType": "address",
          "name": "account",
          "type": "address"
        }
      ],
      "name": "grantRole",
      "outputs": [],
      "stateMutability": "nonpayable",
      "type": "function"
    },
    {
      "inputs": [
        {
          "internalType": "bytes32",
          "name": "role",
          "type": "bytes32"
        },
        {
          "internalType": "address",
          "name": "account",
          "type": "address"
        }
      ],
      "name": "hasRole",
      "outputs": [
        {
          "internalType": "bool",
          "name": "",
          "type": "bool"
        }
      ],
      "stateMutability": "view",
      "type": "function"
    },
    {
      "inputs": [
        {
          "internalType": "uint256",
          "name": "tokenId",
          "type": "uint256"
        },
        {
          "internalType": "uint256",
          "name": "price",
          "type": "uint256"
        }
      ],
      "name": "listItem",
      "outputs": [],
      "stateMutability": "nonpayable",
      "type": "function"
    },
    {
      "inputs": [
        {
          "internalType": "uint256",
          "name": "",
          "type": "uint256"
        }
      ],
      "name": "listings",
      "outputs": [
        {
          "internalType": "address",
          "name": "seller",
          "type": "address"
        },
        {
          "internalType": "uint256",
          "name": "price",
          "type": "uint256"
        }
      ],
      "stateMutability": "view",
      "type": "function"
    },
    {
      "inputs": [
        {
          "internalType": "uint256",
          "name": "",
          "type": "uint256"
        }
      ],
      "name": "maxSupplies",
      "outputs": [
        {
          "internalType": "uint256",
          "name": "",
          "type": "uint256"
        }
      ],
      "stateMutability": "view",
      "type": "function"
    },
    {
      "inputs": [],
      "name": "mintFisherman",
      "outputs": [
        {
          "internalType": "uint256",
          "name": "",
          "type": "uint256"
        }
      ],
      "stateMutability": "payable",
      "type": "function"
    },
    {
      "inputs": [],
      "name": "mintPrice",
      "outputs": [
        {
          "internalType": "uint256",
          "name": "",
          "type": "uint256"
        }
      ],
      "stateMutability": "view",
      "type": "function"
    },
    {
      "inputs": [
        {
          "internalType": "uint256",
          "name": "",
          "type": "uint256"
        }
      ],
      "name": "mintedSupplies",
      "outputs": [
        {
          "internalType": "uint256",
          "name": "",
          "type": "uint256"
        }
      ],
      "stateMutability": "view",
      "type": "function"
    },
    {
      "inputs": [],
      "name": "name",
      "outputs": [
        {
          "internalType": "string",
          "name": "",
          "type": "string"
        }
      ],
      "stateMutability": "view",
      "type": "function"
    },
    {
      "inputs": [
        {
          "internalType": "address",
          "name": "",
          "type": "address"
        },
        {
          "internalType": "address",
          "name": "",
          "type": "address"
        },
        {
          "internalType": "uint256",
          "name": "",
          "type": "uint256"
        },
        {
          "internalType": "bytes",
          "name": "",
          "type": "bytes"
        }
      ],
      "name": "onERC721Received",
      "outputs": [
        {
          "internalType": "bytes4",
          "name": "",
          "type": "bytes4"
        }
      ],
      "stateMutability": "nonpayable",
      "type": "function"
    },
    {
      "inputs": [],
      "name": "owner",
      "outputs": [
        {
          "internalType": "address",
          "name": "",
          "type": "address"
        }
      ],
      "stateMutability": "view",
      "type": "function"
    },
    {
      "inputs": [
        {
          "internalType": "uint256",
          "name": "tokenId",
          "type": "uint256"
        }
      ],
      "name": "ownerOf",
      "outputs": [
        {
          "internalType": "address",
          "name": "",
          "type": "address"
        }
      ],
      "stateMutability": "view",
      "type": "function"
    },
    {
      "inputs": [],
      "name": "renounceOwnership",
      "outputs": [],
      "stateMutability": "nonpayable",
      "type": "function"
    },
    {
      "inputs": [
        {
          "internalType": "bytes32",
          "name": "role",
          "type": "bytes32"
        },
        {
          "internalType": "address",
          "name": "account",
          "type": "address"
        }
      ],
      "name": "renounceRole",
      "outputs": [],
      "stateMutability": "nonpayable",
      "type": "function"
    },
    {
      "inputs": [
        {
          "internalType": "bytes32",
          "name": "role",
          "type": "bytes32"
        },
        {
          "internalType": "address",
          "name": "account",
          "type": "address"
        }
      ],
      "name": "revokeRole",
      "outputs": [],
      "stateMutability": "nonpayable",
      "type": "function"
    },
    {
      "inputs": [
        {
          "internalType": "string",
          "name": "newBaseTokenURI",
          "type": "string"
        }
      ],
      "name": "setBaseTokenURI",
      "outputs": [],
      "stateMutability": "nonpayable",
      "type": "function"
    },
    {
      "inputs": [
        {
          "internalType": "uint256",
          "name": "newMintPrice",
          "type": "uint256"
        }
      ],
      "name": "setMintPrice",
      "outputs": [],
      "stateMutability": "nonpayable",
      "type": "function"
    },
    {
      "inputs": [
        {
          "internalType": "bytes4",
          "name": "interfaceId",
          "type": "bytes4"
        }
      ],
      "name": "supportsInterface",
      "outputs": [
        {
          "internalType": "bool",
          "name": "",
          "type": "bool"
        }
      ],
      "stateMutability": "view",
      "type": "function"
    },
    {
      "inputs": [],
      "name": "symbol",
      "outputs": [
        {
          "internalType": "string",
          "name": "",
          "type": "string"
        }
      ],
      "stateMutability": "view",
      "type": "function"
    },
    {
      "inputs": [
        {
          "internalType": "uint256",
          "name": "index",
          "type": "uint256"
        }
      ],
      "name": "tokenByIndex",
      "outputs": [
        {
          "internalType": "uint256",
          "name": "",
          "type": "uint256"
        }
      ],
      "stateMutability": "view",
      "type": "function"
    },
    {
      "inputs": [
        {
          "internalType": "address",
          "name": "owner",
          "type": "address"
        },
        {
          "internalType": "uint256",
          "name": "index",
          "type": "uint256"
        }
      ],
      "name": "tokenOfOwnerByIndex",
      "outputs": [
        {
          "internalType": "uint256",
          "name": "",
          "type": "uint256"
        }
      ],
      "stateMutability": "view",
      "type": "function"
    },
    {
      "inputs": [
        {
          "internalType": "uint256",
          "name": "tokenId",
          "type": "uint256"
        }
      ],
      "name": "tokenURI",
      "outputs": [
        {
          "internalType": "string",
          "name": "",
          "type": "string"
        }
      ],
      "stateMutability": "view",
      "type": "function"
    },
    {
      "inputs": [],
      "name": "totalSupply",
      "outputs": [
        {
          "internalType": "uint256",
          "name": "",
          "type": "uint256"
        }
      ],
      "stateMutability": "view",
      "type": "function"
    },
    {
      "inputs": [
        {
          "internalType": "address",
          "name": "from",
          "type": "address"
        },
        {
          "internalType": "address",
          "name": "to",
          "type": "address"
        },
        {
          "internalType": "uint256",
          "name": "tokenId",
          "type": "uint256"
        }
      ],
      "name": "transferFrom",
      "outputs": [],
      "stateMutability": "nonpayable",
      "type": "function"
    },
    {
      "inputs": [
        {
          "internalType": "address",
          "name": "newOwner",
          "type": "address"
        }
      ],
      "name": "transferOwnership",
      "outputs": [],
      "stateMutability": "nonpayable",
      "type": "function"
    },
    {
      "inputs": [],
      "name": "withdraw",
      "outputs": [],
      "stateMutability": "nonpayable",
      "type": "function"
    }
  ],
  "bytecode": "0x60806040526040518060600160405280603681526020016200575a60369139600f90816200002e9190620006d1565b5060405180606001604052806201312d62ffffff16815260200161400062ffffff16815260200161088b62ffffff16815250601290600362000072929190620003ec565b503480156200008057600080fd5b5060405162005790380380620057908339818101604052810190620000a69190620007ee565b6040518060400160405280600c81526020017f4669736865726d616e4e465400000000000000000000000000000000000000008152506040518060400160405280600381526020017f464d4e00000000000000000000000000000000000000000000000000000000008152506200013262000126620001ad60201b60201c565b620001b560201b60201c565b8160019081620001439190620006d1565b508060029081620001559190620006d1565b50505080601081905550620001746000801b336200027960201b60201c565b620001a67fa49807205ce4d355092ef5a8a18f56e8913cf4a201fbe287825b095693c21775336200027960201b60201c565b5062000820565b600033905090565b60008060009054906101000a900473ffffffffffffffffffffffffffffffffffffffff169050816000806101000a81548173ffffffffffffffffffffffffffffffffffffffff021916908373ffffffffffffffffffffffffffffffffffffffff1602179055508173ffffffffffffffffffffffffffffffffffffffff168173ffffffffffffffffffffffffffffffffffffffff167f8be0079c531659141344cd1fd0a4f28419497f9722a3daafe3b4186f6b6457e060405160405180910390a35050565b6200028b82826200028f60201b60201c565b5050565b620002a182826200038160201b60201c565b6200037d5760016006600084815260200190815260200160002060000160008373ffffffffffffffffffffffffffffffffffffffff1673ffffffffffffffffffffffffffffffffffffffff16815260200190815260200160002060006101000a81548160ff02191690831515021790555062000322620001ad60201b60201c565b73ffffffffffffffffffffffffffffffffffffffff168173ffffffffffffffffffffffffffffffffffffffff16837f2f8788117e7eff1d82e926ec794901d17c78024a50270940304540a733656f0d60405160405180910390a45b5050565b60006006600084815260200190815260200160002060000160008373ffffffffffffffffffffffffffffffffffffffff1673ffffffffffffffffffffffffffffffffffffffff16815260200190815260200160002060009054906101000a900460ff16905092915050565b826003810192821562000425579160200282015b8281111562000424578251829062ffffff1690559160200191906001019062000400565b5b50905062000434919062000438565b5090565b5b808211156200045357600081600090555060010162000439565b5090565b600081519050919050565b7f4e487b7100000000000000000000000000000000000000000000000000000000600052604160045260246000fd5b7f4e487b7100000000000000000000000000000000000000000000000000000000600052602260045260246000fd5b60006002820490506001821680620004d957607f821691505b602082108103620004ef57620004ee62000491565b5b50919050565b60008190508160005260206000209050919050565b60006020601f8301049050919050565b600082821b905092915050565b600060088302620005597fffffffffffffffffffffffffffffffffffffffffffffffffffffffffffffffff826200051a565b6200056586836200051a565b95508019841693508086168417925050509392505050565b6000819050919050565b6000819050919050565b6000620005b2620005ac620005a6846200057d565b62000587565b6200057d565b9050919050565b6000819050919050565b620005ce8362000591565b620005e6620005dd82620005b9565b84845462000527565b825550505050565b600090565b620005fd620005ee565b6200060a818484620005c3565b505050565b5b81811015620006325762000626600082620005f3565b60018101905062000610565b5050565b601f82111562000681576200064b81620004f5565b62000656846200050a565b8101602085101562000666578190505b6200067e62000675856200050a565b8301826200060f565b50505b505050565b600082821c905092915050565b6000620006a66000198460080262000686565b1980831691505092915050565b6000620006c1838362000693565b9150826002028217905092915050565b620006dc8262000457565b67ffffffffffffffff811115620006f857620006f762000462565b5b620007048254620004c0565b6200071182828562000636565b600060209050601f83116001811462000749576000841562000734578287015190505b620007408582620006b3565b865550620007b0565b601f1984166200075986620004f5565b60005b8281101562000783578489015182556001820191506020850194506020810190506200075c565b86831015620007a357848901516200079f601f89168262000693565b8355505b6001600288020188555050505b505050505050565b600080fd5b620007c8816200057d565b8114620007d457600080fd5b50565b600081519050620007e881620007bd565b92915050565b600060208284031215620008075762000806620007b8565b5b60006200081784828501620007d7565b91505092915050565b614f2a80620008306000396000f3fe6080604052600436106101f95760003560e01c806370a082311161010d57806395d89b41116100a0578063d547741f1161006f578063d547741f14610786578063de74e57b146107af578063e7fb74c7146107ed578063f2fde38b14610809578063f4a0a52814610832576101f9565b806395d89b41146106d5578063a212a5cc14610700578063a217fddf1461071e578063c87b56dd14610749576101f9565b806387962dcc116100dc57806387962dcc14610607578063883efa67146106445780638da5cb5b1461066d57806391d1485414610698576101f9565b806370a082311461054b578063715018a61461058857806375b238fc1461059f5780637f22b99d146105ca576101f9565b80632f2ff15d1161019057806336568abe1161015f57806336568abe146104665780633ccfd60b1461048f5780634f6ccce7146104a65780636352211e146104e35780636817c76c14610520576101f9565b80632f2ff15d146103ae5780632f745c59146103d757806330176e1314610414578063305a67a81461043d576101f9565b806318160ddd116101cc57806318160ddd146102e057806323b872dd1461030b5780632489fd5e14610334578063248a9ca314610371576101f9565b806301ffc9a7146101fe57806306fdde031461023b578063150b7a021461026657806318148f1b146102a3575b600080fd5b34801561020a57600080fd5b5061022560048036038101906102209190613416565b61085b565b604051610232919061345e565b60405180910390f35b34801561024757600080fd5b5061025061093d565b60405161025d9190613509565b60405180910390f35b34801561027257600080fd5b5061028d600480360381019061028891906136f4565b6109cf565b60405161029a9190613786565b60405180910390f35b3480156102af57600080fd5b506102ca60048036038101906102c591906137a1565b6109e3565b6040516102d7919061388c565b60405180910390f35b3480156102ec57600080fd5b506102f5610a8b565b60405161030291906138bd565b60405180910390f35b34801561031757600080fd5b50610332600480360381019061032d91906138d8565b610a98565b005b34801561034057600080fd5b5061035b6004803603810190610356919061392b565b610b11565b60405161036891906138bd565b60405180910390f35b34801561037d57600080fd5b506103986004803603810190610393919061398e565b610b2c565b6040516103a591906139ca565b60405180910390f35b3480156103ba57600080fd5b506103d560048036038101906103d091906139e5565b610b4c565b005b3480156103e357600080fd5b506103fe60048036038101906103f99190613a25565b610b6d565b60405161040b91906138bd565b60405180910390f35b34801561042057600080fd5b5061043b60048036038101906104369190613b06565b610c12565b005b34801561044957600080fd5b50610464600480360381019061045f919061392b565b610c8e565b005b34801561047257600080fd5b5061048d600480360381019061048891906139e5565b610dd6565b005b34801561049b57600080fd5b506104a4610e59565b005b3480156104b257600080fd5b506104cd60048036038101906104c8919061392b565b610eb7565b6040516104da91906138bd565b60405180910390f35b3480156104ef57600080fd5b5061050a6004803603810190610505919061392b565b610f28565b6040516105179190613b5e565b60405180910390f35b34801561052c57600080fd5b50610535610fae565b60405161054291906138bd565b60405180910390f35b34801561055757600080fd5b50610572600480360381019061056d91906137a1565b610fb4565b60405161057f91906138bd565b60405180910390f35b34801561059457600080fd5b5061059d61106b565b005b3480156105ab57600080fd5b506105b461107f565b6040516105c191906139ca565b60405180910390f35b3480156105d657600080fd5b506105f160048036038101906105ec91906137a1565b6110a3565b6040516105fe91906138bd565b60405180910390f35b34801561061357600080fd5b5061062e6004803603810190610629919061392b565b6112ea565b60405161063b91906138bd565b60405180910390f35b34801561065057600080fd5b5061066b60048036038101906106669190613b79565b611305565b005b34801561067957600080fd5b506106826114ae565b60405161068f9190613b5e565b60405180910390f35b3480156106a457600080fd5b506106bf60048036038101906106ba91906139e5565b6114d7565b6040516106cc919061345e565b60405180910390f35b3480156106e157600080fd5b506106ea611542565b6040516106f79190613509565b60405180910390f35b6107086115d4565b60405161071591906138bd565b60405180910390f35b34801561072a57600080fd5b506107336118a1565b60405161074091906139ca565b60405180910390f35b34801561075557600080fd5b50610770600480360381019061076b919061392b565b6118a8565b60405161077d9190613509565b60405180910390f35b34801561079257600080fd5b506107ad60048036038101906107a891906139e5565b6119d8565b005b3480156107bb57600080fd5b506107d660048036038101906107d1919061392b565b6119f9565b6040516107e4929190613bb9565b60405180910390f35b6108076004803603810190610802919061392b565b611a3d565b005b34801561081557600080fd5b50610830600480360381019061082b91906137a1565b611c3e565b005b34801561083e57600080fd5b506108596004803603810190610854919061392b565b611cc1565b005b60007f304ad1f2000000000000000000000000000000000000000000000000000000007bffffffffffffffffffffffffffffffffffffffffffffffffffffffff1916827bffffffffffffffffffffffffffffffffffffffffffffffffffffffff1916148061092657507f5b5e139f000000000000000000000000000000000000000000000000000000007bffffffffffffffffffffffffffffffffffffffffffffffffffffffff1916827bffffffffffffffffffffffffffffffffffffffffffffffffffffffff1916145b80610936575061093582611d34565b5b9050919050565b60606007805461094c90613c11565b80601f016020809104026020016040519081016040528092919081815260200182805461097890613c11565b80156109c55780601f1061099a576101008083540402835291602001916109c5565b820191906000526020600020905b8154815290600101906020018083116109a857829003601f168201915b5050505050905090565b600063150b7a0260e01b9050949350505050565b606060006109f083610fb4565b905060008167ffffffffffffffff811115610a0e57610a0d6135c9565b5b604051908082528060200260200182016040528015610a3c5781602001602082028036833780820191505090505b50905060005b82811015610a8057610a548582610b6d565b828281518110610a6757610a66613c42565b5b6020026020010181815250508080600101915050610a42565b508092505050919050565b6000600d80549050905090565b610ac27fa49807205ce4d355092ef5a8a18f56e8913cf4a201fbe287825b095693c21775336114d7565b610b01576040517f08c379a0000000000000000000000000000000000000000000000000000000008152600401610af890613cbd565b60405180910390fd5b610b0c838383611dae565b505050565b60158160038110610b2157600080fd5b016000915090505481565b600060066000838152602001908152602001600020600101549050919050565b610b5582610b2c565b610b5e816120a7565b610b6883836120bb565b505050565b6000610b7883610fb4565b8210610bb9576040517f08c379a0000000000000000000000000000000000000000000000000000000008152600401610bb090613d4f565b60405180910390fd5b600b60008473ffffffffffffffffffffffffffffffffffffffff1673ffffffffffffffffffffffffffffffffffffffff168152602001908152602001600020600083815260200190815260200160002054905092915050565b610c3c7fa49807205ce4d355092ef5a8a18f56e8913cf4a201fbe287825b095693c21775336114d7565b610c7b576040517f08c379a0000000000000000000000000000000000000000000000000000000008152600401610c7290613cbd565b60405180910390fd5b80600f9081610c8a9190613f1b565b5050565b6000601160008381526020019081526020016000206040518060400160405290816000820160009054906101000a900473ffffffffffffffffffffffffffffffffffffffff1673ffffffffffffffffffffffffffffffffffffffff1673ffffffffffffffffffffffffffffffffffffffff16815260200160018201548152505090503373ffffffffffffffffffffffffffffffffffffffff16816000015173ffffffffffffffffffffffffffffffffffffffff1614610d82576040517f08c379a0000000000000000000000000000000000000000000000000000000008152600401610d7990614039565b60405180910390fd5b60116000838152602001908152602001600020600080820160006101000a81549073ffffffffffffffffffffffffffffffffffffffff021916905560018201600090555050610dd230338461219c565b5050565b610dde6121ac565b73ffffffffffffffffffffffffffffffffffffffff168173ffffffffffffffffffffffffffffffffffffffff1614610e4b576040517f08c379a0000000000000000000000000000000000000000000000000000000008152600401610e42906140cb565b60405180910390fd5b610e5582826121b4565b5050565b610e61612296565b6000479050610e6e6114ae565b73ffffffffffffffffffffffffffffffffffffffff166108fc829081150290604051600060405180830381858888f19350505050158015610eb3573d6000803e3d6000fd5b5050565b6000610ec1610a8b565b8210610f02576040517f08c379a0000000000000000000000000000000000000000000000000000000008152600401610ef99061415d565b60405180910390fd5b600d8281548110610f1657610f15613c42565b5b90600052602060002001549050919050565b600080610f3483612314565b9050600073ffffffffffffffffffffffffffffffffffffffff168173ffffffffffffffffffffffffffffffffffffffff1603610fa5576040517f08c379a0000000000000000000000000000000000000000000000000000000008152600401610f9c906141c9565b60405180910390fd5b80915050919050565b60105481565b60008073ffffffffffffffffffffffffffffffffffffffff168273ffffffffffffffffffffffffffffffffffffffff1603611024576040517f08c379a000000000000000000000000000000000000000000000000000000000815260040161101b9061425b565b60405180910390fd5b600460008373ffffffffffffffffffffffffffffffffffffffff1673ffffffffffffffffffffffffffffffffffffffff168152602001908152602001600020549050919050565b611073612296565b61107d6000612351565b565b7fa49807205ce4d355092ef5a8a18f56e8913cf4a201fbe287825b095693c2177581565b60006110cf7fa49807205ce4d355092ef5a8a18f56e8913cf4a201fbe287825b095693c21775336114d7565b61110e576040517f08c379a000000000000000000000000000000000000000000000000000000000815260040161110590613cbd565b60405180910390fd5b60006012816003811061112457611123613c42565b5b01546015826003811061113a57611139613c42565b5b01541061117c576040517f08c379a0000000000000000000000000000000000000000000000000000000008152600401611173906142c7565b60405180910390fd5b60006111886009612415565b90506111946009612423565b60008083036111ba57601583600381106111b1576111b0613c42565b5b0154905061125c565b600183036112005760126000600381106111d7576111d6613c42565b5b0154601584600381106111ed576111ec613c42565b5b01546111f99190614316565b905061125b565b601260016003811061121557611214613c42565b5b0154601260006003811061122c5761122b613c42565b5b01546015856003811061124257611241613c42565b5b015461124e9190614316565b6112589190614316565b90505b5b601583600381106112705761126f613c42565b5b0160008154809291906112829061434a565b91905055506112918583612439565b61129b8282612656565b818573ffffffffffffffffffffffffffffffffffffffff167f481c7643feee65e3c4695e3ee1c9c62e06eae3bd9328a59c41b1fa92a6d39fdd60405160405180910390a3819350505050919050565b601281600381106112fa57600080fd5b016000915090505481565b60008111611348576040517f08c379a000000000000000000000000000000000000000000000000000000000815260040161133f906143de565b60405180910390fd5b3373ffffffffffffffffffffffffffffffffffffffff1661136883610f28565b73ffffffffffffffffffffffffffffffffffffffff16146113be576040517f08c379a00000000000000000000000000000000000000000000000000000000081526004016113b590614470565b60405180910390fd5b6113c933308461219c565b60405180604001604052803373ffffffffffffffffffffffffffffffffffffffff168152602001828152506011600084815260200190815260200160002060008201518160000160006101000a81548173ffffffffffffffffffffffffffffffffffffffff021916908373ffffffffffffffffffffffffffffffffffffffff160217905550602082015181600101559050503373ffffffffffffffffffffffffffffffffffffffff16827fc93edc6ee14cd6c0c2842099adfa8953b237dbdad304ba28e96dce8a7f2a828c836040516114a291906138bd565b60405180910390a35050565b60008060009054906101000a900473ffffffffffffffffffffffffffffffffffffffff16905090565b60006006600084815260200190815260200160002060000160008373ffffffffffffffffffffffffffffffffffffffff1673ffffffffffffffffffffffffffffffffffffffff16815260200190815260200160002060009054906101000a900460ff16905092915050565b60606008805461155190613c11565b80601f016020809104026020016040519081016040528092919081815260200182805461157d90613c11565b80156115ca5780601f1061159f576101008083540402835291602001916115ca565b820191906000526020600020905b8154815290600101906020018083116115ad57829003601f168201915b5050505050905090565b600060105434101561161b576040517f08c379a0000000000000000000000000000000000000000000000000000000008152600401611612906144dc565b60405180910390fd5b600060016064611629612724565b611633919061452b565b61163d9190614316565b90506000604682116116525760009050611669565b606382116116635760019050611668565b600290505b5b6012816003811061167d5761167c613c42565b5b01546015826003811061169357611692613c42565b5b0154106116d5576040517f08c379a00000000000000000000000000000000000000000000000000000000081526004016116cc906142c7565b60405180910390fd5b60006116e16009612415565b90506116ed6009612423565b6000808303611713576015836003811061170a57611709613c42565b5b015490506117b5565b600183036117595760126000600381106117305761172f613c42565b5b01546015846003811061174657611745613c42565b5b01546117529190614316565b90506117b4565b601260016003811061176e5761176d613c42565b5b0154601260006003811061178557611784613c42565b5b01546015856003811061179b5761179a613c42565b5b01546117a79190614316565b6117b19190614316565b90505b5b601583600381106117c9576117c8613c42565b5b0160008154809291906117db9061434a565b91905055506117ea3383612439565b6117f48282612656565b813373ffffffffffffffffffffffffffffffffffffffff167f481c7643feee65e3c4695e3ee1c9c62e06eae3bd9328a59c41b1fa92a6d39fdd60405160405180910390a3601054341115611897573373ffffffffffffffffffffffffffffffffffffffff166108fc6010543461186a919061455c565b9081150290604051600060405180830381858888f19350505050158015611895573d6000803e3d6000fd5b505b8194505050505090565b6000801b81565b60606118b382612759565b6118f2576040517f08c379a00000000000000000000000000000000000000000000000000000000081526004016118e990614602565b60405180910390fd5b6000600a6000848152602001908152602001600020805461191290613c11565b80601f016020809104026020016040519081016040528092919081815260200182805461193e90613c11565b801561198b5780601f106119605761010080835404028352916020019161198b565b820191906000526020600020905b81548152906001019060200180831161196e57829003601f168201915b50505050509050600061199c61279a565b905060008151036119b15781925050506119d3565b6000825111156119c55781925050506119d3565b6119ce8461282c565b925050505b919050565b6119e182610b2c565b6119ea816120a7565b6119f483836121b4565b505050565b60116020528060005260406000206000915090508060000160009054906101000a900473ffffffffffffffffffffffffffffffffffffffff16908060010154905082565b6000601160008381526020019081526020016000206040518060400160405290816000820160009054906101000a900473ffffffffffffffffffffffffffffffffffffffff1673ffffffffffffffffffffffffffffffffffffffff1673ffffffffffffffffffffffffffffffffffffffff16815260200160018201548152505090506000816020015111611b06576040517f08c379a0000000000000000000000000000000000000000000000000000000008152600401611afd9061466e565b60405180910390fd5b80602001513414611b4c576040517f08c379a0000000000000000000000000000000000000000000000000000000008152600401611b43906146da565b60405180910390fd5b60116000838152602001908152602001600020600080820160006101000a81549073ffffffffffffffffffffffffffffffffffffffff021916905560018201600090555050611b9c30338461219c565b806000015173ffffffffffffffffffffffffffffffffffffffff166108fc349081150290604051600060405180830381858888f19350505050158015611be6573d6000803e3d6000fd5b503373ffffffffffffffffffffffffffffffffffffffff16827fa574c741071bb18f51fa88c17aeefec514bebf670ca22a3736fba6504ecbb7638360200151604051611c3291906138bd565b60405180910390a35050565b611c46612296565b600073ffffffffffffffffffffffffffffffffffffffff168173ffffffffffffffffffffffffffffffffffffffff1603611cb5576040517f08c379a0000000000000000000000000000000000000000000000000000000008152600401611cac9061476c565b60405180910390fd5b611cbe81612351565b50565b611ceb7fa49807205ce4d355092ef5a8a18f56e8913cf4a201fbe287825b095693c21775336114d7565b611d2a576040517f08c379a0000000000000000000000000000000000000000000000000000000008152600401611d2190613cbd565b60405180910390fd5b8060108190555050565b60007f7965db0b000000000000000000000000000000000000000000000000000000007bffffffffffffffffffffffffffffffffffffffffffffffffffffffff1916827bffffffffffffffffffffffffffffffffffffffffffffffffffffffff19161480611da75750611da682612894565b5b9050919050565b8273ffffffffffffffffffffffffffffffffffffffff16611dce82610f28565b73ffffffffffffffffffffffffffffffffffffffff1614611e24576040517f08c379a0000000000000000000000000000000000000000000000000000000008152600401611e1b906147fe565b60405180910390fd5b600073ffffffffffffffffffffffffffffffffffffffff168273ffffffffffffffffffffffffffffffffffffffff1603611e93576040517f08c379a0000000000000000000000000000000000000000000000000000000008152600401611e8a90614890565b60405180910390fd5b611ea08383836001612976565b8273ffffffffffffffffffffffffffffffffffffffff16611ec082610f28565b73ffffffffffffffffffffffffffffffffffffffff1614611f16576040517f08c379a0000000000000000000000000000000000000000000000000000000008152600401611f0d906147fe565b60405180910390fd5b6005600082815260200190815260200160002060006101000a81549073ffffffffffffffffffffffffffffffffffffffff02191690556001600460008573ffffffffffffffffffffffffffffffffffffffff1673ffffffffffffffffffffffffffffffffffffffff168152602001908152602001600020600082825403925050819055506001600460008473ffffffffffffffffffffffffffffffffffffffff1673ffffffffffffffffffffffffffffffffffffffff16815260200190815260200160002060008282540192505081905550816003600083815260200190815260200160002060006101000a81548173ffffffffffffffffffffffffffffffffffffffff021916908373ffffffffffffffffffffffffffffffffffffffff160217905550808273ffffffffffffffffffffffffffffffffffffffff168473ffffffffffffffffffffffffffffffffffffffff167fddf252ad1be2c89b69c2b068fc378daa952ba7f163c4a11628f55a4df523b3ef60405160405180910390a46120a28383836001612ad4565b505050565b6120b8816120b36121ac565b612ada565b50565b6120c582826114d7565b6121985760016006600084815260200190815260200160002060000160008373ffffffffffffffffffffffffffffffffffffffff1673ffffffffffffffffffffffffffffffffffffffff16815260200190815260200160002060006101000a81548160ff02191690831515021790555061213d6121ac565b73ffffffffffffffffffffffffffffffffffffffff168173ffffffffffffffffffffffffffffffffffffffff16837f2f8788117e7eff1d82e926ec794901d17c78024a50270940304540a733656f0d60405160405180910390a45b5050565b6121a7838383611dae565b505050565b600033905090565b6121be82826114d7565b156122925760006006600084815260200190815260200160002060000160008373ffffffffffffffffffffffffffffffffffffffff1673ffffffffffffffffffffffffffffffffffffffff16815260200190815260200160002060006101000a81548160ff0219169083151502179055506122376121ac565b73ffffffffffffffffffffffffffffffffffffffff168173ffffffffffffffffffffffffffffffffffffffff16837ff6391f5c32d9c69d2a47ea670b442974b53935d1edc7fd64eb21e047a839171b60405160405180910390a45b5050565b61229e6121ac565b73ffffffffffffffffffffffffffffffffffffffff166122bc6114ae565b73ffffffffffffffffffffffffffffffffffffffff1614612312576040517f08c379a0000000000000000000000000000000000000000000000000000000008152600401612309906148fc565b60405180910390fd5b565b60006003600083815260200190815260200160002060009054906101000a900473ffffffffffffffffffffffffffffffffffffffff169050919050565b60008060009054906101000a900473ffffffffffffffffffffffffffffffffffffffff169050816000806101000a81548173ffffffffffffffffffffffffffffffffffffffff021916908373ffffffffffffffffffffffffffffffffffffffff1602179055508173ffffffffffffffffffffffffffffffffffffffff168173ffffffffffffffffffffffffffffffffffffffff167f8be0079c531659141344cd1fd0a4f28419497f9722a3daafe3b4186f6b6457e060405160405180910390a35050565b600081600001549050919050565b6001816000016000828254019250508190555050565b600073ffffffffffffffffffffffffffffffffffffffff168273ffffffffffffffffffffffffffffffffffffffff16036124a8576040517f08c379a000000000000000000000000000000000000000000000000000000000815260040161249f90614968565b60405180910390fd5b6124b181612759565b156124f1576040517f08c379a00000000000000000000000000000000000000000000000000000000081526004016124e8906149d4565b60405180910390fd5b6124ff600083836001612976565b61250881612759565b15612548576040517f08c379a000000000000000000000000000000000000000000000000000000000815260040161253f906149d4565b60405180910390fd5b6001600460008473ffffffffffffffffffffffffffffffffffffffff1673ffffffffffffffffffffffffffffffffffffffff16815260200190815260200160002060008282540192505081905550816003600083815260200190815260200160002060006101000a81548173ffffffffffffffffffffffffffffffffffffffff021916908373ffffffffffffffffffffffffffffffffffffffff160217905550808273ffffffffffffffffffffffffffffffffffffffff16600073ffffffffffffffffffffffffffffffffffffffff167fddf252ad1be2c89b69c2b068fc378daa952ba7f163c4a11628f55a4df523b3ef60405160405180910390a4612652600083836001612ad4565b5050565b61265f82612759565b61269e576040517f08c379a000000000000000000000000000000000000000000000000000000000815260040161269590614a66565b60405180910390fd5b600f6126a982612b5f565b6040516020016126ba929190614b91565b604051602081830303815290604052600a600084815260200190815260200160002090816126e89190613f1b565b507ff8e1a15aba9398e019f0b49df1a4fde98ee17ae345cb5f6b5e2c27f5033e8ce78260405161271891906138bd565b60405180910390a15050565b600042443360405160200161273b93929190614c29565b6040516020818303038152906040528051906020012060001c905090565b60008073ffffffffffffffffffffffffffffffffffffffff1661277b83612314565b73ffffffffffffffffffffffffffffffffffffffff1614159050919050565b6060600f80546127a990613c11565b80601f01602080910402602001604051908101604052809291908181526020018280546127d590613c11565b80156128225780601f106127f757610100808354040283529160200191612822565b820191906000526020600020905b81548152906001019060200180831161280557829003601f168201915b5050505050905090565b606061283782612c2d565b600061284161279a565b90506000815111612861576040518060200160405280600081525061288c565b8061286b84612b5f565b60405160200161287c929190614c66565b6040516020818303038152906040525b915050919050565b60007f304ad1f2000000000000000000000000000000000000000000000000000000007bffffffffffffffffffffffffffffffffffffffffffffffffffffffff1916827bffffffffffffffffffffffffffffffffffffffffffffffffffffffff1916148061295f57507f5b5e139f000000000000000000000000000000000000000000000000000000007bffffffffffffffffffffffffffffffffffffffffffffffffffffffff1916827bffffffffffffffffffffffffffffffffffffffffffffffffffffffff1916145b8061296f575061296e82612c78565b5b9050919050565b61298284848484612ce2565b60018111156129c6576040517f08c379a00000000000000000000000000000000000000000000000000000000081526004016129bd90614cfc565b60405180910390fd5b6000829050600073ffffffffffffffffffffffffffffffffffffffff168573ffffffffffffffffffffffffffffffffffffffff1603612a0d57612a0881612ce8565b612a4c565b8373ffffffffffffffffffffffffffffffffffffffff168573ffffffffffffffffffffffffffffffffffffffff1614612a4b57612a4a8582612d31565b5b5b600073ffffffffffffffffffffffffffffffffffffffff168473ffffffffffffffffffffffffffffffffffffffff1603612a8e57612a8981612e9e565b612acd565b8473ffffffffffffffffffffffffffffffffffffffff168473ffffffffffffffffffffffffffffffffffffffff1614612acc57612acb8482612f6f565b5b5b5050505050565b50505050565b612ae482826114d7565b612b5b57612af181612fee565b612aff8360001c602061301b565b604051602001612b10929190614db4565b6040516020818303038152906040526040517f08c379a0000000000000000000000000000000000000000000000000000000008152600401612b529190613509565b60405180910390fd5b5050565b606060006001612b6e84613257565b01905060008167ffffffffffffffff811115612b8d57612b8c6135c9565b5b6040519080825280601f01601f191660200182016040528015612bbf5781602001600182028036833780820191505090505b509050600082602001820190505b600115612c22578080600190039150507f3031323334353637383961626364656600000000000000000000000000000000600a86061a8153600a8581612c1657612c156144fc565b5b04945060008503612bcd575b819350505050919050565b612c3681612759565b612c75576040517f08c379a0000000000000000000000000000000000000000000000000000000008152600401612c6c906141c9565b60405180910390fd5b50565b60007f01ffc9a7000000000000000000000000000000000000000000000000000000007bffffffffffffffffffffffffffffffffffffffffffffffffffffffff1916827bffffffffffffffffffffffffffffffffffffffffffffffffffffffff1916149050919050565b50505050565b600d80549050600e600083815260200190815260200160002081905550600d81908060018154018082558091505060019003906000526020600020016000909190919091505550565b60006001612d3e84610fb4565b612d48919061455c565b90506000600c6000848152602001908152602001600020549050818114612e2d576000600b60008673ffffffffffffffffffffffffffffffffffffffff1673ffffffffffffffffffffffffffffffffffffffff168152602001908152602001600020600084815260200190815260200160002054905080600b60008773ffffffffffffffffffffffffffffffffffffffff1673ffffffffffffffffffffffffffffffffffffffff16815260200190815260200160002060008481526020019081526020016000208190555081600c600083815260200190815260200160002081905550505b600c600084815260200190815260200160002060009055600b60008573ffffffffffffffffffffffffffffffffffffffff1673ffffffffffffffffffffffffffffffffffffffff16815260200190815260200160002060008381526020019081526020016000206000905550505050565b60006001600d80549050612eb2919061455c565b90506000600e60008481526020019081526020016000205490506000600d8381548110612ee257612ee1613c42565b5b9060005260206000200154905080600d8381548110612f0457612f03613c42565b5b906000526020600020018190555081600e600083815260200190815260200160002081905550600e600085815260200190815260200160002060009055600d805480612f5357612f52614dee565b5b6001900381819060005260206000200160009055905550505050565b6000612f7a83610fb4565b905081600b60008573ffffffffffffffffffffffffffffffffffffffff1673ffffffffffffffffffffffffffffffffffffffff16815260200190815260200160002060008381526020019081526020016000208190555080600c600084815260200190815260200160002081905550505050565b60606130148273ffffffffffffffffffffffffffffffffffffffff16601460ff1661301b565b9050919050565b60606000600283600261302e9190614e1d565b6130389190614316565b67ffffffffffffffff811115613051576130506135c9565b5b6040519080825280601f01601f1916602001820160405280156130835781602001600182028036833780820191505090505b5090507f3000000000000000000000000000000000000000000000000000000000000000816000815181106130bb576130ba613c42565b5b60200101907effffffffffffffffffffffffffffffffffffffffffffffffffffffffffffff1916908160001a9053507f78000000000000000000000000000000000000000000000000000000000000008160018151811061311f5761311e613c42565b5b60200101907effffffffffffffffffffffffffffffffffffffffffffffffffffffffffffff1916908160001a9053506000600184600261315f9190614e1d565b6131699190614316565b90505b6001811115613209577f3031323334353637383961626364656600000000000000000000000000000000600f8616601081106131ab576131aa613c42565b5b1a60f81b8282815181106131c2576131c1613c42565b5b60200101907effffffffffffffffffffffffffffffffffffffffffffffffffffffffffffff1916908160001a905350600485901c94508061320290614e5f565b905061316c565b506000841461324d576040517f08c379a000000000000000000000000000000000000000000000000000000000815260040161324490614ed4565b60405180910390fd5b8091505092915050565b600080600090507a184f03e93ff9f4daa797ed6e38ed64bf6a1f01000000000000000083106132b5577a184f03e93ff9f4daa797ed6e38ed64bf6a1f01000000000000000083816132ab576132aa6144fc565b5b0492506040810190505b6d04ee2d6d415b85acef810000000083106132f2576d04ee2d6d415b85acef810000000083816132e8576132e76144fc565b5b0492506020810190505b662386f26fc10000831061332157662386f26fc100008381613317576133166144fc565b5b0492506010810190505b6305f5e100831061334a576305f5e10083816133405761333f6144fc565b5b0492506008810190505b612710831061336f576127108381613365576133646144fc565b5b0492506004810190505b606483106133925760648381613388576133876144fc565b5b0492506002810190505b600a83106133a1576001810190505b80915050919050565b6000604051905090565b600080fd5b600080fd5b60007fffffffff0000000000000000000000000000000000000000000000000000000082169050919050565b6133f3816133be565b81146133fe57600080fd5b50565b600081359050613410816133ea565b92915050565b60006020828403121561342c5761342b6133b4565b5b600061343a84828501613401565b91505092915050565b60008115159050919050565b61345881613443565b82525050565b6000602082019050613473600083018461344f565b92915050565b600081519050919050565b600082825260208201905092915050565b60005b838110156134b3578082015181840152602081019050613498565b60008484015250505050565b6000601f19601f8301169050919050565b60006134db82613479565b6134e58185613484565b93506134f5818560208601613495565b6134fe816134bf565b840191505092915050565b6000602082019050818103600083015261352381846134d0565b905092915050565b600073ffffffffffffffffffffffffffffffffffffffff82169050919050565b60006135568261352b565b9050919050565b6135668161354b565b811461357157600080fd5b50565b6000813590506135838161355d565b92915050565b6000819050919050565b61359c81613589565b81146135a757600080fd5b50565b6000813590506135b981613593565b92915050565b600080fd5b600080fd5b7f4e487b7100000000000000000000000000000000000000000000000000000000600052604160045260246000fd5b613601826134bf565b810181811067ffffffffffffffff821117156136205761361f6135c9565b5b80604052505050565b60006136336133aa565b905061363f82826135f8565b919050565b600067ffffffffffffffff82111561365f5761365e6135c9565b5b613668826134bf565b9050602081019050919050565b82818337600083830152505050565b600061369761369284613644565b613629565b9050828152602081018484840111156136b3576136b26135c4565b5b6136be848285613675565b509392505050565b600082601f8301126136db576136da6135bf565b5b81356136eb848260208601613684565b91505092915050565b6000806000806080858703121561370e5761370d6133b4565b5b600061371c87828801613574565b945050602061372d87828801613574565b935050604061373e878288016135aa565b925050606085013567ffffffffffffffff81111561375f5761375e6133b9565b5b61376b878288016136c6565b91505092959194509250565b613780816133be565b82525050565b600060208201905061379b6000830184613777565b92915050565b6000602082840312156137b7576137b66133b4565b5b60006137c584828501613574565b91505092915050565b600081519050919050565b600082825260208201905092915050565b6000819050602082019050919050565b61380381613589565b82525050565b600061381583836137fa565b60208301905092915050565b6000602082019050919050565b6000613839826137ce565b61384381856137d9565b935061384e836137ea565b8060005b8381101561387f5781516138668882613809565b975061387183613821565b925050600181019050613852565b5085935050505092915050565b600060208201905081810360008301526138a6818461382e565b905092915050565b6138b781613589565b82525050565b60006020820190506138d260008301846138ae565b92915050565b6000806000606084860312156138f1576138f06133b4565b5b60006138ff86828701613574565b935050602061391086828701613574565b9250506040613921868287016135aa565b9150509250925092565b600060208284031215613941576139406133b4565b5b600061394f848285016135aa565b91505092915050565b6000819050919050565b61396b81613958565b811461397657600080fd5b50565b60008135905061398881613962565b92915050565b6000602082840312156139a4576139a36133b4565b5b60006139b284828501613979565b91505092915050565b6139c481613958565b82525050565b60006020820190506139df60008301846139bb565b92915050565b600080604083850312156139fc576139fb6133b4565b5b6000613a0a85828601613979565b9250506020613a1b85828601613574565b9150509250929050565b60008060408385031215613a3c57613a3b6133b4565b5b6000613a4a85828601613574565b9250506020613a5b858286016135aa565b9150509250929050565b600067ffffffffffffffff821115613a8057613a7f6135c9565b5b613a89826134bf565b9050602081019050919050565b6000613aa9613aa484613a65565b613629565b905082815260208101848484011115613ac557613ac46135c4565b5b613ad0848285613675565b509392505050565b600082601f830112613aed57613aec6135bf565b5b8135613afd848260208601613a96565b91505092915050565b600060208284031215613b1c57613b1b6133b4565b5b600082013567ffffffffffffffff811115613b3a57613b396133b9565b5b613b4684828501613ad8565b91505092915050565b613b588161354b565b82525050565b6000602082019050613b736000830184613b4f565b92915050565b60008060408385031215613b9057613b8f6133b4565b5b6000613b9e858286016135aa565b9250506020613baf858286016135aa565b9150509250929050565b6000604082019050613bce6000830185613b4f565b613bdb60208301846138ae565b9392505050565b7f4e487b7100000000000000000000000000000000000000000000000000000000600052602260045260246000fd5b60006002820490506001821680613c2957607f821691505b602082108103613c3c57613c3b613be2565b5b50919050565b7f4e487b7100000000000000000000000000000000000000000000000000000000600052603260045260246000fd5b7f43616c6c6572206973206e6f7420616e2061646d696e00000000000000000000600082015250565b6000613ca7601683613484565b9150613cb282613c71565b602082019050919050565b60006020820190508181036000830152613cd681613c9a565b9050919050565b7f455243373231456e756d657261626c653a206f776e657220696e646578206f7560008201527f74206f6620626f756e6473000000000000000000000000000000000000000000602082015250565b6000613d39602b83613484565b9150613d4482613cdd565b604082019050919050565b60006020820190508181036000830152613d6881613d2c565b9050919050565b60008190508160005260206000209050919050565b60006020601f8301049050919050565b600082821b905092915050565b600060088302613dd17fffffffffffffffffffffffffffffffffffffffffffffffffffffffffffffffff82613d94565b613ddb8683613d94565b95508019841693508086168417925050509392505050565b6000819050919050565b6000613e18613e13613e0e84613589565b613df3565b613589565b9050919050565b6000819050919050565b613e3283613dfd565b613e46613e3e82613e1f565b848454613da1565b825550505050565b600090565b613e5b613e4e565b613e66818484613e29565b505050565b5b81811015613e8a57613e7f600082613e53565b600181019050613e6c565b5050565b601f821115613ecf57613ea081613d6f565b613ea984613d84565b81016020851015613eb8578190505b613ecc613ec485613d84565b830182613e6b565b50505b505050565b600082821c905092915050565b6000613ef260001984600802613ed4565b1980831691505092915050565b6000613f0b8383613ee1565b9150826002028217905092915050565b613f2482613479565b67ffffffffffffffff811115613f3d57613f3c6135c9565b5b613f478254613c11565b613f52828285613e8e565b600060209050601f831160018114613f855760008415613f73578287015190505b613f7d8582613eff565b865550613fe5565b601f198416613f9386613d6f565b60005b82811015613fbb57848901518255600182019150602085019450602081019050613f96565b86831015613fd85784890151613fd4601f891682613ee1565b8355505b6001600288020188555050505b505050505050565b7f596f7520617265206e6f74207468652073656c6c657200000000000000000000600082015250565b6000614023601683613484565b915061402e82613fed565b602082019050919050565b6000602082019050818103600083015261405281614016565b9050919050565b7f416363657373436f6e74726f6c3a2063616e206f6e6c792072656e6f756e636560008201527f20726f6c657320666f722073656c660000000000000000000000000000000000602082015250565b60006140b5602f83613484565b91506140c082614059565b604082019050919050565b600060208201905081810360008301526140e4816140a8565b9050919050565b7f455243373231456e756d657261626c653a20676c6f62616c20696e646578206f60008201527f7574206f6620626f756e64730000000000000000000000000000000000000000602082015250565b6000614147602c83613484565b9150614152826140eb565b604082019050919050565b600060208201905081810360008301526141768161413a565b9050919050565b7f4552433732313a20696e76616c696420746f6b656e2049440000000000000000600082015250565b60006141b3601883613484565b91506141be8261417d565b602082019050919050565b600060208201905081810360008301526141e2816141a6565b9050919050565b7f4552433732313a2061646472657373207a65726f206973206e6f74206120766160008201527f6c6964206f776e65720000000000000000000000000000000000000000000000602082015250565b6000614245602983613484565b9150614250826141e9565b604082019050919050565b6000602082019050818103600083015261427481614238565b9050919050565b7f4d617820737570706c79207265616368656420666f7220746869732074797065600082015250565b60006142b1602083613484565b91506142bc8261427b565b602082019050919050565b600060208201905081810360008301526142e0816142a4565b9050919050565b7f4e487b7100000000000000000000000000000000000000000000000000000000600052601160045260246000fd5b600061432182613589565b915061432c83613589565b9250828201905080821115614344576143436142e7565b5b92915050565b600061435582613589565b91507fffffffffffffffffffffffffffffffffffffffffffffffffffffffffffffffff8203614387576143866142e7565b5b600182019050919050565b7f5072696365206d7573742062652067726561746572207468616e207a65726f00600082015250565b60006143c8601f83613484565b91506143d382614392565b602082019050919050565b600060208201905081810360008301526143f7816143bb565b9050919050565b7f596f7520617265206e6f7420746865206f776e6572206f662074686973204e4660008201527f5400000000000000000000000000000000000000000000000000000000000000602082015250565b600061445a602183613484565b9150614465826143fe565b604082019050919050565b600060208201905081810360008301526144898161444d565b9050919050565b7f496e73756666696369656e74207061796d656e74000000000000000000000000600082015250565b60006144c6601483613484565b91506144d182614490565b602082019050919050565b600060208201905081810360008301526144f5816144b9565b9050919050565b7f4e487b7100000000000000000000000000000000000000000000000000000000600052601260045260246000fd5b600061453682613589565b915061454183613589565b925082614551576145506144fc565b5b828206905092915050565b600061456782613589565b915061457283613589565b925082820390508181111561458a576145896142e7565b5b92915050565b7f4552433732314d657461646174613a2055524920717565727920666f72206e6f60008201527f6e6578697374656e7420746f6b656e0000000000000000000000000000000000602082015250565b60006145ec602f83613484565b91506145f782614590565b604082019050919050565b6000602082019050818103600083015261461b816145df565b9050919050565b7f54686973204e4654206973206e6f7420666f722073616c650000000000000000600082015250565b6000614658601883613484565b915061466382614622565b602082019050919050565b600060208201905081810360008301526146878161464b565b9050919050565b7f496e636f72726563742070726963650000000000000000000000000000000000600082015250565b60006146c4600f83613484565b91506146cf8261468e565b602082019050919050565b600060208201905081810360008301526146f3816146b7565b9050919050565b7f4f776e61626c653a206e6577206f776e657220697320746865207a65726f206160008201527f6464726573730000000000000000000000000000000000000000000000000000602082015250565b6000614756602683613484565b9150614761826146fa565b604082019050919050565b6000602082019050818103600083015261478581614749565b9050919050565b7f4552433732313a207472616e736665722066726f6d20696e636f72726563742060008201527f6f776e6572000000000000000000000000000000000000000000000000000000602082015250565b60006147e8602583613484565b91506147f38261478c565b604082019050919050565b60006020820190508181036000830152614817816147db565b9050919050565b7f4552433732313a207472616e7366657220746f20746865207a65726f2061646460008201527f7265737300000000000000000000000000000000000000000000000000000000602082015250565b600061487a602483613484565b91506148858261481e565b604082019050919050565b600060208201905081810360008301526148a98161486d565b9050919050565b7f4f776e61626c653a2063616c6c6572206973206e6f7420746865206f776e6572600082015250565b60006148e6602083613484565b91506148f1826148b0565b602082019050919050565b60006020820190508181036000830152614915816148d9565b9050919050565b7f4552433732313a206d696e7420746f20746865207a65726f2061646472657373600082015250565b6000614952602083613484565b915061495d8261491c565b602082019050919050565b6000602082019050818103600083015261498181614945565b9050919050565b7f4552433732313a20746f6b656e20616c7265616479206d696e74656400000000600082015250565b60006149be601c83613484565b91506149c982614988565b602082019050919050565b600060208201905081810360008301526149ed816149b1565b9050919050565b7f464d4e3a2055524920736574206f66206e6f6e6578697374656e7420746f6b6560008201527f6e00000000000000000000000000000000000000000000000000000000000000602082015250565b6000614a50602183613484565b9150614a5b826149f4565b604082019050919050565b60006020820190508181036000830152614a7f81614a43565b9050919050565b600081905092915050565b60008154614a9e81613c11565b614aa88186614a86565b94506001821660008114614ac35760018114614ad857614b0b565b60ff1983168652811515820286019350614b0b565b614ae185613d6f565b60005b83811015614b0357815481890152600182019150602081019050614ae4565b838801955050505b50505092915050565b6000614b1f82613479565b614b298185614a86565b9350614b39818560208601613495565b80840191505092915050565b7f2e6a736f6e000000000000000000000000000000000000000000000000000000600082015250565b6000614b7b600583614a86565b9150614b8682614b45565b600582019050919050565b6000614b9d8285614a91565b9150614ba98284614b14565b9150614bb482614b6e565b91508190509392505050565b6000819050919050565b614bdb614bd682613589565b614bc0565b82525050565b60008160601b9050919050565b6000614bf982614be1565b9050919050565b6000614c0b82614bee565b9050919050565b614c23614c1e8261354b565b614c00565b82525050565b6000614c358286614bca565b602082019150614c458285614bca565b602082019150614c558284614c12565b601482019150819050949350505050565b6000614c728285614b14565b9150614c7e8284614b14565b91508190509392505050565b7f455243373231456e756d657261626c653a20636f6e736563757469766520747260008201527f616e7366657273206e6f7420737570706f727465640000000000000000000000602082015250565b6000614ce6603583613484565b9150614cf182614c8a565b604082019050919050565b60006020820190508181036000830152614d1581614cd9565b9050919050565b7f416363657373436f6e74726f6c3a206163636f756e7420000000000000000000600082015250565b6000614d52601783614a86565b9150614d5d82614d1c565b601782019050919050565b7f206973206d697373696e6720726f6c6520000000000000000000000000000000600082015250565b6000614d9e601183614a86565b9150614da982614d68565b601182019050919050565b6000614dbf82614d45565b9150614dcb8285614b14565b9150614dd682614d91565b9150614de28284614b14565b91508190509392505050565b7f4e487b7100000000000000000000000000000000000000000000000000000000600052603160045260246000fd5b6000614e2882613589565b9150614e3383613589565b9250828202614e4181613589565b91508282048414831517614e5857614e576142e7565b5b5092915050565b6000614e6a82613589565b915060008203614e7d57614e7c6142e7565b5b600182039050919050565b7f537472696e67733a20686578206c656e67746820696e73756666696369656e74600082015250565b6000614ebe602083613484565b9150614ec982614e88565b602082019050919050565b60006020820190508181036000830152614eed81614eb1565b905091905056fea2646970667358221220df4c02cf717c9a26e1e211b220824a2544890a73b0e2f2fbd8e53ec5e960d24a64736f6c63430008180033697066733a2f2f516d5279544a366d7443346d4e46685a5263714864335232514c6e4b4131584c78666655386e58536678695a4b572f",
  "linkReferences": {},
  "deployedLinkReferences": {}
}