{
  "_format": "hh-sol-artifact-1",
  "contractName": "GMC",
  "sourceName": "contracts/GMC.sol",
  "abi": [
    {
      "inputs": [
        {
          "internalType": "uint256",
          "name": "initialSupply",
          "type": "uint256"
        }
      ],
      "stateMutability": "nonpayable",
      "type": "constructor"
    },
    {
      "anonymous": false,
      "inputs": [
        {
          "indexed": true,
          "internalType": "address",
          "name": "account",
          "type": "address"
        }
      ],
      "name": "AdminAdded",
      "type": "event"
    },
    {
      "anonymous": false,
      "inputs": [
        {
          "indexed": true,
          "internalType": "address",
          "name": "account",
          "type": "address"
        }
      ],
      "name": "AdminRemoved",
      "type": "event"
    },
    {
      "anonymous": false,
      "inputs": [
        {
          "indexed": true,
          "internalType": "address",
          "name": "owner",
          "type": "address"
        },
        {
          "indexed": true,
          "internalType": "address",
          "name": "spender",
          "type": "address"
        },
        {
          "indexed": false,
          "internalType": "uint256",
          "name": "value",
          "type": "uint256"
        }
      ],
      "name": "Approval",
      "type": "event"
    },
    {
      "anonymous": false,
      "inputs": [
        {
          "indexed": true,
          "internalType": "address",
          "name": "previousOwner",
          "type": "address"
        },
        {
          "indexed": true,
          "internalType": "address",
          "name": "newOwner",
          "type": "address"
        }
      ],
      "name": "OwnershipTransferred",
      "type": "event"
    },
    {
      "anonymous": false,
      "inputs": [
        {
          "indexed": true,
          "internalType": "address",
          "name": "from",
          "type": "address"
        },
        {
          "indexed": true,
          "internalType": "address",
          "name": "to",
          "type": "address"
        },
        {
          "indexed": false,
          "internalType": "uint256",
          "name": "value",
          "type": "uint256"
        }
      ],
      "name": "Transfer",
      "type": "event"
    },
    {
      "inputs": [
        {
          "internalType": "address",
          "name": "account",
          "type": "address"
        }
      ],
      "name": "addAdmin",
      "outputs": [],
      "stateMutability": "nonpayable",
      "type": "function"
    },
    {
      "inputs": [
        {
          "internalType": "address",
          "name": "owner",
          "type": "address"
        },
        {
          "internalType": "address",
          "name": "spender",
          "type": "address"
        }
      ],
      "name": "allowance",
      "outputs": [
        {
          "internalType": "uint256",
          "name": "",
          "type": "uint256"
        }
      ],
      "stateMutability": "view",
      "type": "function"
    },
    {
      "inputs": [
        {
          "internalType": "address",
          "name": "spender",
          "type": "address"
        },
        {
          "internalType": "uint256",
          "name": "amount",
          "type": "uint256"
        }
      ],
      "name": "approve",
      "outputs": [
        {
          "internalType": "bool",
          "name": "",
          "type": "bool"
        }
      ],
      "stateMutability": "nonpayable",
      "type": "function"
    },
    {
      "inputs": [
        {
          "internalType": "address",
          "name": "account",
          "type": "address"
        }
      ],
      "name": "balanceOf",
      "outputs": [
        {
          "internalType": "uint256",
          "name": "",
          "type": "uint256"
        }
      ],
      "stateMutability": "view",
      "type": "function"
    },
    {
      "inputs": [
        {
          "internalType": "uint256",
          "name": "amount",
          "type": "uint256"
        }
      ],
      "name": "burn",
      "outputs": [],
      "stateMutability": "nonpayable",
      "type": "function"
    },
    {
      "inputs": [],
      "name": "decimals",
      "outputs": [
        {
          "internalType": "uint8",
          "name": "",
          "type": "uint8"
        }
      ],
      "stateMutability": "view",
      "type": "function"
    },
    {
      "inputs": [
        {
          "internalType": "address",
          "name": "spender",
          "type": "address"
        },
        {
          "internalType": "uint256",
          "name": "subtractedValue",
          "type": "uint256"
        }
      ],
      "name": "decreaseAllowance",
      "outputs": [
        {
          "internalType": "bool",
          "name": "",
          "type": "bool"
        }
      ],
      "stateMutability": "nonpayable",
      "type": "function"
    },
    {
      "inputs": [
        {
          "internalType": "address",
          "name": "spender",
          "type": "address"
        },
        {
          "internalType": "uint256",
          "name": "addedValue",
          "type": "uint256"
        }
      ],
      "name": "increaseAllowance",
      "outputs": [
        {
          "internalType": "bool",
          "name": "",
          "type": "bool"
        }
      ],
      "stateMutability": "nonpayable",
      "type": "function"
    },
    {
      "inputs": [
        {
          "internalType": "address",
          "name": "account",
          "type": "address"
        }
      ],
      "name": "isAdmin",
      "outputs": [
        {
          "internalType": "bool",
          "name": "",
          "type": "bool"
        }
      ],
      "stateMutability": "view",
      "type": "function"
    },
    {
      "inputs": [
        {
          "internalType": "address",
          "name": "to",
          "type": "address"
        },
        {
          "internalType": "uint256",
          "name": "amount",
          "type": "uint256"
        }
      ],
      "name": "mint",
      "outputs": [],
      "stateMutability": "nonpayable",
      "type": "function"
    },
    {
      "inputs": [],
      "name": "name",
      "outputs": [
        {
          "internalType": "string",
          "name": "",
          "type": "string"
        }
      ],
      "stateMutability": "view",
      "type": "function"
    },
    {
      "inputs": [],
      "name": "owner",
      "outputs": [
        {
          "internalType": "address",
          "name": "",
          "type": "address"
        }
      ],
      "stateMutability": "view",
      "type": "function"
    },
    {
      "inputs": [
        {
          "internalType": "address",
          "name": "account",
          "type": "address"
        }
      ],
      "name": "removeAdmin",
      "outputs": [],
      "stateMutability": "nonpayable",
      "type": "function"
    },
    {
      "inputs": [],
      "name": "renounceOwnership",
      "outputs": [],
      "stateMutability": "nonpayable",
      "type": "function"
    },
    {
      "inputs": [
        {
          "internalType": "address",
          "name": "_userContractAddress",
          "type": "address"
        }
      ],
      "name": "setUserContractAddress",
      "outputs": [],
      "stateMutability": "nonpayable",
      "type": "function"
    },
    {
      "inputs": [],
      "name": "symbol",
      "outputs": [
        {
          "internalType": "string",
          "name": "",
          "type": "string"
        }
      ],
      "stateMutability": "view",
      "type": "function"
    },
    {
      "inputs": [],
      "name": "totalSupply",
      "outputs": [
        {
          "internalType": "uint256",
          "name": "",
          "type": "uint256"
        }
      ],
      "stateMutability": "view",
      "type": "function"
    },
    {
      "inputs": [
        {
          "internalType": "address",
          "name": "to",
          "type": "address"
        },
        {
          "internalType": "uint256",
          "name": "amount",
          "type": "uint256"
        }
      ],
      "name": "transfer",
      "outputs": [
        {
          "internalType": "bool",
          "name": "",
          "type": "bool"
        }
      ],
      "stateMutability": "nonpayable",
      "type": "function"
    },
    {
      "inputs": [
        {
          "internalType": "address",
          "name": "from",
          "type": "address"
        },
        {
          "internalType": "address",
          "name": "to",
          "type": "address"
        },
        {
          "internalType": "uint256",
          "name": "amount",
          "type": "uint256"
        }
      ],
      "name": "transferFrom",
      "outputs": [
        {
          "internalType": "bool",
          "name": "",
          "type": "bool"
        }
      ],
      "stateMutability": "nonpayable",
      "type": "function"
    },
    {
      "inputs": [
        {
          "internalType": "address",
          "name": "newOwner",
          "type": "address"
        }
      ],
      "name": "transferOwnership",
      "outputs": [],
      "stateMutability": "nonpayable",
      "type": "function"
    },
    {
      "inputs": [],
      "name": "userContractAddress",
      "outputs": [
        {
          "internalType": "address",
          "name": "",
          "type": "address"
        }
      ],
      "stateMutability": "view",
      "type": "function"
    }
  ],
  "bytecode": "0x60806040523480156200001157600080fd5b5060405162002d2338038062002d23833981810160405281019062000037919062000412565b6040518060400160405280600381526020017f474d4300000000000000000000000000000000000000000000000000000000008152506040518060400160405280600381526020017f474d4300000000000000000000000000000000000000000000000000000000008152508160039081620000b49190620006b4565b508060049081620000c69190620006b4565b505050620000e9620000dd6200018460201b60201c565b6200018c60201b60201c565b6200012533620000fe6200025260201b60201c565b600a6200010c91906200092b565b836200011991906200097c565b6200025b60201b60201c565b6001600660003373ffffffffffffffffffffffffffffffffffffffff1673ffffffffffffffffffffffffffffffffffffffff16815260200190815260200160002060006101000a81548160ff0219169083151502179055505062000ab3565b600033905090565b6000600560009054906101000a900473ffffffffffffffffffffffffffffffffffffffff16905081600560006101000a81548173ffffffffffffffffffffffffffffffffffffffff021916908373ffffffffffffffffffffffffffffffffffffffff1602179055508173ffffffffffffffffffffffffffffffffffffffff168173ffffffffffffffffffffffffffffffffffffffff167f8be0079c531659141344cd1fd0a4f28419497f9722a3daafe3b4186f6b6457e060405160405180910390a35050565b60006012905090565b600073ffffffffffffffffffffffffffffffffffffffff168273ffffffffffffffffffffffffffffffffffffffff1603620002cd576040517f08c379a0000000000000000000000000000000000000000000000000000000008152600401620002c49062000a28565b60405180910390fd5b620002e160008383620003c860201b60201c565b8060026000828254620002f5919062000a4a565b92505081905550806000808473ffffffffffffffffffffffffffffffffffffffff1673ffffffffffffffffffffffffffffffffffffffff168152602001908152602001600020600082825401925050819055508173ffffffffffffffffffffffffffffffffffffffff16600073ffffffffffffffffffffffffffffffffffffffff167fddf252ad1be2c89b69c2b068fc378daa952ba7f163c4a11628f55a4df523b3ef83604051620003a8919062000a96565b60405180910390a3620003c460008383620003cd60201b60201c565b5050565b505050565b505050565b600080fd5b6000819050919050565b620003ec81620003d7565b8114620003f857600080fd5b50565b6000815190506200040c81620003e1565b92915050565b6000602082840312156200042b576200042a620003d2565b5b60006200043b84828501620003fb565b91505092915050565b600081519050919050565b7f4e487b7100000000000000000000000000000000000000000000000000000000600052604160045260246000fd5b7f4e487b7100000000000000000000000000000000000000000000000000000000600052602260045260246000fd5b60006002820490506001821680620004c657607f821691505b602082108103620004dc57620004db6200047e565b5b50919050565b60008190508160005260206000209050919050565b60006020601f8301049050919050565b600082821b905092915050565b600060088302620005467fffffffffffffffffffffffffffffffffffffffffffffffffffffffffffffffff8262000507565b62000552868362000507565b95508019841693508086168417925050509392505050565b6000819050919050565b6000620005956200058f6200058984620003d7565b6200056a565b620003d7565b9050919050565b6000819050919050565b620005b18362000574565b620005c9620005c0826200059c565b84845462000514565b825550505050565b600090565b620005e0620005d1565b620005ed818484620005a6565b505050565b5b81811015620006155762000609600082620005d6565b600181019050620005f3565b5050565b601f82111562000664576200062e81620004e2565b6200063984620004f7565b8101602085101562000649578190505b620006616200065885620004f7565b830182620005f2565b50505b505050565b600082821c905092915050565b6000620006896000198460080262000669565b1980831691505092915050565b6000620006a4838362000676565b9150826002028217905092915050565b620006bf8262000444565b67ffffffffffffffff811115620006db57620006da6200044f565b5b620006e78254620004ad565b620006f482828562000619565b600060209050601f8311600181146200072c576000841562000717578287015190505b62000723858262000696565b86555062000793565b601f1984166200073c86620004e2565b60005b8281101562000766578489015182556001820191506020850194506020810190506200073f565b8683101562000786578489015162000782601f89168262000676565b8355505b6001600288020188555050505b505050505050565b7f4e487b7100000000000000000000000000000000000000000000000000000000600052601160045260246000fd5b60008160011c9050919050565b6000808291508390505b600185111562000829578086048111156200080157620008006200079b565b5b6001851615620008115780820291505b80810290506200082185620007ca565b9450620007e1565b94509492505050565b60008262000844576001905062000917565b8162000854576000905062000917565b81600181146200086d57600281146200087857620008ae565b600191505062000917565b60ff8411156200088d576200088c6200079b565b5b8360020a915084821115620008a757620008a66200079b565b5b5062000917565b5060208310610133831016604e8410600b8410161715620008e85782820a905083811115620008e257620008e16200079b565b5b62000917565b620008f78484846001620007d7565b925090508184048111156200091157620009106200079b565b5b81810290505b9392505050565b600060ff82169050919050565b60006200093882620003d7565b915062000945836200091e565b9250620009747fffffffffffffffffffffffffffffffffffffffffffffffffffffffffffffffff848462000832565b905092915050565b60006200098982620003d7565b91506200099683620003d7565b9250828202620009a681620003d7565b91508282048414831517620009c057620009bf6200079b565b5b5092915050565b600082825260208201905092915050565b7f45524332303a206d696e7420746f20746865207a65726f206164647265737300600082015250565b600062000a10601f83620009c7565b915062000a1d82620009d8565b602082019050919050565b6000602082019050818103600083015262000a438162000a01565b9050919050565b600062000a5782620003d7565b915062000a6483620003d7565b925082820190508082111562000a7f5762000a7e6200079b565b5b92915050565b62000a9081620003d7565b82525050565b600060208201905062000aad600083018462000a85565b92915050565b6122608062000ac36000396000f3fe608060405234801561001057600080fd5b50600436106101375760003560e01c806342966c68116100b857806395d89b411161007c57806395d89b411461033a578063a457c2d714610358578063a9059cbb14610388578063d92aabfc146103b8578063dd62ed3e146103d6578063f2fde38b1461040657610137565b806342966c68146102aa57806370480275146102c657806370a08231146102e2578063715018a6146103125780638da5cb5b1461031c57610137565b806323b872dd116100ff57806323b872dd146101e057806324d7806c14610210578063313ce56714610240578063395093511461025e57806340c10f191461028e57610137565b806306fdde031461013c578063095ea7b31461015a5780631785f53c1461018a57806318160ddd146101a65780631d7e37ad146101c4575b600080fd5b610144610422565b60405161015191906116ce565b60405180910390f35b610174600480360381019061016f9190611789565b6104b4565b60405161018191906117e4565b60405180910390f35b6101a4600480360381019061019f91906117ff565b6104d7565b005b6101ae610609565b6040516101bb919061183b565b60405180910390f35b6101de60048036038101906101d991906117ff565b610613565b005b6101fa60048036038101906101f59190611856565b6106e3565b60405161020791906117e4565b60405180910390f35b61022a600480360381019061022591906117ff565b610712565b60405161023791906117e4565b60405180910390f35b610248610768565b60405161025591906118c5565b60405180910390f35b61027860048036038101906102739190611789565b610771565b60405161028591906117e4565b60405180910390f35b6102a860048036038101906102a39190611789565b6107a8565b005b6102c460048036038101906102bf91906118e0565b610842565b005b6102e060048036038101906102db91906117ff565b6108e5565b005b6102fc60048036038101906102f791906117ff565b610a18565b604051610309919061183b565b60405180910390f35b61031a610a60565b005b610324610a74565b604051610331919061191c565b60405180910390f35b610342610a9e565b60405161034f91906116ce565b60405180910390f35b610372600480360381019061036d9190611789565b610b30565b60405161037f91906117e4565b60405180910390f35b6103a2600480360381019061039d9190611789565b610ba7565b6040516103af91906117e4565b60405180910390f35b6103c0610bca565b6040516103cd919061191c565b60405180910390f35b6103f060048036038101906103eb9190611937565b610bf0565b6040516103fd919061183b565b60405180910390f35b610420600480360381019061041b91906117ff565b610c77565b005b606060038054610431906119a6565b80601f016020809104026020016040519081016040528092919081815260200182805461045d906119a6565b80156104aa5780601f1061047f576101008083540402835291602001916104aa565b820191906000526020600020905b81548152906001019060200180831161048d57829003601f168201915b5050505050905090565b6000806104bf610cfa565b90506104cc818585610d02565b600191505092915050565b6104df610ecb565b600660008273ffffffffffffffffffffffffffffffffffffffff1673ffffffffffffffffffffffffffffffffffffffff16815260200190815260200160002060009054906101000a900460ff1661056b576040517f08c379a000000000000000000000000000000000000000000000000000000000815260040161056290611a23565b60405180910390fd5b6000600660008373ffffffffffffffffffffffffffffffffffffffff1673ffffffffffffffffffffffffffffffffffffffff16815260200190815260200160002060006101000a81548160ff0219169083151502179055508073ffffffffffffffffffffffffffffffffffffffff167fa3b62bc36326052d97ea62d63c3d60308ed4c3ea8ac079dd8499f1e9c4f80c0f60405160405180910390a250565b6000600254905090565b600660003373ffffffffffffffffffffffffffffffffffffffff1673ffffffffffffffffffffffffffffffffffffffff16815260200190815260200160002060009054906101000a900460ff1661069f576040517f08c379a000000000000000000000000000000000000000000000000000000000815260040161069690611a8f565b60405180910390fd5b80600760006101000a81548173ffffffffffffffffffffffffffffffffffffffff021916908373ffffffffffffffffffffffffffffffffffffffff16021790555050565b6000806106ee610cfa565b90506106fb858285610f49565b610706858585610fd5565b60019150509392505050565b6000600660008373ffffffffffffffffffffffffffffffffffffffff1673ffffffffffffffffffffffffffffffffffffffff16815260200190815260200160002060009054906101000a900460ff169050919050565b60006012905090565b60008061077c610cfa565b905061079d81858561078e8589610bf0565b6107989190611ade565b610d02565b600191505092915050565b600660003373ffffffffffffffffffffffffffffffffffffffff1673ffffffffffffffffffffffffffffffffffffffff16815260200190815260200160002060009054906101000a900460ff16610834576040517f08c379a000000000000000000000000000000000000000000000000000000000815260040161082b90611a8f565b60405180910390fd5b61083e828261124b565b5050565b600760009054906101000a900473ffffffffffffffffffffffffffffffffffffffff1673ffffffffffffffffffffffffffffffffffffffff163373ffffffffffffffffffffffffffffffffffffffff16146108d2576040517f08c379a00000000000000000000000000000000000000000000000000000000081526004016108c990611b5e565b60405180910390fd5b60003290506108e181836113a1565b5050565b6108ed610ecb565b600660008273ffffffffffffffffffffffffffffffffffffffff1673ffffffffffffffffffffffffffffffffffffffff16815260200190815260200160002060009054906101000a900460ff161561097a576040517f08c379a000000000000000000000000000000000000000000000000000000000815260040161097190611bca565b60405180910390fd5b6001600660008373ffffffffffffffffffffffffffffffffffffffff1673ffffffffffffffffffffffffffffffffffffffff16815260200190815260200160002060006101000a81548160ff0219169083151502179055508073ffffffffffffffffffffffffffffffffffffffff167f44d6d25963f097ad14f29f06854a01f575648a1ef82f30e562ccd3889717e33960405160405180910390a250565b60008060008373ffffffffffffffffffffffffffffffffffffffff1673ffffffffffffffffffffffffffffffffffffffff168152602001908152602001600020549050919050565b610a68610ecb565b610a72600061156e565b565b6000600560009054906101000a900473ffffffffffffffffffffffffffffffffffffffff16905090565b606060048054610aad906119a6565b80601f0160208091040260200160405190810160405280929190818152602001828054610ad9906119a6565b8015610b265780601f10610afb57610100808354040283529160200191610b26565b820191906000526020600020905b815481529060010190602001808311610b0957829003601f168201915b5050505050905090565b600080610b3b610cfa565b90506000610b498286610bf0565b905083811015610b8e576040517f08c379a0000000000000000000000000000000000000000000000000000000008152600401610b8590611c5c565b60405180910390fd5b610b9b8286868403610d02565b60019250505092915050565b600080610bb2610cfa565b9050610bbf818585610fd5565b600191505092915050565b600760009054906101000a900473ffffffffffffffffffffffffffffffffffffffff1681565b6000600160008473ffffffffffffffffffffffffffffffffffffffff1673ffffffffffffffffffffffffffffffffffffffff16815260200190815260200160002060008373ffffffffffffffffffffffffffffffffffffffff1673ffffffffffffffffffffffffffffffffffffffff16815260200190815260200160002054905092915050565b610c7f610ecb565b600073ffffffffffffffffffffffffffffffffffffffff168173ffffffffffffffffffffffffffffffffffffffff1603610cee576040517f08c379a0000000000000000000000000000000000000000000000000000000008152600401610ce590611cc8565b60405180910390fd5b610cf78161156e565b50565b600033905090565b600073ffffffffffffffffffffffffffffffffffffffff168373ffffffffffffffffffffffffffffffffffffffff1603610d71576040517f08c379a0000000000000000000000000000000000000000000000000000000008152600401610d6890611d5a565b60405180910390fd5b600073ffffffffffffffffffffffffffffffffffffffff168273ffffffffffffffffffffffffffffffffffffffff1603610de0576040517f08c379a0000000000000000000000000000000000000000000000000000000008152600401610dd790611dec565b60405180910390fd5b80600160008573ffffffffffffffffffffffffffffffffffffffff1673ffffffffffffffffffffffffffffffffffffffff16815260200190815260200160002060008473ffffffffffffffffffffffffffffffffffffffff1673ffffffffffffffffffffffffffffffffffffffff168152602001908152602001600020819055508173ffffffffffffffffffffffffffffffffffffffff168373ffffffffffffffffffffffffffffffffffffffff167f8c5be1e5ebec7d5bd14f71427d1e84f3dd0314c0f7b2291e5b200ac8c7c3b92583604051610ebe919061183b565b60405180910390a3505050565b610ed3610cfa565b73ffffffffffffffffffffffffffffffffffffffff16610ef1610a74565b73ffffffffffffffffffffffffffffffffffffffff1614610f47576040517f08c379a0000000000000000000000000000000000000000000000000000000008152600401610f3e90611e58565b60405180910390fd5b565b6000610f558484610bf0565b90507fffffffffffffffffffffffffffffffffffffffffffffffffffffffffffffffff8114610fcf5781811015610fc1576040517f08c379a0000000000000000000000000000000000000000000000000000000008152600401610fb890611ec4565b60405180910390fd5b610fce8484848403610d02565b5b50505050565b600073ffffffffffffffffffffffffffffffffffffffff168373ffffffffffffffffffffffffffffffffffffffff1603611044576040517f08c379a000000000000000000000000000000000000000000000000000000000815260040161103b90611f56565b60405180910390fd5b600073ffffffffffffffffffffffffffffffffffffffff168273ffffffffffffffffffffffffffffffffffffffff16036110b3576040517f08c379a00000000000000000000000000000000000000000000000000000000081526004016110aa90611fe8565b60405180910390fd5b6110be838383611634565b60008060008573ffffffffffffffffffffffffffffffffffffffff1673ffffffffffffffffffffffffffffffffffffffff16815260200190815260200160002054905081811015611144576040517f08c379a000000000000000000000000000000000000000000000000000000000815260040161113b9061207a565b60405180910390fd5b8181036000808673ffffffffffffffffffffffffffffffffffffffff1673ffffffffffffffffffffffffffffffffffffffff16815260200190815260200160002081905550816000808573ffffffffffffffffffffffffffffffffffffffff1673ffffffffffffffffffffffffffffffffffffffff168152602001908152602001600020600082825401925050819055508273ffffffffffffffffffffffffffffffffffffffff168473ffffffffffffffffffffffffffffffffffffffff167fddf252ad1be2c89b69c2b068fc378daa952ba7f163c4a11628f55a4df523b3ef84604051611232919061183b565b60405180910390a3611245848484611639565b50505050565b600073ffffffffffffffffffffffffffffffffffffffff168273ffffffffffffffffffffffffffffffffffffffff16036112ba576040517f08c379a00000000000000000000000000000000000000000000000000000000081526004016112b1906120e6565b60405180910390fd5b6112c660008383611634565b80600260008282546112d89190611ade565b92505081905550806000808473ffffffffffffffffffffffffffffffffffffffff1673ffffffffffffffffffffffffffffffffffffffff168152602001908152602001600020600082825401925050819055508173ffffffffffffffffffffffffffffffffffffffff16600073ffffffffffffffffffffffffffffffffffffffff167fddf252ad1be2c89b69c2b068fc378daa952ba7f163c4a11628f55a4df523b3ef83604051611389919061183b565b60405180910390a361139d60008383611639565b5050565b600073ffffffffffffffffffffffffffffffffffffffff168273ffffffffffffffffffffffffffffffffffffffff1603611410576040517f08c379a000000000000000000000000000000000000000000000000000000000815260040161140790612178565b60405180910390fd5b61141c82600083611634565b60008060008473ffffffffffffffffffffffffffffffffffffffff1673ffffffffffffffffffffffffffffffffffffffff168152602001908152602001600020549050818110156114a2576040517f08c379a00000000000000000000000000000000000000000000000000000000081526004016114999061220a565b60405180910390fd5b8181036000808573ffffffffffffffffffffffffffffffffffffffff1673ffffffffffffffffffffffffffffffffffffffff1681526020019081526020016000208190555081600260008282540392505081905550600073ffffffffffffffffffffffffffffffffffffffff168373ffffffffffffffffffffffffffffffffffffffff167fddf252ad1be2c89b69c2b068fc378daa952ba7f163c4a11628f55a4df523b3ef84604051611555919061183b565b60405180910390a361156983600084611639565b505050565b6000600560009054906101000a900473ffffffffffffffffffffffffffffffffffffffff16905081600560006101000a81548173ffffffffffffffffffffffffffffffffffffffff021916908373ffffffffffffffffffffffffffffffffffffffff1602179055508173ffffffffffffffffffffffffffffffffffffffff168173ffffffffffffffffffffffffffffffffffffffff167f8be0079c531659141344cd1fd0a4f28419497f9722a3daafe3b4186f6b6457e060405160405180910390a35050565b505050565b505050565b600081519050919050565b600082825260208201905092915050565b60005b8381101561167857808201518184015260208101905061165d565b60008484015250505050565b6000601f19601f8301169050919050565b60006116a08261163e565b6116aa8185611649565b93506116ba81856020860161165a565b6116c381611684565b840191505092915050565b600060208201905081810360008301526116e88184611695565b905092915050565b600080fd5b600073ffffffffffffffffffffffffffffffffffffffff82169050919050565b6000611720826116f5565b9050919050565b61173081611715565b811461173b57600080fd5b50565b60008135905061174d81611727565b92915050565b6000819050919050565b61176681611753565b811461177157600080fd5b50565b6000813590506117838161175d565b92915050565b600080604083850312156117a05761179f6116f0565b5b60006117ae8582860161173e565b92505060206117bf85828601611774565b9150509250929050565b60008115159050919050565b6117de816117c9565b82525050565b60006020820190506117f960008301846117d5565b92915050565b600060208284031215611815576118146116f0565b5b60006118238482850161173e565b91505092915050565b61183581611753565b82525050565b6000602082019050611850600083018461182c565b92915050565b60008060006060848603121561186f5761186e6116f0565b5b600061187d8682870161173e565b935050602061188e8682870161173e565b925050604061189f86828701611774565b9150509250925092565b600060ff82169050919050565b6118bf816118a9565b82525050565b60006020820190506118da60008301846118b6565b92915050565b6000602082840312156118f6576118f56116f0565b5b600061190484828501611774565b91505092915050565b61191681611715565b82525050565b6000602082019050611931600083018461190d565b92915050565b6000806040838503121561194e5761194d6116f0565b5b600061195c8582860161173e565b925050602061196d8582860161173e565b9150509250929050565b7f4e487b7100000000000000000000000000000000000000000000000000000000600052602260045260246000fd5b600060028204905060018216806119be57607f821691505b6020821081036119d1576119d0611977565b5b50919050565b7f474d433a204143434f554e54204953204e4f542041444d494e00000000000000600082015250565b6000611a0d601983611649565b9150611a18826119d7565b602082019050919050565b60006020820190508181036000830152611a3c81611a00565b9050919050565b7f474d433a204953204e4f542041444d494e000000000000000000000000000000600082015250565b6000611a79601183611649565b9150611a8482611a43565b602082019050919050565b60006020820190508181036000830152611aa881611a6c565b9050919050565b7f4e487b7100000000000000000000000000000000000000000000000000000000600052601160045260246000fd5b6000611ae982611753565b9150611af483611753565b9250828201905080821115611b0c57611b0b611aaf565b5b92915050565b7f43616c6c6572206973206e6f7420746865205573657220636f6e747261637400600082015250565b6000611b48601f83611649565b9150611b5382611b12565b602082019050919050565b60006020820190508181036000830152611b7781611b3b565b9050919050565b7f474d433a204143434f554e5420414c52454144592049532041444d494e000000600082015250565b6000611bb4601d83611649565b9150611bbf82611b7e565b602082019050919050565b60006020820190508181036000830152611be381611ba7565b9050919050565b7f45524332303a2064656372656173656420616c6c6f77616e63652062656c6f7760008201527f207a65726f000000000000000000000000000000000000000000000000000000602082015250565b6000611c46602583611649565b9150611c5182611bea565b604082019050919050565b60006020820190508181036000830152611c7581611c39565b9050919050565b7f474d433a4e4557204f574e4552204953205a45524f2041444452455353000000600082015250565b6000611cb2601d83611649565b9150611cbd82611c7c565b602082019050919050565b60006020820190508181036000830152611ce181611ca5565b9050919050565b7f45524332303a20617070726f76652066726f6d20746865207a65726f2061646460008201527f7265737300000000000000000000000000000000000000000000000000000000602082015250565b6000611d44602483611649565b9150611d4f82611ce8565b604082019050919050565b60006020820190508181036000830152611d7381611d37565b9050919050565b7f45524332303a20617070726f766520746f20746865207a65726f20616464726560008201527f7373000000000000000000000000000000000000000000000000000000000000602082015250565b6000611dd6602283611649565b9150611de182611d7a565b604082019050919050565b60006020820190508181036000830152611e0581611dc9565b9050919050565b7f4f776e61626c653a2063616c6c6572206973206e6f7420746865206f776e6572600082015250565b6000611e42602083611649565b9150611e4d82611e0c565b602082019050919050565b60006020820190508181036000830152611e7181611e35565b9050919050565b7f45524332303a20696e73756666696369656e7420616c6c6f77616e6365000000600082015250565b6000611eae601d83611649565b9150611eb982611e78565b602082019050919050565b60006020820190508181036000830152611edd81611ea1565b9050919050565b7f45524332303a207472616e736665722066726f6d20746865207a65726f20616460008201527f6472657373000000000000000000000000000000000000000000000000000000602082015250565b6000611f40602583611649565b9150611f4b82611ee4565b604082019050919050565b60006020820190508181036000830152611f6f81611f33565b9050919050565b7f45524332303a207472616e7366657220746f20746865207a65726f206164647260008201527f6573730000000000000000000000000000000000000000000000000000000000602082015250565b6000611fd2602383611649565b9150611fdd82611f76565b604082019050919050565b6000602082019050818103600083015261200181611fc5565b9050919050565b7f45524332303a207472616e7366657220616d6f756e742065786365656473206260008201527f616c616e63650000000000000000000000000000000000000000000000000000602082015250565b6000612064602683611649565b915061206f82612008565b604082019050919050565b6000602082019050818103600083015261209381612057565b9050919050565b7f45524332303a206d696e7420746f20746865207a65726f206164647265737300600082015250565b60006120d0601f83611649565b91506120db8261209a565b602082019050919050565b600060208201905081810360008301526120ff816120c3565b9050919050565b7f45524332303a206275726e2066726f6d20746865207a65726f2061646472657360008201527f7300000000000000000000000000000000000000000000000000000000000000602082015250565b6000612162602183611649565b915061216d82612106565b604082019050919050565b6000602082019050818103600083015261219181612155565b9050919050565b7f45524332303a206275726e20616d6f756e7420657863656564732062616c616e60008201527f6365000000000000000000000000000000000000000000000000000000000000602082015250565b60006121f4602283611649565b91506121ff82612198565b604082019050919050565b60006020820190508181036000830152612223816121e7565b905091905056fea2646970667358221220687d2c6d103a1d453590135ab971472fe948e465a1ef7c2bf293ba20dae1e71164736f6c63430008180033",
  "linkReferences": {},
  "deployedLinkReferences": {}
}