{
  "_format": "hh-sol-artifact-1",
  "contractName": "Stake",
  "sourceName": "contracts/Stake.sol",
  "abi": [
    {
      "inputs": [
        {
          "internalType": "address",
          "name": "_stakeTokenAddr",
          "type": "address"
        },
        {
          "internalType": "address",
          "name": "_rewardTokenAddr",
          "type": "address"
        },
        {
          "internalType": "uint256",
          "name": "_rewardPerMin",
          "type": "uint256"
        }
      ],
      "stateMutability": "nonpayable",
      "type": "constructor"
    },
    {
      "anonymous": false,
      "inputs": [
        {
          "indexed": true,
          "internalType": "address",
          "name": "previousOwner",
          "type": "address"
        },
        {
          "indexed": true,
          "internalType": "address",
          "name": "newOwner",
          "type": "address"
        }
      ],
      "name": "OwnershipTransferred",
      "type": "event"
    },
    {
      "inputs": [],
      "name": "addupReword",
      "outputs": [
        {
          "internalType": "uint256",
          "name": "",
          "type": "uint256"
        }
      ],
      "stateMutability": "view",
      "type": "function"
    },
    {
      "inputs": [],
      "name": "getShare",
      "outputs": [
        {
          "internalType": "uint256",
          "name": "",
          "type": "uint256"
        }
      ],
      "stateMutability": "view",
      "type": "function"
    },
    {
      "inputs": [],
      "name": "hadWithdrawdReword",
      "outputs": [
        {
          "internalType": "uint256",
          "name": "",
          "type": "uint256"
        }
      ],
      "stateMutability": "view",
      "type": "function"
    },
    {
      "inputs": [],
      "name": "owner",
      "outputs": [
        {
          "internalType": "address",
          "name": "",
          "type": "address"
        }
      ],
      "stateMutability": "view",
      "type": "function"
    },
    {
      "inputs": [],
      "name": "renounceOwnership",
      "outputs": [],
      "stateMutability": "nonpayable",
      "type": "function"
    },
    {
      "inputs": [
        {
          "internalType": "uint256",
          "name": "_amount",
          "type": "uint256"
        }
      ],
      "name": "stake",
      "outputs": [],
      "stateMutability": "nonpayable",
      "type": "function"
    },
    {
      "inputs": [
        {
          "internalType": "address",
          "name": "newOwner",
          "type": "address"
        }
      ],
      "name": "transferOwnership",
      "outputs": [],
      "stateMutability": "nonpayable",
      "type": "function"
    },
    {
      "inputs": [
        {
          "internalType": "uint256",
          "name": "_amount",
          "type": "uint256"
        }
      ],
      "name": "unStake",
      "outputs": [],
      "stateMutability": "nonpayable",
      "type": "function"
    },
    {
      "inputs": [
        {
          "internalType": "uint256",
          "name": "_amount",
          "type": "uint256"
        }
      ],
      "name": "withdraw",
      "outputs": [],
      "stateMutability": "nonpayable",
      "type": "function"
    },
    {
      "inputs": [],
      "name": "withdrawdReword",
      "outputs": [
        {
          "internalType": "uint256",
          "name": "",
          "type": "uint256"
        }
      ],
      "stateMutability": "view",
      "type": "function"
    }
  ],
  "bytecode": "0x60806040523480156200001157600080fd5b50604051620015703803806200157083398181016040528101906200003791906200025a565b620000576200004b620000e960201b60201c565b620000f160201b60201c565b82600160006101000a81548173ffffffffffffffffffffffffffffffffffffffff021916908373ffffffffffffffffffffffffffffffffffffffff16021790555081600260006101000a81548173ffffffffffffffffffffffffffffffffffffffff021916908373ffffffffffffffffffffffffffffffffffffffff16021790555080600381905550505050620002b6565b600033905090565b60008060009054906101000a900473ffffffffffffffffffffffffffffffffffffffff169050816000806101000a81548173ffffffffffffffffffffffffffffffffffffffff021916908373ffffffffffffffffffffffffffffffffffffffff1602179055508173ffffffffffffffffffffffffffffffffffffffff168173ffffffffffffffffffffffffffffffffffffffff167f8be0079c531659141344cd1fd0a4f28419497f9722a3daafe3b4186f6b6457e060405160405180910390a35050565b600080fd5b600073ffffffffffffffffffffffffffffffffffffffff82169050919050565b6000620001e782620001ba565b9050919050565b620001f981620001da565b81146200020557600080fd5b50565b6000815190506200021981620001ee565b92915050565b6000819050919050565b62000234816200021f565b81146200024057600080fd5b50565b600081519050620002548162000229565b92915050565b600080600060608486031215620002765762000275620001b5565b5b6000620002868682870162000208565b9350506020620002998682870162000208565b9250506040620002ac8682870162000243565b9150509250925092565b6112aa80620002c66000396000f3fe608060405234801561001057600080fd5b506004361061009e5760003560e01c8063715018a611610066578063715018a614610135578063752987341461013f5780638da5cb5b1461015d578063a694fc3a1461017b578063f2fde38b146101975761009e565b8063126632a7146100a35780632e1a7d4d146100c1578063378d214d146100dd57806358bd83a1146100fb5780635d3eea9114610119575b600080fd5b6100ab6101b3565b6040516100b89190610d8a565b60405180910390f35b6100db60048036038101906100d69190610dd6565b6101c3565b005b6100e561030a565b6040516100f29190610d8a565b60405180910390f35b61010361031a565b6040516101109190610d8a565b60405180910390f35b610133600480360381019061012e9190610dd6565b610361565b005b61013d610613565b005b610147610627565b6040516101549190610d8a565b60405180910390f35b61016561066e565b6040516101729190610e44565b60405180910390f35b61019560048036038101906101909190610dd6565b610697565b005b6101b160048036038101906101ac9190610e8b565b6108c7565b005b60006101be3361094a565b905090565b6101cc3361094a565b81111561020e576040517f08c379a000000000000000000000000000000000000000000000000000000000815260040161020590610f15565b60405180910390fd5b80600560003373ffffffffffffffffffffffffffffffffffffffff1673ffffffffffffffffffffffffffffffffffffffff168152602001908152602001600020600082825461025d9190610f64565b92505081905550600260009054906101000a900473ffffffffffffffffffffffffffffffffffffffff1673ffffffffffffffffffffffffffffffffffffffff166323b872dd3033846040518463ffffffff1660e01b81526004016102c393929190610f98565b6020604051808303816000875af11580156102e2573d6000803e3d6000fd5b505050506040513d601f19601f820116820180604052508101906103069190611007565b5050565b600061031533610a83565b905090565b6000600560003373ffffffffffffffffffffffffffffffffffffffff1673ffffffffffffffffffffffffffffffffffffffff16815260200190815260200160002054905090565b600460003373ffffffffffffffffffffffffffffffffffffffff1673ffffffffffffffffffffffffffffffffffffffff168152602001908152602001600020548111156103e3576040517f08c379a00000000000000000000000000000000000000000000000000000000081526004016103da90611080565b60405180910390fd5b600160009054906101000a900473ffffffffffffffffffffffffffffffffffffffff1673ffffffffffffffffffffffffffffffffffffffff1663beabacc83033846040518463ffffffff1660e01b815260040161044293929190610f98565b600060405180830381600087803b15801561045c57600080fd5b505af1158015610470573d6000803e3d6000fd5b50505050600061047e610b72565b9050600460003373ffffffffffffffffffffffffffffffffffffffff1673ffffffffffffffffffffffffffffffffffffffff16815260200190815260200160002054600660003373ffffffffffffffffffffffffffffffffffffffff1673ffffffffffffffffffffffffffffffffffffffff168152602001908152602001600020548261050b91906110a0565b61051591906110d4565b600760003373ffffffffffffffffffffffffffffffffffffffff1673ffffffffffffffffffffffffffffffffffffffff16815260200190815260200160002060008282546105639190610f64565b9250508190555081600460003373ffffffffffffffffffffffffffffffffffffffff1673ffffffffffffffffffffffffffffffffffffffff16815260200190815260200160002060008282546105b991906110a0565b925050819055506105cb826002610bce565b80600660003373ffffffffffffffffffffffffffffffffffffffff1673ffffffffffffffffffffffffffffffffffffffff168152602001908152602001600020819055505050565b61061b610c27565b6106256000610ca5565b565b6000600460003373ffffffffffffffffffffffffffffffffffffffff1673ffffffffffffffffffffffffffffffffffffffff16815260200190815260200160002054905090565b60008060009054906101000a900473ffffffffffffffffffffffffffffffffffffffff16905090565b600160009054906101000a900473ffffffffffffffffffffffffffffffffffffffff1673ffffffffffffffffffffffffffffffffffffffff1663beabacc83330846040518463ffffffff1660e01b81526004016106f693929190610f98565b600060405180830381600087803b15801561071057600080fd5b505af1158015610724573d6000803e3d6000fd5b505050506000610732610b72565b9050600460003373ffffffffffffffffffffffffffffffffffffffff1673ffffffffffffffffffffffffffffffffffffffff16815260200190815260200160002054600660003373ffffffffffffffffffffffffffffffffffffffff1673ffffffffffffffffffffffffffffffffffffffff16815260200190815260200160002054826107bf91906110a0565b6107c991906110d4565b600760003373ffffffffffffffffffffffffffffffffffffffff1673ffffffffffffffffffffffffffffffffffffffff16815260200190815260200160002060008282546108179190610f64565b9250508190555081600460003373ffffffffffffffffffffffffffffffffffffffff1673ffffffffffffffffffffffffffffffffffffffff168152602001908152602001600020600082825461086d9190610f64565b9250508190555061087f826001610bce565b80600660003373ffffffffffffffffffffffffffffffffffffffff1673ffffffffffffffffffffffffffffffffffffffff168152602001908152602001600020819055505050565b6108cf610c27565b600073ffffffffffffffffffffffffffffffffffffffff168173ffffffffffffffffffffffffffffffffffffffff160361093e576040517f08c379a000000000000000000000000000000000000000000000000000000000815260040161093590611188565b60405180910390fd5b61094781610ca5565b50565b6000600560008373ffffffffffffffffffffffffffffffffffffffff1673ffffffffffffffffffffffffffffffffffffffff16815260200190815260200160002054600460008473ffffffffffffffffffffffffffffffffffffffff1673ffffffffffffffffffffffffffffffffffffffff16815260200190815260200160002054600660008573ffffffffffffffffffffffffffffffffffffffff1673ffffffffffffffffffffffffffffffffffffffff16815260200190815260200160002054610a14610b72565b610a1e91906110a0565b610a2891906110d4565b600760008573ffffffffffffffffffffffffffffffffffffffff1673ffffffffffffffffffffffffffffffffffffffff16815260200190815260200160002054610a729190610f64565b610a7c91906110a0565b9050919050565b6000600460008373ffffffffffffffffffffffffffffffffffffffff1673ffffffffffffffffffffffffffffffffffffffff16815260200190815260200160002054600660008473ffffffffffffffffffffffffffffffffffffffff1673ffffffffffffffffffffffffffffffffffffffff16815260200190815260200160002054610b0d610b72565b610b1791906110a0565b610b2191906110d4565b600760008473ffffffffffffffffffffffffffffffffffffffff1673ffffffffffffffffffffffffffffffffffffffff16815260200190815260200160002054610b6b9190610f64565b9050919050565b600080600a5403610b8757600c549050610bcb565b600c54600a54603c600354600b5442610ba091906110a0565b610baa91906110d4565b610bb491906111d7565b610bbe91906111d7565b610bc89190610f64565b90505b90565b610bd6610b72565b600c8190555042600b8190555060018103610c095781600a6000828254610bfd9190610f64565b92505081905550610c23565b81600a6000828254610c1b91906110a0565b925050819055505b5050565b610c2f610d69565b73ffffffffffffffffffffffffffffffffffffffff16610c4d61066e565b73ffffffffffffffffffffffffffffffffffffffff1614610ca3576040517f08c379a0000000000000000000000000000000000000000000000000000000008152600401610c9a90611254565b60405180910390fd5b565b60008060009054906101000a900473ffffffffffffffffffffffffffffffffffffffff169050816000806101000a81548173ffffffffffffffffffffffffffffffffffffffff021916908373ffffffffffffffffffffffffffffffffffffffff1602179055508173ffffffffffffffffffffffffffffffffffffffff168173ffffffffffffffffffffffffffffffffffffffff167f8be0079c531659141344cd1fd0a4f28419497f9722a3daafe3b4186f6b6457e060405160405180910390a35050565b600033905090565b6000819050919050565b610d8481610d71565b82525050565b6000602082019050610d9f6000830184610d7b565b92915050565b600080fd5b610db381610d71565b8114610dbe57600080fd5b50565b600081359050610dd081610daa565b92915050565b600060208284031215610dec57610deb610da5565b5b6000610dfa84828501610dc1565b91505092915050565b600073ffffffffffffffffffffffffffffffffffffffff82169050919050565b6000610e2e82610e03565b9050919050565b610e3e81610e23565b82525050565b6000602082019050610e596000830184610e35565b92915050565b610e6881610e23565b8114610e7357600080fd5b50565b600081359050610e8581610e5f565b92915050565b600060208284031215610ea157610ea0610da5565b5b6000610eaf84828501610e76565b91505092915050565b600082825260208201905092915050565b7f57495448445241575f414d4f554e545f4c4553535f4144445550524557415244600082015250565b6000610eff602083610eb8565b9150610f0a82610ec9565b602082019050919050565b60006020820190508181036000830152610f2e81610ef2565b9050919050565b7f4e487b7100000000000000000000000000000000000000000000000000000000600052601160045260246000fd5b6000610f6f82610d71565b9150610f7a83610d71565b9250828201905080821115610f9257610f91610f35565b5b92915050565b6000606082019050610fad6000830186610e35565b610fba6020830185610e35565b610fc76040830184610d7b565b949350505050565b60008115159050919050565b610fe481610fcf565b8114610fef57600080fd5b50565b60008151905061100181610fdb565b92915050565b60006020828403121561101d5761101c610da5565b5b600061102b84828501610ff2565b91505092915050565b7f554e5354414b455f414d4f554e545f4d5553545f4c4553535f53484152455300600082015250565b600061106a601f83610eb8565b915061107582611034565b602082019050919050565b600060208201905081810360008301526110998161105d565b9050919050565b60006110ab82610d71565b91506110b683610d71565b92508282039050818111156110ce576110cd610f35565b5b92915050565b60006110df82610d71565b91506110ea83610d71565b92508282026110f881610d71565b9150828204841483151761110f5761110e610f35565b5b5092915050565b7f4f776e61626c653a206e6577206f776e657220697320746865207a65726f206160008201527f6464726573730000000000000000000000000000000000000000000000000000602082015250565b6000611172602683610eb8565b915061117d82611116565b604082019050919050565b600060208201905081810360008301526111a181611165565b9050919050565b7f4e487b7100000000000000000000000000000000000000000000000000000000600052601260045260246000fd5b60006111e282610d71565b91506111ed83610d71565b9250826111fd576111fc6111a8565b5b828204905092915050565b7f4f776e61626c653a2063616c6c6572206973206e6f7420746865206f776e6572600082015250565b600061123e602083610eb8565b915061124982611208565b602082019050919050565b6000602082019050818103600083015261126d81611231565b905091905056fea2646970667358221220939effa8ecec83c629b060fe014da3818636d5760beb1254cb0e6f43b6d0deea64736f6c63430008180033",
  "linkReferences": {},
  "deployedLinkReferences": {}
}