{
  "_format": "hh-sol-artifact-1",
  "contractName": "Stake",
  "sourceName": "contracts/Stake.sol",
  "abi": [
    {
      "inputs": [
        {
          "internalType": "address",
          "name": "_stakeTokenAddr",
          "type": "address"
        },
        {
          "internalType": "address",
          "name": "_rewardTokenAddr",
          "type": "address"
        },
        {
          "internalType": "uint256",
          "name": "_rewardPerMin",
          "type": "uint256"
        }
      ],
      "stateMutability": "nonpayable",
      "type": "constructor"
    },
    {
      "anonymous": false,
      "inputs": [
        {
          "indexed": true,
          "internalType": "address",
          "name": "previousOwner",
          "type": "address"
        },
        {
          "indexed": true,
          "internalType": "address",
          "name": "newOwner",
          "type": "address"
        }
      ],
      "name": "OwnershipTransferred",
      "type": "event"
    },
    {
      "inputs": [],
      "name": "addupReword",
      "outputs": [
        {
          "internalType": "uint256",
          "name": "",
          "type": "uint256"
        }
      ],
      "stateMutability": "view",
      "type": "function"
    },
    {
      "inputs": [],
      "name": "getShare",
      "outputs": [
        {
          "internalType": "uint256",
          "name": "",
          "type": "uint256"
        }
      ],
      "stateMutability": "view",
      "type": "function"
    },
    {
      "inputs": [],
      "name": "hadWithdrawdReword",
      "outputs": [
        {
          "internalType": "uint256",
          "name": "",
          "type": "uint256"
        }
      ],
      "stateMutability": "view",
      "type": "function"
    },
    {
      "inputs": [],
      "name": "owner",
      "outputs": [
        {
          "internalType": "address",
          "name": "",
          "type": "address"
        }
      ],
      "stateMutability": "view",
      "type": "function"
    },
    {
      "inputs": [],
      "name": "renounceOwnership",
      "outputs": [],
      "stateMutability": "nonpayable",
      "type": "function"
    },
    {
      "inputs": [
        {
          "internalType": "uint256",
          "name": "_amount",
          "type": "uint256"
        }
      ],
      "name": "stake",
      "outputs": [],
      "stateMutability": "nonpayable",
      "type": "function"
    },
    {
      "inputs": [],
      "name": "totalShares",
      "outputs": [
        {
          "internalType": "uint256",
          "name": "",
          "type": "uint256"
        }
      ],
      "stateMutability": "view",
      "type": "function"
    },
    {
      "inputs": [
        {
          "internalType": "address",
          "name": "newOwner",
          "type": "address"
        }
      ],
      "name": "transferOwnership",
      "outputs": [],
      "stateMutability": "nonpayable",
      "type": "function"
    },
    {
      "inputs": [
        {
          "internalType": "uint256",
          "name": "_amount",
          "type": "uint256"
        }
      ],
      "name": "unStake",
      "outputs": [],
      "stateMutability": "nonpayable",
      "type": "function"
    },
    {
      "inputs": [
        {
          "internalType": "uint256",
          "name": "_amount",
          "type": "uint256"
        }
      ],
      "name": "withdraw",
      "outputs": [],
      "stateMutability": "nonpayable",
      "type": "function"
    },
    {
      "inputs": [],
      "name": "withdrawdReword",
      "outputs": [
        {
          "internalType": "uint256",
          "name": "",
          "type": "uint256"
        }
      ],
      "stateMutability": "view",
      "type": "function"
    }
  ],
  "bytecode": "0x60806040523480156200001157600080fd5b506040516200159f3803806200159f83398181016040528101906200003791906200025a565b620000576200004b620000e960201b60201c565b620000f160201b60201c565b82600160006101000a81548173ffffffffffffffffffffffffffffffffffffffff021916908373ffffffffffffffffffffffffffffffffffffffff16021790555081600260006101000a81548173ffffffffffffffffffffffffffffffffffffffff021916908373ffffffffffffffffffffffffffffffffffffffff16021790555080600381905550505050620002b6565b600033905090565b60008060009054906101000a900473ffffffffffffffffffffffffffffffffffffffff169050816000806101000a81548173ffffffffffffffffffffffffffffffffffffffff021916908373ffffffffffffffffffffffffffffffffffffffff1602179055508173ffffffffffffffffffffffffffffffffffffffff168173ffffffffffffffffffffffffffffffffffffffff167f8be0079c531659141344cd1fd0a4f28419497f9722a3daafe3b4186f6b6457e060405160405180910390a35050565b600080fd5b600073ffffffffffffffffffffffffffffffffffffffff82169050919050565b6000620001e782620001ba565b9050919050565b620001f981620001da565b81146200020557600080fd5b50565b6000815190506200021981620001ee565b92915050565b6000819050919050565b62000234816200021f565b81146200024057600080fd5b50565b600081519050620002548162000229565b92915050565b600080600060608486031215620002765762000275620001b5565b5b6000620002868682870162000208565b9350506020620002998682870162000208565b9250506040620002ac8682870162000243565b9150509250925092565b6112d980620002c66000396000f3fe608060405234801561001057600080fd5b50600436106100a95760003560e01c80635d3eea91116100715780635d3eea9114610142578063715018a61461015e57806375298734146101685780638da5cb5b14610186578063a694fc3a146101a4578063f2fde38b146101c0576100a9565b8063126632a7146100ae5780632e1a7d4d146100cc578063378d214d146100e85780633a98ef391461010657806358bd83a114610124575b600080fd5b6100b66101dc565b6040516100c39190610db9565b60405180910390f35b6100e660048036038101906100e19190610e05565b6101ec565b005b6100f0610333565b6040516100fd9190610db9565b60405180910390f35b61010e610343565b60405161011b9190610db9565b60405180910390f35b61012c610349565b6040516101399190610db9565b60405180910390f35b61015c60048036038101906101579190610e05565b610390565b005b610166610642565b005b610170610656565b60405161017d9190610db9565b60405180910390f35b61018e61069d565b60405161019b9190610e73565b60405180910390f35b6101be60048036038101906101b99190610e05565b6106c6565b005b6101da60048036038101906101d59190610eba565b6108f6565b005b60006101e733610979565b905090565b6101f533610979565b811115610237576040517f08c379a000000000000000000000000000000000000000000000000000000000815260040161022e90610f44565b60405180910390fd5b80600560003373ffffffffffffffffffffffffffffffffffffffff1673ffffffffffffffffffffffffffffffffffffffff16815260200190815260200160002060008282546102869190610f93565b92505081905550600260009054906101000a900473ffffffffffffffffffffffffffffffffffffffff1673ffffffffffffffffffffffffffffffffffffffff166323b872dd3033846040518463ffffffff1660e01b81526004016102ec93929190610fc7565b6020604051808303816000875af115801561030b573d6000803e3d6000fd5b505050506040513d601f19601f8201168201806040525081019061032f9190611036565b5050565b600061033e33610ab2565b905090565b600a5481565b6000600560003373ffffffffffffffffffffffffffffffffffffffff1673ffffffffffffffffffffffffffffffffffffffff16815260200190815260200160002054905090565b600460003373ffffffffffffffffffffffffffffffffffffffff1673ffffffffffffffffffffffffffffffffffffffff16815260200190815260200160002054811115610412576040517f08c379a0000000000000000000000000000000000000000000000000000000008152600401610409906110af565b60405180910390fd5b600160009054906101000a900473ffffffffffffffffffffffffffffffffffffffff1673ffffffffffffffffffffffffffffffffffffffff1663beabacc83033846040518463ffffffff1660e01b815260040161047193929190610fc7565b600060405180830381600087803b15801561048b57600080fd5b505af115801561049f573d6000803e3d6000fd5b5050505060006104ad610ba1565b9050600460003373ffffffffffffffffffffffffffffffffffffffff1673ffffffffffffffffffffffffffffffffffffffff16815260200190815260200160002054600660003373ffffffffffffffffffffffffffffffffffffffff1673ffffffffffffffffffffffffffffffffffffffff168152602001908152602001600020548261053a91906110cf565b6105449190611103565b600760003373ffffffffffffffffffffffffffffffffffffffff1673ffffffffffffffffffffffffffffffffffffffff16815260200190815260200160002060008282546105929190610f93565b9250508190555081600460003373ffffffffffffffffffffffffffffffffffffffff1673ffffffffffffffffffffffffffffffffffffffff16815260200190815260200160002060008282546105e891906110cf565b925050819055506105fa826002610bfd565b80600660003373ffffffffffffffffffffffffffffffffffffffff1673ffffffffffffffffffffffffffffffffffffffff168152602001908152602001600020819055505050565b61064a610c56565b6106546000610cd4565b565b6000600460003373ffffffffffffffffffffffffffffffffffffffff1673ffffffffffffffffffffffffffffffffffffffff16815260200190815260200160002054905090565b60008060009054906101000a900473ffffffffffffffffffffffffffffffffffffffff16905090565b600160009054906101000a900473ffffffffffffffffffffffffffffffffffffffff1673ffffffffffffffffffffffffffffffffffffffff1663beabacc83330846040518463ffffffff1660e01b815260040161072593929190610fc7565b600060405180830381600087803b15801561073f57600080fd5b505af1158015610753573d6000803e3d6000fd5b505050506000610761610ba1565b9050600460003373ffffffffffffffffffffffffffffffffffffffff1673ffffffffffffffffffffffffffffffffffffffff16815260200190815260200160002054600660003373ffffffffffffffffffffffffffffffffffffffff1673ffffffffffffffffffffffffffffffffffffffff16815260200190815260200160002054826107ee91906110cf565b6107f89190611103565b600760003373ffffffffffffffffffffffffffffffffffffffff1673ffffffffffffffffffffffffffffffffffffffff16815260200190815260200160002060008282546108469190610f93565b9250508190555081600460003373ffffffffffffffffffffffffffffffffffffffff1673ffffffffffffffffffffffffffffffffffffffff168152602001908152602001600020600082825461089c9190610f93565b925050819055506108ae826001610bfd565b80600660003373ffffffffffffffffffffffffffffffffffffffff1673ffffffffffffffffffffffffffffffffffffffff168152602001908152602001600020819055505050565b6108fe610c56565b600073ffffffffffffffffffffffffffffffffffffffff168173ffffffffffffffffffffffffffffffffffffffff160361096d576040517f08c379a0000000000000000000000000000000000000000000000000000000008152600401610964906111b7565b60405180910390fd5b61097681610cd4565b50565b6000600560008373ffffffffffffffffffffffffffffffffffffffff1673ffffffffffffffffffffffffffffffffffffffff16815260200190815260200160002054600460008473ffffffffffffffffffffffffffffffffffffffff1673ffffffffffffffffffffffffffffffffffffffff16815260200190815260200160002054600660008573ffffffffffffffffffffffffffffffffffffffff1673ffffffffffffffffffffffffffffffffffffffff16815260200190815260200160002054610a43610ba1565b610a4d91906110cf565b610a579190611103565b600760008573ffffffffffffffffffffffffffffffffffffffff1673ffffffffffffffffffffffffffffffffffffffff16815260200190815260200160002054610aa19190610f93565b610aab91906110cf565b9050919050565b6000600460008373ffffffffffffffffffffffffffffffffffffffff1673ffffffffffffffffffffffffffffffffffffffff16815260200190815260200160002054600660008473ffffffffffffffffffffffffffffffffffffffff1673ffffffffffffffffffffffffffffffffffffffff16815260200190815260200160002054610b3c610ba1565b610b4691906110cf565b610b509190611103565b600760008473ffffffffffffffffffffffffffffffffffffffff1673ffffffffffffffffffffffffffffffffffffffff16815260200190815260200160002054610b9a9190610f93565b9050919050565b600080600a5403610bb657600c549050610bfa565b600c54600a54603c600354600b5442610bcf91906110cf565b610bd99190611103565b610be39190611206565b610bed9190611206565b610bf79190610f93565b90505b90565b610c05610ba1565b600c8190555042600b8190555060018103610c385781600a6000828254610c2c9190610f93565b92505081905550610c52565b81600a6000828254610c4a91906110cf565b925050819055505b5050565b610c5e610d98565b73ffffffffffffffffffffffffffffffffffffffff16610c7c61069d565b73ffffffffffffffffffffffffffffffffffffffff1614610cd2576040517f08c379a0000000000000000000000000000000000000000000000000000000008152600401610cc990611283565b60405180910390fd5b565b60008060009054906101000a900473ffffffffffffffffffffffffffffffffffffffff169050816000806101000a81548173ffffffffffffffffffffffffffffffffffffffff021916908373ffffffffffffffffffffffffffffffffffffffff1602179055508173ffffffffffffffffffffffffffffffffffffffff168173ffffffffffffffffffffffffffffffffffffffff167f8be0079c531659141344cd1fd0a4f28419497f9722a3daafe3b4186f6b6457e060405160405180910390a35050565b600033905090565b6000819050919050565b610db381610da0565b82525050565b6000602082019050610dce6000830184610daa565b92915050565b600080fd5b610de281610da0565b8114610ded57600080fd5b50565b600081359050610dff81610dd9565b92915050565b600060208284031215610e1b57610e1a610dd4565b5b6000610e2984828501610df0565b91505092915050565b600073ffffffffffffffffffffffffffffffffffffffff82169050919050565b6000610e5d82610e32565b9050919050565b610e6d81610e52565b82525050565b6000602082019050610e886000830184610e64565b92915050565b610e9781610e52565b8114610ea257600080fd5b50565b600081359050610eb481610e8e565b92915050565b600060208284031215610ed057610ecf610dd4565b5b6000610ede84828501610ea5565b91505092915050565b600082825260208201905092915050565b7f57495448445241575f414d4f554e545f4c4553535f4144445550524557415244600082015250565b6000610f2e602083610ee7565b9150610f3982610ef8565b602082019050919050565b60006020820190508181036000830152610f5d81610f21565b9050919050565b7f4e487b7100000000000000000000000000000000000000000000000000000000600052601160045260246000fd5b6000610f9e82610da0565b9150610fa983610da0565b9250828201905080821115610fc157610fc0610f64565b5b92915050565b6000606082019050610fdc6000830186610e64565b610fe96020830185610e64565b610ff66040830184610daa565b949350505050565b60008115159050919050565b61101381610ffe565b811461101e57600080fd5b50565b6000815190506110308161100a565b92915050565b60006020828403121561104c5761104b610dd4565b5b600061105a84828501611021565b91505092915050565b7f554e5354414b455f414d4f554e545f4d5553545f4c4553535f53484152455300600082015250565b6000611099601f83610ee7565b91506110a482611063565b602082019050919050565b600060208201905081810360008301526110c88161108c565b9050919050565b60006110da82610da0565b91506110e583610da0565b92508282039050818111156110fd576110fc610f64565b5b92915050565b600061110e82610da0565b915061111983610da0565b925082820261112781610da0565b9150828204841483151761113e5761113d610f64565b5b5092915050565b7f4f776e61626c653a206e6577206f776e657220697320746865207a65726f206160008201527f6464726573730000000000000000000000000000000000000000000000000000602082015250565b60006111a1602683610ee7565b91506111ac82611145565b604082019050919050565b600060208201905081810360008301526111d081611194565b9050919050565b7f4e487b7100000000000000000000000000000000000000000000000000000000600052601260045260246000fd5b600061121182610da0565b915061121c83610da0565b92508261122c5761122b6111d7565b5b828204905092915050565b7f4f776e61626c653a2063616c6c6572206973206e6f7420746865206f776e6572600082015250565b600061126d602083610ee7565b915061127882611237565b602082019050919050565b6000602082019050818103600083015261129c81611260565b905091905056fea26469706673582212202651716b4c1d9d9188d08b9088d227d6662078a2c02101760bf20d3eddc3eec064736f6c63430008180033",
  "linkReferences": {},
  "deployedLinkReferences": {}
}