{
  "_format": "hh-sol-artifact-1",
  "contractName": "Stake",
  "sourceName": "contracts/Stake.sol",
  "abi": [
    {
      "inputs": [
        {
          "internalType": "contract IGMC",
          "name": "_stakingToken",
          "type": "address"
        },
        {
          "internalType": "contract IOOC",
          "name": "_rewardToken",
          "type": "address"
        }
      ],
      "stateMutability": "nonpayable",
      "type": "constructor"
    },
    {
      "anonymous": false,
      "inputs": [
        {
          "indexed": true,
          "internalType": "address",
          "name": "previousOwner",
          "type": "address"
        },
        {
          "indexed": true,
          "internalType": "address",
          "name": "newOwner",
          "type": "address"
        }
      ],
      "name": "OwnershipTransferStarted",
      "type": "event"
    },
    {
      "anonymous": false,
      "inputs": [
        {
          "indexed": true,
          "internalType": "address",
          "name": "previousOwner",
          "type": "address"
        },
        {
          "indexed": true,
          "internalType": "address",
          "name": "newOwner",
          "type": "address"
        }
      ],
      "name": "OwnershipTransferred",
      "type": "event"
    },
    {
      "anonymous": false,
      "inputs": [
        {
          "indexed": false,
          "internalType": "uint256",
          "name": "reward",
          "type": "uint256"
        }
      ],
      "name": "RewardAdded",
      "type": "event"
    },
    {
      "anonymous": false,
      "inputs": [
        {
          "indexed": true,
          "internalType": "address",
          "name": "user",
          "type": "address"
        },
        {
          "indexed": false,
          "internalType": "uint256",
          "name": "reward",
          "type": "uint256"
        }
      ],
      "name": "RewardPaid",
      "type": "event"
    },
    {
      "anonymous": false,
      "inputs": [
        {
          "indexed": false,
          "internalType": "uint256",
          "name": "newDuration",
          "type": "uint256"
        }
      ],
      "name": "RewardsDurationUpdated",
      "type": "event"
    },
    {
      "anonymous": false,
      "inputs": [
        {
          "indexed": true,
          "internalType": "bytes32",
          "name": "role",
          "type": "bytes32"
        },
        {
          "indexed": true,
          "internalType": "bytes32",
          "name": "previousAdminRole",
          "type": "bytes32"
        },
        {
          "indexed": true,
          "internalType": "bytes32",
          "name": "newAdminRole",
          "type": "bytes32"
        }
      ],
      "name": "RoleAdminChanged",
      "type": "event"
    },
    {
      "anonymous": false,
      "inputs": [
        {
          "indexed": true,
          "internalType": "bytes32",
          "name": "role",
          "type": "bytes32"
        },
        {
          "indexed": true,
          "internalType": "address",
          "name": "account",
          "type": "address"
        },
        {
          "indexed": true,
          "internalType": "address",
          "name": "sender",
          "type": "address"
        }
      ],
      "name": "RoleGranted",
      "type": "event"
    },
    {
      "anonymous": false,
      "inputs": [
        {
          "indexed": true,
          "internalType": "bytes32",
          "name": "role",
          "type": "bytes32"
        },
        {
          "indexed": true,
          "internalType": "address",
          "name": "account",
          "type": "address"
        },
        {
          "indexed": true,
          "internalType": "address",
          "name": "sender",
          "type": "address"
        }
      ],
      "name": "RoleRevoked",
      "type": "event"
    },
    {
      "anonymous": false,
      "inputs": [
        {
          "indexed": true,
          "internalType": "address",
          "name": "user",
          "type": "address"
        },
        {
          "indexed": false,
          "internalType": "uint256",
          "name": "amount",
          "type": "uint256"
        }
      ],
      "name": "Staked",
      "type": "event"
    },
    {
      "anonymous": false,
      "inputs": [
        {
          "indexed": true,
          "internalType": "address",
          "name": "user",
          "type": "address"
        },
        {
          "indexed": false,
          "internalType": "uint256",
          "name": "amount",
          "type": "uint256"
        }
      ],
      "name": "Withdrawn",
      "type": "event"
    },
    {
      "inputs": [],
      "name": "ADMIN_ROLE",
      "outputs": [
        {
          "internalType": "bytes32",
          "name": "",
          "type": "bytes32"
        }
      ],
      "stateMutability": "view",
      "type": "function"
    },
    {
      "inputs": [],
      "name": "DEFAULT_ADMIN_ROLE",
      "outputs": [
        {
          "internalType": "bytes32",
          "name": "",
          "type": "bytes32"
        }
      ],
      "stateMutability": "view",
      "type": "function"
    },
    {
      "inputs": [
        {
          "internalType": "address",
          "name": "newAdmin",
          "type": "address"
        }
      ],
      "name": "addAdmin",
      "outputs": [],
      "stateMutability": "nonpayable",
      "type": "function"
    },
    {
      "inputs": [
        {
          "internalType": "address",
          "name": "account",
          "type": "address"
        }
      ],
      "name": "balanceOf",
      "outputs": [
        {
          "internalType": "uint256",
          "name": "",
          "type": "uint256"
        }
      ],
      "stateMutability": "view",
      "type": "function"
    },
    {
      "inputs": [
        {
          "internalType": "address",
          "name": "account",
          "type": "address"
        }
      ],
      "name": "earned",
      "outputs": [
        {
          "internalType": "uint256",
          "name": "",
          "type": "uint256"
        }
      ],
      "stateMutability": "view",
      "type": "function"
    },
    {
      "inputs": [],
      "name": "exit",
      "outputs": [],
      "stateMutability": "nonpayable",
      "type": "function"
    },
    {
      "inputs": [],
      "name": "getReward",
      "outputs": [],
      "stateMutability": "nonpayable",
      "type": "function"
    },
    {
      "inputs": [],
      "name": "getRewardForDuration",
      "outputs": [
        {
          "internalType": "uint256",
          "name": "",
          "type": "uint256"
        }
      ],
      "stateMutability": "view",
      "type": "function"
    },
    {
      "inputs": [
        {
          "internalType": "bytes32",
          "name": "role",
          "type": "bytes32"
        }
      ],
      "name": "getRoleAdmin",
      "outputs": [
        {
          "internalType": "bytes32",
          "name": "",
          "type": "bytes32"
        }
      ],
      "stateMutability": "view",
      "type": "function"
    },
    {
      "inputs": [
        {
          "internalType": "bytes32",
          "name": "role",
          "type": "bytes32"
        },
        {
          "internalType": "address",
          "name": "account",
          "type": "address"
        }
      ],
      "name": "grantRole",
      "outputs": [],
      "stateMutability": "nonpayable",
      "type": "function"
    },
    {
      "inputs": [
        {
          "internalType": "bytes32",
          "name": "role",
          "type": "bytes32"
        },
        {
          "internalType": "address",
          "name": "account",
          "type": "address"
        }
      ],
      "name": "hasRole",
      "outputs": [
        {
          "internalType": "bool",
          "name": "",
          "type": "bool"
        }
      ],
      "stateMutability": "view",
      "type": "function"
    },
    {
      "inputs": [],
      "name": "lastTimeRewardApplicable",
      "outputs": [
        {
          "internalType": "uint256",
          "name": "",
          "type": "uint256"
        }
      ],
      "stateMutability": "view",
      "type": "function"
    },
    {
      "inputs": [],
      "name": "lastUpdateTime",
      "outputs": [
        {
          "internalType": "uint256",
          "name": "",
          "type": "uint256"
        }
      ],
      "stateMutability": "view",
      "type": "function"
    },
    {
      "inputs": [
        {
          "internalType": "uint256",
          "name": "reward",
          "type": "uint256"
        }
      ],
      "name": "notifyRewardAmount",
      "outputs": [],
      "stateMutability": "nonpayable",
      "type": "function"
    },
    {
      "inputs": [],
      "name": "owner",
      "outputs": [
        {
          "internalType": "address",
          "name": "",
          "type": "address"
        }
      ],
      "stateMutability": "view",
      "type": "function"
    },
    {
      "inputs": [],
      "name": "periodFinish",
      "outputs": [
        {
          "internalType": "uint256",
          "name": "",
          "type": "uint256"
        }
      ],
      "stateMutability": "view",
      "type": "function"
    },
    {
      "inputs": [
        {
          "internalType": "address",
          "name": "admin",
          "type": "address"
        }
      ],
      "name": "removeAdmin",
      "outputs": [],
      "stateMutability": "nonpayable",
      "type": "function"
    },
    {
      "inputs": [],
      "name": "renounceOwnership",
      "outputs": [],
      "stateMutability": "nonpayable",
      "type": "function"
    },
    {
      "inputs": [
        {
          "internalType": "bytes32",
          "name": "role",
          "type": "bytes32"
        },
        {
          "internalType": "address",
          "name": "account",
          "type": "address"
        }
      ],
      "name": "renounceRole",
      "outputs": [],
      "stateMutability": "nonpayable",
      "type": "function"
    },
    {
      "inputs": [
        {
          "internalType": "bytes32",
          "name": "role",
          "type": "bytes32"
        },
        {
          "internalType": "address",
          "name": "account",
          "type": "address"
        }
      ],
      "name": "revokeRole",
      "outputs": [],
      "stateMutability": "nonpayable",
      "type": "function"
    },
    {
      "inputs": [],
      "name": "rewardPerToken",
      "outputs": [
        {
          "internalType": "uint256",
          "name": "",
          "type": "uint256"
        }
      ],
      "stateMutability": "view",
      "type": "function"
    },
    {
      "inputs": [],
      "name": "rewardPerTokenStored",
      "outputs": [
        {
          "internalType": "uint256",
          "name": "",
          "type": "uint256"
        }
      ],
      "stateMutability": "view",
      "type": "function"
    },
    {
      "inputs": [],
      "name": "rewardRate",
      "outputs": [
        {
          "internalType": "uint256",
          "name": "",
          "type": "uint256"
        }
      ],
      "stateMutability": "view",
      "type": "function"
    },
    {
      "inputs": [],
      "name": "rewardToken",
      "outputs": [
        {
          "internalType": "contract IOOC",
          "name": "",
          "type": "address"
        }
      ],
      "stateMutability": "view",
      "type": "function"
    },
    {
      "inputs": [
        {
          "internalType": "address",
          "name": "",
          "type": "address"
        }
      ],
      "name": "rewards",
      "outputs": [
        {
          "internalType": "uint256",
          "name": "",
          "type": "uint256"
        }
      ],
      "stateMutability": "view",
      "type": "function"
    },
    {
      "inputs": [],
      "name": "rewardsDuration",
      "outputs": [
        {
          "internalType": "uint256",
          "name": "",
          "type": "uint256"
        }
      ],
      "stateMutability": "view",
      "type": "function"
    },
    {
      "inputs": [
        {
          "internalType": "uint256",
          "name": "_rewardsDuration",
          "type": "uint256"
        }
      ],
      "name": "setRewardsDuration",
      "outputs": [],
      "stateMutability": "nonpayable",
      "type": "function"
    },
    {
      "inputs": [
        {
          "internalType": "uint256",
          "name": "amount",
          "type": "uint256"
        }
      ],
      "name": "stake",
      "outputs": [],
      "stateMutability": "nonpayable",
      "type": "function"
    },
    {
      "inputs": [],
      "name": "stakingToken",
      "outputs": [
        {
          "internalType": "contract IGMC",
          "name": "",
          "type": "address"
        }
      ],
      "stateMutability": "view",
      "type": "function"
    },
    {
      "inputs": [
        {
          "internalType": "bytes4",
          "name": "interfaceId",
          "type": "bytes4"
        }
      ],
      "name": "supportsInterface",
      "outputs": [
        {
          "internalType": "bool",
          "name": "",
          "type": "bool"
        }
      ],
      "stateMutability": "view",
      "type": "function"
    },
    {
      "inputs": [],
      "name": "totalSupply",
      "outputs": [
        {
          "internalType": "uint256",
          "name": "",
          "type": "uint256"
        }
      ],
      "stateMutability": "view",
      "type": "function"
    },
    {
      "inputs": [
        {
          "internalType": "address",
          "name": "newOwner",
          "type": "address"
        }
      ],
      "name": "transferOwnership",
      "outputs": [],
      "stateMutability": "nonpayable",
      "type": "function"
    },
    {
      "inputs": [
        {
          "internalType": "address",
          "name": "",
          "type": "address"
        }
      ],
      "name": "userRewardPerTokenPaid",
      "outputs": [
        {
          "internalType": "uint256",
          "name": "",
          "type": "uint256"
        }
      ],
      "stateMutability": "view",
      "type": "function"
    },
    {
      "inputs": [
        {
          "internalType": "uint256",
          "name": "amount",
          "type": "uint256"
        }
      ],
      "name": "withdraw",
      "outputs": [],
      "stateMutability": "nonpayable",
      "type": "function"
    }
  ],
  "bytecode": "0x6080604052600060065562093a806007553480156200001d57600080fd5b50604051620031b7380380620031b783398181016040528101906200004391906200043f565b60016000819055506200006b6200005f6200013c60201b60201c565b6200014460201b60201c565b81600360006101000a81548173ffffffffffffffffffffffffffffffffffffffff021916908373ffffffffffffffffffffffffffffffffffffffff16021790555080600460006101000a81548173ffffffffffffffffffffffffffffffffffffffff021916908373ffffffffffffffffffffffffffffffffffffffff160217905550620001026000801b336200020a60201b60201c565b620001347fa49807205ce4d355092ef5a8a18f56e8913cf4a201fbe287825b095693c21775336200020a60201b60201c565b505062000486565b600033905090565b6000600260009054906101000a900473ffffffffffffffffffffffffffffffffffffffff16905081600260006101000a81548173ffffffffffffffffffffffffffffffffffffffff021916908373ffffffffffffffffffffffffffffffffffffffff1602179055508173ffffffffffffffffffffffffffffffffffffffff168173ffffffffffffffffffffffffffffffffffffffff167f8be0079c531659141344cd1fd0a4f28419497f9722a3daafe3b4186f6b6457e060405160405180910390a35050565b6200021c82826200022060201b60201c565b5050565b6200023282826200031160201b60201c565b6200030d57600180600084815260200190815260200160002060000160008373ffffffffffffffffffffffffffffffffffffffff1673ffffffffffffffffffffffffffffffffffffffff16815260200190815260200160002060006101000a81548160ff021916908315150217905550620002b26200013c60201b60201c565b73ffffffffffffffffffffffffffffffffffffffff168173ffffffffffffffffffffffffffffffffffffffff16837f2f8788117e7eff1d82e926ec794901d17c78024a50270940304540a733656f0d60405160405180910390a45b5050565b60006001600084815260200190815260200160002060000160008373ffffffffffffffffffffffffffffffffffffffff1673ffffffffffffffffffffffffffffffffffffffff16815260200190815260200160002060009054906101000a900460ff16905092915050565b600080fd5b600073ffffffffffffffffffffffffffffffffffffffff82169050919050565b6000620003ae8262000381565b9050919050565b6000620003c282620003a1565b9050919050565b620003d481620003b5565b8114620003e057600080fd5b50565b600081519050620003f481620003c9565b92915050565b60006200040782620003a1565b9050919050565b6200041981620003fa565b81146200042557600080fd5b50565b60008151905062000439816200040e565b92915050565b600080604083850312156200045957620004586200037c565b5b60006200046985828601620003e3565b92505060206200047c8582860162000428565b9150509250929050565b612d2180620004966000396000f3fe608060405234801561001057600080fd5b50600436106102055760003560e01c806375b238fc1161011a578063c8f33c91116100ad578063df136d651161007c578063df136d65146105b4578063e9fad8ee146105d2578063ebe2b12b146105dc578063f2fde38b146105fa578063f7c618c11461061657610205565b8063c8f33c9114610540578063cc1a378f1461055e578063cd3daf9d1461057a578063d547741f1461059857610205565b80638da5cb5b116100e95780638da5cb5b146104b857806391d14854146104d6578063a217fddf14610506578063a694fc3a1461052457610205565b806375b238fc1461042e5780637b0a47ee1461044c57806380faa57d1461046a5780638b8763471461048857610205565b80632f2ff15d1161019d5780633d18b9121161016c5780633d18b912146103b057806370480275146103ba57806370a08231146103d6578063715018a61461040657806372f702f31461041057610205565b80632f2ff15d1461033e57806336568abe1461035a578063386a9525146103765780633c6b16ab1461039457610205565b806318160ddd116101d957806318160ddd146102b65780631c1f78eb146102d4578063248a9ca3146102f25780632e1a7d4d1461032257610205565b80628cc2621461020a57806301ffc9a71461023a5780630700037d1461026a5780631785f53c1461029a575b600080fd5b610224600480360381019061021f91906120cd565b610634565b6040516102319190612113565b60405180910390f35b610254600480360381019061024f9190612186565b610752565b60405161026191906121ce565b60405180910390f35b610284600480360381019061027f91906120cd565b6107cc565b6040516102919190612113565b60405180910390f35b6102b460048036038101906102af91906120cd565b6107e4565b005b6102be610819565b6040516102cb9190612113565b60405180910390f35b6102dc610823565b6040516102e99190612113565b60405180910390f35b61030c6004803603810190610307919061221f565b610841565b604051610319919061225b565b60405180910390f35b61033c600480360381019061033791906122a2565b610861565b005b610358600480360381019061035391906122cf565b610b2b565b005b610374600480360381019061036f91906122cf565b610b4c565b005b61037e610bcf565b60405161038b9190612113565b60405180910390f35b6103ae60048036038101906103a991906122a2565b610bd5565b005b6103b8610f05565b005b6103d460048036038101906103cf91906120cd565b611181565b005b6103f060048036038101906103eb91906120cd565b6111b6565b6040516103fd9190612113565b60405180910390f35b61040e6111ff565b005b610418611213565b604051610425919061236e565b60405180910390f35b610436611239565b604051610443919061225b565b60405180910390f35b61045461125d565b6040516104619190612113565b60405180910390f35b610472611263565b60405161047f9190612113565b60405180910390f35b6104a2600480360381019061049d91906120cd565b61127d565b6040516104af9190612113565b60405180910390f35b6104c0611295565b6040516104cd9190612398565b60405180910390f35b6104f060048036038101906104eb91906122cf565b6112bf565b6040516104fd91906121ce565b60405180910390f35b61050e61132a565b60405161051b919061225b565b60405180910390f35b61053e600480360381019061053991906122a2565b611331565b005b6105486115fb565b6040516105559190612113565b60405180910390f35b610578600480360381019061057391906122a2565b611601565b005b6105826116f1565b60405161058f9190612113565b60405180910390f35b6105b260048036038101906105ad91906122cf565b61177e565b005b6105bc61179f565b6040516105c99190612113565b60405180910390f35b6105da6117a5565b005b6105e46117f7565b6040516105f19190612113565b60405180910390f35b610614600480360381019061060f91906120cd565b6117fd565b005b61061e611919565b60405161062b91906123d4565b60405180910390f35b600061074b600b60008473ffffffffffffffffffffffffffffffffffffffff1673ffffffffffffffffffffffffffffffffffffffff1681526020019081526020016000205461073d670de0b6b3a764000061072f6106e1600a60008973ffffffffffffffffffffffffffffffffffffffff1673ffffffffffffffffffffffffffffffffffffffff168152602001908152602001600020546106d36116f1565b61193f90919063ffffffff16565b600d60008973ffffffffffffffffffffffffffffffffffffffff1673ffffffffffffffffffffffffffffffffffffffff1681526020019081526020016000205461195590919063ffffffff16565b61196b90919063ffffffff16565b61198190919063ffffffff16565b9050919050565b60007f7965db0b000000000000000000000000000000000000000000000000000000007bffffffffffffffffffffffffffffffffffffffffffffffffffffffff1916827bffffffffffffffffffffffffffffffffffffffffffffffffffffffff191614806107c557506107c482611997565b5b9050919050565b600b6020528060005260406000206000915090505481565b6107ec611a01565b6108167fa49807205ce4d355092ef5a8a18f56e8913cf4a201fbe287825b095693c217758261177e565b50565b6000600c54905090565b600061083c60075460065461195590919063ffffffff16565b905090565b600060016000838152602001908152602001600020600101549050919050565b610869611a7f565b336108726116f1565b600981905550610880611263565b600881905550600073ffffffffffffffffffffffffffffffffffffffff168173ffffffffffffffffffffffffffffffffffffffff161461094d576108c381610634565b600b60008373ffffffffffffffffffffffffffffffffffffffff1673ffffffffffffffffffffffffffffffffffffffff16815260200190815260200160002081905550600954600a60008373ffffffffffffffffffffffffffffffffffffffff1673ffffffffffffffffffffffffffffffffffffffff168152602001908152602001600020819055505b60008211610990576040517f08c379a00000000000000000000000000000000000000000000000000000000081526004016109879061244c565b60405180910390fd5b6109a582600c5461193f90919063ffffffff16565b600c819055506109fd82600d60003373ffffffffffffffffffffffffffffffffffffffff1673ffffffffffffffffffffffffffffffffffffffff1681526020019081526020016000205461193f90919063ffffffff16565b600d60003373ffffffffffffffffffffffffffffffffffffffff1673ffffffffffffffffffffffffffffffffffffffff16815260200190815260200160002081905550600360009054906101000a900473ffffffffffffffffffffffffffffffffffffffff1673ffffffffffffffffffffffffffffffffffffffff1663beabacc83033856040518463ffffffff1660e01b8152600401610a9f9392919061246c565b600060405180830381600087803b158015610ab957600080fd5b505af1158015610acd573d6000803e3d6000fd5b505050503373ffffffffffffffffffffffffffffffffffffffff167f7084f5476618d8e60b11ef0d7d3f06914655adb8793e28ff7f018d4c76d505d583604051610b179190612113565b60405180910390a250610b28611ace565b50565b610b3482610841565b610b3d81611ad8565b610b478383611aec565b505050565b610b54611bcc565b73ffffffffffffffffffffffffffffffffffffffff168173ffffffffffffffffffffffffffffffffffffffff1614610bc1576040517f08c379a0000000000000000000000000000000000000000000000000000000008152600401610bb890612515565b60405180910390fd5b610bcb8282611bd4565b5050565b60075481565b610bff7fa49807205ce4d355092ef5a8a18f56e8913cf4a201fbe287825b095693c21775336112bf565b610c3e576040517f08c379a0000000000000000000000000000000000000000000000000000000008152600401610c3590612581565b60405180910390fd5b6000610c486116f1565b600981905550610c56611263565b600881905550600073ffffffffffffffffffffffffffffffffffffffff168173ffffffffffffffffffffffffffffffffffffffff1614610d2357610c9981610634565b600b60008373ffffffffffffffffffffffffffffffffffffffff1673ffffffffffffffffffffffffffffffffffffffff16815260200190815260200160002081905550600954600a60008373ffffffffffffffffffffffffffffffffffffffff1673ffffffffffffffffffffffffffffffffffffffff168152602001908152602001600020819055505b600e544210610d4c57610d416007548361196b90919063ffffffff16565b600681905550610dae565b6000610d6342600e5461193f90919063ffffffff16565b90506000610d7c6006548361195590919063ffffffff16565b9050610da5600754610d97838761198190919063ffffffff16565b61196b90919063ffffffff16565b60068190555050505b6000600460009054906101000a900473ffffffffffffffffffffffffffffffffffffffff1673ffffffffffffffffffffffffffffffffffffffff166370a08231306040518263ffffffff1660e01b8152600401610e0b9190612398565b602060405180830381865afa158015610e28573d6000803e3d6000fd5b505050506040513d601f19601f82011682018060405250810190610e4c91906125b6565b9050610e636007548261196b90919063ffffffff16565b6006541115610ea7576040517f08c379a0000000000000000000000000000000000000000000000000000000008152600401610e9e9061262f565b60405180910390fd5b42600881905550610ec36007544261198190919063ffffffff16565b600e819055507fde88a922e0d3b88b24e9623efeb464919c6bf9f66857a65e2bfcf2ce87a9433d83604051610ef89190612113565b60405180910390a1505050565b610f0d611a7f565b33610f166116f1565b600981905550610f24611263565b600881905550600073ffffffffffffffffffffffffffffffffffffffff168173ffffffffffffffffffffffffffffffffffffffff1614610ff157610f6781610634565b600b60008373ffffffffffffffffffffffffffffffffffffffff1673ffffffffffffffffffffffffffffffffffffffff16815260200190815260200160002081905550600954600a60008373ffffffffffffffffffffffffffffffffffffffff1673ffffffffffffffffffffffffffffffffffffffff168152602001908152602001600020819055505b6000600b60003373ffffffffffffffffffffffffffffffffffffffff1673ffffffffffffffffffffffffffffffffffffffff1681526020019081526020016000205490506000811115611175576000600b60003373ffffffffffffffffffffffffffffffffffffffff1673ffffffffffffffffffffffffffffffffffffffff16815260200190815260200160002081905550600460009054906101000a900473ffffffffffffffffffffffffffffffffffffffff1673ffffffffffffffffffffffffffffffffffffffff166323b872dd3033846040518463ffffffff1660e01b81526004016110e29392919061246c565b6020604051808303816000875af1158015611101573d6000803e3d6000fd5b505050506040513d601f19601f82011682018060405250810190611125919061267b565b503373ffffffffffffffffffffffffffffffffffffffff167fe2403640ba68fed3a2f88b7557551d1993f84b99bb10ff833f0cf8db0c5e04868260405161116c9190612113565b60405180910390a25b505061117f611ace565b565b611189611a01565b6111b37fa49807205ce4d355092ef5a8a18f56e8913cf4a201fbe287825b095693c2177582610b2b565b50565b6000600d60008373ffffffffffffffffffffffffffffffffffffffff1673ffffffffffffffffffffffffffffffffffffffff168152602001908152602001600020549050919050565b611207611a01565b6112116000611cb6565b565b600360009054906101000a900473ffffffffffffffffffffffffffffffffffffffff1681565b7fa49807205ce4d355092ef5a8a18f56e8913cf4a201fbe287825b095693c2177581565b60065481565b6000600e54421061127657600e54611278565b425b905090565b600a6020528060005260406000206000915090505481565b6000600260009054906101000a900473ffffffffffffffffffffffffffffffffffffffff16905090565b60006001600084815260200190815260200160002060000160008373ffffffffffffffffffffffffffffffffffffffff1673ffffffffffffffffffffffffffffffffffffffff16815260200190815260200160002060009054906101000a900460ff16905092915050565b6000801b81565b611339611a7f565b336113426116f1565b600981905550611350611263565b600881905550600073ffffffffffffffffffffffffffffffffffffffff168173ffffffffffffffffffffffffffffffffffffffff161461141d5761139381610634565b600b60008373ffffffffffffffffffffffffffffffffffffffff1673ffffffffffffffffffffffffffffffffffffffff16815260200190815260200160002081905550600954600a60008373ffffffffffffffffffffffffffffffffffffffff1673ffffffffffffffffffffffffffffffffffffffff168152602001908152602001600020819055505b60008211611460576040517f08c379a0000000000000000000000000000000000000000000000000000000008152600401611457906126f4565b60405180910390fd5b61147582600c5461198190919063ffffffff16565b600c819055506114cd82600d60003373ffffffffffffffffffffffffffffffffffffffff1673ffffffffffffffffffffffffffffffffffffffff1681526020019081526020016000205461198190919063ffffffff16565b600d60003373ffffffffffffffffffffffffffffffffffffffff1673ffffffffffffffffffffffffffffffffffffffff16815260200190815260200160002081905550600360009054906101000a900473ffffffffffffffffffffffffffffffffffffffff1673ffffffffffffffffffffffffffffffffffffffff1663beabacc83330856040518463ffffffff1660e01b815260040161156f9392919061246c565b600060405180830381600087803b15801561158957600080fd5b505af115801561159d573d6000803e3d6000fd5b505050503373ffffffffffffffffffffffffffffffffffffffff167f9e71bc8eea02a63969f509818f2dafb9254532904319f9dbda79b67bd34a5f3d836040516115e79190612113565b60405180910390a2506115f8611ace565b50565b60085481565b61162b7fa49807205ce4d355092ef5a8a18f56e8913cf4a201fbe287825b095693c21775336112bf565b61166a576040517f08c379a000000000000000000000000000000000000000000000000000000000815260040161166190612581565b60405180910390fd5b600e5442116116ae576040517f08c379a00000000000000000000000000000000000000000000000000000000081526004016116a5906127ac565b60405180910390fd5b806007819055507ffb46ca5a5e06d4540d6387b930a7c978bce0db5f449ec6b3f5d07c6e1d44f2d36007546040516116e69190612113565b60405180910390a150565b600080600c540361170657600954905061177b565b611778611767600c54611759670de0b6b3a764000061174b60065461173d60085461172f611263565b61193f90919063ffffffff16565b61195590919063ffffffff16565b61195590919063ffffffff16565b61196b90919063ffffffff16565b60095461198190919063ffffffff16565b90505b90565b61178782610841565b61179081611ad8565b61179a8383611bd4565b505050565b60095481565b6117ed600d60003373ffffffffffffffffffffffffffffffffffffffff1673ffffffffffffffffffffffffffffffffffffffff16815260200190815260200160002054610861565b6117f5610f05565b565b600e5481565b611805611a01565b600073ffffffffffffffffffffffffffffffffffffffff168173ffffffffffffffffffffffffffffffffffffffff1603611874576040517f08c379a000000000000000000000000000000000000000000000000000000000815260040161186b90612818565b60405180910390fd5b80600560006101000a81548173ffffffffffffffffffffffffffffffffffffffff021916908373ffffffffffffffffffffffffffffffffffffffff1602179055508073ffffffffffffffffffffffffffffffffffffffff166118d4611295565b73ffffffffffffffffffffffffffffffffffffffff167f38d16b8cac22d99fc7c124b9cd0de2d3fa1faef420bfe791d8c362d765e2270060405160405180910390a350565b600460009054906101000a900473ffffffffffffffffffffffffffffffffffffffff1681565b6000818361194d9190612867565b905092915050565b60008183611963919061289b565b905092915050565b60008183611979919061290c565b905092915050565b6000818361198f919061293d565b905092915050565b60007f01ffc9a7000000000000000000000000000000000000000000000000000000007bffffffffffffffffffffffffffffffffffffffffffffffffffffffff1916827bffffffffffffffffffffffffffffffffffffffffffffffffffffffff1916149050919050565b611a09611bcc565b73ffffffffffffffffffffffffffffffffffffffff16611a27611295565b73ffffffffffffffffffffffffffffffffffffffff1614611a7d576040517f08c379a0000000000000000000000000000000000000000000000000000000008152600401611a74906129bd565b60405180910390fd5b565b600260005403611ac4576040517f08c379a0000000000000000000000000000000000000000000000000000000008152600401611abb90612a29565b60405180910390fd5b6002600081905550565b6001600081905550565b611ae981611ae4611bcc565b611d7c565b50565b611af682826112bf565b611bc857600180600084815260200190815260200160002060000160008373ffffffffffffffffffffffffffffffffffffffff1673ffffffffffffffffffffffffffffffffffffffff16815260200190815260200160002060006101000a81548160ff021916908315150217905550611b6d611bcc565b73ffffffffffffffffffffffffffffffffffffffff168173ffffffffffffffffffffffffffffffffffffffff16837f2f8788117e7eff1d82e926ec794901d17c78024a50270940304540a733656f0d60405160405180910390a45b5050565b600033905090565b611bde82826112bf565b15611cb25760006001600084815260200190815260200160002060000160008373ffffffffffffffffffffffffffffffffffffffff1673ffffffffffffffffffffffffffffffffffffffff16815260200190815260200160002060006101000a81548160ff021916908315150217905550611c57611bcc565b73ffffffffffffffffffffffffffffffffffffffff168173ffffffffffffffffffffffffffffffffffffffff16837ff6391f5c32d9c69d2a47ea670b442974b53935d1edc7fd64eb21e047a839171b60405160405180910390a45b5050565b6000600260009054906101000a900473ffffffffffffffffffffffffffffffffffffffff16905081600260006101000a81548173ffffffffffffffffffffffffffffffffffffffff021916908373ffffffffffffffffffffffffffffffffffffffff1602179055508173ffffffffffffffffffffffffffffffffffffffff168173ffffffffffffffffffffffffffffffffffffffff167f8be0079c531659141344cd1fd0a4f28419497f9722a3daafe3b4186f6b6457e060405160405180910390a35050565b611d8682826112bf565b611dfd57611d9381611e01565b611da18360001c6020611e2e565b604051602001611db2929190612b52565b6040516020818303038152906040526040517f08c379a0000000000000000000000000000000000000000000000000000000008152600401611df49190612bd6565b60405180910390fd5b5050565b6060611e278273ffffffffffffffffffffffffffffffffffffffff16601460ff16611e2e565b9050919050565b606060006002836002611e41919061289b565b611e4b919061293d565b67ffffffffffffffff811115611e6457611e63612bf8565b5b6040519080825280601f01601f191660200182016040528015611e965781602001600182028036833780820191505090505b5090507f300000000000000000000000000000000000000000000000000000000000000081600081518110611ece57611ecd612c27565b5b60200101907effffffffffffffffffffffffffffffffffffffffffffffffffffffffffffff1916908160001a9053507f780000000000000000000000000000000000000000000000000000000000000081600181518110611f3257611f31612c27565b5b60200101907effffffffffffffffffffffffffffffffffffffffffffffffffffffffffffff1916908160001a90535060006001846002611f72919061289b565b611f7c919061293d565b90505b600181111561201c577f3031323334353637383961626364656600000000000000000000000000000000600f861660108110611fbe57611fbd612c27565b5b1a60f81b828281518110611fd557611fd4612c27565b5b60200101907effffffffffffffffffffffffffffffffffffffffffffffffffffffffffffff1916908160001a905350600485901c94508061201590612c56565b9050611f7f565b5060008414612060576040517f08c379a000000000000000000000000000000000000000000000000000000000815260040161205790612ccb565b60405180910390fd5b8091505092915050565b600080fd5b600073ffffffffffffffffffffffffffffffffffffffff82169050919050565b600061209a8261206f565b9050919050565b6120aa8161208f565b81146120b557600080fd5b50565b6000813590506120c7816120a1565b92915050565b6000602082840312156120e3576120e261206a565b5b60006120f1848285016120b8565b91505092915050565b6000819050919050565b61210d816120fa565b82525050565b60006020820190506121286000830184612104565b92915050565b60007fffffffff0000000000000000000000000000000000000000000000000000000082169050919050565b6121638161212e565b811461216e57600080fd5b50565b6000813590506121808161215a565b92915050565b60006020828403121561219c5761219b61206a565b5b60006121aa84828501612171565b91505092915050565b60008115159050919050565b6121c8816121b3565b82525050565b60006020820190506121e360008301846121bf565b92915050565b6000819050919050565b6121fc816121e9565b811461220757600080fd5b50565b600081359050612219816121f3565b92915050565b6000602082840312156122355761223461206a565b5b60006122438482850161220a565b91505092915050565b612255816121e9565b82525050565b6000602082019050612270600083018461224c565b92915050565b61227f816120fa565b811461228a57600080fd5b50565b60008135905061229c81612276565b92915050565b6000602082840312156122b8576122b761206a565b5b60006122c68482850161228d565b91505092915050565b600080604083850312156122e6576122e561206a565b5b60006122f48582860161220a565b9250506020612305858286016120b8565b9150509250929050565b6000819050919050565b600061233461232f61232a8461206f565b61230f565b61206f565b9050919050565b600061234682612319565b9050919050565b60006123588261233b565b9050919050565b6123688161234d565b82525050565b6000602082019050612383600083018461235f565b92915050565b6123928161208f565b82525050565b60006020820190506123ad6000830184612389565b92915050565b60006123be8261233b565b9050919050565b6123ce816123b3565b82525050565b60006020820190506123e960008301846123c5565b92915050565b600082825260208201905092915050565b7f43616e6e6f742077697468647261772030000000000000000000000000000000600082015250565b60006124366011836123ef565b915061244182612400565b602082019050919050565b6000602082019050818103600083015261246581612429565b9050919050565b60006060820190506124816000830186612389565b61248e6020830185612389565b61249b6040830184612104565b949350505050565b7f416363657373436f6e74726f6c3a2063616e206f6e6c792072656e6f756e636560008201527f20726f6c657320666f722073656c660000000000000000000000000000000000602082015250565b60006124ff602f836123ef565b915061250a826124a3565b604082019050919050565b6000602082019050818103600083015261252e816124f2565b9050919050565b7f43616c6c6572206973206e6f7420616e2061646d696e00000000000000000000600082015250565b600061256b6016836123ef565b915061257682612535565b602082019050919050565b6000602082019050818103600083015261259a8161255e565b9050919050565b6000815190506125b081612276565b92915050565b6000602082840312156125cc576125cb61206a565b5b60006125da848285016125a1565b91505092915050565b7f50726f76696465642072657761726420746f6f20686967680000000000000000600082015250565b60006126196018836123ef565b9150612624826125e3565b602082019050919050565b600060208201905081810360008301526126488161260c565b9050919050565b612658816121b3565b811461266357600080fd5b50565b6000815190506126758161264f565b92915050565b6000602082840312156126915761269061206a565b5b600061269f84828501612666565b91505092915050565b7f43616e6e6f74207374616b652030000000000000000000000000000000000000600082015250565b60006126de600e836123ef565b91506126e9826126a8565b602082019050919050565b6000602082019050818103600083015261270d816126d1565b9050919050565b7f50726576696f7573207265776172647320706572696f64206d7573742062652060008201527f636f6d706c657465206265666f7265206368616e67696e67207468652064757260208201527f6174696f6e20666f7220746865206e657720706572696f640000000000000000604082015250565b60006127966058836123ef565b91506127a182612714565b606082019050919050565b600060208201905081810360008301526127c581612789565b9050919050565b7f4e6577206f776e657220697320746865207a65726f2061646472657373000000600082015250565b6000612802601d836123ef565b915061280d826127cc565b602082019050919050565b60006020820190508181036000830152612831816127f5565b9050919050565b7f4e487b7100000000000000000000000000000000000000000000000000000000600052601160045260246000fd5b6000612872826120fa565b915061287d836120fa565b925082820390508181111561289557612894612838565b5b92915050565b60006128a6826120fa565b91506128b1836120fa565b92508282026128bf816120fa565b915082820484148315176128d6576128d5612838565b5b5092915050565b7f4e487b7100000000000000000000000000000000000000000000000000000000600052601260045260246000fd5b6000612917826120fa565b9150612922836120fa565b925082612932576129316128dd565b5b828204905092915050565b6000612948826120fa565b9150612953836120fa565b925082820190508082111561296b5761296a612838565b5b92915050565b7f4f776e61626c653a2063616c6c6572206973206e6f7420746865206f776e6572600082015250565b60006129a76020836123ef565b91506129b282612971565b602082019050919050565b600060208201905081810360008301526129d68161299a565b9050919050565b7f5265656e7472616e637947756172643a207265656e7472616e742063616c6c00600082015250565b6000612a13601f836123ef565b9150612a1e826129dd565b602082019050919050565b60006020820190508181036000830152612a4281612a06565b9050919050565b600081905092915050565b7f416363657373436f6e74726f6c3a206163636f756e7420000000000000000000600082015250565b6000612a8a601783612a49565b9150612a9582612a54565b601782019050919050565b600081519050919050565b60005b83811015612ac9578082015181840152602081019050612aae565b60008484015250505050565b6000612ae082612aa0565b612aea8185612a49565b9350612afa818560208601612aab565b80840191505092915050565b7f206973206d697373696e6720726f6c6520000000000000000000000000000000600082015250565b6000612b3c601183612a49565b9150612b4782612b06565b601182019050919050565b6000612b5d82612a7d565b9150612b698285612ad5565b9150612b7482612b2f565b9150612b808284612ad5565b91508190509392505050565b6000601f19601f8301169050919050565b6000612ba882612aa0565b612bb281856123ef565b9350612bc2818560208601612aab565b612bcb81612b8c565b840191505092915050565b60006020820190508181036000830152612bf08184612b9d565b905092915050565b7f4e487b7100000000000000000000000000000000000000000000000000000000600052604160045260246000fd5b7f4e487b7100000000000000000000000000000000000000000000000000000000600052603260045260246000fd5b6000612c61826120fa565b915060008203612c7457612c73612838565b5b600182039050919050565b7f537472696e67733a20686578206c656e67746820696e73756666696369656e74600082015250565b6000612cb56020836123ef565b9150612cc082612c7f565b602082019050919050565b60006020820190508181036000830152612ce481612ca8565b905091905056fea26469706673582212207118dfad41e52c3aecc51315bc7f5abcd724e72e0b302a3ee014c49938faeb5064736f6c63430008180033",
  "linkReferences": {},
  "deployedLinkReferences": {}
}