{
  "_format": "hh-sol-artifact-1",
  "contractName": "User",
  "sourceName": "contracts/User.sol",
  "abi": [
    {
      "inputs": [
        {
          "internalType": "address",
          "name": "_gmcContract",
          "type": "address"
        },
        {
          "internalType": "address",
          "name": "_fishermanNFT",
          "type": "address"
        },
        {
          "internalType": "address",
          "name": "_fishingRodNFT",
          "type": "address"
        }
      ],
      "stateMutability": "nonpayable",
      "type": "constructor"
    },
    {
      "anonymous": false,
      "inputs": [
        {
          "indexed": true,
          "internalType": "address",
          "name": "playerAddress",
          "type": "address"
        },
        {
          "indexed": false,
          "internalType": "uint256",
          "name": "newCount",
          "type": "uint256"
        }
      ],
      "name": "BaitCountUpdated",
      "type": "event"
    },
    {
      "anonymous": false,
      "inputs": [
        {
          "indexed": true,
          "internalType": "address",
          "name": "playerAddress",
          "type": "address"
        },
        {
          "indexed": false,
          "internalType": "uint256",
          "name": "price",
          "type": "uint256"
        }
      ],
      "name": "BaitPurchaseUpdated",
      "type": "event"
    },
    {
      "anonymous": false,
      "inputs": [
        {
          "indexed": false,
          "internalType": "address",
          "name": "userAddress",
          "type": "address"
        },
        {
          "indexed": false,
          "internalType": "uint256",
          "name": "count",
          "type": "uint256"
        }
      ],
      "name": "ClaimGMC",
      "type": "event"
    },
    {
      "anonymous": false,
      "inputs": [
        {
          "indexed": true,
          "internalType": "address",
          "name": "playerAddress",
          "type": "address"
        },
        {
          "indexed": false,
          "internalType": "uint256",
          "name": "newAmount",
          "type": "uint256"
        }
      ],
      "name": "CollectedGMCUpdated",
      "type": "event"
    },
    {
      "anonymous": false,
      "inputs": [
        {
          "indexed": true,
          "internalType": "address",
          "name": "playerAddress",
          "type": "address"
        },
        {
          "indexed": false,
          "internalType": "uint256",
          "name": "exp",
          "type": "uint256"
        }
      ],
      "name": "ExperienceAdded",
      "type": "event"
    },
    {
      "anonymous": false,
      "inputs": [
        {
          "indexed": true,
          "internalType": "address",
          "name": "playerAddress",
          "type": "address"
        },
        {
          "indexed": false,
          "internalType": "uint256",
          "name": "star",
          "type": "uint256"
        },
        {
          "indexed": false,
          "internalType": "uint256",
          "name": "newCount",
          "type": "uint256"
        }
      ],
      "name": "FishCountUpdated",
      "type": "event"
    },
    {
      "anonymous": false,
      "inputs": [
        {
          "indexed": true,
          "internalType": "address",
          "name": "playerAddress",
          "type": "address"
        },
        {
          "indexed": false,
          "internalType": "uint256",
          "name": "newLevel",
          "type": "uint256"
        }
      ],
      "name": "FishPoolLevelUpdated",
      "type": "event"
    },
    {
      "anonymous": false,
      "inputs": [
        {
          "indexed": true,
          "internalType": "address",
          "name": "playerAddress",
          "type": "address"
        },
        {
          "indexed": false,
          "internalType": "uint256",
          "name": "newFishermanId",
          "type": "uint256"
        }
      ],
      "name": "FishermanChanged",
      "type": "event"
    },
    {
      "anonymous": false,
      "inputs": [
        {
          "indexed": true,
          "internalType": "uint256",
          "name": "levelUpLimit",
          "type": "uint256"
        },
        {
          "indexed": true,
          "internalType": "uint256",
          "name": "baitPurchaseLimit",
          "type": "uint256"
        },
        {
          "indexed": true,
          "internalType": "uint256",
          "name": "baitPrice",
          "type": "uint256"
        }
      ],
      "name": "LimitAttributeUpdate",
      "type": "event"
    },
    {
      "anonymous": false,
      "inputs": [
        {
          "indexed": true,
          "internalType": "address",
          "name": "previousOwner",
          "type": "address"
        },
        {
          "indexed": true,
          "internalType": "address",
          "name": "newOwner",
          "type": "address"
        }
      ],
      "name": "OwnershipTransferStarted",
      "type": "event"
    },
    {
      "anonymous": false,
      "inputs": [
        {
          "indexed": true,
          "internalType": "address",
          "name": "previousOwner",
          "type": "address"
        },
        {
          "indexed": true,
          "internalType": "address",
          "name": "newOwner",
          "type": "address"
        }
      ],
      "name": "OwnershipTransferred",
      "type": "event"
    },
    {
      "anonymous": false,
      "inputs": [
        {
          "indexed": true,
          "internalType": "address",
          "name": "playerAddress",
          "type": "address"
        }
      ],
      "name": "PlayerAdded",
      "type": "event"
    },
    {
      "anonymous": false,
      "inputs": [
        {
          "indexed": true,
          "internalType": "address",
          "name": "playerAddress",
          "type": "address"
        }
      ],
      "name": "PlayerDeleted",
      "type": "event"
    },
    {
      "anonymous": false,
      "inputs": [
        {
          "indexed": true,
          "internalType": "address",
          "name": "playerAddress",
          "type": "address"
        },
        {
          "indexed": false,
          "internalType": "uint256",
          "name": "newLevel",
          "type": "uint256"
        }
      ],
      "name": "PlayerLevelUpdated",
      "type": "event"
    },
    {
      "anonymous": false,
      "inputs": [
        {
          "indexed": true,
          "internalType": "address",
          "name": "playerAddress",
          "type": "address"
        },
        {
          "indexed": false,
          "internalType": "uint256",
          "name": "newLevel",
          "type": "uint256"
        }
      ],
      "name": "PlayerLeveledUp",
      "type": "event"
    },
    {
      "anonymous": false,
      "inputs": [
        {
          "indexed": false,
          "internalType": "address",
          "name": "userAddress",
          "type": "address"
        },
        {
          "indexed": false,
          "internalType": "uint256",
          "name": "count",
          "type": "uint256"
        }
      ],
      "name": "PoundUpgrade",
      "type": "event"
    },
    {
      "anonymous": false,
      "inputs": [
        {
          "indexed": true,
          "internalType": "address",
          "name": "playerAddress",
          "type": "address"
        },
        {
          "indexed": false,
          "internalType": "uint256",
          "name": "newRodId",
          "type": "uint256"
        }
      ],
      "name": "RodChanged",
      "type": "event"
    },
    {
      "anonymous": false,
      "inputs": [
        {
          "indexed": true,
          "internalType": "bytes32",
          "name": "role",
          "type": "bytes32"
        },
        {
          "indexed": true,
          "internalType": "bytes32",
          "name": "previousAdminRole",
          "type": "bytes32"
        },
        {
          "indexed": true,
          "internalType": "bytes32",
          "name": "newAdminRole",
          "type": "bytes32"
        }
      ],
      "name": "RoleAdminChanged",
      "type": "event"
    },
    {
      "anonymous": false,
      "inputs": [
        {
          "indexed": true,
          "internalType": "bytes32",
          "name": "role",
          "type": "bytes32"
        },
        {
          "indexed": true,
          "internalType": "address",
          "name": "account",
          "type": "address"
        },
        {
          "indexed": true,
          "internalType": "address",
          "name": "sender",
          "type": "address"
        }
      ],
      "name": "RoleGranted",
      "type": "event"
    },
    {
      "anonymous": false,
      "inputs": [
        {
          "indexed": true,
          "internalType": "bytes32",
          "name": "role",
          "type": "bytes32"
        },
        {
          "indexed": true,
          "internalType": "address",
          "name": "account",
          "type": "address"
        },
        {
          "indexed": true,
          "internalType": "address",
          "name": "sender",
          "type": "address"
        }
      ],
      "name": "RoleRevoked",
      "type": "event"
    },
    {
      "anonymous": false,
      "inputs": [
        {
          "components": [
            {
              "internalType": "uint256",
              "name": "fishingCount",
              "type": "uint256"
            },
            {
              "internalType": "uint256",
              "name": "experience",
              "type": "uint256"
            },
            {
              "internalType": "uint256",
              "name": "level",
              "type": "uint256"
            },
            {
              "internalType": "uint256[5]",
              "name": "unlockedFishingSpots",
              "type": "uint256[5]"
            },
            {
              "internalType": "uint256",
              "name": "currentFishingSpot",
              "type": "uint256"
            },
            {
              "internalType": "uint256",
              "name": "fishPoolLevel",
              "type": "uint256"
            },
            {
              "internalType": "uint256",
              "name": "interestRate",
              "type": "uint256"
            },
            {
              "internalType": "uint256",
              "name": "collectedGMC",
              "type": "uint256"
            },
            {
              "internalType": "uint256",
              "name": "baitCount",
              "type": "uint256"
            },
            {
              "internalType": "uint256[10]",
              "name": "fishCount",
              "type": "uint256[10]"
            },
            {
              "internalType": "uint256",
              "name": "currentFishermanNFT",
              "type": "uint256"
            },
            {
              "internalType": "uint256",
              "name": "currentRodNFT",
              "type": "uint256"
            }
          ],
          "indexed": true,
          "internalType": "struct User.PlayerInfo[]",
          "name": "playerInfo",
          "type": "tuple[]"
        },
        {
          "indexed": true,
          "internalType": "address[]",
          "name": "playerAddresses",
          "type": "address[]"
        }
      ],
      "name": "UserDataUpdate",
      "type": "event"
    },
    {
      "inputs": [],
      "name": "ADMIN_ROLE",
      "outputs": [
        {
          "internalType": "bytes32",
          "name": "",
          "type": "bytes32"
        }
      ],
      "stateMutability": "view",
      "type": "function"
    },
    {
      "inputs": [],
      "name": "DEFAULT_ADMIN_ROLE",
      "outputs": [
        {
          "internalType": "bytes32",
          "name": "",
          "type": "bytes32"
        }
      ],
      "stateMutability": "view",
      "type": "function"
    },
    {
      "inputs": [],
      "name": "acceptOwnership",
      "outputs": [],
      "stateMutability": "nonpayable",
      "type": "function"
    },
    {
      "inputs": [
        {
          "internalType": "address",
          "name": "newAdmin",
          "type": "address"
        }
      ],
      "name": "addAdmin",
      "outputs": [],
      "stateMutability": "nonpayable",
      "type": "function"
    },
    {
      "inputs": [
        {
          "internalType": "address",
          "name": "userAddress",
          "type": "address"
        }
      ],
      "name": "addUser",
      "outputs": [],
      "stateMutability": "nonpayable",
      "type": "function"
    },
    {
      "inputs": [],
      "name": "baitPrice",
      "outputs": [
        {
          "internalType": "uint256",
          "name": "",
          "type": "uint256"
        }
      ],
      "stateMutability": "view",
      "type": "function"
    },
    {
      "inputs": [],
      "name": "baitPurchaseLimit",
      "outputs": [
        {
          "internalType": "uint256",
          "name": "",
          "type": "uint256"
        }
      ],
      "stateMutability": "view",
      "type": "function"
    },
    {
      "inputs": [
        {
          "internalType": "uint256",
          "name": "count",
          "type": "uint256"
        }
      ],
      "name": "buyBaits",
      "outputs": [],
      "stateMutability": "nonpayable",
      "type": "function"
    },
    {
      "inputs": [
        {
          "internalType": "address",
          "name": "userAddress",
          "type": "address"
        },
        {
          "internalType": "uint256",
          "name": "fishermanId",
          "type": "uint256"
        }
      ],
      "name": "changeFisherman",
      "outputs": [],
      "stateMutability": "nonpayable",
      "type": "function"
    },
    {
      "inputs": [
        {
          "internalType": "uint256",
          "name": "rodId",
          "type": "uint256"
        },
        {
          "internalType": "address",
          "name": "userAddress",
          "type": "address"
        }
      ],
      "name": "changeRod",
      "outputs": [],
      "stateMutability": "nonpayable",
      "type": "function"
    },
    {
      "inputs": [
        {
          "internalType": "address",
          "name": "userAddress",
          "type": "address"
        },
        {
          "internalType": "uint256",
          "name": "count",
          "type": "uint256"
        }
      ],
      "name": "claimGMC",
      "outputs": [],
      "stateMutability": "nonpayable",
      "type": "function"
    },
    {
      "inputs": [
        {
          "internalType": "address",
          "name": "userAddress",
          "type": "address"
        }
      ],
      "name": "deleteUser",
      "outputs": [],
      "stateMutability": "nonpayable",
      "type": "function"
    },
    {
      "inputs": [],
      "name": "fishermanNFT",
      "outputs": [
        {
          "internalType": "contract IFishermanNFT",
          "name": "",
          "type": "address"
        }
      ],
      "stateMutability": "view",
      "type": "function"
    },
    {
      "inputs": [],
      "name": "fishingCountLimit",
      "outputs": [
        {
          "internalType": "uint256",
          "name": "",
          "type": "uint256"
        }
      ],
      "stateMutability": "view",
      "type": "function"
    },
    {
      "inputs": [],
      "name": "fishingRodNFT",
      "outputs": [
        {
          "internalType": "contract IFishingRodNFT",
          "name": "",
          "type": "address"
        }
      ],
      "stateMutability": "view",
      "type": "function"
    },
    {
      "inputs": [
        {
          "internalType": "address",
          "name": "playerAddress",
          "type": "address"
        }
      ],
      "name": "getBaitCount",
      "outputs": [
        {
          "internalType": "uint256",
          "name": "",
          "type": "uint256"
        }
      ],
      "stateMutability": "view",
      "type": "function"
    },
    {
      "inputs": [],
      "name": "getBaitPurchaseLimit",
      "outputs": [
        {
          "internalType": "uint256",
          "name": "",
          "type": "uint256"
        }
      ],
      "stateMutability": "view",
      "type": "function"
    },
    {
      "inputs": [
        {
          "internalType": "address",
          "name": "playerAddress",
          "type": "address"
        }
      ],
      "name": "getCollectedGMC",
      "outputs": [
        {
          "internalType": "uint256",
          "name": "",
          "type": "uint256"
        }
      ],
      "stateMutability": "view",
      "type": "function"
    },
    {
      "inputs": [
        {
          "internalType": "address",
          "name": "playerAddress",
          "type": "address"
        }
      ],
      "name": "getCurrentFishermanNFT",
      "outputs": [
        {
          "internalType": "uint256",
          "name": "",
          "type": "uint256"
        }
      ],
      "stateMutability": "view",
      "type": "function"
    },
    {
      "inputs": [
        {
          "internalType": "address",
          "name": "playerAddress",
          "type": "address"
        }
      ],
      "name": "getCurrentFishingRodNFT",
      "outputs": [
        {
          "internalType": "uint256",
          "name": "",
          "type": "uint256"
        }
      ],
      "stateMutability": "view",
      "type": "function"
    },
    {
      "inputs": [
        {
          "internalType": "address",
          "name": "playerAddress",
          "type": "address"
        }
      ],
      "name": "getCurrentFishingSpot",
      "outputs": [
        {
          "internalType": "uint256",
          "name": "",
          "type": "uint256"
        }
      ],
      "stateMutability": "view",
      "type": "function"
    },
    {
      "inputs": [
        {
          "internalType": "address",
          "name": "playerAddress",
          "type": "address"
        }
      ],
      "name": "getExperience",
      "outputs": [
        {
          "internalType": "uint256",
          "name": "",
          "type": "uint256"
        }
      ],
      "stateMutability": "view",
      "type": "function"
    },
    {
      "inputs": [
        {
          "internalType": "address",
          "name": "playerAddress",
          "type": "address"
        }
      ],
      "name": "getFishCount",
      "outputs": [
        {
          "internalType": "uint256[10]",
          "name": "",
          "type": "uint256[10]"
        }
      ],
      "stateMutability": "view",
      "type": "function"
    },
    {
      "inputs": [
        {
          "internalType": "address",
          "name": "playerAddress",
          "type": "address"
        }
      ],
      "name": "getFishPoolLevel",
      "outputs": [
        {
          "internalType": "uint256",
          "name": "",
          "type": "uint256"
        }
      ],
      "stateMutability": "view",
      "type": "function"
    },
    {
      "inputs": [
        {
          "internalType": "address",
          "name": "playerAddress",
          "type": "address"
        }
      ],
      "name": "getFishingCount",
      "outputs": [
        {
          "internalType": "uint256",
          "name": "",
          "type": "uint256"
        }
      ],
      "stateMutability": "view",
      "type": "function"
    },
    {
      "inputs": [],
      "name": "getFishingCountLimit",
      "outputs": [
        {
          "internalType": "uint256",
          "name": "",
          "type": "uint256"
        }
      ],
      "stateMutability": "view",
      "type": "function"
    },
    {
      "inputs": [
        {
          "internalType": "address",
          "name": "playerAddress",
          "type": "address"
        }
      ],
      "name": "getInterestRate",
      "outputs": [
        {
          "internalType": "uint256",
          "name": "",
          "type": "uint256"
        }
      ],
      "stateMutability": "view",
      "type": "function"
    },
    {
      "inputs": [],
      "name": "getLevelUpLimit",
      "outputs": [
        {
          "internalType": "uint256",
          "name": "",
          "type": "uint256"
        }
      ],
      "stateMutability": "view",
      "type": "function"
    },
    {
      "inputs": [
        {
          "internalType": "address",
          "name": "account",
          "type": "address"
        }
      ],
      "name": "getPlayerInfo",
      "outputs": [
        {
          "components": [
            {
              "internalType": "uint256",
              "name": "fishingCount",
              "type": "uint256"
            },
            {
              "internalType": "uint256",
              "name": "experience",
              "type": "uint256"
            },
            {
              "internalType": "uint256",
              "name": "level",
              "type": "uint256"
            },
            {
              "internalType": "uint256[5]",
              "name": "unlockedFishingSpots",
              "type": "uint256[5]"
            },
            {
              "internalType": "uint256",
              "name": "currentFishingSpot",
              "type": "uint256"
            },
            {
              "internalType": "uint256",
              "name": "fishPoolLevel",
              "type": "uint256"
            },
            {
              "internalType": "uint256",
              "name": "interestRate",
              "type": "uint256"
            },
            {
              "internalType": "uint256",
              "name": "collectedGMC",
              "type": "uint256"
            },
            {
              "internalType": "uint256",
              "name": "baitCount",
              "type": "uint256"
            },
            {
              "internalType": "uint256[10]",
              "name": "fishCount",
              "type": "uint256[10]"
            },
            {
              "internalType": "uint256",
              "name": "currentFishermanNFT",
              "type": "uint256"
            },
            {
              "internalType": "uint256",
              "name": "currentRodNFT",
              "type": "uint256"
            }
          ],
          "internalType": "struct User.PlayerInfo",
          "name": "",
          "type": "tuple"
        }
      ],
      "stateMutability": "view",
      "type": "function"
    },
    {
      "inputs": [
        {
          "internalType": "address",
          "name": "playerAddress",
          "type": "address"
        }
      ],
      "name": "getPlayerLevel",
      "outputs": [
        {
          "internalType": "uint256",
          "name": "",
          "type": "uint256"
        }
      ],
      "stateMutability": "view",
      "type": "function"
    },
    {
      "inputs": [
        {
          "internalType": "bytes32",
          "name": "role",
          "type": "bytes32"
        }
      ],
      "name": "getRoleAdmin",
      "outputs": [
        {
          "internalType": "bytes32",
          "name": "",
          "type": "bytes32"
        }
      ],
      "stateMutability": "view",
      "type": "function"
    },
    {
      "inputs": [
        {
          "internalType": "address",
          "name": "userAddress",
          "type": "address"
        }
      ],
      "name": "getUnlockedFishingSpots",
      "outputs": [
        {
          "internalType": "uint256[5]",
          "name": "",
          "type": "uint256[5]"
        }
      ],
      "stateMutability": "view",
      "type": "function"
    },
    {
      "inputs": [
        {
          "internalType": "address",
          "name": "userAddress",
          "type": "address"
        }
      ],
      "name": "getUser",
      "outputs": [
        {
          "components": [
            {
              "internalType": "uint256",
              "name": "fishingCount",
              "type": "uint256"
            },
            {
              "internalType": "uint256",
              "name": "experience",
              "type": "uint256"
            },
            {
              "internalType": "uint256",
              "name": "level",
              "type": "uint256"
            },
            {
              "internalType": "uint256[5]",
              "name": "unlockedFishingSpots",
              "type": "uint256[5]"
            },
            {
              "internalType": "uint256",
              "name": "currentFishingSpot",
              "type": "uint256"
            },
            {
              "internalType": "uint256",
              "name": "fishPoolLevel",
              "type": "uint256"
            },
            {
              "internalType": "uint256",
              "name": "interestRate",
              "type": "uint256"
            },
            {
              "internalType": "uint256",
              "name": "collectedGMC",
              "type": "uint256"
            },
            {
              "internalType": "uint256",
              "name": "baitCount",
              "type": "uint256"
            },
            {
              "internalType": "uint256[10]",
              "name": "fishCount",
              "type": "uint256[10]"
            },
            {
              "internalType": "uint256",
              "name": "currentFishermanNFT",
              "type": "uint256"
            },
            {
              "internalType": "uint256",
              "name": "currentRodNFT",
              "type": "uint256"
            }
          ],
          "internalType": "struct User.PlayerInfo",
          "name": "",
          "type": "tuple"
        }
      ],
      "stateMutability": "view",
      "type": "function"
    },
    {
      "inputs": [],
      "name": "gmcContract",
      "outputs": [
        {
          "internalType": "contract IGMC",
          "name": "",
          "type": "address"
        }
      ],
      "stateMutability": "view",
      "type": "function"
    },
    {
      "inputs": [
        {
          "internalType": "bytes32",
          "name": "role",
          "type": "bytes32"
        },
        {
          "internalType": "address",
          "name": "account",
          "type": "address"
        }
      ],
      "name": "grantRole",
      "outputs": [],
      "stateMutability": "nonpayable",
      "type": "function"
    },
    {
      "inputs": [
        {
          "internalType": "bytes32",
          "name": "role",
          "type": "bytes32"
        },
        {
          "internalType": "address",
          "name": "account",
          "type": "address"
        }
      ],
      "name": "hasRole",
      "outputs": [
        {
          "internalType": "bool",
          "name": "",
          "type": "bool"
        }
      ],
      "stateMutability": "view",
      "type": "function"
    },
    {
      "inputs": [],
      "name": "levelUpLimit",
      "outputs": [
        {
          "internalType": "uint256",
          "name": "",
          "type": "uint256"
        }
      ],
      "stateMutability": "view",
      "type": "function"
    },
    {
      "inputs": [],
      "name": "owner",
      "outputs": [
        {
          "internalType": "address",
          "name": "",
          "type": "address"
        }
      ],
      "stateMutability": "view",
      "type": "function"
    },
    {
      "inputs": [
        {
          "internalType": "uint256",
          "name": "gmcCount",
          "type": "uint256"
        }
      ],
      "name": "poundUpgrade",
      "outputs": [],
      "stateMutability": "nonpayable",
      "type": "function"
    },
    {
      "inputs": [
        {
          "internalType": "address",
          "name": "admin",
          "type": "address"
        }
      ],
      "name": "removeAdmin",
      "outputs": [],
      "stateMutability": "nonpayable",
      "type": "function"
    },
    {
      "inputs": [],
      "name": "renounceOwnership",
      "outputs": [],
      "stateMutability": "nonpayable",
      "type": "function"
    },
    {
      "inputs": [
        {
          "internalType": "bytes32",
          "name": "role",
          "type": "bytes32"
        },
        {
          "internalType": "address",
          "name": "account",
          "type": "address"
        }
      ],
      "name": "renounceRole",
      "outputs": [],
      "stateMutability": "nonpayable",
      "type": "function"
    },
    {
      "inputs": [
        {
          "internalType": "bytes32",
          "name": "role",
          "type": "bytes32"
        },
        {
          "internalType": "address",
          "name": "account",
          "type": "address"
        }
      ],
      "name": "revokeRole",
      "outputs": [],
      "stateMutability": "nonpayable",
      "type": "function"
    },
    {
      "inputs": [
        {
          "internalType": "address",
          "name": "playerAddress",
          "type": "address"
        },
        {
          "internalType": "uint256",
          "name": "newCount",
          "type": "uint256"
        }
      ],
      "name": "setBaitCount",
      "outputs": [],
      "stateMutability": "nonpayable",
      "type": "function"
    },
    {
      "inputs": [
        {
          "internalType": "uint256",
          "name": "_baitPurchaseLimit",
          "type": "uint256"
        }
      ],
      "name": "setBaitPurchaseLimit",
      "outputs": [],
      "stateMutability": "nonpayable",
      "type": "function"
    },
    {
      "inputs": [
        {
          "internalType": "address",
          "name": "playerAddress",
          "type": "address"
        },
        {
          "internalType": "uint256",
          "name": "newAmount",
          "type": "uint256"
        }
      ],
      "name": "setCollectedGMC",
      "outputs": [],
      "stateMutability": "nonpayable",
      "type": "function"
    },
    {
      "inputs": [
        {
          "internalType": "address",
          "name": "userAddress",
          "type": "address"
        },
        {
          "internalType": "uint256",
          "name": "exp",
          "type": "uint256"
        }
      ],
      "name": "setExperience",
      "outputs": [],
      "stateMutability": "nonpayable",
      "type": "function"
    },
    {
      "inputs": [
        {
          "internalType": "address",
          "name": "playerAddress",
          "type": "address"
        },
        {
          "internalType": "uint256",
          "name": "star",
          "type": "uint256"
        },
        {
          "internalType": "uint256",
          "name": "newCount",
          "type": "uint256"
        }
      ],
      "name": "setFishCount",
      "outputs": [],
      "stateMutability": "nonpayable",
      "type": "function"
    },
    {
      "inputs": [
        {
          "internalType": "address",
          "name": "playerAddress",
          "type": "address"
        },
        {
          "internalType": "uint256",
          "name": "newLevel",
          "type": "uint256"
        }
      ],
      "name": "setFishPoolLevel",
      "outputs": [],
      "stateMutability": "nonpayable",
      "type": "function"
    },
    {
      "inputs": [
        {
          "internalType": "address",
          "name": "userAddress",
          "type": "address"
        },
        {
          "internalType": "uint256",
          "name": "count",
          "type": "uint256"
        }
      ],
      "name": "setFishingCount",
      "outputs": [],
      "stateMutability": "nonpayable",
      "type": "function"
    },
    {
      "inputs": [
        {
          "internalType": "uint256",
          "name": "_fishingCountLimit",
          "type": "uint256"
        }
      ],
      "name": "setFishingCountLimit",
      "outputs": [],
      "stateMutability": "nonpayable",
      "type": "function"
    },
    {
      "inputs": [
        {
          "internalType": "uint256",
          "name": "_levelUpLimit",
          "type": "uint256"
        }
      ],
      "name": "setLevelUpLimit",
      "outputs": [],
      "stateMutability": "nonpayable",
      "type": "function"
    },
    {
      "inputs": [
        {
          "internalType": "address",
          "name": "playerAddress",
          "type": "address"
        },
        {
          "internalType": "uint256",
          "name": "newLevel",
          "type": "uint256"
        }
      ],
      "name": "setPlayerLevel",
      "outputs": [],
      "stateMutability": "nonpayable",
      "type": "function"
    },
    {
      "inputs": [
        {
          "internalType": "bytes4",
          "name": "interfaceId",
          "type": "bytes4"
        }
      ],
      "name": "supportsInterface",
      "outputs": [
        {
          "internalType": "bool",
          "name": "",
          "type": "bool"
        }
      ],
      "stateMutability": "view",
      "type": "function"
    },
    {
      "inputs": [
        {
          "internalType": "address",
          "name": "newOwner",
          "type": "address"
        }
      ],
      "name": "transferOwnership",
      "outputs": [],
      "stateMutability": "nonpayable",
      "type": "function"
    },
    {
      "inputs": [
        {
          "internalType": "uint256",
          "name": "_levelUpLimit",
          "type": "uint256"
        },
        {
          "internalType": "uint256",
          "name": "_baitPurchaseLimit",
          "type": "uint256"
        },
        {
          "internalType": "uint256",
          "name": "_fishingCountLimit",
          "type": "uint256"
        },
        {
          "internalType": "uint256",
          "name": "_baitPrice",
          "type": "uint256"
        }
      ],
      "name": "updateLimitAttribute",
      "outputs": [],
      "stateMutability": "nonpayable",
      "type": "function"
    },
    {
      "inputs": [
        {
          "components": [
            {
              "internalType": "uint256",
              "name": "fishingCount",
              "type": "uint256"
            },
            {
              "internalType": "uint256",
              "name": "experience",
              "type": "uint256"
            },
            {
              "internalType": "uint256",
              "name": "level",
              "type": "uint256"
            },
            {
              "internalType": "uint256[5]",
              "name": "unlockedFishingSpots",
              "type": "uint256[5]"
            },
            {
              "internalType": "uint256",
              "name": "currentFishingSpot",
              "type": "uint256"
            },
            {
              "internalType": "uint256",
              "name": "fishPoolLevel",
              "type": "uint256"
            },
            {
              "internalType": "uint256",
              "name": "interestRate",
              "type": "uint256"
            },
            {
              "internalType": "uint256",
              "name": "collectedGMC",
              "type": "uint256"
            },
            {
              "internalType": "uint256",
              "name": "baitCount",
              "type": "uint256"
            },
            {
              "internalType": "uint256[10]",
              "name": "fishCount",
              "type": "uint256[10]"
            },
            {
              "internalType": "uint256",
              "name": "currentFishermanNFT",
              "type": "uint256"
            },
            {
              "internalType": "uint256",
              "name": "currentRodNFT",
              "type": "uint256"
            }
          ],
          "internalType": "struct User.PlayerInfo[]",
          "name": "playerInfo",
          "type": "tuple[]"
        },
        {
          "internalType": "address[]",
          "name": "playerAddresses",
          "type": "address[]"
        }
      ],
      "name": "updateUserData",
      "outputs": [],
      "stateMutability": "nonpayable",
      "type": "function"
    }
  ],
  "bytecode": "0x60806040523480156200001157600080fd5b50604051620061b2380380620061b2833981810160405281019062000037919062000439565b620000576200004b6200019160201b60201c565b6200019960201b60201c565b60336006819055506063600781905550600a600881905550674563918244f40000600981905550620000936000801b336200025d60201b60201c565b620000c57fa49807205ce4d355092ef5a8a18f56e8913cf4a201fbe287825b095693c21775336200025d60201b60201c565b82600260006101000a81548173ffffffffffffffffffffffffffffffffffffffff021916908373ffffffffffffffffffffffffffffffffffffffff16021790555081600360006101000a81548173ffffffffffffffffffffffffffffffffffffffff021916908373ffffffffffffffffffffffffffffffffffffffff16021790555080600460006101000a81548173ffffffffffffffffffffffffffffffffffffffff021916908373ffffffffffffffffffffffffffffffffffffffff16021790555050505062000495565b600033905090565b60008060009054906101000a900473ffffffffffffffffffffffffffffffffffffffff169050816000806101000a81548173ffffffffffffffffffffffffffffffffffffffff021916908373ffffffffffffffffffffffffffffffffffffffff1602179055508173ffffffffffffffffffffffffffffffffffffffff168173ffffffffffffffffffffffffffffffffffffffff167f8be0079c531659141344cd1fd0a4f28419497f9722a3daafe3b4186f6b6457e060405160405180910390a35050565b6200026f82826200027360201b60201c565b5050565b6200028582826200036460201b60201c565b6200036057600180600084815260200190815260200160002060000160008373ffffffffffffffffffffffffffffffffffffffff1673ffffffffffffffffffffffffffffffffffffffff16815260200190815260200160002060006101000a81548160ff021916908315150217905550620003056200019160201b60201c565b73ffffffffffffffffffffffffffffffffffffffff168173ffffffffffffffffffffffffffffffffffffffff16837f2f8788117e7eff1d82e926ec794901d17c78024a50270940304540a733656f0d60405160405180910390a45b5050565b60006001600084815260200190815260200160002060000160008373ffffffffffffffffffffffffffffffffffffffff1673ffffffffffffffffffffffffffffffffffffffff16815260200190815260200160002060009054906101000a900460ff16905092915050565b600080fd5b600073ffffffffffffffffffffffffffffffffffffffff82169050919050565b60006200040182620003d4565b9050919050565b6200041381620003f4565b81146200041f57600080fd5b50565b600081519050620004338162000408565b92915050565b600080600060608486031215620004555762000454620003cf565b5b6000620004658682870162000422565b9350506020620004788682870162000422565b92505060406200048b8682870162000422565b9150509250925092565b615d0d80620004a56000396000f3fe608060405234801561001057600080fd5b50600436106103835760003560e01c806379ba5097116101de578063bfb56d621161010f578063e55ae65a116100ad578063eaaaa2341161007c578063eaaaa23414610a88578063f206140514610aa4578063f2fde38b14610ac2578063f76b7de514610ade57610383565b8063e55ae65a14610a02578063e678f86c14610a20578063e82345a314610a3c578063e9bcc5f314610a6c57610383565b8063cee8b4aa116100e9578063cee8b4aa1461097c578063d3ea0f891461099a578063d547741f146109ca578063dea90512146109e657610383565b8063bfb56d6214610912578063c6051a941461092e578063c8001b731461095e57610383565b80639af7a00a1161017c578063a63eba4811610156578063a63eba48146108a0578063b474ca76146108bc578063b5d626c4146108da578063bf129fd0146108f657610383565b80639af7a00a1461084a5780639deedd5b14610866578063a217fddf1461088257610383565b80638da5cb5b116101b85780638da5cb5b146107b05780638ff4a257146107ce57806391d14854146107ea578063951559001461081a57610383565b806379ba5097146107585780638c953a78146107625780638ca5f74d1461079257610383565b806348aabab2116102b85780636aba920b11610256578063704802751161023057806370480275146106e4578063715018a61461070057806375b238fc1461070a5780637757346d1461072857610383565b80636aba920b146106685780636b743a2c146106845780636f77926b146106b457610383565b8063593284011161029257806359328401146105e25780635c60f22614610612578063657a93931461062e5780636667a9a71461064a57610383565b806348aabab21461057857806350a4098a146105a857806353acd2ab146105c657610383565b8063248a9ca31161032557806334b735a1116102ff57806334b735a1146104e057806336568abe146105105780633b62e5941461052c578063421b2d8b1461055c57610383565b8063248a9ca3146104645780632f2ff15d1461049457806331c4ecdc146104b057610383565b806318250e071161036157806318250e07146103f25780631fbff24f14610410578063215c5d001461042c57806322a661721461044857610383565b806301ffc9a714610388578063047ac5de146103b85780631785f53c146103d6575b600080fd5b6103a2600480360381019061039d91906144d5565b610b0e565b6040516103af919061451d565b60405180910390f35b6103c0610b88565b6040516103cd91906145b7565b60405180910390f35b6103f060048036038101906103eb9190614610565b610bae565b005b6103fa610be3565b6040516104079190614656565b60405180910390f35b61042a60048036038101906104259190614b48565b610be9565b005b61044660048036038101906104419190614bc0565b611354565b005b610462600480360381019061045d9190614c27565b6113de565b005b61047e60048036038101906104799190614c8a565b611603565b60405161048b9190614cc6565b60405180910390f35b6104ae60048036038101906104a99190614ce1565b611623565b005b6104ca60048036038101906104c59190614610565b611644565b6040516104d79190614656565b60405180910390f35b6104fa60048036038101906104f59190614610565b6116e6565b6040516105079190614656565b60405180910390f35b61052a60048036038101906105259190614ce1565b611788565b005b61054660048036038101906105419190614610565b61180b565b6040516105539190614656565b60405180910390f35b61057660048036038101906105719190614610565b6118ad565b005b610592600480360381019061058d9190614610565b611bc4565b60405161059f9190614656565b60405180910390f35b6105b0611c66565b6040516105bd9190614d42565b60405180910390f35b6105e060048036038101906105db9190614d5d565b611c8c565b005b6105fc60048036038101906105f79190614610565b611fc6565b6040516106099190614fc6565b60405180910390f35b61062c60048036038101906106279190614610565b61210e565b005b61064860048036038101906106439190614c27565b612235565b005b610652612272565b60405161065f9190614656565b60405180910390f35b610682600480360381019061067d9190614d5d565b61227c565b005b61069e60048036038101906106999190614610565b61239e565b6040516106ab9190614656565b60405180910390f35b6106ce60048036038101906106c99190614610565b612440565b6040516106db9190614fc6565b60405180910390f35b6106fe60048036038101906106f99190614610565b612611565b005b610708612646565b005b61071261265a565b60405161071f9190614cc6565b60405180910390f35b610742600480360381019061073d9190614610565b61267e565b60405161074f9190614656565b60405180910390f35b610760612720565b005b61077c60048036038101906107779190614610565b6127e9565b6040516107899190615044565b60405180910390f35b61079a6128cc565b6040516107a79190614656565b60405180910390f35b6107b86128d6565b6040516107c5919061506e565b60405180910390f35b6107e860048036038101906107e39190614c27565b6128ff565b005b61080460048036038101906107ff9190614ce1565b612afc565b604051610811919061451d565b60405180910390f35b610834600480360381019061082f9190614610565b612b67565b6040516108419190614656565b60405180910390f35b610864600480360381019061085f9190615089565b612c09565b005b610880600480360381019061087b9190614c27565b612d41565b005b61088a612d7e565b6040516108979190614cc6565b60405180910390f35b6108ba60048036038101906108b59190614d5d565b612d85565b005b6108c4612ea7565b6040516108d19190614656565b60405180910390f35b6108f460048036038101906108ef9190614d5d565b612ead565b005b610910600480360381019061090b9190614d5d565b6130df565b005b61092c60048036038101906109279190614d5d565b613201565b005b61094860048036038101906109439190614610565b613329565b604051610955919061513e565b60405180910390f35b61096661340c565b604051610973919061517b565b60405180910390f35b610984613432565b6040516109919190614656565b60405180910390f35b6109b460048036038101906109af9190614610565b613438565b6040516109c19190614656565b60405180910390f35b6109e460048036038101906109df9190614ce1565b6134da565b005b610a0060048036038101906109fb9190614d5d565b6134fb565b005b610a0a61361d565b604051610a179190614656565b60405180910390f35b610a3a6004803603810190610a359190614c27565b613623565b005b610a566004803603810190610a519190614610565b613660565b604051610a639190614656565b60405180910390f35b610a866004803603810190610a819190615196565b613702565b005b610aa26004803603810190610a9d9190614d5d565b613a3c565b005b610aac613b10565b604051610ab99190614656565b60405180910390f35b610adc6004803603810190610ad79190614610565b613b1a565b005b610af86004803603810190610af39190614610565b613c00565b604051610b059190614656565b60405180910390f35b60007f7965db0b000000000000000000000000000000000000000000000000000000007bffffffffffffffffffffffffffffffffffffffffffffffffffffffff1916827bffffffffffffffffffffffffffffffffffffffffffffffffffffffff19161480610b815750610b8082613ca2565b5b9050919050565b600260009054906101000a900473ffffffffffffffffffffffffffffffffffffffff1681565b610bb6613d0c565b610be07fa49807205ce4d355092ef5a8a18f56e8913cf4a201fbe287825b095693c21775826134da565b50565b60095481565b610c137fa49807205ce4d355092ef5a8a18f56e8913cf4a201fbe287825b095693c2177533612afc565b610c1c57600080fd5b8051825114610c60576040517f08c379a0000000000000000000000000000000000000000000000000000000008152600401610c5790615233565b60405180910390fd5b60005b82518110156112f757600b6000838381518110610c8357610c82615253565b5b602002602001015173ffffffffffffffffffffffffffffffffffffffff1673ffffffffffffffffffffffffffffffffffffffff16815260200190815260200160002060009054906101000a900460ff16610cdc57600080fd5b828181518110610cef57610cee615253565b5b602002602001015160000151600a6000848481518110610d1257610d11615253565b5b602002602001015173ffffffffffffffffffffffffffffffffffffffff1673ffffffffffffffffffffffffffffffffffffffff16815260200190815260200160002060000181905550828181518110610d6e57610d6d615253565b5b602002602001015160200151600a6000848481518110610d9157610d90615253565b5b602002602001015173ffffffffffffffffffffffffffffffffffffffff1673ffffffffffffffffffffffffffffffffffffffff16815260200190815260200160002060010181905550828181518110610ded57610dec615253565b5b602002602001015160400151600a6000848481518110610e1057610e0f615253565b5b602002602001015173ffffffffffffffffffffffffffffffffffffffff1673ffffffffffffffffffffffffffffffffffffffff16815260200190815260200160002060020181905550828181518110610e6c57610e6b615253565b5b602002602001015160600151600a6000848481518110610e8f57610e8e615253565b5b602002602001015173ffffffffffffffffffffffffffffffffffffffff1673ffffffffffffffffffffffffffffffffffffffff168152602001908152602001600020600301906005610ee292919061431a565b50828181518110610ef657610ef5615253565b5b602002602001015160800151600a6000848481518110610f1957610f18615253565b5b602002602001015173ffffffffffffffffffffffffffffffffffffffff1673ffffffffffffffffffffffffffffffffffffffff16815260200190815260200160002060080181905550828181518110610f7557610f74615253565b5b602002602001015160a00151600a6000848481518110610f9857610f97615253565b5b602002602001015173ffffffffffffffffffffffffffffffffffffffff1673ffffffffffffffffffffffffffffffffffffffff16815260200190815260200160002060090181905550828181518110610ff457610ff3615253565b5b602002602001015160c00151600a600084848151811061101757611016615253565b5b602002602001015173ffffffffffffffffffffffffffffffffffffffff1673ffffffffffffffffffffffffffffffffffffffff168152602001908152602001600020600a018190555082818151811061107357611072615253565b5b602002602001015160e00151600a600084848151811061109657611095615253565b5b602002602001015173ffffffffffffffffffffffffffffffffffffffff1673ffffffffffffffffffffffffffffffffffffffff168152602001908152602001600020600b01819055508281815181106110f2576110f1615253565b5b60200260200101516101000151600a600084848151811061111657611115615253565b5b602002602001015173ffffffffffffffffffffffffffffffffffffffff1673ffffffffffffffffffffffffffffffffffffffff168152602001908152602001600020600c018190555082818151811061117257611171615253565b5b60200260200101516101200151600a600084848151811061119657611195615253565b5b602002602001015173ffffffffffffffffffffffffffffffffffffffff1673ffffffffffffffffffffffffffffffffffffffff168152602001908152602001600020600d0190600a6111e992919061435a565b508281815181106111fd576111fc615253565b5b60200260200101516101400151600a600084848151811061122157611220615253565b5b602002602001015173ffffffffffffffffffffffffffffffffffffffff1673ffffffffffffffffffffffffffffffffffffffff1681526020019081526020016000206017018190555082818151811061127d5761127c615253565b5b60200260200101516101600151600a60008484815181106112a1576112a0615253565b5b602002602001015173ffffffffffffffffffffffffffffffffffffffff1673ffffffffffffffffffffffffffffffffffffffff168152602001908152602001600020601801819055508080600101915050610c63565b5080604051611306919061533a565b60405180910390208260405161131c91906155fc565b60405180910390207fc91fdb6201eb89b7a1b567d23d3c59bbfd7f7d942aa9e8ad346319d17f0b910860405160405180910390a35050565b61137e7fa49807205ce4d355092ef5a8a18f56e8913cf4a201fbe287825b095693c2177533612afc565b61138757600080fd5b836006819055508260078190555081600881905550806009819055506009546007546006547ffb7230b722712fa11b563a061381502fa2e6f8f6432c8af6ec3b309c26e74cb660405160405180910390a450505050565b600b60003373ffffffffffffffffffffffffffffffffffffffff1673ffffffffffffffffffffffffffffffffffffffff16815260200190815260200160002060009054906101000a900460ff1661143457600080fd5b6000600954826114449190615642565b905080600260009054906101000a900473ffffffffffffffffffffffffffffffffffffffff1673ffffffffffffffffffffffffffffffffffffffff166370a08231336040518263ffffffff1660e01b81526004016114a2919061506e565b602060405180830381865afa1580156114bf573d6000803e3d6000fd5b505050506040513d601f19601f820116820180604052508101906114e39190615699565b1015611524576040517f08c379a000000000000000000000000000000000000000000000000000000000815260040161151b90615712565b60405180910390fd5b600260009054906101000a900473ffffffffffffffffffffffffffffffffffffffff1673ffffffffffffffffffffffffffffffffffffffff166342966c68826040518263ffffffff1660e01b815260040161157f9190614656565b600060405180830381600087803b15801561159957600080fd5b505af11580156115ad573d6000803e3d6000fd5b505050503373ffffffffffffffffffffffffffffffffffffffff167f5ffbddb0c4b296b0093fb670d2162e83f08a023e1da20be95805aabebae52722826040516115f79190614656565b60405180910390a25050565b600060016000838152602001908152602001600020600101549050919050565b61162c82611603565b61163581613d8a565b61163f8383613d9e565b505050565b6000600b60008373ffffffffffffffffffffffffffffffffffffffff1673ffffffffffffffffffffffffffffffffffffffff16815260200190815260200160002060009054906101000a900460ff1661169c57600080fd5b600a60008373ffffffffffffffffffffffffffffffffffffffff1673ffffffffffffffffffffffffffffffffffffffff168152602001908152602001600020600901549050919050565b6000600b60008373ffffffffffffffffffffffffffffffffffffffff1673ffffffffffffffffffffffffffffffffffffffff16815260200190815260200160002060009054906101000a900460ff1661173e57600080fd5b600a60008373ffffffffffffffffffffffffffffffffffffffff1673ffffffffffffffffffffffffffffffffffffffff168152602001908152602001600020600201549050919050565b611790613e7e565b73ffffffffffffffffffffffffffffffffffffffff168173ffffffffffffffffffffffffffffffffffffffff16146117fd576040517f08c379a00000000000000000000000000000000000000000000000000000000081526004016117f4906157a4565b60405180910390fd5b6118078282613e86565b5050565b6000600b60008373ffffffffffffffffffffffffffffffffffffffff1673ffffffffffffffffffffffffffffffffffffffff16815260200190815260200160002060009054906101000a900460ff1661186357600080fd5b600a60008373ffffffffffffffffffffffffffffffffffffffff1673ffffffffffffffffffffffffffffffffffffffff168152602001908152602001600020600001549050919050565b6118d77fa49807205ce4d355092ef5a8a18f56e8913cf4a201fbe287825b095693c2177533612afc565b6118e057600080fd5b600b60008273ffffffffffffffffffffffffffffffffffffffff1673ffffffffffffffffffffffffffffffffffffffff16815260200190815260200160002060009054906101000a900460ff161561193757600080fd5b604051806101800160405280600a815260200160008152602001600181526020016040518060a001604052806103e981526020016000815260200160008152602001600081526020016000815250815260200160008152602001600181526020016000815260200160008152602001601e8152602001604051806101400160405280600081526020016000815260200160008152602001600081526020016000815260200160008152602001600081526020016000815260200160008152602001600081525081526020017fffffffffffffffffffffffffffffffffffffffffffffffffffffffffffffffff81526020017fffffffffffffffffffffffffffffffffffffffffffffffffffffffffffffffff815250600a60008373ffffffffffffffffffffffffffffffffffffffff1673ffffffffffffffffffffffffffffffffffffffff168152602001908152602001600020600082015181600001556020820151816001015560408201518160020155606082015181600301906005611ac092919061431a565b506080820151816008015560a0820151816009015560c082015181600a015560e082015181600b015561010082015181600c015561012082015181600d0190600a611b0c92919061435a565b50610140820151816017015561016082015181601801559050506001600b60008373ffffffffffffffffffffffffffffffffffffffff1673ffffffffffffffffffffffffffffffffffffffff16815260200190815260200160002060006101000a81548160ff0219169083151502179055508073ffffffffffffffffffffffffffffffffffffffff167ff2ae205522024c14e5a7a26ba6d1fb1252dc8e161b5abc79ed5795fd3c5b926160405160405180910390a250565b6000600b60008373ffffffffffffffffffffffffffffffffffffffff1673ffffffffffffffffffffffffffffffffffffffff16815260200190815260200160002060009054906101000a900460ff16611c1c57600080fd5b600a60008373ffffffffffffffffffffffffffffffffffffffff1673ffffffffffffffffffffffffffffffffffffffff168152602001908152602001600020600c01549050919050565b600360009054906101000a900473ffffffffffffffffffffffffffffffffffffffff1681565b611cb67fa49807205ce4d355092ef5a8a18f56e8913cf4a201fbe287825b095693c2177533612afc565b611cbf57600080fd5b600b60008373ffffffffffffffffffffffffffffffffffffffff1673ffffffffffffffffffffffffffffffffffffffff16815260200190815260200160002060009054906101000a900460ff16611d1557600080fd5b600060608373ffffffffffffffffffffffffffffffffffffffff16600360009054906101000a900473ffffffffffffffffffffffffffffffffffffffff1673ffffffffffffffffffffffffffffffffffffffff16636352211e856040518263ffffffff1660e01b8152600401611d8b9190614656565b602060405180830381865afa158015611da8573d6000803e3d6000fd5b505050506040513d601f19601f82011682018060405250810190611dcc91906157d9565b73ffffffffffffffffffffffffffffffffffffffff1614611f2757600360009054906101000a900473ffffffffffffffffffffffffffffffffffffffff1673ffffffffffffffffffffffffffffffffffffffff166318148f1b856040518263ffffffff1660e01b8152600401611e42919061506e565b600060405180830381865afa158015611e5f573d6000803e3d6000fd5b505050506040513d6000823e3d601f19601f82011682018060405250810190611e8891906158c9565b9050600081511115611efe5780600081518110611ea857611ea7615253565b5b6020026020010151915081600a60008673ffffffffffffffffffffffffffffffffffffffff1673ffffffffffffffffffffffffffffffffffffffff16815260200190815260200160002060170181905550611f22565b7fffffffffffffffffffffffffffffffffffffffffffffffffffffffffffffffff91505b611f72565b82600a60008673ffffffffffffffffffffffffffffffffffffffff1673ffffffffffffffffffffffffffffffffffffffff168152602001908152602001600020601701819055508291505b8373ffffffffffffffffffffffffffffffffffffffff167f08e9f015b4a09d3e66a5d3703ecc0d035e52da672786c75b807300bd4a72530d83604051611fb89190614656565b60405180910390a250505050565b611fce61439a565b600a60008373ffffffffffffffffffffffffffffffffffffffff1673ffffffffffffffffffffffffffffffffffffffff1681526020019081526020016000206040518061018001604052908160008201548152602001600182015481526020016002820154815260200160038201600580602002604051908101604052809291908260058015612073576020028201915b81548152602001906001019080831161205f575b505050505081526020016008820154815260200160098201548152602001600a8201548152602001600b8201548152602001600c8201548152602001600d8201600a806020026040519081016040528092919082600a80156120ea576020028201915b8154815260200190600101908083116120d6575b50505050508152602001601782015481526020016018820154815250509050919050565b6121387fa49807205ce4d355092ef5a8a18f56e8913cf4a201fbe287825b095693c2177533612afc565b61214157600080fd5b600b60008273ffffffffffffffffffffffffffffffffffffffff1673ffffffffffffffffffffffffffffffffffffffff16815260200190815260200160002060009054906101000a900460ff1661219757600080fd5b6001600b60008373ffffffffffffffffffffffffffffffffffffffff1673ffffffffffffffffffffffffffffffffffffffff16815260200190815260200160002060006101000a81548160ff0219169083151502179055508073ffffffffffffffffffffffffffffffffffffffff167fc9fb99cf86984520d29d72f3a41fe637cc23cddff11a003f0b9e27c1652d171860405160405180910390a250565b61225f7fa49807205ce4d355092ef5a8a18f56e8913cf4a201fbe287825b095693c2177533612afc565b61226857600080fd5b8060078190555050565b6000600754905090565b6122a67fa49807205ce4d355092ef5a8a18f56e8913cf4a201fbe287825b095693c2177533612afc565b6122af57600080fd5b600b60008373ffffffffffffffffffffffffffffffffffffffff1673ffffffffffffffffffffffffffffffffffffffff16815260200190815260200160002060009054906101000a900460ff1661230557600080fd5b80600a60008473ffffffffffffffffffffffffffffffffffffffff1673ffffffffffffffffffffffffffffffffffffffff168152602001908152602001600020600c01819055508173ffffffffffffffffffffffffffffffffffffffff167f61de7c9c9fef84bf815ad3b2d17a9af3d0655af7a1c9423e5d2dee99ec5c6ffc826040516123929190614656565b60405180910390a25050565b6000600b60008373ffffffffffffffffffffffffffffffffffffffff1673ffffffffffffffffffffffffffffffffffffffff16815260200190815260200160002060009054906101000a900460ff166123f657600080fd5b600a60008373ffffffffffffffffffffffffffffffffffffffff1673ffffffffffffffffffffffffffffffffffffffff168152602001908152602001600020600101549050919050565b61244861439a565b6124727fa49807205ce4d355092ef5a8a18f56e8913cf4a201fbe287825b095693c2177533612afc565b61247b57600080fd5b600b60008373ffffffffffffffffffffffffffffffffffffffff1673ffffffffffffffffffffffffffffffffffffffff16815260200190815260200160002060009054906101000a900460ff166124d157600080fd5b600a60008373ffffffffffffffffffffffffffffffffffffffff1673ffffffffffffffffffffffffffffffffffffffff1681526020019081526020016000206040518061018001604052908160008201548152602001600182015481526020016002820154815260200160038201600580602002604051908101604052809291908260058015612576576020028201915b815481526020019060010190808311612562575b505050505081526020016008820154815260200160098201548152602001600a8201548152602001600b8201548152602001600c8201548152602001600d8201600a806020026040519081016040528092919082600a80156125ed576020028201915b8154815260200190600101908083116125d9575b50505050508152602001601782015481526020016018820154815250509050919050565b612619613d0c565b6126437fa49807205ce4d355092ef5a8a18f56e8913cf4a201fbe287825b095693c2177582611623565b50565b61264e613d0c565b6126586000613f68565b565b7fa49807205ce4d355092ef5a8a18f56e8913cf4a201fbe287825b095693c2177581565b6000600b60008373ffffffffffffffffffffffffffffffffffffffff1673ffffffffffffffffffffffffffffffffffffffff16815260200190815260200160002060009054906101000a900460ff166126d657600080fd5b600a60008373ffffffffffffffffffffffffffffffffffffffff1673ffffffffffffffffffffffffffffffffffffffff168152602001908152602001600020601801549050919050565b600560009054906101000a900473ffffffffffffffffffffffffffffffffffffffff1673ffffffffffffffffffffffffffffffffffffffff163373ffffffffffffffffffffffffffffffffffffffff161461277a57600080fd5b6127a5600560009054906101000a900473ffffffffffffffffffffffffffffffffffffffff16613f68565b6000600560006101000a81548173ffffffffffffffffffffffffffffffffffffffff021916908373ffffffffffffffffffffffffffffffffffffffff160217905550565b6127f1614407565b600b60008373ffffffffffffffffffffffffffffffffffffffff1673ffffffffffffffffffffffffffffffffffffffff16815260200190815260200160002060009054906101000a900460ff1661284757600080fd5b600a60008373ffffffffffffffffffffffffffffffffffffffff1673ffffffffffffffffffffffffffffffffffffffff1681526020019081526020016000206003016005806020026040519081016040528092919082600580156128c0576020028201915b8154815260200190600101908083116128ac575b50505050509050919050565b6000600654905090565b60008060009054906101000a900473ffffffffffffffffffffffffffffffffffffffff16905090565b600b60003373ffffffffffffffffffffffffffffffffffffffff1673ffffffffffffffffffffffffffffffffffffffff16815260200190815260200160002060009054906101000a900460ff1661295557600080fd5b80600260009054906101000a900473ffffffffffffffffffffffffffffffffffffffff1673ffffffffffffffffffffffffffffffffffffffff166370a08231336040518263ffffffff1660e01b81526004016129b1919061506e565b602060405180830381865afa1580156129ce573d6000803e3d6000fd5b505050506040513d601f19601f820116820180604052508101906129f29190615699565b1015612a33576040517f08c379a0000000000000000000000000000000000000000000000000000000008152600401612a2a90615712565b60405180910390fd5b600260009054906101000a900473ffffffffffffffffffffffffffffffffffffffff1673ffffffffffffffffffffffffffffffffffffffff166342966c68826040518263ffffffff1660e01b8152600401612a8e9190614656565b600060405180830381600087803b158015612aa857600080fd5b505af1158015612abc573d6000803e3d6000fd5b505050507fe9f227d9e258a6af2b2de974355b271946cfbfff2fd3f862f5a8ea4d3c42da573382604051612af1929190615912565b60405180910390a150565b60006001600084815260200190815260200160002060000160008373ffffffffffffffffffffffffffffffffffffffff1673ffffffffffffffffffffffffffffffffffffffff16815260200190815260200160002060009054906101000a900460ff16905092915050565b6000600b60008373ffffffffffffffffffffffffffffffffffffffff1673ffffffffffffffffffffffffffffffffffffffff16815260200190815260200160002060009054906101000a900460ff16612bbf57600080fd5b600a60008373ffffffffffffffffffffffffffffffffffffffff1673ffffffffffffffffffffffffffffffffffffffff168152602001908152602001600020600b01549050919050565b612c337fa49807205ce4d355092ef5a8a18f56e8913cf4a201fbe287825b095693c2177533612afc565b612c3c57600080fd5b600b60008473ffffffffffffffffffffffffffffffffffffffff1673ffffffffffffffffffffffffffffffffffffffff16815260200190815260200160002060009054906101000a900460ff16612c9257600080fd5b80600a60008573ffffffffffffffffffffffffffffffffffffffff1673ffffffffffffffffffffffffffffffffffffffff168152602001908152602001600020600d0183600a8110612ce757612ce6615253565b5b01819055508273ffffffffffffffffffffffffffffffffffffffff167f374ed846dc3e18a969aef22277ce3669832a6ea83e3088149d5b40319413de478383604051612d3492919061593b565b60405180910390a2505050565b612d6b7fa49807205ce4d355092ef5a8a18f56e8913cf4a201fbe287825b095693c2177533612afc565b612d7457600080fd5b8060088190555050565b6000801b81565b612daf7fa49807205ce4d355092ef5a8a18f56e8913cf4a201fbe287825b095693c2177533612afc565b612db857600080fd5b600b60008373ffffffffffffffffffffffffffffffffffffffff1673ffffffffffffffffffffffffffffffffffffffff16815260200190815260200160002060009054906101000a900460ff16612e0e57600080fd5b80600a60008473ffffffffffffffffffffffffffffffffffffffff1673ffffffffffffffffffffffffffffffffffffffff168152602001908152602001600020600b01819055508173ffffffffffffffffffffffffffffffffffffffff167f7f299cebc3c4384ae412a6ba151d00bd215add4b1379155dd71c3376cbf07df682604051612e9b9190614656565b60405180910390a25050565b60075481565b612ed77fa49807205ce4d355092ef5a8a18f56e8913cf4a201fbe287825b095693c2177533612afc565b612ee057600080fd5b600b60008373ffffffffffffffffffffffffffffffffffffffff1673ffffffffffffffffffffffffffffffffffffffff16815260200190815260200160002060009054906101000a900460ff16612f3657600080fd5b6000600a60008473ffffffffffffffffffffffffffffffffffffffff1673ffffffffffffffffffffffffffffffffffffffff168152602001908152602001600020600b0154905081811015612fc0576040517f08c379a0000000000000000000000000000000000000000000000000000000008152600401612fb7906159b0565b60405180910390fd5b600260009054906101000a900473ffffffffffffffffffffffffffffffffffffffff1673ffffffffffffffffffffffffffffffffffffffff166340c10f1984846040518363ffffffff1660e01b815260040161301d929190615912565b600060405180830381600087803b15801561303757600080fd5b505af115801561304b573d6000803e3d6000fd5b50505050818161305b91906159d0565b600a60008573ffffffffffffffffffffffffffffffffffffffff1673ffffffffffffffffffffffffffffffffffffffff168152602001908152602001600020600b01819055507f190fe81f396538a8654aafa1adcdabc1825d53aa9fa6dd809991683d943e3a1783836040516130d2929190615912565b60405180910390a1505050565b6131097fa49807205ce4d355092ef5a8a18f56e8913cf4a201fbe287825b095693c2177533612afc565b61311257600080fd5b600b60008373ffffffffffffffffffffffffffffffffffffffff1673ffffffffffffffffffffffffffffffffffffffff16815260200190815260200160002060009054906101000a900460ff1661316857600080fd5b80600a60008473ffffffffffffffffffffffffffffffffffffffff1673ffffffffffffffffffffffffffffffffffffffff168152602001908152602001600020600901819055508173ffffffffffffffffffffffffffffffffffffffff167f7ed17f7b101bb354c92f134f7c421a00e511b046abf1edceb1956966e7443480826040516131f59190614656565b60405180910390a25050565b61322b7fa49807205ce4d355092ef5a8a18f56e8913cf4a201fbe287825b095693c2177533612afc565b61323457600080fd5b600b60008373ffffffffffffffffffffffffffffffffffffffff1673ffffffffffffffffffffffffffffffffffffffff16815260200190815260200160002060009054906101000a900460ff1661328a57600080fd5b6000600a60008473ffffffffffffffffffffffffffffffffffffffff1673ffffffffffffffffffffffffffffffffffffffff16815260200190815260200160002090508181600101819055508273ffffffffffffffffffffffffffffffffffffffff167f564792a0259ee41a56519990d80509a8057848327265f2075bcaac108651eab98360405161331c9190614656565b60405180910390a2505050565b613331614429565b600b60008373ffffffffffffffffffffffffffffffffffffffff1673ffffffffffffffffffffffffffffffffffffffff16815260200190815260200160002060009054906101000a900460ff1661338757600080fd5b600a60008373ffffffffffffffffffffffffffffffffffffffff1673ffffffffffffffffffffffffffffffffffffffff168152602001908152602001600020600d01600a806020026040519081016040528092919082600a8015613400576020028201915b8154815260200190600101908083116133ec575b50505050509050919050565b600460009054906101000a900473ffffffffffffffffffffffffffffffffffffffff1681565b60065481565b6000600b60008373ffffffffffffffffffffffffffffffffffffffff1673ffffffffffffffffffffffffffffffffffffffff16815260200190815260200160002060009054906101000a900460ff1661349057600080fd5b600a60008373ffffffffffffffffffffffffffffffffffffffff1673ffffffffffffffffffffffffffffffffffffffff168152602001908152602001600020600a01549050919050565b6134e382611603565b6134ec81613d8a565b6134f68383613e86565b505050565b6135257fa49807205ce4d355092ef5a8a18f56e8913cf4a201fbe287825b095693c2177533612afc565b61352e57600080fd5b600b60008373ffffffffffffffffffffffffffffffffffffffff1673ffffffffffffffffffffffffffffffffffffffff16815260200190815260200160002060009054906101000a900460ff1661358457600080fd5b80600a60008473ffffffffffffffffffffffffffffffffffffffff1673ffffffffffffffffffffffffffffffffffffffff168152602001908152602001600020600201819055508173ffffffffffffffffffffffffffffffffffffffff167f7b45410837b569e79f978c88fbb1ab01a26d6922675e4de2fc0bae4e0586ceac826040516136119190614656565b60405180910390a25050565b60085481565b61364d7fa49807205ce4d355092ef5a8a18f56e8913cf4a201fbe287825b095693c2177533612afc565b61365657600080fd5b8060068190555050565b6000600b60008373ffffffffffffffffffffffffffffffffffffffff1673ffffffffffffffffffffffffffffffffffffffff16815260200190815260200160002060009054906101000a900460ff166136b857600080fd5b600a60008373ffffffffffffffffffffffffffffffffffffffff1673ffffffffffffffffffffffffffffffffffffffff168152602001908152602001600020600801549050919050565b61372c7fa49807205ce4d355092ef5a8a18f56e8913cf4a201fbe287825b095693c2177533612afc565b61373557600080fd5b600b60008273ffffffffffffffffffffffffffffffffffffffff1673ffffffffffffffffffffffffffffffffffffffff16815260200190815260200160002060009054906101000a900460ff1661378b57600080fd5b600060608273ffffffffffffffffffffffffffffffffffffffff16600460009054906101000a900473ffffffffffffffffffffffffffffffffffffffff1673ffffffffffffffffffffffffffffffffffffffff16636352211e866040518263ffffffff1660e01b81526004016138019190614656565b602060405180830381865afa15801561381e573d6000803e3d6000fd5b505050506040513d601f19601f8201168201806040525081019061384291906157d9565b73ffffffffffffffffffffffffffffffffffffffff161461399d57600460009054906101000a900473ffffffffffffffffffffffffffffffffffffffff1673ffffffffffffffffffffffffffffffffffffffff166318148f1b846040518263ffffffff1660e01b81526004016138b8919061506e565b600060405180830381865afa1580156138d5573d6000803e3d6000fd5b505050506040513d6000823e3d601f19601f820116820180604052508101906138fe91906158c9565b9050600081511115613974578060008151811061391e5761391d615253565b5b6020026020010151915081600a60008573ffffffffffffffffffffffffffffffffffffffff1673ffffffffffffffffffffffffffffffffffffffff16815260200190815260200160002060180181905550613998565b7fffffffffffffffffffffffffffffffffffffffffffffffffffffffffffffffff91505b6139e8565b83600a60008573ffffffffffffffffffffffffffffffffffffffff1673ffffffffffffffffffffffffffffffffffffffff168152602001908152602001600020601801819055508391505b8273ffffffffffffffffffffffffffffffffffffffff167fcc9803ff35bbb65900301a2b84f90ad432fd23b513fb5dddcb6f4568cb9c54c983604051613a2e9190614656565b60405180910390a250505050565b613a667fa49807205ce4d355092ef5a8a18f56e8913cf4a201fbe287825b095693c2177533612afc565b613a6f57600080fd5b600b60008373ffffffffffffffffffffffffffffffffffffffff1673ffffffffffffffffffffffffffffffffffffffff16815260200190815260200160002060009054906101000a900460ff16613ac557600080fd5b80600a60008473ffffffffffffffffffffffffffffffffffffffff1673ffffffffffffffffffffffffffffffffffffffff168152602001908152602001600020600001819055505050565b6000600854905090565b613b22613d0c565b600073ffffffffffffffffffffffffffffffffffffffff168173ffffffffffffffffffffffffffffffffffffffff1603613b5b57600080fd5b80600560006101000a81548173ffffffffffffffffffffffffffffffffffffffff021916908373ffffffffffffffffffffffffffffffffffffffff1602179055508073ffffffffffffffffffffffffffffffffffffffff16613bbb6128d6565b73ffffffffffffffffffffffffffffffffffffffff167f38d16b8cac22d99fc7c124b9cd0de2d3fa1faef420bfe791d8c362d765e2270060405160405180910390a350565b6000600b60008373ffffffffffffffffffffffffffffffffffffffff1673ffffffffffffffffffffffffffffffffffffffff16815260200190815260200160002060009054906101000a900460ff16613c5857600080fd5b600a60008373ffffffffffffffffffffffffffffffffffffffff1673ffffffffffffffffffffffffffffffffffffffff168152602001908152602001600020601701549050919050565b60007f01ffc9a7000000000000000000000000000000000000000000000000000000007bffffffffffffffffffffffffffffffffffffffffffffffffffffffff1916827bffffffffffffffffffffffffffffffffffffffffffffffffffffffff1916149050919050565b613d14613e7e565b73ffffffffffffffffffffffffffffffffffffffff16613d326128d6565b73ffffffffffffffffffffffffffffffffffffffff1614613d88576040517f08c379a0000000000000000000000000000000000000000000000000000000008152600401613d7f90615a50565b60405180910390fd5b565b613d9b81613d96613e7e565b61402c565b50565b613da88282612afc565b613e7a57600180600084815260200190815260200160002060000160008373ffffffffffffffffffffffffffffffffffffffff1673ffffffffffffffffffffffffffffffffffffffff16815260200190815260200160002060006101000a81548160ff021916908315150217905550613e1f613e7e565b73ffffffffffffffffffffffffffffffffffffffff168173ffffffffffffffffffffffffffffffffffffffff16837f2f8788117e7eff1d82e926ec794901d17c78024a50270940304540a733656f0d60405160405180910390a45b5050565b600033905090565b613e908282612afc565b15613f645760006001600084815260200190815260200160002060000160008373ffffffffffffffffffffffffffffffffffffffff1673ffffffffffffffffffffffffffffffffffffffff16815260200190815260200160002060006101000a81548160ff021916908315150217905550613f09613e7e565b73ffffffffffffffffffffffffffffffffffffffff168173ffffffffffffffffffffffffffffffffffffffff16837ff6391f5c32d9c69d2a47ea670b442974b53935d1edc7fd64eb21e047a839171b60405160405180910390a45b5050565b60008060009054906101000a900473ffffffffffffffffffffffffffffffffffffffff169050816000806101000a81548173ffffffffffffffffffffffffffffffffffffffff021916908373ffffffffffffffffffffffffffffffffffffffff1602179055508173ffffffffffffffffffffffffffffffffffffffff168173ffffffffffffffffffffffffffffffffffffffff167f8be0079c531659141344cd1fd0a4f28419497f9722a3daafe3b4186f6b6457e060405160405180910390a35050565b6140368282612afc565b6140ad57614043816140b1565b6140518360001c60206140de565b604051602001614062929190615b79565b6040516020818303038152906040526040517f08c379a00000000000000000000000000000000000000000000000000000000081526004016140a49190615bec565b60405180910390fd5b5050565b60606140d78273ffffffffffffffffffffffffffffffffffffffff16601460ff166140de565b9050919050565b6060600060028360026140f19190615642565b6140fb9190615c0e565b67ffffffffffffffff81111561411457614113614687565b5b6040519080825280601f01601f1916602001820160405280156141465781602001600182028036833780820191505090505b5090507f30000000000000000000000000000000000000000000000000000000000000008160008151811061417e5761417d615253565b5b60200101907effffffffffffffffffffffffffffffffffffffffffffffffffffffffffffff1916908160001a9053507f7800000000000000000000000000000000000000000000000000000000000000816001815181106141e2576141e1615253565b5b60200101907effffffffffffffffffffffffffffffffffffffffffffffffffffffffffffff1916908160001a905350600060018460026142229190615642565b61422c9190615c0e565b90505b60018111156142cc577f3031323334353637383961626364656600000000000000000000000000000000600f86166010811061426e5761426d615253565b5b1a60f81b82828151811061428557614284615253565b5b60200101907effffffffffffffffffffffffffffffffffffffffffffffffffffffffffffff1916908160001a905350600485901c9450806142c590615c42565b905061422f565b5060008414614310576040517f08c379a000000000000000000000000000000000000000000000000000000000815260040161430790615cb7565b60405180910390fd5b8091505092915050565b8260058101928215614349579160200282015b8281111561434857825182559160200191906001019061432d565b5b509050614356919061444c565b5090565b82600a8101928215614389579160200282015b8281111561438857825182559160200191906001019061436d565b5b509050614396919061444c565b5090565b6040518061018001604052806000815260200160008152602001600081526020016143c3614407565b815260200160008152602001600081526020016000815260200160008152602001600081526020016143f3614429565b815260200160008152602001600081525090565b6040518060a00160405280600590602082028036833780820191505090505090565b604051806101400160405280600a90602082028036833780820191505090505090565b5b8082111561446557600081600090555060010161444d565b5090565b6000604051905090565b600080fd5b600080fd5b60007fffffffff0000000000000000000000000000000000000000000000000000000082169050919050565b6144b28161447d565b81146144bd57600080fd5b50565b6000813590506144cf816144a9565b92915050565b6000602082840312156144eb576144ea614473565b5b60006144f9848285016144c0565b91505092915050565b60008115159050919050565b61451781614502565b82525050565b6000602082019050614532600083018461450e565b92915050565b600073ffffffffffffffffffffffffffffffffffffffff82169050919050565b6000819050919050565b600061457d61457861457384614538565b614558565b614538565b9050919050565b600061458f82614562565b9050919050565b60006145a182614584565b9050919050565b6145b181614596565b82525050565b60006020820190506145cc60008301846145a8565b92915050565b60006145dd82614538565b9050919050565b6145ed816145d2565b81146145f857600080fd5b50565b60008135905061460a816145e4565b92915050565b60006020828403121561462657614625614473565b5b6000614634848285016145fb565b91505092915050565b6000819050919050565b6146508161463d565b82525050565b600060208201905061466b6000830184614647565b92915050565b600080fd5b6000601f19601f8301169050919050565b7f4e487b7100000000000000000000000000000000000000000000000000000000600052604160045260246000fd5b6146bf82614676565b810181811067ffffffffffffffff821117156146de576146dd614687565b5b80604052505050565b60006146f1614469565b90506146fd82826146b6565b919050565b600067ffffffffffffffff82111561471d5761471c614687565b5b602082029050602081019050919050565b600080fd5b600080fd5b6147418161463d565b811461474c57600080fd5b50565b60008135905061475e81614738565b92915050565b600067ffffffffffffffff82111561477f5761477e614687565b5b602082029050919050565b600061479d61479884614764565b6146e7565b905080602084028301858111156147b7576147b661472e565b5b835b818110156147e057806147cc888261474f565b8452602084019350506020810190506147b9565b5050509392505050565b600082601f8301126147ff576147fe614671565b5b600561480c84828561478a565b91505092915050565b600067ffffffffffffffff8211156148305761482f614687565b5b602082029050919050565b600061484e61484984614815565b6146e7565b905080602084028301858111156148685761486761472e565b5b835b81811015614891578061487d888261474f565b84526020840193505060208101905061486a565b5050509392505050565b600082601f8301126148b0576148af614671565b5b600a6148bd84828561483b565b91505092915050565b600061032082840312156148dd576148dc614733565b5b6148e86101806146e7565b905060006148f88482850161474f565b600083015250602061490c8482850161474f565b60208301525060406149208482850161474f565b6040830152506060614934848285016147ea565b6060830152506101006149498482850161474f565b60808301525061012061495e8482850161474f565b60a0830152506101406149738482850161474f565b60c0830152506101606149888482850161474f565b60e08301525061018061499d8482850161474f565b610100830152506101a06149b38482850161489b565b610120830152506102e06149c98482850161474f565b610140830152506103006149df8482850161474f565b6101608301525092915050565b60006149ff6149fa84614702565b6146e7565b9050808382526020820190506103208402830185811115614a2357614a2261472e565b5b835b81811015614a4d5780614a3888826148c6565b84526020840193505061032081019050614a25565b5050509392505050565b600082601f830112614a6c57614a6b614671565b5b8135614a7c8482602086016149ec565b91505092915050565b600067ffffffffffffffff821115614aa057614a9f614687565b5b602082029050602081019050919050565b6000614ac4614abf84614a85565b6146e7565b90508083825260208201905060208402830185811115614ae757614ae661472e565b5b835b81811015614b105780614afc88826145fb565b845260208401935050602081019050614ae9565b5050509392505050565b600082601f830112614b2f57614b2e614671565b5b8135614b3f848260208601614ab1565b91505092915050565b60008060408385031215614b5f57614b5e614473565b5b600083013567ffffffffffffffff811115614b7d57614b7c614478565b5b614b8985828601614a57565b925050602083013567ffffffffffffffff811115614baa57614ba9614478565b5b614bb685828601614b1a565b9150509250929050565b60008060008060808587031215614bda57614bd9614473565b5b6000614be88782880161474f565b9450506020614bf98782880161474f565b9350506040614c0a8782880161474f565b9250506060614c1b8782880161474f565b91505092959194509250565b600060208284031215614c3d57614c3c614473565b5b6000614c4b8482850161474f565b91505092915050565b6000819050919050565b614c6781614c54565b8114614c7257600080fd5b50565b600081359050614c8481614c5e565b92915050565b600060208284031215614ca057614c9f614473565b5b6000614cae84828501614c75565b91505092915050565b614cc081614c54565b82525050565b6000602082019050614cdb6000830184614cb7565b92915050565b60008060408385031215614cf857614cf7614473565b5b6000614d0685828601614c75565b9250506020614d17858286016145fb565b9150509250929050565b6000614d2c82614584565b9050919050565b614d3c81614d21565b82525050565b6000602082019050614d576000830184614d33565b92915050565b60008060408385031215614d7457614d73614473565b5b6000614d82858286016145fb565b9250506020614d938582860161474f565b9150509250929050565b614da68161463d565b82525050565b600060059050919050565b600081905092915050565b6000819050919050565b6000614dd88383614d9d565b60208301905092915050565b6000602082019050919050565b614dfa81614dac565b614e048184614db7565b9250614e0f82614dc2565b8060005b83811015614e40578151614e278782614dcc565b9650614e3283614de4565b925050600181019050614e13565b505050505050565b6000600a9050919050565b600081905092915050565b6000819050919050565b6000602082019050919050565b614e7e81614e48565b614e888184614e53565b9250614e9382614e5e565b8060005b83811015614ec4578151614eab8782614dcc565b9650614eb683614e68565b925050600181019050614e97565b505050505050565b61032082016000820151614ee36000850182614d9d565b506020820151614ef66020850182614d9d565b506040820151614f096040850182614d9d565b506060820151614f1c6060850182614df1565b506080820151614f30610100850182614d9d565b5060a0820151614f44610120850182614d9d565b5060c0820151614f58610140850182614d9d565b5060e0820151614f6c610160850182614d9d565b50610100820151614f81610180850182614d9d565b50610120820151614f966101a0850182614e75565b50610140820151614fab6102e0850182614d9d565b50610160820151614fc0610300850182614d9d565b50505050565b600061032082019050614fdc6000830184614ecc565b92915050565b600081905092915050565b614ff681614dac565b6150008184614fe2565b925061500b82614dc2565b8060005b8381101561503c5781516150238782614dcc565b965061502e83614de4565b92505060018101905061500f565b505050505050565b600060a0820190506150596000830184614fed565b92915050565b615068816145d2565b82525050565b6000602082019050615083600083018461505f565b92915050565b6000806000606084860312156150a2576150a1614473565b5b60006150b0868287016145fb565b93505060206150c18682870161474f565b92505060406150d28682870161474f565b9150509250925092565b600081905092915050565b6150f081614e48565b6150fa81846150dc565b925061510582614e5e565b8060005b8381101561513657815161511d8782614dcc565b965061512883614e68565b925050600181019050615109565b505050505050565b60006101408201905061515460008301846150e7565b92915050565b600061516582614584565b9050919050565b6151758161515a565b82525050565b6000602082019050615190600083018461516c565b92915050565b600080604083850312156151ad576151ac614473565b5b60006151bb8582860161474f565b92505060206151cc858286016145fb565b9150509250929050565b600082825260208201905092915050565b7f3130320000000000000000000000000000000000000000000000000000000000600082015250565b600061521d6003836151d6565b9150615228826151e7565b602082019050919050565b6000602082019050818103600083015261524c81615210565b9050919050565b7f4e487b7100000000000000000000000000000000000000000000000000000000600052603260045260246000fd5b600081519050919050565b600081905092915050565b6000819050602082019050919050565b6152b1816145d2565b82525050565b60006152c383836152a8565b60208301905092915050565b6000602082019050919050565b60006152e782615282565b6152f1818561528d565b93506152fc83615298565b8060005b8381101561532d57815161531488826152b7565b975061531f836152cf565b925050600181019050615300565b5085935050505092915050565b600061534682846152dc565b915081905092915050565b600081519050919050565b600081905092915050565b6000819050602082019050919050565b6153808161463d565b82525050565b60006153928383615377565b60208301905092915050565b600081905092915050565b6153b281614dac565b6153bc818461539e565b92506153c782614dc2565b8060005b838110156153f85781516153df8782615386565b96506153ea83614de4565b9250506001810190506153cb565b505050505050565b600061540c83836153a9565b60a08301905092915050565b600081905092915050565b61542c81614e48565b6154368184615418565b925061544182614e5e565b8060005b838110156154725781516154598782615386565b965061546483614e68565b925050600181019050615445565b505050505050565b60006154868383615423565b6101408301905092915050565b6000820160008201516154a68482615386565b93505060208201516154b88482615386565b93505060408201516154ca8482615386565b93505060608201516154dc8482615400565b93505060808201516154ee8482615386565b93505060a08201516155008482615386565b93505060c08201516155128482615386565b93505060e08201516155248482615386565b9350506101008201516155378482615386565b93505061012082015161554a848261547a565b93505061014082015161555d8482615386565b9350506101608201516155708482615386565b935050505050565b60006155848383615493565b6103208301905092915050565b6000602082019050919050565b60006155a982615351565b6155b3818561535c565b93506155be83615367565b8060005b838110156155ef5781516155d68882615578565b97506155e183615591565b9250506001810190506155c2565b5085935050505092915050565b6000615608828461559e565b915081905092915050565b7f4e487b7100000000000000000000000000000000000000000000000000000000600052601160045260246000fd5b600061564d8261463d565b91506156588361463d565b92508282026156668161463d565b9150828204841483151761567d5761567c615613565b5b5092915050565b60008151905061569381614738565b92915050565b6000602082840312156156af576156ae614473565b5b60006156bd84828501615684565b91505092915050565b7f3130330000000000000000000000000000000000000000000000000000000000600082015250565b60006156fc6003836151d6565b9150615707826156c6565b602082019050919050565b6000602082019050818103600083015261572b816156ef565b9050919050565b7f416363657373436f6e74726f6c3a2063616e206f6e6c792072656e6f756e636560008201527f20726f6c657320666f722073656c660000000000000000000000000000000000602082015250565b600061578e602f836151d6565b915061579982615732565b604082019050919050565b600060208201905081810360008301526157bd81615781565b9050919050565b6000815190506157d3816145e4565b92915050565b6000602082840312156157ef576157ee614473565b5b60006157fd848285016157c4565b91505092915050565b600067ffffffffffffffff82111561582157615820614687565b5b602082029050602081019050919050565b600061584561584084615806565b6146e7565b905080838252602082019050602084028301858111156158685761586761472e565b5b835b81811015615891578061587d8882615684565b84526020840193505060208101905061586a565b5050509392505050565b600082601f8301126158b0576158af614671565b5b81516158c0848260208601615832565b91505092915050565b6000602082840312156158df576158de614473565b5b600082015167ffffffffffffffff8111156158fd576158fc614478565b5b6159098482850161589b565b91505092915050565b6000604082019050615927600083018561505f565b6159346020830184614647565b9392505050565b60006040820190506159506000830185614647565b61595d6020830184614647565b9392505050565b7f3130340000000000000000000000000000000000000000000000000000000000600082015250565b600061599a6003836151d6565b91506159a582615964565b602082019050919050565b600060208201905081810360008301526159c98161598d565b9050919050565b60006159db8261463d565b91506159e68361463d565b92508282039050818111156159fe576159fd615613565b5b92915050565b7f4f776e61626c653a2063616c6c6572206973206e6f7420746865206f776e6572600082015250565b6000615a3a6020836151d6565b9150615a4582615a04565b602082019050919050565b60006020820190508181036000830152615a6981615a2d565b9050919050565b600081905092915050565b7f416363657373436f6e74726f6c3a206163636f756e7420000000000000000000600082015250565b6000615ab1601783615a70565b9150615abc82615a7b565b601782019050919050565b600081519050919050565b60005b83811015615af0578082015181840152602081019050615ad5565b60008484015250505050565b6000615b0782615ac7565b615b118185615a70565b9350615b21818560208601615ad2565b80840191505092915050565b7f206973206d697373696e6720726f6c6520000000000000000000000000000000600082015250565b6000615b63601183615a70565b9150615b6e82615b2d565b601182019050919050565b6000615b8482615aa4565b9150615b908285615afc565b9150615b9b82615b56565b9150615ba78284615afc565b91508190509392505050565b6000615bbe82615ac7565b615bc881856151d6565b9350615bd8818560208601615ad2565b615be181614676565b840191505092915050565b60006020820190508181036000830152615c068184615bb3565b905092915050565b6000615c198261463d565b9150615c248361463d565b9250828201905080821115615c3c57615c3b615613565b5b92915050565b6000615c4d8261463d565b915060008203615c6057615c5f615613565b5b600182039050919050565b7f537472696e67733a20686578206c656e67746820696e73756666696369656e74600082015250565b6000615ca16020836151d6565b9150615cac82615c6b565b602082019050919050565b60006020820190508181036000830152615cd081615c94565b905091905056fea26469706673582212205526324c9a3c2cdd90f923a245a0bd11743c7422254d5f1a0ccb30eb2d09ed3664736f6c63430008180033",
  "linkReferences": {},
  "deployedLinkReferences": {}
}