{
  "_format": "hh-sol-artifact-1",
  "contractName": "User",
  "sourceName": "contracts/User.sol",
  "abi": [
    {
      "inputs": [
        {
          "internalType": "address",
          "name": "_gmcContract",
          "type": "address"
        },
        {
          "internalType": "address",
          "name": "_fishermanNFT",
          "type": "address"
        },
        {
          "internalType": "address",
          "name": "_fishingRodNFT",
          "type": "address"
        }
      ],
      "stateMutability": "nonpayable",
      "type": "constructor"
    },
    {
      "anonymous": false,
      "inputs": [
        {
          "indexed": true,
          "internalType": "address",
          "name": "playerAddress",
          "type": "address"
        },
        {
          "indexed": false,
          "internalType": "uint256",
          "name": "newCount",
          "type": "uint256"
        }
      ],
      "name": "BaitCountUpdated",
      "type": "event"
    },
    {
      "anonymous": false,
      "inputs": [
        {
          "indexed": true,
          "internalType": "address",
          "name": "playerAddress",
          "type": "address"
        },
        {
          "indexed": false,
          "internalType": "uint256",
          "name": "price",
          "type": "uint256"
        }
      ],
      "name": "BaitPurchaseUpdated",
      "type": "event"
    },
    {
      "anonymous": false,
      "inputs": [
        {
          "indexed": false,
          "internalType": "address",
          "name": "userAddress",
          "type": "address"
        },
        {
          "indexed": false,
          "internalType": "uint256",
          "name": "count",
          "type": "uint256"
        }
      ],
      "name": "ClaimGMC",
      "type": "event"
    },
    {
      "anonymous": false,
      "inputs": [
        {
          "indexed": true,
          "internalType": "address",
          "name": "playerAddress",
          "type": "address"
        },
        {
          "indexed": false,
          "internalType": "uint256",
          "name": "newAmount",
          "type": "uint256"
        }
      ],
      "name": "CollectedGMCUpdated",
      "type": "event"
    },
    {
      "anonymous": false,
      "inputs": [
        {
          "indexed": true,
          "internalType": "address",
          "name": "playerAddress",
          "type": "address"
        },
        {
          "indexed": false,
          "internalType": "uint256",
          "name": "exp",
          "type": "uint256"
        }
      ],
      "name": "ExperienceAdded",
      "type": "event"
    },
    {
      "anonymous": false,
      "inputs": [
        {
          "indexed": true,
          "internalType": "address",
          "name": "playerAddress",
          "type": "address"
        },
        {
          "indexed": false,
          "internalType": "uint256",
          "name": "star",
          "type": "uint256"
        },
        {
          "indexed": false,
          "internalType": "uint256",
          "name": "newCount",
          "type": "uint256"
        }
      ],
      "name": "FishCountUpdated",
      "type": "event"
    },
    {
      "anonymous": false,
      "inputs": [
        {
          "indexed": true,
          "internalType": "address",
          "name": "playerAddress",
          "type": "address"
        },
        {
          "indexed": false,
          "internalType": "uint256",
          "name": "newLevel",
          "type": "uint256"
        }
      ],
      "name": "FishPoolLevelUpdated",
      "type": "event"
    },
    {
      "anonymous": false,
      "inputs": [
        {
          "indexed": true,
          "internalType": "address",
          "name": "playerAddress",
          "type": "address"
        },
        {
          "indexed": false,
          "internalType": "uint256",
          "name": "newFishermanId",
          "type": "uint256"
        }
      ],
      "name": "FishermanChanged",
      "type": "event"
    },
    {
      "anonymous": false,
      "inputs": [
        {
          "indexed": true,
          "internalType": "uint256",
          "name": "levelUpLimit",
          "type": "uint256"
        },
        {
          "indexed": true,
          "internalType": "uint256",
          "name": "baitPurchaseLimit",
          "type": "uint256"
        },
        {
          "indexed": true,
          "internalType": "uint256",
          "name": "baitPrice",
          "type": "uint256"
        }
      ],
      "name": "LimitAttributeUpdate",
      "type": "event"
    },
    {
      "anonymous": false,
      "inputs": [
        {
          "indexed": true,
          "internalType": "address",
          "name": "previousOwner",
          "type": "address"
        },
        {
          "indexed": true,
          "internalType": "address",
          "name": "newOwner",
          "type": "address"
        }
      ],
      "name": "OwnershipTransferStarted",
      "type": "event"
    },
    {
      "anonymous": false,
      "inputs": [
        {
          "indexed": true,
          "internalType": "address",
          "name": "previousOwner",
          "type": "address"
        },
        {
          "indexed": true,
          "internalType": "address",
          "name": "newOwner",
          "type": "address"
        }
      ],
      "name": "OwnershipTransferred",
      "type": "event"
    },
    {
      "anonymous": false,
      "inputs": [
        {
          "indexed": true,
          "internalType": "address",
          "name": "playerAddress",
          "type": "address"
        }
      ],
      "name": "PlayerAdded",
      "type": "event"
    },
    {
      "anonymous": false,
      "inputs": [
        {
          "indexed": true,
          "internalType": "address",
          "name": "playerAddress",
          "type": "address"
        }
      ],
      "name": "PlayerDeleted",
      "type": "event"
    },
    {
      "anonymous": false,
      "inputs": [
        {
          "indexed": true,
          "internalType": "address",
          "name": "playerAddress",
          "type": "address"
        },
        {
          "indexed": false,
          "internalType": "uint256",
          "name": "newLevel",
          "type": "uint256"
        }
      ],
      "name": "PlayerLevelUpdated",
      "type": "event"
    },
    {
      "anonymous": false,
      "inputs": [
        {
          "indexed": true,
          "internalType": "address",
          "name": "playerAddress",
          "type": "address"
        },
        {
          "indexed": false,
          "internalType": "uint256",
          "name": "newLevel",
          "type": "uint256"
        }
      ],
      "name": "PlayerLeveledUp",
      "type": "event"
    },
    {
      "anonymous": false,
      "inputs": [
        {
          "indexed": false,
          "internalType": "address",
          "name": "userAddress",
          "type": "address"
        },
        {
          "indexed": false,
          "internalType": "uint256",
          "name": "count",
          "type": "uint256"
        }
      ],
      "name": "PoundUpgrade",
      "type": "event"
    },
    {
      "anonymous": false,
      "inputs": [
        {
          "indexed": true,
          "internalType": "address",
          "name": "playerAddress",
          "type": "address"
        },
        {
          "indexed": false,
          "internalType": "uint256",
          "name": "newRodId",
          "type": "uint256"
        }
      ],
      "name": "RodChanged",
      "type": "event"
    },
    {
      "anonymous": false,
      "inputs": [
        {
          "indexed": true,
          "internalType": "bytes32",
          "name": "role",
          "type": "bytes32"
        },
        {
          "indexed": true,
          "internalType": "bytes32",
          "name": "previousAdminRole",
          "type": "bytes32"
        },
        {
          "indexed": true,
          "internalType": "bytes32",
          "name": "newAdminRole",
          "type": "bytes32"
        }
      ],
      "name": "RoleAdminChanged",
      "type": "event"
    },
    {
      "anonymous": false,
      "inputs": [
        {
          "indexed": true,
          "internalType": "bytes32",
          "name": "role",
          "type": "bytes32"
        },
        {
          "indexed": true,
          "internalType": "address",
          "name": "account",
          "type": "address"
        },
        {
          "indexed": true,
          "internalType": "address",
          "name": "sender",
          "type": "address"
        }
      ],
      "name": "RoleGranted",
      "type": "event"
    },
    {
      "anonymous": false,
      "inputs": [
        {
          "indexed": true,
          "internalType": "bytes32",
          "name": "role",
          "type": "bytes32"
        },
        {
          "indexed": true,
          "internalType": "address",
          "name": "account",
          "type": "address"
        },
        {
          "indexed": true,
          "internalType": "address",
          "name": "sender",
          "type": "address"
        }
      ],
      "name": "RoleRevoked",
      "type": "event"
    },
    {
      "anonymous": false,
      "inputs": [
        {
          "components": [
            {
              "internalType": "uint256",
              "name": "fishingCount",
              "type": "uint256"
            },
            {
              "internalType": "uint256",
              "name": "experience",
              "type": "uint256"
            },
            {
              "internalType": "uint256",
              "name": "level",
              "type": "uint256"
            },
            {
              "internalType": "uint256[5]",
              "name": "unlockedFishingSpots",
              "type": "uint256[5]"
            },
            {
              "internalType": "uint256",
              "name": "currentFishingSpot",
              "type": "uint256"
            },
            {
              "internalType": "uint256",
              "name": "fishPoolLevel",
              "type": "uint256"
            },
            {
              "internalType": "uint256",
              "name": "interestRate",
              "type": "uint256"
            },
            {
              "internalType": "uint256",
              "name": "collectedGMC",
              "type": "uint256"
            },
            {
              "internalType": "uint256",
              "name": "baitCount",
              "type": "uint256"
            },
            {
              "internalType": "uint256[10]",
              "name": "fishCount",
              "type": "uint256[10]"
            },
            {
              "internalType": "uint256",
              "name": "currentFishermanNFT",
              "type": "uint256"
            },
            {
              "internalType": "uint256",
              "name": "currentRodNFT",
              "type": "uint256"
            }
          ],
          "indexed": true,
          "internalType": "struct User.PlayerInfo[]",
          "name": "playerInfo",
          "type": "tuple[]"
        },
        {
          "indexed": true,
          "internalType": "address[]",
          "name": "playerAddresses",
          "type": "address[]"
        }
      ],
      "name": "UserDataUpdate",
      "type": "event"
    },
    {
      "inputs": [],
      "name": "ADMIN_ROLE",
      "outputs": [
        {
          "internalType": "bytes32",
          "name": "",
          "type": "bytes32"
        }
      ],
      "stateMutability": "view",
      "type": "function"
    },
    {
      "inputs": [],
      "name": "DEFAULT_ADMIN_ROLE",
      "outputs": [
        {
          "internalType": "bytes32",
          "name": "",
          "type": "bytes32"
        }
      ],
      "stateMutability": "view",
      "type": "function"
    },
    {
      "inputs": [],
      "name": "acceptOwnership",
      "outputs": [],
      "stateMutability": "nonpayable",
      "type": "function"
    },
    {
      "inputs": [
        {
          "internalType": "address",
          "name": "newAdmin",
          "type": "address"
        }
      ],
      "name": "addAdmin",
      "outputs": [],
      "stateMutability": "nonpayable",
      "type": "function"
    },
    {
      "inputs": [
        {
          "internalType": "address",
          "name": "userAddress",
          "type": "address"
        }
      ],
      "name": "addUser",
      "outputs": [],
      "stateMutability": "nonpayable",
      "type": "function"
    },
    {
      "inputs": [],
      "name": "baitPrice",
      "outputs": [
        {
          "internalType": "uint256",
          "name": "",
          "type": "uint256"
        }
      ],
      "stateMutability": "view",
      "type": "function"
    },
    {
      "inputs": [],
      "name": "baitPurchaseLimit",
      "outputs": [
        {
          "internalType": "uint256",
          "name": "",
          "type": "uint256"
        }
      ],
      "stateMutability": "view",
      "type": "function"
    },
    {
      "inputs": [
        {
          "internalType": "uint256",
          "name": "count",
          "type": "uint256"
        }
      ],
      "name": "buyBaits",
      "outputs": [],
      "stateMutability": "nonpayable",
      "type": "function"
    },
    {
      "inputs": [
        {
          "internalType": "address",
          "name": "userAddress",
          "type": "address"
        },
        {
          "internalType": "uint256",
          "name": "fishermanId",
          "type": "uint256"
        }
      ],
      "name": "changeFisherman",
      "outputs": [],
      "stateMutability": "nonpayable",
      "type": "function"
    },
    {
      "inputs": [
        {
          "internalType": "uint256",
          "name": "rodId",
          "type": "uint256"
        },
        {
          "internalType": "address",
          "name": "userAddress",
          "type": "address"
        }
      ],
      "name": "changeRod",
      "outputs": [],
      "stateMutability": "nonpayable",
      "type": "function"
    },
    {
      "inputs": [
        {
          "internalType": "address",
          "name": "userAddress",
          "type": "address"
        },
        {
          "internalType": "uint256",
          "name": "count",
          "type": "uint256"
        }
      ],
      "name": "claimGMC",
      "outputs": [],
      "stateMutability": "nonpayable",
      "type": "function"
    },
    {
      "inputs": [
        {
          "internalType": "address",
          "name": "userAddress",
          "type": "address"
        }
      ],
      "name": "deleteUser",
      "outputs": [],
      "stateMutability": "nonpayable",
      "type": "function"
    },
    {
      "inputs": [],
      "name": "fishermanNFT",
      "outputs": [
        {
          "internalType": "contract IFishermanNFT",
          "name": "",
          "type": "address"
        }
      ],
      "stateMutability": "view",
      "type": "function"
    },
    {
      "inputs": [],
      "name": "fishingCountLimit",
      "outputs": [
        {
          "internalType": "uint256",
          "name": "",
          "type": "uint256"
        }
      ],
      "stateMutability": "view",
      "type": "function"
    },
    {
      "inputs": [],
      "name": "fishingRodNFT",
      "outputs": [
        {
          "internalType": "contract IFishingRodNFT",
          "name": "",
          "type": "address"
        }
      ],
      "stateMutability": "view",
      "type": "function"
    },
    {
      "inputs": [
        {
          "internalType": "address",
          "name": "playerAddress",
          "type": "address"
        }
      ],
      "name": "getBaitCount",
      "outputs": [
        {
          "internalType": "uint256",
          "name": "",
          "type": "uint256"
        }
      ],
      "stateMutability": "view",
      "type": "function"
    },
    {
      "inputs": [],
      "name": "getBaitPurchaseLimit",
      "outputs": [
        {
          "internalType": "uint256",
          "name": "",
          "type": "uint256"
        }
      ],
      "stateMutability": "view",
      "type": "function"
    },
    {
      "inputs": [
        {
          "internalType": "address",
          "name": "playerAddress",
          "type": "address"
        }
      ],
      "name": "getCollectedGMC",
      "outputs": [
        {
          "internalType": "uint256",
          "name": "",
          "type": "uint256"
        }
      ],
      "stateMutability": "view",
      "type": "function"
    },
    {
      "inputs": [
        {
          "internalType": "address",
          "name": "playerAddress",
          "type": "address"
        }
      ],
      "name": "getCurrentFishermanNFT",
      "outputs": [
        {
          "internalType": "uint256",
          "name": "",
          "type": "uint256"
        }
      ],
      "stateMutability": "view",
      "type": "function"
    },
    {
      "inputs": [
        {
          "internalType": "address",
          "name": "playerAddress",
          "type": "address"
        }
      ],
      "name": "getCurrentFishingRodNFT",
      "outputs": [
        {
          "internalType": "uint256",
          "name": "",
          "type": "uint256"
        }
      ],
      "stateMutability": "view",
      "type": "function"
    },
    {
      "inputs": [
        {
          "internalType": "address",
          "name": "playerAddress",
          "type": "address"
        }
      ],
      "name": "getExperience",
      "outputs": [
        {
          "internalType": "uint256",
          "name": "",
          "type": "uint256"
        }
      ],
      "stateMutability": "view",
      "type": "function"
    },
    {
      "inputs": [
        {
          "internalType": "address",
          "name": "playerAddress",
          "type": "address"
        }
      ],
      "name": "getFishCount",
      "outputs": [
        {
          "internalType": "uint256[10]",
          "name": "",
          "type": "uint256[10]"
        }
      ],
      "stateMutability": "view",
      "type": "function"
    },
    {
      "inputs": [
        {
          "internalType": "address",
          "name": "playerAddress",
          "type": "address"
        }
      ],
      "name": "getFishPoolLevel",
      "outputs": [
        {
          "internalType": "uint256",
          "name": "",
          "type": "uint256"
        }
      ],
      "stateMutability": "view",
      "type": "function"
    },
    {
      "inputs": [],
      "name": "getFishingCountLimit",
      "outputs": [
        {
          "internalType": "uint256",
          "name": "",
          "type": "uint256"
        }
      ],
      "stateMutability": "view",
      "type": "function"
    },
    {
      "inputs": [],
      "name": "getLevelUpLimit",
      "outputs": [
        {
          "internalType": "uint256",
          "name": "",
          "type": "uint256"
        }
      ],
      "stateMutability": "view",
      "type": "function"
    },
    {
      "inputs": [
        {
          "internalType": "address",
          "name": "account",
          "type": "address"
        }
      ],
      "name": "getPlayerInfo",
      "outputs": [
        {
          "components": [
            {
              "internalType": "uint256",
              "name": "fishingCount",
              "type": "uint256"
            },
            {
              "internalType": "uint256",
              "name": "experience",
              "type": "uint256"
            },
            {
              "internalType": "uint256",
              "name": "level",
              "type": "uint256"
            },
            {
              "internalType": "uint256[5]",
              "name": "unlockedFishingSpots",
              "type": "uint256[5]"
            },
            {
              "internalType": "uint256",
              "name": "currentFishingSpot",
              "type": "uint256"
            },
            {
              "internalType": "uint256",
              "name": "fishPoolLevel",
              "type": "uint256"
            },
            {
              "internalType": "uint256",
              "name": "interestRate",
              "type": "uint256"
            },
            {
              "internalType": "uint256",
              "name": "collectedGMC",
              "type": "uint256"
            },
            {
              "internalType": "uint256",
              "name": "baitCount",
              "type": "uint256"
            },
            {
              "internalType": "uint256[10]",
              "name": "fishCount",
              "type": "uint256[10]"
            },
            {
              "internalType": "uint256",
              "name": "currentFishermanNFT",
              "type": "uint256"
            },
            {
              "internalType": "uint256",
              "name": "currentRodNFT",
              "type": "uint256"
            }
          ],
          "internalType": "struct User.PlayerInfo",
          "name": "",
          "type": "tuple"
        }
      ],
      "stateMutability": "view",
      "type": "function"
    },
    {
      "inputs": [
        {
          "internalType": "address",
          "name": "playerAddress",
          "type": "address"
        }
      ],
      "name": "getPlayerLevel",
      "outputs": [
        {
          "internalType": "uint256",
          "name": "",
          "type": "uint256"
        }
      ],
      "stateMutability": "view",
      "type": "function"
    },
    {
      "inputs": [
        {
          "internalType": "bytes32",
          "name": "role",
          "type": "bytes32"
        }
      ],
      "name": "getRoleAdmin",
      "outputs": [
        {
          "internalType": "bytes32",
          "name": "",
          "type": "bytes32"
        }
      ],
      "stateMutability": "view",
      "type": "function"
    },
    {
      "inputs": [
        {
          "internalType": "address",
          "name": "userAddress",
          "type": "address"
        }
      ],
      "name": "getUnlockedFishingSpots",
      "outputs": [
        {
          "internalType": "uint256[5]",
          "name": "",
          "type": "uint256[5]"
        }
      ],
      "stateMutability": "view",
      "type": "function"
    },
    {
      "inputs": [
        {
          "internalType": "address",
          "name": "userAddress",
          "type": "address"
        }
      ],
      "name": "getUser",
      "outputs": [
        {
          "components": [
            {
              "internalType": "uint256",
              "name": "fishingCount",
              "type": "uint256"
            },
            {
              "internalType": "uint256",
              "name": "experience",
              "type": "uint256"
            },
            {
              "internalType": "uint256",
              "name": "level",
              "type": "uint256"
            },
            {
              "internalType": "uint256[5]",
              "name": "unlockedFishingSpots",
              "type": "uint256[5]"
            },
            {
              "internalType": "uint256",
              "name": "currentFishingSpot",
              "type": "uint256"
            },
            {
              "internalType": "uint256",
              "name": "fishPoolLevel",
              "type": "uint256"
            },
            {
              "internalType": "uint256",
              "name": "interestRate",
              "type": "uint256"
            },
            {
              "internalType": "uint256",
              "name": "collectedGMC",
              "type": "uint256"
            },
            {
              "internalType": "uint256",
              "name": "baitCount",
              "type": "uint256"
            },
            {
              "internalType": "uint256[10]",
              "name": "fishCount",
              "type": "uint256[10]"
            },
            {
              "internalType": "uint256",
              "name": "currentFishermanNFT",
              "type": "uint256"
            },
            {
              "internalType": "uint256",
              "name": "currentRodNFT",
              "type": "uint256"
            }
          ],
          "internalType": "struct User.PlayerInfo",
          "name": "",
          "type": "tuple"
        }
      ],
      "stateMutability": "view",
      "type": "function"
    },
    {
      "inputs": [],
      "name": "gmcContract",
      "outputs": [
        {
          "internalType": "contract IGMC",
          "name": "",
          "type": "address"
        }
      ],
      "stateMutability": "view",
      "type": "function"
    },
    {
      "inputs": [
        {
          "internalType": "bytes32",
          "name": "role",
          "type": "bytes32"
        },
        {
          "internalType": "address",
          "name": "account",
          "type": "address"
        }
      ],
      "name": "grantRole",
      "outputs": [],
      "stateMutability": "nonpayable",
      "type": "function"
    },
    {
      "inputs": [
        {
          "internalType": "bytes32",
          "name": "role",
          "type": "bytes32"
        },
        {
          "internalType": "address",
          "name": "account",
          "type": "address"
        }
      ],
      "name": "hasRole",
      "outputs": [
        {
          "internalType": "bool",
          "name": "",
          "type": "bool"
        }
      ],
      "stateMutability": "view",
      "type": "function"
    },
    {
      "inputs": [],
      "name": "levelUpLimit",
      "outputs": [
        {
          "internalType": "uint256",
          "name": "",
          "type": "uint256"
        }
      ],
      "stateMutability": "view",
      "type": "function"
    },
    {
      "inputs": [],
      "name": "owner",
      "outputs": [
        {
          "internalType": "address",
          "name": "",
          "type": "address"
        }
      ],
      "stateMutability": "view",
      "type": "function"
    },
    {
      "inputs": [
        {
          "internalType": "uint256",
          "name": "gmcCount",
          "type": "uint256"
        }
      ],
      "name": "poundUpgrade",
      "outputs": [],
      "stateMutability": "nonpayable",
      "type": "function"
    },
    {
      "inputs": [
        {
          "internalType": "address",
          "name": "admin",
          "type": "address"
        }
      ],
      "name": "removeAdmin",
      "outputs": [],
      "stateMutability": "nonpayable",
      "type": "function"
    },
    {
      "inputs": [],
      "name": "renounceOwnership",
      "outputs": [],
      "stateMutability": "nonpayable",
      "type": "function"
    },
    {
      "inputs": [
        {
          "internalType": "bytes32",
          "name": "role",
          "type": "bytes32"
        },
        {
          "internalType": "address",
          "name": "account",
          "type": "address"
        }
      ],
      "name": "renounceRole",
      "outputs": [],
      "stateMutability": "nonpayable",
      "type": "function"
    },
    {
      "inputs": [
        {
          "internalType": "bytes32",
          "name": "role",
          "type": "bytes32"
        },
        {
          "internalType": "address",
          "name": "account",
          "type": "address"
        }
      ],
      "name": "revokeRole",
      "outputs": [],
      "stateMutability": "nonpayable",
      "type": "function"
    },
    {
      "inputs": [
        {
          "internalType": "address",
          "name": "playerAddress",
          "type": "address"
        },
        {
          "internalType": "uint256",
          "name": "newCount",
          "type": "uint256"
        }
      ],
      "name": "setBaitCount",
      "outputs": [],
      "stateMutability": "nonpayable",
      "type": "function"
    },
    {
      "inputs": [
        {
          "internalType": "uint256",
          "name": "_baitPurchaseLimit",
          "type": "uint256"
        }
      ],
      "name": "setBaitPurchaseLimit",
      "outputs": [],
      "stateMutability": "nonpayable",
      "type": "function"
    },
    {
      "inputs": [
        {
          "internalType": "address",
          "name": "playerAddress",
          "type": "address"
        },
        {
          "internalType": "uint256",
          "name": "newAmount",
          "type": "uint256"
        }
      ],
      "name": "setCollectedGMC",
      "outputs": [],
      "stateMutability": "nonpayable",
      "type": "function"
    },
    {
      "inputs": [
        {
          "internalType": "address",
          "name": "userAddress",
          "type": "address"
        },
        {
          "internalType": "uint256",
          "name": "exp",
          "type": "uint256"
        }
      ],
      "name": "setExperience",
      "outputs": [],
      "stateMutability": "nonpayable",
      "type": "function"
    },
    {
      "inputs": [
        {
          "internalType": "address",
          "name": "playerAddress",
          "type": "address"
        },
        {
          "internalType": "uint256",
          "name": "star",
          "type": "uint256"
        },
        {
          "internalType": "uint256",
          "name": "newCount",
          "type": "uint256"
        }
      ],
      "name": "setFishCount",
      "outputs": [],
      "stateMutability": "nonpayable",
      "type": "function"
    },
    {
      "inputs": [
        {
          "internalType": "address",
          "name": "playerAddress",
          "type": "address"
        },
        {
          "internalType": "uint256",
          "name": "newLevel",
          "type": "uint256"
        }
      ],
      "name": "setFishPoolLevel",
      "outputs": [],
      "stateMutability": "nonpayable",
      "type": "function"
    },
    {
      "inputs": [
        {
          "internalType": "address",
          "name": "userAddress",
          "type": "address"
        },
        {
          "internalType": "uint256",
          "name": "count",
          "type": "uint256"
        }
      ],
      "name": "setFishingCount",
      "outputs": [],
      "stateMutability": "nonpayable",
      "type": "function"
    },
    {
      "inputs": [
        {
          "internalType": "uint256",
          "name": "_fishingCountLimit",
          "type": "uint256"
        }
      ],
      "name": "setFishingCountLimit",
      "outputs": [],
      "stateMutability": "nonpayable",
      "type": "function"
    },
    {
      "inputs": [
        {
          "internalType": "uint256",
          "name": "_levelUpLimit",
          "type": "uint256"
        }
      ],
      "name": "setLevelUpLimit",
      "outputs": [],
      "stateMutability": "nonpayable",
      "type": "function"
    },
    {
      "inputs": [
        {
          "internalType": "address",
          "name": "playerAddress",
          "type": "address"
        },
        {
          "internalType": "uint256",
          "name": "newLevel",
          "type": "uint256"
        }
      ],
      "name": "setPlayerLevel",
      "outputs": [],
      "stateMutability": "nonpayable",
      "type": "function"
    },
    {
      "inputs": [
        {
          "internalType": "bytes4",
          "name": "interfaceId",
          "type": "bytes4"
        }
      ],
      "name": "supportsInterface",
      "outputs": [
        {
          "internalType": "bool",
          "name": "",
          "type": "bool"
        }
      ],
      "stateMutability": "view",
      "type": "function"
    },
    {
      "inputs": [
        {
          "internalType": "address",
          "name": "newOwner",
          "type": "address"
        }
      ],
      "name": "transferOwnership",
      "outputs": [],
      "stateMutability": "nonpayable",
      "type": "function"
    },
    {
      "inputs": [
        {
          "internalType": "uint256",
          "name": "_levelUpLimit",
          "type": "uint256"
        },
        {
          "internalType": "uint256",
          "name": "_baitPurchaseLimit",
          "type": "uint256"
        },
        {
          "internalType": "uint256",
          "name": "_fishingCountLimit",
          "type": "uint256"
        },
        {
          "internalType": "uint256",
          "name": "_baitPrice",
          "type": "uint256"
        }
      ],
      "name": "updateLimitAttribute",
      "outputs": [],
      "stateMutability": "nonpayable",
      "type": "function"
    },
    {
      "inputs": [
        {
          "components": [
            {
              "internalType": "uint256",
              "name": "fishingCount",
              "type": "uint256"
            },
            {
              "internalType": "uint256",
              "name": "experience",
              "type": "uint256"
            },
            {
              "internalType": "uint256",
              "name": "level",
              "type": "uint256"
            },
            {
              "internalType": "uint256[5]",
              "name": "unlockedFishingSpots",
              "type": "uint256[5]"
            },
            {
              "internalType": "uint256",
              "name": "currentFishingSpot",
              "type": "uint256"
            },
            {
              "internalType": "uint256",
              "name": "fishPoolLevel",
              "type": "uint256"
            },
            {
              "internalType": "uint256",
              "name": "interestRate",
              "type": "uint256"
            },
            {
              "internalType": "uint256",
              "name": "collectedGMC",
              "type": "uint256"
            },
            {
              "internalType": "uint256",
              "name": "baitCount",
              "type": "uint256"
            },
            {
              "internalType": "uint256[10]",
              "name": "fishCount",
              "type": "uint256[10]"
            },
            {
              "internalType": "uint256",
              "name": "currentFishermanNFT",
              "type": "uint256"
            },
            {
              "internalType": "uint256",
              "name": "currentRodNFT",
              "type": "uint256"
            }
          ],
          "internalType": "struct User.PlayerInfo[]",
          "name": "playerInfo",
          "type": "tuple[]"
        },
        {
          "internalType": "address[]",
          "name": "playerAddresses",
          "type": "address[]"
        }
      ],
      "name": "updateUserData",
      "outputs": [],
      "stateMutability": "nonpayable",
      "type": "function"
    }
  ],
  "bytecode": "0x60806040523480156200001157600080fd5b5060405162005efc38038062005efc833981810160405281019062000037919062000439565b620000576200004b6200019160201b60201c565b6200019960201b60201c565b60336006819055506063600781905550600a600881905550674563918244f40000600981905550620000936000801b336200025d60201b60201c565b620000c57fa49807205ce4d355092ef5a8a18f56e8913cf4a201fbe287825b095693c21775336200025d60201b60201c565b82600260006101000a81548173ffffffffffffffffffffffffffffffffffffffff021916908373ffffffffffffffffffffffffffffffffffffffff16021790555081600360006101000a81548173ffffffffffffffffffffffffffffffffffffffff021916908373ffffffffffffffffffffffffffffffffffffffff16021790555080600460006101000a81548173ffffffffffffffffffffffffffffffffffffffff021916908373ffffffffffffffffffffffffffffffffffffffff16021790555050505062000495565b600033905090565b60008060009054906101000a900473ffffffffffffffffffffffffffffffffffffffff169050816000806101000a81548173ffffffffffffffffffffffffffffffffffffffff021916908373ffffffffffffffffffffffffffffffffffffffff1602179055508173ffffffffffffffffffffffffffffffffffffffff168173ffffffffffffffffffffffffffffffffffffffff167f8be0079c531659141344cd1fd0a4f28419497f9722a3daafe3b4186f6b6457e060405160405180910390a35050565b6200026f82826200027360201b60201c565b5050565b6200028582826200036460201b60201c565b6200036057600180600084815260200190815260200160002060000160008373ffffffffffffffffffffffffffffffffffffffff1673ffffffffffffffffffffffffffffffffffffffff16815260200190815260200160002060006101000a81548160ff021916908315150217905550620003056200019160201b60201c565b73ffffffffffffffffffffffffffffffffffffffff168173ffffffffffffffffffffffffffffffffffffffff16837f2f8788117e7eff1d82e926ec794901d17c78024a50270940304540a733656f0d60405160405180910390a45b5050565b60006001600084815260200190815260200160002060000160008373ffffffffffffffffffffffffffffffffffffffff1673ffffffffffffffffffffffffffffffffffffffff16815260200190815260200160002060009054906101000a900460ff16905092915050565b600080fd5b600073ffffffffffffffffffffffffffffffffffffffff82169050919050565b60006200040182620003d4565b9050919050565b6200041381620003f4565b81146200041f57600080fd5b50565b600081519050620004338162000408565b92915050565b600080600060608486031215620004555762000454620003cf565b5b6000620004658682870162000422565b9350506020620004788682870162000422565b92505060406200048b8682870162000422565b9150509250925092565b615a5780620004a56000396000f3fe608060405234801561001057600080fd5b50600436106103425760003560e01c806379ba5097116101b8578063bf129fd011610104578063e55ae65a116100a2578063eaaaa2341161007c578063eaaaa234146109b7578063f2061405146109d3578063f2fde38b146109f1578063f76b7de514610a0d57610342565b8063e55ae65a14610961578063e678f86c1461097f578063e9bcc5f31461099b57610342565b8063c8001b73116100de578063c8001b73146108ed578063cee8b4aa1461090b578063d547741f14610929578063dea905121461094557610342565b8063bf129fd014610885578063bfb56d62146108a1578063c6051a94146108bd57610342565b80639515590011610171578063a217fddf1161014b578063a217fddf14610811578063a63eba481461082f578063b474ca761461084b578063b5d626c41461086957610342565b806395155900146107a95780639af7a00a146107d95780639deedd5b146107f557610342565b806379ba5097146106e75780638c953a78146106f15780638ca5f74d146107215780638da5cb5b1461073f5780638ff4a2571461075d57806391d148541461077957610342565b806348aabab2116102925780636aba920b11610230578063704802751161020a5780637048027514610673578063715018a61461068f57806375b238fc146106995780637757346d146106b757610342565b80636aba920b146105f75780636b743a2c146106135780636f77926b1461064357610342565b8063593284011161026c57806359328401146105715780635c60f226146105a1578063657a9393146105bd5780636667a9a7146105d957610342565b806348aabab21461050757806350a4098a1461053757806353acd2ab1461055557610342565b806322a66172116102ff57806331c4ecdc116102d957806331c4ecdc1461046f57806334b735a11461049f57806336568abe146104cf578063421b2d8b146104eb57610342565b806322a6617214610407578063248a9ca3146104235780632f2ff15d1461045357610342565b806301ffc9a714610347578063047ac5de146103775780631785f53c1461039557806318250e07146103b15780631fbff24f146103cf578063215c5d00146103eb575b600080fd5b610361600480360381019061035c919061421f565b610a3d565b60405161036e9190614267565b60405180910390f35b61037f610ab7565b60405161038c9190614301565b60405180910390f35b6103af60048036038101906103aa919061435a565b610add565b005b6103b9610b12565b6040516103c691906143a0565b60405180910390f35b6103e960048036038101906103e49190614892565b610b18565b005b6104056004803603810190610400919061490a565b611283565b005b610421600480360381019061041c9190614971565b61130d565b005b61043d600480360381019061043891906149d4565b611532565b60405161044a9190614a10565b60405180910390f35b61046d60048036038101906104689190614a2b565b611552565b005b6104896004803603810190610484919061435a565b611573565b60405161049691906143a0565b60405180910390f35b6104b960048036038101906104b4919061435a565b611615565b6040516104c691906143a0565b60405180910390f35b6104e960048036038101906104e49190614a2b565b6116b7565b005b6105056004803603810190610500919061435a565b61173a565b005b610521600480360381019061051c919061435a565b611a51565b60405161052e91906143a0565b60405180910390f35b61053f611af3565b60405161054c9190614a8c565b60405180910390f35b61056f600480360381019061056a9190614aa7565b611b19565b005b61058b6004803603810190610586919061435a565b611e53565b6040516105989190614d10565b60405180910390f35b6105bb60048036038101906105b6919061435a565b611f9b565b005b6105d760048036038101906105d29190614971565b6120c3565b005b6105e1612100565b6040516105ee91906143a0565b60405180910390f35b610611600480360381019061060c9190614aa7565b61210a565b005b61062d6004803603810190610628919061435a565b61222c565b60405161063a91906143a0565b60405180910390f35b61065d6004803603810190610658919061435a565b6122ce565b60405161066a9190614d10565b60405180910390f35b61068d6004803603810190610688919061435a565b61249f565b005b6106976124d4565b005b6106a16124e8565b6040516106ae9190614a10565b60405180910390f35b6106d160048036038101906106cc919061435a565b61250c565b6040516106de91906143a0565b60405180910390f35b6106ef6125ae565b005b61070b6004803603810190610706919061435a565b612677565b6040516107189190614d8e565b60405180910390f35b61072961275a565b60405161073691906143a0565b60405180910390f35b610747612764565b6040516107549190614db8565b60405180910390f35b61077760048036038101906107729190614971565b61278d565b005b610793600480360381019061078e9190614a2b565b61298a565b6040516107a09190614267565b60405180910390f35b6107c360048036038101906107be919061435a565b6129f5565b6040516107d091906143a0565b60405180910390f35b6107f360048036038101906107ee9190614dd3565b612a97565b005b61080f600480360381019061080a9190614971565b612bcf565b005b610819612c0c565b6040516108269190614a10565b60405180910390f35b61084960048036038101906108449190614aa7565b612c13565b005b610853612d35565b60405161086091906143a0565b60405180910390f35b610883600480360381019061087e9190614aa7565b612d3b565b005b61089f600480360381019061089a9190614aa7565b612f6d565b005b6108bb60048036038101906108b69190614aa7565b61308f565b005b6108d760048036038101906108d2919061435a565b6131b7565b6040516108e49190614e88565b60405180910390f35b6108f561329a565b6040516109029190614ec5565b60405180910390f35b6109136132c0565b60405161092091906143a0565b60405180910390f35b610943600480360381019061093e9190614a2b565b6132c6565b005b61095f600480360381019061095a9190614aa7565b6132e7565b005b610969613409565b60405161097691906143a0565b60405180910390f35b61099960048036038101906109949190614971565b61340f565b005b6109b560048036038101906109b09190614ee0565b61344c565b005b6109d160048036038101906109cc9190614aa7565b613786565b005b6109db61385a565b6040516109e891906143a0565b60405180910390f35b610a0b6004803603810190610a06919061435a565b613864565b005b610a276004803603810190610a22919061435a565b61394a565b604051610a3491906143a0565b60405180910390f35b60007f7965db0b000000000000000000000000000000000000000000000000000000007bffffffffffffffffffffffffffffffffffffffffffffffffffffffff1916827bffffffffffffffffffffffffffffffffffffffffffffffffffffffff19161480610ab05750610aaf826139ec565b5b9050919050565b600260009054906101000a900473ffffffffffffffffffffffffffffffffffffffff1681565b610ae5613a56565b610b0f7fa49807205ce4d355092ef5a8a18f56e8913cf4a201fbe287825b095693c21775826132c6565b50565b60095481565b610b427fa49807205ce4d355092ef5a8a18f56e8913cf4a201fbe287825b095693c217753361298a565b610b4b57600080fd5b8051825114610b8f576040517f08c379a0000000000000000000000000000000000000000000000000000000008152600401610b8690614f7d565b60405180910390fd5b60005b825181101561122657600b6000838381518110610bb257610bb1614f9d565b5b602002602001015173ffffffffffffffffffffffffffffffffffffffff1673ffffffffffffffffffffffffffffffffffffffff16815260200190815260200160002060009054906101000a900460ff16610c0b57600080fd5b828181518110610c1e57610c1d614f9d565b5b602002602001015160000151600a6000848481518110610c4157610c40614f9d565b5b602002602001015173ffffffffffffffffffffffffffffffffffffffff1673ffffffffffffffffffffffffffffffffffffffff16815260200190815260200160002060000181905550828181518110610c9d57610c9c614f9d565b5b602002602001015160200151600a6000848481518110610cc057610cbf614f9d565b5b602002602001015173ffffffffffffffffffffffffffffffffffffffff1673ffffffffffffffffffffffffffffffffffffffff16815260200190815260200160002060010181905550828181518110610d1c57610d1b614f9d565b5b602002602001015160400151600a6000848481518110610d3f57610d3e614f9d565b5b602002602001015173ffffffffffffffffffffffffffffffffffffffff1673ffffffffffffffffffffffffffffffffffffffff16815260200190815260200160002060020181905550828181518110610d9b57610d9a614f9d565b5b602002602001015160600151600a6000848481518110610dbe57610dbd614f9d565b5b602002602001015173ffffffffffffffffffffffffffffffffffffffff1673ffffffffffffffffffffffffffffffffffffffff168152602001908152602001600020600301906005610e11929190614064565b50828181518110610e2557610e24614f9d565b5b602002602001015160800151600a6000848481518110610e4857610e47614f9d565b5b602002602001015173ffffffffffffffffffffffffffffffffffffffff1673ffffffffffffffffffffffffffffffffffffffff16815260200190815260200160002060080181905550828181518110610ea457610ea3614f9d565b5b602002602001015160a00151600a6000848481518110610ec757610ec6614f9d565b5b602002602001015173ffffffffffffffffffffffffffffffffffffffff1673ffffffffffffffffffffffffffffffffffffffff16815260200190815260200160002060090181905550828181518110610f2357610f22614f9d565b5b602002602001015160c00151600a6000848481518110610f4657610f45614f9d565b5b602002602001015173ffffffffffffffffffffffffffffffffffffffff1673ffffffffffffffffffffffffffffffffffffffff168152602001908152602001600020600a0181905550828181518110610fa257610fa1614f9d565b5b602002602001015160e00151600a6000848481518110610fc557610fc4614f9d565b5b602002602001015173ffffffffffffffffffffffffffffffffffffffff1673ffffffffffffffffffffffffffffffffffffffff168152602001908152602001600020600b018190555082818151811061102157611020614f9d565b5b60200260200101516101000151600a600084848151811061104557611044614f9d565b5b602002602001015173ffffffffffffffffffffffffffffffffffffffff1673ffffffffffffffffffffffffffffffffffffffff168152602001908152602001600020600c01819055508281815181106110a1576110a0614f9d565b5b60200260200101516101200151600a60008484815181106110c5576110c4614f9d565b5b602002602001015173ffffffffffffffffffffffffffffffffffffffff1673ffffffffffffffffffffffffffffffffffffffff168152602001908152602001600020600d0190600a6111189291906140a4565b5082818151811061112c5761112b614f9d565b5b60200260200101516101400151600a60008484815181106111505761114f614f9d565b5b602002602001015173ffffffffffffffffffffffffffffffffffffffff1673ffffffffffffffffffffffffffffffffffffffff168152602001908152602001600020601701819055508281815181106111ac576111ab614f9d565b5b60200260200101516101600151600a60008484815181106111d0576111cf614f9d565b5b602002602001015173ffffffffffffffffffffffffffffffffffffffff1673ffffffffffffffffffffffffffffffffffffffff168152602001908152602001600020601801819055508080600101915050610b92565b50806040516112359190615084565b60405180910390208260405161124b9190615346565b60405180910390207fc91fdb6201eb89b7a1b567d23d3c59bbfd7f7d942aa9e8ad346319d17f0b910860405160405180910390a35050565b6112ad7fa49807205ce4d355092ef5a8a18f56e8913cf4a201fbe287825b095693c217753361298a565b6112b657600080fd5b836006819055508260078190555081600881905550806009819055506009546007546006547ffb7230b722712fa11b563a061381502fa2e6f8f6432c8af6ec3b309c26e74cb660405160405180910390a450505050565b600b60003373ffffffffffffffffffffffffffffffffffffffff1673ffffffffffffffffffffffffffffffffffffffff16815260200190815260200160002060009054906101000a900460ff1661136357600080fd5b600060095482611373919061538c565b905080600260009054906101000a900473ffffffffffffffffffffffffffffffffffffffff1673ffffffffffffffffffffffffffffffffffffffff166370a08231336040518263ffffffff1660e01b81526004016113d19190614db8565b602060405180830381865afa1580156113ee573d6000803e3d6000fd5b505050506040513d601f19601f8201168201806040525081019061141291906153e3565b1015611453576040517f08c379a000000000000000000000000000000000000000000000000000000000815260040161144a9061545c565b60405180910390fd5b600260009054906101000a900473ffffffffffffffffffffffffffffffffffffffff1673ffffffffffffffffffffffffffffffffffffffff166342966c68826040518263ffffffff1660e01b81526004016114ae91906143a0565b600060405180830381600087803b1580156114c857600080fd5b505af11580156114dc573d6000803e3d6000fd5b505050503373ffffffffffffffffffffffffffffffffffffffff167f5ffbddb0c4b296b0093fb670d2162e83f08a023e1da20be95805aabebae527228260405161152691906143a0565b60405180910390a25050565b600060016000838152602001908152602001600020600101549050919050565b61155b82611532565b61156481613ad4565b61156e8383613ae8565b505050565b6000600b60008373ffffffffffffffffffffffffffffffffffffffff1673ffffffffffffffffffffffffffffffffffffffff16815260200190815260200160002060009054906101000a900460ff166115cb57600080fd5b600a60008373ffffffffffffffffffffffffffffffffffffffff1673ffffffffffffffffffffffffffffffffffffffff168152602001908152602001600020600901549050919050565b6000600b60008373ffffffffffffffffffffffffffffffffffffffff1673ffffffffffffffffffffffffffffffffffffffff16815260200190815260200160002060009054906101000a900460ff1661166d57600080fd5b600a60008373ffffffffffffffffffffffffffffffffffffffff1673ffffffffffffffffffffffffffffffffffffffff168152602001908152602001600020600201549050919050565b6116bf613bc8565b73ffffffffffffffffffffffffffffffffffffffff168173ffffffffffffffffffffffffffffffffffffffff161461172c576040517f08c379a0000000000000000000000000000000000000000000000000000000008152600401611723906154ee565b60405180910390fd5b6117368282613bd0565b5050565b6117647fa49807205ce4d355092ef5a8a18f56e8913cf4a201fbe287825b095693c217753361298a565b61176d57600080fd5b600b60008273ffffffffffffffffffffffffffffffffffffffff1673ffffffffffffffffffffffffffffffffffffffff16815260200190815260200160002060009054906101000a900460ff16156117c457600080fd5b604051806101800160405280600a815260200160008152602001600181526020016040518060a001604052806103e981526020016000815260200160008152602001600081526020016000815250815260200160008152602001600181526020016000815260200160008152602001601e8152602001604051806101400160405280600081526020016000815260200160008152602001600081526020016000815260200160008152602001600081526020016000815260200160008152602001600081525081526020017fffffffffffffffffffffffffffffffffffffffffffffffffffffffffffffffff81526020017fffffffffffffffffffffffffffffffffffffffffffffffffffffffffffffffff815250600a60008373ffffffffffffffffffffffffffffffffffffffff1673ffffffffffffffffffffffffffffffffffffffff16815260200190815260200160002060008201518160000155602082015181600101556040820151816002015560608201518160030190600561194d929190614064565b506080820151816008015560a0820151816009015560c082015181600a015560e082015181600b015561010082015181600c015561012082015181600d0190600a6119999291906140a4565b50610140820151816017015561016082015181601801559050506001600b60008373ffffffffffffffffffffffffffffffffffffffff1673ffffffffffffffffffffffffffffffffffffffff16815260200190815260200160002060006101000a81548160ff0219169083151502179055508073ffffffffffffffffffffffffffffffffffffffff167ff2ae205522024c14e5a7a26ba6d1fb1252dc8e161b5abc79ed5795fd3c5b926160405160405180910390a250565b6000600b60008373ffffffffffffffffffffffffffffffffffffffff1673ffffffffffffffffffffffffffffffffffffffff16815260200190815260200160002060009054906101000a900460ff16611aa957600080fd5b600a60008373ffffffffffffffffffffffffffffffffffffffff1673ffffffffffffffffffffffffffffffffffffffff168152602001908152602001600020600c01549050919050565b600360009054906101000a900473ffffffffffffffffffffffffffffffffffffffff1681565b611b437fa49807205ce4d355092ef5a8a18f56e8913cf4a201fbe287825b095693c217753361298a565b611b4c57600080fd5b600b60008373ffffffffffffffffffffffffffffffffffffffff1673ffffffffffffffffffffffffffffffffffffffff16815260200190815260200160002060009054906101000a900460ff16611ba257600080fd5b600060608373ffffffffffffffffffffffffffffffffffffffff16600360009054906101000a900473ffffffffffffffffffffffffffffffffffffffff1673ffffffffffffffffffffffffffffffffffffffff16636352211e856040518263ffffffff1660e01b8152600401611c1891906143a0565b602060405180830381865afa158015611c35573d6000803e3d6000fd5b505050506040513d601f19601f82011682018060405250810190611c599190615523565b73ffffffffffffffffffffffffffffffffffffffff1614611db457600360009054906101000a900473ffffffffffffffffffffffffffffffffffffffff1673ffffffffffffffffffffffffffffffffffffffff166318148f1b856040518263ffffffff1660e01b8152600401611ccf9190614db8565b600060405180830381865afa158015611cec573d6000803e3d6000fd5b505050506040513d6000823e3d601f19601f82011682018060405250810190611d159190615613565b9050600081511115611d8b5780600081518110611d3557611d34614f9d565b5b6020026020010151915081600a60008673ffffffffffffffffffffffffffffffffffffffff1673ffffffffffffffffffffffffffffffffffffffff16815260200190815260200160002060170181905550611daf565b7fffffffffffffffffffffffffffffffffffffffffffffffffffffffffffffffff91505b611dff565b82600a60008673ffffffffffffffffffffffffffffffffffffffff1673ffffffffffffffffffffffffffffffffffffffff168152602001908152602001600020601701819055508291505b8373ffffffffffffffffffffffffffffffffffffffff167f08e9f015b4a09d3e66a5d3703ecc0d035e52da672786c75b807300bd4a72530d83604051611e4591906143a0565b60405180910390a250505050565b611e5b6140e4565b600a60008373ffffffffffffffffffffffffffffffffffffffff1673ffffffffffffffffffffffffffffffffffffffff1681526020019081526020016000206040518061018001604052908160008201548152602001600182015481526020016002820154815260200160038201600580602002604051908101604052809291908260058015611f00576020028201915b815481526020019060010190808311611eec575b505050505081526020016008820154815260200160098201548152602001600a8201548152602001600b8201548152602001600c8201548152602001600d8201600a806020026040519081016040528092919082600a8015611f77576020028201915b815481526020019060010190808311611f63575b50505050508152602001601782015481526020016018820154815250509050919050565b611fc57fa49807205ce4d355092ef5a8a18f56e8913cf4a201fbe287825b095693c217753361298a565b611fce57600080fd5b600b60008273ffffffffffffffffffffffffffffffffffffffff1673ffffffffffffffffffffffffffffffffffffffff16815260200190815260200160002060009054906101000a900460ff161561202557600080fd5b6001600b60008373ffffffffffffffffffffffffffffffffffffffff1673ffffffffffffffffffffffffffffffffffffffff16815260200190815260200160002060006101000a81548160ff0219169083151502179055508073ffffffffffffffffffffffffffffffffffffffff167fc9fb99cf86984520d29d72f3a41fe637cc23cddff11a003f0b9e27c1652d171860405160405180910390a250565b6120ed7fa49807205ce4d355092ef5a8a18f56e8913cf4a201fbe287825b095693c217753361298a565b6120f657600080fd5b8060078190555050565b6000600754905090565b6121347fa49807205ce4d355092ef5a8a18f56e8913cf4a201fbe287825b095693c217753361298a565b61213d57600080fd5b600b60008373ffffffffffffffffffffffffffffffffffffffff1673ffffffffffffffffffffffffffffffffffffffff16815260200190815260200160002060009054906101000a900460ff1661219357600080fd5b80600a60008473ffffffffffffffffffffffffffffffffffffffff1673ffffffffffffffffffffffffffffffffffffffff168152602001908152602001600020600c01819055508173ffffffffffffffffffffffffffffffffffffffff167f61de7c9c9fef84bf815ad3b2d17a9af3d0655af7a1c9423e5d2dee99ec5c6ffc8260405161222091906143a0565b60405180910390a25050565b6000600b60008373ffffffffffffffffffffffffffffffffffffffff1673ffffffffffffffffffffffffffffffffffffffff16815260200190815260200160002060009054906101000a900460ff1661228457600080fd5b600a60008373ffffffffffffffffffffffffffffffffffffffff1673ffffffffffffffffffffffffffffffffffffffff168152602001908152602001600020600101549050919050565b6122d66140e4565b6123007fa49807205ce4d355092ef5a8a18f56e8913cf4a201fbe287825b095693c217753361298a565b61230957600080fd5b600b60008373ffffffffffffffffffffffffffffffffffffffff1673ffffffffffffffffffffffffffffffffffffffff16815260200190815260200160002060009054906101000a900460ff1661235f57600080fd5b600a60008373ffffffffffffffffffffffffffffffffffffffff1673ffffffffffffffffffffffffffffffffffffffff1681526020019081526020016000206040518061018001604052908160008201548152602001600182015481526020016002820154815260200160038201600580602002604051908101604052809291908260058015612404576020028201915b8154815260200190600101908083116123f0575b505050505081526020016008820154815260200160098201548152602001600a8201548152602001600b8201548152602001600c8201548152602001600d8201600a806020026040519081016040528092919082600a801561247b576020028201915b815481526020019060010190808311612467575b50505050508152602001601782015481526020016018820154815250509050919050565b6124a7613a56565b6124d17fa49807205ce4d355092ef5a8a18f56e8913cf4a201fbe287825b095693c2177582611552565b50565b6124dc613a56565b6124e66000613cb2565b565b7fa49807205ce4d355092ef5a8a18f56e8913cf4a201fbe287825b095693c2177581565b6000600b60008373ffffffffffffffffffffffffffffffffffffffff1673ffffffffffffffffffffffffffffffffffffffff16815260200190815260200160002060009054906101000a900460ff1661256457600080fd5b600a60008373ffffffffffffffffffffffffffffffffffffffff1673ffffffffffffffffffffffffffffffffffffffff168152602001908152602001600020601801549050919050565b600560009054906101000a900473ffffffffffffffffffffffffffffffffffffffff1673ffffffffffffffffffffffffffffffffffffffff163373ffffffffffffffffffffffffffffffffffffffff161461260857600080fd5b612633600560009054906101000a900473ffffffffffffffffffffffffffffffffffffffff16613cb2565b6000600560006101000a81548173ffffffffffffffffffffffffffffffffffffffff021916908373ffffffffffffffffffffffffffffffffffffffff160217905550565b61267f614151565b600b60008373ffffffffffffffffffffffffffffffffffffffff1673ffffffffffffffffffffffffffffffffffffffff16815260200190815260200160002060009054906101000a900460ff166126d557600080fd5b600a60008373ffffffffffffffffffffffffffffffffffffffff1673ffffffffffffffffffffffffffffffffffffffff16815260200190815260200160002060030160058060200260405190810160405280929190826005801561274e576020028201915b81548152602001906001019080831161273a575b50505050509050919050565b6000600654905090565b60008060009054906101000a900473ffffffffffffffffffffffffffffffffffffffff16905090565b600b60003373ffffffffffffffffffffffffffffffffffffffff1673ffffffffffffffffffffffffffffffffffffffff16815260200190815260200160002060009054906101000a900460ff166127e357600080fd5b80600260009054906101000a900473ffffffffffffffffffffffffffffffffffffffff1673ffffffffffffffffffffffffffffffffffffffff166370a08231336040518263ffffffff1660e01b815260040161283f9190614db8565b602060405180830381865afa15801561285c573d6000803e3d6000fd5b505050506040513d601f19601f8201168201806040525081019061288091906153e3565b10156128c1576040517f08c379a00000000000000000000000000000000000000000000000000000000081526004016128b89061545c565b60405180910390fd5b600260009054906101000a900473ffffffffffffffffffffffffffffffffffffffff1673ffffffffffffffffffffffffffffffffffffffff166342966c68826040518263ffffffff1660e01b815260040161291c91906143a0565b600060405180830381600087803b15801561293657600080fd5b505af115801561294a573d6000803e3d6000fd5b505050507fe9f227d9e258a6af2b2de974355b271946cfbfff2fd3f862f5a8ea4d3c42da57338260405161297f92919061565c565b60405180910390a150565b60006001600084815260200190815260200160002060000160008373ffffffffffffffffffffffffffffffffffffffff1673ffffffffffffffffffffffffffffffffffffffff16815260200190815260200160002060009054906101000a900460ff16905092915050565b6000600b60008373ffffffffffffffffffffffffffffffffffffffff1673ffffffffffffffffffffffffffffffffffffffff16815260200190815260200160002060009054906101000a900460ff16612a4d57600080fd5b600a60008373ffffffffffffffffffffffffffffffffffffffff1673ffffffffffffffffffffffffffffffffffffffff168152602001908152602001600020600b01549050919050565b612ac17fa49807205ce4d355092ef5a8a18f56e8913cf4a201fbe287825b095693c217753361298a565b612aca57600080fd5b600b60008473ffffffffffffffffffffffffffffffffffffffff1673ffffffffffffffffffffffffffffffffffffffff16815260200190815260200160002060009054906101000a900460ff16612b2057600080fd5b80600a60008573ffffffffffffffffffffffffffffffffffffffff1673ffffffffffffffffffffffffffffffffffffffff168152602001908152602001600020600d0183600a8110612b7557612b74614f9d565b5b01819055508273ffffffffffffffffffffffffffffffffffffffff167f374ed846dc3e18a969aef22277ce3669832a6ea83e3088149d5b40319413de478383604051612bc2929190615685565b60405180910390a2505050565b612bf97fa49807205ce4d355092ef5a8a18f56e8913cf4a201fbe287825b095693c217753361298a565b612c0257600080fd5b8060088190555050565b6000801b81565b612c3d7fa49807205ce4d355092ef5a8a18f56e8913cf4a201fbe287825b095693c217753361298a565b612c4657600080fd5b600b60008373ffffffffffffffffffffffffffffffffffffffff1673ffffffffffffffffffffffffffffffffffffffff16815260200190815260200160002060009054906101000a900460ff16612c9c57600080fd5b80600a60008473ffffffffffffffffffffffffffffffffffffffff1673ffffffffffffffffffffffffffffffffffffffff168152602001908152602001600020600b01819055508173ffffffffffffffffffffffffffffffffffffffff167f7f299cebc3c4384ae412a6ba151d00bd215add4b1379155dd71c3376cbf07df682604051612d2991906143a0565b60405180910390a25050565b60075481565b612d657fa49807205ce4d355092ef5a8a18f56e8913cf4a201fbe287825b095693c217753361298a565b612d6e57600080fd5b600b60008373ffffffffffffffffffffffffffffffffffffffff1673ffffffffffffffffffffffffffffffffffffffff16815260200190815260200160002060009054906101000a900460ff16612dc457600080fd5b6000600a60008473ffffffffffffffffffffffffffffffffffffffff1673ffffffffffffffffffffffffffffffffffffffff168152602001908152602001600020600b0154905081811015612e4e576040517f08c379a0000000000000000000000000000000000000000000000000000000008152600401612e45906156fa565b60405180910390fd5b600260009054906101000a900473ffffffffffffffffffffffffffffffffffffffff1673ffffffffffffffffffffffffffffffffffffffff166340c10f1984846040518363ffffffff1660e01b8152600401612eab92919061565c565b600060405180830381600087803b158015612ec557600080fd5b505af1158015612ed9573d6000803e3d6000fd5b505050508181612ee9919061571a565b600a60008573ffffffffffffffffffffffffffffffffffffffff1673ffffffffffffffffffffffffffffffffffffffff168152602001908152602001600020600b01819055507f190fe81f396538a8654aafa1adcdabc1825d53aa9fa6dd809991683d943e3a178383604051612f6092919061565c565b60405180910390a1505050565b612f977fa49807205ce4d355092ef5a8a18f56e8913cf4a201fbe287825b095693c217753361298a565b612fa057600080fd5b600b60008373ffffffffffffffffffffffffffffffffffffffff1673ffffffffffffffffffffffffffffffffffffffff16815260200190815260200160002060009054906101000a900460ff16612ff657600080fd5b80600a60008473ffffffffffffffffffffffffffffffffffffffff1673ffffffffffffffffffffffffffffffffffffffff168152602001908152602001600020600901819055508173ffffffffffffffffffffffffffffffffffffffff167f7ed17f7b101bb354c92f134f7c421a00e511b046abf1edceb1956966e74434808260405161308391906143a0565b60405180910390a25050565b6130b97fa49807205ce4d355092ef5a8a18f56e8913cf4a201fbe287825b095693c217753361298a565b6130c257600080fd5b600b60008373ffffffffffffffffffffffffffffffffffffffff1673ffffffffffffffffffffffffffffffffffffffff16815260200190815260200160002060009054906101000a900460ff1661311857600080fd5b6000600a60008473ffffffffffffffffffffffffffffffffffffffff1673ffffffffffffffffffffffffffffffffffffffff16815260200190815260200160002090508181600101819055508273ffffffffffffffffffffffffffffffffffffffff167f564792a0259ee41a56519990d80509a8057848327265f2075bcaac108651eab9836040516131aa91906143a0565b60405180910390a2505050565b6131bf614173565b600b60008373ffffffffffffffffffffffffffffffffffffffff1673ffffffffffffffffffffffffffffffffffffffff16815260200190815260200160002060009054906101000a900460ff1661321557600080fd5b600a60008373ffffffffffffffffffffffffffffffffffffffff1673ffffffffffffffffffffffffffffffffffffffff168152602001908152602001600020600d01600a806020026040519081016040528092919082600a801561328e576020028201915b81548152602001906001019080831161327a575b50505050509050919050565b600460009054906101000a900473ffffffffffffffffffffffffffffffffffffffff1681565b60065481565b6132cf82611532565b6132d881613ad4565b6132e28383613bd0565b505050565b6133117fa49807205ce4d355092ef5a8a18f56e8913cf4a201fbe287825b095693c217753361298a565b61331a57600080fd5b600b60008373ffffffffffffffffffffffffffffffffffffffff1673ffffffffffffffffffffffffffffffffffffffff16815260200190815260200160002060009054906101000a900460ff1661337057600080fd5b80600a60008473ffffffffffffffffffffffffffffffffffffffff1673ffffffffffffffffffffffffffffffffffffffff168152602001908152602001600020600201819055508173ffffffffffffffffffffffffffffffffffffffff167f7b45410837b569e79f978c88fbb1ab01a26d6922675e4de2fc0bae4e0586ceac826040516133fd91906143a0565b60405180910390a25050565b60085481565b6134397fa49807205ce4d355092ef5a8a18f56e8913cf4a201fbe287825b095693c217753361298a565b61344257600080fd5b8060068190555050565b6134767fa49807205ce4d355092ef5a8a18f56e8913cf4a201fbe287825b095693c217753361298a565b61347f57600080fd5b600b60008273ffffffffffffffffffffffffffffffffffffffff1673ffffffffffffffffffffffffffffffffffffffff16815260200190815260200160002060009054906101000a900460ff166134d557600080fd5b600060608273ffffffffffffffffffffffffffffffffffffffff16600460009054906101000a900473ffffffffffffffffffffffffffffffffffffffff1673ffffffffffffffffffffffffffffffffffffffff16636352211e866040518263ffffffff1660e01b815260040161354b91906143a0565b602060405180830381865afa158015613568573d6000803e3d6000fd5b505050506040513d601f19601f8201168201806040525081019061358c9190615523565b73ffffffffffffffffffffffffffffffffffffffff16146136e757600460009054906101000a900473ffffffffffffffffffffffffffffffffffffffff1673ffffffffffffffffffffffffffffffffffffffff166318148f1b846040518263ffffffff1660e01b81526004016136029190614db8565b600060405180830381865afa15801561361f573d6000803e3d6000fd5b505050506040513d6000823e3d601f19601f820116820180604052508101906136489190615613565b90506000815111156136be578060008151811061366857613667614f9d565b5b6020026020010151915081600a60008573ffffffffffffffffffffffffffffffffffffffff1673ffffffffffffffffffffffffffffffffffffffff168152602001908152602001600020601801819055506136e2565b7fffffffffffffffffffffffffffffffffffffffffffffffffffffffffffffffff91505b613732565b83600a60008573ffffffffffffffffffffffffffffffffffffffff1673ffffffffffffffffffffffffffffffffffffffff168152602001908152602001600020601801819055508391505b8273ffffffffffffffffffffffffffffffffffffffff167fcc9803ff35bbb65900301a2b84f90ad432fd23b513fb5dddcb6f4568cb9c54c98360405161377891906143a0565b60405180910390a250505050565b6137b07fa49807205ce4d355092ef5a8a18f56e8913cf4a201fbe287825b095693c217753361298a565b6137b957600080fd5b600b60008373ffffffffffffffffffffffffffffffffffffffff1673ffffffffffffffffffffffffffffffffffffffff16815260200190815260200160002060009054906101000a900460ff1661380f57600080fd5b80600a60008473ffffffffffffffffffffffffffffffffffffffff1673ffffffffffffffffffffffffffffffffffffffff168152602001908152602001600020600001819055505050565b6000600854905090565b61386c613a56565b600073ffffffffffffffffffffffffffffffffffffffff168173ffffffffffffffffffffffffffffffffffffffff16036138a557600080fd5b80600560006101000a81548173ffffffffffffffffffffffffffffffffffffffff021916908373ffffffffffffffffffffffffffffffffffffffff1602179055508073ffffffffffffffffffffffffffffffffffffffff16613905612764565b73ffffffffffffffffffffffffffffffffffffffff167f38d16b8cac22d99fc7c124b9cd0de2d3fa1faef420bfe791d8c362d765e2270060405160405180910390a350565b6000600b60008373ffffffffffffffffffffffffffffffffffffffff1673ffffffffffffffffffffffffffffffffffffffff16815260200190815260200160002060009054906101000a900460ff166139a257600080fd5b600a60008373ffffffffffffffffffffffffffffffffffffffff1673ffffffffffffffffffffffffffffffffffffffff168152602001908152602001600020601701549050919050565b60007f01ffc9a7000000000000000000000000000000000000000000000000000000007bffffffffffffffffffffffffffffffffffffffffffffffffffffffff1916827bffffffffffffffffffffffffffffffffffffffffffffffffffffffff1916149050919050565b613a5e613bc8565b73ffffffffffffffffffffffffffffffffffffffff16613a7c612764565b73ffffffffffffffffffffffffffffffffffffffff1614613ad2576040517f08c379a0000000000000000000000000000000000000000000000000000000008152600401613ac99061579a565b60405180910390fd5b565b613ae581613ae0613bc8565b613d76565b50565b613af2828261298a565b613bc457600180600084815260200190815260200160002060000160008373ffffffffffffffffffffffffffffffffffffffff1673ffffffffffffffffffffffffffffffffffffffff16815260200190815260200160002060006101000a81548160ff021916908315150217905550613b69613bc8565b73ffffffffffffffffffffffffffffffffffffffff168173ffffffffffffffffffffffffffffffffffffffff16837f2f8788117e7eff1d82e926ec794901d17c78024a50270940304540a733656f0d60405160405180910390a45b5050565b600033905090565b613bda828261298a565b15613cae5760006001600084815260200190815260200160002060000160008373ffffffffffffffffffffffffffffffffffffffff1673ffffffffffffffffffffffffffffffffffffffff16815260200190815260200160002060006101000a81548160ff021916908315150217905550613c53613bc8565b73ffffffffffffffffffffffffffffffffffffffff168173ffffffffffffffffffffffffffffffffffffffff16837ff6391f5c32d9c69d2a47ea670b442974b53935d1edc7fd64eb21e047a839171b60405160405180910390a45b5050565b60008060009054906101000a900473ffffffffffffffffffffffffffffffffffffffff169050816000806101000a81548173ffffffffffffffffffffffffffffffffffffffff021916908373ffffffffffffffffffffffffffffffffffffffff1602179055508173ffffffffffffffffffffffffffffffffffffffff168173ffffffffffffffffffffffffffffffffffffffff167f8be0079c531659141344cd1fd0a4f28419497f9722a3daafe3b4186f6b6457e060405160405180910390a35050565b613d80828261298a565b613df757613d8d81613dfb565b613d9b8360001c6020613e28565b604051602001613dac9291906158c3565b6040516020818303038152906040526040517f08c379a0000000000000000000000000000000000000000000000000000000008152600401613dee9190615936565b60405180910390fd5b5050565b6060613e218273ffffffffffffffffffffffffffffffffffffffff16601460ff16613e28565b9050919050565b606060006002836002613e3b919061538c565b613e459190615958565b67ffffffffffffffff811115613e5e57613e5d6143d1565b5b6040519080825280601f01601f191660200182016040528015613e905781602001600182028036833780820191505090505b5090507f300000000000000000000000000000000000000000000000000000000000000081600081518110613ec857613ec7614f9d565b5b60200101907effffffffffffffffffffffffffffffffffffffffffffffffffffffffffffff1916908160001a9053507f780000000000000000000000000000000000000000000000000000000000000081600181518110613f2c57613f2b614f9d565b5b60200101907effffffffffffffffffffffffffffffffffffffffffffffffffffffffffffff1916908160001a90535060006001846002613f6c919061538c565b613f769190615958565b90505b6001811115614016577f3031323334353637383961626364656600000000000000000000000000000000600f861660108110613fb857613fb7614f9d565b5b1a60f81b828281518110613fcf57613fce614f9d565b5b60200101907effffffffffffffffffffffffffffffffffffffffffffffffffffffffffffff1916908160001a905350600485901c94508061400f9061598c565b9050613f79565b506000841461405a576040517f08c379a000000000000000000000000000000000000000000000000000000000815260040161405190615a01565b60405180910390fd5b8091505092915050565b8260058101928215614093579160200282015b82811115614092578251825591602001919060010190614077565b5b5090506140a09190614196565b5090565b82600a81019282156140d3579160200282015b828111156140d25782518255916020019190600101906140b7565b5b5090506140e09190614196565b5090565b60405180610180016040528060008152602001600081526020016000815260200161410d614151565b8152602001600081526020016000815260200160008152602001600081526020016000815260200161413d614173565b815260200160008152602001600081525090565b6040518060a00160405280600590602082028036833780820191505090505090565b604051806101400160405280600a90602082028036833780820191505090505090565b5b808211156141af576000816000905550600101614197565b5090565b6000604051905090565b600080fd5b600080fd5b60007fffffffff0000000000000000000000000000000000000000000000000000000082169050919050565b6141fc816141c7565b811461420757600080fd5b50565b600081359050614219816141f3565b92915050565b600060208284031215614235576142346141bd565b5b60006142438482850161420a565b91505092915050565b60008115159050919050565b6142618161424c565b82525050565b600060208201905061427c6000830184614258565b92915050565b600073ffffffffffffffffffffffffffffffffffffffff82169050919050565b6000819050919050565b60006142c76142c26142bd84614282565b6142a2565b614282565b9050919050565b60006142d9826142ac565b9050919050565b60006142eb826142ce565b9050919050565b6142fb816142e0565b82525050565b600060208201905061431660008301846142f2565b92915050565b600061432782614282565b9050919050565b6143378161431c565b811461434257600080fd5b50565b6000813590506143548161432e565b92915050565b6000602082840312156143705761436f6141bd565b5b600061437e84828501614345565b91505092915050565b6000819050919050565b61439a81614387565b82525050565b60006020820190506143b56000830184614391565b92915050565b600080fd5b6000601f19601f8301169050919050565b7f4e487b7100000000000000000000000000000000000000000000000000000000600052604160045260246000fd5b614409826143c0565b810181811067ffffffffffffffff82111715614428576144276143d1565b5b80604052505050565b600061443b6141b3565b90506144478282614400565b919050565b600067ffffffffffffffff821115614467576144666143d1565b5b602082029050602081019050919050565b600080fd5b600080fd5b61448b81614387565b811461449657600080fd5b50565b6000813590506144a881614482565b92915050565b600067ffffffffffffffff8211156144c9576144c86143d1565b5b602082029050919050565b60006144e76144e2846144ae565b614431565b9050806020840283018581111561450157614500614478565b5b835b8181101561452a57806145168882614499565b845260208401935050602081019050614503565b5050509392505050565b600082601f830112614549576145486143bb565b5b60056145568482856144d4565b91505092915050565b600067ffffffffffffffff82111561457a576145796143d1565b5b602082029050919050565b60006145986145938461455f565b614431565b905080602084028301858111156145b2576145b1614478565b5b835b818110156145db57806145c78882614499565b8452602084019350506020810190506145b4565b5050509392505050565b600082601f8301126145fa576145f96143bb565b5b600a614607848285614585565b91505092915050565b600061032082840312156146275761462661447d565b5b614632610180614431565b9050600061464284828501614499565b600083015250602061465684828501614499565b602083015250604061466a84828501614499565b604083015250606061467e84828501614534565b60608301525061010061469384828501614499565b6080830152506101206146a884828501614499565b60a0830152506101406146bd84828501614499565b60c0830152506101606146d284828501614499565b60e0830152506101806146e784828501614499565b610100830152506101a06146fd848285016145e5565b610120830152506102e061471384828501614499565b6101408301525061030061472984828501614499565b6101608301525092915050565b60006147496147448461444c565b614431565b905080838252602082019050610320840283018581111561476d5761476c614478565b5b835b8181101561479757806147828882614610565b8452602084019350506103208101905061476f565b5050509392505050565b600082601f8301126147b6576147b56143bb565b5b81356147c6848260208601614736565b91505092915050565b600067ffffffffffffffff8211156147ea576147e96143d1565b5b602082029050602081019050919050565b600061480e614809846147cf565b614431565b9050808382526020820190506020840283018581111561483157614830614478565b5b835b8181101561485a57806148468882614345565b845260208401935050602081019050614833565b5050509392505050565b600082601f830112614879576148786143bb565b5b81356148898482602086016147fb565b91505092915050565b600080604083850312156148a9576148a86141bd565b5b600083013567ffffffffffffffff8111156148c7576148c66141c2565b5b6148d3858286016147a1565b925050602083013567ffffffffffffffff8111156148f4576148f36141c2565b5b61490085828601614864565b9150509250929050565b60008060008060808587031215614924576149236141bd565b5b600061493287828801614499565b945050602061494387828801614499565b935050604061495487828801614499565b925050606061496587828801614499565b91505092959194509250565b600060208284031215614987576149866141bd565b5b600061499584828501614499565b91505092915050565b6000819050919050565b6149b18161499e565b81146149bc57600080fd5b50565b6000813590506149ce816149a8565b92915050565b6000602082840312156149ea576149e96141bd565b5b60006149f8848285016149bf565b91505092915050565b614a0a8161499e565b82525050565b6000602082019050614a256000830184614a01565b92915050565b60008060408385031215614a4257614a416141bd565b5b6000614a50858286016149bf565b9250506020614a6185828601614345565b9150509250929050565b6000614a76826142ce565b9050919050565b614a8681614a6b565b82525050565b6000602082019050614aa16000830184614a7d565b92915050565b60008060408385031215614abe57614abd6141bd565b5b6000614acc85828601614345565b9250506020614add85828601614499565b9150509250929050565b614af081614387565b82525050565b600060059050919050565b600081905092915050565b6000819050919050565b6000614b228383614ae7565b60208301905092915050565b6000602082019050919050565b614b4481614af6565b614b4e8184614b01565b9250614b5982614b0c565b8060005b83811015614b8a578151614b718782614b16565b9650614b7c83614b2e565b925050600181019050614b5d565b505050505050565b6000600a9050919050565b600081905092915050565b6000819050919050565b6000602082019050919050565b614bc881614b92565b614bd28184614b9d565b9250614bdd82614ba8565b8060005b83811015614c0e578151614bf58782614b16565b9650614c0083614bb2565b925050600181019050614be1565b505050505050565b61032082016000820151614c2d6000850182614ae7565b506020820151614c406020850182614ae7565b506040820151614c536040850182614ae7565b506060820151614c666060850182614b3b565b506080820151614c7a610100850182614ae7565b5060a0820151614c8e610120850182614ae7565b5060c0820151614ca2610140850182614ae7565b5060e0820151614cb6610160850182614ae7565b50610100820151614ccb610180850182614ae7565b50610120820151614ce06101a0850182614bbf565b50610140820151614cf56102e0850182614ae7565b50610160820151614d0a610300850182614ae7565b50505050565b600061032082019050614d266000830184614c16565b92915050565b600081905092915050565b614d4081614af6565b614d4a8184614d2c565b9250614d5582614b0c565b8060005b83811015614d86578151614d6d8782614b16565b9650614d7883614b2e565b925050600181019050614d59565b505050505050565b600060a082019050614da36000830184614d37565b92915050565b614db28161431c565b82525050565b6000602082019050614dcd6000830184614da9565b92915050565b600080600060608486031215614dec57614deb6141bd565b5b6000614dfa86828701614345565b9350506020614e0b86828701614499565b9250506040614e1c86828701614499565b9150509250925092565b600081905092915050565b614e3a81614b92565b614e448184614e26565b9250614e4f82614ba8565b8060005b83811015614e80578151614e678782614b16565b9650614e7283614bb2565b925050600181019050614e53565b505050505050565b600061014082019050614e9e6000830184614e31565b92915050565b6000614eaf826142ce565b9050919050565b614ebf81614ea4565b82525050565b6000602082019050614eda6000830184614eb6565b92915050565b60008060408385031215614ef757614ef66141bd565b5b6000614f0585828601614499565b9250506020614f1685828601614345565b9150509250929050565b600082825260208201905092915050565b7f3130320000000000000000000000000000000000000000000000000000000000600082015250565b6000614f67600383614f20565b9150614f7282614f31565b602082019050919050565b60006020820190508181036000830152614f9681614f5a565b9050919050565b7f4e487b7100000000000000000000000000000000000000000000000000000000600052603260045260246000fd5b600081519050919050565b600081905092915050565b6000819050602082019050919050565b614ffb8161431c565b82525050565b600061500d8383614ff2565b60208301905092915050565b6000602082019050919050565b600061503182614fcc565b61503b8185614fd7565b935061504683614fe2565b8060005b8381101561507757815161505e8882615001565b975061506983615019565b92505060018101905061504a565b5085935050505092915050565b60006150908284615026565b915081905092915050565b600081519050919050565b600081905092915050565b6000819050602082019050919050565b6150ca81614387565b82525050565b60006150dc83836150c1565b60208301905092915050565b600081905092915050565b6150fc81614af6565b61510681846150e8565b925061511182614b0c565b8060005b8381101561514257815161512987826150d0565b965061513483614b2e565b925050600181019050615115565b505050505050565b600061515683836150f3565b60a08301905092915050565b600081905092915050565b61517681614b92565b6151808184615162565b925061518b82614ba8565b8060005b838110156151bc5781516151a387826150d0565b96506151ae83614bb2565b92505060018101905061518f565b505050505050565b60006151d0838361516d565b6101408301905092915050565b6000820160008201516151f084826150d0565b935050602082015161520284826150d0565b935050604082015161521484826150d0565b9350506060820151615226848261514a565b935050608082015161523884826150d0565b93505060a082015161524a84826150d0565b93505060c082015161525c84826150d0565b93505060e082015161526e84826150d0565b93505061010082015161528184826150d0565b93505061012082015161529484826151c4565b9350506101408201516152a784826150d0565b9350506101608201516152ba84826150d0565b935050505050565b60006152ce83836151dd565b6103208301905092915050565b6000602082019050919050565b60006152f38261509b565b6152fd81856150a6565b9350615308836150b1565b8060005b8381101561533957815161532088826152c2565b975061532b836152db565b92505060018101905061530c565b5085935050505092915050565b600061535282846152e8565b915081905092915050565b7f4e487b7100000000000000000000000000000000000000000000000000000000600052601160045260246000fd5b600061539782614387565b91506153a283614387565b92508282026153b081614387565b915082820484148315176153c7576153c661535d565b5b5092915050565b6000815190506153dd81614482565b92915050565b6000602082840312156153f9576153f86141bd565b5b6000615407848285016153ce565b91505092915050565b7f3130330000000000000000000000000000000000000000000000000000000000600082015250565b6000615446600383614f20565b915061545182615410565b602082019050919050565b6000602082019050818103600083015261547581615439565b9050919050565b7f416363657373436f6e74726f6c3a2063616e206f6e6c792072656e6f756e636560008201527f20726f6c657320666f722073656c660000000000000000000000000000000000602082015250565b60006154d8602f83614f20565b91506154e38261547c565b604082019050919050565b60006020820190508181036000830152615507816154cb565b9050919050565b60008151905061551d8161432e565b92915050565b600060208284031215615539576155386141bd565b5b60006155478482850161550e565b91505092915050565b600067ffffffffffffffff82111561556b5761556a6143d1565b5b602082029050602081019050919050565b600061558f61558a84615550565b614431565b905080838252602082019050602084028301858111156155b2576155b1614478565b5b835b818110156155db57806155c788826153ce565b8452602084019350506020810190506155b4565b5050509392505050565b600082601f8301126155fa576155f96143bb565b5b815161560a84826020860161557c565b91505092915050565b600060208284031215615629576156286141bd565b5b600082015167ffffffffffffffff811115615647576156466141c2565b5b615653848285016155e5565b91505092915050565b60006040820190506156716000830185614da9565b61567e6020830184614391565b9392505050565b600060408201905061569a6000830185614391565b6156a76020830184614391565b9392505050565b7f3130340000000000000000000000000000000000000000000000000000000000600082015250565b60006156e4600383614f20565b91506156ef826156ae565b602082019050919050565b60006020820190508181036000830152615713816156d7565b9050919050565b600061572582614387565b915061573083614387565b92508282039050818111156157485761574761535d565b5b92915050565b7f4f776e61626c653a2063616c6c6572206973206e6f7420746865206f776e6572600082015250565b6000615784602083614f20565b915061578f8261574e565b602082019050919050565b600060208201905081810360008301526157b381615777565b9050919050565b600081905092915050565b7f416363657373436f6e74726f6c3a206163636f756e7420000000000000000000600082015250565b60006157fb6017836157ba565b9150615806826157c5565b601782019050919050565b600081519050919050565b60005b8381101561583a57808201518184015260208101905061581f565b60008484015250505050565b600061585182615811565b61585b81856157ba565b935061586b81856020860161581c565b80840191505092915050565b7f206973206d697373696e6720726f6c6520000000000000000000000000000000600082015250565b60006158ad6011836157ba565b91506158b882615877565b601182019050919050565b60006158ce826157ee565b91506158da8285615846565b91506158e5826158a0565b91506158f18284615846565b91508190509392505050565b600061590882615811565b6159128185614f20565b935061592281856020860161581c565b61592b816143c0565b840191505092915050565b6000602082019050818103600083015261595081846158fd565b905092915050565b600061596382614387565b915061596e83614387565b92508282019050808211156159865761598561535d565b5b92915050565b600061599782614387565b9150600082036159aa576159a961535d565b5b600182039050919050565b7f537472696e67733a20686578206c656e67746820696e73756666696369656e74600082015250565b60006159eb602083614f20565b91506159f6826159b5565b602082019050919050565b60006020820190508181036000830152615a1a816159de565b905091905056fea264697066735822122018ee119904290bc76c161ce7bed3b43a35ab5406f7fa075316ef18b437b382d564736f6c63430008180033",
  "linkReferences": {},
  "deployedLinkReferences": {}
}