{
  "_format": "hh-sol-artifact-1",
  "contractName": "User",
  "sourceName": "contracts/User.sol",
  "abi": [
    {
      "inputs": [
        {
          "internalType": "address",
          "name": "_gmcContract",
          "type": "address"
        },
        {
          "internalType": "address",
          "name": "_fishermanNFT",
          "type": "address"
        },
        {
          "internalType": "address",
          "name": "_fishingRodNFT",
          "type": "address"
        }
      ],
      "stateMutability": "nonpayable",
      "type": "constructor"
    },
    {
      "anonymous": false,
      "inputs": [
        {
          "indexed": true,
          "internalType": "address",
          "name": "playerAddress",
          "type": "address"
        },
        {
          "indexed": false,
          "internalType": "uint256",
          "name": "newCount",
          "type": "uint256"
        }
      ],
      "name": "BaitCountUpdated",
      "type": "event"
    },
    {
      "anonymous": false,
      "inputs": [
        {
          "indexed": false,
          "internalType": "address",
          "name": "userAddress",
          "type": "address"
        },
        {
          "indexed": false,
          "internalType": "uint256",
          "name": "count",
          "type": "uint256"
        }
      ],
      "name": "ClaimGMC",
      "type": "event"
    },
    {
      "anonymous": false,
      "inputs": [
        {
          "indexed": true,
          "internalType": "address",
          "name": "playerAddress",
          "type": "address"
        },
        {
          "indexed": false,
          "internalType": "uint256",
          "name": "newAmount",
          "type": "uint256"
        }
      ],
      "name": "CollectedGMCUpdated",
      "type": "event"
    },
    {
      "anonymous": false,
      "inputs": [
        {
          "indexed": true,
          "internalType": "address",
          "name": "playerAddress",
          "type": "address"
        },
        {
          "indexed": false,
          "internalType": "uint256",
          "name": "exp",
          "type": "uint256"
        }
      ],
      "name": "ExperienceAdded",
      "type": "event"
    },
    {
      "anonymous": false,
      "inputs": [
        {
          "indexed": true,
          "internalType": "address",
          "name": "playerAddress",
          "type": "address"
        },
        {
          "indexed": false,
          "internalType": "uint256",
          "name": "star",
          "type": "uint256"
        },
        {
          "indexed": false,
          "internalType": "uint256",
          "name": "newCount",
          "type": "uint256"
        }
      ],
      "name": "FishCountUpdated",
      "type": "event"
    },
    {
      "anonymous": false,
      "inputs": [
        {
          "indexed": true,
          "internalType": "address",
          "name": "playerAddress",
          "type": "address"
        },
        {
          "indexed": false,
          "internalType": "uint256",
          "name": "newLevel",
          "type": "uint256"
        }
      ],
      "name": "FishPoolLevelUpdated",
      "type": "event"
    },
    {
      "anonymous": false,
      "inputs": [
        {
          "indexed": true,
          "internalType": "address",
          "name": "playerAddress",
          "type": "address"
        },
        {
          "indexed": false,
          "internalType": "uint256",
          "name": "newFishermanId",
          "type": "uint256"
        }
      ],
      "name": "FishermanChanged",
      "type": "event"
    },
    {
      "anonymous": false,
      "inputs": [
        {
          "indexed": true,
          "internalType": "uint256",
          "name": "levelUpLimit",
          "type": "uint256"
        },
        {
          "indexed": true,
          "internalType": "uint256",
          "name": "baitPurchaseLimit",
          "type": "uint256"
        },
        {
          "indexed": true,
          "internalType": "uint256",
          "name": "baitPrice",
          "type": "uint256"
        }
      ],
      "name": "LimitAttributeUpdate",
      "type": "event"
    },
    {
      "anonymous": false,
      "inputs": [
        {
          "indexed": true,
          "internalType": "address",
          "name": "previousOwner",
          "type": "address"
        },
        {
          "indexed": true,
          "internalType": "address",
          "name": "newOwner",
          "type": "address"
        }
      ],
      "name": "OwnershipTransferStarted",
      "type": "event"
    },
    {
      "anonymous": false,
      "inputs": [
        {
          "indexed": true,
          "internalType": "address",
          "name": "previousOwner",
          "type": "address"
        },
        {
          "indexed": true,
          "internalType": "address",
          "name": "newOwner",
          "type": "address"
        }
      ],
      "name": "OwnershipTransferred",
      "type": "event"
    },
    {
      "anonymous": false,
      "inputs": [
        {
          "indexed": true,
          "internalType": "address",
          "name": "playerAddress",
          "type": "address"
        }
      ],
      "name": "PlayerAdded",
      "type": "event"
    },
    {
      "anonymous": false,
      "inputs": [
        {
          "indexed": true,
          "internalType": "address",
          "name": "playerAddress",
          "type": "address"
        }
      ],
      "name": "PlayerDeleted",
      "type": "event"
    },
    {
      "anonymous": false,
      "inputs": [
        {
          "indexed": true,
          "internalType": "address",
          "name": "playerAddress",
          "type": "address"
        },
        {
          "indexed": false,
          "internalType": "uint256",
          "name": "newLevel",
          "type": "uint256"
        }
      ],
      "name": "PlayerLevelUpdated",
      "type": "event"
    },
    {
      "anonymous": false,
      "inputs": [
        {
          "indexed": true,
          "internalType": "address",
          "name": "playerAddress",
          "type": "address"
        },
        {
          "indexed": false,
          "internalType": "uint256",
          "name": "newLevel",
          "type": "uint256"
        }
      ],
      "name": "PlayerLeveledUp",
      "type": "event"
    },
    {
      "anonymous": false,
      "inputs": [
        {
          "indexed": true,
          "internalType": "address",
          "name": "playerAddress",
          "type": "address"
        },
        {
          "indexed": false,
          "internalType": "uint256",
          "name": "newRodId",
          "type": "uint256"
        }
      ],
      "name": "RodChanged",
      "type": "event"
    },
    {
      "anonymous": false,
      "inputs": [
        {
          "indexed": true,
          "internalType": "bytes32",
          "name": "role",
          "type": "bytes32"
        },
        {
          "indexed": true,
          "internalType": "bytes32",
          "name": "previousAdminRole",
          "type": "bytes32"
        },
        {
          "indexed": true,
          "internalType": "bytes32",
          "name": "newAdminRole",
          "type": "bytes32"
        }
      ],
      "name": "RoleAdminChanged",
      "type": "event"
    },
    {
      "anonymous": false,
      "inputs": [
        {
          "indexed": true,
          "internalType": "bytes32",
          "name": "role",
          "type": "bytes32"
        },
        {
          "indexed": true,
          "internalType": "address",
          "name": "account",
          "type": "address"
        },
        {
          "indexed": true,
          "internalType": "address",
          "name": "sender",
          "type": "address"
        }
      ],
      "name": "RoleGranted",
      "type": "event"
    },
    {
      "anonymous": false,
      "inputs": [
        {
          "indexed": true,
          "internalType": "bytes32",
          "name": "role",
          "type": "bytes32"
        },
        {
          "indexed": true,
          "internalType": "address",
          "name": "account",
          "type": "address"
        },
        {
          "indexed": true,
          "internalType": "address",
          "name": "sender",
          "type": "address"
        }
      ],
      "name": "RoleRevoked",
      "type": "event"
    },
    {
      "anonymous": false,
      "inputs": [
        {
          "components": [
            {
              "internalType": "uint256",
              "name": "fishingCount",
              "type": "uint256"
            },
            {
              "internalType": "uint256",
              "name": "experience",
              "type": "uint256"
            },
            {
              "internalType": "uint256",
              "name": "level",
              "type": "uint256"
            },
            {
              "internalType": "uint256[5]",
              "name": "unlockedFishingSpots",
              "type": "uint256[5]"
            },
            {
              "internalType": "uint256",
              "name": "currentFishingSpot",
              "type": "uint256"
            },
            {
              "internalType": "uint256",
              "name": "fishPoolLevel",
              "type": "uint256"
            },
            {
              "internalType": "uint256",
              "name": "interestRate",
              "type": "uint256"
            },
            {
              "internalType": "uint256",
              "name": "collectedGMC",
              "type": "uint256"
            },
            {
              "internalType": "uint256",
              "name": "baitCount",
              "type": "uint256"
            },
            {
              "internalType": "uint256[10]",
              "name": "fishCount",
              "type": "uint256[10]"
            },
            {
              "internalType": "uint256",
              "name": "currentFishermanNFT",
              "type": "uint256"
            },
            {
              "internalType": "uint256",
              "name": "currentRodNFT",
              "type": "uint256"
            }
          ],
          "indexed": true,
          "internalType": "struct User.PlayerInfo[]",
          "name": "playerInfo",
          "type": "tuple[]"
        },
        {
          "indexed": true,
          "internalType": "address[]",
          "name": "playerAddresses",
          "type": "address[]"
        }
      ],
      "name": "UserDataUpdate",
      "type": "event"
    },
    {
      "inputs": [],
      "name": "ADMIN_ROLE",
      "outputs": [
        {
          "internalType": "bytes32",
          "name": "",
          "type": "bytes32"
        }
      ],
      "stateMutability": "view",
      "type": "function"
    },
    {
      "inputs": [],
      "name": "DEFAULT_ADMIN_ROLE",
      "outputs": [
        {
          "internalType": "bytes32",
          "name": "",
          "type": "bytes32"
        }
      ],
      "stateMutability": "view",
      "type": "function"
    },
    {
      "inputs": [],
      "name": "acceptOwnership",
      "outputs": [],
      "stateMutability": "nonpayable",
      "type": "function"
    },
    {
      "inputs": [
        {
          "internalType": "address",
          "name": "newAdmin",
          "type": "address"
        }
      ],
      "name": "addAdmin",
      "outputs": [],
      "stateMutability": "nonpayable",
      "type": "function"
    },
    {
      "inputs": [
        {
          "internalType": "address",
          "name": "userAddress",
          "type": "address"
        }
      ],
      "name": "addUser",
      "outputs": [],
      "stateMutability": "nonpayable",
      "type": "function"
    },
    {
      "inputs": [],
      "name": "baitPrice",
      "outputs": [
        {
          "internalType": "uint256",
          "name": "",
          "type": "uint256"
        }
      ],
      "stateMutability": "view",
      "type": "function"
    },
    {
      "inputs": [],
      "name": "baitPurchaseLimit",
      "outputs": [
        {
          "internalType": "uint256",
          "name": "",
          "type": "uint256"
        }
      ],
      "stateMutability": "view",
      "type": "function"
    },
    {
      "inputs": [
        {
          "internalType": "uint256",
          "name": "count",
          "type": "uint256"
        }
      ],
      "name": "buyBaits",
      "outputs": [],
      "stateMutability": "nonpayable",
      "type": "function"
    },
    {
      "inputs": [
        {
          "internalType": "address",
          "name": "userAddress",
          "type": "address"
        },
        {
          "internalType": "uint256",
          "name": "count",
          "type": "uint256"
        }
      ],
      "name": "buyBaitsAdmin",
      "outputs": [],
      "stateMutability": "nonpayable",
      "type": "function"
    },
    {
      "inputs": [
        {
          "internalType": "address",
          "name": "userAddress",
          "type": "address"
        },
        {
          "internalType": "uint256",
          "name": "fishermanId",
          "type": "uint256"
        }
      ],
      "name": "changeFisherman",
      "outputs": [],
      "stateMutability": "nonpayable",
      "type": "function"
    },
    {
      "inputs": [
        {
          "internalType": "uint256",
          "name": "rodId",
          "type": "uint256"
        },
        {
          "internalType": "address",
          "name": "userAddress",
          "type": "address"
        }
      ],
      "name": "changeRod",
      "outputs": [],
      "stateMutability": "nonpayable",
      "type": "function"
    },
    {
      "inputs": [
        {
          "internalType": "address",
          "name": "userAddress",
          "type": "address"
        },
        {
          "internalType": "uint256",
          "name": "count",
          "type": "uint256"
        }
      ],
      "name": "claimGMC",
      "outputs": [],
      "stateMutability": "nonpayable",
      "type": "function"
    },
    {
      "inputs": [
        {
          "internalType": "address",
          "name": "userAddress",
          "type": "address"
        }
      ],
      "name": "deleteUser",
      "outputs": [],
      "stateMutability": "nonpayable",
      "type": "function"
    },
    {
      "inputs": [],
      "name": "fishermanNFT",
      "outputs": [
        {
          "internalType": "contract IFishermanNFT",
          "name": "",
          "type": "address"
        }
      ],
      "stateMutability": "view",
      "type": "function"
    },
    {
      "inputs": [],
      "name": "fishingCountLimit",
      "outputs": [
        {
          "internalType": "uint256",
          "name": "",
          "type": "uint256"
        }
      ],
      "stateMutability": "view",
      "type": "function"
    },
    {
      "inputs": [],
      "name": "fishingRodNFT",
      "outputs": [
        {
          "internalType": "contract IFishingRodNFT",
          "name": "",
          "type": "address"
        }
      ],
      "stateMutability": "view",
      "type": "function"
    },
    {
      "inputs": [
        {
          "internalType": "address",
          "name": "playerAddress",
          "type": "address"
        }
      ],
      "name": "getBaitCount",
      "outputs": [
        {
          "internalType": "uint256",
          "name": "",
          "type": "uint256"
        }
      ],
      "stateMutability": "view",
      "type": "function"
    },
    {
      "inputs": [],
      "name": "getBaitPurchaseLimit",
      "outputs": [
        {
          "internalType": "uint256",
          "name": "",
          "type": "uint256"
        }
      ],
      "stateMutability": "view",
      "type": "function"
    },
    {
      "inputs": [
        {
          "internalType": "address",
          "name": "playerAddress",
          "type": "address"
        }
      ],
      "name": "getCollectedGMC",
      "outputs": [
        {
          "internalType": "uint256",
          "name": "",
          "type": "uint256"
        }
      ],
      "stateMutability": "view",
      "type": "function"
    },
    {
      "inputs": [
        {
          "internalType": "address",
          "name": "playerAddress",
          "type": "address"
        }
      ],
      "name": "getCurrentFishermanNFT",
      "outputs": [
        {
          "internalType": "uint256",
          "name": "",
          "type": "uint256"
        }
      ],
      "stateMutability": "view",
      "type": "function"
    },
    {
      "inputs": [
        {
          "internalType": "address",
          "name": "playerAddress",
          "type": "address"
        }
      ],
      "name": "getCurrentFishingRodNFT",
      "outputs": [
        {
          "internalType": "uint256",
          "name": "",
          "type": "uint256"
        }
      ],
      "stateMutability": "view",
      "type": "function"
    },
    {
      "inputs": [
        {
          "internalType": "address",
          "name": "playerAddress",
          "type": "address"
        }
      ],
      "name": "getExperience",
      "outputs": [
        {
          "internalType": "uint256",
          "name": "",
          "type": "uint256"
        }
      ],
      "stateMutability": "view",
      "type": "function"
    },
    {
      "inputs": [
        {
          "internalType": "address",
          "name": "playerAddress",
          "type": "address"
        }
      ],
      "name": "getFishCount",
      "outputs": [
        {
          "internalType": "uint256[10]",
          "name": "",
          "type": "uint256[10]"
        }
      ],
      "stateMutability": "view",
      "type": "function"
    },
    {
      "inputs": [
        {
          "internalType": "address",
          "name": "playerAddress",
          "type": "address"
        }
      ],
      "name": "getFishPoolLevel",
      "outputs": [
        {
          "internalType": "uint256",
          "name": "",
          "type": "uint256"
        }
      ],
      "stateMutability": "view",
      "type": "function"
    },
    {
      "inputs": [],
      "name": "getFishingCountLimit",
      "outputs": [
        {
          "internalType": "uint256",
          "name": "",
          "type": "uint256"
        }
      ],
      "stateMutability": "view",
      "type": "function"
    },
    {
      "inputs": [],
      "name": "getLevelUpLimit",
      "outputs": [
        {
          "internalType": "uint256",
          "name": "",
          "type": "uint256"
        }
      ],
      "stateMutability": "view",
      "type": "function"
    },
    {
      "inputs": [
        {
          "internalType": "address",
          "name": "account",
          "type": "address"
        }
      ],
      "name": "getPlayerInfo",
      "outputs": [
        {
          "components": [
            {
              "internalType": "uint256",
              "name": "fishingCount",
              "type": "uint256"
            },
            {
              "internalType": "uint256",
              "name": "experience",
              "type": "uint256"
            },
            {
              "internalType": "uint256",
              "name": "level",
              "type": "uint256"
            },
            {
              "internalType": "uint256[5]",
              "name": "unlockedFishingSpots",
              "type": "uint256[5]"
            },
            {
              "internalType": "uint256",
              "name": "currentFishingSpot",
              "type": "uint256"
            },
            {
              "internalType": "uint256",
              "name": "fishPoolLevel",
              "type": "uint256"
            },
            {
              "internalType": "uint256",
              "name": "interestRate",
              "type": "uint256"
            },
            {
              "internalType": "uint256",
              "name": "collectedGMC",
              "type": "uint256"
            },
            {
              "internalType": "uint256",
              "name": "baitCount",
              "type": "uint256"
            },
            {
              "internalType": "uint256[10]",
              "name": "fishCount",
              "type": "uint256[10]"
            },
            {
              "internalType": "uint256",
              "name": "currentFishermanNFT",
              "type": "uint256"
            },
            {
              "internalType": "uint256",
              "name": "currentRodNFT",
              "type": "uint256"
            }
          ],
          "internalType": "struct User.PlayerInfo",
          "name": "",
          "type": "tuple"
        }
      ],
      "stateMutability": "view",
      "type": "function"
    },
    {
      "inputs": [
        {
          "internalType": "address",
          "name": "playerAddress",
          "type": "address"
        }
      ],
      "name": "getPlayerLevel",
      "outputs": [
        {
          "internalType": "uint256",
          "name": "",
          "type": "uint256"
        }
      ],
      "stateMutability": "view",
      "type": "function"
    },
    {
      "inputs": [
        {
          "internalType": "bytes32",
          "name": "role",
          "type": "bytes32"
        }
      ],
      "name": "getRoleAdmin",
      "outputs": [
        {
          "internalType": "bytes32",
          "name": "",
          "type": "bytes32"
        }
      ],
      "stateMutability": "view",
      "type": "function"
    },
    {
      "inputs": [
        {
          "internalType": "address",
          "name": "userAddress",
          "type": "address"
        }
      ],
      "name": "getUnlockedFishingSpots",
      "outputs": [
        {
          "internalType": "uint256[5]",
          "name": "",
          "type": "uint256[5]"
        }
      ],
      "stateMutability": "view",
      "type": "function"
    },
    {
      "inputs": [
        {
          "internalType": "address",
          "name": "userAddress",
          "type": "address"
        }
      ],
      "name": "getUser",
      "outputs": [
        {
          "components": [
            {
              "internalType": "uint256",
              "name": "fishingCount",
              "type": "uint256"
            },
            {
              "internalType": "uint256",
              "name": "experience",
              "type": "uint256"
            },
            {
              "internalType": "uint256",
              "name": "level",
              "type": "uint256"
            },
            {
              "internalType": "uint256[5]",
              "name": "unlockedFishingSpots",
              "type": "uint256[5]"
            },
            {
              "internalType": "uint256",
              "name": "currentFishingSpot",
              "type": "uint256"
            },
            {
              "internalType": "uint256",
              "name": "fishPoolLevel",
              "type": "uint256"
            },
            {
              "internalType": "uint256",
              "name": "interestRate",
              "type": "uint256"
            },
            {
              "internalType": "uint256",
              "name": "collectedGMC",
              "type": "uint256"
            },
            {
              "internalType": "uint256",
              "name": "baitCount",
              "type": "uint256"
            },
            {
              "internalType": "uint256[10]",
              "name": "fishCount",
              "type": "uint256[10]"
            },
            {
              "internalType": "uint256",
              "name": "currentFishermanNFT",
              "type": "uint256"
            },
            {
              "internalType": "uint256",
              "name": "currentRodNFT",
              "type": "uint256"
            }
          ],
          "internalType": "struct User.PlayerInfo",
          "name": "",
          "type": "tuple"
        }
      ],
      "stateMutability": "view",
      "type": "function"
    },
    {
      "inputs": [],
      "name": "gmcContract",
      "outputs": [
        {
          "internalType": "contract IGMC",
          "name": "",
          "type": "address"
        }
      ],
      "stateMutability": "view",
      "type": "function"
    },
    {
      "inputs": [
        {
          "internalType": "bytes32",
          "name": "role",
          "type": "bytes32"
        },
        {
          "internalType": "address",
          "name": "account",
          "type": "address"
        }
      ],
      "name": "grantRole",
      "outputs": [],
      "stateMutability": "nonpayable",
      "type": "function"
    },
    {
      "inputs": [
        {
          "internalType": "bytes32",
          "name": "role",
          "type": "bytes32"
        },
        {
          "internalType": "address",
          "name": "account",
          "type": "address"
        }
      ],
      "name": "hasRole",
      "outputs": [
        {
          "internalType": "bool",
          "name": "",
          "type": "bool"
        }
      ],
      "stateMutability": "view",
      "type": "function"
    },
    {
      "inputs": [],
      "name": "levelUpLimit",
      "outputs": [
        {
          "internalType": "uint256",
          "name": "",
          "type": "uint256"
        }
      ],
      "stateMutability": "view",
      "type": "function"
    },
    {
      "inputs": [],
      "name": "owner",
      "outputs": [
        {
          "internalType": "address",
          "name": "",
          "type": "address"
        }
      ],
      "stateMutability": "view",
      "type": "function"
    },
    {
      "inputs": [
        {
          "internalType": "address",
          "name": "admin",
          "type": "address"
        }
      ],
      "name": "removeAdmin",
      "outputs": [],
      "stateMutability": "nonpayable",
      "type": "function"
    },
    {
      "inputs": [],
      "name": "renounceOwnership",
      "outputs": [],
      "stateMutability": "nonpayable",
      "type": "function"
    },
    {
      "inputs": [
        {
          "internalType": "bytes32",
          "name": "role",
          "type": "bytes32"
        },
        {
          "internalType": "address",
          "name": "account",
          "type": "address"
        }
      ],
      "name": "renounceRole",
      "outputs": [],
      "stateMutability": "nonpayable",
      "type": "function"
    },
    {
      "inputs": [
        {
          "internalType": "bytes32",
          "name": "role",
          "type": "bytes32"
        },
        {
          "internalType": "address",
          "name": "account",
          "type": "address"
        }
      ],
      "name": "revokeRole",
      "outputs": [],
      "stateMutability": "nonpayable",
      "type": "function"
    },
    {
      "inputs": [
        {
          "internalType": "address",
          "name": "playerAddress",
          "type": "address"
        },
        {
          "internalType": "uint256",
          "name": "newCount",
          "type": "uint256"
        }
      ],
      "name": "setBaitCount",
      "outputs": [],
      "stateMutability": "nonpayable",
      "type": "function"
    },
    {
      "inputs": [
        {
          "internalType": "uint256",
          "name": "_baitPurchaseLimit",
          "type": "uint256"
        }
      ],
      "name": "setBaitPurchaseLimit",
      "outputs": [],
      "stateMutability": "nonpayable",
      "type": "function"
    },
    {
      "inputs": [
        {
          "internalType": "address",
          "name": "playerAddress",
          "type": "address"
        },
        {
          "internalType": "uint256",
          "name": "newAmount",
          "type": "uint256"
        }
      ],
      "name": "setCollectedGMC",
      "outputs": [],
      "stateMutability": "nonpayable",
      "type": "function"
    },
    {
      "inputs": [
        {
          "internalType": "address",
          "name": "userAddress",
          "type": "address"
        },
        {
          "internalType": "uint256",
          "name": "exp",
          "type": "uint256"
        }
      ],
      "name": "setExperience",
      "outputs": [],
      "stateMutability": "nonpayable",
      "type": "function"
    },
    {
      "inputs": [
        {
          "internalType": "address",
          "name": "playerAddress",
          "type": "address"
        },
        {
          "internalType": "uint256",
          "name": "star",
          "type": "uint256"
        },
        {
          "internalType": "uint256",
          "name": "newCount",
          "type": "uint256"
        }
      ],
      "name": "setFishCount",
      "outputs": [],
      "stateMutability": "nonpayable",
      "type": "function"
    },
    {
      "inputs": [
        {
          "internalType": "address",
          "name": "playerAddress",
          "type": "address"
        },
        {
          "internalType": "uint256",
          "name": "newLevel",
          "type": "uint256"
        }
      ],
      "name": "setFishPoolLevel",
      "outputs": [],
      "stateMutability": "nonpayable",
      "type": "function"
    },
    {
      "inputs": [
        {
          "internalType": "address",
          "name": "userAddress",
          "type": "address"
        },
        {
          "internalType": "uint256",
          "name": "count",
          "type": "uint256"
        }
      ],
      "name": "setFishingCount",
      "outputs": [],
      "stateMutability": "nonpayable",
      "type": "function"
    },
    {
      "inputs": [
        {
          "internalType": "uint256",
          "name": "_fishingCountLimit",
          "type": "uint256"
        }
      ],
      "name": "setFishingCountLimit",
      "outputs": [],
      "stateMutability": "nonpayable",
      "type": "function"
    },
    {
      "inputs": [
        {
          "internalType": "uint256",
          "name": "_levelUpLimit",
          "type": "uint256"
        }
      ],
      "name": "setLevelUpLimit",
      "outputs": [],
      "stateMutability": "nonpayable",
      "type": "function"
    },
    {
      "inputs": [
        {
          "internalType": "address",
          "name": "playerAddress",
          "type": "address"
        },
        {
          "internalType": "uint256",
          "name": "newLevel",
          "type": "uint256"
        }
      ],
      "name": "setPlayerLevel",
      "outputs": [],
      "stateMutability": "nonpayable",
      "type": "function"
    },
    {
      "inputs": [
        {
          "internalType": "bytes4",
          "name": "interfaceId",
          "type": "bytes4"
        }
      ],
      "name": "supportsInterface",
      "outputs": [
        {
          "internalType": "bool",
          "name": "",
          "type": "bool"
        }
      ],
      "stateMutability": "view",
      "type": "function"
    },
    {
      "inputs": [
        {
          "internalType": "address",
          "name": "newOwner",
          "type": "address"
        }
      ],
      "name": "transferOwnership",
      "outputs": [],
      "stateMutability": "nonpayable",
      "type": "function"
    },
    {
      "inputs": [
        {
          "internalType": "uint256",
          "name": "_levelUpLimit",
          "type": "uint256"
        },
        {
          "internalType": "uint256",
          "name": "_baitPurchaseLimit",
          "type": "uint256"
        },
        {
          "internalType": "uint256",
          "name": "_fishingCountLimit",
          "type": "uint256"
        },
        {
          "internalType": "uint256",
          "name": "_baitPrice",
          "type": "uint256"
        }
      ],
      "name": "updateLimitAttribute",
      "outputs": [],
      "stateMutability": "nonpayable",
      "type": "function"
    },
    {
      "inputs": [
        {
          "components": [
            {
              "internalType": "uint256",
              "name": "fishingCount",
              "type": "uint256"
            },
            {
              "internalType": "uint256",
              "name": "experience",
              "type": "uint256"
            },
            {
              "internalType": "uint256",
              "name": "level",
              "type": "uint256"
            },
            {
              "internalType": "uint256[5]",
              "name": "unlockedFishingSpots",
              "type": "uint256[5]"
            },
            {
              "internalType": "uint256",
              "name": "currentFishingSpot",
              "type": "uint256"
            },
            {
              "internalType": "uint256",
              "name": "fishPoolLevel",
              "type": "uint256"
            },
            {
              "internalType": "uint256",
              "name": "interestRate",
              "type": "uint256"
            },
            {
              "internalType": "uint256",
              "name": "collectedGMC",
              "type": "uint256"
            },
            {
              "internalType": "uint256",
              "name": "baitCount",
              "type": "uint256"
            },
            {
              "internalType": "uint256[10]",
              "name": "fishCount",
              "type": "uint256[10]"
            },
            {
              "internalType": "uint256",
              "name": "currentFishermanNFT",
              "type": "uint256"
            },
            {
              "internalType": "uint256",
              "name": "currentRodNFT",
              "type": "uint256"
            }
          ],
          "internalType": "struct User.PlayerInfo[]",
          "name": "playerInfo",
          "type": "tuple[]"
        },
        {
          "internalType": "address[]",
          "name": "playerAddresses",
          "type": "address[]"
        }
      ],
      "name": "updateUserData",
      "outputs": [],
      "stateMutability": "nonpayable",
      "type": "function"
    }
  ],
  "bytecode": "0x60806040523480156200001157600080fd5b506040516200625938038062006259833981810160405281019062000037919062000439565b620000576200004b6200019160201b60201c565b6200019960201b60201c565b60336006819055506063600781905550600a600881905550674563918244f40000600981905550620000936000801b336200025d60201b60201c565b620000c57fa49807205ce4d355092ef5a8a18f56e8913cf4a201fbe287825b095693c21775336200025d60201b60201c565b82600260006101000a81548173ffffffffffffffffffffffffffffffffffffffff021916908373ffffffffffffffffffffffffffffffffffffffff16021790555081600360006101000a81548173ffffffffffffffffffffffffffffffffffffffff021916908373ffffffffffffffffffffffffffffffffffffffff16021790555080600460006101000a81548173ffffffffffffffffffffffffffffffffffffffff021916908373ffffffffffffffffffffffffffffffffffffffff16021790555050505062000495565b600033905090565b60008060009054906101000a900473ffffffffffffffffffffffffffffffffffffffff169050816000806101000a81548173ffffffffffffffffffffffffffffffffffffffff021916908373ffffffffffffffffffffffffffffffffffffffff1602179055508173ffffffffffffffffffffffffffffffffffffffff168173ffffffffffffffffffffffffffffffffffffffff167f8be0079c531659141344cd1fd0a4f28419497f9722a3daafe3b4186f6b6457e060405160405180910390a35050565b6200026f82826200027360201b60201c565b5050565b6200028582826200036460201b60201c565b6200036057600180600084815260200190815260200160002060000160008373ffffffffffffffffffffffffffffffffffffffff1673ffffffffffffffffffffffffffffffffffffffff16815260200190815260200160002060006101000a81548160ff021916908315150217905550620003056200019160201b60201c565b73ffffffffffffffffffffffffffffffffffffffff168173ffffffffffffffffffffffffffffffffffffffff16837f2f8788117e7eff1d82e926ec794901d17c78024a50270940304540a733656f0d60405160405180910390a45b5050565b60006001600084815260200190815260200160002060000160008373ffffffffffffffffffffffffffffffffffffffff1673ffffffffffffffffffffffffffffffffffffffff16815260200190815260200160002060009054906101000a900460ff16905092915050565b600080fd5b600073ffffffffffffffffffffffffffffffffffffffff82169050919050565b60006200040182620003d4565b9050919050565b6200041381620003f4565b81146200041f57600080fd5b50565b600081519050620004338162000408565b92915050565b600080600060608486031215620004555762000454620003cf565b5b6000620004658682870162000422565b9350506020620004788682870162000422565b92505060406200048b8682870162000422565b9150509250925092565b615db480620004a56000396000f3fe608060405234801561001057600080fd5b50600436106103425760003560e01c806379ba5097116101b8578063bf129fd011610104578063e55ae65a116100a2578063eaaaa2341161007c578063eaaaa234146109b7578063f2061405146109d3578063f2fde38b146109f1578063f76b7de514610a0d57610342565b8063e55ae65a14610961578063e678f86c1461097f578063e9bcc5f31461099b57610342565b8063c8001b73116100de578063c8001b73146108ed578063cee8b4aa1461090b578063d547741f14610929578063dea905121461094557610342565b8063bf129fd014610885578063bfb56d62146108a1578063c6051a94146108bd57610342565b806398237be111610171578063a217fddf1161014b578063a217fddf14610811578063a63eba481461082f578063b474ca761461084b578063b5d626c41461086957610342565b806398237be1146107bd5780639af7a00a146107d95780639deedd5b146107f557610342565b806379ba5097146106e75780638c953a78146106f15780638ca5f74d146107215780638da5cb5b1461073f57806391d148541461075d578063951559001461078d57610342565b806348aabab2116102925780636aba920b11610230578063704802751161020a5780637048027514610673578063715018a61461068f57806375b238fc146106995780637757346d146106b757610342565b80636aba920b146105f75780636b743a2c146106135780636f77926b1461064357610342565b8063593284011161026c57806359328401146105715780635c60f226146105a1578063657a9393146105bd5780636667a9a7146105d957610342565b806348aabab21461050757806350a4098a1461053757806353acd2ab1461055557610342565b806322a66172116102ff57806331c4ecdc116102d957806331c4ecdc1461046f57806334b735a11461049f57806336568abe146104cf578063421b2d8b146104eb57610342565b806322a6617214610407578063248a9ca3146104235780632f2ff15d1461045357610342565b806301ffc9a714610347578063047ac5de146103775780631785f53c1461039557806318250e07146103b15780631fbff24f146103cf578063215c5d00146103eb575b600080fd5b610361600480360381019061035c91906144d9565b610a3d565b60405161036e9190614521565b60405180910390f35b61037f610ab7565b60405161038c91906145bb565b60405180910390f35b6103af60048036038101906103aa9190614614565b610add565b005b6103b9610b12565b6040516103c6919061465a565b60405180910390f35b6103e960048036038101906103e49190614b4c565b610b18565b005b61040560048036038101906104009190614bc4565b611283565b005b610421600480360381019061041c9190614c2b565b61130d565b005b61043d60048036038101906104389190614c8e565b61165f565b60405161044a9190614cca565b60405180910390f35b61046d60048036038101906104689190614ce5565b61167f565b005b61048960048036038101906104849190614614565b6116a0565b604051610496919061465a565b60405180910390f35b6104b960048036038101906104b49190614614565b611742565b6040516104c6919061465a565b60405180910390f35b6104e960048036038101906104e49190614ce5565b6117e4565b005b61050560048036038101906105009190614614565b611867565b005b610521600480360381019061051c9190614614565b611b7e565b60405161052e919061465a565b60405180910390f35b61053f611c20565b60405161054c9190614d46565b60405180910390f35b61056f600480360381019061056a9190614d61565b611c46565b005b61058b60048036038101906105869190614614565b611f80565b6040516105989190614fca565b60405180910390f35b6105bb60048036038101906105b69190614614565b6120c8565b005b6105d760048036038101906105d29190614c2b565b6121f0565b005b6105e161222d565b6040516105ee919061465a565b60405180910390f35b610611600480360381019061060c9190614d61565b612237565b005b61062d60048036038101906106289190614614565b612359565b60405161063a919061465a565b60405180910390f35b61065d60048036038101906106589190614614565b6123fb565b60405161066a9190614fca565b60405180910390f35b61068d60048036038101906106889190614614565b6125cc565b005b610697612601565b005b6106a1612615565b6040516106ae9190614cca565b60405180910390f35b6106d160048036038101906106cc9190614614565b612639565b6040516106de919061465a565b60405180910390f35b6106ef6126db565b005b61070b60048036038101906107069190614614565b6127a4565b6040516107189190615048565b60405180910390f35b610729612887565b604051610736919061465a565b60405180910390f35b610747612891565b6040516107549190615072565b60405180910390f35b61077760048036038101906107729190614ce5565b6128ba565b6040516107849190614521565b60405180910390f35b6107a760048036038101906107a29190614614565b612925565b6040516107b4919061465a565b60405180910390f35b6107d760048036038101906107d29190614d61565b6129c7565b005b6107f360048036038101906107ee919061508d565b612d51565b005b61080f600480360381019061080a9190614c2b565b612e89565b005b610819612ec6565b6040516108269190614cca565b60405180910390f35b61084960048036038101906108449190614d61565b612ecd565b005b610853612fef565b604051610860919061465a565b60405180910390f35b610883600480360381019061087e9190614d61565b612ff5565b005b61089f600480360381019061089a9190614d61565b613227565b005b6108bb60048036038101906108b69190614d61565b613349565b005b6108d760048036038101906108d29190614614565b613471565b6040516108e49190615142565b60405180910390f35b6108f5613554565b604051610902919061517f565b60405180910390f35b61091361357a565b604051610920919061465a565b60405180910390f35b610943600480360381019061093e9190614ce5565b613580565b005b61095f600480360381019061095a9190614d61565b6135a1565b005b6109696136c3565b604051610976919061465a565b60405180910390f35b61099960048036038101906109949190614c2b565b6136c9565b005b6109b560048036038101906109b0919061519a565b613706565b005b6109d160048036038101906109cc9190614d61565b613a40565b005b6109db613b14565b6040516109e8919061465a565b60405180910390f35b610a0b6004803603810190610a069190614614565b613b1e565b005b610a276004803603810190610a229190614614565b613c04565b604051610a34919061465a565b60405180910390f35b60007f7965db0b000000000000000000000000000000000000000000000000000000007bffffffffffffffffffffffffffffffffffffffffffffffffffffffff1916827bffffffffffffffffffffffffffffffffffffffffffffffffffffffff19161480610ab05750610aaf82613ca6565b5b9050919050565b600260009054906101000a900473ffffffffffffffffffffffffffffffffffffffff1681565b610ae5613d10565b610b0f7fa49807205ce4d355092ef5a8a18f56e8913cf4a201fbe287825b095693c2177582613580565b50565b60095481565b610b427fa49807205ce4d355092ef5a8a18f56e8913cf4a201fbe287825b095693c21775336128ba565b610b4b57600080fd5b8051825114610b8f576040517f08c379a0000000000000000000000000000000000000000000000000000000008152600401610b8690615237565b60405180910390fd5b60005b825181101561122657600b6000838381518110610bb257610bb1615257565b5b602002602001015173ffffffffffffffffffffffffffffffffffffffff1673ffffffffffffffffffffffffffffffffffffffff16815260200190815260200160002060009054906101000a900460ff16610c0b57600080fd5b828181518110610c1e57610c1d615257565b5b602002602001015160000151600a6000848481518110610c4157610c40615257565b5b602002602001015173ffffffffffffffffffffffffffffffffffffffff1673ffffffffffffffffffffffffffffffffffffffff16815260200190815260200160002060000181905550828181518110610c9d57610c9c615257565b5b602002602001015160200151600a6000848481518110610cc057610cbf615257565b5b602002602001015173ffffffffffffffffffffffffffffffffffffffff1673ffffffffffffffffffffffffffffffffffffffff16815260200190815260200160002060010181905550828181518110610d1c57610d1b615257565b5b602002602001015160400151600a6000848481518110610d3f57610d3e615257565b5b602002602001015173ffffffffffffffffffffffffffffffffffffffff1673ffffffffffffffffffffffffffffffffffffffff16815260200190815260200160002060020181905550828181518110610d9b57610d9a615257565b5b602002602001015160600151600a6000848481518110610dbe57610dbd615257565b5b602002602001015173ffffffffffffffffffffffffffffffffffffffff1673ffffffffffffffffffffffffffffffffffffffff168152602001908152602001600020600301906005610e1192919061431e565b50828181518110610e2557610e24615257565b5b602002602001015160800151600a6000848481518110610e4857610e47615257565b5b602002602001015173ffffffffffffffffffffffffffffffffffffffff1673ffffffffffffffffffffffffffffffffffffffff16815260200190815260200160002060080181905550828181518110610ea457610ea3615257565b5b602002602001015160a00151600a6000848481518110610ec757610ec6615257565b5b602002602001015173ffffffffffffffffffffffffffffffffffffffff1673ffffffffffffffffffffffffffffffffffffffff16815260200190815260200160002060090181905550828181518110610f2357610f22615257565b5b602002602001015160c00151600a6000848481518110610f4657610f45615257565b5b602002602001015173ffffffffffffffffffffffffffffffffffffffff1673ffffffffffffffffffffffffffffffffffffffff168152602001908152602001600020600a0181905550828181518110610fa257610fa1615257565b5b602002602001015160e00151600a6000848481518110610fc557610fc4615257565b5b602002602001015173ffffffffffffffffffffffffffffffffffffffff1673ffffffffffffffffffffffffffffffffffffffff168152602001908152602001600020600b018190555082818151811061102157611020615257565b5b60200260200101516101000151600a600084848151811061104557611044615257565b5b602002602001015173ffffffffffffffffffffffffffffffffffffffff1673ffffffffffffffffffffffffffffffffffffffff168152602001908152602001600020600c01819055508281815181106110a1576110a0615257565b5b60200260200101516101200151600a60008484815181106110c5576110c4615257565b5b602002602001015173ffffffffffffffffffffffffffffffffffffffff1673ffffffffffffffffffffffffffffffffffffffff168152602001908152602001600020600d0190600a61111892919061435e565b5082818151811061112c5761112b615257565b5b60200260200101516101400151600a60008484815181106111505761114f615257565b5b602002602001015173ffffffffffffffffffffffffffffffffffffffff1673ffffffffffffffffffffffffffffffffffffffff168152602001908152602001600020601701819055508281815181106111ac576111ab615257565b5b60200260200101516101600151600a60008484815181106111d0576111cf615257565b5b602002602001015173ffffffffffffffffffffffffffffffffffffffff1673ffffffffffffffffffffffffffffffffffffffff168152602001908152602001600020601801819055508080600101915050610b92565b5080604051611235919061533e565b60405180910390208260405161124b9190615600565b60405180910390207fc91fdb6201eb89b7a1b567d23d3c59bbfd7f7d942aa9e8ad346319d17f0b910860405160405180910390a35050565b6112ad7fa49807205ce4d355092ef5a8a18f56e8913cf4a201fbe287825b095693c21775336128ba565b6112b657600080fd5b836006819055508260078190555081600881905550806009819055506009546007546006547ffb7230b722712fa11b563a061381502fa2e6f8f6432c8af6ec3b309c26e74cb660405160405180910390a450505050565b600b60003373ffffffffffffffffffffffffffffffffffffffff1673ffffffffffffffffffffffffffffffffffffffff16815260200190815260200160002060009054906101000a900460ff1661136357600080fd5b60075481600a60003373ffffffffffffffffffffffffffffffffffffffff1673ffffffffffffffffffffffffffffffffffffffff168152602001908152602001600020600c01546113b49190615646565b11156113f5576040517f08c379a00000000000000000000000000000000000000000000000000000000081526004016113ec906156c6565b60405180910390fd5b60006009548261140591906156e6565b905080600260009054906101000a900473ffffffffffffffffffffffffffffffffffffffff1673ffffffffffffffffffffffffffffffffffffffff166370a08231336040518263ffffffff1660e01b81526004016114639190615072565b602060405180830381865afa158015611480573d6000803e3d6000fd5b505050506040513d601f19601f820116820180604052508101906114a4919061573d565b10156114e5576040517f08c379a00000000000000000000000000000000000000000000000000000000081526004016114dc906157b6565b60405180910390fd5b600260009054906101000a900473ffffffffffffffffffffffffffffffffffffffff1673ffffffffffffffffffffffffffffffffffffffff166342966c68826040518263ffffffff1660e01b8152600401611540919061465a565b600060405180830381600087803b15801561155a57600080fd5b505af115801561156e573d6000803e3d6000fd5b5050505081600a60003373ffffffffffffffffffffffffffffffffffffffff1673ffffffffffffffffffffffffffffffffffffffff168152602001908152602001600020600c0160008282546115c49190615646565b925050819055503373ffffffffffffffffffffffffffffffffffffffff167f61de7c9c9fef84bf815ad3b2d17a9af3d0655af7a1c9423e5d2dee99ec5c6ffc600a60003373ffffffffffffffffffffffffffffffffffffffff1673ffffffffffffffffffffffffffffffffffffffff168152602001908152602001600020600c0154604051611653919061465a565b60405180910390a25050565b600060016000838152602001908152602001600020600101549050919050565b6116888261165f565b61169181613d8e565b61169b8383613da2565b505050565b6000600b60008373ffffffffffffffffffffffffffffffffffffffff1673ffffffffffffffffffffffffffffffffffffffff16815260200190815260200160002060009054906101000a900460ff166116f857600080fd5b600a60008373ffffffffffffffffffffffffffffffffffffffff1673ffffffffffffffffffffffffffffffffffffffff168152602001908152602001600020600901549050919050565b6000600b60008373ffffffffffffffffffffffffffffffffffffffff1673ffffffffffffffffffffffffffffffffffffffff16815260200190815260200160002060009054906101000a900460ff1661179a57600080fd5b600a60008373ffffffffffffffffffffffffffffffffffffffff1673ffffffffffffffffffffffffffffffffffffffff168152602001908152602001600020600201549050919050565b6117ec613e82565b73ffffffffffffffffffffffffffffffffffffffff168173ffffffffffffffffffffffffffffffffffffffff1614611859576040517f08c379a000000000000000000000000000000000000000000000000000000000815260040161185090615848565b60405180910390fd5b6118638282613e8a565b5050565b6118917fa49807205ce4d355092ef5a8a18f56e8913cf4a201fbe287825b095693c21775336128ba565b61189a57600080fd5b600b60008273ffffffffffffffffffffffffffffffffffffffff1673ffffffffffffffffffffffffffffffffffffffff16815260200190815260200160002060009054906101000a900460ff16156118f157600080fd5b604051806101800160405280600a815260200160008152602001600181526020016040518060a001604052806103e981526020016000815260200160008152602001600081526020016000815250815260200160008152602001600181526020016000815260200160008152602001601e8152602001604051806101400160405280600081526020016000815260200160008152602001600081526020016000815260200160008152602001600081526020016000815260200160008152602001600081525081526020017fffffffffffffffffffffffffffffffffffffffffffffffffffffffffffffffff81526020017fffffffffffffffffffffffffffffffffffffffffffffffffffffffffffffffff815250600a60008373ffffffffffffffffffffffffffffffffffffffff1673ffffffffffffffffffffffffffffffffffffffff168152602001908152602001600020600082015181600001556020820151816001015560408201518160020155606082015181600301906005611a7a92919061431e565b506080820151816008015560a0820151816009015560c082015181600a015560e082015181600b015561010082015181600c015561012082015181600d0190600a611ac692919061435e565b50610140820151816017015561016082015181601801559050506001600b60008373ffffffffffffffffffffffffffffffffffffffff1673ffffffffffffffffffffffffffffffffffffffff16815260200190815260200160002060006101000a81548160ff0219169083151502179055508073ffffffffffffffffffffffffffffffffffffffff167ff2ae205522024c14e5a7a26ba6d1fb1252dc8e161b5abc79ed5795fd3c5b926160405160405180910390a250565b6000600b60008373ffffffffffffffffffffffffffffffffffffffff1673ffffffffffffffffffffffffffffffffffffffff16815260200190815260200160002060009054906101000a900460ff16611bd657600080fd5b600a60008373ffffffffffffffffffffffffffffffffffffffff1673ffffffffffffffffffffffffffffffffffffffff168152602001908152602001600020600c01549050919050565b600360009054906101000a900473ffffffffffffffffffffffffffffffffffffffff1681565b611c707fa49807205ce4d355092ef5a8a18f56e8913cf4a201fbe287825b095693c21775336128ba565b611c7957600080fd5b600b60008373ffffffffffffffffffffffffffffffffffffffff1673ffffffffffffffffffffffffffffffffffffffff16815260200190815260200160002060009054906101000a900460ff16611ccf57600080fd5b600060608373ffffffffffffffffffffffffffffffffffffffff16600360009054906101000a900473ffffffffffffffffffffffffffffffffffffffff1673ffffffffffffffffffffffffffffffffffffffff16636352211e856040518263ffffffff1660e01b8152600401611d45919061465a565b602060405180830381865afa158015611d62573d6000803e3d6000fd5b505050506040513d601f19601f82011682018060405250810190611d86919061587d565b73ffffffffffffffffffffffffffffffffffffffff1614611ee157600360009054906101000a900473ffffffffffffffffffffffffffffffffffffffff1673ffffffffffffffffffffffffffffffffffffffff166318148f1b856040518263ffffffff1660e01b8152600401611dfc9190615072565b600060405180830381865afa158015611e19573d6000803e3d6000fd5b505050506040513d6000823e3d601f19601f82011682018060405250810190611e42919061596d565b9050600081511115611eb85780600081518110611e6257611e61615257565b5b6020026020010151915081600a60008673ffffffffffffffffffffffffffffffffffffffff1673ffffffffffffffffffffffffffffffffffffffff16815260200190815260200160002060170181905550611edc565b7fffffffffffffffffffffffffffffffffffffffffffffffffffffffffffffffff91505b611f2c565b82600a60008673ffffffffffffffffffffffffffffffffffffffff1673ffffffffffffffffffffffffffffffffffffffff168152602001908152602001600020601701819055508291505b8373ffffffffffffffffffffffffffffffffffffffff167f08e9f015b4a09d3e66a5d3703ecc0d035e52da672786c75b807300bd4a72530d83604051611f72919061465a565b60405180910390a250505050565b611f8861439e565b600a60008373ffffffffffffffffffffffffffffffffffffffff1673ffffffffffffffffffffffffffffffffffffffff168152602001908152602001600020604051806101800160405290816000820154815260200160018201548152602001600282015481526020016003820160058060200260405190810160405280929190826005801561202d576020028201915b815481526020019060010190808311612019575b505050505081526020016008820154815260200160098201548152602001600a8201548152602001600b8201548152602001600c8201548152602001600d8201600a806020026040519081016040528092919082600a80156120a4576020028201915b815481526020019060010190808311612090575b50505050508152602001601782015481526020016018820154815250509050919050565b6120f27fa49807205ce4d355092ef5a8a18f56e8913cf4a201fbe287825b095693c21775336128ba565b6120fb57600080fd5b600b60008273ffffffffffffffffffffffffffffffffffffffff1673ffffffffffffffffffffffffffffffffffffffff16815260200190815260200160002060009054906101000a900460ff161561215257600080fd5b6001600b60008373ffffffffffffffffffffffffffffffffffffffff1673ffffffffffffffffffffffffffffffffffffffff16815260200190815260200160002060006101000a81548160ff0219169083151502179055508073ffffffffffffffffffffffffffffffffffffffff167fc9fb99cf86984520d29d72f3a41fe637cc23cddff11a003f0b9e27c1652d171860405160405180910390a250565b61221a7fa49807205ce4d355092ef5a8a18f56e8913cf4a201fbe287825b095693c21775336128ba565b61222357600080fd5b8060078190555050565b6000600754905090565b6122617fa49807205ce4d355092ef5a8a18f56e8913cf4a201fbe287825b095693c21775336128ba565b61226a57600080fd5b600b60008373ffffffffffffffffffffffffffffffffffffffff1673ffffffffffffffffffffffffffffffffffffffff16815260200190815260200160002060009054906101000a900460ff166122c057600080fd5b80600a60008473ffffffffffffffffffffffffffffffffffffffff1673ffffffffffffffffffffffffffffffffffffffff168152602001908152602001600020600c01819055508173ffffffffffffffffffffffffffffffffffffffff167f61de7c9c9fef84bf815ad3b2d17a9af3d0655af7a1c9423e5d2dee99ec5c6ffc8260405161234d919061465a565b60405180910390a25050565b6000600b60008373ffffffffffffffffffffffffffffffffffffffff1673ffffffffffffffffffffffffffffffffffffffff16815260200190815260200160002060009054906101000a900460ff166123b157600080fd5b600a60008373ffffffffffffffffffffffffffffffffffffffff1673ffffffffffffffffffffffffffffffffffffffff168152602001908152602001600020600101549050919050565b61240361439e565b61242d7fa49807205ce4d355092ef5a8a18f56e8913cf4a201fbe287825b095693c21775336128ba565b61243657600080fd5b600b60008373ffffffffffffffffffffffffffffffffffffffff1673ffffffffffffffffffffffffffffffffffffffff16815260200190815260200160002060009054906101000a900460ff1661248c57600080fd5b600a60008373ffffffffffffffffffffffffffffffffffffffff1673ffffffffffffffffffffffffffffffffffffffff1681526020019081526020016000206040518061018001604052908160008201548152602001600182015481526020016002820154815260200160038201600580602002604051908101604052809291908260058015612531576020028201915b81548152602001906001019080831161251d575b505050505081526020016008820154815260200160098201548152602001600a8201548152602001600b8201548152602001600c8201548152602001600d8201600a806020026040519081016040528092919082600a80156125a8576020028201915b815481526020019060010190808311612594575b50505050508152602001601782015481526020016018820154815250509050919050565b6125d4613d10565b6125fe7fa49807205ce4d355092ef5a8a18f56e8913cf4a201fbe287825b095693c217758261167f565b50565b612609613d10565b6126136000613f6c565b565b7fa49807205ce4d355092ef5a8a18f56e8913cf4a201fbe287825b095693c2177581565b6000600b60008373ffffffffffffffffffffffffffffffffffffffff1673ffffffffffffffffffffffffffffffffffffffff16815260200190815260200160002060009054906101000a900460ff1661269157600080fd5b600a60008373ffffffffffffffffffffffffffffffffffffffff1673ffffffffffffffffffffffffffffffffffffffff168152602001908152602001600020601801549050919050565b600560009054906101000a900473ffffffffffffffffffffffffffffffffffffffff1673ffffffffffffffffffffffffffffffffffffffff163373ffffffffffffffffffffffffffffffffffffffff161461273557600080fd5b612760600560009054906101000a900473ffffffffffffffffffffffffffffffffffffffff16613f6c565b6000600560006101000a81548173ffffffffffffffffffffffffffffffffffffffff021916908373ffffffffffffffffffffffffffffffffffffffff160217905550565b6127ac61440b565b600b60008373ffffffffffffffffffffffffffffffffffffffff1673ffffffffffffffffffffffffffffffffffffffff16815260200190815260200160002060009054906101000a900460ff1661280257600080fd5b600a60008373ffffffffffffffffffffffffffffffffffffffff1673ffffffffffffffffffffffffffffffffffffffff16815260200190815260200160002060030160058060200260405190810160405280929190826005801561287b576020028201915b815481526020019060010190808311612867575b50505050509050919050565b6000600654905090565b60008060009054906101000a900473ffffffffffffffffffffffffffffffffffffffff16905090565b60006001600084815260200190815260200160002060000160008373ffffffffffffffffffffffffffffffffffffffff1673ffffffffffffffffffffffffffffffffffffffff16815260200190815260200160002060009054906101000a900460ff16905092915050565b6000600b60008373ffffffffffffffffffffffffffffffffffffffff1673ffffffffffffffffffffffffffffffffffffffff16815260200190815260200160002060009054906101000a900460ff1661297d57600080fd5b600a60008373ffffffffffffffffffffffffffffffffffffffff1673ffffffffffffffffffffffffffffffffffffffff168152602001908152602001600020600b01549050919050565b6129f17fa49807205ce4d355092ef5a8a18f56e8913cf4a201fbe287825b095693c21775336128ba565b6129fa57600080fd5b600b60008373ffffffffffffffffffffffffffffffffffffffff1673ffffffffffffffffffffffffffffffffffffffff16815260200190815260200160002060009054906101000a900460ff16612a5057600080fd5b60075481600a60008573ffffffffffffffffffffffffffffffffffffffff1673ffffffffffffffffffffffffffffffffffffffff168152602001908152602001600020600c0154612aa19190615646565b1115612ae2576040517f08c379a0000000000000000000000000000000000000000000000000000000008152600401612ad9906156c6565b60405180910390fd5b600060095482612af291906156e6565b905080600260009054906101000a900473ffffffffffffffffffffffffffffffffffffffff1673ffffffffffffffffffffffffffffffffffffffff166370a08231856040518263ffffffff1660e01b8152600401612b509190615072565b602060405180830381865afa158015612b6d573d6000803e3d6000fd5b505050506040513d601f19601f82011682018060405250810190612b91919061573d565b1015612bd2576040517f08c379a0000000000000000000000000000000000000000000000000000000008152600401612bc9906157b6565b60405180910390fd5b600260009054906101000a900473ffffffffffffffffffffffffffffffffffffffff1673ffffffffffffffffffffffffffffffffffffffff1663beabacc88430846040518463ffffffff1660e01b8152600401612c31939291906159b6565b600060405180830381600087803b158015612c4b57600080fd5b505af1158015612c5f573d6000803e3d6000fd5b5050505081600a60008573ffffffffffffffffffffffffffffffffffffffff1673ffffffffffffffffffffffffffffffffffffffff168152602001908152602001600020600c016000828254612cb59190615646565b925050819055508273ffffffffffffffffffffffffffffffffffffffff167f61de7c9c9fef84bf815ad3b2d17a9af3d0655af7a1c9423e5d2dee99ec5c6ffc600a60008673ffffffffffffffffffffffffffffffffffffffff1673ffffffffffffffffffffffffffffffffffffffff168152602001908152602001600020600c0154604051612d44919061465a565b60405180910390a2505050565b612d7b7fa49807205ce4d355092ef5a8a18f56e8913cf4a201fbe287825b095693c21775336128ba565b612d8457600080fd5b600b60008473ffffffffffffffffffffffffffffffffffffffff1673ffffffffffffffffffffffffffffffffffffffff16815260200190815260200160002060009054906101000a900460ff16612dda57600080fd5b80600a60008573ffffffffffffffffffffffffffffffffffffffff1673ffffffffffffffffffffffffffffffffffffffff168152602001908152602001600020600d0183600a8110612e2f57612e2e615257565b5b01819055508273ffffffffffffffffffffffffffffffffffffffff167f374ed846dc3e18a969aef22277ce3669832a6ea83e3088149d5b40319413de478383604051612e7c9291906159ed565b60405180910390a2505050565b612eb37fa49807205ce4d355092ef5a8a18f56e8913cf4a201fbe287825b095693c21775336128ba565b612ebc57600080fd5b8060088190555050565b6000801b81565b612ef77fa49807205ce4d355092ef5a8a18f56e8913cf4a201fbe287825b095693c21775336128ba565b612f0057600080fd5b600b60008373ffffffffffffffffffffffffffffffffffffffff1673ffffffffffffffffffffffffffffffffffffffff16815260200190815260200160002060009054906101000a900460ff16612f5657600080fd5b80600a60008473ffffffffffffffffffffffffffffffffffffffff1673ffffffffffffffffffffffffffffffffffffffff168152602001908152602001600020600b01819055508173ffffffffffffffffffffffffffffffffffffffff167f7f299cebc3c4384ae412a6ba151d00bd215add4b1379155dd71c3376cbf07df682604051612fe3919061465a565b60405180910390a25050565b60075481565b61301f7fa49807205ce4d355092ef5a8a18f56e8913cf4a201fbe287825b095693c21775336128ba565b61302857600080fd5b600b60008373ffffffffffffffffffffffffffffffffffffffff1673ffffffffffffffffffffffffffffffffffffffff16815260200190815260200160002060009054906101000a900460ff1661307e57600080fd5b6000600a60008473ffffffffffffffffffffffffffffffffffffffff1673ffffffffffffffffffffffffffffffffffffffff168152602001908152602001600020600b0154905081811015613108576040517f08c379a00000000000000000000000000000000000000000000000000000000081526004016130ff90615a62565b60405180910390fd5b600260009054906101000a900473ffffffffffffffffffffffffffffffffffffffff1673ffffffffffffffffffffffffffffffffffffffff166340c10f1984846040518363ffffffff1660e01b8152600401613165929190615a82565b600060405180830381600087803b15801561317f57600080fd5b505af1158015613193573d6000803e3d6000fd5b5050505081816131a39190615aab565b600a60008573ffffffffffffffffffffffffffffffffffffffff1673ffffffffffffffffffffffffffffffffffffffff168152602001908152602001600020600b01819055507f190fe81f396538a8654aafa1adcdabc1825d53aa9fa6dd809991683d943e3a17838360405161321a929190615a82565b60405180910390a1505050565b6132517fa49807205ce4d355092ef5a8a18f56e8913cf4a201fbe287825b095693c21775336128ba565b61325a57600080fd5b600b60008373ffffffffffffffffffffffffffffffffffffffff1673ffffffffffffffffffffffffffffffffffffffff16815260200190815260200160002060009054906101000a900460ff166132b057600080fd5b80600a60008473ffffffffffffffffffffffffffffffffffffffff1673ffffffffffffffffffffffffffffffffffffffff168152602001908152602001600020600901819055508173ffffffffffffffffffffffffffffffffffffffff167f7ed17f7b101bb354c92f134f7c421a00e511b046abf1edceb1956966e74434808260405161333d919061465a565b60405180910390a25050565b6133737fa49807205ce4d355092ef5a8a18f56e8913cf4a201fbe287825b095693c21775336128ba565b61337c57600080fd5b600b60008373ffffffffffffffffffffffffffffffffffffffff1673ffffffffffffffffffffffffffffffffffffffff16815260200190815260200160002060009054906101000a900460ff166133d257600080fd5b6000600a60008473ffffffffffffffffffffffffffffffffffffffff1673ffffffffffffffffffffffffffffffffffffffff16815260200190815260200160002090508181600101819055508273ffffffffffffffffffffffffffffffffffffffff167f564792a0259ee41a56519990d80509a8057848327265f2075bcaac108651eab983604051613464919061465a565b60405180910390a2505050565b61347961442d565b600b60008373ffffffffffffffffffffffffffffffffffffffff1673ffffffffffffffffffffffffffffffffffffffff16815260200190815260200160002060009054906101000a900460ff166134cf57600080fd5b600a60008373ffffffffffffffffffffffffffffffffffffffff1673ffffffffffffffffffffffffffffffffffffffff168152602001908152602001600020600d01600a806020026040519081016040528092919082600a8015613548576020028201915b815481526020019060010190808311613534575b50505050509050919050565b600460009054906101000a900473ffffffffffffffffffffffffffffffffffffffff1681565b60065481565b6135898261165f565b61359281613d8e565b61359c8383613e8a565b505050565b6135cb7fa49807205ce4d355092ef5a8a18f56e8913cf4a201fbe287825b095693c21775336128ba565b6135d457600080fd5b600b60008373ffffffffffffffffffffffffffffffffffffffff1673ffffffffffffffffffffffffffffffffffffffff16815260200190815260200160002060009054906101000a900460ff1661362a57600080fd5b80600a60008473ffffffffffffffffffffffffffffffffffffffff1673ffffffffffffffffffffffffffffffffffffffff168152602001908152602001600020600201819055508173ffffffffffffffffffffffffffffffffffffffff167f7b45410837b569e79f978c88fbb1ab01a26d6922675e4de2fc0bae4e0586ceac826040516136b7919061465a565b60405180910390a25050565b60085481565b6136f37fa49807205ce4d355092ef5a8a18f56e8913cf4a201fbe287825b095693c21775336128ba565b6136fc57600080fd5b8060068190555050565b6137307fa49807205ce4d355092ef5a8a18f56e8913cf4a201fbe287825b095693c21775336128ba565b61373957600080fd5b600b60008273ffffffffffffffffffffffffffffffffffffffff1673ffffffffffffffffffffffffffffffffffffffff16815260200190815260200160002060009054906101000a900460ff1661378f57600080fd5b600060608273ffffffffffffffffffffffffffffffffffffffff16600460009054906101000a900473ffffffffffffffffffffffffffffffffffffffff1673ffffffffffffffffffffffffffffffffffffffff16636352211e866040518263ffffffff1660e01b8152600401613805919061465a565b602060405180830381865afa158015613822573d6000803e3d6000fd5b505050506040513d601f19601f82011682018060405250810190613846919061587d565b73ffffffffffffffffffffffffffffffffffffffff16146139a157600460009054906101000a900473ffffffffffffffffffffffffffffffffffffffff1673ffffffffffffffffffffffffffffffffffffffff166318148f1b846040518263ffffffff1660e01b81526004016138bc9190615072565b600060405180830381865afa1580156138d9573d6000803e3d6000fd5b505050506040513d6000823e3d601f19601f82011682018060405250810190613902919061596d565b9050600081511115613978578060008151811061392257613921615257565b5b6020026020010151915081600a60008573ffffffffffffffffffffffffffffffffffffffff1673ffffffffffffffffffffffffffffffffffffffff1681526020019081526020016000206018018190555061399c565b7fffffffffffffffffffffffffffffffffffffffffffffffffffffffffffffffff91505b6139ec565b83600a60008573ffffffffffffffffffffffffffffffffffffffff1673ffffffffffffffffffffffffffffffffffffffff168152602001908152602001600020601801819055508391505b8273ffffffffffffffffffffffffffffffffffffffff167fcc9803ff35bbb65900301a2b84f90ad432fd23b513fb5dddcb6f4568cb9c54c983604051613a32919061465a565b60405180910390a250505050565b613a6a7fa49807205ce4d355092ef5a8a18f56e8913cf4a201fbe287825b095693c21775336128ba565b613a7357600080fd5b600b60008373ffffffffffffffffffffffffffffffffffffffff1673ffffffffffffffffffffffffffffffffffffffff16815260200190815260200160002060009054906101000a900460ff16613ac957600080fd5b80600a60008473ffffffffffffffffffffffffffffffffffffffff1673ffffffffffffffffffffffffffffffffffffffff168152602001908152602001600020600001819055505050565b6000600854905090565b613b26613d10565b600073ffffffffffffffffffffffffffffffffffffffff168173ffffffffffffffffffffffffffffffffffffffff1603613b5f57600080fd5b80600560006101000a81548173ffffffffffffffffffffffffffffffffffffffff021916908373ffffffffffffffffffffffffffffffffffffffff1602179055508073ffffffffffffffffffffffffffffffffffffffff16613bbf612891565b73ffffffffffffffffffffffffffffffffffffffff167f38d16b8cac22d99fc7c124b9cd0de2d3fa1faef420bfe791d8c362d765e2270060405160405180910390a350565b6000600b60008373ffffffffffffffffffffffffffffffffffffffff1673ffffffffffffffffffffffffffffffffffffffff16815260200190815260200160002060009054906101000a900460ff16613c5c57600080fd5b600a60008373ffffffffffffffffffffffffffffffffffffffff1673ffffffffffffffffffffffffffffffffffffffff168152602001908152602001600020601701549050919050565b60007f01ffc9a7000000000000000000000000000000000000000000000000000000007bffffffffffffffffffffffffffffffffffffffffffffffffffffffff1916827bffffffffffffffffffffffffffffffffffffffffffffffffffffffff1916149050919050565b613d18613e82565b73ffffffffffffffffffffffffffffffffffffffff16613d36612891565b73ffffffffffffffffffffffffffffffffffffffff1614613d8c576040517f08c379a0000000000000000000000000000000000000000000000000000000008152600401613d8390615b2b565b60405180910390fd5b565b613d9f81613d9a613e82565b614030565b50565b613dac82826128ba565b613e7e57600180600084815260200190815260200160002060000160008373ffffffffffffffffffffffffffffffffffffffff1673ffffffffffffffffffffffffffffffffffffffff16815260200190815260200160002060006101000a81548160ff021916908315150217905550613e23613e82565b73ffffffffffffffffffffffffffffffffffffffff168173ffffffffffffffffffffffffffffffffffffffff16837f2f8788117e7eff1d82e926ec794901d17c78024a50270940304540a733656f0d60405160405180910390a45b5050565b600033905090565b613e9482826128ba565b15613f685760006001600084815260200190815260200160002060000160008373ffffffffffffffffffffffffffffffffffffffff1673ffffffffffffffffffffffffffffffffffffffff16815260200190815260200160002060006101000a81548160ff021916908315150217905550613f0d613e82565b73ffffffffffffffffffffffffffffffffffffffff168173ffffffffffffffffffffffffffffffffffffffff16837ff6391f5c32d9c69d2a47ea670b442974b53935d1edc7fd64eb21e047a839171b60405160405180910390a45b5050565b60008060009054906101000a900473ffffffffffffffffffffffffffffffffffffffff169050816000806101000a81548173ffffffffffffffffffffffffffffffffffffffff021916908373ffffffffffffffffffffffffffffffffffffffff1602179055508173ffffffffffffffffffffffffffffffffffffffff168173ffffffffffffffffffffffffffffffffffffffff167f8be0079c531659141344cd1fd0a4f28419497f9722a3daafe3b4186f6b6457e060405160405180910390a35050565b61403a82826128ba565b6140b157614047816140b5565b6140558360001c60206140e2565b604051602001614066929190615c54565b6040516020818303038152906040526040517f08c379a00000000000000000000000000000000000000000000000000000000081526004016140a89190615cc7565b60405180910390fd5b5050565b60606140db8273ffffffffffffffffffffffffffffffffffffffff16601460ff166140e2565b9050919050565b6060600060028360026140f591906156e6565b6140ff9190615646565b67ffffffffffffffff8111156141185761411761468b565b5b6040519080825280601f01601f19166020018201604052801561414a5781602001600182028036833780820191505090505b5090507f30000000000000000000000000000000000000000000000000000000000000008160008151811061418257614181615257565b5b60200101907effffffffffffffffffffffffffffffffffffffffffffffffffffffffffffff1916908160001a9053507f7800000000000000000000000000000000000000000000000000000000000000816001815181106141e6576141e5615257565b5b60200101907effffffffffffffffffffffffffffffffffffffffffffffffffffffffffffff1916908160001a9053506000600184600261422691906156e6565b6142309190615646565b90505b60018111156142d0577f3031323334353637383961626364656600000000000000000000000000000000600f86166010811061427257614271615257565b5b1a60f81b82828151811061428957614288615257565b5b60200101907effffffffffffffffffffffffffffffffffffffffffffffffffffffffffffff1916908160001a905350600485901c9450806142c990615ce9565b9050614233565b5060008414614314576040517f08c379a000000000000000000000000000000000000000000000000000000000815260040161430b90615d5e565b60405180910390fd5b8091505092915050565b826005810192821561434d579160200282015b8281111561434c578251825591602001919060010190614331565b5b50905061435a9190614450565b5090565b82600a810192821561438d579160200282015b8281111561438c578251825591602001919060010190614371565b5b50905061439a9190614450565b5090565b6040518061018001604052806000815260200160008152602001600081526020016143c761440b565b815260200160008152602001600081526020016000815260200160008152602001600081526020016143f761442d565b815260200160008152602001600081525090565b6040518060a00160405280600590602082028036833780820191505090505090565b604051806101400160405280600a90602082028036833780820191505090505090565b5b80821115614469576000816000905550600101614451565b5090565b6000604051905090565b600080fd5b600080fd5b60007fffffffff0000000000000000000000000000000000000000000000000000000082169050919050565b6144b681614481565b81146144c157600080fd5b50565b6000813590506144d3816144ad565b92915050565b6000602082840312156144ef576144ee614477565b5b60006144fd848285016144c4565b91505092915050565b60008115159050919050565b61451b81614506565b82525050565b60006020820190506145366000830184614512565b92915050565b600073ffffffffffffffffffffffffffffffffffffffff82169050919050565b6000819050919050565b600061458161457c6145778461453c565b61455c565b61453c565b9050919050565b600061459382614566565b9050919050565b60006145a582614588565b9050919050565b6145b58161459a565b82525050565b60006020820190506145d060008301846145ac565b92915050565b60006145e18261453c565b9050919050565b6145f1816145d6565b81146145fc57600080fd5b50565b60008135905061460e816145e8565b92915050565b60006020828403121561462a57614629614477565b5b6000614638848285016145ff565b91505092915050565b6000819050919050565b61465481614641565b82525050565b600060208201905061466f600083018461464b565b92915050565b600080fd5b6000601f19601f8301169050919050565b7f4e487b7100000000000000000000000000000000000000000000000000000000600052604160045260246000fd5b6146c38261467a565b810181811067ffffffffffffffff821117156146e2576146e161468b565b5b80604052505050565b60006146f561446d565b905061470182826146ba565b919050565b600067ffffffffffffffff8211156147215761472061468b565b5b602082029050602081019050919050565b600080fd5b600080fd5b61474581614641565b811461475057600080fd5b50565b6000813590506147628161473c565b92915050565b600067ffffffffffffffff8211156147835761478261468b565b5b602082029050919050565b60006147a161479c84614768565b6146eb565b905080602084028301858111156147bb576147ba614732565b5b835b818110156147e457806147d08882614753565b8452602084019350506020810190506147bd565b5050509392505050565b600082601f83011261480357614802614675565b5b600561481084828561478e565b91505092915050565b600067ffffffffffffffff8211156148345761483361468b565b5b602082029050919050565b600061485261484d84614819565b6146eb565b9050806020840283018581111561486c5761486b614732565b5b835b8181101561489557806148818882614753565b84526020840193505060208101905061486e565b5050509392505050565b600082601f8301126148b4576148b3614675565b5b600a6148c184828561483f565b91505092915050565b600061032082840312156148e1576148e0614737565b5b6148ec6101806146eb565b905060006148fc84828501614753565b600083015250602061491084828501614753565b602083015250604061492484828501614753565b6040830152506060614938848285016147ee565b60608301525061010061494d84828501614753565b60808301525061012061496284828501614753565b60a08301525061014061497784828501614753565b60c08301525061016061498c84828501614753565b60e0830152506101806149a184828501614753565b610100830152506101a06149b78482850161489f565b610120830152506102e06149cd84828501614753565b610140830152506103006149e384828501614753565b6101608301525092915050565b6000614a036149fe84614706565b6146eb565b9050808382526020820190506103208402830185811115614a2757614a26614732565b5b835b81811015614a515780614a3c88826148ca565b84526020840193505061032081019050614a29565b5050509392505050565b600082601f830112614a7057614a6f614675565b5b8135614a808482602086016149f0565b91505092915050565b600067ffffffffffffffff821115614aa457614aa361468b565b5b602082029050602081019050919050565b6000614ac8614ac384614a89565b6146eb565b90508083825260208201905060208402830185811115614aeb57614aea614732565b5b835b81811015614b145780614b0088826145ff565b845260208401935050602081019050614aed565b5050509392505050565b600082601f830112614b3357614b32614675565b5b8135614b43848260208601614ab5565b91505092915050565b60008060408385031215614b6357614b62614477565b5b600083013567ffffffffffffffff811115614b8157614b8061447c565b5b614b8d85828601614a5b565b925050602083013567ffffffffffffffff811115614bae57614bad61447c565b5b614bba85828601614b1e565b9150509250929050565b60008060008060808587031215614bde57614bdd614477565b5b6000614bec87828801614753565b9450506020614bfd87828801614753565b9350506040614c0e87828801614753565b9250506060614c1f87828801614753565b91505092959194509250565b600060208284031215614c4157614c40614477565b5b6000614c4f84828501614753565b91505092915050565b6000819050919050565b614c6b81614c58565b8114614c7657600080fd5b50565b600081359050614c8881614c62565b92915050565b600060208284031215614ca457614ca3614477565b5b6000614cb284828501614c79565b91505092915050565b614cc481614c58565b82525050565b6000602082019050614cdf6000830184614cbb565b92915050565b60008060408385031215614cfc57614cfb614477565b5b6000614d0a85828601614c79565b9250506020614d1b858286016145ff565b9150509250929050565b6000614d3082614588565b9050919050565b614d4081614d25565b82525050565b6000602082019050614d5b6000830184614d37565b92915050565b60008060408385031215614d7857614d77614477565b5b6000614d86858286016145ff565b9250506020614d9785828601614753565b9150509250929050565b614daa81614641565b82525050565b600060059050919050565b600081905092915050565b6000819050919050565b6000614ddc8383614da1565b60208301905092915050565b6000602082019050919050565b614dfe81614db0565b614e088184614dbb565b9250614e1382614dc6565b8060005b83811015614e44578151614e2b8782614dd0565b9650614e3683614de8565b925050600181019050614e17565b505050505050565b6000600a9050919050565b600081905092915050565b6000819050919050565b6000602082019050919050565b614e8281614e4c565b614e8c8184614e57565b9250614e9782614e62565b8060005b83811015614ec8578151614eaf8782614dd0565b9650614eba83614e6c565b925050600181019050614e9b565b505050505050565b61032082016000820151614ee76000850182614da1565b506020820151614efa6020850182614da1565b506040820151614f0d6040850182614da1565b506060820151614f206060850182614df5565b506080820151614f34610100850182614da1565b5060a0820151614f48610120850182614da1565b5060c0820151614f5c610140850182614da1565b5060e0820151614f70610160850182614da1565b50610100820151614f85610180850182614da1565b50610120820151614f9a6101a0850182614e79565b50610140820151614faf6102e0850182614da1565b50610160820151614fc4610300850182614da1565b50505050565b600061032082019050614fe06000830184614ed0565b92915050565b600081905092915050565b614ffa81614db0565b6150048184614fe6565b925061500f82614dc6565b8060005b838110156150405781516150278782614dd0565b965061503283614de8565b925050600181019050615013565b505050505050565b600060a08201905061505d6000830184614ff1565b92915050565b61506c816145d6565b82525050565b60006020820190506150876000830184615063565b92915050565b6000806000606084860312156150a6576150a5614477565b5b60006150b4868287016145ff565b93505060206150c586828701614753565b92505060406150d686828701614753565b9150509250925092565b600081905092915050565b6150f481614e4c565b6150fe81846150e0565b925061510982614e62565b8060005b8381101561513a5781516151218782614dd0565b965061512c83614e6c565b92505060018101905061510d565b505050505050565b60006101408201905061515860008301846150eb565b92915050565b600061516982614588565b9050919050565b6151798161515e565b82525050565b60006020820190506151946000830184615170565b92915050565b600080604083850312156151b1576151b0614477565b5b60006151bf85828601614753565b92505060206151d0858286016145ff565b9150509250929050565b600082825260208201905092915050565b7f3130320000000000000000000000000000000000000000000000000000000000600082015250565b60006152216003836151da565b915061522c826151eb565b602082019050919050565b6000602082019050818103600083015261525081615214565b9050919050565b7f4e487b7100000000000000000000000000000000000000000000000000000000600052603260045260246000fd5b600081519050919050565b600081905092915050565b6000819050602082019050919050565b6152b5816145d6565b82525050565b60006152c783836152ac565b60208301905092915050565b6000602082019050919050565b60006152eb82615286565b6152f58185615291565b93506153008361529c565b8060005b8381101561533157815161531888826152bb565b9750615323836152d3565b925050600181019050615304565b5085935050505092915050565b600061534a82846152e0565b915081905092915050565b600081519050919050565b600081905092915050565b6000819050602082019050919050565b61538481614641565b82525050565b6000615396838361537b565b60208301905092915050565b600081905092915050565b6153b681614db0565b6153c081846153a2565b92506153cb82614dc6565b8060005b838110156153fc5781516153e3878261538a565b96506153ee83614de8565b9250506001810190506153cf565b505050505050565b600061541083836153ad565b60a08301905092915050565b600081905092915050565b61543081614e4c565b61543a818461541c565b925061544582614e62565b8060005b8381101561547657815161545d878261538a565b965061546883614e6c565b925050600181019050615449565b505050505050565b600061548a8383615427565b6101408301905092915050565b6000820160008201516154aa848261538a565b93505060208201516154bc848261538a565b93505060408201516154ce848261538a565b93505060608201516154e08482615404565b93505060808201516154f2848261538a565b93505060a0820151615504848261538a565b93505060c0820151615516848261538a565b93505060e0820151615528848261538a565b93505061010082015161553b848261538a565b93505061012082015161554e848261547e565b935050610140820151615561848261538a565b935050610160820151615574848261538a565b935050505050565b60006155888383615497565b6103208301905092915050565b6000602082019050919050565b60006155ad82615355565b6155b78185615360565b93506155c28361536b565b8060005b838110156155f35781516155da888261557c565b97506155e583615595565b9250506001810190506155c6565b5085935050505092915050565b600061560c82846155a2565b915081905092915050565b7f4e487b7100000000000000000000000000000000000000000000000000000000600052601160045260246000fd5b600061565182614641565b915061565c83614641565b925082820190508082111561567457615673615617565b5b92915050565b7f3130380000000000000000000000000000000000000000000000000000000000600082015250565b60006156b06003836151da565b91506156bb8261567a565b602082019050919050565b600060208201905081810360008301526156df816156a3565b9050919050565b60006156f182614641565b91506156fc83614641565b925082820261570a81614641565b9150828204841483151761572157615720615617565b5b5092915050565b6000815190506157378161473c565b92915050565b60006020828403121561575357615752614477565b5b600061576184828501615728565b91505092915050565b7f3130330000000000000000000000000000000000000000000000000000000000600082015250565b60006157a06003836151da565b91506157ab8261576a565b602082019050919050565b600060208201905081810360008301526157cf81615793565b9050919050565b7f416363657373436f6e74726f6c3a2063616e206f6e6c792072656e6f756e636560008201527f20726f6c657320666f722073656c660000000000000000000000000000000000602082015250565b6000615832602f836151da565b915061583d826157d6565b604082019050919050565b6000602082019050818103600083015261586181615825565b9050919050565b600081519050615877816145e8565b92915050565b60006020828403121561589357615892614477565b5b60006158a184828501615868565b91505092915050565b600067ffffffffffffffff8211156158c5576158c461468b565b5b602082029050602081019050919050565b60006158e96158e4846158aa565b6146eb565b9050808382526020820190506020840283018581111561590c5761590b614732565b5b835b8181101561593557806159218882615728565b84526020840193505060208101905061590e565b5050509392505050565b600082601f83011261595457615953614675565b5b81516159648482602086016158d6565b91505092915050565b60006020828403121561598357615982614477565b5b600082015167ffffffffffffffff8111156159a1576159a061447c565b5b6159ad8482850161593f565b91505092915050565b60006060820190506159cb6000830186615063565b6159d86020830185615063565b6159e5604083018461464b565b949350505050565b6000604082019050615a02600083018561464b565b615a0f602083018461464b565b9392505050565b7f3130340000000000000000000000000000000000000000000000000000000000600082015250565b6000615a4c6003836151da565b9150615a5782615a16565b602082019050919050565b60006020820190508181036000830152615a7b81615a3f565b9050919050565b6000604082019050615a976000830185615063565b615aa4602083018461464b565b9392505050565b6000615ab682614641565b9150615ac183614641565b9250828203905081811115615ad957615ad8615617565b5b92915050565b7f4f776e61626c653a2063616c6c6572206973206e6f7420746865206f776e6572600082015250565b6000615b156020836151da565b9150615b2082615adf565b602082019050919050565b60006020820190508181036000830152615b4481615b08565b9050919050565b600081905092915050565b7f416363657373436f6e74726f6c3a206163636f756e7420000000000000000000600082015250565b6000615b8c601783615b4b565b9150615b9782615b56565b601782019050919050565b600081519050919050565b60005b83811015615bcb578082015181840152602081019050615bb0565b60008484015250505050565b6000615be282615ba2565b615bec8185615b4b565b9350615bfc818560208601615bad565b80840191505092915050565b7f206973206d697373696e6720726f6c6520000000000000000000000000000000600082015250565b6000615c3e601183615b4b565b9150615c4982615c08565b601182019050919050565b6000615c5f82615b7f565b9150615c6b8285615bd7565b9150615c7682615c31565b9150615c828284615bd7565b91508190509392505050565b6000615c9982615ba2565b615ca381856151da565b9350615cb3818560208601615bad565b615cbc8161467a565b840191505092915050565b60006020820190508181036000830152615ce18184615c8e565b905092915050565b6000615cf482614641565b915060008203615d0757615d06615617565b5b600182039050919050565b7f537472696e67733a20686578206c656e67746820696e73756666696369656e74600082015250565b6000615d486020836151da565b9150615d5382615d12565b602082019050919050565b60006020820190508181036000830152615d7781615d3b565b905091905056fea2646970667358221220be43fb4b3f028e13ceb4c2fee4b07432b191c498bf22da4a67a41de52d6ae4c064736f6c63430008180033",
  "linkReferences": {},
  "deployedLinkReferences": {}
}