{
  "_format": "hh-sol-artifact-1",
  "contractName": "User",
  "sourceName": "contracts/User.sol",
  "abi": [
    {
      "inputs": [
        {
          "internalType": "address",
          "name": "_gmcContract",
          "type": "address"
        },
        {
          "internalType": "address",
          "name": "_fishermanNFT",
          "type": "address"
        },
        {
          "internalType": "address",
          "name": "_fishingRodNFT",
          "type": "address"
        }
      ],
      "stateMutability": "nonpayable",
      "type": "constructor"
    },
    {
      "anonymous": false,
      "inputs": [
        {
          "indexed": true,
          "internalType": "address",
          "name": "playerAddress",
          "type": "address"
        },
        {
          "indexed": false,
          "internalType": "uint256",
          "name": "newCount",
          "type": "uint256"
        }
      ],
      "name": "BaitCountUpdated",
      "type": "event"
    },
    {
      "anonymous": false,
      "inputs": [
        {
          "indexed": false,
          "internalType": "address",
          "name": "userAddress",
          "type": "address"
        },
        {
          "indexed": false,
          "internalType": "uint256",
          "name": "count",
          "type": "uint256"
        }
      ],
      "name": "ClaimGMC",
      "type": "event"
    },
    {
      "anonymous": false,
      "inputs": [
        {
          "indexed": true,
          "internalType": "address",
          "name": "playerAddress",
          "type": "address"
        },
        {
          "indexed": false,
          "internalType": "uint256",
          "name": "newAmount",
          "type": "uint256"
        }
      ],
      "name": "CollectedGMCUpdated",
      "type": "event"
    },
    {
      "anonymous": false,
      "inputs": [
        {
          "indexed": true,
          "internalType": "address",
          "name": "playerAddress",
          "type": "address"
        },
        {
          "indexed": false,
          "internalType": "uint256",
          "name": "exp",
          "type": "uint256"
        }
      ],
      "name": "ExperienceAdded",
      "type": "event"
    },
    {
      "anonymous": false,
      "inputs": [
        {
          "indexed": true,
          "internalType": "address",
          "name": "playerAddress",
          "type": "address"
        },
        {
          "indexed": false,
          "internalType": "uint256",
          "name": "star",
          "type": "uint256"
        },
        {
          "indexed": false,
          "internalType": "uint256",
          "name": "newCount",
          "type": "uint256"
        }
      ],
      "name": "FishCountUpdated",
      "type": "event"
    },
    {
      "anonymous": false,
      "inputs": [
        {
          "indexed": true,
          "internalType": "address",
          "name": "playerAddress",
          "type": "address"
        },
        {
          "indexed": false,
          "internalType": "uint256",
          "name": "newLevel",
          "type": "uint256"
        }
      ],
      "name": "FishPoolLevelUpdated",
      "type": "event"
    },
    {
      "anonymous": false,
      "inputs": [
        {
          "indexed": true,
          "internalType": "address",
          "name": "playerAddress",
          "type": "address"
        },
        {
          "indexed": false,
          "internalType": "uint256",
          "name": "newFishermanId",
          "type": "uint256"
        }
      ],
      "name": "FishermanChanged",
      "type": "event"
    },
    {
      "anonymous": false,
      "inputs": [
        {
          "indexed": true,
          "internalType": "uint256",
          "name": "levelUpLimit",
          "type": "uint256"
        },
        {
          "indexed": true,
          "internalType": "uint256",
          "name": "baitPurchaseLimit",
          "type": "uint256"
        },
        {
          "indexed": true,
          "internalType": "uint256",
          "name": "baitPrice",
          "type": "uint256"
        }
      ],
      "name": "LimitAttributeUpdate",
      "type": "event"
    },
    {
      "anonymous": false,
      "inputs": [
        {
          "indexed": true,
          "internalType": "address",
          "name": "previousOwner",
          "type": "address"
        },
        {
          "indexed": true,
          "internalType": "address",
          "name": "newOwner",
          "type": "address"
        }
      ],
      "name": "OwnershipTransferStarted",
      "type": "event"
    },
    {
      "anonymous": false,
      "inputs": [
        {
          "indexed": true,
          "internalType": "address",
          "name": "previousOwner",
          "type": "address"
        },
        {
          "indexed": true,
          "internalType": "address",
          "name": "newOwner",
          "type": "address"
        }
      ],
      "name": "OwnershipTransferred",
      "type": "event"
    },
    {
      "anonymous": false,
      "inputs": [
        {
          "indexed": true,
          "internalType": "address",
          "name": "playerAddress",
          "type": "address"
        }
      ],
      "name": "PlayerAdded",
      "type": "event"
    },
    {
      "anonymous": false,
      "inputs": [
        {
          "indexed": true,
          "internalType": "address",
          "name": "playerAddress",
          "type": "address"
        },
        {
          "indexed": false,
          "internalType": "uint256",
          "name": "newLevel",
          "type": "uint256"
        }
      ],
      "name": "PlayerLevelUpdated",
      "type": "event"
    },
    {
      "anonymous": false,
      "inputs": [
        {
          "indexed": true,
          "internalType": "address",
          "name": "playerAddress",
          "type": "address"
        },
        {
          "indexed": false,
          "internalType": "uint256",
          "name": "newLevel",
          "type": "uint256"
        }
      ],
      "name": "PlayerLeveledUp",
      "type": "event"
    },
    {
      "anonymous": false,
      "inputs": [
        {
          "indexed": true,
          "internalType": "address",
          "name": "playerAddress",
          "type": "address"
        },
        {
          "indexed": false,
          "internalType": "uint256",
          "name": "newRodId",
          "type": "uint256"
        }
      ],
      "name": "RodChanged",
      "type": "event"
    },
    {
      "anonymous": false,
      "inputs": [
        {
          "indexed": true,
          "internalType": "bytes32",
          "name": "role",
          "type": "bytes32"
        },
        {
          "indexed": true,
          "internalType": "bytes32",
          "name": "previousAdminRole",
          "type": "bytes32"
        },
        {
          "indexed": true,
          "internalType": "bytes32",
          "name": "newAdminRole",
          "type": "bytes32"
        }
      ],
      "name": "RoleAdminChanged",
      "type": "event"
    },
    {
      "anonymous": false,
      "inputs": [
        {
          "indexed": true,
          "internalType": "bytes32",
          "name": "role",
          "type": "bytes32"
        },
        {
          "indexed": true,
          "internalType": "address",
          "name": "account",
          "type": "address"
        },
        {
          "indexed": true,
          "internalType": "address",
          "name": "sender",
          "type": "address"
        }
      ],
      "name": "RoleGranted",
      "type": "event"
    },
    {
      "anonymous": false,
      "inputs": [
        {
          "indexed": true,
          "internalType": "bytes32",
          "name": "role",
          "type": "bytes32"
        },
        {
          "indexed": true,
          "internalType": "address",
          "name": "account",
          "type": "address"
        },
        {
          "indexed": true,
          "internalType": "address",
          "name": "sender",
          "type": "address"
        }
      ],
      "name": "RoleRevoked",
      "type": "event"
    },
    {
      "anonymous": false,
      "inputs": [
        {
          "components": [
            {
              "internalType": "uint256",
              "name": "fishingCount",
              "type": "uint256"
            },
            {
              "internalType": "uint256",
              "name": "experience",
              "type": "uint256"
            },
            {
              "internalType": "uint256",
              "name": "level",
              "type": "uint256"
            },
            {
              "internalType": "uint256[5]",
              "name": "unlockedFishingSpots",
              "type": "uint256[5]"
            },
            {
              "internalType": "uint256",
              "name": "currentFishingSpot",
              "type": "uint256"
            },
            {
              "internalType": "uint256",
              "name": "fishPoolLevel",
              "type": "uint256"
            },
            {
              "internalType": "uint256",
              "name": "interestRate",
              "type": "uint256"
            },
            {
              "internalType": "uint256",
              "name": "collectedGMC",
              "type": "uint256"
            },
            {
              "internalType": "uint256",
              "name": "baitCount",
              "type": "uint256"
            },
            {
              "internalType": "uint256[10]",
              "name": "fishCount",
              "type": "uint256[10]"
            },
            {
              "internalType": "uint256",
              "name": "currentFishermanNFT",
              "type": "uint256"
            },
            {
              "internalType": "uint256",
              "name": "currentRodNFT",
              "type": "uint256"
            }
          ],
          "indexed": true,
          "internalType": "struct User.PlayerInfo[]",
          "name": "playerInfo",
          "type": "tuple[]"
        },
        {
          "indexed": true,
          "internalType": "address[]",
          "name": "playerAddresses",
          "type": "address[]"
        }
      ],
      "name": "UserDataUpdate",
      "type": "event"
    },
    {
      "inputs": [],
      "name": "ADMIN_ROLE",
      "outputs": [
        {
          "internalType": "bytes32",
          "name": "",
          "type": "bytes32"
        }
      ],
      "stateMutability": "view",
      "type": "function"
    },
    {
      "inputs": [],
      "name": "DEFAULT_ADMIN_ROLE",
      "outputs": [
        {
          "internalType": "bytes32",
          "name": "",
          "type": "bytes32"
        }
      ],
      "stateMutability": "view",
      "type": "function"
    },
    {
      "inputs": [],
      "name": "acceptOwnership",
      "outputs": [],
      "stateMutability": "nonpayable",
      "type": "function"
    },
    {
      "inputs": [
        {
          "internalType": "address",
          "name": "newAdmin",
          "type": "address"
        }
      ],
      "name": "addAdmin",
      "outputs": [],
      "stateMutability": "nonpayable",
      "type": "function"
    },
    {
      "inputs": [
        {
          "internalType": "address",
          "name": "userAddress",
          "type": "address"
        }
      ],
      "name": "addUser",
      "outputs": [],
      "stateMutability": "nonpayable",
      "type": "function"
    },
    {
      "inputs": [],
      "name": "baitPrice",
      "outputs": [
        {
          "internalType": "uint256",
          "name": "",
          "type": "uint256"
        }
      ],
      "stateMutability": "view",
      "type": "function"
    },
    {
      "inputs": [],
      "name": "baitPurchaseLimit",
      "outputs": [
        {
          "internalType": "uint256",
          "name": "",
          "type": "uint256"
        }
      ],
      "stateMutability": "view",
      "type": "function"
    },
    {
      "inputs": [
        {
          "internalType": "uint256",
          "name": "count",
          "type": "uint256"
        }
      ],
      "name": "buyBaits",
      "outputs": [],
      "stateMutability": "nonpayable",
      "type": "function"
    },
    {
      "inputs": [
        {
          "internalType": "address",
          "name": "userAddress",
          "type": "address"
        },
        {
          "internalType": "uint256",
          "name": "count",
          "type": "uint256"
        }
      ],
      "name": "buyBaitsAdmin",
      "outputs": [],
      "stateMutability": "nonpayable",
      "type": "function"
    },
    {
      "inputs": [
        {
          "internalType": "address",
          "name": "userAddress",
          "type": "address"
        },
        {
          "internalType": "uint256",
          "name": "fishermanId",
          "type": "uint256"
        }
      ],
      "name": "changeFisherman",
      "outputs": [],
      "stateMutability": "nonpayable",
      "type": "function"
    },
    {
      "inputs": [
        {
          "internalType": "uint256",
          "name": "rodId",
          "type": "uint256"
        },
        {
          "internalType": "address",
          "name": "userAddress",
          "type": "address"
        }
      ],
      "name": "changeRod",
      "outputs": [],
      "stateMutability": "nonpayable",
      "type": "function"
    },
    {
      "inputs": [
        {
          "internalType": "address",
          "name": "userAddress",
          "type": "address"
        },
        {
          "internalType": "uint256",
          "name": "count",
          "type": "uint256"
        }
      ],
      "name": "claimGMC",
      "outputs": [],
      "stateMutability": "nonpayable",
      "type": "function"
    },
    {
      "inputs": [],
      "name": "fishermanNFT",
      "outputs": [
        {
          "internalType": "contract IFishermanNFT",
          "name": "",
          "type": "address"
        }
      ],
      "stateMutability": "view",
      "type": "function"
    },
    {
      "inputs": [],
      "name": "fishingCountLimit",
      "outputs": [
        {
          "internalType": "uint256",
          "name": "",
          "type": "uint256"
        }
      ],
      "stateMutability": "view",
      "type": "function"
    },
    {
      "inputs": [],
      "name": "fishingRodNFT",
      "outputs": [
        {
          "internalType": "contract IFishingRodNFT",
          "name": "",
          "type": "address"
        }
      ],
      "stateMutability": "view",
      "type": "function"
    },
    {
      "inputs": [
        {
          "internalType": "address",
          "name": "playerAddress",
          "type": "address"
        }
      ],
      "name": "getBaitCount",
      "outputs": [
        {
          "internalType": "uint256",
          "name": "",
          "type": "uint256"
        }
      ],
      "stateMutability": "view",
      "type": "function"
    },
    {
      "inputs": [],
      "name": "getBaitPurchaseLimit",
      "outputs": [
        {
          "internalType": "uint256",
          "name": "",
          "type": "uint256"
        }
      ],
      "stateMutability": "view",
      "type": "function"
    },
    {
      "inputs": [
        {
          "internalType": "address",
          "name": "playerAddress",
          "type": "address"
        }
      ],
      "name": "getCollectedGMC",
      "outputs": [
        {
          "internalType": "uint256",
          "name": "",
          "type": "uint256"
        }
      ],
      "stateMutability": "view",
      "type": "function"
    },
    {
      "inputs": [
        {
          "internalType": "address",
          "name": "playerAddress",
          "type": "address"
        }
      ],
      "name": "getCurrentFishermanNFT",
      "outputs": [
        {
          "internalType": "uint256",
          "name": "",
          "type": "uint256"
        }
      ],
      "stateMutability": "view",
      "type": "function"
    },
    {
      "inputs": [
        {
          "internalType": "address",
          "name": "playerAddress",
          "type": "address"
        }
      ],
      "name": "getCurrentFishingRodNFT",
      "outputs": [
        {
          "internalType": "uint256",
          "name": "",
          "type": "uint256"
        }
      ],
      "stateMutability": "view",
      "type": "function"
    },
    {
      "inputs": [
        {
          "internalType": "address",
          "name": "playerAddress",
          "type": "address"
        }
      ],
      "name": "getExperience",
      "outputs": [
        {
          "internalType": "uint256",
          "name": "",
          "type": "uint256"
        }
      ],
      "stateMutability": "view",
      "type": "function"
    },
    {
      "inputs": [
        {
          "internalType": "address",
          "name": "playerAddress",
          "type": "address"
        }
      ],
      "name": "getFishCount",
      "outputs": [
        {
          "internalType": "uint256[10]",
          "name": "",
          "type": "uint256[10]"
        }
      ],
      "stateMutability": "view",
      "type": "function"
    },
    {
      "inputs": [
        {
          "internalType": "address",
          "name": "playerAddress",
          "type": "address"
        }
      ],
      "name": "getFishPoolLevel",
      "outputs": [
        {
          "internalType": "uint256",
          "name": "",
          "type": "uint256"
        }
      ],
      "stateMutability": "view",
      "type": "function"
    },
    {
      "inputs": [],
      "name": "getFishingCountLimit",
      "outputs": [
        {
          "internalType": "uint256",
          "name": "",
          "type": "uint256"
        }
      ],
      "stateMutability": "view",
      "type": "function"
    },
    {
      "inputs": [],
      "name": "getLevelUpLimit",
      "outputs": [
        {
          "internalType": "uint256",
          "name": "",
          "type": "uint256"
        }
      ],
      "stateMutability": "view",
      "type": "function"
    },
    {
      "inputs": [
        {
          "internalType": "address",
          "name": "account",
          "type": "address"
        }
      ],
      "name": "getPlayerInfo",
      "outputs": [
        {
          "components": [
            {
              "internalType": "uint256",
              "name": "fishingCount",
              "type": "uint256"
            },
            {
              "internalType": "uint256",
              "name": "experience",
              "type": "uint256"
            },
            {
              "internalType": "uint256",
              "name": "level",
              "type": "uint256"
            },
            {
              "internalType": "uint256[5]",
              "name": "unlockedFishingSpots",
              "type": "uint256[5]"
            },
            {
              "internalType": "uint256",
              "name": "currentFishingSpot",
              "type": "uint256"
            },
            {
              "internalType": "uint256",
              "name": "fishPoolLevel",
              "type": "uint256"
            },
            {
              "internalType": "uint256",
              "name": "interestRate",
              "type": "uint256"
            },
            {
              "internalType": "uint256",
              "name": "collectedGMC",
              "type": "uint256"
            },
            {
              "internalType": "uint256",
              "name": "baitCount",
              "type": "uint256"
            },
            {
              "internalType": "uint256[10]",
              "name": "fishCount",
              "type": "uint256[10]"
            },
            {
              "internalType": "uint256",
              "name": "currentFishermanNFT",
              "type": "uint256"
            },
            {
              "internalType": "uint256",
              "name": "currentRodNFT",
              "type": "uint256"
            }
          ],
          "internalType": "struct User.PlayerInfo",
          "name": "",
          "type": "tuple"
        }
      ],
      "stateMutability": "view",
      "type": "function"
    },
    {
      "inputs": [
        {
          "internalType": "address",
          "name": "playerAddress",
          "type": "address"
        }
      ],
      "name": "getPlayerLevel",
      "outputs": [
        {
          "internalType": "uint256",
          "name": "",
          "type": "uint256"
        }
      ],
      "stateMutability": "view",
      "type": "function"
    },
    {
      "inputs": [
        {
          "internalType": "bytes32",
          "name": "role",
          "type": "bytes32"
        }
      ],
      "name": "getRoleAdmin",
      "outputs": [
        {
          "internalType": "bytes32",
          "name": "",
          "type": "bytes32"
        }
      ],
      "stateMutability": "view",
      "type": "function"
    },
    {
      "inputs": [
        {
          "internalType": "address",
          "name": "userAddress",
          "type": "address"
        }
      ],
      "name": "getUnlockedFishingSpots",
      "outputs": [
        {
          "internalType": "uint256[5]",
          "name": "",
          "type": "uint256[5]"
        }
      ],
      "stateMutability": "view",
      "type": "function"
    },
    {
      "inputs": [
        {
          "internalType": "address",
          "name": "userAddress",
          "type": "address"
        }
      ],
      "name": "getUser",
      "outputs": [
        {
          "components": [
            {
              "internalType": "uint256",
              "name": "fishingCount",
              "type": "uint256"
            },
            {
              "internalType": "uint256",
              "name": "experience",
              "type": "uint256"
            },
            {
              "internalType": "uint256",
              "name": "level",
              "type": "uint256"
            },
            {
              "internalType": "uint256[5]",
              "name": "unlockedFishingSpots",
              "type": "uint256[5]"
            },
            {
              "internalType": "uint256",
              "name": "currentFishingSpot",
              "type": "uint256"
            },
            {
              "internalType": "uint256",
              "name": "fishPoolLevel",
              "type": "uint256"
            },
            {
              "internalType": "uint256",
              "name": "interestRate",
              "type": "uint256"
            },
            {
              "internalType": "uint256",
              "name": "collectedGMC",
              "type": "uint256"
            },
            {
              "internalType": "uint256",
              "name": "baitCount",
              "type": "uint256"
            },
            {
              "internalType": "uint256[10]",
              "name": "fishCount",
              "type": "uint256[10]"
            },
            {
              "internalType": "uint256",
              "name": "currentFishermanNFT",
              "type": "uint256"
            },
            {
              "internalType": "uint256",
              "name": "currentRodNFT",
              "type": "uint256"
            }
          ],
          "internalType": "struct User.PlayerInfo",
          "name": "",
          "type": "tuple"
        }
      ],
      "stateMutability": "view",
      "type": "function"
    },
    {
      "inputs": [],
      "name": "gmcContract",
      "outputs": [
        {
          "internalType": "contract IGMC",
          "name": "",
          "type": "address"
        }
      ],
      "stateMutability": "view",
      "type": "function"
    },
    {
      "inputs": [
        {
          "internalType": "bytes32",
          "name": "role",
          "type": "bytes32"
        },
        {
          "internalType": "address",
          "name": "account",
          "type": "address"
        }
      ],
      "name": "grantRole",
      "outputs": [],
      "stateMutability": "nonpayable",
      "type": "function"
    },
    {
      "inputs": [
        {
          "internalType": "bytes32",
          "name": "role",
          "type": "bytes32"
        },
        {
          "internalType": "address",
          "name": "account",
          "type": "address"
        }
      ],
      "name": "hasRole",
      "outputs": [
        {
          "internalType": "bool",
          "name": "",
          "type": "bool"
        }
      ],
      "stateMutability": "view",
      "type": "function"
    },
    {
      "inputs": [],
      "name": "levelUpLimit",
      "outputs": [
        {
          "internalType": "uint256",
          "name": "",
          "type": "uint256"
        }
      ],
      "stateMutability": "view",
      "type": "function"
    },
    {
      "inputs": [],
      "name": "owner",
      "outputs": [
        {
          "internalType": "address",
          "name": "",
          "type": "address"
        }
      ],
      "stateMutability": "view",
      "type": "function"
    },
    {
      "inputs": [
        {
          "internalType": "address",
          "name": "admin",
          "type": "address"
        }
      ],
      "name": "removeAdmin",
      "outputs": [],
      "stateMutability": "nonpayable",
      "type": "function"
    },
    {
      "inputs": [],
      "name": "renounceOwnership",
      "outputs": [],
      "stateMutability": "nonpayable",
      "type": "function"
    },
    {
      "inputs": [
        {
          "internalType": "bytes32",
          "name": "role",
          "type": "bytes32"
        },
        {
          "internalType": "address",
          "name": "account",
          "type": "address"
        }
      ],
      "name": "renounceRole",
      "outputs": [],
      "stateMutability": "nonpayable",
      "type": "function"
    },
    {
      "inputs": [
        {
          "internalType": "bytes32",
          "name": "role",
          "type": "bytes32"
        },
        {
          "internalType": "address",
          "name": "account",
          "type": "address"
        }
      ],
      "name": "revokeRole",
      "outputs": [],
      "stateMutability": "nonpayable",
      "type": "function"
    },
    {
      "inputs": [
        {
          "internalType": "address",
          "name": "playerAddress",
          "type": "address"
        },
        {
          "internalType": "uint256",
          "name": "newCount",
          "type": "uint256"
        }
      ],
      "name": "setBaitCount",
      "outputs": [],
      "stateMutability": "nonpayable",
      "type": "function"
    },
    {
      "inputs": [
        {
          "internalType": "uint256",
          "name": "_baitPurchaseLimit",
          "type": "uint256"
        }
      ],
      "name": "setBaitPurchaseLimit",
      "outputs": [],
      "stateMutability": "nonpayable",
      "type": "function"
    },
    {
      "inputs": [
        {
          "internalType": "address",
          "name": "playerAddress",
          "type": "address"
        },
        {
          "internalType": "uint256",
          "name": "newAmount",
          "type": "uint256"
        }
      ],
      "name": "setCollectedGMC",
      "outputs": [],
      "stateMutability": "nonpayable",
      "type": "function"
    },
    {
      "inputs": [
        {
          "internalType": "address",
          "name": "userAddress",
          "type": "address"
        },
        {
          "internalType": "uint256",
          "name": "exp",
          "type": "uint256"
        }
      ],
      "name": "setExperience",
      "outputs": [],
      "stateMutability": "nonpayable",
      "type": "function"
    },
    {
      "inputs": [
        {
          "internalType": "address",
          "name": "playerAddress",
          "type": "address"
        },
        {
          "internalType": "uint256",
          "name": "star",
          "type": "uint256"
        },
        {
          "internalType": "uint256",
          "name": "newCount",
          "type": "uint256"
        }
      ],
      "name": "setFishCount",
      "outputs": [],
      "stateMutability": "nonpayable",
      "type": "function"
    },
    {
      "inputs": [
        {
          "internalType": "address",
          "name": "playerAddress",
          "type": "address"
        },
        {
          "internalType": "uint256",
          "name": "newLevel",
          "type": "uint256"
        }
      ],
      "name": "setFishPoolLevel",
      "outputs": [],
      "stateMutability": "nonpayable",
      "type": "function"
    },
    {
      "inputs": [
        {
          "internalType": "address",
          "name": "userAddress",
          "type": "address"
        },
        {
          "internalType": "uint256",
          "name": "count",
          "type": "uint256"
        }
      ],
      "name": "setFishingCount",
      "outputs": [],
      "stateMutability": "nonpayable",
      "type": "function"
    },
    {
      "inputs": [
        {
          "internalType": "uint256",
          "name": "_fishingCountLimit",
          "type": "uint256"
        }
      ],
      "name": "setFishingCountLimit",
      "outputs": [],
      "stateMutability": "nonpayable",
      "type": "function"
    },
    {
      "inputs": [
        {
          "internalType": "uint256",
          "name": "_levelUpLimit",
          "type": "uint256"
        }
      ],
      "name": "setLevelUpLimit",
      "outputs": [],
      "stateMutability": "nonpayable",
      "type": "function"
    },
    {
      "inputs": [
        {
          "internalType": "address",
          "name": "playerAddress",
          "type": "address"
        },
        {
          "internalType": "uint256",
          "name": "newLevel",
          "type": "uint256"
        }
      ],
      "name": "setPlayerLevel",
      "outputs": [],
      "stateMutability": "nonpayable",
      "type": "function"
    },
    {
      "inputs": [
        {
          "internalType": "bytes4",
          "name": "interfaceId",
          "type": "bytes4"
        }
      ],
      "name": "supportsInterface",
      "outputs": [
        {
          "internalType": "bool",
          "name": "",
          "type": "bool"
        }
      ],
      "stateMutability": "view",
      "type": "function"
    },
    {
      "inputs": [
        {
          "internalType": "address",
          "name": "newOwner",
          "type": "address"
        }
      ],
      "name": "transferOwnership",
      "outputs": [],
      "stateMutability": "nonpayable",
      "type": "function"
    },
    {
      "inputs": [
        {
          "internalType": "uint256",
          "name": "_levelUpLimit",
          "type": "uint256"
        },
        {
          "internalType": "uint256",
          "name": "_baitPurchaseLimit",
          "type": "uint256"
        },
        {
          "internalType": "uint256",
          "name": "_fishingCountLimit",
          "type": "uint256"
        },
        {
          "internalType": "uint256",
          "name": "_baitPrice",
          "type": "uint256"
        }
      ],
      "name": "updateLimitAttribute",
      "outputs": [],
      "stateMutability": "nonpayable",
      "type": "function"
    },
    {
      "inputs": [
        {
          "components": [
            {
              "internalType": "uint256",
              "name": "fishingCount",
              "type": "uint256"
            },
            {
              "internalType": "uint256",
              "name": "experience",
              "type": "uint256"
            },
            {
              "internalType": "uint256",
              "name": "level",
              "type": "uint256"
            },
            {
              "internalType": "uint256[5]",
              "name": "unlockedFishingSpots",
              "type": "uint256[5]"
            },
            {
              "internalType": "uint256",
              "name": "currentFishingSpot",
              "type": "uint256"
            },
            {
              "internalType": "uint256",
              "name": "fishPoolLevel",
              "type": "uint256"
            },
            {
              "internalType": "uint256",
              "name": "interestRate",
              "type": "uint256"
            },
            {
              "internalType": "uint256",
              "name": "collectedGMC",
              "type": "uint256"
            },
            {
              "internalType": "uint256",
              "name": "baitCount",
              "type": "uint256"
            },
            {
              "internalType": "uint256[10]",
              "name": "fishCount",
              "type": "uint256[10]"
            },
            {
              "internalType": "uint256",
              "name": "currentFishermanNFT",
              "type": "uint256"
            },
            {
              "internalType": "uint256",
              "name": "currentRodNFT",
              "type": "uint256"
            }
          ],
          "internalType": "struct User.PlayerInfo[]",
          "name": "playerInfo",
          "type": "tuple[]"
        },
        {
          "internalType": "address[]",
          "name": "playerAddresses",
          "type": "address[]"
        }
      ],
      "name": "updateUserData",
      "outputs": [],
      "stateMutability": "nonpayable",
      "type": "function"
    }
  ],
  "bytecode": "0x60806040523480156200001157600080fd5b50604051620060bf380380620060bf833981810160405281019062000037919062000439565b620000576200004b6200019160201b60201c565b6200019960201b60201c565b60336006819055506063600781905550600a600881905550674563918244f40000600981905550620000936000801b336200025d60201b60201c565b620000c57fa49807205ce4d355092ef5a8a18f56e8913cf4a201fbe287825b095693c21775336200025d60201b60201c565b82600260006101000a81548173ffffffffffffffffffffffffffffffffffffffff021916908373ffffffffffffffffffffffffffffffffffffffff16021790555081600360006101000a81548173ffffffffffffffffffffffffffffffffffffffff021916908373ffffffffffffffffffffffffffffffffffffffff16021790555080600460006101000a81548173ffffffffffffffffffffffffffffffffffffffff021916908373ffffffffffffffffffffffffffffffffffffffff16021790555050505062000495565b600033905090565b60008060009054906101000a900473ffffffffffffffffffffffffffffffffffffffff169050816000806101000a81548173ffffffffffffffffffffffffffffffffffffffff021916908373ffffffffffffffffffffffffffffffffffffffff1602179055508173ffffffffffffffffffffffffffffffffffffffff168173ffffffffffffffffffffffffffffffffffffffff167f8be0079c531659141344cd1fd0a4f28419497f9722a3daafe3b4186f6b6457e060405160405180910390a35050565b6200026f82826200027360201b60201c565b5050565b6200028582826200036460201b60201c565b6200036057600180600084815260200190815260200160002060000160008373ffffffffffffffffffffffffffffffffffffffff1673ffffffffffffffffffffffffffffffffffffffff16815260200190815260200160002060006101000a81548160ff021916908315150217905550620003056200019160201b60201c565b73ffffffffffffffffffffffffffffffffffffffff168173ffffffffffffffffffffffffffffffffffffffff16837f2f8788117e7eff1d82e926ec794901d17c78024a50270940304540a733656f0d60405160405180910390a45b5050565b60006001600084815260200190815260200160002060000160008373ffffffffffffffffffffffffffffffffffffffff1673ffffffffffffffffffffffffffffffffffffffff16815260200190815260200160002060009054906101000a900460ff16905092915050565b600080fd5b600073ffffffffffffffffffffffffffffffffffffffff82169050919050565b60006200040182620003d4565b9050919050565b6200041381620003f4565b81146200041f57600080fd5b50565b600081519050620004338162000408565b92915050565b600080600060608486031215620004555762000454620003cf565b5b6000620004658682870162000422565b9350506020620004788682870162000422565b92505060406200048b8682870162000422565b9150509250925092565b615c1a80620004a56000396000f3fe608060405234801561001057600080fd5b50600436106103275760003560e01c806379ba5097116101b8578063bf129fd011610104578063e55ae65a116100a2578063eaaaa2341161007c578063eaaaa23414610980578063f20614051461099c578063f2fde38b146109ba578063f76b7de5146109d657610327565b8063e55ae65a1461092a578063e678f86c14610948578063e9bcc5f31461096457610327565b8063c8001b73116100de578063c8001b73146108b6578063cee8b4aa146108d4578063d547741f146108f2578063dea905121461090e57610327565b8063bf129fd01461084e578063bfb56d621461086a578063c6051a941461088657610327565b806398237be111610171578063a217fddf1161014b578063a217fddf146107da578063a63eba48146107f8578063b474ca7614610814578063b5d626c41461083257610327565b806398237be1146107865780639af7a00a146107a25780639deedd5b146107be57610327565b806379ba5097146106b05780638c953a78146106ba5780638ca5f74d146106ea5780638da5cb5b1461070857806391d1485414610726578063951559001461075657610327565b806348aabab2116102775780636aba920b11610230578063704802751161020a578063704802751461063c578063715018a61461065857806375b238fc146106625780637757346d1461068057610327565b80636aba920b146105c05780636b743a2c146105dc5780636f77926b1461060c57610327565b806348aabab2146104ec57806350a4098a1461051c57806353acd2ab1461053a5780635932840114610556578063657a9393146105865780636667a9a7146105a257610327565b806322a66172116102e457806331c4ecdc116102be57806331c4ecdc1461045457806334b735a11461048457806336568abe146104b4578063421b2d8b146104d057610327565b806322a66172146103ec578063248a9ca3146104085780632f2ff15d1461043857610327565b806301ffc9a71461032c578063047ac5de1461035c5780631785f53c1461037a57806318250e07146103965780631fbff24f146103b4578063215c5d00146103d0575b600080fd5b61034660048036038101906103419190614376565b610a06565b60405161035391906143be565b60405180910390f35b610364610a80565b6040516103719190614458565b60405180910390f35b610394600480360381019061038f91906144b1565b610aa6565b005b61039e610adb565b6040516103ab91906144f7565b60405180910390f35b6103ce60048036038101906103c991906149e9565b610ae1565b005b6103ea60048036038101906103e59190614a61565b61124c565b005b61040660048036038101906104019190614ac8565b6112d6565b005b610422600480360381019061041d9190614b2b565b611628565b60405161042f9190614b67565b60405180910390f35b610452600480360381019061044d9190614b82565b611648565b005b61046e600480360381019061046991906144b1565b611669565b60405161047b91906144f7565b60405180910390f35b61049e600480360381019061049991906144b1565b61170b565b6040516104ab91906144f7565b60405180910390f35b6104ce60048036038101906104c99190614b82565b6117ad565b005b6104ea60048036038101906104e591906144b1565b611830565b005b610506600480360381019061050191906144b1565b611b47565b60405161051391906144f7565b60405180910390f35b610524611be9565b6040516105319190614be3565b60405180910390f35b610554600480360381019061054f9190614bfe565b611c0f565b005b610570600480360381019061056b91906144b1565b611f49565b60405161057d9190614e67565b60405180910390f35b6105a0600480360381019061059b9190614ac8565b612091565b005b6105aa6120ce565b6040516105b791906144f7565b60405180910390f35b6105da60048036038101906105d59190614bfe565b6120d8565b005b6105f660048036038101906105f191906144b1565b6121fa565b60405161060391906144f7565b60405180910390f35b610626600480360381019061062191906144b1565b61229c565b6040516106339190614e67565b60405180910390f35b610656600480360381019061065191906144b1565b61246d565b005b6106606124a2565b005b61066a6124b6565b6040516106779190614b67565b60405180910390f35b61069a600480360381019061069591906144b1565b6124da565b6040516106a791906144f7565b60405180910390f35b6106b861257c565b005b6106d460048036038101906106cf91906144b1565b612645565b6040516106e19190614ee5565b60405180910390f35b6106f2612728565b6040516106ff91906144f7565b60405180910390f35b610710612732565b60405161071d9190614f0f565b60405180910390f35b610740600480360381019061073b9190614b82565b61275b565b60405161074d91906143be565b60405180910390f35b610770600480360381019061076b91906144b1565b6127c6565b60405161077d91906144f7565b60405180910390f35b6107a0600480360381019061079b9190614bfe565b612868565b005b6107bc60048036038101906107b79190614f2a565b612bee565b005b6107d860048036038101906107d39190614ac8565b612d26565b005b6107e2612d63565b6040516107ef9190614b67565b60405180910390f35b610812600480360381019061080d9190614bfe565b612d6a565b005b61081c612e8c565b60405161082991906144f7565b60405180910390f35b61084c60048036038101906108479190614bfe565b612e92565b005b61086860048036038101906108639190614bfe565b6130c4565b005b610884600480360381019061087f9190614bfe565b6131e6565b005b6108a0600480360381019061089b91906144b1565b61330e565b6040516108ad9190614fdf565b60405180910390f35b6108be6133f1565b6040516108cb919061501c565b60405180910390f35b6108dc613417565b6040516108e991906144f7565b60405180910390f35b61090c60048036038101906109079190614b82565b61341d565b005b61092860048036038101906109239190614bfe565b61343e565b005b610932613560565b60405161093f91906144f7565b60405180910390f35b610962600480360381019061095d9190614ac8565b613566565b005b61097e60048036038101906109799190615037565b6135a3565b005b61099a60048036038101906109959190614bfe565b6138dd565b005b6109a46139b1565b6040516109b191906144f7565b60405180910390f35b6109d460048036038101906109cf91906144b1565b6139bb565b005b6109f060048036038101906109eb91906144b1565b613aa1565b6040516109fd91906144f7565b60405180910390f35b60007f7965db0b000000000000000000000000000000000000000000000000000000007bffffffffffffffffffffffffffffffffffffffffffffffffffffffff1916827bffffffffffffffffffffffffffffffffffffffffffffffffffffffff19161480610a795750610a7882613b43565b5b9050919050565b600260009054906101000a900473ffffffffffffffffffffffffffffffffffffffff1681565b610aae613bad565b610ad87fa49807205ce4d355092ef5a8a18f56e8913cf4a201fbe287825b095693c217758261341d565b50565b60095481565b610b0b7fa49807205ce4d355092ef5a8a18f56e8913cf4a201fbe287825b095693c217753361275b565b610b1457600080fd5b8051825114610b58576040517f08c379a0000000000000000000000000000000000000000000000000000000008152600401610b4f906150d4565b60405180910390fd5b60005b82518110156111ef57600b6000838381518110610b7b57610b7a6150f4565b5b602002602001015173ffffffffffffffffffffffffffffffffffffffff1673ffffffffffffffffffffffffffffffffffffffff16815260200190815260200160002060009054906101000a900460ff16610bd457600080fd5b828181518110610be757610be66150f4565b5b602002602001015160000151600a6000848481518110610c0a57610c096150f4565b5b602002602001015173ffffffffffffffffffffffffffffffffffffffff1673ffffffffffffffffffffffffffffffffffffffff16815260200190815260200160002060000181905550828181518110610c6657610c656150f4565b5b602002602001015160200151600a6000848481518110610c8957610c886150f4565b5b602002602001015173ffffffffffffffffffffffffffffffffffffffff1673ffffffffffffffffffffffffffffffffffffffff16815260200190815260200160002060010181905550828181518110610ce557610ce46150f4565b5b602002602001015160400151600a6000848481518110610d0857610d076150f4565b5b602002602001015173ffffffffffffffffffffffffffffffffffffffff1673ffffffffffffffffffffffffffffffffffffffff16815260200190815260200160002060020181905550828181518110610d6457610d636150f4565b5b602002602001015160600151600a6000848481518110610d8757610d866150f4565b5b602002602001015173ffffffffffffffffffffffffffffffffffffffff1673ffffffffffffffffffffffffffffffffffffffff168152602001908152602001600020600301906005610dda9291906141bb565b50828181518110610dee57610ded6150f4565b5b602002602001015160800151600a6000848481518110610e1157610e106150f4565b5b602002602001015173ffffffffffffffffffffffffffffffffffffffff1673ffffffffffffffffffffffffffffffffffffffff16815260200190815260200160002060080181905550828181518110610e6d57610e6c6150f4565b5b602002602001015160a00151600a6000848481518110610e9057610e8f6150f4565b5b602002602001015173ffffffffffffffffffffffffffffffffffffffff1673ffffffffffffffffffffffffffffffffffffffff16815260200190815260200160002060090181905550828181518110610eec57610eeb6150f4565b5b602002602001015160c00151600a6000848481518110610f0f57610f0e6150f4565b5b602002602001015173ffffffffffffffffffffffffffffffffffffffff1673ffffffffffffffffffffffffffffffffffffffff168152602001908152602001600020600a0181905550828181518110610f6b57610f6a6150f4565b5b602002602001015160e00151600a6000848481518110610f8e57610f8d6150f4565b5b602002602001015173ffffffffffffffffffffffffffffffffffffffff1673ffffffffffffffffffffffffffffffffffffffff168152602001908152602001600020600b0181905550828181518110610fea57610fe96150f4565b5b60200260200101516101000151600a600084848151811061100e5761100d6150f4565b5b602002602001015173ffffffffffffffffffffffffffffffffffffffff1673ffffffffffffffffffffffffffffffffffffffff168152602001908152602001600020600c018190555082818151811061106a576110696150f4565b5b60200260200101516101200151600a600084848151811061108e5761108d6150f4565b5b602002602001015173ffffffffffffffffffffffffffffffffffffffff1673ffffffffffffffffffffffffffffffffffffffff168152602001908152602001600020600d0190600a6110e19291906141fb565b508281815181106110f5576110f46150f4565b5b60200260200101516101400151600a6000848481518110611119576111186150f4565b5b602002602001015173ffffffffffffffffffffffffffffffffffffffff1673ffffffffffffffffffffffffffffffffffffffff16815260200190815260200160002060170181905550828181518110611175576111746150f4565b5b60200260200101516101600151600a6000848481518110611199576111986150f4565b5b602002602001015173ffffffffffffffffffffffffffffffffffffffff1673ffffffffffffffffffffffffffffffffffffffff168152602001908152602001600020601801819055508080600101915050610b5b565b50806040516111fe91906151db565b604051809103902082604051611214919061549d565b60405180910390207fc91fdb6201eb89b7a1b567d23d3c59bbfd7f7d942aa9e8ad346319d17f0b910860405160405180910390a35050565b6112767fa49807205ce4d355092ef5a8a18f56e8913cf4a201fbe287825b095693c217753361275b565b61127f57600080fd5b836006819055508260078190555081600881905550806009819055506009546007546006547ffb7230b722712fa11b563a061381502fa2e6f8f6432c8af6ec3b309c26e74cb660405160405180910390a450505050565b600b60003373ffffffffffffffffffffffffffffffffffffffff1673ffffffffffffffffffffffffffffffffffffffff16815260200190815260200160002060009054906101000a900460ff1661132c57600080fd5b60075481600a60003373ffffffffffffffffffffffffffffffffffffffff1673ffffffffffffffffffffffffffffffffffffffff168152602001908152602001600020600c015461137d91906154e3565b11156113be576040517f08c379a00000000000000000000000000000000000000000000000000000000081526004016113b590615563565b60405180910390fd5b6000600954826113ce9190615583565b905080600260009054906101000a900473ffffffffffffffffffffffffffffffffffffffff1673ffffffffffffffffffffffffffffffffffffffff166370a08231336040518263ffffffff1660e01b815260040161142c9190614f0f565b602060405180830381865afa158015611449573d6000803e3d6000fd5b505050506040513d601f19601f8201168201806040525081019061146d91906155da565b10156114ae576040517f08c379a00000000000000000000000000000000000000000000000000000000081526004016114a590615653565b60405180910390fd5b600260009054906101000a900473ffffffffffffffffffffffffffffffffffffffff1673ffffffffffffffffffffffffffffffffffffffff166342966c68826040518263ffffffff1660e01b815260040161150991906144f7565b600060405180830381600087803b15801561152357600080fd5b505af1158015611537573d6000803e3d6000fd5b5050505081600a60003373ffffffffffffffffffffffffffffffffffffffff1673ffffffffffffffffffffffffffffffffffffffff168152602001908152602001600020600c01600082825461158d91906154e3565b925050819055503373ffffffffffffffffffffffffffffffffffffffff167f61de7c9c9fef84bf815ad3b2d17a9af3d0655af7a1c9423e5d2dee99ec5c6ffc600a60003373ffffffffffffffffffffffffffffffffffffffff1673ffffffffffffffffffffffffffffffffffffffff168152602001908152602001600020600c015460405161161c91906144f7565b60405180910390a25050565b600060016000838152602001908152602001600020600101549050919050565b61165182611628565b61165a81613c2b565b6116648383613c3f565b505050565b6000600b60008373ffffffffffffffffffffffffffffffffffffffff1673ffffffffffffffffffffffffffffffffffffffff16815260200190815260200160002060009054906101000a900460ff166116c157600080fd5b600a60008373ffffffffffffffffffffffffffffffffffffffff1673ffffffffffffffffffffffffffffffffffffffff168152602001908152602001600020600901549050919050565b6000600b60008373ffffffffffffffffffffffffffffffffffffffff1673ffffffffffffffffffffffffffffffffffffffff16815260200190815260200160002060009054906101000a900460ff1661176357600080fd5b600a60008373ffffffffffffffffffffffffffffffffffffffff1673ffffffffffffffffffffffffffffffffffffffff168152602001908152602001600020600201549050919050565b6117b5613d1f565b73ffffffffffffffffffffffffffffffffffffffff168173ffffffffffffffffffffffffffffffffffffffff1614611822576040517f08c379a0000000000000000000000000000000000000000000000000000000008152600401611819906156e5565b60405180910390fd5b61182c8282613d27565b5050565b61185a7fa49807205ce4d355092ef5a8a18f56e8913cf4a201fbe287825b095693c217753361275b565b61186357600080fd5b600b60008273ffffffffffffffffffffffffffffffffffffffff1673ffffffffffffffffffffffffffffffffffffffff16815260200190815260200160002060009054906101000a900460ff16156118ba57600080fd5b604051806101800160405280600a815260200160008152602001600181526020016040518060a001604052806103e981526020016000815260200160008152602001600081526020016000815250815260200160008152602001600181526020016000815260200160008152602001601e8152602001604051806101400160405280600081526020016000815260200160008152602001600081526020016000815260200160008152602001600081526020016000815260200160008152602001600081525081526020017fffffffffffffffffffffffffffffffffffffffffffffffffffffffffffffffff81526020017fffffffffffffffffffffffffffffffffffffffffffffffffffffffffffffffff815250600a60008373ffffffffffffffffffffffffffffffffffffffff1673ffffffffffffffffffffffffffffffffffffffff168152602001908152602001600020600082015181600001556020820151816001015560408201518160020155606082015181600301906005611a439291906141bb565b506080820151816008015560a0820151816009015560c082015181600a015560e082015181600b015561010082015181600c015561012082015181600d0190600a611a8f9291906141fb565b50610140820151816017015561016082015181601801559050506001600b60008373ffffffffffffffffffffffffffffffffffffffff1673ffffffffffffffffffffffffffffffffffffffff16815260200190815260200160002060006101000a81548160ff0219169083151502179055508073ffffffffffffffffffffffffffffffffffffffff167ff2ae205522024c14e5a7a26ba6d1fb1252dc8e161b5abc79ed5795fd3c5b926160405160405180910390a250565b6000600b60008373ffffffffffffffffffffffffffffffffffffffff1673ffffffffffffffffffffffffffffffffffffffff16815260200190815260200160002060009054906101000a900460ff16611b9f57600080fd5b600a60008373ffffffffffffffffffffffffffffffffffffffff1673ffffffffffffffffffffffffffffffffffffffff168152602001908152602001600020600c01549050919050565b600360009054906101000a900473ffffffffffffffffffffffffffffffffffffffff1681565b611c397fa49807205ce4d355092ef5a8a18f56e8913cf4a201fbe287825b095693c217753361275b565b611c4257600080fd5b600b60008373ffffffffffffffffffffffffffffffffffffffff1673ffffffffffffffffffffffffffffffffffffffff16815260200190815260200160002060009054906101000a900460ff16611c9857600080fd5b600060608373ffffffffffffffffffffffffffffffffffffffff16600360009054906101000a900473ffffffffffffffffffffffffffffffffffffffff1673ffffffffffffffffffffffffffffffffffffffff16636352211e856040518263ffffffff1660e01b8152600401611d0e91906144f7565b602060405180830381865afa158015611d2b573d6000803e3d6000fd5b505050506040513d601f19601f82011682018060405250810190611d4f919061571a565b73ffffffffffffffffffffffffffffffffffffffff1614611eaa57600360009054906101000a900473ffffffffffffffffffffffffffffffffffffffff1673ffffffffffffffffffffffffffffffffffffffff166318148f1b856040518263ffffffff1660e01b8152600401611dc59190614f0f565b600060405180830381865afa158015611de2573d6000803e3d6000fd5b505050506040513d6000823e3d601f19601f82011682018060405250810190611e0b919061580a565b9050600081511115611e815780600081518110611e2b57611e2a6150f4565b5b6020026020010151915081600a60008673ffffffffffffffffffffffffffffffffffffffff1673ffffffffffffffffffffffffffffffffffffffff16815260200190815260200160002060170181905550611ea5565b7fffffffffffffffffffffffffffffffffffffffffffffffffffffffffffffffff91505b611ef5565b82600a60008673ffffffffffffffffffffffffffffffffffffffff1673ffffffffffffffffffffffffffffffffffffffff168152602001908152602001600020601701819055508291505b8373ffffffffffffffffffffffffffffffffffffffff167f08e9f015b4a09d3e66a5d3703ecc0d035e52da672786c75b807300bd4a72530d83604051611f3b91906144f7565b60405180910390a250505050565b611f5161423b565b600a60008373ffffffffffffffffffffffffffffffffffffffff1673ffffffffffffffffffffffffffffffffffffffff1681526020019081526020016000206040518061018001604052908160008201548152602001600182015481526020016002820154815260200160038201600580602002604051908101604052809291908260058015611ff6576020028201915b815481526020019060010190808311611fe2575b505050505081526020016008820154815260200160098201548152602001600a8201548152602001600b8201548152602001600c8201548152602001600d8201600a806020026040519081016040528092919082600a801561206d576020028201915b815481526020019060010190808311612059575b50505050508152602001601782015481526020016018820154815250509050919050565b6120bb7fa49807205ce4d355092ef5a8a18f56e8913cf4a201fbe287825b095693c217753361275b565b6120c457600080fd5b8060078190555050565b6000600754905090565b6121027fa49807205ce4d355092ef5a8a18f56e8913cf4a201fbe287825b095693c217753361275b565b61210b57600080fd5b600b60008373ffffffffffffffffffffffffffffffffffffffff1673ffffffffffffffffffffffffffffffffffffffff16815260200190815260200160002060009054906101000a900460ff1661216157600080fd5b80600a60008473ffffffffffffffffffffffffffffffffffffffff1673ffffffffffffffffffffffffffffffffffffffff168152602001908152602001600020600c01819055508173ffffffffffffffffffffffffffffffffffffffff167f61de7c9c9fef84bf815ad3b2d17a9af3d0655af7a1c9423e5d2dee99ec5c6ffc826040516121ee91906144f7565b60405180910390a25050565b6000600b60008373ffffffffffffffffffffffffffffffffffffffff1673ffffffffffffffffffffffffffffffffffffffff16815260200190815260200160002060009054906101000a900460ff1661225257600080fd5b600a60008373ffffffffffffffffffffffffffffffffffffffff1673ffffffffffffffffffffffffffffffffffffffff168152602001908152602001600020600101549050919050565b6122a461423b565b6122ce7fa49807205ce4d355092ef5a8a18f56e8913cf4a201fbe287825b095693c217753361275b565b6122d757600080fd5b600b60008373ffffffffffffffffffffffffffffffffffffffff1673ffffffffffffffffffffffffffffffffffffffff16815260200190815260200160002060009054906101000a900460ff1661232d57600080fd5b600a60008373ffffffffffffffffffffffffffffffffffffffff1673ffffffffffffffffffffffffffffffffffffffff16815260200190815260200160002060405180610180016040529081600082015481526020016001820154815260200160028201548152602001600382016005806020026040519081016040528092919082600580156123d2576020028201915b8154815260200190600101908083116123be575b505050505081526020016008820154815260200160098201548152602001600a8201548152602001600b8201548152602001600c8201548152602001600d8201600a806020026040519081016040528092919082600a8015612449576020028201915b815481526020019060010190808311612435575b50505050508152602001601782015481526020016018820154815250509050919050565b612475613bad565b61249f7fa49807205ce4d355092ef5a8a18f56e8913cf4a201fbe287825b095693c2177582611648565b50565b6124aa613bad565b6124b46000613e09565b565b7fa49807205ce4d355092ef5a8a18f56e8913cf4a201fbe287825b095693c2177581565b6000600b60008373ffffffffffffffffffffffffffffffffffffffff1673ffffffffffffffffffffffffffffffffffffffff16815260200190815260200160002060009054906101000a900460ff1661253257600080fd5b600a60008373ffffffffffffffffffffffffffffffffffffffff1673ffffffffffffffffffffffffffffffffffffffff168152602001908152602001600020601801549050919050565b600560009054906101000a900473ffffffffffffffffffffffffffffffffffffffff1673ffffffffffffffffffffffffffffffffffffffff163373ffffffffffffffffffffffffffffffffffffffff16146125d657600080fd5b612601600560009054906101000a900473ffffffffffffffffffffffffffffffffffffffff16613e09565b6000600560006101000a81548173ffffffffffffffffffffffffffffffffffffffff021916908373ffffffffffffffffffffffffffffffffffffffff160217905550565b61264d6142a8565b600b60008373ffffffffffffffffffffffffffffffffffffffff1673ffffffffffffffffffffffffffffffffffffffff16815260200190815260200160002060009054906101000a900460ff166126a357600080fd5b600a60008373ffffffffffffffffffffffffffffffffffffffff1673ffffffffffffffffffffffffffffffffffffffff16815260200190815260200160002060030160058060200260405190810160405280929190826005801561271c576020028201915b815481526020019060010190808311612708575b50505050509050919050565b6000600654905090565b60008060009054906101000a900473ffffffffffffffffffffffffffffffffffffffff16905090565b60006001600084815260200190815260200160002060000160008373ffffffffffffffffffffffffffffffffffffffff1673ffffffffffffffffffffffffffffffffffffffff16815260200190815260200160002060009054906101000a900460ff16905092915050565b6000600b60008373ffffffffffffffffffffffffffffffffffffffff1673ffffffffffffffffffffffffffffffffffffffff16815260200190815260200160002060009054906101000a900460ff1661281e57600080fd5b600a60008373ffffffffffffffffffffffffffffffffffffffff1673ffffffffffffffffffffffffffffffffffffffff168152602001908152602001600020600b01549050919050565b6128927fa49807205ce4d355092ef5a8a18f56e8913cf4a201fbe287825b095693c217753361275b565b61289b57600080fd5b600b60008373ffffffffffffffffffffffffffffffffffffffff1673ffffffffffffffffffffffffffffffffffffffff16815260200190815260200160002060009054906101000a900460ff166128f157600080fd5b60075481600a60008573ffffffffffffffffffffffffffffffffffffffff1673ffffffffffffffffffffffffffffffffffffffff168152602001908152602001600020600c015461294291906154e3565b1115612983576040517f08c379a000000000000000000000000000000000000000000000000000000000815260040161297a90615563565b60405180910390fd5b6000600954826129939190615583565b905080600260009054906101000a900473ffffffffffffffffffffffffffffffffffffffff1673ffffffffffffffffffffffffffffffffffffffff166370a08231856040518263ffffffff1660e01b81526004016129f19190614f0f565b602060405180830381865afa158015612a0e573d6000803e3d6000fd5b505050506040513d601f19601f82011682018060405250810190612a3291906155da565b1015612a73576040517f08c379a0000000000000000000000000000000000000000000000000000000008152600401612a6a90615653565b60405180910390fd5b600260009054906101000a900473ffffffffffffffffffffffffffffffffffffffff1673ffffffffffffffffffffffffffffffffffffffff166342966c68826040518263ffffffff1660e01b8152600401612ace91906144f7565b600060405180830381600087803b158015612ae857600080fd5b505af1158015612afc573d6000803e3d6000fd5b5050505081600a60008573ffffffffffffffffffffffffffffffffffffffff1673ffffffffffffffffffffffffffffffffffffffff168152602001908152602001600020600c016000828254612b5291906154e3565b925050819055508273ffffffffffffffffffffffffffffffffffffffff167f61de7c9c9fef84bf815ad3b2d17a9af3d0655af7a1c9423e5d2dee99ec5c6ffc600a60008673ffffffffffffffffffffffffffffffffffffffff1673ffffffffffffffffffffffffffffffffffffffff168152602001908152602001600020600c0154604051612be191906144f7565b60405180910390a2505050565b612c187fa49807205ce4d355092ef5a8a18f56e8913cf4a201fbe287825b095693c217753361275b565b612c2157600080fd5b600b60008473ffffffffffffffffffffffffffffffffffffffff1673ffffffffffffffffffffffffffffffffffffffff16815260200190815260200160002060009054906101000a900460ff16612c7757600080fd5b80600a60008573ffffffffffffffffffffffffffffffffffffffff1673ffffffffffffffffffffffffffffffffffffffff168152602001908152602001600020600d0183600a8110612ccc57612ccb6150f4565b5b01819055508273ffffffffffffffffffffffffffffffffffffffff167f374ed846dc3e18a969aef22277ce3669832a6ea83e3088149d5b40319413de478383604051612d19929190615853565b60405180910390a2505050565b612d507fa49807205ce4d355092ef5a8a18f56e8913cf4a201fbe287825b095693c217753361275b565b612d5957600080fd5b8060088190555050565b6000801b81565b612d947fa49807205ce4d355092ef5a8a18f56e8913cf4a201fbe287825b095693c217753361275b565b612d9d57600080fd5b600b60008373ffffffffffffffffffffffffffffffffffffffff1673ffffffffffffffffffffffffffffffffffffffff16815260200190815260200160002060009054906101000a900460ff16612df357600080fd5b80600a60008473ffffffffffffffffffffffffffffffffffffffff1673ffffffffffffffffffffffffffffffffffffffff168152602001908152602001600020600b01819055508173ffffffffffffffffffffffffffffffffffffffff167f7f299cebc3c4384ae412a6ba151d00bd215add4b1379155dd71c3376cbf07df682604051612e8091906144f7565b60405180910390a25050565b60075481565b612ebc7fa49807205ce4d355092ef5a8a18f56e8913cf4a201fbe287825b095693c217753361275b565b612ec557600080fd5b600b60008373ffffffffffffffffffffffffffffffffffffffff1673ffffffffffffffffffffffffffffffffffffffff16815260200190815260200160002060009054906101000a900460ff16612f1b57600080fd5b6000600a60008473ffffffffffffffffffffffffffffffffffffffff1673ffffffffffffffffffffffffffffffffffffffff168152602001908152602001600020600b0154905081811015612fa5576040517f08c379a0000000000000000000000000000000000000000000000000000000008152600401612f9c906158c8565b60405180910390fd5b600260009054906101000a900473ffffffffffffffffffffffffffffffffffffffff1673ffffffffffffffffffffffffffffffffffffffff166340c10f1984846040518363ffffffff1660e01b81526004016130029291906158e8565b600060405180830381600087803b15801561301c57600080fd5b505af1158015613030573d6000803e3d6000fd5b5050505081816130409190615911565b600a60008573ffffffffffffffffffffffffffffffffffffffff1673ffffffffffffffffffffffffffffffffffffffff168152602001908152602001600020600b01819055507f190fe81f396538a8654aafa1adcdabc1825d53aa9fa6dd809991683d943e3a1783836040516130b79291906158e8565b60405180910390a1505050565b6130ee7fa49807205ce4d355092ef5a8a18f56e8913cf4a201fbe287825b095693c217753361275b565b6130f757600080fd5b600b60008373ffffffffffffffffffffffffffffffffffffffff1673ffffffffffffffffffffffffffffffffffffffff16815260200190815260200160002060009054906101000a900460ff1661314d57600080fd5b80600a60008473ffffffffffffffffffffffffffffffffffffffff1673ffffffffffffffffffffffffffffffffffffffff168152602001908152602001600020600901819055508173ffffffffffffffffffffffffffffffffffffffff167f7ed17f7b101bb354c92f134f7c421a00e511b046abf1edceb1956966e7443480826040516131da91906144f7565b60405180910390a25050565b6132107fa49807205ce4d355092ef5a8a18f56e8913cf4a201fbe287825b095693c217753361275b565b61321957600080fd5b600b60008373ffffffffffffffffffffffffffffffffffffffff1673ffffffffffffffffffffffffffffffffffffffff16815260200190815260200160002060009054906101000a900460ff1661326f57600080fd5b6000600a60008473ffffffffffffffffffffffffffffffffffffffff1673ffffffffffffffffffffffffffffffffffffffff16815260200190815260200160002090508181600101819055508273ffffffffffffffffffffffffffffffffffffffff167f564792a0259ee41a56519990d80509a8057848327265f2075bcaac108651eab98360405161330191906144f7565b60405180910390a2505050565b6133166142ca565b600b60008373ffffffffffffffffffffffffffffffffffffffff1673ffffffffffffffffffffffffffffffffffffffff16815260200190815260200160002060009054906101000a900460ff1661336c57600080fd5b600a60008373ffffffffffffffffffffffffffffffffffffffff1673ffffffffffffffffffffffffffffffffffffffff168152602001908152602001600020600d01600a806020026040519081016040528092919082600a80156133e5576020028201915b8154815260200190600101908083116133d1575b50505050509050919050565b600460009054906101000a900473ffffffffffffffffffffffffffffffffffffffff1681565b60065481565b61342682611628565b61342f81613c2b565b6134398383613d27565b505050565b6134687fa49807205ce4d355092ef5a8a18f56e8913cf4a201fbe287825b095693c217753361275b565b61347157600080fd5b600b60008373ffffffffffffffffffffffffffffffffffffffff1673ffffffffffffffffffffffffffffffffffffffff16815260200190815260200160002060009054906101000a900460ff166134c757600080fd5b80600a60008473ffffffffffffffffffffffffffffffffffffffff1673ffffffffffffffffffffffffffffffffffffffff168152602001908152602001600020600201819055508173ffffffffffffffffffffffffffffffffffffffff167f7b45410837b569e79f978c88fbb1ab01a26d6922675e4de2fc0bae4e0586ceac8260405161355491906144f7565b60405180910390a25050565b60085481565b6135907fa49807205ce4d355092ef5a8a18f56e8913cf4a201fbe287825b095693c217753361275b565b61359957600080fd5b8060068190555050565b6135cd7fa49807205ce4d355092ef5a8a18f56e8913cf4a201fbe287825b095693c217753361275b565b6135d657600080fd5b600b60008273ffffffffffffffffffffffffffffffffffffffff1673ffffffffffffffffffffffffffffffffffffffff16815260200190815260200160002060009054906101000a900460ff1661362c57600080fd5b600060608273ffffffffffffffffffffffffffffffffffffffff16600460009054906101000a900473ffffffffffffffffffffffffffffffffffffffff1673ffffffffffffffffffffffffffffffffffffffff16636352211e866040518263ffffffff1660e01b81526004016136a291906144f7565b602060405180830381865afa1580156136bf573d6000803e3d6000fd5b505050506040513d601f19601f820116820180604052508101906136e3919061571a565b73ffffffffffffffffffffffffffffffffffffffff161461383e57600460009054906101000a900473ffffffffffffffffffffffffffffffffffffffff1673ffffffffffffffffffffffffffffffffffffffff166318148f1b846040518263ffffffff1660e01b81526004016137599190614f0f565b600060405180830381865afa158015613776573d6000803e3d6000fd5b505050506040513d6000823e3d601f19601f8201168201806040525081019061379f919061580a565b905060008151111561381557806000815181106137bf576137be6150f4565b5b6020026020010151915081600a60008573ffffffffffffffffffffffffffffffffffffffff1673ffffffffffffffffffffffffffffffffffffffff16815260200190815260200160002060180181905550613839565b7fffffffffffffffffffffffffffffffffffffffffffffffffffffffffffffffff91505b613889565b83600a60008573ffffffffffffffffffffffffffffffffffffffff1673ffffffffffffffffffffffffffffffffffffffff168152602001908152602001600020601801819055508391505b8273ffffffffffffffffffffffffffffffffffffffff167fcc9803ff35bbb65900301a2b84f90ad432fd23b513fb5dddcb6f4568cb9c54c9836040516138cf91906144f7565b60405180910390a250505050565b6139077fa49807205ce4d355092ef5a8a18f56e8913cf4a201fbe287825b095693c217753361275b565b61391057600080fd5b600b60008373ffffffffffffffffffffffffffffffffffffffff1673ffffffffffffffffffffffffffffffffffffffff16815260200190815260200160002060009054906101000a900460ff1661396657600080fd5b80600a60008473ffffffffffffffffffffffffffffffffffffffff1673ffffffffffffffffffffffffffffffffffffffff168152602001908152602001600020600001819055505050565b6000600854905090565b6139c3613bad565b600073ffffffffffffffffffffffffffffffffffffffff168173ffffffffffffffffffffffffffffffffffffffff16036139fc57600080fd5b80600560006101000a81548173ffffffffffffffffffffffffffffffffffffffff021916908373ffffffffffffffffffffffffffffffffffffffff1602179055508073ffffffffffffffffffffffffffffffffffffffff16613a5c612732565b73ffffffffffffffffffffffffffffffffffffffff167f38d16b8cac22d99fc7c124b9cd0de2d3fa1faef420bfe791d8c362d765e2270060405160405180910390a350565b6000600b60008373ffffffffffffffffffffffffffffffffffffffff1673ffffffffffffffffffffffffffffffffffffffff16815260200190815260200160002060009054906101000a900460ff16613af957600080fd5b600a60008373ffffffffffffffffffffffffffffffffffffffff1673ffffffffffffffffffffffffffffffffffffffff168152602001908152602001600020601701549050919050565b60007f01ffc9a7000000000000000000000000000000000000000000000000000000007bffffffffffffffffffffffffffffffffffffffffffffffffffffffff1916827bffffffffffffffffffffffffffffffffffffffffffffffffffffffff1916149050919050565b613bb5613d1f565b73ffffffffffffffffffffffffffffffffffffffff16613bd3612732565b73ffffffffffffffffffffffffffffffffffffffff1614613c29576040517f08c379a0000000000000000000000000000000000000000000000000000000008152600401613c2090615991565b60405180910390fd5b565b613c3c81613c37613d1f565b613ecd565b50565b613c49828261275b565b613d1b57600180600084815260200190815260200160002060000160008373ffffffffffffffffffffffffffffffffffffffff1673ffffffffffffffffffffffffffffffffffffffff16815260200190815260200160002060006101000a81548160ff021916908315150217905550613cc0613d1f565b73ffffffffffffffffffffffffffffffffffffffff168173ffffffffffffffffffffffffffffffffffffffff16837f2f8788117e7eff1d82e926ec794901d17c78024a50270940304540a733656f0d60405160405180910390a45b5050565b600033905090565b613d31828261275b565b15613e055760006001600084815260200190815260200160002060000160008373ffffffffffffffffffffffffffffffffffffffff1673ffffffffffffffffffffffffffffffffffffffff16815260200190815260200160002060006101000a81548160ff021916908315150217905550613daa613d1f565b73ffffffffffffffffffffffffffffffffffffffff168173ffffffffffffffffffffffffffffffffffffffff16837ff6391f5c32d9c69d2a47ea670b442974b53935d1edc7fd64eb21e047a839171b60405160405180910390a45b5050565b60008060009054906101000a900473ffffffffffffffffffffffffffffffffffffffff169050816000806101000a81548173ffffffffffffffffffffffffffffffffffffffff021916908373ffffffffffffffffffffffffffffffffffffffff1602179055508173ffffffffffffffffffffffffffffffffffffffff168173ffffffffffffffffffffffffffffffffffffffff167f8be0079c531659141344cd1fd0a4f28419497f9722a3daafe3b4186f6b6457e060405160405180910390a35050565b613ed7828261275b565b613f4e57613ee481613f52565b613ef28360001c6020613f7f565b604051602001613f03929190615aba565b6040516020818303038152906040526040517f08c379a0000000000000000000000000000000000000000000000000000000008152600401613f459190615b2d565b60405180910390fd5b5050565b6060613f788273ffffffffffffffffffffffffffffffffffffffff16601460ff16613f7f565b9050919050565b606060006002836002613f929190615583565b613f9c91906154e3565b67ffffffffffffffff811115613fb557613fb4614528565b5b6040519080825280601f01601f191660200182016040528015613fe75781602001600182028036833780820191505090505b5090507f30000000000000000000000000000000000000000000000000000000000000008160008151811061401f5761401e6150f4565b5b60200101907effffffffffffffffffffffffffffffffffffffffffffffffffffffffffffff1916908160001a9053507f780000000000000000000000000000000000000000000000000000000000000081600181518110614083576140826150f4565b5b60200101907effffffffffffffffffffffffffffffffffffffffffffffffffffffffffffff1916908160001a905350600060018460026140c39190615583565b6140cd91906154e3565b90505b600181111561416d577f3031323334353637383961626364656600000000000000000000000000000000600f86166010811061410f5761410e6150f4565b5b1a60f81b828281518110614126576141256150f4565b5b60200101907effffffffffffffffffffffffffffffffffffffffffffffffffffffffffffff1916908160001a905350600485901c94508061416690615b4f565b90506140d0565b50600084146141b1576040517f08c379a00000000000000000000000000000000000000000000000000000000081526004016141a890615bc4565b60405180910390fd5b8091505092915050565b82600581019282156141ea579160200282015b828111156141e95782518255916020019190600101906141ce565b5b5090506141f791906142ed565b5090565b82600a810192821561422a579160200282015b8281111561422957825182559160200191906001019061420e565b5b50905061423791906142ed565b5090565b6040518061018001604052806000815260200160008152602001600081526020016142646142a8565b815260200160008152602001600081526020016000815260200160008152602001600081526020016142946142ca565b815260200160008152602001600081525090565b6040518060a00160405280600590602082028036833780820191505090505090565b604051806101400160405280600a90602082028036833780820191505090505090565b5b808211156143065760008160009055506001016142ee565b5090565b6000604051905090565b600080fd5b600080fd5b60007fffffffff0000000000000000000000000000000000000000000000000000000082169050919050565b6143538161431e565b811461435e57600080fd5b50565b6000813590506143708161434a565b92915050565b60006020828403121561438c5761438b614314565b5b600061439a84828501614361565b91505092915050565b60008115159050919050565b6143b8816143a3565b82525050565b60006020820190506143d360008301846143af565b92915050565b600073ffffffffffffffffffffffffffffffffffffffff82169050919050565b6000819050919050565b600061441e614419614414846143d9565b6143f9565b6143d9565b9050919050565b600061443082614403565b9050919050565b600061444282614425565b9050919050565b61445281614437565b82525050565b600060208201905061446d6000830184614449565b92915050565b600061447e826143d9565b9050919050565b61448e81614473565b811461449957600080fd5b50565b6000813590506144ab81614485565b92915050565b6000602082840312156144c7576144c6614314565b5b60006144d58482850161449c565b91505092915050565b6000819050919050565b6144f1816144de565b82525050565b600060208201905061450c60008301846144e8565b92915050565b600080fd5b6000601f19601f8301169050919050565b7f4e487b7100000000000000000000000000000000000000000000000000000000600052604160045260246000fd5b61456082614517565b810181811067ffffffffffffffff8211171561457f5761457e614528565b5b80604052505050565b600061459261430a565b905061459e8282614557565b919050565b600067ffffffffffffffff8211156145be576145bd614528565b5b602082029050602081019050919050565b600080fd5b600080fd5b6145e2816144de565b81146145ed57600080fd5b50565b6000813590506145ff816145d9565b92915050565b600067ffffffffffffffff8211156146205761461f614528565b5b602082029050919050565b600061463e61463984614605565b614588565b90508060208402830185811115614658576146576145cf565b5b835b81811015614681578061466d88826145f0565b84526020840193505060208101905061465a565b5050509392505050565b600082601f8301126146a05761469f614512565b5b60056146ad84828561462b565b91505092915050565b600067ffffffffffffffff8211156146d1576146d0614528565b5b602082029050919050565b60006146ef6146ea846146b6565b614588565b90508060208402830185811115614709576147086145cf565b5b835b81811015614732578061471e88826145f0565b84526020840193505060208101905061470b565b5050509392505050565b600082601f83011261475157614750614512565b5b600a61475e8482856146dc565b91505092915050565b6000610320828403121561477e5761477d6145d4565b5b614789610180614588565b90506000614799848285016145f0565b60008301525060206147ad848285016145f0565b60208301525060406147c1848285016145f0565b60408301525060606147d58482850161468b565b6060830152506101006147ea848285016145f0565b6080830152506101206147ff848285016145f0565b60a083015250610140614814848285016145f0565b60c083015250610160614829848285016145f0565b60e08301525061018061483e848285016145f0565b610100830152506101a06148548482850161473c565b610120830152506102e061486a848285016145f0565b61014083015250610300614880848285016145f0565b6101608301525092915050565b60006148a061489b846145a3565b614588565b90508083825260208201905061032084028301858111156148c4576148c36145cf565b5b835b818110156148ee57806148d98882614767565b845260208401935050610320810190506148c6565b5050509392505050565b600082601f83011261490d5761490c614512565b5b813561491d84826020860161488d565b91505092915050565b600067ffffffffffffffff82111561494157614940614528565b5b602082029050602081019050919050565b600061496561496084614926565b614588565b90508083825260208201905060208402830185811115614988576149876145cf565b5b835b818110156149b1578061499d888261449c565b84526020840193505060208101905061498a565b5050509392505050565b600082601f8301126149d0576149cf614512565b5b81356149e0848260208601614952565b91505092915050565b60008060408385031215614a00576149ff614314565b5b600083013567ffffffffffffffff811115614a1e57614a1d614319565b5b614a2a858286016148f8565b925050602083013567ffffffffffffffff811115614a4b57614a4a614319565b5b614a57858286016149bb565b9150509250929050565b60008060008060808587031215614a7b57614a7a614314565b5b6000614a89878288016145f0565b9450506020614a9a878288016145f0565b9350506040614aab878288016145f0565b9250506060614abc878288016145f0565b91505092959194509250565b600060208284031215614ade57614add614314565b5b6000614aec848285016145f0565b91505092915050565b6000819050919050565b614b0881614af5565b8114614b1357600080fd5b50565b600081359050614b2581614aff565b92915050565b600060208284031215614b4157614b40614314565b5b6000614b4f84828501614b16565b91505092915050565b614b6181614af5565b82525050565b6000602082019050614b7c6000830184614b58565b92915050565b60008060408385031215614b9957614b98614314565b5b6000614ba785828601614b16565b9250506020614bb88582860161449c565b9150509250929050565b6000614bcd82614425565b9050919050565b614bdd81614bc2565b82525050565b6000602082019050614bf86000830184614bd4565b92915050565b60008060408385031215614c1557614c14614314565b5b6000614c238582860161449c565b9250506020614c34858286016145f0565b9150509250929050565b614c47816144de565b82525050565b600060059050919050565b600081905092915050565b6000819050919050565b6000614c798383614c3e565b60208301905092915050565b6000602082019050919050565b614c9b81614c4d565b614ca58184614c58565b9250614cb082614c63565b8060005b83811015614ce1578151614cc88782614c6d565b9650614cd383614c85565b925050600181019050614cb4565b505050505050565b6000600a9050919050565b600081905092915050565b6000819050919050565b6000602082019050919050565b614d1f81614ce9565b614d298184614cf4565b9250614d3482614cff565b8060005b83811015614d65578151614d4c8782614c6d565b9650614d5783614d09565b925050600181019050614d38565b505050505050565b61032082016000820151614d846000850182614c3e565b506020820151614d976020850182614c3e565b506040820151614daa6040850182614c3e565b506060820151614dbd6060850182614c92565b506080820151614dd1610100850182614c3e565b5060a0820151614de5610120850182614c3e565b5060c0820151614df9610140850182614c3e565b5060e0820151614e0d610160850182614c3e565b50610100820151614e22610180850182614c3e565b50610120820151614e376101a0850182614d16565b50610140820151614e4c6102e0850182614c3e565b50610160820151614e61610300850182614c3e565b50505050565b600061032082019050614e7d6000830184614d6d565b92915050565b600081905092915050565b614e9781614c4d565b614ea18184614e83565b9250614eac82614c63565b8060005b83811015614edd578151614ec48782614c6d565b9650614ecf83614c85565b925050600181019050614eb0565b505050505050565b600060a082019050614efa6000830184614e8e565b92915050565b614f0981614473565b82525050565b6000602082019050614f246000830184614f00565b92915050565b600080600060608486031215614f4357614f42614314565b5b6000614f518682870161449c565b9350506020614f62868287016145f0565b9250506040614f73868287016145f0565b9150509250925092565b600081905092915050565b614f9181614ce9565b614f9b8184614f7d565b9250614fa682614cff565b8060005b83811015614fd7578151614fbe8782614c6d565b9650614fc983614d09565b925050600181019050614faa565b505050505050565b600061014082019050614ff56000830184614f88565b92915050565b600061500682614425565b9050919050565b61501681614ffb565b82525050565b6000602082019050615031600083018461500d565b92915050565b6000806040838503121561504e5761504d614314565b5b600061505c858286016145f0565b925050602061506d8582860161449c565b9150509250929050565b600082825260208201905092915050565b7f3130320000000000000000000000000000000000000000000000000000000000600082015250565b60006150be600383615077565b91506150c982615088565b602082019050919050565b600060208201905081810360008301526150ed816150b1565b9050919050565b7f4e487b7100000000000000000000000000000000000000000000000000000000600052603260045260246000fd5b600081519050919050565b600081905092915050565b6000819050602082019050919050565b61515281614473565b82525050565b60006151648383615149565b60208301905092915050565b6000602082019050919050565b600061518882615123565b615192818561512e565b935061519d83615139565b8060005b838110156151ce5781516151b58882615158565b97506151c083615170565b9250506001810190506151a1565b5085935050505092915050565b60006151e7828461517d565b915081905092915050565b600081519050919050565b600081905092915050565b6000819050602082019050919050565b615221816144de565b82525050565b60006152338383615218565b60208301905092915050565b600081905092915050565b61525381614c4d565b61525d818461523f565b925061526882614c63565b8060005b838110156152995781516152808782615227565b965061528b83614c85565b92505060018101905061526c565b505050505050565b60006152ad838361524a565b60a08301905092915050565b600081905092915050565b6152cd81614ce9565b6152d781846152b9565b92506152e282614cff565b8060005b838110156153135781516152fa8782615227565b965061530583614d09565b9250506001810190506152e6565b505050505050565b600061532783836152c4565b6101408301905092915050565b6000820160008201516153478482615227565b93505060208201516153598482615227565b935050604082015161536b8482615227565b935050606082015161537d84826152a1565b935050608082015161538f8482615227565b93505060a08201516153a18482615227565b93505060c08201516153b38482615227565b93505060e08201516153c58482615227565b9350506101008201516153d88482615227565b9350506101208201516153eb848261531b565b9350506101408201516153fe8482615227565b9350506101608201516154118482615227565b935050505050565b60006154258383615334565b6103208301905092915050565b6000602082019050919050565b600061544a826151f2565b61545481856151fd565b935061545f83615208565b8060005b838110156154905781516154778882615419565b975061548283615432565b925050600181019050615463565b5085935050505092915050565b60006154a9828461543f565b915081905092915050565b7f4e487b7100000000000000000000000000000000000000000000000000000000600052601160045260246000fd5b60006154ee826144de565b91506154f9836144de565b9250828201905080821115615511576155106154b4565b5b92915050565b7f3130380000000000000000000000000000000000000000000000000000000000600082015250565b600061554d600383615077565b915061555882615517565b602082019050919050565b6000602082019050818103600083015261557c81615540565b9050919050565b600061558e826144de565b9150615599836144de565b92508282026155a7816144de565b915082820484148315176155be576155bd6154b4565b5b5092915050565b6000815190506155d4816145d9565b92915050565b6000602082840312156155f0576155ef614314565b5b60006155fe848285016155c5565b91505092915050565b7f3130330000000000000000000000000000000000000000000000000000000000600082015250565b600061563d600383615077565b915061564882615607565b602082019050919050565b6000602082019050818103600083015261566c81615630565b9050919050565b7f416363657373436f6e74726f6c3a2063616e206f6e6c792072656e6f756e636560008201527f20726f6c657320666f722073656c660000000000000000000000000000000000602082015250565b60006156cf602f83615077565b91506156da82615673565b604082019050919050565b600060208201905081810360008301526156fe816156c2565b9050919050565b60008151905061571481614485565b92915050565b6000602082840312156157305761572f614314565b5b600061573e84828501615705565b91505092915050565b600067ffffffffffffffff82111561576257615761614528565b5b602082029050602081019050919050565b600061578661578184615747565b614588565b905080838252602082019050602084028301858111156157a9576157a86145cf565b5b835b818110156157d257806157be88826155c5565b8452602084019350506020810190506157ab565b5050509392505050565b600082601f8301126157f1576157f0614512565b5b8151615801848260208601615773565b91505092915050565b6000602082840312156158205761581f614314565b5b600082015167ffffffffffffffff81111561583e5761583d614319565b5b61584a848285016157dc565b91505092915050565b600060408201905061586860008301856144e8565b61587560208301846144e8565b9392505050565b7f3130340000000000000000000000000000000000000000000000000000000000600082015250565b60006158b2600383615077565b91506158bd8261587c565b602082019050919050565b600060208201905081810360008301526158e1816158a5565b9050919050565b60006040820190506158fd6000830185614f00565b61590a60208301846144e8565b9392505050565b600061591c826144de565b9150615927836144de565b925082820390508181111561593f5761593e6154b4565b5b92915050565b7f4f776e61626c653a2063616c6c6572206973206e6f7420746865206f776e6572600082015250565b600061597b602083615077565b915061598682615945565b602082019050919050565b600060208201905081810360008301526159aa8161596e565b9050919050565b600081905092915050565b7f416363657373436f6e74726f6c3a206163636f756e7420000000000000000000600082015250565b60006159f26017836159b1565b91506159fd826159bc565b601782019050919050565b600081519050919050565b60005b83811015615a31578082015181840152602081019050615a16565b60008484015250505050565b6000615a4882615a08565b615a5281856159b1565b9350615a62818560208601615a13565b80840191505092915050565b7f206973206d697373696e6720726f6c6520000000000000000000000000000000600082015250565b6000615aa46011836159b1565b9150615aaf82615a6e565b601182019050919050565b6000615ac5826159e5565b9150615ad18285615a3d565b9150615adc82615a97565b9150615ae88284615a3d565b91508190509392505050565b6000615aff82615a08565b615b098185615077565b9350615b19818560208601615a13565b615b2281614517565b840191505092915050565b60006020820190508181036000830152615b478184615af4565b905092915050565b6000615b5a826144de565b915060008203615b6d57615b6c6154b4565b5b600182039050919050565b7f537472696e67733a20686578206c656e67746820696e73756666696369656e74600082015250565b6000615bae602083615077565b9150615bb982615b78565b602082019050919050565b60006020820190508181036000830152615bdd81615ba1565b905091905056fea26469706673582212201f528c77b10249af82ee2bc14612ebdb04efd82eb6e5c60b6525ed5cc40d33d364736f6c63430008180033",
  "linkReferences": {},
  "deployedLinkReferences": {}
}