{
  "_format": "hh-sol-artifact-1",
  "contractName": "User",
  "sourceName": "contracts/User.sol",
  "abi": [
    {
      "inputs": [
        {
          "internalType": "address",
          "name": "_gmcContract",
          "type": "address"
        },
        {
          "internalType": "uint256",
          "name": "_baitPrice",
          "type": "uint256"
        }
      ],
      "stateMutability": "nonpayable",
      "type": "constructor"
    },
    {
      "anonymous": false,
      "inputs": [
        {
          "indexed": true,
          "internalType": "address",
          "name": "playerAddress",
          "type": "address"
        },
        {
          "indexed": false,
          "internalType": "uint256",
          "name": "newCount",
          "type": "uint256"
        }
      ],
      "name": "BaitCountUpdated",
      "type": "event"
    },
    {
      "anonymous": false,
      "inputs": [
        {
          "indexed": false,
          "internalType": "address",
          "name": "userAddress",
          "type": "address"
        },
        {
          "indexed": false,
          "internalType": "uint256",
          "name": "count",
          "type": "uint256"
        }
      ],
      "name": "ClaimGMC",
      "type": "event"
    },
    {
      "anonymous": false,
      "inputs": [
        {
          "indexed": true,
          "internalType": "address",
          "name": "playerAddress",
          "type": "address"
        },
        {
          "indexed": false,
          "internalType": "uint256",
          "name": "newAmount",
          "type": "uint256"
        }
      ],
      "name": "CollectedGMCUpdated",
      "type": "event"
    },
    {
      "anonymous": false,
      "inputs": [
        {
          "indexed": true,
          "internalType": "address",
          "name": "playerAddress",
          "type": "address"
        },
        {
          "indexed": false,
          "internalType": "uint256",
          "name": "addedExp",
          "type": "uint256"
        },
        {
          "indexed": false,
          "internalType": "uint256",
          "name": "newExp",
          "type": "uint256"
        }
      ],
      "name": "ExperienceAdded",
      "type": "event"
    },
    {
      "anonymous": false,
      "inputs": [
        {
          "indexed": true,
          "internalType": "address",
          "name": "playerAddress",
          "type": "address"
        },
        {
          "indexed": false,
          "internalType": "uint256",
          "name": "star",
          "type": "uint256"
        },
        {
          "indexed": false,
          "internalType": "uint256",
          "name": "newCount",
          "type": "uint256"
        }
      ],
      "name": "FishCountUpdated",
      "type": "event"
    },
    {
      "anonymous": false,
      "inputs": [
        {
          "indexed": true,
          "internalType": "address",
          "name": "playerAddress",
          "type": "address"
        },
        {
          "indexed": false,
          "internalType": "uint256",
          "name": "newLevel",
          "type": "uint256"
        }
      ],
      "name": "FishPoolLevelUpdated",
      "type": "event"
    },
    {
      "anonymous": false,
      "inputs": [
        {
          "indexed": true,
          "internalType": "address",
          "name": "playerAddress",
          "type": "address"
        },
        {
          "indexed": false,
          "internalType": "uint256",
          "name": "newFishermanId",
          "type": "uint256"
        }
      ],
      "name": "FishermanChanged",
      "type": "event"
    },
    {
      "anonymous": false,
      "inputs": [
        {
          "indexed": true,
          "internalType": "address",
          "name": "playerAddress",
          "type": "address"
        },
        {
          "indexed": false,
          "internalType": "uint256",
          "name": "count",
          "type": "uint256"
        }
      ],
      "name": "FishingCountDecreased",
      "type": "event"
    },
    {
      "anonymous": false,
      "inputs": [
        {
          "indexed": true,
          "internalType": "address",
          "name": "playerAddress",
          "type": "address"
        },
        {
          "indexed": false,
          "internalType": "uint256",
          "name": "count",
          "type": "uint256"
        }
      ],
      "name": "FishingCountRecovered",
      "type": "event"
    },
    {
      "anonymous": false,
      "inputs": [
        {
          "indexed": true,
          "internalType": "address",
          "name": "playerAddress",
          "type": "address"
        },
        {
          "indexed": false,
          "internalType": "uint256",
          "name": "newSpotId",
          "type": "uint256"
        }
      ],
      "name": "FishingSpotSwitched",
      "type": "event"
    },
    {
      "anonymous": false,
      "inputs": [
        {
          "indexed": true,
          "internalType": "address",
          "name": "playerAddress",
          "type": "address"
        },
        {
          "indexed": false,
          "internalType": "uint256",
          "name": "spotId",
          "type": "uint256"
        }
      ],
      "name": "FishingSpotUnlocked",
      "type": "event"
    },
    {
      "anonymous": false,
      "inputs": [
        {
          "indexed": true,
          "internalType": "address",
          "name": "previousOwner",
          "type": "address"
        },
        {
          "indexed": true,
          "internalType": "address",
          "name": "newOwner",
          "type": "address"
        }
      ],
      "name": "OwnershipTransferStarted",
      "type": "event"
    },
    {
      "anonymous": false,
      "inputs": [
        {
          "indexed": true,
          "internalType": "address",
          "name": "previousOwner",
          "type": "address"
        },
        {
          "indexed": true,
          "internalType": "address",
          "name": "newOwner",
          "type": "address"
        }
      ],
      "name": "OwnershipTransferred",
      "type": "event"
    },
    {
      "anonymous": false,
      "inputs": [
        {
          "indexed": true,
          "internalType": "address",
          "name": "playerAddress",
          "type": "address"
        }
      ],
      "name": "PlayerAdded",
      "type": "event"
    },
    {
      "anonymous": false,
      "inputs": [
        {
          "indexed": true,
          "internalType": "address",
          "name": "playerAddress",
          "type": "address"
        },
        {
          "indexed": false,
          "internalType": "uint256",
          "name": "newLevel",
          "type": "uint256"
        }
      ],
      "name": "PlayerLevelUpdated",
      "type": "event"
    },
    {
      "anonymous": false,
      "inputs": [
        {
          "indexed": true,
          "internalType": "address",
          "name": "playerAddress",
          "type": "address"
        },
        {
          "indexed": false,
          "internalType": "uint256",
          "name": "newLevel",
          "type": "uint256"
        }
      ],
      "name": "PlayerLeveledUp",
      "type": "event"
    },
    {
      "anonymous": false,
      "inputs": [
        {
          "indexed": true,
          "internalType": "address",
          "name": "playerAddress",
          "type": "address"
        },
        {
          "indexed": false,
          "internalType": "uint256",
          "name": "newRodId",
          "type": "uint256"
        }
      ],
      "name": "RodChanged",
      "type": "event"
    },
    {
      "anonymous": false,
      "inputs": [
        {
          "indexed": true,
          "internalType": "bytes32",
          "name": "role",
          "type": "bytes32"
        },
        {
          "indexed": true,
          "internalType": "bytes32",
          "name": "previousAdminRole",
          "type": "bytes32"
        },
        {
          "indexed": true,
          "internalType": "bytes32",
          "name": "newAdminRole",
          "type": "bytes32"
        }
      ],
      "name": "RoleAdminChanged",
      "type": "event"
    },
    {
      "anonymous": false,
      "inputs": [
        {
          "indexed": true,
          "internalType": "bytes32",
          "name": "role",
          "type": "bytes32"
        },
        {
          "indexed": true,
          "internalType": "address",
          "name": "account",
          "type": "address"
        },
        {
          "indexed": true,
          "internalType": "address",
          "name": "sender",
          "type": "address"
        }
      ],
      "name": "RoleGranted",
      "type": "event"
    },
    {
      "anonymous": false,
      "inputs": [
        {
          "indexed": true,
          "internalType": "bytes32",
          "name": "role",
          "type": "bytes32"
        },
        {
          "indexed": true,
          "internalType": "address",
          "name": "account",
          "type": "address"
        },
        {
          "indexed": true,
          "internalType": "address",
          "name": "sender",
          "type": "address"
        }
      ],
      "name": "RoleRevoked",
      "type": "event"
    },
    {
      "inputs": [],
      "name": "ADMIN_ROLE",
      "outputs": [
        {
          "internalType": "bytes32",
          "name": "",
          "type": "bytes32"
        }
      ],
      "stateMutability": "view",
      "type": "function"
    },
    {
      "inputs": [],
      "name": "DEFAULT_ADMIN_ROLE",
      "outputs": [
        {
          "internalType": "bytes32",
          "name": "",
          "type": "bytes32"
        }
      ],
      "stateMutability": "view",
      "type": "function"
    },
    {
      "inputs": [],
      "name": "acceptOwnership",
      "outputs": [],
      "stateMutability": "nonpayable",
      "type": "function"
    },
    {
      "inputs": [
        {
          "internalType": "address",
          "name": "newAdmin",
          "type": "address"
        }
      ],
      "name": "addAdmin",
      "outputs": [],
      "stateMutability": "nonpayable",
      "type": "function"
    },
    {
      "inputs": [
        {
          "internalType": "address",
          "name": "userAddress",
          "type": "address"
        },
        {
          "internalType": "uint256",
          "name": "exp",
          "type": "uint256"
        }
      ],
      "name": "addExperience",
      "outputs": [],
      "stateMutability": "nonpayable",
      "type": "function"
    },
    {
      "inputs": [
        {
          "internalType": "address",
          "name": "userAddress",
          "type": "address"
        }
      ],
      "name": "addUser",
      "outputs": [],
      "stateMutability": "nonpayable",
      "type": "function"
    },
    {
      "inputs": [],
      "name": "baitPrice",
      "outputs": [
        {
          "internalType": "uint256",
          "name": "",
          "type": "uint256"
        }
      ],
      "stateMutability": "view",
      "type": "function"
    },
    {
      "inputs": [],
      "name": "baitPurchaseLimit",
      "outputs": [
        {
          "internalType": "uint256",
          "name": "",
          "type": "uint256"
        }
      ],
      "stateMutability": "view",
      "type": "function"
    },
    {
      "inputs": [
        {
          "internalType": "address",
          "name": "userAddress",
          "type": "address"
        },
        {
          "internalType": "uint256",
          "name": "count",
          "type": "uint256"
        }
      ],
      "name": "buyBaits",
      "outputs": [],
      "stateMutability": "nonpayable",
      "type": "function"
    },
    {
      "inputs": [
        {
          "internalType": "address",
          "name": "userAddress",
          "type": "address"
        },
        {
          "internalType": "uint256",
          "name": "fishermanId",
          "type": "uint256"
        }
      ],
      "name": "changeFisherman",
      "outputs": [],
      "stateMutability": "nonpayable",
      "type": "function"
    },
    {
      "inputs": [
        {
          "internalType": "uint256",
          "name": "rodId",
          "type": "uint256"
        },
        {
          "internalType": "address",
          "name": "userAddress",
          "type": "address"
        }
      ],
      "name": "changeRod",
      "outputs": [],
      "stateMutability": "nonpayable",
      "type": "function"
    },
    {
      "inputs": [
        {
          "internalType": "address",
          "name": "userAddress",
          "type": "address"
        },
        {
          "internalType": "uint256",
          "name": "count",
          "type": "uint256"
        }
      ],
      "name": "claimGMC",
      "outputs": [],
      "stateMutability": "nonpayable",
      "type": "function"
    },
    {
      "inputs": [
        {
          "internalType": "address",
          "name": "userAddress",
          "type": "address"
        },
        {
          "internalType": "uint256",
          "name": "count",
          "type": "uint256"
        }
      ],
      "name": "decreaseFishingCount",
      "outputs": [],
      "stateMutability": "nonpayable",
      "type": "function"
    },
    {
      "inputs": [
        {
          "internalType": "uint256",
          "name": "",
          "type": "uint256"
        }
      ],
      "name": "experienceConfig",
      "outputs": [
        {
          "internalType": "uint256",
          "name": "",
          "type": "uint256"
        }
      ],
      "stateMutability": "view",
      "type": "function"
    },
    {
      "inputs": [],
      "name": "fishingCountLimit",
      "outputs": [
        {
          "internalType": "uint256",
          "name": "",
          "type": "uint256"
        }
      ],
      "stateMutability": "view",
      "type": "function"
    },
    {
      "inputs": [
        {
          "internalType": "address",
          "name": "playerAddress",
          "type": "address"
        }
      ],
      "name": "getBaitCount",
      "outputs": [
        {
          "internalType": "uint256",
          "name": "",
          "type": "uint256"
        }
      ],
      "stateMutability": "view",
      "type": "function"
    },
    {
      "inputs": [],
      "name": "getBaitPurchaseLimit",
      "outputs": [
        {
          "internalType": "uint256",
          "name": "",
          "type": "uint256"
        }
      ],
      "stateMutability": "view",
      "type": "function"
    },
    {
      "inputs": [
        {
          "internalType": "address",
          "name": "playerAddress",
          "type": "address"
        }
      ],
      "name": "getCollectedGMC",
      "outputs": [
        {
          "internalType": "uint256",
          "name": "",
          "type": "uint256"
        }
      ],
      "stateMutability": "view",
      "type": "function"
    },
    {
      "inputs": [
        {
          "internalType": "address",
          "name": "playerAddress",
          "type": "address"
        }
      ],
      "name": "getExperience",
      "outputs": [
        {
          "internalType": "uint256",
          "name": "",
          "type": "uint256"
        }
      ],
      "stateMutability": "view",
      "type": "function"
    },
    {
      "inputs": [],
      "name": "getExperienceConfig",
      "outputs": [
        {
          "internalType": "uint256[]",
          "name": "",
          "type": "uint256[]"
        }
      ],
      "stateMutability": "view",
      "type": "function"
    },
    {
      "inputs": [
        {
          "internalType": "address",
          "name": "playerAddress",
          "type": "address"
        }
      ],
      "name": "getFishCount",
      "outputs": [
        {
          "internalType": "uint256[10]",
          "name": "",
          "type": "uint256[10]"
        }
      ],
      "stateMutability": "view",
      "type": "function"
    },
    {
      "inputs": [
        {
          "internalType": "address",
          "name": "playerAddress",
          "type": "address"
        }
      ],
      "name": "getFishPoolLevel",
      "outputs": [
        {
          "internalType": "uint256",
          "name": "",
          "type": "uint256"
        }
      ],
      "stateMutability": "view",
      "type": "function"
    },
    {
      "inputs": [],
      "name": "getFishingCountLimit",
      "outputs": [
        {
          "internalType": "uint256",
          "name": "",
          "type": "uint256"
        }
      ],
      "stateMutability": "view",
      "type": "function"
    },
    {
      "inputs": [
        {
          "internalType": "address",
          "name": "userAddress",
          "type": "address"
        }
      ],
      "name": "getGMCBalance",
      "outputs": [
        {
          "internalType": "uint256",
          "name": "",
          "type": "uint256"
        }
      ],
      "stateMutability": "view",
      "type": "function"
    },
    {
      "inputs": [],
      "name": "getLevelUpLimit",
      "outputs": [
        {
          "internalType": "uint256",
          "name": "",
          "type": "uint256"
        }
      ],
      "stateMutability": "view",
      "type": "function"
    },
    {
      "inputs": [
        {
          "internalType": "address",
          "name": "playerAddress",
          "type": "address"
        }
      ],
      "name": "getPlayerLevel",
      "outputs": [
        {
          "internalType": "uint256",
          "name": "",
          "type": "uint256"
        }
      ],
      "stateMutability": "view",
      "type": "function"
    },
    {
      "inputs": [
        {
          "internalType": "bytes32",
          "name": "role",
          "type": "bytes32"
        }
      ],
      "name": "getRoleAdmin",
      "outputs": [
        {
          "internalType": "bytes32",
          "name": "",
          "type": "bytes32"
        }
      ],
      "stateMutability": "view",
      "type": "function"
    },
    {
      "inputs": [
        {
          "internalType": "address",
          "name": "userAddress",
          "type": "address"
        }
      ],
      "name": "getUnlockedFishingSpots",
      "outputs": [
        {
          "internalType": "bool[5]",
          "name": "",
          "type": "bool[5]"
        }
      ],
      "stateMutability": "view",
      "type": "function"
    },
    {
      "inputs": [
        {
          "internalType": "address",
          "name": "userAddress",
          "type": "address"
        }
      ],
      "name": "getUser",
      "outputs": [
        {
          "components": [
            {
              "internalType": "uint256",
              "name": "fishingCount",
              "type": "uint256"
            },
            {
              "internalType": "uint256",
              "name": "experience",
              "type": "uint256"
            },
            {
              "internalType": "uint256",
              "name": "level",
              "type": "uint256"
            },
            {
              "internalType": "uint256",
              "name": "currentFishermanNFT",
              "type": "uint256"
            },
            {
              "internalType": "uint256",
              "name": "currentRodNFT",
              "type": "uint256"
            },
            {
              "internalType": "bool[5]",
              "name": "unlockedFishingSpots",
              "type": "bool[5]"
            },
            {
              "internalType": "uint256",
              "name": "currentFishingSpot",
              "type": "uint256"
            },
            {
              "internalType": "uint256",
              "name": "fishPoolLevel",
              "type": "uint256"
            },
            {
              "internalType": "uint256[10]",
              "name": "fishCount",
              "type": "uint256[10]"
            },
            {
              "internalType": "uint256",
              "name": "interestRate",
              "type": "uint256"
            },
            {
              "internalType": "uint256",
              "name": "collectedGMC",
              "type": "uint256"
            },
            {
              "internalType": "uint256",
              "name": "baitCount",
              "type": "uint256"
            }
          ],
          "internalType": "struct User.PlayerInfo",
          "name": "",
          "type": "tuple"
        }
      ],
      "stateMutability": "view",
      "type": "function"
    },
    {
      "inputs": [],
      "name": "gmcContract",
      "outputs": [
        {
          "internalType": "contract IGMC",
          "name": "",
          "type": "address"
        }
      ],
      "stateMutability": "view",
      "type": "function"
    },
    {
      "inputs": [
        {
          "internalType": "bytes32",
          "name": "role",
          "type": "bytes32"
        },
        {
          "internalType": "address",
          "name": "account",
          "type": "address"
        }
      ],
      "name": "grantRole",
      "outputs": [],
      "stateMutability": "nonpayable",
      "type": "function"
    },
    {
      "inputs": [
        {
          "internalType": "bytes32",
          "name": "role",
          "type": "bytes32"
        },
        {
          "internalType": "address",
          "name": "account",
          "type": "address"
        }
      ],
      "name": "hasRole",
      "outputs": [
        {
          "internalType": "bool",
          "name": "",
          "type": "bool"
        }
      ],
      "stateMutability": "view",
      "type": "function"
    },
    {
      "inputs": [],
      "name": "levelUpLimit",
      "outputs": [
        {
          "internalType": "uint256",
          "name": "",
          "type": "uint256"
        }
      ],
      "stateMutability": "view",
      "type": "function"
    },
    {
      "inputs": [],
      "name": "owner",
      "outputs": [
        {
          "internalType": "address",
          "name": "",
          "type": "address"
        }
      ],
      "stateMutability": "view",
      "type": "function"
    },
    {
      "inputs": [
        {
          "internalType": "address",
          "name": "userAddress",
          "type": "address"
        },
        {
          "internalType": "uint256",
          "name": "count",
          "type": "uint256"
        }
      ],
      "name": "recoverFishingCount",
      "outputs": [],
      "stateMutability": "nonpayable",
      "type": "function"
    },
    {
      "inputs": [
        {
          "internalType": "address",
          "name": "admin",
          "type": "address"
        }
      ],
      "name": "removeAdmin",
      "outputs": [],
      "stateMutability": "nonpayable",
      "type": "function"
    },
    {
      "inputs": [],
      "name": "renounceOwnership",
      "outputs": [],
      "stateMutability": "nonpayable",
      "type": "function"
    },
    {
      "inputs": [
        {
          "internalType": "bytes32",
          "name": "role",
          "type": "bytes32"
        },
        {
          "internalType": "address",
          "name": "account",
          "type": "address"
        }
      ],
      "name": "renounceRole",
      "outputs": [],
      "stateMutability": "nonpayable",
      "type": "function"
    },
    {
      "inputs": [
        {
          "internalType": "bytes32",
          "name": "role",
          "type": "bytes32"
        },
        {
          "internalType": "address",
          "name": "account",
          "type": "address"
        }
      ],
      "name": "revokeRole",
      "outputs": [],
      "stateMutability": "nonpayable",
      "type": "function"
    },
    {
      "inputs": [
        {
          "internalType": "address",
          "name": "playerAddress",
          "type": "address"
        },
        {
          "internalType": "uint256",
          "name": "newCount",
          "type": "uint256"
        }
      ],
      "name": "setBaitCount",
      "outputs": [],
      "stateMutability": "nonpayable",
      "type": "function"
    },
    {
      "inputs": [
        {
          "internalType": "uint256",
          "name": "_baitPurchaseLimit",
          "type": "uint256"
        }
      ],
      "name": "setBaitPurchaseLimit",
      "outputs": [],
      "stateMutability": "nonpayable",
      "type": "function"
    },
    {
      "inputs": [
        {
          "internalType": "address",
          "name": "playerAddress",
          "type": "address"
        },
        {
          "internalType": "uint256",
          "name": "newAmount",
          "type": "uint256"
        }
      ],
      "name": "setCollectedGMC",
      "outputs": [],
      "stateMutability": "nonpayable",
      "type": "function"
    },
    {
      "inputs": [
        {
          "internalType": "uint256[]",
          "name": "_experienceConfig",
          "type": "uint256[]"
        }
      ],
      "name": "setExperienceConfig",
      "outputs": [],
      "stateMutability": "nonpayable",
      "type": "function"
    },
    {
      "inputs": [
        {
          "internalType": "address",
          "name": "playerAddress",
          "type": "address"
        },
        {
          "internalType": "uint256",
          "name": "star",
          "type": "uint256"
        },
        {
          "internalType": "uint256",
          "name": "newCount",
          "type": "uint256"
        }
      ],
      "name": "setFishCount",
      "outputs": [],
      "stateMutability": "nonpayable",
      "type": "function"
    },
    {
      "inputs": [
        {
          "internalType": "address",
          "name": "playerAddress",
          "type": "address"
        },
        {
          "internalType": "uint256",
          "name": "newLevel",
          "type": "uint256"
        }
      ],
      "name": "setFishPoolLevel",
      "outputs": [],
      "stateMutability": "nonpayable",
      "type": "function"
    },
    {
      "inputs": [
        {
          "internalType": "uint256",
          "name": "_fishingCountLimit",
          "type": "uint256"
        }
      ],
      "name": "setFishingCountLimit",
      "outputs": [],
      "stateMutability": "nonpayable",
      "type": "function"
    },
    {
      "inputs": [
        {
          "internalType": "uint256",
          "name": "_levelUpLimit",
          "type": "uint256"
        }
      ],
      "name": "setLevelUpLimit",
      "outputs": [],
      "stateMutability": "nonpayable",
      "type": "function"
    },
    {
      "inputs": [
        {
          "internalType": "address",
          "name": "playerAddress",
          "type": "address"
        },
        {
          "internalType": "uint256",
          "name": "newLevel",
          "type": "uint256"
        }
      ],
      "name": "setPlayerLevel",
      "outputs": [],
      "stateMutability": "nonpayable",
      "type": "function"
    },
    {
      "inputs": [
        {
          "internalType": "bytes4",
          "name": "interfaceId",
          "type": "bytes4"
        }
      ],
      "name": "supportsInterface",
      "outputs": [
        {
          "internalType": "bool",
          "name": "",
          "type": "bool"
        }
      ],
      "stateMutability": "view",
      "type": "function"
    },
    {
      "inputs": [
        {
          "internalType": "uint256",
          "name": "spotId",
          "type": "uint256"
        },
        {
          "internalType": "address",
          "name": "userAddress",
          "type": "address"
        }
      ],
      "name": "switchFishingSpot",
      "outputs": [],
      "stateMutability": "nonpayable",
      "type": "function"
    },
    {
      "inputs": [
        {
          "internalType": "address",
          "name": "newOwner",
          "type": "address"
        }
      ],
      "name": "transferOwnership",
      "outputs": [],
      "stateMutability": "nonpayable",
      "type": "function"
    },
    {
      "inputs": [
        {
          "internalType": "address",
          "name": "userAddress",
          "type": "address"
        },
        {
          "internalType": "uint256",
          "name": "spotId",
          "type": "uint256"
        }
      ],
      "name": "unlockFishingSpot",
      "outputs": [],
      "stateMutability": "nonpayable",
      "type": "function"
    }
  ],
  "bytecode": "0x60806040523480156200001157600080fd5b5060405162005aa938038062005aa98339818101604052810190620000379190620003e9565b620000576200004b6200010660201b60201c565b6200010e60201b60201c565b60646004819055506063600681905550600a600781905550806008819055506200008b6000801b33620001d260201b60201c565b620000bd7fa49807205ce4d355092ef5a8a18f56e8913cf4a201fbe287825b095693c2177533620001d260201b60201c565b81600260006101000a81548173ffffffffffffffffffffffffffffffffffffffff021916908373ffffffffffffffffffffffffffffffffffffffff160217905550505062000430565b600033905090565b60008060009054906101000a900473ffffffffffffffffffffffffffffffffffffffff169050816000806101000a81548173ffffffffffffffffffffffffffffffffffffffff021916908373ffffffffffffffffffffffffffffffffffffffff1602179055508173ffffffffffffffffffffffffffffffffffffffff168173ffffffffffffffffffffffffffffffffffffffff167f8be0079c531659141344cd1fd0a4f28419497f9722a3daafe3b4186f6b6457e060405160405180910390a35050565b620001e48282620001e860201b60201c565b5050565b620001fa8282620002d960201b60201c565b620002d557600180600084815260200190815260200160002060000160008373ffffffffffffffffffffffffffffffffffffffff1673ffffffffffffffffffffffffffffffffffffffff16815260200190815260200160002060006101000a81548160ff0219169083151502179055506200027a6200010660201b60201c565b73ffffffffffffffffffffffffffffffffffffffff168173ffffffffffffffffffffffffffffffffffffffff16837f2f8788117e7eff1d82e926ec794901d17c78024a50270940304540a733656f0d60405160405180910390a45b5050565b60006001600084815260200190815260200160002060000160008373ffffffffffffffffffffffffffffffffffffffff1673ffffffffffffffffffffffffffffffffffffffff16815260200190815260200160002060009054906101000a900460ff16905092915050565b600080fd5b600073ffffffffffffffffffffffffffffffffffffffff82169050919050565b6000620003768262000349565b9050919050565b620003888162000369565b81146200039457600080fd5b50565b600081519050620003a8816200037d565b92915050565b6000819050919050565b620003c381620003ae565b8114620003cf57600080fd5b50565b600081519050620003e381620003b8565b92915050565b6000806040838503121562000403576200040262000344565b5b6000620004138582860162000397565b92505060206200042685828601620003d2565b9150509250929050565b61566980620004406000396000f3fe608060405234801561001057600080fd5b506004361061030c5760003560e01c8063951559001161019d578063cee8b4aa116100e9578063e55ae65a116100a2578063f20614051161007c578063f206140514610947578063f2fde38b14610965578063f3007bc414610981578063fbb5635f1461099d5761030c565b8063e55ae65a146108f1578063e678f86c1461090f578063e9bcc5f31461092b5761030c565b8063cee8b4aa14610831578063d4f08cca1461084f578063d547741f1461086b578063dea9051214610887578063e123b35d146108a3578063e1edd5fa146108c15761030c565b8063b474ca7611610156578063bf129fd011610130578063bf129fd0146107ad578063c24df7ff146107c9578063c6051a94146107e5578063ce7fa54d146108155761030c565b8063b474ca7614610757578063b5d626c414610775578063b8a3e1c6146107915761030c565b806395155900146106855780639a2395b5146106b55780639af7a00a146106e55780639deedd5b14610701578063a217fddf1461071d578063a63eba481461073b5761030c565b8063657a93931161025c578063715018a6116102155780638c953a78116101ef5780638c953a78146105e95780638ca5f74d146106195780638da5cb5b1461063757806391d14854146106555761030c565b8063715018a6146105b757806375b238fc146105c157806379ba5097146105df5761030c565b8063657a9393146104e55780636667a9a7146105015780636aba920b1461051f5780636b743a2c1461053b5780636f77926b1461056b578063704802751461059b5761030c565b806331c4ecdc116102c957806336568abe116102a357806336568abe14610461578063421b2d8b1461047d57806348aabab21461049957806353acd2ab146104c95761030c565b806331c4ecdc146103e55780633341fa471461041557806334b735a1146104315761030c565b806301ffc9a714610311578063047ac5de146103415780631785f53c1461035f57806318250e071461037b578063248a9ca3146103995780632f2ff15d146103c9575b600080fd5b61032b600480360381019061032691906142f7565b6109b9565b604051610338919061433f565b60405180910390f35b610349610a33565b60405161035691906143d9565b60405180910390f35b61037960048036038101906103749190614432565b610a59565b005b610383610a8e565b6040516103909190614478565b60405180910390f35b6103b360048036038101906103ae91906144c9565b610a94565b6040516103c09190614505565b60405180910390f35b6103e360048036038101906103de9190614520565b610ab4565b005b6103ff60048036038101906103fa9190614432565b610ad5565b60405161040c9190614478565b60405180910390f35b61042f600480360381019061042a919061458c565b610bad565b005b61044b60048036038101906104469190614432565b610e13565b6040516104589190614478565b60405180910390f35b61047b60048036038101906104769190614520565b610eeb565b005b61049760048036038101906104929190614432565b610f6e565b005b6104b360048036038101906104ae9190614432565b6112c6565b6040516104c09190614478565b60405180910390f35b6104e360048036038101906104de919061458c565b61139e565b005b6104ff60048036038101906104fa91906145cc565b61152c565b005b61050961159f565b6040516105169190614478565b60405180910390f35b6105396004803603810190610534919061458c565b6115a9565b005b61055560048036038101906105509190614432565b611737565b6040516105629190614478565b60405180910390f35b61058560048036038101906105809190614432565b61180f565b6040516105929190614847565b60405180910390f35b6105b560048036038101906105b09190614432565b611a71565b005b6105bf611aa6565b005b6105c9611aba565b6040516105d69190614505565b60405180910390f35b6105e7611ade565b005b61060360048036038101906105fe9190614432565b611bdd565b60405161061091906148c5565b60405180910390f35b610621611d1b565b60405161062e9190614478565b60405180910390f35b61063f611d25565b60405161064c91906148ef565b60405180910390f35b61066f600480360381019061066a9190614520565b611d4e565b60405161067c919061433f565b60405180910390f35b61069f600480360381019061069a9190614432565b611db9565b6040516106ac9190614478565b60405180910390f35b6106cf60048036038101906106ca9190614432565b611e91565b6040516106dc9190614478565b60405180910390f35b6106ff60048036038101906106fa919061490a565b611f36565b005b61071b600480360381019061071691906145cc565b6120da565b005b61072561214d565b6040516107329190614505565b60405180910390f35b6107556004803603810190610750919061458c565b612154565b005b61075f6122e2565b60405161076c9190614478565b60405180910390f35b61078f600480360381019061078a919061458c565b6122e8565b005b6107ab60048036038101906107a6919061458c565b6124fa565b005b6107c760048036038101906107c2919061458c565b612730565b005b6107e360048036038101906107de91906149c2565b6128be565b005b6107ff60048036038101906107fa9190614432565b61293d565b60405161080c9190614a71565b60405180910390f35b61082f600480360381019061082a9190614a8d565b612a56565b005b610839612c8d565b6040516108469190614478565b60405180910390f35b6108696004803603810190610864919061458c565b612c93565b005b61088560048036038101906108809190614520565b612f6b565b005b6108a1600480360381019061089c919061458c565b612f8c565b005b6108ab61315f565b6040516108b89190614b64565b60405180910390f35b6108db60048036038101906108d691906145cc565b6131b7565b6040516108e89190614478565b60405180910390f35b6108f96131db565b6040516109069190614478565b60405180910390f35b610929600480360381019061092491906145cc565b6131e1565b005b61094560048036038101906109409190614a8d565b613254565b005b61094f6133e2565b60405161095c9190614478565b60405180910390f35b61097f600480360381019061097a9190614432565b6133ec565b005b61099b6004803603810190610996919061458c565b613508565b005b6109b760048036038101906109b2919061458c565b613803565b005b60007f7965db0b000000000000000000000000000000000000000000000000000000007bffffffffffffffffffffffffffffffffffffffffffffffffffffffff1916827bffffffffffffffffffffffffffffffffffffffffffffffffffffffff19161480610a2c5750610a2b82613a28565b5b9050919050565b600260009054906101000a900473ffffffffffffffffffffffffffffffffffffffff1681565b610a61613a92565b610a8b7fa49807205ce4d355092ef5a8a18f56e8913cf4a201fbe287825b095693c2177582612f6b565b50565b60085481565b600060016000838152602001908152602001600020600101549050919050565b610abd82610a94565b610ac681613b10565b610ad08383613b24565b505050565b6000600a60008373ffffffffffffffffffffffffffffffffffffffff1673ffffffffffffffffffffffffffffffffffffffff16815260200190815260200160002060009054906101000a900460ff16610b63576040517f08c379a0000000000000000000000000000000000000000000000000000000008152600401610b5a90614be3565b60405180910390fd5b600960008373ffffffffffffffffffffffffffffffffffffffff1673ffffffffffffffffffffffffffffffffffffffff168152602001908152602001600020600701549050919050565b610bd77fa49807205ce4d355092ef5a8a18f56e8913cf4a201fbe287825b095693c2177533611d4e565b610c16576040517f08c379a0000000000000000000000000000000000000000000000000000000008152600401610c0d90614c4f565b60405180910390fd5b600a60008373ffffffffffffffffffffffffffffffffffffffff1673ffffffffffffffffffffffffffffffffffffffff16815260200190815260200160002060009054906101000a900460ff16610ca2576040517f08c379a0000000000000000000000000000000000000000000000000000000008152600401610c9990614be3565b60405180910390fd5b600960008373ffffffffffffffffffffffffffffffffffffffff1673ffffffffffffffffffffffffffffffffffffffff1681526020019081526020016000206005018160058110610cf657610cf5614c6f565b5b602091828204019190069054906101000a900460ff1615610d4c576040517f08c379a0000000000000000000000000000000000000000000000000000000008152600401610d4390614cea565b60405180910390fd5b6001600960008473ffffffffffffffffffffffffffffffffffffffff1673ffffffffffffffffffffffffffffffffffffffff1681526020019081526020016000206005018260058110610da257610da1614c6f565b5b602091828204019190066101000a81548160ff0219169083151502179055508173ffffffffffffffffffffffffffffffffffffffff167f0360d2b14437d87a5662a5fb50acff55f72716cd0f109c987defc3d7659ce04b82604051610e079190614478565b60405180910390a25050565b6000600a60008373ffffffffffffffffffffffffffffffffffffffff1673ffffffffffffffffffffffffffffffffffffffff16815260200190815260200160002060009054906101000a900460ff16610ea1576040517f08c379a0000000000000000000000000000000000000000000000000000000008152600401610e9890614be3565b60405180910390fd5b600960008373ffffffffffffffffffffffffffffffffffffffff1673ffffffffffffffffffffffffffffffffffffffff168152602001908152602001600020600201549050919050565b610ef3613c04565b73ffffffffffffffffffffffffffffffffffffffff168173ffffffffffffffffffffffffffffffffffffffff1614610f60576040517f08c379a0000000000000000000000000000000000000000000000000000000008152600401610f5790614d7c565b60405180910390fd5b610f6a8282613c0c565b5050565b610f987fa49807205ce4d355092ef5a8a18f56e8913cf4a201fbe287825b095693c2177533611d4e565b610fd7576040517f08c379a0000000000000000000000000000000000000000000000000000000008152600401610fce90614c4f565b60405180910390fd5b600a60008273ffffffffffffffffffffffffffffffffffffffff1673ffffffffffffffffffffffffffffffffffffffff16815260200190815260200160002060009054906101000a900460ff1615611064576040517f08c379a000000000000000000000000000000000000000000000000000000000815260040161105b90614de8565b60405180910390fd5b60405180610180016040528060008152602001600081526020016001815260200160008152602001600081526020016040518060a001604052806001151515158152602001600015151515815260200160001515151581526020016000151515158152602001600015151515815250815260200160008152602001600181526020016040518061014001604052806000815260200160008152602001600081526020016000815260200160008152602001600081526020016000815260200160008152602001600081526020016000815250815260200160008152602001600081526020016000815250600960008373ffffffffffffffffffffffffffffffffffffffff1673ffffffffffffffffffffffffffffffffffffffff168152602001908152602001600020600082015181600001556020820151816001015560408201518160020155606082015181600301556080820151816004015560a0820151816005019060056111d69291906140a0565b5060c0820151816006015560e082015181600701556101008201518160080190600a611203929190614139565b506101208201518160120155610140820151816013015561016082015181601401559050506001600a60008373ffffffffffffffffffffffffffffffffffffffff1673ffffffffffffffffffffffffffffffffffffffff16815260200190815260200160002060006101000a81548160ff0219169083151502179055508073ffffffffffffffffffffffffffffffffffffffff167ff2ae205522024c14e5a7a26ba6d1fb1252dc8e161b5abc79ed5795fd3c5b926160405160405180910390a250565b6000600a60008373ffffffffffffffffffffffffffffffffffffffff1673ffffffffffffffffffffffffffffffffffffffff16815260200190815260200160002060009054906101000a900460ff16611354576040517f08c379a000000000000000000000000000000000000000000000000000000000815260040161134b90614be3565b60405180910390fd5b600960008373ffffffffffffffffffffffffffffffffffffffff1673ffffffffffffffffffffffffffffffffffffffff168152602001908152602001600020601401549050919050565b6113c87fa49807205ce4d355092ef5a8a18f56e8913cf4a201fbe287825b095693c2177533611d4e565b611407576040517f08c379a00000000000000000000000000000000000000000000000000000000081526004016113fe90614c4f565b60405180910390fd5b600a60008373ffffffffffffffffffffffffffffffffffffffff1673ffffffffffffffffffffffffffffffffffffffff16815260200190815260200160002060009054906101000a900460ff16611493576040517f08c379a000000000000000000000000000000000000000000000000000000000815260040161148a90614be3565b60405180910390fd5b80600960008473ffffffffffffffffffffffffffffffffffffffff1673ffffffffffffffffffffffffffffffffffffffff168152602001908152602001600020600301819055508173ffffffffffffffffffffffffffffffffffffffff167f08e9f015b4a09d3e66a5d3703ecc0d035e52da672786c75b807300bd4a72530d826040516115209190614478565b60405180910390a25050565b6115567fa49807205ce4d355092ef5a8a18f56e8913cf4a201fbe287825b095693c2177533611d4e565b611595576040517f08c379a000000000000000000000000000000000000000000000000000000000815260040161158c90614c4f565b60405180910390fd5b8060068190555050565b6000600654905090565b6115d37fa49807205ce4d355092ef5a8a18f56e8913cf4a201fbe287825b095693c2177533611d4e565b611612576040517f08c379a000000000000000000000000000000000000000000000000000000000815260040161160990614c4f565b60405180910390fd5b600a60008373ffffffffffffffffffffffffffffffffffffffff1673ffffffffffffffffffffffffffffffffffffffff16815260200190815260200160002060009054906101000a900460ff1661169e576040517f08c379a000000000000000000000000000000000000000000000000000000000815260040161169590614be3565b60405180910390fd5b80600960008473ffffffffffffffffffffffffffffffffffffffff1673ffffffffffffffffffffffffffffffffffffffff168152602001908152602001600020601401819055508173ffffffffffffffffffffffffffffffffffffffff167f61de7c9c9fef84bf815ad3b2d17a9af3d0655af7a1c9423e5d2dee99ec5c6ffc8260405161172b9190614478565b60405180910390a25050565b6000600a60008373ffffffffffffffffffffffffffffffffffffffff1673ffffffffffffffffffffffffffffffffffffffff16815260200190815260200160002060009054906101000a900460ff166117c5576040517f08c379a00000000000000000000000000000000000000000000000000000000081526004016117bc90614be3565b60405180910390fd5b600960008373ffffffffffffffffffffffffffffffffffffffff1673ffffffffffffffffffffffffffffffffffffffff168152602001908152602001600020600101549050919050565b611817614179565b6118417fa49807205ce4d355092ef5a8a18f56e8913cf4a201fbe287825b095693c2177533611d4e565b611880576040517f08c379a000000000000000000000000000000000000000000000000000000000815260040161187790614c4f565b60405180910390fd5b600a60008373ffffffffffffffffffffffffffffffffffffffff1673ffffffffffffffffffffffffffffffffffffffff16815260200190815260200160002060009054906101000a900460ff1661190c576040517f08c379a000000000000000000000000000000000000000000000000000000000815260040161190390614be3565b60405180910390fd5b600960008373ffffffffffffffffffffffffffffffffffffffff1673ffffffffffffffffffffffffffffffffffffffff168152602001908152602001600020604051806101800160405290816000820154815260200160018201548152602001600282015481526020016003820154815260200160048201548152602001600582016005806020026040519081016040528092919082600580156119ea576020028201916000905b82829054906101000a900460ff161515815260200190600101906020826000010492830192600103820291508084116119b45790505b50505050508152602001600682015481526020016007820154815260200160088201600a806020026040519081016040528092919082600a8015611a43576020028201915b815481526020019060010190808311611a2f575b5050505050815260200160128201548152602001601382015481526020016014820154815250509050919050565b611a79613a92565b611aa37fa49807205ce4d355092ef5a8a18f56e8913cf4a201fbe287825b095693c2177582610ab4565b50565b611aae613a92565b611ab86000613cee565b565b7fa49807205ce4d355092ef5a8a18f56e8913cf4a201fbe287825b095693c2177581565b600360009054906101000a900473ffffffffffffffffffffffffffffffffffffffff1673ffffffffffffffffffffffffffffffffffffffff163373ffffffffffffffffffffffffffffffffffffffff1614611b6e576040517f08c379a0000000000000000000000000000000000000000000000000000000008152600401611b6590614e54565b60405180910390fd5b611b99600360009054906101000a900473ffffffffffffffffffffffffffffffffffffffff16613cee565b6000600360006101000a81548173ffffffffffffffffffffffffffffffffffffffff021916908373ffffffffffffffffffffffffffffffffffffffff160217905550565b611be56141e6565b600a60008373ffffffffffffffffffffffffffffffffffffffff1673ffffffffffffffffffffffffffffffffffffffff16815260200190815260200160002060009054906101000a900460ff16611c71576040517f08c379a0000000000000000000000000000000000000000000000000000000008152600401611c6890614be3565b60405180910390fd5b600960008373ffffffffffffffffffffffffffffffffffffffff1673ffffffffffffffffffffffffffffffffffffffff168152602001908152602001600020600501600580602002604051908101604052809291908260058015611d0f576020028201916000905b82829054906101000a900460ff16151581526020019060010190602082600001049283019260010382029150808411611cd95790505b50505050509050919050565b6000600454905090565b60008060009054906101000a900473ffffffffffffffffffffffffffffffffffffffff16905090565b60006001600084815260200190815260200160002060000160008373ffffffffffffffffffffffffffffffffffffffff1673ffffffffffffffffffffffffffffffffffffffff16815260200190815260200160002060009054906101000a900460ff16905092915050565b6000600a60008373ffffffffffffffffffffffffffffffffffffffff1673ffffffffffffffffffffffffffffffffffffffff16815260200190815260200160002060009054906101000a900460ff16611e47576040517f08c379a0000000000000000000000000000000000000000000000000000000008152600401611e3e90614be3565b60405180910390fd5b600960008373ffffffffffffffffffffffffffffffffffffffff1673ffffffffffffffffffffffffffffffffffffffff168152602001908152602001600020601301549050919050565b6000600260009054906101000a900473ffffffffffffffffffffffffffffffffffffffff1673ffffffffffffffffffffffffffffffffffffffff166370a08231836040518263ffffffff1660e01b8152600401611eee91906148ef565b602060405180830381865afa158015611f0b573d6000803e3d6000fd5b505050506040513d601f19601f82011682018060405250810190611f2f9190614e89565b9050919050565b611f607fa49807205ce4d355092ef5a8a18f56e8913cf4a201fbe287825b095693c2177533611d4e565b611f9f576040517f08c379a0000000000000000000000000000000000000000000000000000000008152600401611f9690614c4f565b60405180910390fd5b600a60008473ffffffffffffffffffffffffffffffffffffffff1673ffffffffffffffffffffffffffffffffffffffff16815260200190815260200160002060009054906101000a900460ff1661202b576040517f08c379a000000000000000000000000000000000000000000000000000000000815260040161202290614be3565b60405180910390fd5b80600960008573ffffffffffffffffffffffffffffffffffffffff1673ffffffffffffffffffffffffffffffffffffffff16815260200190815260200160002060080183600a81106120805761207f614c6f565b5b01819055508273ffffffffffffffffffffffffffffffffffffffff167f374ed846dc3e18a969aef22277ce3669832a6ea83e3088149d5b40319413de4783836040516120cd929190614eb6565b60405180910390a2505050565b6121047fa49807205ce4d355092ef5a8a18f56e8913cf4a201fbe287825b095693c2177533611d4e565b612143576040517f08c379a000000000000000000000000000000000000000000000000000000000815260040161213a90614c4f565b60405180910390fd5b8060078190555050565b6000801b81565b61217e7fa49807205ce4d355092ef5a8a18f56e8913cf4a201fbe287825b095693c2177533611d4e565b6121bd576040517f08c379a00000000000000000000000000000000000000000000000000000000081526004016121b490614c4f565b60405180910390fd5b600a60008373ffffffffffffffffffffffffffffffffffffffff1673ffffffffffffffffffffffffffffffffffffffff16815260200190815260200160002060009054906101000a900460ff16612249576040517f08c379a000000000000000000000000000000000000000000000000000000000815260040161224090614be3565b60405180910390fd5b80600960008473ffffffffffffffffffffffffffffffffffffffff1673ffffffffffffffffffffffffffffffffffffffff168152602001908152602001600020601301819055508173ffffffffffffffffffffffffffffffffffffffff167f7f299cebc3c4384ae412a6ba151d00bd215add4b1379155dd71c3376cbf07df6826040516122d69190614478565b60405180910390a25050565b60065481565b6123127fa49807205ce4d355092ef5a8a18f56e8913cf4a201fbe287825b095693c2177533611d4e565b612351576040517f08c379a000000000000000000000000000000000000000000000000000000000815260040161234890614c4f565b60405180910390fd5b6000600960008473ffffffffffffffffffffffffffffffffffffffff1673ffffffffffffffffffffffffffffffffffffffff168152602001908152602001600020601301549050818110156123db576040517f08c379a00000000000000000000000000000000000000000000000000000000081526004016123d290614f2b565b60405180910390fd5b600260009054906101000a900473ffffffffffffffffffffffffffffffffffffffff1673ffffffffffffffffffffffffffffffffffffffff166340c10f1984846040518363ffffffff1660e01b8152600401612438929190614f4b565b600060405180830381600087803b15801561245257600080fd5b505af1158015612466573d6000803e3d6000fd5b5050505081816124769190614fa3565b600960008573ffffffffffffffffffffffffffffffffffffffff1673ffffffffffffffffffffffffffffffffffffffff168152602001908152602001600020601301819055507f190fe81f396538a8654aafa1adcdabc1825d53aa9fa6dd809991683d943e3a1783836040516124ed929190614f4b565b60405180910390a1505050565b6125247fa49807205ce4d355092ef5a8a18f56e8913cf4a201fbe287825b095693c2177533611d4e565b612563576040517f08c379a000000000000000000000000000000000000000000000000000000000815260040161255a90614c4f565b60405180910390fd5b600a60008373ffffffffffffffffffffffffffffffffffffffff1673ffffffffffffffffffffffffffffffffffffffff16815260200190815260200160002060009054906101000a900460ff166125ef576040517f08c379a00000000000000000000000000000000000000000000000000000000081526004016125e690614be3565b60405180910390fd5b80600960008473ffffffffffffffffffffffffffffffffffffffff1673ffffffffffffffffffffffffffffffffffffffff16815260200190815260200160002060000160008282546126419190614fd7565b92505081905550600754600960008473ffffffffffffffffffffffffffffffffffffffff1673ffffffffffffffffffffffffffffffffffffffff1681526020019081526020016000206000015411156126de57600754600960008473ffffffffffffffffffffffffffffffffffffffff1673ffffffffffffffffffffffffffffffffffffffff168152602001908152602001600020600001819055505b8173ffffffffffffffffffffffffffffffffffffffff167f6a76d52d14781039d7db45ded84b6c5fa6f929107296139b703dac685737e14d826040516127249190614478565b60405180910390a25050565b61275a7fa49807205ce4d355092ef5a8a18f56e8913cf4a201fbe287825b095693c2177533611d4e565b612799576040517f08c379a000000000000000000000000000000000000000000000000000000000815260040161279090614c4f565b60405180910390fd5b600a60008373ffffffffffffffffffffffffffffffffffffffff1673ffffffffffffffffffffffffffffffffffffffff16815260200190815260200160002060009054906101000a900460ff16612825576040517f08c379a000000000000000000000000000000000000000000000000000000000815260040161281c90614be3565b60405180910390fd5b80600960008473ffffffffffffffffffffffffffffffffffffffff1673ffffffffffffffffffffffffffffffffffffffff168152602001908152602001600020600701819055508173ffffffffffffffffffffffffffffffffffffffff167f7ed17f7b101bb354c92f134f7c421a00e511b046abf1edceb1956966e7443480826040516128b29190614478565b60405180910390a25050565b6128e87fa49807205ce4d355092ef5a8a18f56e8913cf4a201fbe287825b095693c2177533611d4e565b612927576040517f08c379a000000000000000000000000000000000000000000000000000000000815260040161291e90614c4f565b60405180910390fd5b818160059190612938929190614208565b505050565b612945614255565b600a60008373ffffffffffffffffffffffffffffffffffffffff1673ffffffffffffffffffffffffffffffffffffffff16815260200190815260200160002060009054906101000a900460ff166129d1576040517f08c379a00000000000000000000000000000000000000000000000000000000081526004016129c890614be3565b60405180910390fd5b600960008373ffffffffffffffffffffffffffffffffffffffff1673ffffffffffffffffffffffffffffffffffffffff168152602001908152602001600020600801600a806020026040519081016040528092919082600a8015612a4a576020028201915b815481526020019060010190808311612a36575b50505050509050919050565b612a807fa49807205ce4d355092ef5a8a18f56e8913cf4a201fbe287825b095693c2177533611d4e565b612abf576040517f08c379a0000000000000000000000000000000000000000000000000000000008152600401612ab690614c4f565b60405180910390fd5b600a60008273ffffffffffffffffffffffffffffffffffffffff1673ffffffffffffffffffffffffffffffffffffffff16815260200190815260200160002060009054906101000a900460ff16612b4b576040517f08c379a0000000000000000000000000000000000000000000000000000000008152600401612b4290614be3565b60405180910390fd5b600960008273ffffffffffffffffffffffffffffffffffffffff1673ffffffffffffffffffffffffffffffffffffffff1681526020019081526020016000206005018260058110612b9f57612b9e614c6f565b5b602091828204019190069054906101000a900460ff16612bf4576040517f08c379a0000000000000000000000000000000000000000000000000000000008152600401612beb90615057565b60405180910390fd5b81600960008373ffffffffffffffffffffffffffffffffffffffff1673ffffffffffffffffffffffffffffffffffffffff168152602001908152602001600020600601819055508073ffffffffffffffffffffffffffffffffffffffff167f4c2800550cf1e110610e26517bbd1bcc6d88c3390eb4aa75bc2744cb9a954a0583604051612c819190614478565b60405180910390a25050565b60045481565b612cbd7fa49807205ce4d355092ef5a8a18f56e8913cf4a201fbe287825b095693c2177533611d4e565b612cfc576040517f08c379a0000000000000000000000000000000000000000000000000000000008152600401612cf390614c4f565b60405180910390fd5b600060085482612d0c9190615077565b905080600260009054906101000a900473ffffffffffffffffffffffffffffffffffffffff1673ffffffffffffffffffffffffffffffffffffffff166370a08231856040518263ffffffff1660e01b8152600401612d6a91906148ef565b602060405180830381865afa158015612d87573d6000803e3d6000fd5b505050506040513d601f19601f82011682018060405250810190612dab9190614e89565b1015612dec576040517f08c379a0000000000000000000000000000000000000000000000000000000008152600401612de390615105565b60405180910390fd5b600260009054906101000a900473ffffffffffffffffffffffffffffffffffffffff1673ffffffffffffffffffffffffffffffffffffffff1663beabacc88430846040518463ffffffff1660e01b8152600401612e4b93929190615125565b600060405180830381600087803b158015612e6557600080fd5b505af1158015612e79573d6000803e3d6000fd5b5050505081600960008573ffffffffffffffffffffffffffffffffffffffff1673ffffffffffffffffffffffffffffffffffffffff1681526020019081526020016000206014016000828254612ecf9190614fd7565b925050819055508273ffffffffffffffffffffffffffffffffffffffff167f61de7c9c9fef84bf815ad3b2d17a9af3d0655af7a1c9423e5d2dee99ec5c6ffc600960008673ffffffffffffffffffffffffffffffffffffffff1673ffffffffffffffffffffffffffffffffffffffff16815260200190815260200160002060140154604051612f5e9190614478565b60405180910390a2505050565b612f7482610a94565b612f7d81613b10565b612f878383613c0c565b505050565b612fb67fa49807205ce4d355092ef5a8a18f56e8913cf4a201fbe287825b095693c2177533611d4e565b612ff5576040517f08c379a0000000000000000000000000000000000000000000000000000000008152600401612fec90614c4f565b60405180910390fd5b600a60008373ffffffffffffffffffffffffffffffffffffffff1673ffffffffffffffffffffffffffffffffffffffff16815260200190815260200160002060009054906101000a900460ff16613081576040517f08c379a000000000000000000000000000000000000000000000000000000000815260040161307890614be3565b60405180910390fd5b6004548111156130c6576040517f08c379a00000000000000000000000000000000000000000000000000000000081526004016130bd906151a8565b60405180910390fd5b80600960008473ffffffffffffffffffffffffffffffffffffffff1673ffffffffffffffffffffffffffffffffffffffff168152602001908152602001600020600201819055508173ffffffffffffffffffffffffffffffffffffffff167f7b45410837b569e79f978c88fbb1ab01a26d6922675e4de2fc0bae4e0586ceac826040516131539190614478565b60405180910390a25050565b606060058054806020026020016040519081016040528092919081815260200182805480156131ad57602002820191906000526020600020905b815481526020019060010190808311613199575b5050505050905090565b600581815481106131c757600080fd5b906000526020600020016000915090505481565b60075481565b61320b7fa49807205ce4d355092ef5a8a18f56e8913cf4a201fbe287825b095693c2177533611d4e565b61324a576040517f08c379a000000000000000000000000000000000000000000000000000000000815260040161324190614c4f565b60405180910390fd5b8060048190555050565b61327e7fa49807205ce4d355092ef5a8a18f56e8913cf4a201fbe287825b095693c2177533611d4e565b6132bd576040517f08c379a00000000000000000000000000000000000000000000000000000000081526004016132b490614c4f565b60405180910390fd5b600a60008273ffffffffffffffffffffffffffffffffffffffff1673ffffffffffffffffffffffffffffffffffffffff16815260200190815260200160002060009054906101000a900460ff16613349576040517f08c379a000000000000000000000000000000000000000000000000000000000815260040161334090614be3565b60405180910390fd5b81600960008373ffffffffffffffffffffffffffffffffffffffff1673ffffffffffffffffffffffffffffffffffffffff168152602001908152602001600020600401819055508073ffffffffffffffffffffffffffffffffffffffff167fcc9803ff35bbb65900301a2b84f90ad432fd23b513fb5dddcb6f4568cb9c54c9836040516133d69190614478565b60405180910390a25050565b6000600754905090565b6133f4613a92565b600073ffffffffffffffffffffffffffffffffffffffff168173ffffffffffffffffffffffffffffffffffffffff1603613463576040517f08c379a000000000000000000000000000000000000000000000000000000000815260040161345a90615214565b60405180910390fd5b80600360006101000a81548173ffffffffffffffffffffffffffffffffffffffff021916908373ffffffffffffffffffffffffffffffffffffffff1602179055508073ffffffffffffffffffffffffffffffffffffffff166134c3611d25565b73ffffffffffffffffffffffffffffffffffffffff167f38d16b8cac22d99fc7c124b9cd0de2d3fa1faef420bfe791d8c362d765e2270060405160405180910390a350565b6135327fa49807205ce4d355092ef5a8a18f56e8913cf4a201fbe287825b095693c2177533611d4e565b613571576040517f08c379a000000000000000000000000000000000000000000000000000000000815260040161356890614c4f565b60405180910390fd5b600a60008373ffffffffffffffffffffffffffffffffffffffff1673ffffffffffffffffffffffffffffffffffffffff16815260200190815260200160002060009054906101000a900460ff166135fd576040517f08c379a00000000000000000000000000000000000000000000000000000000081526004016135f490614be3565b60405180910390fd5b600060058054905011613645576040517f08c379a000000000000000000000000000000000000000000000000000000000815260040161363c90615280565b60405180910390fd5b6000600960008473ffffffffffffffffffffffffffffffffffffffff1673ffffffffffffffffffffffffffffffffffffffff16815260200190815260200160002090508181600101600082825461369c9190614fd7565b925050819055505b60045481600201541080156136eb57506005600182600201546136c79190614fa3565b815481106136d8576136d7614c6f565b5b9060005260206000200154816001015410155b156137aa576005600182600201546137039190614fa3565b8154811061371457613713614c6f565b5b90600052602060002001548160010160008282546137329190614fa3565b9250508190555080600201600081548092919061374e906152a0565b91905055508273ffffffffffffffffffffffffffffffffffffffff167f85223984c4720843b1b5aa66f09162e4d7494973839e9c8dbea375c91978d4f4826002015460405161379d9190614478565b60405180910390a26136a4565b8273ffffffffffffffffffffffffffffffffffffffff167f81665166aed8384c9df23393834f1b549569bbb3ca825f52f8390f1bbe1638718383600101546040516137f6929190614eb6565b60405180910390a2505050565b61382d7fa49807205ce4d355092ef5a8a18f56e8913cf4a201fbe287825b095693c2177533611d4e565b61386c576040517f08c379a000000000000000000000000000000000000000000000000000000000815260040161386390614c4f565b60405180910390fd5b600a60008373ffffffffffffffffffffffffffffffffffffffff1673ffffffffffffffffffffffffffffffffffffffff16815260200190815260200160002060009054906101000a900460ff166138f8576040517f08c379a00000000000000000000000000000000000000000000000000000000081526004016138ef90614be3565b60405180910390fd5b80600960008473ffffffffffffffffffffffffffffffffffffffff1673ffffffffffffffffffffffffffffffffffffffff16815260200190815260200160002060000154101561397d576040517f08c379a000000000000000000000000000000000000000000000000000000000815260040161397490615334565b60405180910390fd5b80600960008473ffffffffffffffffffffffffffffffffffffffff1673ffffffffffffffffffffffffffffffffffffffff16815260200190815260200160002060000160008282546139cf9190614fa3565b925050819055508173ffffffffffffffffffffffffffffffffffffffff167fa1b390e00aa9c506aa85d0472ccb1965f023e6323a100287d5963e07a5b7d2c782604051613a1c9190614478565b60405180910390a25050565b60007f01ffc9a7000000000000000000000000000000000000000000000000000000007bffffffffffffffffffffffffffffffffffffffffffffffffffffffff1916827bffffffffffffffffffffffffffffffffffffffffffffffffffffffff1916149050919050565b613a9a613c04565b73ffffffffffffffffffffffffffffffffffffffff16613ab8611d25565b73ffffffffffffffffffffffffffffffffffffffff1614613b0e576040517f08c379a0000000000000000000000000000000000000000000000000000000008152600401613b05906153a0565b60405180910390fd5b565b613b2181613b1c613c04565b613db2565b50565b613b2e8282611d4e565b613c0057600180600084815260200190815260200160002060000160008373ffffffffffffffffffffffffffffffffffffffff1673ffffffffffffffffffffffffffffffffffffffff16815260200190815260200160002060006101000a81548160ff021916908315150217905550613ba5613c04565b73ffffffffffffffffffffffffffffffffffffffff168173ffffffffffffffffffffffffffffffffffffffff16837f2f8788117e7eff1d82e926ec794901d17c78024a50270940304540a733656f0d60405160405180910390a45b5050565b600033905090565b613c168282611d4e565b15613cea5760006001600084815260200190815260200160002060000160008373ffffffffffffffffffffffffffffffffffffffff1673ffffffffffffffffffffffffffffffffffffffff16815260200190815260200160002060006101000a81548160ff021916908315150217905550613c8f613c04565b73ffffffffffffffffffffffffffffffffffffffff168173ffffffffffffffffffffffffffffffffffffffff16837ff6391f5c32d9c69d2a47ea670b442974b53935d1edc7fd64eb21e047a839171b60405160405180910390a45b5050565b60008060009054906101000a900473ffffffffffffffffffffffffffffffffffffffff169050816000806101000a81548173ffffffffffffffffffffffffffffffffffffffff021916908373ffffffffffffffffffffffffffffffffffffffff1602179055508173ffffffffffffffffffffffffffffffffffffffff168173ffffffffffffffffffffffffffffffffffffffff167f8be0079c531659141344cd1fd0a4f28419497f9722a3daafe3b4186f6b6457e060405160405180910390a35050565b613dbc8282611d4e565b613e3357613dc981613e37565b613dd78360001c6020613e64565b604051602001613de89291906154c9565b6040516020818303038152906040526040517f08c379a0000000000000000000000000000000000000000000000000000000008152600401613e2a919061554d565b60405180910390fd5b5050565b6060613e5d8273ffffffffffffffffffffffffffffffffffffffff16601460ff16613e64565b9050919050565b606060006002836002613e779190615077565b613e819190614fd7565b67ffffffffffffffff811115613e9a57613e9961556f565b5b6040519080825280601f01601f191660200182016040528015613ecc5781602001600182028036833780820191505090505b5090507f300000000000000000000000000000000000000000000000000000000000000081600081518110613f0457613f03614c6f565b5b60200101907effffffffffffffffffffffffffffffffffffffffffffffffffffffffffffff1916908160001a9053507f780000000000000000000000000000000000000000000000000000000000000081600181518110613f6857613f67614c6f565b5b60200101907effffffffffffffffffffffffffffffffffffffffffffffffffffffffffffff1916908160001a90535060006001846002613fa89190615077565b613fb29190614fd7565b90505b6001811115614052577f3031323334353637383961626364656600000000000000000000000000000000600f861660108110613ff457613ff3614c6f565b5b1a60f81b82828151811061400b5761400a614c6f565b5b60200101907effffffffffffffffffffffffffffffffffffffffffffffffffffffffffffff1916908160001a905350600485901c94508061404b9061559e565b9050613fb5565b5060008414614096576040517f08c379a000000000000000000000000000000000000000000000000000000000815260040161408d90615613565b60405180910390fd5b8091505092915050565b826005601f016020900481019282156141285791602002820160005b838211156140f957835183826101000a81548160ff02191690831515021790555092602001926001016020816000010492830192600103026140bc565b80156141265782816101000a81549060ff02191690556001016020816000010492830192600103026140f9565b505b5090506141359190614278565b5090565b82600a8101928215614168579160200282015b8281111561416757825182559160200191906001019061414c565b5b5090506141759190614278565b5090565b60405180610180016040528060008152602001600081526020016000815260200160008152602001600081526020016141b06141e6565b815260200160008152602001600081526020016141cb614255565b81526020016000815260200160008152602001600081525090565b6040518060a00160405280600590602082028036833780820191505090505090565b828054828255906000526020600020908101928215614244579160200282015b82811115614243578235825591602001919060010190614228565b5b5090506142519190614278565b5090565b604051806101400160405280600a90602082028036833780820191505090505090565b5b80821115614291576000816000905550600101614279565b5090565b600080fd5b600080fd5b60007fffffffff0000000000000000000000000000000000000000000000000000000082169050919050565b6142d48161429f565b81146142df57600080fd5b50565b6000813590506142f1816142cb565b92915050565b60006020828403121561430d5761430c614295565b5b600061431b848285016142e2565b91505092915050565b60008115159050919050565b61433981614324565b82525050565b60006020820190506143546000830184614330565b92915050565b600073ffffffffffffffffffffffffffffffffffffffff82169050919050565b6000819050919050565b600061439f61439a6143958461435a565b61437a565b61435a565b9050919050565b60006143b182614384565b9050919050565b60006143c3826143a6565b9050919050565b6143d3816143b8565b82525050565b60006020820190506143ee60008301846143ca565b92915050565b60006143ff8261435a565b9050919050565b61440f816143f4565b811461441a57600080fd5b50565b60008135905061442c81614406565b92915050565b60006020828403121561444857614447614295565b5b60006144568482850161441d565b91505092915050565b6000819050919050565b6144728161445f565b82525050565b600060208201905061448d6000830184614469565b92915050565b6000819050919050565b6144a681614493565b81146144b157600080fd5b50565b6000813590506144c38161449d565b92915050565b6000602082840312156144df576144de614295565b5b60006144ed848285016144b4565b91505092915050565b6144ff81614493565b82525050565b600060208201905061451a60008301846144f6565b92915050565b6000806040838503121561453757614536614295565b5b6000614545858286016144b4565b92505060206145568582860161441d565b9150509250929050565b6145698161445f565b811461457457600080fd5b50565b60008135905061458681614560565b92915050565b600080604083850312156145a3576145a2614295565b5b60006145b18582860161441d565b92505060206145c285828601614577565b9150509250929050565b6000602082840312156145e2576145e1614295565b5b60006145f084828501614577565b91505092915050565b6146028161445f565b82525050565b600060059050919050565b600081905092915050565b6000819050919050565b61463181614324565b82525050565b60006146438383614628565b60208301905092915050565b6000602082019050919050565b61466581614608565b61466f8184614613565b925061467a8261461e565b8060005b838110156146ab5781516146928782614637565b965061469d8361464f565b92505060018101905061467e565b505050505050565b6000600a9050919050565b600081905092915050565b6000819050919050565b60006146df83836145f9565b60208301905092915050565b6000602082019050919050565b614701816146b3565b61470b81846146be565b9250614716826146c9565b8060005b8381101561474757815161472e87826146d3565b9650614739836146eb565b92505060018101905061471a565b505050505050565b6103208201600082015161476660008501826145f9565b50602082015161477960208501826145f9565b50604082015161478c60408501826145f9565b50606082015161479f60608501826145f9565b5060808201516147b260808501826145f9565b5060a08201516147c560a085018261465c565b5060c08201516147d96101408501826145f9565b5060e08201516147ed6101608501826145f9565b506101008201516148026101808501826146f8565b506101208201516148176102c08501826145f9565b5061014082015161482c6102e08501826145f9565b506101608201516148416103008501826145f9565b50505050565b60006103208201905061485d600083018461474f565b92915050565b600081905092915050565b61487781614608565b6148818184614863565b925061488c8261461e565b8060005b838110156148bd5781516148a48782614637565b96506148af8361464f565b925050600181019050614890565b505050505050565b600060a0820190506148da600083018461486e565b92915050565b6148e9816143f4565b82525050565b600060208201905061490460008301846148e0565b92915050565b60008060006060848603121561492357614922614295565b5b60006149318682870161441d565b935050602061494286828701614577565b925050604061495386828701614577565b9150509250925092565b600080fd5b600080fd5b600080fd5b60008083601f8401126149825761498161495d565b5b8235905067ffffffffffffffff81111561499f5761499e614962565b5b6020830191508360208202830111156149bb576149ba614967565b5b9250929050565b600080602083850312156149d9576149d8614295565b5b600083013567ffffffffffffffff8111156149f7576149f661429a565b5b614a038582860161496c565b92509250509250929050565b600081905092915050565b614a23816146b3565b614a2d8184614a0f565b9250614a38826146c9565b8060005b83811015614a69578151614a5087826146d3565b9650614a5b836146eb565b925050600181019050614a3c565b505050505050565b600061014082019050614a876000830184614a1a565b92915050565b60008060408385031215614aa457614aa3614295565b5b6000614ab285828601614577565b9250506020614ac38582860161441d565b9150509250929050565b600081519050919050565b600082825260208201905092915050565b6000819050602082019050919050565b6000602082019050919050565b6000614b1182614acd565b614b1b8185614ad8565b9350614b2683614ae9565b8060005b83811015614b57578151614b3e88826146d3565b9750614b4983614af9565b925050600181019050614b2a565b5085935050505092915050565b60006020820190508181036000830152614b7e8184614b06565b905092915050565b600082825260208201905092915050565b7f506c61796572206e6f7420726567697374657265640000000000000000000000600082015250565b6000614bcd601583614b86565b9150614bd882614b97565b602082019050919050565b60006020820190508181036000830152614bfc81614bc0565b9050919050565b7f43616c6c6572206973206e6f7420616e2061646d696e00000000000000000000600082015250565b6000614c39601683614b86565b9150614c4482614c03565b602082019050919050565b60006020820190508181036000830152614c6881614c2c565b9050919050565b7f4e487b7100000000000000000000000000000000000000000000000000000000600052603260045260246000fd5b7f46697368696e672073706f7420616c726561647920756e6c6f636b6564000000600082015250565b6000614cd4601d83614b86565b9150614cdf82614c9e565b602082019050919050565b60006020820190508181036000830152614d0381614cc7565b9050919050565b7f416363657373436f6e74726f6c3a2063616e206f6e6c792072656e6f756e636560008201527f20726f6c657320666f722073656c660000000000000000000000000000000000602082015250565b6000614d66602f83614b86565b9150614d7182614d0a565b604082019050919050565b60006020820190508181036000830152614d9581614d59565b9050919050565b7f506c6179657220616c7265616479207265676973746572656400000000000000600082015250565b6000614dd2601983614b86565b9150614ddd82614d9c565b602082019050919050565b60006020820190508181036000830152614e0181614dc5565b9050919050565b7f43616c6c6572206973206e6f74207468652070656e64696e67206f776e657200600082015250565b6000614e3e601f83614b86565b9150614e4982614e08565b602082019050919050565b60006020820190508181036000830152614e6d81614e31565b9050919050565b600081519050614e8381614560565b92915050565b600060208284031215614e9f57614e9e614295565b5b6000614ead84828501614e74565b91505092915050565b6000604082019050614ecb6000830185614469565b614ed86020830184614469565b9392505050565b7f4e6f20656e6f75676820474d4320746f20636c61696d00000000000000000000600082015250565b6000614f15601683614b86565b9150614f2082614edf565b602082019050919050565b60006020820190508181036000830152614f4481614f08565b9050919050565b6000604082019050614f6060008301856148e0565b614f6d6020830184614469565b9392505050565b7f4e487b7100000000000000000000000000000000000000000000000000000000600052601160045260246000fd5b6000614fae8261445f565b9150614fb98361445f565b9250828203905081811115614fd157614fd0614f74565b5b92915050565b6000614fe28261445f565b9150614fed8361445f565b925082820190508082111561500557615004614f74565b5b92915050565b7f46697368696e672073706f74206e6f7420756e6c6f636b656400000000000000600082015250565b6000615041601983614b86565b915061504c8261500b565b602082019050919050565b6000602082019050818103600083015261507081615034565b9050919050565b60006150828261445f565b915061508d8361445f565b925082820261509b8161445f565b915082820484148315176150b2576150b1614f74565b5b5092915050565b7f496e73756666696369656e7420474d432062616c616e63650000000000000000600082015250565b60006150ef601883614b86565b91506150fa826150b9565b602082019050919050565b6000602082019050818103600083015261511e816150e2565b9050919050565b600060608201905061513a60008301866148e0565b61514760208301856148e0565b6151546040830184614469565b949350505050565b7f4c6576656c2065786365656473206c696d697400000000000000000000000000600082015250565b6000615192601383614b86565b915061519d8261515c565b602082019050919050565b600060208201905081810360008301526151c181615185565b9050919050565b7f4e6577206f776e657220697320746865207a65726f2061646472657373000000600082015250565b60006151fe601d83614b86565b9150615209826151c8565b602082019050919050565b6000602082019050818103600083015261522d816151f1565b9050919050565b7f457870657269656e636520636f6e666967206e6f742073657400000000000000600082015250565b600061526a601983614b86565b915061527582615234565b602082019050919050565b600060208201905081810360008301526152998161525d565b9050919050565b60006152ab8261445f565b91507fffffffffffffffffffffffffffffffffffffffffffffffffffffffffffffffff82036152dd576152dc614f74565b5b600182019050919050565b7f496e73756666696369656e742066697368696e6720636f756e74000000000000600082015250565b600061531e601a83614b86565b9150615329826152e8565b602082019050919050565b6000602082019050818103600083015261534d81615311565b9050919050565b7f4f776e61626c653a2063616c6c6572206973206e6f7420746865206f776e6572600082015250565b600061538a602083614b86565b915061539582615354565b602082019050919050565b600060208201905081810360008301526153b98161537d565b9050919050565b600081905092915050565b7f416363657373436f6e74726f6c3a206163636f756e7420000000000000000000600082015250565b60006154016017836153c0565b915061540c826153cb565b601782019050919050565b600081519050919050565b60005b83811015615440578082015181840152602081019050615425565b60008484015250505050565b600061545782615417565b61546181856153c0565b9350615471818560208601615422565b80840191505092915050565b7f206973206d697373696e6720726f6c6520000000000000000000000000000000600082015250565b60006154b36011836153c0565b91506154be8261547d565b601182019050919050565b60006154d4826153f4565b91506154e0828561544c565b91506154eb826154a6565b91506154f7828461544c565b91508190509392505050565b6000601f19601f8301169050919050565b600061551f82615417565b6155298185614b86565b9350615539818560208601615422565b61554281615503565b840191505092915050565b600060208201905081810360008301526155678184615514565b905092915050565b7f4e487b7100000000000000000000000000000000000000000000000000000000600052604160045260246000fd5b60006155a98261445f565b9150600082036155bc576155bb614f74565b5b600182039050919050565b7f537472696e67733a20686578206c656e67746820696e73756666696369656e74600082015250565b60006155fd602083614b86565b9150615608826155c7565b602082019050919050565b6000602082019050818103600083015261562c816155f0565b905091905056fea2646970667358221220afba6dbe181b35f003dad13430260cb2601d4da480fded2f289206dd1d34e96f64736f6c63430008180033",
  "linkReferences": {},
  "deployedLinkReferences": {}
}