{
  "_format": "hh-sol-artifact-1",
  "contractName": "User",
  "sourceName": "contracts/User.sol",
  "abi": [
    {
      "inputs": [
        {
          "internalType": "address",
          "name": "_gmcContract",
          "type": "address"
        },
        {
          "internalType": "address",
          "name": "_fishermanNFT",
          "type": "address"
        },
        {
          "internalType": "address",
          "name": "_fishingRodNFT",
          "type": "address"
        }
      ],
      "stateMutability": "nonpayable",
      "type": "constructor"
    },
    {
      "anonymous": false,
      "inputs": [
        {
          "indexed": true,
          "internalType": "address",
          "name": "playerAddress",
          "type": "address"
        },
        {
          "indexed": false,
          "internalType": "uint256",
          "name": "newCount",
          "type": "uint256"
        }
      ],
      "name": "BaitCountUpdated",
      "type": "event"
    },
    {
      "anonymous": false,
      "inputs": [
        {
          "indexed": false,
          "internalType": "address",
          "name": "userAddress",
          "type": "address"
        },
        {
          "indexed": false,
          "internalType": "uint256",
          "name": "count",
          "type": "uint256"
        }
      ],
      "name": "ClaimGMC",
      "type": "event"
    },
    {
      "anonymous": false,
      "inputs": [
        {
          "indexed": true,
          "internalType": "address",
          "name": "playerAddress",
          "type": "address"
        },
        {
          "indexed": false,
          "internalType": "uint256",
          "name": "newAmount",
          "type": "uint256"
        }
      ],
      "name": "CollectedGMCUpdated",
      "type": "event"
    },
    {
      "anonymous": false,
      "inputs": [
        {
          "indexed": true,
          "internalType": "address",
          "name": "playerAddress",
          "type": "address"
        },
        {
          "indexed": false,
          "internalType": "uint256",
          "name": "addedExp",
          "type": "uint256"
        },
        {
          "indexed": false,
          "internalType": "uint256",
          "name": "newExp",
          "type": "uint256"
        }
      ],
      "name": "ExperienceAdded",
      "type": "event"
    },
    {
      "anonymous": false,
      "inputs": [
        {
          "indexed": true,
          "internalType": "address",
          "name": "playerAddress",
          "type": "address"
        },
        {
          "indexed": false,
          "internalType": "uint256",
          "name": "star",
          "type": "uint256"
        },
        {
          "indexed": false,
          "internalType": "uint256",
          "name": "newCount",
          "type": "uint256"
        }
      ],
      "name": "FishCountUpdated",
      "type": "event"
    },
    {
      "anonymous": false,
      "inputs": [
        {
          "indexed": true,
          "internalType": "address",
          "name": "playerAddress",
          "type": "address"
        },
        {
          "indexed": false,
          "internalType": "uint256",
          "name": "newLevel",
          "type": "uint256"
        }
      ],
      "name": "FishPoolLevelUpdated",
      "type": "event"
    },
    {
      "anonymous": false,
      "inputs": [
        {
          "indexed": true,
          "internalType": "address",
          "name": "playerAddress",
          "type": "address"
        },
        {
          "indexed": false,
          "internalType": "uint256",
          "name": "newFishermanId",
          "type": "uint256"
        }
      ],
      "name": "FishermanChanged",
      "type": "event"
    },
    {
      "anonymous": false,
      "inputs": [
        {
          "indexed": true,
          "internalType": "uint256",
          "name": "levelUpLimit",
          "type": "uint256"
        },
        {
          "indexed": true,
          "internalType": "uint256",
          "name": "baitPurchaseLimit",
          "type": "uint256"
        },
        {
          "indexed": true,
          "internalType": "uint256",
          "name": "baitPrice",
          "type": "uint256"
        }
      ],
      "name": "LimitAttributeUpdate",
      "type": "event"
    },
    {
      "anonymous": false,
      "inputs": [
        {
          "indexed": true,
          "internalType": "address",
          "name": "previousOwner",
          "type": "address"
        },
        {
          "indexed": true,
          "internalType": "address",
          "name": "newOwner",
          "type": "address"
        }
      ],
      "name": "OwnershipTransferStarted",
      "type": "event"
    },
    {
      "anonymous": false,
      "inputs": [
        {
          "indexed": true,
          "internalType": "address",
          "name": "previousOwner",
          "type": "address"
        },
        {
          "indexed": true,
          "internalType": "address",
          "name": "newOwner",
          "type": "address"
        }
      ],
      "name": "OwnershipTransferred",
      "type": "event"
    },
    {
      "anonymous": false,
      "inputs": [
        {
          "indexed": true,
          "internalType": "address",
          "name": "playerAddress",
          "type": "address"
        }
      ],
      "name": "PlayerAdded",
      "type": "event"
    },
    {
      "anonymous": false,
      "inputs": [
        {
          "indexed": true,
          "internalType": "address",
          "name": "playerAddress",
          "type": "address"
        },
        {
          "indexed": false,
          "internalType": "uint256",
          "name": "newLevel",
          "type": "uint256"
        }
      ],
      "name": "PlayerLevelUpdated",
      "type": "event"
    },
    {
      "anonymous": false,
      "inputs": [
        {
          "indexed": true,
          "internalType": "address",
          "name": "playerAddress",
          "type": "address"
        },
        {
          "indexed": false,
          "internalType": "uint256",
          "name": "newLevel",
          "type": "uint256"
        }
      ],
      "name": "PlayerLeveledUp",
      "type": "event"
    },
    {
      "anonymous": false,
      "inputs": [
        {
          "indexed": true,
          "internalType": "address",
          "name": "playerAddress",
          "type": "address"
        },
        {
          "indexed": false,
          "internalType": "uint256",
          "name": "newRodId",
          "type": "uint256"
        }
      ],
      "name": "RodChanged",
      "type": "event"
    },
    {
      "anonymous": false,
      "inputs": [
        {
          "indexed": true,
          "internalType": "bytes32",
          "name": "role",
          "type": "bytes32"
        },
        {
          "indexed": true,
          "internalType": "bytes32",
          "name": "previousAdminRole",
          "type": "bytes32"
        },
        {
          "indexed": true,
          "internalType": "bytes32",
          "name": "newAdminRole",
          "type": "bytes32"
        }
      ],
      "name": "RoleAdminChanged",
      "type": "event"
    },
    {
      "anonymous": false,
      "inputs": [
        {
          "indexed": true,
          "internalType": "bytes32",
          "name": "role",
          "type": "bytes32"
        },
        {
          "indexed": true,
          "internalType": "address",
          "name": "account",
          "type": "address"
        },
        {
          "indexed": true,
          "internalType": "address",
          "name": "sender",
          "type": "address"
        }
      ],
      "name": "RoleGranted",
      "type": "event"
    },
    {
      "anonymous": false,
      "inputs": [
        {
          "indexed": true,
          "internalType": "bytes32",
          "name": "role",
          "type": "bytes32"
        },
        {
          "indexed": true,
          "internalType": "address",
          "name": "account",
          "type": "address"
        },
        {
          "indexed": true,
          "internalType": "address",
          "name": "sender",
          "type": "address"
        }
      ],
      "name": "RoleRevoked",
      "type": "event"
    },
    {
      "anonymous": false,
      "inputs": [
        {
          "components": [
            {
              "internalType": "uint256",
              "name": "fishingCount",
              "type": "uint256"
            },
            {
              "internalType": "uint256",
              "name": "experience",
              "type": "uint256"
            },
            {
              "internalType": "uint256",
              "name": "level",
              "type": "uint256"
            },
            {
              "internalType": "uint256[5]",
              "name": "unlockedFishingSpots",
              "type": "uint256[5]"
            },
            {
              "internalType": "uint256",
              "name": "currentFishingSpot",
              "type": "uint256"
            },
            {
              "internalType": "uint256",
              "name": "fishPoolLevel",
              "type": "uint256"
            },
            {
              "internalType": "uint256",
              "name": "interestRate",
              "type": "uint256"
            },
            {
              "internalType": "uint256",
              "name": "collectedGMC",
              "type": "uint256"
            },
            {
              "internalType": "uint256",
              "name": "baitCount",
              "type": "uint256"
            },
            {
              "internalType": "uint256[10]",
              "name": "fishCount",
              "type": "uint256[10]"
            },
            {
              "internalType": "uint256",
              "name": "currentFishermanNFT",
              "type": "uint256"
            },
            {
              "internalType": "uint256",
              "name": "currentRodNFT",
              "type": "uint256"
            }
          ],
          "indexed": true,
          "internalType": "struct User.PlayerInfo[]",
          "name": "playerInfo",
          "type": "tuple[]"
        },
        {
          "indexed": true,
          "internalType": "address[]",
          "name": "playerAddresses",
          "type": "address[]"
        }
      ],
      "name": "UserDataUpdate",
      "type": "event"
    },
    {
      "inputs": [],
      "name": "ADMIN_ROLE",
      "outputs": [
        {
          "internalType": "bytes32",
          "name": "",
          "type": "bytes32"
        }
      ],
      "stateMutability": "view",
      "type": "function"
    },
    {
      "inputs": [],
      "name": "DEFAULT_ADMIN_ROLE",
      "outputs": [
        {
          "internalType": "bytes32",
          "name": "",
          "type": "bytes32"
        }
      ],
      "stateMutability": "view",
      "type": "function"
    },
    {
      "inputs": [],
      "name": "acceptOwnership",
      "outputs": [],
      "stateMutability": "nonpayable",
      "type": "function"
    },
    {
      "inputs": [
        {
          "internalType": "address",
          "name": "newAdmin",
          "type": "address"
        }
      ],
      "name": "addAdmin",
      "outputs": [],
      "stateMutability": "nonpayable",
      "type": "function"
    },
    {
      "inputs": [
        {
          "internalType": "address",
          "name": "userAddress",
          "type": "address"
        }
      ],
      "name": "addUser",
      "outputs": [],
      "stateMutability": "nonpayable",
      "type": "function"
    },
    {
      "inputs": [],
      "name": "baitPrice",
      "outputs": [
        {
          "internalType": "uint256",
          "name": "",
          "type": "uint256"
        }
      ],
      "stateMutability": "view",
      "type": "function"
    },
    {
      "inputs": [],
      "name": "baitPurchaseLimit",
      "outputs": [
        {
          "internalType": "uint256",
          "name": "",
          "type": "uint256"
        }
      ],
      "stateMutability": "view",
      "type": "function"
    },
    {
      "inputs": [
        {
          "internalType": "uint256",
          "name": "count",
          "type": "uint256"
        }
      ],
      "name": "buyBaits",
      "outputs": [],
      "stateMutability": "nonpayable",
      "type": "function"
    },
    {
      "inputs": [
        {
          "internalType": "address",
          "name": "userAddress",
          "type": "address"
        },
        {
          "internalType": "uint256",
          "name": "fishermanId",
          "type": "uint256"
        }
      ],
      "name": "changeFisherman",
      "outputs": [],
      "stateMutability": "nonpayable",
      "type": "function"
    },
    {
      "inputs": [
        {
          "internalType": "uint256",
          "name": "rodId",
          "type": "uint256"
        },
        {
          "internalType": "address",
          "name": "userAddress",
          "type": "address"
        }
      ],
      "name": "changeRod",
      "outputs": [],
      "stateMutability": "nonpayable",
      "type": "function"
    },
    {
      "inputs": [
        {
          "internalType": "address",
          "name": "userAddress",
          "type": "address"
        },
        {
          "internalType": "uint256",
          "name": "count",
          "type": "uint256"
        }
      ],
      "name": "claimGMC",
      "outputs": [],
      "stateMutability": "nonpayable",
      "type": "function"
    },
    {
      "inputs": [],
      "name": "fishermanNFT",
      "outputs": [
        {
          "internalType": "contract IFishermanNFT",
          "name": "",
          "type": "address"
        }
      ],
      "stateMutability": "view",
      "type": "function"
    },
    {
      "inputs": [],
      "name": "fishingCountLimit",
      "outputs": [
        {
          "internalType": "uint256",
          "name": "",
          "type": "uint256"
        }
      ],
      "stateMutability": "view",
      "type": "function"
    },
    {
      "inputs": [],
      "name": "fishingRodNFT",
      "outputs": [
        {
          "internalType": "contract IFishingRodNFT",
          "name": "",
          "type": "address"
        }
      ],
      "stateMutability": "view",
      "type": "function"
    },
    {
      "inputs": [
        {
          "internalType": "address",
          "name": "playerAddress",
          "type": "address"
        }
      ],
      "name": "getBaitCount",
      "outputs": [
        {
          "internalType": "uint256",
          "name": "",
          "type": "uint256"
        }
      ],
      "stateMutability": "view",
      "type": "function"
    },
    {
      "inputs": [],
      "name": "getBaitPurchaseLimit",
      "outputs": [
        {
          "internalType": "uint256",
          "name": "",
          "type": "uint256"
        }
      ],
      "stateMutability": "view",
      "type": "function"
    },
    {
      "inputs": [
        {
          "internalType": "address",
          "name": "playerAddress",
          "type": "address"
        }
      ],
      "name": "getCollectedGMC",
      "outputs": [
        {
          "internalType": "uint256",
          "name": "",
          "type": "uint256"
        }
      ],
      "stateMutability": "view",
      "type": "function"
    },
    {
      "inputs": [
        {
          "internalType": "address",
          "name": "playerAddress",
          "type": "address"
        }
      ],
      "name": "getCurrentFishermanNFT",
      "outputs": [
        {
          "internalType": "uint256",
          "name": "",
          "type": "uint256"
        }
      ],
      "stateMutability": "view",
      "type": "function"
    },
    {
      "inputs": [
        {
          "internalType": "address",
          "name": "playerAddress",
          "type": "address"
        }
      ],
      "name": "getCurrentFishingRodNFT",
      "outputs": [
        {
          "internalType": "uint256",
          "name": "",
          "type": "uint256"
        }
      ],
      "stateMutability": "view",
      "type": "function"
    },
    {
      "inputs": [
        {
          "internalType": "address",
          "name": "playerAddress",
          "type": "address"
        }
      ],
      "name": "getExperience",
      "outputs": [
        {
          "internalType": "uint256",
          "name": "",
          "type": "uint256"
        }
      ],
      "stateMutability": "view",
      "type": "function"
    },
    {
      "inputs": [
        {
          "internalType": "address",
          "name": "playerAddress",
          "type": "address"
        }
      ],
      "name": "getFishCount",
      "outputs": [
        {
          "internalType": "uint256[10]",
          "name": "",
          "type": "uint256[10]"
        }
      ],
      "stateMutability": "view",
      "type": "function"
    },
    {
      "inputs": [
        {
          "internalType": "address",
          "name": "playerAddress",
          "type": "address"
        }
      ],
      "name": "getFishPoolLevel",
      "outputs": [
        {
          "internalType": "uint256",
          "name": "",
          "type": "uint256"
        }
      ],
      "stateMutability": "view",
      "type": "function"
    },
    {
      "inputs": [],
      "name": "getFishingCountLimit",
      "outputs": [
        {
          "internalType": "uint256",
          "name": "",
          "type": "uint256"
        }
      ],
      "stateMutability": "view",
      "type": "function"
    },
    {
      "inputs": [],
      "name": "getLevelUpLimit",
      "outputs": [
        {
          "internalType": "uint256",
          "name": "",
          "type": "uint256"
        }
      ],
      "stateMutability": "view",
      "type": "function"
    },
    {
      "inputs": [
        {
          "internalType": "address",
          "name": "account",
          "type": "address"
        }
      ],
      "name": "getPlayerInfo",
      "outputs": [
        {
          "components": [
            {
              "internalType": "uint256",
              "name": "fishingCount",
              "type": "uint256"
            },
            {
              "internalType": "uint256",
              "name": "experience",
              "type": "uint256"
            },
            {
              "internalType": "uint256",
              "name": "level",
              "type": "uint256"
            },
            {
              "internalType": "uint256[5]",
              "name": "unlockedFishingSpots",
              "type": "uint256[5]"
            },
            {
              "internalType": "uint256",
              "name": "currentFishingSpot",
              "type": "uint256"
            },
            {
              "internalType": "uint256",
              "name": "fishPoolLevel",
              "type": "uint256"
            },
            {
              "internalType": "uint256",
              "name": "interestRate",
              "type": "uint256"
            },
            {
              "internalType": "uint256",
              "name": "collectedGMC",
              "type": "uint256"
            },
            {
              "internalType": "uint256",
              "name": "baitCount",
              "type": "uint256"
            },
            {
              "internalType": "uint256[10]",
              "name": "fishCount",
              "type": "uint256[10]"
            },
            {
              "internalType": "uint256",
              "name": "currentFishermanNFT",
              "type": "uint256"
            },
            {
              "internalType": "uint256",
              "name": "currentRodNFT",
              "type": "uint256"
            }
          ],
          "internalType": "struct User.PlayerInfo",
          "name": "",
          "type": "tuple"
        }
      ],
      "stateMutability": "view",
      "type": "function"
    },
    {
      "inputs": [
        {
          "internalType": "address",
          "name": "playerAddress",
          "type": "address"
        }
      ],
      "name": "getPlayerLevel",
      "outputs": [
        {
          "internalType": "uint256",
          "name": "",
          "type": "uint256"
        }
      ],
      "stateMutability": "view",
      "type": "function"
    },
    {
      "inputs": [
        {
          "internalType": "bytes32",
          "name": "role",
          "type": "bytes32"
        }
      ],
      "name": "getRoleAdmin",
      "outputs": [
        {
          "internalType": "bytes32",
          "name": "",
          "type": "bytes32"
        }
      ],
      "stateMutability": "view",
      "type": "function"
    },
    {
      "inputs": [
        {
          "internalType": "address",
          "name": "userAddress",
          "type": "address"
        }
      ],
      "name": "getUnlockedFishingSpots",
      "outputs": [
        {
          "internalType": "uint256[5]",
          "name": "",
          "type": "uint256[5]"
        }
      ],
      "stateMutability": "view",
      "type": "function"
    },
    {
      "inputs": [
        {
          "internalType": "address",
          "name": "userAddress",
          "type": "address"
        }
      ],
      "name": "getUser",
      "outputs": [
        {
          "components": [
            {
              "internalType": "uint256",
              "name": "fishingCount",
              "type": "uint256"
            },
            {
              "internalType": "uint256",
              "name": "experience",
              "type": "uint256"
            },
            {
              "internalType": "uint256",
              "name": "level",
              "type": "uint256"
            },
            {
              "internalType": "uint256[5]",
              "name": "unlockedFishingSpots",
              "type": "uint256[5]"
            },
            {
              "internalType": "uint256",
              "name": "currentFishingSpot",
              "type": "uint256"
            },
            {
              "internalType": "uint256",
              "name": "fishPoolLevel",
              "type": "uint256"
            },
            {
              "internalType": "uint256",
              "name": "interestRate",
              "type": "uint256"
            },
            {
              "internalType": "uint256",
              "name": "collectedGMC",
              "type": "uint256"
            },
            {
              "internalType": "uint256",
              "name": "baitCount",
              "type": "uint256"
            },
            {
              "internalType": "uint256[10]",
              "name": "fishCount",
              "type": "uint256[10]"
            },
            {
              "internalType": "uint256",
              "name": "currentFishermanNFT",
              "type": "uint256"
            },
            {
              "internalType": "uint256",
              "name": "currentRodNFT",
              "type": "uint256"
            }
          ],
          "internalType": "struct User.PlayerInfo",
          "name": "",
          "type": "tuple"
        }
      ],
      "stateMutability": "view",
      "type": "function"
    },
    {
      "inputs": [],
      "name": "gmcContract",
      "outputs": [
        {
          "internalType": "contract IGMC",
          "name": "",
          "type": "address"
        }
      ],
      "stateMutability": "view",
      "type": "function"
    },
    {
      "inputs": [
        {
          "internalType": "bytes32",
          "name": "role",
          "type": "bytes32"
        },
        {
          "internalType": "address",
          "name": "account",
          "type": "address"
        }
      ],
      "name": "grantRole",
      "outputs": [],
      "stateMutability": "nonpayable",
      "type": "function"
    },
    {
      "inputs": [
        {
          "internalType": "bytes32",
          "name": "role",
          "type": "bytes32"
        },
        {
          "internalType": "address",
          "name": "account",
          "type": "address"
        }
      ],
      "name": "hasRole",
      "outputs": [
        {
          "internalType": "bool",
          "name": "",
          "type": "bool"
        }
      ],
      "stateMutability": "view",
      "type": "function"
    },
    {
      "inputs": [],
      "name": "levelUpLimit",
      "outputs": [
        {
          "internalType": "uint256",
          "name": "",
          "type": "uint256"
        }
      ],
      "stateMutability": "view",
      "type": "function"
    },
    {
      "inputs": [],
      "name": "owner",
      "outputs": [
        {
          "internalType": "address",
          "name": "",
          "type": "address"
        }
      ],
      "stateMutability": "view",
      "type": "function"
    },
    {
      "inputs": [
        {
          "internalType": "address",
          "name": "admin",
          "type": "address"
        }
      ],
      "name": "removeAdmin",
      "outputs": [],
      "stateMutability": "nonpayable",
      "type": "function"
    },
    {
      "inputs": [],
      "name": "renounceOwnership",
      "outputs": [],
      "stateMutability": "nonpayable",
      "type": "function"
    },
    {
      "inputs": [
        {
          "internalType": "bytes32",
          "name": "role",
          "type": "bytes32"
        },
        {
          "internalType": "address",
          "name": "account",
          "type": "address"
        }
      ],
      "name": "renounceRole",
      "outputs": [],
      "stateMutability": "nonpayable",
      "type": "function"
    },
    {
      "inputs": [
        {
          "internalType": "bytes32",
          "name": "role",
          "type": "bytes32"
        },
        {
          "internalType": "address",
          "name": "account",
          "type": "address"
        }
      ],
      "name": "revokeRole",
      "outputs": [],
      "stateMutability": "nonpayable",
      "type": "function"
    },
    {
      "inputs": [
        {
          "internalType": "address",
          "name": "playerAddress",
          "type": "address"
        },
        {
          "internalType": "uint256",
          "name": "newCount",
          "type": "uint256"
        }
      ],
      "name": "setBaitCount",
      "outputs": [],
      "stateMutability": "nonpayable",
      "type": "function"
    },
    {
      "inputs": [
        {
          "internalType": "uint256",
          "name": "_baitPurchaseLimit",
          "type": "uint256"
        }
      ],
      "name": "setBaitPurchaseLimit",
      "outputs": [],
      "stateMutability": "nonpayable",
      "type": "function"
    },
    {
      "inputs": [
        {
          "internalType": "address",
          "name": "playerAddress",
          "type": "address"
        },
        {
          "internalType": "uint256",
          "name": "newAmount",
          "type": "uint256"
        }
      ],
      "name": "setCollectedGMC",
      "outputs": [],
      "stateMutability": "nonpayable",
      "type": "function"
    },
    {
      "inputs": [
        {
          "internalType": "address",
          "name": "userAddress",
          "type": "address"
        },
        {
          "internalType": "uint256",
          "name": "exp",
          "type": "uint256"
        }
      ],
      "name": "setExperience",
      "outputs": [],
      "stateMutability": "nonpayable",
      "type": "function"
    },
    {
      "inputs": [
        {
          "internalType": "address",
          "name": "playerAddress",
          "type": "address"
        },
        {
          "internalType": "uint256",
          "name": "star",
          "type": "uint256"
        },
        {
          "internalType": "uint256",
          "name": "newCount",
          "type": "uint256"
        }
      ],
      "name": "setFishCount",
      "outputs": [],
      "stateMutability": "nonpayable",
      "type": "function"
    },
    {
      "inputs": [
        {
          "internalType": "address",
          "name": "playerAddress",
          "type": "address"
        },
        {
          "internalType": "uint256",
          "name": "newLevel",
          "type": "uint256"
        }
      ],
      "name": "setFishPoolLevel",
      "outputs": [],
      "stateMutability": "nonpayable",
      "type": "function"
    },
    {
      "inputs": [
        {
          "internalType": "address",
          "name": "userAddress",
          "type": "address"
        },
        {
          "internalType": "uint256",
          "name": "count",
          "type": "uint256"
        }
      ],
      "name": "setFishingCount",
      "outputs": [],
      "stateMutability": "nonpayable",
      "type": "function"
    },
    {
      "inputs": [
        {
          "internalType": "uint256",
          "name": "_fishingCountLimit",
          "type": "uint256"
        }
      ],
      "name": "setFishingCountLimit",
      "outputs": [],
      "stateMutability": "nonpayable",
      "type": "function"
    },
    {
      "inputs": [
        {
          "internalType": "uint256",
          "name": "_levelUpLimit",
          "type": "uint256"
        }
      ],
      "name": "setLevelUpLimit",
      "outputs": [],
      "stateMutability": "nonpayable",
      "type": "function"
    },
    {
      "inputs": [
        {
          "internalType": "address",
          "name": "playerAddress",
          "type": "address"
        },
        {
          "internalType": "uint256",
          "name": "newLevel",
          "type": "uint256"
        }
      ],
      "name": "setPlayerLevel",
      "outputs": [],
      "stateMutability": "nonpayable",
      "type": "function"
    },
    {
      "inputs": [
        {
          "internalType": "bytes4",
          "name": "interfaceId",
          "type": "bytes4"
        }
      ],
      "name": "supportsInterface",
      "outputs": [
        {
          "internalType": "bool",
          "name": "",
          "type": "bool"
        }
      ],
      "stateMutability": "view",
      "type": "function"
    },
    {
      "inputs": [
        {
          "internalType": "address",
          "name": "newOwner",
          "type": "address"
        }
      ],
      "name": "transferOwnership",
      "outputs": [],
      "stateMutability": "nonpayable",
      "type": "function"
    },
    {
      "inputs": [
        {
          "internalType": "uint256",
          "name": "_levelUpLimit",
          "type": "uint256"
        },
        {
          "internalType": "uint256",
          "name": "_baitPurchaseLimit",
          "type": "uint256"
        },
        {
          "internalType": "uint256",
          "name": "_fishingCountLimit",
          "type": "uint256"
        },
        {
          "internalType": "uint256",
          "name": "_baitPrice",
          "type": "uint256"
        }
      ],
      "name": "updateLimitAttribute",
      "outputs": [],
      "stateMutability": "nonpayable",
      "type": "function"
    },
    {
      "inputs": [
        {
          "components": [
            {
              "internalType": "uint256",
              "name": "fishingCount",
              "type": "uint256"
            },
            {
              "internalType": "uint256",
              "name": "experience",
              "type": "uint256"
            },
            {
              "internalType": "uint256",
              "name": "level",
              "type": "uint256"
            },
            {
              "internalType": "uint256[5]",
              "name": "unlockedFishingSpots",
              "type": "uint256[5]"
            },
            {
              "internalType": "uint256",
              "name": "currentFishingSpot",
              "type": "uint256"
            },
            {
              "internalType": "uint256",
              "name": "fishPoolLevel",
              "type": "uint256"
            },
            {
              "internalType": "uint256",
              "name": "interestRate",
              "type": "uint256"
            },
            {
              "internalType": "uint256",
              "name": "collectedGMC",
              "type": "uint256"
            },
            {
              "internalType": "uint256",
              "name": "baitCount",
              "type": "uint256"
            },
            {
              "internalType": "uint256[10]",
              "name": "fishCount",
              "type": "uint256[10]"
            },
            {
              "internalType": "uint256",
              "name": "currentFishermanNFT",
              "type": "uint256"
            },
            {
              "internalType": "uint256",
              "name": "currentRodNFT",
              "type": "uint256"
            }
          ],
          "internalType": "struct User.PlayerInfo[]",
          "name": "playerInfo",
          "type": "tuple[]"
        },
        {
          "internalType": "address[]",
          "name": "playerAddresses",
          "type": "address[]"
        }
      ],
      "name": "updateUserData",
      "outputs": [],
      "stateMutability": "nonpayable",
      "type": "function"
    }
  ],
  "bytecode": "0x60806040523480156200001157600080fd5b50604051620061ac380380620061ac833981810160405281019062000037919062000439565b620000576200004b6200019160201b60201c565b6200019960201b60201c565b60336006819055506063600781905550600a600881905550674563918244f40000600981905550620000936000801b336200025d60201b60201c565b620000c57fa49807205ce4d355092ef5a8a18f56e8913cf4a201fbe287825b095693c21775336200025d60201b60201c565b82600260006101000a81548173ffffffffffffffffffffffffffffffffffffffff021916908373ffffffffffffffffffffffffffffffffffffffff16021790555081600360006101000a81548173ffffffffffffffffffffffffffffffffffffffff021916908373ffffffffffffffffffffffffffffffffffffffff16021790555080600460006101000a81548173ffffffffffffffffffffffffffffffffffffffff021916908373ffffffffffffffffffffffffffffffffffffffff16021790555050505062000495565b600033905090565b60008060009054906101000a900473ffffffffffffffffffffffffffffffffffffffff169050816000806101000a81548173ffffffffffffffffffffffffffffffffffffffff021916908373ffffffffffffffffffffffffffffffffffffffff1602179055508173ffffffffffffffffffffffffffffffffffffffff168173ffffffffffffffffffffffffffffffffffffffff167f8be0079c531659141344cd1fd0a4f28419497f9722a3daafe3b4186f6b6457e060405160405180910390a35050565b6200026f82826200027360201b60201c565b5050565b6200028582826200036460201b60201c565b6200036057600180600084815260200190815260200160002060000160008373ffffffffffffffffffffffffffffffffffffffff1673ffffffffffffffffffffffffffffffffffffffff16815260200190815260200160002060006101000a81548160ff021916908315150217905550620003056200019160201b60201c565b73ffffffffffffffffffffffffffffffffffffffff168173ffffffffffffffffffffffffffffffffffffffff16837f2f8788117e7eff1d82e926ec794901d17c78024a50270940304540a733656f0d60405160405180910390a45b5050565b60006001600084815260200190815260200160002060000160008373ffffffffffffffffffffffffffffffffffffffff1673ffffffffffffffffffffffffffffffffffffffff16815260200190815260200160002060009054906101000a900460ff16905092915050565b600080fd5b600073ffffffffffffffffffffffffffffffffffffffff82169050919050565b60006200040182620003d4565b9050919050565b6200041381620003f4565b81146200041f57600080fd5b50565b600081519050620004338162000408565b92915050565b600080600060608486031215620004555762000454620003cf565b5b6000620004658682870162000422565b9350506020620004788682870162000422565b92505060406200048b8682870162000422565b9150509250925092565b615d0780620004a56000396000f3fe608060405234801561001057600080fd5b506004361061030c5760003560e01c806379ba50971161019d578063bfb56d62116100e9578063e55ae65a116100a2578063eaaaa2341161007c578063eaaaa23414610949578063f206140514610965578063f2fde38b14610983578063f76b7de51461099f5761030c565b8063e55ae65a146108f3578063e678f86c14610911578063e9bcc5f31461092d5761030c565b8063bfb56d6214610833578063c6051a941461084f578063c8001b731461087f578063cee8b4aa1461089d578063d547741f146108bb578063dea90512146108d75761030c565b80639af7a00a11610156578063a63eba4811610130578063a63eba48146107c1578063b474ca76146107dd578063b5d626c4146107fb578063bf129fd0146108175761030c565b80639af7a00a1461076b5780639deedd5b14610787578063a217fddf146107a35761030c565b806379ba5097146106955780638c953a781461069f5780638ca5f74d146106cf5780638da5cb5b146106ed57806391d148541461070b578063951559001461073b5761030c565b806348aabab21161025c5780636aba920b1161021557806370480275116101ef5780637048027514610621578063715018a61461063d57806375b238fc146106475780637757346d146106655761030c565b80636aba920b146105a55780636b743a2c146105c15780636f77926b146105f15761030c565b806348aabab2146104d157806350a4098a1461050157806353acd2ab1461051f578063593284011461053b578063657a93931461056b5780636667a9a7146105875761030c565b806322a66172116102c957806331c4ecdc116102a357806331c4ecdc1461043957806334b735a11461046957806336568abe14610499578063421b2d8b146104b55761030c565b806322a66172146103d1578063248a9ca3146103ed5780632f2ff15d1461041d5761030c565b806301ffc9a714610311578063047ac5de146103415780631785f53c1461035f57806318250e071461037b5780631fbff24f14610399578063215c5d00146103b5575b600080fd5b61032b600480360381019061032691906143f7565b6109cf565b604051610338919061443f565b60405180910390f35b610349610a49565b60405161035691906144d9565b60405180910390f35b61037960048036038101906103749190614532565b610a6f565b005b610383610aa4565b6040516103909190614578565b60405180910390f35b6103b360048036038101906103ae9190614a6a565b610aaa565b005b6103cf60048036038101906103ca9190614ae2565b61124b565b005b6103eb60048036038101906103e69190614b49565b6112d5565b005b61040760048036038101906104029190614bac565b61165d565b6040516104149190614be8565b60405180910390f35b61043760048036038101906104329190614c03565b61167d565b005b610453600480360381019061044e9190614532565b61169e565b6040516104609190614578565b60405180910390f35b610483600480360381019061047e9190614532565b611776565b6040516104909190614578565b60405180910390f35b6104b360048036038101906104ae9190614c03565b61184e565b005b6104cf60048036038101906104ca9190614532565b6118d1565b005b6104eb60048036038101906104e69190614532565b611be8565b6040516104f89190614578565b60405180910390f35b610509611cc0565b6040516105169190614c64565b60405180910390f35b61053960048036038101906105349190614c7f565b611ce6565b005b61055560048036038101906105509190614532565b612056565b6040516105629190614ee8565b60405180910390f35b61058560048036038101906105809190614b49565b61219e565b005b61058f6121db565b60405161059c9190614578565b60405180910390f35b6105bf60048036038101906105ba9190614c7f565b6121e5565b005b6105db60048036038101906105d69190614532565b61233d565b6040516105e89190614578565b60405180910390f35b61060b60048036038101906106069190614532565b612415565b6040516106189190614ee8565b60405180910390f35b61063b60048036038101906106369190614532565b6125e6565b005b61064561261b565b005b61064f61262f565b60405161065c9190614be8565b60405180910390f35b61067f600480360381019061067a9190614532565b612653565b60405161068c9190614578565b60405180910390f35b61069d61272b565b005b6106b960048036038101906106b49190614532565b6127f4565b6040516106c69190614f66565b60405180910390f35b6106d761290d565b6040516106e49190614578565b60405180910390f35b6106f5612917565b6040516107029190614f90565b60405180910390f35b61072560048036038101906107209190614c03565b612940565b604051610732919061443f565b60405180910390f35b61075560048036038101906107509190614532565b6129ab565b6040516107629190614578565b60405180910390f35b61078560048036038101906107809190614fab565b612a83565b005b6107a1600480360381019061079c9190614b49565b612bf1565b005b6107ab612c2e565b6040516107b89190614be8565b60405180910390f35b6107db60048036038101906107d69190614c7f565b612c35565b005b6107e5612d8d565b6040516107f29190614578565b60405180910390f35b61081560048036038101906108109190614c7f565b612d93565b005b610831600480360381019061082c9190614c7f565b612ffb565b005b61084d60048036038101906108489190614c7f565b613153565b005b61086960048036038101906108649190614532565b6132b7565b6040516108769190615060565b60405180910390f35b6108876133d0565b604051610894919061509d565b60405180910390f35b6108a56133f6565b6040516108b29190614578565b60405180910390f35b6108d560048036038101906108d09190614c03565b6133fc565b005b6108f160048036038101906108ec9190614c7f565b61341d565b005b6108fb613575565b6040516109089190614578565b60405180910390f35b61092b60048036038101906109269190614b49565b61357b565b005b610947600480360381019061094291906150b8565b6135b8565b005b610963600480360381019061095e9190614c7f565b613928565b005b61096d6139fc565b60405161097a9190614578565b60405180910390f35b61099d60048036038101906109989190614532565b613a06565b005b6109b960048036038101906109b49190614532565b613aec565b6040516109c69190614578565b60405180910390f35b60007f7965db0b000000000000000000000000000000000000000000000000000000007bffffffffffffffffffffffffffffffffffffffffffffffffffffffff1916827bffffffffffffffffffffffffffffffffffffffffffffffffffffffff19161480610a425750610a4182613bc4565b5b9050919050565b600260009054906101000a900473ffffffffffffffffffffffffffffffffffffffff1681565b610a77613c2e565b610aa17fa49807205ce4d355092ef5a8a18f56e8913cf4a201fbe287825b095693c21775826133fc565b50565b60095481565b610ad47fa49807205ce4d355092ef5a8a18f56e8913cf4a201fbe287825b095693c2177533612940565b610add57600080fd5b8051825114610b21576040517f08c379a0000000000000000000000000000000000000000000000000000000008152600401610b1890615155565b60405180910390fd5b60005b82518110156111ee57600b6000838381518110610b4457610b43615175565b5b602002602001015173ffffffffffffffffffffffffffffffffffffffff1673ffffffffffffffffffffffffffffffffffffffff16815260200190815260200160002060009054906101000a900460ff16610bd3576040517f08c379a0000000000000000000000000000000000000000000000000000000008152600401610bca906151f0565b60405180910390fd5b828181518110610be657610be5615175565b5b602002602001015160000151600a6000848481518110610c0957610c08615175565b5b602002602001015173ffffffffffffffffffffffffffffffffffffffff1673ffffffffffffffffffffffffffffffffffffffff16815260200190815260200160002060000181905550828181518110610c6557610c64615175565b5b602002602001015160200151600a6000848481518110610c8857610c87615175565b5b602002602001015173ffffffffffffffffffffffffffffffffffffffff1673ffffffffffffffffffffffffffffffffffffffff16815260200190815260200160002060010181905550828181518110610ce457610ce3615175565b5b602002602001015160400151600a6000848481518110610d0757610d06615175565b5b602002602001015173ffffffffffffffffffffffffffffffffffffffff1673ffffffffffffffffffffffffffffffffffffffff16815260200190815260200160002060020181905550828181518110610d6357610d62615175565b5b602002602001015160600151600a6000848481518110610d8657610d85615175565b5b602002602001015173ffffffffffffffffffffffffffffffffffffffff1673ffffffffffffffffffffffffffffffffffffffff168152602001908152602001600020600301906005610dd992919061423c565b50828181518110610ded57610dec615175565b5b602002602001015160800151600a6000848481518110610e1057610e0f615175565b5b602002602001015173ffffffffffffffffffffffffffffffffffffffff1673ffffffffffffffffffffffffffffffffffffffff16815260200190815260200160002060080181905550828181518110610e6c57610e6b615175565b5b602002602001015160a00151600a6000848481518110610e8f57610e8e615175565b5b602002602001015173ffffffffffffffffffffffffffffffffffffffff1673ffffffffffffffffffffffffffffffffffffffff16815260200190815260200160002060090181905550828181518110610eeb57610eea615175565b5b602002602001015160c00151600a6000848481518110610f0e57610f0d615175565b5b602002602001015173ffffffffffffffffffffffffffffffffffffffff1673ffffffffffffffffffffffffffffffffffffffff168152602001908152602001600020600a0181905550828181518110610f6a57610f69615175565b5b602002602001015160e00151600a6000848481518110610f8d57610f8c615175565b5b602002602001015173ffffffffffffffffffffffffffffffffffffffff1673ffffffffffffffffffffffffffffffffffffffff168152602001908152602001600020600b0181905550828181518110610fe957610fe8615175565b5b60200260200101516101000151600a600084848151811061100d5761100c615175565b5b602002602001015173ffffffffffffffffffffffffffffffffffffffff1673ffffffffffffffffffffffffffffffffffffffff168152602001908152602001600020600c018190555082818151811061106957611068615175565b5b60200260200101516101200151600a600084848151811061108d5761108c615175565b5b602002602001015173ffffffffffffffffffffffffffffffffffffffff1673ffffffffffffffffffffffffffffffffffffffff168152602001908152602001600020600d0190600a6110e092919061427c565b508281815181106110f4576110f3615175565b5b60200260200101516101400151600a600084848151811061111857611117615175565b5b602002602001015173ffffffffffffffffffffffffffffffffffffffff1673ffffffffffffffffffffffffffffffffffffffff1681526020019081526020016000206017018190555082818151811061117457611173615175565b5b60200260200101516101600151600a600084848151811061119857611197615175565b5b602002602001015173ffffffffffffffffffffffffffffffffffffffff1673ffffffffffffffffffffffffffffffffffffffff168152602001908152602001600020601801819055508080600101915050610b24565b50806040516111fd91906152c8565b604051809103902082604051611213919061558a565b60405180910390207fc91fdb6201eb89b7a1b567d23d3c59bbfd7f7d942aa9e8ad346319d17f0b910860405160405180910390a35050565b6112757fa49807205ce4d355092ef5a8a18f56e8913cf4a201fbe287825b095693c2177533612940565b61127e57600080fd5b836006819055508260078190555081600881905550806009819055506009546007546006547ffb7230b722712fa11b563a061381502fa2e6f8f6432c8af6ec3b309c26e74cb660405160405180910390a450505050565b600b60003373ffffffffffffffffffffffffffffffffffffffff1673ffffffffffffffffffffffffffffffffffffffff16815260200190815260200160002060009054906101000a900460ff16611361576040517f08c379a0000000000000000000000000000000000000000000000000000000008152600401611358906151f0565b60405180910390fd5b60075481600a60003373ffffffffffffffffffffffffffffffffffffffff1673ffffffffffffffffffffffffffffffffffffffff168152602001908152602001600020600c01546113b291906155d0565b11156113f3576040517f08c379a00000000000000000000000000000000000000000000000000000000081526004016113ea90615650565b60405180910390fd5b6000600954826114039190615670565b905080600260009054906101000a900473ffffffffffffffffffffffffffffffffffffffff1673ffffffffffffffffffffffffffffffffffffffff166370a08231336040518263ffffffff1660e01b81526004016114619190614f90565b602060405180830381865afa15801561147e573d6000803e3d6000fd5b505050506040513d601f19601f820116820180604052508101906114a291906156c7565b10156114e3576040517f08c379a00000000000000000000000000000000000000000000000000000000081526004016114da90615740565b60405180910390fd5b600260009054906101000a900473ffffffffffffffffffffffffffffffffffffffff1673ffffffffffffffffffffffffffffffffffffffff166342966c68826040518263ffffffff1660e01b815260040161153e9190614578565b600060405180830381600087803b15801561155857600080fd5b505af115801561156c573d6000803e3d6000fd5b5050505081600a60003373ffffffffffffffffffffffffffffffffffffffff1673ffffffffffffffffffffffffffffffffffffffff168152602001908152602001600020600c0160008282546115c291906155d0565b925050819055503373ffffffffffffffffffffffffffffffffffffffff167f61de7c9c9fef84bf815ad3b2d17a9af3d0655af7a1c9423e5d2dee99ec5c6ffc600a60003373ffffffffffffffffffffffffffffffffffffffff1673ffffffffffffffffffffffffffffffffffffffff168152602001908152602001600020600c01546040516116519190614578565b60405180910390a25050565b600060016000838152602001908152602001600020600101549050919050565b6116868261165d565b61168f81613cac565b6116998383613cc0565b505050565b6000600b60008373ffffffffffffffffffffffffffffffffffffffff1673ffffffffffffffffffffffffffffffffffffffff16815260200190815260200160002060009054906101000a900460ff1661172c576040517f08c379a0000000000000000000000000000000000000000000000000000000008152600401611723906151f0565b60405180910390fd5b600a60008373ffffffffffffffffffffffffffffffffffffffff1673ffffffffffffffffffffffffffffffffffffffff168152602001908152602001600020600901549050919050565b6000600b60008373ffffffffffffffffffffffffffffffffffffffff1673ffffffffffffffffffffffffffffffffffffffff16815260200190815260200160002060009054906101000a900460ff16611804576040517f08c379a00000000000000000000000000000000000000000000000000000000081526004016117fb906151f0565b60405180910390fd5b600a60008373ffffffffffffffffffffffffffffffffffffffff1673ffffffffffffffffffffffffffffffffffffffff168152602001908152602001600020600201549050919050565b611856613da0565b73ffffffffffffffffffffffffffffffffffffffff168173ffffffffffffffffffffffffffffffffffffffff16146118c3576040517f08c379a00000000000000000000000000000000000000000000000000000000081526004016118ba906157d2565b60405180910390fd5b6118cd8282613da8565b5050565b6118fb7fa49807205ce4d355092ef5a8a18f56e8913cf4a201fbe287825b095693c2177533612940565b61190457600080fd5b600b60008273ffffffffffffffffffffffffffffffffffffffff1673ffffffffffffffffffffffffffffffffffffffff16815260200190815260200160002060009054906101000a900460ff161561195b57600080fd5b604051806101800160405280600a815260200160008152602001600181526020016040518060a001604052806103e981526020016000815260200160008152602001600081526020016000815250815260200160008152602001600181526020016000815260200160008152602001601e8152602001604051806101400160405280600081526020016000815260200160008152602001600081526020016000815260200160008152602001600081526020016000815260200160008152602001600081525081526020017fffffffffffffffffffffffffffffffffffffffffffffffffffffffffffffffff81526020017fffffffffffffffffffffffffffffffffffffffffffffffffffffffffffffffff815250600a60008373ffffffffffffffffffffffffffffffffffffffff1673ffffffffffffffffffffffffffffffffffffffff168152602001908152602001600020600082015181600001556020820151816001015560408201518160020155606082015181600301906005611ae492919061423c565b506080820151816008015560a0820151816009015560c082015181600a015560e082015181600b015561010082015181600c015561012082015181600d0190600a611b3092919061427c565b50610140820151816017015561016082015181601801559050506001600b60008373ffffffffffffffffffffffffffffffffffffffff1673ffffffffffffffffffffffffffffffffffffffff16815260200190815260200160002060006101000a81548160ff0219169083151502179055508073ffffffffffffffffffffffffffffffffffffffff167ff2ae205522024c14e5a7a26ba6d1fb1252dc8e161b5abc79ed5795fd3c5b926160405160405180910390a250565b6000600b60008373ffffffffffffffffffffffffffffffffffffffff1673ffffffffffffffffffffffffffffffffffffffff16815260200190815260200160002060009054906101000a900460ff16611c76576040517f08c379a0000000000000000000000000000000000000000000000000000000008152600401611c6d906151f0565b60405180910390fd5b600a60008373ffffffffffffffffffffffffffffffffffffffff1673ffffffffffffffffffffffffffffffffffffffff168152602001908152602001600020600c01549050919050565b600360009054906101000a900473ffffffffffffffffffffffffffffffffffffffff1681565b611d107fa49807205ce4d355092ef5a8a18f56e8913cf4a201fbe287825b095693c2177533612940565b611d1957600080fd5b600b60008373ffffffffffffffffffffffffffffffffffffffff1673ffffffffffffffffffffffffffffffffffffffff16815260200190815260200160002060009054906101000a900460ff16611da5576040517f08c379a0000000000000000000000000000000000000000000000000000000008152600401611d9c906151f0565b60405180910390fd5b600060608373ffffffffffffffffffffffffffffffffffffffff16600360009054906101000a900473ffffffffffffffffffffffffffffffffffffffff1673ffffffffffffffffffffffffffffffffffffffff16636352211e856040518263ffffffff1660e01b8152600401611e1b9190614578565b602060405180830381865afa158015611e38573d6000803e3d6000fd5b505050506040513d601f19601f82011682018060405250810190611e5c9190615807565b73ffffffffffffffffffffffffffffffffffffffff1614611fb757600360009054906101000a900473ffffffffffffffffffffffffffffffffffffffff1673ffffffffffffffffffffffffffffffffffffffff166318148f1b856040518263ffffffff1660e01b8152600401611ed29190614f90565b600060405180830381865afa158015611eef573d6000803e3d6000fd5b505050506040513d6000823e3d601f19601f82011682018060405250810190611f1891906158f7565b9050600081511115611f8e5780600081518110611f3857611f37615175565b5b6020026020010151915081600a60008673ffffffffffffffffffffffffffffffffffffffff1673ffffffffffffffffffffffffffffffffffffffff16815260200190815260200160002060170181905550611fb2565b7fffffffffffffffffffffffffffffffffffffffffffffffffffffffffffffffff91505b612002565b82600a60008673ffffffffffffffffffffffffffffffffffffffff1673ffffffffffffffffffffffffffffffffffffffff168152602001908152602001600020601701819055508291505b8373ffffffffffffffffffffffffffffffffffffffff167f08e9f015b4a09d3e66a5d3703ecc0d035e52da672786c75b807300bd4a72530d836040516120489190614578565b60405180910390a250505050565b61205e6142bc565b600a60008373ffffffffffffffffffffffffffffffffffffffff1673ffffffffffffffffffffffffffffffffffffffff1681526020019081526020016000206040518061018001604052908160008201548152602001600182015481526020016002820154815260200160038201600580602002604051908101604052809291908260058015612103576020028201915b8154815260200190600101908083116120ef575b505050505081526020016008820154815260200160098201548152602001600a8201548152602001600b8201548152602001600c8201548152602001600d8201600a806020026040519081016040528092919082600a801561217a576020028201915b815481526020019060010190808311612166575b50505050508152602001601782015481526020016018820154815250509050919050565b6121c87fa49807205ce4d355092ef5a8a18f56e8913cf4a201fbe287825b095693c2177533612940565b6121d157600080fd5b8060078190555050565b6000600754905090565b61220f7fa49807205ce4d355092ef5a8a18f56e8913cf4a201fbe287825b095693c2177533612940565b61221857600080fd5b600b60008373ffffffffffffffffffffffffffffffffffffffff1673ffffffffffffffffffffffffffffffffffffffff16815260200190815260200160002060009054906101000a900460ff166122a4576040517f08c379a000000000000000000000000000000000000000000000000000000000815260040161229b906151f0565b60405180910390fd5b80600a60008473ffffffffffffffffffffffffffffffffffffffff1673ffffffffffffffffffffffffffffffffffffffff168152602001908152602001600020600c01819055508173ffffffffffffffffffffffffffffffffffffffff167f61de7c9c9fef84bf815ad3b2d17a9af3d0655af7a1c9423e5d2dee99ec5c6ffc826040516123319190614578565b60405180910390a25050565b6000600b60008373ffffffffffffffffffffffffffffffffffffffff1673ffffffffffffffffffffffffffffffffffffffff16815260200190815260200160002060009054906101000a900460ff166123cb576040517f08c379a00000000000000000000000000000000000000000000000000000000081526004016123c2906151f0565b60405180910390fd5b600a60008373ffffffffffffffffffffffffffffffffffffffff1673ffffffffffffffffffffffffffffffffffffffff168152602001908152602001600020600101549050919050565b61241d6142bc565b6124477fa49807205ce4d355092ef5a8a18f56e8913cf4a201fbe287825b095693c2177533612940565b61245057600080fd5b600b60008373ffffffffffffffffffffffffffffffffffffffff1673ffffffffffffffffffffffffffffffffffffffff16815260200190815260200160002060009054906101000a900460ff166124a657600080fd5b600a60008373ffffffffffffffffffffffffffffffffffffffff1673ffffffffffffffffffffffffffffffffffffffff168152602001908152602001600020604051806101800160405290816000820154815260200160018201548152602001600282015481526020016003820160058060200260405190810160405280929190826005801561254b576020028201915b815481526020019060010190808311612537575b505050505081526020016008820154815260200160098201548152602001600a8201548152602001600b8201548152602001600c8201548152602001600d8201600a806020026040519081016040528092919082600a80156125c2576020028201915b8154815260200190600101908083116125ae575b50505050508152602001601782015481526020016018820154815250509050919050565b6125ee613c2e565b6126187fa49807205ce4d355092ef5a8a18f56e8913cf4a201fbe287825b095693c217758261167d565b50565b612623613c2e565b61262d6000613e8a565b565b7fa49807205ce4d355092ef5a8a18f56e8913cf4a201fbe287825b095693c2177581565b6000600b60008373ffffffffffffffffffffffffffffffffffffffff1673ffffffffffffffffffffffffffffffffffffffff16815260200190815260200160002060009054906101000a900460ff166126e1576040517f08c379a00000000000000000000000000000000000000000000000000000000081526004016126d8906151f0565b60405180910390fd5b600a60008373ffffffffffffffffffffffffffffffffffffffff1673ffffffffffffffffffffffffffffffffffffffff168152602001908152602001600020601801549050919050565b600560009054906101000a900473ffffffffffffffffffffffffffffffffffffffff1673ffffffffffffffffffffffffffffffffffffffff163373ffffffffffffffffffffffffffffffffffffffff161461278557600080fd5b6127b0600560009054906101000a900473ffffffffffffffffffffffffffffffffffffffff16613e8a565b6000600560006101000a81548173ffffffffffffffffffffffffffffffffffffffff021916908373ffffffffffffffffffffffffffffffffffffffff160217905550565b6127fc614329565b600b60008373ffffffffffffffffffffffffffffffffffffffff1673ffffffffffffffffffffffffffffffffffffffff16815260200190815260200160002060009054906101000a900460ff16612888576040517f08c379a000000000000000000000000000000000000000000000000000000000815260040161287f906151f0565b60405180910390fd5b600a60008373ffffffffffffffffffffffffffffffffffffffff1673ffffffffffffffffffffffffffffffffffffffff168152602001908152602001600020600301600580602002604051908101604052809291908260058015612901576020028201915b8154815260200190600101908083116128ed575b50505050509050919050565b6000600654905090565b60008060009054906101000a900473ffffffffffffffffffffffffffffffffffffffff16905090565b60006001600084815260200190815260200160002060000160008373ffffffffffffffffffffffffffffffffffffffff1673ffffffffffffffffffffffffffffffffffffffff16815260200190815260200160002060009054906101000a900460ff16905092915050565b6000600b60008373ffffffffffffffffffffffffffffffffffffffff1673ffffffffffffffffffffffffffffffffffffffff16815260200190815260200160002060009054906101000a900460ff16612a39576040517f08c379a0000000000000000000000000000000000000000000000000000000008152600401612a30906151f0565b60405180910390fd5b600a60008373ffffffffffffffffffffffffffffffffffffffff1673ffffffffffffffffffffffffffffffffffffffff168152602001908152602001600020600b01549050919050565b612aad7fa49807205ce4d355092ef5a8a18f56e8913cf4a201fbe287825b095693c2177533612940565b612ab657600080fd5b600b60008473ffffffffffffffffffffffffffffffffffffffff1673ffffffffffffffffffffffffffffffffffffffff16815260200190815260200160002060009054906101000a900460ff16612b42576040517f08c379a0000000000000000000000000000000000000000000000000000000008152600401612b39906151f0565b60405180910390fd5b80600a60008573ffffffffffffffffffffffffffffffffffffffff1673ffffffffffffffffffffffffffffffffffffffff168152602001908152602001600020600d0183600a8110612b9757612b96615175565b5b01819055508273ffffffffffffffffffffffffffffffffffffffff167f374ed846dc3e18a969aef22277ce3669832a6ea83e3088149d5b40319413de478383604051612be4929190615940565b60405180910390a2505050565b612c1b7fa49807205ce4d355092ef5a8a18f56e8913cf4a201fbe287825b095693c2177533612940565b612c2457600080fd5b8060088190555050565b6000801b81565b612c5f7fa49807205ce4d355092ef5a8a18f56e8913cf4a201fbe287825b095693c2177533612940565b612c6857600080fd5b600b60008373ffffffffffffffffffffffffffffffffffffffff1673ffffffffffffffffffffffffffffffffffffffff16815260200190815260200160002060009054906101000a900460ff16612cf4576040517f08c379a0000000000000000000000000000000000000000000000000000000008152600401612ceb906151f0565b60405180910390fd5b80600a60008473ffffffffffffffffffffffffffffffffffffffff1673ffffffffffffffffffffffffffffffffffffffff168152602001908152602001600020600b01819055508173ffffffffffffffffffffffffffffffffffffffff167f7f299cebc3c4384ae412a6ba151d00bd215add4b1379155dd71c3376cbf07df682604051612d819190614578565b60405180910390a25050565b60075481565b612dbd7fa49807205ce4d355092ef5a8a18f56e8913cf4a201fbe287825b095693c2177533612940565b612dc657600080fd5b600b60008373ffffffffffffffffffffffffffffffffffffffff1673ffffffffffffffffffffffffffffffffffffffff16815260200190815260200160002060009054906101000a900460ff16612e52576040517f08c379a0000000000000000000000000000000000000000000000000000000008152600401612e49906151f0565b60405180910390fd5b6000600a60008473ffffffffffffffffffffffffffffffffffffffff1673ffffffffffffffffffffffffffffffffffffffff168152602001908152602001600020600b0154905081811015612edc576040517f08c379a0000000000000000000000000000000000000000000000000000000008152600401612ed3906159b5565b60405180910390fd5b600260009054906101000a900473ffffffffffffffffffffffffffffffffffffffff1673ffffffffffffffffffffffffffffffffffffffff166340c10f1984846040518363ffffffff1660e01b8152600401612f399291906159d5565b600060405180830381600087803b158015612f5357600080fd5b505af1158015612f67573d6000803e3d6000fd5b505050508181612f7791906159fe565b600a60008573ffffffffffffffffffffffffffffffffffffffff1673ffffffffffffffffffffffffffffffffffffffff168152602001908152602001600020600b01819055507f190fe81f396538a8654aafa1adcdabc1825d53aa9fa6dd809991683d943e3a178383604051612fee9291906159d5565b60405180910390a1505050565b6130257fa49807205ce4d355092ef5a8a18f56e8913cf4a201fbe287825b095693c2177533612940565b61302e57600080fd5b600b60008373ffffffffffffffffffffffffffffffffffffffff1673ffffffffffffffffffffffffffffffffffffffff16815260200190815260200160002060009054906101000a900460ff166130ba576040517f08c379a00000000000000000000000000000000000000000000000000000000081526004016130b1906151f0565b60405180910390fd5b80600a60008473ffffffffffffffffffffffffffffffffffffffff1673ffffffffffffffffffffffffffffffffffffffff168152602001908152602001600020600901819055508173ffffffffffffffffffffffffffffffffffffffff167f7ed17f7b101bb354c92f134f7c421a00e511b046abf1edceb1956966e7443480826040516131479190614578565b60405180910390a25050565b61317d7fa49807205ce4d355092ef5a8a18f56e8913cf4a201fbe287825b095693c2177533612940565b61318657600080fd5b600b60008373ffffffffffffffffffffffffffffffffffffffff1673ffffffffffffffffffffffffffffffffffffffff16815260200190815260200160002060009054906101000a900460ff16613212576040517f08c379a0000000000000000000000000000000000000000000000000000000008152600401613209906151f0565b60405180910390fd5b6000600a60008473ffffffffffffffffffffffffffffffffffffffff1673ffffffffffffffffffffffffffffffffffffffff16815260200190815260200160002090508181600101819055508273ffffffffffffffffffffffffffffffffffffffff167f81665166aed8384c9df23393834f1b549569bbb3ca825f52f8390f1bbe1638718383600101546040516132aa929190615940565b60405180910390a2505050565b6132bf61434b565b600b60008373ffffffffffffffffffffffffffffffffffffffff1673ffffffffffffffffffffffffffffffffffffffff16815260200190815260200160002060009054906101000a900460ff1661334b576040517f08c379a0000000000000000000000000000000000000000000000000000000008152600401613342906151f0565b60405180910390fd5b600a60008373ffffffffffffffffffffffffffffffffffffffff1673ffffffffffffffffffffffffffffffffffffffff168152602001908152602001600020600d01600a806020026040519081016040528092919082600a80156133c4576020028201915b8154815260200190600101908083116133b0575b50505050509050919050565b600460009054906101000a900473ffffffffffffffffffffffffffffffffffffffff1681565b60065481565b6134058261165d565b61340e81613cac565b6134188383613da8565b505050565b6134477fa49807205ce4d355092ef5a8a18f56e8913cf4a201fbe287825b095693c2177533612940565b61345057600080fd5b600b60008373ffffffffffffffffffffffffffffffffffffffff1673ffffffffffffffffffffffffffffffffffffffff16815260200190815260200160002060009054906101000a900460ff166134dc576040517f08c379a00000000000000000000000000000000000000000000000000000000081526004016134d3906151f0565b60405180910390fd5b80600a60008473ffffffffffffffffffffffffffffffffffffffff1673ffffffffffffffffffffffffffffffffffffffff168152602001908152602001600020600201819055508173ffffffffffffffffffffffffffffffffffffffff167f7b45410837b569e79f978c88fbb1ab01a26d6922675e4de2fc0bae4e0586ceac826040516135699190614578565b60405180910390a25050565b60085481565b6135a57fa49807205ce4d355092ef5a8a18f56e8913cf4a201fbe287825b095693c2177533612940565b6135ae57600080fd5b8060068190555050565b6135e27fa49807205ce4d355092ef5a8a18f56e8913cf4a201fbe287825b095693c2177533612940565b6135eb57600080fd5b600b60008273ffffffffffffffffffffffffffffffffffffffff1673ffffffffffffffffffffffffffffffffffffffff16815260200190815260200160002060009054906101000a900460ff16613677576040517f08c379a000000000000000000000000000000000000000000000000000000000815260040161366e906151f0565b60405180910390fd5b600060608273ffffffffffffffffffffffffffffffffffffffff16600460009054906101000a900473ffffffffffffffffffffffffffffffffffffffff1673ffffffffffffffffffffffffffffffffffffffff16636352211e866040518263ffffffff1660e01b81526004016136ed9190614578565b602060405180830381865afa15801561370a573d6000803e3d6000fd5b505050506040513d601f19601f8201168201806040525081019061372e9190615807565b73ffffffffffffffffffffffffffffffffffffffff161461388957600460009054906101000a900473ffffffffffffffffffffffffffffffffffffffff1673ffffffffffffffffffffffffffffffffffffffff166318148f1b846040518263ffffffff1660e01b81526004016137a49190614f90565b600060405180830381865afa1580156137c1573d6000803e3d6000fd5b505050506040513d6000823e3d601f19601f820116820180604052508101906137ea91906158f7565b9050600081511115613860578060008151811061380a57613809615175565b5b6020026020010151915081600a60008573ffffffffffffffffffffffffffffffffffffffff1673ffffffffffffffffffffffffffffffffffffffff16815260200190815260200160002060180181905550613884565b7fffffffffffffffffffffffffffffffffffffffffffffffffffffffffffffffff91505b6138d4565b83600a60008573ffffffffffffffffffffffffffffffffffffffff1673ffffffffffffffffffffffffffffffffffffffff168152602001908152602001600020601801819055508391505b8273ffffffffffffffffffffffffffffffffffffffff167fcc9803ff35bbb65900301a2b84f90ad432fd23b513fb5dddcb6f4568cb9c54c98360405161391a9190614578565b60405180910390a250505050565b6139527fa49807205ce4d355092ef5a8a18f56e8913cf4a201fbe287825b095693c2177533612940565b61395b57600080fd5b600b60008373ffffffffffffffffffffffffffffffffffffffff1673ffffffffffffffffffffffffffffffffffffffff16815260200190815260200160002060009054906101000a900460ff166139b157600080fd5b80600a60008473ffffffffffffffffffffffffffffffffffffffff1673ffffffffffffffffffffffffffffffffffffffff168152602001908152602001600020600001819055505050565b6000600854905090565b613a0e613c2e565b600073ffffffffffffffffffffffffffffffffffffffff168173ffffffffffffffffffffffffffffffffffffffff1603613a4757600080fd5b80600560006101000a81548173ffffffffffffffffffffffffffffffffffffffff021916908373ffffffffffffffffffffffffffffffffffffffff1602179055508073ffffffffffffffffffffffffffffffffffffffff16613aa7612917565b73ffffffffffffffffffffffffffffffffffffffff167f38d16b8cac22d99fc7c124b9cd0de2d3fa1faef420bfe791d8c362d765e2270060405160405180910390a350565b6000600b60008373ffffffffffffffffffffffffffffffffffffffff1673ffffffffffffffffffffffffffffffffffffffff16815260200190815260200160002060009054906101000a900460ff16613b7a576040517f08c379a0000000000000000000000000000000000000000000000000000000008152600401613b71906151f0565b60405180910390fd5b600a60008373ffffffffffffffffffffffffffffffffffffffff1673ffffffffffffffffffffffffffffffffffffffff168152602001908152602001600020601701549050919050565b60007f01ffc9a7000000000000000000000000000000000000000000000000000000007bffffffffffffffffffffffffffffffffffffffffffffffffffffffff1916827bffffffffffffffffffffffffffffffffffffffffffffffffffffffff1916149050919050565b613c36613da0565b73ffffffffffffffffffffffffffffffffffffffff16613c54612917565b73ffffffffffffffffffffffffffffffffffffffff1614613caa576040517f08c379a0000000000000000000000000000000000000000000000000000000008152600401613ca190615a7e565b60405180910390fd5b565b613cbd81613cb8613da0565b613f4e565b50565b613cca8282612940565b613d9c57600180600084815260200190815260200160002060000160008373ffffffffffffffffffffffffffffffffffffffff1673ffffffffffffffffffffffffffffffffffffffff16815260200190815260200160002060006101000a81548160ff021916908315150217905550613d41613da0565b73ffffffffffffffffffffffffffffffffffffffff168173ffffffffffffffffffffffffffffffffffffffff16837f2f8788117e7eff1d82e926ec794901d17c78024a50270940304540a733656f0d60405160405180910390a45b5050565b600033905090565b613db28282612940565b15613e865760006001600084815260200190815260200160002060000160008373ffffffffffffffffffffffffffffffffffffffff1673ffffffffffffffffffffffffffffffffffffffff16815260200190815260200160002060006101000a81548160ff021916908315150217905550613e2b613da0565b73ffffffffffffffffffffffffffffffffffffffff168173ffffffffffffffffffffffffffffffffffffffff16837ff6391f5c32d9c69d2a47ea670b442974b53935d1edc7fd64eb21e047a839171b60405160405180910390a45b5050565b60008060009054906101000a900473ffffffffffffffffffffffffffffffffffffffff169050816000806101000a81548173ffffffffffffffffffffffffffffffffffffffff021916908373ffffffffffffffffffffffffffffffffffffffff1602179055508173ffffffffffffffffffffffffffffffffffffffff168173ffffffffffffffffffffffffffffffffffffffff167f8be0079c531659141344cd1fd0a4f28419497f9722a3daafe3b4186f6b6457e060405160405180910390a35050565b613f588282612940565b613fcf57613f6581613fd3565b613f738360001c6020614000565b604051602001613f84929190615ba7565b6040516020818303038152906040526040517f08c379a0000000000000000000000000000000000000000000000000000000008152600401613fc69190615c1a565b60405180910390fd5b5050565b6060613ff98273ffffffffffffffffffffffffffffffffffffffff16601460ff16614000565b9050919050565b6060600060028360026140139190615670565b61401d91906155d0565b67ffffffffffffffff811115614036576140356145a9565b5b6040519080825280601f01601f1916602001820160405280156140685781602001600182028036833780820191505090505b5090507f3000000000000000000000000000000000000000000000000000000000000000816000815181106140a05761409f615175565b5b60200101907effffffffffffffffffffffffffffffffffffffffffffffffffffffffffffff1916908160001a9053507f78000000000000000000000000000000000000000000000000000000000000008160018151811061410457614103615175565b5b60200101907effffffffffffffffffffffffffffffffffffffffffffffffffffffffffffff1916908160001a905350600060018460026141449190615670565b61414e91906155d0565b90505b60018111156141ee577f3031323334353637383961626364656600000000000000000000000000000000600f8616601081106141905761418f615175565b5b1a60f81b8282815181106141a7576141a6615175565b5b60200101907effffffffffffffffffffffffffffffffffffffffffffffffffffffffffffff1916908160001a905350600485901c9450806141e790615c3c565b9050614151565b5060008414614232576040517f08c379a000000000000000000000000000000000000000000000000000000000815260040161422990615cb1565b60405180910390fd5b8091505092915050565b826005810192821561426b579160200282015b8281111561426a57825182559160200191906001019061424f565b5b509050614278919061436e565b5090565b82600a81019282156142ab579160200282015b828111156142aa57825182559160200191906001019061428f565b5b5090506142b8919061436e565b5090565b6040518061018001604052806000815260200160008152602001600081526020016142e5614329565b8152602001600081526020016000815260200160008152602001600081526020016000815260200161431561434b565b815260200160008152602001600081525090565b6040518060a00160405280600590602082028036833780820191505090505090565b604051806101400160405280600a90602082028036833780820191505090505090565b5b8082111561438757600081600090555060010161436f565b5090565b6000604051905090565b600080fd5b600080fd5b60007fffffffff0000000000000000000000000000000000000000000000000000000082169050919050565b6143d48161439f565b81146143df57600080fd5b50565b6000813590506143f1816143cb565b92915050565b60006020828403121561440d5761440c614395565b5b600061441b848285016143e2565b91505092915050565b60008115159050919050565b61443981614424565b82525050565b60006020820190506144546000830184614430565b92915050565b600073ffffffffffffffffffffffffffffffffffffffff82169050919050565b6000819050919050565b600061449f61449a6144958461445a565b61447a565b61445a565b9050919050565b60006144b182614484565b9050919050565b60006144c3826144a6565b9050919050565b6144d3816144b8565b82525050565b60006020820190506144ee60008301846144ca565b92915050565b60006144ff8261445a565b9050919050565b61450f816144f4565b811461451a57600080fd5b50565b60008135905061452c81614506565b92915050565b60006020828403121561454857614547614395565b5b60006145568482850161451d565b91505092915050565b6000819050919050565b6145728161455f565b82525050565b600060208201905061458d6000830184614569565b92915050565b600080fd5b6000601f19601f8301169050919050565b7f4e487b7100000000000000000000000000000000000000000000000000000000600052604160045260246000fd5b6145e182614598565b810181811067ffffffffffffffff82111715614600576145ff6145a9565b5b80604052505050565b600061461361438b565b905061461f82826145d8565b919050565b600067ffffffffffffffff82111561463f5761463e6145a9565b5b602082029050602081019050919050565b600080fd5b600080fd5b6146638161455f565b811461466e57600080fd5b50565b6000813590506146808161465a565b92915050565b600067ffffffffffffffff8211156146a1576146a06145a9565b5b602082029050919050565b60006146bf6146ba84614686565b614609565b905080602084028301858111156146d9576146d8614650565b5b835b8181101561470257806146ee8882614671565b8452602084019350506020810190506146db565b5050509392505050565b600082601f83011261472157614720614593565b5b600561472e8482856146ac565b91505092915050565b600067ffffffffffffffff821115614752576147516145a9565b5b602082029050919050565b600061477061476b84614737565b614609565b9050806020840283018581111561478a57614789614650565b5b835b818110156147b3578061479f8882614671565b84526020840193505060208101905061478c565b5050509392505050565b600082601f8301126147d2576147d1614593565b5b600a6147df84828561475d565b91505092915050565b600061032082840312156147ff576147fe614655565b5b61480a610180614609565b9050600061481a84828501614671565b600083015250602061482e84828501614671565b602083015250604061484284828501614671565b60408301525060606148568482850161470c565b60608301525061010061486b84828501614671565b60808301525061012061488084828501614671565b60a08301525061014061489584828501614671565b60c0830152506101606148aa84828501614671565b60e0830152506101806148bf84828501614671565b610100830152506101a06148d5848285016147bd565b610120830152506102e06148eb84828501614671565b6101408301525061030061490184828501614671565b6101608301525092915050565b600061492161491c84614624565b614609565b905080838252602082019050610320840283018581111561494557614944614650565b5b835b8181101561496f578061495a88826147e8565b84526020840193505061032081019050614947565b5050509392505050565b600082601f83011261498e5761498d614593565b5b813561499e84826020860161490e565b91505092915050565b600067ffffffffffffffff8211156149c2576149c16145a9565b5b602082029050602081019050919050565b60006149e66149e1846149a7565b614609565b90508083825260208201905060208402830185811115614a0957614a08614650565b5b835b81811015614a325780614a1e888261451d565b845260208401935050602081019050614a0b565b5050509392505050565b600082601f830112614a5157614a50614593565b5b8135614a618482602086016149d3565b91505092915050565b60008060408385031215614a8157614a80614395565b5b600083013567ffffffffffffffff811115614a9f57614a9e61439a565b5b614aab85828601614979565b925050602083013567ffffffffffffffff811115614acc57614acb61439a565b5b614ad885828601614a3c565b9150509250929050565b60008060008060808587031215614afc57614afb614395565b5b6000614b0a87828801614671565b9450506020614b1b87828801614671565b9350506040614b2c87828801614671565b9250506060614b3d87828801614671565b91505092959194509250565b600060208284031215614b5f57614b5e614395565b5b6000614b6d84828501614671565b91505092915050565b6000819050919050565b614b8981614b76565b8114614b9457600080fd5b50565b600081359050614ba681614b80565b92915050565b600060208284031215614bc257614bc1614395565b5b6000614bd084828501614b97565b91505092915050565b614be281614b76565b82525050565b6000602082019050614bfd6000830184614bd9565b92915050565b60008060408385031215614c1a57614c19614395565b5b6000614c2885828601614b97565b9250506020614c398582860161451d565b9150509250929050565b6000614c4e826144a6565b9050919050565b614c5e81614c43565b82525050565b6000602082019050614c796000830184614c55565b92915050565b60008060408385031215614c9657614c95614395565b5b6000614ca48582860161451d565b9250506020614cb585828601614671565b9150509250929050565b614cc88161455f565b82525050565b600060059050919050565b600081905092915050565b6000819050919050565b6000614cfa8383614cbf565b60208301905092915050565b6000602082019050919050565b614d1c81614cce565b614d268184614cd9565b9250614d3182614ce4565b8060005b83811015614d62578151614d498782614cee565b9650614d5483614d06565b925050600181019050614d35565b505050505050565b6000600a9050919050565b600081905092915050565b6000819050919050565b6000602082019050919050565b614da081614d6a565b614daa8184614d75565b9250614db582614d80565b8060005b83811015614de6578151614dcd8782614cee565b9650614dd883614d8a565b925050600181019050614db9565b505050505050565b61032082016000820151614e056000850182614cbf565b506020820151614e186020850182614cbf565b506040820151614e2b6040850182614cbf565b506060820151614e3e6060850182614d13565b506080820151614e52610100850182614cbf565b5060a0820151614e66610120850182614cbf565b5060c0820151614e7a610140850182614cbf565b5060e0820151614e8e610160850182614cbf565b50610100820151614ea3610180850182614cbf565b50610120820151614eb86101a0850182614d97565b50610140820151614ecd6102e0850182614cbf565b50610160820151614ee2610300850182614cbf565b50505050565b600061032082019050614efe6000830184614dee565b92915050565b600081905092915050565b614f1881614cce565b614f228184614f04565b9250614f2d82614ce4565b8060005b83811015614f5e578151614f458782614cee565b9650614f5083614d06565b925050600181019050614f31565b505050505050565b600060a082019050614f7b6000830184614f0f565b92915050565b614f8a816144f4565b82525050565b6000602082019050614fa56000830184614f81565b92915050565b600080600060608486031215614fc457614fc3614395565b5b6000614fd28682870161451d565b9350506020614fe386828701614671565b9250506040614ff486828701614671565b9150509250925092565b600081905092915050565b61501281614d6a565b61501c8184614ffe565b925061502782614d80565b8060005b8381101561505857815161503f8782614cee565b965061504a83614d8a565b92505060018101905061502b565b505050505050565b6000610140820190506150766000830184615009565b92915050565b6000615087826144a6565b9050919050565b6150978161507c565b82525050565b60006020820190506150b2600083018461508e565b92915050565b600080604083850312156150cf576150ce614395565b5b60006150dd85828601614671565b92505060206150ee8582860161451d565b9150509250929050565b600082825260208201905092915050565b7f3130320000000000000000000000000000000000000000000000000000000000600082015250565b600061513f6003836150f8565b915061514a82615109565b602082019050919050565b6000602082019050818103600083015261516e81615132565b9050919050565b7f4e487b7100000000000000000000000000000000000000000000000000000000600052603260045260246000fd5b7f3130310000000000000000000000000000000000000000000000000000000000600082015250565b60006151da6003836150f8565b91506151e5826151a4565b602082019050919050565b60006020820190508181036000830152615209816151cd565b9050919050565b600081519050919050565b600081905092915050565b6000819050602082019050919050565b61523f816144f4565b82525050565b60006152518383615236565b60208301905092915050565b6000602082019050919050565b600061527582615210565b61527f818561521b565b935061528a83615226565b8060005b838110156152bb5781516152a28882615245565b97506152ad8361525d565b92505060018101905061528e565b5085935050505092915050565b60006152d4828461526a565b915081905092915050565b600081519050919050565b600081905092915050565b6000819050602082019050919050565b61530e8161455f565b82525050565b60006153208383615305565b60208301905092915050565b600081905092915050565b61534081614cce565b61534a818461532c565b925061535582614ce4565b8060005b8381101561538657815161536d8782615314565b965061537883614d06565b925050600181019050615359565b505050505050565b600061539a8383615337565b60a08301905092915050565b600081905092915050565b6153ba81614d6a565b6153c481846153a6565b92506153cf82614d80565b8060005b838110156154005781516153e78782615314565b96506153f283614d8a565b9250506001810190506153d3565b505050505050565b600061541483836153b1565b6101408301905092915050565b6000820160008201516154348482615314565b93505060208201516154468482615314565b93505060408201516154588482615314565b935050606082015161546a848261538e565b935050608082015161547c8482615314565b93505060a082015161548e8482615314565b93505060c08201516154a08482615314565b93505060e08201516154b28482615314565b9350506101008201516154c58482615314565b9350506101208201516154d88482615408565b9350506101408201516154eb8482615314565b9350506101608201516154fe8482615314565b935050505050565b60006155128383615421565b6103208301905092915050565b6000602082019050919050565b6000615537826152df565b61554181856152ea565b935061554c836152f5565b8060005b8381101561557d5781516155648882615506565b975061556f8361551f565b925050600181019050615550565b5085935050505092915050565b6000615596828461552c565b915081905092915050565b7f4e487b7100000000000000000000000000000000000000000000000000000000600052601160045260246000fd5b60006155db8261455f565b91506155e68361455f565b92508282019050808211156155fe576155fd6155a1565b5b92915050565b7f3130380000000000000000000000000000000000000000000000000000000000600082015250565b600061563a6003836150f8565b915061564582615604565b602082019050919050565b600060208201905081810360008301526156698161562d565b9050919050565b600061567b8261455f565b91506156868361455f565b92508282026156948161455f565b915082820484148315176156ab576156aa6155a1565b5b5092915050565b6000815190506156c18161465a565b92915050565b6000602082840312156156dd576156dc614395565b5b60006156eb848285016156b2565b91505092915050565b7f3130330000000000000000000000000000000000000000000000000000000000600082015250565b600061572a6003836150f8565b9150615735826156f4565b602082019050919050565b600060208201905081810360008301526157598161571d565b9050919050565b7f416363657373436f6e74726f6c3a2063616e206f6e6c792072656e6f756e636560008201527f20726f6c657320666f722073656c660000000000000000000000000000000000602082015250565b60006157bc602f836150f8565b91506157c782615760565b604082019050919050565b600060208201905081810360008301526157eb816157af565b9050919050565b60008151905061580181614506565b92915050565b60006020828403121561581d5761581c614395565b5b600061582b848285016157f2565b91505092915050565b600067ffffffffffffffff82111561584f5761584e6145a9565b5b602082029050602081019050919050565b600061587361586e84615834565b614609565b9050808382526020820190506020840283018581111561589657615895614650565b5b835b818110156158bf57806158ab88826156b2565b845260208401935050602081019050615898565b5050509392505050565b600082601f8301126158de576158dd614593565b5b81516158ee848260208601615860565b91505092915050565b60006020828403121561590d5761590c614395565b5b600082015167ffffffffffffffff81111561592b5761592a61439a565b5b615937848285016158c9565b91505092915050565b60006040820190506159556000830185614569565b6159626020830184614569565b9392505050565b7f3130340000000000000000000000000000000000000000000000000000000000600082015250565b600061599f6003836150f8565b91506159aa82615969565b602082019050919050565b600060208201905081810360008301526159ce81615992565b9050919050565b60006040820190506159ea6000830185614f81565b6159f76020830184614569565b9392505050565b6000615a098261455f565b9150615a148361455f565b9250828203905081811115615a2c57615a2b6155a1565b5b92915050565b7f4f776e61626c653a2063616c6c6572206973206e6f7420746865206f776e6572600082015250565b6000615a686020836150f8565b9150615a7382615a32565b602082019050919050565b60006020820190508181036000830152615a9781615a5b565b9050919050565b600081905092915050565b7f416363657373436f6e74726f6c3a206163636f756e7420000000000000000000600082015250565b6000615adf601783615a9e565b9150615aea82615aa9565b601782019050919050565b600081519050919050565b60005b83811015615b1e578082015181840152602081019050615b03565b60008484015250505050565b6000615b3582615af5565b615b3f8185615a9e565b9350615b4f818560208601615b00565b80840191505092915050565b7f206973206d697373696e6720726f6c6520000000000000000000000000000000600082015250565b6000615b91601183615a9e565b9150615b9c82615b5b565b601182019050919050565b6000615bb282615ad2565b9150615bbe8285615b2a565b9150615bc982615b84565b9150615bd58284615b2a565b91508190509392505050565b6000615bec82615af5565b615bf681856150f8565b9350615c06818560208601615b00565b615c0f81614598565b840191505092915050565b60006020820190508181036000830152615c348184615be1565b905092915050565b6000615c478261455f565b915060008203615c5a57615c596155a1565b5b600182039050919050565b7f537472696e67733a20686578206c656e67746820696e73756666696369656e74600082015250565b6000615c9b6020836150f8565b9150615ca682615c65565b602082019050919050565b60006020820190508181036000830152615cca81615c8e565b905091905056fea26469706673582212209f529949ee5f7a4416a552cf8fa012c5a07a8750f67f26bdf2be591ede0e4cdf64736f6c63430008180033",
  "linkReferences": {},
  "deployedLinkReferences": {}
}