{
  "_format": "hh-sol-artifact-1",
  "contractName": "User",
  "sourceName": "contracts/User.sol",
  "abi": [
    {
      "inputs": [
        {
          "internalType": "address",
          "name": "_gmcContract",
          "type": "address"
        },
        {
          "internalType": "address",
          "name": "_fishermanNFT",
          "type": "address"
        },
        {
          "internalType": "address",
          "name": "_fishingRodNFT",
          "type": "address"
        },
        {
          "internalType": "uint256",
          "name": "_baitPrice",
          "type": "uint256"
        }
      ],
      "stateMutability": "nonpayable",
      "type": "constructor"
    },
    {
      "anonymous": false,
      "inputs": [
        {
          "indexed": true,
          "internalType": "address",
          "name": "playerAddress",
          "type": "address"
        },
        {
          "indexed": false,
          "internalType": "uint256",
          "name": "newCount",
          "type": "uint256"
        }
      ],
      "name": "BaitCountUpdated",
      "type": "event"
    },
    {
      "anonymous": false,
      "inputs": [
        {
          "indexed": false,
          "internalType": "address",
          "name": "userAddress",
          "type": "address"
        },
        {
          "indexed": false,
          "internalType": "uint256",
          "name": "count",
          "type": "uint256"
        }
      ],
      "name": "ClaimGMC",
      "type": "event"
    },
    {
      "anonymous": false,
      "inputs": [
        {
          "indexed": true,
          "internalType": "address",
          "name": "playerAddress",
          "type": "address"
        },
        {
          "indexed": false,
          "internalType": "uint256",
          "name": "newAmount",
          "type": "uint256"
        }
      ],
      "name": "CollectedGMCUpdated",
      "type": "event"
    },
    {
      "anonymous": false,
      "inputs": [
        {
          "indexed": true,
          "internalType": "address",
          "name": "playerAddress",
          "type": "address"
        },
        {
          "indexed": false,
          "internalType": "uint256",
          "name": "addedExp",
          "type": "uint256"
        },
        {
          "indexed": false,
          "internalType": "uint256",
          "name": "newExp",
          "type": "uint256"
        }
      ],
      "name": "ExperienceAdded",
      "type": "event"
    },
    {
      "anonymous": false,
      "inputs": [
        {
          "indexed": true,
          "internalType": "address",
          "name": "playerAddress",
          "type": "address"
        },
        {
          "indexed": false,
          "internalType": "uint256",
          "name": "star",
          "type": "uint256"
        },
        {
          "indexed": false,
          "internalType": "uint256",
          "name": "newCount",
          "type": "uint256"
        }
      ],
      "name": "FishCountUpdated",
      "type": "event"
    },
    {
      "anonymous": false,
      "inputs": [
        {
          "indexed": true,
          "internalType": "address",
          "name": "playerAddress",
          "type": "address"
        },
        {
          "indexed": false,
          "internalType": "uint256",
          "name": "newLevel",
          "type": "uint256"
        }
      ],
      "name": "FishPoolLevelUpdated",
      "type": "event"
    },
    {
      "anonymous": false,
      "inputs": [
        {
          "indexed": true,
          "internalType": "address",
          "name": "playerAddress",
          "type": "address"
        },
        {
          "indexed": false,
          "internalType": "uint256",
          "name": "newFishermanId",
          "type": "uint256"
        }
      ],
      "name": "FishermanChanged",
      "type": "event"
    },
    {
      "anonymous": false,
      "inputs": [
        {
          "indexed": true,
          "internalType": "uint256",
          "name": "levelUpLimit",
          "type": "uint256"
        },
        {
          "indexed": true,
          "internalType": "uint256",
          "name": "baitPurchaseLimit",
          "type": "uint256"
        },
        {
          "indexed": true,
          "internalType": "uint256",
          "name": "baitPrice",
          "type": "uint256"
        }
      ],
      "name": "LimitAttributeUpdate",
      "type": "event"
    },
    {
      "anonymous": false,
      "inputs": [
        {
          "indexed": true,
          "internalType": "address",
          "name": "previousOwner",
          "type": "address"
        },
        {
          "indexed": true,
          "internalType": "address",
          "name": "newOwner",
          "type": "address"
        }
      ],
      "name": "OwnershipTransferStarted",
      "type": "event"
    },
    {
      "anonymous": false,
      "inputs": [
        {
          "indexed": true,
          "internalType": "address",
          "name": "previousOwner",
          "type": "address"
        },
        {
          "indexed": true,
          "internalType": "address",
          "name": "newOwner",
          "type": "address"
        }
      ],
      "name": "OwnershipTransferred",
      "type": "event"
    },
    {
      "anonymous": false,
      "inputs": [
        {
          "indexed": true,
          "internalType": "address",
          "name": "playerAddress",
          "type": "address"
        }
      ],
      "name": "PlayerAdded",
      "type": "event"
    },
    {
      "anonymous": false,
      "inputs": [
        {
          "indexed": true,
          "internalType": "address",
          "name": "playerAddress",
          "type": "address"
        },
        {
          "indexed": false,
          "internalType": "uint256",
          "name": "newLevel",
          "type": "uint256"
        }
      ],
      "name": "PlayerLevelUpdated",
      "type": "event"
    },
    {
      "anonymous": false,
      "inputs": [
        {
          "indexed": true,
          "internalType": "address",
          "name": "playerAddress",
          "type": "address"
        },
        {
          "indexed": false,
          "internalType": "uint256",
          "name": "newLevel",
          "type": "uint256"
        }
      ],
      "name": "PlayerLeveledUp",
      "type": "event"
    },
    {
      "anonymous": false,
      "inputs": [
        {
          "indexed": true,
          "internalType": "address",
          "name": "playerAddress",
          "type": "address"
        },
        {
          "indexed": false,
          "internalType": "uint256",
          "name": "newRodId",
          "type": "uint256"
        }
      ],
      "name": "RodChanged",
      "type": "event"
    },
    {
      "anonymous": false,
      "inputs": [
        {
          "indexed": true,
          "internalType": "bytes32",
          "name": "role",
          "type": "bytes32"
        },
        {
          "indexed": true,
          "internalType": "bytes32",
          "name": "previousAdminRole",
          "type": "bytes32"
        },
        {
          "indexed": true,
          "internalType": "bytes32",
          "name": "newAdminRole",
          "type": "bytes32"
        }
      ],
      "name": "RoleAdminChanged",
      "type": "event"
    },
    {
      "anonymous": false,
      "inputs": [
        {
          "indexed": true,
          "internalType": "bytes32",
          "name": "role",
          "type": "bytes32"
        },
        {
          "indexed": true,
          "internalType": "address",
          "name": "account",
          "type": "address"
        },
        {
          "indexed": true,
          "internalType": "address",
          "name": "sender",
          "type": "address"
        }
      ],
      "name": "RoleGranted",
      "type": "event"
    },
    {
      "anonymous": false,
      "inputs": [
        {
          "indexed": true,
          "internalType": "bytes32",
          "name": "role",
          "type": "bytes32"
        },
        {
          "indexed": true,
          "internalType": "address",
          "name": "account",
          "type": "address"
        },
        {
          "indexed": true,
          "internalType": "address",
          "name": "sender",
          "type": "address"
        }
      ],
      "name": "RoleRevoked",
      "type": "event"
    },
    {
      "anonymous": false,
      "inputs": [
        {
          "components": [
            {
              "internalType": "uint256",
              "name": "fishingCount",
              "type": "uint256"
            },
            {
              "internalType": "uint256",
              "name": "experience",
              "type": "uint256"
            },
            {
              "internalType": "uint256",
              "name": "level",
              "type": "uint256"
            },
            {
              "internalType": "uint256[5]",
              "name": "unlockedFishingSpots",
              "type": "uint256[5]"
            },
            {
              "internalType": "uint256",
              "name": "currentFishingSpot",
              "type": "uint256"
            },
            {
              "internalType": "uint256",
              "name": "fishPoolLevel",
              "type": "uint256"
            },
            {
              "internalType": "uint256",
              "name": "interestRate",
              "type": "uint256"
            },
            {
              "internalType": "uint256",
              "name": "collectedGMC",
              "type": "uint256"
            },
            {
              "internalType": "uint256",
              "name": "baitCount",
              "type": "uint256"
            },
            {
              "internalType": "uint256[10]",
              "name": "fishCount",
              "type": "uint256[10]"
            },
            {
              "internalType": "uint256",
              "name": "currentFishermanNFT",
              "type": "uint256"
            },
            {
              "internalType": "uint256",
              "name": "currentRodNFT",
              "type": "uint256"
            }
          ],
          "indexed": true,
          "internalType": "struct User.PlayerInfo[]",
          "name": "playerInfo",
          "type": "tuple[]"
        },
        {
          "indexed": true,
          "internalType": "address[]",
          "name": "playerAddresses",
          "type": "address[]"
        }
      ],
      "name": "UserDataUpdate",
      "type": "event"
    },
    {
      "inputs": [],
      "name": "ADMIN_ROLE",
      "outputs": [
        {
          "internalType": "bytes32",
          "name": "",
          "type": "bytes32"
        }
      ],
      "stateMutability": "view",
      "type": "function"
    },
    {
      "inputs": [],
      "name": "DEFAULT_ADMIN_ROLE",
      "outputs": [
        {
          "internalType": "bytes32",
          "name": "",
          "type": "bytes32"
        }
      ],
      "stateMutability": "view",
      "type": "function"
    },
    {
      "inputs": [],
      "name": "acceptOwnership",
      "outputs": [],
      "stateMutability": "nonpayable",
      "type": "function"
    },
    {
      "inputs": [
        {
          "internalType": "address",
          "name": "newAdmin",
          "type": "address"
        }
      ],
      "name": "addAdmin",
      "outputs": [],
      "stateMutability": "nonpayable",
      "type": "function"
    },
    {
      "inputs": [
        {
          "internalType": "address",
          "name": "userAddress",
          "type": "address"
        }
      ],
      "name": "addUser",
      "outputs": [],
      "stateMutability": "nonpayable",
      "type": "function"
    },
    {
      "inputs": [],
      "name": "baitPrice",
      "outputs": [
        {
          "internalType": "uint256",
          "name": "",
          "type": "uint256"
        }
      ],
      "stateMutability": "view",
      "type": "function"
    },
    {
      "inputs": [],
      "name": "baitPurchaseLimit",
      "outputs": [
        {
          "internalType": "uint256",
          "name": "",
          "type": "uint256"
        }
      ],
      "stateMutability": "view",
      "type": "function"
    },
    {
      "inputs": [
        {
          "internalType": "address",
          "name": "userAddress",
          "type": "address"
        },
        {
          "internalType": "uint256",
          "name": "count",
          "type": "uint256"
        }
      ],
      "name": "buyBaits",
      "outputs": [],
      "stateMutability": "nonpayable",
      "type": "function"
    },
    {
      "inputs": [
        {
          "internalType": "address",
          "name": "userAddress",
          "type": "address"
        },
        {
          "internalType": "uint256",
          "name": "fishermanId",
          "type": "uint256"
        }
      ],
      "name": "changeFisherman",
      "outputs": [],
      "stateMutability": "nonpayable",
      "type": "function"
    },
    {
      "inputs": [
        {
          "internalType": "uint256",
          "name": "rodId",
          "type": "uint256"
        },
        {
          "internalType": "address",
          "name": "userAddress",
          "type": "address"
        }
      ],
      "name": "changeRod",
      "outputs": [],
      "stateMutability": "nonpayable",
      "type": "function"
    },
    {
      "inputs": [
        {
          "internalType": "address",
          "name": "userAddress",
          "type": "address"
        },
        {
          "internalType": "uint256",
          "name": "count",
          "type": "uint256"
        }
      ],
      "name": "claimGMC",
      "outputs": [],
      "stateMutability": "nonpayable",
      "type": "function"
    },
    {
      "inputs": [],
      "name": "fishermanNFT",
      "outputs": [
        {
          "internalType": "contract IFishermanNFT",
          "name": "",
          "type": "address"
        }
      ],
      "stateMutability": "view",
      "type": "function"
    },
    {
      "inputs": [],
      "name": "fishingCountLimit",
      "outputs": [
        {
          "internalType": "uint256",
          "name": "",
          "type": "uint256"
        }
      ],
      "stateMutability": "view",
      "type": "function"
    },
    {
      "inputs": [],
      "name": "fishingRodNFT",
      "outputs": [
        {
          "internalType": "contract IFishingRodNFT",
          "name": "",
          "type": "address"
        }
      ],
      "stateMutability": "view",
      "type": "function"
    },
    {
      "inputs": [
        {
          "internalType": "address",
          "name": "playerAddress",
          "type": "address"
        }
      ],
      "name": "getBaitCount",
      "outputs": [
        {
          "internalType": "uint256",
          "name": "",
          "type": "uint256"
        }
      ],
      "stateMutability": "view",
      "type": "function"
    },
    {
      "inputs": [],
      "name": "getBaitPurchaseLimit",
      "outputs": [
        {
          "internalType": "uint256",
          "name": "",
          "type": "uint256"
        }
      ],
      "stateMutability": "view",
      "type": "function"
    },
    {
      "inputs": [
        {
          "internalType": "address",
          "name": "playerAddress",
          "type": "address"
        }
      ],
      "name": "getCollectedGMC",
      "outputs": [
        {
          "internalType": "uint256",
          "name": "",
          "type": "uint256"
        }
      ],
      "stateMutability": "view",
      "type": "function"
    },
    {
      "inputs": [
        {
          "internalType": "address",
          "name": "playerAddress",
          "type": "address"
        }
      ],
      "name": "getCurrentFishermanNFT",
      "outputs": [
        {
          "internalType": "uint256",
          "name": "",
          "type": "uint256"
        }
      ],
      "stateMutability": "view",
      "type": "function"
    },
    {
      "inputs": [
        {
          "internalType": "address",
          "name": "playerAddress",
          "type": "address"
        }
      ],
      "name": "getCurrentFishingRodNFT",
      "outputs": [
        {
          "internalType": "uint256",
          "name": "",
          "type": "uint256"
        }
      ],
      "stateMutability": "view",
      "type": "function"
    },
    {
      "inputs": [
        {
          "internalType": "address",
          "name": "playerAddress",
          "type": "address"
        }
      ],
      "name": "getExperience",
      "outputs": [
        {
          "internalType": "uint256",
          "name": "",
          "type": "uint256"
        }
      ],
      "stateMutability": "view",
      "type": "function"
    },
    {
      "inputs": [
        {
          "internalType": "address",
          "name": "playerAddress",
          "type": "address"
        }
      ],
      "name": "getFishCount",
      "outputs": [
        {
          "internalType": "uint256[10]",
          "name": "",
          "type": "uint256[10]"
        }
      ],
      "stateMutability": "view",
      "type": "function"
    },
    {
      "inputs": [
        {
          "internalType": "address",
          "name": "playerAddress",
          "type": "address"
        }
      ],
      "name": "getFishPoolLevel",
      "outputs": [
        {
          "internalType": "uint256",
          "name": "",
          "type": "uint256"
        }
      ],
      "stateMutability": "view",
      "type": "function"
    },
    {
      "inputs": [],
      "name": "getFishingCountLimit",
      "outputs": [
        {
          "internalType": "uint256",
          "name": "",
          "type": "uint256"
        }
      ],
      "stateMutability": "view",
      "type": "function"
    },
    {
      "inputs": [],
      "name": "getLevelUpLimit",
      "outputs": [
        {
          "internalType": "uint256",
          "name": "",
          "type": "uint256"
        }
      ],
      "stateMutability": "view",
      "type": "function"
    },
    {
      "inputs": [
        {
          "internalType": "address",
          "name": "account",
          "type": "address"
        }
      ],
      "name": "getPlayerInfo",
      "outputs": [
        {
          "components": [
            {
              "internalType": "uint256",
              "name": "fishingCount",
              "type": "uint256"
            },
            {
              "internalType": "uint256",
              "name": "experience",
              "type": "uint256"
            },
            {
              "internalType": "uint256",
              "name": "level",
              "type": "uint256"
            },
            {
              "internalType": "uint256[5]",
              "name": "unlockedFishingSpots",
              "type": "uint256[5]"
            },
            {
              "internalType": "uint256",
              "name": "currentFishingSpot",
              "type": "uint256"
            },
            {
              "internalType": "uint256",
              "name": "fishPoolLevel",
              "type": "uint256"
            },
            {
              "internalType": "uint256",
              "name": "interestRate",
              "type": "uint256"
            },
            {
              "internalType": "uint256",
              "name": "collectedGMC",
              "type": "uint256"
            },
            {
              "internalType": "uint256",
              "name": "baitCount",
              "type": "uint256"
            },
            {
              "internalType": "uint256[10]",
              "name": "fishCount",
              "type": "uint256[10]"
            },
            {
              "internalType": "uint256",
              "name": "currentFishermanNFT",
              "type": "uint256"
            },
            {
              "internalType": "uint256",
              "name": "currentRodNFT",
              "type": "uint256"
            }
          ],
          "internalType": "struct User.PlayerInfo",
          "name": "",
          "type": "tuple"
        }
      ],
      "stateMutability": "view",
      "type": "function"
    },
    {
      "inputs": [
        {
          "internalType": "address",
          "name": "playerAddress",
          "type": "address"
        }
      ],
      "name": "getPlayerLevel",
      "outputs": [
        {
          "internalType": "uint256",
          "name": "",
          "type": "uint256"
        }
      ],
      "stateMutability": "view",
      "type": "function"
    },
    {
      "inputs": [
        {
          "internalType": "bytes32",
          "name": "role",
          "type": "bytes32"
        }
      ],
      "name": "getRoleAdmin",
      "outputs": [
        {
          "internalType": "bytes32",
          "name": "",
          "type": "bytes32"
        }
      ],
      "stateMutability": "view",
      "type": "function"
    },
    {
      "inputs": [
        {
          "internalType": "address",
          "name": "userAddress",
          "type": "address"
        }
      ],
      "name": "getUnlockedFishingSpots",
      "outputs": [
        {
          "internalType": "uint256[5]",
          "name": "",
          "type": "uint256[5]"
        }
      ],
      "stateMutability": "view",
      "type": "function"
    },
    {
      "inputs": [
        {
          "internalType": "address",
          "name": "userAddress",
          "type": "address"
        }
      ],
      "name": "getUser",
      "outputs": [
        {
          "components": [
            {
              "internalType": "uint256",
              "name": "fishingCount",
              "type": "uint256"
            },
            {
              "internalType": "uint256",
              "name": "experience",
              "type": "uint256"
            },
            {
              "internalType": "uint256",
              "name": "level",
              "type": "uint256"
            },
            {
              "internalType": "uint256[5]",
              "name": "unlockedFishingSpots",
              "type": "uint256[5]"
            },
            {
              "internalType": "uint256",
              "name": "currentFishingSpot",
              "type": "uint256"
            },
            {
              "internalType": "uint256",
              "name": "fishPoolLevel",
              "type": "uint256"
            },
            {
              "internalType": "uint256",
              "name": "interestRate",
              "type": "uint256"
            },
            {
              "internalType": "uint256",
              "name": "collectedGMC",
              "type": "uint256"
            },
            {
              "internalType": "uint256",
              "name": "baitCount",
              "type": "uint256"
            },
            {
              "internalType": "uint256[10]",
              "name": "fishCount",
              "type": "uint256[10]"
            },
            {
              "internalType": "uint256",
              "name": "currentFishermanNFT",
              "type": "uint256"
            },
            {
              "internalType": "uint256",
              "name": "currentRodNFT",
              "type": "uint256"
            }
          ],
          "internalType": "struct User.PlayerInfo",
          "name": "",
          "type": "tuple"
        }
      ],
      "stateMutability": "view",
      "type": "function"
    },
    {
      "inputs": [],
      "name": "gmcContract",
      "outputs": [
        {
          "internalType": "contract IGMC",
          "name": "",
          "type": "address"
        }
      ],
      "stateMutability": "view",
      "type": "function"
    },
    {
      "inputs": [
        {
          "internalType": "bytes32",
          "name": "role",
          "type": "bytes32"
        },
        {
          "internalType": "address",
          "name": "account",
          "type": "address"
        }
      ],
      "name": "grantRole",
      "outputs": [],
      "stateMutability": "nonpayable",
      "type": "function"
    },
    {
      "inputs": [
        {
          "internalType": "bytes32",
          "name": "role",
          "type": "bytes32"
        },
        {
          "internalType": "address",
          "name": "account",
          "type": "address"
        }
      ],
      "name": "hasRole",
      "outputs": [
        {
          "internalType": "bool",
          "name": "",
          "type": "bool"
        }
      ],
      "stateMutability": "view",
      "type": "function"
    },
    {
      "inputs": [],
      "name": "levelUpLimit",
      "outputs": [
        {
          "internalType": "uint256",
          "name": "",
          "type": "uint256"
        }
      ],
      "stateMutability": "view",
      "type": "function"
    },
    {
      "inputs": [],
      "name": "owner",
      "outputs": [
        {
          "internalType": "address",
          "name": "",
          "type": "address"
        }
      ],
      "stateMutability": "view",
      "type": "function"
    },
    {
      "inputs": [
        {
          "internalType": "address",
          "name": "admin",
          "type": "address"
        }
      ],
      "name": "removeAdmin",
      "outputs": [],
      "stateMutability": "nonpayable",
      "type": "function"
    },
    {
      "inputs": [],
      "name": "renounceOwnership",
      "outputs": [],
      "stateMutability": "nonpayable",
      "type": "function"
    },
    {
      "inputs": [
        {
          "internalType": "bytes32",
          "name": "role",
          "type": "bytes32"
        },
        {
          "internalType": "address",
          "name": "account",
          "type": "address"
        }
      ],
      "name": "renounceRole",
      "outputs": [],
      "stateMutability": "nonpayable",
      "type": "function"
    },
    {
      "inputs": [
        {
          "internalType": "bytes32",
          "name": "role",
          "type": "bytes32"
        },
        {
          "internalType": "address",
          "name": "account",
          "type": "address"
        }
      ],
      "name": "revokeRole",
      "outputs": [],
      "stateMutability": "nonpayable",
      "type": "function"
    },
    {
      "inputs": [
        {
          "internalType": "address",
          "name": "playerAddress",
          "type": "address"
        },
        {
          "internalType": "uint256",
          "name": "newCount",
          "type": "uint256"
        }
      ],
      "name": "setBaitCount",
      "outputs": [],
      "stateMutability": "nonpayable",
      "type": "function"
    },
    {
      "inputs": [
        {
          "internalType": "uint256",
          "name": "_baitPurchaseLimit",
          "type": "uint256"
        }
      ],
      "name": "setBaitPurchaseLimit",
      "outputs": [],
      "stateMutability": "nonpayable",
      "type": "function"
    },
    {
      "inputs": [
        {
          "internalType": "address",
          "name": "playerAddress",
          "type": "address"
        },
        {
          "internalType": "uint256",
          "name": "newAmount",
          "type": "uint256"
        }
      ],
      "name": "setCollectedGMC",
      "outputs": [],
      "stateMutability": "nonpayable",
      "type": "function"
    },
    {
      "inputs": [
        {
          "internalType": "address",
          "name": "userAddress",
          "type": "address"
        },
        {
          "internalType": "uint256",
          "name": "exp",
          "type": "uint256"
        }
      ],
      "name": "setExperience",
      "outputs": [],
      "stateMutability": "nonpayable",
      "type": "function"
    },
    {
      "inputs": [
        {
          "internalType": "address",
          "name": "playerAddress",
          "type": "address"
        },
        {
          "internalType": "uint256",
          "name": "star",
          "type": "uint256"
        },
        {
          "internalType": "uint256",
          "name": "newCount",
          "type": "uint256"
        }
      ],
      "name": "setFishCount",
      "outputs": [],
      "stateMutability": "nonpayable",
      "type": "function"
    },
    {
      "inputs": [
        {
          "internalType": "address",
          "name": "playerAddress",
          "type": "address"
        },
        {
          "internalType": "uint256",
          "name": "newLevel",
          "type": "uint256"
        }
      ],
      "name": "setFishPoolLevel",
      "outputs": [],
      "stateMutability": "nonpayable",
      "type": "function"
    },
    {
      "inputs": [
        {
          "internalType": "address",
          "name": "userAddress",
          "type": "address"
        },
        {
          "internalType": "uint256",
          "name": "count",
          "type": "uint256"
        }
      ],
      "name": "setFishingCount",
      "outputs": [],
      "stateMutability": "nonpayable",
      "type": "function"
    },
    {
      "inputs": [
        {
          "internalType": "uint256",
          "name": "_fishingCountLimit",
          "type": "uint256"
        }
      ],
      "name": "setFishingCountLimit",
      "outputs": [],
      "stateMutability": "nonpayable",
      "type": "function"
    },
    {
      "inputs": [
        {
          "internalType": "uint256",
          "name": "_levelUpLimit",
          "type": "uint256"
        }
      ],
      "name": "setLevelUpLimit",
      "outputs": [],
      "stateMutability": "nonpayable",
      "type": "function"
    },
    {
      "inputs": [
        {
          "internalType": "address",
          "name": "playerAddress",
          "type": "address"
        },
        {
          "internalType": "uint256",
          "name": "newLevel",
          "type": "uint256"
        }
      ],
      "name": "setPlayerLevel",
      "outputs": [],
      "stateMutability": "nonpayable",
      "type": "function"
    },
    {
      "inputs": [
        {
          "internalType": "bytes4",
          "name": "interfaceId",
          "type": "bytes4"
        }
      ],
      "name": "supportsInterface",
      "outputs": [
        {
          "internalType": "bool",
          "name": "",
          "type": "bool"
        }
      ],
      "stateMutability": "view",
      "type": "function"
    },
    {
      "inputs": [
        {
          "internalType": "address",
          "name": "newOwner",
          "type": "address"
        }
      ],
      "name": "transferOwnership",
      "outputs": [],
      "stateMutability": "nonpayable",
      "type": "function"
    },
    {
      "inputs": [
        {
          "internalType": "uint256",
          "name": "_levelUpLimit",
          "type": "uint256"
        },
        {
          "internalType": "uint256",
          "name": "_baitPurchaseLimit",
          "type": "uint256"
        },
        {
          "internalType": "uint256",
          "name": "_fishingCountLimit",
          "type": "uint256"
        },
        {
          "internalType": "uint256",
          "name": "_baitPrice",
          "type": "uint256"
        }
      ],
      "name": "updateLimitAttribute",
      "outputs": [],
      "stateMutability": "nonpayable",
      "type": "function"
    },
    {
      "inputs": [
        {
          "components": [
            {
              "internalType": "uint256",
              "name": "fishingCount",
              "type": "uint256"
            },
            {
              "internalType": "uint256",
              "name": "experience",
              "type": "uint256"
            },
            {
              "internalType": "uint256",
              "name": "level",
              "type": "uint256"
            },
            {
              "internalType": "uint256[5]",
              "name": "unlockedFishingSpots",
              "type": "uint256[5]"
            },
            {
              "internalType": "uint256",
              "name": "currentFishingSpot",
              "type": "uint256"
            },
            {
              "internalType": "uint256",
              "name": "fishPoolLevel",
              "type": "uint256"
            },
            {
              "internalType": "uint256",
              "name": "interestRate",
              "type": "uint256"
            },
            {
              "internalType": "uint256",
              "name": "collectedGMC",
              "type": "uint256"
            },
            {
              "internalType": "uint256",
              "name": "baitCount",
              "type": "uint256"
            },
            {
              "internalType": "uint256[10]",
              "name": "fishCount",
              "type": "uint256[10]"
            },
            {
              "internalType": "uint256",
              "name": "currentFishermanNFT",
              "type": "uint256"
            },
            {
              "internalType": "uint256",
              "name": "currentRodNFT",
              "type": "uint256"
            }
          ],
          "internalType": "struct User.PlayerInfo[]",
          "name": "playerInfo",
          "type": "tuple[]"
        },
        {
          "internalType": "address[]",
          "name": "playerAddresses",
          "type": "address[]"
        }
      ],
      "name": "updateUserData",
      "outputs": [],
      "stateMutability": "nonpayable",
      "type": "function"
    }
  ],
  "bytecode": "0x60806040523480156200001157600080fd5b50604051620061673803806200616783398181016040528101906200003791906200046d565b620000576200004b6200018a60201b60201c565b6200019260201b60201c565b60336006819055506063600781905550600a600881905550806009819055506200008b6000801b336200025660201b60201c565b620000bd7fa49807205ce4d355092ef5a8a18f56e8913cf4a201fbe287825b095693c21775336200025660201b60201c565b83600260006101000a81548173ffffffffffffffffffffffffffffffffffffffff021916908373ffffffffffffffffffffffffffffffffffffffff16021790555082600360006101000a81548173ffffffffffffffffffffffffffffffffffffffff021916908373ffffffffffffffffffffffffffffffffffffffff16021790555081600460006101000a81548173ffffffffffffffffffffffffffffffffffffffff021916908373ffffffffffffffffffffffffffffffffffffffff16021790555050505050620004df565b600033905090565b60008060009054906101000a900473ffffffffffffffffffffffffffffffffffffffff169050816000806101000a81548173ffffffffffffffffffffffffffffffffffffffff021916908373ffffffffffffffffffffffffffffffffffffffff1602179055508173ffffffffffffffffffffffffffffffffffffffff168173ffffffffffffffffffffffffffffffffffffffff167f8be0079c531659141344cd1fd0a4f28419497f9722a3daafe3b4186f6b6457e060405160405180910390a35050565b6200026882826200026c60201b60201c565b5050565b6200027e82826200035d60201b60201c565b6200035957600180600084815260200190815260200160002060000160008373ffffffffffffffffffffffffffffffffffffffff1673ffffffffffffffffffffffffffffffffffffffff16815260200190815260200160002060006101000a81548160ff021916908315150217905550620002fe6200018a60201b60201c565b73ffffffffffffffffffffffffffffffffffffffff168173ffffffffffffffffffffffffffffffffffffffff16837f2f8788117e7eff1d82e926ec794901d17c78024a50270940304540a733656f0d60405160405180910390a45b5050565b60006001600084815260200190815260200160002060000160008373ffffffffffffffffffffffffffffffffffffffff1673ffffffffffffffffffffffffffffffffffffffff16815260200190815260200160002060009054906101000a900460ff16905092915050565b600080fd5b600073ffffffffffffffffffffffffffffffffffffffff82169050919050565b6000620003fa82620003cd565b9050919050565b6200040c81620003ed565b81146200041857600080fd5b50565b6000815190506200042c8162000401565b92915050565b6000819050919050565b620004478162000432565b81146200045357600080fd5b50565b60008151905062000467816200043c565b92915050565b600080600080608085870312156200048a5762000489620003c8565b5b60006200049a878288016200041b565b9450506020620004ad878288016200041b565b9350506040620004c0878288016200041b565b9250506060620004d38782880162000456565b91505092959194509250565b615c7880620004ef6000396000f3fe608060405234801561001057600080fd5b506004361061030c5760003560e01c80638c953a781161019d578063c6051a94116100e9578063e55ae65a116100a2578063eaaaa2341161007c578063eaaaa23414610949578063f206140514610965578063f2fde38b14610983578063f76b7de51461099f5761030c565b8063e55ae65a146108f3578063e678f86c14610911578063e9bcc5f31461092d5761030c565b8063c6051a9414610833578063c8001b7314610863578063cee8b4aa14610881578063d4f08cca1461089f578063d547741f146108bb578063dea90512146108d75761030c565b80639deedd5b11610156578063b474ca7611610130578063b474ca76146107c1578063b5d626c4146107df578063bf129fd0146107fb578063bfb56d62146108175761030c565b80639deedd5b1461076b578063a217fddf14610787578063a63eba48146107a55761030c565b80638c953a78146106835780638ca5f74d146106b35780638da5cb5b146106d157806391d14854146106ef578063951559001461071f5780639af7a00a1461074f5761030c565b806350a4098a1161025c5780636b743a2c11610215578063715018a6116101ef578063715018a61461062157806375b238fc1461062b5780637757346d1461064957806379ba5097146106795761030c565b80636b743a2c146105a55780636f77926b146105d557806370480275146106055761030c565b806350a4098a146104e557806353acd2ab14610503578063593284011461051f578063657a93931461054f5780636667a9a71461056b5780636aba920b146105895761030c565b8063248a9ca3116102c957806334b735a1116102a357806334b735a11461044d57806336568abe1461047d578063421b2d8b1461049957806348aabab2146104b55761030c565b8063248a9ca3146103d15780632f2ff15d1461040157806331c4ecdc1461041d5761030c565b806301ffc9a714610311578063047ac5de146103415780631785f53c1461035f57806318250e071461037b5780631fbff24f14610399578063215c5d00146103b5575b600080fd5b61032b6004803603810190610326919061439d565b6109cf565b60405161033891906143e5565b60405180910390f35b610349610a49565b604051610356919061447f565b60405180910390f35b610379600480360381019061037491906144d8565b610a6f565b005b610383610aa4565b604051610390919061451e565b60405180910390f35b6103b360048036038101906103ae9190614a10565b610aaa565b005b6103cf60048036038101906103ca9190614a88565b61124b565b005b6103eb60048036038101906103e69190614b25565b6112d5565b6040516103f89190614b61565b60405180910390f35b61041b60048036038101906104169190614b7c565b6112f5565b005b610437600480360381019061043291906144d8565b611316565b604051610444919061451e565b60405180910390f35b610467600480360381019061046291906144d8565b6113ee565b604051610474919061451e565b60405180910390f35b61049760048036038101906104929190614b7c565b6114c6565b005b6104b360048036038101906104ae91906144d8565b611549565b005b6104cf60048036038101906104ca91906144d8565b611860565b6040516104dc919061451e565b60405180910390f35b6104ed611938565b6040516104fa9190614bdd565b60405180910390f35b61051d60048036038101906105189190614bf8565b61195e565b005b610539600480360381019061053491906144d8565b611cce565b6040516105469190614e61565b60405180910390f35b61056960048036038101906105649190614e7d565b611e16565b005b610573611e53565b604051610580919061451e565b60405180910390f35b6105a3600480360381019061059e9190614bf8565b611e5d565b005b6105bf60048036038101906105ba91906144d8565b611fb5565b6040516105cc919061451e565b60405180910390f35b6105ef60048036038101906105ea91906144d8565b61208d565b6040516105fc9190614e61565b60405180910390f35b61061f600480360381019061061a91906144d8565b61225e565b005b610629612293565b005b6106336122a7565b6040516106409190614b61565b60405180910390f35b610663600480360381019061065e91906144d8565b6122cb565b604051610670919061451e565b60405180910390f35b6106816123a3565b005b61069d600480360381019061069891906144d8565b61246c565b6040516106aa9190614f0c565b60405180910390f35b6106bb612585565b6040516106c8919061451e565b60405180910390f35b6106d961258f565b6040516106e69190614f36565b60405180910390f35b61070960048036038101906107049190614b7c565b6125b8565b60405161071691906143e5565b60405180910390f35b610739600480360381019061073491906144d8565b612623565b604051610746919061451e565b60405180910390f35b61076960048036038101906107649190614f51565b6126fb565b005b61078560048036038101906107809190614e7d565b612869565b005b61078f6128a6565b60405161079c9190614b61565b60405180910390f35b6107bf60048036038101906107ba9190614bf8565b6128ad565b005b6107c9612a05565b6040516107d6919061451e565b60405180910390f35b6107f960048036038101906107f49190614bf8565b612a0b565b005b61081560048036038101906108109190614bf8565b612c73565b005b610831600480360381019061082c9190614bf8565b612dcb565b005b61084d600480360381019061084891906144d8565b612f2f565b60405161085a9190615006565b60405180910390f35b61086b613048565b6040516108789190615043565b60405180910390f35b61088961306e565b604051610896919061451e565b60405180910390f35b6108b960048036038101906108b49190614bf8565b613074565b005b6108d560048036038101906108d09190614b7c565b6133a2565b005b6108f160048036038101906108ec9190614bf8565b6133c3565b005b6108fb61351b565b604051610908919061451e565b60405180910390f35b61092b60048036038101906109269190614e7d565b613521565b005b6109476004803603810190610942919061505e565b61355e565b005b610963600480360381019061095e9190614bf8565b6138ce565b005b61096d6139a2565b60405161097a919061451e565b60405180910390f35b61099d600480360381019061099891906144d8565b6139ac565b005b6109b960048036038101906109b491906144d8565b613a92565b6040516109c6919061451e565b60405180910390f35b60007f7965db0b000000000000000000000000000000000000000000000000000000007bffffffffffffffffffffffffffffffffffffffffffffffffffffffff1916827bffffffffffffffffffffffffffffffffffffffffffffffffffffffff19161480610a425750610a4182613b6a565b5b9050919050565b600260009054906101000a900473ffffffffffffffffffffffffffffffffffffffff1681565b610a77613bd4565b610aa17fa49807205ce4d355092ef5a8a18f56e8913cf4a201fbe287825b095693c21775826133a2565b50565b60095481565b610ad47fa49807205ce4d355092ef5a8a18f56e8913cf4a201fbe287825b095693c21775336125b8565b610add57600080fd5b8051825114610b21576040517f08c379a0000000000000000000000000000000000000000000000000000000008152600401610b18906150fb565b60405180910390fd5b60005b82518110156111ee57600b6000838381518110610b4457610b4361511b565b5b602002602001015173ffffffffffffffffffffffffffffffffffffffff1673ffffffffffffffffffffffffffffffffffffffff16815260200190815260200160002060009054906101000a900460ff16610bd3576040517f08c379a0000000000000000000000000000000000000000000000000000000008152600401610bca90615196565b60405180910390fd5b828181518110610be657610be561511b565b5b602002602001015160000151600a6000848481518110610c0957610c0861511b565b5b602002602001015173ffffffffffffffffffffffffffffffffffffffff1673ffffffffffffffffffffffffffffffffffffffff16815260200190815260200160002060000181905550828181518110610c6557610c6461511b565b5b602002602001015160200151600a6000848481518110610c8857610c8761511b565b5b602002602001015173ffffffffffffffffffffffffffffffffffffffff1673ffffffffffffffffffffffffffffffffffffffff16815260200190815260200160002060010181905550828181518110610ce457610ce361511b565b5b602002602001015160400151600a6000848481518110610d0757610d0661511b565b5b602002602001015173ffffffffffffffffffffffffffffffffffffffff1673ffffffffffffffffffffffffffffffffffffffff16815260200190815260200160002060020181905550828181518110610d6357610d6261511b565b5b602002602001015160600151600a6000848481518110610d8657610d8561511b565b5b602002602001015173ffffffffffffffffffffffffffffffffffffffff1673ffffffffffffffffffffffffffffffffffffffff168152602001908152602001600020600301906005610dd99291906141e2565b50828181518110610ded57610dec61511b565b5b602002602001015160800151600a6000848481518110610e1057610e0f61511b565b5b602002602001015173ffffffffffffffffffffffffffffffffffffffff1673ffffffffffffffffffffffffffffffffffffffff16815260200190815260200160002060080181905550828181518110610e6c57610e6b61511b565b5b602002602001015160a00151600a6000848481518110610e8f57610e8e61511b565b5b602002602001015173ffffffffffffffffffffffffffffffffffffffff1673ffffffffffffffffffffffffffffffffffffffff16815260200190815260200160002060090181905550828181518110610eeb57610eea61511b565b5b602002602001015160c00151600a6000848481518110610f0e57610f0d61511b565b5b602002602001015173ffffffffffffffffffffffffffffffffffffffff1673ffffffffffffffffffffffffffffffffffffffff168152602001908152602001600020600a0181905550828181518110610f6a57610f6961511b565b5b602002602001015160e00151600a6000848481518110610f8d57610f8c61511b565b5b602002602001015173ffffffffffffffffffffffffffffffffffffffff1673ffffffffffffffffffffffffffffffffffffffff168152602001908152602001600020600b0181905550828181518110610fe957610fe861511b565b5b60200260200101516101000151600a600084848151811061100d5761100c61511b565b5b602002602001015173ffffffffffffffffffffffffffffffffffffffff1673ffffffffffffffffffffffffffffffffffffffff168152602001908152602001600020600c01819055508281815181106110695761106861511b565b5b60200260200101516101200151600a600084848151811061108d5761108c61511b565b5b602002602001015173ffffffffffffffffffffffffffffffffffffffff1673ffffffffffffffffffffffffffffffffffffffff168152602001908152602001600020600d0190600a6110e0929190614222565b508281815181106110f4576110f361511b565b5b60200260200101516101400151600a60008484815181106111185761111761511b565b5b602002602001015173ffffffffffffffffffffffffffffffffffffffff1673ffffffffffffffffffffffffffffffffffffffff168152602001908152602001600020601701819055508281815181106111745761117361511b565b5b60200260200101516101600151600a60008484815181106111985761119761511b565b5b602002602001015173ffffffffffffffffffffffffffffffffffffffff1673ffffffffffffffffffffffffffffffffffffffff168152602001908152602001600020601801819055508080600101915050610b24565b50806040516111fd919061526e565b6040518091039020826040516112139190615530565b60405180910390207fc91fdb6201eb89b7a1b567d23d3c59bbfd7f7d942aa9e8ad346319d17f0b910860405160405180910390a35050565b6112757fa49807205ce4d355092ef5a8a18f56e8913cf4a201fbe287825b095693c21775336125b8565b61127e57600080fd5b836006819055508260078190555081600881905550806009819055506009546007546006547ffb7230b722712fa11b563a061381502fa2e6f8f6432c8af6ec3b309c26e74cb660405160405180910390a450505050565b600060016000838152602001908152602001600020600101549050919050565b6112fe826112d5565b61130781613c52565b6113118383613c66565b505050565b6000600b60008373ffffffffffffffffffffffffffffffffffffffff1673ffffffffffffffffffffffffffffffffffffffff16815260200190815260200160002060009054906101000a900460ff166113a4576040517f08c379a000000000000000000000000000000000000000000000000000000000815260040161139b90615196565b60405180910390fd5b600a60008373ffffffffffffffffffffffffffffffffffffffff1673ffffffffffffffffffffffffffffffffffffffff168152602001908152602001600020600901549050919050565b6000600b60008373ffffffffffffffffffffffffffffffffffffffff1673ffffffffffffffffffffffffffffffffffffffff16815260200190815260200160002060009054906101000a900460ff1661147c576040517f08c379a000000000000000000000000000000000000000000000000000000000815260040161147390615196565b60405180910390fd5b600a60008373ffffffffffffffffffffffffffffffffffffffff1673ffffffffffffffffffffffffffffffffffffffff168152602001908152602001600020600201549050919050565b6114ce613d46565b73ffffffffffffffffffffffffffffffffffffffff168173ffffffffffffffffffffffffffffffffffffffff161461153b576040517f08c379a0000000000000000000000000000000000000000000000000000000008152600401611532906155b9565b60405180910390fd5b6115458282613d4e565b5050565b6115737fa49807205ce4d355092ef5a8a18f56e8913cf4a201fbe287825b095693c21775336125b8565b61157c57600080fd5b600b60008273ffffffffffffffffffffffffffffffffffffffff1673ffffffffffffffffffffffffffffffffffffffff16815260200190815260200160002060009054906101000a900460ff16156115d357600080fd5b604051806101800160405280600a815260200160008152602001600181526020016040518060a001604052806103e981526020016000815260200160008152602001600081526020016000815250815260200160008152602001600181526020016000815260200160008152602001601e8152602001604051806101400160405280600081526020016000815260200160008152602001600081526020016000815260200160008152602001600081526020016000815260200160008152602001600081525081526020017fffffffffffffffffffffffffffffffffffffffffffffffffffffffffffffffff81526020017fffffffffffffffffffffffffffffffffffffffffffffffffffffffffffffffff815250600a60008373ffffffffffffffffffffffffffffffffffffffff1673ffffffffffffffffffffffffffffffffffffffff16815260200190815260200160002060008201518160000155602082015181600101556040820151816002015560608201518160030190600561175c9291906141e2565b506080820151816008015560a0820151816009015560c082015181600a015560e082015181600b015561010082015181600c015561012082015181600d0190600a6117a8929190614222565b50610140820151816017015561016082015181601801559050506001600b60008373ffffffffffffffffffffffffffffffffffffffff1673ffffffffffffffffffffffffffffffffffffffff16815260200190815260200160002060006101000a81548160ff0219169083151502179055508073ffffffffffffffffffffffffffffffffffffffff167ff2ae205522024c14e5a7a26ba6d1fb1252dc8e161b5abc79ed5795fd3c5b926160405160405180910390a250565b6000600b60008373ffffffffffffffffffffffffffffffffffffffff1673ffffffffffffffffffffffffffffffffffffffff16815260200190815260200160002060009054906101000a900460ff166118ee576040517f08c379a00000000000000000000000000000000000000000000000000000000081526004016118e590615196565b60405180910390fd5b600a60008373ffffffffffffffffffffffffffffffffffffffff1673ffffffffffffffffffffffffffffffffffffffff168152602001908152602001600020600c01549050919050565b600360009054906101000a900473ffffffffffffffffffffffffffffffffffffffff1681565b6119887fa49807205ce4d355092ef5a8a18f56e8913cf4a201fbe287825b095693c21775336125b8565b61199157600080fd5b600b60008373ffffffffffffffffffffffffffffffffffffffff1673ffffffffffffffffffffffffffffffffffffffff16815260200190815260200160002060009054906101000a900460ff16611a1d576040517f08c379a0000000000000000000000000000000000000000000000000000000008152600401611a1490615196565b60405180910390fd5b600060608373ffffffffffffffffffffffffffffffffffffffff16600360009054906101000a900473ffffffffffffffffffffffffffffffffffffffff1673ffffffffffffffffffffffffffffffffffffffff16636352211e856040518263ffffffff1660e01b8152600401611a93919061451e565b602060405180830381865afa158015611ab0573d6000803e3d6000fd5b505050506040513d601f19601f82011682018060405250810190611ad491906155ee565b73ffffffffffffffffffffffffffffffffffffffff1614611c2f57600360009054906101000a900473ffffffffffffffffffffffffffffffffffffffff1673ffffffffffffffffffffffffffffffffffffffff166318148f1b856040518263ffffffff1660e01b8152600401611b4a9190614f36565b600060405180830381865afa158015611b67573d6000803e3d6000fd5b505050506040513d6000823e3d601f19601f82011682018060405250810190611b9091906156f3565b9050600081511115611c065780600081518110611bb057611baf61511b565b5b6020026020010151915081600a60008673ffffffffffffffffffffffffffffffffffffffff1673ffffffffffffffffffffffffffffffffffffffff16815260200190815260200160002060170181905550611c2a565b7fffffffffffffffffffffffffffffffffffffffffffffffffffffffffffffffff91505b611c7a565b82600a60008673ffffffffffffffffffffffffffffffffffffffff1673ffffffffffffffffffffffffffffffffffffffff168152602001908152602001600020601701819055508291505b8373ffffffffffffffffffffffffffffffffffffffff167f08e9f015b4a09d3e66a5d3703ecc0d035e52da672786c75b807300bd4a72530d83604051611cc0919061451e565b60405180910390a250505050565b611cd6614262565b600a60008373ffffffffffffffffffffffffffffffffffffffff1673ffffffffffffffffffffffffffffffffffffffff1681526020019081526020016000206040518061018001604052908160008201548152602001600182015481526020016002820154815260200160038201600580602002604051908101604052809291908260058015611d7b576020028201915b815481526020019060010190808311611d67575b505050505081526020016008820154815260200160098201548152602001600a8201548152602001600b8201548152602001600c8201548152602001600d8201600a806020026040519081016040528092919082600a8015611df2576020028201915b815481526020019060010190808311611dde575b50505050508152602001601782015481526020016018820154815250509050919050565b611e407fa49807205ce4d355092ef5a8a18f56e8913cf4a201fbe287825b095693c21775336125b8565b611e4957600080fd5b8060078190555050565b6000600754905090565b611e877fa49807205ce4d355092ef5a8a18f56e8913cf4a201fbe287825b095693c21775336125b8565b611e9057600080fd5b600b60008373ffffffffffffffffffffffffffffffffffffffff1673ffffffffffffffffffffffffffffffffffffffff16815260200190815260200160002060009054906101000a900460ff16611f1c576040517f08c379a0000000000000000000000000000000000000000000000000000000008152600401611f1390615196565b60405180910390fd5b80600a60008473ffffffffffffffffffffffffffffffffffffffff1673ffffffffffffffffffffffffffffffffffffffff168152602001908152602001600020600c01819055508173ffffffffffffffffffffffffffffffffffffffff167f61de7c9c9fef84bf815ad3b2d17a9af3d0655af7a1c9423e5d2dee99ec5c6ffc82604051611fa9919061451e565b60405180910390a25050565b6000600b60008373ffffffffffffffffffffffffffffffffffffffff1673ffffffffffffffffffffffffffffffffffffffff16815260200190815260200160002060009054906101000a900460ff16612043576040517f08c379a000000000000000000000000000000000000000000000000000000000815260040161203a90615196565b60405180910390fd5b600a60008373ffffffffffffffffffffffffffffffffffffffff1673ffffffffffffffffffffffffffffffffffffffff168152602001908152602001600020600101549050919050565b612095614262565b6120bf7fa49807205ce4d355092ef5a8a18f56e8913cf4a201fbe287825b095693c21775336125b8565b6120c857600080fd5b600b60008373ffffffffffffffffffffffffffffffffffffffff1673ffffffffffffffffffffffffffffffffffffffff16815260200190815260200160002060009054906101000a900460ff1661211e57600080fd5b600a60008373ffffffffffffffffffffffffffffffffffffffff1673ffffffffffffffffffffffffffffffffffffffff16815260200190815260200160002060405180610180016040529081600082015481526020016001820154815260200160028201548152602001600382016005806020026040519081016040528092919082600580156121c3576020028201915b8154815260200190600101908083116121af575b505050505081526020016008820154815260200160098201548152602001600a8201548152602001600b8201548152602001600c8201548152602001600d8201600a806020026040519081016040528092919082600a801561223a576020028201915b815481526020019060010190808311612226575b50505050508152602001601782015481526020016018820154815250509050919050565b612266613bd4565b6122907fa49807205ce4d355092ef5a8a18f56e8913cf4a201fbe287825b095693c21775826112f5565b50565b61229b613bd4565b6122a56000613e30565b565b7fa49807205ce4d355092ef5a8a18f56e8913cf4a201fbe287825b095693c2177581565b6000600b60008373ffffffffffffffffffffffffffffffffffffffff1673ffffffffffffffffffffffffffffffffffffffff16815260200190815260200160002060009054906101000a900460ff16612359576040517f08c379a000000000000000000000000000000000000000000000000000000000815260040161235090615196565b60405180910390fd5b600a60008373ffffffffffffffffffffffffffffffffffffffff1673ffffffffffffffffffffffffffffffffffffffff168152602001908152602001600020601801549050919050565b600560009054906101000a900473ffffffffffffffffffffffffffffffffffffffff1673ffffffffffffffffffffffffffffffffffffffff163373ffffffffffffffffffffffffffffffffffffffff16146123fd57600080fd5b612428600560009054906101000a900473ffffffffffffffffffffffffffffffffffffffff16613e30565b6000600560006101000a81548173ffffffffffffffffffffffffffffffffffffffff021916908373ffffffffffffffffffffffffffffffffffffffff160217905550565b6124746142cf565b600b60008373ffffffffffffffffffffffffffffffffffffffff1673ffffffffffffffffffffffffffffffffffffffff16815260200190815260200160002060009054906101000a900460ff16612500576040517f08c379a00000000000000000000000000000000000000000000000000000000081526004016124f790615196565b60405180910390fd5b600a60008373ffffffffffffffffffffffffffffffffffffffff1673ffffffffffffffffffffffffffffffffffffffff168152602001908152602001600020600301600580602002604051908101604052809291908260058015612579576020028201915b815481526020019060010190808311612565575b50505050509050919050565b6000600654905090565b60008060009054906101000a900473ffffffffffffffffffffffffffffffffffffffff16905090565b60006001600084815260200190815260200160002060000160008373ffffffffffffffffffffffffffffffffffffffff1673ffffffffffffffffffffffffffffffffffffffff16815260200190815260200160002060009054906101000a900460ff16905092915050565b6000600b60008373ffffffffffffffffffffffffffffffffffffffff1673ffffffffffffffffffffffffffffffffffffffff16815260200190815260200160002060009054906101000a900460ff166126b1576040517f08c379a00000000000000000000000000000000000000000000000000000000081526004016126a890615196565b60405180910390fd5b600a60008373ffffffffffffffffffffffffffffffffffffffff1673ffffffffffffffffffffffffffffffffffffffff168152602001908152602001600020600b01549050919050565b6127257fa49807205ce4d355092ef5a8a18f56e8913cf4a201fbe287825b095693c21775336125b8565b61272e57600080fd5b600b60008473ffffffffffffffffffffffffffffffffffffffff1673ffffffffffffffffffffffffffffffffffffffff16815260200190815260200160002060009054906101000a900460ff166127ba576040517f08c379a00000000000000000000000000000000000000000000000000000000081526004016127b190615196565b60405180910390fd5b80600a60008573ffffffffffffffffffffffffffffffffffffffff1673ffffffffffffffffffffffffffffffffffffffff168152602001908152602001600020600d0183600a811061280f5761280e61511b565b5b01819055508273ffffffffffffffffffffffffffffffffffffffff167f374ed846dc3e18a969aef22277ce3669832a6ea83e3088149d5b40319413de47838360405161285c92919061573c565b60405180910390a2505050565b6128937fa49807205ce4d355092ef5a8a18f56e8913cf4a201fbe287825b095693c21775336125b8565b61289c57600080fd5b8060088190555050565b6000801b81565b6128d77fa49807205ce4d355092ef5a8a18f56e8913cf4a201fbe287825b095693c21775336125b8565b6128e057600080fd5b600b60008373ffffffffffffffffffffffffffffffffffffffff1673ffffffffffffffffffffffffffffffffffffffff16815260200190815260200160002060009054906101000a900460ff1661296c576040517f08c379a000000000000000000000000000000000000000000000000000000000815260040161296390615196565b60405180910390fd5b80600a60008473ffffffffffffffffffffffffffffffffffffffff1673ffffffffffffffffffffffffffffffffffffffff168152602001908152602001600020600b01819055508173ffffffffffffffffffffffffffffffffffffffff167f7f299cebc3c4384ae412a6ba151d00bd215add4b1379155dd71c3376cbf07df6826040516129f9919061451e565b60405180910390a25050565b60075481565b612a357fa49807205ce4d355092ef5a8a18f56e8913cf4a201fbe287825b095693c21775336125b8565b612a3e57600080fd5b600b60008373ffffffffffffffffffffffffffffffffffffffff1673ffffffffffffffffffffffffffffffffffffffff16815260200190815260200160002060009054906101000a900460ff16612aca576040517f08c379a0000000000000000000000000000000000000000000000000000000008152600401612ac190615196565b60405180910390fd5b6000600a60008473ffffffffffffffffffffffffffffffffffffffff1673ffffffffffffffffffffffffffffffffffffffff168152602001908152602001600020600b0154905081811015612b54576040517f08c379a0000000000000000000000000000000000000000000000000000000008152600401612b4b906157b1565b60405180910390fd5b600260009054906101000a900473ffffffffffffffffffffffffffffffffffffffff1673ffffffffffffffffffffffffffffffffffffffff166340c10f1984846040518363ffffffff1660e01b8152600401612bb19291906157d1565b600060405180830381600087803b158015612bcb57600080fd5b505af1158015612bdf573d6000803e3d6000fd5b505050508181612bef9190615829565b600a60008573ffffffffffffffffffffffffffffffffffffffff1673ffffffffffffffffffffffffffffffffffffffff168152602001908152602001600020600b01819055507f190fe81f396538a8654aafa1adcdabc1825d53aa9fa6dd809991683d943e3a178383604051612c669291906157d1565b60405180910390a1505050565b612c9d7fa49807205ce4d355092ef5a8a18f56e8913cf4a201fbe287825b095693c21775336125b8565b612ca657600080fd5b600b60008373ffffffffffffffffffffffffffffffffffffffff1673ffffffffffffffffffffffffffffffffffffffff16815260200190815260200160002060009054906101000a900460ff16612d32576040517f08c379a0000000000000000000000000000000000000000000000000000000008152600401612d2990615196565b60405180910390fd5b80600a60008473ffffffffffffffffffffffffffffffffffffffff1673ffffffffffffffffffffffffffffffffffffffff168152602001908152602001600020600901819055508173ffffffffffffffffffffffffffffffffffffffff167f7ed17f7b101bb354c92f134f7c421a00e511b046abf1edceb1956966e744348082604051612dbf919061451e565b60405180910390a25050565b612df57fa49807205ce4d355092ef5a8a18f56e8913cf4a201fbe287825b095693c21775336125b8565b612dfe57600080fd5b600b60008373ffffffffffffffffffffffffffffffffffffffff1673ffffffffffffffffffffffffffffffffffffffff16815260200190815260200160002060009054906101000a900460ff16612e8a576040517f08c379a0000000000000000000000000000000000000000000000000000000008152600401612e8190615196565b60405180910390fd5b6000600a60008473ffffffffffffffffffffffffffffffffffffffff1673ffffffffffffffffffffffffffffffffffffffff16815260200190815260200160002090508181600101819055508273ffffffffffffffffffffffffffffffffffffffff167f81665166aed8384c9df23393834f1b549569bbb3ca825f52f8390f1bbe163871838360010154604051612f2292919061573c565b60405180910390a2505050565b612f376142f1565b600b60008373ffffffffffffffffffffffffffffffffffffffff1673ffffffffffffffffffffffffffffffffffffffff16815260200190815260200160002060009054906101000a900460ff16612fc3576040517f08c379a0000000000000000000000000000000000000000000000000000000008152600401612fba90615196565b60405180910390fd5b600a60008373ffffffffffffffffffffffffffffffffffffffff1673ffffffffffffffffffffffffffffffffffffffff168152602001908152602001600020600d01600a806020026040519081016040528092919082600a801561303c576020028201915b815481526020019060010190808311613028575b50505050509050919050565b600460009054906101000a900473ffffffffffffffffffffffffffffffffffffffff1681565b60065481565b61309e7fa49807205ce4d355092ef5a8a18f56e8913cf4a201fbe287825b095693c21775336125b8565b6130a757600080fd5b600b60008373ffffffffffffffffffffffffffffffffffffffff1673ffffffffffffffffffffffffffffffffffffffff16815260200190815260200160002060009054906101000a900460ff16613133576040517f08c379a000000000000000000000000000000000000000000000000000000000815260040161312a90615196565b60405180910390fd5b600060095482613143919061585d565b905080600260009054906101000a900473ffffffffffffffffffffffffffffffffffffffff1673ffffffffffffffffffffffffffffffffffffffff166370a08231856040518263ffffffff1660e01b81526004016131a19190614f36565b602060405180830381865afa1580156131be573d6000803e3d6000fd5b505050506040513d601f19601f820116820180604052508101906131e2919061589f565b1015613223576040517f08c379a000000000000000000000000000000000000000000000000000000000815260040161321a90615918565b60405180910390fd5b600260009054906101000a900473ffffffffffffffffffffffffffffffffffffffff1673ffffffffffffffffffffffffffffffffffffffff1663beabacc88430846040518463ffffffff1660e01b815260040161328293929190615938565b600060405180830381600087803b15801561329c57600080fd5b505af11580156132b0573d6000803e3d6000fd5b5050505081600a60008573ffffffffffffffffffffffffffffffffffffffff1673ffffffffffffffffffffffffffffffffffffffff168152602001908152602001600020600c016000828254613306919061596f565b925050819055508273ffffffffffffffffffffffffffffffffffffffff167f61de7c9c9fef84bf815ad3b2d17a9af3d0655af7a1c9423e5d2dee99ec5c6ffc600a60008673ffffffffffffffffffffffffffffffffffffffff1673ffffffffffffffffffffffffffffffffffffffff168152602001908152602001600020600c0154604051613395919061451e565b60405180910390a2505050565b6133ab826112d5565b6133b481613c52565b6133be8383613d4e565b505050565b6133ed7fa49807205ce4d355092ef5a8a18f56e8913cf4a201fbe287825b095693c21775336125b8565b6133f657600080fd5b600b60008373ffffffffffffffffffffffffffffffffffffffff1673ffffffffffffffffffffffffffffffffffffffff16815260200190815260200160002060009054906101000a900460ff16613482576040517f08c379a000000000000000000000000000000000000000000000000000000000815260040161347990615196565b60405180910390fd5b80600a60008473ffffffffffffffffffffffffffffffffffffffff1673ffffffffffffffffffffffffffffffffffffffff168152602001908152602001600020600201819055508173ffffffffffffffffffffffffffffffffffffffff167f7b45410837b569e79f978c88fbb1ab01a26d6922675e4de2fc0bae4e0586ceac8260405161350f919061451e565b60405180910390a25050565b60085481565b61354b7fa49807205ce4d355092ef5a8a18f56e8913cf4a201fbe287825b095693c21775336125b8565b61355457600080fd5b8060068190555050565b6135887fa49807205ce4d355092ef5a8a18f56e8913cf4a201fbe287825b095693c21775336125b8565b61359157600080fd5b600b60008273ffffffffffffffffffffffffffffffffffffffff1673ffffffffffffffffffffffffffffffffffffffff16815260200190815260200160002060009054906101000a900460ff1661361d576040517f08c379a000000000000000000000000000000000000000000000000000000000815260040161361490615196565b60405180910390fd5b600060608273ffffffffffffffffffffffffffffffffffffffff16600460009054906101000a900473ffffffffffffffffffffffffffffffffffffffff1673ffffffffffffffffffffffffffffffffffffffff16636352211e866040518263ffffffff1660e01b8152600401613693919061451e565b602060405180830381865afa1580156136b0573d6000803e3d6000fd5b505050506040513d601f19601f820116820180604052508101906136d491906155ee565b73ffffffffffffffffffffffffffffffffffffffff161461382f57600460009054906101000a900473ffffffffffffffffffffffffffffffffffffffff1673ffffffffffffffffffffffffffffffffffffffff166318148f1b846040518263ffffffff1660e01b815260040161374a9190614f36565b600060405180830381865afa158015613767573d6000803e3d6000fd5b505050506040513d6000823e3d601f19601f8201168201806040525081019061379091906156f3565b905060008151111561380657806000815181106137b0576137af61511b565b5b6020026020010151915081600a60008573ffffffffffffffffffffffffffffffffffffffff1673ffffffffffffffffffffffffffffffffffffffff1681526020019081526020016000206018018190555061382a565b7fffffffffffffffffffffffffffffffffffffffffffffffffffffffffffffffff91505b61387a565b83600a60008573ffffffffffffffffffffffffffffffffffffffff1673ffffffffffffffffffffffffffffffffffffffff168152602001908152602001600020601801819055508391505b8273ffffffffffffffffffffffffffffffffffffffff167fcc9803ff35bbb65900301a2b84f90ad432fd23b513fb5dddcb6f4568cb9c54c9836040516138c0919061451e565b60405180910390a250505050565b6138f87fa49807205ce4d355092ef5a8a18f56e8913cf4a201fbe287825b095693c21775336125b8565b61390157600080fd5b600b60008373ffffffffffffffffffffffffffffffffffffffff1673ffffffffffffffffffffffffffffffffffffffff16815260200190815260200160002060009054906101000a900460ff1661395757600080fd5b80600a60008473ffffffffffffffffffffffffffffffffffffffff1673ffffffffffffffffffffffffffffffffffffffff168152602001908152602001600020600001819055505050565b6000600854905090565b6139b4613bd4565b600073ffffffffffffffffffffffffffffffffffffffff168173ffffffffffffffffffffffffffffffffffffffff16036139ed57600080fd5b80600560006101000a81548173ffffffffffffffffffffffffffffffffffffffff021916908373ffffffffffffffffffffffffffffffffffffffff1602179055508073ffffffffffffffffffffffffffffffffffffffff16613a4d61258f565b73ffffffffffffffffffffffffffffffffffffffff167f38d16b8cac22d99fc7c124b9cd0de2d3fa1faef420bfe791d8c362d765e2270060405160405180910390a350565b6000600b60008373ffffffffffffffffffffffffffffffffffffffff1673ffffffffffffffffffffffffffffffffffffffff16815260200190815260200160002060009054906101000a900460ff16613b20576040517f08c379a0000000000000000000000000000000000000000000000000000000008152600401613b1790615196565b60405180910390fd5b600a60008373ffffffffffffffffffffffffffffffffffffffff1673ffffffffffffffffffffffffffffffffffffffff168152602001908152602001600020601701549050919050565b60007f01ffc9a7000000000000000000000000000000000000000000000000000000007bffffffffffffffffffffffffffffffffffffffffffffffffffffffff1916827bffffffffffffffffffffffffffffffffffffffffffffffffffffffff1916149050919050565b613bdc613d46565b73ffffffffffffffffffffffffffffffffffffffff16613bfa61258f565b73ffffffffffffffffffffffffffffffffffffffff1614613c50576040517f08c379a0000000000000000000000000000000000000000000000000000000008152600401613c47906159ef565b60405180910390fd5b565b613c6381613c5e613d46565b613ef4565b50565b613c7082826125b8565b613d4257600180600084815260200190815260200160002060000160008373ffffffffffffffffffffffffffffffffffffffff1673ffffffffffffffffffffffffffffffffffffffff16815260200190815260200160002060006101000a81548160ff021916908315150217905550613ce7613d46565b73ffffffffffffffffffffffffffffffffffffffff168173ffffffffffffffffffffffffffffffffffffffff16837f2f8788117e7eff1d82e926ec794901d17c78024a50270940304540a733656f0d60405160405180910390a45b5050565b600033905090565b613d5882826125b8565b15613e2c5760006001600084815260200190815260200160002060000160008373ffffffffffffffffffffffffffffffffffffffff1673ffffffffffffffffffffffffffffffffffffffff16815260200190815260200160002060006101000a81548160ff021916908315150217905550613dd1613d46565b73ffffffffffffffffffffffffffffffffffffffff168173ffffffffffffffffffffffffffffffffffffffff16837ff6391f5c32d9c69d2a47ea670b442974b53935d1edc7fd64eb21e047a839171b60405160405180910390a45b5050565b60008060009054906101000a900473ffffffffffffffffffffffffffffffffffffffff169050816000806101000a81548173ffffffffffffffffffffffffffffffffffffffff021916908373ffffffffffffffffffffffffffffffffffffffff1602179055508173ffffffffffffffffffffffffffffffffffffffff168173ffffffffffffffffffffffffffffffffffffffff167f8be0079c531659141344cd1fd0a4f28419497f9722a3daafe3b4186f6b6457e060405160405180910390a35050565b613efe82826125b8565b613f7557613f0b81613f79565b613f198360001c6020613fa6565b604051602001613f2a929190615b18565b6040516020818303038152906040526040517f08c379a0000000000000000000000000000000000000000000000000000000008152600401613f6c9190615b8b565b60405180910390fd5b5050565b6060613f9f8273ffffffffffffffffffffffffffffffffffffffff16601460ff16613fa6565b9050919050565b606060006002836002613fb9919061585d565b613fc3919061596f565b67ffffffffffffffff811115613fdc57613fdb61454f565b5b6040519080825280601f01601f19166020018201604052801561400e5781602001600182028036833780820191505090505b5090507f3000000000000000000000000000000000000000000000000000000000000000816000815181106140465761404561511b565b5b60200101907effffffffffffffffffffffffffffffffffffffffffffffffffffffffffffff1916908160001a9053507f7800000000000000000000000000000000000000000000000000000000000000816001815181106140aa576140a961511b565b5b60200101907effffffffffffffffffffffffffffffffffffffffffffffffffffffffffffff1916908160001a905350600060018460026140ea919061585d565b6140f4919061596f565b90505b6001811115614194577f3031323334353637383961626364656600000000000000000000000000000000600f8616601081106141365761413561511b565b5b1a60f81b82828151811061414d5761414c61511b565b5b60200101907effffffffffffffffffffffffffffffffffffffffffffffffffffffffffffff1916908160001a905350600485901c94508061418d90615bad565b90506140f7565b50600084146141d8576040517f08c379a00000000000000000000000000000000000000000000000000000000081526004016141cf90615c22565b60405180910390fd5b8091505092915050565b8260058101928215614211579160200282015b828111156142105782518255916020019190600101906141f5565b5b50905061421e9190614314565b5090565b82600a8101928215614251579160200282015b82811115614250578251825591602001919060010190614235565b5b50905061425e9190614314565b5090565b60405180610180016040528060008152602001600081526020016000815260200161428b6142cf565b815260200160008152602001600081526020016000815260200160008152602001600081526020016142bb6142f1565b815260200160008152602001600081525090565b6040518060a00160405280600590602082028036833780820191505090505090565b604051806101400160405280600a90602082028036833780820191505090505090565b5b8082111561432d576000816000905550600101614315565b5090565b6000604051905090565b600080fd5b600080fd5b60007fffffffff0000000000000000000000000000000000000000000000000000000082169050919050565b61437a81614345565b811461438557600080fd5b50565b60008135905061439781614371565b92915050565b6000602082840312156143b3576143b261433b565b5b60006143c184828501614388565b91505092915050565b60008115159050919050565b6143df816143ca565b82525050565b60006020820190506143fa60008301846143d6565b92915050565b600073ffffffffffffffffffffffffffffffffffffffff82169050919050565b6000819050919050565b600061444561444061443b84614400565b614420565b614400565b9050919050565b60006144578261442a565b9050919050565b60006144698261444c565b9050919050565b6144798161445e565b82525050565b60006020820190506144946000830184614470565b92915050565b60006144a582614400565b9050919050565b6144b58161449a565b81146144c057600080fd5b50565b6000813590506144d2816144ac565b92915050565b6000602082840312156144ee576144ed61433b565b5b60006144fc848285016144c3565b91505092915050565b6000819050919050565b61451881614505565b82525050565b6000602082019050614533600083018461450f565b92915050565b600080fd5b6000601f19601f8301169050919050565b7f4e487b7100000000000000000000000000000000000000000000000000000000600052604160045260246000fd5b6145878261453e565b810181811067ffffffffffffffff821117156145a6576145a561454f565b5b80604052505050565b60006145b9614331565b90506145c5828261457e565b919050565b600067ffffffffffffffff8211156145e5576145e461454f565b5b602082029050602081019050919050565b600080fd5b600080fd5b61460981614505565b811461461457600080fd5b50565b60008135905061462681614600565b92915050565b600067ffffffffffffffff8211156146475761464661454f565b5b602082029050919050565b60006146656146608461462c565b6145af565b9050806020840283018581111561467f5761467e6145f6565b5b835b818110156146a857806146948882614617565b845260208401935050602081019050614681565b5050509392505050565b600082601f8301126146c7576146c6614539565b5b60056146d4848285614652565b91505092915050565b600067ffffffffffffffff8211156146f8576146f761454f565b5b602082029050919050565b6000614716614711846146dd565b6145af565b905080602084028301858111156147305761472f6145f6565b5b835b8181101561475957806147458882614617565b845260208401935050602081019050614732565b5050509392505050565b600082601f83011261477857614777614539565b5b600a614785848285614703565b91505092915050565b600061032082840312156147a5576147a46145fb565b5b6147b06101806145af565b905060006147c084828501614617565b60008301525060206147d484828501614617565b60208301525060406147e884828501614617565b60408301525060606147fc848285016146b2565b60608301525061010061481184828501614617565b60808301525061012061482684828501614617565b60a08301525061014061483b84828501614617565b60c08301525061016061485084828501614617565b60e08301525061018061486584828501614617565b610100830152506101a061487b84828501614763565b610120830152506102e061489184828501614617565b610140830152506103006148a784828501614617565b6101608301525092915050565b60006148c76148c2846145ca565b6145af565b90508083825260208201905061032084028301858111156148eb576148ea6145f6565b5b835b818110156149155780614900888261478e565b845260208401935050610320810190506148ed565b5050509392505050565b600082601f83011261493457614933614539565b5b81356149448482602086016148b4565b91505092915050565b600067ffffffffffffffff8211156149685761496761454f565b5b602082029050602081019050919050565b600061498c6149878461494d565b6145af565b905080838252602082019050602084028301858111156149af576149ae6145f6565b5b835b818110156149d857806149c488826144c3565b8452602084019350506020810190506149b1565b5050509392505050565b600082601f8301126149f7576149f6614539565b5b8135614a07848260208601614979565b91505092915050565b60008060408385031215614a2757614a2661433b565b5b600083013567ffffffffffffffff811115614a4557614a44614340565b5b614a518582860161491f565b925050602083013567ffffffffffffffff811115614a7257614a71614340565b5b614a7e858286016149e2565b9150509250929050565b60008060008060808587031215614aa257614aa161433b565b5b6000614ab087828801614617565b9450506020614ac187828801614617565b9350506040614ad287828801614617565b9250506060614ae387828801614617565b91505092959194509250565b6000819050919050565b614b0281614aef565b8114614b0d57600080fd5b50565b600081359050614b1f81614af9565b92915050565b600060208284031215614b3b57614b3a61433b565b5b6000614b4984828501614b10565b91505092915050565b614b5b81614aef565b82525050565b6000602082019050614b766000830184614b52565b92915050565b60008060408385031215614b9357614b9261433b565b5b6000614ba185828601614b10565b9250506020614bb2858286016144c3565b9150509250929050565b6000614bc78261444c565b9050919050565b614bd781614bbc565b82525050565b6000602082019050614bf26000830184614bce565b92915050565b60008060408385031215614c0f57614c0e61433b565b5b6000614c1d858286016144c3565b9250506020614c2e85828601614617565b9150509250929050565b614c4181614505565b82525050565b600060059050919050565b600081905092915050565b6000819050919050565b6000614c738383614c38565b60208301905092915050565b6000602082019050919050565b614c9581614c47565b614c9f8184614c52565b9250614caa82614c5d565b8060005b83811015614cdb578151614cc28782614c67565b9650614ccd83614c7f565b925050600181019050614cae565b505050505050565b6000600a9050919050565b600081905092915050565b6000819050919050565b6000602082019050919050565b614d1981614ce3565b614d238184614cee565b9250614d2e82614cf9565b8060005b83811015614d5f578151614d468782614c67565b9650614d5183614d03565b925050600181019050614d32565b505050505050565b61032082016000820151614d7e6000850182614c38565b506020820151614d916020850182614c38565b506040820151614da46040850182614c38565b506060820151614db76060850182614c8c565b506080820151614dcb610100850182614c38565b5060a0820151614ddf610120850182614c38565b5060c0820151614df3610140850182614c38565b5060e0820151614e07610160850182614c38565b50610100820151614e1c610180850182614c38565b50610120820151614e316101a0850182614d10565b50610140820151614e466102e0850182614c38565b50610160820151614e5b610300850182614c38565b50505050565b600061032082019050614e776000830184614d67565b92915050565b600060208284031215614e9357614e9261433b565b5b6000614ea184828501614617565b91505092915050565b600081905092915050565b614ebe81614c47565b614ec88184614eaa565b9250614ed382614c5d565b8060005b83811015614f04578151614eeb8782614c67565b9650614ef683614c7f565b925050600181019050614ed7565b505050505050565b600060a082019050614f216000830184614eb5565b92915050565b614f308161449a565b82525050565b6000602082019050614f4b6000830184614f27565b92915050565b600080600060608486031215614f6a57614f6961433b565b5b6000614f78868287016144c3565b9350506020614f8986828701614617565b9250506040614f9a86828701614617565b9150509250925092565b600081905092915050565b614fb881614ce3565b614fc28184614fa4565b9250614fcd82614cf9565b8060005b83811015614ffe578151614fe58782614c67565b9650614ff083614d03565b925050600181019050614fd1565b505050505050565b60006101408201905061501c6000830184614faf565b92915050565b600061502d8261444c565b9050919050565b61503d81615022565b82525050565b60006020820190506150586000830184615034565b92915050565b600080604083850312156150755761507461433b565b5b600061508385828601614617565b9250506020615094858286016144c3565b9150509250929050565b600082825260208201905092915050565b7f3130320000000000000000000000000000000000000000000000000000000000600082015250565b60006150e560038361509e565b91506150f0826150af565b602082019050919050565b60006020820190508181036000830152615114816150d8565b9050919050565b7f4e487b7100000000000000000000000000000000000000000000000000000000600052603260045260246000fd5b7f3130310000000000000000000000000000000000000000000000000000000000600082015250565b600061518060038361509e565b915061518b8261514a565b602082019050919050565b600060208201905081810360008301526151af81615173565b9050919050565b600081519050919050565b600081905092915050565b6000819050602082019050919050565b6151e58161449a565b82525050565b60006151f783836151dc565b60208301905092915050565b6000602082019050919050565b600061521b826151b6565b61522581856151c1565b9350615230836151cc565b8060005b8381101561526157815161524888826151eb565b975061525383615203565b925050600181019050615234565b5085935050505092915050565b600061527a8284615210565b915081905092915050565b600081519050919050565b600081905092915050565b6000819050602082019050919050565b6152b481614505565b82525050565b60006152c683836152ab565b60208301905092915050565b600081905092915050565b6152e681614c47565b6152f081846152d2565b92506152fb82614c5d565b8060005b8381101561532c57815161531387826152ba565b965061531e83614c7f565b9250506001810190506152ff565b505050505050565b600061534083836152dd565b60a08301905092915050565b600081905092915050565b61536081614ce3565b61536a818461534c565b925061537582614cf9565b8060005b838110156153a657815161538d87826152ba565b965061539883614d03565b925050600181019050615379565b505050505050565b60006153ba8383615357565b6101408301905092915050565b6000820160008201516153da84826152ba565b93505060208201516153ec84826152ba565b93505060408201516153fe84826152ba565b93505060608201516154108482615334565b935050608082015161542284826152ba565b93505060a082015161543484826152ba565b93505060c082015161544684826152ba565b93505060e082015161545884826152ba565b93505061010082015161546b84826152ba565b93505061012082015161547e84826153ae565b93505061014082015161549184826152ba565b9350506101608201516154a484826152ba565b935050505050565b60006154b883836153c7565b6103208301905092915050565b6000602082019050919050565b60006154dd82615285565b6154e78185615290565b93506154f28361529b565b8060005b8381101561552357815161550a88826154ac565b9750615515836154c5565b9250506001810190506154f6565b5085935050505092915050565b600061553c82846154d2565b915081905092915050565b7f416363657373436f6e74726f6c3a2063616e206f6e6c792072656e6f756e636560008201527f20726f6c657320666f722073656c660000000000000000000000000000000000602082015250565b60006155a3602f8361509e565b91506155ae82615547565b604082019050919050565b600060208201905081810360008301526155d281615596565b9050919050565b6000815190506155e8816144ac565b92915050565b6000602082840312156156045761560361433b565b5b6000615612848285016155d9565b91505092915050565b600067ffffffffffffffff8211156156365761563561454f565b5b602082029050602081019050919050565b60008151905061565681614600565b92915050565b600061566f61566a8461561b565b6145af565b90508083825260208201905060208402830185811115615692576156916145f6565b5b835b818110156156bb57806156a78882615647565b845260208401935050602081019050615694565b5050509392505050565b600082601f8301126156da576156d9614539565b5b81516156ea84826020860161565c565b91505092915050565b6000602082840312156157095761570861433b565b5b600082015167ffffffffffffffff81111561572757615726614340565b5b615733848285016156c5565b91505092915050565b6000604082019050615751600083018561450f565b61575e602083018461450f565b9392505050565b7f3130340000000000000000000000000000000000000000000000000000000000600082015250565b600061579b60038361509e565b91506157a682615765565b602082019050919050565b600060208201905081810360008301526157ca8161578e565b9050919050565b60006040820190506157e66000830185614f27565b6157f3602083018461450f565b9392505050565b7f4e487b7100000000000000000000000000000000000000000000000000000000600052601160045260246000fd5b600061583482614505565b915061583f83614505565b9250828203905081811115615857576158566157fa565b5b92915050565b600061586882614505565b915061587383614505565b925082820261588181614505565b91508282048414831517615898576158976157fa565b5b5092915050565b6000602082840312156158b5576158b461433b565b5b60006158c384828501615647565b91505092915050565b7f3130330000000000000000000000000000000000000000000000000000000000600082015250565b600061590260038361509e565b915061590d826158cc565b602082019050919050565b60006020820190508181036000830152615931816158f5565b9050919050565b600060608201905061594d6000830186614f27565b61595a6020830185614f27565b615967604083018461450f565b949350505050565b600061597a82614505565b915061598583614505565b925082820190508082111561599d5761599c6157fa565b5b92915050565b7f4f776e61626c653a2063616c6c6572206973206e6f7420746865206f776e6572600082015250565b60006159d960208361509e565b91506159e4826159a3565b602082019050919050565b60006020820190508181036000830152615a08816159cc565b9050919050565b600081905092915050565b7f416363657373436f6e74726f6c3a206163636f756e7420000000000000000000600082015250565b6000615a50601783615a0f565b9150615a5b82615a1a565b601782019050919050565b600081519050919050565b60005b83811015615a8f578082015181840152602081019050615a74565b60008484015250505050565b6000615aa682615a66565b615ab08185615a0f565b9350615ac0818560208601615a71565b80840191505092915050565b7f206973206d697373696e6720726f6c6520000000000000000000000000000000600082015250565b6000615b02601183615a0f565b9150615b0d82615acc565b601182019050919050565b6000615b2382615a43565b9150615b2f8285615a9b565b9150615b3a82615af5565b9150615b468284615a9b565b91508190509392505050565b6000615b5d82615a66565b615b67818561509e565b9350615b77818560208601615a71565b615b808161453e565b840191505092915050565b60006020820190508181036000830152615ba58184615b52565b905092915050565b6000615bb882614505565b915060008203615bcb57615bca6157fa565b5b600182039050919050565b7f537472696e67733a20686578206c656e67746820696e73756666696369656e74600082015250565b6000615c0c60208361509e565b9150615c1782615bd6565b602082019050919050565b60006020820190508181036000830152615c3b81615bff565b905091905056fea2646970667358221220a43d70dde29dadecf58c18f73baa18c8f53e221b4ad0e8acebe26364c26344be64736f6c63430008180033",
  "linkReferences": {},
  "deployedLinkReferences": {}
}